{
  "_format": "hh-sol-artifact-1",
  "contractName": "RewardLPTokenManager",
  "sourceName": "contracts/token/RewardLPTokenManager.sol",
  "abi": [
    {
      "inputs": [
        {
          "internalType": "string",
          "name": "name",
          "type": "string"
        },
        {
          "internalType": "string",
          "name": "symbol",
          "type": "string"
        },
        {
          "internalType": "string",
          "name": "baseTokenURI",
          "type": "string"
        }
      ],
      "stateMutability": "nonpayable",
      "type": "constructor"
    },
    {
      "anonymous": false,
      "inputs": [
        {
          "indexed": true,
          "internalType": "address",
          "name": "owner",
          "type": "address"
        },
        {
          "indexed": true,
          "internalType": "address",
          "name": "approved",
          "type": "address"
        },
        {
          "indexed": true,
          "internalType": "uint256",
          "name": "tokenId",
          "type": "uint256"
        }
      ],
      "name": "Approval",
      "type": "event"
    },
    {
      "anonymous": false,
      "inputs": [
        {
          "indexed": true,
          "internalType": "address",
          "name": "owner",
          "type": "address"
        },
        {
          "indexed": true,
          "internalType": "address",
          "name": "operator",
          "type": "address"
        },
        {
          "indexed": false,
          "internalType": "bool",
          "name": "approved",
          "type": "bool"
        }
      ],
      "name": "ApprovalForAll",
      "type": "event"
    },
    {
      "anonymous": false,
      "inputs": [
        {
          "indexed": false,
          "internalType": "uint256",
          "name": "tokenId",
          "type": "uint256"
        },
        {
          "indexed": false,
          "internalType": "address",
          "name": "owner",
          "type": "address"
        },
        {
          "indexed": false,
          "internalType": "address",
          "name": "rewardPool",
          "type": "address"
        },
        {
          "indexed": false,
          "internalType": "uint256",
          "name": "poolTokenId",
          "type": "uint256"
        }
      ],
      "name": "BurnedRewardToken",
      "type": "event"
    },
    {
      "anonymous": false,
      "inputs": [
        {
          "indexed": false,
          "internalType": "uint256",
          "name": "tokenId",
          "type": "uint256"
        },
        {
          "indexed": false,
          "internalType": "address",
          "name": "owner",
          "type": "address"
        },
        {
          "indexed": false,
          "internalType": "address",
          "name": "rewardPool",
          "type": "address"
        },
        {
          "indexed": false,
          "internalType": "uint256",
          "name": "poolTokenId",
          "type": "uint256"
        },
        {
          "indexed": false,
          "internalType": "uint256",
          "name": "tosAmount",
          "type": "uint256"
        }
      ],
      "name": "MintedRewardToken",
      "type": "event"
    },
    {
      "anonymous": false,
      "inputs": [
        {
          "indexed": true,
          "internalType": "bytes32",
          "name": "role",
          "type": "bytes32"
        },
        {
          "indexed": true,
          "internalType": "bytes32",
          "name": "previousAdminRole",
          "type": "bytes32"
        },
        {
          "indexed": true,
          "internalType": "bytes32",
          "name": "newAdminRole",
          "type": "bytes32"
        }
      ],
      "name": "RoleAdminChanged",
      "type": "event"
    },
    {
      "anonymous": false,
      "inputs": [
        {
          "indexed": true,
          "internalType": "bytes32",
          "name": "role",
          "type": "bytes32"
        },
        {
          "indexed": true,
          "internalType": "address",
          "name": "account",
          "type": "address"
        },
        {
          "indexed": true,
          "internalType": "address",
          "name": "sender",
          "type": "address"
        }
      ],
      "name": "RoleGranted",
      "type": "event"
    },
    {
      "anonymous": false,
      "inputs": [
        {
          "indexed": true,
          "internalType": "bytes32",
          "name": "role",
          "type": "bytes32"
        },
        {
          "indexed": true,
          "internalType": "address",
          "name": "account",
          "type": "address"
        },
        {
          "indexed": true,
          "internalType": "address",
          "name": "sender",
          "type": "address"
        }
      ],
      "name": "RoleRevoked",
      "type": "event"
    },
    {
      "anonymous": false,
      "inputs": [
        {
          "indexed": true,
          "internalType": "address",
          "name": "from",
          "type": "address"
        },
        {
          "indexed": true,
          "internalType": "address",
          "name": "to",
          "type": "address"
        },
        {
          "indexed": true,
          "internalType": "uint256",
          "name": "tokenId",
          "type": "uint256"
        }
      ],
      "name": "Transfer",
      "type": "event"
    },
    {
      "anonymous": false,
      "inputs": [
        {
          "indexed": false,
          "internalType": "uint256",
          "name": "tokenId",
          "type": "uint256"
        },
        {
          "indexed": false,
          "internalType": "uint256",
          "name": "amount",
          "type": "uint256"
        }
      ],
      "name": "UsedRewardToken",
      "type": "event"
    },
    {
      "inputs": [],
      "name": "ADMIN_ROLE",
      "outputs": [
        {
          "internalType": "bytes32",
          "name": "",
          "type": "bytes32"
        }
      ],
      "stateMutability": "view",
      "type": "function"
    },
    {
      "inputs": [],
      "name": "DEFAULT_ADMIN_ROLE",
      "outputs": [
        {
          "internalType": "bytes32",
          "name": "",
          "type": "bytes32"
        }
      ],
      "stateMutability": "view",
      "type": "function"
    },
    {
      "inputs": [],
      "name": "POLICY_ROLE",
      "outputs": [
        {
          "internalType": "bytes32",
          "name": "",
          "type": "bytes32"
        }
      ],
      "stateMutability": "view",
      "type": "function"
    },
    {
      "inputs": [],
      "name": "USER_ROLE",
      "outputs": [
        {
          "internalType": "bytes32",
          "name": "",
          "type": "bytes32"
        }
      ],
      "stateMutability": "view",
      "type": "function"
    },
    {
      "inputs": [
        {
          "internalType": "address",
          "name": "account",
          "type": "address"
        }
      ],
      "name": "addAdmin",
      "outputs": [],
      "stateMutability": "nonpayable",
      "type": "function"
    },
    {
      "inputs": [
        {
          "internalType": "address",
          "name": "to",
          "type": "address"
        },
        {
          "internalType": "uint256",
          "name": "tokenId",
          "type": "uint256"
        }
      ],
      "name": "approve",
      "outputs": [],
      "stateMutability": "nonpayable",
      "type": "function"
    },
    {
      "inputs": [
        {
          "internalType": "address",
          "name": "_rewardPool",
          "type": "address"
        },
        {
          "internalType": "uint256",
          "name": "factoredAmount",
          "type": "uint256"
        }
      ],
      "name": "balanceOf",
      "outputs": [
        {
          "internalType": "uint256",
          "name": "",
          "type": "uint256"
        }
      ],
      "stateMutability": "view",
      "type": "function"
    },
    {
      "inputs": [
        {
          "internalType": "address",
          "name": "owner",
          "type": "address"
        }
      ],
      "name": "balanceOf",
      "outputs": [
        {
          "internalType": "uint256",
          "name": "",
          "type": "uint256"
        }
      ],
      "stateMutability": "view",
      "type": "function"
    },
    {
      "inputs": [
        {
          "internalType": "uint256",
          "name": "tokenId",
          "type": "uint256"
        }
      ],
      "name": "burn",
      "outputs": [],
      "stateMutability": "nonpayable",
      "type": "function"
    },
    {
      "inputs": [
        {
          "internalType": "uint256",
          "name": "tokenId",
          "type": "uint256"
        }
      ],
      "name": "deposit",
      "outputs": [
        {
          "components": [
            {
              "internalType": "address",
              "name": "rewardPool",
              "type": "address"
            },
            {
              "internalType": "address",
              "name": "owner",
              "type": "address"
            },
            {
              "internalType": "uint256",
              "name": "poolTokenId",
              "type": "uint256"
            },
            {
              "internalType": "uint256",
              "name": "tosAmount",
              "type": "uint256"
            },
            {
              "internalType": "uint256",
              "name": "usedAmount",
              "type": "uint256"
            },
            {
              "internalType": "uint256",
              "name": "stakedTime",
              "type": "uint256"
            },
            {
              "internalType": "uint256",
              "name": "factoredAmount",
              "type": "uint256"
            }
          ],
          "internalType": "struct LibRewardLPToken.RewardTokenInfo",
          "name": "",
          "type": "tuple"
        }
      ],
      "stateMutability": "view",
      "type": "function"
    },
    {
      "inputs": [
        {
          "internalType": "uint256",
          "name": "",
          "type": "uint256"
        }
      ],
      "name": "deposits",
      "outputs": [
        {
          "internalType": "address",
          "name": "rewardPool",
          "type": "address"
        },
        {
          "internalType": "address",
          "name": "owner",
          "type": "address"
        },
        {
          "internalType": "uint256",
          "name": "poolTokenId",
          "type": "uint256"
        },
        {
          "internalType": "uint256",
          "name": "tosAmount",
          "type": "uint256"
        },
        {
          "internalType": "uint256",
          "name": "usedAmount",
          "type": "uint256"
        },
        {
          "internalType": "uint256",
          "name": "stakedTime",
          "type": "uint256"
        },
        {
          "internalType": "uint256",
          "name": "factoredAmount",
          "type": "uint256"
        }
      ],
      "stateMutability": "view",
      "type": "function"
    },
    {
      "inputs": [],
      "name": "dtos",
      "outputs": [
        {
          "internalType": "address",
          "name": "",
          "type": "address"
        }
      ],
      "stateMutability": "view",
      "type": "function"
    },
    {
      "inputs": [
        {
          "internalType": "uint256",
          "name": "tokenId",
          "type": "uint256"
        }
      ],
      "name": "getApproved",
      "outputs": [
        {
          "internalType": "address",
          "name": "",
          "type": "address"
        }
      ],
      "stateMutability": "view",
      "type": "function"
    },
    {
      "inputs": [
        {
          "internalType": "bytes32",
          "name": "role",
          "type": "bytes32"
        }
      ],
      "name": "getRoleAdmin",
      "outputs": [
        {
          "internalType": "bytes32",
          "name": "",
          "type": "bytes32"
        }
      ],
      "stateMutability": "view",
      "type": "function"
    },
    {
      "inputs": [
        {
          "internalType": "bytes32",
          "name": "role",
          "type": "bytes32"
        },
        {
          "internalType": "address",
          "name": "account",
          "type": "address"
        }
      ],
      "name": "grantRole",
      "outputs": [],
      "stateMutability": "nonpayable",
      "type": "function"
    },
    {
      "inputs": [
        {
          "internalType": "bytes32",
          "name": "role",
          "type": "bytes32"
        },
        {
          "internalType": "address",
          "name": "account",
          "type": "address"
        }
      ],
      "name": "hasRole",
      "outputs": [
        {
          "internalType": "bool",
          "name": "",
          "type": "bool"
        }
      ],
      "stateMutability": "view",
      "type": "function"
    },
    {
      "inputs": [
        {
          "internalType": "address",
          "name": "account",
          "type": "address"
        }
      ],
      "name": "isAdmin",
      "outputs": [
        {
          "internalType": "bool",
          "name": "",
          "type": "bool"
        }
      ],
      "stateMutability": "view",
      "type": "function"
    },
    {
      "inputs": [
        {
          "internalType": "address",
          "name": "owner",
          "type": "address"
        },
        {
          "internalType": "address",
          "name": "operator",
          "type": "address"
        }
      ],
      "name": "isApprovedForAll",
      "outputs": [
        {
          "internalType": "bool",
          "name": "",
          "type": "bool"
        }
      ],
      "stateMutability": "view",
      "type": "function"
    },
    {
      "inputs": [
        {
          "internalType": "address",
          "name": "to",
          "type": "address"
        },
        {
          "internalType": "address",
          "name": "rewardPool",
          "type": "address"
        },
        {
          "internalType": "uint256",
          "name": "poolTokenId",
          "type": "uint256"
        },
        {
          "internalType": "uint256",
          "name": "tosAmount",
          "type": "uint256"
        },
        {
          "internalType": "uint256",
          "name": "factoredAmount",
          "type": "uint256"
        }
      ],
      "name": "mint",
      "outputs": [
        {
          "internalType": "uint256",
          "name": "",
          "type": "uint256"
        }
      ],
      "stateMutability": "nonpayable",
      "type": "function"
    },
    {
      "inputs": [
        {
          "internalType": "uint256[]",
          "name": "tokenIds",
          "type": "uint256[]"
        },
        {
          "internalType": "uint256[]",
          "name": "amounts",
          "type": "uint256[]"
        }
      ],
      "name": "multiUse",
      "outputs": [],
      "stateMutability": "nonpayable",
      "type": "function"
    },
    {
      "inputs": [],
      "name": "name",
      "outputs": [
        {
          "internalType": "string",
          "name": "",
          "type": "string"
        }
      ],
      "stateMutability": "view",
      "type": "function"
    },
    {
      "inputs": [
        {
          "internalType": "uint256",
          "name": "tokenId",
          "type": "uint256"
        }
      ],
      "name": "ownerOf",
      "outputs": [
        {
          "internalType": "address",
          "name": "",
          "type": "address"
        }
      ],
      "stateMutability": "view",
      "type": "function"
    },
    {
      "inputs": [
        {
          "internalType": "address",
          "name": "account",
          "type": "address"
        }
      ],
      "name": "removeAdmin",
      "outputs": [],
      "stateMutability": "nonpayable",
      "type": "function"
    },
    {
      "inputs": [
        {
          "internalType": "bytes32",
          "name": "role",
          "type": "bytes32"
        },
        {
          "internalType": "address",
          "name": "account",
          "type": "address"
        }
      ],
      "name": "renounceRole",
      "outputs": [],
      "stateMutability": "nonpayable",
      "type": "function"
    },
    {
      "inputs": [
        {
          "internalType": "bytes32",
          "name": "role",
          "type": "bytes32"
        },
        {
          "internalType": "address",
          "name": "account",
          "type": "address"
        }
      ],
      "name": "revokeRole",
      "outputs": [],
      "stateMutability": "nonpayable",
      "type": "function"
    },
    {
      "inputs": [
        {
          "internalType": "address",
          "name": "from",
          "type": "address"
        },
        {
          "internalType": "address",
          "name": "to",
          "type": "address"
        },
        {
          "internalType": "uint256",
          "name": "tokenId",
          "type": "uint256"
        }
      ],
      "name": "safeTransferFrom",
      "outputs": [],
      "stateMutability": "nonpayable",
      "type": "function"
    },
    {
      "inputs": [
        {
          "internalType": "address",
          "name": "from",
          "type": "address"
        },
        {
          "internalType": "address",
          "name": "to",
          "type": "address"
        },
        {
          "internalType": "uint256",
          "name": "tokenId",
          "type": "uint256"
        },
        {
          "internalType": "bytes",
          "name": "data",
          "type": "bytes"
        }
      ],
      "name": "safeTransferFrom",
      "outputs": [],
      "stateMutability": "nonpayable",
      "type": "function"
    },
    {
      "inputs": [
        {
          "internalType": "address",
          "name": "operator",
          "type": "address"
        },
        {
          "internalType": "bool",
          "name": "approved",
          "type": "bool"
        }
      ],
      "name": "setApprovalForAll",
      "outputs": [],
      "stateMutability": "nonpayable",
      "type": "function"
    },
    {
      "inputs": [
        {
          "internalType": "string",
          "name": "baseTokenURI",
          "type": "string"
        }
      ],
      "name": "setBaseTokenURI",
      "outputs": [],
      "stateMutability": "nonpayable",
      "type": "function"
    },
    {
      "inputs": [
        {
          "internalType": "address",
          "name": "_dtos",
          "type": "address"
        }
      ],
      "name": "setDtos",
      "outputs": [],
      "stateMutability": "nonpayable",
      "type": "function"
    },
    {
      "inputs": [
        {
          "internalType": "bytes4",
          "name": "interfaceId",
          "type": "bytes4"
        }
      ],
      "name": "supportsInterface",
      "outputs": [
        {
          "internalType": "bool",
          "name": "",
          "type": "bool"
        }
      ],
      "stateMutability": "view",
      "type": "function"
    },
    {
      "inputs": [],
      "name": "symbol",
      "outputs": [
        {
          "internalType": "string",
          "name": "",
          "type": "string"
        }
      ],
      "stateMutability": "view",
      "type": "function"
    },
    {
      "inputs": [
        {
          "internalType": "uint256",
          "name": "tokenId",
          "type": "uint256"
        }
      ],
      "name": "tokenURI",
      "outputs": [
        {
          "internalType": "string",
          "name": "",
          "type": "string"
        }
      ],
      "stateMutability": "view",
      "type": "function"
    },
    {
      "inputs": [
        {
          "internalType": "address",
          "name": "account",
          "type": "address"
        }
      ],
      "name": "tokensOfOwner",
      "outputs": [
        {
          "internalType": "uint256[]",
          "name": "",
          "type": "uint256[]"
        }
      ],
      "stateMutability": "view",
      "type": "function"
    },
    {
      "inputs": [
        {
          "internalType": "address",
          "name": "newAdmin",
          "type": "address"
        }
      ],
      "name": "transferAdmin",
      "outputs": [],
      "stateMutability": "nonpayable",
      "type": "function"
    },
    {
      "inputs": [
        {
          "internalType": "address",
          "name": "from",
          "type": "address"
        },
        {
          "internalType": "address",
          "name": "to",
          "type": "address"
        },
        {
          "internalType": "uint256",
          "name": "tokenId",
          "type": "uint256"
        }
      ],
      "name": "transferFrom",
      "outputs": [],
      "stateMutability": "nonpayable",
      "type": "function"
    },
    {
      "inputs": [
        {
          "internalType": "uint256",
          "name": "tokenId",
          "type": "uint256"
        }
      ],
      "name": "usableAmount",
      "outputs": [
        {
          "internalType": "uint256",
          "name": "",
          "type": "uint256"
        }
      ],
      "stateMutability": "view",
      "type": "function"
    },
    {
      "inputs": [
        {
          "internalType": "uint256[]",
          "name": "tokenIds",
          "type": "uint256[]"
        }
      ],
      "name": "usableAmounts",
      "outputs": [
        {
          "internalType": "uint256[]",
          "name": "",
          "type": "uint256[]"
        }
      ],
      "stateMutability": "view",
      "type": "function"
    },
    {
      "inputs": [
        {
          "internalType": "uint256",
          "name": "tokenId",
          "type": "uint256"
        },
        {
          "internalType": "uint256",
          "name": "amount",
          "type": "uint256"
        }
      ],
      "name": "use",
      "outputs": [],
      "stateMutability": "nonpayable",
      "type": "function"
    },
    {
      "inputs": [
        {
          "internalType": "address",
          "name": "account",
          "type": "address"
        },
        {
          "internalType": "uint256",
          "name": "_index",
          "type": "uint256"
        }
      ],
      "name": "userToken",
      "outputs": [
        {
          "internalType": "uint256",
          "name": "",
          "type": "uint256"
        }
      ],
      "stateMutability": "view",
      "type": "function"
    },
    {
      "inputs": [
        {
          "internalType": "address",
          "name": "account",
          "type": "address"
        }
      ],
      "name": "userTokenCount",
      "outputs": [
        {
          "internalType": "uint256",
          "name": "",
          "type": "uint256"
        }
      ],
      "stateMutability": "view",
      "type": "function"
    },
    {
      "inputs": [
        {
          "internalType": "address",
          "name": "",
          "type": "address"
        },
        {
          "internalType": "uint256",
          "name": "",
          "type": "uint256"
        }
      ],
      "name": "userTokenIndexs",
      "outputs": [
        {
          "internalType": "uint256",
          "name": "",
          "type": "uint256"
        }
      ],
      "stateMutability": "view",
      "type": "function"
    },
    {
      "inputs": [
        {
          "internalType": "address",
          "name": "",
          "type": "address"
        },
        {
          "internalType": "uint256",
          "name": "",
          "type": "uint256"
        }
      ],
      "name": "userTokens",
      "outputs": [
        {
          "internalType": "uint256",
          "name": "",
          "type": "uint256"
        }
      ],
      "stateMutability": "view",
      "type": "function"
    }
  ],
  "bytecode": "0x60806040523480156200001157600080fd5b50604051620039e7380380620039e78339810160408190526200003491620002c7565b8251839083906200004d9060019060208501906200016e565b508051620000639060029060208401906200016e565b505081516200007b915060089060208401906200016e565b5062000089600033620000be565b620000b57fdf8b4c520ffe197c5343c6f5aec59570151ef9a492f2c624fd45ddde6135ec4233620000be565b505050620003a7565b620000ca8282620000ce565b5050565b6000828152602081815260408083206001600160a01b038516845290915290205460ff16620000ca576000828152602081815260408083206001600160a01b03851684529091529020805460ff191660011790556200012a3390565b6001600160a01b0316816001600160a01b0316837f2f8788117e7eff1d82e926ec794901d17c78024a50270940304540a733656f0d60405160405180910390a45050565b8280546200017c9062000354565b90600052602060002090601f016020900481019282620001a05760008555620001eb565b82601f10620001bb57805160ff1916838001178555620001eb565b82800160010185558215620001eb579182015b82811115620001eb578251825591602001919060010190620001ce565b50620001f9929150620001fd565b5090565b5b80821115620001f95760008155600101620001fe565b600082601f83011262000225578081fd5b81516001600160401b038082111562000242576200024262000391565b604051601f8301601f19908116603f011681019082821181831017156200026d576200026d62000391565b8160405283815260209250868385880101111562000289578485fd5b8491505b83821015620002ac57858201830151818301840152908201906200028d565b83821115620002bd57848385830101525b9695505050505050565b600080600060608486031215620002dc578283fd5b83516001600160401b0380821115620002f3578485fd5b620003018783880162000214565b9450602086015191508082111562000317578384fd5b620003258783880162000214565b935060408601519150808211156200033b578283fd5b506200034a8682870162000214565b9150509250925092565b600181811c908216806200036957607f821691505b602082108114156200038b57634e487b7160e01b600052602260045260246000fd5b50919050565b634e487b7160e01b600052604160045260246000fd5b61363080620003b76000396000f3fe608060405234801561001057600080fd5b50600436106102685760003560e01c80637048027511610151578063b02c43d0116100c3578063d547741f11610087578063d547741f14610697578063dc027438146106aa578063e745e230146106d3578063e985e9c5146106e6578063f98e422f14610722578063f9f411d81461073557600080fd5b8063b02c43d01461053d578063b6b55f25146105d4578063b88d4fde14610646578063baa2b69514610659578063c87b56dd1461068457600080fd5b806391d148541161011557806391d14854146104e157806395d89b41146104f45780639c806fae146104fc5780639ceeaca71461050f578063a217fddf14610522578063a22cb4651461052a57600080fd5b8063704802751461048057806370a082311461049357806375829def146104a657806375b238fc146104b95780638462151c146104ce57600080fd5b806324d7806c116101ea57806342842e0e116101ae57806342842e0e1461040e57806342966c681461042157806345dab6ff1461043457806349c389c3146104475780634edad3c21461045a5780636352211e1461046d57600080fd5b806324d7806c146103a25780632f2ff15d146103b557806330176e13146103c857806336568abe146103db5780633a02dffb146103ee57600080fd5b80631311916111610231578063131191611461030b5780631785f53c14610332578063229852461461034557806323b872dd1461036c578063248a9ca31461037f57600080fd5b8062fdd58e1461026d57806301ffc9a71461029357806306fdde03146102b6578063081812fc146102cb578063095ea7b3146102f6575b600080fd5b61028061027b366004612ea8565b610748565b6040519081526020015b60405180910390f35b6102a66102a1366004612f9f565b610880565b604051901515815260200161028a565b6102be61088b565b60405161028a9190613242565b6102de6102d9366004612f65565b61091d565b6040516001600160a01b03909116815260200161028a565b610309610304366004612ea8565b610944565b005b6102807f14823911f2da1b49f045a0929a60b8c1f2a7fc8c06c7284ca3e8ab4e193a08c881565b610309610340366004612d22565b610a5f565b6102807ffb5864e8ff833c3cb2d2d08505e82ff02a43554c74a35d4f5a64e8526127831181565b61030961037a366004612d6e565b610a9f565b61028061038d366004612f65565b60009081526020819052604090206001015490565b6102a66103b0366004612d22565b610ad0565b6103096103c3366004612f7d565b610aea565b6103096103d6366004612fd7565b610b0f565b6103096103e9366004612f7d565b610ba4565b6104016103fc366004612ed1565b610c1e565b60405161028a91906131fe565b61030961041c366004612d6e565b610cf6565b61030961042f366004612f65565b610d11565b610309610442366004612d22565b610eee565b610280610455366004612ea8565b610fa2565b610280610468366004612f65565b611042565b6102de61047b366004612f65565b6110c0565b61030961048e366004612d22565b611120565b6102806104a1366004612d22565b61115d565b6103096104b4366004612d22565b6111e3565b6102806000805160206135db83398151915281565b6104016104dc366004612d22565b6112e0565b6102a66104ef366004612f7d565b61134c565b6102be611375565b61030961050a366004613035565b611384565b61028061051d366004612e22565b61150f565b610280600081565b610309610538366004612e6e565b6116e9565b61059461054b366004612f65565b600a6020526000908152604090208054600182015460028301546003840154600485015460058601546006909601546001600160a01b0395861696959094169492939192909187565b604080516001600160a01b039889168152979096166020880152948601939093526060850191909152608084015260a083015260c082015260e00161028a565b6105e76105e2366004612f65565b6116f4565b60405161028a919081516001600160a01b0390811682526020808401519091169082015260408083015190820152606080830151908201526080808301519082015260a0828101519082015260c0918201519181019190915260e00190565b610309610654366004612da9565b6117b5565b610280610667366004612ea8565b600c60209081526000928352604080842090915290825290205481565b6102be610692366004612f65565b6117ed565b6103096106a5366004612f7d565b611853565b6102806106b8366004612d22565b6001600160a01b03166000908152600b602052604090205490565b6103096106e1366004612f04565b611878565b6102a66106f4366004612d3c565b6001600160a01b03918216600090815260066020908152604080832093909416825291909152205460ff1690565b6009546102de906001600160a01b031681565b610280610743366004612ea8565b61193b565b60006001600160a01b038316158061075e575081155b1561076b5750600061087a565b826001600160a01b031663a155041f6040518163ffffffff1660e01b815260040160206040518083038186803b1580156107a457600080fd5b505afa1580156107b8573d6000803e3d6000fd5b505050506040513d601f19601f820116820180604052508101906107dc919061301d565b6107e85750600061087a565b6000836001600160a01b0316635184cc436040518163ffffffff1660e01b815260040160206040518083038186803b15801561082357600080fd5b505afa158015610837573d6000803e3d6000fd5b505050506040513d601f19601f8201168201806040525081019061085b919061301d565b90508061086c57600091505061087a565b610876838261196c565b9150505b92915050565b600061087a8261198b565b60606001805461089a9061350b565b80601f01602080910402602001604051908101604052809291908181526020018280546108c69061350b565b80156109135780601f106108e857610100808354040283529160200191610913565b820191906000526020600020905b8154815290600101906020018083116108f657829003601f168201915b5050505050905090565b6000610928826119cb565b506000908152600560205260409020546001600160a01b031690565b600061094f826110c0565b9050806001600160a01b0316836001600160a01b031614156109c25760405162461bcd60e51b815260206004820152602160248201527f4552433732313a20617070726f76616c20746f2063757272656e74206f776e656044820152603960f91b60648201526084015b60405180910390fd5b336001600160a01b03821614806109de57506109de81336106f4565b610a505760405162461bcd60e51b815260206004820152603d60248201527f4552433732313a20617070726f76652063616c6c6572206973206e6f7420746f60448201527f6b656e206f776e6572206f7220617070726f76656420666f7220616c6c00000060648201526084016109b9565b610a5a8383611a2a565b505050565b610a6833610ad0565b610a845760405162461bcd60e51b81526004016109b9906133c1565b610a9c6000805160206135db83398151915282610ba4565b50565b610aa93382611a98565b610ac55760405162461bcd60e51b81526004016109b9906132dd565b610a5a838383611b16565b600061087a6000805160206135db8339815191528361134c565b600082815260208190526040902060010154610b0581611c0e565b610a5a8383611c18565b610b1833610ad0565b610b345760405162461bcd60e51b81526004016109b9906133c1565b80516020820120604051610b4a90600890613082565b60405180910390201415610b8d5760405162461bcd60e51b815260206004820152600a60248201526973616d652076616c756560b01b60448201526064016109b9565b8051610ba0906008906020840190612b92565b5050565b6001600160a01b0381163314610c145760405162461bcd60e51b815260206004820152602f60248201527f416363657373436f6e74726f6c3a2063616e206f6e6c792072656e6f756e636560448201526e103937b632b9903337b91039b2b63360891b60648201526084016109b9565b610ba08282611c9c565b60606000825167ffffffffffffffff811115610c4a57634e487b7160e01b600052604160045260246000fd5b604051908082528060200260200182016040528015610c73578160200160208202803683370190505b50905060005b8351811015610cef57610cb2848281518110610ca557634e487b7160e01b600052603260045260246000fd5b6020026020010151611042565b828281518110610cd257634e487b7160e01b600052603260045260246000fd5b602090810291909101015280610ce781613546565b915050610c79565b5092915050565b610a5a838383604051806020016040528060008152506117b5565b6009546001600160a01b031680610d3a5760405162461bcd60e51b81526004016109b990613403565b610d526000805160206135db8339815191523361134c565b610db35760405162461bcd60e51b815260206004820152602c60248201527f5265776172644c50546f6b656e4d616e616765723a206d75737420686176652060448201526b3937b632903a3790313ab93760a11b60648201526084016109b9565b6000828152600a60208181526040808420815160e08101835281546001600160a01b03908116808352600184015490911682860181905260028401549483018590526003840154606084015260048401546080840152600584015460a084015260069093015460c0830152958890529390925291929091610e3386611d01565b610e3d8387611d96565b6000868152600a602052604080822080546001600160a01b0319908116825560018201805490911690556002810183905560038101839055600481018390556005810183905560060191909155517f6be1e8bee936bb77d5bf7cc75a1a55d6c28553262b54415d68ee57dc031a9ade90610ede9088908690869086909384526001600160a01b03928316602085015291166040830152606082015260800190565b60405180910390a1505050505050565b610ef733610ad0565b610f135760405162461bcd60e51b81526004016109b9906133c1565b6001600160a01b038116610f395760405162461bcd60e51b81526004016109b990613403565b6009546001600160a01b0382811691161415610f805760405162461bcd60e51b81526004016109b99060208082526004908201526373616d6560e01b604082015260600190565b600980546001600160a01b0319166001600160a01b0392909216919091179055565b6001600160a01b0382166000908152600b60205260408120548210610ff75760405162461bcd60e51b815260206004820152600b60248201526a0eee4dedcce40d2dcc8caf60ab1b60448201526064016109b9565b6001600160a01b0383166000908152600b6020526040902080548390811061102f57634e487b7160e01b600052603260045260246000fd5b9060005260206000200154905092915050565b6000818152600a602052604081208054600690910154829161106f916001600160a01b0390911690610748565b905080158061108f57506000838152600a60205260409020600401548111155b1561109d5750600092915050565b6000838152600a60205260409020600401546110b990826134b1565b9392505050565b6000818152600360205260408120546001600160a01b03168061087a5760405162461bcd60e51b8152602060048201526018602482015277115490cdcc8c4e881a5b9d985b1a59081d1bdad95b88125160421b60448201526064016109b9565b61112933610ad0565b6111455760405162461bcd60e51b81526004016109b9906133c1565b610a9c6000805160206135db83398151915282610aea565b60006001600160a01b0382166111c75760405162461bcd60e51b815260206004820152602960248201527f4552433732313a2061646472657373207a65726f206973206e6f7420612076616044820152683634b21037bbb732b960b91b60648201526084016109b9565b506001600160a01b031660009081526004602052604090205490565b6111ec33610ad0565b6112085760405162461bcd60e51b81526004016109b9906133c1565b6001600160a01b03811661125e5760405162461bcd60e51b815260206004820152601860248201527f41636365737369626c653a207a65726f2061646472657373000000000000000060448201526064016109b9565b336001600160a01b03821614156112b05760405162461bcd60e51b815260206004820152601660248201527520b1b1b2b9b9b4b136329d1039b0b6b29030b236b4b760511b60448201526064016109b9565b6112c86000805160206135db83398151915282610aea565b610a9c6000805160206135db83398151915233610ba4565b6001600160a01b0381166000908152600b602090815260409182902080548351818402810184019094528084526060939283018282801561134057602002820191906000526020600020905b81548152602001906001019080831161132c575b50505050509050919050565b6000918252602082815260408084206001600160a01b0393909316845291905290205460ff1690565b60606002805461089a9061350b565b6113ae7f14823911f2da1b49f045a0929a60b8c1f2a7fc8c06c7284ca3e8ab4e193a08c83361134c565b6114135760405162461bcd60e51b815260206004820152603060248201527f5265776172644c50546f6b656e4d616e616765723a206d75737420686176652060448201526f7573657220726f6c6520746f2075736560801b60648201526084016109b9565b600081116114515760405162461bcd60e51b815260206004820152600b60248201526a1e995c9bc8185b5bdd5b9d60aa1b60448201526064016109b9565b61145a82611042565b8111156114a95760405162461bcd60e51b815260206004820152601b60248201527f7573616265416d6f756e7420697320696e73756666696369656e74000000000060448201526064016109b9565b6000828152600a60205260408120600481018054919284926114cc90849061345a565b909155505060408051848152602081018490527f7cb0462b7a696c3e0502ecf65293767a677ebbc5186d09d6ef8d6ac62b68096d910160405180910390a1505050565b6009546000906001600160a01b03168061153b5760405162461bcd60e51b81526004016109b990613403565b6115536000805160206135db8339815191523361134c565b6115bb5760405162461bcd60e51b815260206004820152603360248201527f5265776172644c50546f6b656e4d616e616765723a206d7573742068617665206044820152721b5a5b9d195c881c9bdb19481d1bc81b5a5b9d606a1b60648201526084016109b9565b600780549060006115cb83613546565b90915550506007546040805160e0810182526001600160a01b03808a1682528a811660208084019182528385018b8152606085018b81526000608087018181524260a0890190815260c089018e81528b8452600a90965298909120965187549087166001600160a01b03199182161788559451600188018054919097169516949094179094555160028501559151600384015551600483015591516005820155905160069091015561167d8882612057565b61168788826121e2565b604080518281526001600160a01b038a81166020830152891681830152606081018890526080810187905290517f3914d2ace3d19b0495c25ff44e83ee9d5b3c935e039cfd56504909eb225e9fae9181900360a00190a1979650505050505050565b610ba03383836122a9565b6117466040518060e0016040528060006001600160a01b0316815260200160006001600160a01b0316815260200160008152602001600081526020016000815260200160008152602001600081525090565b506000908152600a6020908152604091829020825160e08101845281546001600160a01b039081168252600183015416928101929092526002810154928201929092526003820154606082015260048201546080820152600582015460a082015260069091015460c082015290565b6117bf3383611a98565b6117db5760405162461bcd60e51b81526004016109b9906132dd565b6117e784848484612378565b50505050565b60606117f8826119cb565b60006118026123ab565b9050600081511161182257604051806020016040528060008152506110b9565b8061182c846123ba565b60405160200161183d92919061311d565b6040516020818303038152906040529392505050565b60008281526020819052604090206001015461186e81611c0e565b610a5a8383611c9c565b8051825114801561188a575060008251115b6118c55760405162461bcd60e51b815260206004820152600c60248201526b0eee4dedcce40d8cadccee8d60a31b60448201526064016109b9565b60005b8251811015610a5a576119298382815181106118f457634e487b7160e01b600052603260045260246000fd5b602002602001015183838151811061191c57634e487b7160e01b600052603260045260246000fd5b6020026020010151611384565b8061193381613546565b9150506118c8565b600b602052816000526040600020818154811061195757600080fd5b90600052602060002001600091509150505481565b6000670de0b6b3a76400006119818484612465565b6110b99190613472565b60006001600160e01b031982166380ac58cd60e01b14806119bc57506001600160e01b03198216635b5e139f60e01b145b8061087a575061087a826124cc565b6000818152600360205260409020546001600160a01b0316610a9c5760405162461bcd60e51b8152602060048201526018602482015277115490cdcc8c4e881a5b9d985b1a59081d1bdad95b88125160421b60448201526064016109b9565b600081815260056020526040902080546001600160a01b0319166001600160a01b0384169081179091558190611a5f826110c0565b6001600160a01b03167f8c5be1e5ebec7d5bd14f71427d1e84f3dd0314c0f7b2291e5b200ac8c7c3b92560405160405180910390a45050565b600080611aa4836110c0565b9050806001600160a01b0316846001600160a01b03161480611aeb57506001600160a01b0380821660009081526006602090815260408083209388168352929052205460ff165b806108765750836001600160a01b0316611b048461091d565b6001600160a01b031614949350505050565b6001600160a01b03831615801590611b3657506001600160a01b03821615155b15611c03576000818152600a6020526040908190206001810180546001600160a01b0319166001600160a01b0386811691821790925582546002840154600385015460068601549651632576a9e160e11b81528a86166004820152602481019490945260448401919091526064830152608482019490945291921690634aed53c29060a401600060405180830381600087803b158015611bd557600080fd5b505af1158015611be9573d6000803e3d6000fd5b50505050611bf78483611d96565b611c0183836121e2565b505b610a5a838383612501565b610a9c8133612665565b611c22828261134c565b610ba0576000828152602081815260408083206001600160a01b03851684529091529020805460ff19166001179055611c583390565b6001600160a01b0316816001600160a01b0316837f2f8788117e7eff1d82e926ec794901d17c78024a50270940304540a733656f0d60405160405180910390a45050565b611ca6828261134c565b15610ba0576000828152602081815260408083206001600160a01b0385168085529252808320805460ff1916905551339285917ff6391f5c32d9c69d2a47ea670b442974b53935d1edc7fd64eb21e047a839171b9190a45050565b6000611d0c826110c0565b9050611d17826110c0565b600083815260056020908152604080832080546001600160a01b03199081169091556001600160a01b0385168085526004845282852080546000190190558785526003909352818420805490911690555192935084927fddf252ad1be2c89b69c2b068fc378daa952ba7f163c4a11628f55a4df523b3ef908390a45050565b611dce6040518060400160405280601581526020017464656c65746555736572546f6b656e20257320257360581b81525083836126be565b6001600160a01b0382166000908152600c60209081526040808320848452825291829020548251808401909352601283527175736572546f6b656e496e6465787320257360701b9183019190915290611e279082612705565b6001600160a01b0383166000908152600b6020526040812054611e4c906001906134b1565b9050611e8d6040518060400160405280601d81526020017f75736572546f6b656e496e64657873205f6c617374496e64657820257300000081525082612705565b80821415611efb576001600160a01b0384166000818152600c602090815260408083208784528252808320839055928252600b905220805480611ee057634e487b7160e01b600052603160045260246000fd5b600190038181906000526020600020016000905590556117e7565b6001600160a01b0384166000908152600b60205260409020805482908110611f3357634e487b7160e01b600052603260045260246000fd5b9060005260206000200154600b6000866001600160a01b03166001600160a01b031681526020019081526020016000208381548110611f8257634e487b7160e01b600052603260045260246000fd5b60009182526020808320909101929092556001600160a01b0386168152600c82526040808220600b90935281208054859392919084908110611fd457634e487b7160e01b600052603260045260246000fd5b600091825260208083209091015483528281019390935260409182018120939093556001600160a01b038716808452600c835281842087855283528184208490558352600b909152902080548061203b57634e487b7160e01b600052603160045260246000fd5b6001900381819060005260206000200160009055905550505050565b6001600160a01b0382166120ad5760405162461bcd60e51b815260206004820181905260248201527f4552433732313a206d696e7420746f20746865207a65726f206164647265737360448201526064016109b9565b6000818152600360205260409020546001600160a01b0316156121125760405162461bcd60e51b815260206004820152601c60248201527f4552433732313a20746f6b656e20616c7265616479206d696e7465640000000060448201526064016109b9565b6000818152600360205260409020546001600160a01b0316156121775760405162461bcd60e51b815260206004820152601c60248201527f4552433732313a20746f6b656e20616c7265616479206d696e7465640000000060448201526064016109b9565b6001600160a01b038216600081815260046020908152604080832080546001019055848352600390915280822080546001600160a01b0319168417905551839291907fddf252ad1be2c89b69c2b068fc378daa952ba7f163c4a11628f55a4df523b3ef908290a45050565b6001600160a01b0382166000908152600b602081815260408084208054600c845282862087875284528286208190559383526001840181558452928190209091018390558151606081019092526037808352610ba092916135a4908301396001600160a01b0384166000818152600c6020908152604080832087845280835281842054948452600b83529083209287905290528054869291908290811061229957634e487b7160e01b600052603260045260246000fd5b906000526020600020015461274a565b816001600160a01b0316836001600160a01b0316141561230b5760405162461bcd60e51b815260206004820152601960248201527f4552433732313a20617070726f766520746f2063616c6c65720000000000000060448201526064016109b9565b6001600160a01b03838116600081815260066020908152604080832094871680845294825291829020805460ff191686151590811790915591519182527f17307eab39ab6107e8899845ad3d59bd9653f200f220920489ca2b5937696c31910160405180910390a3505050565b612383848484611b16565b61238f84848484612793565b6117e75760405162461bcd60e51b81526004016109b99061332a565b60606008805461089a9061350b565b606060006123c7836128a1565b600101905060008167ffffffffffffffff8111156123f557634e487b7160e01b600052604160045260246000fd5b6040519080825280601f01601f19166020018201604052801561241f576020820181803683370190505b5090508181016020015b600019016f181899199a1a9b1b9c1cb0b131b232b360811b600a86061a8153600a85049450846124585761245d565b612429565b509392505050565b60008115806124895750828261247b8183613492565b92506124879083613472565b145b61087a5760405162461bcd60e51b815260206004820152601460248201527364732d6d6174682d6d756c2d6f766572666c6f7760601b60448201526064016109b9565b60006001600160e01b03198216637965db0b60e01b148061087a57506301ffc9a760e01b6001600160e01b031983161461087a565b826001600160a01b0316612514826110c0565b6001600160a01b03161461253a5760405162461bcd60e51b81526004016109b99061337c565b6001600160a01b03821661259c5760405162461bcd60e51b8152602060048201526024808201527f4552433732313a207472616e7366657220746f20746865207a65726f206164646044820152637265737360e01b60648201526084016109b9565b826001600160a01b03166125af826110c0565b6001600160a01b0316146125d55760405162461bcd60e51b81526004016109b99061337c565b600081815260056020908152604080832080546001600160a01b03199081169091556001600160a01b0387811680865260048552838620805460001901905590871680865283862080546001019055868652600390945282852080549092168417909155905184937fddf252ad1be2c89b69c2b068fc378daa952ba7f163c4a11628f55a4df523b3ef91a4505050565b61266f828261134c565b610ba05761267c81612979565b61268783602061298b565b60405160200161269892919061314c565b60408051601f198184030181529082905262461bcd60e51b82526109b991600401613242565b610a5a8383836040516024016126d693929190613255565b60408051601f198184030181529190526020810180516001600160e01b0316630d26b92560e01b179052612b6d565b610ba0828260405160240161271b9291906132bb565b60408051601f198184030181529190526020810180516001600160e01b0316632d839cb360e21b179052612b6d565b6117e7848484846040516024016127649493929190613283565b60408051601f198184030181529190526020810180516001600160e01b0316637c7a8d8f60e11b179052612b6d565b60006001600160a01b0384163b1561289557604051630a85bd0160e11b81526001600160a01b0385169063150b7a02906127d79033908990889088906004016131c1565b602060405180830381600087803b1580156127f157600080fd5b505af1925050508015612821575060408051601f3d908101601f1916820190925261281e91810190612fbb565b60015b61287b573d80801561284f576040519150601f19603f3d011682016040523d82523d6000602084013e612854565b606091505b5080516128735760405162461bcd60e51b81526004016109b99061332a565b805181602001fd5b6001600160e01b031916630a85bd0160e11b149050612899565b5060015b949350505050565b60008072184f03e93ff9f4daa797ed6e38ed64bf6a1f0160401b83106128e05772184f03e93ff9f4daa797ed6e38ed64bf6a1f0160401b830492506040015b6d04ee2d6d415b85acef8100000000831061290c576d04ee2d6d415b85acef8100000000830492506020015b662386f26fc10000831061292a57662386f26fc10000830492506010015b6305f5e1008310612942576305f5e100830492506008015b612710831061295657612710830492506004015b60648310612968576064830492506002015b600a831061087a5760010192915050565b606061087a6001600160a01b03831660145b6060600061299a836002613492565b6129a590600261345a565b67ffffffffffffffff8111156129cb57634e487b7160e01b600052604160045260246000fd5b6040519080825280601f01601f1916602001820160405280156129f5576020820181803683370190505b509050600360fc1b81600081518110612a1e57634e487b7160e01b600052603260045260246000fd5b60200101906001600160f81b031916908160001a905350600f60fb1b81600181518110612a5b57634e487b7160e01b600052603260045260246000fd5b60200101906001600160f81b031916908160001a9053506000612a7f846002613492565b612a8a90600161345a565b90505b6001811115612b1e576f181899199a1a9b1b9c1cb0b131b232b360811b85600f1660108110612acc57634e487b7160e01b600052603260045260246000fd5b1a60f81b828281518110612af057634e487b7160e01b600052603260045260246000fd5b60200101906001600160f81b031916908160001a90535060049490941c93612b17816134f4565b9050612a8d565b5083156110b95760405162461bcd60e51b815260206004820181905260248201527f537472696e67733a20686578206c656e67746820696e73756666696369656e7460448201526064016109b9565b610a9c8160006a636f6e736f6c652e6c6f679050600080835160208501845afa505050565b828054612b9e9061350b565b90600052602060002090601f016020900481019282612bc05760008555612c06565b82601f10612bd957805160ff1916838001178555612c06565b82800160010185558215612c06579182015b82811115612c06578251825591602001919060010190612beb565b50612c12929150612c16565b5090565b5b80821115612c125760008155600101612c17565b600067ffffffffffffffff831115612c4557612c45613577565b612c58601f8401601f1916602001613429565b9050828152838383011115612c6c57600080fd5b828260208301376000602084830101529392505050565b80356001600160a01b0381168114612c9a57600080fd5b919050565b600082601f830112612caf578081fd5b8135602067ffffffffffffffff821115612ccb57612ccb613577565b8160051b612cda828201613429565b838152828101908684018388018501891015612cf4578687fd5b8693505b85841015612d16578035835260019390930192918401918401612cf8565b50979650505050505050565b600060208284031215612d33578081fd5b6110b982612c83565b60008060408385031215612d4e578081fd5b612d5783612c83565b9150612d6560208401612c83565b90509250929050565b600080600060608486031215612d82578081fd5b612d8b84612c83565b9250612d9960208501612c83565b9150604084013590509250925092565b60008060008060808587031215612dbe578081fd5b612dc785612c83565b9350612dd560208601612c83565b925060408501359150606085013567ffffffffffffffff811115612df7578182fd5b8501601f81018713612e07578182fd5b612e1687823560208401612c2b565b91505092959194509250565b600080600080600060a08688031215612e39578081fd5b612e4286612c83565b9450612e5060208701612c83565b94979496505050506040830135926060810135926080909101359150565b60008060408385031215612e80578182fd5b612e8983612c83565b915060208301358015158114612e9d578182fd5b809150509250929050565b60008060408385031215612eba578182fd5b612ec383612c83565b946020939093013593505050565b600060208284031215612ee2578081fd5b813567ffffffffffffffff811115612ef8578182fd5b61087684828501612c9f565b60008060408385031215612f16578182fd5b823567ffffffffffffffff80821115612f2d578384fd5b612f3986838701612c9f565b93506020850135915080821115612f4e578283fd5b50612f5b85828601612c9f565b9150509250929050565b600060208284031215612f76578081fd5b5035919050565b60008060408385031215612f8f578182fd5b82359150612d6560208401612c83565b600060208284031215612fb0578081fd5b81356110b98161358d565b600060208284031215612fcc578081fd5b81516110b98161358d565b600060208284031215612fe8578081fd5b813567ffffffffffffffff811115612ffe578182fd5b8201601f8101841361300e578182fd5b61087684823560208401612c2b565b60006020828403121561302e578081fd5b5051919050565b60008060408385031215613047578182fd5b50508035926020909101359150565b6000815180845261306e8160208601602086016134c8565b601f01601f19169290920160200192915050565b600080835482600182811c91508083168061309e57607f831692505b60208084108214156130be57634e487b7160e01b87526022600452602487fd5b8180156130d257600181146130e35761310f565b60ff1986168952848901965061310f565b60008a815260209020885b868110156131075781548b8201529085019083016130ee565b505084890196505b509498975050505050505050565b6000835161312f8184602088016134c8565b8351908301906131438183602088016134c8565b01949350505050565b7f416363657373436f6e74726f6c3a206163636f756e74200000000000000000008152600083516131848160178501602088016134c8565b7001034b99036b4b9b9b4b733903937b6329607d1b60179184019182015283516131b58160288401602088016134c8565b01602801949350505050565b6001600160a01b03858116825284166020820152604081018390526080606082018190526000906131f490830184613056565b9695505050505050565b6020808252825182820181905260009190848201906040850190845b818110156132365783518352928401929184019160010161321a565b50909695505050505050565b6020815260006110b96020830184613056565b6060815260006132686060830186613056565b6001600160a01b039490941660208301525060400152919050565b6080815260006132966080830187613056565b6001600160a01b03959095166020830152506040810192909252606090910152919050565b6040815260006132ce6040830185613056565b90508260208301529392505050565b6020808252602d908201527f4552433732313a2063616c6c6572206973206e6f7420746f6b656e206f776e6560408201526c1c881bdc88185c1c1c9bdd9959609a1b606082015260800190565b60208082526032908201527f4552433732313a207472616e7366657220746f206e6f6e20455243373231526560408201527131b2b4bb32b91034b6b83632b6b2b73a32b960711b606082015260800190565b60208082526025908201527f4552433732313a207472616e736665722066726f6d20696e636f72726563742060408201526437bbb732b960d91b606082015260800190565b60208082526022908201527f41636365737369626c653a2043616c6c6572206973206e6f7420616e2061646d60408201526134b760f11b606082015260800190565b6020808252600c908201526b7a65726f206164647265737360a01b604082015260600190565b604051601f8201601f1916810167ffffffffffffffff8111828210171561345257613452613577565b604052919050565b6000821982111561346d5761346d613561565b500190565b60008261348d57634e487b7160e01b81526012600452602481fd5b500490565b60008160001904831182151516156134ac576134ac613561565b500290565b6000828210156134c3576134c3613561565b500390565b60005b838110156134e35781810151838201526020016134cb565b838111156117e75750506000910152565b60008161350357613503613561565b506000190190565b600181811c9082168061351f57607f821691505b6020821081141561354057634e487b7160e01b600052602260045260246000fd5b50919050565b600060001982141561355a5761355a613561565b5060010190565b634e487b7160e01b600052601160045260246000fd5b634e487b7160e01b600052604160045260246000fd5b6001600160e01b031981168114610a9c57600080fdfe61646455736572546f6b656e202573202c2075736572546f6b656e496e64657873203a202573202c75736572546f6b656e733a20257320df8b4c520ffe197c5343c6f5aec59570151ef9a492f2c624fd45ddde6135ec42a2646970667358221220eafd9eebf74584d553b0d992658ad9adccb512ad857b81a0d10cff73dae19b0164736f6c63430008040033",
  "linkReferences": {},
  "deployedLinkReferences": {}
}