{
  "_format": "hh-sol-artifact-1",
  "contractName": "AccessRoleCommon",
  "sourceName": "contracts/common/AccessRoleCommon.sol",
  "abi": [
    {
      "inputs": [],
      "name": "ADMIN_ROLE",
      "outputs": [
        {
          "internalType": "bytes32",
          "name": "",
          "type": "bytes32"
        }
      ],
      "stateMutability": "view",
      "type": "function"
    },
    {
      "inputs": [],
      "name": "POLICY_ROLE",
      "outputs": [
        {
          "internalType": "bytes32",
          "name": "",
          "type": "bytes32"
        }
      ],
      "stateMutability": "view",
      "type": "function"
    }
  ],
  "bytecode": "0x6080604052348015600f57600080fd5b5060cb8061001e6000396000f3fe6080604052348015600f57600080fd5b506004361060325760003560e01c80632298524614603757806375b238fc14606f575b600080fd5b605d7ffb5864e8ff833c3cb2d2d08505e82ff02a43554c74a35d4f5a64e8526127831181565b60405190815260200160405180910390f35b605d7fdf8b4c520ffe197c5343c6f5aec59570151ef9a492f2c624fd45ddde6135ec428156fea2646970667358221220a2a5d45107179ec4ec3f83706658d7eff0d48dcce39353ed9677fca7cc51acba64736f6c63430008040033",
  "linkReferences": {},
  "deployedLinkReferences": {}
}