{
  "_format": "hh-sol-artifact-1",
  "contractName": "TOSValueCalculator",
  "sourceName": "contracts/TOSValueCalculator.sol",
  "abi": [
    {
      "inputs": [],
      "name": "UniswapV3Factory",
      "outputs": [
        {
          "internalType": "contract IIUniswapV3Factory",
          "name": "",
          "type": "address"
        }
      ],
      "stateMutability": "view",
      "type": "function"
    },
    {
      "inputs": [
        {
          "internalType": "address",
          "name": "tokenA",
          "type": "address"
        },
        {
          "internalType": "address",
          "name": "tokenB",
          "type": "address"
        },
        {
          "internalType": "uint24",
          "name": "_fee",
          "type": "uint24"
        }
      ],
      "name": "computePoolAddress",
      "outputs": [
        {
          "internalType": "address",
          "name": "pool",
          "type": "address"
        },
        {
          "internalType": "address",
          "name": "token0",
          "type": "address"
        },
        {
          "internalType": "address",
          "name": "token1",
          "type": "address"
        }
      ],
      "stateMutability": "view",
      "type": "function"
    },
    {
      "inputs": [
        {
          "internalType": "address",
          "name": "_asset",
          "type": "address"
        },
        {
          "internalType": "uint256",
          "name": "_amount",
          "type": "uint256"
        }
      ],
      "name": "convertAssetBalanceToWethOrTos",
      "outputs": [
        {
          "internalType": "bool",
          "name": "existedWethPool",
          "type": "bool"
        },
        {
          "internalType": "bool",
          "name": "existedTosPool",
          "type": "bool"
        },
        {
          "internalType": "uint256",
          "name": "priceWethOrTosPerAsset",
          "type": "uint256"
        },
        {
          "internalType": "uint256",
          "name": "convertedAmount",
          "type": "uint256"
        }
      ],
      "stateMutability": "view",
      "type": "function"
    },
    {
      "inputs": [],
      "name": "ethTosPool",
      "outputs": [
        {
          "internalType": "address",
          "name": "",
          "type": "address"
        }
      ],
      "stateMutability": "view",
      "type": "function"
    },
    {
      "inputs": [
        {
          "internalType": "address",
          "name": "tokenA",
          "type": "address"
        },
        {
          "internalType": "address",
          "name": "tokenB",
          "type": "address"
        },
        {
          "internalType": "uint24",
          "name": "_fee",
          "type": "uint24"
        }
      ],
      "name": "existPool",
      "outputs": [
        {
          "internalType": "bool",
          "name": "isWeth",
          "type": "bool"
        },
        {
          "internalType": "bool",
          "name": "isTos",
          "type": "bool"
        },
        {
          "internalType": "address",
          "name": "pool",
          "type": "address"
        },
        {
          "internalType": "address",
          "name": "token0",
          "type": "address"
        },
        {
          "internalType": "address",
          "name": "token1",
          "type": "address"
        }
      ],
      "stateMutability": "view",
      "type": "function"
    },
    {
      "inputs": [
        {
          "internalType": "address",
          "name": "npm",
          "type": "address"
        },
        {
          "internalType": "address",
          "name": "poolAddress",
          "type": "address"
        },
        {
          "internalType": "uint256",
          "name": "tokenId",
          "type": "uint256"
        }
      ],
      "name": "getAmounts",
      "outputs": [
        {
          "internalType": "uint256",
          "name": "amount0",
          "type": "uint256"
        },
        {
          "internalType": "uint256",
          "name": "amount1",
          "type": "uint256"
        }
      ],
      "stateMutability": "view",
      "type": "function"
    },
    {
      "inputs": [
        {
          "internalType": "address",
          "name": "_asset",
          "type": "address"
        }
      ],
      "name": "getAssetPricePerTOS",
      "outputs": [
        {
          "internalType": "uint256",
          "name": "price",
          "type": "uint256"
        }
      ],
      "stateMutability": "view",
      "type": "function"
    },
    {
      "inputs": [
        {
          "internalType": "address",
          "name": "token0",
          "type": "address"
        },
        {
          "internalType": "address",
          "name": "token1",
          "type": "address"
        }
      ],
      "name": "getDecimals",
      "outputs": [
        {
          "internalType": "uint256",
          "name": "token0Decimals",
          "type": "uint256"
        },
        {
          "internalType": "uint256",
          "name": "token1Decimals",
          "type": "uint256"
        }
      ],
      "stateMutability": "view",
      "type": "function"
    },
    {
      "inputs": [],
      "name": "getETHPricePerTOS",
      "outputs": [
        {
          "internalType": "uint256",
          "name": "price",
          "type": "uint256"
        }
      ],
      "stateMutability": "view",
      "type": "function"
    },
    {
      "inputs": [
        {
          "internalType": "address",
          "name": "poolAddress",
          "type": "address"
        }
      ],
      "name": "getPriceToken0",
      "outputs": [
        {
          "internalType": "uint256",
          "name": "priceX96",
          "type": "uint256"
        }
      ],
      "stateMutability": "view",
      "type": "function"
    },
    {
      "inputs": [
        {
          "internalType": "address",
          "name": "poolAddress",
          "type": "address"
        }
      ],
      "name": "getPriceToken1",
      "outputs": [
        {
          "internalType": "uint256",
          "name": "priceX96",
          "type": "uint256"
        }
      ],
      "stateMutability": "view",
      "type": "function"
    },
    {
      "inputs": [
        {
          "internalType": "address",
          "name": "poolAddress",
          "type": "address"
        },
        {
          "internalType": "uint32",
          "name": "twapInterval",
          "type": "uint32"
        }
      ],
      "name": "getSqrtTwapX96",
      "outputs": [
        {
          "internalType": "uint160",
          "name": "sqrtPriceX96",
          "type": "uint160"
        }
      ],
      "stateMutability": "view",
      "type": "function"
    },
    {
      "inputs": [
        {
          "internalType": "address",
          "name": "_asset",
          "type": "address"
        }
      ],
      "name": "getTOSPricePerAsset",
      "outputs": [
        {
          "internalType": "uint256",
          "name": "price",
          "type": "uint256"
        }
      ],
      "stateMutability": "view",
      "type": "function"
    },
    {
      "inputs": [],
      "name": "getTOSPricePerETH",
      "outputs": [
        {
          "internalType": "uint256",
          "name": "price",
          "type": "uint256"
        }
      ],
      "stateMutability": "view",
      "type": "function"
    },
    {
      "inputs": [
        {
          "internalType": "address",
          "name": "_poolAddress",
          "type": "address"
        }
      ],
      "name": "getTOStoken",
      "outputs": [
        {
          "internalType": "uint256",
          "name": "",
          "type": "uint256"
        }
      ],
      "stateMutability": "view",
      "type": "function"
    },
    {
      "inputs": [
        {
          "internalType": "address",
          "name": "_erc20Addresss",
          "type": "address"
        },
        {
          "internalType": "uint24",
          "name": "_fee",
          "type": "uint24"
        }
      ],
      "name": "getTOStoken0",
      "outputs": [
        {
          "internalType": "uint256",
          "name": "",
          "type": "uint256"
        }
      ],
      "stateMutability": "view",
      "type": "function"
    },
    {
      "inputs": [],
      "name": "getWETHPoolTOSPrice",
      "outputs": [
        {
          "internalType": "uint256",
          "name": "price",
          "type": "uint256"
        }
      ],
      "stateMutability": "view",
      "type": "function"
    },
    {
      "inputs": [
        {
          "internalType": "address",
          "name": "_tos",
          "type": "address"
        },
        {
          "internalType": "address",
          "name": "_weth",
          "type": "address"
        },
        {
          "internalType": "address",
          "name": "_npm",
          "type": "address"
        },
        {
          "internalType": "address",
          "name": "_basicPool",
          "type": "address"
        },
        {
          "internalType": "address",
          "name": "_uniswapV3Factory",
          "type": "address"
        }
      ],
      "name": "initialize",
      "outputs": [],
      "stateMutability": "nonpayable",
      "type": "function"
    },
    {
      "inputs": [],
      "name": "npm_",
      "outputs": [
        {
          "internalType": "address",
          "name": "",
          "type": "address"
        }
      ],
      "stateMutability": "view",
      "type": "function"
    },
    {
      "inputs": [],
      "name": "tos",
      "outputs": [
        {
          "internalType": "address",
          "name": "",
          "type": "address"
        }
      ],
      "stateMutability": "view",
      "type": "function"
    },
    {
      "inputs": [],
      "name": "weth",
      "outputs": [
        {
          "internalType": "address",
          "name": "",
          "type": "address"
        }
      ],
      "stateMutability": "view",
      "type": "function"
    }
  ],
  "bytecode": "0x608060405234801561001057600080fd5b5061266f806100206000396000f3fe608060405234801561001057600080fd5b50600436106101375760003560e01c8063486a586a116100b857806389f395de1161007c57806389f395de146102e75780638e549a45146102fa578063bb6f48ba14610302578063d20aecad14610337578063fab70f9d1461034a578063ff2862ef1461035d57600080fd5b8063486a586a1461025457806355ecf5a81461026757806358e01df8146102a457806368afaca8146102b7578063740fcd20146102bf57600080fd5b80631556e835116100ff5780631556e8351461020057806316a3491414610213578063371b9763146102265780633fc8cef31461022e57806347628f601461024157600080fd5b80630411b9491461013c5780630446db5d1461016c578063062245701461018d5780630e601833146101a05780631459457a146101eb575b600080fd5b60005461014f906001600160a01b031681565b6040516001600160a01b0390911681526020015b60405180910390f35b61017f61017a366004611e8e565b610370565b604051908152602001610163565b61017f61019b366004611e8e565b6105d4565b6101b36101ae366004611f6e565b610660565b60408051951515865293151560208601526001600160a01b03928316938501939093528116606084015216608082015260a001610163565b6101fe6101f9366004611efe565b61083b565b005b60045461014f906001600160a01b031681565b61017f610221366004611e8e565b6108ee565b61017f610a24565b60025461014f906001600160a01b031681565b61014f61024f366004612050565b610a85565b61017f610262366004611e8e565b610caa565b61027a610275366004611f6e565b610e21565b604080516001600160a01b0394851681529284166020840152921691810191909152606001610163565b60035461014f906001600160a01b031681565b61017f610f14565b6102d26102cd366004611ec6565b610fba565b60408051928352602083019190915201610163565b60015461014f906001600160a01b031681565b61017f6110aa565b610315610310366004612025565b611144565b6040805194151585529215156020850152918301526060820152608001610163565b6102d2610345366004611fb8565b6112be565b61017f610358366004611ff8565b611407565b61017f61036b366004611e8e565b6115f3565b600080826001600160a01b0316633850c7bd6040518163ffffffff1660e01b815260040160e06040518083038186803b1580156103ac57600080fd5b505afa1580156103c0573d6000803e3d6000fd5b505050506040513d601f19601f820116820180604052508101906103e49190612150565b505050505091505060006104d3846001600160a01b0316630dfe16816040518163ffffffff1660e01b815260040160206040518083038186803b15801561042a57600080fd5b505afa15801561043e573d6000803e3d6000fd5b505050506040513d601f19601f820116820180604052508101906104629190611eaa565b856001600160a01b031663d21220a76040518163ffffffff1660e01b815260040160206040518083038186803b15801561049b57600080fd5b505afa1580156104af573d6000803e3d6000fd5b505050506040513d601f19601f820116820180604052508101906102cd9190611eaa565b5090506105cc826104e583600a61242a565b866001600160a01b0316630dfe16816040518163ffffffff1660e01b815260040160206040518083038186803b15801561051e57600080fd5b505afa158015610532573d6000803e3d6000fd5b505050506040513d601f19601f820116820180604052508101906105569190611eaa565b876001600160a01b031663d21220a76040518163ffffffff1660e01b815260040160206040518083038186803b15801561058f57600080fd5b505afa1580156105a3573d6000803e3d6000fd5b505050506040513d601f19601f820116820180604052508101906105c79190611eaa565b61167a565b949350505050565b60015460009081908190819081906105f8906001600160a01b031687610bb8610660565b94509450945094505083801561061b57506001546001600160a01b038381169116145b1561062c5761062983610caa565b94505b83801561064657506001546001600160a01b038281169116145b156106575761065483610370565b94505b50505050919050565b6000808080806001600160a01b038816158061068357506001600160a01b038716155b1561069c57506000935083925082915081905080610830565b6106a7888888610e21565b90505080935050826001600160a01b0316630dfe16816040518163ffffffff1660e01b815260040160206040518083038186803b1580156106e757600080fd5b505afa1580156106fb573d6000803e3d6000fd5b505050506040513d601f19601f8201168201806040525081019061071f9190611eaa565b9150826001600160a01b031663d21220a76040518163ffffffff1660e01b815260040160206040518083038186803b15801561075a57600080fd5b505afa15801561076e573d6000803e3d6000fd5b505050506040513d601f19601f820116820180604052508101906107929190611eaa565b90506001600160a01b03821615806107b157506001600160a01b038116155b156107ca57506000935083925082915081905080610830565b6002546001600160a01b03838116911614806107f357506002546001600160a01b038281169116145b156107fd57600194505b6001546001600160a01b038381169116148061082657506001546001600160a01b038281169116145b1561083057600193505b939792965093509350565b6001546001600160a01b03161561088f5760405162461bcd60e51b8152602060048201526013602482015272185b1c9958591e481a5b9a5d1a585b1a5e9959606a1b60448201526064015b60405180910390fd5b600180546001600160a01b03199081166001600160a01b03978816179091556002805482169587169590951790945560038054851693861693909317909255600480548416918516919091179055600080549092169216919091179055565b600080826001600160a01b0316630dfe16816040518163ffffffff1660e01b815260040160206040518083038186803b15801561092a57600080fd5b505afa15801561093e573d6000803e3d6000fd5b505050506040513d601f19601f820116820180604052508101906109629190611eaa565b90506000836001600160a01b031663d21220a76040518163ffffffff1660e01b815260040160206040518083038186803b15801561099f57600080fd5b505afa1580156109b3573d6000803e3d6000fd5b505050506040513d601f19601f820116820180604052508101906109d79190611eaa565b6001549091506001600160a01b03838116911614156109fa575060009392505050565b6001546001600160a01b0382811691161415610a1a575060019392505050565b5060039392505050565b6002546000908190610a41906001600160a01b0316610bb8611407565b905080610a6357600454610a5d906001600160a01b0316610370565b91505090565b8060011415610a8157600454610a5d906001600160a01b0316610caa565b5090565b600063ffffffff8216610b1257826001600160a01b0316633850c7bd6040518163ffffffff1660e01b815260040160e06040518083038186803b158015610acb57600080fd5b505afa158015610adf573d6000803e3d6000fd5b505050506040513d601f19601f82011682018060405250810190610b039190612150565b50949550610ca4945050505050565b6040805160028082526060820183526000926020830190803683370190505090508281600081518110610b5557634e487b7160e01b600052603260045260246000fd5b602002602001019063ffffffff16908163ffffffff1681525050600081600181518110610b9257634e487b7160e01b600052603260045260246000fd5b63ffffffff9092166020928302919091019091015260405163883bdbfd60e01b81526000906001600160a01b0386169063883bdbfd90610bd69085906004016122de565b60006040518083038186803b158015610bee57600080fd5b505afa158015610c02573d6000803e3d6000fd5b505050506040513d6000823e601f3d908101601f19168201604052610c2a9190810190612085565b509050610c9f8460030b82600081518110610c5557634e487b7160e01b600052603260045260246000fd5b602002602001015183600181518110610c7e57634e487b7160e01b600052603260045260246000fd5b6020026020010151610c9091906124f1565b610c9a9190612395565b611788565b925050505b92915050565b600080826001600160a01b0316633850c7bd6040518163ffffffff1660e01b815260040160e06040518083038186803b158015610ce657600080fd5b505afa158015610cfa573d6000803e3d6000fd5b505050506040513d601f19601f82011682018060405250810190610d1e9190612150565b50505050509150506000610d64846001600160a01b0316630dfe16816040518163ffffffff1660e01b815260040160206040518083038186803b15801561042a57600080fd5b91506105cc905082610d7783600a61242a565b866001600160a01b031663d21220a76040518163ffffffff1660e01b815260040160206040518083038186803b158015610db057600080fd5b505afa158015610dc4573d6000803e3d6000fd5b505050506040513d601f19601f82011682018060405250810190610de89190611eaa565b876001600160a01b0316630dfe16816040518163ffffffff1660e01b815260040160206040518083038186803b15801561058f57600080fd5b600083837fe34f199b19b2b4f47f68442619d555527d244f78a3297ea89325f843f87b8b546001600160a01b038083169084161115610e61578592508691505b600054604080516001600160a01b0386811660208301528581169282019290925262ffffff881660608201529116906080016040516020818303038152906040528051906020012082604051602001610eef939291906001600160f81b0319815260609390931b6bffffffffffffffffffffffff191660018401526015830191909152603582015260550190565b6040516020818303038152906040528051906020012060001c93505093509350939050565b60015460025460009182918291829182918291610f40916001600160a01b039081169116610bb8610660565b94509450945094509450848015610f545750835b8015610f6d57506002546001600160a01b038381169116145b15610f7e57610f7b83610caa565b95505b848015610f885750835b8015610fa157506002546001600160a01b038281169116145b15610fb257610faf83610370565b95505b505050505090565b600080836001600160a01b031663313ce5676040518163ffffffff1660e01b815260040160206040518083038186803b158015610ff657600080fd5b505afa15801561100a573d6000803e3d6000fd5b505050506040513d601f19601f8201168201806040525081019061102e91906121e7565b836001600160a01b031663313ce5676040518163ffffffff1660e01b815260040160206040518083038186803b15801561106757600080fd5b505afa15801561107b573d6000803e3d6000fd5b505050506040513d601f19601f8201168201806040525081019061109f91906121e7565b915091509250929050565b600154600254600091829182918291829182916110d6916001600160a01b039081169116610bb8610660565b945094509450945094508480156110ea5750835b801561110357506001546001600160a01b038381169116145b156111145761111183610caa565b95505b84801561111e5750835b8015610fa157506001546001600160a01b0382811691161415610fb257610faf83610370565b6000806000806000806000806111728a600260009054906101000a90046001600160a01b0316610bb8610660565b94509450945050935083156112005760019750896001600160a01b0316826001600160a01b031614156111af576111a883610370565b95506111d5565b896001600160a01b0316816001600160a01b031614156111d5576111d283610caa565b95505b85156111fb57670de0b6b3a76400006111ee878b6124d2565b6111f891906123d3565b94505b6112b1565b600154600090819081908190611223908f906001600160a01b0316610bb8610660565b94509450945094505083156112ac5760019a508d6001600160a01b0316826001600160a01b031614156112605761125983610370565b9950611286565b8d6001600160a01b0316816001600160a01b031614156112865761128383610caa565b99505b89156112ac57670de0b6b3a764000061129f8b8f6124d2565b6112a991906123d3565b98505b505050505b5050505092959194509250565b6000806000846001600160a01b0316633850c7bd6040518163ffffffff1660e01b815260040160e06040518083038186803b1580156112fc57600080fd5b505afa158015611310573d6000803e3d6000fd5b505050506040513d601f19601f820116820180604052508101906113349190612150565b50505050505090506000806000886001600160a01b03166399fbab88886040518263ffffffff1660e01b815260040161136f91815260200190565b6101806040518083038186803b15801561138857600080fd5b505afa15801561139c573d6000803e3d6000fd5b505050506040513d601f19601f820116820180604052508101906113c091906121ff565b50505050975097509750505050505060006113da84611788565b905060006113e784611788565b90506113f586838386611b9d565b909c909b509950505050505050505050565b60008054600154604051630b4c774160e11b81526001600160a01b039182166004820152858216602482015262ffffff8516604482015283929190911690631698ee829060640160206040518083038186803b15801561146657600080fd5b505afa15801561147a573d6000803e3d6000fd5b505050506040513d601f19601f8201168201806040525081019061149e9190611eaa565b90506001600160a01b0381166114b8576002915050610ca4565b6000816001600160a01b0316630dfe16816040518163ffffffff1660e01b815260040160206040518083038186803b1580156114f357600080fd5b505afa158015611507573d6000803e3d6000fd5b505050506040513d601f19601f8201168201806040525081019061152b9190611eaa565b90506000826001600160a01b031663d21220a76040518163ffffffff1660e01b815260040160206040518083038186803b15801561156857600080fd5b505afa15801561157c573d6000803e3d6000fd5b505050506040513d601f19601f820116820180604052508101906115a09190611eaa565b6001549091506001600160a01b03838116911614156115c55760009350505050610ca4565b6001546001600160a01b03828116911614156115e75760019350505050610ca4565b60039350505050610ca4565b6001546000908190819081908190611617906001600160a01b031687610bb8610660565b94509450945094505083801561163e5750856001600160a01b0316826001600160a01b0316145b1561164f5761164c83610caa565b94505b8380156106465750856001600160a01b0316816001600160a01b031614156106575761065483610370565b60008061168686611788565b90506001600160801b036001600160a01b0382161161170c5760006116b46001600160a01b038316806124d2565b9050836001600160a01b0316856001600160a01b0316106116ec576116e7600160c01b876001600160801b031683611c39565b611704565b61170481876001600160801b0316600160c01b611c39565b92505061177f565b600061172b6001600160a01b0383168068010000000000000000611c39565b9050836001600160a01b0316856001600160a01b0316106117635761175e600160801b876001600160801b031683611c39565b61177b565b61177b81876001600160801b0316600160801b611c39565b9250505b50949350505050565b60008060008360020b1261179f578260020b6117ac565b8260020b6117ac906125b4565b90506117bb620d89e719612593565b60020b8111156117f15760405162461bcd60e51b81526020600482015260016024820152601560fa1b6044820152606401610886565b60006001821661180557600160801b611817565b6ffffcb933bd6fad37aa2d162d1a5940015b70ffffffffffffffffffffffffffffffffff1690506002821615611856576080611851826ffff97272373d413259a46990580e213a6124d2565b901c90505b600482161561188057608061187b826ffff2e50f5f656932ef12357cf3c7fdcc6124d2565b901c90505b60088216156118aa5760806118a5826fffe5caca7e10e4e61c3624eaa0941cd06124d2565b901c90505b60108216156118d45760806118cf826fffcb9843d60f6159c9db58835c9266446124d2565b901c90505b60208216156118fe5760806118f9826fff973b41fa98c081472e6896dfb254c06124d2565b901c90505b6040821615611928576080611923826fff2ea16466c96a3843ec78b326b528616124d2565b901c90505b608082161561195257608061194d826ffe5dee046a99a2a811c461f1969c30536124d2565b901c90505b61010082161561197d576080611978826ffcbe86c7900a88aedcffc83b479aa3a46124d2565b901c90505b6102008216156119a85760806119a3826ff987a7253ac413176f2b074cf7815e546124d2565b901c90505b6104008216156119d35760806119ce826ff3392b0822b70005940c7a398e4b70f36124d2565b901c90505b6108008216156119fe5760806119f9826fe7159475a2c29b7443b29c7fa6e889d96124d2565b901c90505b611000821615611a29576080611a24826fd097f3bdfd2022b8845ad8f792aa58256124d2565b901c90505b612000821615611a54576080611a4f826fa9f746462d870fdf8a65dc1f90e061e56124d2565b901c90505b614000821615611a7f576080611a7a826f70d869a156d2a1b890bb3df62baf32f76124d2565b901c90505b618000821615611aaa576080611aa5826f31be135f97d08fd981231505542fcfa66124d2565b901c90505b62010000821615611ad6576080611ad1826f09aa508b5b7a84e1c677de54f3e99bc96124d2565b901c90505b62020000821615611b01576080611afc826e5d6af8dedb81196699c329225ee6046124d2565b901c90505b62040000821615611b2b576080611b26826d2216e584f5fa1ea926041bedfe986124d2565b901c90505b62080000821615611b53576080611b4e826b048a170391f7dc42444e8fa26124d2565b901c90505b60008460020b1315611b6e57611b6b816000196123d3565b90505b611b7d6401000000008261257f565b15611b89576001611b8c565b60005b6105cc9060ff16602083901c61237d565b600080836001600160a01b0316856001600160a01b03161115611bbe579293925b846001600160a01b0316866001600160a01b031611611be957611be2858585611d03565b9150611c30565b836001600160a01b0316866001600160a01b03161015611c2257611c0e868585611d03565b9150611c1b858785611d76565b9050611c30565b611c2d858585611d76565b90505b94509492505050565b6000808211611c4757600080fd5b6000806000198587098587029250828110838203039150508060001415611c7357508290049050611cfc565b808411611c7f57600080fd5b600084868809808403938111909203919050600085611ca081600019612568565b611cab90600161237d565b16958690049560026003880281188089028203028089028203028089028203028089028203028089028203028089029091030260008290038290046001019490940294049390931791909102925050505b9392505050565b6000826001600160a01b0316846001600160a01b03161115611d23579192915b6001600160a01b038416611d6c6fffffffffffffffffffffffffffffffff60601b606085901b16611d548787612540565b6001600160a01b0316866001600160a01b0316611c39565b6105cc91906123d3565b6000826001600160a01b0316846001600160a01b03161115611d96579192915b6105cc6001600160801b038316611dad8686612540565b6001600160a01b0316600160601b611c39565b8051611dcb81612610565b919050565b600082601f830112611de0578081fd5b81516020611df5611df083612359565b612328565b80838252828201915082860187848660051b8901011115611e14578586fd5b855b85811015611e3b578151611e2981612610565b84529284019290840190600101611e16565b5090979650505050505050565b8051600281900b8114611dcb57600080fd5b80516001600160801b0381168114611dcb57600080fd5b805161ffff81168114611dcb57600080fd5b8051611dcb81612628565b600060208284031215611e9f578081fd5b8135611cfc81612610565b600060208284031215611ebb578081fd5b8151611cfc81612610565b60008060408385031215611ed8578081fd5b8235611ee381612610565b91506020830135611ef381612610565b809150509250929050565b600080600080600060a08688031215611f15578081fd5b8535611f2081612610565b94506020860135611f3081612610565b93506040860135611f4081612610565b92506060860135611f5081612610565b91506080860135611f6081612610565b809150509295509295909350565b600080600060608486031215611f82578283fd5b8335611f8d81612610565b92506020840135611f9d81612610565b91506040840135611fad81612628565b809150509250925092565b600080600060608486031215611fcc578283fd5b8335611fd781612610565b92506020840135611fe781612610565b929592945050506040919091013590565b6000806040838503121561200a578182fd5b823561201581612610565b91506020830135611ef381612628565b60008060408385031215612037578182fd5b823561204281612610565b946020939093013593505050565b60008060408385031215612062578182fd5b823561206d81612610565b9150602083013563ffffffff81168114611ef3578182fd5b60008060408385031215612097578182fd5b825167ffffffffffffffff808211156120ae578384fd5b818501915085601f8301126120c1578384fd5b815160206120d1611df083612359565b8083825282820191508286018a848660051b89010111156120f0578889fd5b8896505b848710156121205780518060060b811461210c57898afd5b8352600196909601959183019183016120f4565b5091880151919650909350505080821115612139578283fd5b5061214685828601611dd0565b9150509250929050565b600080600080600080600060e0888a03121561216a578485fd5b875161217581612610565b965061218360208901611e48565b955061219160408901611e71565b945061219f60608901611e71565b93506121ad60808901611e71565b925060a088015160ff811681146121c2578283fd5b60c089015190925080151581146121d7578182fd5b8091505092959891949750929550565b6000602082840312156121f8578081fd5b5051919050565b6000806000806000806000806000806000806101808d8f031215612221578586fd5b8c516bffffffffffffffffffffffff8116811461223c578687fd5b9b5061224a60208e01611dc0565b9a5061225860408e01611dc0565b995061226660608e01611dc0565b985061227460808e01611e83565b975061228260a08e01611e48565b965061229060c08e01611e48565b955061229e60e08e01611e5a565b94506101008d015193506101208d015192506122bd6101408e01611e5a565b91506122cc6101608e01611e5a565b90509295989b509295989b509295989b565b6020808252825182820181905260009190848201906040850190845b8181101561231c57835163ffffffff16835292840192918401916001016122fa565b50909695505050505050565b604051601f8201601f1916810167ffffffffffffffff81118282101715612351576123516125fa565b604052919050565b600067ffffffffffffffff821115612373576123736125fa565b5060051b60200190565b60008219821115612390576123906125ce565b500190565b60008160060b8360060b806123ac576123ac6125e4565b667fffffffffffff198214600019821416156123ca576123ca6125ce565b90059392505050565b6000826123e2576123e26125e4565b500490565b600181815b80851115612422578160001904821115612408576124086125ce565b8085161561241557918102915b93841c93908002906123ec565b509250929050565b6000611cfc838360008261244057506001610ca4565b8161244d57506000610ca4565b8160018114612463576002811461246d57612489565b6001915050610ca4565b60ff84111561247e5761247e6125ce565b50506001821b610ca4565b5060208310610133831016604e8410600b84101617156124ac575081810a610ca4565b6124b683836123e7565b80600019048211156124ca576124ca6125ce565b029392505050565b60008160001904831182151516156124ec576124ec6125ce565b500290565b60008160060b8360060b82811281667fffffffffffff190183128115161561251b5761251b6125ce565b81667fffffffffffff018313811615612536576125366125ce565b5090039392505050565b60006001600160a01b0383811690831681811015612560576125606125ce565b039392505050565b60008282101561257a5761257a6125ce565b500390565b60008261258e5761258e6125e4565b500690565b60008160020b627fffff198114156125ad576125ad6125ce565b9003919050565b6000600160ff1b8214156125ca576125ca6125ce565b0390565b634e487b7160e01b600052601160045260246000fd5b634e487b7160e01b600052601260045260246000fd5b634e487b7160e01b600052604160045260246000fd5b6001600160a01b038116811461262557600080fd5b50565b62ffffff8116811461262557600080fdfea2646970667358221220760351788c3c1ee4f2c36de280bfc9fbf737795ba913e00ac78bdd89384047bc64736f6c63430008040033",
  "linkReferences": {},
  "deployedLinkReferences": {}
}