{
  "_format": "hh-sol-artifact-1",
  "contractName": "TOSEvaluator",
  "sourceName": "contracts/libraries/TOSEvaluator.sol",
  "abi": [
    {
      "inputs": [
        {
          "internalType": "address",
          "name": "npm",
          "type": "address"
        },
        {
          "internalType": "address",
          "name": "poolAddress",
          "type": "address"
        },
        {
          "internalType": "uint256",
          "name": "tokenId",
          "type": "uint256"
        }
      ],
      "name": "getAmounts",
      "outputs": [
        {
          "internalType": "uint256",
          "name": "amount0",
          "type": "uint256"
        },
        {
          "internalType": "uint256",
          "name": "amount1",
          "type": "uint256"
        }
      ],
      "stateMutability": "view",
      "type": "function"
    },
    {
      "inputs": [
        {
          "internalType": "address",
          "name": "token0",
          "type": "address"
        },
        {
          "internalType": "address",
          "name": "token1",
          "type": "address"
        }
      ],
      "name": "getDecimals",
      "outputs": [
        {
          "internalType": "uint256",
          "name": "token0Decimals",
          "type": "uint256"
        },
        {
          "internalType": "uint256",
          "name": "token1Decimals",
          "type": "uint256"
        }
      ],
      "stateMutability": "view",
      "type": "function"
    },
    {
      "inputs": [
        {
          "internalType": "address",
          "name": "poolAddress",
          "type": "address"
        }
      ],
      "name": "getPriceToken0",
      "outputs": [
        {
          "internalType": "uint256",
          "name": "priceX96",
          "type": "uint256"
        }
      ],
      "stateMutability": "view",
      "type": "function"
    },
    {
      "inputs": [
        {
          "internalType": "address",
          "name": "poolAddress",
          "type": "address"
        }
      ],
      "name": "getPriceToken1",
      "outputs": [
        {
          "internalType": "uint256",
          "name": "priceX96",
          "type": "uint256"
        }
      ],
      "stateMutability": "view",
      "type": "function"
    },
    {
      "inputs": [
        {
          "internalType": "uint160",
          "name": "sqrtPriceX96",
          "type": "uint160"
        }
      ],
      "name": "getPriceX96FromSqrtPriceX96",
      "outputs": [
        {
          "internalType": "uint256",
          "name": "priceX96",
          "type": "uint256"
        }
      ],
      "stateMutability": "pure",
      "type": "function"
    },
    {
      "inputs": [
        {
          "internalType": "address",
          "name": "poolAddress",
          "type": "address"
        },
        {
          "internalType": "uint32",
          "name": "twapInterval",
          "type": "uint32"
        }
      ],
      "name": "getSqrtTwapX96",
      "outputs": [
        {
          "internalType": "uint160",
          "name": "sqrtPriceX96",
          "type": "uint160"
        }
      ],
      "stateMutability": "view",
      "type": "function"
    }
  ],
  "bytecode": "0x61197c61003a600b82828239805160001a60731461002d57634e487b7160e01b600052600060045260246000fd5b30600052607381538281f3fe730000000000000000000000000000000000000000301460806040526004361061006c5760003560e01c80630446db5d1461007157806347628f6014610097578063486a586a146100c25780634e09a610146100d5578063740fcd20146100e8578063d20aecad14610110575b600080fd5b61008461007f366004611266565b610123565b6040519081526020015b60405180910390f35b6100aa6100a5366004611316565b610387565b6040516001600160a01b03909116815260200161008e565b6100846100d0366004611266565b6105ac565b6100846100e3366004611266565b610723565b6100fb6100f636600461129e565b61073d565b6040805192835260208301919091520161008e565b6100fb61011e3660046112d6565b61082d565b600080826001600160a01b0316633850c7bd6040518163ffffffff1660e01b815260040160e06040518083038186803b15801561015f57600080fd5b505afa158015610173573d6000803e3d6000fd5b505050506040513d601f19601f820116820180604052508101906101979190611416565b50505050509150506000610286846001600160a01b0316630dfe16816040518163ffffffff1660e01b815260040160206040518083038186803b1580156101dd57600080fd5b505afa1580156101f1573d6000803e3d6000fd5b505050506040513d601f19601f820116820180604052508101906102159190611282565b856001600160a01b031663d21220a76040518163ffffffff1660e01b815260040160206040518083038186803b15801561024e57600080fd5b505afa158015610262573d6000803e3d6000fd5b505050506040513d601f19601f820116820180604052508101906100f69190611282565b50905061037f8261029883600a61174b565b866001600160a01b0316630dfe16816040518163ffffffff1660e01b815260040160206040518083038186803b1580156102d157600080fd5b505afa1580156102e5573d6000803e3d6000fd5b505050506040513d601f19601f820116820180604052508101906103099190611282565b876001600160a01b031663d21220a76040518163ffffffff1660e01b815260040160206040518083038186803b15801561034257600080fd5b505afa158015610356573d6000803e3d6000fd5b505050506040513d601f19601f8201168201806040525081019061037a9190611282565b6109d0565b949350505050565b600063ffffffff821661041457826001600160a01b0316633850c7bd6040518163ffffffff1660e01b815260040160e06040518083038186803b1580156103cd57600080fd5b505afa1580156103e1573d6000803e3d6000fd5b505050506040513d601f19601f820116820180604052508101906104059190611416565b509495506105a6945050505050565b604080516002808252606082018352600092602083019080368337019050509050828160008151811061045757634e487b7160e01b600052603260045260246000fd5b602002602001019063ffffffff16908163ffffffff168152505060008160018151811061049457634e487b7160e01b600052603260045260246000fd5b63ffffffff9092166020928302919091019091015260405163883bdbfd60e01b81526000906001600160a01b0386169063883bdbfd906104d89085906004016115a4565b60006040518083038186803b1580156104f057600080fd5b505afa158015610504573d6000803e3d6000fd5b505050506040513d6000823e601f3d908101601f1916820160405261052c919081019061134b565b5090506105a18460030b8260008151811061055757634e487b7160e01b600052603260045260246000fd5b60200260200101518360018151811061058057634e487b7160e01b600052603260045260246000fd5b60200260200101516105929190611812565b61059c91906116b6565b610ade565b925050505b92915050565b600080826001600160a01b0316633850c7bd6040518163ffffffff1660e01b815260040160e06040518083038186803b1580156105e857600080fd5b505afa1580156105fc573d6000803e3d6000fd5b505050506040513d601f19601f820116820180604052508101906106209190611416565b50505050509150506000610666846001600160a01b0316630dfe16816040518163ffffffff1660e01b815260040160206040518083038186803b1580156101dd57600080fd5b915061037f90508261067983600a61174b565b866001600160a01b031663d21220a76040518163ffffffff1660e01b815260040160206040518083038186803b1580156106b257600080fd5b505afa1580156106c6573d6000803e3d6000fd5b505050506040513d601f19601f820116820180604052508101906106ea9190611282565b876001600160a01b0316630dfe16816040518163ffffffff1660e01b815260040160206040518083038186803b15801561034257600080fd5b60006105a66001600160a01b03831680600160601b610ef7565b600080836001600160a01b031663313ce5676040518163ffffffff1660e01b815260040160206040518083038186803b15801561077957600080fd5b505afa15801561078d573d6000803e3d6000fd5b505050506040513d601f19601f820116820180604052508101906107b191906114ad565b836001600160a01b031663313ce5676040518163ffffffff1660e01b815260040160206040518083038186803b1580156107ea57600080fd5b505afa1580156107fe573d6000803e3d6000fd5b505050506040513d601f19601f8201168201806040525081019061082291906114ad565b915091509250929050565b6000806000846001600160a01b0316633850c7bd6040518163ffffffff1660e01b815260040160e06040518083038186803b15801561086b57600080fd5b505afa15801561087f573d6000803e3d6000fd5b505050506040513d601f19601f820116820180604052508101906108a39190611416565b50505050505090506000806000886001600160a01b03166399fbab88886040518263ffffffff1660e01b81526004016108de91815260200190565b6101806040518083038186803b1580156108f757600080fd5b505afa15801561090b573d6000803e3d6000fd5b505050506040513d601f19601f8201168201806040525081019061092f91906114c5565b505050509750975097505050505050600061094984610ade565b9050600061095684610ade565b905061096486838386610fc1565b60408051808201909152600b81526a030b6b7bab73a181012b9960ad1b60208201529199509750610995908961105d565b6109c26040518060400160405280600b81526020016a030b6b7bab73a189012b9960ad1b8152508861105d565b505050505050935093915050565b6000806109dc86610ade565b90506001600160801b036001600160a01b03821611610a62576000610a0a6001600160a01b038316806117f3565b9050836001600160a01b0316856001600160a01b031610610a4257610a3d600160c01b876001600160801b031683610ef7565b610a5a565b610a5a81876001600160801b0316600160c01b610ef7565b925050610ad5565b6000610a816001600160a01b0383168068010000000000000000610ef7565b9050836001600160a01b0316856001600160a01b031610610ab957610ab4600160801b876001600160801b031683610ef7565b610ad1565b610ad181876001600160801b0316600160801b610ef7565b9250505b50949350505050565b60008060008360020b12610af5578260020b610b02565b8260020b610b02906118d5565b9050610b11620d89e7196118b4565b60020b811115610b4b5760405162461bcd60e51b81526020600482015260016024820152601560fa1b604482015260640160405180910390fd5b600060018216610b5f57600160801b610b71565b6ffffcb933bd6fad37aa2d162d1a5940015b70ffffffffffffffffffffffffffffffffff1690506002821615610bb0576080610bab826ffff97272373d413259a46990580e213a6117f3565b901c90505b6004821615610bda576080610bd5826ffff2e50f5f656932ef12357cf3c7fdcc6117f3565b901c90505b6008821615610c04576080610bff826fffe5caca7e10e4e61c3624eaa0941cd06117f3565b901c90505b6010821615610c2e576080610c29826fffcb9843d60f6159c9db58835c9266446117f3565b901c90505b6020821615610c58576080610c53826fff973b41fa98c081472e6896dfb254c06117f3565b901c90505b6040821615610c82576080610c7d826fff2ea16466c96a3843ec78b326b528616117f3565b901c90505b6080821615610cac576080610ca7826ffe5dee046a99a2a811c461f1969c30536117f3565b901c90505b610100821615610cd7576080610cd2826ffcbe86c7900a88aedcffc83b479aa3a46117f3565b901c90505b610200821615610d02576080610cfd826ff987a7253ac413176f2b074cf7815e546117f3565b901c90505b610400821615610d2d576080610d28826ff3392b0822b70005940c7a398e4b70f36117f3565b901c90505b610800821615610d58576080610d53826fe7159475a2c29b7443b29c7fa6e889d96117f3565b901c90505b611000821615610d83576080610d7e826fd097f3bdfd2022b8845ad8f792aa58256117f3565b901c90505b612000821615610dae576080610da9826fa9f746462d870fdf8a65dc1f90e061e56117f3565b901c90505b614000821615610dd9576080610dd4826f70d869a156d2a1b890bb3df62baf32f76117f3565b901c90505b618000821615610e04576080610dff826f31be135f97d08fd981231505542fcfa66117f3565b901c90505b62010000821615610e30576080610e2b826f09aa508b5b7a84e1c677de54f3e99bc96117f3565b901c90505b62020000821615610e5b576080610e56826e5d6af8dedb81196699c329225ee6046117f3565b901c90505b62040000821615610e85576080610e80826d2216e584f5fa1ea926041bedfe986117f3565b901c90505b62080000821615610ead576080610ea8826b048a170391f7dc42444e8fa26117f3565b901c90505b60008460020b1315610ec857610ec5816000196116f4565b90505b610ed7640100000000826118a0565b15610ee3576001610ee6565b60005b61037f9060ff16602083901c61169e565b6000808211610f0557600080fd5b6000806000198587098587029250828110838203039150508060001415610f3157508290049050610fba565b808411610f3d57600080fd5b600084868809808403938111909203919050600085610f5e81600019611889565b610f6990600161169e565b16958690049560026003880281188089028203028089028203028089028203028089028203028089028203028089029091030260008290038290046001019490940294049390931791909102925050505b9392505050565b600080836001600160a01b0316856001600160a01b03161115610fe2579293925b846001600160a01b0316866001600160a01b03161161100d576110068585856110a6565b9150611054565b836001600160a01b0316866001600160a01b03161015611046576110328685856110a6565b915061103f858785611119565b9050611054565b611051858585611119565b90505b94509492505050565b6110a282826040516024016110739291906115ee565b60408051601f198184030181529190526020810180516001600160e01b0316632d839cb360e21b179052611163565b5050565b6000826001600160a01b0316846001600160a01b031611156110c6579192915b6001600160a01b03841661110f6fffffffffffffffffffffffffffffffff60601b606085901b166110f78787611861565b6001600160a01b0316866001600160a01b0316610ef7565b61037f91906116f4565b6000826001600160a01b0316846001600160a01b03161115611139579192915b61037f6001600160801b0383166111508686611861565b6001600160a01b0316600160601b610ef7565b61116c8161116f565b50565b60006a636f6e736f6c652e6c6f679050600080835160208501845afa505050565b805161119b81611931565b919050565b600082601f8301126111b0578081fd5b815160206111c56111c08361167a565b611649565b80838252828201915082860187848660051b89010111156111e4578586fd5b855b8581101561120b5781516111f981611931565b845292840192908401906001016111e6565b5090979650505050505050565b8051600281900b811461119b57600080fd5b80516001600160801b038116811461119b57600080fd5b805161ffff8116811461119b57600080fd5b805162ffffff8116811461119b57600080fd5b600060208284031215611277578081fd5b8135610fba81611931565b600060208284031215611293578081fd5b8151610fba81611931565b600080604083850312156112b0578081fd5b82356112bb81611931565b915060208301356112cb81611931565b809150509250929050565b6000806000606084860312156112ea578081fd5b83356112f581611931565b9250602084013561130581611931565b929592945050506040919091013590565b60008060408385031215611328578182fd5b823561133381611931565b9150602083013563ffffffff811681146112cb578182fd5b6000806040838503121561135d578182fd5b825167ffffffffffffffff80821115611374578384fd5b818501915085601f830112611387578384fd5b815160206113976111c08361167a565b8083825282820191508286018a848660051b89010111156113b6578889fd5b8896505b848710156113e65780518060060b81146113d257898afd5b8352600196909601959183019183016113ba565b50918801519196509093505050808211156113ff578283fd5b5061140c858286016111a0565b9150509250929050565b600080600080600080600060e0888a031215611430578283fd5b875161143b81611931565b965061144960208901611218565b955061145760408901611241565b945061146560608901611241565b935061147360808901611241565b925060a088015160ff81168114611488578283fd5b60c0890151909250801515811461149d578182fd5b8091505092959891949750929550565b6000602082840312156114be578081fd5b5051919050565b6000806000806000806000806000806000806101808d8f0312156114e7578586fd5b8c516bffffffffffffffffffffffff81168114611502578687fd5b9b5061151060208e01611190565b9a5061151e60408e01611190565b995061152c60608e01611190565b985061153a60808e01611253565b975061154860a08e01611218565b965061155660c08e01611218565b955061156460e08e0161122a565b94506101008d015193506101208d015192506115836101408e0161122a565b91506115926101608e0161122a565b90509295989b509295989b509295989b565b6020808252825182820181905260009190848201906040850190845b818110156115e257835163ffffffff16835292840192918401916001016115c0565b50909695505050505050565b6040815260008351806040840152815b8181101561161b57602081870181015160608684010152016115fe565b8181111561162c5782606083860101525b50602083019390935250601f91909101601f191601606001919050565b604051601f8201601f1916810167ffffffffffffffff811182821017156116725761167261191b565b604052919050565b600067ffffffffffffffff8211156116945761169461191b565b5060051b60200190565b600082198211156116b1576116b16118ef565b500190565b60008160060b8360060b806116cd576116cd611905565b667fffffffffffff198214600019821416156116eb576116eb6118ef565b90059392505050565b60008261170357611703611905565b500490565b600181815b80851115611743578160001904821115611729576117296118ef565b8085161561173657918102915b93841c939080029061170d565b509250929050565b6000610fba8383600082611761575060016105a6565b8161176e575060006105a6565b8160018114611784576002811461178e576117aa565b60019150506105a6565b60ff84111561179f5761179f6118ef565b50506001821b6105a6565b5060208310610133831016604e8410600b84101617156117cd575081810a6105a6565b6117d78383611708565b80600019048211156117eb576117eb6118ef565b029392505050565b600081600019048311821515161561180d5761180d6118ef565b500290565b60008160060b8360060b82811281667fffffffffffff190183128115161561183c5761183c6118ef565b81667fffffffffffff018313811615611857576118576118ef565b5090039392505050565b60006001600160a01b0383811690831681811015611881576118816118ef565b039392505050565b60008282101561189b5761189b6118ef565b500390565b6000826118af576118af611905565b500690565b60008160020b627fffff198114156118ce576118ce6118ef565b9003919050565b6000600160ff1b8214156118eb576118eb6118ef565b0390565b634e487b7160e01b600052601160045260246000fd5b634e487b7160e01b600052601260045260246000fd5b634e487b7160e01b600052604160045260246000fd5b6001600160a01b038116811461116c57600080fdfea264697066735822122025f6e02e9b9b6bad65f5a46cdbec64522c51410bdb388fa201290c07c6cd35f264736f6c63430008040033",
  "linkReferences": {},
  "deployedLinkReferences": {}
}