{
  "_format": "hh-sol-artifact-1",
  "contractName": "TreasuryV1_1Storage",
  "sourceName": "contracts/TreasuryV1_1Storage.sol",
  "abi": [
    {
      "inputs": [],
      "name": "claimPause",
      "outputs": [
        {
          "internalType": "bool",
          "name": "",
          "type": "bool"
        }
      ],
      "stateMutability": "view",
      "type": "function"
    },
    {
      "inputs": [],
      "name": "claimableStartTime",
      "outputs": [
        {
          "internalType": "uint256",
          "name": "",
          "type": "uint256"
        }
      ],
      "stateMutability": "view",
      "type": "function"
    }
  ],
  "bytecode": "0x6080604052348015600f57600080fd5b5060a38061001e6000396000f3fe6080604052348015600f57600080fd5b506004361060325760003560e01c80636478e1921460375780637875d95a146052575b600080fd5b603f60005481565b6040519081526020015b60405180910390f35b600154605e9060ff1681565b6040519015158152602001604956fea2646970667358221220dd022d25c87aa47e4f09fbad64da36f6b397a3fdd6303e94ce371a7889905ca464736f6c63430008040033",
  "linkReferences": {},
  "deployedLinkReferences": {}
}