{
  "_format": "hh-sol-artifact-1",
  "contractName": "DTOSManagerStorage",
  "sourceName": "contracts/token/DTOSManagerStorage.sol",
  "abi": [
    {
      "inputs": [],
      "name": "decimals",
      "outputs": [
        {
          "internalType": "uint8",
          "name": "",
          "type": "uint8"
        }
      ],
      "stateMutability": "view",
      "type": "function"
    },
    {
      "inputs": [],
      "name": "name",
      "outputs": [
        {
          "internalType": "string",
          "name": "",
          "type": "string"
        }
      ],
      "stateMutability": "view",
      "type": "function"
    },
    {
      "inputs": [],
      "name": "policyAddress",
      "outputs": [
        {
          "internalType": "address",
          "name": "",
          "type": "address"
        }
      ],
      "stateMutability": "view",
      "type": "function"
    },
    {
      "inputs": [
        {
          "internalType": "address",
          "name": "",
          "type": "address"
        }
      ],
      "name": "poolIndex",
      "outputs": [
        {
          "internalType": "uint256",
          "name": "",
          "type": "uint256"
        }
      ],
      "stateMutability": "view",
      "type": "function"
    },
    {
      "inputs": [
        {
          "internalType": "uint256",
          "name": "",
          "type": "uint256"
        },
        {
          "internalType": "uint256",
          "name": "",
          "type": "uint256"
        }
      ],
      "name": "poolSnapshots",
      "outputs": [
        {
          "internalType": "address",
          "name": "poolAddress",
          "type": "address"
        },
        {
          "internalType": "uint256",
          "name": "snapshotId",
          "type": "uint256"
        }
      ],
      "stateMutability": "view",
      "type": "function"
    },
    {
      "inputs": [
        {
          "internalType": "uint256",
          "name": "",
          "type": "uint256"
        }
      ],
      "name": "pools",
      "outputs": [
        {
          "internalType": "address",
          "name": "",
          "type": "address"
        }
      ],
      "stateMutability": "view",
      "type": "function"
    },
    {
      "inputs": [],
      "name": "rewardLPTokenManager",
      "outputs": [
        {
          "internalType": "address",
          "name": "",
          "type": "address"
        }
      ],
      "stateMutability": "view",
      "type": "function"
    },
    {
      "inputs": [],
      "name": "rewardPoolFactory",
      "outputs": [
        {
          "internalType": "address",
          "name": "",
          "type": "address"
        }
      ],
      "stateMutability": "view",
      "type": "function"
    },
    {
      "inputs": [],
      "name": "symbol",
      "outputs": [
        {
          "internalType": "string",
          "name": "",
          "type": "string"
        }
      ],
      "stateMutability": "view",
      "type": "function"
    },
    {
      "inputs": [],
      "name": "tosAddress",
      "outputs": [
        {
          "internalType": "address",
          "name": "",
          "type": "address"
        }
      ],
      "stateMutability": "view",
      "type": "function"
    }
  ],
  "bytecode": "0x60806040526002805460ff1916601217905534801561001d57600080fd5b506103fa8061002d6000396000f3fe608060405234801561001057600080fd5b506004361061009e5760003560e01c8063637e65bd11610066578063637e65bd1461015057806395d89b4114610163578063ac4afa381461016b578063b42754a51461017e578063e084363a146101ac57600080fd5b806306fdde03146100a35780631042f08d146100c157806325afe771146100ec578063313ce5671461011e578063520194a61461013d575b600080fd5b6100ab6101c4565b6040516100b89190610336565b60405180910390f35b6003546100d4906001600160a01b031681565b6040516001600160a01b0390911681526020016100b8565b6100ff6100fa366004610315565b610252565b604080516001600160a01b0390931683526020830191909152016100b8565b60025461012b9060ff1681565b60405160ff90911681526020016100b8565b6005546100d4906001600160a01b031681565b6004546100d4906001600160a01b031681565b6100ab610298565b6100d46101793660046102fd565b6102a5565b61019e61018c3660046102cf565b60066020526000908152604090205481565b6040519081526020016100b8565b6002546100d49061010090046001600160a01b031681565b600080546101d190610389565b80601f01602080910402602001604051908101604052809291908181526020018280546101fd90610389565b801561024a5780601f1061021f5761010080835404028352916020019161024a565b820191906000526020600020905b81548152906001019060200180831161022d57829003601f168201915b505050505081565b6009602052816000526040600020818154811061026e57600080fd5b6000918252602090912060029091020180546001909101546001600160a01b039091169250905082565b600180546101d190610389565b600781815481106102b557600080fd5b6000918252602090912001546001600160a01b0316905081565b6000602082840312156102e0578081fd5b81356001600160a01b03811681146102f6578182fd5b9392505050565b60006020828403121561030e578081fd5b5035919050565b60008060408385031215610327578081fd5b50508035926020909101359150565b6000602080835283518082850152825b8181101561036257858101830151858201604001528201610346565b818111156103735783604083870101525b50601f01601f1916929092016040019392505050565b600181811c9082168061039d57607f821691505b602082108114156103be57634e487b7160e01b600052602260045260246000fd5b5091905056fea2646970667358221220630fb3d8ed958fc0ef05be297e0f9ad366c221eae8a2eb65238522bdc5c84a5064736f6c63430008040033",
  "linkReferences": {},
  "deployedLinkReferences": {}
}