{
  "_format": "hh-sol-artifact-1",
  "contractName": "VaultFactory",
  "sourceName": "contracts/factory/VaultFactory.sol",
  "abi": [
    {
      "inputs": [],
      "stateMutability": "nonpayable",
      "type": "constructor"
    },
    {
      "anonymous": false,
      "inputs": [
        {
          "indexed": true,
          "internalType": "bytes32",
          "name": "role",
          "type": "bytes32"
        },
        {
          "indexed": true,
          "internalType": "bytes32",
          "name": "previousAdminRole",
          "type": "bytes32"
        },
        {
          "indexed": true,
          "internalType": "bytes32",
          "name": "newAdminRole",
          "type": "bytes32"
        }
      ],
      "name": "RoleAdminChanged",
      "type": "event"
    },
    {
      "anonymous": false,
      "inputs": [
        {
          "indexed": true,
          "internalType": "bytes32",
          "name": "role",
          "type": "bytes32"
        },
        {
          "indexed": true,
          "internalType": "address",
          "name": "account",
          "type": "address"
        },
        {
          "indexed": true,
          "internalType": "address",
          "name": "sender",
          "type": "address"
        }
      ],
      "name": "RoleGranted",
      "type": "event"
    },
    {
      "anonymous": false,
      "inputs": [
        {
          "indexed": true,
          "internalType": "bytes32",
          "name": "role",
          "type": "bytes32"
        },
        {
          "indexed": true,
          "internalType": "address",
          "name": "account",
          "type": "address"
        },
        {
          "indexed": true,
          "internalType": "address",
          "name": "sender",
          "type": "address"
        }
      ],
      "name": "RoleRevoked",
      "type": "event"
    },
    {
      "inputs": [],
      "name": "ADMIN_ROLE",
      "outputs": [
        {
          "internalType": "bytes32",
          "name": "",
          "type": "bytes32"
        }
      ],
      "stateMutability": "view",
      "type": "function"
    },
    {
      "inputs": [],
      "name": "DEFAULT_ADMIN_ROLE",
      "outputs": [
        {
          "internalType": "bytes32",
          "name": "",
          "type": "bytes32"
        }
      ],
      "stateMutability": "view",
      "type": "function"
    },
    {
      "inputs": [],
      "name": "POLICY_ROLE",
      "outputs": [
        {
          "internalType": "bytes32",
          "name": "",
          "type": "bytes32"
        }
      ],
      "stateMutability": "view",
      "type": "function"
    },
    {
      "inputs": [
        {
          "internalType": "address",
          "name": "account",
          "type": "address"
        }
      ],
      "name": "addAdmin",
      "outputs": [],
      "stateMutability": "nonpayable",
      "type": "function"
    },
    {
      "inputs": [
        {
          "internalType": "uint256",
          "name": "",
          "type": "uint256"
        }
      ],
      "name": "createdContracts",
      "outputs": [
        {
          "internalType": "address",
          "name": "contractAddress",
          "type": "address"
        },
        {
          "internalType": "string",
          "name": "name",
          "type": "string"
        }
      ],
      "stateMutability": "view",
      "type": "function"
    },
    {
      "inputs": [
        {
          "internalType": "uint256",
          "name": "_index",
          "type": "uint256"
        }
      ],
      "name": "getContracts",
      "outputs": [
        {
          "internalType": "address",
          "name": "contractAddress",
          "type": "address"
        },
        {
          "internalType": "string",
          "name": "name",
          "type": "string"
        }
      ],
      "stateMutability": "view",
      "type": "function"
    },
    {
      "inputs": [
        {
          "internalType": "bytes32",
          "name": "role",
          "type": "bytes32"
        }
      ],
      "name": "getRoleAdmin",
      "outputs": [
        {
          "internalType": "bytes32",
          "name": "",
          "type": "bytes32"
        }
      ],
      "stateMutability": "view",
      "type": "function"
    },
    {
      "inputs": [
        {
          "internalType": "bytes32",
          "name": "role",
          "type": "bytes32"
        },
        {
          "internalType": "address",
          "name": "account",
          "type": "address"
        }
      ],
      "name": "grantRole",
      "outputs": [],
      "stateMutability": "nonpayable",
      "type": "function"
    },
    {
      "inputs": [
        {
          "internalType": "bytes32",
          "name": "role",
          "type": "bytes32"
        },
        {
          "internalType": "address",
          "name": "account",
          "type": "address"
        }
      ],
      "name": "hasRole",
      "outputs": [
        {
          "internalType": "bool",
          "name": "",
          "type": "bool"
        }
      ],
      "stateMutability": "view",
      "type": "function"
    },
    {
      "inputs": [
        {
          "internalType": "address",
          "name": "account",
          "type": "address"
        }
      ],
      "name": "isAdmin",
      "outputs": [
        {
          "internalType": "bool",
          "name": "",
          "type": "bool"
        }
      ],
      "stateMutability": "view",
      "type": "function"
    },
    {
      "inputs": [],
      "name": "lastestCreated",
      "outputs": [
        {
          "internalType": "address",
          "name": "contractAddress",
          "type": "address"
        },
        {
          "internalType": "string",
          "name": "name",
          "type": "string"
        }
      ],
      "stateMutability": "view",
      "type": "function"
    },
    {
      "inputs": [
        {
          "internalType": "address",
          "name": "account",
          "type": "address"
        }
      ],
      "name": "removeAdmin",
      "outputs": [],
      "stateMutability": "nonpayable",
      "type": "function"
    },
    {
      "inputs": [
        {
          "internalType": "bytes32",
          "name": "role",
          "type": "bytes32"
        },
        {
          "internalType": "address",
          "name": "account",
          "type": "address"
        }
      ],
      "name": "renounceRole",
      "outputs": [],
      "stateMutability": "nonpayable",
      "type": "function"
    },
    {
      "inputs": [
        {
          "internalType": "bytes32",
          "name": "role",
          "type": "bytes32"
        },
        {
          "internalType": "address",
          "name": "account",
          "type": "address"
        }
      ],
      "name": "revokeRole",
      "outputs": [],
      "stateMutability": "nonpayable",
      "type": "function"
    },
    {
      "inputs": [
        {
          "internalType": "address",
          "name": "_logic",
          "type": "address"
        }
      ],
      "name": "setLogic",
      "outputs": [],
      "stateMutability": "nonpayable",
      "type": "function"
    },
    {
      "inputs": [
        {
          "internalType": "address",
          "name": "addr",
          "type": "address"
        }
      ],
      "name": "setUpgradeAdmin",
      "outputs": [],
      "stateMutability": "nonpayable",
      "type": "function"
    },
    {
      "inputs": [
        {
          "internalType": "bytes4",
          "name": "interfaceId",
          "type": "bytes4"
        }
      ],
      "name": "supportsInterface",
      "outputs": [
        {
          "internalType": "bool",
          "name": "",
          "type": "bool"
        }
      ],
      "stateMutability": "view",
      "type": "function"
    },
    {
      "inputs": [],
      "name": "totalCreatedContracts",
      "outputs": [
        {
          "internalType": "uint256",
          "name": "",
          "type": "uint256"
        }
      ],
      "stateMutability": "view",
      "type": "function"
    },
    {
      "inputs": [
        {
          "internalType": "address",
          "name": "newAdmin",
          "type": "address"
        }
      ],
      "name": "transferAdmin",
      "outputs": [],
      "stateMutability": "nonpayable",
      "type": "function"
    },
    {
      "inputs": [],
      "name": "upgradeAdmin",
      "outputs": [
        {
          "internalType": "address",
          "name": "",
          "type": "address"
        }
      ],
      "stateMutability": "view",
      "type": "function"
    },
    {
      "inputs": [
        {
          "internalType": "address",
          "name": "_contract",
          "type": "address"
        },
        {
          "internalType": "bytes4[]",
          "name": "_selectors",
          "type": "bytes4[]"
        },
        {
          "internalType": "address",
          "name": "_imp",
          "type": "address"
        }
      ],
      "name": "upgradeContractFunction",
      "outputs": [],
      "stateMutability": "nonpayable",
      "type": "function"
    },
    {
      "inputs": [
        {
          "internalType": "address",
          "name": "_contract",
          "type": "address"
        },
        {
          "internalType": "address",
          "name": "_logic",
          "type": "address"
        },
        {
          "internalType": "uint256",
          "name": "_index",
          "type": "uint256"
        },
        {
          "internalType": "bool",
          "name": "_alive",
          "type": "bool"
        }
      ],
      "name": "upgradeContractLogic",
      "outputs": [],
      "stateMutability": "nonpayable",
      "type": "function"
    },
    {
      "inputs": [],
      "name": "vaultLogic",
      "outputs": [
        {
          "internalType": "address",
          "name": "",
          "type": "address"
        }
      ],
      "stateMutability": "view",
      "type": "function"
    }
  ],
  "bytecode": "0x608060405234801561001057600080fd5b50600060015561002f600080516020620014a38339815191528061005f565b610048600080516020620014a3833981519152336100aa565b600380546001600160a01b03191633179055610156565b600082815260208190526040808220600101805490849055905190918391839186917fbd79b86ffe0ab8e8776151514217cd7cacd52c909f66475c3af44e129f0b00ff9190a4505050565b6100b482826100b8565b5050565b6000828152602081815260408083206001600160a01b038516845290915290205460ff166100b4576000828152602081815260408083206001600160a01b03851684529091529020805460ff191660011790556101123390565b6001600160a01b0316816001600160a01b0316837f2f8788117e7eff1d82e926ec794901d17c78024a50270940304540a733656f0d60405160405180910390a45050565b61133d80620001666000396000f3fe608060405234801561001057600080fd5b506004361061014d5760003560e01c806370480275116100c3578063a217fddf1161007c578063a217fddf146102e3578063b078147a146102eb578063b4d4028014610316578063c4d5608a14610329578063d05261871461033c578063d547741f1461034557600080fd5b8063704802751461026f578063718570001461028257806375829def1461029557806375b238fc146102a857806391d14854146102bd5780639342f417146102d057600080fd5b806324d7806c1161011557806324d7806c146102085780632f2ff15d1461021b578063338bad5f1461022e57806336568abe14610236578063439e23fd1461024957806367c5f8de1461025c57600080fd5b806301ffc9a714610152578063088113971461017a5780631785f53c1461019b57806322985246146101b0578063248a9ca3146101e5575b600080fd5b610165610160366004611037565b610358565b60405190151581526020015b60405180910390f35b61018d610188366004610ff4565b61038f565b6040516101719291906110f2565b6101ae6101a9366004610ef6565b61043e565b005b6101d77ffb5864e8ff833c3cb2d2d08505e82ff02a43554c74a35d4f5a64e8526127831181565b604051908152602001610171565b6101d76101f3366004610ff4565b60009081526020819052604090206001015490565b610165610216366004610ef6565b610487565b6101ae61022936600461100c565b6104a1565b61018d6104cb565b6101ae61024436600461100c565b6105d7565b61018d610257366004610ff4565b610655565b6101ae61026a366004610f10565b610732565b6101ae61027d366004610ef6565b6107f0565b6101ae610290366004610ef6565b61082d565b6101ae6102a3366004610ef6565b6108fa565b6101d76000805160206112e883398151915281565b6101656102cb36600461100c565b6109f7565b6101ae6102de366004610ef6565b610a20565b6101d7600081565b6004546102fe906001600160a01b031681565b6040516001600160a01b039091168152602001610171565b6101ae610324366004610f62565b610ada565b6003546102fe906001600160a01b031681565b6101d760015481565b6101ae61035336600461100c565b610b56565b60006001600160e01b03198216637965db0b60e01b148061038957506301ffc9a760e01b6001600160e01b03198316145b92915050565b600260205260009081526040902080546001820180546001600160a01b0390921692916103bb90611296565b80601f01602080910402602001604051908101604052809291908181526020018280546103e790611296565b80156104345780601f1061040957610100808354040283529160200191610434565b820191906000526020600020905b81548152906001019060200180831161041757829003601f168201915b5050505050905082565b61044733610487565b61046c5760405162461bcd60e51b8152600401610463906111bf565b60405180910390fd5b6104846000805160206112e8833981519152826105d7565b50565b60006103896000805160206112e8833981519152836109f7565b6000828152602081905260409020600101546104bc81610b7b565b6104c68383610b85565b505050565b60006060600060015411156105c25760026000600180546104ec9190611238565b81526020810191909152604001600090812054600180546001600160a01b0390921692600292909161051d91611238565b815260200190815260200160002060010180805461053a90611296565b80601f016020809104026020016040519081016040528092919081815260200182805461056690611296565b80156105b35780601f10610588576101008083540402835291602001916105b3565b820191906000526020600020905b81548152906001019060200180831161059657829003601f168201915b50505050509050915091509091565b50506040805160208101909152600080825291565b6001600160a01b03811633146106475760405162461bcd60e51b815260206004820152602f60248201527f416363657373436f6e74726f6c3a2063616e206f6e6c792072656e6f756e636560448201526e103937b632b9903337b91039b2b63360891b6064820152608401610463565b6106518282610c09565b5050565b6000606060015483101561071a5760008381526002602052604090208054600190910180546001600160a01b0390921691819061069190611296565b80601f01602080910402602001604051908101604052809291908181526020018280546106bd90611296565b801561070a5780601f106106df5761010080835404028352916020019161070a565b820191906000526020600020905b8154815290600101906020018083116106ed57829003601f168201915b5050505050905091509150915091565b50506040805160208101909152600080825292909150565b61073b33610487565b6107575760405162461bcd60e51b8152600401610463906111bf565b836001600160a01b03811661077e5760405162461bcd60e51b815260040161046390611193565b604051637cd5f66360e01b81526001600160a01b038581166004830152602482018590528315156044830152861690637cd5f663906064015b600060405180830381600087803b1580156107d157600080fd5b505af11580156107e5573d6000803e3d6000fd5b505050505050505050565b6107f933610487565b6108155760405162461bcd60e51b8152600401610463906111bf565b6104846000805160206112e8833981519152826104a1565b806001600160a01b0381166108545760405162461bcd60e51b815260040161046390611193565b61085d33610487565b6108795760405162461bcd60e51b8152600401610463906111bf565b6004546001600160a01b03838116911614156108d75760405162461bcd60e51b815260206004820152601860248201527f616c72656164792073657420746869732076657273696f6e00000000000000006044820152606401610463565b50600480546001600160a01b0319166001600160a01b0392909216919091179055565b61090333610487565b61091f5760405162461bcd60e51b8152600401610463906111bf565b6001600160a01b0381166109755760405162461bcd60e51b815260206004820152601860248201527f41636365737369626c653a207a65726f206164647265737300000000000000006044820152606401610463565b336001600160a01b03821614156109c75760405162461bcd60e51b815260206004820152601660248201527520b1b1b2b9b9b4b136329d1039b0b6b29030b236b4b760511b6044820152606401610463565b6109df6000805160206112e8833981519152826104a1565b6104846000805160206112e8833981519152336105d7565b6000918252602082815260408084206001600160a01b0393909316845291905290205460ff1690565b610a2933610487565b610a455760405162461bcd60e51b8152600401610463906111bf565b806001600160a01b038116610a6c5760405162461bcd60e51b815260040161046390611193565b6003546001600160a01b0383811691161415610ab75760405162461bcd60e51b815260206004820152600a60248201526973616d6520616464727360b01b6044820152606401610463565b50600380546001600160a01b0319166001600160a01b0392909216919091179055565b610ae333610487565b610aff5760405162461bcd60e51b8152600401610463906111bf565b836001600160a01b038116610b265760405162461bcd60e51b815260040161046390611193565b604051634a5df50f60e01b81526001600160a01b03861690634a5df50f906107b79087908790879060040161111e565b600082815260208190526040902060010154610b7181610b7b565b6104c68383610c09565b6104848133610c6e565b610b8f82826109f7565b610651576000828152602081815260408083206001600160a01b03851684529091529020805460ff19166001179055610bc53390565b6001600160a01b0316816001600160a01b0316837f2f8788117e7eff1d82e926ec794901d17c78024a50270940304540a733656f0d60405160405180910390a45050565b610c1382826109f7565b15610651576000828152602081815260408083206001600160a01b0385168085529252808320805460ff1916905551339285917ff6391f5c32d9c69d2a47ea670b442974b53935d1edc7fd64eb21e047a839171b9190a45050565b610c7882826109f7565b61065157610c8581610cc7565b610c90836020610cd9565b604051602001610ca192919061107d565b60408051601f198184030181529082905262461bcd60e51b825261046391600401611180565b60606103896001600160a01b03831660145b60606000610ce8836002611219565b610cf3906002611201565b67ffffffffffffffff811115610d1957634e487b7160e01b600052604160045260246000fd5b6040519080825280601f01601f191660200182016040528015610d43576020820181803683370190505b509050600360fc1b81600081518110610d6c57634e487b7160e01b600052603260045260246000fd5b60200101906001600160f81b031916908160001a905350600f60fb1b81600181518110610da957634e487b7160e01b600052603260045260246000fd5b60200101906001600160f81b031916908160001a9053506000610dcd846002611219565b610dd8906001611201565b90505b6001811115610e6c576f181899199a1a9b1b9c1cb0b131b232b360811b85600f1660108110610e1a57634e487b7160e01b600052603260045260246000fd5b1a60f81b828281518110610e3e57634e487b7160e01b600052603260045260246000fd5b60200101906001600160f81b031916908160001a90535060049490941c93610e658161127f565b9050610ddb565b508315610ebb5760405162461bcd60e51b815260206004820181905260248201527f537472696e67733a20686578206c656e67746820696e73756666696369656e746044820152606401610463565b9392505050565b80356001600160a01b0381168114610ed957600080fd5b919050565b80356001600160e01b031981168114610ed957600080fd5b600060208284031215610f07578081fd5b610ebb82610ec2565b60008060008060808587031215610f25578283fd5b610f2e85610ec2565b9350610f3c60208601610ec2565b92506040850135915060608501358015158114610f57578182fd5b939692955090935050565b60008060008060608587031215610f77578384fd5b610f8085610ec2565b9350602085013567ffffffffffffffff80821115610f9c578485fd5b818701915087601f830112610faf578485fd5b813581811115610fbd578586fd5b8860208260051b8501011115610fd1578586fd5b602083019550809450505050610fe960408601610ec2565b905092959194509250565b600060208284031215611005578081fd5b5035919050565b6000806040838503121561101e578182fd5b8235915061102e60208401610ec2565b90509250929050565b600060208284031215611048578081fd5b610ebb82610ede565b6000815180845261106981602086016020860161124f565b601f01601f19169290920160200192915050565b7f416363657373436f6e74726f6c3a206163636f756e74200000000000000000008152600083516110b581601785016020880161124f565b7001034b99036b4b9b9b4b733903937b6329607d1b60179184019182015283516110e681602884016020880161124f565b01602801949350505050565b6001600160a01b038316815260406020820181905260009061111690830184611051565b949350505050565b6040808252810183905260008460608301825b86811015611160576001600160e01b031961114b84610ede565b16825260209283019290910190600101611131565b506001600160a01b03949094166020939093019290925250909392505050565b602081526000610ebb6020830184611051565b6020808252601290820152715661756c74466163746f72793a207a65726f60701b604082015260600190565b60208082526022908201527f41636365737369626c653a2043616c6c6572206973206e6f7420616e2061646d60408201526134b760f11b606082015260800190565b60008219821115611214576112146112d1565b500190565b6000816000190483118215151615611233576112336112d1565b500290565b60008282101561124a5761124a6112d1565b500390565b60005b8381101561126a578181015183820152602001611252565b83811115611279576000848401525b50505050565b60008161128e5761128e6112d1565b506000190190565b600181811c908216806112aa57607f821691505b602082108114156112cb57634e487b7160e01b600052602260045260246000fd5b50919050565b634e487b7160e01b600052601160045260246000fdfedf8b4c520ffe197c5343c6f5aec59570151ef9a492f2c624fd45ddde6135ec42a26469706673582212207fd5ff154f0837daa2e4f9981f1fcc15006b26b317eb28260a0766413b4441eb64736f6c63430008040033df8b4c520ffe197c5343c6f5aec59570151ef9a492f2c624fd45ddde6135ec42",
  "linkReferences": {},
  "deployedLinkReferences": {}
}