{
  "_format": "hh-sol-artifact-1",
  "contractName": "VaultProxy",
  "sourceName": "contracts/proxy/VaultProxy.sol",
  "abi": [
    {
      "inputs": [],
      "stateMutability": "nonpayable",
      "type": "constructor"
    },
    {
      "anonymous": false,
      "inputs": [
        {
          "indexed": true,
          "internalType": "bytes32",
          "name": "role",
          "type": "bytes32"
        },
        {
          "indexed": true,
          "internalType": "bytes32",
          "name": "previousAdminRole",
          "type": "bytes32"
        },
        {
          "indexed": true,
          "internalType": "bytes32",
          "name": "newAdminRole",
          "type": "bytes32"
        }
      ],
      "name": "RoleAdminChanged",
      "type": "event"
    },
    {
      "anonymous": false,
      "inputs": [
        {
          "indexed": true,
          "internalType": "bytes32",
          "name": "role",
          "type": "bytes32"
        },
        {
          "indexed": true,
          "internalType": "address",
          "name": "account",
          "type": "address"
        },
        {
          "indexed": true,
          "internalType": "address",
          "name": "sender",
          "type": "address"
        }
      ],
      "name": "RoleGranted",
      "type": "event"
    },
    {
      "anonymous": false,
      "inputs": [
        {
          "indexed": true,
          "internalType": "bytes32",
          "name": "role",
          "type": "bytes32"
        },
        {
          "indexed": true,
          "internalType": "address",
          "name": "account",
          "type": "address"
        },
        {
          "indexed": true,
          "internalType": "address",
          "name": "sender",
          "type": "address"
        }
      ],
      "name": "RoleRevoked",
      "type": "event"
    },
    {
      "anonymous": false,
      "inputs": [
        {
          "indexed": true,
          "internalType": "address",
          "name": "impl",
          "type": "address"
        },
        {
          "indexed": false,
          "internalType": "bool",
          "name": "alive",
          "type": "bool"
        }
      ],
      "name": "SetAliveImplementation",
      "type": "event"
    },
    {
      "anonymous": false,
      "inputs": [
        {
          "indexed": true,
          "internalType": "bytes4",
          "name": "selector",
          "type": "bytes4"
        },
        {
          "indexed": true,
          "internalType": "address",
          "name": "impl",
          "type": "address"
        }
      ],
      "name": "SetSelectorImplementation",
      "type": "event"
    },
    {
      "anonymous": false,
      "inputs": [
        {
          "indexed": true,
          "internalType": "address",
          "name": "implementation",
          "type": "address"
        }
      ],
      "name": "Upgraded",
      "type": "event"
    },
    {
      "stateMutability": "payable",
      "type": "fallback"
    },
    {
      "inputs": [],
      "name": "ADMIN_ROLE",
      "outputs": [
        {
          "internalType": "bytes32",
          "name": "",
          "type": "bytes32"
        }
      ],
      "stateMutability": "view",
      "type": "function"
    },
    {
      "inputs": [],
      "name": "DEFAULT_ADMIN_ROLE",
      "outputs": [
        {
          "internalType": "bytes32",
          "name": "",
          "type": "bytes32"
        }
      ],
      "stateMutability": "view",
      "type": "function"
    },
    {
      "inputs": [],
      "name": "POLICY_ROLE",
      "outputs": [
        {
          "internalType": "bytes32",
          "name": "",
          "type": "bytes32"
        }
      ],
      "stateMutability": "view",
      "type": "function"
    },
    {
      "inputs": [
        {
          "internalType": "address",
          "name": "account",
          "type": "address"
        }
      ],
      "name": "addAdmin",
      "outputs": [],
      "stateMutability": "nonpayable",
      "type": "function"
    },
    {
      "inputs": [
        {
          "internalType": "address",
          "name": "_account",
          "type": "address"
        }
      ],
      "name": "addPolicy",
      "outputs": [],
      "stateMutability": "nonpayable",
      "type": "function"
    },
    {
      "inputs": [
        {
          "internalType": "address",
          "name": "_owner",
          "type": "address"
        }
      ],
      "name": "addProxyAdmin",
      "outputs": [],
      "stateMutability": "nonpayable",
      "type": "function"
    },
    {
      "inputs": [
        {
          "internalType": "address",
          "name": "",
          "type": "address"
        }
      ],
      "name": "aliveImplementation",
      "outputs": [
        {
          "internalType": "bool",
          "name": "",
          "type": "bool"
        }
      ],
      "stateMutability": "view",
      "type": "function"
    },
    {
      "inputs": [
        {
          "internalType": "address",
          "name": "_account",
          "type": "address"
        }
      ],
      "name": "deletePolicy",
      "outputs": [],
      "stateMutability": "nonpayable",
      "type": "function"
    },
    {
      "inputs": [
        {
          "internalType": "bytes32",
          "name": "role",
          "type": "bytes32"
        }
      ],
      "name": "getRoleAdmin",
      "outputs": [
        {
          "internalType": "bytes32",
          "name": "",
          "type": "bytes32"
        }
      ],
      "stateMutability": "view",
      "type": "function"
    },
    {
      "inputs": [
        {
          "internalType": "bytes4",
          "name": "_selector",
          "type": "bytes4"
        }
      ],
      "name": "getSelectorImplementation2",
      "outputs": [
        {
          "internalType": "address",
          "name": "impl",
          "type": "address"
        }
      ],
      "stateMutability": "view",
      "type": "function"
    },
    {
      "inputs": [
        {
          "internalType": "bytes32",
          "name": "role",
          "type": "bytes32"
        },
        {
          "internalType": "address",
          "name": "account",
          "type": "address"
        }
      ],
      "name": "grantRole",
      "outputs": [],
      "stateMutability": "nonpayable",
      "type": "function"
    },
    {
      "inputs": [
        {
          "internalType": "bytes32",
          "name": "role",
          "type": "bytes32"
        },
        {
          "internalType": "address",
          "name": "account",
          "type": "address"
        }
      ],
      "name": "hasRole",
      "outputs": [
        {
          "internalType": "bool",
          "name": "",
          "type": "bool"
        }
      ],
      "stateMutability": "view",
      "type": "function"
    },
    {
      "inputs": [],
      "name": "implementation",
      "outputs": [
        {
          "internalType": "address",
          "name": "",
          "type": "address"
        }
      ],
      "stateMutability": "view",
      "type": "function"
    },
    {
      "inputs": [
        {
          "internalType": "uint256",
          "name": "_index",
          "type": "uint256"
        }
      ],
      "name": "implementation2",
      "outputs": [
        {
          "internalType": "address",
          "name": "",
          "type": "address"
        }
      ],
      "stateMutability": "view",
      "type": "function"
    },
    {
      "inputs": [
        {
          "internalType": "address",
          "name": "account",
          "type": "address"
        }
      ],
      "name": "isAdmin",
      "outputs": [
        {
          "internalType": "bool",
          "name": "",
          "type": "bool"
        }
      ],
      "stateMutability": "view",
      "type": "function"
    },
    {
      "inputs": [
        {
          "internalType": "address",
          "name": "account",
          "type": "address"
        }
      ],
      "name": "isPolicy",
      "outputs": [
        {
          "internalType": "bool",
          "name": "",
          "type": "bool"
        }
      ],
      "stateMutability": "view",
      "type": "function"
    },
    {
      "inputs": [
        {
          "internalType": "address",
          "name": "account",
          "type": "address"
        }
      ],
      "name": "isProxyAdmin",
      "outputs": [
        {
          "internalType": "bool",
          "name": "",
          "type": "bool"
        }
      ],
      "stateMutability": "view",
      "type": "function"
    },
    {
      "inputs": [],
      "name": "pauseProxy",
      "outputs": [
        {
          "internalType": "bool",
          "name": "",
          "type": "bool"
        }
      ],
      "stateMutability": "view",
      "type": "function"
    },
    {
      "inputs": [
        {
          "internalType": "uint256",
          "name": "",
          "type": "uint256"
        }
      ],
      "name": "proxyImplementation",
      "outputs": [
        {
          "internalType": "address",
          "name": "",
          "type": "address"
        }
      ],
      "stateMutability": "view",
      "type": "function"
    },
    {
      "inputs": [],
      "name": "removeAdmin",
      "outputs": [],
      "stateMutability": "nonpayable",
      "type": "function"
    },
    {
      "inputs": [],
      "name": "removePolicy",
      "outputs": [],
      "stateMutability": "nonpayable",
      "type": "function"
    },
    {
      "inputs": [],
      "name": "removeProxyAdmin",
      "outputs": [],
      "stateMutability": "nonpayable",
      "type": "function"
    },
    {
      "inputs": [
        {
          "internalType": "bytes32",
          "name": "role",
          "type": "bytes32"
        },
        {
          "internalType": "address",
          "name": "account",
          "type": "address"
        }
      ],
      "name": "renounceRole",
      "outputs": [],
      "stateMutability": "nonpayable",
      "type": "function"
    },
    {
      "inputs": [
        {
          "internalType": "bytes32",
          "name": "role",
          "type": "bytes32"
        },
        {
          "internalType": "address",
          "name": "account",
          "type": "address"
        }
      ],
      "name": "revokeRole",
      "outputs": [],
      "stateMutability": "nonpayable",
      "type": "function"
    },
    {
      "inputs": [
        {
          "internalType": "bytes4",
          "name": "",
          "type": "bytes4"
        }
      ],
      "name": "selectorImplementation",
      "outputs": [
        {
          "internalType": "address",
          "name": "",
          "type": "address"
        }
      ],
      "stateMutability": "view",
      "type": "function"
    },
    {
      "inputs": [
        {
          "internalType": "address",
          "name": "newImplementation",
          "type": "address"
        },
        {
          "internalType": "bool",
          "name": "_alive",
          "type": "bool"
        }
      ],
      "name": "setAliveImplementation2",
      "outputs": [],
      "stateMutability": "nonpayable",
      "type": "function"
    },
    {
      "inputs": [
        {
          "internalType": "address",
          "name": "newImplementation",
          "type": "address"
        },
        {
          "internalType": "uint256",
          "name": "_index",
          "type": "uint256"
        },
        {
          "internalType": "bool",
          "name": "_alive",
          "type": "bool"
        }
      ],
      "name": "setImplementation2",
      "outputs": [],
      "stateMutability": "nonpayable",
      "type": "function"
    },
    {
      "inputs": [
        {
          "internalType": "bool",
          "name": "_pause",
          "type": "bool"
        }
      ],
      "name": "setProxyPause",
      "outputs": [],
      "stateMutability": "nonpayable",
      "type": "function"
    },
    {
      "inputs": [
        {
          "internalType": "bytes4[]",
          "name": "_selectors",
          "type": "bytes4[]"
        },
        {
          "internalType": "address",
          "name": "_imp",
          "type": "address"
        }
      ],
      "name": "setSelectorImplementations2",
      "outputs": [],
      "stateMutability": "nonpayable",
      "type": "function"
    },
    {
      "inputs": [
        {
          "internalType": "bytes4",
          "name": "interfaceId",
          "type": "bytes4"
        }
      ],
      "name": "supportsInterface",
      "outputs": [
        {
          "internalType": "bool",
          "name": "",
          "type": "bool"
        }
      ],
      "stateMutability": "view",
      "type": "function"
    },
    {
      "inputs": [
        {
          "internalType": "address",
          "name": "newAdmin",
          "type": "address"
        }
      ],
      "name": "transferAdmin",
      "outputs": [],
      "stateMutability": "nonpayable",
      "type": "function"
    },
    {
      "inputs": [
        {
          "internalType": "address",
          "name": "newAdmin",
          "type": "address"
        }
      ],
      "name": "transferProxyAdmin",
      "outputs": [],
      "stateMutability": "nonpayable",
      "type": "function"
    },
    {
      "inputs": [
        {
          "internalType": "address",
          "name": "impl",
          "type": "address"
        }
      ],
      "name": "upgradeTo",
      "outputs": [],
      "stateMutability": "nonpayable",
      "type": "function"
    },
    {
      "stateMutability": "payable",
      "type": "receive"
    }
  ],
  "bytecode": "0x60806040523480156200001157600080fd5b506200002d60008051602062001c83833981519152806200005b565b6200004860008051602062001c8383398151915233620000a6565b62000055600033620000a6565b62000156565b600082815260208190526040808220600101805490849055905190918391839186917fbd79b86ffe0ab8e8776151514217cd7cacd52c909f66475c3af44e129f0b00ff9190a4505050565b620000b28282620000b6565b5050565b6000828152602081815260408083206001600160a01b038516845290915290205460ff16620000b2576000828152602081815260408083206001600160a01b03851684529091529020805460ff19166001179055620001123390565b6001600160a01b0316816001600160a01b0316837f2f8788117e7eff1d82e926ec794901d17c78024a50270940304540a733656f0d60405160405180910390a45050565b611b1d80620001666000396000f3fe6080604052600436106101f25760003560e01c806375829def1161010d57806396f1557c116100a0578063b911135f1161006f578063b911135f146106cd578063be72f2d314610703578063d547741f14610718578063f47f2f1d14610738578063fad1c85c14610758576102e1565b806396f1557c146106635780639a202d4714610683578063a217fddf14610698578063b84ef081146106ad576102e1565b80638356ca4f116100dc5780638356ca4f146105e35780638b8f4a65146106035780638d4fdb401461062357806391d1485414610643576102e1565b806375829def1461056157806375b238fc146105815780637cb00d25146105a35780637cd5f663146105c3576102e1565b806350d2a276116101855780635fabdf7c116101545780635fabdf7c146104f257806363a8fd891461051257806365cb3a831461052c5780637048027514610541576102e1565b806350d2a27614610420578063550d01a31461046e5780635c60da1b1461049e5780635cc797d8146104d2576102e1565b80632f2ff15d116101c15780632f2ff15d146103a057806336568abe146103c05780633659cfe6146103e05780634a5df50f14610400576102e1565b806301ffc9a7146102eb5780632298524614610320578063248a9ca31461035057806324d7806c14610380576102e1565b366102e15760408051600481526024810182526020810180516001600160e01b031663842a3bdd60e01b17905290516000918291309183916102349190611880565b60006040518083038185875af1925050503d8060008114610271576040519150601f19603f3d011682016040523d82523d6000602084013e610276565b606091505b509150915060008180602001905181019061029191906117f9565b9050806102dc5760405162461bcd60e51b815260206004820152601460248201527331b0b73737ba103932b1b2b4bb329022ba3432b960611b60448201526064015b60405180910390fd5b505050005b6102e9610778565b005b3480156102f757600080fd5b5061030b610306366004611858565b610821565b60405190151581526020015b60405180910390f35b34801561032c57600080fd5b50610342600080516020611ac883398151915281565b604051908152602001610317565b34801561035c57600080fd5b5061034261036b366004611815565b60009081526020819052604090206001015490565b34801561038c57600080fd5b5061030b61039b3660046116cf565b610858565b3480156103ac57600080fd5b506102e96103bb36600461182d565b610872565b3480156103cc57600080fd5b506102e96103db36600461182d565b610897565b3480156103ec57600080fd5b506102e96103fb3660046116cf565b610915565b34801561040c57600080fd5b506102e961041b36600461175e565b610a24565b34801561042c57600080fd5b5061045661043b366004611858565b6004602052600090815260409020546001600160a01b031681565b6040516001600160a01b039091168152602001610317565b34801561047a57600080fd5b5061030b6104893660046116cf565b60036020526000908152604090205460ff1681565b3480156104aa57600080fd5b50600080526002602052600080516020611a88833981519152546001600160a01b0316610456565b3480156104de57600080fd5b506102e96104ed3660046116e9565b610cb1565b3480156104fe57600080fd5b506102e961050d3660046116cf565b610ce0565b34801561051e57600080fd5b5060015461030b9060ff1681565b34801561053857600080fd5b506102e9610d20565b34801561054d57600080fd5b506102e961055c3660046116cf565b610da1565b34801561056d57600080fd5b506102e961057c3660046116cf565b610dde565b34801561058d57600080fd5b50610342600080516020611aa883398151915281565b3480156105af57600080fd5b506102e96105be3660046117dd565b610ee5565b3480156105cf57600080fd5b506102e96105de36600461171f565b610f1d565b3480156105ef57600080fd5b506102e96105fe3660046116cf565b610f4d565b34801561060f57600080fd5b5061045661061e366004611815565b61102b565b34801561062f57600080fd5b5061045661063e366004611858565b611048565b34801561064f57600080fd5b5061030b61065e36600461182d565b611120565b34801561066f57600080fd5b506102e961067e3660046116cf565b611149565b34801561068f57600080fd5b506102e9611179565b3480156106a457600080fd5b50610342600081565b3480156106b957600080fd5b506102e96106c83660046116cf565b6111c5565b3480156106d957600080fd5b506104566106e8366004611815565b6002602052600090815260409020546001600160a01b031681565b34801561070f57600080fd5b506102e9611202565b34801561072457600080fd5b506102e961073336600461182d565b611232565b34801561074457600080fd5b5061030b6107533660046116cf565b611257565b34801561076457600080fd5b5061030b6107733660046116cf565b611263565b600061078f6000356001600160e01b031916611048565b90506001600160a01b038116158015906107ac575060015460ff16155b6107f85760405162461bcd60e51b815260206004820152601d60248201527f50726f78793a20696d706c204f522070726f78792069732066616c736500000060448201526064016102d3565b3660008037600080366000845af43d6000803e808015610817573d6000f35b3d6000fd5b505050565b60006001600160e01b03198216637965db0b60e01b148061085257506301ffc9a760e01b6001600160e01b03198316145b92915050565b6000610852600080516020611aa883398151915283611120565b60008281526020819052604090206001015461088d8161127d565b61081c8383611287565b6001600160a01b03811633146109075760405162461bcd60e51b815260206004820152602f60248201527f416363657373436f6e74726f6c3a2063616e206f6e6c792072656e6f756e636560448201526e103937b632b9903337b91039b2b63360891b60648201526084016102d3565b610911828261130b565b5050565b61091e33611257565b61093a5760405162461bcd60e51b81526004016102d390611986565b6001600160a01b0381166109805760405162461bcd60e51b815260206004820152600d60248201526c696e707574206973207a65726f60981b60448201526064016102d3565b600080526002602052600080516020611a88833981519152546001600160a01b03828116911614156109e05760405162461bcd60e51b815260206004820152600960248201526839b0b6b29030b2323960b91b60448201526064016102d3565b6109ed8160006001611370565b6040516001600160a01b038216907fbc7cd75a20ee27fd9adebab32041f755214dbc6bffa90cc0225b39da2e5c2d3b90600090a250565b610a2d33611257565b610a495760405162461bcd60e51b81526004016102d390611986565b81610a965760405162461bcd60e51b815260206004820181905260248201527f50726f78793a205f73656c6563746f727327732073697a65206973207a65726f60448201526064016102d3565b6001600160a01b03811660009081526003602052604090205460ff16610afe5760405162461bcd60e51b815260206004820152601860248201527f50726f78793a205f696d70206973206e6f7420616c697665000000000000000060448201526064016102d3565b60005b82811015610cab57816001600160a01b031660046000868685818110610b3757634e487b7160e01b600052603260045260246000fd5b9050602002016020810190610b4c9190611858565b6001600160e01b03191681526020810191909152604001600020546001600160a01b03161415610bbe5760405162461bcd60e51b815260206004820152601d60248201527f4c69717569646974795661756c7450726f78793a2073616d6520696d7000000060448201526064016102d3565b8160046000868685818110610be357634e487b7160e01b600052603260045260246000fd5b9050602002016020810190610bf89190611858565b6001600160e01b0319168152602081019190915260400160002080546001600160a01b0319166001600160a01b039283161790558216848483818110610c4e57634e487b7160e01b600052603260045260246000fd5b9050602002016020810190610c639190611858565b6001600160e01b0319167f14ebc1c32aa68f4d766e89f3e546cee249f7df25183fc10ab1568d91c2ce9b7b60405160405180910390a380610ca381611a48565b915050610b01565b50505050565b610cba33611257565b610cd65760405162461bcd60e51b81526004016102d390611986565b61091182826113fb565b610ce933611257565b610d055760405162461bcd60e51b81526004016102d390611986565b610d1d600080516020611ac883398151915282611232565b50565b610d2933611263565b610d875760405162461bcd60e51b815260206004820152602960248201527f41636365737369626c653a2043616c6c6572206973206e6f7420616e20706f6c60448201526834b1bc9030b236b4b760b91b60648201526084016102d3565b610d9f600080516020611ac883398151915233610897565b565b610daa33611257565b610dc65760405162461bcd60e51b81526004016102d390611986565b610d1d600080516020611aa883398151915282610872565b610de733610858565b80610df65750610df633611257565b610e125760405162461bcd60e51b81526004016102d390611944565b6001600160a01b038116610e635760405162461bcd60e51b815260206004820152601860248201527741636365737369626c653a207a65726f206164647265737360401b60448201526064016102d3565b336001600160a01b0382161415610eb55760405162461bcd60e51b815260206004820152601660248201527520b1b1b2b9b9b4b136329d1039b0b6b29030b236b4b760511b60448201526064016102d3565b610ecd600080516020611aa883398151915282610872565b610d1d600080516020611aa883398151915233610897565b610eee33611257565b610f0a5760405162461bcd60e51b81526004016102d390611986565b6001805460ff1916911515919091179055565b610f2633611257565b610f425760405162461bcd60e51b81526004016102d390611986565b61081c838383611370565b610f5633611257565b610f725760405162461bcd60e51b81526004016102d390611986565b6001600160a01b038116610fc35760405162461bcd60e51b815260206004820152601860248201527741636365737369626c653a207a65726f206164647265737360401b60448201526064016102d3565b336001600160a01b03821614156110155760405162461bcd60e51b815260206004820152601660248201527520b1b1b2b9b9b4b136329d1039b0b6b29030b236b4b760511b60448201526064016102d3565b611020600082610872565b610d1d600033610897565b6000818152600260205260408120546001600160a01b0316610852565b6001600160e01b031981166000908152600460205260408120546001600160a01b0316611096575050600080526002602052600080516020611a88833981519152546001600160a01b031690565b6001600160e01b031982166000908152600460209081526040808320546001600160a01b03168352600390915290205460ff16156110f457506001600160e01b0319166000908152600460205260409020546001600160a01b031690565b5050600080526002602052600080516020611a88833981519152546001600160a01b031690565b919050565b6000918252602082815260408084206001600160a01b0393909316845291905290205460ff1690565b61115233611257565b61116e5760405162461bcd60e51b81526004016102d390611986565b610d1d60008261145a565b61118233610858565b80611191575061119133611257565b6111ad5760405162461bcd60e51b81526004016102d390611944565b610d9f600080516020611aa883398151915233610897565b6111ce33611257565b6111ea5760405162461bcd60e51b81526004016102d390611986565b610d1d600080516020611ac883398151915282610872565b61120b33611257565b6112275760405162461bcd60e51b81526004016102d390611986565b610d9f600033610897565b60008281526020819052604090206001015461124d8161127d565b61081c838361130b565b60006108528183611120565b6000610852600080516020611ac883398151915283611120565b610d1d8133611464565b6112918282611120565b610911576000828152602081815260408083206001600160a01b03851684529091529020805460ff191660011790556112c73390565b6001600160a01b0316816001600160a01b0316837f2f8788117e7eff1d82e926ec794901d17c78024a50270940304540a733656f0d60405160405180910390a45050565b6113158282611120565b15610911576000828152602081815260408083206001600160a01b0385168085529252808320805460ff1916905551339285917ff6391f5c32d9c69d2a47ea670b442974b53935d1edc7fd64eb21e047a839171b9190a45050565b6001600160a01b0383163b6113c75760405162461bcd60e51b815260206004820152601b60248201527f50726f78793a206e6f7420636f6e74726163742061646472657373000000000060448201526064016102d3565b80156113f557600082815260026020526040902080546001600160a01b0319166001600160a01b0385161790555b61081c83825b6001600160a01b038216600081815260036020908152604091829020805460ff191685151590811790915591519182527f72558d9bfba4210f9ef095c782589484151f6d90f7a81bb3cb9b33efc695d324910160405180910390a25050565b6109118282611287565b61146e8282611120565b6109115761147b816114bd565b6114868360206114cf565b60405160200161149792919061189c565b60408051601f198184030181529082905262461bcd60e51b82526102d391600401611911565b60606108526001600160a01b03831660145b606060006114de8360026119e6565b6114e99060026119ce565b67ffffffffffffffff81111561150f57634e487b7160e01b600052604160045260246000fd5b6040519080825280601f01601f191660200182016040528015611539576020820181803683370190505b509050600360fc1b8160008151811061156257634e487b7160e01b600052603260045260246000fd5b60200101906001600160f81b031916908160001a905350600f60fb1b8160018151811061159f57634e487b7160e01b600052603260045260246000fd5b60200101906001600160f81b031916908160001a90535060006115c38460026119e6565b6115ce9060016119ce565b90505b6001811115611662576f181899199a1a9b1b9c1cb0b131b232b360811b85600f166010811061161057634e487b7160e01b600052603260045260246000fd5b1a60f81b82828151811061163457634e487b7160e01b600052603260045260246000fd5b60200101906001600160f81b031916908160001a90535060049490941c9361165b81611a31565b90506115d1565b5083156116b15760405162461bcd60e51b815260206004820181905260248201527f537472696e67733a20686578206c656e67746820696e73756666696369656e7460448201526064016102d3565b9392505050565b80356001600160a01b038116811461111b57600080fd5b6000602082840312156116e0578081fd5b6116b1826116b8565b600080604083850312156116fb578081fd5b611704836116b8565b9150602083013561171481611a79565b809150509250929050565b600080600060608486031215611733578081fd5b61173c846116b8565b925060208401359150604084013561175381611a79565b809150509250925092565b600080600060408486031215611772578283fd5b833567ffffffffffffffff80821115611789578485fd5b818601915086601f83011261179c578485fd5b8135818111156117aa578586fd5b8760208260051b85010111156117be578586fd5b6020928301955093506117d491860190506116b8565b90509250925092565b6000602082840312156117ee578081fd5b81356116b181611a79565b60006020828403121561180a578081fd5b81516116b181611a79565b600060208284031215611826578081fd5b5035919050565b6000806040838503121561183f578182fd5b8235915061184f602084016116b8565b90509250929050565b600060208284031215611869578081fd5b81356001600160e01b0319811681146116b1578182fd5b60008251611892818460208701611a05565b9190910192915050565b7f416363657373436f6e74726f6c3a206163636f756e74200000000000000000008152600083516118d4816017850160208801611a05565b7001034b99036b4b9b9b4b733903937b6329607d1b6017918401918201528351611905816028840160208801611a05565b01602801949350505050565b6020815260008251806020840152611930816040850160208701611a05565b601f01601f19169190910160400192915050565b60208082526022908201527f41636365737369626c653a2043616c6c6572206973206e6f7420616e2061646d60408201526134b760f11b606082015260800190565b60208082526028908201527f41636365737369626c653a2043616c6c6572206973206e6f7420616e2070726f6040820152673c3c9030b236b4b760c11b606082015260800190565b600082198211156119e1576119e1611a63565b500190565b6000816000190483118215151615611a0057611a00611a63565b500290565b60005b83811015611a20578181015183820152602001611a08565b83811115610cab5750506000910152565b600081611a4057611a40611a63565b506000190190565b6000600019821415611a5c57611a5c611a63565b5060010190565b634e487b7160e01b600052601160045260246000fd5b8015158114610d1d57600080fdfeac33ff75c19e70fe83507db0d683fd3465c996598dc972688b7ace676c89077bdf8b4c520ffe197c5343c6f5aec59570151ef9a492f2c624fd45ddde6135ec42fb5864e8ff833c3cb2d2d08505e82ff02a43554c74a35d4f5a64e85261278311a2646970667358221220cc99b70fae3caedf4187db66fa7531d6c480fcf226e5dbf515d6964edd04958d64736f6c63430008040033df8b4c520ffe197c5343c6f5aec59570151ef9a492f2c624fd45ddde6135ec42",
  "linkReferences": {},
  "deployedLinkReferences": {}
}