{
  "_format": "hh-sol-artifact-1",
  "contractName": "DTOSManagerProxy",
  "sourceName": "contracts/token/DTOSManagerProxy.sol",
  "abi": [
    {
      "anonymous": false,
      "inputs": [
        {
          "indexed": true,
          "internalType": "bytes32",
          "name": "role",
          "type": "bytes32"
        },
        {
          "indexed": true,
          "internalType": "bytes32",
          "name": "previousAdminRole",
          "type": "bytes32"
        },
        {
          "indexed": true,
          "internalType": "bytes32",
          "name": "newAdminRole",
          "type": "bytes32"
        }
      ],
      "name": "RoleAdminChanged",
      "type": "event"
    },
    {
      "anonymous": false,
      "inputs": [
        {
          "indexed": true,
          "internalType": "bytes32",
          "name": "role",
          "type": "bytes32"
        },
        {
          "indexed": true,
          "internalType": "address",
          "name": "account",
          "type": "address"
        },
        {
          "indexed": true,
          "internalType": "address",
          "name": "sender",
          "type": "address"
        }
      ],
      "name": "RoleGranted",
      "type": "event"
    },
    {
      "anonymous": false,
      "inputs": [
        {
          "indexed": true,
          "internalType": "bytes32",
          "name": "role",
          "type": "bytes32"
        },
        {
          "indexed": true,
          "internalType": "address",
          "name": "account",
          "type": "address"
        },
        {
          "indexed": true,
          "internalType": "address",
          "name": "sender",
          "type": "address"
        }
      ],
      "name": "RoleRevoked",
      "type": "event"
    },
    {
      "anonymous": false,
      "inputs": [
        {
          "indexed": true,
          "internalType": "address",
          "name": "impl",
          "type": "address"
        },
        {
          "indexed": false,
          "internalType": "bool",
          "name": "alive",
          "type": "bool"
        }
      ],
      "name": "SetAliveImplementation",
      "type": "event"
    },
    {
      "anonymous": false,
      "inputs": [
        {
          "indexed": true,
          "internalType": "bytes4",
          "name": "selector",
          "type": "bytes4"
        },
        {
          "indexed": true,
          "internalType": "address",
          "name": "impl",
          "type": "address"
        }
      ],
      "name": "SetSelectorImplementation",
      "type": "event"
    },
    {
      "anonymous": false,
      "inputs": [
        {
          "indexed": true,
          "internalType": "address",
          "name": "implementation",
          "type": "address"
        }
      ],
      "name": "Upgraded",
      "type": "event"
    },
    {
      "stateMutability": "payable",
      "type": "fallback"
    },
    {
      "inputs": [],
      "name": "ADMIN_ROLE",
      "outputs": [
        {
          "internalType": "bytes32",
          "name": "",
          "type": "bytes32"
        }
      ],
      "stateMutability": "view",
      "type": "function"
    },
    {
      "inputs": [],
      "name": "DEFAULT_ADMIN_ROLE",
      "outputs": [
        {
          "internalType": "bytes32",
          "name": "",
          "type": "bytes32"
        }
      ],
      "stateMutability": "view",
      "type": "function"
    },
    {
      "inputs": [],
      "name": "POLICY_ROLE",
      "outputs": [
        {
          "internalType": "bytes32",
          "name": "",
          "type": "bytes32"
        }
      ],
      "stateMutability": "view",
      "type": "function"
    },
    {
      "inputs": [
        {
          "internalType": "address",
          "name": "account",
          "type": "address"
        }
      ],
      "name": "addAdmin",
      "outputs": [],
      "stateMutability": "nonpayable",
      "type": "function"
    },
    {
      "inputs": [
        {
          "internalType": "address",
          "name": "",
          "type": "address"
        }
      ],
      "name": "aliveImplementation",
      "outputs": [
        {
          "internalType": "bool",
          "name": "",
          "type": "bool"
        }
      ],
      "stateMutability": "view",
      "type": "function"
    },
    {
      "inputs": [],
      "name": "decimals",
      "outputs": [
        {
          "internalType": "uint8",
          "name": "",
          "type": "uint8"
        }
      ],
      "stateMutability": "view",
      "type": "function"
    },
    {
      "inputs": [
        {
          "internalType": "bytes32",
          "name": "role",
          "type": "bytes32"
        }
      ],
      "name": "getRoleAdmin",
      "outputs": [
        {
          "internalType": "bytes32",
          "name": "",
          "type": "bytes32"
        }
      ],
      "stateMutability": "view",
      "type": "function"
    },
    {
      "inputs": [
        {
          "internalType": "bytes4",
          "name": "_selector",
          "type": "bytes4"
        }
      ],
      "name": "getSelectorImplementation2",
      "outputs": [
        {
          "internalType": "address",
          "name": "impl",
          "type": "address"
        }
      ],
      "stateMutability": "view",
      "type": "function"
    },
    {
      "inputs": [
        {
          "internalType": "bytes32",
          "name": "role",
          "type": "bytes32"
        },
        {
          "internalType": "address",
          "name": "account",
          "type": "address"
        }
      ],
      "name": "grantRole",
      "outputs": [],
      "stateMutability": "nonpayable",
      "type": "function"
    },
    {
      "inputs": [
        {
          "internalType": "bytes32",
          "name": "role",
          "type": "bytes32"
        },
        {
          "internalType": "address",
          "name": "account",
          "type": "address"
        }
      ],
      "name": "hasRole",
      "outputs": [
        {
          "internalType": "bool",
          "name": "",
          "type": "bool"
        }
      ],
      "stateMutability": "view",
      "type": "function"
    },
    {
      "inputs": [],
      "name": "implementation",
      "outputs": [
        {
          "internalType": "address",
          "name": "",
          "type": "address"
        }
      ],
      "stateMutability": "view",
      "type": "function"
    },
    {
      "inputs": [
        {
          "internalType": "uint256",
          "name": "_index",
          "type": "uint256"
        }
      ],
      "name": "implementation2",
      "outputs": [
        {
          "internalType": "address",
          "name": "",
          "type": "address"
        }
      ],
      "stateMutability": "view",
      "type": "function"
    },
    {
      "inputs": [
        {
          "internalType": "string",
          "name": "_name",
          "type": "string"
        },
        {
          "internalType": "string",
          "name": "_symbol",
          "type": "string"
        },
        {
          "internalType": "address",
          "name": "_tos",
          "type": "address"
        }
      ],
      "name": "initialize",
      "outputs": [],
      "stateMutability": "nonpayable",
      "type": "function"
    },
    {
      "inputs": [
        {
          "internalType": "address",
          "name": "account",
          "type": "address"
        }
      ],
      "name": "isAdmin",
      "outputs": [
        {
          "internalType": "bool",
          "name": "",
          "type": "bool"
        }
      ],
      "stateMutability": "view",
      "type": "function"
    },
    {
      "inputs": [],
      "name": "name",
      "outputs": [
        {
          "internalType": "string",
          "name": "",
          "type": "string"
        }
      ],
      "stateMutability": "view",
      "type": "function"
    },
    {
      "inputs": [],
      "name": "pauseProxy",
      "outputs": [
        {
          "internalType": "bool",
          "name": "",
          "type": "bool"
        }
      ],
      "stateMutability": "view",
      "type": "function"
    },
    {
      "inputs": [],
      "name": "policyAddress",
      "outputs": [
        {
          "internalType": "address",
          "name": "",
          "type": "address"
        }
      ],
      "stateMutability": "view",
      "type": "function"
    },
    {
      "inputs": [
        {
          "internalType": "address",
          "name": "",
          "type": "address"
        }
      ],
      "name": "poolIndex",
      "outputs": [
        {
          "internalType": "uint256",
          "name": "",
          "type": "uint256"
        }
      ],
      "stateMutability": "view",
      "type": "function"
    },
    {
      "inputs": [
        {
          "internalType": "uint256",
          "name": "",
          "type": "uint256"
        },
        {
          "internalType": "uint256",
          "name": "",
          "type": "uint256"
        }
      ],
      "name": "poolSnapshots",
      "outputs": [
        {
          "internalType": "address",
          "name": "poolAddress",
          "type": "address"
        },
        {
          "internalType": "uint256",
          "name": "snapshotId",
          "type": "uint256"
        }
      ],
      "stateMutability": "view",
      "type": "function"
    },
    {
      "inputs": [
        {
          "internalType": "uint256",
          "name": "",
          "type": "uint256"
        }
      ],
      "name": "pools",
      "outputs": [
        {
          "internalType": "address",
          "name": "",
          "type": "address"
        }
      ],
      "stateMutability": "view",
      "type": "function"
    },
    {
      "inputs": [
        {
          "internalType": "uint256",
          "name": "",
          "type": "uint256"
        }
      ],
      "name": "proxyImplementation",
      "outputs": [
        {
          "internalType": "address",
          "name": "",
          "type": "address"
        }
      ],
      "stateMutability": "view",
      "type": "function"
    },
    {
      "inputs": [
        {
          "internalType": "address",
          "name": "account",
          "type": "address"
        }
      ],
      "name": "removeAdmin",
      "outputs": [],
      "stateMutability": "nonpayable",
      "type": "function"
    },
    {
      "inputs": [
        {
          "internalType": "bytes32",
          "name": "role",
          "type": "bytes32"
        },
        {
          "internalType": "address",
          "name": "account",
          "type": "address"
        }
      ],
      "name": "renounceRole",
      "outputs": [],
      "stateMutability": "nonpayable",
      "type": "function"
    },
    {
      "inputs": [
        {
          "internalType": "bytes32",
          "name": "role",
          "type": "bytes32"
        },
        {
          "internalType": "address",
          "name": "account",
          "type": "address"
        }
      ],
      "name": "revokeRole",
      "outputs": [],
      "stateMutability": "nonpayable",
      "type": "function"
    },
    {
      "inputs": [],
      "name": "rewardLPTokenManager",
      "outputs": [
        {
          "internalType": "address",
          "name": "",
          "type": "address"
        }
      ],
      "stateMutability": "view",
      "type": "function"
    },
    {
      "inputs": [],
      "name": "rewardPoolFactory",
      "outputs": [
        {
          "internalType": "address",
          "name": "",
          "type": "address"
        }
      ],
      "stateMutability": "view",
      "type": "function"
    },
    {
      "inputs": [
        {
          "internalType": "bytes4",
          "name": "",
          "type": "bytes4"
        }
      ],
      "name": "selectorImplementation",
      "outputs": [
        {
          "internalType": "address",
          "name": "",
          "type": "address"
        }
      ],
      "stateMutability": "view",
      "type": "function"
    },
    {
      "inputs": [
        {
          "internalType": "address",
          "name": "newImplementation",
          "type": "address"
        },
        {
          "internalType": "bool",
          "name": "_alive",
          "type": "bool"
        }
      ],
      "name": "setAliveImplementation2",
      "outputs": [],
      "stateMutability": "nonpayable",
      "type": "function"
    },
    {
      "inputs": [
        {
          "internalType": "address",
          "name": "newImplementation",
          "type": "address"
        },
        {
          "internalType": "uint256",
          "name": "_index",
          "type": "uint256"
        },
        {
          "internalType": "bool",
          "name": "_alive",
          "type": "bool"
        }
      ],
      "name": "setImplementation2",
      "outputs": [],
      "stateMutability": "nonpayable",
      "type": "function"
    },
    {
      "inputs": [
        {
          "internalType": "address",
          "name": "_addr",
          "type": "address"
        }
      ],
      "name": "setPolicyAddress",
      "outputs": [],
      "stateMutability": "nonpayable",
      "type": "function"
    },
    {
      "inputs": [
        {
          "internalType": "bool",
          "name": "_pause",
          "type": "bool"
        }
      ],
      "name": "setProxyPause",
      "outputs": [],
      "stateMutability": "nonpayable",
      "type": "function"
    },
    {
      "inputs": [
        {
          "internalType": "address",
          "name": "_addr",
          "type": "address"
        }
      ],
      "name": "setRewardLPTokenManager",
      "outputs": [],
      "stateMutability": "nonpayable",
      "type": "function"
    },
    {
      "inputs": [
        {
          "internalType": "address",
          "name": "_addr",
          "type": "address"
        }
      ],
      "name": "setRewardPoolFactory",
      "outputs": [],
      "stateMutability": "nonpayable",
      "type": "function"
    },
    {
      "inputs": [
        {
          "internalType": "bytes4[]",
          "name": "_selectors",
          "type": "bytes4[]"
        },
        {
          "internalType": "address",
          "name": "_imp",
          "type": "address"
        }
      ],
      "name": "setSelectorImplementations2",
      "outputs": [],
      "stateMutability": "nonpayable",
      "type": "function"
    },
    {
      "inputs": [
        {
          "internalType": "address",
          "name": "_addr",
          "type": "address"
        }
      ],
      "name": "setTosAddress",
      "outputs": [],
      "stateMutability": "nonpayable",
      "type": "function"
    },
    {
      "inputs": [
        {
          "internalType": "bytes4",
          "name": "interfaceId",
          "type": "bytes4"
        }
      ],
      "name": "supportsInterface",
      "outputs": [
        {
          "internalType": "bool",
          "name": "",
          "type": "bool"
        }
      ],
      "stateMutability": "view",
      "type": "function"
    },
    {
      "inputs": [],
      "name": "symbol",
      "outputs": [
        {
          "internalType": "string",
          "name": "",
          "type": "string"
        }
      ],
      "stateMutability": "view",
      "type": "function"
    },
    {
      "inputs": [],
      "name": "tosAddress",
      "outputs": [
        {
          "internalType": "address",
          "name": "",
          "type": "address"
        }
      ],
      "stateMutability": "view",
      "type": "function"
    },
    {
      "inputs": [
        {
          "internalType": "address",
          "name": "newAdmin",
          "type": "address"
        }
      ],
      "name": "transferAdmin",
      "outputs": [],
      "stateMutability": "nonpayable",
      "type": "function"
    },
    {
      "inputs": [
        {
          "internalType": "address",
          "name": "impl",
          "type": "address"
        }
      ],
      "name": "upgradeTo",
      "outputs": [],
      "stateMutability": "nonpayable",
      "type": "function"
    },
    {
      "stateMutability": "payable",
      "type": "receive"
    }
  ],
  "bytecode": "0x60806040526002805460ff191660121790553480156200001e57600080fd5b506200003a6000805160206200213a8339815191528062000068565b620000556000805160206200213a83398151915233620000b3565b62000062600033620000b3565b62000167565b6000828152600a6020526040808220600101805490849055905190918391839186917fbd79b86ffe0ab8e8776151514217cd7cacd52c909f66475c3af44e129f0b00ff9190a4505050565b620000bf8282620000c3565b5050565b6000828152600a602090815260408083206001600160a01b038516845290915290205460ff16620000bf576000828152600a602090815260408083206001600160a01b03851684529091529020805460ff19166001179055620001233390565b6001600160a01b0316816001600160a01b0316837f2f8788117e7eff1d82e926ec794901d17c78024a50270940304540a733656f0d60405160405180910390a45050565b611fc380620001776000396000f3fe60806040526004361061023f5760003560e01c80635cc797d81161012e5780638b8f4a65116100ab578063ac4afa381161006f578063ac4afa381461079e578063b42754a5146107be578063b911135f146107eb578063d547741f14610821578063e084363a1461084157610288565b80638b8f4a65146107145780638d4fdb401461073457806391d148541461075457806395d89b4114610774578063a217fddf1461078957610288565b806375829def116100f257806375829def1461067257806375b238fc146106925780637cb00d25146106b45780637cd5f663146106d45780638214bb08146106f457610288565b80635cc797d8146105d8578063637e65bd146105f857806363a8fd89146106185780636b47ee8d14610632578063704802751461065257610288565b80632f2ff15d116101bc5780634a5df50f116101805780634a5df50f146104fe57806350d2a2761461051e578063520194a614610554578063550d01a3146105745780635c60da1b146105a457610288565b80632f2ff15d14610452578063313ce5671461047257806336568abe1461049e5780633659cfe6146104be5780633c8663a5146104de57610288565b806322985246116102035780632298524614610361578063248a9ca3146103a357806324d7806c146103d357806325afe771146103f357806329ae754a1461043257610288565b806301ffc9a71461029257806306fdde03146102c7578063077f224a146102e95780631042f08d146103095780631785f53c1461034157610288565b366102885760405162461bcd60e51b815260206004820152601460248201527331b0b73737ba103932b1b2b4bb329022ba3432b960611b60448201526064015b60405180910390fd5b610290610866565b005b34801561029e57600080fd5b506102b26102ad366004611c65565b61090f565b60405190151581526020015b60405180910390f35b3480156102d357600080fd5b506102dc610946565b6040516102be9190611d8b565b3480156102f557600080fd5b50610290610304366004611c8d565b6109d4565b34801561031557600080fd5b50600354610329906001600160a01b031681565b6040516001600160a01b0390911681526020016102be565b34801561034d57600080fd5b5061029061035c366004611b14565b610aed565b34801561036d57600080fd5b506103957ffb5864e8ff833c3cb2d2d08505e82ff02a43554c74a35d4f5a64e8526127831181565b6040519081526020016102be565b3480156103af57600080fd5b506103956103be366004611c2b565b6000908152600a602052604090206001015490565b3480156103df57600080fd5b506102b26103ee366004611b14565b610b2d565b3480156103ff57600080fd5b5061041361040e366004611cf5565b610b47565b604080516001600160a01b0390931683526020830191909152016102be565b34801561043e57600080fd5b5061029061044d366004611b14565b610b8d565b34801561045e57600080fd5b5061029061046d366004611c43565b610c2a565b34801561047e57600080fd5b5060025461048c9060ff1681565b60405160ff90911681526020016102be565b3480156104aa57600080fd5b506102906104b9366004611c43565b610c4f565b3480156104ca57600080fd5b506102906104d9366004611b14565b610ccd565b3480156104ea57600080fd5b506102906104f9366004611b14565b610ddc565b34801561050a57600080fd5b50610290610519366004611b9b565b610e84565b34801561052a57600080fd5b50610329610539366004611c65565b600e602052600090815260409020546001600160a01b031681565b34801561056057600080fd5b50600554610329906001600160a01b031681565b34801561058057600080fd5b506102b261058f366004611b14565b600d6020526000908152604090205460ff1681565b3480156105b057600080fd5b5060008052600c602052600080516020611f4e833981519152546001600160a01b0316610329565b3480156105e457600080fd5b506102906105f3366004611b2e565b611111565b34801561060457600080fd5b50600454610329906001600160a01b031681565b34801561062457600080fd5b50600b546102b29060ff1681565b34801561063e57600080fd5b5061029061064d366004611b14565b611140565b34801561065e57600080fd5b5061029061066d366004611b14565b6111dd565b34801561067e57600080fd5b5061029061068d366004611b14565b61121a565b34801561069e57600080fd5b50610395600080516020611f6e83398151915281565b3480156106c057600080fd5b506102906106cf366004611c11565b611317565b3480156106e057600080fd5b506102906106ef366004611b60565b61134f565b34801561070057600080fd5b5061029061070f366004611b14565b61137f565b34801561072057600080fd5b5061032961072f366004611c2b565b61141c565b34801561074057600080fd5b5061032961074f366004611c65565b611439565b34801561076057600080fd5b506102b261076f366004611c43565b611511565b34801561078057600080fd5b506102dc61153c565b34801561079557600080fd5b50610395600081565b3480156107aa57600080fd5b506103296107b9366004611c2b565b611549565b3480156107ca57600080fd5b506103956107d9366004611b14565b60066020526000908152604090205481565b3480156107f757600080fd5b50610329610806366004611c2b565b600c602052600090815260409020546001600160a01b031681565b34801561082d57600080fd5b5061029061083c366004611c43565b611573565b34801561084d57600080fd5b506002546103299061010090046001600160a01b031681565b600061087d6000356001600160e01b031916611439565b90506001600160a01b0381161580159061089a5750600b5460ff16155b6108e65760405162461bcd60e51b815260206004820152601d60248201527f50726f78793a20696d706c204f522070726f78792069732066616c7365000000604482015260640161027f565b3660008037600080366000845af43d6000803e808015610905573d6000f35b3d6000fd5b505050565b60006001600160e01b03198216637965db0b60e01b148061094057506301ffc9a760e01b6001600160e01b03198316145b92915050565b6000805461095390611ecb565b80601f016020809104026020016040519081016040528092919081815260200182805461097f90611ecb565b80156109cc5780601f106109a1576101008083540402835291602001916109cc565b820191906000526020600020905b8154815290600101906020018083116109af57829003601f168201915b505050505081565b6109dd33610b2d565b6109f95760405162461bcd60e51b815260040161027f90611de9565b60008351118015610a0b575060008251115b610a575760405162461bcd60e51b815260206004820152601860248201527f6e616d65206f722073796d626f6c20697320656d7074792e0000000000000000604482015260640161027f565b60008054610a6490611ecb565b159050610aa15760405162461bcd60e51b815260206004820152600b60248201526a185b1c9958591e481cd95d60aa1b604482015260640161027f565b8251610ab49060009060208601906119cd565b508151610ac89060019060208501906119cd565b50600380546001600160a01b0319166001600160a01b03929092169190911790555050565b610af633610b2d565b610b125760405162461bcd60e51b815260040161027f90611de9565b610b2a600080516020611f6e83398151915282610c4f565b50565b6000610940600080516020611f6e83398151915283611511565b60096020528160005260406000208181548110610b6357600080fd5b6000918252602090912060029091020180546001909101546001600160a01b039091169250905082565b806001600160a01b038116610bb45760405162461bcd60e51b815260040161027f90611dbe565b610bbd33610b2d565b610bd95760405162461bcd60e51b815260040161027f90611de9565b6004546001600160a01b0383811691161415610c075760405162461bcd60e51b815260040161027f90611e2b565b50600480546001600160a01b0319166001600160a01b0392909216919091179055565b6000828152600a6020526040902060010154610c4581611598565b61090a83836115a2565b6001600160a01b0381163314610cbf5760405162461bcd60e51b815260206004820152602f60248201527f416363657373436f6e74726f6c3a2063616e206f6e6c792072656e6f756e636560448201526e103937b632b9903337b91039b2b63360891b606482015260840161027f565b610cc98282611628565b5050565b610cd633610b2d565b610cf25760405162461bcd60e51b815260040161027f90611de9565b6001600160a01b038116610d385760405162461bcd60e51b815260206004820152600d60248201526c696e707574206973207a65726f60981b604482015260640161027f565b60008052600c602052600080516020611f4e833981519152546001600160a01b0382811691161415610d985760405162461bcd60e51b815260206004820152600960248201526839b0b6b29030b2323960b91b604482015260640161027f565b610da5816000600161168f565b6040516001600160a01b038216907fbc7cd75a20ee27fd9adebab32041f755214dbc6bffa90cc0225b39da2e5c2d3b90600090a250565b806001600160a01b038116610e035760405162461bcd60e51b815260040161027f90611dbe565b610e0c33610b2d565b610e285760405162461bcd60e51b815260040161027f90611de9565b6002546001600160a01b03838116610100909204161415610e5b5760405162461bcd60e51b815260040161027f90611e2b565b50600280546001600160a01b0390921661010002610100600160a81b0319909216919091179055565b610e8d33610b2d565b610ea95760405162461bcd60e51b815260040161027f90611de9565b81610ef65760405162461bcd60e51b815260206004820181905260248201527f50726f78793a205f73656c6563746f727327732073697a65206973207a65726f604482015260640161027f565b6001600160a01b0381166000908152600d602052604090205460ff16610f5e5760405162461bcd60e51b815260206004820152601860248201527f50726f78793a205f696d70206973206e6f7420616c6976650000000000000000604482015260640161027f565b60005b8281101561110b57816001600160a01b0316600e6000868685818110610f9757634e487b7160e01b600052603260045260246000fd5b9050602002016020810190610fac9190611c65565b6001600160e01b03191681526020810191909152604001600020546001600160a01b0316141561101e5760405162461bcd60e51b815260206004820152601d60248201527f4c69717569646974795661756c7450726f78793a2073616d6520696d70000000604482015260640161027f565b81600e600086868581811061104357634e487b7160e01b600052603260045260246000fd5b90506020020160208101906110589190611c65565b6001600160e01b0319168152602081019190915260400160002080546001600160a01b0319166001600160a01b0392831617905582168484838181106110ae57634e487b7160e01b600052603260045260246000fd5b90506020020160208101906110c39190611c65565b6001600160e01b0319167f14ebc1c32aa68f4d766e89f3e546cee249f7df25183fc10ab1568d91c2ce9b7b60405160405180910390a38061110381611f06565b915050610f61565b50505050565b61111a33610b2d565b6111365760405162461bcd60e51b815260040161027f90611de9565b610cc9828261171a565b806001600160a01b0381166111675760405162461bcd60e51b815260040161027f90611dbe565b61117033610b2d565b61118c5760405162461bcd60e51b815260040161027f90611de9565b6003546001600160a01b03838116911614156111ba5760405162461bcd60e51b815260040161027f90611e2b565b50600380546001600160a01b0319166001600160a01b0392909216919091179055565b6111e633610b2d565b6112025760405162461bcd60e51b815260040161027f90611de9565b610b2a600080516020611f6e83398151915282610c2a565b61122333610b2d565b61123f5760405162461bcd60e51b815260040161027f90611de9565b6001600160a01b0381166112955760405162461bcd60e51b815260206004820152601860248201527f41636365737369626c653a207a65726f20616464726573730000000000000000604482015260640161027f565b336001600160a01b03821614156112e75760405162461bcd60e51b815260206004820152601660248201527520b1b1b2b9b9b4b136329d1039b0b6b29030b236b4b760511b604482015260640161027f565b6112ff600080516020611f6e83398151915282610c2a565b610b2a600080516020611f6e83398151915233610c4f565b61132033610b2d565b61133c5760405162461bcd60e51b815260040161027f90611de9565b600b805460ff1916911515919091179055565b61135833610b2d565b6113745760405162461bcd60e51b815260040161027f90611de9565b61090a83838361168f565b806001600160a01b0381166113a65760405162461bcd60e51b815260040161027f90611dbe565b6113af33610b2d565b6113cb5760405162461bcd60e51b815260040161027f90611de9565b6005546001600160a01b03838116911614156113f95760405162461bcd60e51b815260040161027f90611e2b565b50600580546001600160a01b0319166001600160a01b0392909216919091179055565b6000818152600c60205260408120546001600160a01b0316610940565b6001600160e01b031981166000908152600e60205260408120546001600160a01b031661148757505060008052600c602052600080516020611f4e833981519152546001600160a01b031690565b6001600160e01b031982166000908152600e60209081526040808320546001600160a01b03168352600d90915290205460ff16156114e557506001600160e01b0319166000908152600e60205260409020546001600160a01b031690565b505060008052600c602052600080516020611f4e833981519152546001600160a01b031690565b919050565b6000918252600a602090815260408084206001600160a01b0393909316845291905290205460ff1690565b6001805461095390611ecb565b6007818154811061155957600080fd5b6000918252602090912001546001600160a01b0316905081565b6000828152600a602052604090206001015461158e81611598565b61090a8383611628565b610b2a8133611779565b6115ac8282611511565b610cc9576000828152600a602090815260408083206001600160a01b03851684529091529020805460ff191660011790556115e43390565b6001600160a01b0316816001600160a01b0316837f2f8788117e7eff1d82e926ec794901d17c78024a50270940304540a733656f0d60405160405180910390a45050565b6116328282611511565b15610cc9576000828152600a602090815260408083206001600160a01b0385168085529252808320805460ff1916905551339285917ff6391f5c32d9c69d2a47ea670b442974b53935d1edc7fd64eb21e047a839171b9190a45050565b6001600160a01b0383163b6116e65760405162461bcd60e51b815260206004820152601b60248201527f50726f78793a206e6f7420636f6e747261637420616464726573730000000000604482015260640161027f565b8015611714576000828152600c6020526040902080546001600160a01b0319166001600160a01b0385161790555b61090a83825b6001600160a01b0382166000818152600d6020908152604091829020805460ff191685151590811790915591519182527f72558d9bfba4210f9ef095c782589484151f6d90f7a81bb3cb9b33efc695d324910160405180910390a25050565b6117838282611511565b610cc957611790816117d2565b61179b8360206117e4565b6040516020016117ac929190611d16565b60408051601f198184030181529082905262461bcd60e51b825261027f91600401611d8b565b60606109406001600160a01b03831660145b606060006117f3836002611e69565b6117fe906002611e51565b67ffffffffffffffff81111561182457634e487b7160e01b600052604160045260246000fd5b6040519080825280601f01601f19166020018201604052801561184e576020820181803683370190505b509050600360fc1b8160008151811061187757634e487b7160e01b600052603260045260246000fd5b60200101906001600160f81b031916908160001a905350600f60fb1b816001815181106118b457634e487b7160e01b600052603260045260246000fd5b60200101906001600160f81b031916908160001a90535060006118d8846002611e69565b6118e3906001611e51565b90505b6001811115611977576f181899199a1a9b1b9c1cb0b131b232b360811b85600f166010811061192557634e487b7160e01b600052603260045260246000fd5b1a60f81b82828151811061194957634e487b7160e01b600052603260045260246000fd5b60200101906001600160f81b031916908160001a90535060049490941c9361197081611eb4565b90506118e6565b5083156119c65760405162461bcd60e51b815260206004820181905260248201527f537472696e67733a20686578206c656e67746820696e73756666696369656e74604482015260640161027f565b9392505050565b8280546119d990611ecb565b90600052602060002090601f0160209004810192826119fb5760008555611a41565b82601f10611a1457805160ff1916838001178555611a41565b82800160010185558215611a41579182015b82811115611a41578251825591602001919060010190611a26565b50611a4d929150611a51565b5090565b5b80821115611a4d5760008155600101611a52565b80356001600160a01b038116811461150c57600080fd5b8035801515811461150c57600080fd5b600082601f830112611a9d578081fd5b813567ffffffffffffffff80821115611ab857611ab8611f37565b604051601f8301601f19908116603f01168101908282118183101715611ae057611ae0611f37565b81604052838152866020858801011115611af8578485fd5b8360208701602083013792830160200193909352509392505050565b600060208284031215611b25578081fd5b6119c682611a66565b60008060408385031215611b40578081fd5b611b4983611a66565b9150611b5760208401611a7d565b90509250929050565b600080600060608486031215611b74578081fd5b611b7d84611a66565b925060208401359150611b9260408501611a7d565b90509250925092565b600080600060408486031215611baf578283fd5b833567ffffffffffffffff80821115611bc6578485fd5b818601915086601f830112611bd9578485fd5b813581811115611be7578586fd5b8760208260051b8501011115611bfb578586fd5b602092830195509350611b929186019050611a66565b600060208284031215611c22578081fd5b6119c682611a7d565b600060208284031215611c3c578081fd5b5035919050565b60008060408385031215611c55578182fd5b82359150611b5760208401611a66565b600060208284031215611c76578081fd5b81356001600160e01b0319811681146119c6578182fd5b600080600060608486031215611ca1578283fd5b833567ffffffffffffffff80821115611cb8578485fd5b611cc487838801611a8d565b94506020860135915080821115611cd9578384fd5b50611ce686828701611a8d565b925050611b9260408501611a66565b60008060408385031215611d07578182fd5b50508035926020909101359150565b7f416363657373436f6e74726f6c3a206163636f756e7420000000000000000000815260008351611d4e816017850160208801611e88565b7001034b99036b4b9b9b4b733903937b6329607d1b6017918401918201528351611d7f816028840160208801611e88565b01602801949350505050565b6020815260008251806020840152611daa816040850160208701611e88565b601f01601f19169190910160400192915050565b60208082526011908201527044544f533a7a65726f206164647265737360781b604082015260600190565b60208082526022908201527f41636365737369626c653a2043616c6c6572206973206e6f7420616e2061646d60408201526134b760f11b606082015260800190565b6020808252600c908201526b73616d65206164647265737360a01b604082015260600190565b60008219821115611e6457611e64611f21565b500190565b6000816000190483118215151615611e8357611e83611f21565b500290565b60005b83811015611ea3578181015183820152602001611e8b565b8381111561110b5750506000910152565b600081611ec357611ec3611f21565b506000190190565b600181811c90821680611edf57607f821691505b60208210811415611f0057634e487b7160e01b600052602260045260246000fd5b50919050565b6000600019821415611f1a57611f1a611f21565b5060010190565b634e487b7160e01b600052601160045260246000fd5b634e487b7160e01b600052604160045260246000fdfe13649b2456f1b42fef0f0040b3aaeabcd21a76a0f3f5defd4f583839455116e8df8b4c520ffe197c5343c6f5aec59570151ef9a492f2c624fd45ddde6135ec42a264697066735822122084c808a54d042c3c65a51089f0d58b6f5e80bd3e0be806651c76439ae889b03b64736f6c63430008040033df8b4c520ffe197c5343c6f5aec59570151ef9a492f2c624fd45ddde6135ec42",
  "linkReferences": {},
  "deployedLinkReferences": {}
}