{
  "_format": "hh-sol-artifact-1",
  "contractName": "TestLogic",
  "sourceName": "contracts/test/TestLogic.sol",
  "abi": [
    {
      "inputs": [
        {
          "internalType": "uint256",
          "name": "a",
          "type": "uint256"
        },
        {
          "internalType": "uint256",
          "name": "b",
          "type": "uint256"
        }
      ],
      "name": "sayAdd",
      "outputs": [
        {
          "internalType": "uint256",
          "name": "answer",
          "type": "uint256"
        }
      ],
      "stateMutability": "pure",
      "type": "function"
    },
    {
      "inputs": [
        {
          "internalType": "uint256",
          "name": "a",
          "type": "uint256"
        },
        {
          "internalType": "uint256",
          "name": "b",
          "type": "uint256"
        }
      ],
      "name": "sayMul",
      "outputs": [
        {
          "internalType": "uint256",
          "name": "answer",
          "type": "uint256"
        }
      ],
      "stateMutability": "pure",
      "type": "function"
    }
  ],
  "bytecode": "0x608060405234801561001057600080fd5b5061011f806100206000396000f3fe6080604052348015600f57600080fd5b506004361060325760003560e01c80630cb9646414603757806381953d8a146058575b600080fd5b604660423660046082565b6067565b60405190815260200160405180910390f35b604660633660046082565b6078565b60006071828460a2565b9392505050565b60006071828460b7565b600080604083850312156093578182fd5b50508035926020909101359150565b6000821982111560b25760b260d3565b500190565b600081600019048311821515161560ce5760ce60d3565b500290565b634e487b7160e01b600052601160045260246000fdfea2646970667358221220ad8e290078c829ed0817690b7582bd4ab79050fa2cf81de1ac7ddcd4526dfa3f64736f6c63430008040033",
  "linkReferences": {},
  "deployedLinkReferences": {}
}