{
  "_format": "hh-sol-artifact-1",
  "contractName": "dTOSPolicy",
  "sourceName": "contracts/token/DTOSPolicy.sol",
  "abi": [
    {
      "inputs": [
        {
          "internalType": "address",
          "name": "_wethAddress",
          "type": "address"
        },
        {
          "internalType": "uint256",
          "name": "_min",
          "type": "uint256"
        },
        {
          "internalType": "uint256",
          "name": "_max",
          "type": "uint256"
        },
        {
          "internalType": "uint256",
          "name": "_initBaseRate",
          "type": "uint256"
        },
        {
          "internalType": "uint256",
          "name": "_initRebaseInterest",
          "type": "uint256"
        },
        {
          "internalType": "uint256",
          "name": "_initRebaseInterval",
          "type": "uint256"
        }
      ],
      "stateMutability": "nonpayable",
      "type": "constructor"
    },
    {
      "anonymous": false,
      "inputs": [
        {
          "indexed": true,
          "internalType": "bytes32",
          "name": "role",
          "type": "bytes32"
        },
        {
          "indexed": true,
          "internalType": "bytes32",
          "name": "previousAdminRole",
          "type": "bytes32"
        },
        {
          "indexed": true,
          "internalType": "bytes32",
          "name": "newAdminRole",
          "type": "bytes32"
        }
      ],
      "name": "RoleAdminChanged",
      "type": "event"
    },
    {
      "anonymous": false,
      "inputs": [
        {
          "indexed": true,
          "internalType": "bytes32",
          "name": "role",
          "type": "bytes32"
        },
        {
          "indexed": true,
          "internalType": "address",
          "name": "account",
          "type": "address"
        },
        {
          "indexed": true,
          "internalType": "address",
          "name": "sender",
          "type": "address"
        }
      ],
      "name": "RoleGranted",
      "type": "event"
    },
    {
      "anonymous": false,
      "inputs": [
        {
          "indexed": true,
          "internalType": "bytes32",
          "name": "role",
          "type": "bytes32"
        },
        {
          "indexed": true,
          "internalType": "address",
          "name": "account",
          "type": "address"
        },
        {
          "indexed": true,
          "internalType": "address",
          "name": "sender",
          "type": "address"
        }
      ],
      "name": "RoleRevoked",
      "type": "event"
    },
    {
      "inputs": [],
      "name": "ADMIN_ROLE",
      "outputs": [
        {
          "internalType": "bytes32",
          "name": "",
          "type": "bytes32"
        }
      ],
      "stateMutability": "view",
      "type": "function"
    },
    {
      "inputs": [],
      "name": "DEFAULT_ADMIN_ROLE",
      "outputs": [
        {
          "internalType": "bytes32",
          "name": "",
          "type": "bytes32"
        }
      ],
      "stateMutability": "view",
      "type": "function"
    },
    {
      "inputs": [],
      "name": "POLICY_ROLE",
      "outputs": [
        {
          "internalType": "bytes32",
          "name": "",
          "type": "bytes32"
        }
      ],
      "stateMutability": "view",
      "type": "function"
    },
    {
      "inputs": [
        {
          "internalType": "address",
          "name": "account",
          "type": "address"
        }
      ],
      "name": "addAdmin",
      "outputs": [],
      "stateMutability": "nonpayable",
      "type": "function"
    },
    {
      "inputs": [
        {
          "internalType": "address",
          "name": "pool",
          "type": "address"
        },
        {
          "internalType": "bool",
          "name": "_pauseFlag",
          "type": "bool"
        }
      ],
      "name": "execPause",
      "outputs": [],
      "stateMutability": "nonpayable",
      "type": "function"
    },
    {
      "inputs": [
        {
          "internalType": "address",
          "name": "pool",
          "type": "address"
        }
      ],
      "name": "getPauseFlag",
      "outputs": [
        {
          "internalType": "bool",
          "name": "",
          "type": "bool"
        }
      ],
      "stateMutability": "view",
      "type": "function"
    },
    {
      "inputs": [
        {
          "internalType": "bytes32",
          "name": "role",
          "type": "bytes32"
        }
      ],
      "name": "getRoleAdmin",
      "outputs": [
        {
          "internalType": "bytes32",
          "name": "",
          "type": "bytes32"
        }
      ],
      "stateMutability": "view",
      "type": "function"
    },
    {
      "inputs": [
        {
          "internalType": "bytes32",
          "name": "role",
          "type": "bytes32"
        },
        {
          "internalType": "address",
          "name": "account",
          "type": "address"
        }
      ],
      "name": "grantRole",
      "outputs": [],
      "stateMutability": "nonpayable",
      "type": "function"
    },
    {
      "inputs": [
        {
          "internalType": "bytes32",
          "name": "role",
          "type": "bytes32"
        },
        {
          "internalType": "address",
          "name": "account",
          "type": "address"
        }
      ],
      "name": "hasRole",
      "outputs": [
        {
          "internalType": "bool",
          "name": "",
          "type": "bool"
        }
      ],
      "stateMutability": "view",
      "type": "function"
    },
    {
      "inputs": [],
      "name": "initialDtosBaseRate",
      "outputs": [
        {
          "internalType": "uint256",
          "name": "",
          "type": "uint256"
        }
      ],
      "stateMutability": "view",
      "type": "function"
    },
    {
      "inputs": [],
      "name": "initialInterestRatePerRebase",
      "outputs": [
        {
          "internalType": "uint256",
          "name": "",
          "type": "uint256"
        }
      ],
      "stateMutability": "view",
      "type": "function"
    },
    {
      "inputs": [],
      "name": "initialRebaseIntervalSecond",
      "outputs": [
        {
          "internalType": "uint256",
          "name": "",
          "type": "uint256"
        }
      ],
      "stateMutability": "view",
      "type": "function"
    },
    {
      "inputs": [
        {
          "internalType": "address",
          "name": "account",
          "type": "address"
        }
      ],
      "name": "isAdmin",
      "outputs": [
        {
          "internalType": "bool",
          "name": "",
          "type": "bool"
        }
      ],
      "stateMutability": "view",
      "type": "function"
    },
    {
      "inputs": [],
      "name": "maxDtosBaseRate",
      "outputs": [
        {
          "internalType": "uint256",
          "name": "",
          "type": "uint256"
        }
      ],
      "stateMutability": "view",
      "type": "function"
    },
    {
      "inputs": [],
      "name": "minDtosBaseRate",
      "outputs": [
        {
          "internalType": "uint256",
          "name": "",
          "type": "uint256"
        }
      ],
      "stateMutability": "view",
      "type": "function"
    },
    {
      "inputs": [
        {
          "internalType": "address",
          "name": "account",
          "type": "address"
        }
      ],
      "name": "removeAdmin",
      "outputs": [],
      "stateMutability": "nonpayable",
      "type": "function"
    },
    {
      "inputs": [
        {
          "internalType": "bytes32",
          "name": "role",
          "type": "bytes32"
        },
        {
          "internalType": "address",
          "name": "account",
          "type": "address"
        }
      ],
      "name": "renounceRole",
      "outputs": [],
      "stateMutability": "nonpayable",
      "type": "function"
    },
    {
      "inputs": [
        {
          "internalType": "bytes32",
          "name": "role",
          "type": "bytes32"
        },
        {
          "internalType": "address",
          "name": "account",
          "type": "address"
        }
      ],
      "name": "revokeRole",
      "outputs": [],
      "stateMutability": "nonpayable",
      "type": "function"
    },
    {
      "inputs": [
        {
          "internalType": "uint256",
          "name": "baserate",
          "type": "uint256"
        }
      ],
      "name": "setInitialDtosBaseInfo",
      "outputs": [],
      "stateMutability": "nonpayable",
      "type": "function"
    },
    {
      "inputs": [
        {
          "internalType": "uint256",
          "name": "period",
          "type": "uint256"
        },
        {
          "internalType": "uint256",
          "name": "interest",
          "type": "uint256"
        }
      ],
      "name": "setInitialReabseInfo",
      "outputs": [],
      "stateMutability": "nonpayable",
      "type": "function"
    },
    {
      "inputs": [
        {
          "internalType": "uint256",
          "name": "minValue",
          "type": "uint256"
        },
        {
          "internalType": "uint256",
          "name": "maxValue",
          "type": "uint256"
        }
      ],
      "name": "setMinMaxBaseRate",
      "outputs": [],
      "stateMutability": "nonpayable",
      "type": "function"
    },
    {
      "inputs": [
        {
          "internalType": "address",
          "name": "addr",
          "type": "address"
        }
      ],
      "name": "setWethAddress",
      "outputs": [],
      "stateMutability": "nonpayable",
      "type": "function"
    },
    {
      "inputs": [
        {
          "internalType": "bytes4",
          "name": "interfaceId",
          "type": "bytes4"
        }
      ],
      "name": "supportsInterface",
      "outputs": [
        {
          "internalType": "bool",
          "name": "",
          "type": "bool"
        }
      ],
      "stateMutability": "view",
      "type": "function"
    },
    {
      "inputs": [
        {
          "internalType": "address",
          "name": "newAdmin",
          "type": "address"
        }
      ],
      "name": "transferAdmin",
      "outputs": [],
      "stateMutability": "nonpayable",
      "type": "function"
    },
    {
      "inputs": [],
      "name": "wethAddress",
      "outputs": [
        {
          "internalType": "address",
          "name": "",
          "type": "address"
        }
      ],
      "stateMutability": "view",
      "type": "function"
    }
  ],
  "bytecode": "0x60806040523480156200001157600080fd5b50604051620012c7380380620012c78339810160408190526200003491620001ae565b6200004f600080516020620012a783398151915280620000b3565b6200006a600080516020620012a783398151915233620000fe565b62000077600033620000fe565b600180546001600160a01b0319166001600160a01b0397909716969096179095556002939093556003919091556004556005556006556200020d565b600082815260208190526040808220600101805490849055905190918391839186917fbd79b86ffe0ab8e8776151514217cd7cacd52c909f66475c3af44e129f0b00ff9190a4505050565b6200010a82826200010e565b5050565b6000828152602081815260408083206001600160a01b038516845290915290205460ff166200010a576000828152602081815260408083206001600160a01b03851684529091529020805460ff191660011790556200016a3390565b6001600160a01b0316816001600160a01b0316837f2f8788117e7eff1d82e926ec794901d17c78024a50270940304540a733656f0d60405160405180910390a45050565b60008060008060008060c08789031215620001c7578182fd5b86516001600160a01b0381168114620001de578283fd5b6020880151604089015160608a015160808b015160a0909b0151939c929b509099909850965090945092505050565b61108a806200021d6000396000f3fe608060405234801561001057600080fd5b50600436106101735760003560e01c8063563bed8d116100de57806391d1485411610097578063d547741f11610071578063d547741f14610341578063e1d7f06e14610354578063e90500de1461035d578063eed734e71461037057600080fd5b806391d1485414610313578063a217fddf14610326578063a96e24231461032e57600080fd5b8063563bed8d146102bd5780635c153a39146102c657806370480275146102cf57806375829def146102e257806375b238fc146102f557806386d278e31461030a57600080fd5b806324d7806c1161013057806324d7806c146102335780632ae18c36146102465780632f2ff15d1461025957806334e168b81461026c57806336568abe1461027f5780634f0e0ef31461029257600080fd5b806301ffc9a714610178578063063400b0146101a05780631785f53c146101b55780631dbee960146101c857806322985246146101db578063248a9ca314610210575b600080fd5b61018b610186366004610e3b565b610379565b60405190151581526020015b60405180910390f35b6101b36101ae366004610e63565b6103b0565b005b6101b36101c3366004610d8c565b610418565b6101b36101d6366004610da6565b610458565b6102027ffb5864e8ff833c3cb2d2d08505e82ff02a43554c74a35d4f5a64e8526127831181565b604051908152602001610197565b61020261021e366004610df8565b60009081526020819052604090206001015490565b61018b610241366004610d8c565b610592565b61018b610254366004610d8c565b6105ac565b6101b3610267366004610e10565b61061f565b6101b361027a366004610df8565b610649565b6101b361028d366004610e10565b6106eb565b6001546102a5906001600160a01b031681565b6040516001600160a01b039091168152602001610197565b61020260065481565b61020260045481565b6101b36102dd366004610d8c565b610769565b6101b36102f0366004610d8c565b6107a6565b61020260008051602061103583398151915281565b61020260025481565b61018b610321366004610e10565b6108a3565b610202600081565b6101b361033c366004610d8c565b6108cc565b6101b361034f366004610e10565b6109a5565b61020260055481565b6101b361036b366004610e63565b6109ca565b61020260035481565b60006001600160e01b03198216637965db0b60e01b14806103aa57506301ffc9a760e01b6001600160e01b03198316145b92915050565b6103b933610592565b6103de5760405162461bcd60e51b81526004016103d590610f2c565b60405180910390fd5b816002541415806103f157508060035414155b61040d5760405162461bcd60e51b81526004016103d590610f6e565b600291909155600355565b61042133610592565b61043d5760405162461bcd60e51b81526004016103d590610f2c565b610455600080516020611035833981519152826106eb565b50565b61046133610592565b61047d5760405162461bcd60e51b81526004016103d590610f2c565b801515826001600160a01b031663658a75116040518163ffffffff1660e01b815260040160206040518083038186803b1580156104b957600080fd5b505afa1580156104cd573d6000803e3d6000fd5b505050506040513d601f19601f820116820180604052508101906104f19190610ddc565b151514156105335760405162461bcd60e51b815260206004820152600f60248201526e73616d6520706175736520666c616760881b60448201526064016103d5565b604051631f1452e960e11b815281151560048201526001600160a01b03831690633e28a5d290602401600060405180830381600087803b15801561057657600080fd5b505af115801561058a573d6000803e3d6000fd5b505050505050565b60006103aa600080516020611035833981519152836108a3565b6000816001600160a01b031663658a75116040518163ffffffff1660e01b815260040160206040518083038186803b1580156105e757600080fd5b505afa1580156105fb573d6000803e3d6000fd5b505050506040513d601f19601f820116820180604052508101906103aa9190610ddc565b60008281526020819052604090206001015461063a81610a29565b6106448383610a33565b505050565b61065233610592565b61066e5760405162461bcd60e51b81526004016103d590610f2c565b8060045414156106905760405162461bcd60e51b81526004016103d590610f6e565b60025481101580156106a457506003548111155b6106e65760405162461bcd60e51b81526020600482015260136024820152726e6f6e2d61636365707461626c65207261746560681b60448201526064016103d5565b600455565b6001600160a01b038116331461075b5760405162461bcd60e51b815260206004820152602f60248201527f416363657373436f6e74726f6c3a2063616e206f6e6c792072656e6f756e636560448201526e103937b632b9903337b91039b2b63360891b60648201526084016103d5565b6107658282610ab7565b5050565b61077233610592565b61078e5760405162461bcd60e51b81526004016103d590610f2c565b6104556000805160206110358339815191528261061f565b6107af33610592565b6107cb5760405162461bcd60e51b81526004016103d590610f2c565b6001600160a01b0381166108215760405162461bcd60e51b815260206004820152601860248201527f41636365737369626c653a207a65726f2061646472657373000000000000000060448201526064016103d5565b336001600160a01b03821614156108735760405162461bcd60e51b815260206004820152601660248201527520b1b1b2b9b9b4b136329d1039b0b6b29030b236b4b760511b60448201526064016103d5565b61088b6000805160206110358339815191528261061f565b610455600080516020611035833981519152336106eb565b6000918252602082815260408084206001600160a01b0393909316845291905290205460ff1690565b6108d533610592565b6108f15760405162461bcd60e51b81526004016103d590610f2c565b6001600160a01b0381166109365760405162461bcd60e51b815260206004820152600c60248201526b7a65726f206164647265737360a01b60448201526064016103d5565b6001546001600160a01b03828116911614156109835760405162461bcd60e51b815260206004820152600c60248201526b73616d65206164647265737360a01b60448201526064016103d5565b600180546001600160a01b0319166001600160a01b0392909216919091179055565b6000828152602081905260409020600101546109c081610a29565b6106448383610ab7565b6109d333610592565b6109ef5760405162461bcd60e51b81526004016103d590610f2c565b81600654141580610a0257508060055414155b610a1e5760405162461bcd60e51b81526004016103d590610f6e565b600691909155600555565b6104558133610b1c565b610a3d82826108a3565b610765576000828152602081815260408083206001600160a01b03851684529091529020805460ff19166001179055610a733390565b6001600160a01b0316816001600160a01b0316837f2f8788117e7eff1d82e926ec794901d17c78024a50270940304540a733656f0d60405160405180910390a45050565b610ac182826108a3565b15610765576000828152602081815260408083206001600160a01b0385168085529252808320805460ff1916905551339285917ff6391f5c32d9c69d2a47ea670b442974b53935d1edc7fd64eb21e047a839171b9190a45050565b610b2682826108a3565b61076557610b3381610b75565b610b3e836020610b87565b604051602001610b4f929190610e84565b60408051601f198184030181529082905262461bcd60e51b82526103d591600401610ef9565b60606103aa6001600160a01b03831660145b60606000610b96836002610faa565b610ba1906002610f92565b67ffffffffffffffff811115610bc757634e487b7160e01b600052604160045260246000fd5b6040519080825280601f01601f191660200182016040528015610bf1576020820181803683370190505b509050600360fc1b81600081518110610c1a57634e487b7160e01b600052603260045260246000fd5b60200101906001600160f81b031916908160001a905350600f60fb1b81600181518110610c5757634e487b7160e01b600052603260045260246000fd5b60200101906001600160f81b031916908160001a9053506000610c7b846002610faa565b610c86906001610f92565b90505b6001811115610d1a576f181899199a1a9b1b9c1cb0b131b232b360811b85600f1660108110610cc857634e487b7160e01b600052603260045260246000fd5b1a60f81b828281518110610cec57634e487b7160e01b600052603260045260246000fd5b60200101906001600160f81b031916908160001a90535060049490941c93610d1381610ff9565b9050610c89565b508315610d695760405162461bcd60e51b815260206004820181905260248201527f537472696e67733a20686578206c656e67746820696e73756666696369656e7460448201526064016103d5565b9392505050565b80356001600160a01b0381168114610d8757600080fd5b919050565b600060208284031215610d9d578081fd5b610d6982610d70565b60008060408385031215610db8578081fd5b610dc183610d70565b91506020830135610dd181611026565b809150509250929050565b600060208284031215610ded578081fd5b8151610d6981611026565b600060208284031215610e09578081fd5b5035919050565b60008060408385031215610e22578182fd5b82359150610e3260208401610d70565b90509250929050565b600060208284031215610e4c578081fd5b81356001600160e01b031981168114610d69578182fd5b60008060408385031215610e75578182fd5b50508035926020909101359150565b7f416363657373436f6e74726f6c3a206163636f756e7420000000000000000000815260008351610ebc816017850160208801610fc9565b7001034b99036b4b9b9b4b733903937b6329607d1b6017918401918201528351610eed816028840160208801610fc9565b01602801949350505050565b6020815260008251806020840152610f18816040850160208701610fc9565b601f01601f19169190910160400192915050565b60208082526022908201527f41636365737369626c653a2043616c6c6572206973206e6f7420616e2061646d60408201526134b760f11b606082015260800190565b6020808252600a908201526973616d652076616c756560b01b604082015260600190565b60008219821115610fa557610fa5611010565b500190565b6000816000190483118215151615610fc457610fc4611010565b500290565b60005b83811015610fe4578181015183820152602001610fcc565b83811115610ff3576000848401525b50505050565b60008161100857611008611010565b506000190190565b634e487b7160e01b600052601160045260246000fd5b801515811461045557600080fdfedf8b4c520ffe197c5343c6f5aec59570151ef9a492f2c624fd45ddde6135ec42a26469706673582212206306ee661ce85a2471bd3b10636e07e1ca39d82bd7dacfff63edbf3d3c50e29664736f6c63430008040033df8b4c520ffe197c5343c6f5aec59570151ef9a492f2c624fd45ddde6135ec42",
  "linkReferences": {},
  "deployedLinkReferences": {}
}