{
  "_format": "hh-sol-artifact-1",
  "contractName": "AccessibleCommon",
  "sourceName": "contracts/common/AccessibleCommon.sol",
  "abi": [
    {
      "anonymous": false,
      "inputs": [
        {
          "indexed": true,
          "internalType": "bytes32",
          "name": "role",
          "type": "bytes32"
        },
        {
          "indexed": true,
          "internalType": "bytes32",
          "name": "previousAdminRole",
          "type": "bytes32"
        },
        {
          "indexed": true,
          "internalType": "bytes32",
          "name": "newAdminRole",
          "type": "bytes32"
        }
      ],
      "name": "RoleAdminChanged",
      "type": "event"
    },
    {
      "anonymous": false,
      "inputs": [
        {
          "indexed": true,
          "internalType": "bytes32",
          "name": "role",
          "type": "bytes32"
        },
        {
          "indexed": true,
          "internalType": "address",
          "name": "account",
          "type": "address"
        },
        {
          "indexed": true,
          "internalType": "address",
          "name": "sender",
          "type": "address"
        }
      ],
      "name": "RoleGranted",
      "type": "event"
    },
    {
      "anonymous": false,
      "inputs": [
        {
          "indexed": true,
          "internalType": "bytes32",
          "name": "role",
          "type": "bytes32"
        },
        {
          "indexed": true,
          "internalType": "address",
          "name": "account",
          "type": "address"
        },
        {
          "indexed": true,
          "internalType": "address",
          "name": "sender",
          "type": "address"
        }
      ],
      "name": "RoleRevoked",
      "type": "event"
    },
    {
      "inputs": [],
      "name": "ADMIN_ROLE",
      "outputs": [
        {
          "internalType": "bytes32",
          "name": "",
          "type": "bytes32"
        }
      ],
      "stateMutability": "view",
      "type": "function"
    },
    {
      "inputs": [],
      "name": "DEFAULT_ADMIN_ROLE",
      "outputs": [
        {
          "internalType": "bytes32",
          "name": "",
          "type": "bytes32"
        }
      ],
      "stateMutability": "view",
      "type": "function"
    },
    {
      "inputs": [],
      "name": "POLICY_ROLE",
      "outputs": [
        {
          "internalType": "bytes32",
          "name": "",
          "type": "bytes32"
        }
      ],
      "stateMutability": "view",
      "type": "function"
    },
    {
      "inputs": [
        {
          "internalType": "address",
          "name": "account",
          "type": "address"
        }
      ],
      "name": "addAdmin",
      "outputs": [],
      "stateMutability": "nonpayable",
      "type": "function"
    },
    {
      "inputs": [
        {
          "internalType": "bytes32",
          "name": "role",
          "type": "bytes32"
        }
      ],
      "name": "getRoleAdmin",
      "outputs": [
        {
          "internalType": "bytes32",
          "name": "",
          "type": "bytes32"
        }
      ],
      "stateMutability": "view",
      "type": "function"
    },
    {
      "inputs": [
        {
          "internalType": "bytes32",
          "name": "role",
          "type": "bytes32"
        },
        {
          "internalType": "address",
          "name": "account",
          "type": "address"
        }
      ],
      "name": "grantRole",
      "outputs": [],
      "stateMutability": "nonpayable",
      "type": "function"
    },
    {
      "inputs": [
        {
          "internalType": "bytes32",
          "name": "role",
          "type": "bytes32"
        },
        {
          "internalType": "address",
          "name": "account",
          "type": "address"
        }
      ],
      "name": "hasRole",
      "outputs": [
        {
          "internalType": "bool",
          "name": "",
          "type": "bool"
        }
      ],
      "stateMutability": "view",
      "type": "function"
    },
    {
      "inputs": [
        {
          "internalType": "address",
          "name": "account",
          "type": "address"
        }
      ],
      "name": "isAdmin",
      "outputs": [
        {
          "internalType": "bool",
          "name": "",
          "type": "bool"
        }
      ],
      "stateMutability": "view",
      "type": "function"
    },
    {
      "inputs": [
        {
          "internalType": "address",
          "name": "account",
          "type": "address"
        }
      ],
      "name": "removeAdmin",
      "outputs": [],
      "stateMutability": "nonpayable",
      "type": "function"
    },
    {
      "inputs": [
        {
          "internalType": "bytes32",
          "name": "role",
          "type": "bytes32"
        },
        {
          "internalType": "address",
          "name": "account",
          "type": "address"
        }
      ],
      "name": "renounceRole",
      "outputs": [],
      "stateMutability": "nonpayable",
      "type": "function"
    },
    {
      "inputs": [
        {
          "internalType": "bytes32",
          "name": "role",
          "type": "bytes32"
        },
        {
          "internalType": "address",
          "name": "account",
          "type": "address"
        }
      ],
      "name": "revokeRole",
      "outputs": [],
      "stateMutability": "nonpayable",
      "type": "function"
    },
    {
      "inputs": [
        {
          "internalType": "bytes4",
          "name": "interfaceId",
          "type": "bytes4"
        }
      ],
      "name": "supportsInterface",
      "outputs": [
        {
          "internalType": "bool",
          "name": "",
          "type": "bool"
        }
      ],
      "stateMutability": "view",
      "type": "function"
    },
    {
      "inputs": [
        {
          "internalType": "address",
          "name": "newAdmin",
          "type": "address"
        }
      ],
      "name": "transferAdmin",
      "outputs": [],
      "stateMutability": "nonpayable",
      "type": "function"
    }
  ],
  "bytecode": "0x608060405234801561001057600080fd5b50610a91806100206000396000f3fe608060405234801561001057600080fd5b50600436106100cf5760003560e01c806336568abe1161008c57806375b238fc1161006657806375b238fc146101c857806391d14854146101dd578063a217fddf146101f0578063d547741f146101f857600080fd5b806336568abe1461018f57806370480275146101a257806375829def146101b557600080fd5b806301ffc9a7146100d45780631785f53c146100fc5780632298524614610111578063248a9ca31461014657806324d7806c146101695780632f2ff15d1461017c575b600080fd5b6100e76100e2366004610895565b61020b565b60405190151581526020015b60405180910390f35b61010f61010a366004610838565b610242565b005b6101387ffb5864e8ff833c3cb2d2d08505e82ff02a43554c74a35d4f5a64e8526127831181565b6040519081526020016100f3565b610138610154366004610852565b60009081526020819052604090206001015490565b6100e7610177366004610838565b61028b565b61010f61018a36600461086a565b6102a5565b61010f61019d36600461086a565b6102cf565b61010f6101b0366004610838565b61034d565b61010f6101c3366004610838565b61038a565b610138600080516020610a3c83398151915281565b6100e76101eb36600461086a565b610487565b610138600081565b61010f61020636600461086a565b6104b0565b60006001600160e01b03198216637965db0b60e01b148061023c57506301ffc9a760e01b6001600160e01b03198316145b92915050565b61024b3361028b565b6102705760405162461bcd60e51b815260040161026790610965565b60405180910390fd5b610288600080516020610a3c833981519152826102cf565b50565b600061023c600080516020610a3c83398151915283610487565b6000828152602081905260409020600101546102c0816104d5565b6102ca83836104df565b505050565b6001600160a01b038116331461033f5760405162461bcd60e51b815260206004820152602f60248201527f416363657373436f6e74726f6c3a2063616e206f6e6c792072656e6f756e636560448201526e103937b632b9903337b91039b2b63360891b6064820152608401610267565b6103498282610563565b5050565b6103563361028b565b6103725760405162461bcd60e51b815260040161026790610965565b610288600080516020610a3c833981519152826102a5565b6103933361028b565b6103af5760405162461bcd60e51b815260040161026790610965565b6001600160a01b0381166104055760405162461bcd60e51b815260206004820152601860248201527f41636365737369626c653a207a65726f206164647265737300000000000000006044820152606401610267565b336001600160a01b03821614156104575760405162461bcd60e51b815260206004820152601660248201527520b1b1b2b9b9b4b136329d1039b0b6b29030b236b4b760511b6044820152606401610267565b61046f600080516020610a3c833981519152826102a5565b610288600080516020610a3c833981519152336102cf565b6000918252602082815260408084206001600160a01b0393909316845291905290205460ff1690565b6000828152602081905260409020600101546104cb816104d5565b6102ca8383610563565b61028881336105c8565b6104e98282610487565b610349576000828152602081815260408083206001600160a01b03851684529091529020805460ff1916600117905561051f3390565b6001600160a01b0316816001600160a01b0316837f2f8788117e7eff1d82e926ec794901d17c78024a50270940304540a733656f0d60405160405180910390a45050565b61056d8282610487565b15610349576000828152602081815260408083206001600160a01b0385168085529252808320805460ff1916905551339285917ff6391f5c32d9c69d2a47ea670b442974b53935d1edc7fd64eb21e047a839171b9190a45050565b6105d28282610487565b610349576105df81610621565b6105ea836020610633565b6040516020016105fb9291906108bd565b60408051601f198184030181529082905262461bcd60e51b825261026791600401610932565b606061023c6001600160a01b03831660145b606060006106428360026109bf565b61064d9060026109a7565b67ffffffffffffffff81111561067357634e487b7160e01b600052604160045260246000fd5b6040519080825280601f01601f19166020018201604052801561069d576020820181803683370190505b509050600360fc1b816000815181106106c657634e487b7160e01b600052603260045260246000fd5b60200101906001600160f81b031916908160001a905350600f60fb1b8160018151811061070357634e487b7160e01b600052603260045260246000fd5b60200101906001600160f81b031916908160001a90535060006107278460026109bf565b6107329060016109a7565b90505b60018111156107c6576f181899199a1a9b1b9c1cb0b131b232b360811b85600f166010811061077457634e487b7160e01b600052603260045260246000fd5b1a60f81b82828151811061079857634e487b7160e01b600052603260045260246000fd5b60200101906001600160f81b031916908160001a90535060049490941c936107bf81610a0e565b9050610735565b5083156108155760405162461bcd60e51b815260206004820181905260248201527f537472696e67733a20686578206c656e67746820696e73756666696369656e746044820152606401610267565b9392505050565b80356001600160a01b038116811461083357600080fd5b919050565b600060208284031215610849578081fd5b6108158261081c565b600060208284031215610863578081fd5b5035919050565b6000806040838503121561087c578081fd5b8235915061088c6020840161081c565b90509250929050565b6000602082840312156108a6578081fd5b81356001600160e01b031981168114610815578182fd5b7f416363657373436f6e74726f6c3a206163636f756e74200000000000000000008152600083516108f58160178501602088016109de565b7001034b99036b4b9b9b4b733903937b6329607d1b60179184019182015283516109268160288401602088016109de565b01602801949350505050565b60208152600082518060208401526109518160408501602087016109de565b601f01601f19169190910160400192915050565b60208082526022908201527f41636365737369626c653a2043616c6c6572206973206e6f7420616e2061646d60408201526134b760f11b606082015260800190565b600082198211156109ba576109ba610a25565b500190565b60008160001904831182151516156109d9576109d9610a25565b500290565b60005b838110156109f95781810151838201526020016109e1565b83811115610a08576000848401525b50505050565b600081610a1d57610a1d610a25565b506000190190565b634e487b7160e01b600052601160045260246000fdfedf8b4c520ffe197c5343c6f5aec59570151ef9a492f2c624fd45ddde6135ec42a264697066735822122090df206f8a1387a31b5d7b6a08ddf5404047c7f69834ca98c1ee28cfae47c32464736f6c63430008040033",
  "linkReferences": {},
  "deployedLinkReferences": {}
}