{
  "_format": "hh-sol-artifact-1",
  "contractName": "ProxyAccessCommon",
  "sourceName": "contracts/common/ProxyAccessCommon.sol",
  "abi": [
    {
      "anonymous": false,
      "inputs": [
        {
          "indexed": true,
          "internalType": "bytes32",
          "name": "role",
          "type": "bytes32"
        },
        {
          "indexed": true,
          "internalType": "bytes32",
          "name": "previousAdminRole",
          "type": "bytes32"
        },
        {
          "indexed": true,
          "internalType": "bytes32",
          "name": "newAdminRole",
          "type": "bytes32"
        }
      ],
      "name": "RoleAdminChanged",
      "type": "event"
    },
    {
      "anonymous": false,
      "inputs": [
        {
          "indexed": true,
          "internalType": "bytes32",
          "name": "role",
          "type": "bytes32"
        },
        {
          "indexed": true,
          "internalType": "address",
          "name": "account",
          "type": "address"
        },
        {
          "indexed": true,
          "internalType": "address",
          "name": "sender",
          "type": "address"
        }
      ],
      "name": "RoleGranted",
      "type": "event"
    },
    {
      "anonymous": false,
      "inputs": [
        {
          "indexed": true,
          "internalType": "bytes32",
          "name": "role",
          "type": "bytes32"
        },
        {
          "indexed": true,
          "internalType": "address",
          "name": "account",
          "type": "address"
        },
        {
          "indexed": true,
          "internalType": "address",
          "name": "sender",
          "type": "address"
        }
      ],
      "name": "RoleRevoked",
      "type": "event"
    },
    {
      "inputs": [],
      "name": "ADMIN_ROLE",
      "outputs": [
        {
          "internalType": "bytes32",
          "name": "",
          "type": "bytes32"
        }
      ],
      "stateMutability": "view",
      "type": "function"
    },
    {
      "inputs": [],
      "name": "DEFAULT_ADMIN_ROLE",
      "outputs": [
        {
          "internalType": "bytes32",
          "name": "",
          "type": "bytes32"
        }
      ],
      "stateMutability": "view",
      "type": "function"
    },
    {
      "inputs": [],
      "name": "POLICY_ROLE",
      "outputs": [
        {
          "internalType": "bytes32",
          "name": "",
          "type": "bytes32"
        }
      ],
      "stateMutability": "view",
      "type": "function"
    },
    {
      "inputs": [
        {
          "internalType": "address",
          "name": "account",
          "type": "address"
        }
      ],
      "name": "addAdmin",
      "outputs": [],
      "stateMutability": "nonpayable",
      "type": "function"
    },
    {
      "inputs": [
        {
          "internalType": "address",
          "name": "_account",
          "type": "address"
        }
      ],
      "name": "addPolicy",
      "outputs": [],
      "stateMutability": "nonpayable",
      "type": "function"
    },
    {
      "inputs": [
        {
          "internalType": "address",
          "name": "_owner",
          "type": "address"
        }
      ],
      "name": "addProxyAdmin",
      "outputs": [],
      "stateMutability": "nonpayable",
      "type": "function"
    },
    {
      "inputs": [
        {
          "internalType": "address",
          "name": "_account",
          "type": "address"
        }
      ],
      "name": "deletePolicy",
      "outputs": [],
      "stateMutability": "nonpayable",
      "type": "function"
    },
    {
      "inputs": [
        {
          "internalType": "bytes32",
          "name": "role",
          "type": "bytes32"
        }
      ],
      "name": "getRoleAdmin",
      "outputs": [
        {
          "internalType": "bytes32",
          "name": "",
          "type": "bytes32"
        }
      ],
      "stateMutability": "view",
      "type": "function"
    },
    {
      "inputs": [
        {
          "internalType": "bytes32",
          "name": "role",
          "type": "bytes32"
        },
        {
          "internalType": "address",
          "name": "account",
          "type": "address"
        }
      ],
      "name": "grantRole",
      "outputs": [],
      "stateMutability": "nonpayable",
      "type": "function"
    },
    {
      "inputs": [
        {
          "internalType": "bytes32",
          "name": "role",
          "type": "bytes32"
        },
        {
          "internalType": "address",
          "name": "account",
          "type": "address"
        }
      ],
      "name": "hasRole",
      "outputs": [
        {
          "internalType": "bool",
          "name": "",
          "type": "bool"
        }
      ],
      "stateMutability": "view",
      "type": "function"
    },
    {
      "inputs": [
        {
          "internalType": "address",
          "name": "account",
          "type": "address"
        }
      ],
      "name": "isAdmin",
      "outputs": [
        {
          "internalType": "bool",
          "name": "",
          "type": "bool"
        }
      ],
      "stateMutability": "view",
      "type": "function"
    },
    {
      "inputs": [
        {
          "internalType": "address",
          "name": "account",
          "type": "address"
        }
      ],
      "name": "isPolicy",
      "outputs": [
        {
          "internalType": "bool",
          "name": "",
          "type": "bool"
        }
      ],
      "stateMutability": "view",
      "type": "function"
    },
    {
      "inputs": [
        {
          "internalType": "address",
          "name": "account",
          "type": "address"
        }
      ],
      "name": "isProxyAdmin",
      "outputs": [
        {
          "internalType": "bool",
          "name": "",
          "type": "bool"
        }
      ],
      "stateMutability": "view",
      "type": "function"
    },
    {
      "inputs": [],
      "name": "removeAdmin",
      "outputs": [],
      "stateMutability": "nonpayable",
      "type": "function"
    },
    {
      "inputs": [],
      "name": "removePolicy",
      "outputs": [],
      "stateMutability": "nonpayable",
      "type": "function"
    },
    {
      "inputs": [],
      "name": "removeProxyAdmin",
      "outputs": [],
      "stateMutability": "nonpayable",
      "type": "function"
    },
    {
      "inputs": [
        {
          "internalType": "bytes32",
          "name": "role",
          "type": "bytes32"
        },
        {
          "internalType": "address",
          "name": "account",
          "type": "address"
        }
      ],
      "name": "renounceRole",
      "outputs": [],
      "stateMutability": "nonpayable",
      "type": "function"
    },
    {
      "inputs": [
        {
          "internalType": "bytes32",
          "name": "role",
          "type": "bytes32"
        },
        {
          "internalType": "address",
          "name": "account",
          "type": "address"
        }
      ],
      "name": "revokeRole",
      "outputs": [],
      "stateMutability": "nonpayable",
      "type": "function"
    },
    {
      "inputs": [
        {
          "internalType": "bytes4",
          "name": "interfaceId",
          "type": "bytes4"
        }
      ],
      "name": "supportsInterface",
      "outputs": [
        {
          "internalType": "bool",
          "name": "",
          "type": "bool"
        }
      ],
      "stateMutability": "view",
      "type": "function"
    },
    {
      "inputs": [
        {
          "internalType": "address",
          "name": "newAdmin",
          "type": "address"
        }
      ],
      "name": "transferAdmin",
      "outputs": [],
      "stateMutability": "nonpayable",
      "type": "function"
    },
    {
      "inputs": [
        {
          "internalType": "address",
          "name": "newAdmin",
          "type": "address"
        }
      ],
      "name": "transferProxyAdmin",
      "outputs": [],
      "stateMutability": "nonpayable",
      "type": "function"
    }
  ],
  "bytecode": "0x608060405234801561001057600080fd5b50610e44806100206000396000f3fe608060405234801561001057600080fd5b50600436106101375760003560e01c806375b238fc116100b8578063a217fddf1161007c578063a217fddf1461027c578063b84ef08114610284578063be72f2d314610297578063d547741f1461029f578063f47f2f1d146102b2578063fad1c85c146102c557600080fd5b806375b238fc146102265780638356ca4f1461023b57806391d148541461024e57806396f1557c146102615780639a202d471461027457600080fd5b806336568abe116100ff57806336568abe146101d25780635fabdf7c146101e557806365cb3a83146101f8578063704802751461020057806375829def1461021357600080fd5b806301ffc9a71461013c5780632298524614610164578063248a9ca31461018757806324d7806c146101aa5780632f2ff15d146101bd575b600080fd5b61014f61014a366004610be0565b6102d8565b60405190151581526020015b60405180910390f35b610179600080516020610def83398151915281565b60405190815260200161015b565b610179610195366004610b9d565b60009081526020819052604090206001015490565b61014f6101b8366004610b83565b61030f565b6101d06101cb366004610bb5565b610329565b005b6101d06101e0366004610bb5565b610353565b6101d06101f3366004610b83565b6103d6565b6101d0610416565b6101d061020e366004610b83565b610497565b6101d0610221366004610b83565b6104d4565b610179600080516020610dcf83398151915281565b6101d0610249366004610b83565b6105db565b61014f61025c366004610bb5565b6106b9565b6101d061026f366004610b83565b6106e2565b6101d0610712565b610179600081565b6101d0610292366004610b83565b61075e565b6101d061079b565b6101d06102ad366004610bb5565b6107cb565b61014f6102c0366004610b83565b6107f0565b61014f6102d3366004610b83565b6107fc565b60006001600160e01b03198216637965db0b60e01b148061030957506301ffc9a760e01b6001600160e01b03198316145b92915050565b6000610309600080516020610dcf833981519152836106b9565b60008281526020819052604090206001015461034481610816565b61034e8383610820565b505050565b6001600160a01b03811633146103c85760405162461bcd60e51b815260206004820152602f60248201527f416363657373436f6e74726f6c3a2063616e206f6e6c792072656e6f756e636560448201526e103937b632b9903337b91039b2b63360891b60648201526084015b60405180910390fd5b6103d282826108a4565b5050565b6103df336107f0565b6103fb5760405162461bcd60e51b81526004016103bf90610cf2565b610413600080516020610def833981519152826107cb565b50565b61041f336107fc565b61047d5760405162461bcd60e51b815260206004820152602960248201527f41636365737369626c653a2043616c6c6572206973206e6f7420616e20706f6c60448201526834b1bc9030b236b4b760b91b60648201526084016103bf565b610495600080516020610def83398151915233610353565b565b6104a0336107f0565b6104bc5760405162461bcd60e51b81526004016103bf90610cf2565b610413600080516020610dcf83398151915282610329565b6104dd3361030f565b806104ec57506104ec336107f0565b6105085760405162461bcd60e51b81526004016103bf90610cb0565b6001600160a01b0381166105595760405162461bcd60e51b815260206004820152601860248201527741636365737369626c653a207a65726f206164647265737360401b60448201526064016103bf565b336001600160a01b03821614156105ab5760405162461bcd60e51b815260206004820152601660248201527520b1b1b2b9b9b4b136329d1039b0b6b29030b236b4b760511b60448201526064016103bf565b6105c3600080516020610dcf83398151915282610329565b610413600080516020610dcf83398151915233610353565b6105e4336107f0565b6106005760405162461bcd60e51b81526004016103bf90610cf2565b6001600160a01b0381166106515760405162461bcd60e51b815260206004820152601860248201527741636365737369626c653a207a65726f206164647265737360401b60448201526064016103bf565b336001600160a01b03821614156106a35760405162461bcd60e51b815260206004820152601660248201527520b1b1b2b9b9b4b136329d1039b0b6b29030b236b4b760511b60448201526064016103bf565b6106ae600082610329565b610413600033610353565b6000918252602082815260408084206001600160a01b0393909316845291905290205460ff1690565b6106eb336107f0565b6107075760405162461bcd60e51b81526004016103bf90610cf2565b610413600082610909565b61071b3361030f565b8061072a575061072a336107f0565b6107465760405162461bcd60e51b81526004016103bf90610cb0565b610495600080516020610dcf83398151915233610353565b610767336107f0565b6107835760405162461bcd60e51b81526004016103bf90610cf2565b610413600080516020610def83398151915282610329565b6107a4336107f0565b6107c05760405162461bcd60e51b81526004016103bf90610cf2565b610495600033610353565b6000828152602081905260409020600101546107e681610816565b61034e83836108a4565b600061030981836106b9565b6000610309600080516020610def833981519152836106b9565b6104138133610913565b61082a82826106b9565b6103d2576000828152602081815260408083206001600160a01b03851684529091529020805460ff191660011790556108603390565b6001600160a01b0316816001600160a01b0316837f2f8788117e7eff1d82e926ec794901d17c78024a50270940304540a733656f0d60405160405180910390a45050565b6108ae82826106b9565b156103d2576000828152602081815260408083206001600160a01b0385168085529252808320805460ff1916905551339285917ff6391f5c32d9c69d2a47ea670b442974b53935d1edc7fd64eb21e047a839171b9190a45050565b6103d28282610820565b61091d82826106b9565b6103d25761092a8161096c565b61093583602061097e565b604051602001610946929190610c08565b60408051601f198184030181529082905262461bcd60e51b82526103bf91600401610c7d565b60606103096001600160a01b03831660145b6060600061098d836002610d52565b610998906002610d3a565b67ffffffffffffffff8111156109be57634e487b7160e01b600052604160045260246000fd5b6040519080825280601f01601f1916602001820160405280156109e8576020820181803683370190505b509050600360fc1b81600081518110610a1157634e487b7160e01b600052603260045260246000fd5b60200101906001600160f81b031916908160001a905350600f60fb1b81600181518110610a4e57634e487b7160e01b600052603260045260246000fd5b60200101906001600160f81b031916908160001a9053506000610a72846002610d52565b610a7d906001610d3a565b90505b6001811115610b11576f181899199a1a9b1b9c1cb0b131b232b360811b85600f1660108110610abf57634e487b7160e01b600052603260045260246000fd5b1a60f81b828281518110610ae357634e487b7160e01b600052603260045260246000fd5b60200101906001600160f81b031916908160001a90535060049490941c93610b0a81610da1565b9050610a80565b508315610b605760405162461bcd60e51b815260206004820181905260248201527f537472696e67733a20686578206c656e67746820696e73756666696369656e7460448201526064016103bf565b9392505050565b80356001600160a01b0381168114610b7e57600080fd5b919050565b600060208284031215610b94578081fd5b610b6082610b67565b600060208284031215610bae578081fd5b5035919050565b60008060408385031215610bc7578081fd5b82359150610bd760208401610b67565b90509250929050565b600060208284031215610bf1578081fd5b81356001600160e01b031981168114610b60578182fd5b7f416363657373436f6e74726f6c3a206163636f756e7420000000000000000000815260008351610c40816017850160208801610d71565b7001034b99036b4b9b9b4b733903937b6329607d1b6017918401918201528351610c71816028840160208801610d71565b01602801949350505050565b6020815260008251806020840152610c9c816040850160208701610d71565b601f01601f19169190910160400192915050565b60208082526022908201527f41636365737369626c653a2043616c6c6572206973206e6f7420616e2061646d60408201526134b760f11b606082015260800190565b60208082526028908201527f41636365737369626c653a2043616c6c6572206973206e6f7420616e2070726f6040820152673c3c9030b236b4b760c11b606082015260800190565b60008219821115610d4d57610d4d610db8565b500190565b6000816000190483118215151615610d6c57610d6c610db8565b500290565b60005b83811015610d8c578181015183820152602001610d74565b83811115610d9b576000848401525b50505050565b600081610db057610db0610db8565b506000190190565b634e487b7160e01b600052601160045260246000fdfedf8b4c520ffe197c5343c6f5aec59570151ef9a492f2c624fd45ddde6135ec42fb5864e8ff833c3cb2d2d08505e82ff02a43554c74a35d4f5a64e85261278311a264697066735822122025c2528622627dadbef1c43c01c1d97c444662c602ee3e95d91cd4affc2650d364736f6c63430008040033",
  "linkReferences": {},
  "deployedLinkReferences": {}
}