{
  "_format": "hh-sol-artifact-1",
  "contractName": "TreasuryV1_1",
  "sourceName": "contracts/TreasuryV1_1.sol",
  "abi": [
    {
      "inputs": [],
      "stateMutability": "nonpayable",
      "type": "constructor"
    },
    {
      "anonymous": false,
      "inputs": [
        {
          "indexed": false,
          "internalType": "address",
          "name": "_address",
          "type": "address"
        }
      ],
      "name": "AddedBackingList",
      "type": "event"
    },
    {
      "anonymous": false,
      "inputs": [
        {
          "indexed": false,
          "internalType": "uint256",
          "name": "amount",
          "type": "uint256"
        }
      ],
      "name": "BurnedTos",
      "type": "event"
    },
    {
      "anonymous": false,
      "inputs": [
        {
          "indexed": false,
          "internalType": "address",
          "name": "account",
          "type": "address"
        },
        {
          "indexed": false,
          "internalType": "uint256",
          "name": "tosAmount",
          "type": "uint256"
        },
        {
          "indexed": false,
          "internalType": "uint256",
          "name": "ethAmount",
          "type": "uint256"
        }
      ],
      "name": "Claimed",
      "type": "event"
    },
    {
      "anonymous": false,
      "inputs": [
        {
          "indexed": false,
          "internalType": "address",
          "name": "_address",
          "type": "address"
        }
      ],
      "name": "DeletedBackingList",
      "type": "event"
    },
    {
      "anonymous": false,
      "inputs": [
        {
          "indexed": false,
          "internalType": "address",
          "name": "to",
          "type": "address"
        },
        {
          "indexed": false,
          "internalType": "uint256",
          "name": "amount",
          "type": "uint256"
        }
      ],
      "name": "DistributedFoundation",
      "type": "event"
    },
    {
      "anonymous": false,
      "inputs": [
        {
          "indexed": false,
          "internalType": "address",
          "name": "addr",
          "type": "address"
        },
        {
          "indexed": true,
          "internalType": "uint256",
          "name": "status",
          "type": "uint256"
        },
        {
          "indexed": false,
          "internalType": "bool",
          "name": "result",
          "type": "bool"
        }
      ],
      "name": "Permissioned",
      "type": "event"
    },
    {
      "anonymous": false,
      "inputs": [
        {
          "indexed": false,
          "internalType": "uint256",
          "name": "_mintAmount",
          "type": "uint256"
        },
        {
          "indexed": false,
          "internalType": "uint256",
          "name": "_payout",
          "type": "uint256"
        },
        {
          "indexed": false,
          "internalType": "bool",
          "name": "_distribute",
          "type": "bool"
        }
      ],
      "name": "RequestedMint",
      "type": "event"
    },
    {
      "anonymous": false,
      "inputs": [
        {
          "indexed": false,
          "internalType": "address",
          "name": "_recipient",
          "type": "address"
        },
        {
          "indexed": false,
          "internalType": "uint256",
          "name": "_amount",
          "type": "uint256"
        }
      ],
      "name": "RequestedTransfer",
      "type": "event"
    },
    {
      "anonymous": false,
      "inputs": [
        {
          "indexed": true,
          "internalType": "bytes32",
          "name": "role",
          "type": "bytes32"
        },
        {
          "indexed": true,
          "internalType": "bytes32",
          "name": "previousAdminRole",
          "type": "bytes32"
        },
        {
          "indexed": true,
          "internalType": "bytes32",
          "name": "newAdminRole",
          "type": "bytes32"
        }
      ],
      "name": "RoleAdminChanged",
      "type": "event"
    },
    {
      "anonymous": false,
      "inputs": [
        {
          "indexed": true,
          "internalType": "bytes32",
          "name": "role",
          "type": "bytes32"
        },
        {
          "indexed": true,
          "internalType": "address",
          "name": "account",
          "type": "address"
        },
        {
          "indexed": true,
          "internalType": "address",
          "name": "sender",
          "type": "address"
        }
      ],
      "name": "RoleGranted",
      "type": "event"
    },
    {
      "anonymous": false,
      "inputs": [
        {
          "indexed": true,
          "internalType": "bytes32",
          "name": "role",
          "type": "bytes32"
        },
        {
          "indexed": true,
          "internalType": "address",
          "name": "account",
          "type": "address"
        },
        {
          "indexed": true,
          "internalType": "address",
          "name": "sender",
          "type": "address"
        }
      ],
      "name": "RoleRevoked",
      "type": "event"
    },
    {
      "anonymous": false,
      "inputs": [
        {
          "indexed": false,
          "internalType": "address",
          "name": "calculatorAddress",
          "type": "address"
        }
      ],
      "name": "SetCalculator",
      "type": "event"
    },
    {
      "anonymous": false,
      "inputs": [
        {
          "indexed": false,
          "internalType": "bool",
          "name": "_pause",
          "type": "bool"
        }
      ],
      "name": "SetClaimPause",
      "type": "event"
    },
    {
      "anonymous": false,
      "inputs": [
        {
          "indexed": false,
          "internalType": "uint32",
          "name": "_startTime",
          "type": "uint32"
        }
      ],
      "name": "SetClaimableStartTime",
      "type": "event"
    },
    {
      "anonymous": false,
      "inputs": [
        {
          "indexed": false,
          "internalType": "address[]",
          "name": "_addr",
          "type": "address[]"
        },
        {
          "indexed": false,
          "internalType": "uint256[]",
          "name": "_percents",
          "type": "uint256[]"
        }
      ],
      "name": "SetFoundationDistributeInfo",
      "type": "event"
    },
    {
      "anonymous": false,
      "inputs": [
        {
          "indexed": false,
          "internalType": "uint256",
          "name": "mrRate",
          "type": "uint256"
        },
        {
          "indexed": false,
          "internalType": "uint256",
          "name": "amount",
          "type": "uint256"
        },
        {
          "indexed": false,
          "internalType": "bool",
          "name": "isBurn",
          "type": "bool"
        }
      ],
      "name": "SetMintRate",
      "type": "event"
    },
    {
      "anonymous": false,
      "inputs": [
        {
          "indexed": false,
          "internalType": "uint256",
          "name": "_mintRateDenominator",
          "type": "uint256"
        }
      ],
      "name": "SetMintRateDenominator",
      "type": "event"
    },
    {
      "anonymous": false,
      "inputs": [
        {
          "indexed": false,
          "internalType": "address",
          "name": "_poolAddressTOSETH",
          "type": "address"
        }
      ],
      "name": "SetPoolAddressTOSETH",
      "type": "event"
    },
    {
      "anonymous": false,
      "inputs": [
        {
          "indexed": false,
          "internalType": "address",
          "name": "_uniswapFactory",
          "type": "address"
        }
      ],
      "name": "SetUniswapV3Factory",
      "type": "event"
    },
    {
      "anonymous": false,
      "inputs": [
        {
          "indexed": false,
          "internalType": "address",
          "name": "_wethAddress",
          "type": "address"
        }
      ],
      "name": "SetWethAddress",
      "type": "event"
    },
    {
      "inputs": [],
      "name": "ADMIN_ROLE",
      "outputs": [
        {
          "internalType": "bytes32",
          "name": "",
          "type": "bytes32"
        }
      ],
      "stateMutability": "view",
      "type": "function"
    },
    {
      "inputs": [],
      "name": "DEFAULT_ADMIN_ROLE",
      "outputs": [
        {
          "internalType": "bytes32",
          "name": "",
          "type": "bytes32"
        }
      ],
      "stateMutability": "view",
      "type": "function"
    },
    {
      "inputs": [],
      "name": "POLICY_ROLE",
      "outputs": [
        {
          "internalType": "bytes32",
          "name": "",
          "type": "bytes32"
        }
      ],
      "stateMutability": "view",
      "type": "function"
    },
    {
      "inputs": [
        {
          "internalType": "address",
          "name": "account",
          "type": "address"
        }
      ],
      "name": "addAdmin",
      "outputs": [],
      "stateMutability": "nonpayable",
      "type": "function"
    },
    {
      "inputs": [
        {
          "internalType": "address",
          "name": "_address",
          "type": "address"
        }
      ],
      "name": "addBackingList",
      "outputs": [],
      "stateMutability": "nonpayable",
      "type": "function"
    },
    {
      "inputs": [
        {
          "internalType": "address",
          "name": "_address",
          "type": "address"
        }
      ],
      "name": "addBondAsset",
      "outputs": [],
      "stateMutability": "nonpayable",
      "type": "function"
    },
    {
      "inputs": [
        {
          "internalType": "address",
          "name": "_account",
          "type": "address"
        }
      ],
      "name": "addPolicy",
      "outputs": [],
      "stateMutability": "nonpayable",
      "type": "function"
    },
    {
      "inputs": [
        {
          "internalType": "address",
          "name": "_owner",
          "type": "address"
        }
      ],
      "name": "addProxyAdmin",
      "outputs": [],
      "stateMutability": "nonpayable",
      "type": "function"
    },
    {
      "inputs": [
        {
          "internalType": "address",
          "name": "",
          "type": "address"
        }
      ],
      "name": "aliveImplementation",
      "outputs": [
        {
          "internalType": "bool",
          "name": "",
          "type": "bool"
        }
      ],
      "stateMutability": "view",
      "type": "function"
    },
    {
      "inputs": [],
      "name": "allBacking",
      "outputs": [
        {
          "internalType": "address[]",
          "name": "",
          "type": "address[]"
        }
      ],
      "stateMutability": "view",
      "type": "function"
    },
    {
      "inputs": [],
      "name": "allMinting",
      "outputs": [
        {
          "internalType": "address[]",
          "name": "mintAddress",
          "type": "address[]"
        },
        {
          "internalType": "uint256[]",
          "name": "mintPercents",
          "type": "uint256[]"
        }
      ],
      "stateMutability": "view",
      "type": "function"
    },
    {
      "inputs": [
        {
          "internalType": "address",
          "name": "",
          "type": "address"
        }
      ],
      "name": "backingIndexPlusOne",
      "outputs": [
        {
          "internalType": "uint256",
          "name": "",
          "type": "uint256"
        }
      ],
      "stateMutability": "view",
      "type": "function"
    },
    {
      "inputs": [],
      "name": "backingRateETHPerTOS",
      "outputs": [
        {
          "internalType": "uint256",
          "name": "",
          "type": "uint256"
        }
      ],
      "stateMutability": "view",
      "type": "function"
    },
    {
      "inputs": [],
      "name": "backingReserve",
      "outputs": [
        {
          "internalType": "uint256",
          "name": "",
          "type": "uint256"
        }
      ],
      "stateMutability": "view",
      "type": "function"
    },
    {
      "inputs": [],
      "name": "backingReserveETH",
      "outputs": [
        {
          "internalType": "uint256",
          "name": "",
          "type": "uint256"
        }
      ],
      "stateMutability": "view",
      "type": "function"
    },
    {
      "inputs": [],
      "name": "backingReserveTOS",
      "outputs": [
        {
          "internalType": "uint256",
          "name": "",
          "type": "uint256"
        }
      ],
      "stateMutability": "view",
      "type": "function"
    },
    {
      "inputs": [
        {
          "internalType": "uint256",
          "name": "",
          "type": "uint256"
        }
      ],
      "name": "backings",
      "outputs": [
        {
          "internalType": "address",
          "name": "",
          "type": "address"
        }
      ],
      "stateMutability": "view",
      "type": "function"
    },
    {
      "inputs": [],
      "name": "calculator",
      "outputs": [
        {
          "internalType": "address",
          "name": "",
          "type": "address"
        }
      ],
      "stateMutability": "view",
      "type": "function"
    },
    {
      "inputs": [
        {
          "internalType": "uint256",
          "name": "amount",
          "type": "uint256"
        }
      ],
      "name": "checkTosSolvency",
      "outputs": [
        {
          "internalType": "bool",
          "name": "",
          "type": "bool"
        }
      ],
      "stateMutability": "view",
      "type": "function"
    },
    {
      "inputs": [
        {
          "internalType": "uint256",
          "name": "_checkMintRate",
          "type": "uint256"
        },
        {
          "internalType": "uint256",
          "name": "amount",
          "type": "uint256"
        }
      ],
      "name": "checkTosSolvencyAfterTOSBurn",
      "outputs": [
        {
          "internalType": "bool",
          "name": "",
          "type": "bool"
        }
      ],
      "stateMutability": "view",
      "type": "function"
    },
    {
      "inputs": [
        {
          "internalType": "uint256",
          "name": "_checkMintRate",
          "type": "uint256"
        },
        {
          "internalType": "uint256",
          "name": "amount",
          "type": "uint256"
        }
      ],
      "name": "checkTosSolvencyAfterTOSMint",
      "outputs": [
        {
          "internalType": "bool",
          "name": "",
          "type": "bool"
        }
      ],
      "stateMutability": "view",
      "type": "function"
    },
    {
      "inputs": [
        {
          "internalType": "uint256",
          "name": "tosAmount",
          "type": "uint256"
        }
      ],
      "name": "claim",
      "outputs": [],
      "stateMutability": "nonpayable",
      "type": "function"
    },
    {
      "inputs": [],
      "name": "claimPause",
      "outputs": [
        {
          "internalType": "bool",
          "name": "",
          "type": "bool"
        }
      ],
      "stateMutability": "view",
      "type": "function"
    },
    {
      "inputs": [
        {
          "internalType": "uint256",
          "name": "tosAmount",
          "type": "uint256"
        }
      ],
      "name": "claimableEther",
      "outputs": [
        {
          "internalType": "uint256",
          "name": "ethAmount_",
          "type": "uint256"
        }
      ],
      "stateMutability": "view",
      "type": "function"
    },
    {
      "inputs": [],
      "name": "claimableStartTime",
      "outputs": [
        {
          "internalType": "uint256",
          "name": "",
          "type": "uint256"
        }
      ],
      "stateMutability": "view",
      "type": "function"
    },
    {
      "inputs": [
        {
          "internalType": "address",
          "name": "_address",
          "type": "address"
        }
      ],
      "name": "deleteBackingList",
      "outputs": [],
      "stateMutability": "nonpayable",
      "type": "function"
    },
    {
      "inputs": [
        {
          "internalType": "address",
          "name": "_account",
          "type": "address"
        }
      ],
      "name": "deletePolicy",
      "outputs": [],
      "stateMutability": "nonpayable",
      "type": "function"
    },
    {
      "inputs": [
        {
          "internalType": "uint256",
          "name": "_status",
          "type": "uint256"
        },
        {
          "internalType": "address",
          "name": "_toDisable",
          "type": "address"
        }
      ],
      "name": "disable",
      "outputs": [],
      "stateMutability": "nonpayable",
      "type": "function"
    },
    {
      "inputs": [
        {
          "internalType": "uint256",
          "name": "_status",
          "type": "uint256"
        },
        {
          "internalType": "address",
          "name": "_address",
          "type": "address"
        }
      ],
      "name": "enable",
      "outputs": [],
      "stateMutability": "nonpayable",
      "type": "function"
    },
    {
      "inputs": [],
      "name": "enableStaking",
      "outputs": [
        {
          "internalType": "uint256",
          "name": "",
          "type": "uint256"
        }
      ],
      "stateMutability": "view",
      "type": "function"
    },
    {
      "inputs": [],
      "name": "foundationAmount",
      "outputs": [
        {
          "internalType": "uint256",
          "name": "",
          "type": "uint256"
        }
      ],
      "stateMutability": "view",
      "type": "function"
    },
    {
      "inputs": [],
      "name": "foundationDistribute",
      "outputs": [],
      "stateMutability": "nonpayable",
      "type": "function"
    },
    {
      "inputs": [],
      "name": "foundationTotalPercentage",
      "outputs": [
        {
          "internalType": "uint256",
          "name": "",
          "type": "uint256"
        }
      ],
      "stateMutability": "view",
      "type": "function"
    },
    {
      "inputs": [],
      "name": "getETHPricePerTOS",
      "outputs": [
        {
          "internalType": "uint256",
          "name": "",
          "type": "uint256"
        }
      ],
      "stateMutability": "view",
      "type": "function"
    },
    {
      "inputs": [],
      "name": "getMintRate",
      "outputs": [
        {
          "internalType": "uint256",
          "name": "",
          "type": "uint256"
        }
      ],
      "stateMutability": "view",
      "type": "function"
    },
    {
      "inputs": [
        {
          "internalType": "bytes32",
          "name": "role",
          "type": "bytes32"
        }
      ],
      "name": "getRoleAdmin",
      "outputs": [
        {
          "internalType": "bytes32",
          "name": "",
          "type": "bytes32"
        }
      ],
      "stateMutability": "view",
      "type": "function"
    },
    {
      "inputs": [],
      "name": "getTOSPricePerETH",
      "outputs": [
        {
          "internalType": "uint256",
          "name": "",
          "type": "uint256"
        }
      ],
      "stateMutability": "view",
      "type": "function"
    },
    {
      "inputs": [
        {
          "internalType": "bytes32",
          "name": "role",
          "type": "bytes32"
        },
        {
          "internalType": "address",
          "name": "account",
          "type": "address"
        }
      ],
      "name": "grantRole",
      "outputs": [],
      "stateMutability": "nonpayable",
      "type": "function"
    },
    {
      "inputs": [
        {
          "internalType": "uint256",
          "name": "role",
          "type": "uint256"
        },
        {
          "internalType": "address",
          "name": "account",
          "type": "address"
        }
      ],
      "name": "hasPermission",
      "outputs": [
        {
          "internalType": "bool",
          "name": "",
          "type": "bool"
        }
      ],
      "stateMutability": "view",
      "type": "function"
    },
    {
      "inputs": [
        {
          "internalType": "bytes32",
          "name": "role",
          "type": "bytes32"
        },
        {
          "internalType": "address",
          "name": "account",
          "type": "address"
        }
      ],
      "name": "hasRole",
      "outputs": [
        {
          "internalType": "bool",
          "name": "",
          "type": "bool"
        }
      ],
      "stateMutability": "view",
      "type": "function"
    },
    {
      "inputs": [
        {
          "internalType": "address",
          "name": "_address",
          "type": "address"
        },
        {
          "internalType": "enum LibTreasury.STATUS",
          "name": "_status",
          "type": "uint8"
        }
      ],
      "name": "indexInRegistry",
      "outputs": [
        {
          "internalType": "bool",
          "name": "",
          "type": "bool"
        },
        {
          "internalType": "uint256",
          "name": "",
          "type": "uint256"
        }
      ],
      "stateMutability": "view",
      "type": "function"
    },
    {
      "inputs": [
        {
          "internalType": "address",
          "name": "account",
          "type": "address"
        }
      ],
      "name": "isAdmin",
      "outputs": [
        {
          "internalType": "bool",
          "name": "",
          "type": "bool"
        }
      ],
      "stateMutability": "view",
      "type": "function"
    },
    {
      "inputs": [
        {
          "internalType": "address",
          "name": "account",
          "type": "address"
        }
      ],
      "name": "isBonder",
      "outputs": [
        {
          "internalType": "bool",
          "name": "",
          "type": "bool"
        }
      ],
      "stateMutability": "view",
      "type": "function"
    },
    {
      "inputs": [
        {
          "internalType": "address",
          "name": "account",
          "type": "address"
        }
      ],
      "name": "isPolicy",
      "outputs": [
        {
          "internalType": "bool",
          "name": "",
          "type": "bool"
        }
      ],
      "stateMutability": "view",
      "type": "function"
    },
    {
      "inputs": [
        {
          "internalType": "address",
          "name": "account",
          "type": "address"
        }
      ],
      "name": "isProxyAdmin",
      "outputs": [
        {
          "internalType": "bool",
          "name": "",
          "type": "bool"
        }
      ],
      "stateMutability": "view",
      "type": "function"
    },
    {
      "inputs": [
        {
          "internalType": "address",
          "name": "account",
          "type": "address"
        }
      ],
      "name": "isStaker",
      "outputs": [
        {
          "internalType": "bool",
          "name": "",
          "type": "bool"
        }
      ],
      "stateMutability": "view",
      "type": "function"
    },
    {
      "inputs": [
        {
          "internalType": "uint256",
          "name": "",
          "type": "uint256"
        }
      ],
      "name": "lpTokens",
      "outputs": [
        {
          "internalType": "uint256",
          "name": "",
          "type": "uint256"
        }
      ],
      "stateMutability": "view",
      "type": "function"
    },
    {
      "inputs": [],
      "name": "mintRate",
      "outputs": [
        {
          "internalType": "uint256",
          "name": "",
          "type": "uint256"
        }
      ],
      "stateMutability": "view",
      "type": "function"
    },
    {
      "inputs": [],
      "name": "mintRateDenominator",
      "outputs": [
        {
          "internalType": "uint256",
          "name": "",
          "type": "uint256"
        }
      ],
      "stateMutability": "view",
      "type": "function"
    },
    {
      "inputs": [
        {
          "internalType": "uint256",
          "name": "",
          "type": "uint256"
        }
      ],
      "name": "mintings",
      "outputs": [
        {
          "internalType": "address",
          "name": "mintAddress",
          "type": "address"
        },
        {
          "internalType": "uint256",
          "name": "mintPercents",
          "type": "uint256"
        }
      ],
      "stateMutability": "view",
      "type": "function"
    },
    {
      "inputs": [],
      "name": "pauseProxy",
      "outputs": [
        {
          "internalType": "bool",
          "name": "",
          "type": "bool"
        }
      ],
      "stateMutability": "view",
      "type": "function"
    },
    {
      "inputs": [
        {
          "internalType": "enum LibTreasury.STATUS",
          "name": "",
          "type": "uint8"
        },
        {
          "internalType": "address",
          "name": "",
          "type": "address"
        }
      ],
      "name": "permissions",
      "outputs": [
        {
          "internalType": "bool",
          "name": "",
          "type": "bool"
        }
      ],
      "stateMutability": "view",
      "type": "function"
    },
    {
      "inputs": [],
      "name": "poolAddressTOSETH",
      "outputs": [
        {
          "internalType": "address",
          "name": "",
          "type": "address"
        }
      ],
      "stateMutability": "view",
      "type": "function"
    },
    {
      "inputs": [
        {
          "internalType": "uint256",
          "name": "",
          "type": "uint256"
        }
      ],
      "name": "proxyImplementation",
      "outputs": [
        {
          "internalType": "address",
          "name": "",
          "type": "address"
        }
      ],
      "stateMutability": "view",
      "type": "function"
    },
    {
      "inputs": [
        {
          "internalType": "enum LibTreasury.STATUS",
          "name": "",
          "type": "uint8"
        },
        {
          "internalType": "uint256",
          "name": "",
          "type": "uint256"
        }
      ],
      "name": "registry",
      "outputs": [
        {
          "internalType": "address",
          "name": "",
          "type": "address"
        }
      ],
      "stateMutability": "view",
      "type": "function"
    },
    {
      "inputs": [],
      "name": "removeAdmin",
      "outputs": [],
      "stateMutability": "nonpayable",
      "type": "function"
    },
    {
      "inputs": [],
      "name": "removePolicy",
      "outputs": [],
      "stateMutability": "nonpayable",
      "type": "function"
    },
    {
      "inputs": [],
      "name": "removeProxyAdmin",
      "outputs": [],
      "stateMutability": "nonpayable",
      "type": "function"
    },
    {
      "inputs": [
        {
          "internalType": "bytes32",
          "name": "role",
          "type": "bytes32"
        },
        {
          "internalType": "address",
          "name": "account",
          "type": "address"
        }
      ],
      "name": "renounceRole",
      "outputs": [],
      "stateMutability": "nonpayable",
      "type": "function"
    },
    {
      "inputs": [
        {
          "internalType": "uint256",
          "name": "_mintAmount",
          "type": "uint256"
        },
        {
          "internalType": "uint256",
          "name": "_payout",
          "type": "uint256"
        },
        {
          "internalType": "bool",
          "name": "_distribute",
          "type": "bool"
        }
      ],
      "name": "requestMint",
      "outputs": [],
      "stateMutability": "nonpayable",
      "type": "function"
    },
    {
      "inputs": [
        {
          "internalType": "address",
          "name": "_recipient",
          "type": "address"
        },
        {
          "internalType": "uint256",
          "name": "_amount",
          "type": "uint256"
        }
      ],
      "name": "requestTransfer",
      "outputs": [],
      "stateMutability": "nonpayable",
      "type": "function"
    },
    {
      "inputs": [
        {
          "internalType": "bytes32",
          "name": "role",
          "type": "bytes32"
        },
        {
          "internalType": "address",
          "name": "account",
          "type": "address"
        }
      ],
      "name": "revokeRole",
      "outputs": [],
      "stateMutability": "nonpayable",
      "type": "function"
    },
    {
      "inputs": [
        {
          "internalType": "bytes4",
          "name": "",
          "type": "bytes4"
        }
      ],
      "name": "selectorImplementation",
      "outputs": [
        {
          "internalType": "address",
          "name": "",
          "type": "address"
        }
      ],
      "stateMutability": "view",
      "type": "function"
    },
    {
      "inputs": [
        {
          "internalType": "address",
          "name": "_calculator",
          "type": "address"
        }
      ],
      "name": "setCalculator",
      "outputs": [],
      "stateMutability": "nonpayable",
      "type": "function"
    },
    {
      "inputs": [
        {
          "internalType": "bool",
          "name": "_pause",
          "type": "bool"
        }
      ],
      "name": "setClaimPause",
      "outputs": [],
      "stateMutability": "nonpayable",
      "type": "function"
    },
    {
      "inputs": [
        {
          "internalType": "uint32",
          "name": "_startTime",
          "type": "uint32"
        }
      ],
      "name": "setClaimableStartTime",
      "outputs": [],
      "stateMutability": "nonpayable",
      "type": "function"
    },
    {
      "inputs": [
        {
          "internalType": "address[]",
          "name": "_address",
          "type": "address[]"
        },
        {
          "internalType": "uint256[]",
          "name": "_percents",
          "type": "uint256[]"
        }
      ],
      "name": "setFoundationDistributeInfo",
      "outputs": [],
      "stateMutability": "nonpayable",
      "type": "function"
    },
    {
      "inputs": [
        {
          "internalType": "uint256",
          "name": "_mrRate",
          "type": "uint256"
        },
        {
          "internalType": "uint256",
          "name": "amount",
          "type": "uint256"
        },
        {
          "internalType": "bool",
          "name": "_isBurn",
          "type": "bool"
        }
      ],
      "name": "setMR",
      "outputs": [],
      "stateMutability": "nonpayable",
      "type": "function"
    },
    {
      "inputs": [
        {
          "internalType": "uint256",
          "name": "_mintRateDenominator",
          "type": "uint256"
        }
      ],
      "name": "setMintRateDenominator",
      "outputs": [],
      "stateMutability": "nonpayable",
      "type": "function"
    },
    {
      "inputs": [
        {
          "internalType": "address",
          "name": "_poolAddressTOSETH",
          "type": "address"
        }
      ],
      "name": "setPoolAddressTOSETH",
      "outputs": [],
      "stateMutability": "nonpayable",
      "type": "function"
    },
    {
      "inputs": [
        {
          "internalType": "address",
          "name": "_uniswapFactory",
          "type": "address"
        }
      ],
      "name": "setUniswapV3Factory",
      "outputs": [],
      "stateMutability": "nonpayable",
      "type": "function"
    },
    {
      "inputs": [
        {
          "internalType": "address",
          "name": "_wethAddress",
          "type": "address"
        }
      ],
      "name": "setWeth",
      "outputs": [],
      "stateMutability": "nonpayable",
      "type": "function"
    },
    {
      "inputs": [],
      "name": "stakingV2",
      "outputs": [
        {
          "internalType": "address",
          "name": "",
          "type": "address"
        }
      ],
      "stateMutability": "view",
      "type": "function"
    },
    {
      "inputs": [
        {
          "internalType": "bytes4",
          "name": "interfaceId",
          "type": "bytes4"
        }
      ],
      "name": "supportsInterface",
      "outputs": [
        {
          "internalType": "bool",
          "name": "",
          "type": "bool"
        }
      ],
      "stateMutability": "view",
      "type": "function"
    },
    {
      "inputs": [],
      "name": "tos",
      "outputs": [
        {
          "internalType": "contract IERC20",
          "name": "",
          "type": "address"
        }
      ],
      "stateMutability": "view",
      "type": "function"
    },
    {
      "inputs": [
        {
          "internalType": "uint256",
          "name": "amount",
          "type": "uint256"
        }
      ],
      "name": "tosBurn",
      "outputs": [],
      "stateMutability": "nonpayable",
      "type": "function"
    },
    {
      "inputs": [],
      "name": "totalBacking",
      "outputs": [
        {
          "internalType": "uint256",
          "name": "",
          "type": "uint256"
        }
      ],
      "stateMutability": "view",
      "type": "function"
    },
    {
      "inputs": [],
      "name": "totalMinting",
      "outputs": [
        {
          "internalType": "uint256",
          "name": "",
          "type": "uint256"
        }
      ],
      "stateMutability": "view",
      "type": "function"
    },
    {
      "inputs": [
        {
          "internalType": "address",
          "name": "newAdmin",
          "type": "address"
        }
      ],
      "name": "transferAdmin",
      "outputs": [],
      "stateMutability": "nonpayable",
      "type": "function"
    },
    {
      "inputs": [
        {
          "internalType": "address",
          "name": "newAdmin",
          "type": "address"
        }
      ],
      "name": "transferProxyAdmin",
      "outputs": [],
      "stateMutability": "nonpayable",
      "type": "function"
    },
    {
      "inputs": [],
      "name": "uniswapV3Factory",
      "outputs": [
        {
          "internalType": "address",
          "name": "",
          "type": "address"
        }
      ],
      "stateMutability": "view",
      "type": "function"
    },
    {
      "inputs": [
        {
          "internalType": "uint256",
          "name": "_index",
          "type": "uint256"
        }
      ],
      "name": "viewMintingInfo",
      "outputs": [
        {
          "internalType": "address",
          "name": "mintAddress",
          "type": "address"
        },
        {
          "internalType": "uint256",
          "name": "mintPercents",
          "type": "uint256"
        }
      ],
      "stateMutability": "view",
      "type": "function"
    },
    {
      "inputs": [],
      "name": "wethAddress",
      "outputs": [
        {
          "internalType": "address",
          "name": "",
          "type": "address"
        }
      ],
      "stateMutability": "view",
      "type": "function"
    },
    {
      "inputs": [
        {
          "internalType": "address",
          "name": "account",
          "type": "address"
        }
      ],
      "name": "withdrawEther",
      "outputs": [],
      "stateMutability": "nonpayable",
      "type": "function"
    }
  ],
  "bytecode": "0x60c0604052601660808190527f54726561737572793a206e6f742061636365707465640000000000000000000060a09081526200004091600091906200012a565b506040805180820190915260168082527f54726561737572793a206e6f7420617070726f76656400000000000000000000602090920191825262000087916001916200012a565b506040805180820190915260178082527f54726561737572793a20696e76616c696420746f6b656e0000000000000000006020909201918252620000ce916002916200012a565b5060408051808201909152601f8082527f54726561737572793a20696e73756666696369656e7420726573657276657300602090920191825262000115916003916200012a565b503480156200012357600080fd5b506200020d565b8280546200013890620001d0565b90600052602060002090601f0160209004810192826200015c5760008555620001a7565b82601f106200017757805160ff1916838001178555620001a7565b82800160010185558215620001a7579182015b82811115620001a75782518255916020019190600101906200018a565b50620001b5929150620001b9565b5090565b5b80821115620001b55760008155600101620001ba565b600181811c90821680620001e557607f821691505b602082108114156200020757634e487b7160e01b600052602260045260246000fd5b50919050565b614fd9806200021d6000396000f3fe608060405234801561001057600080fd5b50600436106104ac5760003560e01c806393988b531161026d578063c5bb95bc11610151578063e170c19a116100ce578063f1c2689e11610092578063f1c2689e14610a81578063f2ccf1ea14610a94578063f47f2f1d14610aa7578063f908ed3714610aba578063fad1c85c14610ac3578063ffc12dae14610ad657600080fd5b8063e170c19a14610a2d578063e2cfcfee14610a40578063e94c377514610a53578063eb2cd25814610a66578063ef7c6c0f14610a6e57600080fd5b8063d11aca6211610115578063d11aca62146109d6578063d547741f146109de578063d6f9b343146109f1578063da9c886414610a07578063dc4655a114610a1a57600080fd5b8063c5bb95bc1461098c578063c62a0bd814610994578063ca0dcf16146109a7578063ca2c2a59146109b0578063ce3e39c0146109c357600080fd5b8063a44b8287116101ea578063b3bc8ae8116101ae578063b3bc8ae81461091a578063b84ef08114610922578063b8d1452f14610935578063b911135f14610948578063be72f2d314610971578063c53468f01461097957600080fd5b8063a44b8287146108d1578063aa5fc794146108e4578063aa7e445c146108f7578063af933b57146108ff578063b11a35ea1461091257600080fd5b80639982f45e116102315780639982f45e1461087b5780639a202d471461088e5780639ea6498514610896578063a0b9bca9146108a9578063a217fddf146108c957600080fd5b806393988b531461081a57806396f0bd611461084457806396f1557c1461084c57806397168c721461085f578063976b58e91461087257600080fd5b8063550d01a31161039457806375b238fc1161031157806385e36cc2116102d557806385e36cc2146107bd57806388611736146107c657806389f395de146107d95780638d71bc5b146107ec5780638e549a45146107ff57806391d148541461080757600080fd5b806375b238fc1461075457806376f2766c146107695780637875d95a1461078a578063794dde64146107975780638356ca4f146107aa57600080fd5b806365cb3a831161035857806365cb3a831461070b57806368afaca8146107135780636f1e85331461071b578063704802751461072e57806375829def1461074157600080fd5b8063550d01a3146106ac5780635b549182146106cf5780635fabdf7c146106e257806363a8fd89146106f55780636478e1921461070257600080fd5b806324d7806c1161042d578063379607f5116103f1578063379607f51461060c5780633c20af9f1461061f5780633e0f19a0146106325780634cf15858146106455780634f0e0ef31461065857806350d2a2761461068357600080fd5b806324d7806c1461059d5780632f2ff15d146105b0578063330dd345146105c357806333f21cd5146105f157806336568abe146105f957600080fd5b80631cf29893116104745780631cf298931461052a5780631f770e7b1461053f57806321320fcc146105525780632298524614610565578063248a9ca31461057a57600080fd5b806301ffc9a7146104b1578063099f0706146104d957806314fba479146104fa57806319e1f5d6146105025780631bb5e2dc14610517575b600080fd5b6104c46104bf366004614946565b610ae9565b60405190151581526020015b60405180910390f35b6104ec6104e7366004614903565b610b20565b6040519081526020016104d0565b6012546104ec565b610515610510366004614a6a565b610bc2565b005b6104ec610525366004614903565b610cca565b610532610ceb565b6040516104d09190614bf8565b61051561054d3660046147a2565b610d4d565b6104c4610560366004614903565b610da6565b6104ec600080516020614f8483398151915281565b6104ec610588366004614903565b60009081526014602052604090206001015490565b6104c46105ab3660046147a2565b610e75565b6105156105be36600461491b565b610e8f565b6104c46105d136600461498a565b600f60209081526000928352604080842090915290825290205460ff1681565b6104ec610eb9565b61051561060736600461491b565b610ec8565b61051561061a366004614903565b610f42565b61051561062d366004614903565b6111a0565b61051561064036600461491b565b611347565b6104c461065336600461491b565b6118db565b60065461066b906001600160a01b031681565b6040516001600160a01b0390911681526020016104d0565b61066b610691366004614946565b6018602052600090815260409020546001600160a01b031681565b6104c46106ba3660046147a2565b60176020526000908152604090205460ff1681565b60075461066b906001600160a01b031681565b6105156106f03660046147a2565b6119da565b6015546104c49060ff1681565b6104ec60195481565b610515611a1a565b6104ec611a59565b6104c46107293660046147a2565b611b9d565b61051561073c3660046147a2565b611bf6565b61051561074f3660046147a2565b611c33565b6104ec600080516020614f6483398151915281565b61077c610777366004614903565b611d3a565b6040516104d0929190614b62565b601a546104c49060ff1681565b6105156107a536600461491b565b611d72565b6105156107b83660046147a2565b61207f565b6104ec600c5481565b60085461066b906001600160a01b031681565b60045461066b906001600160a01b031681565b60095461066b906001600160a01b031681565b6104ec61215d565b6104c461081536600461491b565b612260565b61082d6108283660046147bc565b61228b565b6040805192151583526020830191909152016104d0565b600a546104ec565b61051561085a3660046147a2565b6123b9565b61051561086d366004614a32565b6123e9565b6104ec600d5481565b61051561088936600461481b565b61266b565b6105156129c0565b6105156108a43660046147a2565b612a0c565b6104ec6108b73660046147a2565b60106020526000908152604090205481565b6104ec600081565b61066b6108df3660046149b5565b612aa4565b6105156108f23660046147f2565b612adc565b610515612c15565b61051561090d3660046147a2565b612dc6565b6104ec612e86565b6104ec6133ff565b6105156109303660046147a2565b61342e565b6105156109433660046147a2565b61346b565b61066b610956366004614903565b6016602052600090815260409020546001600160a01b031681565b610515613533565b6105156109873660046147a2565b613563565b6104ec61362b565b6105156109a23660046147a2565b6136cd565b6104ec600a5481565b6104c46109be366004614a11565b61376e565b60055461066b906001600160a01b031681565b6104ec613836565b6105156109ec36600461491b565b6138dd565b6109f9613902565b6040516104d0929190614c0b565b61066b610a15366004614903565b613ab1565b6104c4610a283660046147a2565b613adb565b610515610a3b366004614903565b613ae7565b610515610a4e3660046147a2565b613b93565b610515610a61366004614884565b613c34565b6011546104ec565b610515610a7c366004614a32565b613cdc565b6104c4610a8f366004614a11565b613e6a565b610515610aa23660046147a2565b613f1d565b6104c4610ab53660046147a2565b61410f565b6104ec600b5481565b6104c4610ad13660046147a2565b61411b565b61077c610ae4366004614903565b614135565b60006001600160e01b03198216637965db0b60e01b1480610b1a57506301ffc9a760e01b6001600160e01b03198316145b92915050565b60048054604080516318160ddd60e01b8152905160009384936001600160a01b0316926318160ddd9281830192602092829003018186803b158015610b6457600080fd5b505afa158015610b78573d6000803e3d6000fd5b505050506040513d601f19601f82011682018060405250810190610b9c91906149f9565b90508015610bbc5780610baf8447614e9a565b610bb99190614e7a565b91505b50919050565b610bcb3361411b565b610bf05760405162461bcd60e51b8152600401610be790614df3565b60405180910390fd5b63ffffffff81161580610c0e57504263ffffffff168163ffffffff16115b610c465760405162461bcd60e51b8152602060048201526009602482015268706173732074696d6560b81b6044820152606401610be7565b8063ffffffff166019541415610c875760405162461bcd60e51b8152600401610be79060208082526004908201526373616d6560e01b604082015260600190565b63ffffffff811660198190556040519081527f888ce8b9056d3c9bd9b7160f01377154791033939aaff008fd8324740c1f329e906020015b60405180910390a150565b60138181548110610cda57600080fd5b600091825260209091200154905081565b60606011805480602002602001604051908101604052809291908181526020018280548015610d4357602002820191906000526020600020905b81546001600160a01b03168152600190910190602001808311610d25575b5050505050905090565b610d563361411b565b610d725760405162461bcd60e51b8152600401610be790614df3565b806001600160a01b038116610d995760405162461bcd60e51b8152600401610be790614d3a565b610da2826141b3565b5050565b6000600b54600a54610db6612e86565b610dc09190614e9a565b610dca9190614e7a565b82600460009054906101000a90046001600160a01b03166001600160a01b03166318160ddd6040518163ffffffff1660e01b815260040160206040518083038186803b158015610e1957600080fd5b505afa158015610e2d573d6000803e3d6000fd5b505050506040513d601f19601f82011682018060405250810190610e5191906149f9565b610e5b9190614e62565b11610e6857506001919050565b506000919050565b919050565b6000610b1a600080516020614f6483398151915283612260565b600082815260146020526040902060010154610eaa81614296565b610eb483836142a0565b505050565b6000610ec3612e86565b905090565b6001600160a01b0381163314610f385760405162461bcd60e51b815260206004820152602f60248201527f416363657373436f6e74726f6c3a2063616e206f6e6c792072656e6f756e636560448201526e103937b632b9903337b91039b2b63360891b6064820152608401610be7565b610da28282614326565b8080610f865760405162461bcd60e51b8152602060048201526013602482015272151c99585cdd5c9e4e881e995c9bc81d5a5b9d606a1b6044820152606401610be7565b601a5460ff1615610fc25760405162461bcd60e51b81526020600482015260066024820152651c185d5cd95960d21b6044820152606401610be7565b60195415801590610fdb57504263ffffffff1660195411155b61101d5760405162461bcd60e51b81526020600482015260136024820152726e6f6e6520636c61696d61626c652074696d6560681b6044820152606401610be7565b600061102883610b20565b90508061106c5760405162461bcd60e51b81526020600482015260126024820152710f4cae4de40c6d8c2d2dac2c4d8ca40cae8d60731b6044820152606401610be7565b60048054604051632770a7eb60e21b81526001600160a01b0390911691639dc29fac9161109d913391889101614b62565b602060405180830381600087803b1580156110b757600080fd5b505af11580156110cb573d6000803e3d6000fd5b505050506040513d601f19601f820116820180604052508101906110ef91906148a0565b61112b5760405162461bcd60e51b815260206004820152600d60248201526c3330b4b6103a37b990313ab93760991b6044820152606401610be7565b604051339082156108fc029083906000818181858888f19350505050158015611158573d6000803e3d6000fd5b5060408051338152602081018590529081018290527f987d620f307ff6b94d58743cb7a7509f24071586a77759b77c2d4e29f75a2f9a906060015b60405180910390a1505050565b6111a93361410f565b6111c55760405162461bcd60e51b8152600401610be790614dab565b600480546040516370a0823160e01b8152309281019290925282916001600160a01b03909116906370a082319060240160206040518083038186803b15801561120d57600080fd5b505afa158015611221573d6000803e3d6000fd5b505050506040513d601f19601f8201168201806040525081019061124591906149f9565b10156112935760405162461bcd60e51b815260206004820152601860248201527f62616c616e636520697320696e73756666696369656e742e00000000000000006044820152606401610be7565b60048054604051632770a7eb60e21b81526001600160a01b0390911691639dc29fac916112c4913091869101614b62565b602060405180830381600087803b1580156112de57600080fd5b505af11580156112f2573d6000803e3d6000fd5b505050506040513d601f19601f8201168201806040525081019061131691906148a0565b506040518181527fb87bbd0c98ee2e2458f413add923f8d52727bfb4ae90d947411c1242ff29d6d690602001610cbf565b6113503361410f565b61136c5760405162461bcd60e51b8152600401610be790614dab565b604051632e31150760e11b81526004810183905260009073__$9cfa9b0e3c0a9a6ba047022cc53a6c3f44$__90635c622a0e9060240160206040518083038186803b1580156113ba57600080fd5b505af41580156113ce573d6000803e3d6000fd5b505050506040513d601f19601f820116820180604052508101906113f2919061496e565b9050600081600a81111561141657634e487b7160e01b600052602160045260246000fd5b14156114565760405162461bcd60e51b815260206004820152600f60248201526e2727a722903832b936b4b9b9b4b7b760891b6044820152606401610be7565b600f600082600a81111561147a57634e487b7160e01b600052602160045260246000fd5b600a81111561149957634e487b7160e01b600052602160045260246000fd5b8152602080820192909252604090810160009081206001600160a01b038616825290925290205460ff1615156001146115095760405162461bcd60e51b81526020600482015260126024820152716861736e2774207065726d697373696f6e7360701b6044820152606401610be7565b6000600f600083600a81111561152f57634e487b7160e01b600052602160045260246000fd5b600a81111561154e57634e487b7160e01b600052602160045260246000fd5b8152602080820192909252604090810160009081206001600160a01b03871682529092528120805460ff1916921515929092179091558061158f848461228b565b915091508180156115f357506000600e600085600a8111156115c157634e487b7160e01b600052602160045260246000fd5b600a8111156115e057634e487b7160e01b600052602160045260246000fd5b8152602081019190915260400160002054115b15611872576001600e600085600a81111561161e57634e487b7160e01b600052602160045260246000fd5b600a81111561163d57634e487b7160e01b600052602160045260246000fd5b81526020810191909152604001600020546116589190614eb9565b8110156117e157600e600084600a81111561168357634e487b7160e01b600052602160045260246000fd5b600a8111156116a257634e487b7160e01b600052602160045260246000fd5b81526020019081526020016000206001600e600086600a8111156116d657634e487b7160e01b600052602160045260246000fd5b600a8111156116f557634e487b7160e01b600052602160045260246000fd5b81526020810191909152604001600020546117109190614eb9565b8154811061172e57634e487b7160e01b600052603260045260246000fd5b60009182526020822001546001600160a01b031690600e9085600a81111561176657634e487b7160e01b600052602160045260246000fd5b600a81111561178557634e487b7160e01b600052602160045260246000fd5b815260200190815260200160002082815481106117b257634e487b7160e01b600052603260045260246000fd5b9060005260206000200160006101000a8154816001600160a01b0302191690836001600160a01b031602179055505b600e600084600a81111561180557634e487b7160e01b600052602160045260246000fd5b600a81111561182457634e487b7160e01b600052602160045260246000fd5b815260200190815260200160002080548061184f57634e487b7160e01b600052603160045260246000fd5b600082815260209020810160001990810180546001600160a01b03191690550190555b82600a81111561189257634e487b7160e01b600052602160045260246000fd5b604080516001600160a01b0387168152600060208201527f3c6eb44f3a083ba65fca4eae750beac5efa33a89dec0e50004b62cbb835cc0b6910160405180910390a25050505050565b6000600f600073__$9cfa9b0e3c0a9a6ba047022cc53a6c3f44$__635c622a0e866040518263ffffffff1660e01b815260040161191a91815260200190565b60206040518083038186803b15801561193257600080fd5b505af4158015611946573d6000803e3d6000fd5b505050506040513d601f19601f8201168201806040525081019061196a919061496e565b600a81111561198957634e487b7160e01b600052602160045260246000fd5b600a8111156119a857634e487b7160e01b600052602160045260246000fd5b8152602080820192909252604090810160009081206001600160a01b038616825290925290205460ff16905092915050565b6119e33361410f565b6119ff5760405162461bcd60e51b8152600401610be790614dab565b611a17600080516020614f84833981519152826138dd565b50565b611a233361411b565b611a3f5760405162461bcd60e51b8152600401610be790614df3565b611a57600080516020614f8483398151915233610ec8565b565b6009546000906001600160a01b031615801590611b025750600960009054906101000a90046001600160a01b03166001600160a01b0316631a6865026040518163ffffffff1660e01b815260040160206040518083038186803b158015611abf57600080fd5b505afa158015611ad3573d6000803e3d6000fd5b505050506040513d601f19601f82011682018060405250810190611af791906149d2565b6001600160801b0316155b15611b1757600a54600b54610ec39190614e7a565b600560009054906101000a90046001600160a01b03166001600160a01b03166368afaca86040518163ffffffff1660e01b815260040160206040518083038186803b158015611b6557600080fd5b505afa158015611b79573d6000803e3d6000fd5b505050506040513d601f19601f82011682018060405250810190610ec391906149f9565b6000600f81600a5b600a811115611bc457634e487b7160e01b600052602160045260246000fd5b8152602080820192909252604090810160009081206001600160a01b039095168152939091529091205460ff16919050565b611bff3361410f565b611c1b5760405162461bcd60e51b8152600401610be790614dab565b611a17600080516020614f6483398151915282610e8f565b611c3c33610e75565b80611c4b5750611c4b3361410f565b611c675760405162461bcd60e51b8152600401610be790614d69565b6001600160a01b038116611cb85760405162461bcd60e51b815260206004820152601860248201527741636365737369626c653a207a65726f206164647265737360401b6044820152606401610be7565b336001600160a01b0382161415611d0a5760405162461bcd60e51b815260206004820152601660248201527520b1b1b2b9b9b4b136329d1039b0b6b29030b236b4b760511b6044820152606401610be7565b611d22600080516020614f6483398151915282610e8f565b611a17600080516020614f6483398151915233610ec8565b60128181548110611d4a57600080fd5b6000918252602090912060029091020180546001909101546001600160a01b03909116915082565b611d7b3361410f565b611d975760405162461bcd60e51b8152600401610be790614dab565b604051632e31150760e11b81526004810183905260009073__$9cfa9b0e3c0a9a6ba047022cc53a6c3f44$__90635c622a0e9060240160206040518083038186803b158015611de557600080fd5b505af4158015611df9573d6000803e3d6000fd5b505050506040513d601f19601f82011682018060405250810190611e1d919061496e565b9050600081600a811115611e4157634e487b7160e01b600052602160045260246000fd5b1415611e815760405162461bcd60e51b815260206004820152600f60248201526e2727a722903832b936b4b9b9b4b7b760891b6044820152606401610be7565b600f600082600a811115611ea557634e487b7160e01b600052602160045260246000fd5b600a811115611ec457634e487b7160e01b600052602160045260246000fd5b8152602080820192909252604090810160009081206001600160a01b038616825290925290205460ff1615611f295760405162461bcd60e51b815260206004820152600b60248201526a185b1c9958591e481cd95d60aa1b6044820152606401610be7565b6001600f600083600a811115611f4f57634e487b7160e01b600052602160045260246000fd5b600a811115611f6e57634e487b7160e01b600052602160045260246000fd5b8152602080820192909252604090810160009081206001600160a01b03871682529092528120805460ff191692151592909217909155611fae838361228b565b5090508061203557600e600083600a811115611fda57634e487b7160e01b600052602160045260246000fd5b600a811115611ff957634e487b7160e01b600052602160045260246000fd5b8152602080820192909252604001600090812080546001810182559082529190200180546001600160a01b0319166001600160a01b0385161790555b604080516001600160a01b03851681526001602082015285917f3c6eb44f3a083ba65fca4eae750beac5efa33a89dec0e50004b62cbb835cc0b6910160405180910390a250505050565b6120883361410f565b6120a45760405162461bcd60e51b8152600401610be790614dab565b6001600160a01b0381166120f55760405162461bcd60e51b815260206004820152601860248201527741636365737369626c653a207a65726f206164647265737360401b6044820152606401610be7565b336001600160a01b03821614156121475760405162461bcd60e51b815260206004820152601660248201527520b1b1b2b9b9b4b136329d1039b0b6b29030b236b4b760511b6044820152606401610be7565b612152600082610e8f565b611a17600033610ec8565b6009546000906001600160a01b0316158015906122065750600960009054906101000a90046001600160a01b03166001600160a01b0316631a6865026040518163ffffffff1660e01b815260040160206040518083038186803b1580156121c357600080fd5b505afa1580156121d7573d6000803e3d6000fd5b505050506040513d601f19601f820116820180604052508101906121fb91906149d2565b6001600160801b0316155b156122125750600a5490565b600560009054906101000a90046001600160a01b03166001600160a01b0316638e549a456040518163ffffffff1660e01b815260040160206040518083038186803b158015611b6557600080fd5b60009182526014602090815260408084206001600160a01b0393909316845291905290205460ff1690565b6000806000600e600085600a8111156122b457634e487b7160e01b600052602160045260246000fd5b600a8111156122d357634e487b7160e01b600052602160045260246000fd5b815260200190815260200160002080548060200260200160405190810160405280929190818152602001828054801561233557602002820191906000526020600020905b81546001600160a01b03168152600190910190602001808311612317575b5050505050905060005b81518110156123a85781818151811061236857634e487b7160e01b600052603260045260246000fd5b60200260200101516001600160a01b0316866001600160a01b03161415612396576001935091506123b29050565b806123a081614f17565b91505061233f565b5060008092509250505b9250929050565b6123c23361410f565b6123de5760405162461bcd60e51b8152600401610be790614dab565b611a1760008261438d565b6123f23361411b565b61240e5760405162461bcd60e51b8152600401610be790614df3565b82600a5414158061241f5750600082115b61245f5760405162461bcd60e51b8152602060048201526011602482015270636865636b20696e7075742076616c756560781b6044820152606401610be7565b80156125425761246f8383613e6a565b6124b25760405162461bcd60e51b8152602060048201526014602482015273756e617661696c61626c65206d696e745261746560601b6044820152606401610be7565b811561253d5760048054604051632770a7eb60e21b81526001600160a01b0390911691639dc29fac916124e9913091879101614b62565b602060405180830381600087803b15801561250357600080fd5b505af1158015612517573d6000803e3d6000fd5b505050506040513d601f19601f8201168201806040525081019061253b91906148a0565b505b61261a565b61254c838361376e565b61258f5760405162461bcd60e51b8152602060048201526014602482015273756e617661696c61626c65206d696e745261746560601b6044820152606401610be7565b811561261a57600480546040516340c10f1960e01b81526001600160a01b03909116916340c10f19916125c6913091879101614b62565b602060405180830381600087803b1580156125e057600080fd5b505af11580156125f4573d6000803e3d6000fd5b505050506040513d601f19601f8201168201806040525081019061261891906148a0565b505b82600a541461262957600a8390555b6040805184815260208101849052821515918101919091527f0bb82b7043e6f4cbb36b3ff82f2678d0da8dc4d24c60607d3ea6c4a0b5116c9e90606001611193565b6126743361411b565b6126905760405162461bcd60e51b8152600401610be790614df3565b826126cb5760405162461bcd60e51b815260206004820152600b60248201526a0f4cae4de40d8cadccee8d60ab1b6044820152606401610be7565b8281146127095760405162461bcd60e51b815260206004820152600c60248201526b0eee4dedcce40d8cadccee8d60a31b6044820152606401610be7565b6000600d81905583905b8181101561284f57600086868381811061273d57634e487b7160e01b600052603260045260246000fd5b905060200201602081019061275291906147a2565b6001600160a01b031614156127985760405162461bcd60e51b815260206004820152600c60248201526b7a65726f206164647265737360a01b6044820152606401610be7565b60008484838181106127ba57634e487b7160e01b600052603260045260246000fd5b90506020020135116127ff5760405162461bcd60e51b815260206004820152600e60248201526d7a65726f205f70657263656e747360901b6044820152606401610be7565b83838281811061281f57634e487b7160e01b600052603260045260246000fd5b90506020020135600d60008282546128379190614e62565b9091555081905061284781614f17565b915050612713565b50612710600d54106128955760405162461bcd60e51b815260206004820152600f60248201526e77726f6e67205f70657263656e747360881b6044820152606401610be7565b6128a160126000614702565b60005b8181101561297b57601260405180604001604052808888858181106128d957634e487b7160e01b600052603260045260246000fd5b90506020020160208101906128ee91906147a2565b6001600160a01b0316815260200186868581811061291c57634e487b7160e01b600052603260045260246000fd5b60209081029290920135909252835460018082018655600095865294829020845160029092020180546001600160a01b0319166001600160a01b039092169190911781559201519190920155508061297381614f17565b9150506128a4565b507ffcb8b54542c57e79d857f0e43e5697d82605478358e9bfd65755f1ac4f7c467c858585856040516129b19493929190614b7b565b60405180910390a15050505050565b6129c933610e75565b806129d857506129d83361410f565b6129f45760405162461bcd60e51b8152600401610be790614d69565b611a57600080516020614f6483398151915233610ec8565b612a1533613adb565b612a585760405162461bcd60e51b815260206004820152601460248201527331b0b63632b91034b9903737ba103137b73232b960611b6044820152606401610be7565b6001600160a01b038116612a9b5760405162461bcd60e51b815260206004820152600a6024820152691e995c9bc8185cdcd95d60b21b6044820152606401610be7565b611a17816141b3565b600e6020528160005260406000208181548110612ac057600080fd5b6000918252602090912001546001600160a01b03169150829050565b612ae533611b9d565b600190612b055760405162461bcd60e51b8152600401610be79190614c94565b506001600160a01b03821615801590612b1e5750600081115b612b6a5760405162461bcd60e51b815260206004820152601860248201527f7a65726f20726563697069656e74206f7220616d6f756e7400000000000000006044820152606401610be7565b80612b73613836565b1015612bc15760405162461bcd60e51b815260206004820181905260248201527f74726561737572792062616c616e636520697320696e73756666696369656e746044820152606401610be7565b600454612bd8906001600160a01b03168383614397565b7fac14ca7b339c0e7e9533002fffbecb915441d1cce29e21355ecccfe1b21508518282604051612c09929190614b62565b60405180910390a15050565b6000600c54118015612c2957506000600d54115b8015612c36575060125415155b612c825760405162461bcd60e51b815260206004820152601b60248201527f4e6f2066756e6473206f72206e6f20646973747269627574696f6e00000000006044820152606401610be7565b600c5460005b601254811015612dc0576000600d5460128381548110612cb857634e487b7160e01b600052603260045260246000fd5b906000526020600020906002020160010154600c54612cd79190614e9a565b612ce19190614e7a565b9050612ced8184614eb9565b9250612d3a60128381548110612d1357634e487b7160e01b600052603260045260246000fd5b60009182526020909120600290910201546004546001600160a01b03908116911683614397565b7f4d24075306dc3984e69d480aab0d727ad8be3e8a7bb8003cf65dfac2ac36fc4360128381548110612d7c57634e487b7160e01b600052603260045260246000fd5b6000918252602090912060029091020154604051612da5916001600160a01b0316908490614b62565b60405180910390a15080612db881614f17565b915050612c88565b50600c55565b612dcf3361411b565b612deb5760405162461bcd60e51b8152600401610be790614df3565b806001600160a01b038116612e125760405162461bcd60e51b8152600401610be790614d3a565b60004711612e515760405162461bcd60e51b815260206004820152600c60248201526b7a65726f2062616c616e636560a01b6044820152606401610be7565b6040516001600160a01b038316904780156108fc02916000818181858888f19350505050158015610eb4573d6000803e3d6000fd5b601154600090819081908190815b818110156133465780612f2a57600560009054906101000a90046001600160a01b03166001600160a01b03166368afaca86040518163ffffffff1660e01b815260040160206040518083038186803b158015612eef57600080fd5b505afa158015612f03573d6000803e3d6000fd5b505050506040513d601f19601f82011682018060405250810190612f2791906149f9565b92505b600654601180546001600160a01b039092169183908110612f5b57634e487b7160e01b600052603260045260246000fd5b6000918252602090912001546001600160a01b03161415613006576006546040516370a0823160e01b81523060048201526001600160a01b03909116906370a082319060240160206040518083038186803b158015612fb957600080fd5b505afa158015612fcd573d6000803e3d6000fd5b505050506040513d601f19601f82011682018060405250810190612ff191906149f9565b612ffb9086614e62565b945060019350613334565b60006001600160a01b03166011828154811061303257634e487b7160e01b600052603260045260246000fd5b6000918252602090912001546001600160a01b0316148015906130995750600454601180546001600160a01b03909216918390811061308157634e487b7160e01b600052603260045260246000fd5b6000918252602090912001546001600160a01b031614155b15613334576000806000600560009054906101000a90046001600160a01b03166001600160a01b031663bb6f48ba601186815481106130e857634e487b7160e01b600052603260045260246000fd5b600091825260209091200154601180546001600160a01b03909216918890811061312257634e487b7160e01b600052603260045260246000fd5b6000918252602090912001546040516370a0823160e01b81523060048201526001600160a01b03909116906370a082319060240160206040518083038186803b15801561316e57600080fd5b505afa158015613182573d6000803e3d6000fd5b505050506040513d601f19601f820116820180604052508101906131a691906149f9565b6040518363ffffffff1660e01b81526004016131c3929190614b62565b60806040518083038186803b1580156131db57600080fd5b505afa1580156131ef573d6000803e3d6000fd5b505050506040513d601f19601f8201168201806040525081019061321391906148bc565b9350509250925082156132315761322a8189614e62565b9750613330565b8115613330576009546001600160a01b0316158015906132dd5750600960009054906101000a90046001600160a01b03166001600160a01b0316631a6865026040518163ffffffff1660e01b815260040160206040518083038186803b15801561329a57600080fd5b505afa1580156132ae573d6000803e3d6000fd5b505050506040513d601f19601f820116820180604052508101906132d291906149d2565b6001600160801b0316155b1561330657600a54600b546132f29083614e9a565b6132fc9190614e7a565b61322a9089614e62565b670de0b6b3a76400006133198783614e9a565b6133239190614e7a565b61332d9089614e62565b97505b5050505b8061333e81614f17565b915050612e94565b508215801561335f57506006546001600160a01b031615155b156133ec576006546040516370a0823160e01b81523060048201526001600160a01b03909116906370a082319060240160206040518083038186803b1580156133a757600080fd5b505afa1580156133bb573d6000803e3d6000fd5b505050506040513d601f19601f820116820180604052508101906133df91906149f9565b6133e99085614e62565b93505b6133f64785614e62565b95945050505050565b6000670de0b6b3a764000061341261215d565b61341a612e86565b6134249190614e9a565b610ec39190614e7a565b6134373361410f565b6134535760405162461bcd60e51b8152600401610be790614dab565b611a17600080516020614f8483398151915282610e8f565b806001600160a01b0381166134925760405162461bcd60e51b8152600401610be790614d3a565b61349b3361411b565b6134b75760405162461bcd60e51b8152600401610be790614df3565b6006546001600160a01b03838116911614156134e55760405162461bcd60e51b8152600401610be790614e3c565b600680546001600160a01b0319166001600160a01b0384169081179091556040519081527fff8ab24f675c1eee431de04d5ba93b5d6e1e947359771788c5db3968d10c2e3e90602001612c09565b61353c3361410f565b6135585760405162461bcd60e51b8152600401610be790614dab565b611a57600033610ec8565b806001600160a01b03811661358a5760405162461bcd60e51b8152600401610be790614d3a565b6135933361411b565b6135af5760405162461bcd60e51b8152600401610be790614df3565b6005546001600160a01b03838116911614156135dd5760405162461bcd60e51b8152600401610be790614e3c565b600580546001600160a01b0319166001600160a01b0384169081179091556040519081527f7816a90568840c698b302fddaa32068d3ac1ecf5aa9ab4060e2ff9463583c23c90602001612c09565b6000600460009054906101000a90046001600160a01b03166001600160a01b03166318160ddd6040518163ffffffff1660e01b815260040160206040518083038186803b15801561367b57600080fd5b505afa15801561368f573d6000803e3d6000fd5b505050506040513d601f19601f820116820180604052508101906136b391906149f9565b6136bb612e86565b61342490670de0b6b3a7640000614e9a565b6136d63361410f565b6136f25760405162461bcd60e51b8152600401610be790614dab565b6009546001600160a01b03828116911614156137205760405162461bcd60e51b8152600401610be790614e3c565b600980546001600160a01b0319166001600160a01b0383169081179091556040519081527fc01e12e9bd0b3827f706592d13f881c40e918e90ffd9e3bb9b771643a608685290602001610cbf565b6000600b548361377c612e86565b6137869190614e9a565b6137909190614e7a565b82600460009054906101000a90046001600160a01b03166001600160a01b03166318160ddd6040518163ffffffff1660e01b815260040160206040518083038186803b1580156137df57600080fd5b505afa1580156137f3573d6000803e3d6000fd5b505050506040513d601f19601f8201168201806040525081019061381791906149f9565b6138219190614e62565b1161382e57506001610b1a565b506000610b1a565b600480546040516370a0823160e01b8152309281019290925260009182916001600160a01b0316906370a082319060240160206040518083038186803b15801561387f57600080fd5b505afa158015613893573d6000803e3d6000fd5b505050506040513d601f19601f820116820180604052508101906138b791906149f9565b9050600c5481106138d557600c546138cf9082614eb9565b91505090565b600091505090565b6000828152601460205260409020600101546138f881614296565b610eb48383614326565b60125460609081908067ffffffffffffffff81111561393157634e487b7160e01b600052604160045260246000fd5b60405190808252806020026020018201604052801561395a578160200160208202803683370190505b5092508067ffffffffffffffff81111561398457634e487b7160e01b600052604160045260246000fd5b6040519080825280602002602001820160405280156139ad578160200160208202803683370190505b50915060005b81811015613aab57601281815481106139dc57634e487b7160e01b600052603260045260246000fd5b600091825260209091206002909102015484516001600160a01b0390911690859083908110613a1b57634e487b7160e01b600052603260045260246000fd5b60200260200101906001600160a01b031690816001600160a01b03168152505060128181548110613a5c57634e487b7160e01b600052603260045260246000fd5b906000526020600020906002020160010154838281518110613a8e57634e487b7160e01b600052603260045260246000fd5b602090810291909101015280613aa381614f17565b9150506139b3565b50509091565b60118181548110613ac157600080fd5b6000918252602090912001546001600160a01b0316905081565b6000600f816009611ba5565b613af03361410f565b613b0c5760405162461bcd60e51b8152600401610be790614dab565b80600b5414158015613b1e5750600081115b613b5e5760405162461bcd60e51b8152602060048201526011602482015270636865636b20696e7075742076616c756560781b6044820152606401610be7565b600b8190556040518181527f9ff242a6ecf76b19e165c80131c467a8fce34056d7bd44c8ff30726836e580bc90602001610cbf565b613b9c3361410f565b613bb85760405162461bcd60e51b8152600401610be790614dab565b6007546001600160a01b0382811691161415613be65760405162461bcd60e51b8152600401610be790614e3c565b600780546001600160a01b0319166001600160a01b0383169081179091556040519081527f844bdf9a7473f7dee84b48585eff441c1ed9044b2e04508067ad71b9194cdf0b90602001610cbf565b613c3d3361411b565b613c595760405162461bcd60e51b8152600401610be790614df3565b601a5460ff1615158115151415613c9b5760405162461bcd60e51b8152600401610be79060208082526004908201526373616d6560e01b604082015260600190565b601a805460ff19168215159081179091556040519081527f65863261e3d8cf91cde0da0d2d100faecbefabc2b12534b9c1b3d4c4eeb868f490602001610cbf565b8280613d205760405162461bcd60e51b8152602060048201526013602482015272151c99585cdd5c9e4e881e995c9bc81d5a5b9d606a1b6044820152606401610be7565b613d2933613adb565b600190613d495760405162461bcd60e51b8152600401610be79190614c94565b50600480546040516340c10f1960e01b81526001600160a01b03909116916340c10f1991613d7b913091899101614b62565b602060405180830381600087803b158015613d9557600080fd5b505af1158015613da9573d6000803e3d6000fd5b505050506040513d601f19601f82011682018060405250810190613dcd91906148a0565b50818015613ddd57506000600d54115b15613e1e57600d5461271090613df38587614eb9565b613dfd9190614e9a565b613e079190614e7a565b600c6000828254613e189190614e62565b90915550505b6040805185815260208101859052831515918101919091527fe4e4eb0d844b2de93cf4217b8f1937dee90696f25ed5fa3ae4a023ca69d54bb3906060015b60405180910390a150505050565b6000600b5483613e78612e86565b613e829190614e9a565b613e8c9190614e7a565b82600460009054906101000a90046001600160a01b03166001600160a01b03166318160ddd6040518163ffffffff1660e01b815260040160206040518083038186803b158015613edb57600080fd5b505afa158015613eef573d6000803e3d6000fd5b505050506040513d601f19601f82011682018060405250810190613f1391906149f9565b6138219190614eb9565b613f263361411b565b613f425760405162461bcd60e51b8152600401610be790614df3565b806001600160a01b038116613f695760405162461bcd60e51b8152600401610be790614d3a565b6001600160a01b038216600090815260106020526040902054613fc35760405162461bcd60e51b81526020600482015260126024820152716e6f206261636b696e67206164647265737360701b6044820152606401610be7565b6011546001600160a01b038316600090815260106020526040812054613feb90600190614eb9565b9050613ff8600183614eb9565b81101561409357601161400c600184614eb9565b8154811061402a57634e487b7160e01b600052603260045260246000fd5b600091825260209091200154601180546001600160a01b03909216918390811061406457634e487b7160e01b600052603260045260246000fd5b9060005260206000200160006101000a8154816001600160a01b0302191690836001600160a01b031602179055505b60118054806140b257634e487b7160e01b600052603160045260246000fd5b6000828152602090819020600019908301810180546001600160a01b03191690559091019091556040516001600160a01b03861681527e5e4bdc7ff4f434ef45e9b73093b5ee11ebd056f46704bb4f66e059f18b14259101613e5c565b6000610b1a8183612260565b6000610b1a600080516020614f8483398151915283612260565b6000806012838154811061415957634e487b7160e01b600052603260045260246000fd5b6000918252602090912060029091020154601280546001600160a01b03909216918590811061419857634e487b7160e01b600052603260045260246000fd5b90600052602060002090600202016001015491509150915091565b6001600160a01b0381166000908152601060205260409020541561420a5760405162461bcd60e51b815260206004820152600e60248201526d30b63932b0b23c9030b23232b21760911b6044820152606401610be7565b601180546001810182557f31ecc21a745e3968a04e9570e4425bc18fa8019c68028196b546d1669c200c680180546001600160a01b0319166001600160a01b038416908117909155905460008281526010602090815260409182902092909255519182527f51d46aa62889dada289ca574cb63cef7f51a70de054ed7feac6b783e6f7bd4a89101610cbf565b611a1781336144ae565b6142aa8282612260565b610da25760008281526014602090815260408083206001600160a01b03851684529091529020805460ff191660011790556142e23390565b6001600160a01b0316816001600160a01b0316837f2f8788117e7eff1d82e926ec794901d17c78024a50270940304540a733656f0d60405160405180910390a45050565b6143308282612260565b15610da25760008281526014602090815260408083206001600160a01b0385168085529252808320805460ff1916905551339285917ff6391f5c32d9c69d2a47ea670b442974b53935d1edc7fd64eb21e047a839171b9190a45050565b610da282826142a0565b600080846001600160a01b031663a9059cbb60e01b85856040516024016143bf929190614b62565b60408051601f198184030181529181526020820180516001600160e01b03166001600160e01b03199094169390931790925290516143fd9190614ad1565b6000604051808303816000865af19150503d806000811461443a576040519150601f19603f3d011682016040523d82523d6000602084013e61443f565b606091505b509150915081801561446957508051158061446957508080602001905181019061446991906148a0565b6144a75760405162461bcd60e51b815260206004820152600f60248201526e1514905394d1915497d19052531151608a1b6044820152606401610be7565b5050505050565b6144b88282612260565b610da2576144c581614507565b6144d0836020614519565b6040516020016144e1929190614aed565b60408051601f198184030181529082905262461bcd60e51b8252610be791600401614c61565b6060610b1a6001600160a01b03831660145b60606000614528836002614e9a565b614533906002614e62565b67ffffffffffffffff81111561455957634e487b7160e01b600052604160045260246000fd5b6040519080825280601f01601f191660200182016040528015614583576020820181803683370190505b509050600360fc1b816000815181106145ac57634e487b7160e01b600052603260045260246000fd5b60200101906001600160f81b031916908160001a905350600f60fb1b816001815181106145e957634e487b7160e01b600052603260045260246000fd5b60200101906001600160f81b031916908160001a905350600061460d846002614e9a565b614618906001614e62565b90505b60018111156146ac576f181899199a1a9b1b9c1cb0b131b232b360811b85600f166010811061465a57634e487b7160e01b600052603260045260246000fd5b1a60f81b82828151811061467e57634e487b7160e01b600052603260045260246000fd5b60200101906001600160f81b031916908160001a90535060049490941c936146a581614f00565b905061461b565b5083156146fb5760405162461bcd60e51b815260206004820181905260248201527f537472696e67733a20686578206c656e67746820696e73756666696369656e746044820152606401610be7565b9392505050565b5080546000825560020290600052602060002090810190611a1791905b808211156147445780546001600160a01b03191681556000600182015560020161471f565b5090565b80356001600160a01b0381168114610e7057600080fd5b60008083601f840112614770578182fd5b50813567ffffffffffffffff811115614787578182fd5b6020830191508360208260051b85010111156123b257600080fd5b6000602082840312156147b3578081fd5b6146fb82614748565b600080604083850312156147ce578081fd5b6147d783614748565b915060208301356147e781614f56565b809150509250929050565b60008060408385031215614804578182fd5b61480d83614748565b946020939093013593505050565b60008060008060408587031215614830578182fd5b843567ffffffffffffffff80821115614847578384fd5b6148538883890161475f565b9096509450602087013591508082111561486b578384fd5b506148788782880161475f565b95989497509550505050565b600060208284031215614895578081fd5b81356146fb81614f48565b6000602082840312156148b1578081fd5b81516146fb81614f48565b600080600080608085870312156148d1578384fd5b84516148dc81614f48565b60208601519094506148ed81614f48565b6040860151606090960151949790965092505050565b600060208284031215614914578081fd5b5035919050565b6000806040838503121561492d578182fd5b8235915061493d60208401614748565b90509250929050565b600060208284031215614957578081fd5b81356001600160e01b0319811681146146fb578182fd5b60006020828403121561497f578081fd5b81516146fb81614f56565b6000806040838503121561499c578182fd5b82356149a781614f56565b915061493d60208401614748565b600080604083850312156149c7578081fd5b823561480d81614f56565b6000602082840312156149e3578081fd5b81516001600160801b03811681146146fb578182fd5b600060208284031215614a0a578081fd5b5051919050565b60008060408385031215614a23578182fd5b50508035926020909101359150565b600080600060608486031215614a46578081fd5b83359250602084013591506040840135614a5f81614f48565b809150509250925092565b600060208284031215614a7b578081fd5b813563ffffffff811681146146fb578182fd5b6000815180845260208085019450808401835b83811015614ac65781516001600160a01b031687529582019590820190600101614aa1565b509495945050505050565b60008251614ae3818460208701614ed0565b9190910192915050565b7f416363657373436f6e74726f6c3a206163636f756e7420000000000000000000815260008351614b25816017850160208801614ed0565b7001034b99036b4b9b9b4b733903937b6329607d1b6017918401918201528351614b56816028840160208801614ed0565b01602801949350505050565b6001600160a01b03929092168252602082015260400190565b6040808252810184905260008560608301825b87811015614bbc576001600160a01b03614ba784614748565b16825260209283019290910190600101614b8e565b5083810360208501528481526001600160fb1b03851115614bdb578283fd5b8460051b9150818660208301370160200190815295945050505050565b6020815260006146fb6020830184614a8e565b604081526000614c1e6040830185614a8e565b828103602084810191909152845180835285820192820190845b81811015614c5457845183529383019391830191600101614c38565b5090979650505050505050565b6020815260008251806020840152614c80816040850160208701614ed0565b601f01601f19169190910160400192915050565b6000602080835281845483600182811c915080831680614cb557607f831692505b858310811415614cd357634e487b7160e01b87526022600452602487fd5b878601838152602001818015614cf05760018114614d0157614d2b565b60ff19861682528782019650614d2b565b60008b815260209020895b86811015614d2557815484820152908501908901614d0c565b83019750505b50949998505050505050505050565b60208082526015908201527454726561737572793a7a65726f206164647265737360581b604082015260600190565b60208082526022908201527f41636365737369626c653a2043616c6c6572206973206e6f7420616e2061646d60408201526134b760f11b606082015260800190565b60208082526028908201527f41636365737369626c653a2043616c6c6572206973206e6f7420616e2070726f6040820152673c3c9030b236b4b760c11b606082015260800190565b60208082526029908201527f41636365737369626c653a2043616c6c6572206973206e6f7420616e20706f6c60408201526834b1bc9030b236b4b760b91b606082015260800190565b6020808252600c908201526b73616d65206164647265737360a01b604082015260600190565b60008219821115614e7557614e75614f32565b500190565b600082614e9557634e487b7160e01b81526012600452602481fd5b500490565b6000816000190483118215151615614eb457614eb4614f32565b500290565b600082821015614ecb57614ecb614f32565b500390565b60005b83811015614eeb578181015183820152602001614ed3565b83811115614efa576000848401525b50505050565b600081614f0f57614f0f614f32565b506000190190565b6000600019821415614f2b57614f2b614f32565b5060010190565b634e487b7160e01b600052601160045260246000fd5b8015158114611a1757600080fd5b600b8110611a1757600080fdfedf8b4c520ffe197c5343c6f5aec59570151ef9a492f2c624fd45ddde6135ec42fb5864e8ff833c3cb2d2d08505e82ff02a43554c74a35d4f5a64e85261278311a2646970667358221220fb9847c180171821f97d5ae91d0d711e5e1c9af02725e9f744a54218ab0240cf64736f6c63430008040033",
  "linkReferences": {
    "contracts/libraries/LibTreasury.sol": {
      "LibTreasury": [
        {
          "length": 20,
          "start": 5538
        },
        {
          "length": 20,
          "start": 6912
        },
        {
          "length": 20,
          "start": 8141
        }
      ]
    }
  },
  "deployedLinkReferences": {
    "contracts/libraries/LibTreasury.sol": {
      "LibTreasury": [
        {
          "length": 20,
          "start": 4997
        },
        {
          "length": 20,
          "start": 6371
        },
        {
          "length": 20,
          "start": 7600
        }
      ]
    }
  }
}