{
  "_format": "hh-sol-artifact-1",
  "contractName": "BondDepositoryV1_5",
  "sourceName": "contracts/BondDepositoryV1_5.sol",
  "abi": [
    {
      "inputs": [],
      "stateMutability": "nonpayable",
      "type": "constructor"
    },
    {
      "anonymous": false,
      "inputs": [
        {
          "indexed": false,
          "internalType": "uint256",
          "name": "_marketId",
          "type": "uint256"
        },
        {
          "indexed": false,
          "internalType": "address",
          "name": "bonusRatesAddress",
          "type": "address"
        },
        {
          "indexed": false,
          "internalType": "uint256",
          "name": "bonusRatesId",
          "type": "uint256"
        }
      ],
      "name": "ChangedBonusRateInfo",
      "type": "event"
    },
    {
      "anonymous": false,
      "inputs": [
        {
          "indexed": false,
          "internalType": "uint256",
          "name": "_marketId",
          "type": "uint256"
        },
        {
          "indexed": false,
          "internalType": "bool",
          "name": "_increaseFlag",
          "type": "bool"
        },
        {
          "indexed": false,
          "internalType": "uint256",
          "name": "_increaseAmount",
          "type": "uint256"
        }
      ],
      "name": "ChangedCapacity",
      "type": "event"
    },
    {
      "anonymous": false,
      "inputs": [
        {
          "indexed": false,
          "internalType": "uint256",
          "name": "_marketId",
          "type": "uint256"
        },
        {
          "indexed": false,
          "internalType": "uint256",
          "name": "closeTime",
          "type": "uint256"
        }
      ],
      "name": "ChangedCloseTime",
      "type": "event"
    },
    {
      "anonymous": false,
      "inputs": [
        {
          "indexed": false,
          "internalType": "uint256",
          "name": "_marketId",
          "type": "uint256"
        },
        {
          "indexed": false,
          "internalType": "uint256",
          "name": "_tosPrice",
          "type": "uint256"
        }
      ],
      "name": "ChangedLowerPriceLimit",
      "type": "event"
    },
    {
      "anonymous": false,
      "inputs": [
        {
          "indexed": false,
          "internalType": "address",
          "name": "oralceLibrary",
          "type": "address"
        },
        {
          "indexed": false,
          "internalType": "address",
          "name": "uniswapFactory",
          "type": "address"
        }
      ],
      "name": "ChangedOracleLibrary",
      "type": "event"
    },
    {
      "anonymous": false,
      "inputs": [
        {
          "indexed": false,
          "internalType": "uint256",
          "name": "_marketId",
          "type": "uint256"
        },
        {
          "indexed": false,
          "internalType": "address[]",
          "name": "_pools",
          "type": "address[]"
        }
      ],
      "name": "ChangedPools",
      "type": "event"
    },
    {
      "anonymous": false,
      "inputs": [
        {
          "indexed": false,
          "internalType": "uint256",
          "name": "_marketId",
          "type": "uint256"
        },
        {
          "indexed": false,
          "internalType": "bytes[]",
          "name": "pathes",
          "type": "bytes[]"
        }
      ],
      "name": "ChangedPricePathInfo",
      "type": "event"
    },
    {
      "anonymous": false,
      "inputs": [
        {
          "indexed": false,
          "internalType": "uint256",
          "name": "amount",
          "type": "uint256"
        }
      ],
      "name": "ChangedRemainingTosTolerance",
      "type": "event"
    },
    {
      "anonymous": false,
      "inputs": [
        {
          "indexed": false,
          "internalType": "uint256",
          "name": "marketId",
          "type": "uint256"
        }
      ],
      "name": "ClosedMarket",
      "type": "event"
    },
    {
      "anonymous": false,
      "inputs": [
        {
          "indexed": false,
          "internalType": "uint256",
          "name": "marketId",
          "type": "uint256"
        },
        {
          "indexed": false,
          "internalType": "address",
          "name": "token",
          "type": "address"
        },
        {
          "indexed": false,
          "internalType": "uint256[3]",
          "name": "marketInfos",
          "type": "uint256[3]"
        },
        {
          "indexed": false,
          "internalType": "address",
          "name": "bonusRatesAddress",
          "type": "address"
        },
        {
          "indexed": false,
          "internalType": "uint256",
          "name": "bonusRatesId",
          "type": "uint256"
        },
        {
          "indexed": false,
          "internalType": "uint32",
          "name": "startTime",
          "type": "uint32"
        },
        {
          "indexed": false,
          "internalType": "uint32",
          "name": "endTime",
          "type": "uint32"
        },
        {
          "indexed": false,
          "internalType": "bytes[]",
          "name": "pathes",
          "type": "bytes[]"
        }
      ],
      "name": "CreatedMarket",
      "type": "event"
    },
    {
      "anonymous": false,
      "inputs": [
        {
          "indexed": false,
          "internalType": "address",
          "name": "user",
          "type": "address"
        },
        {
          "indexed": false,
          "internalType": "uint256",
          "name": "marketId",
          "type": "uint256"
        },
        {
          "indexed": false,
          "internalType": "uint256",
          "name": "amount",
          "type": "uint256"
        },
        {
          "indexed": false,
          "internalType": "uint256",
          "name": "payout",
          "type": "uint256"
        },
        {
          "indexed": false,
          "internalType": "bool",
          "name": "isEth",
          "type": "bool"
        },
        {
          "indexed": false,
          "internalType": "uint256",
          "name": "mintAmount",
          "type": "uint256"
        }
      ],
      "name": "Deposited",
      "type": "event"
    },
    {
      "anonymous": false,
      "inputs": [
        {
          "indexed": false,
          "internalType": "address",
          "name": "user",
          "type": "address"
        },
        {
          "indexed": false,
          "internalType": "uint256",
          "name": "marketId",
          "type": "uint256"
        },
        {
          "indexed": false,
          "internalType": "uint256",
          "name": "stakeId",
          "type": "uint256"
        },
        {
          "indexed": false,
          "internalType": "uint256",
          "name": "amount",
          "type": "uint256"
        },
        {
          "indexed": false,
          "internalType": "uint256",
          "name": "minimumTosPrice",
          "type": "uint256"
        },
        {
          "indexed": false,
          "internalType": "uint256",
          "name": "tosValuation",
          "type": "uint256"
        }
      ],
      "name": "ETHDeposited",
      "type": "event"
    },
    {
      "anonymous": false,
      "inputs": [
        {
          "indexed": false,
          "internalType": "address",
          "name": "user",
          "type": "address"
        },
        {
          "indexed": false,
          "internalType": "uint256",
          "name": "marketId",
          "type": "uint256"
        },
        {
          "indexed": false,
          "internalType": "uint256",
          "name": "stakeId",
          "type": "uint256"
        },
        {
          "indexed": false,
          "internalType": "uint256",
          "name": "amount",
          "type": "uint256"
        },
        {
          "indexed": false,
          "internalType": "uint256",
          "name": "minimumTosPrice",
          "type": "uint256"
        },
        {
          "indexed": false,
          "internalType": "uint8",
          "name": "lockWeeks",
          "type": "uint8"
        },
        {
          "indexed": false,
          "internalType": "uint256",
          "name": "tosValuation",
          "type": "uint256"
        }
      ],
      "name": "ETHDepositedWithSTOS",
      "type": "event"
    },
    {
      "anonymous": false,
      "inputs": [
        {
          "indexed": true,
          "internalType": "bytes32",
          "name": "role",
          "type": "bytes32"
        },
        {
          "indexed": true,
          "internalType": "bytes32",
          "name": "previousAdminRole",
          "type": "bytes32"
        },
        {
          "indexed": true,
          "internalType": "bytes32",
          "name": "newAdminRole",
          "type": "bytes32"
        }
      ],
      "name": "RoleAdminChanged",
      "type": "event"
    },
    {
      "anonymous": false,
      "inputs": [
        {
          "indexed": true,
          "internalType": "bytes32",
          "name": "role",
          "type": "bytes32"
        },
        {
          "indexed": true,
          "internalType": "address",
          "name": "account",
          "type": "address"
        },
        {
          "indexed": true,
          "internalType": "address",
          "name": "sender",
          "type": "address"
        }
      ],
      "name": "RoleGranted",
      "type": "event"
    },
    {
      "anonymous": false,
      "inputs": [
        {
          "indexed": true,
          "internalType": "bytes32",
          "name": "role",
          "type": "bytes32"
        },
        {
          "indexed": true,
          "internalType": "address",
          "name": "account",
          "type": "address"
        },
        {
          "indexed": true,
          "internalType": "address",
          "name": "sender",
          "type": "address"
        }
      ],
      "name": "RoleRevoked",
      "type": "event"
    },
    {
      "anonymous": false,
      "inputs": [
        {
          "indexed": false,
          "internalType": "address",
          "name": "calculatorAddress",
          "type": "address"
        }
      ],
      "name": "SetCalculator",
      "type": "event"
    },
    {
      "inputs": [],
      "name": "ADMIN_ROLE",
      "outputs": [
        {
          "internalType": "bytes32",
          "name": "",
          "type": "bytes32"
        }
      ],
      "stateMutability": "view",
      "type": "function"
    },
    {
      "inputs": [],
      "name": "DEFAULT_ADMIN_ROLE",
      "outputs": [
        {
          "internalType": "bytes32",
          "name": "",
          "type": "bytes32"
        }
      ],
      "stateMutability": "view",
      "type": "function"
    },
    {
      "inputs": [
        {
          "internalType": "uint256",
          "name": "_id",
          "type": "uint256"
        },
        {
          "internalType": "uint256",
          "name": "_amount",
          "type": "uint256"
        },
        {
          "internalType": "uint256",
          "name": "_minimumTosPrice",
          "type": "uint256"
        }
      ],
      "name": "ETHDeposit",
      "outputs": [
        {
          "internalType": "uint256",
          "name": "payout_",
          "type": "uint256"
        }
      ],
      "stateMutability": "payable",
      "type": "function"
    },
    {
      "inputs": [
        {
          "internalType": "uint256",
          "name": "_id",
          "type": "uint256"
        },
        {
          "internalType": "uint256",
          "name": "_amount",
          "type": "uint256"
        },
        {
          "internalType": "uint256",
          "name": "_minimumTosPrice",
          "type": "uint256"
        },
        {
          "internalType": "uint8",
          "name": "_lockWeeks",
          "type": "uint8"
        }
      ],
      "name": "ETHDepositWithSTOS",
      "outputs": [
        {
          "internalType": "uint256",
          "name": "payout_",
          "type": "uint256"
        }
      ],
      "stateMutability": "payable",
      "type": "function"
    },
    {
      "inputs": [],
      "name": "POLICY_ROLE",
      "outputs": [
        {
          "internalType": "bytes32",
          "name": "",
          "type": "bytes32"
        }
      ],
      "stateMutability": "view",
      "type": "function"
    },
    {
      "inputs": [
        {
          "internalType": "address",
          "name": "account",
          "type": "address"
        }
      ],
      "name": "addAdmin",
      "outputs": [],
      "stateMutability": "nonpayable",
      "type": "function"
    },
    {
      "inputs": [
        {
          "internalType": "address",
          "name": "_account",
          "type": "address"
        }
      ],
      "name": "addPolicy",
      "outputs": [],
      "stateMutability": "nonpayable",
      "type": "function"
    },
    {
      "inputs": [
        {
          "internalType": "address",
          "name": "_owner",
          "type": "address"
        }
      ],
      "name": "addProxyAdmin",
      "outputs": [],
      "stateMutability": "nonpayable",
      "type": "function"
    },
    {
      "inputs": [
        {
          "internalType": "uint256",
          "name": "",
          "type": "uint256"
        }
      ],
      "name": "bonusRateInfos",
      "outputs": [
        {
          "internalType": "address",
          "name": "bonusRatesAddress",
          "type": "address"
        },
        {
          "internalType": "uint256",
          "name": "bonusRatesId",
          "type": "uint256"
        }
      ],
      "stateMutability": "view",
      "type": "function"
    },
    {
      "inputs": [],
      "name": "calculator",
      "outputs": [
        {
          "internalType": "address",
          "name": "",
          "type": "address"
        }
      ],
      "stateMutability": "view",
      "type": "function"
    },
    {
      "inputs": [
        {
          "internalType": "uint256",
          "name": "_marketId",
          "type": "uint256"
        },
        {
          "internalType": "address",
          "name": "_bonusRatesAddress",
          "type": "address"
        },
        {
          "internalType": "uint256",
          "name": "_bonusRatesId",
          "type": "uint256"
        }
      ],
      "name": "changeBonusRateInfo",
      "outputs": [],
      "stateMutability": "nonpayable",
      "type": "function"
    },
    {
      "inputs": [
        {
          "internalType": "uint256",
          "name": "_marketId",
          "type": "uint256"
        },
        {
          "internalType": "bool",
          "name": "_increaseFlag",
          "type": "bool"
        },
        {
          "internalType": "uint256",
          "name": "_increaseAmount",
          "type": "uint256"
        }
      ],
      "name": "changeCapacity",
      "outputs": [],
      "stateMutability": "nonpayable",
      "type": "function"
    },
    {
      "inputs": [
        {
          "internalType": "uint256",
          "name": "_marketId",
          "type": "uint256"
        },
        {
          "internalType": "uint256",
          "name": "closeTime",
          "type": "uint256"
        }
      ],
      "name": "changeCloseTime",
      "outputs": [],
      "stateMutability": "nonpayable",
      "type": "function"
    },
    {
      "inputs": [
        {
          "internalType": "uint256",
          "name": "_marketId",
          "type": "uint256"
        },
        {
          "internalType": "uint256",
          "name": "_tosPrice",
          "type": "uint256"
        }
      ],
      "name": "changeLowerPriceLimit",
      "outputs": [],
      "stateMutability": "nonpayable",
      "type": "function"
    },
    {
      "inputs": [
        {
          "internalType": "address",
          "name": "_oralceLibrary",
          "type": "address"
        },
        {
          "internalType": "address",
          "name": "_uniswapFactory",
          "type": "address"
        }
      ],
      "name": "changeOracleLibrary",
      "outputs": [],
      "stateMutability": "nonpayable",
      "type": "function"
    },
    {
      "inputs": [
        {
          "internalType": "uint256",
          "name": "_marketId",
          "type": "uint256"
        },
        {
          "internalType": "bytes[]",
          "name": "paths",
          "type": "bytes[]"
        }
      ],
      "name": "changePricePathInfo",
      "outputs": [],
      "stateMutability": "nonpayable",
      "type": "function"
    },
    {
      "inputs": [
        {
          "internalType": "uint256",
          "name": "_amount",
          "type": "uint256"
        }
      ],
      "name": "changeRemainingTosTolerance",
      "outputs": [],
      "stateMutability": "nonpayable",
      "type": "function"
    },
    {
      "inputs": [
        {
          "internalType": "uint256",
          "name": "_id",
          "type": "uint256"
        }
      ],
      "name": "close",
      "outputs": [],
      "stateMutability": "nonpayable",
      "type": "function"
    },
    {
      "inputs": [
        {
          "internalType": "address",
          "name": "_token",
          "type": "address"
        },
        {
          "internalType": "uint256[3]",
          "name": "_marketInfos",
          "type": "uint256[3]"
        },
        {
          "internalType": "address",
          "name": "_bonusRatesAddress",
          "type": "address"
        },
        {
          "internalType": "uint256",
          "name": "_bonusRatesId",
          "type": "uint256"
        },
        {
          "internalType": "uint32",
          "name": "_startTime",
          "type": "uint32"
        },
        {
          "internalType": "uint32",
          "name": "_endTime",
          "type": "uint32"
        },
        {
          "internalType": "bytes[]",
          "name": "_paths",
          "type": "bytes[]"
        },
        {
          "internalType": "uint8",
          "name": "_type",
          "type": "uint8"
        }
      ],
      "name": "create",
      "outputs": [
        {
          "internalType": "uint256",
          "name": "id_",
          "type": "uint256"
        }
      ],
      "stateMutability": "nonpayable",
      "type": "function"
    },
    {
      "inputs": [
        {
          "internalType": "address",
          "name": "_account",
          "type": "address"
        }
      ],
      "name": "deletePolicy",
      "outputs": [],
      "stateMutability": "nonpayable",
      "type": "function"
    },
    {
      "inputs": [],
      "name": "dtos",
      "outputs": [
        {
          "internalType": "address",
          "name": "",
          "type": "address"
        }
      ],
      "stateMutability": "view",
      "type": "function"
    },
    {
      "inputs": [
        {
          "internalType": "uint256",
          "name": "_marketId",
          "type": "uint256"
        }
      ],
      "name": "getBasePrice",
      "outputs": [
        {
          "internalType": "uint256",
          "name": "basePrice",
          "type": "uint256"
        },
        {
          "internalType": "uint256",
          "name": "lowerPriceLimit",
          "type": "uint256"
        },
        {
          "internalType": "uint256",
          "name": "uniswapPrice",
          "type": "uint256"
        }
      ],
      "stateMutability": "view",
      "type": "function"
    },
    {
      "inputs": [
        {
          "internalType": "uint256",
          "name": "_marketId",
          "type": "uint256"
        },
        {
          "internalType": "uint8",
          "name": "_lockWeeks",
          "type": "uint8"
        },
        {
          "internalType": "uint256",
          "name": "basePrice",
          "type": "uint256"
        }
      ],
      "name": "getBondingPrice",
      "outputs": [
        {
          "internalType": "uint256",
          "name": "bondingPrice",
          "type": "uint256"
        }
      ],
      "stateMutability": "view",
      "type": "function"
    },
    {
      "inputs": [],
      "name": "getBonds",
      "outputs": [
        {
          "internalType": "uint256[]",
          "name": "",
          "type": "uint256[]"
        },
        {
          "components": [
            {
              "internalType": "address",
              "name": "quoteToken",
              "type": "address"
            },
            {
              "internalType": "uint256",
              "name": "capacity",
              "type": "uint256"
            },
            {
              "internalType": "uint256",
              "name": "endSaleTime",
              "type": "uint256"
            },
            {
              "internalType": "uint256",
              "name": "maxPayout",
              "type": "uint256"
            },
            {
              "internalType": "uint256",
              "name": "tosPrice",
              "type": "uint256"
            }
          ],
          "internalType": "struct LibBondDepository.Market[]",
          "name": "",
          "type": "tuple[]"
        },
        {
          "components": [
            {
              "internalType": "uint8",
              "name": "bondType",
              "type": "uint8"
            },
            {
              "internalType": "uint32",
              "name": "startTime",
              "type": "uint32"
            },
            {
              "internalType": "bool",
              "name": "closed",
              "type": "bool"
            },
            {
              "internalType": "uint256",
              "name": "capacityUpdatePeriod",
              "type": "uint256"
            },
            {
              "internalType": "uint256",
              "name": "totalSold",
              "type": "uint256"
            }
          ],
          "internalType": "struct LibBondDepositoryV1_5.MarketInfo[]",
          "name": "",
          "type": "tuple[]"
        },
        {
          "components": [
            {
              "internalType": "address",
              "name": "bonusRatesAddress",
              "type": "address"
            },
            {
              "internalType": "uint256",
              "name": "bonusRatesId",
              "type": "uint256"
            }
          ],
          "internalType": "struct LibBondDepositoryV1_5.BonusRateInfo[]",
          "name": "",
          "type": "tuple[]"
        }
      ],
      "stateMutability": "view",
      "type": "function"
    },
    {
      "inputs": [],
      "name": "getMarketList",
      "outputs": [
        {
          "internalType": "uint256[]",
          "name": "",
          "type": "uint256[]"
        }
      ],
      "stateMutability": "view",
      "type": "function"
    },
    {
      "inputs": [
        {
          "internalType": "bytes32",
          "name": "role",
          "type": "bytes32"
        }
      ],
      "name": "getRoleAdmin",
      "outputs": [
        {
          "internalType": "bytes32",
          "name": "",
          "type": "bytes32"
        }
      ],
      "stateMutability": "view",
      "type": "function"
    },
    {
      "inputs": [
        {
          "internalType": "uint256",
          "name": "_marketId",
          "type": "uint256"
        }
      ],
      "name": "getUniswapPrice",
      "outputs": [
        {
          "internalType": "uint256",
          "name": "uniswapPrice",
          "type": "uint256"
        }
      ],
      "stateMutability": "view",
      "type": "function"
    },
    {
      "inputs": [
        {
          "internalType": "bytes32",
          "name": "role",
          "type": "bytes32"
        },
        {
          "internalType": "address",
          "name": "account",
          "type": "address"
        }
      ],
      "name": "grantRole",
      "outputs": [],
      "stateMutability": "nonpayable",
      "type": "function"
    },
    {
      "inputs": [
        {
          "internalType": "bytes32",
          "name": "role",
          "type": "bytes32"
        },
        {
          "internalType": "address",
          "name": "account",
          "type": "address"
        }
      ],
      "name": "hasRole",
      "outputs": [
        {
          "internalType": "bool",
          "name": "",
          "type": "bool"
        }
      ],
      "stateMutability": "view",
      "type": "function"
    },
    {
      "inputs": [
        {
          "internalType": "address",
          "name": "account",
          "type": "address"
        }
      ],
      "name": "isAdmin",
      "outputs": [
        {
          "internalType": "bool",
          "name": "",
          "type": "bool"
        }
      ],
      "stateMutability": "view",
      "type": "function"
    },
    {
      "inputs": [
        {
          "internalType": "uint256",
          "name": "_marketId",
          "type": "uint256"
        }
      ],
      "name": "isOpened",
      "outputs": [
        {
          "internalType": "bool",
          "name": "closedBool",
          "type": "bool"
        }
      ],
      "stateMutability": "view",
      "type": "function"
    },
    {
      "inputs": [
        {
          "internalType": "address",
          "name": "account",
          "type": "address"
        }
      ],
      "name": "isPolicy",
      "outputs": [
        {
          "internalType": "bool",
          "name": "",
          "type": "bool"
        }
      ],
      "stateMutability": "view",
      "type": "function"
    },
    {
      "inputs": [
        {
          "internalType": "address",
          "name": "account",
          "type": "address"
        }
      ],
      "name": "isProxyAdmin",
      "outputs": [
        {
          "internalType": "bool",
          "name": "",
          "type": "bool"
        }
      ],
      "stateMutability": "view",
      "type": "function"
    },
    {
      "inputs": [
        {
          "internalType": "uint256",
          "name": "",
          "type": "uint256"
        }
      ],
      "name": "marketInfos",
      "outputs": [
        {
          "internalType": "uint8",
          "name": "bondType",
          "type": "uint8"
        },
        {
          "internalType": "uint32",
          "name": "startTime",
          "type": "uint32"
        },
        {
          "internalType": "bool",
          "name": "closed",
          "type": "bool"
        },
        {
          "internalType": "uint256",
          "name": "capacityUpdatePeriod",
          "type": "uint256"
        },
        {
          "internalType": "uint256",
          "name": "totalSold",
          "type": "uint256"
        }
      ],
      "stateMutability": "view",
      "type": "function"
    },
    {
      "inputs": [
        {
          "internalType": "uint256",
          "name": "",
          "type": "uint256"
        }
      ],
      "name": "marketList",
      "outputs": [
        {
          "internalType": "uint256",
          "name": "",
          "type": "uint256"
        }
      ],
      "stateMutability": "view",
      "type": "function"
    },
    {
      "inputs": [
        {
          "internalType": "uint256",
          "name": "",
          "type": "uint256"
        }
      ],
      "name": "markets",
      "outputs": [
        {
          "internalType": "address",
          "name": "quoteToken",
          "type": "address"
        },
        {
          "internalType": "uint256",
          "name": "capacity",
          "type": "uint256"
        },
        {
          "internalType": "uint256",
          "name": "endSaleTime",
          "type": "uint256"
        },
        {
          "internalType": "uint256",
          "name": "maxPayout",
          "type": "uint256"
        },
        {
          "internalType": "uint256",
          "name": "tosPrice",
          "type": "uint256"
        }
      ],
      "stateMutability": "view",
      "type": "function"
    },
    {
      "inputs": [],
      "name": "oracleLibrary",
      "outputs": [
        {
          "internalType": "address",
          "name": "",
          "type": "address"
        }
      ],
      "stateMutability": "view",
      "type": "function"
    },
    {
      "inputs": [
        {
          "internalType": "uint256",
          "name": "_marketId",
          "type": "uint256"
        }
      ],
      "name": "possibleMaxCapacity",
      "outputs": [
        {
          "internalType": "uint256",
          "name": "periodicCapacity",
          "type": "uint256"
        },
        {
          "internalType": "uint256",
          "name": "currentCapacity",
          "type": "uint256"
        }
      ],
      "stateMutability": "view",
      "type": "function"
    },
    {
      "inputs": [
        {
          "internalType": "uint256",
          "name": "",
          "type": "uint256"
        },
        {
          "internalType": "uint256",
          "name": "",
          "type": "uint256"
        }
      ],
      "name": "pricePathInfos",
      "outputs": [
        {
          "internalType": "bytes",
          "name": "",
          "type": "bytes"
        }
      ],
      "stateMutability": "view",
      "type": "function"
    },
    {
      "inputs": [],
      "name": "remainingTosTolerance",
      "outputs": [
        {
          "internalType": "uint256",
          "name": "",
          "type": "uint256"
        }
      ],
      "stateMutability": "view",
      "type": "function"
    },
    {
      "inputs": [],
      "name": "removeAdmin",
      "outputs": [],
      "stateMutability": "nonpayable",
      "type": "function"
    },
    {
      "inputs": [],
      "name": "removePolicy",
      "outputs": [],
      "stateMutability": "nonpayable",
      "type": "function"
    },
    {
      "inputs": [],
      "name": "removeProxyAdmin",
      "outputs": [],
      "stateMutability": "nonpayable",
      "type": "function"
    },
    {
      "inputs": [
        {
          "internalType": "bytes32",
          "name": "role",
          "type": "bytes32"
        },
        {
          "internalType": "address",
          "name": "account",
          "type": "address"
        }
      ],
      "name": "renounceRole",
      "outputs": [],
      "stateMutability": "nonpayable",
      "type": "function"
    },
    {
      "inputs": [
        {
          "internalType": "bytes32",
          "name": "role",
          "type": "bytes32"
        },
        {
          "internalType": "address",
          "name": "account",
          "type": "address"
        }
      ],
      "name": "revokeRole",
      "outputs": [],
      "stateMutability": "nonpayable",
      "type": "function"
    },
    {
      "inputs": [
        {
          "internalType": "uint256",
          "name": "startTime",
          "type": "uint256"
        },
        {
          "internalType": "uint256",
          "name": "endSaleTime",
          "type": "uint256"
        },
        {
          "internalType": "uint256",
          "name": "capacityUpdatePeriod",
          "type": "uint256"
        }
      ],
      "name": "salePeriod",
      "outputs": [
        {
          "internalType": "uint256",
          "name": "numberOfPeriods",
          "type": "uint256"
        },
        {
          "internalType": "uint256",
          "name": "numberOfPeriodsPassed",
          "type": "uint256"
        }
      ],
      "stateMutability": "view",
      "type": "function"
    },
    {
      "inputs": [],
      "name": "staking",
      "outputs": [
        {
          "internalType": "contract IStaking",
          "name": "",
          "type": "address"
        }
      ],
      "stateMutability": "view",
      "type": "function"
    },
    {
      "inputs": [
        {
          "internalType": "bytes4",
          "name": "interfaceId",
          "type": "bytes4"
        }
      ],
      "name": "supportsInterface",
      "outputs": [
        {
          "internalType": "bool",
          "name": "",
          "type": "bool"
        }
      ],
      "stateMutability": "view",
      "type": "function"
    },
    {
      "inputs": [],
      "name": "tos",
      "outputs": [
        {
          "internalType": "contract IERC20",
          "name": "",
          "type": "address"
        }
      ],
      "stateMutability": "view",
      "type": "function"
    },
    {
      "inputs": [],
      "name": "totalMarketCount",
      "outputs": [
        {
          "internalType": "uint256",
          "name": "",
          "type": "uint256"
        }
      ],
      "stateMutability": "view",
      "type": "function"
    },
    {
      "inputs": [
        {
          "internalType": "address",
          "name": "newAdmin",
          "type": "address"
        }
      ],
      "name": "transferAdmin",
      "outputs": [],
      "stateMutability": "nonpayable",
      "type": "function"
    },
    {
      "inputs": [
        {
          "internalType": "address",
          "name": "newAdmin",
          "type": "address"
        }
      ],
      "name": "transferProxyAdmin",
      "outputs": [],
      "stateMutability": "nonpayable",
      "type": "function"
    },
    {
      "inputs": [],
      "name": "treasury",
      "outputs": [
        {
          "internalType": "address",
          "name": "",
          "type": "address"
        }
      ],
      "stateMutability": "view",
      "type": "function"
    },
    {
      "inputs": [],
      "name": "uniswapFactory",
      "outputs": [
        {
          "internalType": "address",
          "name": "",
          "type": "address"
        }
      ],
      "stateMutability": "view",
      "type": "function"
    },
    {
      "inputs": [],
      "name": "uniswapV3Factory",
      "outputs": [
        {
          "internalType": "address",
          "name": "",
          "type": "address"
        }
      ],
      "stateMutability": "view",
      "type": "function"
    },
    {
      "inputs": [
        {
          "internalType": "uint256",
          "name": "_marketId",
          "type": "uint256"
        }
      ],
      "name": "viewMarket",
      "outputs": [
        {
          "components": [
            {
              "internalType": "address",
              "name": "quoteToken",
              "type": "address"
            },
            {
              "internalType": "uint256",
              "name": "capacity",
              "type": "uint256"
            },
            {
              "internalType": "uint256",
              "name": "endSaleTime",
              "type": "uint256"
            },
            {
              "internalType": "uint256",
              "name": "maxPayout",
              "type": "uint256"
            },
            {
              "internalType": "uint256",
              "name": "tosPrice",
              "type": "uint256"
            }
          ],
          "internalType": "struct LibBondDepository.Market",
          "name": "market",
          "type": "tuple"
        },
        {
          "components": [
            {
              "internalType": "uint8",
              "name": "bondType",
              "type": "uint8"
            },
            {
              "internalType": "uint32",
              "name": "startTime",
              "type": "uint32"
            },
            {
              "internalType": "bool",
              "name": "closed",
              "type": "bool"
            },
            {
              "internalType": "uint256",
              "name": "capacityUpdatePeriod",
              "type": "uint256"
            },
            {
              "internalType": "uint256",
              "name": "totalSold",
              "type": "uint256"
            }
          ],
          "internalType": "struct LibBondDepositoryV1_5.MarketInfo",
          "name": "marketInfo",
          "type": "tuple"
        },
        {
          "components": [
            {
              "internalType": "address",
              "name": "bonusRatesAddress",
              "type": "address"
            },
            {
              "internalType": "uint256",
              "name": "bonusRatesId",
              "type": "uint256"
            }
          ],
          "internalType": "struct LibBondDepositoryV1_5.BonusRateInfo",
          "name": "bonusInfo",
          "type": "tuple"
        },
        {
          "internalType": "bytes[]",
          "name": "pricePathes",
          "type": "bytes[]"
        }
      ],
      "stateMutability": "view",
      "type": "function"
    }
  ],
  "bytecode": "0x608060405234801561001057600080fd5b5068056bc75e2d63100000600955614d7b8061002d6000396000f3fe60806040526004361061036b5760003560e01c806375b238fc116101c6578063b1667adf116100f7578063ce3e39c011610095578063f47f2f1d1161006f578063f47f2f1d14610b4c578063f98e422f14610b6c578063fad1c85c14610b8c578063fc79f0e814610bac57600080fd5b8063ce3e39c014610aec578063d547741f14610b0c578063e4cbc0b314610b2c57600080fd5b8063bd4541ff116100d1578063bd4541ff14610a77578063be72f2d314610a97578063bfc96ced14610aac578063c8f899cd14610acc57600080fd5b8063b1667adf14610a11578063b717097914610a41578063b84ef08114610a5757600080fd5b806391d14854116101645780639e8332cd1161013e5780639e8332cd14610936578063a217fddf14610956578063a9d534361461096b578063b1283e771461098b57600080fd5b806391d14854146108e157806396f1557c146109015780639a202d471461092157600080fd5b80638356ca4f116101a05780638356ca4f1461085c57806389f395de1461087c5780638b140f6b1461089c5780638bdb2afa146108c157600080fd5b806375b238fc146107bb5780637a57cbdb146107dd5780637e7355e4146107fd57600080fd5b80634f91f870116102a057806361d027b31161023e5780636c9daf14116102185780636c9daf141461073b578063704802751461075b578063708d5c151461077b57806375829def1461079b57600080fd5b806361d027b3146106f357806365cb3a831461071357806366a3133b1461072857600080fd5b80635b9907a41161027a5780635b9907a4146106645780635fabdf7c146106865780635faf46bb146106a657806360161f2f146106c657600080fd5b80634f91f870146105fc578063508092021461060f5780635b5491821461064457600080fd5b806324d7806c1161030d57806331c8d924116102e757806331c8d9241461058757806336568abe146105a75780634c8df535146105c75780634cf088d9146105dc57600080fd5b806324d7806c1461050f57806326fca81c1461052f5780632f2ff15d1461056757600080fd5b80631bd2cd93116103495780631bd2cd9314610402578063229852461461048f578063232b956c146104bf578063248a9ca3146104df57600080fd5b806301ffc9a7146103705780630aebeb4e146103a557806316ae917b146103c7575b600080fd5b34801561037c57600080fd5b5061039061038b36600461428a565b610bcc565b60405190151581526020015b60405180910390f35b3480156103b157600080fd5b506103c56103c0366004614250565b610c03565b005b3480156103d357600080fd5b506103e76103e2366004614250565b610d33565b6040805193845260208401929092529082015260600161039c565b34801561040e57600080fd5b5061045861041d366004614250565b600c6020526000908152604090208054600182015460029092015460ff8083169363ffffffff61010085041693600160281b90049091169185565b6040805160ff909616865263ffffffff9094166020860152911515928401929092526060830191909152608082015260a00161039c565b34801561049b57600080fd5b506104b1600080516020614d2683398151915281565b60405190815260200161039c565b3480156104cb57600080fd5b506104b16104da366004614250565b610d63565b3480156104eb57600080fd5b506104b16104fa366004614250565b60009081526008602052604090206001015490565b34801561051b57600080fd5b5061039061052a36600461411f565b610d84565b34801561053b57600080fd5b50600a5461054f906001600160a01b031681565b6040516001600160a01b03909116815260200161039c565b34801561057357600080fd5b506103c5610582366004614268565b610d9e565b34801561059357600080fd5b506104b16105a2366004614250565b610dc9565b3480156105b357600080fd5b506103c56105c2366004614268565b610fde565b3480156105d357600080fd5b506006546104b1565b3480156105e857600080fd5b5060015461054f906001600160a01b031681565b6104b161060a366004614474565b61105c565b34801561061b57600080fd5b5061062f61062a366004614449565b6113fd565b6040805192835260208301919091520161039c565b34801561065057600080fd5b5060045461054f906001600160a01b031681565b34801561067057600080fd5b506106796114c6565b60405161039c91906146ae565b34801561069257600080fd5b506103c56106a136600461411f565b61151e565b3480156106b257600080fd5b506103906106c1366004614250565b61155e565b3480156106d257600080fd5b506106e66106e1366004614428565b6115d2565b60405161039c91906147dc565b3480156106ff57600080fd5b5060025461054f906001600160a01b031681565b34801561071f57600080fd5b506103c561168b565b6104b1610736366004614449565b6116ca565b34801561074757600080fd5b506103c5610756366004614320565b6119f6565b34801561076757600080fd5b506103c561077636600461411f565b611bfd565b34801561078757600080fd5b506103c5610796366004614428565b611c3a565b3480156107a757600080fd5b506103c56107b636600461411f565b611d25565b3480156107c757600080fd5b506104b1600080516020614d0683398151915281565b3480156107e957600080fd5b506104b16107f83660046144b2565b611e2c565b34801561080957600080fd5b5061083d610818366004614250565b600d60205260009081526040902080546001909101546001600160a01b039091169082565b604080516001600160a01b03909316835260208301919091520161039c565b34801561086857600080fd5b506103c561087736600461411f565b611f62565b34801561088857600080fd5b5060005461054f906001600160a01b031681565b3480156108a857600080fd5b506108b1612040565b60405161039c94939291906146c1565b3480156108cd57600080fd5b50600b5461054f906001600160a01b031681565b3480156108ed57600080fd5b506103906108fc366004614268565b6123ed565b34801561090d57600080fd5b506103c561091c36600461411f565b612418565b34801561092d57600080fd5b506103c5612448565b34801561094257600080fd5b506103c56109513660046143ed565b612494565b34801561096257600080fd5b506104b1600081565b34801561097757600080fd5b506103c5610986366004614139565b612653565b34801561099757600080fd5b506109df6109a6366004614250565b600760205260009081526040902080546001820154600283015460038401546004909401546001600160a01b0390931693919290919085565b604080516001600160a01b0390961686526020860194909452928401919091526060830152608082015260a00161039c565b348015610a1d57600080fd5b50610a31610a2c366004614250565b61279c565b60405161039c949392919061498e565b348015610a4d57600080fd5b506104b160095481565b348015610a6357600080fd5b506103c5610a7236600461411f565b61298d565b348015610a8357600080fd5b506103c5610a923660046142ec565b6129ca565b348015610aa357600080fd5b506103c5612bd1565b348015610ab857600080fd5b506104b1610ac736600461416b565b612c01565b348015610ad857600080fd5b506103c5610ae7366004614250565b6132b9565b348015610af857600080fd5b5060035461054f906001600160a01b031681565b348015610b1857600080fd5b506103c5610b27366004614268565b613359565b348015610b3857600080fd5b5061062f610b47366004614250565b61337f565b348015610b5857600080fd5b50610390610b6736600461411f565b61349f565b348015610b7857600080fd5b5060055461054f906001600160a01b031681565b348015610b9857600080fd5b50610390610ba736600461411f565b6134ab565b348015610bb857600080fd5b506103c5610bc7366004614428565b6134c5565b60006001600160e01b03198216637965db0b60e01b1480610bfd57506301ffc9a760e01b6001600160e01b03198316145b92915050565b610c0c336134ab565b610c315760405162461bcd60e51b8152600401610c2890614945565b60405180910390fd5b6000818152600760205260409020600201548190610c615760405162461bcd60e51b8152600401610c289061491b565b6000828152600c6020526040902054600160281b900460ff16158015610c97575060008281526007602052604090206002015442105b610cd45760405162461bcd60e51b815260206004820152600e60248201526d185b1c9958591e4818db1bdcd95960921b6044820152606401610c28565b6000828152600c602052604090819020805460ff60281b1916600160281b17815590517f065f36f0cc9a946e058a78fcf529ed8629c0ad3f6d065007c3c9162fd2c39d6390610d269085815260200190565b60405180910390a1505050565b60008181526007602052604081206004015481610d4f84610dc9565b9050610d5b82826135c7565b949193509150565b60068181548110610d7357600080fd5b600091825260209091200154905081565b6000610bfd600080516020614d06833981519152836123ed565b600082815260086020526040902060010154610dba81336135dd565b610dc48383613641565b505050565b6000818152600e6020908152604080832080548251818502810185019093528083528493849084015b82821015610e9e578382906000526020600020018054610e1190614c5f565b80601f0160208091040260200160405190810160405280929190818152602001828054610e3d90614c5f565b8015610e8a5780601f10610e5f57610100808354040283529160200191610e8a565b820191906000526020600020905b815481529060010190602001808311610e6d57829003601f168201915b505050505081526020019060010190610df2565b505050509050600081511115610fd8576000805b8251811015610fd5576000838281518110610edd57634e487b7160e01b600052603260045260246000fd5b6020026020010151511115610fc357600a5460045484516001600160a01b03928316926393eaab8a921690869085908110610f2857634e487b7160e01b600052603260045260246000fd5b6020026020010151670de0b6b3a76400006040518463ffffffff1660e01b8152600401610f579392919061467a565b60206040518083038186803b158015610f6f57600080fd5b505afa158015610f83573d6000803e3d6000fd5b505050506040513d601f19601f82011682018060405250810190610fa791906142d4565b915080610fb657819350610fc3565b610fc084836135c7565b93505b80610fcd81614c94565b915050610eb2565b50505b50919050565b6001600160a01b038116331461104e5760405162461bcd60e51b815260206004820152602f60248201527f416363657373436f6e74726f6c3a2063616e206f6e6c792072656e6f756e636560448201526e103937b632b9903337b91039b2b63360891b6064820152608401610c28565b61105882826136c7565b5050565b6000848152600c602052604081205485904261010090910463ffffffff16106110bb5760405162461bcd60e51b81526020600482015260116024820152701b9bc81cdd185c9d081d1a5b59481e595d607a1b6044820152606401610c28565b6000818152600c6020526040902054600160281b900460ff16156110f15760405162461bcd60e51b8152600401610c28906148b0565b60008181526007602052604090206002015442106111215760405162461bcd60e51b8152600401610c28906148b0565b6009546000828152600c60205260409020600201546111409190614bb6565b6000828152600760205260409020600101541161118f5760405162461bcd60e51b815260206004820152600d60248201526c7a65726f20636170616369747960981b6044820152606401610c28565b60008681526007602052604090205486906001600160a01b03161580156111c6575060008181526007602052604090206002015415155b6112035760405162461bcd60e51b815260206004820152600e60248201526d1b9bdd08115512081b585c9ad95d60921b6044820152606401610c28565b85806112215760405162461bcd60e51b8152600401610c2890614879565b8634146112405760405162461bcd60e51b8152600401610c28906148d7565b60018560ff16116112a35760405162461bcd60e51b815260206004820152602760248201527f5f6c6f636b5765656b73206d7573742062652067726561746572207468616e2060448201526618903bb2b2b59760c91b6064820152608401610c28565b60006112b23389898c8a61372e565b60015460405163980b109760e01b815233600482015260248101849052604481018d905260ff8a166064820152608481018390529297509092506000916001600160a01b039091169063980b10979060a401602060405180830381600087803b15801561131e57600080fd5b505af1158015611332573d6000803e3d6000fd5b505050506040513d601f19601f8201168201806040525081019061135691906142d4565b6002546040519192506001600160a01b0316903480156108fc02916000818181858888f19350505050158015611390573d6000803e3d6000fd5b5060408051338152602081018c9052908101829052606081018a90526080810189905260ff881660a082015260c081018790527fffe45a5856ef7d1b047c3bac34e04d2d075c162ac936cea791b8e14b6c2b9efc9060e00160405180910390a15050505050949350505050565b60008084156114be57848411156114be57600061141a8686614c01565b90506114268482614bce565b92506001841180156114415750600061143f8583614caf565b115b15611454578261145081614c94565b9350505b854211801561146257508442105b156114bc57836114728742614c01565b61147c9190614bce565b915060008461148b8842614c01565b6114959190614caf565b90506001851180156114a75750600081115b156114ba57826114b681614c94565b9350505b505b505b935093915050565b6060600680548060200260200160405190810160405280929190818152602001828054801561151457602002820191906000526020600020905b815481526020019060010190808311611500575b5050505050905090565b6115273361349f565b6115435760405162461bcd60e51b8152600401610c2890614831565b61155b600080516020614d2683398151915282613359565b50565b6000818152600c6020526040812054600160281b900460ff16158015610bfd575060008281526007602052604090206002015442108015610bfd57506009546000838152600c60205260409020600201546115b99190614bb6565b6000838152600760205260409020600101541192915050565b600e60205281600052604060002081815481106115ee57600080fd5b9060005260206000200160009150915050805461160a90614c5f565b80601f016020809104026020016040519081016040528092919081815260200182805461163690614c5f565b80156116835780601f1061165857610100808354040283529160200191611683565b820191906000526020600020905b81548152906001019060200180831161166657829003601f168201915b505050505081565b611694336134ab565b6116b05760405162461bcd60e51b8152600401610c2890614945565b6116c8600080516020614d2683398151915233610fde565b565b6000838152600c602052604081205484904261010090910463ffffffff16106117295760405162461bcd60e51b81526020600482015260116024820152701b9bc81cdd185c9d081d1a5b59481e595d607a1b6044820152606401610c28565b6000818152600c6020526040902054600160281b900460ff161561175f5760405162461bcd60e51b8152600401610c28906148b0565b600081815260076020526040902060020154421061178f5760405162461bcd60e51b8152600401610c28906148b0565b6009546000828152600c60205260409020600201546117ae9190614bb6565b600082815260076020526040902060010154116117fd5760405162461bcd60e51b815260206004820152600d60248201526c7a65726f20636170616369747960981b6044820152606401610c28565b60008581526007602052604090205485906001600160a01b0316158015611834575060008181526007602052604090206002015415155b6118715760405162461bcd60e51b815260206004820152600e60248201526d1b9bdd08115512081b585c9ad95d60921b6044820152606401610c28565b848061188f5760405162461bcd60e51b8152600401610c2890614879565b8534146118ae5760405162461bcd60e51b8152600401610c28906148d7565b60006118be3388888b600061372e565b60015460405163332b01f360e01b815233600482015260248101849052604481018c9052606481018390529297509092506000916001600160a01b039091169063332b01f390608401602060405180830381600087803b15801561192157600080fd5b505af1158015611935573d6000803e3d6000fd5b505050506040513d601f19601f8201168201806040525081019061195991906142d4565b6002546040519192506001600160a01b0316903480156108fc02916000818181858888f19350505050158015611993573d6000803e3d6000fd5b5060408051338152602081018b9052908101829052606081018990526080810188905260a081018790527fbbdec43ed87f6ff154bf2e9b39d20bb84c7aa44ae16d0613f28025c575a4911a9060c00160405180910390a150505050509392505050565b6119ff336134ab565b611a1b5760405162461bcd60e51b8152600401610c2890614945565b6000828152600c60205260409020548290600160281b900460ff1615611a535760405162461bcd60e51b8152600401610c28906148b0565b6000818152600760205260409020600201544210611a835760405162461bcd60e51b8152600401610c28906148b0565b6000838152600e602052604090205415611aae576000838152600e60205260408120611aae91613e61565b815115611bcc5781516001600160401b03811115611adc57634e487b7160e01b600052604160045260246000fd5b604051908082528060200260200182016040528015611b0f57816020015b6060815260200190600190039081611afa5790505b506000848152600e602090815260409091208251611b339391929190910190613e7f565b5060005b8251811015611bca57828181518110611b6057634e487b7160e01b600052603260045260246000fd5b6020026020010151600e60008681526020019081526020016000208281548110611b9a57634e487b7160e01b600052603260045260246000fd5b906000526020600020019080519060200190611bb7929190613edc565b5080611bc281614c94565b915050611b37565b505b7f31fe29a6e5ec6cec99ac90e78c870ff8d3d42d4f5a85e8249f20f722bd2992318383604051610d26929190614b1a565b611c063361349f565b611c225760405162461bcd60e51b8152600401610c2890614831565b61155b600080516020614d0683398151915282610d9e565b611c43336134ab565b611c5f5760405162461bcd60e51b8152600401610c2890614945565b6000828152600760205260409020600201548290611c8f5760405162461bcd60e51b8152600401610c289061491b565b428211611ccf5760405162461bcd60e51b815260206004820152600e60248201526d7061737420636c6f736554696d6560901b6044820152606401610c28565b600083815260076020908152604091829020600281018590558251868152918201859052917fc3daa84eedfacd6851bbf80d00ce11271bf926ac96c3d361c0307023c939d4b3910160405180910390a150505050565b611d2e33610d84565b80611d3d5750611d3d3361349f565b611d595760405162461bcd60e51b8152600401610c28906147ef565b6001600160a01b038116611daa5760405162461bcd60e51b815260206004820152601860248201527741636365737369626c653a207a65726f206164647265737360401b6044820152606401610c28565b336001600160a01b0382161415611dfc5760405162461bcd60e51b815260206004820152601660248201527520b1b1b2b9b9b4b136329d1039b0b6b29030b236b4b760511b6044820152606401610c28565b611e14600080516020614d0683398151915282610d9e565b61155b600080516020614d0683398151915233610fde565b60008082118015611e40575060008360ff16115b15611f53576000848152600d6020908152604091829020825180840190935280546001600160a01b03168084526001909101549183019190915215801590611e8b5750602081015115155b15611f515780516020820151604051633266c98760e01b8152600481019190915260ff861660248201526000916001600160a01b031690633266c9879060440160206040518083038186803b158015611ee357600080fd5b505afa158015611ef7573d6000803e3d6000fd5b505050506040513d601f19601f82011682018060405250810190611f1b91906142b2565b905061ffff811615611f4f57612710611f3861ffff831686614be2565b611f429190614bce565b611f4c9085614bb6565b92505b505b505b80611f5b5750805b9392505050565b611f6b3361349f565b611f875760405162461bcd60e51b8152600401610c2890614831565b6001600160a01b038116611fd85760405162461bcd60e51b815260206004820152601860248201527741636365737369626c653a207a65726f206164647265737360401b6044820152606401610c28565b336001600160a01b038216141561202a5760405162461bcd60e51b815260206004820152601660248201527520b1b1b2b9b9b4b136329d1039b0b6b29030b236b4b760511b6044820152606401610c28565b612035600082610d9e565b61155b600033610fde565b6006546060908190819081906000816001600160401b0381111561207457634e487b7160e01b600052604160045260246000fd5b60405190808252806020026020018201604052801561209d578160200160208202803683370190505b5090506000826001600160401b038111156120c857634e487b7160e01b600052604160045260246000fd5b60405190808252806020026020018201604052801561210157816020015b6120ee613f5c565b8152602001906001900390816120e65790505b5090506000836001600160401b0381111561212c57634e487b7160e01b600052604160045260246000fd5b60405190808252806020026020018201604052801561217157816020015b604080518082019091526000808252602082015281526020019060019003908161214a5790505b5090506000846001600160401b0381111561219c57634e487b7160e01b600052604160045260246000fd5b6040519080825280602002602001820160405280156121f557816020015b6040805160a0810182526000808252602080830182905292820181905260608201819052608082015282526000199092019101816121ba5790505b50905060005b858110156123dc5760006006828154811061222657634e487b7160e01b600052603260045260246000fd5b906000526020600020015490508086838151811061225457634e487b7160e01b600052603260045260246000fd5b602090810291909101810191909152600082815260078252604090819020815160a08101835281546001600160a01b031681526001820154938101939093526002810154918301919091526003810154606083015260040154608082015285518690849081106122d457634e487b7160e01b600052603260045260246000fd5b6020908102919091018101919091526000828152600c8252604090819020815160a081018352815460ff808216835263ffffffff61010083041695830195909552600160281b900490931615159183019190915260018101546060830152600201546080820152835184908490811061235d57634e487b7160e01b600052603260045260246000fd5b6020908102919091018101919091526000828152600d8252604090819020815180830190925280546001600160a01b03168252600101549181019190915284518590849081106123bd57634e487b7160e01b600052603260045260246000fd5b60200260200101819052505080806123d490614c94565b9150506121fb565b509298919750919550909350915050565b60009182526008602090815260408084206001600160a01b0393909316845291905290205460ff1690565b6124213361349f565b61243d5760405162461bcd60e51b8152600401610c2890614831565b61155b600082613c0c565b61245133610d84565b8061246057506124603361349f565b61247c5760405162461bcd60e51b8152600401610c28906147ef565b6116c8600080516020614d0683398151915233610fde565b61249d336134ab565b6124b95760405162461bcd60e51b8152600401610c2890614945565b80806124d75760405162461bcd60e51b8152600401610c2890614879565b60008481526007602052604090206002015484906125075760405162461bcd60e51b8152600401610c289061491b565b6000858152600760209081526040808320600c9092529091208515612545578482600101600082825461253a9190614bb6565b909155506125a09050565b806002015482600101546125599190614c01565b8511612573578482600101600082825461253a9190614c01565b806002015482600101546125879190614c01565b82600101600082825461259a9190614c01565b90915550505b600954816002015483600101546125b79190614c01565b1161260857805460ff60281b1916600160281b1781556040517f065f36f0cc9a946e058a78fcf529ed8629c0ad3f6d065007c3c9162fd2c39d63906125ff9089815260200190565b60405180910390a15b6040805188815287151560208201529081018690527f5e6b6b7fc7d8fb3137611da2ee2b2529d67d6d9e3ae513c9431123de9aa8b88e9060600160405180910390a150505050505050565b61265c336134ab565b6126785760405162461bcd60e51b8152600401610c2890614945565b816001600160a01b0381166126cf5760405162461bcd60e51b815260206004820152601b60248201527f426f6e644465706f7369746f72793a7a65726f206164647265737300000000006044820152606401610c28565b600a546001600160a01b0384811691161415806126fa57506004546001600160a01b03838116911614155b6127355760405162461bcd60e51b815260206004820152600c60248201526b73616d65206164647265737360a01b6044820152606401610c28565b600a80546001600160a01b038581166001600160a01b03199283168117909355600480549186169190921681179091556040805192835260208301919091527fe834872e75f018397d98a9d1ffee1466fa0df9ebb4a70033cf59095c8fdc27139101610d26565b6127a4613f5c565b6040805160a08101825260008082526020820181905291810182905260608101829052608081019190915260408051808201909152600080825260208201526000848152600760209081526040808320600c8352818420600d8452828520600e8552838620845160a0808201875285546001600160a01b039081168352600180880154848b0152600280890154858b015260038901546060868101919091526004909901546080808701919091528a519485018b52885460ff808216875263ffffffff610100830416878f0152600160281b909104161515858c015282890154858b0152970154968301969096528751808901895285549091168152949093015484880152815486518189028101890190975280875294979096929593949193928492919084015b828210156129785783829060005260206000200180546128eb90614c5f565b80601f016020809104026020016040519081016040528092919081815260200182805461291790614c5f565b80156129645780601f1061293957610100808354040283529160200191612964565b820191906000526020600020905b81548152906001019060200180831161294757829003601f168201915b5050505050815260200190600101906128cc565b50505050905093509350935093509193509193565b6129963361349f565b6129b25760405162461bcd60e51b8152600401610c2890614831565b61155b600080516020614d2683398151915282610d9e565b6129d3336134ab565b6129ef5760405162461bcd60e51b8152600401610c2890614945565b6000838152600c60205260409020548390600160281b900460ff1615612a275760405162461bcd60e51b8152600401610c28906148b0565b6000818152600760205260409020600201544210612a575760405162461bcd60e51b8152600401610c28906148b0565b826001600160a01b038116612aae5760405162461bcd60e51b815260206004820152601b60248201527f426f6e644465706f7369746f72793a7a65726f206164647265737300000000006044820152606401610c28565b8280612acc5760405162461bcd60e51b8152600401610c2890614879565b6000868152600d60205260409020546001600160a01b038681169116148015612b0557506000868152600d602052604090206001015484145b15612b3e5760405162461bcd60e51b815260206004820152600960248201526873616d6520696e666f60b81b6044820152606401610c28565b6040805180820182526001600160a01b03878116808352602080840189815260008c8152600d8352869020945185546001600160a01b031916941693909317845591516001909301929092558251898152908101919091529081018590527fa7a8ec28d6b7ef25adfbbec102f5a1a25ec8656b876b01e88ad603340957c37e9060600160405180910390a1505050505050565b612bda3361349f565b612bf65760405162461bcd60e51b8152600401610c2890614831565b6116c8600033610fde565b6000612c0c336134ab565b612c285760405162461bcd60e51b8152600401610c2890614945565b602089013580612c4a5760405162461bcd60e51b8152600401610c2890614879565b60408a013580612c6c5760405162461bcd60e51b8152600401610c2890614879565b8763ffffffff8116612cad5760405162461bcd60e51b815260206004820152600a6024820152697a65726f2076616c756560b01b6044820152606401610c28565b8763ffffffff8116612cee5760405162461bcd60e51b815260206004820152600a6024820152697a65726f2076616c756560b01b6044820152606401610c28565b6009548d3511612d405760405162461bcd60e51b815260206004820152601d60248201527f746f74616c53616c65416d6f756e7420697320746f6f20736d616c6c2e0000006044820152606401610c28565b86612d7b5760405162461bcd60e51b815260206004820152600b60248201526a656d70747920706174687360a81b6044820152606401610c28565b8963ffffffff168963ffffffff16118015612da157504263ffffffff168963ffffffff16115b612ded5760405162461bcd60e51b815260206004820152601d60248201527f696e76616c6964205f737461727454696d65206f7220656e6454696d650000006044820152606401610c28565b600160009054906101000a90046001600160a01b03166001600160a01b03166330e06e8b6040518163ffffffff1660e01b8152600401602060405180830381600087803b158015612e3d57600080fd5b505af1158015612e51573d6000803e3d6000fd5b505050506040513d601f19601f82011682018060405250810190612e7591906142d4565b94506040518060a001604052808f6001600160a01b031681526020018e600060038110612eb257634e487b7160e01b600052603260045260246000fd5b602002013581526020018a63ffffffff168152602001600081526020018e600160038110612ef057634e487b7160e01b600052603260045260246000fd5b60200201358152506007600087815260200190815260200160002060008201518160000160006101000a8154816001600160a01b0302191690836001600160a01b031602179055506020820151816001015560408201518160020155606082015181600301556080820151816004015590505060068590806001815401808255809150506001900390600052602060002001600090919091909150556040518060a001604052808760ff1681526020018b63ffffffff1681526020016000151581526020018e600260038110612fd657634e487b7160e01b600052603260045260246000fd5b6020908102919091013582526000918101829052878252600c81526040918290208351815492850151938501511515600160281b0260ff60281b1963ffffffff9095166101000264ffffffffff1990941660ff909216919091179290921792909216178155606082015160018201556080909101516002909101556001600160a01b038c161580159061306857508a15155b156130b4576040805180820182526001600160a01b038e8116825260208083018f815260008a8152600d909252939020915182546001600160a01b031916911617815590516001909101555b86156131cf57866001600160401b038111156130e057634e487b7160e01b600052604160045260246000fd5b60405190808252806020026020018201604052801561311357816020015b60608152602001906001900390816130fe5790505b506000868152600e6020908152604090912082516131379391929190910190613e7f565b5060005b878110156131cd5788888281811061316357634e487b7160e01b600052603260045260246000fd5b90506020028101906131759190614b3b565b6000888152600e602052604090208054849081106131a357634e487b7160e01b600052603260045260246000fd5b9060005260206000200191906131ba929190613f94565b50806131c581614c94565b91505061313b565b505b6001600160a01b038e161561326157600260009054906101000a90046001600160a01b03166001600160a01b0316639ea649858f6040518263ffffffff1660e01b815260040161322e91906001600160a01b0391909116815260200190565b600060405180830381600087803b15801561324857600080fd5b505af115801561325c573d6000803e3d6000fd5b505050505b7fc108063a4550e86be130ca7553d30e951e5556e601452fd0d92ce511c4f6221b858f8f8f8f8f8f8f8f6040516132a099989796959493929190614a33565b60405180910390a1505050509998505050505050505050565b6132c2336134ab565b6132de5760405162461bcd60e51b8152600401610c2890614945565b80600954141561331e5760405162461bcd60e51b815260206004820152600b60248201526a1cd85b5948185b5bdd5b9d60aa1b6044820152606401610c28565b60098190556040518181527f9961843a54376364c925ef0bce05dd5fc5e8983e905c6cc0171dd78a566192f99060200160405180910390a150565b60008281526008602052604090206001015461337581336135dd565b610dc483836136c7565b6000818152600760209081526040808320815160a0808201845282546001600160a01b031682526001808401548387015260028085015484870190815260038601546060808701919091526004909601546080808701919091528a8a52600c8952878a2088519586018952805460ff808216885263ffffffff6101008304169b88018c9052600160281b909104161515988601989098529287015495840186905295015490820152925185949193928592839261343b926113fd565b90925090508115613459578184602001516134569190614bce565b95505b600081118015613475575060808301516134738288614be2565b115b156134965760808301516134898288614be2565b6134939190614c01565b94505b50505050915091565b6000610bfd81836123ed565b6000610bfd600080516020614d26833981519152836123ed565b6134ce336134ab565b6134ea5760405162461bcd60e51b8152600401610c2890614945565b6000828152600c60205260409020548290600160281b900460ff16156135225760405162461bcd60e51b8152600401610c28906148b0565b60008181526007602052604090206002015442106135525760405162461bcd60e51b8152600401610c28906148b0565b81806135705760405162461bcd60e51b8152600401610c2890614879565b600084815260076020908152604091829020600481018690558251878152918201869052917f8acfbca94764d5685c5bfc97648ab602aaf360f94d79dcdeebc61f39b98447b1910160405180910390a15050505050565b60008183106135d65781611f5b565b5090919050565b6135e782826123ed565b611058576135ff816001600160a01b03166014613c16565b61360a836020613c16565b60405160200161361b929190614605565b60408051601f198184030181529082905262461bcd60e51b8252610c28916004016147dc565b61364b82826123ed565b6110585760008281526008602090815260408083206001600160a01b03851684529091529020805460ff191660011790556136833390565b6001600160a01b0316816001600160a01b0316837f2f8788117e7eff1d82e926ec794901d17c78024a50270940304540a733656f0d60405160405180910390a45050565b6136d182826123ed565b156110585760008281526008602090815260408083206001600160a01b0385168085529252808320805460ff1916905551339285917ff6391f5c32d9c69d2a47ea670b442974b53935d1edc7fd64eb21e047a839171b9190a45050565b600080600560149054906101000a900460ff1615156001151514156137955760405162461bcd60e51b815260206004820152601f60248201527f5265656e7472616e637947756172643a207265656e7472616e742063616c6c006044820152606401610c28565b6005805460ff60a01b1916600160a01b1790556000848152600760209081526040808320815160a08101835281546001600160a01b03168152600182015481850152600282015481840152600382015460608201526004909101546080820152878452600c90925290912061381b86866107f861381183610dc9565b86608001516135c7565b9250868310156138895760405162461bcd60e51b815260206004820152603360248201527f54686520626f6e64696e6720616d6f756e74206973206c657373207468616e206044820152723a34329036b4b734b6bab69030b6b7bab73a1760691b6064820152608401610c28565b670de0b6b3a764000061389c848a614be2565b6138a69190614bce565b935081602001518160020154856138bd9190614bb6565b111561390b5760405162461bcd60e51b815260206004820152601760248201527f73616c657320766f6c756d65206973206c61636b696e670000000000000000006044820152606401610c28565b60006139448260000160019054906101000a900463ffffffff1663ffffffff168460400151846001015486602001518660020154613df7565b915050808511156139975760405162461bcd60e51b815260206004820152601b60248201527f6578636565642063757272656e7443617061636974794c696d697400000000006044820152606401610c28565b6000670de0b6b3a7640000600260009054906101000a90046001600160a01b03166001600160a01b03166396f0bd616040518163ffffffff1660e01b815260040160206040518083038186803b1580156139f057600080fd5b505afa158015613a04573d6000803e3d6000fd5b505050506040513d601f19601f82011682018060405250810190613a2891906142d4565b613a32908c614be2565b613a3c9190614bce565b905085811015613aa25760405162461bcd60e51b815260206004820152602b60248201527f6d696e7461626c65416d6f756e74206973206c657373207468616e207374616b60448201526a34b7339030b6b7bab73a1760a91b6064820152608401610c28565b85836002016000828254613ab69190614bb6565b909155505060095460028401546020860151613ad29190614c01565b11613b2357825460ff60281b1916600160281b1783556040517f065f36f0cc9a946e058a78fcf529ed8629c0ad3f6d065007c3c9162fd2c39d6390613b1a908a815260200190565b60405180910390a15b60025460405163ef7c6c0f60e01b81526004810183905260248101889052600160448201526001600160a01b039091169063ef7c6c0f90606401600060405180830381600087803b158015613b7757600080fd5b505af1158015613b8b573d6000803e3d6000fd5b5050604080516001600160a01b038f168152602081018c90529081018d9052606081018990526001608082015260a081018490527fef81711614d4ac7faee84826311bec7d949a272a2e7e4f39f3a3b72527767d69925060c001905060405180910390a150506005805460ff60a01b19169055509197909650945050505050565b6110588282613641565b60606000613c25836002614be2565b613c30906002614bb6565b6001600160401b03811115613c5557634e487b7160e01b600052604160045260246000fd5b6040519080825280601f01601f191660200182016040528015613c7f576020820181803683370190505b509050600360fc1b81600081518110613ca857634e487b7160e01b600052603260045260246000fd5b60200101906001600160f81b031916908160001a905350600f60fb1b81600181518110613ce557634e487b7160e01b600052603260045260246000fd5b60200101906001600160f81b031916908160001a9053506000613d09846002614be2565b613d14906001614bb6565b90505b6001811115613da8576f181899199a1a9b1b9c1cb0b131b232b360811b85600f1660108110613d5657634e487b7160e01b600052603260045260246000fd5b1a60f81b828281518110613d7a57634e487b7160e01b600052603260045260246000fd5b60200101906001600160f81b031916908160001a90535060049490941c93613da181614c48565b9050613d17565b508315611f5b5760405162461bcd60e51b815260206004820181905260248201527f537472696e67733a20686578206c656e67746820696e73756666696369656e746044820152606401610c28565b600080600080613e088989896113fd565b90925090508115613e2057613e1d8287614bce565b93505b600081118015613e38575084613e368286614be2565b115b15613e555784613e488286614be2565b613e529190614c01565b92505b50509550959350505050565b508054600082559060005260206000209081019061155b9190614008565b828054828255906000526020600020908101928215613ecc579160200282015b82811115613ecc5782518051613ebc918491602090910190613edc565b5091602001919060010190613e9f565b50613ed8929150614008565b5090565b828054613ee890614c5f565b90600052602060002090601f016020900481019282613f0a5760008555613f50565b82601f10613f2357805160ff1916838001178555613f50565b82800160010185558215613f50579182015b82811115613f50578251825591602001919060010190613f35565b50613ed8929150614025565b6040518060a0016040528060006001600160a01b03168152602001600081526020016000815260200160008152602001600081525090565b828054613fa090614c5f565b90600052602060002090601f016020900481019282613fc25760008555613f50565b82601f10613fdb5782800160ff19823516178555613f50565b82800160010185558215613f50579182015b82811115613f50578235825591602001919060010190613fed565b80821115613ed857600061401c828261403a565b50600101614008565b5b80821115613ed85760008155600101614026565b50805461404690614c5f565b6000825580601f10614056575050565b601f01602090049060005260206000209081019061155b9190614025565b80356001600160a01b038116811461408b57600080fd5b919050565b600082601f8301126140a0578081fd5b81356001600160401b038111156140b9576140b9614cef565b6140cc601f8201601f1916602001614b86565b8181528460208386010111156140e0578283fd5b816020850160208301379081016020019190915292915050565b803563ffffffff8116811461408b57600080fd5b803560ff8116811461408b57600080fd5b600060208284031215614130578081fd5b611f5b82614074565b6000806040838503121561414b578081fd5b61415483614074565b915061416260208401614074565b90509250929050565b60008060008060008060008060006101408a8c031215614189578485fd5b6141928a614074565b985060808a018b8111156141a4578586fd5b60208b0198506141b381614074565b97505060a08a013595506141c960c08b016140fa565b94506141d760e08b016140fa565b93506101008a01356001600160401b03808211156141f3578485fd5b818c0191508c601f830112614206578485fd5b813581811115614214578586fd5b8d60208260051b8501011115614228578586fd5b6020830195508094505050506142416101208b0161410e565b90509295985092959850929598565b600060208284031215614261578081fd5b5035919050565b6000806040838503121561427a578182fd5b8235915061416260208401614074565b60006020828403121561429b578081fd5b81356001600160e01b031981168114611f5b578182fd5b6000602082840312156142c3578081fd5b815161ffff81168114611f5b578182fd5b6000602082840312156142e5578081fd5b5051919050565b600080600060608486031215614300578283fd5b8335925061431060208501614074565b9150604084013590509250925092565b60008060408385031215614332578182fd5b823591506020808401356001600160401b0380821115614350578384fd5b818601915086601f830112614363578384fd5b81358181111561437557614375614cef565b8060051b614384858201614b86565b8281528581019085870183870188018c101561439e578889fd5b8893505b848410156143db578035868111156143b857898afd5b6143c68d8a838b0101614090565b845250600193909301929187019187016143a2565b50809750505050505050509250929050565b600080600060608486031215614401578081fd5b8335925060208401358015158114614417578182fd5b929592945050506040919091013590565b6000806040838503121561443a578182fd5b50508035926020909101359150565b60008060006060848603121561445d578081fd5b505081359360208301359350604090920135919050565b60008060008060808587031215614489578182fd5b8435935060208501359250604085013591506144a76060860161410e565b905092959194509250565b6000806000606084860312156144c6578081fd5b833592506143106020850161410e565b600081518084526020808501808196508360051b81019150828601855b8581101561451d57828403895261450b8483516145d9565b988501989350908401906001016144f3565b5091979650505050505050565b6000815180845260208085019450808401835b838110156145765761456387835180516001600160a01b03168252602090810151910152565b604096909601959082019060010161453d565b509495945050505050565b6000815180845260208085019450808401835b8381101561457657815187529582019590820190600101614594565b81835281816020850137506000828201602090810191909152601f909101601f19169091010190565b600081518084526145f1816020860160208601614c18565b601f01601f19169290920160200192915050565b7f416363657373436f6e74726f6c3a206163636f756e742000000000000000000081526000835161463d816017850160208801614c18565b7001034b99036b4b9b9b4b733903937b6329607d1b601791840191820152835161466e816028840160208801614c18565b01602801949350505050565b6001600160a01b038416815260606020820181905260009061469e908301856145d9565b9050826040830152949350505050565b602081526000611f5b6020830184614581565b6080815260006146d46080830187614581565b828103602084810191909152865180835287820192820190845b818110156147455761473283865180516001600160a01b03168252602080820151908301526040808201519083015260608082015190830152608090810151910152565b9383019360a092909201916001016146ee565b505084810360408601528651808252908201925081870190845b818110156147bb576147a885845160ff815116825263ffffffff602082015116602083015260408101511515604083015260608101516060830152608081015160808301525050565b60a094909401939183019160010161475f565b5050505082810360608401526147d1818561452a565b979650505050505050565b602081526000611f5b60208301846145d9565b60208082526022908201527f41636365737369626c653a2043616c6c6572206973206e6f7420616e2061646d60408201526134b760f11b606082015260800190565b60208082526028908201527f41636365737369626c653a2043616c6c6572206973206e6f7420616e2070726f6040820152673c3c9030b236b4b760c11b606082015260800190565b60208082526019908201527f426f6e644465706f7369746f72793a207a65726f2075696e7400000000000000604082015260600190565b6020808252600d908201526c18db1bdcd959081b585c9ad95d609a1b604082015260600190565b60208082526024908201527f4465706f7369746f72793a2045544820616d6f756e747320646f206e6f74206d6040820152630c2e8c6d60e31b606082015260800190565b60208082526010908201526f1b9bdb8b595e1a5cdd081b585c9ad95d60821b604082015260600190565b60208082526029908201527f41636365737369626c653a2043616c6c6572206973206e6f7420616e20706f6c60408201526834b1bc9030b236b4b760b91b606082015260800190565b84516001600160a01b031681526020808601519082015260408086015190820152606080860151908201526080808601519082015260006101a0855160ff1660a0840152602086015163ffffffff1660c08401526040860151151560e08401526060860151610100840152608086015161012084015284516001600160a01b03166101408401526020850151610160840152806101808401526147d1818401856144d6565b60006101408083018c8452602060018060a01b03808e168287015260608d60408801378b1660a086015260c085018a905263ffffffff89811660e0870152881661010086015261012085019290925284905261016080840191600586901b85019091019086845b87811015614b065786840361015f190185528135368a9003601e19018112614ac0578687fd5b890180356001600160401b03811115614ad7578788fd5b8036038b1315614ae5578788fd5b614af286828785016145b0565b968501969550505090820190600101614a9a565b50919e9d5050505050505050505050505050565b828152604060208201526000614b3360408301846144d6565b949350505050565b6000808335601e19843603018112614b51578283fd5b8301803591506001600160401b03821115614b6a578283fd5b602001915036819003821315614b7f57600080fd5b9250929050565b604051601f8201601f191681016001600160401b0381118282101715614bae57614bae614cef565b604052919050565b60008219821115614bc957614bc9614cc3565b500190565b600082614bdd57614bdd614cd9565b500490565b6000816000190483118215151615614bfc57614bfc614cc3565b500290565b600082821015614c1357614c13614cc3565b500390565b60005b83811015614c33578181015183820152602001614c1b565b83811115614c42576000848401525b50505050565b600081614c5757614c57614cc3565b506000190190565b600181811c90821680614c7357607f821691505b60208210811415610fd857634e487b7160e01b600052602260045260246000fd5b6000600019821415614ca857614ca8614cc3565b5060010190565b600082614cbe57614cbe614cd9565b500690565b634e487b7160e01b600052601160045260246000fd5b634e487b7160e01b600052601260045260246000fd5b634e487b7160e01b600052604160045260246000fdfedf8b4c520ffe197c5343c6f5aec59570151ef9a492f2c624fd45ddde6135ec42fb5864e8ff833c3cb2d2d08505e82ff02a43554c74a35d4f5a64e85261278311a26469706673582212208a2e094a9b18378abc2de762a88e7cbae8b5aa1a8ede6656a95f5f7b3db2c5ac64736f6c63430008040033",
  "linkReferences": {},
  "deployedLinkReferences": {}
}