{
  "_format": "hh-sol-artifact-1",
  "contractName": "BondDepository",
  "sourceName": "contracts/BondDepository.sol",
  "abi": [
    {
      "inputs": [],
      "stateMutability": "nonpayable",
      "type": "constructor"
    },
    {
      "anonymous": false,
      "inputs": [
        {
          "indexed": false,
          "internalType": "uint256",
          "name": "_marketId",
          "type": "uint256"
        },
        {
          "indexed": false,
          "internalType": "uint256",
          "name": "_amount",
          "type": "uint256"
        }
      ],
      "name": "ChangedCapacity",
      "type": "event"
    },
    {
      "anonymous": false,
      "inputs": [
        {
          "indexed": false,
          "internalType": "uint256",
          "name": "_marketId",
          "type": "uint256"
        },
        {
          "indexed": false,
          "internalType": "uint256",
          "name": "closeTime",
          "type": "uint256"
        }
      ],
      "name": "ChangedCloseTime",
      "type": "event"
    },
    {
      "anonymous": false,
      "inputs": [
        {
          "indexed": false,
          "internalType": "uint256",
          "name": "_marketId",
          "type": "uint256"
        },
        {
          "indexed": false,
          "internalType": "uint256",
          "name": "_amount",
          "type": "uint256"
        }
      ],
      "name": "ChangedMaxPayout",
      "type": "event"
    },
    {
      "anonymous": false,
      "inputs": [
        {
          "indexed": false,
          "internalType": "uint256",
          "name": "_marketId",
          "type": "uint256"
        },
        {
          "indexed": false,
          "internalType": "uint256",
          "name": "_tosPrice",
          "type": "uint256"
        }
      ],
      "name": "ChangedPrice",
      "type": "event"
    },
    {
      "anonymous": false,
      "inputs": [
        {
          "indexed": false,
          "internalType": "uint256",
          "name": "marketId",
          "type": "uint256"
        }
      ],
      "name": "ClosedMarket",
      "type": "event"
    },
    {
      "anonymous": false,
      "inputs": [
        {
          "indexed": false,
          "internalType": "uint256",
          "name": "marketId",
          "type": "uint256"
        },
        {
          "indexed": false,
          "internalType": "address",
          "name": "token",
          "type": "address"
        },
        {
          "indexed": false,
          "internalType": "uint256[4]",
          "name": "market",
          "type": "uint256[4]"
        }
      ],
      "name": "CreatedMarket",
      "type": "event"
    },
    {
      "anonymous": false,
      "inputs": [
        {
          "indexed": false,
          "internalType": "address",
          "name": "user",
          "type": "address"
        },
        {
          "indexed": false,
          "internalType": "uint256",
          "name": "marketId",
          "type": "uint256"
        },
        {
          "indexed": false,
          "internalType": "uint256",
          "name": "amount",
          "type": "uint256"
        },
        {
          "indexed": false,
          "internalType": "uint256",
          "name": "payout",
          "type": "uint256"
        },
        {
          "indexed": false,
          "internalType": "bool",
          "name": "isEth",
          "type": "bool"
        },
        {
          "indexed": false,
          "internalType": "uint256",
          "name": "mintAmount",
          "type": "uint256"
        }
      ],
      "name": "Deposited",
      "type": "event"
    },
    {
      "anonymous": false,
      "inputs": [
        {
          "indexed": false,
          "internalType": "address",
          "name": "user",
          "type": "address"
        },
        {
          "indexed": false,
          "internalType": "uint256",
          "name": "marketId",
          "type": "uint256"
        },
        {
          "indexed": false,
          "internalType": "uint256",
          "name": "stakeId",
          "type": "uint256"
        },
        {
          "indexed": false,
          "internalType": "uint256",
          "name": "amount",
          "type": "uint256"
        },
        {
          "indexed": false,
          "internalType": "uint256",
          "name": "tosValuation",
          "type": "uint256"
        }
      ],
      "name": "ETHDeposited",
      "type": "event"
    },
    {
      "anonymous": false,
      "inputs": [
        {
          "indexed": false,
          "internalType": "address",
          "name": "user",
          "type": "address"
        },
        {
          "indexed": false,
          "internalType": "uint256",
          "name": "marketId",
          "type": "uint256"
        },
        {
          "indexed": false,
          "internalType": "uint256",
          "name": "stakeId",
          "type": "uint256"
        },
        {
          "indexed": false,
          "internalType": "uint256",
          "name": "amount",
          "type": "uint256"
        },
        {
          "indexed": false,
          "internalType": "uint256",
          "name": "lockWeeks",
          "type": "uint256"
        },
        {
          "indexed": false,
          "internalType": "uint256",
          "name": "tosValuation",
          "type": "uint256"
        }
      ],
      "name": "ETHDepositedWithSTOS",
      "type": "event"
    },
    {
      "anonymous": false,
      "inputs": [
        {
          "indexed": true,
          "internalType": "bytes32",
          "name": "role",
          "type": "bytes32"
        },
        {
          "indexed": true,
          "internalType": "bytes32",
          "name": "previousAdminRole",
          "type": "bytes32"
        },
        {
          "indexed": true,
          "internalType": "bytes32",
          "name": "newAdminRole",
          "type": "bytes32"
        }
      ],
      "name": "RoleAdminChanged",
      "type": "event"
    },
    {
      "anonymous": false,
      "inputs": [
        {
          "indexed": true,
          "internalType": "bytes32",
          "name": "role",
          "type": "bytes32"
        },
        {
          "indexed": true,
          "internalType": "address",
          "name": "account",
          "type": "address"
        },
        {
          "indexed": true,
          "internalType": "address",
          "name": "sender",
          "type": "address"
        }
      ],
      "name": "RoleGranted",
      "type": "event"
    },
    {
      "anonymous": false,
      "inputs": [
        {
          "indexed": true,
          "internalType": "bytes32",
          "name": "role",
          "type": "bytes32"
        },
        {
          "indexed": true,
          "internalType": "address",
          "name": "account",
          "type": "address"
        },
        {
          "indexed": true,
          "internalType": "address",
          "name": "sender",
          "type": "address"
        }
      ],
      "name": "RoleRevoked",
      "type": "event"
    },
    {
      "anonymous": false,
      "inputs": [
        {
          "indexed": false,
          "internalType": "address",
          "name": "calculatorAddress",
          "type": "address"
        }
      ],
      "name": "SetCalculator",
      "type": "event"
    },
    {
      "inputs": [],
      "name": "ADMIN_ROLE",
      "outputs": [
        {
          "internalType": "bytes32",
          "name": "",
          "type": "bytes32"
        }
      ],
      "stateMutability": "view",
      "type": "function"
    },
    {
      "inputs": [],
      "name": "DEFAULT_ADMIN_ROLE",
      "outputs": [
        {
          "internalType": "bytes32",
          "name": "",
          "type": "bytes32"
        }
      ],
      "stateMutability": "view",
      "type": "function"
    },
    {
      "inputs": [
        {
          "internalType": "uint256",
          "name": "_id",
          "type": "uint256"
        },
        {
          "internalType": "uint256",
          "name": "_amount",
          "type": "uint256"
        }
      ],
      "name": "ETHDeposit",
      "outputs": [
        {
          "internalType": "uint256",
          "name": "payout_",
          "type": "uint256"
        }
      ],
      "stateMutability": "payable",
      "type": "function"
    },
    {
      "inputs": [
        {
          "internalType": "uint256",
          "name": "_id",
          "type": "uint256"
        },
        {
          "internalType": "uint256",
          "name": "_amount",
          "type": "uint256"
        },
        {
          "internalType": "uint256",
          "name": "_lockWeeks",
          "type": "uint256"
        }
      ],
      "name": "ETHDepositWithSTOS",
      "outputs": [
        {
          "internalType": "uint256",
          "name": "payout_",
          "type": "uint256"
        }
      ],
      "stateMutability": "payable",
      "type": "function"
    },
    {
      "inputs": [],
      "name": "POLICY_ROLE",
      "outputs": [
        {
          "internalType": "bytes32",
          "name": "",
          "type": "bytes32"
        }
      ],
      "stateMutability": "view",
      "type": "function"
    },
    {
      "inputs": [
        {
          "internalType": "address",
          "name": "account",
          "type": "address"
        }
      ],
      "name": "addAdmin",
      "outputs": [],
      "stateMutability": "nonpayable",
      "type": "function"
    },
    {
      "inputs": [
        {
          "internalType": "address",
          "name": "_account",
          "type": "address"
        }
      ],
      "name": "addPolicy",
      "outputs": [],
      "stateMutability": "nonpayable",
      "type": "function"
    },
    {
      "inputs": [
        {
          "internalType": "address",
          "name": "_owner",
          "type": "address"
        }
      ],
      "name": "addProxyAdmin",
      "outputs": [],
      "stateMutability": "nonpayable",
      "type": "function"
    },
    {
      "inputs": [
        {
          "internalType": "uint256",
          "name": "_tosPrice",
          "type": "uint256"
        },
        {
          "internalType": "uint256",
          "name": "_amount",
          "type": "uint256"
        }
      ],
      "name": "calculateTosAmountForAsset",
      "outputs": [
        {
          "internalType": "uint256",
          "name": "payout",
          "type": "uint256"
        }
      ],
      "stateMutability": "pure",
      "type": "function"
    },
    {
      "inputs": [],
      "name": "calculator",
      "outputs": [
        {
          "internalType": "address",
          "name": "",
          "type": "address"
        }
      ],
      "stateMutability": "view",
      "type": "function"
    },
    {
      "inputs": [
        {
          "internalType": "uint256",
          "name": "_marketId",
          "type": "uint256"
        },
        {
          "internalType": "uint256",
          "name": "_amount",
          "type": "uint256"
        }
      ],
      "name": "changeCapacity",
      "outputs": [],
      "stateMutability": "nonpayable",
      "type": "function"
    },
    {
      "inputs": [
        {
          "internalType": "uint256",
          "name": "_marketId",
          "type": "uint256"
        },
        {
          "internalType": "uint256",
          "name": "closeTime",
          "type": "uint256"
        }
      ],
      "name": "changeCloseTime",
      "outputs": [],
      "stateMutability": "nonpayable",
      "type": "function"
    },
    {
      "inputs": [
        {
          "internalType": "uint256",
          "name": "_marketId",
          "type": "uint256"
        },
        {
          "internalType": "uint256",
          "name": "_amount",
          "type": "uint256"
        }
      ],
      "name": "changeMaxPayout",
      "outputs": [],
      "stateMutability": "nonpayable",
      "type": "function"
    },
    {
      "inputs": [
        {
          "internalType": "uint256",
          "name": "_marketId",
          "type": "uint256"
        },
        {
          "internalType": "uint256",
          "name": "_tosPrice",
          "type": "uint256"
        }
      ],
      "name": "changePrice",
      "outputs": [],
      "stateMutability": "nonpayable",
      "type": "function"
    },
    {
      "inputs": [
        {
          "internalType": "uint256",
          "name": "_id",
          "type": "uint256"
        }
      ],
      "name": "close",
      "outputs": [],
      "stateMutability": "nonpayable",
      "type": "function"
    },
    {
      "inputs": [
        {
          "internalType": "address",
          "name": "_token",
          "type": "address"
        },
        {
          "internalType": "uint256[4]",
          "name": "_market",
          "type": "uint256[4]"
        }
      ],
      "name": "create",
      "outputs": [
        {
          "internalType": "uint256",
          "name": "id_",
          "type": "uint256"
        }
      ],
      "stateMutability": "nonpayable",
      "type": "function"
    },
    {
      "inputs": [
        {
          "internalType": "address",
          "name": "_account",
          "type": "address"
        }
      ],
      "name": "deletePolicy",
      "outputs": [],
      "stateMutability": "nonpayable",
      "type": "function"
    },
    {
      "inputs": [],
      "name": "dtos",
      "outputs": [
        {
          "internalType": "address",
          "name": "",
          "type": "address"
        }
      ],
      "stateMutability": "view",
      "type": "function"
    },
    {
      "inputs": [],
      "name": "getBonds",
      "outputs": [
        {
          "internalType": "uint256[]",
          "name": "",
          "type": "uint256[]"
        },
        {
          "internalType": "address[]",
          "name": "",
          "type": "address[]"
        },
        {
          "internalType": "uint256[]",
          "name": "",
          "type": "uint256[]"
        },
        {
          "internalType": "uint256[]",
          "name": "",
          "type": "uint256[]"
        },
        {
          "internalType": "uint256[]",
          "name": "",
          "type": "uint256[]"
        }
      ],
      "stateMutability": "view",
      "type": "function"
    },
    {
      "inputs": [],
      "name": "getMarketList",
      "outputs": [
        {
          "internalType": "uint256[]",
          "name": "",
          "type": "uint256[]"
        }
      ],
      "stateMutability": "view",
      "type": "function"
    },
    {
      "inputs": [
        {
          "internalType": "bytes32",
          "name": "role",
          "type": "bytes32"
        }
      ],
      "name": "getRoleAdmin",
      "outputs": [
        {
          "internalType": "bytes32",
          "name": "",
          "type": "bytes32"
        }
      ],
      "stateMutability": "view",
      "type": "function"
    },
    {
      "inputs": [
        {
          "internalType": "bytes32",
          "name": "role",
          "type": "bytes32"
        },
        {
          "internalType": "address",
          "name": "account",
          "type": "address"
        }
      ],
      "name": "grantRole",
      "outputs": [],
      "stateMutability": "nonpayable",
      "type": "function"
    },
    {
      "inputs": [
        {
          "internalType": "bytes32",
          "name": "role",
          "type": "bytes32"
        },
        {
          "internalType": "address",
          "name": "account",
          "type": "address"
        }
      ],
      "name": "hasRole",
      "outputs": [
        {
          "internalType": "bool",
          "name": "",
          "type": "bool"
        }
      ],
      "stateMutability": "view",
      "type": "function"
    },
    {
      "inputs": [
        {
          "internalType": "address",
          "name": "account",
          "type": "address"
        }
      ],
      "name": "isAdmin",
      "outputs": [
        {
          "internalType": "bool",
          "name": "",
          "type": "bool"
        }
      ],
      "stateMutability": "view",
      "type": "function"
    },
    {
      "inputs": [
        {
          "internalType": "uint256",
          "name": "_marketId",
          "type": "uint256"
        }
      ],
      "name": "isOpened",
      "outputs": [
        {
          "internalType": "bool",
          "name": "closedBool",
          "type": "bool"
        }
      ],
      "stateMutability": "view",
      "type": "function"
    },
    {
      "inputs": [
        {
          "internalType": "address",
          "name": "account",
          "type": "address"
        }
      ],
      "name": "isPolicy",
      "outputs": [
        {
          "internalType": "bool",
          "name": "",
          "type": "bool"
        }
      ],
      "stateMutability": "view",
      "type": "function"
    },
    {
      "inputs": [
        {
          "internalType": "address",
          "name": "account",
          "type": "address"
        }
      ],
      "name": "isProxyAdmin",
      "outputs": [
        {
          "internalType": "bool",
          "name": "",
          "type": "bool"
        }
      ],
      "stateMutability": "view",
      "type": "function"
    },
    {
      "inputs": [
        {
          "internalType": "uint256",
          "name": "",
          "type": "uint256"
        }
      ],
      "name": "marketList",
      "outputs": [
        {
          "internalType": "uint256",
          "name": "",
          "type": "uint256"
        }
      ],
      "stateMutability": "view",
      "type": "function"
    },
    {
      "inputs": [
        {
          "internalType": "uint256",
          "name": "",
          "type": "uint256"
        }
      ],
      "name": "markets",
      "outputs": [
        {
          "internalType": "address",
          "name": "quoteToken",
          "type": "address"
        },
        {
          "internalType": "uint256",
          "name": "capacity",
          "type": "uint256"
        },
        {
          "internalType": "uint256",
          "name": "endSaleTime",
          "type": "uint256"
        },
        {
          "internalType": "uint256",
          "name": "maxPayout",
          "type": "uint256"
        },
        {
          "internalType": "uint256",
          "name": "tosPrice",
          "type": "uint256"
        }
      ],
      "stateMutability": "view",
      "type": "function"
    },
    {
      "inputs": [
        {
          "internalType": "uint256",
          "name": "_tosPrice",
          "type": "uint256"
        },
        {
          "internalType": "uint256",
          "name": "_maxPayout",
          "type": "uint256"
        }
      ],
      "name": "purchasableAssetAmountAtOneTime",
      "outputs": [
        {
          "internalType": "uint256",
          "name": "maxPayout_",
          "type": "uint256"
        }
      ],
      "stateMutability": "pure",
      "type": "function"
    },
    {
      "inputs": [],
      "name": "removeAdmin",
      "outputs": [],
      "stateMutability": "nonpayable",
      "type": "function"
    },
    {
      "inputs": [],
      "name": "removePolicy",
      "outputs": [],
      "stateMutability": "nonpayable",
      "type": "function"
    },
    {
      "inputs": [],
      "name": "removeProxyAdmin",
      "outputs": [],
      "stateMutability": "nonpayable",
      "type": "function"
    },
    {
      "inputs": [
        {
          "internalType": "bytes32",
          "name": "role",
          "type": "bytes32"
        },
        {
          "internalType": "address",
          "name": "account",
          "type": "address"
        }
      ],
      "name": "renounceRole",
      "outputs": [],
      "stateMutability": "nonpayable",
      "type": "function"
    },
    {
      "inputs": [
        {
          "internalType": "bytes32",
          "name": "role",
          "type": "bytes32"
        },
        {
          "internalType": "address",
          "name": "account",
          "type": "address"
        }
      ],
      "name": "revokeRole",
      "outputs": [],
      "stateMutability": "nonpayable",
      "type": "function"
    },
    {
      "inputs": [
        {
          "internalType": "address",
          "name": "_calculator",
          "type": "address"
        }
      ],
      "name": "setCalculator",
      "outputs": [],
      "stateMutability": "nonpayable",
      "type": "function"
    },
    {
      "inputs": [],
      "name": "staking",
      "outputs": [
        {
          "internalType": "contract IStaking",
          "name": "",
          "type": "address"
        }
      ],
      "stateMutability": "view",
      "type": "function"
    },
    {
      "inputs": [
        {
          "internalType": "bytes4",
          "name": "interfaceId",
          "type": "bytes4"
        }
      ],
      "name": "supportsInterface",
      "outputs": [
        {
          "internalType": "bool",
          "name": "",
          "type": "bool"
        }
      ],
      "stateMutability": "view",
      "type": "function"
    },
    {
      "inputs": [],
      "name": "tos",
      "outputs": [
        {
          "internalType": "contract IERC20",
          "name": "",
          "type": "address"
        }
      ],
      "stateMutability": "view",
      "type": "function"
    },
    {
      "inputs": [],
      "name": "totalMarketCount",
      "outputs": [
        {
          "internalType": "uint256",
          "name": "",
          "type": "uint256"
        }
      ],
      "stateMutability": "view",
      "type": "function"
    },
    {
      "inputs": [
        {
          "internalType": "address",
          "name": "newAdmin",
          "type": "address"
        }
      ],
      "name": "transferAdmin",
      "outputs": [],
      "stateMutability": "nonpayable",
      "type": "function"
    },
    {
      "inputs": [
        {
          "internalType": "address",
          "name": "newAdmin",
          "type": "address"
        }
      ],
      "name": "transferProxyAdmin",
      "outputs": [],
      "stateMutability": "nonpayable",
      "type": "function"
    },
    {
      "inputs": [],
      "name": "treasury",
      "outputs": [
        {
          "internalType": "address",
          "name": "",
          "type": "address"
        }
      ],
      "stateMutability": "view",
      "type": "function"
    },
    {
      "inputs": [],
      "name": "uniswapV3Factory",
      "outputs": [
        {
          "internalType": "address",
          "name": "",
          "type": "address"
        }
      ],
      "stateMutability": "view",
      "type": "function"
    },
    {
      "inputs": [
        {
          "internalType": "uint256",
          "name": "_marketId",
          "type": "uint256"
        }
      ],
      "name": "viewMarket",
      "outputs": [
        {
          "internalType": "address",
          "name": "quoteToken",
          "type": "address"
        },
        {
          "internalType": "uint256",
          "name": "capacity",
          "type": "uint256"
        },
        {
          "internalType": "uint256",
          "name": "endSaleTime",
          "type": "uint256"
        },
        {
          "internalType": "uint256",
          "name": "maxPayout",
          "type": "uint256"
        },
        {
          "internalType": "uint256",
          "name": "tosPrice",
          "type": "uint256"
        }
      ],
      "stateMutability": "view",
      "type": "function"
    }
  ],
  "bytecode": "0x608060405234801561001057600080fd5b50612fc8806100206000396000f3fe6080604052600436106102725760003560e01c806375829def1161014f578063b3de019c116100c1578063d547741f1161007a578063d547741f146107e5578063d6e0eee414610805578063f29310c114610825578063f47f2f1d14610838578063f98e422f14610858578063fad1c85c1461087857600080fd5b8063b3de019c14610730578063b84ef08114610750578063ba62e01c14610770578063be72f2d314610790578063c53468f0146107a5578063ce3e39c0146107c557600080fd5b806391d148541161011357806391d148541461060d57806396f1557c1461062d5780639a202d471461064d578063a217fddf14610662578063b1283e7714610677578063b1667adf146106dc57600080fd5b806375829def1461056557806375b238fc146105855780638356ca4f146105a757806389f395de146105c75780638b140f6b146105e757600080fd5b80634cf088d9116101e85780635faf46bb116101ac5780635faf46bb146104b057806360a66f58146104d057806361d027b3146104f057806365cb3a83146105105780637048027514610525578063708d5c151461054557600080fd5b80634cf088d9146103f65780635b5491821461042e5780635b9907a41461044e5780635fabdf7c146104705780635fabfedc1461049057600080fd5b8063248a9ca31161023a578063248a9ca31461033157806324d7806c146103615780632f2ff15d1461038157806336568abe146103a15780633bb4f50b146103c15780634c8df535146103e157600080fd5b806301ffc9a7146102775780630aebeb4e146102ac57806312fcee80146102ce57806322985246146102ef578063232b956c14610311575b600080fd5b34801561028357600080fd5b50610297610292366004612a3b565b610898565b60405190151581526020015b60405180910390f35b3480156102b857600080fd5b506102cc6102c73660046129f8565b6108cf565b005b6102e16102dc366004612a7b565b610a08565b6040519081526020016102a3565b3480156102fb57600080fd5b506102e1600080516020612f7383398151915281565b34801561031d57600080fd5b506102e161032c3660046129f8565b610c55565b34801561033d57600080fd5b506102e161034c3660046129f8565b60009081526008602052604090206001015490565b34801561036d57600080fd5b5061029761037c3660046129a6565b610c76565b34801561038d57600080fd5b506102cc61039c366004612a10565b610c90565b3480156103ad57600080fd5b506102cc6103bc366004612a10565b610cbb565b3480156103cd57600080fd5b506102e16103dc366004612a7b565b610d39565b3480156103ed57600080fd5b506006546102e1565b34801561040257600080fd5b50600154610416906001600160a01b031681565b6040516001600160a01b0390911681526020016102a3565b34801561043a57600080fd5b50600454610416906001600160a01b031681565b34801561045a57600080fd5b50610463610d5f565b6040516102a39190612ba4565b34801561047c57600080fd5b506102cc61048b3660046129a6565b610db7565b34801561049c57600080fd5b506102cc6104ab366004612a7b565b610df7565b3480156104bc57600080fd5b506102976104cb3660046129f8565b610ef2565b3480156104dc57600080fd5b506102e16104eb366004612a7b565b610f25565b3480156104fc57600080fd5b50600254610416906001600160a01b031681565b34801561051c57600080fd5b506102cc610f3a565b34801561053157600080fd5b506102cc6105403660046129a6565b610f79565b34801561055157600080fd5b506102cc610560366004612a7b565b610fb6565b34801561057157600080fd5b506102cc6105803660046129a6565b6110d1565b34801561059157600080fd5b506102e1600080516020612f5383398151915281565b3480156105b357600080fd5b506102cc6105c23660046129a6565b6111d8565b3480156105d357600080fd5b50600054610416906001600160a01b031681565b3480156105f357600080fd5b506105fc6112b6565b6040516102a3959493929190612bb7565b34801561061957600080fd5b50610297610628366004612a10565b6116c3565b34801561063957600080fd5b506102cc6106483660046129a6565b6116ee565b34801561065957600080fd5b506102cc61171e565b34801561066e57600080fd5b506102e1600081565b34801561068357600080fd5b506106cb6106923660046129f8565b600760205260009081526040902080546001820154600283015460038401546004909401546001600160a01b0390931693919290919085565b6040516102a3959493929190612b76565b3480156106e857600080fd5b506106cb6106f73660046129f8565b600090815260076020526040902080546001820154600283015460038401546004909401546001600160a01b0390931694919390929091565b34801561073c57600080fd5b506102cc61074b366004612a7b565b61176a565b34801561075c57600080fd5b506102cc61076b3660046129a6565b61185a565b34801561077c57600080fd5b506102cc61078b366004612a7b565b611897565b34801561079c57600080fd5b506102cc611a24565b3480156107b157600080fd5b506102cc6107c03660046129a6565b611a54565b3480156107d157600080fd5b50600354610416906001600160a01b031681565b3480156107f157600080fd5b506102cc610800366004612a10565b611b6b565b34801561081157600080fd5b506102e16108203660046129c0565b611b91565b6102e1610833366004612a9c565b611f66565b34801561084457600080fd5b506102976108533660046129a6565b612242565b34801561086457600080fd5b50600554610416906001600160a01b031681565b34801561088457600080fd5b506102976108933660046129a6565b61224e565b60006001600160e01b03198216637965db0b60e01b14806108c957506301ffc9a760e01b6001600160e01b03198316145b92915050565b6108d83361224e565b6108fd5760405162461bcd60e51b81526004016108f490612df9565b60405180910390fd5b60008181526007602052604090206002015461094a5760405162461bcd60e51b815260206004820152600c60248201526b195b5c1d1e481b585c9ad95d60a21b60448201526064016108f4565b6000818152600760205260409020600201544210806109785750600081815260076020526040902060010154155b6109b55760405162461bcd60e51b815260206004820152600e60248201526d185b1c9958591e4818db1bdcd95960921b60448201526064016108f4565b60008181526007602090815260408083204260028201556001810193909355518381527f065f36f0cc9a946e058a78fcf529ed8629c0ad3f6d065007c3c9162fd2c39d6391015b60405180910390a15050565b60008281526007602052604081206002015483904210610a3a5760405162461bcd60e51b81526004016108f490612d10565b600081815260076020526040902060010154610a685760405162461bcd60e51b81526004016108f490612d7e565b60008481526007602052604090205484906001600160a01b0316158015610a9f575060008181526007602052604090206002015415155b610aeb5760405162461bcd60e51b815260206004820152601e60248201527f426f6e644465706f7369746f72793a206e6f7420455448206d61726b6574000060448201526064016108f4565b8380610b095760405162461bcd60e51b81526004016108f490612d47565b843414610b285760405162461bcd60e51b81526004016108f490612db5565b6000610b35338789612268565b60015460405163332b01f360e01b815233600482015260248101849052604481018b9052606481018390529297509092506000916001600160a01b039091169063332b01f390608401602060405180830381600087803b158015610b9857600080fd5b505af1158015610bac573d6000803e3d6000fd5b505050506040513d601f19601f82011682018060405250810190610bd09190612a63565b6002546040519192506001600160a01b0316903480156108fc02916000818181858888f19350505050158015610c0a573d6000803e3d6000fd5b507fe6842e3c66982eec53fbf127ab93e36198f7d048a044b2761abd0e131b3f84a43389838a8a604051610c42959493929190612b76565b60405180910390a1505050505092915050565b60068181548110610c6557600080fd5b600091825260209091200154905081565b60006108c9600080516020612f53833981519152836116c3565b600082815260086020526040902060010154610cac813361264d565b610cb683836126b1565b505050565b6001600160a01b0381163314610d2b5760405162461bcd60e51b815260206004820152602f60248201527f416363657373436f6e74726f6c3a2063616e206f6e6c792072656e6f756e636560448201526e103937b632b9903337b91039b2b63360891b60648201526084016108f4565b610d358282612737565b5050565b6000670de0b6b3a7640000610d4e8484612ea4565b610d589190612e84565b9392505050565b60606006805480602002602001604051908101604052809291908181526020018280548015610dad57602002820191906000526020600020905b815481526020019060010190808311610d99575b5050505050905090565b610dc033612242565b610ddc5760405162461bcd60e51b81526004016108f490612cc8565b610df4600080516020612f7383398151915282611b6b565b50565b610e003361224e565b610e1c5760405162461bcd60e51b81526004016108f490612df9565b60008281526007602052604090206002015482904210610e4e5760405162461bcd60e51b81526004016108f490612d10565b600081815260076020526040902060010154610e7c5760405162461bcd60e51b81526004016108f490612d7e565b8180610e9a5760405162461bcd60e51b81526004016108f490612d47565b600084815260076020908152604091829020600381018690558251878152918201869052917f13067d803552eac6ffd9ed0180e377884374b0ee53d2efa798e1c6d6974db44191015b60405180910390a15050505050565b600081815260076020526040812060020154421080156108c9575050600090815260076020526040902060010154151590565b600082610d4e83670de0b6b3a7640000612ea4565b610f433361224e565b610f5f5760405162461bcd60e51b81526004016108f490612df9565b610f77600080516020612f7383398151915233610cbb565b565b610f8233612242565b610f9e5760405162461bcd60e51b81526004016108f490612cc8565b610df4600080516020612f5383398151915282610c90565b610fbf3361224e565b610fdb5760405162461bcd60e51b81526004016108f490612df9565b600082815260076020526040902060030154829061103b5760405162461bcd60e51b815260206004820181905260248201527f426f6e644465706f7369746f72793a206e6f6e2d6578697374206d61726b657460448201526064016108f4565b42821161107b5760405162461bcd60e51b815260206004820152600e60248201526d7061737420636c6f736554696d6560901b60448201526064016108f4565b600083815260076020908152604091829020600281018590558251868152918201859052917fc3daa84eedfacd6851bbf80d00ce11271bf926ac96c3d361c0307023c939d4b3910160405180910390a150505050565b6110da33610c76565b806110e957506110e933612242565b6111055760405162461bcd60e51b81526004016108f490612c86565b6001600160a01b0381166111565760405162461bcd60e51b815260206004820152601860248201527741636365737369626c653a207a65726f206164647265737360401b60448201526064016108f4565b336001600160a01b03821614156111a85760405162461bcd60e51b815260206004820152601660248201527520b1b1b2b9b9b4b136329d1039b0b6b29030b236b4b760511b60448201526064016108f4565b6111c0600080516020612f5383398151915282610c90565b610df4600080516020612f5383398151915233610cbb565b6111e133612242565b6111fd5760405162461bcd60e51b81526004016108f490612cc8565b6001600160a01b03811661124e5760405162461bcd60e51b815260206004820152601860248201527741636365737369626c653a207a65726f206164647265737360401b60448201526064016108f4565b336001600160a01b03821614156112a05760405162461bcd60e51b815260206004820152601660248201527520b1b1b2b9b9b4b136329d1039b0b6b29030b236b4b760511b60448201526064016108f4565b6112ab600082610c90565b610df4600033610cbb565b600654606090819081908190819060008167ffffffffffffffff8111156112ed57634e487b7160e01b600052604160045260246000fd5b604051908082528060200260200182016040528015611316578160200160208202803683370190505b50905060008267ffffffffffffffff81111561134257634e487b7160e01b600052604160045260246000fd5b60405190808252806020026020018201604052801561136b578160200160208202803683370190505b50905060008367ffffffffffffffff81111561139757634e487b7160e01b600052604160045260246000fd5b6040519080825280602002602001820160405280156113c0578160200160208202803683370190505b50905060008467ffffffffffffffff8111156113ec57634e487b7160e01b600052604160045260246000fd5b604051908082528060200260200182016040528015611415578160200160208202803683370190505b50905060008567ffffffffffffffff81111561144157634e487b7160e01b600052604160045260246000fd5b60405190808252806020026020018201604052801561146a578160200160208202803683370190505b50905060005b868110156116b0576006818154811061149957634e487b7160e01b600052603260045260246000fd5b90600052602060002001548682815181106114c457634e487b7160e01b600052603260045260246000fd5b602002602001018181525050600760008783815181106114f457634e487b7160e01b600052603260045260246000fd5b6020026020010151815260200190815260200160002060000160009054906101000a90046001600160a01b031685828151811061154157634e487b7160e01b600052603260045260246000fd5b60200260200101906001600160a01b031690816001600160a01b0316815250506007600087838151811061158557634e487b7160e01b600052603260045260246000fd5b60200260200101518152602001908152602001600020600101548482815181106115bf57634e487b7160e01b600052603260045260246000fd5b602002602001018181525050600760008783815181106115ef57634e487b7160e01b600052603260045260246000fd5b602002602001015181526020019081526020016000206002015483828151811061162957634e487b7160e01b600052603260045260246000fd5b6020026020010181815250506007600087838151811061165957634e487b7160e01b600052603260045260246000fd5b602002602001015181526020019081526020016000206004015482828151811061169357634e487b7160e01b600052603260045260246000fd5b6020908102919091010152806116a881612f21565b915050611470565b50939a9299509097509550909350915050565b60009182526008602090815260408084206001600160a01b0393909316845291905290205460ff1690565b6116f733612242565b6117135760405162461bcd60e51b81526004016108f490612cc8565b610df460008261279e565b61172733610c76565b80611736575061173633612242565b6117525760405162461bcd60e51b81526004016108f490612c86565b610f77600080516020612f5383398151915233610cbb565b6117733361224e565b61178f5760405162461bcd60e51b81526004016108f490612df9565b600082815260076020526040902060020154829042106117c15760405162461bcd60e51b81526004016108f490612d10565b6000818152600760205260409020600101546117ef5760405162461bcd60e51b81526004016108f490612d7e565b818061180d5760405162461bcd60e51b81526004016108f490612d47565b600084815260076020908152604091829020600481018690558251878152918201869052917f8d41eafd4a0911818359bda81daed68115ba0312f42a7098075150da886cd0a49101610ee3565b61186333612242565b61187f5760405162461bcd60e51b81526004016108f490612cc8565b610df4600080516020612f7383398151915282610c90565b6118a03361224e565b6118bc5760405162461bcd60e51b81526004016108f490612df9565b80806118da5760405162461bcd60e51b81526004016108f490612d47565b600083815260076020526040902060030154839061193a5760405162461bcd60e51b815260206004820181905260248201527f426f6e644465706f7369746f72793a206e6f6e2d6578697374206d61726b657460448201526064016108f4565b6000848152600760205260409020600181015484141561198c5760405162461bcd60e51b815260206004820152600d60248201526c73616d6520636170616369747960981b60448201526064016108f4565b83816001015410156119c55760018101546119a79085612ec3565b8160010160008282546119ba9190612e6c565b909155506119ee9050565b8381600101546119d59190612ec3565b8160010160008282546119e89190612e6c565b90915550505b60408051868152602081018690527f7a48fc547f8bd28801c637f2d2776ca84f665db93ed43bd0c5db9aaa162c8d4c9101610ee3565b611a2d33612242565b611a495760405162461bcd60e51b81526004016108f490612cc8565b610f77600033610cbb565b806001600160a01b038116611aab5760405162461bcd60e51b815260206004820152601b60248201527f426f6e644465706f7369746f72793a7a65726f2061646472657373000000000060448201526064016108f4565b611ab433612242565b611ad05760405162461bcd60e51b81526004016108f490612cc8565b6003546001600160a01b0383811691161415611b1d5760405162461bcd60e51b815260206004820152600c60248201526b73616d65206164647265737360a01b60448201526064016108f4565b600380546001600160a01b0319166001600160a01b0384169081179091556040519081527f7816a90568840c698b302fddaa32068d3ac1ecf5aa9ab4060e2ff9463583c23c906020016109fc565b600082815260086020526040902060010154611b87813361264d565b610cb68383612737565b6000611b9c3361224e565b611bb85760405162461bcd60e51b81526004016108f490612df9565b813580611bd75760405162461bcd60e51b81526004016108f490612d47565b604083013580611bf95760405162461bcd60e51b81526004016108f490612d47565b606084013580611c1b5760405162461bcd60e51b81526004016108f490612d47565b68056bc75e2d63100000853511611c745760405162461bcd60e51b815260206004820152601e60248201527f6e6565642074686520746f74616c53616c65416d6f756e74203e20313030000060448201526064016108f4565b600160009054906101000a90046001600160a01b03166001600160a01b03166330e06e8b6040518163ffffffff1660e01b8152600401602060405180830381600087803b158015611cc457600080fd5b505af1158015611cd8573d6000803e3d6000fd5b505050506040513d601f19601f82011682018060405250810190611cfc9190612a63565b60008181526007602052604090206002015490945015611d5e5760405162461bcd60e51b815260206004820152601960248201527f616c72656164792072656769737465726564206d61726b65740000000000000060448201526064016108f4565b42602086013511611daa5760405162461bcd60e51b8152602060048201526016602482015275195b9914d85b19551a5b59481a185cc81c185cdcd95960521b60448201526064016108f4565b6040805160a0810182526001600160a01b0388168152863560208201529081018660016020020135815260200186600360048110611df857634e487b7160e01b600052603260045260246000fd5b6020020135815260200186600260048110611e2357634e487b7160e01b600052603260045260246000fd5b602090810291909101359091526000868152600782526040808220845181546001600160a01b0319166001600160a01b03918216178255938501516001808301919091559185015160028201556060850151600382015560809094015160049094019390935560068054938401815590527ff652222313e28459528d920b65115c16c04f3efc82aaedc97be59f3f377c0d3f909101859055861615611f2257600254604051639ea6498560e01b81526001600160a01b03888116600483015290911690639ea6498590602401600060405180830381600087803b158015611f0957600080fd5b505af1158015611f1d573d6000803e3d6000fd5b505050505b7f9743ac71f9a2bcf57afd56006eb7c6027c94927d2d01c874438472819d40f5c5848787604051611f5593929190612e42565b60405180910390a150505092915050565b60008381526007602052604081206002015484904210611f985760405162461bcd60e51b81526004016108f490612d10565b600081815260076020526040902060010154611fc65760405162461bcd60e51b81526004016108f490612d7e565b60008581526007602052604090205485906001600160a01b0316158015611ffd575060008181526007602052604090206002015415155b6120495760405162461bcd60e51b815260206004820152601e60248201527f426f6e644465706f7369746f72793a206e6f7420455448206d61726b6574000060448201526064016108f4565b84806120675760405162461bcd60e51b81526004016108f490612d47565b84806120855760405162461bcd60e51b81526004016108f490612d47565b8634146120a45760405162461bcd60e51b81526004016108f490612db5565b600186116121045760405162461bcd60e51b815260206004820152602760248201527f5f6c6f636b5765656b73206d7573742062652067726561746572207468616e2060448201526618903bb2b2b59760c91b60648201526084016108f4565b600061211133898b612268565b60015460405163980b109760e01b81529298509092506000916001600160a01b039091169063980b1097906121529033908b908f908e908990600401612b76565b602060405180830381600087803b15801561216c57600080fd5b505af1158015612180573d6000803e3d6000fd5b505050506040513d601f19601f820116820180604052508101906121a49190612a63565b6002546040519192506001600160a01b0316903480156108fc02916000818181858888f193505050501580156121de573d6000803e3d6000fd5b5060408051338152602081018c9052908101829052606081018a90526080810189905260a081018890527fd04d64d5a1460d8c5a8c5ffb4d6ddb0f4e5cf774c894a27c5bb73c4fc41698809060c00160405180910390a15050505050509392505050565b60006108c981836116c3565b60006108c9600080516020612f73833981519152836116c3565b600080600560149054906101000a900460ff1615156001151514156122cf5760405162461bcd60e51b815260206004820152601f60248201527f5265656e7472616e637947756172643a207265656e7472616e742063616c6c0060448201526064016108f4565b506005805460ff60a01b1916600160a01b179055600082815260076020526040902060048101546003820154909190612309908390610f25565b8511156123585760405162461bcd60e51b815260206004820152601860248201527f4465706f7369746f7279203a206f766572206d6178506179000000000000000060448201526064016108f4565b6123628286610d39565b9250600083116123aa5760405162461bcd60e51b81526020600482015260136024820152721e995c9bc81cdd185ada5b99c8185b5bdd5b9d606a1b60448201526064016108f4565b6000670de0b6b3a7640000600260009054906101000a90046001600160a01b03166001600160a01b03166396f0bd616040518163ffffffff1660e01b815260040160206040518083038186803b15801561240357600080fd5b505afa158015612417573d6000803e3d6000fd5b505050506040513d601f19601f8201168201806040525081019061243b9190612a63565b6124459088612ea4565b61244f9190612e84565b9050838110156124b55760405162461bcd60e51b815260206004820152602b60248201527f6d696e7461626c65416d6f756e74206973206c657373207468616e207374616b60448201526a34b7339030b6b7bab73a1760a91b60648201526084016108f4565b81600101548411156125005760405162461bcd60e51b815260206004820152601460248201527311195c1bdcda5d1bdc9e4e881cdbdb19081bdd5d60621b60448201526064016108f4565b838260010160008282546125149190612ec3565b9091555050600182015468056bc75e2d631000001061256857600060018301556040518581527f065f36f0cc9a946e058a78fcf529ed8629c0ad3f6d065007c3c9162fd2c39d639060200160405180910390a15b60025460405163ef7c6c0f60e01b81526004810183905260248101869052600160448201526001600160a01b039091169063ef7c6c0f90606401600060405180830381600087803b1580156125bc57600080fd5b505af11580156125d0573d6000803e3d6000fd5b5050604080516001600160a01b038b16815260208101899052908101899052606081018790526001608082015260a081018490527fef81711614d4ac7faee84826311bec7d949a272a2e7e4f39f3a3b72527767d69925060c001905060405180910390a150506005805460ff60a01b191690559094909350915050565b61265782826116c3565b610d355761266f816001600160a01b031660146127a8565b61267a8360206127a8565b60405160200161268b929190612b01565b60408051601f198184030181529082905262461bcd60e51b82526108f491600401612c53565b6126bb82826116c3565b610d355760008281526008602090815260408083206001600160a01b03851684529091529020805460ff191660011790556126f33390565b6001600160a01b0316816001600160a01b0316837f2f8788117e7eff1d82e926ec794901d17c78024a50270940304540a733656f0d60405160405180910390a45050565b61274182826116c3565b15610d355760008281526008602090815260408083206001600160a01b0385168085529252808320805460ff1916905551339285917ff6391f5c32d9c69d2a47ea670b442974b53935d1edc7fd64eb21e047a839171b9190a45050565b610d3582826126b1565b606060006127b7836002612ea4565b6127c2906002612e6c565b67ffffffffffffffff8111156127e857634e487b7160e01b600052604160045260246000fd5b6040519080825280601f01601f191660200182016040528015612812576020820181803683370190505b509050600360fc1b8160008151811061283b57634e487b7160e01b600052603260045260246000fd5b60200101906001600160f81b031916908160001a905350600f60fb1b8160018151811061287857634e487b7160e01b600052603260045260246000fd5b60200101906001600160f81b031916908160001a905350600061289c846002612ea4565b6128a7906001612e6c565b90505b600181111561293b576f181899199a1a9b1b9c1cb0b131b232b360811b85600f16601081106128e957634e487b7160e01b600052603260045260246000fd5b1a60f81b82828151811061290d57634e487b7160e01b600052603260045260246000fd5b60200101906001600160f81b031916908160001a90535060049490941c9361293481612f0a565b90506128aa565b508315610d585760405162461bcd60e51b815260206004820181905260248201527f537472696e67733a20686578206c656e67746820696e73756666696369656e7460448201526064016108f4565b80356001600160a01b03811681146129a157600080fd5b919050565b6000602082840312156129b7578081fd5b610d588261298a565b60008060a083850312156129d2578081fd5b6129db8361298a565b91508360a0840111156129ec578081fd5b50926020919091019150565b600060208284031215612a09578081fd5b5035919050565b60008060408385031215612a22578182fd5b82359150612a326020840161298a565b90509250929050565b600060208284031215612a4c578081fd5b81356001600160e01b031981168114610d58578182fd5b600060208284031215612a74578081fd5b5051919050565b60008060408385031215612a8d578182fd5b50508035926020909101359150565b600080600060608486031215612ab0578081fd5b505081359360208301359350604090920135919050565b6000815180845260208085019450808401835b83811015612af657815187529582019590820190600101612ada565b509495945050505050565b7f416363657373436f6e74726f6c3a206163636f756e7420000000000000000000815260008351612b39816017850160208801612eda565b7001034b99036b4b9b9b4b733903937b6329607d1b6017918401918201528351612b6a816028840160208801612eda565b01602801949350505050565b6001600160a01b03959095168552602085019390935260408401919091526060830152608082015260a00190565b602081526000610d586020830184612ac7565b60a081526000612bca60a0830188612ac7565b828103602084810191909152875180835288820192820190845b81811015612c095784516001600160a01b031683529383019391830191600101612be4565b50508481036040860152612c1d8189612ac7565b925050508281036060840152612c338186612ac7565b90508281036080840152612c478185612ac7565b98975050505050505050565b6020815260008251806020840152612c72816040850160208701612eda565b601f01601f19169190910160400192915050565b60208082526022908201527f41636365737369626c653a2043616c6c6572206973206e6f7420616e2061646d60408201526134b760f11b606082015260800190565b60208082526028908201527f41636365737369626c653a2043616c6c6572206973206e6f7420616e2070726f6040820152673c3c9030b236b4b760c11b606082015260800190565b6020808252601d908201527f426f6e644465706f7369746f72793a20636c6f736564206d61726b6574000000604082015260600190565b60208082526019908201527f426f6e644465706f7369746f72793a207a65726f2075696e7400000000000000604082015260600190565b6020808252601d908201527f426f6e644465706f7369746f72793a207a65726f206361706163697479000000604082015260600190565b60208082526024908201527f4465706f7369746f72793a2045544820616d6f756e747320646f206e6f74206d6040820152630c2e8c6d60e31b606082015260800190565b60208082526029908201527f41636365737369626c653a2043616c6c6572206973206e6f7420616e20706f6c60408201526834b1bc9030b236b4b760b91b606082015260800190565b8381526001600160a01b038316602082015260c08101608083604084013760008152949350505050565b60008219821115612e7f57612e7f612f3c565b500190565b600082612e9f57634e487b7160e01b81526012600452602481fd5b500490565b6000816000190483118215151615612ebe57612ebe612f3c565b500290565b600082821015612ed557612ed5612f3c565b500390565b60005b83811015612ef5578181015183820152602001612edd565b83811115612f04576000848401525b50505050565b600081612f1957612f19612f3c565b506000190190565b6000600019821415612f3557612f35612f3c565b5060010190565b634e487b7160e01b600052601160045260246000fdfedf8b4c520ffe197c5343c6f5aec59570151ef9a492f2c624fd45ddde6135ec42fb5864e8ff833c3cb2d2d08505e82ff02a43554c74a35d4f5a64e85261278311a264697066735822122032e3cf0cbda4afc87d2197aacd0a52746da4abaacf023d99254d8a8d89f40cf164736f6c63430008040033",
  "linkReferences": {},
  "deployedLinkReferences": {}
}