{
  "_format": "hh-sol-artifact-1",
  "contractName": "BondDepositoryV1_5",
  "sourceName": "contracts/BondDepositoryV1_5.sol",
  "abi": [
    {
      "inputs": [],
      "stateMutability": "nonpayable",
      "type": "constructor"
    },
    {
      "anonymous": false,
      "inputs": [
        {
          "indexed": false,
          "internalType": "uint256",
          "name": "_marketId",
          "type": "uint256"
        },
        {
          "indexed": false,
          "internalType": "address",
          "name": "bonusRatesAddress",
          "type": "address"
        },
        {
          "indexed": false,
          "internalType": "uint256",
          "name": "bonusRatesId",
          "type": "uint256"
        }
      ],
      "name": "ChangedBonusRateInfo",
      "type": "event"
    },
    {
      "anonymous": false,
      "inputs": [
        {
          "indexed": false,
          "internalType": "uint256",
          "name": "_marketId",
          "type": "uint256"
        },
        {
          "indexed": false,
          "internalType": "bool",
          "name": "_increaseFlag",
          "type": "bool"
        },
        {
          "indexed": false,
          "internalType": "uint256",
          "name": "_increaseAmount",
          "type": "uint256"
        }
      ],
      "name": "ChangedCapacity",
      "type": "event"
    },
    {
      "anonymous": false,
      "inputs": [
        {
          "indexed": false,
          "internalType": "uint256",
          "name": "_marketId",
          "type": "uint256"
        },
        {
          "indexed": false,
          "internalType": "uint256",
          "name": "closeTime",
          "type": "uint256"
        }
      ],
      "name": "ChangedCloseTime",
      "type": "event"
    },
    {
      "anonymous": false,
      "inputs": [
        {
          "indexed": false,
          "internalType": "uint256",
          "name": "_marketId",
          "type": "uint256"
        },
        {
          "indexed": false,
          "internalType": "uint256",
          "name": "_tosPrice",
          "type": "uint256"
        }
      ],
      "name": "ChangedLowerPriceLimit",
      "type": "event"
    },
    {
      "anonymous": false,
      "inputs": [
        {
          "indexed": false,
          "internalType": "address",
          "name": "oralceLibrary",
          "type": "address"
        },
        {
          "indexed": false,
          "internalType": "address",
          "name": "uniswapFactory",
          "type": "address"
        }
      ],
      "name": "ChangedOracleLibrary",
      "type": "event"
    },
    {
      "anonymous": false,
      "inputs": [
        {
          "indexed": false,
          "internalType": "uint256",
          "name": "_marketId",
          "type": "uint256"
        },
        {
          "indexed": false,
          "internalType": "address[]",
          "name": "_pools",
          "type": "address[]"
        }
      ],
      "name": "ChangedPools",
      "type": "event"
    },
    {
      "anonymous": false,
      "inputs": [
        {
          "indexed": false,
          "internalType": "uint256",
          "name": "_marketId",
          "type": "uint256"
        },
        {
          "indexed": false,
          "internalType": "bytes[]",
          "name": "pathes",
          "type": "bytes[]"
        }
      ],
      "name": "ChangedPricePathInfo",
      "type": "event"
    },
    {
      "anonymous": false,
      "inputs": [
        {
          "indexed": false,
          "internalType": "uint256",
          "name": "amount",
          "type": "uint256"
        }
      ],
      "name": "ChangedRemainingTosTolerance",
      "type": "event"
    },
    {
      "anonymous": false,
      "inputs": [
        {
          "indexed": false,
          "internalType": "uint256",
          "name": "marketId",
          "type": "uint256"
        }
      ],
      "name": "ClosedMarket",
      "type": "event"
    },
    {
      "anonymous": false,
      "inputs": [
        {
          "indexed": false,
          "internalType": "uint256",
          "name": "marketId",
          "type": "uint256"
        },
        {
          "indexed": false,
          "internalType": "address",
          "name": "token",
          "type": "address"
        },
        {
          "indexed": false,
          "internalType": "uint256[4]",
          "name": "marketInfos",
          "type": "uint256[4]"
        },
        {
          "indexed": false,
          "internalType": "address",
          "name": "bonusRatesAddress",
          "type": "address"
        },
        {
          "indexed": false,
          "internalType": "uint256",
          "name": "bonusRatesId",
          "type": "uint256"
        },
        {
          "indexed": false,
          "internalType": "uint32",
          "name": "startTime",
          "type": "uint32"
        },
        {
          "indexed": false,
          "internalType": "uint32",
          "name": "endTime",
          "type": "uint32"
        },
        {
          "indexed": false,
          "internalType": "bytes[]",
          "name": "pathes",
          "type": "bytes[]"
        }
      ],
      "name": "CreatedMarket",
      "type": "event"
    },
    {
      "anonymous": false,
      "inputs": [
        {
          "indexed": false,
          "internalType": "address",
          "name": "user",
          "type": "address"
        },
        {
          "indexed": false,
          "internalType": "uint256",
          "name": "marketId",
          "type": "uint256"
        },
        {
          "indexed": false,
          "internalType": "uint256",
          "name": "amount",
          "type": "uint256"
        },
        {
          "indexed": false,
          "internalType": "uint256",
          "name": "payout",
          "type": "uint256"
        },
        {
          "indexed": false,
          "internalType": "bool",
          "name": "isEth",
          "type": "bool"
        },
        {
          "indexed": false,
          "internalType": "uint256",
          "name": "mintAmount",
          "type": "uint256"
        }
      ],
      "name": "Deposited",
      "type": "event"
    },
    {
      "anonymous": false,
      "inputs": [
        {
          "indexed": false,
          "internalType": "address",
          "name": "user",
          "type": "address"
        },
        {
          "indexed": false,
          "internalType": "uint256",
          "name": "marketId",
          "type": "uint256"
        },
        {
          "indexed": false,
          "internalType": "uint256",
          "name": "stakeId",
          "type": "uint256"
        },
        {
          "indexed": false,
          "internalType": "uint256",
          "name": "amount",
          "type": "uint256"
        },
        {
          "indexed": false,
          "internalType": "uint256",
          "name": "minimumTosPrice",
          "type": "uint256"
        },
        {
          "indexed": false,
          "internalType": "uint256",
          "name": "tosValuation",
          "type": "uint256"
        }
      ],
      "name": "ETHDeposited",
      "type": "event"
    },
    {
      "anonymous": false,
      "inputs": [
        {
          "indexed": false,
          "internalType": "address",
          "name": "user",
          "type": "address"
        },
        {
          "indexed": false,
          "internalType": "uint256",
          "name": "marketId",
          "type": "uint256"
        },
        {
          "indexed": false,
          "internalType": "uint256",
          "name": "stakeId",
          "type": "uint256"
        },
        {
          "indexed": false,
          "internalType": "uint256",
          "name": "amount",
          "type": "uint256"
        },
        {
          "indexed": false,
          "internalType": "uint256",
          "name": "minimumTosPrice",
          "type": "uint256"
        },
        {
          "indexed": false,
          "internalType": "uint8",
          "name": "lockWeeks",
          "type": "uint8"
        },
        {
          "indexed": false,
          "internalType": "uint256",
          "name": "tosValuation",
          "type": "uint256"
        }
      ],
      "name": "ETHDepositedWithSTOS",
      "type": "event"
    },
    {
      "anonymous": false,
      "inputs": [
        {
          "indexed": true,
          "internalType": "bytes32",
          "name": "role",
          "type": "bytes32"
        },
        {
          "indexed": true,
          "internalType": "bytes32",
          "name": "previousAdminRole",
          "type": "bytes32"
        },
        {
          "indexed": true,
          "internalType": "bytes32",
          "name": "newAdminRole",
          "type": "bytes32"
        }
      ],
      "name": "RoleAdminChanged",
      "type": "event"
    },
    {
      "anonymous": false,
      "inputs": [
        {
          "indexed": true,
          "internalType": "bytes32",
          "name": "role",
          "type": "bytes32"
        },
        {
          "indexed": true,
          "internalType": "address",
          "name": "account",
          "type": "address"
        },
        {
          "indexed": true,
          "internalType": "address",
          "name": "sender",
          "type": "address"
        }
      ],
      "name": "RoleGranted",
      "type": "event"
    },
    {
      "anonymous": false,
      "inputs": [
        {
          "indexed": true,
          "internalType": "bytes32",
          "name": "role",
          "type": "bytes32"
        },
        {
          "indexed": true,
          "internalType": "address",
          "name": "account",
          "type": "address"
        },
        {
          "indexed": true,
          "internalType": "address",
          "name": "sender",
          "type": "address"
        }
      ],
      "name": "RoleRevoked",
      "type": "event"
    },
    {
      "anonymous": false,
      "inputs": [
        {
          "indexed": false,
          "internalType": "address",
          "name": "calculatorAddress",
          "type": "address"
        }
      ],
      "name": "SetCalculator",
      "type": "event"
    },
    {
      "inputs": [],
      "name": "ADMIN_ROLE",
      "outputs": [
        {
          "internalType": "bytes32",
          "name": "",
          "type": "bytes32"
        }
      ],
      "stateMutability": "view",
      "type": "function"
    },
    {
      "inputs": [],
      "name": "DEFAULT_ADMIN_ROLE",
      "outputs": [
        {
          "internalType": "bytes32",
          "name": "",
          "type": "bytes32"
        }
      ],
      "stateMutability": "view",
      "type": "function"
    },
    {
      "inputs": [
        {
          "internalType": "uint256",
          "name": "_id",
          "type": "uint256"
        },
        {
          "internalType": "uint256",
          "name": "_amount",
          "type": "uint256"
        },
        {
          "internalType": "uint256",
          "name": "_minimumTosPrice",
          "type": "uint256"
        }
      ],
      "name": "ETHDeposit",
      "outputs": [
        {
          "internalType": "uint256",
          "name": "payout_",
          "type": "uint256"
        }
      ],
      "stateMutability": "payable",
      "type": "function"
    },
    {
      "inputs": [
        {
          "internalType": "uint256",
          "name": "_id",
          "type": "uint256"
        },
        {
          "internalType": "uint256",
          "name": "_amount",
          "type": "uint256"
        },
        {
          "internalType": "uint256",
          "name": "_minimumTosPrice",
          "type": "uint256"
        },
        {
          "internalType": "uint8",
          "name": "_lockWeeks",
          "type": "uint8"
        }
      ],
      "name": "ETHDepositWithSTOS",
      "outputs": [
        {
          "internalType": "uint256",
          "name": "payout_",
          "type": "uint256"
        }
      ],
      "stateMutability": "payable",
      "type": "function"
    },
    {
      "inputs": [],
      "name": "POLICY_ROLE",
      "outputs": [
        {
          "internalType": "bytes32",
          "name": "",
          "type": "bytes32"
        }
      ],
      "stateMutability": "view",
      "type": "function"
    },
    {
      "inputs": [
        {
          "internalType": "address",
          "name": "account",
          "type": "address"
        }
      ],
      "name": "addAdmin",
      "outputs": [],
      "stateMutability": "nonpayable",
      "type": "function"
    },
    {
      "inputs": [
        {
          "internalType": "address",
          "name": "_account",
          "type": "address"
        }
      ],
      "name": "addPolicy",
      "outputs": [],
      "stateMutability": "nonpayable",
      "type": "function"
    },
    {
      "inputs": [
        {
          "internalType": "address",
          "name": "_owner",
          "type": "address"
        }
      ],
      "name": "addProxyAdmin",
      "outputs": [],
      "stateMutability": "nonpayable",
      "type": "function"
    },
    {
      "inputs": [],
      "name": "calculator",
      "outputs": [
        {
          "internalType": "address",
          "name": "",
          "type": "address"
        }
      ],
      "stateMutability": "view",
      "type": "function"
    },
    {
      "inputs": [
        {
          "internalType": "uint256",
          "name": "_marketId",
          "type": "uint256"
        },
        {
          "internalType": "address",
          "name": "_bonusRatesAddress",
          "type": "address"
        },
        {
          "internalType": "uint256",
          "name": "_bonusRatesId",
          "type": "uint256"
        }
      ],
      "name": "changeBonusRateInfo",
      "outputs": [],
      "stateMutability": "nonpayable",
      "type": "function"
    },
    {
      "inputs": [
        {
          "internalType": "uint256",
          "name": "_marketId",
          "type": "uint256"
        },
        {
          "internalType": "bool",
          "name": "_increaseFlag",
          "type": "bool"
        },
        {
          "internalType": "uint256",
          "name": "_increaseAmount",
          "type": "uint256"
        }
      ],
      "name": "changeCapacity",
      "outputs": [],
      "stateMutability": "nonpayable",
      "type": "function"
    },
    {
      "inputs": [
        {
          "internalType": "uint256",
          "name": "_marketId",
          "type": "uint256"
        },
        {
          "internalType": "uint256",
          "name": "closeTime",
          "type": "uint256"
        }
      ],
      "name": "changeCloseTime",
      "outputs": [],
      "stateMutability": "nonpayable",
      "type": "function"
    },
    {
      "inputs": [
        {
          "internalType": "uint256",
          "name": "_marketId",
          "type": "uint256"
        },
        {
          "internalType": "uint256",
          "name": "_tosPrice",
          "type": "uint256"
        }
      ],
      "name": "changeLowerPriceLimit",
      "outputs": [],
      "stateMutability": "nonpayable",
      "type": "function"
    },
    {
      "inputs": [
        {
          "internalType": "address",
          "name": "_oralceLibrary",
          "type": "address"
        },
        {
          "internalType": "address",
          "name": "_uniswapFactory",
          "type": "address"
        }
      ],
      "name": "changeOracleLibrary",
      "outputs": [],
      "stateMutability": "nonpayable",
      "type": "function"
    },
    {
      "inputs": [
        {
          "internalType": "uint256",
          "name": "_marketId",
          "type": "uint256"
        },
        {
          "internalType": "bytes[]",
          "name": "pathes",
          "type": "bytes[]"
        }
      ],
      "name": "changePricePathInfo",
      "outputs": [],
      "stateMutability": "nonpayable",
      "type": "function"
    },
    {
      "inputs": [
        {
          "internalType": "uint256",
          "name": "_amount",
          "type": "uint256"
        }
      ],
      "name": "changeRemainingTosTolerance",
      "outputs": [],
      "stateMutability": "nonpayable",
      "type": "function"
    },
    {
      "inputs": [
        {
          "internalType": "uint256",
          "name": "_id",
          "type": "uint256"
        }
      ],
      "name": "close",
      "outputs": [],
      "stateMutability": "nonpayable",
      "type": "function"
    },
    {
      "inputs": [
        {
          "internalType": "address",
          "name": "_token",
          "type": "address"
        },
        {
          "internalType": "uint256[4]",
          "name": "_marketInfos",
          "type": "uint256[4]"
        },
        {
          "internalType": "address",
          "name": "_bonusRatesAddress",
          "type": "address"
        },
        {
          "internalType": "uint256",
          "name": "_bonusRatesId",
          "type": "uint256"
        },
        {
          "internalType": "uint32",
          "name": "_startTime",
          "type": "uint32"
        },
        {
          "internalType": "uint32",
          "name": "_endTime",
          "type": "uint32"
        },
        {
          "internalType": "bytes[]",
          "name": "_pathes",
          "type": "bytes[]"
        }
      ],
      "name": "create",
      "outputs": [
        {
          "internalType": "uint256",
          "name": "id_",
          "type": "uint256"
        }
      ],
      "stateMutability": "nonpayable",
      "type": "function"
    },
    {
      "inputs": [
        {
          "internalType": "address",
          "name": "_account",
          "type": "address"
        }
      ],
      "name": "deletePolicy",
      "outputs": [],
      "stateMutability": "nonpayable",
      "type": "function"
    },
    {
      "inputs": [],
      "name": "dtos",
      "outputs": [
        {
          "internalType": "address",
          "name": "",
          "type": "address"
        }
      ],
      "stateMutability": "view",
      "type": "function"
    },
    {
      "inputs": [
        {
          "internalType": "uint256",
          "name": "_marketId",
          "type": "uint256"
        }
      ],
      "name": "getBasePrice",
      "outputs": [
        {
          "internalType": "uint256",
          "name": "basePrice",
          "type": "uint256"
        },
        {
          "internalType": "uint256",
          "name": "lowerPriceLimit",
          "type": "uint256"
        },
        {
          "internalType": "uint256",
          "name": "uniswapPrice",
          "type": "uint256"
        }
      ],
      "stateMutability": "view",
      "type": "function"
    },
    {
      "inputs": [
        {
          "internalType": "uint256",
          "name": "_marketId",
          "type": "uint256"
        },
        {
          "internalType": "uint8",
          "name": "_lockWeeks",
          "type": "uint8"
        },
        {
          "internalType": "uint256",
          "name": "basePrice",
          "type": "uint256"
        }
      ],
      "name": "getBondingPrice",
      "outputs": [
        {
          "internalType": "uint256",
          "name": "bondingPrice",
          "type": "uint256"
        }
      ],
      "stateMutability": "view",
      "type": "function"
    },
    {
      "inputs": [],
      "name": "getBonds",
      "outputs": [
        {
          "internalType": "uint256[]",
          "name": "",
          "type": "uint256[]"
        },
        {
          "components": [
            {
              "internalType": "uint8",
              "name": "bondType",
              "type": "uint8"
            },
            {
              "internalType": "uint32",
              "name": "startTime",
              "type": "uint32"
            },
            {
              "internalType": "bool",
              "name": "closed",
              "type": "bool"
            },
            {
              "internalType": "uint256",
              "name": "initialMaxPayout",
              "type": "uint256"
            },
            {
              "internalType": "uint256",
              "name": "capacityUpdatePeriod",
              "type": "uint256"
            },
            {
              "internalType": "uint256",
              "name": "totalSold",
              "type": "uint256"
            }
          ],
          "internalType": "struct LibBondDepositoryV1_5.MarketInfo[]",
          "name": "",
          "type": "tuple[]"
        },
        {
          "components": [
            {
              "internalType": "address",
              "name": "bonusRatesAddress",
              "type": "address"
            },
            {
              "internalType": "uint256",
              "name": "bonusRatesId",
              "type": "uint256"
            }
          ],
          "internalType": "struct LibBondDepositoryV1_5.BonusRateInfo[]",
          "name": "",
          "type": "tuple[]"
        }
      ],
      "stateMutability": "view",
      "type": "function"
    },
    {
      "inputs": [],
      "name": "getMarketList",
      "outputs": [
        {
          "internalType": "uint256[]",
          "name": "",
          "type": "uint256[]"
        }
      ],
      "stateMutability": "view",
      "type": "function"
    },
    {
      "inputs": [
        {
          "internalType": "bytes32",
          "name": "role",
          "type": "bytes32"
        }
      ],
      "name": "getRoleAdmin",
      "outputs": [
        {
          "internalType": "bytes32",
          "name": "",
          "type": "bytes32"
        }
      ],
      "stateMutability": "view",
      "type": "function"
    },
    {
      "inputs": [
        {
          "internalType": "uint256",
          "name": "_marketId",
          "type": "uint256"
        }
      ],
      "name": "getUniswapPrice",
      "outputs": [
        {
          "internalType": "uint256",
          "name": "uniswapPrice",
          "type": "uint256"
        }
      ],
      "stateMutability": "view",
      "type": "function"
    },
    {
      "inputs": [
        {
          "internalType": "bytes32",
          "name": "role",
          "type": "bytes32"
        },
        {
          "internalType": "address",
          "name": "account",
          "type": "address"
        }
      ],
      "name": "grantRole",
      "outputs": [],
      "stateMutability": "nonpayable",
      "type": "function"
    },
    {
      "inputs": [
        {
          "internalType": "bytes32",
          "name": "role",
          "type": "bytes32"
        },
        {
          "internalType": "address",
          "name": "account",
          "type": "address"
        }
      ],
      "name": "hasRole",
      "outputs": [
        {
          "internalType": "bool",
          "name": "",
          "type": "bool"
        }
      ],
      "stateMutability": "view",
      "type": "function"
    },
    {
      "inputs": [
        {
          "internalType": "address",
          "name": "account",
          "type": "address"
        }
      ],
      "name": "isAdmin",
      "outputs": [
        {
          "internalType": "bool",
          "name": "",
          "type": "bool"
        }
      ],
      "stateMutability": "view",
      "type": "function"
    },
    {
      "inputs": [
        {
          "internalType": "uint256",
          "name": "_marketId",
          "type": "uint256"
        }
      ],
      "name": "isOpened",
      "outputs": [
        {
          "internalType": "bool",
          "name": "closedBool",
          "type": "bool"
        }
      ],
      "stateMutability": "view",
      "type": "function"
    },
    {
      "inputs": [
        {
          "internalType": "address",
          "name": "account",
          "type": "address"
        }
      ],
      "name": "isPolicy",
      "outputs": [
        {
          "internalType": "bool",
          "name": "",
          "type": "bool"
        }
      ],
      "stateMutability": "view",
      "type": "function"
    },
    {
      "inputs": [
        {
          "internalType": "address",
          "name": "account",
          "type": "address"
        }
      ],
      "name": "isProxyAdmin",
      "outputs": [
        {
          "internalType": "bool",
          "name": "",
          "type": "bool"
        }
      ],
      "stateMutability": "view",
      "type": "function"
    },
    {
      "inputs": [
        {
          "internalType": "uint256",
          "name": "",
          "type": "uint256"
        }
      ],
      "name": "marketList",
      "outputs": [
        {
          "internalType": "uint256",
          "name": "",
          "type": "uint256"
        }
      ],
      "stateMutability": "view",
      "type": "function"
    },
    {
      "inputs": [
        {
          "internalType": "uint256",
          "name": "",
          "type": "uint256"
        }
      ],
      "name": "markets",
      "outputs": [
        {
          "internalType": "address",
          "name": "quoteToken",
          "type": "address"
        },
        {
          "internalType": "uint256",
          "name": "capacity",
          "type": "uint256"
        },
        {
          "internalType": "uint256",
          "name": "endSaleTime",
          "type": "uint256"
        },
        {
          "internalType": "uint256",
          "name": "maxPayout",
          "type": "uint256"
        },
        {
          "internalType": "uint256",
          "name": "tosPrice",
          "type": "uint256"
        }
      ],
      "stateMutability": "view",
      "type": "function"
    },
    {
      "inputs": [],
      "name": "maxLockupWeeks",
      "outputs": [
        {
          "internalType": "uint8",
          "name": "",
          "type": "uint8"
        }
      ],
      "stateMutability": "view",
      "type": "function"
    },
    {
      "inputs": [],
      "name": "oracleConsultPeriod",
      "outputs": [
        {
          "internalType": "uint32",
          "name": "",
          "type": "uint32"
        }
      ],
      "stateMutability": "view",
      "type": "function"
    },
    {
      "inputs": [],
      "name": "oracleLibrary",
      "outputs": [
        {
          "internalType": "address",
          "name": "",
          "type": "address"
        }
      ],
      "stateMutability": "view",
      "type": "function"
    },
    {
      "inputs": [
        {
          "internalType": "uint256",
          "name": "_marketId",
          "type": "uint256"
        }
      ],
      "name": "possibleMaxCapacity",
      "outputs": [
        {
          "internalType": "uint256",
          "name": "periodicCapacity",
          "type": "uint256"
        },
        {
          "internalType": "uint256",
          "name": "currentCapacity",
          "type": "uint256"
        }
      ],
      "stateMutability": "view",
      "type": "function"
    },
    {
      "inputs": [],
      "name": "remainingTosTolerance",
      "outputs": [
        {
          "internalType": "uint256",
          "name": "",
          "type": "uint256"
        }
      ],
      "stateMutability": "view",
      "type": "function"
    },
    {
      "inputs": [],
      "name": "removeAdmin",
      "outputs": [],
      "stateMutability": "nonpayable",
      "type": "function"
    },
    {
      "inputs": [],
      "name": "removePolicy",
      "outputs": [],
      "stateMutability": "nonpayable",
      "type": "function"
    },
    {
      "inputs": [],
      "name": "removeProxyAdmin",
      "outputs": [],
      "stateMutability": "nonpayable",
      "type": "function"
    },
    {
      "inputs": [
        {
          "internalType": "bytes32",
          "name": "role",
          "type": "bytes32"
        },
        {
          "internalType": "address",
          "name": "account",
          "type": "address"
        }
      ],
      "name": "renounceRole",
      "outputs": [],
      "stateMutability": "nonpayable",
      "type": "function"
    },
    {
      "inputs": [
        {
          "internalType": "bytes32",
          "name": "role",
          "type": "bytes32"
        },
        {
          "internalType": "address",
          "name": "account",
          "type": "address"
        }
      ],
      "name": "revokeRole",
      "outputs": [],
      "stateMutability": "nonpayable",
      "type": "function"
    },
    {
      "inputs": [
        {
          "internalType": "uint256",
          "name": "_marketId",
          "type": "uint256"
        }
      ],
      "name": "salePeriod",
      "outputs": [
        {
          "internalType": "uint256",
          "name": "numberOfPeriods",
          "type": "uint256"
        },
        {
          "internalType": "uint256",
          "name": "numberOfPeriodsPassed",
          "type": "uint256"
        }
      ],
      "stateMutability": "view",
      "type": "function"
    },
    {
      "inputs": [],
      "name": "staking",
      "outputs": [
        {
          "internalType": "contract IStaking",
          "name": "",
          "type": "address"
        }
      ],
      "stateMutability": "view",
      "type": "function"
    },
    {
      "inputs": [
        {
          "internalType": "bytes4",
          "name": "interfaceId",
          "type": "bytes4"
        }
      ],
      "name": "supportsInterface",
      "outputs": [
        {
          "internalType": "bool",
          "name": "",
          "type": "bool"
        }
      ],
      "stateMutability": "view",
      "type": "function"
    },
    {
      "inputs": [],
      "name": "tos",
      "outputs": [
        {
          "internalType": "contract IERC20",
          "name": "",
          "type": "address"
        }
      ],
      "stateMutability": "view",
      "type": "function"
    },
    {
      "inputs": [],
      "name": "totalMarketCount",
      "outputs": [
        {
          "internalType": "uint256",
          "name": "",
          "type": "uint256"
        }
      ],
      "stateMutability": "view",
      "type": "function"
    },
    {
      "inputs": [
        {
          "internalType": "address",
          "name": "newAdmin",
          "type": "address"
        }
      ],
      "name": "transferAdmin",
      "outputs": [],
      "stateMutability": "nonpayable",
      "type": "function"
    },
    {
      "inputs": [
        {
          "internalType": "address",
          "name": "newAdmin",
          "type": "address"
        }
      ],
      "name": "transferProxyAdmin",
      "outputs": [],
      "stateMutability": "nonpayable",
      "type": "function"
    },
    {
      "inputs": [],
      "name": "treasury",
      "outputs": [
        {
          "internalType": "address",
          "name": "",
          "type": "address"
        }
      ],
      "stateMutability": "view",
      "type": "function"
    },
    {
      "inputs": [],
      "name": "uniswapFactory",
      "outputs": [
        {
          "internalType": "address",
          "name": "",
          "type": "address"
        }
      ],
      "stateMutability": "view",
      "type": "function"
    },
    {
      "inputs": [],
      "name": "uniswapV3Factory",
      "outputs": [
        {
          "internalType": "address",
          "name": "",
          "type": "address"
        }
      ],
      "stateMutability": "view",
      "type": "function"
    },
    {
      "inputs": [
        {
          "internalType": "uint256",
          "name": "_marketId",
          "type": "uint256"
        }
      ],
      "name": "viewMarket",
      "outputs": [
        {
          "components": [
            {
              "internalType": "address",
              "name": "quoteToken",
              "type": "address"
            },
            {
              "internalType": "uint256",
              "name": "capacity",
              "type": "uint256"
            },
            {
              "internalType": "uint256",
              "name": "endSaleTime",
              "type": "uint256"
            },
            {
              "internalType": "uint256",
              "name": "maxPayout",
              "type": "uint256"
            },
            {
              "internalType": "uint256",
              "name": "tosPrice",
              "type": "uint256"
            }
          ],
          "internalType": "struct LibBondDepository.Market",
          "name": "market",
          "type": "tuple"
        },
        {
          "components": [
            {
              "internalType": "uint8",
              "name": "bondType",
              "type": "uint8"
            },
            {
              "internalType": "uint32",
              "name": "startTime",
              "type": "uint32"
            },
            {
              "internalType": "bool",
              "name": "closed",
              "type": "bool"
            },
            {
              "internalType": "uint256",
              "name": "initialMaxPayout",
              "type": "uint256"
            },
            {
              "internalType": "uint256",
              "name": "capacityUpdatePeriod",
              "type": "uint256"
            },
            {
              "internalType": "uint256",
              "name": "totalSold",
              "type": "uint256"
            }
          ],
          "internalType": "struct LibBondDepositoryV1_5.MarketInfo",
          "name": "marketInfo",
          "type": "tuple"
        },
        {
          "components": [
            {
              "internalType": "address",
              "name": "bonusRatesAddress",
              "type": "address"
            },
            {
              "internalType": "uint256",
              "name": "bonusRatesId",
              "type": "uint256"
            }
          ],
          "internalType": "struct LibBondDepositoryV1_5.BonusRateInfo",
          "name": "bonusInfo",
          "type": "tuple"
        },
        {
          "internalType": "bytes[]",
          "name": "pricePathes",
          "type": "bytes[]"
        }
      ],
      "stateMutability": "view",
      "type": "function"
    }
  ],
  "bytecode": "0x608060405234801561001057600080fd5b5068056bc75e2d63100000600955614d918061002d6000396000f3fe6080604052600436106103505760003560e01c806375b238fc116101c6578063b1283e77116100f7578063ce3e39c011610095578063f47f2f1d1161006f578063f47f2f1d14610a83578063f98e422f14610aa3578063fad1c85c14610ac3578063fc79f0e814610ae357600080fd5b8063ce3e39c014610a23578063d547741f14610a43578063e4cbc0b314610a6357600080fd5b8063b84ef081116100d1578063b84ef081146109ae578063bd4541ff146109ce578063be72f2d3146109ee578063c8f899cd14610a0357600080fd5b8063b1283e77146108e2578063b1667adf14610968578063b71709791461099857600080fd5b806391d14854116101645780639a202d471161013e5780639a202d47146108785780639e8332cd1461088d578063a217fddf146108ad578063a9d53436146108c257600080fd5b806391d148541461081857806396f1557c1461083857806398735bc21461085857600080fd5b806389f395de116101a057806389f395de146107815780638b140f6b146107a15780638bdb2afa146107c55780638d81e9aa146107e557600080fd5b806375b238fc1461071f5780637a57cbdb146107415780638356ca4f1461076157600080fd5b80634c8df535116102a057806361d027b31161023e5780636c9daf14116102185780636c9daf141461069f57806370480275146106bf578063708d5c15146106df57806375829def146106ff57600080fd5b806361d027b31461065757806365cb3a831461067757806366a3133b1461068c57600080fd5b80635b5491821161027a5780635b549182146105d55780635b9907a4146105f55780635fabdf7c146106175780635faf46bb1461063757600080fd5b80634c8df5351461058d5780634cf088d9146105a25780634f91f870146105c257600080fd5b8063232b956c1161030d57806326fca81c116102e757806326fca81c146104f55780632f2ff15d1461052d57806331c8d9241461054d57806336568abe1461056d57600080fd5b8063232b956c14610485578063248a9ca3146104a557806324d7806c146104d557600080fd5b806301ffc9a7146103555780630aebeb4e1461038a57806312115a66146103ac57806314faecda146103e557806316ae917b1461041a5780632298524614610455575b600080fd5b34801561036157600080fd5b506103756103703660046142d9565b610b03565b60405190151581526020015b60405180910390f35b34801561039657600080fd5b506103aa6103a536600461429f565b610b3a565b005b3480156103b857600080fd5b50600b546103d090600160a01b900463ffffffff1681565b60405163ffffffff9091168152602001610381565b3480156103f157600080fd5b5061040561040036600461429f565b610c86565b60408051928352602083019190915201610381565b34801561042657600080fd5b5061043a61043536600461429f565b610e5c565b60408051938452602084019290925290820152606001610381565b34801561046157600080fd5b50610477600080516020614d3c83398151915281565b604051908152602001610381565b34801561049157600080fd5b506104776104a036600461429f565b610e8c565b3480156104b157600080fd5b506104776104c036600461429f565b60009081526008602052604090206001015490565b3480156104e157600080fd5b506103756104f036600461417d565b610ead565b34801561050157600080fd5b50600a54610515906001600160a01b031681565b6040516001600160a01b039091168152602001610381565b34801561053957600080fd5b506103aa6105483660046142b7565b610ec7565b34801561055957600080fd5b5061047761056836600461429f565b610ef2565b34801561057957600080fd5b506103aa6105883660046142b7565b6110d6565b34801561059957600080fd5b50600654610477565b3480156105ae57600080fd5b50600154610515906001600160a01b031681565b6104776105d03660046144c4565b611154565b3480156105e157600080fd5b50600454610515906001600160a01b031681565b34801561060157600080fd5b5061060a6114a1565b60405161038191906146f7565b34801561062357600080fd5b506103aa61063236600461417d565b6114f9565b34801561064357600080fd5b5061037561065236600461429f565b611539565b34801561066357600080fd5b50600254610515906001600160a01b031681565b34801561068357600080fd5b506103aa61158c565b61047761069a366004614499565b6115cb565b3480156106ab57600080fd5b506103aa6106ba36600461436f565b6118a3565b3480156106cb57600080fd5b506103aa6106da36600461417d565b611beb565b3480156106eb57600080fd5b506103aa6106fa366004614478565b611c28565b34801561070b57600080fd5b506103aa61071a36600461417d565b611d13565b34801561072b57600080fd5b50610477600080516020614d1c83398151915281565b34801561074d57600080fd5b5061047761075c366004614502565b611e1a565b34801561076d57600080fd5b506103aa61077c36600461417d565b611f5e565b34801561078d57600080fd5b50600054610515906001600160a01b031681565b3480156107ad57600080fd5b506107b661203c565b6040516103819392919061470a565b3480156107d157600080fd5b50600b54610515906001600160a01b031681565b3480156107f157600080fd5b50600b5461080690600160c01b900460ff1681565b60405160ff9091168152602001610381565b34801561082457600080fd5b506103756108333660046142b7565b6122e4565b34801561084457600080fd5b506103aa61085336600461417d565b61230f565b34801561086457600080fd5b506104776108733660046141c9565b61233f565b34801561088457600080fd5b506103aa6129b0565b34801561089957600080fd5b506103aa6108a836600461443d565b6129fc565b3480156108b957600080fd5b50610477600081565b3480156108ce57600080fd5b506103aa6108dd366004614197565b612bbb565b3480156108ee57600080fd5b506109366108fd36600461429f565b600760205260009081526040902080546001820154600283015460038401546004909401546001600160a01b0390931693919290919085565b604080516001600160a01b0390961686526020860194909452928401919091526060830152608082015260a001610381565b34801561097457600080fd5b5061098861098336600461429f565b612d04565b60405161038194939291906149c5565b3480156109a457600080fd5b5061047760095481565b3480156109ba57600080fd5b506103aa6109c936600461417d565b612feb565b3480156109da57600080fd5b506103aa6109e936600461433b565b613028565b3480156109fa57600080fd5b506103aa6132a6565b348015610a0f57600080fd5b506103aa610a1e36600461429f565b6132d6565b348015610a2f57600080fd5b50600354610515906001600160a01b031681565b348015610a4f57600080fd5b506103aa610a5e3660046142b7565b613376565b348015610a6f57600080fd5b50610405610a7e36600461429f565b61339c565b348015610a8f57600080fd5b50610375610a9e36600461417d565b613527565b348015610aaf57600080fd5b50600554610515906001600160a01b031681565b348015610acf57600080fd5b50610375610ade36600461417d565b613533565b348015610aef57600080fd5b506103aa610afe366004614478565b61354d565b60006001600160e01b03198216637965db0b60e01b1480610b3457506301ffc9a760e01b6001600160e01b03198316145b92915050565b610b4333613533565b610b685760405162461bcd60e51b8152600401610b5f9061497c565b60405180910390fd5b6000818152600760205260409020600201548190610b985760405162461bcd60e51b8152600401610b5f90614952565b600082815260076020526040902060020154421080610bca575060095460008381526007602052604090206001015411155b80610bea57506000828152600c6020526040902054600160281b900460ff165b610c275760405162461bcd60e51b815260206004820152600e60248201526d185b1c9958591e4818db1bdcd95960921b6044820152606401610b5f565b6000828152600c602052604090819020805460ff60281b1916600160281b17815590517f065f36f0cc9a946e058a78fcf529ed8629c0ad3f6d065007c3c9162fd2c39d6390610c799085815260200190565b60405180910390a1505050565b6000818152600c60209081526040808320815160c081018352815460ff808216835263ffffffff610100830416958301869052600160281b9091041615159281019290925260018101546060830152600281015460808301526003015460a0820152829115610e5657600084815260076020908152604091829020825160a08101845281546001600160a01b03168152600182015481840152600282015493810184905260038201546060820152600490910154608082015290830151909163ffffffff9091161015610e54576000826020015163ffffffff168260400151610d6f9190614c17565b9050826080015181610d819190614be4565b945060018360800151118015610da657506000836080015182610da49190614cc5565b115b15610db95784610db581614caa565b9550505b826020015163ffffffff1642118015610dd55750816040015142105b15610e525760808301516020840151610df49063ffffffff1642614c17565b610dfe9190614be4565b935060008360800151846020015163ffffffff1642610e1d9190614c17565b610e279190614cc5565b905060018460800151118015610e3d5750600081115b15610e505784610e4c81614caa565b9550505b505b505b505b50915091565b60008181526007602052604081206004015481610e7884610ef2565b9050610e8482826136c6565b949193509150565b60068181548110610e9c57600080fd5b600091825260209091200154905081565b6000610b34600080516020614d1c833981519152836122e4565b600082815260086020526040902060010154610ee381336136dd565b610eed8383613741565b505050565b6000818152600e6020908152604080832080548251818502810185019093528083528493849084015b82821015610fc7578382906000526020600020018054610f3a90614c75565b80601f0160208091040260200160405190810160405280929190818152602001828054610f6690614c75565b8015610fb35780601f10610f8857610100808354040283529160200191610fb3565b820191906000526020600020905b815481529060010190602001808311610f9657829003601f168201915b505050505081526020019060010190610f1b565b5050505090506000815111156110d0576000805b82518110156110cd57600a54600b5484516001600160a01b03928316926393eaab8a92169086908590811061102057634e487b7160e01b600052603260045260246000fd5b6020026020010151670de0b6b3a76400006040518463ffffffff1660e01b815260040161104f939291906146c3565b60206040518083038186803b15801561106757600080fd5b505afa15801561107b573d6000803e3d6000fd5b505050506040513d601f19601f8201168201806040525081019061109f9190614323565b9150806110ae578193506110bb565b6110b884836136c6565b93505b806110c581614caa565b915050610fdb565b50505b50919050565b6001600160a01b03811633146111465760405162461bcd60e51b815260206004820152602f60248201527f416363657373436f6e74726f6c3a2063616e206f6e6c792072656e6f756e636560448201526e103937b632b9903337b91039b2b63360891b6064820152608401610b5f565b61115082826137c7565b5050565b6000848152600c602052604081205485904261010090910463ffffffff161061118f5760405162461bcd60e51b8152600401610b5f9061485e565b6000818152600c6020526040902054600160281b900460ff16156111c55760405162461bcd60e51b8152600401610b5f906148e7565b60008181526007602052604090206002015442106111f55760405162461bcd60e51b8152600401610b5f906148e7565b6000818152600c6020908152604080832060030154600790925290912060010154116112335760405162461bcd60e51b8152600401610b5f90614889565b60008681526007602052604090205486906001600160a01b031615801561126a575060008181526007602052604090206002015415155b6112a75760405162461bcd60e51b815260206004820152600e60248201526d1b9bdd08115512081b585c9ad95d60921b6044820152606401610b5f565b85806112c55760405162461bcd60e51b8152600401610b5f906148b0565b8634146112e45760405162461bcd60e51b8152600401610b5f9061490e565b60018560ff16116113475760405162461bcd60e51b815260206004820152602760248201527f5f6c6f636b5765656b73206d7573742062652067726561746572207468616e2060448201526618903bb2b2b59760c91b6064820152608401610b5f565b60006113563389898c8a61382e565b60015460405163980b109760e01b815233600482015260248101849052604481018d905260ff8a166064820152608481018390529297509092506000916001600160a01b039091169063980b10979060a401602060405180830381600087803b1580156113c257600080fd5b505af11580156113d6573d6000803e3d6000fd5b505050506040513d601f19601f820116820180604052508101906113fa9190614323565b6002546040519192506001600160a01b0316903480156108fc02916000818181858888f19350505050158015611434573d6000803e3d6000fd5b5060408051338152602081018c9052908101829052606081018a90526080810189905260ff881660a082015260c081018790527fffe45a5856ef7d1b047c3bac34e04d2d075c162ac936cea791b8e14b6c2b9efc9060e00160405180910390a15050505050949350505050565b606060068054806020026020016040519081016040528092919081815260200182805480156114ef57602002820191906000526020600020905b8154815260200190600101908083116114db575b5050505050905090565b61150233613527565b61151e5760405162461bcd60e51b8152600401610b5f90614816565b611536600080516020614d3c83398151915282613376565b50565b60008181526007602052604081206002015442108015610b3457506009546000838152600c60205260409020600301546115739190614bcc565b6000838152600760205260409020600101541192915050565b61159533613533565b6115b15760405162461bcd60e51b8152600401610b5f9061497c565b6115c9600080516020614d3c833981519152336110d6565b565b6000838152600c602052604081205484904261010090910463ffffffff16106116065760405162461bcd60e51b8152600401610b5f9061485e565b6000818152600c6020526040902054600160281b900460ff161561163c5760405162461bcd60e51b8152600401610b5f906148e7565b600081815260076020526040902060020154421061166c5760405162461bcd60e51b8152600401610b5f906148e7565b6000818152600c6020908152604080832060030154600790925290912060010154116116aa5760405162461bcd60e51b8152600401610b5f90614889565b60008581526007602052604090205485906001600160a01b03161580156116e1575060008181526007602052604090206002015415155b61171e5760405162461bcd60e51b815260206004820152600e60248201526d1b9bdd08115512081b585c9ad95d60921b6044820152606401610b5f565b848061173c5760405162461bcd60e51b8152600401610b5f906148b0565b85341461175b5760405162461bcd60e51b8152600401610b5f9061490e565b600061176b3388888b600061382e565b60015460405163332b01f360e01b815233600482015260248101849052604481018c9052606481018390529297509092506000916001600160a01b039091169063332b01f390608401602060405180830381600087803b1580156117ce57600080fd5b505af11580156117e2573d6000803e3d6000fd5b505050506040513d601f19601f820116820180604052508101906118069190614323565b6002546040519192506001600160a01b0316903480156108fc02916000818181858888f19350505050158015611840573d6000803e3d6000fd5b5060408051338152602081018b9052908101829052606081018990526080810188905260a081018790527fbbdec43ed87f6ff154bf2e9b39d20bb84c7aa44ae16d0613f28025c575a4911a9060c00160405180910390a150505050509392505050565b6118ac33613533565b6118c85760405162461bcd60e51b8152600401610b5f9061497c565b6000828152600c602052604090205482904261010090910463ffffffff16106119035760405162461bcd60e51b8152600401610b5f9061485e565b6000818152600c6020526040902054600160281b900460ff16156119395760405162461bcd60e51b8152600401610b5f906148e7565b60008181526007602052604090206002015442106119695760405162461bcd60e51b8152600401610b5f906148e7565b6000818152600c6020908152604080832060030154600790925290912060010154116119a75760405162461bcd60e51b8152600401610b5f90614889565b6000838152600e602052604090205415611a9b576000838152600e60205260408120546119d690600190614c17565b90505b8015611a3a576000848152600e60205260409020805480611a0a57634e487b7160e01b600052603160045260246000fd5b600190038181906000526020600020016000611a269190613ef6565b905580611a3281614c5e565b9150506119d9565b506000838152600e60205260409020805480611a6657634e487b7160e01b600052603160045260246000fd5b600190038181906000526020600020016000611a829190613ef6565b90556000838152600e60205260408120611a9b91613f30565b815115611bba57815167ffffffffffffffff811115611aca57634e487b7160e01b600052604160045260246000fd5b604051908082528060200260200182016040528015611afd57816020015b6060815260200190600190039081611ae85790505b506000848152600e602090815260409091208251611b219391929190910190613f4e565b5060005b8251811015611bb857828181518110611b4e57634e487b7160e01b600052603260045260246000fd5b6020026020010151600e60008681526020019081526020016000208281548110611b8857634e487b7160e01b600052603260045260246000fd5b906000526020600020019080519060200190611ba5929190613fab565b5080611bb081614caa565b915050611b25565b505b7f31fe29a6e5ec6cec99ac90e78c870ff8d3d42d4f5a85e8249f20f722bd2992318383604051610c79929190614b2e565b611bf433613527565b611c105760405162461bcd60e51b8152600401610b5f90614816565b611536600080516020614d1c83398151915282610ec7565b611c3133613533565b611c4d5760405162461bcd60e51b8152600401610b5f9061497c565b6000828152600760205260409020600201548290611c7d5760405162461bcd60e51b8152600401610b5f90614952565b428211611cbd5760405162461bcd60e51b815260206004820152600e60248201526d7061737420636c6f736554696d6560901b6044820152606401610b5f565b600083815260076020908152604091829020600281018590558251868152918201859052917fc3daa84eedfacd6851bbf80d00ce11271bf926ac96c3d361c0307023c939d4b3910160405180910390a150505050565b611d1c33610ead565b80611d2b5750611d2b33613527565b611d475760405162461bcd60e51b8152600401610b5f906147d4565b6001600160a01b038116611d985760405162461bcd60e51b815260206004820152601860248201527741636365737369626c653a207a65726f206164647265737360401b6044820152606401610b5f565b336001600160a01b0382161415611dea5760405162461bcd60e51b815260206004820152601660248201527520b1b1b2b9b9b4b136329d1039b0b6b29030b236b4b760511b6044820152606401610b5f565b611e02600080516020614d1c83398151915282610ec7565b611536600080516020614d1c833981519152336110d6565b6000611e2584610e5c565b50909250508115801590611e3c575060008360ff16115b15611f4f576000848152600d6020908152604091829020825180840190935280546001600160a01b03168084526001909101549183019190915215801590611e875750602081015115155b15611f4d5780516020820151604051633266c98760e01b8152600481019190915260ff861660248201526000916001600160a01b031690633266c9879060440160206040518083038186803b158015611edf57600080fd5b505afa158015611ef3573d6000803e3d6000fd5b505050506040513d601f19601f82011682018060405250810190611f179190614301565b905061ffff811615611f4b57612710611f3461ffff831686614bf8565b611f3e9190614be4565b611f489085614bcc565b92505b505b505b80611f575750805b9392505050565b611f6733613527565b611f835760405162461bcd60e51b8152600401610b5f90614816565b6001600160a01b038116611fd45760405162461bcd60e51b815260206004820152601860248201527741636365737369626c653a207a65726f206164647265737360401b6044820152606401610b5f565b336001600160a01b03821614156120265760405162461bcd60e51b815260206004820152601660248201527520b1b1b2b9b9b4b136329d1039b0b6b29030b236b4b760511b6044820152606401610b5f565b612031600082610ec7565b6115366000336110d6565b6006546060908190819060008167ffffffffffffffff81111561206f57634e487b7160e01b600052604160045260246000fd5b604051908082528060200260200182016040528015612098578160200160208202803683370190505b50905060008267ffffffffffffffff8111156120c457634e487b7160e01b600052604160045260246000fd5b60405190808252806020026020018201604052801561210957816020015b60408051808201909152600080825260208201528152602001906001900390816120e25790505b50905060008367ffffffffffffffff81111561213557634e487b7160e01b600052604160045260246000fd5b60405190808252806020026020018201604052801561219557816020015b6040805160c08101825260008082526020808301829052928201819052606082018190526080820181905260a082015282526000199092019101816121535790505b50905060005b848110156122d75760008482815181106121c557634e487b7160e01b600052603260045260246000fd5b6020908102919091018101516000818152600d8352604090819020815180830190925280546001600160a01b031682526001015492810192909252855190925085908490811061222557634e487b7160e01b600052603260045260246000fd5b6020908102919091018101919091526000828152600c8252604090819020815160c081018352815460ff808216835263ffffffff61010083041695830195909552600160281b900490931615159183019190915260018101546060830152600281015460808301526003015460a082015283518490849081106122b857634e487b7160e01b600052603260045260246000fd5b60200260200101819052505080806122cf90614caa565b91505061219b565b5091969195509350915050565b60009182526008602090815260408084206001600160a01b0393909316845291905290205460ff1690565b61231833613527565b6123345760405162461bcd60e51b8152600401610b5f90614816565b611536600082613d0a565b600061234a33613533565b6123665760405162461bcd60e51b8152600401610b5f9061497c565b6020880135806123885760405162461bcd60e51b8152600401610b5f906148b0565b6060890135806123aa5760405162461bcd60e51b8152600401610b5f906148b0565b8663ffffffff81166123eb5760405162461bcd60e51b815260206004820152600a6024820152697a65726f2076616c756560b01b6044820152606401610b5f565b8663ffffffff811661242c5760405162461bcd60e51b815260206004820152600a6024820152697a65726f2076616c756560b01b6044820152606401610b5f565b6009548c351161247e5760405162461bcd60e51b815260206004820152601d60248201527f746f74616c53616c65416d6f756e7420697320746f6f20736d616c6c2e0000006044820152606401610b5f565b8863ffffffff168863ffffffff161180156124a257504261ffff168863ffffffff16115b6124f85760405162461bcd60e51b815260206004820152602160248201527f696e76616c6964205f737461727454696d65206f7220656e6453616c6554696d6044820152606560f81b6064820152608401610b5f565b600160009054906101000a90046001600160a01b03166001600160a01b03166330e06e8b6040518163ffffffff1660e01b8152600401602060405180830381600087803b15801561254857600080fd5b505af115801561255c573d6000803e3d6000fd5b505050506040513d601f19601f820116820180604052508101906125809190614323565b94506040518060a001604052808e6001600160a01b031681526020018d6000600481106125bd57634e487b7160e01b600052603260045260246000fd5b602002013581526020018963ffffffff168152602001600081526020018d6001600481106125fb57634e487b7160e01b600052603260045260246000fd5b602090810291909101359091526000878152600782526040808220845181546001600160a01b0319166001600160a01b03909116178155928401516001808501919091558482015160028501556060850151600385015560809094015160049093019290925560068054808501825591527ff652222313e28459528d920b65115c16c04f3efc82aaedc97be59f3f377c0d3f01879055805160c0810190915290819060ff16815263ffffffff8b166020820152600060408201526060018d6002602002013581526020018d6003600481106126e657634e487b7160e01b600052603260045260246000fd5b6020908102919091013582526000918101829052878252600c81526040918290208351815492850151938501511515600160281b0260ff60281b1963ffffffff9095166101000264ffffffffff1990941660ff909216919091179290921792909216178155606082015160018201556080820151600282015560a0909101516003909101556001600160a01b038b161580159061278257508915155b156127ce576040805180820182526001600160a01b038d8116825260208083018e815260008a8152600d909252939020915182546001600160a01b031916911617815590516001909101555b85156128ea578567ffffffffffffffff8111156127fb57634e487b7160e01b600052604160045260246000fd5b60405190808252806020026020018201604052801561282e57816020015b60608152602001906001900390816128195790505b506000868152600e6020908152604090912082516128529391929190910190613f4e565b5060005b868110156128e85787878281811061287e57634e487b7160e01b600052603260045260246000fd5b90506020028101906128909190614b4f565b6000888152600e602052604090208054849081106128be57634e487b7160e01b600052603260045260246000fd5b9060005260206000200191906128d592919061402b565b50806128e081614caa565b915050612856565b505b6001600160a01b038d161561295957600254604051639ea6498560e01b81526001600160a01b038f8116600483015290911690639ea6498590602401600060405180830381600087803b15801561294057600080fd5b505af1158015612954573d6000803e3d6000fd5b505050505b7f8ab28c87df9bf58381e9fb04197c035ef6dcc5dce0d69b6462f8efbd282131a3858e8e8e8e8e8e8e8e60405161299899989796959493929190614a45565b60405180910390a15050505098975050505050505050565b6129b933610ead565b806129c857506129c833613527565b6129e45760405162461bcd60e51b8152600401610b5f906147d4565b6115c9600080516020614d1c833981519152336110d6565b612a0533613533565b612a215760405162461bcd60e51b8152600401610b5f9061497c565b8080612a3f5760405162461bcd60e51b8152600401610b5f906148b0565b6000848152600760205260409020600201548490612a6f5760405162461bcd60e51b8152600401610b5f90614952565b6000858152600760209081526040808320600c9092529091208515612aad5784826001016000828254612aa29190614bcc565b90915550612b089050565b80600301548260010154612ac19190614c17565b8511612adb5784826001016000828254612aa29190614c17565b80600301548260010154612aef9190614c17565b826001016000828254612b029190614c17565b90915550505b60095481600301548360010154612b1f9190614c17565b11612b7057805460ff60281b1916600160281b1781556040517f065f36f0cc9a946e058a78fcf529ed8629c0ad3f6d065007c3c9162fd2c39d6390612b679089815260200190565b60405180910390a15b6040805188815287151560208201529081018690527f5e6b6b7fc7d8fb3137611da2ee2b2529d67d6d9e3ae513c9431123de9aa8b88e9060600160405180910390a150505050505050565b612bc433613533565b612be05760405162461bcd60e51b8152600401610b5f9061497c565b816001600160a01b038116612c375760405162461bcd60e51b815260206004820152601b60248201527f426f6e644465706f7369746f72793a7a65726f206164647265737300000000006044820152606401610b5f565b600a546001600160a01b038481169116141580612c625750600b546001600160a01b03838116911614155b612c9d5760405162461bcd60e51b815260206004820152600c60248201526b73616d65206164647265737360a01b6044820152606401610b5f565b600a80546001600160a01b038581166001600160a01b03199283168117909355600b80549186169190921681179091556040805192835260208301919091527fe834872e75f018397d98a9d1ffee1466fa0df9ebb4a70033cf59095c8fdc27139101610c79565b612d3f6040518060a0016040528060006001600160a01b03168152602001600081526020016000815260200160008152602001600081525090565b6040805160c081018252600080825260208201819052918101829052606081018290526080810182905260a08101919091526040805180820190915260008082526020820152606060076000868152602001908152602001600020600c6000878152602001908152602001600020600d6000888152602001908152602001600020600e6000898152602001908152602001600020836040518060a00160405290816000820160009054906101000a90046001600160a01b03166001600160a01b03166001600160a01b031681526020016001820154815260200160028201548152602001600382015481526020016004820154815250509350826040518060c00160405290816000820160009054906101000a900460ff1660ff1660ff1681526020016000820160019054906101000a900463ffffffff1663ffffffff1663ffffffff1681526020016000820160059054906101000a900460ff1615151515815260200160018201548152602001600282015481526020016003820154815250509250816040518060400160405290816000820160009054906101000a90046001600160a01b03166001600160a01b03166001600160a01b03168152602001600182015481525050915080805480602002602001604051908101604052809291908181526020016000905b82821015612fd6578382906000526020600020018054612f4990614c75565b80601f0160208091040260200160405190810160405280929190818152602001828054612f7590614c75565b8015612fc25780601f10612f9757610100808354040283529160200191612fc2565b820191906000526020600020905b815481529060010190602001808311612fa557829003601f168201915b505050505081526020019060010190612f2a565b50505050905093509350935093509193509193565b612ff433613527565b6130105760405162461bcd60e51b8152600401610b5f90614816565b611536600080516020614d3c83398151915282610ec7565b61303133613533565b61304d5760405162461bcd60e51b8152600401610b5f9061497c565b6000838152600c602052604090205483904261010090910463ffffffff16106130885760405162461bcd60e51b8152600401610b5f9061485e565b6000818152600c6020526040902054600160281b900460ff16156130be5760405162461bcd60e51b8152600401610b5f906148e7565b60008181526007602052604090206002015442106130ee5760405162461bcd60e51b8152600401610b5f906148e7565b6000818152600c60209081526040808320600301546007909252909120600101541161312c5760405162461bcd60e51b8152600401610b5f90614889565b826001600160a01b0381166131835760405162461bcd60e51b815260206004820152601b60248201527f426f6e644465706f7369746f72793a7a65726f206164647265737300000000006044820152606401610b5f565b82806131a15760405162461bcd60e51b8152600401610b5f906148b0565b6000868152600d60205260409020546001600160a01b0386811691161480156131da57506000868152600d602052604090206001015484145b156132135760405162461bcd60e51b815260206004820152600960248201526873616d6520696e666f60b81b6044820152606401610b5f565b6040805180820182526001600160a01b03878116808352602080840189815260008c8152600d8352869020945185546001600160a01b031916941693909317845591516001909301929092558251898152908101919091529081018590527fa7a8ec28d6b7ef25adfbbec102f5a1a25ec8656b876b01e88ad603340957c37e9060600160405180910390a1505050505050565b6132af33613527565b6132cb5760405162461bcd60e51b8152600401610b5f90614816565b6115c96000336110d6565b6132df33613533565b6132fb5760405162461bcd60e51b8152600401610b5f9061497c565b80600954141561333b5760405162461bcd60e51b815260206004820152600b60248201526a1cd85b5948185b5bdd5b9d60aa1b6044820152606401610b5f565b60098190556040518181527f9961843a54376364c925ef0bce05dd5fc5e8983e905c6cc0171dd78a566192f99060200160405180910390a150565b60008281526008602052604090206001015461339281336136dd565b610eed83836137c7565b6000806000806133ab85610c86565b915091506000600760008781526020019081526020016000206040518060a00160405290816000820160009054906101000a90046001600160a01b03166001600160a01b03166001600160a01b0316815260200160018201548152602001600282015481526020016003820154815260200160048201548152505090506000600c60008881526020019081526020016000206040518060c00160405290816000820160009054906101000a900460ff1660ff1660ff1681526020016000820160019054906101000a900463ffffffff1663ffffffff1663ffffffff1681526020016000820160059054906101000a900460ff161515151581526020016001820154815260200160028201548152602001600382015481525050905060008411156134e2578382602001516134df9190614be4565b95505b6000831180156134fe575060a08101516134fc8488614bf8565b115b15610e505760a08101516135128488614bf8565b61351c9190614c17565b945050505050915091565b6000610b3481836122e4565b6000610b34600080516020614d3c833981519152836122e4565b61355633613533565b6135725760405162461bcd60e51b8152600401610b5f9061497c565b6000828152600c602052604090205482904261010090910463ffffffff16106135ad5760405162461bcd60e51b8152600401610b5f9061485e565b6000818152600c6020526040902054600160281b900460ff16156135e35760405162461bcd60e51b8152600401610b5f906148e7565b60008181526007602052604090206002015442106136135760405162461bcd60e51b8152600401610b5f906148e7565b6000818152600c6020908152604080832060030154600790925290912060010154116136515760405162461bcd60e51b8152600401610b5f90614889565b818061366f5760405162461bcd60e51b8152600401610b5f906148b0565b600084815260076020908152604091829020600481018690558251878152918201869052917f8acfbca94764d5685c5bfc97648ab602aaf360f94d79dcdeebc61f39b98447b1910160405180910390a15050505050565b6000818310156136d65781611f57565b5090919050565b6136e782826122e4565b611150576136ff816001600160a01b03166014613d14565b61370a836020613d14565b60405160200161371b92919061464e565b60408051601f198184030181529082905262461bcd60e51b8252610b5f916004016147c1565b61374b82826122e4565b6111505760008281526008602090815260408083206001600160a01b03851684529091529020805460ff191660011790556137833390565b6001600160a01b0316816001600160a01b0316837f2f8788117e7eff1d82e926ec794901d17c78024a50270940304540a733656f0d60405160405180910390a45050565b6137d182826122e4565b156111505760008281526008602090815260408083206001600160a01b0385168085529252808320805460ff1916905551339285917ff6391f5c32d9c69d2a47ea670b442974b53935d1edc7fd64eb21e047a839171b9190a45050565b600080600560149054906101000a900460ff1615156001151514156138955760405162461bcd60e51b815260206004820152601f60248201527f5265656e7472616e637947756172643a207265656e7472616e742063616c6c006044820152606401610b5f565b6005805460ff60a01b1916600160a01b1790556000848152600760209081526040808320815160a08101835281546001600160a01b03168152600182015493810193909352600281015491830191909152600381015460608301526004015460808201529061390386610e5c565b50509050613912868683611e1a565b9250868310156139805760405162461bcd60e51b815260206004820152603360248201527f54686520626f6e64696e6720616d6f756e74206973206c657373207468616e206044820152723a34329036b4b734b6bab69030b6b7bab73a1760691b6064820152608401610b5f565b670de0b6b3a7640000613993848a614bf8565b61399d9190614be4565b93508160200151600c600088815260200190815260200160002060030154856139c69190614bcc565b1115613a145760405162461bcd60e51b815260206004820152601760248201527f73616c657320766f6c756d65206973206c61636b696e670000000000000000006044820152606401610b5f565b6000613a1f8761339c565b91505080851115613a725760405162461bcd60e51b815260206004820152601b60248201527f6578636565642063757272656e7443617061636974794c696d697400000000006044820152606401610b5f565b6000670de0b6b3a7640000600260009054906101000a90046001600160a01b03166001600160a01b03166396f0bd616040518163ffffffff1660e01b815260040160206040518083038186803b158015613acb57600080fd5b505afa158015613adf573d6000803e3d6000fd5b505050506040513d601f19601f82011682018060405250810190613b039190614323565b613b0d908c614bf8565b613b179190614be4565b905085811015613b7d5760405162461bcd60e51b815260206004820152602b60248201527f6d696e7461626c65416d6f756e74206973206c657373207468616e207374616b60448201526a34b7339030b6b7bab73a1760a91b6064820152608401610b5f565b6000888152600c6020526040812060038101805491928992613ba0908490614bcc565b909155505060095460038201546020870151613bbc9190614c17565b11613c0d57805460ff60281b1916600160281b1781556040517f065f36f0cc9a946e058a78fcf529ed8629c0ad3f6d065007c3c9162fd2c39d6390613c04908b815260200190565b60405180910390a15b60025460405163ef7c6c0f60e01b81526004810184905260248101899052600160448201526001600160a01b039091169063ef7c6c0f90606401600060405180830381600087803b158015613c6157600080fd5b505af1158015613c75573d6000803e3d6000fd5b505050507fef81711614d4ac7faee84826311bec7d949a272a2e7e4f39f3a3b72527767d698c8a8d8a600187604051613ce3969594939291906001600160a01b039690961686526020860194909452604085019290925260608401521515608083015260a082015260c00190565b60405180910390a150506005805460ff60a01b191690555092989197509095505050505050565b6111508282613741565b60606000613d23836002614bf8565b613d2e906002614bcc565b67ffffffffffffffff811115613d5457634e487b7160e01b600052604160045260246000fd5b6040519080825280601f01601f191660200182016040528015613d7e576020820181803683370190505b509050600360fc1b81600081518110613da757634e487b7160e01b600052603260045260246000fd5b60200101906001600160f81b031916908160001a905350600f60fb1b81600181518110613de457634e487b7160e01b600052603260045260246000fd5b60200101906001600160f81b031916908160001a9053506000613e08846002614bf8565b613e13906001614bcc565b90505b6001811115613ea7576f181899199a1a9b1b9c1cb0b131b232b360811b85600f1660108110613e5557634e487b7160e01b600052603260045260246000fd5b1a60f81b828281518110613e7957634e487b7160e01b600052603260045260246000fd5b60200101906001600160f81b031916908160001a90535060049490941c93613ea081614c5e565b9050613e16565b508315611f575760405162461bcd60e51b815260206004820181905260248201527f537472696e67733a20686578206c656e67746820696e73756666696369656e746044820152606401610b5f565b508054613f0290614c75565b6000825580601f10613f12575050565b601f016020900490600052602060002090810190611536919061409f565b508054600082559060005260206000209081019061153691906140b4565b828054828255906000526020600020908101928215613f9b579160200282015b82811115613f9b5782518051613f8b918491602090910190613fab565b5091602001919060010190613f6e565b50613fa79291506140b4565b5090565b828054613fb790614c75565b90600052602060002090601f016020900481019282613fd9576000855561401f565b82601f10613ff257805160ff191683800117855561401f565b8280016001018555821561401f579182015b8281111561401f578251825591602001919060010190614004565b50613fa792915061409f565b82805461403790614c75565b90600052602060002090601f016020900481019282614059576000855561401f565b82601f106140725782800160ff1982351617855561401f565b8280016001018555821561401f579182015b8281111561401f578235825591602001919060010190614084565b5b80821115613fa757600081556001016140a0565b80821115613fa75760006140c88282613ef6565b506001016140b4565b80356001600160a01b03811681146140e857600080fd5b919050565b600082601f8301126140fd578081fd5b813567ffffffffffffffff81111561411757614117614d05565b61412a601f8201601f1916602001614b9b565b81815284602083860101111561413e578283fd5b816020850160208301379081016020019190915292915050565b803563ffffffff811681146140e857600080fd5b803560ff811681146140e857600080fd5b60006020828403121561418e578081fd5b611f57826140d1565b600080604083850312156141a9578081fd5b6141b2836140d1565b91506141c0602084016140d1565b90509250929050565b600080600080600080600080610140898b0312156141e5578384fd5b6141ee896140d1565b975060a089018a811115614200578485fd5b60208a01975061420f816140d1565b96505060c0890135945061422560e08a01614158565b93506142346101008a01614158565b925061012089013567ffffffffffffffff80821115614251578384fd5b818b0191508b601f830112614264578384fd5b813581811115614272578485fd5b8c60208260051b8501011115614286578485fd5b6020830194508093505050509295985092959890939650565b6000602082840312156142b0578081fd5b5035919050565b600080604083850312156142c9578182fd5b823591506141c0602084016140d1565b6000602082840312156142ea578081fd5b81356001600160e01b031981168114611f57578182fd5b600060208284031215614312578081fd5b815161ffff81168114611f57578182fd5b600060208284031215614334578081fd5b5051919050565b60008060006060848603121561434f578283fd5b8335925061435f602085016140d1565b9150604084013590509250925092565b60008060408385031215614381578081fd5b8235915060208084013567ffffffffffffffff808211156143a0578384fd5b818601915086601f8301126143b3578384fd5b8135818111156143c5576143c5614d05565b8060051b6143d4858201614b9b565b8281528581019085870183870188018c10156143ee578889fd5b8893505b8484101561442b5780358681111561440857898afd5b6144168d8a838b01016140ed565b845250600193909301929187019187016143f2565b50809750505050505050509250929050565b600080600060608486031215614451578081fd5b8335925060208401358015158114614467578182fd5b929592945050506040919091013590565b6000806040838503121561448a578182fd5b50508035926020909101359150565b6000806000606084860312156144ad578081fd5b505081359360208301359350604090920135919050565b600080600080608085870312156144d9578182fd5b8435935060208501359250604085013591506144f76060860161416c565b905092959194509250565b600080600060608486031215614516578081fd5b8335925061435f6020850161416c565b600081518084526020808501808196508360051b81019150828601855b8581101561456d57828403895261455b8483516145dd565b98850198935090840190600101614543565b5091979650505050505050565b6000815180845260208085019450808401835b838110156145a95781518752958201959082019060010161458d565b509495945050505050565b81835281816020850137506000828201602090810191909152601f909101601f19169091010190565b600081518084526145f5816020860160208601614c2e565b601f01601f19169290920160200192915050565b60ff815116825263ffffffff6020820151166020830152604081015115156040830152606081015160608301526080810151608083015260a081015160a08301525050565b7f416363657373436f6e74726f6c3a206163636f756e7420000000000000000000815260008351614686816017850160208801614c2e565b7001034b99036b4b9b9b4b733903937b6329607d1b60179184019182015283516146b7816028840160208801614c2e565b01602801949350505050565b6001600160a01b03841681526060602082018190526000906146e7908301856145dd565b9050826040830152949350505050565b602081526000611f57602083018461457a565b60608152600061471d606083018661457a565b828103602084810191909152855180835286820192820190845b8181101561475d5761474a838651614609565b9383019360c09290920191600101614737565b5050604092508481038386015280865180835283830191508388019250855b818110156147b2576147a283855180516001600160a01b03168252602090810151910152565b928401929185019160010161477c565b50909998505050505050505050565b602081526000611f5760208301846145dd565b60208082526022908201527f41636365737369626c653a2043616c6c6572206973206e6f7420616e2061646d60408201526134b760f11b606082015260800190565b60208082526028908201527f41636365737369626c653a2043616c6c6572206973206e6f7420616e2070726f6040820152673c3c9030b236b4b760c11b606082015260800190565b6020808252601190820152701b9bc81cdd185c9d081d1a5b59481e595d607a1b604082015260600190565b6020808252600d908201526c7a65726f20636170616369747960981b604082015260600190565b60208082526019908201527f426f6e644465706f7369746f72793a207a65726f2075696e7400000000000000604082015260600190565b6020808252600d908201526c18db1bdcd959081b585c9ad95d609a1b604082015260600190565b60208082526024908201527f4465706f7369746f72793a2045544820616d6f756e747320646f206e6f74206d6040820152630c2e8c6d60e31b606082015260800190565b60208082526010908201526f1b9bdb8b595e1a5cdd081b585c9ad95d60821b604082015260600190565b60208082526029908201527f41636365737369626c653a2043616c6c6572206973206e6f7420616e20706f6c60408201526834b1bc9030b236b4b760b91b606082015260800190565b60006101c060018060a01b03875116835260208701516020840152604087015160408401526060870151606084015260808701516080840152614a0b60a0840187614609565b84516001600160a01b03166101608401526020850151610180840152806101a0840152614a3a81840185614526565b979650505050505050565b60006101608083018c8452602060018060a01b03808e168287015260808d60408801378b1660c086015260e085018a905263ffffffff898116610100870152881661012086015261014085019290925284905261018080840191600586901b85019091019086845b87811015614b1a5786840361017f190185528135368a9003601e19018112614ad3578687fd5b8901803567ffffffffffffffff811115614aeb578788fd5b8036038b1315614af9578788fd5b614b0686828785016145b4565b968501969550505090820190600101614aad565b50919e9d5050505050505050505050505050565b828152604060208201526000614b476040830184614526565b949350505050565b6000808335601e19843603018112614b65578283fd5b83018035915067ffffffffffffffff821115614b7f578283fd5b602001915036819003821315614b9457600080fd5b9250929050565b604051601f8201601f1916810167ffffffffffffffff81118282101715614bc457614bc4614d05565b604052919050565b60008219821115614bdf57614bdf614cd9565b500190565b600082614bf357614bf3614cef565b500490565b6000816000190483118215151615614c1257614c12614cd9565b500290565b600082821015614c2957614c29614cd9565b500390565b60005b83811015614c49578181015183820152602001614c31565b83811115614c58576000848401525b50505050565b600081614c6d57614c6d614cd9565b506000190190565b600181811c90821680614c8957607f821691505b602082108114156110d057634e487b7160e01b600052602260045260246000fd5b6000600019821415614cbe57614cbe614cd9565b5060010190565b600082614cd457614cd4614cef565b500690565b634e487b7160e01b600052601160045260246000fd5b634e487b7160e01b600052601260045260246000fd5b634e487b7160e01b600052604160045260246000fdfedf8b4c520ffe197c5343c6f5aec59570151ef9a492f2c624fd45ddde6135ec42fb5864e8ff833c3cb2d2d08505e82ff02a43554c74a35d4f5a64e85261278311a26469706673582212206b8e0d9639727d5f6d63bce24420ff6c6da3eb89d1ab7f1818627905f7bf4d9664736f6c63430008040033",
  "linkReferences": {},
  "deployedLinkReferences": {}
}