{
  "_format": "hh-sol-artifact-1",
  "contractName": "BondDepository",
  "sourceName": "contracts/BondDepository.sol",
  "abi": [
    {
      "inputs": [],
      "stateMutability": "nonpayable",
      "type": "constructor"
    },
    {
      "anonymous": false,
      "inputs": [
        {
          "indexed": true,
          "internalType": "uint256",
          "name": "id",
          "type": "uint256"
        },
        {
          "indexed": false,
          "internalType": "uint256",
          "name": "amount",
          "type": "uint256"
        },
        {
          "indexed": false,
          "internalType": "uint256",
          "name": "payout",
          "type": "uint256"
        }
      ],
      "name": "Bond",
      "type": "event"
    },
    {
      "anonymous": false,
      "inputs": [
        {
          "indexed": true,
          "internalType": "uint256",
          "name": "id",
          "type": "uint256"
        }
      ],
      "name": "CloseMarket",
      "type": "event"
    },
    {
      "anonymous": false,
      "inputs": [
        {
          "indexed": true,
          "internalType": "uint256",
          "name": "id",
          "type": "uint256"
        },
        {
          "indexed": false,
          "internalType": "uint256",
          "name": "saleAmount",
          "type": "uint256"
        },
        {
          "indexed": false,
          "internalType": "uint256",
          "name": "endTime",
          "type": "uint256"
        }
      ],
      "name": "CreateMarket",
      "type": "event"
    },
    {
      "anonymous": false,
      "inputs": [
        {
          "indexed": false,
          "internalType": "address",
          "name": "",
          "type": "address"
        },
        {
          "indexed": false,
          "internalType": "uint256",
          "name": "",
          "type": "uint256"
        }
      ],
      "name": "Received",
      "type": "event"
    },
    {
      "anonymous": false,
      "inputs": [
        {
          "indexed": true,
          "internalType": "bytes32",
          "name": "role",
          "type": "bytes32"
        },
        {
          "indexed": true,
          "internalType": "bytes32",
          "name": "previousAdminRole",
          "type": "bytes32"
        },
        {
          "indexed": true,
          "internalType": "bytes32",
          "name": "newAdminRole",
          "type": "bytes32"
        }
      ],
      "name": "RoleAdminChanged",
      "type": "event"
    },
    {
      "anonymous": false,
      "inputs": [
        {
          "indexed": true,
          "internalType": "bytes32",
          "name": "role",
          "type": "bytes32"
        },
        {
          "indexed": true,
          "internalType": "address",
          "name": "account",
          "type": "address"
        },
        {
          "indexed": true,
          "internalType": "address",
          "name": "sender",
          "type": "address"
        }
      ],
      "name": "RoleGranted",
      "type": "event"
    },
    {
      "anonymous": false,
      "inputs": [
        {
          "indexed": true,
          "internalType": "bytes32",
          "name": "role",
          "type": "bytes32"
        },
        {
          "indexed": true,
          "internalType": "address",
          "name": "account",
          "type": "address"
        },
        {
          "indexed": true,
          "internalType": "address",
          "name": "sender",
          "type": "address"
        }
      ],
      "name": "RoleRevoked",
      "type": "event"
    },
    {
      "inputs": [],
      "name": "ADMIN_ROLE",
      "outputs": [
        {
          "internalType": "bytes32",
          "name": "",
          "type": "bytes32"
        }
      ],
      "stateMutability": "view",
      "type": "function"
    },
    {
      "inputs": [],
      "name": "BURNER_ROLE",
      "outputs": [
        {
          "internalType": "bytes32",
          "name": "",
          "type": "bytes32"
        }
      ],
      "stateMutability": "view",
      "type": "function"
    },
    {
      "inputs": [],
      "name": "DEFAULT_ADMIN_ROLE",
      "outputs": [
        {
          "internalType": "bytes32",
          "name": "",
          "type": "bytes32"
        }
      ],
      "stateMutability": "view",
      "type": "function"
    },
    {
      "inputs": [
        {
          "internalType": "uint256",
          "name": "_id",
          "type": "uint256"
        },
        {
          "internalType": "uint256",
          "name": "_amount",
          "type": "uint256"
        },
        {
          "internalType": "uint256",
          "name": "_time",
          "type": "uint256"
        },
        {
          "internalType": "uint256",
          "name": "_dTOSamount",
          "type": "uint256"
        },
        {
          "internalType": "bool",
          "name": "_claim",
          "type": "bool"
        }
      ],
      "name": "ERC20deposit",
      "outputs": [
        {
          "internalType": "uint256",
          "name": "payout_",
          "type": "uint256"
        },
        {
          "internalType": "uint256",
          "name": "index_",
          "type": "uint256"
        }
      ],
      "stateMutability": "nonpayable",
      "type": "function"
    },
    {
      "inputs": [
        {
          "internalType": "uint256",
          "name": "_id",
          "type": "uint256"
        },
        {
          "internalType": "uint256",
          "name": "_amount",
          "type": "uint256"
        },
        {
          "internalType": "uint256",
          "name": "_time",
          "type": "uint256"
        },
        {
          "internalType": "uint256",
          "name": "_dTOSamount",
          "type": "uint256"
        },
        {
          "internalType": "bool",
          "name": "_claim",
          "type": "bool"
        }
      ],
      "name": "ETHDeposit",
      "outputs": [
        {
          "internalType": "uint256",
          "name": "payout_",
          "type": "uint256"
        },
        {
          "internalType": "uint256",
          "name": "index_",
          "type": "uint256"
        }
      ],
      "stateMutability": "payable",
      "type": "function"
    },
    {
      "inputs": [],
      "name": "MINTER_ROLE",
      "outputs": [
        {
          "internalType": "bytes32",
          "name": "",
          "type": "bytes32"
        }
      ],
      "stateMutability": "view",
      "type": "function"
    },
    {
      "inputs": [],
      "name": "POLICY_ROLE",
      "outputs": [
        {
          "internalType": "bytes32",
          "name": "",
          "type": "bytes32"
        }
      ],
      "stateMutability": "view",
      "type": "function"
    },
    {
      "inputs": [],
      "name": "PROJECT_ADMIN_ROLE",
      "outputs": [
        {
          "internalType": "bytes32",
          "name": "",
          "type": "bytes32"
        }
      ],
      "stateMutability": "view",
      "type": "function"
    },
    {
      "inputs": [
        {
          "internalType": "address",
          "name": "account",
          "type": "address"
        }
      ],
      "name": "addAdmin",
      "outputs": [],
      "stateMutability": "nonpayable",
      "type": "function"
    },
    {
      "inputs": [
        {
          "internalType": "address",
          "name": "_account",
          "type": "address"
        }
      ],
      "name": "addPolicy",
      "outputs": [],
      "stateMutability": "nonpayable",
      "type": "function"
    },
    {
      "inputs": [
        {
          "internalType": "address",
          "name": "_owner",
          "type": "address"
        }
      ],
      "name": "addProxyAdmin",
      "outputs": [],
      "stateMutability": "nonpayable",
      "type": "function"
    },
    {
      "inputs": [
        {
          "internalType": "address",
          "name": "_addr",
          "type": "address"
        },
        {
          "internalType": "uint256",
          "name": "_percents",
          "type": "uint256"
        }
      ],
      "name": "addTransfer",
      "outputs": [],
      "stateMutability": "nonpayable",
      "type": "function"
    },
    {
      "inputs": [
        {
          "internalType": "uint256",
          "name": "_tokenPrice",
          "type": "uint256"
        },
        {
          "internalType": "uint256",
          "name": "_tosPrice",
          "type": "uint256"
        },
        {
          "internalType": "uint256",
          "name": "_amount",
          "type": "uint256"
        }
      ],
      "name": "calculPayoutAmount",
      "outputs": [
        {
          "internalType": "uint256",
          "name": "payout",
          "type": "uint256"
        }
      ],
      "stateMutability": "pure",
      "type": "function"
    },
    {
      "inputs": [],
      "name": "calculator",
      "outputs": [
        {
          "internalType": "address",
          "name": "",
          "type": "address"
        }
      ],
      "stateMutability": "view",
      "type": "function"
    },
    {
      "inputs": [
        {
          "internalType": "uint256",
          "name": "_id",
          "type": "uint256"
        }
      ],
      "name": "close",
      "outputs": [],
      "stateMutability": "nonpayable",
      "type": "function"
    },
    {
      "inputs": [
        {
          "internalType": "bool",
          "name": "_check",
          "type": "bool"
        },
        {
          "internalType": "contract IERC20",
          "name": "_token",
          "type": "address"
        },
        {
          "internalType": "address",
          "name": "_poolAddress",
          "type": "address"
        },
        {
          "internalType": "uint256[5]",
          "name": "_market",
          "type": "uint256[5]"
        }
      ],
      "name": "create",
      "outputs": [
        {
          "internalType": "uint256",
          "name": "id_",
          "type": "uint256"
        }
      ],
      "stateMutability": "nonpayable",
      "type": "function"
    },
    {
      "inputs": [],
      "name": "dTOS",
      "outputs": [
        {
          "internalType": "contract IDTOS",
          "name": "",
          "type": "address"
        }
      ],
      "stateMutability": "view",
      "type": "function"
    },
    {
      "inputs": [
        {
          "internalType": "bytes32",
          "name": "role",
          "type": "bytes32"
        }
      ],
      "name": "getRoleAdmin",
      "outputs": [
        {
          "internalType": "bytes32",
          "name": "",
          "type": "bytes32"
        }
      ],
      "stateMutability": "view",
      "type": "function"
    },
    {
      "inputs": [
        {
          "internalType": "bytes32",
          "name": "role",
          "type": "bytes32"
        },
        {
          "internalType": "address",
          "name": "account",
          "type": "address"
        }
      ],
      "name": "grantRole",
      "outputs": [],
      "stateMutability": "nonpayable",
      "type": "function"
    },
    {
      "inputs": [
        {
          "internalType": "bytes32",
          "name": "role",
          "type": "bytes32"
        },
        {
          "internalType": "address",
          "name": "account",
          "type": "address"
        }
      ],
      "name": "hasRole",
      "outputs": [
        {
          "internalType": "bool",
          "name": "",
          "type": "bool"
        }
      ],
      "stateMutability": "view",
      "type": "function"
    },
    {
      "inputs": [
        {
          "internalType": "address",
          "name": "account",
          "type": "address"
        }
      ],
      "name": "isAdmin",
      "outputs": [
        {
          "internalType": "bool",
          "name": "",
          "type": "bool"
        }
      ],
      "stateMutability": "view",
      "type": "function"
    },
    {
      "inputs": [
        {
          "internalType": "address",
          "name": "account",
          "type": "address"
        }
      ],
      "name": "isPolicy",
      "outputs": [
        {
          "internalType": "bool",
          "name": "",
          "type": "bool"
        }
      ],
      "stateMutability": "view",
      "type": "function"
    },
    {
      "inputs": [
        {
          "internalType": "address",
          "name": "account",
          "type": "address"
        }
      ],
      "name": "isProxyAdmin",
      "outputs": [
        {
          "internalType": "bool",
          "name": "",
          "type": "bool"
        }
      ],
      "stateMutability": "view",
      "type": "function"
    },
    {
      "inputs": [
        {
          "internalType": "uint256",
          "name": "_id",
          "type": "uint256"
        }
      ],
      "name": "marketMaxPayout",
      "outputs": [
        {
          "internalType": "uint256",
          "name": "maxpayout_",
          "type": "uint256"
        }
      ],
      "stateMutability": "view",
      "type": "function"
    },
    {
      "inputs": [
        {
          "internalType": "uint256",
          "name": "",
          "type": "uint256"
        }
      ],
      "name": "markets",
      "outputs": [
        {
          "internalType": "bool",
          "name": "method",
          "type": "bool"
        },
        {
          "internalType": "contract IERC20",
          "name": "quoteToken",
          "type": "address"
        },
        {
          "internalType": "uint256",
          "name": "capacity",
          "type": "uint256"
        },
        {
          "internalType": "uint256",
          "name": "endSaleTime",
          "type": "uint256"
        },
        {
          "internalType": "uint256",
          "name": "sold",
          "type": "uint256"
        },
        {
          "internalType": "uint256",
          "name": "maxPayout",
          "type": "uint256"
        }
      ],
      "stateMutability": "view",
      "type": "function"
    },
    {
      "inputs": [],
      "name": "marketsLength",
      "outputs": [
        {
          "internalType": "uint256",
          "name": "length",
          "type": "uint256"
        }
      ],
      "stateMutability": "view",
      "type": "function"
    },
    {
      "inputs": [
        {
          "internalType": "uint256",
          "name": "",
          "type": "uint256"
        }
      ],
      "name": "metadata",
      "outputs": [
        {
          "internalType": "address",
          "name": "poolAddress",
          "type": "address"
        },
        {
          "internalType": "uint256",
          "name": "tokenPrice",
          "type": "uint256"
        },
        {
          "internalType": "uint256",
          "name": "tosPrice",
          "type": "uint256"
        },
        {
          "internalType": "uint256",
          "name": "totalSaleAmount",
          "type": "uint256"
        },
        {
          "internalType": "bool",
          "name": "ethMarket",
          "type": "bool"
        }
      ],
      "stateMutability": "view",
      "type": "function"
    },
    {
      "inputs": [],
      "name": "mintRate",
      "outputs": [
        {
          "internalType": "uint256",
          "name": "",
          "type": "uint256"
        }
      ],
      "stateMutability": "view",
      "type": "function"
    },
    {
      "inputs": [
        {
          "internalType": "uint256",
          "name": "",
          "type": "uint256"
        }
      ],
      "name": "mintingList",
      "outputs": [
        {
          "internalType": "address",
          "name": "",
          "type": "address"
        }
      ],
      "stateMutability": "view",
      "type": "function"
    },
    {
      "inputs": [
        {
          "internalType": "uint256",
          "name": "",
          "type": "uint256"
        }
      ],
      "name": "mintings",
      "outputs": [
        {
          "internalType": "address",
          "name": "mintAddress",
          "type": "address"
        },
        {
          "internalType": "uint256",
          "name": "mintPercents",
          "type": "uint256"
        }
      ],
      "stateMutability": "view",
      "type": "function"
    },
    {
      "inputs": [
        {
          "internalType": "uint256",
          "name": "_id",
          "type": "uint256"
        }
      ],
      "name": "remainingAmount",
      "outputs": [
        {
          "internalType": "uint256",
          "name": "tokenAmount",
          "type": "uint256"
        }
      ],
      "stateMutability": "view",
      "type": "function"
    },
    {
      "inputs": [],
      "name": "removeAdmin",
      "outputs": [],
      "stateMutability": "nonpayable",
      "type": "function"
    },
    {
      "inputs": [],
      "name": "removePolicy",
      "outputs": [],
      "stateMutability": "nonpayable",
      "type": "function"
    },
    {
      "inputs": [],
      "name": "removeProxyAdmin",
      "outputs": [],
      "stateMutability": "nonpayable",
      "type": "function"
    },
    {
      "inputs": [
        {
          "internalType": "bytes32",
          "name": "role",
          "type": "bytes32"
        },
        {
          "internalType": "address",
          "name": "account",
          "type": "address"
        }
      ],
      "name": "renounceRole",
      "outputs": [],
      "stateMutability": "nonpayable",
      "type": "function"
    },
    {
      "inputs": [
        {
          "internalType": "bytes32",
          "name": "role",
          "type": "bytes32"
        },
        {
          "internalType": "address",
          "name": "account",
          "type": "address"
        }
      ],
      "name": "revokeRole",
      "outputs": [],
      "stateMutability": "nonpayable",
      "type": "function"
    },
    {
      "inputs": [
        {
          "internalType": "uint256",
          "name": "_mrRate",
          "type": "uint256"
        }
      ],
      "name": "setMR",
      "outputs": [],
      "stateMutability": "nonpayable",
      "type": "function"
    },
    {
      "inputs": [],
      "name": "staking",
      "outputs": [
        {
          "internalType": "contract IStaking",
          "name": "",
          "type": "address"
        }
      ],
      "stateMutability": "view",
      "type": "function"
    },
    {
      "inputs": [
        {
          "internalType": "bytes4",
          "name": "interfaceId",
          "type": "bytes4"
        }
      ],
      "name": "supportsInterface",
      "outputs": [
        {
          "internalType": "bool",
          "name": "",
          "type": "bool"
        }
      ],
      "stateMutability": "view",
      "type": "function"
    },
    {
      "inputs": [],
      "name": "tos",
      "outputs": [
        {
          "internalType": "contract IERC20",
          "name": "",
          "type": "address"
        }
      ],
      "stateMutability": "view",
      "type": "function"
    },
    {
      "inputs": [],
      "name": "totalPercents",
      "outputs": [
        {
          "internalType": "uint256",
          "name": "",
          "type": "uint256"
        }
      ],
      "stateMutability": "view",
      "type": "function"
    },
    {
      "inputs": [
        {
          "internalType": "address",
          "name": "newAdmin",
          "type": "address"
        }
      ],
      "name": "transferAdmin",
      "outputs": [],
      "stateMutability": "nonpayable",
      "type": "function"
    },
    {
      "inputs": [
        {
          "internalType": "uint256",
          "name": "_id",
          "type": "uint256"
        },
        {
          "internalType": "address",
          "name": "_addr",
          "type": "address"
        },
        {
          "internalType": "uint256",
          "name": "_percents",
          "type": "uint256"
        }
      ],
      "name": "transferChange",
      "outputs": [],
      "stateMutability": "nonpayable",
      "type": "function"
    },
    {
      "inputs": [
        {
          "internalType": "address",
          "name": "newAdmin",
          "type": "address"
        }
      ],
      "name": "transferPolicyAdmin",
      "outputs": [],
      "stateMutability": "nonpayable",
      "type": "function"
    },
    {
      "inputs": [
        {
          "internalType": "address",
          "name": "newAdmin",
          "type": "address"
        }
      ],
      "name": "transferProxyAdmin",
      "outputs": [],
      "stateMutability": "nonpayable",
      "type": "function"
    },
    {
      "inputs": [],
      "name": "treasury",
      "outputs": [
        {
          "internalType": "contract ITreasury",
          "name": "",
          "type": "address"
        }
      ],
      "stateMutability": "view",
      "type": "function"
    },
    {
      "inputs": [
        {
          "internalType": "address",
          "name": "",
          "type": "address"
        },
        {
          "internalType": "uint256",
          "name": "",
          "type": "uint256"
        }
      ],
      "name": "users",
      "outputs": [
        {
          "internalType": "uint256",
          "name": "tokenAmount",
          "type": "uint256"
        },
        {
          "internalType": "uint256",
          "name": "tosAmount",
          "type": "uint256"
        },
        {
          "internalType": "uint256",
          "name": "marketID",
          "type": "uint256"
        },
        {
          "internalType": "uint256",
          "name": "endTime",
          "type": "uint256"
        },
        {
          "internalType": "uint256",
          "name": "dTOSuse",
          "type": "uint256"
        }
      ],
      "stateMutability": "view",
      "type": "function"
    }
  ],
  "bytecode": "0x608060405234801561001057600080fd5b50613010806100206000396000f3fe6080604052600436106102885760003560e01c806389f395de1161015a578063ca0dcf16116100c1578063dc05ce2c1161007a578063dc05ce2c14610864578063e3684e3914610884578063f1c8c922146108b5578063f47f2f1d146108d5578063f65184ec146108f5578063fad1c85c1461091557600080fd5b8063ca0dcf161461079a578063cbbe89bf146107b0578063ce3e39c0146107d0578063d0126a44146107f0578063d539139314610810578063d547741f1461084457600080fd5b8063b1283e7711610113578063b1283e77146106b8578063b2749bca1461070f578063b2abb48714610725578063b2d6c01514610745578063b84ef08114610765578063be72f2d31461078557600080fd5b806389f395de1461061957806391d148541461063957806396f1557c146106595780639a202d4714610679578063a217fddf1461068e578063a5402544146106a357600080fd5b806341c04d5e116101fe57806375829def116101b757806375829def1461053757806375b238fc1461055757806376f2766c1461058b578063777214d2146105b95780638356ca4f146105d957806387bda8f2146105f957600080fd5b806341c04d5e146104405780634cf088d91461046257806354a02f9e1461049a57806361d027b3146104e257806365cb3a8314610502578063704802751461051757600080fd5b8063282c51f311610250578063282c51f3146103645780632e48f0c5146103985780632f2ff15d146103c057806336568abe146103e057806337d95a51146104005780633d63b5ab1461042057600080fd5b806301ffc9a71461028d5780630aebeb4e146102c257806322985246146102e4578063248a9ca31461031457806324d7806c14610344575b600080fd5b34801561029957600080fd5b506102ad6102a8366004612ab6565b610935565b60405190151581526020015b60405180910390f35b3480156102ce57600080fd5b506102e26102dd366004612a6f565b61096c565b005b3480156102f057600080fd5b50610306600080516020612fbb83398151915281565b6040519081526020016102b9565b34801561032057600080fd5b5061030661032f366004612a6f565b6000908152600d602052604090206001015490565b34801561035057600080fd5b506102ad61035f3660046129ac565b610a2a565b34801561037057600080fd5b506103067f9667e80708b6eeeb0053fa0cca44e028ff548e2a9f029edfeac87c118b08b7c881565b6103ab6103a6366004612b58565b610a44565b604080519283526020830191909152016102b9565b3480156103cc57600080fd5b506102e26103db366004612a87565b611013565b3480156103ec57600080fd5b506102e26103fb366004612a87565b61103e565b34801561040c57600080fd5b5061030661041b366004612a6f565b6110bc565b34801561042c57600080fd5b506103ab61043b366004612b58565b611175565b34801561044c57600080fd5b50610306600080516020612f7b83398151915281565b34801561046e57600080fd5b50600754610482906001600160a01b031681565b6040516001600160a01b0390911681526020016102b9565b3480156104a657600080fd5b506104ba6104b53660046129c8565b6116d5565b604080519586526020860194909452928401919091526060830152608082015260a0016102b9565b3480156104ee57600080fd5b50600854610482906001600160a01b031681565b34801561050e57600080fd5b506102e2611723565b34801561052357600080fd5b506102e26105323660046129ac565b611762565b34801561054357600080fd5b506102e26105523660046129ac565b6117a2565b34801561056357600080fd5b506103067fdf8b4c520ffe197c5343c6f5aec59570151ef9a492f2c624fd45ddde6135ec4281565b34801561059757600080fd5b506105ab6105a6366004612a6f565b611855565b6040516102b9929190612c5b565b3480156105c557600080fd5b506103066105d4366004612b2d565b61188d565b3480156105e557600080fd5b506102e26105f43660046129ac565b6118c7565b34801561060557600080fd5b50610306610614366004612a6f565b611951565b34801561062557600080fd5b50600554610482906001600160a01b031681565b34801561064557600080fd5b506102ad610654366004612a87565b6119f9565b34801561066557600080fd5b506102e26106743660046129ac565b611a24565b34801561068557600080fd5b506102e2611a54565b34801561069a57600080fd5b50610306600081565b3480156106af57600080fd5b50600054610306565b3480156106c457600080fd5b506106d86106d3366004612a6f565b611aa0565b6040805196151587526001600160a01b039095166020870152938501929092526060840152608083015260a082015260c0016102b9565b34801561071b57600080fd5b50610306600c5481565b34801561073157600080fd5b50600654610482906001600160a01b031681565b34801561075157600080fd5b50610306610760366004612a0f565b611af5565b34801561077157600080fd5b506102e26107803660046129ac565b611eb4565b34801561079157600080fd5b506102e2611ef1565b3480156107a657600080fd5b50610306600b5481565b3480156107bc57600080fd5b506102e26107cb3660046129c8565b611f21565b3480156107dc57600080fd5b50600954610482906001600160a01b031681565b3480156107fc57600080fd5b5061048261080b366004612a6f565b612014565b34801561081c57600080fd5b506103067ff0887ba65ee2024ea881d91b74c2450ef19e1557f03bed3ea9f16b037cbe2dc981565b34801561085057600080fd5b506102e261085f366004612a87565b61203e565b34801561087057600080fd5b506102e261087f366004612a6f565b612064565b34801561089057600080fd5b506108a461089f366004612a6f565b61208e565b6040516102b9959493929190612c74565b3480156108c157600080fd5b506102e26108d03660046129ac565b6120dc565b3480156108e157600080fd5b506102ad6108f03660046129ac565b612180565b34801561090157600080fd5b506102e2610910366004612af6565b61218c565b34801561092157600080fd5b506102ad6109303660046129ac565b61222b565b60006001600160e01b03198216637965db0b60e01b148061096657506301ffc9a760e01b6001600160e01b03198316145b92915050565b6109753361222b565b61099a5760405162461bcd60e51b815260040161099190612df7565b60405180910390fd5b4265ffffffffffff16600082815481106109c457634e487b7160e01b600052603260045260246000fd5b90600052602060002090600502016002018190555060008082815481106109fb57634e487b7160e01b600052603260045260246000fd5b600091825260208220600160059092020101919091556040518291600080516020612f9b83398151915291a250565b6000610966600080516020612f7b833981519152836119f9565b6000806000808881548110610a6957634e487b7160e01b600052603260045260246000fd5b90600052602060002090600502019050600060018981548110610a9c57634e487b7160e01b600052603260045260246000fd5b60009182526020918290206040805160a081018252600590930290910180546001600160a01b03168352600181015493830193909352600280840154918301919091526003830154606083015260049092015460ff16151560808201529083015490915042908110610b205760405162461bcd60e51b815260040161099190612e40565b883414610b6f5760405162461bcd60e51b815260206004820152601f60248201527f4465706f7369746f7279203a204554482076616c7565206e6f742073616d65006044820152606401610991565b8160800151610bc05760405162461bcd60e51b815260206004820152601a60248201527f4465706f7369746f7279203a206e6f74204554484d61726b65740000000000006044820152606401610991565b6000610bcb8b6110bc565b9050808a1115610bed5760405162461bcd60e51b815260040161099190612dc5565b610c00836020015184604001518c61188d565b9550610c35604051806040016040528060118152602001707061796f7574416d6f756e74203a20257360781b81525087612245565b858460010154610c459190612ec8565b5085846001016000828254610c5a9190612ec8565b9250508190555085846003016000828254610c759190612e71565b9250508190555060036000336001600160a01b03166001600160a01b0316815260200190815260200160002080549050945060036000336001600160a01b03166001600160a01b031681526020019081526020016000206040518060a001604052808c81526020018881526020018d81526020018660020154815260200160008152509080600181540180825580915050600190039060005260206000209060050201600090919091909150600082015181600001556020820151816001015560408201518160020155606082015181600301556080820151816004015550506000600b548b610d659190612ea9565b6008546040516340c10f1960e01b81529192506001600160a01b0316906340c10f1990610d989030908590600401612c5b565b600060405180830381600087803b158015610db257600080fd5b505af1158015610dc6573d6000803e3d6000fd5b5050600a546040516001600160a01b0390911692503480156108fc029250906000818181858888f19350505050158015610e04573d6000803e3d6000fd5b506000610e118883612ec8565b90506000610e1e8261228a565b600854909150610e4e906001600160a01b0316610e3b8385612ec8565b6005546001600160a01b0316919061234a565b600860009054906101000a90046001600160a01b03166001600160a01b031663c3d6a0ab6040518163ffffffff1660e01b8152600401600060405180830381600087803b158015610e9e57600080fd5b505af1158015610eb2573d6000803e3d6000fd5b50505050610ed8604051806040016040528060018152602001603160f81b815250612461565b600760009054906101000a90046001600160a01b03166001600160a01b031663435c2768338b8f600060016040518663ffffffff1660e01b8152600401610f23959493929190612c74565b602060405180830381600087803b158015610f3d57600080fd5b505af1158015610f51573d6000803e3d6000fd5b505050506040513d601f19601f82011682018060405250810190610f759190612ade565b50610f98604051806040016040528060018152602001601960f91b815250612461565b604080518e8152602081018b90528f917f7880508a48fd3aee88f7e15917d85e39c3ad059e51ad4aca9bb46e7b4938b961910160405180910390a28660030154866060015111611002576000600188018190556040518f91600080516020612f9b83398151915291a25b505050505050509550959350505050565b6000828152600d602052604090206001015461102f81336124a4565b6110398383612508565b505050565b6001600160a01b03811633146110ae5760405162461bcd60e51b815260206004820152602f60248201527f416363657373436f6e74726f6c3a2063616e206f6e6c792072656e6f756e636560448201526e103937b632b9903337b91039b2b63360891b6064820152608401610991565b6110b8828261258e565b5050565b600080600083815481106110e057634e487b7160e01b600052603260045260246000fd5b60009182526020918290206040805160c0810182526005909302909101805460ff8116151584526001600160a01b036101009091041693830193909352600183015490820152600282015460608201526003820154608082015260049091015460a08201529050611150836125f5565b60a0820151611164906402540be400612ea9565b61116e9190612e89565b9392505050565b6000806000851180156111885750600086115b6111d45760405162461bcd60e51b815260206004820152601c60248201527f4465706f7369746f7279203a206e6565642074686520616d6f756e74000000006044820152606401610991565b60008088815481106111f657634e487b7160e01b600052603260045260246000fd5b9060005260206000209060050201905060006001898154811061122957634e487b7160e01b600052603260045260246000fd5b60009182526020918290206040805160a081018252600590930290910180546001600160a01b03168352600181015493830193909352600280840154918301919091526003830154606083015260049092015460ff161515608082015290830154909150429081106112ad5760405162461bcd60e51b815260040161099190612e40565b60006112b88b6110bc565b9050808a11156112da5760405162461bcd60e51b815260040161099190612dc5565b6112ed836020015184604001518c61188d565b95508584600101546112ff9190612ec8565b50858460010160008282546113149190612ec8565b925050819055508584600301600082825461132f9190612e71565b9250508190555060036000336001600160a01b03166001600160a01b0316815260200190815260200160002080549050945060036000336001600160a01b03166001600160a01b031681526020019081526020016000206040518060a001604052808c81526020018881526020018d81526020018660020154815260200160008152509080600181540180825580915050600190039060005260206000209060050201600090919091909150600082015181600001556020820151816001015560408201518160020155606082015181600301556080820151816004015550506000600960009054906101000a90046001600160a01b03166001600160a01b031663371b97636040518163ffffffff1660e01b815260040160206040518083038186803b15801561145f57600080fd5b505afa158015611473573d6000803e3d6000fd5b505050506040513d601f19601f820116820180604052508101906114979190612ade565b6114a1908c612ea9565b90506000600b54826114b39190612ea9565b6008546040516340c10f1960e01b81529192506001600160a01b0316906340c10f19906114e69030908590600401612c5b565b600060405180830381600087803b15801561150057600080fd5b505af1158015611514573d6000803e3d6000fd5b505050508c7f7880508a48fd3aee88f7e15917d85e39c3ad059e51ad4aca9bb46e7b4938b9618d8a604051611553929190918252602082015260400190565b60405180910390a2600854865461157e916001600160a01b036101009092048216913391168f612684565b600860009054906101000a90046001600160a01b03166001600160a01b031663c3d6a0ab6040518163ffffffff1660e01b8152600401600060405180830381600087803b1580156115ce57600080fd5b505af11580156115e2573d6000803e3d6000fd5b50505050600760009054906101000a90046001600160a01b03166001600160a01b031663435c2768338a8e600060016040518663ffffffff1660e01b8152600401611631959493929190612c74565b602060405180830381600087803b15801561164b57600080fd5b505af115801561165f573d6000803e3d6000fd5b505050506040513d601f19601f820116820180604052508101906116839190612ade565b50600386015461169b90670de0b6b3a7640000612e71565b8560600151116116c5576000600187018190556040518e91600080516020612f9b83398151915291a25b5050505050509550959350505050565b600360205281600052604060002081815481106116f157600080fd5b600091825260209091206005909102018054600182015460028301546003840154600490940154929550909350919085565b61172c3361222b565b6117485760405162461bcd60e51b815260040161099190612df7565b611760600080516020612fbb8339815191523361103e565b565b61176b33612180565b6117875760405162461bcd60e51b815260040161099190612d4d565b61179f600080516020612f7b83398151915282611013565b50565b6117ab33610a2a565b806117ba57506117ba33612180565b6117d65760405162461bcd60e51b815260040161099190612cd9565b6001600160a01b0381166117fc5760405162461bcd60e51b815260040161099190612d1b565b336001600160a01b03821614156118255760405162461bcd60e51b815260040161099190612d95565b61183d600080516020612f7b83398151915282611013565b61179f600080516020612f7b8339815191523361103e565b6002818154811061186557600080fd5b6000918252602090912060029091020180546001909101546001600160a01b03909116915082565b60006402540be40082846118a18784612ea9565b6118ab9190612e89565b6118b59190612ea9565b6118bf9190612e89565b949350505050565b6118d033612180565b6118ec5760405162461bcd60e51b815260040161099190612d4d565b6001600160a01b0381166119125760405162461bcd60e51b815260040161099190612d1b565b336001600160a01b038216141561193b5760405162461bcd60e51b815260040161099190612d95565b611946600082611013565b61179f60003361103e565b6000806000838154811061197557634e487b7160e01b600052603260045260246000fd5b60009182526020918290206040805160c0810182526005909302909101805460ff8116151584526001600160a01b036101009091041693830193909352600183015490820152600282015460608201526003820154608082015260049091015460a082015290506119e5836125f5565b6040820151611164906402540be400612ea9565b6000918252600d602090815260408084206001600160a01b0393909316845291905290205460ff1690565b611a2d33612180565b611a495760405162461bcd60e51b815260040161099190612d4d565b61179f60008261279f565b611a5d33610a2a565b80611a6c5750611a6c33612180565b611a885760405162461bcd60e51b815260040161099190612cd9565b611760600080516020612f7b8339815191523361103e565b60008181548110611ab057600080fd5b60009182526020909120600590910201805460018201546002830154600384015460049094015460ff841695506101009093046001600160a01b031693919290919086565b6000611b003361222b565b611b1c5760405162461bcd60e51b815260040161099190612df7565b50600080546040805160c08101825287151581526001600160a01b038716602082015284359181019190915290919060608101846001602002013581526020016000815260200184600460058110611b8457634e487b7160e01b600052603260045260246000fd5b60209081029190910135909152825460018181018555600094855282852084516005909302018054938501516001600160a01b031661010002610100600160a81b0319931515939093166001600160a81b031990941693909317919091178255604083015190820155606082015160028201556080820151600382015560a090910151600490910155805482908110611c2d57634e487b7160e01b600052603260045260246000fd5b600091825260209091206005909102015460ff1615611d5a5760016040518060a00160405280856001600160a01b0316815260200184600260058110611c8357634e487b7160e01b600052603260045260246000fd5b6020020135815260200184600360058110611cae57634e487b7160e01b600052603260045260246000fd5b6020020135815260200184600060058110611cd957634e487b7160e01b600052603260045260246000fd5b602090810291909101358252600191810182905283548083018555600094855293819020835160059095020180546001600160a01b0319166001600160a01b03909516949094178455820151908301556040810151600283015560608101516003830155608001516004909101805460ff1916911515919091179055611e6d565b60016040518060a00160405280856001600160a01b0316815260200184600260058110611d9757634e487b7160e01b600052603260045260246000fd5b6020020135815260200184600360058110611dc257634e487b7160e01b600052603260045260246000fd5b6020020135815260200184600060058110611ded57634e487b7160e01b600052603260045260246000fd5b602090810291909101358252600091810182905283546001808201865594835291819020835160059093020180546001600160a01b0319166001600160a01b03909316929092178255820151928101929092556040810151600283015560608101516003830155608001516004909101805460ff19169115159190911790555b60408051833581526020808501359082015282917f3b57546c6d42702611b013a3212e4eaf3df05532e52641a515743d65c9bb2392910160405180910390a2949350505050565b611ebd33612180565b611ed95760405162461bcd60e51b815260040161099190612d4d565b61179f600080516020612fbb8339815191528261279f565b611efa33612180565b611f165760405162461bcd60e51b815260040161099190612d4d565b61176060003361103e565b611f2a3361222b565b611f465760405162461bcd60e51b815260040161099190612df7565b600081118015611f565750606481105b611f9a5760405162461bcd60e51b81526020600482015260156024820152742fb832b931b2b73a399039b2ba3a34b7339032b93960591b6044820152606401610991565b606481600c54611faa9190612e71565b10611ff75760405162461bcd60e51b815260206004820152601c60248201527f746f74616c50657263656e7473206e65656420736d616c6c20313030000000006044820152606401610991565b60048054839190634e487b7160e01b600052603260045260246000fd5b6004818154811061202457600080fd5b6000918252602090912001546001600160a01b0316905081565b6000828152600d602052604090206001015461205a81336124a4565b611039838361258e565b61206d3361222b565b6120895760405162461bcd60e51b815260040161099190612df7565b600b55565b6001818154811061209e57600080fd5b6000918252602090912060059091020180546001820154600283015460038401546004909401546001600160a01b0390931694509092909160ff1685565b6120e53361222b565b6121015760405162461bcd60e51b815260040161099190612df7565b6001600160a01b0381166121275760405162461bcd60e51b815260040161099190612d1b565b336001600160a01b03821614156121505760405162461bcd60e51b815260040161099190612d95565b612168600080516020612fbb83398151915282611013565b61179f600080516020612fbb8339815191523361103e565b600061096681836119f9565b6121953361222b565b6121b15760405162461bcd60e51b815260040161099190612df7565b6000600284815481106121d457634e487b7160e01b600052603260045260246000fd5b90600052602060002090600202019050806001015482600c546121f79190612e71565b6122019190612ec8565b600c5580546001600160a01b0319166001600160a01b039390931692909217825560019091015550565b6000610966600080516020612fbb833981519152836119f9565b6110b8828260405160240161225b929190612cb7565b60408051601f198184030181529190526020810180516001600160e01b03166309710a9d60e41b1790526127a9565b6000805b600454811015612344576000600282815481106122bb57634e487b7160e01b600052603260045260246000fd5b906000526020600020906002020160010154846122d89190612ea9565b90506122e48184612e71565b92506123316002838154811061230a57634e487b7160e01b600052603260045260246000fd5b60009182526020909120600290910201546005546001600160a01b0390811691168361234a565b508061233c81612f26565b91505061228e565b50919050565b600080846001600160a01b031663a9059cbb60e01b8585604051602401612372929190612c5b565b60408051601f198184030181529181526020820180516001600160e01b03166001600160e01b03199094169390931790925290516123b09190612bd0565b6000604051808303816000865af19150503d80600081146123ed576040519150601f19603f3d011682016040523d82523d6000602084013e6123f2565b606091505b509150915081801561241c57508051158061241c57508080602001905181019061241c91906129f3565b61245a5760405162461bcd60e51b815260206004820152600f60248201526e1514905394d1915497d19052531151608a1b6044820152606401610991565b5050505050565b61179f816040516024016124759190612ca4565b60408051601f198184030181529190526020810180516001600160e01b031663104c13eb60e21b1790526127a9565b6124ae82826119f9565b6110b8576124c6816001600160a01b031660146127ca565b6124d18360206127ca565b6040516020016124e2929190612bec565b60408051601f198184030181529082905262461bcd60e51b825261099191600401612ca4565b61251282826119f9565b6110b8576000828152600d602090815260408083206001600160a01b03851684529091529020805460ff1916600117905561254a3390565b6001600160a01b0316816001600160a01b0316837f2f8788117e7eff1d82e926ec794901d17c78024a50270940304540a733656f0d60405160405180910390a45050565b61259882826119f9565b156110b8576000828152600d602090815260408083206001600160a01b0385168085529252808320805460ff1916905551339285917ff6391f5c32d9c69d2a47ea670b442974b53935d1edc7fd64eb21e047a839171b9190a45050565b6000806001838154811061261957634e487b7160e01b600052603260045260246000fd5b60009182526020918290206040805160a081018252600590930290910180546001600160a01b0316835260018101549383018490526002810154918301829052600381015460608401526004015460ff161515608083015290925090611164906402540be400612ea9565b604080516001600160a01b0385811660248301528481166044830152606480830185905283518084039091018152608490920183526020820180516001600160e01b03166323b872dd60e01b17905291516000928392908816916126e89190612bd0565b6000604051808303816000865af19150503d8060008114612725576040519150601f19603f3d011682016040523d82523d6000602084013e61272a565b606091505b509150915081801561275457508051158061275457508080602001905181019061275491906129f3565b6127975760405162461bcd60e51b81526020600482015260146024820152731514905394d1915497d19493d357d1905253115160621b6044820152606401610991565b505050505050565b6110b88282612508565b80516a636f6e736f6c652e6c6f67602083016000808483855afa5050505050565b606060006127d9836002612ea9565b6127e4906002612e71565b67ffffffffffffffff81111561280a57634e487b7160e01b600052604160045260246000fd5b6040519080825280601f01601f191660200182016040528015612834576020820181803683370190505b509050600360fc1b8160008151811061285d57634e487b7160e01b600052603260045260246000fd5b60200101906001600160f81b031916908160001a905350600f60fb1b8160018151811061289a57634e487b7160e01b600052603260045260246000fd5b60200101906001600160f81b031916908160001a90535060006128be846002612ea9565b6128c9906001612e71565b90505b600181111561295d576f181899199a1a9b1b9c1cb0b131b232b360811b85600f166010811061290b57634e487b7160e01b600052603260045260246000fd5b1a60f81b82828151811061292f57634e487b7160e01b600052603260045260246000fd5b60200101906001600160f81b031916908160001a90535060049490941c9361295681612f0f565b90506128cc565b50831561116e5760405162461bcd60e51b815260206004820181905260248201527f537472696e67733a20686578206c656e67746820696e73756666696369656e746044820152606401610991565b6000602082840312156129bd578081fd5b813561116e81612f57565b600080604083850312156129da578081fd5b82356129e581612f57565b946020939093013593505050565b600060208284031215612a04578081fd5b815161116e81612f6c565b600080600080610100808688031215612a26578283fd5b8535612a3181612f6c565b94506020860135612a4181612f57565b93506040860135612a5181612f57565b9250858101871015612a61578182fd5b509295919450926060019150565b600060208284031215612a80578081fd5b5035919050565b60008060408385031215612a99578182fd5b823591506020830135612aab81612f57565b809150509250929050565b600060208284031215612ac7578081fd5b81356001600160e01b03198116811461116e578182fd5b600060208284031215612aef578081fd5b5051919050565b600080600060608486031215612b0a578283fd5b833592506020840135612b1c81612f57565b929592945050506040919091013590565b600080600060608486031215612b41578283fd5b505081359360208301359350604090920135919050565b600080600080600060a08688031215612b6f578081fd5b853594506020860135935060408601359250606086013591506080860135612b9681612f6c565b809150509295509295909350565b60008151808452612bbc816020860160208601612edf565b601f01601f19169290920160200192915050565b60008251612be2818460208701612edf565b9190910192915050565b76020b1b1b2b9b9a1b7b73a3937b61d1030b1b1b7bab73a1604d1b815260008351612c1e816017850160208801612edf565b7001034b99036b4b9b9b4b733903937b6329607d1b6017918401918201528351612c4f816028840160208801612edf565b01602801949350505050565b6001600160a01b03929092168252602082015260400190565b6001600160a01b039590951685526020850193909352604084019190915260608301521515608082015260a00190565b60208152600061116e6020830184612ba4565b604081526000612cca6040830185612ba4565b90508260208301529392505050565b60208082526022908201527f41636365737369626c653a2043616c6c6572206973206e6f7420616e2061646d60408201526134b760f11b606082015260800190565b60208082526018908201527741636365737369626c653a207a65726f206164647265737360401b604082015260600190565b60208082526028908201527f41636365737369626c653a2043616c6c6572206973206e6f7420616e2070726f6040820152673c3c9030b236b4b760c11b606082015260800190565b60208082526016908201527520b1b1b2b9b9b4b136329d1039b0b6b29030b236b4b760511b604082015260600190565b6020808252601890820152774465706f7369746f7279203a206f766572206d617850617960401b604082015260600190565b60208082526029908201527f41636365737369626c653a2043616c6c6572206973206e6f7420616e20706f6c60408201526834b1bc9030b236b4b760b91b606082015260800190565b60208082526017908201527611195c1bdcda5d1bdc9e480e881b585c9ad95d08195b99604a1b604082015260600190565b60008219821115612e8457612e84612f41565b500190565b600082612ea457634e487b7160e01b81526012600452602481fd5b500490565b6000816000190483118215151615612ec357612ec3612f41565b500290565b600082821015612eda57612eda612f41565b500390565b60005b83811015612efa578181015183820152602001612ee2565b83811115612f09576000848401525b50505050565b600081612f1e57612f1e612f41565b506000190190565b6000600019821415612f3a57612f3a612f41565b5060010190565b634e487b7160e01b600052601160045260246000fd5b6001600160a01b038116811461179f57600080fd5b801515811461179f57600080fdfe52eafc11f6f81f86878bffd31109a0d92f37506527754f00788853ff9f63b1308401d05adbea6548a6999cc1540766e6d2ff919292142862893d0e62ec79fbe5fb5864e8ff833c3cb2d2d08505e82ff02a43554c74a35d4f5a64e85261278311a2646970667358221220f426fbe50c4ec5cca47534e51bcd0b3f7ff7cf6d3e3ae7babc1fe1a2a9d8eede64736f6c63430008040033",
  "linkReferences": {},
  "deployedLinkReferences": {}
}