{
  "_format": "hh-sol-artifact-1",
  "contractName": "BondDepositoryV1_1",
  "sourceName": "contracts/BondDepositoryV1_1.sol",
  "abi": [
    {
      "inputs": [],
      "stateMutability": "nonpayable",
      "type": "constructor"
    },
    {
      "anonymous": false,
      "inputs": [
        {
          "indexed": false,
          "internalType": "uint256",
          "name": "_marketId",
          "type": "uint256"
        },
        {
          "indexed": false,
          "internalType": "bool",
          "name": "_increaseFlag",
          "type": "bool"
        },
        {
          "indexed": false,
          "internalType": "uint256",
          "name": "_increaseAmount",
          "type": "uint256"
        }
      ],
      "name": "ChangedCapacity",
      "type": "event"
    },
    {
      "anonymous": false,
      "inputs": [
        {
          "indexed": false,
          "internalType": "uint256",
          "name": "_marketId",
          "type": "uint256"
        },
        {
          "indexed": false,
          "internalType": "uint256",
          "name": "closeTime",
          "type": "uint256"
        }
      ],
      "name": "ChangedCloseTime",
      "type": "event"
    },
    {
      "anonymous": false,
      "inputs": [
        {
          "indexed": false,
          "internalType": "uint256",
          "name": "_marketId",
          "type": "uint256"
        },
        {
          "indexed": false,
          "internalType": "uint256",
          "name": "_amount",
          "type": "uint256"
        }
      ],
      "name": "ChangedMaxPayout",
      "type": "event"
    },
    {
      "anonymous": false,
      "inputs": [
        {
          "indexed": false,
          "internalType": "uint256",
          "name": "_marketId",
          "type": "uint256"
        },
        {
          "indexed": false,
          "internalType": "uint256",
          "name": "_tosPrice",
          "type": "uint256"
        }
      ],
      "name": "ChangedPrice",
      "type": "event"
    },
    {
      "anonymous": false,
      "inputs": [
        {
          "indexed": false,
          "internalType": "uint256",
          "name": "marketId",
          "type": "uint256"
        }
      ],
      "name": "ClosedMarket",
      "type": "event"
    },
    {
      "anonymous": false,
      "inputs": [
        {
          "indexed": false,
          "internalType": "uint256",
          "name": "marketId",
          "type": "uint256"
        },
        {
          "indexed": false,
          "internalType": "address",
          "name": "token",
          "type": "address"
        },
        {
          "indexed": false,
          "internalType": "uint256[4]",
          "name": "market",
          "type": "uint256[4]"
        },
        {
          "indexed": false,
          "internalType": "uint256",
          "name": "startTime",
          "type": "uint256"
        },
        {
          "indexed": false,
          "internalType": "uint256",
          "name": "initialMaxPayout",
          "type": "uint256"
        },
        {
          "indexed": false,
          "internalType": "uint256",
          "name": "capacityUpdatePeriod",
          "type": "uint256"
        },
        {
          "indexed": false,
          "internalType": "bool",
          "name": "availableBasicBond",
          "type": "bool"
        },
        {
          "indexed": false,
          "internalType": "bool",
          "name": "availableStosBond",
          "type": "bool"
        }
      ],
      "name": "CreatedMarket",
      "type": "event"
    },
    {
      "anonymous": false,
      "inputs": [
        {
          "indexed": false,
          "internalType": "address",
          "name": "user",
          "type": "address"
        },
        {
          "indexed": false,
          "internalType": "uint256",
          "name": "marketId",
          "type": "uint256"
        },
        {
          "indexed": false,
          "internalType": "uint256",
          "name": "amount",
          "type": "uint256"
        },
        {
          "indexed": false,
          "internalType": "uint256",
          "name": "payout",
          "type": "uint256"
        },
        {
          "indexed": false,
          "internalType": "bool",
          "name": "isEth",
          "type": "bool"
        },
        {
          "indexed": false,
          "internalType": "uint256",
          "name": "mintAmount",
          "type": "uint256"
        }
      ],
      "name": "Deposited",
      "type": "event"
    },
    {
      "anonymous": false,
      "inputs": [
        {
          "indexed": false,
          "internalType": "address",
          "name": "user",
          "type": "address"
        },
        {
          "indexed": false,
          "internalType": "uint256",
          "name": "marketId",
          "type": "uint256"
        },
        {
          "indexed": false,
          "internalType": "uint256",
          "name": "stakeId",
          "type": "uint256"
        },
        {
          "indexed": false,
          "internalType": "uint256",
          "name": "amount",
          "type": "uint256"
        },
        {
          "indexed": false,
          "internalType": "uint256",
          "name": "tosValuation",
          "type": "uint256"
        }
      ],
      "name": "ETHDeposited",
      "type": "event"
    },
    {
      "anonymous": false,
      "inputs": [
        {
          "indexed": false,
          "internalType": "address",
          "name": "user",
          "type": "address"
        },
        {
          "indexed": false,
          "internalType": "uint256",
          "name": "marketId",
          "type": "uint256"
        },
        {
          "indexed": false,
          "internalType": "uint256",
          "name": "stakeId",
          "type": "uint256"
        },
        {
          "indexed": false,
          "internalType": "uint256",
          "name": "amount",
          "type": "uint256"
        },
        {
          "indexed": false,
          "internalType": "uint256",
          "name": "lockWeeks",
          "type": "uint256"
        },
        {
          "indexed": false,
          "internalType": "uint256",
          "name": "tosValuation",
          "type": "uint256"
        }
      ],
      "name": "ETHDepositedWithSTOS",
      "type": "event"
    },
    {
      "anonymous": false,
      "inputs": [
        {
          "indexed": true,
          "internalType": "bytes32",
          "name": "role",
          "type": "bytes32"
        },
        {
          "indexed": true,
          "internalType": "bytes32",
          "name": "previousAdminRole",
          "type": "bytes32"
        },
        {
          "indexed": true,
          "internalType": "bytes32",
          "name": "newAdminRole",
          "type": "bytes32"
        }
      ],
      "name": "RoleAdminChanged",
      "type": "event"
    },
    {
      "anonymous": false,
      "inputs": [
        {
          "indexed": true,
          "internalType": "bytes32",
          "name": "role",
          "type": "bytes32"
        },
        {
          "indexed": true,
          "internalType": "address",
          "name": "account",
          "type": "address"
        },
        {
          "indexed": true,
          "internalType": "address",
          "name": "sender",
          "type": "address"
        }
      ],
      "name": "RoleGranted",
      "type": "event"
    },
    {
      "anonymous": false,
      "inputs": [
        {
          "indexed": true,
          "internalType": "bytes32",
          "name": "role",
          "type": "bytes32"
        },
        {
          "indexed": true,
          "internalType": "address",
          "name": "account",
          "type": "address"
        },
        {
          "indexed": true,
          "internalType": "address",
          "name": "sender",
          "type": "address"
        }
      ],
      "name": "RoleRevoked",
      "type": "event"
    },
    {
      "anonymous": false,
      "inputs": [
        {
          "indexed": false,
          "internalType": "address",
          "name": "calculatorAddress",
          "type": "address"
        }
      ],
      "name": "SetCalculator",
      "type": "event"
    },
    {
      "inputs": [],
      "name": "ADMIN_ROLE",
      "outputs": [
        {
          "internalType": "bytes32",
          "name": "",
          "type": "bytes32"
        }
      ],
      "stateMutability": "view",
      "type": "function"
    },
    {
      "inputs": [],
      "name": "DEFAULT_ADMIN_ROLE",
      "outputs": [
        {
          "internalType": "bytes32",
          "name": "",
          "type": "bytes32"
        }
      ],
      "stateMutability": "view",
      "type": "function"
    },
    {
      "inputs": [
        {
          "internalType": "uint256",
          "name": "_id",
          "type": "uint256"
        },
        {
          "internalType": "uint256",
          "name": "_amount",
          "type": "uint256"
        }
      ],
      "name": "ETHDeposit",
      "outputs": [
        {
          "internalType": "uint256",
          "name": "payout_",
          "type": "uint256"
        }
      ],
      "stateMutability": "payable",
      "type": "function"
    },
    {
      "inputs": [
        {
          "internalType": "uint256",
          "name": "_id",
          "type": "uint256"
        },
        {
          "internalType": "uint256",
          "name": "_amount",
          "type": "uint256"
        },
        {
          "internalType": "uint256",
          "name": "_lockWeeks",
          "type": "uint256"
        }
      ],
      "name": "ETHDepositWithSTOS",
      "outputs": [
        {
          "internalType": "uint256",
          "name": "payout_",
          "type": "uint256"
        }
      ],
      "stateMutability": "payable",
      "type": "function"
    },
    {
      "inputs": [],
      "name": "POLICY_ROLE",
      "outputs": [
        {
          "internalType": "bytes32",
          "name": "",
          "type": "bytes32"
        }
      ],
      "stateMutability": "view",
      "type": "function"
    },
    {
      "inputs": [
        {
          "internalType": "address",
          "name": "account",
          "type": "address"
        }
      ],
      "name": "addAdmin",
      "outputs": [],
      "stateMutability": "nonpayable",
      "type": "function"
    },
    {
      "inputs": [
        {
          "internalType": "address",
          "name": "_account",
          "type": "address"
        }
      ],
      "name": "addPolicy",
      "outputs": [],
      "stateMutability": "nonpayable",
      "type": "function"
    },
    {
      "inputs": [
        {
          "internalType": "address",
          "name": "_owner",
          "type": "address"
        }
      ],
      "name": "addProxyAdmin",
      "outputs": [],
      "stateMutability": "nonpayable",
      "type": "function"
    },
    {
      "inputs": [],
      "name": "calculator",
      "outputs": [
        {
          "internalType": "address",
          "name": "",
          "type": "address"
        }
      ],
      "stateMutability": "view",
      "type": "function"
    },
    {
      "inputs": [
        {
          "internalType": "uint256",
          "name": "_marketId",
          "type": "uint256"
        },
        {
          "internalType": "bool",
          "name": "_increaseFlag",
          "type": "bool"
        },
        {
          "internalType": "uint256",
          "name": "_increaseAmount",
          "type": "uint256"
        }
      ],
      "name": "changeCapacity",
      "outputs": [],
      "stateMutability": "nonpayable",
      "type": "function"
    },
    {
      "inputs": [
        {
          "internalType": "uint256",
          "name": "_marketId",
          "type": "uint256"
        },
        {
          "internalType": "uint256",
          "name": "closeTime",
          "type": "uint256"
        }
      ],
      "name": "changeCloseTime",
      "outputs": [],
      "stateMutability": "nonpayable",
      "type": "function"
    },
    {
      "inputs": [
        {
          "internalType": "uint256",
          "name": "_marketId",
          "type": "uint256"
        },
        {
          "internalType": "uint256",
          "name": "_amount",
          "type": "uint256"
        }
      ],
      "name": "changeMaxPayout",
      "outputs": [],
      "stateMutability": "nonpayable",
      "type": "function"
    },
    {
      "inputs": [
        {
          "internalType": "uint256",
          "name": "_marketId",
          "type": "uint256"
        },
        {
          "internalType": "uint256",
          "name": "_tosPrice",
          "type": "uint256"
        }
      ],
      "name": "changePrice",
      "outputs": [],
      "stateMutability": "nonpayable",
      "type": "function"
    },
    {
      "inputs": [
        {
          "internalType": "uint256",
          "name": "_id",
          "type": "uint256"
        }
      ],
      "name": "close",
      "outputs": [],
      "stateMutability": "nonpayable",
      "type": "function"
    },
    {
      "inputs": [
        {
          "internalType": "address",
          "name": "_token",
          "type": "address"
        },
        {
          "internalType": "uint256[4]",
          "name": "_market",
          "type": "uint256[4]"
        },
        {
          "internalType": "uint256",
          "name": "_startTime",
          "type": "uint256"
        },
        {
          "internalType": "uint256",
          "name": "_initialMaxPayout",
          "type": "uint256"
        },
        {
          "internalType": "uint256",
          "name": "_capacityUpdatePeriod",
          "type": "uint256"
        },
        {
          "internalType": "bool",
          "name": "_availableBasicBond",
          "type": "bool"
        },
        {
          "internalType": "bool",
          "name": "_availableStosBond",
          "type": "bool"
        }
      ],
      "name": "create",
      "outputs": [
        {
          "internalType": "uint256",
          "name": "id_",
          "type": "uint256"
        }
      ],
      "stateMutability": "nonpayable",
      "type": "function"
    },
    {
      "inputs": [
        {
          "internalType": "address",
          "name": "_account",
          "type": "address"
        }
      ],
      "name": "deletePolicy",
      "outputs": [],
      "stateMutability": "nonpayable",
      "type": "function"
    },
    {
      "inputs": [],
      "name": "dtos",
      "outputs": [
        {
          "internalType": "address",
          "name": "",
          "type": "address"
        }
      ],
      "stateMutability": "view",
      "type": "function"
    },
    {
      "inputs": [],
      "name": "getBonds",
      "outputs": [
        {
          "internalType": "uint256[]",
          "name": "",
          "type": "uint256[]"
        },
        {
          "internalType": "address[]",
          "name": "",
          "type": "address[]"
        },
        {
          "internalType": "uint256[]",
          "name": "",
          "type": "uint256[]"
        },
        {
          "internalType": "uint256[]",
          "name": "",
          "type": "uint256[]"
        },
        {
          "internalType": "uint256[]",
          "name": "",
          "type": "uint256[]"
        },
        {
          "components": [
            {
              "internalType": "uint256",
              "name": "startTime",
              "type": "uint256"
            },
            {
              "internalType": "uint256",
              "name": "initialMaxPayout",
              "type": "uint256"
            },
            {
              "internalType": "uint256",
              "name": "capacityUpdatePeriod",
              "type": "uint256"
            },
            {
              "internalType": "uint256",
              "name": "totalSold",
              "type": "uint256"
            },
            {
              "internalType": "bool",
              "name": "availableBasicBond",
              "type": "bool"
            },
            {
              "internalType": "bool",
              "name": "availableStosBond",
              "type": "bool"
            },
            {
              "internalType": "bool",
              "name": "closed",
              "type": "bool"
            }
          ],
          "internalType": "struct LibBondDepositoryV1_1.CapacityInfo[]",
          "name": "",
          "type": "tuple[]"
        }
      ],
      "stateMutability": "view",
      "type": "function"
    },
    {
      "inputs": [],
      "name": "getMarketList",
      "outputs": [
        {
          "internalType": "uint256[]",
          "name": "",
          "type": "uint256[]"
        }
      ],
      "stateMutability": "view",
      "type": "function"
    },
    {
      "inputs": [
        {
          "internalType": "bytes32",
          "name": "role",
          "type": "bytes32"
        }
      ],
      "name": "getRoleAdmin",
      "outputs": [
        {
          "internalType": "bytes32",
          "name": "",
          "type": "bytes32"
        }
      ],
      "stateMutability": "view",
      "type": "function"
    },
    {
      "inputs": [
        {
          "internalType": "bytes32",
          "name": "role",
          "type": "bytes32"
        },
        {
          "internalType": "address",
          "name": "account",
          "type": "address"
        }
      ],
      "name": "grantRole",
      "outputs": [],
      "stateMutability": "nonpayable",
      "type": "function"
    },
    {
      "inputs": [
        {
          "internalType": "bytes32",
          "name": "role",
          "type": "bytes32"
        },
        {
          "internalType": "address",
          "name": "account",
          "type": "address"
        }
      ],
      "name": "hasRole",
      "outputs": [
        {
          "internalType": "bool",
          "name": "",
          "type": "bool"
        }
      ],
      "stateMutability": "view",
      "type": "function"
    },
    {
      "inputs": [
        {
          "internalType": "address",
          "name": "account",
          "type": "address"
        }
      ],
      "name": "isAdmin",
      "outputs": [
        {
          "internalType": "bool",
          "name": "",
          "type": "bool"
        }
      ],
      "stateMutability": "view",
      "type": "function"
    },
    {
      "inputs": [
        {
          "internalType": "uint256",
          "name": "_marketId",
          "type": "uint256"
        }
      ],
      "name": "isOpened",
      "outputs": [
        {
          "internalType": "bool",
          "name": "closedBool",
          "type": "bool"
        }
      ],
      "stateMutability": "view",
      "type": "function"
    },
    {
      "inputs": [
        {
          "internalType": "address",
          "name": "account",
          "type": "address"
        }
      ],
      "name": "isPolicy",
      "outputs": [
        {
          "internalType": "bool",
          "name": "",
          "type": "bool"
        }
      ],
      "stateMutability": "view",
      "type": "function"
    },
    {
      "inputs": [
        {
          "internalType": "address",
          "name": "account",
          "type": "address"
        }
      ],
      "name": "isProxyAdmin",
      "outputs": [
        {
          "internalType": "bool",
          "name": "",
          "type": "bool"
        }
      ],
      "stateMutability": "view",
      "type": "function"
    },
    {
      "inputs": [
        {
          "internalType": "uint256",
          "name": "",
          "type": "uint256"
        }
      ],
      "name": "marketList",
      "outputs": [
        {
          "internalType": "uint256",
          "name": "",
          "type": "uint256"
        }
      ],
      "stateMutability": "view",
      "type": "function"
    },
    {
      "inputs": [
        {
          "internalType": "uint256",
          "name": "",
          "type": "uint256"
        }
      ],
      "name": "markets",
      "outputs": [
        {
          "internalType": "address",
          "name": "quoteToken",
          "type": "address"
        },
        {
          "internalType": "uint256",
          "name": "capacity",
          "type": "uint256"
        },
        {
          "internalType": "uint256",
          "name": "endSaleTime",
          "type": "uint256"
        },
        {
          "internalType": "uint256",
          "name": "maxPayout",
          "type": "uint256"
        },
        {
          "internalType": "uint256",
          "name": "tosPrice",
          "type": "uint256"
        }
      ],
      "stateMutability": "view",
      "type": "function"
    },
    {
      "inputs": [
        {
          "internalType": "uint256",
          "name": "_marketId",
          "type": "uint256"
        },
        {
          "internalType": "uint256",
          "name": "_periodWeeks",
          "type": "uint256"
        }
      ],
      "name": "maxPayoutPerLockUpPeriod",
      "outputs": [
        {
          "internalType": "uint256",
          "name": "_maxPayoutPerLockUpPeriod",
          "type": "uint256"
        }
      ],
      "stateMutability": "view",
      "type": "function"
    },
    {
      "inputs": [
        {
          "internalType": "uint256",
          "name": "_marketId",
          "type": "uint256"
        },
        {
          "internalType": "uint256",
          "name": "_periodWeeks",
          "type": "uint256"
        }
      ],
      "name": "maximumPurchasableAmountAtOneTime",
      "outputs": [
        {
          "internalType": "uint256",
          "name": "maximumAmount_",
          "type": "uint256"
        }
      ],
      "stateMutability": "view",
      "type": "function"
    },
    {
      "inputs": [
        {
          "internalType": "uint256",
          "name": "_marketId",
          "type": "uint256"
        }
      ],
      "name": "possibleMaxCapacity",
      "outputs": [
        {
          "internalType": "uint256",
          "name": "dailyCapacity",
          "type": "uint256"
        },
        {
          "internalType": "uint256",
          "name": "currentCapacity",
          "type": "uint256"
        }
      ],
      "stateMutability": "view",
      "type": "function"
    },
    {
      "inputs": [],
      "name": "removeAdmin",
      "outputs": [],
      "stateMutability": "nonpayable",
      "type": "function"
    },
    {
      "inputs": [],
      "name": "removePolicy",
      "outputs": [],
      "stateMutability": "nonpayable",
      "type": "function"
    },
    {
      "inputs": [],
      "name": "removeProxyAdmin",
      "outputs": [],
      "stateMutability": "nonpayable",
      "type": "function"
    },
    {
      "inputs": [
        {
          "internalType": "bytes32",
          "name": "role",
          "type": "bytes32"
        },
        {
          "internalType": "address",
          "name": "account",
          "type": "address"
        }
      ],
      "name": "renounceRole",
      "outputs": [],
      "stateMutability": "nonpayable",
      "type": "function"
    },
    {
      "inputs": [
        {
          "internalType": "bytes32",
          "name": "role",
          "type": "bytes32"
        },
        {
          "internalType": "address",
          "name": "account",
          "type": "address"
        }
      ],
      "name": "revokeRole",
      "outputs": [],
      "stateMutability": "nonpayable",
      "type": "function"
    },
    {
      "inputs": [
        {
          "internalType": "uint256",
          "name": "_marketId",
          "type": "uint256"
        }
      ],
      "name": "saleDays",
      "outputs": [
        {
          "internalType": "uint256",
          "name": "totalSaleDays",
          "type": "uint256"
        },
        {
          "internalType": "uint256",
          "name": "curWhatDays",
          "type": "uint256"
        }
      ],
      "stateMutability": "view",
      "type": "function"
    },
    {
      "inputs": [],
      "name": "staking",
      "outputs": [
        {
          "internalType": "contract IStaking",
          "name": "",
          "type": "address"
        }
      ],
      "stateMutability": "view",
      "type": "function"
    },
    {
      "inputs": [
        {
          "internalType": "bytes4",
          "name": "interfaceId",
          "type": "bytes4"
        }
      ],
      "name": "supportsInterface",
      "outputs": [
        {
          "internalType": "bool",
          "name": "",
          "type": "bool"
        }
      ],
      "stateMutability": "view",
      "type": "function"
    },
    {
      "inputs": [],
      "name": "tos",
      "outputs": [
        {
          "internalType": "contract IERC20",
          "name": "",
          "type": "address"
        }
      ],
      "stateMutability": "view",
      "type": "function"
    },
    {
      "inputs": [],
      "name": "totalMarketCount",
      "outputs": [
        {
          "internalType": "uint256",
          "name": "",
          "type": "uint256"
        }
      ],
      "stateMutability": "view",
      "type": "function"
    },
    {
      "inputs": [
        {
          "internalType": "address",
          "name": "newAdmin",
          "type": "address"
        }
      ],
      "name": "transferAdmin",
      "outputs": [],
      "stateMutability": "nonpayable",
      "type": "function"
    },
    {
      "inputs": [
        {
          "internalType": "address",
          "name": "newAdmin",
          "type": "address"
        }
      ],
      "name": "transferProxyAdmin",
      "outputs": [],
      "stateMutability": "nonpayable",
      "type": "function"
    },
    {
      "inputs": [],
      "name": "treasury",
      "outputs": [
        {
          "internalType": "address",
          "name": "",
          "type": "address"
        }
      ],
      "stateMutability": "view",
      "type": "function"
    },
    {
      "inputs": [],
      "name": "uniswapV3Factory",
      "outputs": [
        {
          "internalType": "address",
          "name": "",
          "type": "address"
        }
      ],
      "stateMutability": "view",
      "type": "function"
    },
    {
      "inputs": [
        {
          "internalType": "uint256",
          "name": "_marketId",
          "type": "uint256"
        }
      ],
      "name": "viewMarket",
      "outputs": [
        {
          "internalType": "address",
          "name": "quoteToken",
          "type": "address"
        },
        {
          "internalType": "uint256",
          "name": "capacity",
          "type": "uint256"
        },
        {
          "internalType": "uint256",
          "name": "endSaleTime",
          "type": "uint256"
        },
        {
          "internalType": "uint256",
          "name": "maxPayout",
          "type": "uint256"
        },
        {
          "internalType": "uint256",
          "name": "tosPrice",
          "type": "uint256"
        },
        {
          "components": [
            {
              "internalType": "uint256",
              "name": "startTime",
              "type": "uint256"
            },
            {
              "internalType": "uint256",
              "name": "initialMaxPayout",
              "type": "uint256"
            },
            {
              "internalType": "uint256",
              "name": "capacityUpdatePeriod",
              "type": "uint256"
            },
            {
              "internalType": "uint256",
              "name": "totalSold",
              "type": "uint256"
            },
            {
              "internalType": "bool",
              "name": "availableBasicBond",
              "type": "bool"
            },
            {
              "internalType": "bool",
              "name": "availableStosBond",
              "type": "bool"
            },
            {
              "internalType": "bool",
              "name": "closed",
              "type": "bool"
            }
          ],
          "internalType": "struct LibBondDepositoryV1_1.CapacityInfo",
          "name": "capacityInfo",
          "type": "tuple"
        }
      ],
      "stateMutability": "view",
      "type": "function"
    }
  ],
  "bytecode": "0x608060405234801561001057600080fd5b50613dbf806100206000396000f3fe60806040526004361061027d5760003560e01c80638356ca4f1161014f578063b3de019c116100c1578063d547741f1161007a578063d547741f14610804578063e4cbc0b314610824578063f29310c114610844578063f47f2f1d14610857578063f98e422f14610877578063fad1c85c1461089757600080fd5b8063b3de019c1461074f578063b84ef0811461076f578063bd05f6241461078f578063be72f2d3146107af578063c3e58bb7146107c4578063ce3e39c0146107e457600080fd5b806399d667881161011357806399d66788146106395780639a202d471461066e5780639e8332cd14610683578063a217fddf146106a3578063b1283e77146106b8578063b1667adf1461071d57600080fd5b80638356ca4f1461059257806389f395de146105b25780638b140f6b146105d257806391d14854146105f957806396f1557c1461061957600080fd5b80634cf088d9116101f357806361d027b3116101ac57806361d027b3146104db57806365cb3a83146104fb5780637048027514610510578063708d5c151461053057806375829def1461055057806375b238fc1461057057600080fd5b80634cf088d9146104015780635b549182146104395780635b9907a4146104595780635fabdf7c1461047b5780635fabfedc1461049b5780635faf46bb146104bb57600080fd5b8063248a9ca311610245578063248a9ca31461033c57806324d7806c1461036c5780632b03913e1461038c5780632f2ff15d146103ac57806336568abe146103cc5780634c8df535146103ec57600080fd5b806301ffc9a7146102825780630aebeb4e146102b757806312fcee80146102d957806322985246146102fa578063232b956c1461031c575b600080fd5b34801561028e57600080fd5b506102a261029d36600461368b565b6108b7565b60405190151581526020015b60405180910390f35b3480156102c357600080fd5b506102d76102d2366004613648565b6108ee565b005b6102ec6102e73660046136ff565b610a34565b6040519081526020016102ae565b34801561030657600080fd5b506102ec600080516020613d6a83398151915281565b34801561032857600080fd5b506102ec610337366004613648565b610d59565b34801561034857600080fd5b506102ec610357366004613648565b60009081526008602052604090206001015490565b34801561037857600080fd5b506102a26103873660046135b7565b610d7a565b34801561039857600080fd5b506102ec6103a73660046135d1565b610d94565b3480156103b857600080fd5b506102d76103c7366004613660565b61137b565b3480156103d857600080fd5b506102d76103e7366004613660565b6113a6565b3480156103f857600080fd5b506006546102ec565b34801561040d57600080fd5b50600154610421906001600160a01b031681565b6040516001600160a01b0390911681526020016102ae565b34801561044557600080fd5b50600454610421906001600160a01b031681565b34801561046557600080fd5b5061046e611424565b6040516102ae91906138f0565b34801561048757600080fd5b506102d76104963660046135b7565b61147c565b3480156104a757600080fd5b506102d76104b63660046136ff565b6114bc565b3480156104c757600080fd5b506102a26104d6366004613648565b61162c565b3480156104e757600080fd5b50600254610421906001600160a01b031681565b34801561050757600080fd5b506102d761165f565b34801561051c57600080fd5b506102d761052b3660046135b7565b61169e565b34801561053c57600080fd5b506102d761054b3660046136ff565b6116db565b34801561055c57600080fd5b506102d761056b3660046135b7565b6117f6565b34801561057c57600080fd5b506102ec600080516020613d4a83398151915281565b34801561059e57600080fd5b506102d76105ad3660046135b7565b6118fd565b3480156105be57600080fd5b50600054610421906001600160a01b031681565b3480156105de57600080fd5b506105e76119db565b6040516102ae96959493929190613903565b34801561060557600080fd5b506102a2610614366004613660565b611f2e565b34801561062557600080fd5b506102d76106343660046135b7565b611f59565b34801561064557600080fd5b50610659610654366004613648565b611f89565b604080519283526020830191909152016102ae565b34801561067a57600080fd5b506102d761213e565b34801561068f57600080fd5b506102d761069e3660046136cb565b61218a565b3480156106af57600080fd5b506102ec600081565b3480156106c457600080fd5b5061070c6106d3366004613648565b600760205260009081526040902080546001820154600283015460038401546004909401546001600160a01b0390931693919290919085565b6040516102ae95949392919061387d565b34801561072957600080fd5b5061073d610738366004613648565b612382565b6040516102ae969594939291906138ab565b34801561075b57600080fd5b506102d761076a3660046136ff565b612475565b34801561077b57600080fd5b506102d761078a3660046135b7565b6125da565b34801561079b57600080fd5b506102ec6107aa3660046136ff565b612617565b3480156107bb57600080fd5b506102d761273a565b3480156107d057600080fd5b506102ec6107df3660046136ff565b61276a565b3480156107f057600080fd5b50600354610421906001600160a01b031681565b34801561081057600080fd5b506102d761081f366004613660565b6127c2565b34801561083057600080fd5b5061065961083f366004613648565b6127e8565b6102ec610852366004613720565b612966565b34801561086357600080fd5b506102a26108723660046135b7565b612d1e565b34801561088357600080fd5b50600554610421906001600160a01b031681565b3480156108a357600080fd5b506102a26108b23660046135b7565b612d2a565b60006001600160e01b03198216637965db0b60e01b14806108e857506301ffc9a760e01b6001600160e01b03198316145b92915050565b6108f733612d2a565b61091c5760405162461bcd60e51b815260040161091390613bac565b60405180910390fd5b6000818152600760205260409020600201546109695760405162461bcd60e51b815260206004820152600c60248201526b195b5c1d1e481b585c9ad95d60a21b6044820152606401610913565b6000818152600760205260409020600201544210806109975750600081815260076020526040902060010154155b6109d45760405162461bcd60e51b815260206004820152600e60248201526d185b1c9958591e4818db1bdcd95960921b6044820152606401610913565b6000818152600960205260409081902060048101805462ff000019166201000017905590517f065f36f0cc9a946e058a78fcf529ed8629c0ad3f6d065007c3c9162fd2c39d6390610a289084815260200190565b60405180910390a15050565b60008281526009602052604081205483904211610a635760405162461bcd60e51b815260040161091390613aa8565b60008181526009602052604090206004015462010000900460ff1615610a9b5760405162461bcd60e51b815260040161091390613b0a565b6000818152600760205260409020600201544210610acb5760405162461bcd60e51b815260040161091390613a71565b60008181526009602090815260408083206003015460079092529091206001015411610b095760405162461bcd60e51b815260040161091390613b31565b60008481526007602052604090205484906001600160a01b0316158015610b40575060008181526007602052604090206002015415155b610b8c5760405162461bcd60e51b815260206004820152601e60248201527f426f6e644465706f7369746f72793a206e6f7420455448206d61726b657400006044820152606401610913565b8380610baa5760405162461bcd60e51b815260040161091390613ad3565b843414610bc95760405162461bcd60e51b815260040161091390613b68565b60008681526009602052604090206004015460ff16610c2a5760405162461bcd60e51b815260206004820152601960248201527f756e617661696c61626c6520696e20626173696320626f6e64000000000000006044820152606401610913565b6000610c393387896000612d44565b60015460405163332b01f360e01b815233600482015260248101849052604481018b9052606481018390529297509092506000916001600160a01b039091169063332b01f390608401602060405180830381600087803b158015610c9c57600080fd5b505af1158015610cb0573d6000803e3d6000fd5b505050506040513d601f19601f82011682018060405250810190610cd491906136b3565b6002546040519192506001600160a01b0316903480156108fc02916000818181858888f19350505050158015610d0e573d6000803e3d6000fd5b507fe6842e3c66982eec53fbf127ab93e36198f7d048a044b2761abd0e131b3f84a43389838a8a604051610d4695949392919061387d565b60405180910390a1505050505092915050565b60068181548110610d6957600080fd5b600091825260209091200154905081565b60006108e8600080516020613d4a83398151915283611f2e565b6000610d9f33612d2a565b610dbb5760405162461bcd60e51b815260040161091390613bac565b863580610dda5760405162461bcd60e51b815260040161091390613ad3565b604088013580610dfc5760405162461bcd60e51b815260040161091390613ad3565b606089013580610e1e5760405162461bcd60e51b815260040161091390613ad3565b8880610e3c5760405162461bcd60e51b815260040161091390613ad3565b600088118015610e8457508760011480610e57575087610e10145b80610e63575087615460145b80610e6f57508761a8c0145b80610e845750610e826201518089613d09565b155b610ed05760405162461bcd60e51b815260206004820152601c60248201527f696e76616c6964206361706163697479557064617465506572696f64000000006044820152606401610913565b8680610ed95750855b610f415760405162461bcd60e51b815260206004820152603360248201527f626f74682066616c7365205f617661696c61626c654261736963426f6e6420266044820152720817d85d985a5b18589b1954dd1bdcd09bdb99606a1b6064820152608401610913565b68056bc75e2d631000008b3511610f9a5760405162461bcd60e51b815260206004820152601e60248201527f6e6565642074686520746f74616c53616c65416d6f756e74203e2031303000006044820152606401610913565b60208b01358a108015610fb057504260208c0135115b610ff25760405162461bcd60e51b8152602060048201526013602482015272696e76616c696420656e6453616c6554696d6560681b6044820152606401610913565b600160009054906101000a90046001600160a01b03166001600160a01b03166330e06e8b6040518163ffffffff1660e01b8152600401602060405180830381600087803b15801561104257600080fd5b505af1158015611056573d6000803e3d6000fd5b505050506040513d601f19601f8201168201806040525081019061107a91906136b3565b94506040518060a001604052808d6001600160a01b031681526020018c6000600481106110b757634e487b7160e01b600052603260045260246000fd5b602002013581526020018c6001600481106110e257634e487b7160e01b600052603260045260246000fd5b602002013581526020018c60036004811061110d57634e487b7160e01b600052603260045260246000fd5b602002013581526020018c60026004811061113857634e487b7160e01b600052603260045260246000fd5b60200201358152506007600087815260200190815260200160002060008201518160000160006101000a8154816001600160a01b0302191690836001600160a01b031602179055506020820151816001015560408201518160020155606082015181600301556080820151816004015590505060068590806001815401808255809150506001900390600052602060002001600090919091909150556040518060e001604052808b81526020018a8152602001898152602001600081526020018815158152602001871515815260200160001515815250600960008781526020019081526020016000206000820151816000015560208201518160010155604082015181600201556060820151816003015560808201518160040160006101000a81548160ff02191690831515021790555060a08201518160040160016101000a81548160ff02191690831515021790555060c08201518160040160026101000a81548160ff02191690831515021790555090505060006001600160a01b03168c6001600160a01b03161461132757600254604051639ea6498560e01b81526001600160a01b038e8116600483015290911690639ea6498590602401600060405180830381600087803b15801561130e57600080fd5b505af1158015611322573d6000803e3d6000fd5b505050505b7f6ef32463856d589b12c08be0cb53b4657cfb7ed7b19eab0eec955441662e8304858d8d8d8d8d8d8d604051611364989796959493929190613bf5565b60405180910390a150505050979650505050505050565b6000828152600860205260409020600101546113978133613236565b6113a1838361329a565b505050565b6001600160a01b03811633146114165760405162461bcd60e51b815260206004820152602f60248201527f416363657373436f6e74726f6c3a2063616e206f6e6c792072656e6f756e636560448201526e103937b632b9903337b91039b2b63360891b6064820152608401610913565b6114208282613320565b5050565b6060600680548060200260200160405190810160405280929190818152602001828054801561147257602002820191906000526020600020905b81548152602001906001019080831161145e575b5050505050905090565b61148533612d1e565b6114a15760405162461bcd60e51b815260040161091390613a29565b6114b9600080516020613d6a833981519152826127c2565b50565b6114c533612d2a565b6114e15760405162461bcd60e51b815260040161091390613bac565b600082815260096020526040902054829042116115105760405162461bcd60e51b815260040161091390613aa8565b60008181526009602052604090206004015462010000900460ff16156115485760405162461bcd60e51b815260040161091390613b0a565b60008181526007602052604090206002015442106115785760405162461bcd60e51b815260040161091390613a71565b600081815260096020908152604080832060030154600790925290912060010154116115b65760405162461bcd60e51b815260040161091390613b31565b81806115d45760405162461bcd60e51b815260040161091390613ad3565b600084815260076020908152604091829020600381018690558251878152918201869052917f13067d803552eac6ffd9ed0180e377884374b0ee53d2efa798e1c6d6974db44191015b60405180910390a15050505050565b600081815260076020526040812060020154421080156108e8575050600090815260076020526040902060010154151590565b61166833612d2a565b6116845760405162461bcd60e51b815260040161091390613bac565b61169c600080516020613d6a833981519152336113a6565b565b6116a733612d1e565b6116c35760405162461bcd60e51b815260040161091390613a29565b6114b9600080516020613d4a8339815191528261137b565b6116e433612d2a565b6117005760405162461bcd60e51b815260040161091390613bac565b60008281526007602052604090206003015482906117605760405162461bcd60e51b815260206004820181905260248201527f426f6e644465706f7369746f72793a206e6f6e2d6578697374206d61726b65746044820152606401610913565b4282116117a05760405162461bcd60e51b815260206004820152600e60248201526d7061737420636c6f736554696d6560901b6044820152606401610913565b600083815260076020908152604091829020600281018590558251868152918201859052917fc3daa84eedfacd6851bbf80d00ce11271bf926ac96c3d361c0307023c939d4b3910160405180910390a150505050565b6117ff33610d7a565b8061180e575061180e33612d1e565b61182a5760405162461bcd60e51b8152600401610913906139e7565b6001600160a01b03811661187b5760405162461bcd60e51b815260206004820152601860248201527741636365737369626c653a207a65726f206164647265737360401b6044820152606401610913565b336001600160a01b03821614156118cd5760405162461bcd60e51b815260206004820152601660248201527520b1b1b2b9b9b4b136329d1039b0b6b29030b236b4b760511b6044820152606401610913565b6118e5600080516020613d4a8339815191528261137b565b6114b9600080516020613d4a833981519152336113a6565b61190633612d1e565b6119225760405162461bcd60e51b815260040161091390613a29565b6001600160a01b0381166119735760405162461bcd60e51b815260206004820152601860248201527741636365737369626c653a207a65726f206164647265737360401b6044820152606401610913565b336001600160a01b03821614156119c55760405162461bcd60e51b815260206004820152601660248201527520b1b1b2b9b9b4b136329d1039b0b6b29030b236b4b760511b6044820152606401610913565b6119d060008261137b565b6114b96000336113a6565b6060806060806060806000600680549050905060008167ffffffffffffffff811115611a1757634e487b7160e01b600052604160045260246000fd5b604051908082528060200260200182016040528015611a40578160200160208202803683370190505b50905060008267ffffffffffffffff811115611a6c57634e487b7160e01b600052604160045260246000fd5b604051908082528060200260200182016040528015611a95578160200160208202803683370190505b50905060008367ffffffffffffffff811115611ac157634e487b7160e01b600052604160045260246000fd5b604051908082528060200260200182016040528015611aea578160200160208202803683370190505b50905060008467ffffffffffffffff811115611b1657634e487b7160e01b600052604160045260246000fd5b604051908082528060200260200182016040528015611b3f578160200160208202803683370190505b50905060008567ffffffffffffffff811115611b6b57634e487b7160e01b600052604160045260246000fd5b604051908082528060200260200182016040528015611b94578160200160208202803683370190505b50905060008667ffffffffffffffff811115611bc057634e487b7160e01b600052604160045260246000fd5b604051908082528060200260200182016040528015611c3757816020015b611c246040518060e00160405280600081526020016000815260200160008152602001600081526020016000151581526020016000151581526020016000151581525090565b815260200190600190039081611bde5790505b50905060005b87811015611f195760068181548110611c6657634e487b7160e01b600052603260045260246000fd5b9060005260206000200154878281518110611c9157634e487b7160e01b600052603260045260246000fd5b60200260200101818152505060076000888381518110611cc157634e487b7160e01b600052603260045260246000fd5b6020026020010151815260200190815260200160002060000160009054906101000a90046001600160a01b0316868281518110611d0e57634e487b7160e01b600052603260045260246000fd5b60200260200101906001600160a01b031690816001600160a01b03168152505060076000888381518110611d5257634e487b7160e01b600052603260045260246000fd5b6020026020010151815260200190815260200160002060010154858281518110611d8c57634e487b7160e01b600052603260045260246000fd5b60200260200101818152505060076000888381518110611dbc57634e487b7160e01b600052603260045260246000fd5b6020026020010151815260200190815260200160002060020154848281518110611df657634e487b7160e01b600052603260045260246000fd5b60200260200101818152505060076000888381518110611e2657634e487b7160e01b600052603260045260246000fd5b6020026020010151815260200190815260200160002060040154838281518110611e6057634e487b7160e01b600052603260045260246000fd5b602090810291909101810191909152600082815260098252604090819020815160e08101835281548152600182015493810193909352600281015491830191909152600381015460608301526004015460ff8082161515608084015261010082048116151560a08401526201000090910416151560c08201528251839083908110611efb57634e487b7160e01b600052603260045260246000fd5b60200260200101819052508080611f1190613cee565b915050611c3d565b50949c939b5091995097509550909350915050565b60009182526008602090815260408084206001600160a01b0393909316845291905290205460ff1690565b611f6233612d1e565b611f7e5760405162461bcd60e51b815260040161091390613a29565b6114b9600082613387565b6000818152600960209081526040808320815160e0810183528154808252600183015494820194909452600282015492810192909252600381015460608301526004015460ff8082161515608084015261010082048116151560a08401526201000090910416151560c082015282911561213857600084815260076020908152604091829020825160a08101845281546001600160a01b03168152600182015492810192909252600281015492820183905260038101546060830152600401546080820152825190911115612136578151604082015160009161206b91613c90565b905082604001518161207d9190613c5d565b9450600183604001511180156120a2575060008360400151826120a09190613d09565b115b156120b557846120b181613cee565b9550505b8251421180156120c85750816040015142105b1561213457604083015183516120de9042613c90565b6120e89190613c5d565b604084015184519195506000916120ff9042613c90565b6121099190613d09565b90506001846040015111801561211f5750600081115b15612132578461212e81613cee565b9550505b505b505b505b50915091565b61214733610d7a565b80612156575061215633612d1e565b6121725760405162461bcd60e51b8152600401610913906139e7565b61169c600080516020613d4a833981519152336113a6565b61219333612d2a565b6121af5760405162461bcd60e51b815260040161091390613bac565b80806121cd5760405162461bcd60e51b815260040161091390613ad3565b600084815260076020526040902060030154849061222d5760405162461bcd60e51b815260206004820181905260248201527f426f6e644465706f7369746f72793a206e6f6e2d6578697374206d61726b65746044820152606401610913565b60008581526007602090815260408083206009909252909120851561226b57848260010160008282546122609190613c45565b909155506122c69050565b8060030154826001015461227f9190613c90565b851161229957848260010160008282546122609190613c90565b806003015482600101546122ad9190613c90565b8260010160008282546122c09190613c90565b90915550505b68056bc75e2d63100000816003015483600101546122e49190613c90565b116123375760048101805462ff00001916620100001790556040517f065f36f0cc9a946e058a78fcf529ed8629c0ad3f6d065007c3c9162fd2c39d639061232e9089815260200190565b60405180910390a15b6040805188815287151560208201529081018690527f5e6b6b7fc7d8fb3137611da2ee2b2529d67d6d9e3ae513c9431123de9aa8b88e9060600160405180910390a150505050505050565b60008060008060006123d06040518060e00160405280600081526020016000815260200160008152602001600081526020016000151581526020016000151581526020016000151581525090565b50505060009384525050600760209081526040808420805460018083015460028085015460038087015460049788015460098b529b899020895160e081018b5281548152968101549a87019a909a529289015497850197909752958701546060840152959093015460ff8082161515608084015261010082048116151560a08401526201000090910416151560c08201526001600160a01b0390911696919592945090565b61247e33612d2a565b61249a5760405162461bcd60e51b815260040161091390613bac565b600082815260096020526040902054829042116124c95760405162461bcd60e51b815260040161091390613aa8565b60008181526009602052604090206004015462010000900460ff16156125015760405162461bcd60e51b815260040161091390613b0a565b60008181526007602052604090206002015442106125315760405162461bcd60e51b815260040161091390613a71565b6000818152600960209081526040808320600301546007909252909120600101541161256f5760405162461bcd60e51b815260040161091390613b31565b818061258d5760405162461bcd60e51b815260040161091390613ad3565b600084815260076020908152604091829020600481018690558251878152918201869052917f8d41eafd4a0911818359bda81daed68115ba0312f42a7098075150da886cd0a4910161161d565b6125e333612d1e565b6125ff5760405162461bcd60e51b815260040161091390613a29565b6114b9600080516020613d6a8339815191528261137b565b6000828152600760209081526040808320815160a0808201845282546001600160a01b0316825260018084015483870152600280850154848701526003808601546060808701919091526004968701546080808801919091528c8b5260098a52888b20895160e081018b5281548152958101549a86019a909a52928901549784019790975287015495820195909552949092015460ff8082161515948601949094526101008104841615159285019290925262010000909104909116151560c083015290836126ec5781606001519250612732565b609c8411156126fa57609c93505b609b612707600186613c90565b83606001516127169190613c71565b6127209190613c5d565b816020015161272f9190613c45565b92505b505092915050565b61274333612d1e565b61275f5760405162461bcd60e51b815260040161091390613a29565b61169c6000336113a6565b60008281526009602052604081205442118015612797575060008381526007602052604090206002015442105b156108e85760006127a7846127e8565b91505060006127b68585612617565b905061272f8282613391565b6000828152600860205260409020600101546127de8133613236565b6113a18383613320565b6000806000806127f785611f89565b915091506000600760008781526020019081526020016000206040518060a00160405290816000820160009054906101000a90046001600160a01b03166001600160a01b03166001600160a01b0316815260200160018201548152602001600282015481526020016003820154815260200160048201548152505090506000600960008881526020019081526020016000206040518060e0016040529081600082015481526020016001820154815260200160028201548152602001600382015481526020016004820160009054906101000a900460ff161515151581526020016004820160019054906101000a900460ff161515151581526020016004820160029054906101000a900460ff1615151515815250509050600084111561292b578382602001516129289190613c5d565b95505b8215612132578060600151848484602001516129479190613c71565b6129519190613c5d565b61295b9190613c90565b945050505050915091565b600083815260096020526040812054849042116129955760405162461bcd60e51b815260040161091390613aa8565b60008181526009602052604090206004015462010000900460ff16156129cd5760405162461bcd60e51b815260040161091390613b0a565b60008181526007602052604090206002015442106129fd5760405162461bcd60e51b815260040161091390613a71565b60008181526009602090815260408083206003015460079092529091206001015411612a3b5760405162461bcd60e51b815260040161091390613b31565b60008581526007602052604090205485906001600160a01b0316158015612a72575060008181526007602052604090206002015415155b612abe5760405162461bcd60e51b815260206004820152601e60248201527f426f6e644465706f7369746f72793a206e6f7420455448206d61726b657400006044820152606401610913565b8480612adc5760405162461bcd60e51b815260040161091390613ad3565b8480612afa5760405162461bcd60e51b815260040161091390613ad3565b863414612b195760405162461bcd60e51b815260040161091390613b68565b600088815260096020526040902060040154610100900460ff16612b7f5760405162461bcd60e51b815260206004820152601a60248201527f756e617661696c61626c6520696e206c6f636b757020626f6e640000000000006044820152606401610913565b60018611612bdf5760405162461bcd60e51b815260206004820152602760248201527f5f6c6f636b5765656b73206d7573742062652067726561746572207468616e2060448201526618903bb2b2b59760c91b6064820152608401610913565b6000612bed33898b8a612d44565b60015460405163980b109760e01b81529298509092506000916001600160a01b039091169063980b109790612c2e9033908b908f908e90899060040161387d565b602060405180830381600087803b158015612c4857600080fd5b505af1158015612c5c573d6000803e3d6000fd5b505050506040513d601f19601f82011682018060405250810190612c8091906136b3565b6002546040519192506001600160a01b0316903480156108fc02916000818181858888f19350505050158015612cba573d6000803e3d6000fd5b5060408051338152602081018c9052908101829052606081018a90526080810189905260a081018890527fd04d64d5a1460d8c5a8c5ffb4d6ddb0f4e5cf774c894a27c5bb73c4fc41698809060c00160405180910390a15050505050509392505050565b60006108e88183611f2e565b60006108e8600080516020613d6a83398151915283611f2e565b600080600560149054906101000a900460ff161515600115151415612dab5760405162461bcd60e51b815260206004820152601f60248201527f5265656e7472616e637947756172643a207265656e7472616e742063616c6c006044820152606401610913565b506005805460ff60a01b1916600160a01b179055600083815260076020908152604091829020825160a08101845281546001600160a01b031681526001820154928101929092526002810154828401526003810154606083015260049081015460808301819052925163519cf73960e11b8152908101839052602481018790526012604482015273__$4d923e520bb3d76171e9f0ef8a628d91a4$__9063a339ee729060640160206040518083038186803b158015612e6957600080fd5b505af4158015612e7d573d6000803e3d6000fd5b505050506040513d601f19601f82011682018060405250810190612ea191906136b3565b925060008311612ee95760405162461bcd60e51b81526020600482015260136024820152721e995c9bc81cdd185ada5b99c8185b5bdd5b9d606a1b6044820152606401610913565b612ef3858561276a565b831115612f425760405162461bcd60e51b815260206004820152601b60248201527f6578636565642063757272656e7443617061636974794c696d697400000000006044820152606401610913565b6000670de0b6b3a7640000600260009054906101000a90046001600160a01b03166001600160a01b03166396f0bd616040518163ffffffff1660e01b815260040160206040518083038186803b158015612f9b57600080fd5b505afa158015612faf573d6000803e3d6000fd5b505050506040513d601f19601f82011682018060405250810190612fd391906136b3565b612fdd9089613c71565b612fe79190613c5d565b90508381101561304d5760405162461bcd60e51b815260206004820152602b60248201527f6d696e7461626c65416d6f756e74206973206c657373207468616e207374616b60448201526a34b7339030b6b7bab73a1760a91b6064820152608401610913565b600086815260096020908152604090912060030154908301516130709190613c90565b8411156130b65760405162461bcd60e51b815260206004820152601460248201527311195c1bdcda5d1bdc9e4e881cdbdb19081bdd5d60621b6044820152606401610913565b6000868152600960205260408120600381018054919287926130d9908490613c45565b90915550506003810154602084015168056bc75e2d63100000916130fc91613c90565b1161314f5760048101805462ff00001916620100001790556040517f065f36f0cc9a946e058a78fcf529ed8629c0ad3f6d065007c3c9162fd2c39d63906131469089815260200190565b60405180910390a15b60025460405163ef7c6c0f60e01b81526004810184905260248101879052600160448201526001600160a01b039091169063ef7c6c0f90606401600060405180830381600087803b1580156131a357600080fd5b505af11580156131b7573d6000803e3d6000fd5b5050604080516001600160a01b038d168152602081018b90529081018b9052606081018890526001608082015260a081018590527fef81711614d4ac7faee84826311bec7d949a272a2e7e4f39f3a3b72527767d69925060c001905060405180910390a150506005805460ff60a01b1916905550909590945092505050565b6132408282611f2e565b61142057613258816001600160a01b031660146133a9565b6132638360206133a9565b604051602001613274929190613808565b60408051601f198184030181529082905262461bcd60e51b8252610913916004016139b4565b6132a48282611f2e565b6114205760008281526008602090815260408083206001600160a01b03851684529091529020805460ff191660011790556132dc3390565b6001600160a01b0316816001600160a01b0316837f2f8788117e7eff1d82e926ec794901d17c78024a50270940304540a733656f0d60405160405180910390a45050565b61332a8282611f2e565b156114205760008281526008602090815260408083206001600160a01b0385168085529252808320805460ff1916905551339285917ff6391f5c32d9c69d2a47ea670b442974b53935d1edc7fd64eb21e047a839171b9190a45050565b611420828261329a565b60008183106133a057816133a2565b825b9392505050565b606060006133b8836002613c71565b6133c3906002613c45565b67ffffffffffffffff8111156133e957634e487b7160e01b600052604160045260246000fd5b6040519080825280601f01601f191660200182016040528015613413576020820181803683370190505b509050600360fc1b8160008151811061343c57634e487b7160e01b600052603260045260246000fd5b60200101906001600160f81b031916908160001a905350600f60fb1b8160018151811061347957634e487b7160e01b600052603260045260246000fd5b60200101906001600160f81b031916908160001a905350600061349d846002613c71565b6134a8906001613c45565b90505b600181111561353c576f181899199a1a9b1b9c1cb0b131b232b360811b85600f16601081106134ea57634e487b7160e01b600052603260045260246000fd5b1a60f81b82828151811061350e57634e487b7160e01b600052603260045260246000fd5b60200101906001600160f81b031916908160001a90535060049490941c9361353581613cd7565b90506134ab565b5083156133a25760405162461bcd60e51b815260206004820181905260248201527f537472696e67733a20686578206c656e67746820696e73756666696369656e746044820152606401610913565b80356001600160a01b03811681146135a257600080fd5b919050565b803580151581146135a257600080fd5b6000602082840312156135c8578081fd5b6133a28261358b565b6000806000806000806000610140888a0312156135ec578283fd5b6135f58861358b565b965060a0880189811115613607578384fd5b60208901965035945060c0880135935060e0880135925061362b61010089016135a7565b915061363a61012089016135a7565b905092959891949750929550565b600060208284031215613659578081fd5b5035919050565b60008060408385031215613672578182fd5b823591506136826020840161358b565b90509250929050565b60006020828403121561369c578081fd5b81356001600160e01b0319811681146133a2578182fd5b6000602082840312156136c4578081fd5b5051919050565b6000806000606084860312156136df578283fd5b833592506136ef602085016135a7565b9150604084013590509250925092565b60008060408385031215613711578182fd5b50508035926020909101359150565b600080600060608486031215613734578283fd5b505081359360208301359350604090920135919050565b6000815180845260208085019450808401835b83811015613784576137718783516137be565b60e096909601959082019060010161375e565b509495945050505050565b6000815180845260208085019450808401835b83811015613784578151875295820195908201906001016137a2565b8051825260208101516020830152604081015160408301526060810151606083015260808101511515608083015260a0810151151560a083015260c0810151151560c08301525050565b7f416363657373436f6e74726f6c3a206163636f756e7420000000000000000000815260008351613840816017850160208801613ca7565b7001034b99036b4b9b9b4b733903937b6329607d1b6017918401918201528351613871816028840160208801613ca7565b01602801949350505050565b6001600160a01b03959095168552602085019390935260408401919091526060830152608082015260a00190565b6001600160a01b03871681526020810186905260408101859052606081018490526080810183905261018081016138e560a08301846137be565b979650505050505050565b6020815260006133a2602083018461378f565b60c08152600061391660c083018961378f565b828103602084810191909152885180835289820192820190845b818110156139555784516001600160a01b031683529383019391830191600101613930565b50508481036040860152613969818a61378f565b92505050828103606084015261397f818761378f565b90508281036080840152613993818661378f565b905082810360a08401526139a7818561374b565b9998505050505050505050565b60208152600082518060208401526139d3816040850160208701613ca7565b601f01601f19169190910160400192915050565b60208082526022908201527f41636365737369626c653a2043616c6c6572206973206e6f7420616e2061646d60408201526134b760f11b606082015260800190565b60208082526028908201527f41636365737369626c653a2043616c6c6572206973206e6f7420616e2070726f6040820152673c3c9030b236b4b760c11b606082015260800190565b6020808252601d908201527f426f6e644465706f7369746f72793a20636c6f736564206d61726b6574000000604082015260600190565b6020808252601190820152701b9bc81cdd185c9d081d1a5b59481e595d607a1b604082015260600190565b60208082526019908201527f426f6e644465706f7369746f72793a207a65726f2075696e7400000000000000604082015260600190565b6020808252600d908201526c18db1bdcd959081b585c9ad95d609a1b604082015260600190565b6020808252601d908201527f426f6e644465706f7369746f72793a207a65726f206361706163697479000000604082015260600190565b60208082526024908201527f4465706f7369746f72793a2045544820616d6f756e747320646f206e6f74206d6040820152630c2e8c6d60e31b606082015260800190565b60208082526029908201527f41636365737369626c653a2043616c6c6572206973206e6f7420616e20706f6c60408201526834b1bc9030b236b4b760b91b606082015260800190565b8881526001600160a01b03881660208201526101608101608088604084013760c082019690965260e081019490945261010084019290925215156101208301521515610140909101529392505050565b60008219821115613c5857613c58613d1d565b500190565b600082613c6c57613c6c613d33565b500490565b6000816000190483118215151615613c8b57613c8b613d1d565b500290565b600082821015613ca257613ca2613d1d565b500390565b60005b83811015613cc2578181015183820152602001613caa565b83811115613cd1576000848401525b50505050565b600081613ce657613ce6613d1d565b506000190190565b6000600019821415613d0257613d02613d1d565b5060010190565b600082613d1857613d18613d33565b500690565b634e487b7160e01b600052601160045260246000fd5b634e487b7160e01b600052601260045260246000fdfedf8b4c520ffe197c5343c6f5aec59570151ef9a492f2c624fd45ddde6135ec42fb5864e8ff833c3cb2d2d08505e82ff02a43554c74a35d4f5a64e85261278311a264697066735822122010c56e2e23d2731766e203a93156282533d4ebd17e6a0920a4f1715079f36bc764736f6c63430008040033",
  "linkReferences": {
    "contracts/libraries/LibBondDepositoryV1_1.sol": {
      "LibBondDepositoryV1_1": [
        {
          "length": 20,
          "start": 11860
        }
      ]
    }
  },
  "deployedLinkReferences": {
    "contracts/libraries/LibBondDepositoryV1_1.sol": {
      "LibBondDepositoryV1_1": [
        {
          "length": 20,
          "start": 11828
        }
      ]
    }
  }
}