{
  "_format": "hh-sol-artifact-1",
  "contractName": "BondDepository",
  "sourceName": "contracts/BondDepository.sol",
  "abi": [
    {
      "inputs": [],
      "stateMutability": "nonpayable",
      "type": "constructor"
    },
    {
      "anonymous": false,
      "inputs": [
        {
          "indexed": false,
          "internalType": "uint256",
          "name": "_marketId",
          "type": "uint256"
        },
        {
          "indexed": false,
          "internalType": "uint256",
          "name": "closeTime",
          "type": "uint256"
        }
      ],
      "name": "ChangedCloseTime",
      "type": "event"
    },
    {
      "anonymous": false,
      "inputs": [
        {
          "indexed": false,
          "internalType": "uint256",
          "name": "_marketId",
          "type": "uint256"
        },
        {
          "indexed": false,
          "internalType": "uint256",
          "name": "_amount",
          "type": "uint256"
        }
      ],
      "name": "ChangedMaxPayout",
      "type": "event"
    },
    {
      "anonymous": false,
      "inputs": [
        {
          "indexed": false,
          "internalType": "uint256",
          "name": "_marketId",
          "type": "uint256"
        },
        {
          "indexed": false,
          "internalType": "uint256",
          "name": "_tokenPrice",
          "type": "uint256"
        },
        {
          "indexed": false,
          "internalType": "uint256",
          "name": "_tosPrice",
          "type": "uint256"
        }
      ],
      "name": "ChangedPrice",
      "type": "event"
    },
    {
      "anonymous": false,
      "inputs": [
        {
          "indexed": false,
          "internalType": "uint256",
          "name": "marketId",
          "type": "uint256"
        }
      ],
      "name": "ClosedMarket",
      "type": "event"
    },
    {
      "anonymous": false,
      "inputs": [
        {
          "indexed": false,
          "internalType": "uint256",
          "name": "marketId",
          "type": "uint256"
        },
        {
          "indexed": false,
          "internalType": "bool",
          "name": "isEth",
          "type": "bool"
        },
        {
          "indexed": false,
          "internalType": "address",
          "name": "token",
          "type": "address"
        },
        {
          "indexed": false,
          "internalType": "address",
          "name": "pool",
          "type": "address"
        },
        {
          "indexed": false,
          "internalType": "uint24",
          "name": "fee",
          "type": "uint24"
        },
        {
          "indexed": false,
          "internalType": "uint256[5]",
          "name": "market",
          "type": "uint256[5]"
        }
      ],
      "name": "CreatedMarket",
      "type": "event"
    },
    {
      "anonymous": false,
      "inputs": [
        {
          "indexed": false,
          "internalType": "uint256",
          "name": "_marketId",
          "type": "uint256"
        },
        {
          "indexed": false,
          "internalType": "uint256",
          "name": "_amount",
          "type": "uint256"
        }
      ],
      "name": "DecreasedCapacity",
      "type": "event"
    },
    {
      "anonymous": false,
      "inputs": [
        {
          "indexed": false,
          "internalType": "address",
          "name": "user",
          "type": "address"
        },
        {
          "indexed": false,
          "internalType": "uint256",
          "name": "marketId",
          "type": "uint256"
        },
        {
          "indexed": false,
          "internalType": "uint256",
          "name": "amount",
          "type": "uint256"
        },
        {
          "indexed": false,
          "internalType": "uint256",
          "name": "payout",
          "type": "uint256"
        },
        {
          "indexed": false,
          "internalType": "bool",
          "name": "isEth",
          "type": "bool"
        },
        {
          "indexed": false,
          "internalType": "uint256",
          "name": "mintAmount",
          "type": "uint256"
        }
      ],
      "name": "Deposited",
      "type": "event"
    },
    {
      "anonymous": false,
      "inputs": [
        {
          "indexed": false,
          "internalType": "address",
          "name": "user",
          "type": "address"
        },
        {
          "indexed": false,
          "internalType": "uint256",
          "name": "marketId",
          "type": "uint256"
        },
        {
          "indexed": false,
          "internalType": "uint256",
          "name": "stakeId",
          "type": "uint256"
        },
        {
          "indexed": false,
          "internalType": "address",
          "name": "token",
          "type": "address"
        },
        {
          "indexed": false,
          "internalType": "uint256",
          "name": "amount",
          "type": "uint256"
        },
        {
          "indexed": false,
          "internalType": "uint256",
          "name": "tosValuation",
          "type": "uint256"
        }
      ],
      "name": "ERC20Deposited",
      "type": "event"
    },
    {
      "anonymous": false,
      "inputs": [
        {
          "indexed": false,
          "internalType": "address",
          "name": "user",
          "type": "address"
        },
        {
          "indexed": false,
          "internalType": "uint256",
          "name": "marketId",
          "type": "uint256"
        },
        {
          "indexed": false,
          "internalType": "uint256",
          "name": "stakeId",
          "type": "uint256"
        },
        {
          "indexed": false,
          "internalType": "address",
          "name": "token",
          "type": "address"
        },
        {
          "indexed": false,
          "internalType": "uint256",
          "name": "amount",
          "type": "uint256"
        },
        {
          "indexed": false,
          "internalType": "uint256",
          "name": "lockWeeks",
          "type": "uint256"
        },
        {
          "indexed": false,
          "internalType": "uint256",
          "name": "tosValuation",
          "type": "uint256"
        }
      ],
      "name": "ERC20DepositedWithSTOS",
      "type": "event"
    },
    {
      "anonymous": false,
      "inputs": [
        {
          "indexed": false,
          "internalType": "address",
          "name": "user",
          "type": "address"
        },
        {
          "indexed": false,
          "internalType": "uint256",
          "name": "marketId",
          "type": "uint256"
        },
        {
          "indexed": false,
          "internalType": "uint256",
          "name": "stakeId",
          "type": "uint256"
        },
        {
          "indexed": false,
          "internalType": "uint256",
          "name": "amount",
          "type": "uint256"
        },
        {
          "indexed": false,
          "internalType": "uint256",
          "name": "tosValuation",
          "type": "uint256"
        }
      ],
      "name": "ETHDeposited",
      "type": "event"
    },
    {
      "anonymous": false,
      "inputs": [
        {
          "indexed": false,
          "internalType": "address",
          "name": "user",
          "type": "address"
        },
        {
          "indexed": false,
          "internalType": "uint256",
          "name": "marketId",
          "type": "uint256"
        },
        {
          "indexed": false,
          "internalType": "uint256",
          "name": "stakeId",
          "type": "uint256"
        },
        {
          "indexed": false,
          "internalType": "uint256",
          "name": "amount",
          "type": "uint256"
        },
        {
          "indexed": false,
          "internalType": "uint256",
          "name": "lockWeeks",
          "type": "uint256"
        },
        {
          "indexed": false,
          "internalType": "uint256",
          "name": "tosValuation",
          "type": "uint256"
        }
      ],
      "name": "ETHDepositedWithSTOS",
      "type": "event"
    },
    {
      "anonymous": false,
      "inputs": [
        {
          "indexed": false,
          "internalType": "uint256",
          "name": "_marketId",
          "type": "uint256"
        },
        {
          "indexed": false,
          "internalType": "uint256",
          "name": "_amount",
          "type": "uint256"
        }
      ],
      "name": "IncreasedCapacity",
      "type": "event"
    },
    {
      "anonymous": false,
      "inputs": [
        {
          "indexed": true,
          "internalType": "bytes32",
          "name": "role",
          "type": "bytes32"
        },
        {
          "indexed": true,
          "internalType": "bytes32",
          "name": "previousAdminRole",
          "type": "bytes32"
        },
        {
          "indexed": true,
          "internalType": "bytes32",
          "name": "newAdminRole",
          "type": "bytes32"
        }
      ],
      "name": "RoleAdminChanged",
      "type": "event"
    },
    {
      "anonymous": false,
      "inputs": [
        {
          "indexed": true,
          "internalType": "bytes32",
          "name": "role",
          "type": "bytes32"
        },
        {
          "indexed": true,
          "internalType": "address",
          "name": "account",
          "type": "address"
        },
        {
          "indexed": true,
          "internalType": "address",
          "name": "sender",
          "type": "address"
        }
      ],
      "name": "RoleGranted",
      "type": "event"
    },
    {
      "anonymous": false,
      "inputs": [
        {
          "indexed": true,
          "internalType": "bytes32",
          "name": "role",
          "type": "bytes32"
        },
        {
          "indexed": true,
          "internalType": "address",
          "name": "account",
          "type": "address"
        },
        {
          "indexed": true,
          "internalType": "address",
          "name": "sender",
          "type": "address"
        }
      ],
      "name": "RoleRevoked",
      "type": "event"
    },
    {
      "inputs": [],
      "name": "ADMIN_ROLE",
      "outputs": [
        {
          "internalType": "bytes32",
          "name": "",
          "type": "bytes32"
        }
      ],
      "stateMutability": "view",
      "type": "function"
    },
    {
      "inputs": [],
      "name": "BURNER_ROLE",
      "outputs": [
        {
          "internalType": "bytes32",
          "name": "",
          "type": "bytes32"
        }
      ],
      "stateMutability": "view",
      "type": "function"
    },
    {
      "inputs": [],
      "name": "DEFAULT_ADMIN_ROLE",
      "outputs": [
        {
          "internalType": "bytes32",
          "name": "",
          "type": "bytes32"
        }
      ],
      "stateMutability": "view",
      "type": "function"
    },
    {
      "inputs": [
        {
          "internalType": "uint256",
          "name": "_id",
          "type": "uint256"
        },
        {
          "internalType": "uint256",
          "name": "_amount",
          "type": "uint256"
        }
      ],
      "name": "ETHDeposit",
      "outputs": [
        {
          "internalType": "uint256",
          "name": "payout_",
          "type": "uint256"
        },
        {
          "internalType": "uint256",
          "name": "index_",
          "type": "uint256"
        }
      ],
      "stateMutability": "payable",
      "type": "function"
    },
    {
      "inputs": [
        {
          "internalType": "uint256",
          "name": "_id",
          "type": "uint256"
        },
        {
          "internalType": "uint256",
          "name": "_amount",
          "type": "uint256"
        },
        {
          "internalType": "uint256",
          "name": "_lockWeeks",
          "type": "uint256"
        }
      ],
      "name": "ETHDepositWithSTOS",
      "outputs": [
        {
          "internalType": "uint256",
          "name": "payout_",
          "type": "uint256"
        },
        {
          "internalType": "uint256",
          "name": "index_",
          "type": "uint256"
        }
      ],
      "stateMutability": "payable",
      "type": "function"
    },
    {
      "inputs": [],
      "name": "MINTER_ROLE",
      "outputs": [
        {
          "internalType": "bytes32",
          "name": "",
          "type": "bytes32"
        }
      ],
      "stateMutability": "view",
      "type": "function"
    },
    {
      "inputs": [],
      "name": "POLICY_ROLE",
      "outputs": [
        {
          "internalType": "bytes32",
          "name": "",
          "type": "bytes32"
        }
      ],
      "stateMutability": "view",
      "type": "function"
    },
    {
      "inputs": [],
      "name": "PROJECT_ADMIN_ROLE",
      "outputs": [
        {
          "internalType": "bytes32",
          "name": "",
          "type": "bytes32"
        }
      ],
      "stateMutability": "view",
      "type": "function"
    },
    {
      "inputs": [
        {
          "internalType": "address",
          "name": "account",
          "type": "address"
        }
      ],
      "name": "addAdmin",
      "outputs": [],
      "stateMutability": "nonpayable",
      "type": "function"
    },
    {
      "inputs": [
        {
          "internalType": "address",
          "name": "_account",
          "type": "address"
        }
      ],
      "name": "addPolicy",
      "outputs": [],
      "stateMutability": "nonpayable",
      "type": "function"
    },
    {
      "inputs": [
        {
          "internalType": "address",
          "name": "_owner",
          "type": "address"
        }
      ],
      "name": "addProxyAdmin",
      "outputs": [],
      "stateMutability": "nonpayable",
      "type": "function"
    },
    {
      "inputs": [
        {
          "internalType": "uint256",
          "name": "_id",
          "type": "uint256"
        },
        {
          "internalType": "uint256",
          "name": "_amount",
          "type": "uint256"
        }
      ],
      "name": "calculateTosAmountForAsset",
      "outputs": [
        {
          "internalType": "uint256",
          "name": "payout",
          "type": "uint256"
        }
      ],
      "stateMutability": "view",
      "type": "function"
    },
    {
      "inputs": [],
      "name": "calculator",
      "outputs": [
        {
          "internalType": "address",
          "name": "",
          "type": "address"
        }
      ],
      "stateMutability": "view",
      "type": "function"
    },
    {
      "inputs": [
        {
          "internalType": "uint256",
          "name": "_marketId",
          "type": "uint256"
        },
        {
          "internalType": "uint256",
          "name": "closeTime",
          "type": "uint256"
        }
      ],
      "name": "changeCloseTime",
      "outputs": [],
      "stateMutability": "nonpayable",
      "type": "function"
    },
    {
      "inputs": [
        {
          "internalType": "uint256",
          "name": "_marketId",
          "type": "uint256"
        },
        {
          "internalType": "uint256",
          "name": "_amount",
          "type": "uint256"
        }
      ],
      "name": "changeMaxPayout",
      "outputs": [],
      "stateMutability": "nonpayable",
      "type": "function"
    },
    {
      "inputs": [
        {
          "internalType": "uint256",
          "name": "_marketId",
          "type": "uint256"
        },
        {
          "internalType": "uint256",
          "name": "_tokenPrice",
          "type": "uint256"
        },
        {
          "internalType": "uint256",
          "name": "_tosPrice",
          "type": "uint256"
        }
      ],
      "name": "changePrice",
      "outputs": [],
      "stateMutability": "nonpayable",
      "type": "function"
    },
    {
      "inputs": [
        {
          "internalType": "uint256",
          "name": "_id",
          "type": "uint256"
        }
      ],
      "name": "close",
      "outputs": [],
      "stateMutability": "nonpayable",
      "type": "function"
    },
    {
      "inputs": [
        {
          "internalType": "bool",
          "name": "_check",
          "type": "bool"
        },
        {
          "internalType": "address",
          "name": "_token",
          "type": "address"
        },
        {
          "internalType": "address",
          "name": "_poolAddress",
          "type": "address"
        },
        {
          "internalType": "uint24",
          "name": "_fee",
          "type": "uint24"
        },
        {
          "internalType": "uint256[5]",
          "name": "_market",
          "type": "uint256[5]"
        }
      ],
      "name": "create",
      "outputs": [
        {
          "internalType": "uint256",
          "name": "id_",
          "type": "uint256"
        }
      ],
      "stateMutability": "nonpayable",
      "type": "function"
    },
    {
      "inputs": [],
      "name": "dTOS",
      "outputs": [
        {
          "internalType": "address",
          "name": "",
          "type": "address"
        }
      ],
      "stateMutability": "view",
      "type": "function"
    },
    {
      "inputs": [
        {
          "internalType": "uint256",
          "name": "_marketId",
          "type": "uint256"
        },
        {
          "internalType": "uint256",
          "name": "_amount",
          "type": "uint256"
        }
      ],
      "name": "decreaseCapacity",
      "outputs": [],
      "stateMutability": "nonpayable",
      "type": "function"
    },
    {
      "inputs": [
        {
          "internalType": "address",
          "name": "",
          "type": "address"
        },
        {
          "internalType": "uint256",
          "name": "",
          "type": "uint256"
        }
      ],
      "name": "deposits",
      "outputs": [
        {
          "internalType": "uint256",
          "name": "marketId",
          "type": "uint256"
        },
        {
          "internalType": "uint256",
          "name": "stakeId",
          "type": "uint256"
        }
      ],
      "stateMutability": "view",
      "type": "function"
    },
    {
      "inputs": [],
      "name": "getBonds",
      "outputs": [
        {
          "internalType": "uint256[]",
          "name": "",
          "type": "uint256[]"
        },
        {
          "internalType": "address[]",
          "name": "",
          "type": "address[]"
        },
        {
          "internalType": "uint256[]",
          "name": "",
          "type": "uint256[]"
        },
        {
          "internalType": "uint256[]",
          "name": "",
          "type": "uint256[]"
        },
        {
          "internalType": "uint256[]",
          "name": "",
          "type": "uint256[]"
        },
        {
          "internalType": "uint256[]",
          "name": "",
          "type": "uint256[]"
        },
        {
          "internalType": "uint256[]",
          "name": "",
          "type": "uint256[]"
        }
      ],
      "stateMutability": "view",
      "type": "function"
    },
    {
      "inputs": [
        {
          "internalType": "address",
          "name": "account",
          "type": "address"
        }
      ],
      "name": "getDepositList",
      "outputs": [
        {
          "internalType": "uint256[]",
          "name": "_marketIds",
          "type": "uint256[]"
        },
        {
          "internalType": "uint256[]",
          "name": "_stakeIds",
          "type": "uint256[]"
        }
      ],
      "stateMutability": "view",
      "type": "function"
    },
    {
      "inputs": [],
      "name": "getMarketList",
      "outputs": [
        {
          "internalType": "uint256[]",
          "name": "",
          "type": "uint256[]"
        }
      ],
      "stateMutability": "view",
      "type": "function"
    },
    {
      "inputs": [],
      "name": "getMetadataList",
      "outputs": [
        {
          "internalType": "uint256[]",
          "name": "",
          "type": "uint256[]"
        }
      ],
      "stateMutability": "view",
      "type": "function"
    },
    {
      "inputs": [
        {
          "internalType": "bytes32",
          "name": "role",
          "type": "bytes32"
        }
      ],
      "name": "getRoleAdmin",
      "outputs": [
        {
          "internalType": "bytes32",
          "name": "",
          "type": "bytes32"
        }
      ],
      "stateMutability": "view",
      "type": "function"
    },
    {
      "inputs": [
        {
          "internalType": "bytes32",
          "name": "role",
          "type": "bytes32"
        },
        {
          "internalType": "address",
          "name": "account",
          "type": "address"
        }
      ],
      "name": "grantRole",
      "outputs": [],
      "stateMutability": "nonpayable",
      "type": "function"
    },
    {
      "inputs": [
        {
          "internalType": "bytes32",
          "name": "role",
          "type": "bytes32"
        },
        {
          "internalType": "address",
          "name": "account",
          "type": "address"
        }
      ],
      "name": "hasRole",
      "outputs": [
        {
          "internalType": "bool",
          "name": "",
          "type": "bool"
        }
      ],
      "stateMutability": "view",
      "type": "function"
    },
    {
      "inputs": [
        {
          "internalType": "uint256",
          "name": "_marketId",
          "type": "uint256"
        },
        {
          "internalType": "uint256",
          "name": "_amount",
          "type": "uint256"
        }
      ],
      "name": "increaseCapacity",
      "outputs": [],
      "stateMutability": "nonpayable",
      "type": "function"
    },
    {
      "inputs": [
        {
          "internalType": "address",
          "name": "account",
          "type": "address"
        }
      ],
      "name": "isAdmin",
      "outputs": [
        {
          "internalType": "bool",
          "name": "",
          "type": "bool"
        }
      ],
      "stateMutability": "view",
      "type": "function"
    },
    {
      "inputs": [
        {
          "internalType": "uint256",
          "name": "_index",
          "type": "uint256"
        }
      ],
      "name": "isOpend",
      "outputs": [
        {
          "internalType": "bool",
          "name": "closedBool",
          "type": "bool"
        }
      ],
      "stateMutability": "view",
      "type": "function"
    },
    {
      "inputs": [
        {
          "internalType": "address",
          "name": "account",
          "type": "address"
        }
      ],
      "name": "isPolicy",
      "outputs": [
        {
          "internalType": "bool",
          "name": "",
          "type": "bool"
        }
      ],
      "stateMutability": "view",
      "type": "function"
    },
    {
      "inputs": [
        {
          "internalType": "address",
          "name": "account",
          "type": "address"
        }
      ],
      "name": "isProxyAdmin",
      "outputs": [
        {
          "internalType": "bool",
          "name": "",
          "type": "bool"
        }
      ],
      "stateMutability": "view",
      "type": "function"
    },
    {
      "inputs": [
        {
          "internalType": "uint256",
          "name": "",
          "type": "uint256"
        }
      ],
      "name": "marketList",
      "outputs": [
        {
          "internalType": "uint256",
          "name": "",
          "type": "uint256"
        }
      ],
      "stateMutability": "view",
      "type": "function"
    },
    {
      "inputs": [
        {
          "internalType": "uint256",
          "name": "",
          "type": "uint256"
        }
      ],
      "name": "markets",
      "outputs": [
        {
          "internalType": "bool",
          "name": "method",
          "type": "bool"
        },
        {
          "internalType": "address",
          "name": "quoteToken",
          "type": "address"
        },
        {
          "internalType": "uint256",
          "name": "capacity",
          "type": "uint256"
        },
        {
          "internalType": "uint256",
          "name": "endSaleTime",
          "type": "uint256"
        },
        {
          "internalType": "uint256",
          "name": "sold",
          "type": "uint256"
        },
        {
          "internalType": "uint256",
          "name": "maxPayout",
          "type": "uint256"
        }
      ],
      "stateMutability": "view",
      "type": "function"
    },
    {
      "inputs": [
        {
          "internalType": "uint256",
          "name": "",
          "type": "uint256"
        }
      ],
      "name": "metadata",
      "outputs": [
        {
          "internalType": "address",
          "name": "poolAddress",
          "type": "address"
        },
        {
          "internalType": "uint256",
          "name": "tokenPrice",
          "type": "uint256"
        },
        {
          "internalType": "uint256",
          "name": "tosPrice",
          "type": "uint256"
        },
        {
          "internalType": "uint256",
          "name": "totalSaleAmount",
          "type": "uint256"
        },
        {
          "internalType": "uint24",
          "name": "fee",
          "type": "uint24"
        },
        {
          "internalType": "bool",
          "name": "ethMarket",
          "type": "bool"
        }
      ],
      "stateMutability": "view",
      "type": "function"
    },
    {
      "inputs": [
        {
          "internalType": "uint256",
          "name": "",
          "type": "uint256"
        }
      ],
      "name": "metadataList",
      "outputs": [
        {
          "internalType": "uint256",
          "name": "",
          "type": "uint256"
        }
      ],
      "stateMutability": "view",
      "type": "function"
    },
    {
      "inputs": [
        {
          "internalType": "uint256",
          "name": "_id",
          "type": "uint256"
        }
      ],
      "name": "purchasableAseetAmountAtOneTime",
      "outputs": [
        {
          "internalType": "uint256",
          "name": "maxpayout_",
          "type": "uint256"
        }
      ],
      "stateMutability": "view",
      "type": "function"
    },
    {
      "inputs": [],
      "name": "removeAdmin",
      "outputs": [],
      "stateMutability": "nonpayable",
      "type": "function"
    },
    {
      "inputs": [],
      "name": "removePolicy",
      "outputs": [],
      "stateMutability": "nonpayable",
      "type": "function"
    },
    {
      "inputs": [],
      "name": "removeProxyAdmin",
      "outputs": [],
      "stateMutability": "nonpayable",
      "type": "function"
    },
    {
      "inputs": [
        {
          "internalType": "bytes32",
          "name": "role",
          "type": "bytes32"
        },
        {
          "internalType": "address",
          "name": "account",
          "type": "address"
        }
      ],
      "name": "renounceRole",
      "outputs": [],
      "stateMutability": "nonpayable",
      "type": "function"
    },
    {
      "inputs": [
        {
          "internalType": "bytes32",
          "name": "role",
          "type": "bytes32"
        },
        {
          "internalType": "address",
          "name": "account",
          "type": "address"
        }
      ],
      "name": "revokeRole",
      "outputs": [],
      "stateMutability": "nonpayable",
      "type": "function"
    },
    {
      "inputs": [],
      "name": "staking",
      "outputs": [
        {
          "internalType": "contract IStaking",
          "name": "",
          "type": "address"
        }
      ],
      "stateMutability": "view",
      "type": "function"
    },
    {
      "inputs": [
        {
          "internalType": "bytes4",
          "name": "interfaceId",
          "type": "bytes4"
        }
      ],
      "name": "supportsInterface",
      "outputs": [
        {
          "internalType": "bool",
          "name": "",
          "type": "bool"
        }
      ],
      "stateMutability": "view",
      "type": "function"
    },
    {
      "inputs": [
        {
          "internalType": "address",
          "name": "pool",
          "type": "address"
        },
        {
          "internalType": "address",
          "name": "token0",
          "type": "address"
        }
      ],
      "name": "tokenInUniswapV3Pool",
      "outputs": [
        {
          "internalType": "bool",
          "name": "",
          "type": "bool"
        }
      ],
      "stateMutability": "view",
      "type": "function"
    },
    {
      "inputs": [],
      "name": "tos",
      "outputs": [
        {
          "internalType": "contract IERC20",
          "name": "",
          "type": "address"
        }
      ],
      "stateMutability": "view",
      "type": "function"
    },
    {
      "inputs": [],
      "name": "totalDepositCount",
      "outputs": [
        {
          "internalType": "uint256",
          "name": "",
          "type": "uint256"
        }
      ],
      "stateMutability": "view",
      "type": "function"
    },
    {
      "inputs": [
        {
          "internalType": "address",
          "name": "account",
          "type": "address"
        }
      ],
      "name": "totalDepositCountOfAddress",
      "outputs": [
        {
          "internalType": "uint256",
          "name": "",
          "type": "uint256"
        }
      ],
      "stateMutability": "view",
      "type": "function"
    },
    {
      "inputs": [],
      "name": "totalMarketCount",
      "outputs": [
        {
          "internalType": "uint256",
          "name": "",
          "type": "uint256"
        }
      ],
      "stateMutability": "view",
      "type": "function"
    },
    {
      "inputs": [],
      "name": "totalMetadataCount",
      "outputs": [
        {
          "internalType": "uint256",
          "name": "",
          "type": "uint256"
        }
      ],
      "stateMutability": "view",
      "type": "function"
    },
    {
      "inputs": [
        {
          "internalType": "address",
          "name": "newAdmin",
          "type": "address"
        }
      ],
      "name": "transferAdmin",
      "outputs": [],
      "stateMutability": "nonpayable",
      "type": "function"
    },
    {
      "inputs": [
        {
          "internalType": "address",
          "name": "newAdmin",
          "type": "address"
        }
      ],
      "name": "transferPolicyAdmin",
      "outputs": [],
      "stateMutability": "nonpayable",
      "type": "function"
    },
    {
      "inputs": [
        {
          "internalType": "address",
          "name": "newAdmin",
          "type": "address"
        }
      ],
      "name": "transferProxyAdmin",
      "outputs": [],
      "stateMutability": "nonpayable",
      "type": "function"
    },
    {
      "inputs": [],
      "name": "treasury",
      "outputs": [
        {
          "internalType": "address",
          "name": "",
          "type": "address"
        }
      ],
      "stateMutability": "view",
      "type": "function"
    },
    {
      "inputs": [],
      "name": "uniswapV3Factory",
      "outputs": [
        {
          "internalType": "address",
          "name": "",
          "type": "address"
        }
      ],
      "stateMutability": "view",
      "type": "function"
    },
    {
      "inputs": [
        {
          "internalType": "uint256",
          "name": "",
          "type": "uint256"
        }
      ],
      "name": "userList",
      "outputs": [
        {
          "internalType": "address",
          "name": "",
          "type": "address"
        }
      ],
      "stateMutability": "view",
      "type": "function"
    },
    {
      "inputs": [
        {
          "internalType": "address",
          "name": "account",
          "type": "address"
        },
        {
          "internalType": "uint256",
          "name": "_index",
          "type": "uint256"
        }
      ],
      "name": "viewDeposit",
      "outputs": [
        {
          "internalType": "uint256",
          "name": "marketId",
          "type": "uint256"
        },
        {
          "internalType": "uint256",
          "name": "stakeId",
          "type": "uint256"
        }
      ],
      "stateMutability": "view",
      "type": "function"
    },
    {
      "inputs": [
        {
          "internalType": "uint256",
          "name": "_index",
          "type": "uint256"
        }
      ],
      "name": "viewMarket",
      "outputs": [
        {
          "internalType": "bool",
          "name": "method",
          "type": "bool"
        },
        {
          "internalType": "address",
          "name": "quoteToken",
          "type": "address"
        },
        {
          "internalType": "uint256",
          "name": "capacity",
          "type": "uint256"
        },
        {
          "internalType": "uint256",
          "name": "endSaleTime",
          "type": "uint256"
        },
        {
          "internalType": "uint256",
          "name": "sold",
          "type": "uint256"
        },
        {
          "internalType": "uint256",
          "name": "maxPayout",
          "type": "uint256"
        }
      ],
      "stateMutability": "view",
      "type": "function"
    },
    {
      "inputs": [
        {
          "internalType": "uint256",
          "name": "_index",
          "type": "uint256"
        }
      ],
      "name": "viewMetadata",
      "outputs": [
        {
          "internalType": "address",
          "name": "poolAddress",
          "type": "address"
        },
        {
          "internalType": "uint256",
          "name": "_tokenPrice",
          "type": "uint256"
        },
        {
          "internalType": "uint256",
          "name": "_tosPrice",
          "type": "uint256"
        },
        {
          "internalType": "uint256",
          "name": "totalSaleAmount",
          "type": "uint256"
        },
        {
          "internalType": "uint24",
          "name": "fee",
          "type": "uint24"
        },
        {
          "internalType": "bool",
          "name": "ethMarket",
          "type": "bool"
        }
      ],
      "stateMutability": "view",
      "type": "function"
    }
  ],
  "bytecode": "0x608060405234801561001057600080fd5b506141c3806100206000396000f3fe6080604052600436106102a75760003560e01c806301ffc9a7146102ac5780630aebeb4e146102e157806312fcee80146103035780632298524614610324578063232b956c14610354578063248a9ca31461037457806324d7806c14610394578063282c51f3146103b45780632f2ff15d146103e857806336568abe146104085780633bb4f50b146104285780633fbd6b171461044857806340d5a0ee1461046857806340e2b4b81461050d57806341c04d5e1461052d5780634c8df5351461054f5780634cf088d91461056457806355ac36011461059c5780635b549182146105be5780635b9907a4146105de5780635c4fbd5d146105f35780635fabfedc1461061357806361d027b31461063357806365cb3a83146106535780637048027514610668578063708d5c151461068857806375829def146106a857806375b238fc146106c857806380e723a3146106fc57806382c876dc1461071c5780638356ca4f1461073c57806387cb562c1461075c57806389f395de1461077c5780638b140f6b1461079c5780638b7a23ba146107c457806391d14854146107d957806396f1557c146107f95780639a202d47146108195780639c265cac1461082e5780639f4216e814610864578063a217fddf14610884578063a79a48c214610899578063af0856dc146108b9578063b1283e77146108d9578063b1667adf14610969578063b2abb487146109c5578063b84ef081146109e5578063be72f2d314610a05578063ce3e39c014610a1a578063cfd1055c14610a3a578063d2e4910c14610a5a578063d539139314610a88578063d547741f14610abc578063d634386714610adc578063d6d6817714610af2578063e3684e3914610b12578063f1c8c92214610b78578063f29310c114610b98578063f47f2f1d14610bab578063fad1c85c14610bcb575b600080fd5b3480156102b857600080fd5b506102cc6102c73660046139b6565b610beb565b60405190151581526020015b60405180910390f35b3480156102ed57600080fd5b506103016102fc36600461397a565b610c22565b005b6103166103113660046139f6565b610d45565b6040516102d8929190613f8d565b34801561033057600080fd5b5061034660008051602061413183398151915281565b6040519081526020016102d8565b34801561036057600080fd5b5061034661036f36600461397a565b610fb9565b34801561038057600080fd5b5061034661038f36600461397a565b610fda565b3480156103a057600080fd5b506102cc6103af3660046137bf565b610fef565b3480156103c057600080fd5b506103467f9667e80708b6eeeb0053fa0cca44e028ff548e2a9f029edfeac87c118b08b7c881565b3480156103f457600080fd5b50610301610403366004613992565b611009565b34801561041457600080fd5b50610301610423366004613992565b61102b565b34801561043457600080fd5b506103466104433660046139f6565b6110a9565b34801561045457600080fd5b5061034661046336600461385a565b611115565b34801561047457600080fd5b506104cf61048336600461397a565b6000908152600160208190526040909120805491810154600282015460038301546004909301546001600160a01b0390941694919390929162ffffff8216916301000000900460ff1690565b604080516001600160a01b039097168752602087019590955293850192909252606084015262ffffff166080830152151560a082015260c0016102d8565b34801561051957600080fd5b50610301610528366004613a17565b61174f565b34801561053957600080fd5b506103466000805160206140bb83398151915281565b34801561055b57600080fd5b50600354610346565b34801561057057600080fd5b50600854610584906001600160a01b031681565b6040516001600160a01b0390911681526020016102d8565b3480156105a857600080fd5b506105b1611877565b6040516102d89190613b78565b3480156105ca57600080fd5b50600b54610584906001600160a01b031681565b3480156105ea57600080fd5b506105b16118cf565b3480156105ff57600080fd5b5061034661060e36600461397a565b611925565b34801561061f57600080fd5b5061030161062e3660046139f6565b611935565b34801561063f57600080fd5b50600954610584906001600160a01b031681565b34801561065f57600080fd5b50610301611a2f565b34801561067457600080fd5b506103016106833660046137bf565b611a6e565b34801561069457600080fd5b506103016106a33660046139f6565b611aae565b3480156106b457600080fd5b506103016106c33660046137bf565b611b88565b3480156106d457600080fd5b506103467fdf8b4c520ffe197c5343c6f5aec59570151ef9a492f2c624fd45ddde6135ec4281565b34801561070857600080fd5b506103016107173660046139f6565b611c3b565b34801561072857600080fd5b506102cc6107373660046137f7565b611d76565b34801561074857600080fd5b506103016107573660046137bf565b611e9e565b34801561076857600080fd5b5061034661077736600461397a565b611f28565b34801561078857600080fd5b50600654610584906001600160a01b031681565b3480156107a857600080fd5b506107b1611f9a565b6040516102d89796959493929190613b8b565b3480156107d057600080fd5b50600454610346565b3480156107e557600080fd5b506102cc6107f4366004613992565b612431565b34801561080557600080fd5b506103016108143660046137bf565b61245c565b34801561082557600080fd5b5061030161248c565b34801561083a57600080fd5b506103466108493660046137bf565b6001600160a01b031660009081526002602052604090205490565b34801561087057600080fd5b5061058461087f36600461397a565b6124d8565b34801561089057600080fd5b50610346600081565b3480156108a557600080fd5b506103166108b436600461382f565b612502565b3480156108c557600080fd5b506103016108d43660046139f6565b61259f565b3480156108e557600080fd5b506109326108f436600461397a565b6000602081905290815260409020805460018201546002830154600384015460049094015460ff8416946101009094046001600160a01b0316939086565b6040805196151587526001600160a01b039095166020870152938501929092526060840152608083015260a082015260c0016102d8565b34801561097557600080fd5b5061093261098436600461397a565b6000908152602081905260409020805460018201546002830154600384015460049094015460ff8416956101009094046001600160a01b0316949293919291565b3480156109d157600080fd5b50600754610584906001600160a01b031681565b3480156109f157600080fd5b50610301610a003660046137bf565b612684565b348015610a1157600080fd5b506103016126c1565b348015610a2657600080fd5b50600a54610584906001600160a01b031681565b348015610a4657600080fd5b506102cc610a5536600461397a565b6126f1565b348015610a6657600080fd5b50610a7a610a753660046137bf565b612736565b6040516102d8929190613c51565b348015610a9457600080fd5b506103467ff0887ba65ee2024ea881d91b74c2450ef19e1557f03bed3ea9f16b037cbe2dc981565b348015610ac857600080fd5b50610301610ad7366004613992565b612913565b348015610ae857600080fd5b50610346600c5481565b348015610afe57600080fd5b50610316610b0d36600461382f565b612930565b348015610b1e57600080fd5b506104cf610b2d36600461397a565b6001602081905260009182526040909120805491810154600282015460038301546004909301546001600160a01b03909416939192909162ffffff8116906301000000900460ff1686565b348015610b8457600080fd5b50610301610b933660046137bf565b61296c565b610316610ba6366004613a17565b612a10565b348015610bb757600080fd5b506102cc610bc63660046137bf565b612cd1565b348015610bd757600080fd5b506102cc610be63660046137bf565b612cdd565b60006001600160e01b03198216637965db0b60e01b1480610c1c57506301ffc9a760e01b6001600160e01b03198316145b92915050565b610c2b33612cdd565b610c505760405162461bcd60e51b8152600401610c4790613ed9565b60405180910390fd5b600081815260208190526040902060020154610c9d5760405162461bcd60e51b815260206004820152600c60248201526b195b5c1d1e481b585c9ad95d60a21b6044820152606401610c47565b600081815260208190526040902060020154421080610ccb5750600081815260208190526040902060010154155b610d085760405162461bcd60e51b815260206004820152600e60248201526d185b1c9958591e4818db1bdcd95960921b6044820152606401610c47565b6000818152602081815260408083204260028201556001019290925590518281526000805160206140db833981519152910160405180910390a150565b600082815260208190526040812060020154819084904210610d795760405162461bcd60e51b8152600401610c4790613d70565b600081815260208190526040902060010154610da75760405162461bcd60e51b8152600401610c4790613e0a565b600085815260016020526040902060030154859015801590610de157506000818152600160205260409020600401546301000000900460ff165b610dfd5760405162461bcd60e51b8152600401610c4790613e41565b8480610e1b5760405162461bcd60e51b8152600401610c4790613da7565b853414610e3a5760405162461bcd60e51b8152600401610c4790613e78565b610e473387896001612cf7565b600854600089815260016020819052604080832091820154600290920154905163d8bc7be160e01b81529499508b9492936001600160a01b03169263d8bc7be192610e9c9233928d9289929091600401613b17565b602060405180830381600087803b158015610eb657600080fd5b505af1158015610eca573d6000803e3d6000fd5b505050506040513d601f19601f82011682018060405250810190610eee91906139de565b33600090815260026020818152604080842080548251808401845289815280850188815260018084018555938852948720905195820201948555925193019290925560095491519099509293506001600160a01b0316913480156108fc0292909190818181858888f19350505050158015610f6d573d6000803e3d6000fd5b507fe6842e3c66982eec53fbf127ab93e36198f7d048a044b2761abd0e131b3f84a43383838b8b604051610fa5959493929190613b17565b60405180910390a150505050509250929050565b60038181548110610fc957600080fd5b600091825260209091200154905081565b6000908152600e602052604090206001015490565b6000610c1c6000805160206140bb83398151915283612431565b61101282610fda565b61101c813361341d565b6110268383613481565b505050565b6001600160a01b038116331461109b5760405162461bcd60e51b815260206004820152602f60248201527f416363657373436f6e74726f6c3a2063616e206f6e6c792072656e6f756e636560448201526e103937b632b9903337b91039b2b63360891b6064820152608401610c47565b6110a58282613507565b5050565b60006110de6040518060600160405280603681526020016140fb6036913960008581526001602052604090206002015461356e565b600083815260016020526040902060020154670de0b6b3a7640000906111049084613fd3565b61110e9190613fb3565b9392505050565b600061112033612cdd565b61113c5760405162461bcd60e51b8152600401610c4790613ed9565b81518061115b5760405162461bcd60e51b8152600401610c4790613da7565b60408301518061117d5760405162461bcd60e51b8152600401610c4790613da7565b60608401518061119f5760405162461bcd60e51b8152600401610c4790613da7565b6080850151806111c15760405162461bcd60e51b8152600401610c4790613da7565b600860009054906101000a90046001600160a01b03166001600160a01b03166330e06e8b6040518163ffffffff1660e01b8152600401602060405180830381600087803b15801561121157600080fd5b505af1158015611225573d6000803e3d6000fd5b505050506040513d601f19601f8201168201806040525081019061124991906139de565b945089156112be576001600160a01b038916156112b95760405162461bcd60e51b815260206004820152602860248201527f7768656e20757365206574682c20746f6b656e206d757374206265207a65726f604482015267206164647265737360c01b6064820152608401610c47565b611303565b6001600160a01b0389166113035760405162461bcd60e51b815260206004820152600c60248201526b7a65726f206164647265737360a01b6044820152606401610c47565b602086015142106113525760405162461bcd60e51b815260206004820152601960248201527839b0b6329032b732103a34b6b2903430b9903830b9b9b2b21760391b6044820152606401610c47565b896113975760008762ffffff16116113975760405162461bcd60e51b81526020600482015260086024820152677a65726f2066656560c01b6044820152606401610c47565b6000858152602081905260409020600201541580156113c55750600085815260016020526040902060030154155b6114205760405162461bcd60e51b815260206004820152602660248201527f616c72656164792072656769737465726564206d61726b657420616e64206d6560448201526574616461746160d01b6064820152608401610c47565b896114715761142f888a611d76565b6114715760405162461bcd60e51b81526020600482015260136024820152721b9bdd081d1bdad95b881c185a5c881c1bdbdb606a1b6044820152606401610c47565b6040805160c0810182528b151581526001600160a01b038b166020808301919091528851928201929092529087015160608201526000608082015260a0810187600460209081029190910151909152600087815280825260409081902083518154858501516001600160a81b0319909116911515610100600160a81b031916919091176101006001600160a01b039283160217825584830151600183015560608501516002808401919091556080860151600384015560a090950151600490920191909155815160c081019092528b16815291908201908890602002015181526020018760036005811061157557634e487b7160e01b600052603260045260246000fd5b60200201518152602001876000600581106115a057634e487b7160e01b600052603260045260246000fd5b60209081029190910151825262ffffff8a81168383018190528e151560409485015260008a81526001808552858220875181546001600160a01b039182166001600160a01b03199091161782559588015181830155878701516002820155606088015160038083019190915560808901516004928301805460a0909b0151151563010000000263ffffffff19909b1691909716179890981790945586548082019097557fc2575a0e9e593c00f959f8c92f12db2869c3395a3b0502d05e2516446f71f85b9096018b9055825495860183558290527f8a35acfbc15ff81a39ae7d344fd709f28e8600b4aa8c65c6b64bfe7fe36bd19b909401899055600954925163380d70f360e11b81528d8316918101919091528b821660248201526044810193909352169063701ae1e690606401600060405180830381600087803b1580156116e957600080fd5b505af11580156116fd573d6000803e3d6000fd5b505050507f527de5073033b75016bd4b14f97dccd60f8010b3dfc05ffb473ce260d9ecd8a0858b8b8b8b8b60405161173a96959493929190613f22565b60405180910390a15050505095945050505050565b61175833612cdd565b6117745760405162461bcd60e51b8152600401610c4790613ed9565b600083815260208190526040902060020154839042106117a65760405162461bcd60e51b8152600401610c4790613d70565b6000818152602081905260409020600101546117d45760405162461bcd60e51b8152600401610c4790613e0a565b82806117f25760405162461bcd60e51b8152600401610c4790613da7565b82806118105760405162461bcd60e51b8152600401610c4790613da7565b600086815260016020818152604092839020918201889055600282018790558251898152908101889052918201869052907fe7c8040b7e70fdc86a04cd924e84862b2a7d37a5adb67e951bf0defb90c74d009060600160405180910390a150505050505050565b606060048054806020026020016040519081016040528092919081815260200182805480156118c557602002820191906000526020600020905b8154815260200190600101908083116118b1575b5050505050905090565b606060038054806020026020016040519081016040528092919081815260200182805480156118c557602002820191906000526020600020908154815260200190600101908083116118b1575050505050905090565b60048181548110610fc957600080fd5b61193e33612cdd565b61195a5760405162461bcd60e51b8152600401610c4790613ed9565b6000828152602081905260409020600201548290421061198c5760405162461bcd60e51b8152600401610c4790613d70565b6000818152602081905260409020600101546119ba5760405162461bcd60e51b8152600401610c4790613e0a565b81806119d85760405162461bcd60e51b8152600401610c4790613da7565b600084815260208190526040908190206004810185905590517f13067d803552eac6ffd9ed0180e377884374b0ee53d2efa798e1c6d6974db44190611a209087908790613f8d565b60405180910390a15050505050565b611a3833612cdd565b611a545760405162461bcd60e51b8152600401610c4790613ed9565b611a6c6000805160206141318339815191523361102b565b565b611a7733612cd1565b611a935760405162461bcd60e51b8152600401610c4790613d28565b611aab6000805160206140bb83398151915282611009565b50565b611ab733612cdd565b611ad35760405162461bcd60e51b8152600401610c4790613ed9565b428111611b135760405162461bcd60e51b815260206004820152600e60248201526d7061737420636c6f736554696d6560901b6044820152606401610c47565b60008281526020819052604090206004810154611b425760405162461bcd60e51b8152600401610c4790613eaf565b600281018290556040517fc3daa84eedfacd6851bbf80d00ce11271bf926ac96c3d361c0307023c939d4b390611b7b9085908590613f8d565b60405180910390a1505050565b611b9133610fef565b80611ba05750611ba033612cd1565b611bbc5760405162461bcd60e51b8152600401610c4790613cb4565b6001600160a01b038116611be25760405162461bcd60e51b8152600401610c4790613cf6565b336001600160a01b0382161415611c0b5760405162461bcd60e51b8152600401610c4790613dda565b611c236000805160206140bb83398151915282611009565b611aab6000805160206140bb8339815191523361102b565b611c4433612cdd565b611c605760405162461bcd60e51b8152600401610c4790613ed9565b8080611c7e5760405162461bcd60e51b8152600401610c4790613da7565b6000838152602081905260409020600101548210611cd45760405162461bcd60e51b81526020600482015260136024820152726e6f7420656e6f75676820636170616369747960681b6044820152606401610c47565b60008381526020819052604090206004810154611d035760405162461bcd60e51b8152600401610c4790613eaf565b82816001016000828254611d179190613ff2565b9091555050600084815260016020526040812060038101805491928692611d3f908490613ff2565b90915550506040517f06bd35b7b1982d31e0bbbd1ff43126cded834cfa1465422c58945822697ea2b390611a209087908790613f8d565b6000816001600160a01b0316836001600160a01b0316630dfe16816040518163ffffffff1660e01b815260040160206040518083038186803b158015611dbb57600080fd5b505afa158015611dcf573d6000803e3d6000fd5b505050506040513d601f19601f82011682018060405250810190611df391906137db565b6001600160a01b03161480611e895750816001600160a01b0316836001600160a01b031663d21220a76040518163ffffffff1660e01b815260040160206040518083038186803b158015611e4657600080fd5b505afa158015611e5a573d6000803e3d6000fd5b505050506040513d601f19601f82011682018060405250810190611e7e91906137db565b6001600160a01b0316145b15611e9657506001610c1c565b506000610c1c565b611ea733612cd1565b611ec35760405162461bcd60e51b8152600401610c4790613d28565b6001600160a01b038116611ee95760405162461bcd60e51b8152600401610c4790613cf6565b336001600160a01b0382161415611f125760405162461bcd60e51b8152600401610c4790613dda565b611f1d600082611009565b611aab60003361102b565b6000611f5e6040518060600160405280603d8152602001614151603d91396000848152600160208190526040909120015461356e565b60008281526001602081815260408084209092015490839052912060040154670de0b6b3a764000091611f9091613fd3565b610c1c9190613fb3565b6060806060806060806060600060038054905090506000816001600160401b03811115611fd757634e487b7160e01b600052604160045260246000fd5b604051908082528060200260200182016040528015612000578160200160208202803683370190505b5090506000826001600160401b0381111561202b57634e487b7160e01b600052604160045260246000fd5b604051908082528060200260200182016040528015612054578160200160208202803683370190505b5090506000836001600160401b0381111561207f57634e487b7160e01b600052604160045260246000fd5b6040519080825280602002602001820160405280156120a8578160200160208202803683370190505b5090506000846001600160401b038111156120d357634e487b7160e01b600052604160045260246000fd5b6040519080825280602002602001820160405280156120fc578160200160208202803683370190505b5090506000856001600160401b0381111561212757634e487b7160e01b600052604160045260246000fd5b604051908082528060200260200182016040528015612150578160200160208202803683370190505b5090506000866001600160401b0381111561217b57634e487b7160e01b600052604160045260246000fd5b6040519080825280602002602001820160405280156121a4578160200160208202803683370190505b5090506000876001600160401b038111156121cf57634e487b7160e01b600052604160045260246000fd5b6040519080825280602002602001820160405280156121f8578160200160208202803683370190505b50905060005b88811015612419576003818154811061222757634e487b7160e01b600052603260045260246000fd5b906000526020600020015488828151811061225257634e487b7160e01b600052603260045260246000fd5b60200260200101818152505060008082815260200190815260200160002060000160019054906101000a90046001600160a01b03168782815181106122a757634e487b7160e01b600052603260045260246000fd5b6001600160a01b03909216602092830291909101820152600082815290819052604090206001015486518790839081106122f157634e487b7160e01b600052603260045260246000fd5b6020026020010181815250506000808281526020019081526020016000206002015485828151811061233357634e487b7160e01b600052603260045260246000fd5b602002602001018181525050600160008281526020019081526020016000206001015484828151811061237657634e487b7160e01b600052603260045260246000fd5b60200260200101818152505060016000828152602001908152602001600020600201548382815181106123b957634e487b7160e01b600052603260045260246000fd5b60200260200101818152505060016000828152602001908152602001600020600301548282815181106123fc57634e487b7160e01b600052603260045260246000fd5b60209081029190910101528061241181614050565b9150506121fe565b50959e949d50929b5090995097509550909350915050565b6000918252600e602090815260408084206001600160a01b0393909316845291905290205460ff1690565b61246533612cd1565b6124815760405162461bcd60e51b8152600401610c4790613d28565b611aab6000826135b3565b61249533610fef565b806124a457506124a433612cd1565b6124c05760405162461bcd60e51b8152600401610c4790613cb4565b611a6c6000805160206140bb8339815191523361102b565b600581815481106124e857600080fd5b6000918252602090912001546001600160a01b0316905081565b6001600160a01b038216600090815260026020526040812080548291908490811061253d57634e487b7160e01b600052603260045260246000fd5b60009182526020808320600292830201546001600160a01b0388168452919052604090912080548590811061258257634e487b7160e01b600052603260045260246000fd5b906000526020600020906002020160010154915091509250929050565b6125a833612cdd565b6125c45760405162461bcd60e51b8152600401610c4790613ed9565b80806125e25760405162461bcd60e51b8152600401610c4790613da7565b600083815260208190526040812060018101805491928592612605908490613f9b565b9091555050600084815260016020526040902060048201546126395760405162461bcd60e51b8152600401610c4790613eaf565b8381600301600082825461264d9190613f9b565b90915550506040517fd99cf430ca9e36159c97837a2f291cfe564dfa5ca2a4f48ea0d20a3ceb718d5590611a209087908790613f8d565b61268d33612cd1565b6126a95760405162461bcd60e51b8152600401610c4790613d28565b611aab60008051602061413183398151915282611009565b6126ca33612cd1565b6126e65760405162461bcd60e51b8152600401610c4790613d28565b611a6c60003361102b565b60008181526020819052604081206002015442108015612721575060008281526020819052604090206001015415155b1561272e57506001919050565b506000919050565b6001600160a01b0381166000908152600260205260409020546060908190806001600160401b0381111561277a57634e487b7160e01b600052604160045260246000fd5b6040519080825280602002602001820160405280156127a3578160200160208202803683370190505b509250806001600160401b038111156127cc57634e487b7160e01b600052604160045260246000fd5b6040519080825280602002602001820160405280156127f5578160200160208202803683370190505b50915060005b8181101561290c576001600160a01b038516600090815260026020526040902080548290811061283b57634e487b7160e01b600052603260045260246000fd5b90600052602060002090600202016000015484828151811061286d57634e487b7160e01b600052603260045260246000fd5b60200260200101818152505060026000866001600160a01b03166001600160a01b0316815260200190815260200160002081815481106128bd57634e487b7160e01b600052603260045260246000fd5b9060005260206000209060020201600101548382815181106128ef57634e487b7160e01b600052603260045260246000fd5b60209081029190910101528061290481614050565b9150506127fb565b5050915091565b61291c82610fda565b612926813361341d565b6110268383613507565b6002602052816000526040600020818154811061294c57600080fd5b600091825260209091206002909102018054600190910154909250905082565b61297533612cdd565b6129915760405162461bcd60e51b8152600401610c4790613ed9565b6001600160a01b0381166129b75760405162461bcd60e51b8152600401610c4790613cf6565b336001600160a01b03821614156129e05760405162461bcd60e51b8152600401610c4790613dda565b6129f860008051602061413183398151915282611009565b611aab6000805160206141318339815191523361102b565b600083815260208190526040812060020154819085904210612a445760405162461bcd60e51b8152600401610c4790613d70565b600081815260208190526040902060010154612a725760405162461bcd60e51b8152600401610c4790613e0a565b600086815260016020526040902060030154869015801590612aac57506000818152600160205260409020600401546301000000900460ff165b612ac85760405162461bcd60e51b8152600401610c4790613e41565b8580612ae65760405162461bcd60e51b8152600401610c4790613da7565b8580612b045760405162461bcd60e51b8152600401610c4790613da7565b873414612b235760405162461bcd60e51b8152600401610c4790613e78565b612b3033898b6001612cf7565b955060008990506000600860009054906101000a90046001600160a01b03166001600160a01b031663fbebef7a338a858d6001600089815260200190815260200160002060010154600160008a8152602001908152602001600020600201546040518763ffffffff1660e01b8152600401612bb096959493929190613b45565b602060405180830381600087803b158015612bca57600080fd5b505af1158015612bde573d6000803e3d6000fd5b505050506040513d601f19601f82011682018060405250810190612c0291906139de565b3360009081526002602081815260408084208054825180840184528981528085018881526001808401855593885294872090519582020194855592519301929092556009549151909a509293506001600160a01b0316913480156108fc0292909190818181858888f19350505050158015612c81573d6000803e3d6000fd5b507fd04d64d5a1460d8c5a8c5ffb4d6ddb0f4e5cf774c894a27c5bb73c4fc41698803383838d8d8d604051612cbb96959493929190613b45565b60405180910390a1505050505050935093915050565b6000610c1c8183612431565b6000610c1c60008051602061413183398151915283612431565b60006002600d541415612d4c5760405162461bcd60e51b815260206004820152601f60248201527f5265656e7472616e637947756172643a207265656e7472616e742063616c6c006044820152606401610c47565b6002600d556040805180820190915260158152745f6465706f736974205f616d6f756e74203a20257360581b6020820152612d87908561356e565b612d9083611f28565b841115612dda5760405162461bcd60e51b81526020600482015260186024820152774465706f7369746f7279203a206f766572206d617850617960401b6044820152606401610c47565b612de483856110a9565b9050612e226040518060400160405280601a8152602001795f6465706f736974207061796f7574416d6f756e74203a20257360301b8152508261356e565b60008111612e685760405162461bcd60e51b81526020600482015260136024820152721e995c9bc81cdd185ada5b99c8185b5bdd5b9d606a1b6044820152606401610c47565b600082612f5357600a54600654604051635db7a45d60e11b81526001600160a01b039182166004820152602481018590526000928392839291169063bb6f48ba9060440160806040518083038186803b158015612ec457600080fd5b505afa158015612ed8573d6000803e3d6000fd5b505050506040513d601f19601f82011682018060405250810190612efc9190613933565b935050925092508215612f4b57809350612f4b6040518060400160405280601d81526020017f5f6465706f736974206578697374656457657468506f6f6c203a2025730000008152508261356e565b505050612f56565b50835b612f8f604051806040016040528060178152602001765f6465706f736974205f65746856616c7565203a20257360481b8152508261356e565b60008111612fd05760405162461bcd60e51b815260206004820152600e60248201526d7a65726f205f65746856616c756560901b6044820152606401610c47565b600954604080516396f0bd6160e01b815290516000926001600160a01b0316916396f0bd61916004808301926020929190829003018186803b15801561301557600080fd5b505afa158015613029573d6000803e3d6000fd5b505050506040513d601f19601f8201168201806040525081019061304d91906139de565b9050613088604051806040016040528060178152602001765f6465706f736974205f6d696e7452617465203a20257360481b8152508261356e565b600081116130c85760405162461bcd60e51b815260206004820152600d60248201526c7a65726f206d696e745261746560981b6044820152606401610c47565b6009546040805163f908ed3760e01b815290516000926001600160a01b03169163f908ed37916004808301926020929190829003018186803b15801561310d57600080fd5b505afa158015613121573d6000803e3d6000fd5b505050506040513d601f19601f8201168201806040525081019061314591906139de565b61314f8385613fd3565b6131599190613fb3565b9050838110156131bf5760405162461bcd60e51b815260206004820152602b60248201527f6d696e7461626c65416d6f756e74206973206c657373207468616e207374616b60448201526a34b7339030b6b7bab73a1760a91b6064820152608401610c47565b6000868152602081905260409020600101548411156132185760405162461bcd60e51b815260206004820152601560248201527411195c1bdcda5d1bdc9e480e881cdbdb19081bdd5d605a1b6044820152606401610c47565b60008681526020819052604081206001810180549192879261323b908490613ff2565b92505081905550848160030160008282546132569190613f9b565b9091555050600380820154600089815260016020526040902090910154116132a157600060018201556040518781526000805160206140db8339815191529060200160405180910390a15b6001600160a01b03891660009081526002602052604090205461330a57600580546001810182556000919091527f036b6384b5eca791c62761152d0c79bb0604c104a5fb6f4eb0703f3154bb3db00180546001600160a01b0319166001600160a01b038b161790555b600c805490600061331a83614050565b919050555060008211801561332f5750818511155b156133ab576009546008546040516329c7979f60e01b8152600481018590526001600160a01b03918216602482015260448101889052600160648201529116906329c7979f90608401600060405180830381600087803b15801561339257600080fd5b505af11580156133a6573d6000803e3d6000fd5b505050505b604080516001600160a01b038b1681526020810189905290810189905260608101869052861515608082015260a081018390527fef81711614d4ac7faee84826311bec7d949a272a2e7e4f39f3a3b72527767d699060c00160405180910390a150506001600d55509095945050505050565b6134278282612431565b6110a55761343f816001600160a01b031660146135bd565b61344a8360206135bd565b60405160200161345b929190613aa8565b60408051601f198184030181529082905262461bcd60e51b8252610c4791600401613c7f565b61348b8282612431565b6110a5576000828152600e602090815260408083206001600160a01b03851684529091529020805460ff191660011790556134c33390565b6001600160a01b0316816001600160a01b0316837f2f8788117e7eff1d82e926ec794901d17c78024a50270940304540a733656f0d60405160405180910390a45050565b6135118282612431565b156110a5576000828152600e602090815260408083206001600160a01b0385168085529252808320805460ff1916905551339285917ff6391f5c32d9c69d2a47ea670b442974b53935d1edc7fd64eb21e047a839171b9190a45050565b6110a58282604051602401613584929190613c92565b60408051601f198184030181529190526020810180516001600160e01b03166309710a9d60e41b17905261379e565b6110a58282613481565b606060006135cc836002613fd3565b6135d7906002613f9b565b6001600160401b038111156135fc57634e487b7160e01b600052604160045260246000fd5b6040519080825280601f01601f191660200182016040528015613626576020820181803683370190505b509050600360fc1b8160008151811061364f57634e487b7160e01b600052603260045260246000fd5b60200101906001600160f81b031916908160001a905350600f60fb1b8160018151811061368c57634e487b7160e01b600052603260045260246000fd5b60200101906001600160f81b031916908160001a90535060006136b0846002613fd3565b6136bb906001613f9b565b90505b600181111561374f576f181899199a1a9b1b9c1cb0b131b232b360811b85600f16601081106136fd57634e487b7160e01b600052603260045260246000fd5b1a60f81b82828151811061372157634e487b7160e01b600052603260045260246000fd5b60200101906001600160f81b031916908160001a90535060049490941c9361374881614039565b90506136be565b50831561110e5760405162461bcd60e51b815260206004820181905260248201527f537472696e67733a20686578206c656e67746820696e73756666696369656e746044820152606401610c47565b80516a636f6e736f6c652e6c6f67602083016000808483855afa5050505050565b6000602082840312156137d0578081fd5b813561110e81614097565b6000602082840312156137ec578081fd5b815161110e81614097565b60008060408385031215613809578081fd5b823561381481614097565b9150602083013561382481614097565b809150509250929050565b60008060408385031215613841578182fd5b823561384c81614097565b946020939093013593505050565b6000806000806000610120808789031215613873578182fd5b863561387e816140ac565b955060208781013561388f81614097565b9550604088013561389f81614097565b9450606088013562ffffff811681146138b6578384fd5b9350609f880189136138c6578283fd5b60405160a081016001600160401b03811182821017156138e8576138e8614081565b6040528060808a01848b018c10156138fe578586fd5b8594505b6005851015613921578035825260019490940193908301908301613902565b50508093505050509295509295909350565b60008060008060808587031215613948578384fd5b8451613953816140ac565b6020860151909450613964816140ac565b6040860151606090960151949790965092505050565b60006020828403121561398b578081fd5b5035919050565b600080604083850312156139a4578182fd5b82359150602083013561382481614097565b6000602082840312156139c7578081fd5b81356001600160e01b03198116811461110e578182fd5b6000602082840312156139ef578081fd5b5051919050565b60008060408385031215613a08578182fd5b50508035926020909101359150565b600080600060608486031215613a2b578283fd5b505081359360208301359350604090920135919050565b6000815180845260208085019450808401835b83811015613a7157815187529582019590820190600101613a55565b509495945050505050565b60008151808452613a94816020860160208601614009565b601f01601f19169290920160200192915050565b76020b1b1b2b9b9a1b7b73a3937b61d1030b1b1b7bab73a1604d1b815260008351613ada816017850160208801614009565b7001034b99036b4b9b9b4b733903937b6329607d1b6017918401918201528351613b0b816028840160208801614009565b01602801949350505050565b6001600160a01b03959095168552602085019390935260408401919091526060830152608082015260a00190565b6001600160a01b03969096168652602086019490945260408501929092526060840152608083015260a082015260c00190565b60208152600061110e6020830184613a42565b60e081526000613b9e60e083018a613a42565b82810360208481019190915289518083528a820192820190845b81811015613bdd5784516001600160a01b031683529383019391830191600101613bb8565b50508481036040860152613bf1818b613a42565b925050508281036060840152613c078188613a42565b90508281036080840152613c1b8187613a42565b905082810360a0840152613c2f8186613a42565b905082810360c0840152613c438185613a42565b9a9950505050505050505050565b604081526000613c646040830185613a42565b8281036020840152613c768185613a42565b95945050505050565b60208152600061110e6020830184613a7c565b604081526000613ca56040830185613a7c565b90508260208301529392505050565b60208082526022908201527f41636365737369626c653a2043616c6c6572206973206e6f7420616e2061646d60408201526134b760f11b606082015260800190565b60208082526018908201527741636365737369626c653a207a65726f206164647265737360401b604082015260600190565b60208082526028908201527f41636365737369626c653a2043616c6c6572206973206e6f7420616e2070726f6040820152673c3c9030b236b4b760c11b606082015260800190565b6020808252601d908201527f426f6e644465706f7369746f72793a20636c6f736564206d61726b6574000000604082015260600190565b602080825260199082015278109bdb9911195c1bdcda5d1bdc9e4e881e995c9bc81d5a5b9d603a1b604082015260600190565b60208082526016908201527520b1b1b2b9b9b4b136329d1039b0b6b29030b236b4b760511b604082015260600190565b6020808252601d908201527f426f6e644465706f7369746f72793a207a65726f206361706163697479000000604082015260600190565b6020808252601e908201527f426f6e644465706f7369746f72793a206e6f7420455448206d61726b65740000604082015260600190565b6020808252601f908201527f4465706f7369746f7279203a204554482076616c7565206e6f742073616d6500604082015260600190565b60208082526010908201526f1b9bdb8b595e1a5cdd081b585c9ad95d60821b604082015260600190565b60208082526029908201527f41636365737369626c653a2043616c6c6572206973206e6f7420616e20706f6c60408201526834b1bc9030b236b4b760b91b606082015260800190565b8681528515156020808301919091526001600160a01b0386811660408401528516606083015262ffffff8416608083015261014082019060a083018460005b6005811015613f7e57815183529183019190830190600101613f61565b50505050979650505050505050565b918252602082015260400190565b60008219821115613fae57613fae61406b565b500190565b600082613fce57634e487b7160e01b81526012600452602481fd5b500490565b6000816000190483118215151615613fed57613fed61406b565b500290565b6000828210156140045761400461406b565b500390565b60005b8381101561402457818101518382015260200161400c565b83811115614033576000848401525b50505050565b6000816140485761404861406b565b506000190190565b60006000198214156140645761406461406b565b5060010190565b634e487b7160e01b600052601160045260246000fd5b634e487b7160e01b600052604160045260246000fd5b6001600160a01b0381168114611aab57600080fd5b8015158114611aab57600080fdfe52eafc11f6f81f86878bffd31109a0d92f37506527754f00788853ff9f63b130065f36f0cc9a946e058a78fcf529ed8629c0ad3f6d065007c3c9162fd2c39d6363616c63756c617465546f73416d6f756e74466f724173736574206d657461646174615b5f69645d2e746f735072696365203a202573fb5864e8ff833c3cb2d2d08505e82ff02a43554c74a35d4f5a64e852612783117075726368617361626c654173656574416d6f756e7441744f6e6554696d65206d657461646174615b5f69645d2e746f6b656e5072696365203a202573a2646970667358221220fa41fec99e5403d7152ca704590eeb41606d26da074052c09366f0ca6fb6e4a764736f6c63430008040033",
  "linkReferences": {},
  "deployedLinkReferences": {}
}