{
  "_format": "hh-sol-artifact-1",
  "contractName": "BondDepositoryV1_5",
  "sourceName": "contracts/BondDepositoryV1_5.sol",
  "abi": [
    {
      "inputs": [],
      "stateMutability": "nonpayable",
      "type": "constructor"
    },
    {
      "anonymous": false,
      "inputs": [
        {
          "indexed": false,
          "internalType": "uint256",
          "name": "_marketId",
          "type": "uint256"
        },
        {
          "indexed": false,
          "internalType": "address",
          "name": "bonusRatesAddress",
          "type": "address"
        },
        {
          "indexed": false,
          "internalType": "uint256",
          "name": "bonusRatesId",
          "type": "uint256"
        }
      ],
      "name": "ChangedBonusRateInfo",
      "type": "event"
    },
    {
      "anonymous": false,
      "inputs": [
        {
          "indexed": false,
          "internalType": "uint256",
          "name": "_marketId",
          "type": "uint256"
        },
        {
          "indexed": false,
          "internalType": "bool",
          "name": "_increaseFlag",
          "type": "bool"
        },
        {
          "indexed": false,
          "internalType": "uint256",
          "name": "_increaseAmount",
          "type": "uint256"
        }
      ],
      "name": "ChangedCapacity",
      "type": "event"
    },
    {
      "anonymous": false,
      "inputs": [
        {
          "indexed": false,
          "internalType": "uint256",
          "name": "_marketId",
          "type": "uint256"
        },
        {
          "indexed": false,
          "internalType": "uint256",
          "name": "closeTime",
          "type": "uint256"
        }
      ],
      "name": "ChangedCloseTime",
      "type": "event"
    },
    {
      "anonymous": false,
      "inputs": [
        {
          "indexed": false,
          "internalType": "uint256",
          "name": "_marketId",
          "type": "uint256"
        },
        {
          "indexed": false,
          "internalType": "uint256",
          "name": "_tosPrice",
          "type": "uint256"
        }
      ],
      "name": "ChangedLowerPriceLimit",
      "type": "event"
    },
    {
      "anonymous": false,
      "inputs": [
        {
          "indexed": false,
          "internalType": "address",
          "name": "oralceLibrary",
          "type": "address"
        },
        {
          "indexed": false,
          "internalType": "address",
          "name": "uniswapFactory",
          "type": "address"
        }
      ],
      "name": "ChangedOracleLibrary",
      "type": "event"
    },
    {
      "anonymous": false,
      "inputs": [
        {
          "indexed": false,
          "internalType": "uint256",
          "name": "_marketId",
          "type": "uint256"
        },
        {
          "indexed": false,
          "internalType": "address[]",
          "name": "_pools",
          "type": "address[]"
        }
      ],
      "name": "ChangedPools",
      "type": "event"
    },
    {
      "anonymous": false,
      "inputs": [
        {
          "indexed": false,
          "internalType": "uint256",
          "name": "_marketId",
          "type": "uint256"
        },
        {
          "indexed": false,
          "internalType": "bytes[]",
          "name": "pathes",
          "type": "bytes[]"
        }
      ],
      "name": "ChangedPricePathInfo",
      "type": "event"
    },
    {
      "anonymous": false,
      "inputs": [
        {
          "indexed": false,
          "internalType": "uint256",
          "name": "amount",
          "type": "uint256"
        }
      ],
      "name": "ChangedRemainingTosTolerance",
      "type": "event"
    },
    {
      "anonymous": false,
      "inputs": [
        {
          "indexed": false,
          "internalType": "uint256",
          "name": "marketId",
          "type": "uint256"
        }
      ],
      "name": "ClosedMarket",
      "type": "event"
    },
    {
      "anonymous": false,
      "inputs": [
        {
          "indexed": false,
          "internalType": "uint256",
          "name": "marketId",
          "type": "uint256"
        },
        {
          "indexed": false,
          "internalType": "address",
          "name": "token",
          "type": "address"
        },
        {
          "indexed": false,
          "internalType": "uint256[4]",
          "name": "marketInfos",
          "type": "uint256[4]"
        },
        {
          "indexed": false,
          "internalType": "address",
          "name": "bonusRatesAddress",
          "type": "address"
        },
        {
          "indexed": false,
          "internalType": "uint256",
          "name": "bonusRatesId",
          "type": "uint256"
        },
        {
          "indexed": false,
          "internalType": "uint32",
          "name": "startTime",
          "type": "uint32"
        },
        {
          "indexed": false,
          "internalType": "uint32",
          "name": "endTime",
          "type": "uint32"
        },
        {
          "indexed": false,
          "internalType": "bytes[]",
          "name": "pathes",
          "type": "bytes[]"
        }
      ],
      "name": "CreatedMarket",
      "type": "event"
    },
    {
      "anonymous": false,
      "inputs": [
        {
          "indexed": false,
          "internalType": "address",
          "name": "user",
          "type": "address"
        },
        {
          "indexed": false,
          "internalType": "uint256",
          "name": "marketId",
          "type": "uint256"
        },
        {
          "indexed": false,
          "internalType": "uint256",
          "name": "amount",
          "type": "uint256"
        },
        {
          "indexed": false,
          "internalType": "uint256",
          "name": "payout",
          "type": "uint256"
        },
        {
          "indexed": false,
          "internalType": "bool",
          "name": "isEth",
          "type": "bool"
        },
        {
          "indexed": false,
          "internalType": "uint256",
          "name": "mintAmount",
          "type": "uint256"
        }
      ],
      "name": "Deposited",
      "type": "event"
    },
    {
      "anonymous": false,
      "inputs": [
        {
          "indexed": false,
          "internalType": "address",
          "name": "user",
          "type": "address"
        },
        {
          "indexed": false,
          "internalType": "uint256",
          "name": "marketId",
          "type": "uint256"
        },
        {
          "indexed": false,
          "internalType": "uint256",
          "name": "stakeId",
          "type": "uint256"
        },
        {
          "indexed": false,
          "internalType": "uint256",
          "name": "amount",
          "type": "uint256"
        },
        {
          "indexed": false,
          "internalType": "uint256",
          "name": "minimumTosPrice",
          "type": "uint256"
        },
        {
          "indexed": false,
          "internalType": "uint256",
          "name": "tosValuation",
          "type": "uint256"
        }
      ],
      "name": "ETHDeposited",
      "type": "event"
    },
    {
      "anonymous": false,
      "inputs": [
        {
          "indexed": false,
          "internalType": "address",
          "name": "user",
          "type": "address"
        },
        {
          "indexed": false,
          "internalType": "uint256",
          "name": "marketId",
          "type": "uint256"
        },
        {
          "indexed": false,
          "internalType": "uint256",
          "name": "stakeId",
          "type": "uint256"
        },
        {
          "indexed": false,
          "internalType": "uint256",
          "name": "amount",
          "type": "uint256"
        },
        {
          "indexed": false,
          "internalType": "uint256",
          "name": "minimumTosPrice",
          "type": "uint256"
        },
        {
          "indexed": false,
          "internalType": "uint8",
          "name": "lockWeeks",
          "type": "uint8"
        },
        {
          "indexed": false,
          "internalType": "uint256",
          "name": "tosValuation",
          "type": "uint256"
        }
      ],
      "name": "ETHDepositedWithSTOS",
      "type": "event"
    },
    {
      "anonymous": false,
      "inputs": [
        {
          "indexed": true,
          "internalType": "bytes32",
          "name": "role",
          "type": "bytes32"
        },
        {
          "indexed": true,
          "internalType": "bytes32",
          "name": "previousAdminRole",
          "type": "bytes32"
        },
        {
          "indexed": true,
          "internalType": "bytes32",
          "name": "newAdminRole",
          "type": "bytes32"
        }
      ],
      "name": "RoleAdminChanged",
      "type": "event"
    },
    {
      "anonymous": false,
      "inputs": [
        {
          "indexed": true,
          "internalType": "bytes32",
          "name": "role",
          "type": "bytes32"
        },
        {
          "indexed": true,
          "internalType": "address",
          "name": "account",
          "type": "address"
        },
        {
          "indexed": true,
          "internalType": "address",
          "name": "sender",
          "type": "address"
        }
      ],
      "name": "RoleGranted",
      "type": "event"
    },
    {
      "anonymous": false,
      "inputs": [
        {
          "indexed": true,
          "internalType": "bytes32",
          "name": "role",
          "type": "bytes32"
        },
        {
          "indexed": true,
          "internalType": "address",
          "name": "account",
          "type": "address"
        },
        {
          "indexed": true,
          "internalType": "address",
          "name": "sender",
          "type": "address"
        }
      ],
      "name": "RoleRevoked",
      "type": "event"
    },
    {
      "anonymous": false,
      "inputs": [
        {
          "indexed": false,
          "internalType": "address",
          "name": "calculatorAddress",
          "type": "address"
        }
      ],
      "name": "SetCalculator",
      "type": "event"
    },
    {
      "inputs": [],
      "name": "ADMIN_ROLE",
      "outputs": [
        {
          "internalType": "bytes32",
          "name": "",
          "type": "bytes32"
        }
      ],
      "stateMutability": "view",
      "type": "function"
    },
    {
      "inputs": [],
      "name": "DEFAULT_ADMIN_ROLE",
      "outputs": [
        {
          "internalType": "bytes32",
          "name": "",
          "type": "bytes32"
        }
      ],
      "stateMutability": "view",
      "type": "function"
    },
    {
      "inputs": [
        {
          "internalType": "uint256",
          "name": "_id",
          "type": "uint256"
        },
        {
          "internalType": "uint256",
          "name": "_amount",
          "type": "uint256"
        },
        {
          "internalType": "uint256",
          "name": "_minimumTosPrice",
          "type": "uint256"
        }
      ],
      "name": "ETHDeposit",
      "outputs": [
        {
          "internalType": "uint256",
          "name": "payout_",
          "type": "uint256"
        }
      ],
      "stateMutability": "payable",
      "type": "function"
    },
    {
      "inputs": [
        {
          "internalType": "uint256",
          "name": "_id",
          "type": "uint256"
        },
        {
          "internalType": "uint256",
          "name": "_amount",
          "type": "uint256"
        },
        {
          "internalType": "uint256",
          "name": "_minimumTosPrice",
          "type": "uint256"
        },
        {
          "internalType": "uint8",
          "name": "_lockWeeks",
          "type": "uint8"
        }
      ],
      "name": "ETHDepositWithSTOS",
      "outputs": [
        {
          "internalType": "uint256",
          "name": "payout_",
          "type": "uint256"
        }
      ],
      "stateMutability": "payable",
      "type": "function"
    },
    {
      "inputs": [],
      "name": "POLICY_ROLE",
      "outputs": [
        {
          "internalType": "bytes32",
          "name": "",
          "type": "bytes32"
        }
      ],
      "stateMutability": "view",
      "type": "function"
    },
    {
      "inputs": [
        {
          "internalType": "address",
          "name": "account",
          "type": "address"
        }
      ],
      "name": "addAdmin",
      "outputs": [],
      "stateMutability": "nonpayable",
      "type": "function"
    },
    {
      "inputs": [
        {
          "internalType": "address",
          "name": "_account",
          "type": "address"
        }
      ],
      "name": "addPolicy",
      "outputs": [],
      "stateMutability": "nonpayable",
      "type": "function"
    },
    {
      "inputs": [
        {
          "internalType": "address",
          "name": "_owner",
          "type": "address"
        }
      ],
      "name": "addProxyAdmin",
      "outputs": [],
      "stateMutability": "nonpayable",
      "type": "function"
    },
    {
      "inputs": [],
      "name": "calculator",
      "outputs": [
        {
          "internalType": "address",
          "name": "",
          "type": "address"
        }
      ],
      "stateMutability": "view",
      "type": "function"
    },
    {
      "inputs": [
        {
          "internalType": "uint256",
          "name": "_marketId",
          "type": "uint256"
        },
        {
          "internalType": "address",
          "name": "_bonusRatesAddress",
          "type": "address"
        },
        {
          "internalType": "uint256",
          "name": "_bonusRatesId",
          "type": "uint256"
        }
      ],
      "name": "changeBonusRateInfo",
      "outputs": [],
      "stateMutability": "nonpayable",
      "type": "function"
    },
    {
      "inputs": [
        {
          "internalType": "uint256",
          "name": "_marketId",
          "type": "uint256"
        },
        {
          "internalType": "bool",
          "name": "_increaseFlag",
          "type": "bool"
        },
        {
          "internalType": "uint256",
          "name": "_increaseAmount",
          "type": "uint256"
        }
      ],
      "name": "changeCapacity",
      "outputs": [],
      "stateMutability": "nonpayable",
      "type": "function"
    },
    {
      "inputs": [
        {
          "internalType": "uint256",
          "name": "_marketId",
          "type": "uint256"
        },
        {
          "internalType": "uint256",
          "name": "closeTime",
          "type": "uint256"
        }
      ],
      "name": "changeCloseTime",
      "outputs": [],
      "stateMutability": "nonpayable",
      "type": "function"
    },
    {
      "inputs": [
        {
          "internalType": "uint256",
          "name": "_marketId",
          "type": "uint256"
        },
        {
          "internalType": "uint256",
          "name": "_tosPrice",
          "type": "uint256"
        }
      ],
      "name": "changeLowerPriceLimit",
      "outputs": [],
      "stateMutability": "nonpayable",
      "type": "function"
    },
    {
      "inputs": [
        {
          "internalType": "address",
          "name": "_oralceLibrary",
          "type": "address"
        },
        {
          "internalType": "address",
          "name": "_uniswapFactory",
          "type": "address"
        }
      ],
      "name": "changeOracleLibrary",
      "outputs": [],
      "stateMutability": "nonpayable",
      "type": "function"
    },
    {
      "inputs": [
        {
          "internalType": "uint256",
          "name": "_marketId",
          "type": "uint256"
        },
        {
          "internalType": "bytes[]",
          "name": "pathes",
          "type": "bytes[]"
        }
      ],
      "name": "changePricePathInfo",
      "outputs": [],
      "stateMutability": "nonpayable",
      "type": "function"
    },
    {
      "inputs": [
        {
          "internalType": "uint256",
          "name": "_amount",
          "type": "uint256"
        }
      ],
      "name": "changeRemainingTosTolerance",
      "outputs": [],
      "stateMutability": "nonpayable",
      "type": "function"
    },
    {
      "inputs": [
        {
          "internalType": "uint256",
          "name": "_id",
          "type": "uint256"
        }
      ],
      "name": "close",
      "outputs": [],
      "stateMutability": "nonpayable",
      "type": "function"
    },
    {
      "inputs": [
        {
          "internalType": "address",
          "name": "_token",
          "type": "address"
        },
        {
          "internalType": "uint256[4]",
          "name": "_marketInfos",
          "type": "uint256[4]"
        },
        {
          "internalType": "address",
          "name": "_bonusRatesAddress",
          "type": "address"
        },
        {
          "internalType": "uint256",
          "name": "_bonusRatesId",
          "type": "uint256"
        },
        {
          "internalType": "uint32",
          "name": "_startTime",
          "type": "uint32"
        },
        {
          "internalType": "uint32",
          "name": "_endTime",
          "type": "uint32"
        },
        {
          "internalType": "bytes[]",
          "name": "_pathes",
          "type": "bytes[]"
        }
      ],
      "name": "create",
      "outputs": [
        {
          "internalType": "uint256",
          "name": "id_",
          "type": "uint256"
        }
      ],
      "stateMutability": "nonpayable",
      "type": "function"
    },
    {
      "inputs": [
        {
          "internalType": "address",
          "name": "_account",
          "type": "address"
        }
      ],
      "name": "deletePolicy",
      "outputs": [],
      "stateMutability": "nonpayable",
      "type": "function"
    },
    {
      "inputs": [],
      "name": "dtos",
      "outputs": [
        {
          "internalType": "address",
          "name": "",
          "type": "address"
        }
      ],
      "stateMutability": "view",
      "type": "function"
    },
    {
      "inputs": [
        {
          "internalType": "uint256",
          "name": "_marketId",
          "type": "uint256"
        }
      ],
      "name": "getBasePrice",
      "outputs": [
        {
          "internalType": "uint256",
          "name": "basePrice",
          "type": "uint256"
        },
        {
          "internalType": "uint256",
          "name": "lowerPriceLimit",
          "type": "uint256"
        },
        {
          "internalType": "uint256",
          "name": "uniswapPrice",
          "type": "uint256"
        }
      ],
      "stateMutability": "view",
      "type": "function"
    },
    {
      "inputs": [
        {
          "internalType": "uint256",
          "name": "_marketId",
          "type": "uint256"
        },
        {
          "internalType": "uint8",
          "name": "_lockWeeks",
          "type": "uint8"
        },
        {
          "internalType": "uint256",
          "name": "basePrice",
          "type": "uint256"
        }
      ],
      "name": "getBondingPrice",
      "outputs": [
        {
          "internalType": "uint256",
          "name": "bondingPrice",
          "type": "uint256"
        }
      ],
      "stateMutability": "view",
      "type": "function"
    },
    {
      "inputs": [],
      "name": "getBonds",
      "outputs": [
        {
          "internalType": "uint256[]",
          "name": "",
          "type": "uint256[]"
        },
        {
          "components": [
            {
              "internalType": "address",
              "name": "quoteToken",
              "type": "address"
            },
            {
              "internalType": "uint256",
              "name": "capacity",
              "type": "uint256"
            },
            {
              "internalType": "uint256",
              "name": "endSaleTime",
              "type": "uint256"
            },
            {
              "internalType": "uint256",
              "name": "maxPayout",
              "type": "uint256"
            },
            {
              "internalType": "uint256",
              "name": "tosPrice",
              "type": "uint256"
            }
          ],
          "internalType": "struct LibBondDepository.Market[]",
          "name": "",
          "type": "tuple[]"
        },
        {
          "components": [
            {
              "internalType": "uint8",
              "name": "bondType",
              "type": "uint8"
            },
            {
              "internalType": "uint32",
              "name": "startTime",
              "type": "uint32"
            },
            {
              "internalType": "bool",
              "name": "closed",
              "type": "bool"
            },
            {
              "internalType": "uint256",
              "name": "initialMaxPayout",
              "type": "uint256"
            },
            {
              "internalType": "uint256",
              "name": "capacityUpdatePeriod",
              "type": "uint256"
            },
            {
              "internalType": "uint256",
              "name": "totalSold",
              "type": "uint256"
            }
          ],
          "internalType": "struct LibBondDepositoryV1_5.MarketInfo[]",
          "name": "",
          "type": "tuple[]"
        },
        {
          "components": [
            {
              "internalType": "address",
              "name": "bonusRatesAddress",
              "type": "address"
            },
            {
              "internalType": "uint256",
              "name": "bonusRatesId",
              "type": "uint256"
            }
          ],
          "internalType": "struct LibBondDepositoryV1_5.BonusRateInfo[]",
          "name": "",
          "type": "tuple[]"
        }
      ],
      "stateMutability": "view",
      "type": "function"
    },
    {
      "inputs": [],
      "name": "getMarketList",
      "outputs": [
        {
          "internalType": "uint256[]",
          "name": "",
          "type": "uint256[]"
        }
      ],
      "stateMutability": "view",
      "type": "function"
    },
    {
      "inputs": [
        {
          "internalType": "bytes32",
          "name": "role",
          "type": "bytes32"
        }
      ],
      "name": "getRoleAdmin",
      "outputs": [
        {
          "internalType": "bytes32",
          "name": "",
          "type": "bytes32"
        }
      ],
      "stateMutability": "view",
      "type": "function"
    },
    {
      "inputs": [
        {
          "internalType": "uint256",
          "name": "_marketId",
          "type": "uint256"
        }
      ],
      "name": "getUniswapPrice",
      "outputs": [
        {
          "internalType": "uint256",
          "name": "uniswapPrice",
          "type": "uint256"
        }
      ],
      "stateMutability": "view",
      "type": "function"
    },
    {
      "inputs": [
        {
          "internalType": "bytes32",
          "name": "role",
          "type": "bytes32"
        },
        {
          "internalType": "address",
          "name": "account",
          "type": "address"
        }
      ],
      "name": "grantRole",
      "outputs": [],
      "stateMutability": "nonpayable",
      "type": "function"
    },
    {
      "inputs": [
        {
          "internalType": "bytes32",
          "name": "role",
          "type": "bytes32"
        },
        {
          "internalType": "address",
          "name": "account",
          "type": "address"
        }
      ],
      "name": "hasRole",
      "outputs": [
        {
          "internalType": "bool",
          "name": "",
          "type": "bool"
        }
      ],
      "stateMutability": "view",
      "type": "function"
    },
    {
      "inputs": [
        {
          "internalType": "address",
          "name": "account",
          "type": "address"
        }
      ],
      "name": "isAdmin",
      "outputs": [
        {
          "internalType": "bool",
          "name": "",
          "type": "bool"
        }
      ],
      "stateMutability": "view",
      "type": "function"
    },
    {
      "inputs": [
        {
          "internalType": "uint256",
          "name": "_marketId",
          "type": "uint256"
        }
      ],
      "name": "isOpened",
      "outputs": [
        {
          "internalType": "bool",
          "name": "closedBool",
          "type": "bool"
        }
      ],
      "stateMutability": "view",
      "type": "function"
    },
    {
      "inputs": [
        {
          "internalType": "address",
          "name": "account",
          "type": "address"
        }
      ],
      "name": "isPolicy",
      "outputs": [
        {
          "internalType": "bool",
          "name": "",
          "type": "bool"
        }
      ],
      "stateMutability": "view",
      "type": "function"
    },
    {
      "inputs": [
        {
          "internalType": "address",
          "name": "account",
          "type": "address"
        }
      ],
      "name": "isProxyAdmin",
      "outputs": [
        {
          "internalType": "bool",
          "name": "",
          "type": "bool"
        }
      ],
      "stateMutability": "view",
      "type": "function"
    },
    {
      "inputs": [
        {
          "internalType": "uint256",
          "name": "",
          "type": "uint256"
        }
      ],
      "name": "marketList",
      "outputs": [
        {
          "internalType": "uint256",
          "name": "",
          "type": "uint256"
        }
      ],
      "stateMutability": "view",
      "type": "function"
    },
    {
      "inputs": [
        {
          "internalType": "uint256",
          "name": "",
          "type": "uint256"
        }
      ],
      "name": "markets",
      "outputs": [
        {
          "internalType": "address",
          "name": "quoteToken",
          "type": "address"
        },
        {
          "internalType": "uint256",
          "name": "capacity",
          "type": "uint256"
        },
        {
          "internalType": "uint256",
          "name": "endSaleTime",
          "type": "uint256"
        },
        {
          "internalType": "uint256",
          "name": "maxPayout",
          "type": "uint256"
        },
        {
          "internalType": "uint256",
          "name": "tosPrice",
          "type": "uint256"
        }
      ],
      "stateMutability": "view",
      "type": "function"
    },
    {
      "inputs": [],
      "name": "oracleLibrary",
      "outputs": [
        {
          "internalType": "address",
          "name": "",
          "type": "address"
        }
      ],
      "stateMutability": "view",
      "type": "function"
    },
    {
      "inputs": [
        {
          "internalType": "uint256",
          "name": "_marketId",
          "type": "uint256"
        }
      ],
      "name": "possibleMaxCapacity",
      "outputs": [
        {
          "internalType": "uint256",
          "name": "periodicCapacity",
          "type": "uint256"
        },
        {
          "internalType": "uint256",
          "name": "currentCapacity",
          "type": "uint256"
        }
      ],
      "stateMutability": "view",
      "type": "function"
    },
    {
      "inputs": [],
      "name": "remainingTosTolerance",
      "outputs": [
        {
          "internalType": "uint256",
          "name": "",
          "type": "uint256"
        }
      ],
      "stateMutability": "view",
      "type": "function"
    },
    {
      "inputs": [],
      "name": "removeAdmin",
      "outputs": [],
      "stateMutability": "nonpayable",
      "type": "function"
    },
    {
      "inputs": [],
      "name": "removePolicy",
      "outputs": [],
      "stateMutability": "nonpayable",
      "type": "function"
    },
    {
      "inputs": [],
      "name": "removeProxyAdmin",
      "outputs": [],
      "stateMutability": "nonpayable",
      "type": "function"
    },
    {
      "inputs": [
        {
          "internalType": "bytes32",
          "name": "role",
          "type": "bytes32"
        },
        {
          "internalType": "address",
          "name": "account",
          "type": "address"
        }
      ],
      "name": "renounceRole",
      "outputs": [],
      "stateMutability": "nonpayable",
      "type": "function"
    },
    {
      "inputs": [
        {
          "internalType": "bytes32",
          "name": "role",
          "type": "bytes32"
        },
        {
          "internalType": "address",
          "name": "account",
          "type": "address"
        }
      ],
      "name": "revokeRole",
      "outputs": [],
      "stateMutability": "nonpayable",
      "type": "function"
    },
    {
      "inputs": [
        {
          "internalType": "uint256",
          "name": "_marketId",
          "type": "uint256"
        }
      ],
      "name": "salePeriod",
      "outputs": [
        {
          "internalType": "uint256",
          "name": "numberOfPeriods",
          "type": "uint256"
        },
        {
          "internalType": "uint256",
          "name": "numberOfPeriodsPassed",
          "type": "uint256"
        }
      ],
      "stateMutability": "view",
      "type": "function"
    },
    {
      "inputs": [],
      "name": "staking",
      "outputs": [
        {
          "internalType": "contract IStaking",
          "name": "",
          "type": "address"
        }
      ],
      "stateMutability": "view",
      "type": "function"
    },
    {
      "inputs": [
        {
          "internalType": "bytes4",
          "name": "interfaceId",
          "type": "bytes4"
        }
      ],
      "name": "supportsInterface",
      "outputs": [
        {
          "internalType": "bool",
          "name": "",
          "type": "bool"
        }
      ],
      "stateMutability": "view",
      "type": "function"
    },
    {
      "inputs": [],
      "name": "tos",
      "outputs": [
        {
          "internalType": "contract IERC20",
          "name": "",
          "type": "address"
        }
      ],
      "stateMutability": "view",
      "type": "function"
    },
    {
      "inputs": [],
      "name": "totalMarketCount",
      "outputs": [
        {
          "internalType": "uint256",
          "name": "",
          "type": "uint256"
        }
      ],
      "stateMutability": "view",
      "type": "function"
    },
    {
      "inputs": [
        {
          "internalType": "address",
          "name": "newAdmin",
          "type": "address"
        }
      ],
      "name": "transferAdmin",
      "outputs": [],
      "stateMutability": "nonpayable",
      "type": "function"
    },
    {
      "inputs": [
        {
          "internalType": "address",
          "name": "newAdmin",
          "type": "address"
        }
      ],
      "name": "transferProxyAdmin",
      "outputs": [],
      "stateMutability": "nonpayable",
      "type": "function"
    },
    {
      "inputs": [],
      "name": "treasury",
      "outputs": [
        {
          "internalType": "address",
          "name": "",
          "type": "address"
        }
      ],
      "stateMutability": "view",
      "type": "function"
    },
    {
      "inputs": [],
      "name": "uniswapFactory",
      "outputs": [
        {
          "internalType": "address",
          "name": "",
          "type": "address"
        }
      ],
      "stateMutability": "view",
      "type": "function"
    },
    {
      "inputs": [],
      "name": "uniswapV3Factory",
      "outputs": [
        {
          "internalType": "address",
          "name": "",
          "type": "address"
        }
      ],
      "stateMutability": "view",
      "type": "function"
    },
    {
      "inputs": [
        {
          "internalType": "uint256",
          "name": "_marketId",
          "type": "uint256"
        }
      ],
      "name": "viewMarket",
      "outputs": [
        {
          "components": [
            {
              "internalType": "address",
              "name": "quoteToken",
              "type": "address"
            },
            {
              "internalType": "uint256",
              "name": "capacity",
              "type": "uint256"
            },
            {
              "internalType": "uint256",
              "name": "endSaleTime",
              "type": "uint256"
            },
            {
              "internalType": "uint256",
              "name": "maxPayout",
              "type": "uint256"
            },
            {
              "internalType": "uint256",
              "name": "tosPrice",
              "type": "uint256"
            }
          ],
          "internalType": "struct LibBondDepository.Market",
          "name": "market",
          "type": "tuple"
        },
        {
          "components": [
            {
              "internalType": "uint8",
              "name": "bondType",
              "type": "uint8"
            },
            {
              "internalType": "uint32",
              "name": "startTime",
              "type": "uint32"
            },
            {
              "internalType": "bool",
              "name": "closed",
              "type": "bool"
            },
            {
              "internalType": "uint256",
              "name": "initialMaxPayout",
              "type": "uint256"
            },
            {
              "internalType": "uint256",
              "name": "capacityUpdatePeriod",
              "type": "uint256"
            },
            {
              "internalType": "uint256",
              "name": "totalSold",
              "type": "uint256"
            }
          ],
          "internalType": "struct LibBondDepositoryV1_5.MarketInfo",
          "name": "marketInfo",
          "type": "tuple"
        },
        {
          "components": [
            {
              "internalType": "address",
              "name": "bonusRatesAddress",
              "type": "address"
            },
            {
              "internalType": "uint256",
              "name": "bonusRatesId",
              "type": "uint256"
            }
          ],
          "internalType": "struct LibBondDepositoryV1_5.BonusRateInfo",
          "name": "bonusInfo",
          "type": "tuple"
        },
        {
          "internalType": "bytes[]",
          "name": "pricePathes",
          "type": "bytes[]"
        }
      ],
      "stateMutability": "view",
      "type": "function"
    }
  ],
  "bytecode": "0x608060405234801561001057600080fd5b5068056bc75e2d63100000600955614e848061002d6000396000f3fe60806040526004361061031a5760003560e01c806375b238fc116101ab578063b1283e77116100f7578063ce3e39c011610095578063f47f2f1d1161006f578063f47f2f1d146109e2578063f98e422f14610a02578063fad1c85c14610a22578063fc79f0e814610a4257600080fd5b8063ce3e39c014610982578063d547741f146109a2578063e4cbc0b3146109c257600080fd5b8063b84ef081116100d1578063b84ef0811461090d578063bd4541ff1461092d578063be72f2d31461094d578063c8f899cd1461096257600080fd5b8063b1283e7714610841578063b1667adf146108c7578063b7170979146108f757600080fd5b806391d14854116101645780639a202d471161013e5780639a202d47146107d75780639e8332cd146107ec578063a217fddf1461080c578063a9d534361461082157600080fd5b806391d148541461077757806396f1557c1461079757806398735bc2146107b757600080fd5b806375b238fc146106b05780637a57cbdb146106d25780638356ca4f146106f257806389f395de146107125780638b140f6b146107325780638bdb2afa1461075757600080fd5b80634cf088d91161026a57806361d027b3116102235780636c9daf14116101fd5780636c9daf14146106305780637048027514610650578063708d5c151461067057806375829def1461069057600080fd5b806361d027b3146105e857806365cb3a831461060857806366a3133b1461061d57600080fd5b80634cf088d9146105335780634f91f870146105535780635b549182146105665780635b9907a4146105865780635fabdf7c146105a85780635faf46bb146105c857600080fd5b8063248a9ca3116102d75780632f2ff15d116102b15780632f2ff15d146104be57806331c8d924146104de57806336568abe146104fe5780634c8df5351461051e57600080fd5b8063248a9ca31461043657806324d7806c1461046657806326fca81c1461048657600080fd5b806301ffc9a71461031f5780630aebeb4e1461035457806314faecda1461037657806316ae917b146103ab57806322985246146103e6578063232b956c14610416575b600080fd5b34801561032b57600080fd5b5061033f61033a36600461435d565b610a62565b60405190151581526020015b60405180910390f35b34801561036057600080fd5b5061037461036f366004614323565b610a99565b005b34801561038257600080fd5b50610396610391366004614323565b610be5565b6040805192835260208301919091520161034b565b3480156103b757600080fd5b506103cb6103c6366004614323565b610dbb565b6040805193845260208401929092529082015260600161034b565b3480156103f257600080fd5b50610408600080516020614e2f83398151915281565b60405190815260200161034b565b34801561042257600080fd5b50610408610431366004614323565b610deb565b34801561044257600080fd5b50610408610451366004614323565b60009081526008602052604090206001015490565b34801561047257600080fd5b5061033f610481366004614202565b610e0c565b34801561049257600080fd5b50600a546104a6906001600160a01b031681565b6040516001600160a01b03909116815260200161034b565b3480156104ca57600080fd5b506103746104d936600461433b565b610e26565b3480156104ea57600080fd5b506104086104f9366004614323565b610e51565b34801561050a57600080fd5b5061037461051936600461433b565b611035565b34801561052a57600080fd5b50600654610408565b34801561053f57600080fd5b506001546104a6906001600160a01b031681565b610408610561366004614547565b6110b3565b34801561057257600080fd5b506004546104a6906001600160a01b031681565b34801561059257600080fd5b5061059b611400565b60405161034b91906147c9565b3480156105b457600080fd5b506103746105c3366004614202565b611458565b3480156105d457600080fd5b5061033f6105e3366004614323565b611498565b3480156105f457600080fd5b506002546104a6906001600160a01b031681565b34801561061457600080fd5b506103746114eb565b61040861062b36600461451c565b61152a565b34801561063c57600080fd5b5061037461064b3660046143f3565b611802565b34801561065c57600080fd5b5061037461066b366004614202565b611b49565b34801561067c57600080fd5b5061037461068b3660046144fb565b611b86565b34801561069c57600080fd5b506103746106ab366004614202565b611c71565b3480156106bc57600080fd5b50610408600080516020614e0f83398151915281565b3480156106de57600080fd5b506104086106ed366004614585565b611d78565b3480156106fe57600080fd5b5061037461070d366004614202565b611ebc565b34801561071e57600080fd5b506000546104a6906001600160a01b031681565b34801561073e57600080fd5b50610747611f9a565b60405161034b94939291906147dc565b34801561076357600080fd5b50600b546104a6906001600160a01b031681565b34801561078357600080fd5b5061033f61079236600461433b565b612358565b3480156107a357600080fd5b506103746107b2366004614202565b612383565b3480156107c357600080fd5b506104086107d236600461424e565b6123b3565b3480156107e357600080fd5b50610374612a23565b3480156107f857600080fd5b506103746108073660046144c0565b612a6f565b34801561081857600080fd5b50610408600081565b34801561082d57600080fd5b5061037461083c36600461421c565b612c2e565b34801561084d57600080fd5b5061089561085c366004614323565b600760205260009081526040902080546001820154600283015460038401546004909401546001600160a01b0390931693919290919085565b604080516001600160a01b0390961686526020860194909452928401919091526060830152608082015260a00161034b565b3480156108d357600080fd5b506108e76108e2366004614323565b612d77565b60405161034b9493929190614ac5565b34801561090357600080fd5b5061040860095481565b34801561091957600080fd5b50610374610928366004614202565b61302b565b34801561093957600080fd5b506103746109483660046143bf565b613068565b34801561095957600080fd5b506103746132e6565b34801561096e57600080fd5b5061037461097d366004614323565b613316565b34801561098e57600080fd5b506003546104a6906001600160a01b031681565b3480156109ae57600080fd5b506103746109bd36600461433b565b6133b6565b3480156109ce57600080fd5b506103966109dd366004614323565b6133dc565b3480156109ee57600080fd5b5061033f6109fd366004614202565b613567565b348015610a0e57600080fd5b506005546104a6906001600160a01b031681565b348015610a2e57600080fd5b5061033f610a3d366004614202565b613573565b348015610a4e57600080fd5b50610374610a5d3660046144fb565b61358d565b60006001600160e01b03198216637965db0b60e01b1480610a9357506301ffc9a760e01b6001600160e01b03198316145b92915050565b610aa233613573565b610ac75760405162461bcd60e51b8152600401610abe90614a7c565b60405180910390fd5b6000818152600760205260409020600201548190610af75760405162461bcd60e51b8152600401610abe90614a52565b600082815260076020526040902060020154421080610b29575060095460008381526007602052604090206001015411155b80610b4957506000828152600c6020526040902054600160281b900460ff165b610b865760405162461bcd60e51b815260206004820152600e60248201526d185b1c9958591e4818db1bdcd95960921b6044820152606401610abe565b6000828152600c602052604090819020805460ff60281b1916600160281b17815590517f065f36f0cc9a946e058a78fcf529ed8629c0ad3f6d065007c3c9162fd2c39d6390610bd89085815260200190565b60405180910390a1505050565b6000818152600c60209081526040808320815160c081018352815460ff808216835263ffffffff610100830416958301869052600160281b9091041615159281019290925260018101546060830152600281015460808301526003015460a0820152829115610db557600084815260076020908152604091829020825160a08101845281546001600160a01b03168152600182015481840152600282015493810184905260038201546060820152600490910154608082015290830151909163ffffffff9091161015610db3576000826020015163ffffffff168260400151610cce9190614d0a565b9050826080015181610ce09190614cd7565b945060018360800151118015610d0557506000836080015182610d039190614db8565b115b15610d185784610d1481614d9d565b9550505b826020015163ffffffff1642118015610d345750816040015142105b15610db15760808301516020840151610d539063ffffffff1642614d0a565b610d5d9190614cd7565b935060008360800151846020015163ffffffff1642610d7c9190614d0a565b610d869190614db8565b905060018460800151118015610d9c5750600081115b15610daf5784610dab81614d9d565b9550505b505b505b505b50915091565b60008181526007602052604081206004015481610dd784610e51565b9050610de38282613706565b949193509150565b60068181548110610dfb57600080fd5b600091825260209091200154905081565b6000610a93600080516020614e0f83398151915283612358565b600082815260086020526040902060010154610e42813361371d565b610e4c8383613781565b505050565b6000818152600e6020908152604080832080548251818502810185019093528083528493849084015b82821015610f26578382906000526020600020018054610e9990614d68565b80601f0160208091040260200160405190810160405280929190818152602001828054610ec590614d68565b8015610f125780601f10610ee757610100808354040283529160200191610f12565b820191906000526020600020905b815481529060010190602001808311610ef557829003601f168201915b505050505081526020019060010190610e7a565b50505050905060008151111561102f576000805b825181101561102c57600a54600b5484516001600160a01b03928316926393eaab8a921690869085908110610f7f57634e487b7160e01b600052603260045260246000fd5b6020026020010151670de0b6b3a76400006040518463ffffffff1660e01b8152600401610fae93929190614795565b60206040518083038186803b158015610fc657600080fd5b505afa158015610fda573d6000803e3d6000fd5b505050506040513d601f19601f82011682018060405250810190610ffe91906143a7565b91508061100d5781935061101a565b6110178483613807565b93505b8061102481614d9d565b915050610f3a565b50505b50919050565b6001600160a01b03811633146110a55760405162461bcd60e51b815260206004820152602f60248201527f416363657373436f6e74726f6c3a2063616e206f6e6c792072656e6f756e636560448201526e103937b632b9903337b91039b2b63360891b6064820152608401610abe565b6110af8282613816565b5050565b6000848152600c602052604081205485904261010090910463ffffffff16106110ee5760405162461bcd60e51b8152600401610abe9061495e565b6000818152600c6020526040902054600160281b900460ff16156111245760405162461bcd60e51b8152600401610abe906149e7565b60008181526007602052604090206002015442106111545760405162461bcd60e51b8152600401610abe906149e7565b6000818152600c6020908152604080832060030154600790925290912060010154116111925760405162461bcd60e51b8152600401610abe90614989565b60008681526007602052604090205486906001600160a01b03161580156111c9575060008181526007602052604090206002015415155b6112065760405162461bcd60e51b815260206004820152600e60248201526d1b9bdd08115512081b585c9ad95d60921b6044820152606401610abe565b85806112245760405162461bcd60e51b8152600401610abe906149b0565b8634146112435760405162461bcd60e51b8152600401610abe90614a0e565b60018560ff16116112a65760405162461bcd60e51b815260206004820152602760248201527f5f6c6f636b5765656b73206d7573742062652067726561746572207468616e2060448201526618903bb2b2b59760c91b6064820152608401610abe565b60006112b53389898c8a61387d565b60015460405163980b109760e01b815233600482015260248101849052604481018d905260ff8a166064820152608481018390529297509092506000916001600160a01b039091169063980b10979060a401602060405180830381600087803b15801561132157600080fd5b505af1158015611335573d6000803e3d6000fd5b505050506040513d601f19601f8201168201806040525081019061135991906143a7565b6002546040519192506001600160a01b0316903480156108fc02916000818181858888f19350505050158015611393573d6000803e3d6000fd5b5060408051338152602081018c9052908101829052606081018a90526080810189905260ff881660a082015260c081018790527fffe45a5856ef7d1b047c3bac34e04d2d075c162ac936cea791b8e14b6c2b9efc9060e00160405180910390a15050505050949350505050565b6060600680548060200260200160405190810160405280929190818152602001828054801561144e57602002820191906000526020600020905b81548152602001906001019080831161143a575b5050505050905090565b61146133613567565b61147d5760405162461bcd60e51b8152600401610abe90614916565b611495600080516020614e2f833981519152826133b6565b50565b60008181526007602052604081206002015442108015610a9357506009546000838152600c60205260409020600301546114d29190614cbf565b6000838152600760205260409020600101541192915050565b6114f433613573565b6115105760405162461bcd60e51b8152600401610abe90614a7c565b611528600080516020614e2f83398151915233611035565b565b6000838152600c602052604081205484904261010090910463ffffffff16106115655760405162461bcd60e51b8152600401610abe9061495e565b6000818152600c6020526040902054600160281b900460ff161561159b5760405162461bcd60e51b8152600401610abe906149e7565b60008181526007602052604090206002015442106115cb5760405162461bcd60e51b8152600401610abe906149e7565b6000818152600c6020908152604080832060030154600790925290912060010154116116095760405162461bcd60e51b8152600401610abe90614989565b60008581526007602052604090205485906001600160a01b0316158015611640575060008181526007602052604090206002015415155b61167d5760405162461bcd60e51b815260206004820152600e60248201526d1b9bdd08115512081b585c9ad95d60921b6044820152606401610abe565b848061169b5760405162461bcd60e51b8152600401610abe906149b0565b8534146116ba5760405162461bcd60e51b8152600401610abe90614a0e565b60006116ca3388888b600061387d565b60015460405163332b01f360e01b815233600482015260248101849052604481018c9052606481018390529297509092506000916001600160a01b039091169063332b01f390608401602060405180830381600087803b15801561172d57600080fd5b505af1158015611741573d6000803e3d6000fd5b505050506040513d601f19601f8201168201806040525081019061176591906143a7565b6002546040519192506001600160a01b0316903480156108fc02916000818181858888f1935050505015801561179f573d6000803e3d6000fd5b5060408051338152602081018b9052908101829052606081018990526080810188905260a081018790527fbbdec43ed87f6ff154bf2e9b39d20bb84c7aa44ae16d0613f28025c575a4911a9060c00160405180910390a150505050509392505050565b61180b33613573565b6118275760405162461bcd60e51b8152600401610abe90614a7c565b6000828152600c602052604090205482904261010090910463ffffffff16106118625760405162461bcd60e51b8152600401610abe9061495e565b6000818152600c6020526040902054600160281b900460ff16156118985760405162461bcd60e51b8152600401610abe906149e7565b60008181526007602052604090206002015442106118c85760405162461bcd60e51b8152600401610abe906149e7565b6000818152600c6020908152604080832060030154600790925290912060010154116119065760405162461bcd60e51b8152600401610abe90614989565b6000838152600e6020526040902054156119fa576000838152600e602052604081205461193590600190614d0a565b90505b8015611999576000848152600e6020526040902080548061196957634e487b7160e01b600052603160045260246000fd5b6001900381819060005260206000200160006119859190613f44565b90558061199181614d51565b915050611938565b506000838152600e602052604090208054806119c557634e487b7160e01b600052603160045260246000fd5b6001900381819060005260206000200160006119e19190613f44565b90556000838152600e602052604081206119fa91613f7e565b815115611b185781516001600160401b03811115611a2857634e487b7160e01b600052604160045260246000fd5b604051908082528060200260200182016040528015611a5b57816020015b6060815260200190600190039081611a465790505b506000848152600e602090815260409091208251611a7f9391929190910190613f9c565b5060005b8251811015611b1657828181518110611aac57634e487b7160e01b600052603260045260246000fd5b6020026020010151600e60008681526020019081526020016000208281548110611ae657634e487b7160e01b600052603260045260246000fd5b906000526020600020019080519060200190611b03929190613ff9565b5080611b0e81614d9d565b915050611a83565b505b7f31fe29a6e5ec6cec99ac90e78c870ff8d3d42d4f5a85e8249f20f722bd2992318383604051610bd8929190614c23565b611b5233613567565b611b6e5760405162461bcd60e51b8152600401610abe90614916565b611495600080516020614e0f83398151915282610e26565b611b8f33613573565b611bab5760405162461bcd60e51b8152600401610abe90614a7c565b6000828152600760205260409020600201548290611bdb5760405162461bcd60e51b8152600401610abe90614a52565b428211611c1b5760405162461bcd60e51b815260206004820152600e60248201526d7061737420636c6f736554696d6560901b6044820152606401610abe565b600083815260076020908152604091829020600281018590558251868152918201859052917fc3daa84eedfacd6851bbf80d00ce11271bf926ac96c3d361c0307023c939d4b3910160405180910390a150505050565b611c7a33610e0c565b80611c895750611c8933613567565b611ca55760405162461bcd60e51b8152600401610abe906148d4565b6001600160a01b038116611cf65760405162461bcd60e51b815260206004820152601860248201527741636365737369626c653a207a65726f206164647265737360401b6044820152606401610abe565b336001600160a01b0382161415611d485760405162461bcd60e51b815260206004820152601660248201527520b1b1b2b9b9b4b136329d1039b0b6b29030b236b4b760511b6044820152606401610abe565b611d60600080516020614e0f83398151915282610e26565b611495600080516020614e0f83398151915233611035565b6000611d8384610dbb565b50909250508115801590611d9a575060008360ff16115b15611ead576000848152600d6020908152604091829020825180840190935280546001600160a01b03168084526001909101549183019190915215801590611de55750602081015115155b15611eab5780516020820151604051633266c98760e01b8152600481019190915260ff861660248201526000916001600160a01b031690633266c9879060440160206040518083038186803b158015611e3d57600080fd5b505afa158015611e51573d6000803e3d6000fd5b505050506040513d601f19601f82011682018060405250810190611e759190614385565b905061ffff811615611ea957612710611e9261ffff831686614ceb565b611e9c9190614cd7565b611ea69085614cbf565b92505b505b505b80611eb55750805b9392505050565b611ec533613567565b611ee15760405162461bcd60e51b8152600401610abe90614916565b6001600160a01b038116611f325760405162461bcd60e51b815260206004820152601860248201527741636365737369626c653a207a65726f206164647265737360401b6044820152606401610abe565b336001600160a01b0382161415611f845760405162461bcd60e51b815260206004820152601660248201527520b1b1b2b9b9b4b136329d1039b0b6b29030b236b4b760511b6044820152606401610abe565b611f8f600082610e26565b611495600033611035565b6006546060908190819081906000816001600160401b03811115611fce57634e487b7160e01b600052604160045260246000fd5b604051908082528060200260200182016040528015611ff7578160200160208202803683370190505b5090506000826001600160401b0381111561202257634e487b7160e01b600052604160045260246000fd5b60405190808252806020026020018201604052801561205b57816020015b612048614079565b8152602001906001900390816120405790505b5090506000836001600160401b0381111561208657634e487b7160e01b600052604160045260246000fd5b6040519080825280602002602001820160405280156120cb57816020015b60408051808201909152600080825260208201528152602001906001900390816120a45790505b5090506000846001600160401b038111156120f657634e487b7160e01b600052604160045260246000fd5b60405190808252806020026020018201604052801561215657816020015b6040805160c08101825260008082526020808301829052928201819052606082018190526080820181905260a082015282526000199092019101816121145790505b50905060005b858110156123475760006006828154811061218757634e487b7160e01b600052603260045260246000fd5b90600052602060002001549050808683815181106121b557634e487b7160e01b600052603260045260246000fd5b602090810291909101810191909152600082815260078252604090819020815160a08101835281546001600160a01b0316815260018201549381019390935260028101549183019190915260038101546060830152600401546080820152855186908490811061223557634e487b7160e01b600052603260045260246000fd5b6020908102919091018101919091526000828152600c8252604090819020815160c081018352815460ff808216835263ffffffff61010083041695830195909552600160281b900490931615159183019190915260018101546060830152600281015460808301526003015460a082015283518490849081106122c857634e487b7160e01b600052603260045260246000fd5b6020908102919091018101919091526000828152600d8252604090819020815180830190925280546001600160a01b031682526001015491810191909152845185908490811061232857634e487b7160e01b600052603260045260246000fd5b602002602001018190525050808061233f90614d9d565b91505061215c565b509298919750919550909350915050565b60009182526008602090815260408084206001600160a01b0393909316845291905290205460ff1690565b61238c33613567565b6123a85760405162461bcd60e51b8152600401610abe90614916565b611495600082613d59565b60006123be33613573565b6123da5760405162461bcd60e51b8152600401610abe90614a7c565b6020880135806123fc5760405162461bcd60e51b8152600401610abe906149b0565b60608901358061241e5760405162461bcd60e51b8152600401610abe906149b0565b8663ffffffff811661245f5760405162461bcd60e51b815260206004820152600a6024820152697a65726f2076616c756560b01b6044820152606401610abe565b8663ffffffff81166124a05760405162461bcd60e51b815260206004820152600a6024820152697a65726f2076616c756560b01b6044820152606401610abe565b6009548c35116124f25760405162461bcd60e51b815260206004820152601d60248201527f746f74616c53616c65416d6f756e7420697320746f6f20736d616c6c2e0000006044820152606401610abe565b8863ffffffff168863ffffffff1611801561251657504261ffff168863ffffffff16115b61256c5760405162461bcd60e51b815260206004820152602160248201527f696e76616c6964205f737461727454696d65206f7220656e6453616c6554696d6044820152606560f81b6064820152608401610abe565b600160009054906101000a90046001600160a01b03166001600160a01b03166330e06e8b6040518163ffffffff1660e01b8152600401602060405180830381600087803b1580156125bc57600080fd5b505af11580156125d0573d6000803e3d6000fd5b505050506040513d601f19601f820116820180604052508101906125f491906143a7565b94506040518060a001604052808e6001600160a01b031681526020018d60006004811061263157634e487b7160e01b600052603260045260246000fd5b602002013581526020018963ffffffff168152602001600081526020018d60016004811061266f57634e487b7160e01b600052603260045260246000fd5b602090810291909101359091526000878152600782526040808220845181546001600160a01b0319166001600160a01b03909116178155928401516001808501919091558482015160028501556060850151600385015560809094015160049093019290925560068054808501825591527ff652222313e28459528d920b65115c16c04f3efc82aaedc97be59f3f377c0d3f01879055805160c0810190915290819060ff16815263ffffffff8b166020820152600060408201526060018d6002602002013581526020018d60036004811061275a57634e487b7160e01b600052603260045260246000fd5b6020908102919091013582526000918101829052878252600c81526040918290208351815492850151938501511515600160281b0260ff60281b1963ffffffff9095166101000264ffffffffff1990941660ff909216919091179290921792909216178155606082015160018201556080820151600282015560a0909101516003909101556001600160a01b038b16158015906127f657508915155b15612842576040805180820182526001600160a01b038d8116825260208083018e815260008a8152600d909252939020915182546001600160a01b031916911617815590516001909101555b851561295d57856001600160401b0381111561286e57634e487b7160e01b600052604160045260246000fd5b6040519080825280602002602001820160405280156128a157816020015b606081526020019060019003908161288c5790505b506000868152600e6020908152604090912082516128c59391929190910190613f9c565b5060005b8681101561295b578787828181106128f157634e487b7160e01b600052603260045260246000fd5b90506020028101906129039190614c44565b6000888152600e6020526040902080548490811061293157634e487b7160e01b600052603260045260246000fd5b9060005260206000200191906129489291906140b1565b508061295381614d9d565b9150506128c9565b505b6001600160a01b038d16156129cc57600254604051639ea6498560e01b81526001600160a01b038f8116600483015290911690639ea6498590602401600060405180830381600087803b1580156129b357600080fd5b505af11580156129c7573d6000803e3d6000fd5b505050505b7f8ab28c87df9bf58381e9fb04197c035ef6dcc5dce0d69b6462f8efbd282131a3858e8e8e8e8e8e8e8e604051612a0b99989796959493929190614b3b565b60405180910390a15050505098975050505050505050565b612a2c33610e0c565b80612a3b5750612a3b33613567565b612a575760405162461bcd60e51b8152600401610abe906148d4565b611528600080516020614e0f83398151915233611035565b612a7833613573565b612a945760405162461bcd60e51b8152600401610abe90614a7c565b8080612ab25760405162461bcd60e51b8152600401610abe906149b0565b6000848152600760205260409020600201548490612ae25760405162461bcd60e51b8152600401610abe90614a52565b6000858152600760209081526040808320600c9092529091208515612b205784826001016000828254612b159190614cbf565b90915550612b7b9050565b80600301548260010154612b349190614d0a565b8511612b4e5784826001016000828254612b159190614d0a565b80600301548260010154612b629190614d0a565b826001016000828254612b759190614d0a565b90915550505b60095481600301548360010154612b929190614d0a565b11612be357805460ff60281b1916600160281b1781556040517f065f36f0cc9a946e058a78fcf529ed8629c0ad3f6d065007c3c9162fd2c39d6390612bda9089815260200190565b60405180910390a15b6040805188815287151560208201529081018690527f5e6b6b7fc7d8fb3137611da2ee2b2529d67d6d9e3ae513c9431123de9aa8b88e9060600160405180910390a150505050505050565b612c3733613573565b612c535760405162461bcd60e51b8152600401610abe90614a7c565b816001600160a01b038116612caa5760405162461bcd60e51b815260206004820152601b60248201527f426f6e644465706f7369746f72793a7a65726f206164647265737300000000006044820152606401610abe565b600a546001600160a01b038481169116141580612cd55750600b546001600160a01b03838116911614155b612d105760405162461bcd60e51b815260206004820152600c60248201526b73616d65206164647265737360a01b6044820152606401610abe565b600a80546001600160a01b038581166001600160a01b03199283168117909355600b80549186169190921681179091556040805192835260208301919091527fe834872e75f018397d98a9d1ffee1466fa0df9ebb4a70033cf59095c8fdc27139101610bd8565b612d7f614079565b6040805160c081018252600080825260208201819052918101829052606081018290526080810182905260a08101919091526040805180820190915260008082526020820152606060076000868152602001908152602001600020600c6000878152602001908152602001600020600d6000888152602001908152602001600020600e6000898152602001908152602001600020836040518060a00160405290816000820160009054906101000a90046001600160a01b03166001600160a01b03166001600160a01b031681526020016001820154815260200160028201548152602001600382015481526020016004820154815250509350826040518060c00160405290816000820160009054906101000a900460ff1660ff1660ff1681526020016000820160019054906101000a900463ffffffff1663ffffffff1663ffffffff1681526020016000820160059054906101000a900460ff1615151515815260200160018201548152602001600282015481526020016003820154815250509250816040518060400160405290816000820160009054906101000a90046001600160a01b03166001600160a01b03166001600160a01b03168152602001600182015481525050915080805480602002602001604051908101604052809291908181526020016000905b82821015613016578382906000526020600020018054612f8990614d68565b80601f0160208091040260200160405190810160405280929190818152602001828054612fb590614d68565b80156130025780601f10612fd757610100808354040283529160200191613002565b820191906000526020600020905b815481529060010190602001808311612fe557829003601f168201915b505050505081526020019060010190612f6a565b50505050905093509350935093509193509193565b61303433613567565b6130505760405162461bcd60e51b8152600401610abe90614916565b611495600080516020614e2f83398151915282610e26565b61307133613573565b61308d5760405162461bcd60e51b8152600401610abe90614a7c565b6000838152600c602052604090205483904261010090910463ffffffff16106130c85760405162461bcd60e51b8152600401610abe9061495e565b6000818152600c6020526040902054600160281b900460ff16156130fe5760405162461bcd60e51b8152600401610abe906149e7565b600081815260076020526040902060020154421061312e5760405162461bcd60e51b8152600401610abe906149e7565b6000818152600c60209081526040808320600301546007909252909120600101541161316c5760405162461bcd60e51b8152600401610abe90614989565b826001600160a01b0381166131c35760405162461bcd60e51b815260206004820152601b60248201527f426f6e644465706f7369746f72793a7a65726f206164647265737300000000006044820152606401610abe565b82806131e15760405162461bcd60e51b8152600401610abe906149b0565b6000868152600d60205260409020546001600160a01b03868116911614801561321a57506000868152600d602052604090206001015484145b156132535760405162461bcd60e51b815260206004820152600960248201526873616d6520696e666f60b81b6044820152606401610abe565b6040805180820182526001600160a01b03878116808352602080840189815260008c8152600d8352869020945185546001600160a01b031916941693909317845591516001909301929092558251898152908101919091529081018590527fa7a8ec28d6b7ef25adfbbec102f5a1a25ec8656b876b01e88ad603340957c37e9060600160405180910390a1505050505050565b6132ef33613567565b61330b5760405162461bcd60e51b8152600401610abe90614916565b611528600033611035565b61331f33613573565b61333b5760405162461bcd60e51b8152600401610abe90614a7c565b80600954141561337b5760405162461bcd60e51b815260206004820152600b60248201526a1cd85b5948185b5bdd5b9d60aa1b6044820152606401610abe565b60098190556040518181527f9961843a54376364c925ef0bce05dd5fc5e8983e905c6cc0171dd78a566192f99060200160405180910390a150565b6000828152600860205260409020600101546133d2813361371d565b610e4c8383613816565b6000806000806133eb85610be5565b915091506000600760008781526020019081526020016000206040518060a00160405290816000820160009054906101000a90046001600160a01b03166001600160a01b03166001600160a01b0316815260200160018201548152602001600282015481526020016003820154815260200160048201548152505090506000600c60008881526020019081526020016000206040518060c00160405290816000820160009054906101000a900460ff1660ff1660ff1681526020016000820160019054906101000a900463ffffffff1663ffffffff1663ffffffff1681526020016000820160059054906101000a900460ff161515151581526020016001820154815260200160028201548152602001600382015481525050905060008411156135225783826020015161351f9190614cd7565b95505b60008311801561353e575060a081015161353c8488614ceb565b115b15610daf5760a08101516135528488614ceb565b61355c9190614d0a565b945050505050915091565b6000610a938183612358565b6000610a93600080516020614e2f83398151915283612358565b61359633613573565b6135b25760405162461bcd60e51b8152600401610abe90614a7c565b6000828152600c602052604090205482904261010090910463ffffffff16106135ed5760405162461bcd60e51b8152600401610abe9061495e565b6000818152600c6020526040902054600160281b900460ff16156136235760405162461bcd60e51b8152600401610abe906149e7565b60008181526007602052604090206002015442106136535760405162461bcd60e51b8152600401610abe906149e7565b6000818152600c6020908152604080832060030154600790925290912060010154116136915760405162461bcd60e51b8152600401610abe90614989565b81806136af5760405162461bcd60e51b8152600401610abe906149b0565b600084815260076020908152604091829020600481018690558251878152918201869052917f8acfbca94764d5685c5bfc97648ab602aaf360f94d79dcdeebc61f39b98447b1910160405180910390a15050505050565b6000818310156137165781611eb5565b5090919050565b6137278282612358565b6110af5761373f816001600160a01b03166014613d63565b61374a836020613d63565b60405160200161375b929190614720565b60408051601f198184030181529082905262461bcd60e51b8252610abe916004016148c1565b61378b8282612358565b6110af5760008281526008602090815260408083206001600160a01b03851684529091529020805460ff191660011790556137c33390565b6001600160a01b0316816001600160a01b0316837f2f8788117e7eff1d82e926ec794901d17c78024a50270940304540a733656f0d60405160405180910390a45050565b60008183106137165781611eb5565b6138208282612358565b156110af5760008281526008602090815260408083206001600160a01b0385168085529252808320805460ff1916905551339285917ff6391f5c32d9c69d2a47ea670b442974b53935d1edc7fd64eb21e047a839171b9190a45050565b600080600560149054906101000a900460ff1615156001151514156138e45760405162461bcd60e51b815260206004820152601f60248201527f5265656e7472616e637947756172643a207265656e7472616e742063616c6c006044820152606401610abe565b6005805460ff60a01b1916600160a01b1790556000848152600760209081526040808320815160a08101835281546001600160a01b03168152600182015493810193909352600281015491830191909152600381015460608301526004015460808201529061395286610dbb565b50509050613961868683611d78565b9250868310156139cf5760405162461bcd60e51b815260206004820152603360248201527f54686520626f6e64696e6720616d6f756e74206973206c657373207468616e206044820152723a34329036b4b734b6bab69030b6b7bab73a1760691b6064820152608401610abe565b670de0b6b3a76400006139e2848a614ceb565b6139ec9190614cd7565b93508160200151600c60008881526020019081526020016000206003015485613a159190614cbf565b1115613a635760405162461bcd60e51b815260206004820152601760248201527f73616c657320766f6c756d65206973206c61636b696e670000000000000000006044820152606401610abe565b6000613a6e876133dc565b91505080851115613ac15760405162461bcd60e51b815260206004820152601b60248201527f6578636565642063757272656e7443617061636974794c696d697400000000006044820152606401610abe565b6000670de0b6b3a7640000600260009054906101000a90046001600160a01b03166001600160a01b03166396f0bd616040518163ffffffff1660e01b815260040160206040518083038186803b158015613b1a57600080fd5b505afa158015613b2e573d6000803e3d6000fd5b505050506040513d601f19601f82011682018060405250810190613b5291906143a7565b613b5c908c614ceb565b613b669190614cd7565b905085811015613bcc5760405162461bcd60e51b815260206004820152602b60248201527f6d696e7461626c65416d6f756e74206973206c657373207468616e207374616b60448201526a34b7339030b6b7bab73a1760a91b6064820152608401610abe565b6000888152600c6020526040812060038101805491928992613bef908490614cbf565b909155505060095460038201546020870151613c0b9190614d0a565b11613c5c57805460ff60281b1916600160281b1781556040517f065f36f0cc9a946e058a78fcf529ed8629c0ad3f6d065007c3c9162fd2c39d6390613c53908b815260200190565b60405180910390a15b60025460405163ef7c6c0f60e01b81526004810184905260248101899052600160448201526001600160a01b039091169063ef7c6c0f90606401600060405180830381600087803b158015613cb057600080fd5b505af1158015613cc4573d6000803e3d6000fd5b505050507fef81711614d4ac7faee84826311bec7d949a272a2e7e4f39f3a3b72527767d698c8a8d8a600187604051613d32969594939291906001600160a01b039690961686526020860194909452604085019290925260608401521515608083015260a082015260c00190565b60405180910390a150506005805460ff60a01b191690555092989197509095505050505050565b6110af8282613781565b60606000613d72836002614ceb565b613d7d906002614cbf565b6001600160401b03811115613da257634e487b7160e01b600052604160045260246000fd5b6040519080825280601f01601f191660200182016040528015613dcc576020820181803683370190505b509050600360fc1b81600081518110613df557634e487b7160e01b600052603260045260246000fd5b60200101906001600160f81b031916908160001a905350600f60fb1b81600181518110613e3257634e487b7160e01b600052603260045260246000fd5b60200101906001600160f81b031916908160001a9053506000613e56846002614ceb565b613e61906001614cbf565b90505b6001811115613ef5576f181899199a1a9b1b9c1cb0b131b232b360811b85600f1660108110613ea357634e487b7160e01b600052603260045260246000fd5b1a60f81b828281518110613ec757634e487b7160e01b600052603260045260246000fd5b60200101906001600160f81b031916908160001a90535060049490941c93613eee81614d51565b9050613e64565b508315611eb55760405162461bcd60e51b815260206004820181905260248201527f537472696e67733a20686578206c656e67746820696e73756666696369656e746044820152606401610abe565b508054613f5090614d68565b6000825580601f10613f60575050565b601f0160209004906000526020600020908101906114959190614125565b5080546000825590600052602060002090810190611495919061413a565b828054828255906000526020600020908101928215613fe9579160200282015b82811115613fe95782518051613fd9918491602090910190613ff9565b5091602001919060010190613fbc565b50613ff592915061413a565b5090565b82805461400590614d68565b90600052602060002090601f016020900481019282614027576000855561406d565b82601f1061404057805160ff191683800117855561406d565b8280016001018555821561406d579182015b8281111561406d578251825591602001919060010190614052565b50613ff5929150614125565b6040518060a0016040528060006001600160a01b03168152602001600081526020016000815260200160008152602001600081525090565b8280546140bd90614d68565b90600052602060002090601f0160209004810192826140df576000855561406d565b82601f106140f85782800160ff1982351617855561406d565b8280016001018555821561406d579182015b8281111561406d57823582559160200191906001019061410a565b5b80821115613ff55760008155600101614126565b80821115613ff557600061414e8282613f44565b5060010161413a565b80356001600160a01b038116811461416e57600080fd5b919050565b600082601f830112614183578081fd5b81356001600160401b0381111561419c5761419c614df8565b6141af601f8201601f1916602001614c8f565b8181528460208386010111156141c3578283fd5b816020850160208301379081016020019190915292915050565b803563ffffffff8116811461416e57600080fd5b803560ff8116811461416e57600080fd5b600060208284031215614213578081fd5b611eb582614157565b6000806040838503121561422e578081fd5b61423783614157565b915061424560208401614157565b90509250929050565b600080600080600080600080610140898b03121561426a578384fd5b61427389614157565b975060a089018a811115614285578485fd5b60208a01975061429481614157565b96505060c089013594506142aa60e08a016141dd565b93506142b96101008a016141dd565b92506101208901356001600160401b03808211156142d5578384fd5b818b0191508b601f8301126142e8578384fd5b8135818111156142f6578485fd5b8c60208260051b850101111561430a578485fd5b6020830194508093505050509295985092959890939650565b600060208284031215614334578081fd5b5035919050565b6000806040838503121561434d578182fd5b8235915061424560208401614157565b60006020828403121561436e578081fd5b81356001600160e01b031981168114611eb5578182fd5b600060208284031215614396578081fd5b815161ffff81168114611eb5578182fd5b6000602082840312156143b8578081fd5b5051919050565b6000806000606084860312156143d3578283fd5b833592506143e360208501614157565b9150604084013590509250925092565b60008060408385031215614405578081fd5b823591506020808401356001600160401b0380821115614423578384fd5b818601915086601f830112614436578384fd5b81358181111561444857614448614df8565b8060051b614457858201614c8f565b8281528581019085870183870188018c1015614471578889fd5b8893505b848410156144ae5780358681111561448b57898afd5b6144998d8a838b0101614173565b84525060019390930192918701918701614475565b50809750505050505050509250929050565b6000806000606084860312156144d4578081fd5b83359250602084013580151581146144ea578182fd5b929592945050506040919091013590565b6000806040838503121561450d578182fd5b50508035926020909101359150565b600080600060608486031215614530578081fd5b505081359360208301359350604090920135919050565b6000806000806080858703121561455c578182fd5b84359350602085013592506040850135915061457a606086016141f1565b905092959194509250565b600080600060608486031215614599578081fd5b833592506143e3602085016141f1565b600082825180855260208086019550808260051b840101818601855b848110156145f357601f198684030189526145e18383516146af565b988401989250908301906001016145c5565b5090979650505050505050565b6000815180845260208085019450808401835b8381101561464c5761463987835180516001600160a01b03168252602090810151910152565b6040969096019590820190600101614613565b509495945050505050565b6000815180845260208085019450808401835b8381101561464c5781518752958201959082019060010161466a565b81835281816020850137506000828201602090810191909152601f909101601f19169091010190565b600081518084526146c7816020860160208601614d21565b601f01601f19169290920160200192915050565b60ff815116825263ffffffff6020820151166020830152604081015115156040830152606081015160608301526080810151608083015260a081015160a08301525050565b7f416363657373436f6e74726f6c3a206163636f756e7420000000000000000000815260008351614758816017850160208801614d21565b7001034b99036b4b9b9b4b733903937b6329607d1b6017918401918201528351614789816028840160208801614d21565b01602801949350505050565b6001600160a01b03841681526060602082018190526000906147b9908301856146af565b9050826040830152949350505050565b602081526000611eb56020830184614657565b6080815260006147ef6080830187614657565b828103602084810191909152865180835287820192820190845b818110156148605761484d83865180516001600160a01b03168252602080820151908301526040808201519083015260608082015190830152608090810151910152565b9383019360a09290920191600101614809565b505084810360408601528651808252908201925081870190845b818110156148a05761488d8584516146db565b60c094909401939183019160010161487a565b5050505082810360608401526148b68185614600565b979650505050505050565b602081526000611eb560208301846146af565b60208082526022908201527f41636365737369626c653a2043616c6c6572206973206e6f7420616e2061646d60408201526134b760f11b606082015260800190565b60208082526028908201527f41636365737369626c653a2043616c6c6572206973206e6f7420616e2070726f6040820152673c3c9030b236b4b760c11b606082015260800190565b6020808252601190820152701b9bc81cdd185c9d081d1a5b59481e595d607a1b604082015260600190565b6020808252600d908201526c7a65726f20636170616369747960981b604082015260600190565b60208082526019908201527f426f6e644465706f7369746f72793a207a65726f2075696e7400000000000000604082015260600190565b6020808252600d908201526c18db1bdcd959081b585c9ad95d609a1b604082015260600190565b60208082526024908201527f4465706f7369746f72793a2045544820616d6f756e747320646f206e6f74206d6040820152630c2e8c6d60e31b606082015260800190565b60208082526010908201526f1b9bdb8b595e1a5cdd081b585c9ad95d60821b604082015260600190565b60208082526029908201527f41636365737369626c653a2043616c6c6572206973206e6f7420616e20706f6c60408201526834b1bc9030b236b4b760b91b606082015260800190565b84516001600160a01b031681526020808601519082015260408086015190820152606080860151908201526080808601519082015260006101c0614b0c60a08401876146db565b84516001600160a01b03166101608401526020850151610180840152806101a08401526148b6818401856145a9565b60006101608083018c8452602060018060a01b03808e168287015260808d60408801378b1660c086015260e085018a905263ffffffff898116610100870152881661012086015261014085019290925284905261018080840191600586901b85019091019086845b87811015614c0f5786840361017f190185528135368a9003601e19018112614bc9578687fd5b890180356001600160401b03811115614be0578788fd5b8036038b1315614bee578788fd5b614bfb8682878501614686565b968501969550505090820190600101614ba3565b50919e9d5050505050505050505050505050565b828152604060208201526000614c3c60408301846145a9565b949350505050565b6000808335601e19843603018112614c5a578283fd5b8301803591506001600160401b03821115614c73578283fd5b602001915036819003821315614c8857600080fd5b9250929050565b604051601f8201601f191681016001600160401b0381118282101715614cb757614cb7614df8565b604052919050565b60008219821115614cd257614cd2614dcc565b500190565b600082614ce657614ce6614de2565b500490565b6000816000190483118215151615614d0557614d05614dcc565b500290565b600082821015614d1c57614d1c614dcc565b500390565b60005b83811015614d3c578181015183820152602001614d24565b83811115614d4b576000848401525b50505050565b600081614d6057614d60614dcc565b506000190190565b600181811c90821680614d7c57607f821691505b6020821081141561102f57634e487b7160e01b600052602260045260246000fd5b6000600019821415614db157614db1614dcc565b5060010190565b600082614dc757614dc7614de2565b500690565b634e487b7160e01b600052601160045260246000fd5b634e487b7160e01b600052601260045260246000fd5b634e487b7160e01b600052604160045260246000fdfedf8b4c520ffe197c5343c6f5aec59570151ef9a492f2c624fd45ddde6135ec42fb5864e8ff833c3cb2d2d08505e82ff02a43554c74a35d4f5a64e85261278311a264697066735822122014c8e715b22786d40df2360143ada729d3870fe5b0318136f102e8b2320612ed64736f6c63430008040033",
  "linkReferences": {},
  "deployedLinkReferences": {}
}