{
  "_format": "hh-sol-artifact-1",
  "contractName": "BondDepositoryV1_1",
  "sourceName": "contracts/BondDepositoryV1_1.sol",
  "abi": [
    {
      "inputs": [],
      "stateMutability": "nonpayable",
      "type": "constructor"
    },
    {
      "anonymous": false,
      "inputs": [
        {
          "indexed": false,
          "internalType": "uint256",
          "name": "_marketId",
          "type": "uint256"
        },
        {
          "indexed": false,
          "internalType": "bool",
          "name": "_increaseFlag",
          "type": "bool"
        },
        {
          "indexed": false,
          "internalType": "uint256",
          "name": "_increaseAmount",
          "type": "uint256"
        }
      ],
      "name": "ChangedCapacity",
      "type": "event"
    },
    {
      "anonymous": false,
      "inputs": [
        {
          "indexed": false,
          "internalType": "uint256",
          "name": "_marketId",
          "type": "uint256"
        },
        {
          "indexed": false,
          "internalType": "uint256",
          "name": "closeTime",
          "type": "uint256"
        }
      ],
      "name": "ChangedCloseTime",
      "type": "event"
    },
    {
      "anonymous": false,
      "inputs": [
        {
          "indexed": false,
          "internalType": "uint256",
          "name": "_marketId",
          "type": "uint256"
        },
        {
          "indexed": false,
          "internalType": "uint256",
          "name": "_amount",
          "type": "uint256"
        }
      ],
      "name": "ChangedMaxPayout",
      "type": "event"
    },
    {
      "anonymous": false,
      "inputs": [
        {
          "indexed": false,
          "internalType": "uint256",
          "name": "_marketId",
          "type": "uint256"
        },
        {
          "indexed": false,
          "internalType": "uint256",
          "name": "_tosPrice",
          "type": "uint256"
        }
      ],
      "name": "ChangedPrice",
      "type": "event"
    },
    {
      "anonymous": false,
      "inputs": [
        {
          "indexed": false,
          "internalType": "uint256",
          "name": "marketId",
          "type": "uint256"
        }
      ],
      "name": "ClosedMarket",
      "type": "event"
    },
    {
      "anonymous": false,
      "inputs": [
        {
          "indexed": false,
          "internalType": "uint256",
          "name": "marketId",
          "type": "uint256"
        },
        {
          "indexed": false,
          "internalType": "address",
          "name": "token",
          "type": "address"
        },
        {
          "indexed": false,
          "internalType": "uint256[4]",
          "name": "market",
          "type": "uint256[4]"
        },
        {
          "indexed": false,
          "internalType": "uint256",
          "name": "startTime",
          "type": "uint256"
        },
        {
          "indexed": false,
          "internalType": "uint256",
          "name": "initialMaxPayout",
          "type": "uint256"
        },
        {
          "indexed": false,
          "internalType": "uint256",
          "name": "capacityUpdatePeriod",
          "type": "uint256"
        },
        {
          "indexed": false,
          "internalType": "bool",
          "name": "availableBasicBond",
          "type": "bool"
        },
        {
          "indexed": false,
          "internalType": "bool",
          "name": "availableStosBond",
          "type": "bool"
        }
      ],
      "name": "CreatedMarket",
      "type": "event"
    },
    {
      "anonymous": false,
      "inputs": [
        {
          "indexed": false,
          "internalType": "address",
          "name": "user",
          "type": "address"
        },
        {
          "indexed": false,
          "internalType": "uint256",
          "name": "marketId",
          "type": "uint256"
        },
        {
          "indexed": false,
          "internalType": "uint256",
          "name": "amount",
          "type": "uint256"
        },
        {
          "indexed": false,
          "internalType": "uint256",
          "name": "payout",
          "type": "uint256"
        },
        {
          "indexed": false,
          "internalType": "bool",
          "name": "isEth",
          "type": "bool"
        },
        {
          "indexed": false,
          "internalType": "uint256",
          "name": "mintAmount",
          "type": "uint256"
        }
      ],
      "name": "Deposited",
      "type": "event"
    },
    {
      "anonymous": false,
      "inputs": [
        {
          "indexed": false,
          "internalType": "address",
          "name": "user",
          "type": "address"
        },
        {
          "indexed": false,
          "internalType": "uint256",
          "name": "marketId",
          "type": "uint256"
        },
        {
          "indexed": false,
          "internalType": "uint256",
          "name": "stakeId",
          "type": "uint256"
        },
        {
          "indexed": false,
          "internalType": "uint256",
          "name": "amount",
          "type": "uint256"
        },
        {
          "indexed": false,
          "internalType": "uint256",
          "name": "tosValuation",
          "type": "uint256"
        }
      ],
      "name": "ETHDeposited",
      "type": "event"
    },
    {
      "anonymous": false,
      "inputs": [
        {
          "indexed": false,
          "internalType": "address",
          "name": "user",
          "type": "address"
        },
        {
          "indexed": false,
          "internalType": "uint256",
          "name": "marketId",
          "type": "uint256"
        },
        {
          "indexed": false,
          "internalType": "uint256",
          "name": "stakeId",
          "type": "uint256"
        },
        {
          "indexed": false,
          "internalType": "uint256",
          "name": "amount",
          "type": "uint256"
        },
        {
          "indexed": false,
          "internalType": "uint256",
          "name": "lockWeeks",
          "type": "uint256"
        },
        {
          "indexed": false,
          "internalType": "uint256",
          "name": "tosValuation",
          "type": "uint256"
        }
      ],
      "name": "ETHDepositedWithSTOS",
      "type": "event"
    },
    {
      "anonymous": false,
      "inputs": [
        {
          "indexed": true,
          "internalType": "bytes32",
          "name": "role",
          "type": "bytes32"
        },
        {
          "indexed": true,
          "internalType": "bytes32",
          "name": "previousAdminRole",
          "type": "bytes32"
        },
        {
          "indexed": true,
          "internalType": "bytes32",
          "name": "newAdminRole",
          "type": "bytes32"
        }
      ],
      "name": "RoleAdminChanged",
      "type": "event"
    },
    {
      "anonymous": false,
      "inputs": [
        {
          "indexed": true,
          "internalType": "bytes32",
          "name": "role",
          "type": "bytes32"
        },
        {
          "indexed": true,
          "internalType": "address",
          "name": "account",
          "type": "address"
        },
        {
          "indexed": true,
          "internalType": "address",
          "name": "sender",
          "type": "address"
        }
      ],
      "name": "RoleGranted",
      "type": "event"
    },
    {
      "anonymous": false,
      "inputs": [
        {
          "indexed": true,
          "internalType": "bytes32",
          "name": "role",
          "type": "bytes32"
        },
        {
          "indexed": true,
          "internalType": "address",
          "name": "account",
          "type": "address"
        },
        {
          "indexed": true,
          "internalType": "address",
          "name": "sender",
          "type": "address"
        }
      ],
      "name": "RoleRevoked",
      "type": "event"
    },
    {
      "anonymous": false,
      "inputs": [
        {
          "indexed": false,
          "internalType": "address",
          "name": "calculatorAddress",
          "type": "address"
        }
      ],
      "name": "SetCalculator",
      "type": "event"
    },
    {
      "inputs": [],
      "name": "ADMIN_ROLE",
      "outputs": [
        {
          "internalType": "bytes32",
          "name": "",
          "type": "bytes32"
        }
      ],
      "stateMutability": "view",
      "type": "function"
    },
    {
      "inputs": [],
      "name": "DEFAULT_ADMIN_ROLE",
      "outputs": [
        {
          "internalType": "bytes32",
          "name": "",
          "type": "bytes32"
        }
      ],
      "stateMutability": "view",
      "type": "function"
    },
    {
      "inputs": [
        {
          "internalType": "uint256",
          "name": "_id",
          "type": "uint256"
        },
        {
          "internalType": "uint256",
          "name": "_amount",
          "type": "uint256"
        }
      ],
      "name": "ETHDeposit",
      "outputs": [
        {
          "internalType": "uint256",
          "name": "payout_",
          "type": "uint256"
        }
      ],
      "stateMutability": "payable",
      "type": "function"
    },
    {
      "inputs": [
        {
          "internalType": "uint256",
          "name": "_id",
          "type": "uint256"
        },
        {
          "internalType": "uint256",
          "name": "_amount",
          "type": "uint256"
        },
        {
          "internalType": "uint256",
          "name": "_lockWeeks",
          "type": "uint256"
        }
      ],
      "name": "ETHDepositWithSTOS",
      "outputs": [
        {
          "internalType": "uint256",
          "name": "payout_",
          "type": "uint256"
        }
      ],
      "stateMutability": "payable",
      "type": "function"
    },
    {
      "inputs": [],
      "name": "POLICY_ROLE",
      "outputs": [
        {
          "internalType": "bytes32",
          "name": "",
          "type": "bytes32"
        }
      ],
      "stateMutability": "view",
      "type": "function"
    },
    {
      "inputs": [
        {
          "internalType": "address",
          "name": "account",
          "type": "address"
        }
      ],
      "name": "addAdmin",
      "outputs": [],
      "stateMutability": "nonpayable",
      "type": "function"
    },
    {
      "inputs": [
        {
          "internalType": "address",
          "name": "_account",
          "type": "address"
        }
      ],
      "name": "addPolicy",
      "outputs": [],
      "stateMutability": "nonpayable",
      "type": "function"
    },
    {
      "inputs": [
        {
          "internalType": "address",
          "name": "_owner",
          "type": "address"
        }
      ],
      "name": "addProxyAdmin",
      "outputs": [],
      "stateMutability": "nonpayable",
      "type": "function"
    },
    {
      "inputs": [],
      "name": "calculator",
      "outputs": [
        {
          "internalType": "address",
          "name": "",
          "type": "address"
        }
      ],
      "stateMutability": "view",
      "type": "function"
    },
    {
      "inputs": [
        {
          "internalType": "uint256",
          "name": "_marketId",
          "type": "uint256"
        },
        {
          "internalType": "bool",
          "name": "_increaseFlag",
          "type": "bool"
        },
        {
          "internalType": "uint256",
          "name": "_increaseAmount",
          "type": "uint256"
        }
      ],
      "name": "changeCapacity",
      "outputs": [],
      "stateMutability": "nonpayable",
      "type": "function"
    },
    {
      "inputs": [
        {
          "internalType": "uint256",
          "name": "_marketId",
          "type": "uint256"
        },
        {
          "internalType": "uint256",
          "name": "closeTime",
          "type": "uint256"
        }
      ],
      "name": "changeCloseTime",
      "outputs": [],
      "stateMutability": "nonpayable",
      "type": "function"
    },
    {
      "inputs": [
        {
          "internalType": "uint256",
          "name": "_marketId",
          "type": "uint256"
        },
        {
          "internalType": "uint256",
          "name": "_amount",
          "type": "uint256"
        }
      ],
      "name": "changeMaxPayout",
      "outputs": [],
      "stateMutability": "nonpayable",
      "type": "function"
    },
    {
      "inputs": [
        {
          "internalType": "uint256",
          "name": "_marketId",
          "type": "uint256"
        },
        {
          "internalType": "uint256",
          "name": "_tosPrice",
          "type": "uint256"
        }
      ],
      "name": "changePrice",
      "outputs": [],
      "stateMutability": "nonpayable",
      "type": "function"
    },
    {
      "inputs": [
        {
          "internalType": "uint256",
          "name": "_id",
          "type": "uint256"
        }
      ],
      "name": "close",
      "outputs": [],
      "stateMutability": "nonpayable",
      "type": "function"
    },
    {
      "inputs": [
        {
          "internalType": "address",
          "name": "_token",
          "type": "address"
        },
        {
          "internalType": "uint256[4]",
          "name": "_market",
          "type": "uint256[4]"
        },
        {
          "internalType": "uint256",
          "name": "_startTime",
          "type": "uint256"
        },
        {
          "internalType": "uint256",
          "name": "_initialMaxPayout",
          "type": "uint256"
        },
        {
          "internalType": "uint256",
          "name": "_capacityUpdatePeriod",
          "type": "uint256"
        },
        {
          "internalType": "bool",
          "name": "_availableBasicBond",
          "type": "bool"
        },
        {
          "internalType": "bool",
          "name": "_availableStosBond",
          "type": "bool"
        }
      ],
      "name": "create",
      "outputs": [
        {
          "internalType": "uint256",
          "name": "id_",
          "type": "uint256"
        }
      ],
      "stateMutability": "nonpayable",
      "type": "function"
    },
    {
      "inputs": [
        {
          "internalType": "address",
          "name": "_account",
          "type": "address"
        }
      ],
      "name": "deletePolicy",
      "outputs": [],
      "stateMutability": "nonpayable",
      "type": "function"
    },
    {
      "inputs": [],
      "name": "dtos",
      "outputs": [
        {
          "internalType": "address",
          "name": "",
          "type": "address"
        }
      ],
      "stateMutability": "view",
      "type": "function"
    },
    {
      "inputs": [],
      "name": "getBonds",
      "outputs": [
        {
          "internalType": "uint256[]",
          "name": "",
          "type": "uint256[]"
        },
        {
          "internalType": "address[]",
          "name": "",
          "type": "address[]"
        },
        {
          "internalType": "uint256[]",
          "name": "",
          "type": "uint256[]"
        },
        {
          "internalType": "uint256[]",
          "name": "",
          "type": "uint256[]"
        },
        {
          "internalType": "uint256[]",
          "name": "",
          "type": "uint256[]"
        },
        {
          "components": [
            {
              "internalType": "uint256",
              "name": "startTime",
              "type": "uint256"
            },
            {
              "internalType": "uint256",
              "name": "initialMaxPayout",
              "type": "uint256"
            },
            {
              "internalType": "uint256",
              "name": "capacityUpdatePeriod",
              "type": "uint256"
            },
            {
              "internalType": "uint256",
              "name": "totalSold",
              "type": "uint256"
            },
            {
              "internalType": "bool",
              "name": "availableBasicBond",
              "type": "bool"
            },
            {
              "internalType": "bool",
              "name": "availableStosBond",
              "type": "bool"
            },
            {
              "internalType": "bool",
              "name": "closed",
              "type": "bool"
            }
          ],
          "internalType": "struct LibBondDepositoryV1_1.CapacityInfo[]",
          "name": "",
          "type": "tuple[]"
        }
      ],
      "stateMutability": "view",
      "type": "function"
    },
    {
      "inputs": [],
      "name": "getMarketList",
      "outputs": [
        {
          "internalType": "uint256[]",
          "name": "",
          "type": "uint256[]"
        }
      ],
      "stateMutability": "view",
      "type": "function"
    },
    {
      "inputs": [
        {
          "internalType": "bytes32",
          "name": "role",
          "type": "bytes32"
        }
      ],
      "name": "getRoleAdmin",
      "outputs": [
        {
          "internalType": "bytes32",
          "name": "",
          "type": "bytes32"
        }
      ],
      "stateMutability": "view",
      "type": "function"
    },
    {
      "inputs": [
        {
          "internalType": "bytes32",
          "name": "role",
          "type": "bytes32"
        },
        {
          "internalType": "address",
          "name": "account",
          "type": "address"
        }
      ],
      "name": "grantRole",
      "outputs": [],
      "stateMutability": "nonpayable",
      "type": "function"
    },
    {
      "inputs": [
        {
          "internalType": "bytes32",
          "name": "role",
          "type": "bytes32"
        },
        {
          "internalType": "address",
          "name": "account",
          "type": "address"
        }
      ],
      "name": "hasRole",
      "outputs": [
        {
          "internalType": "bool",
          "name": "",
          "type": "bool"
        }
      ],
      "stateMutability": "view",
      "type": "function"
    },
    {
      "inputs": [
        {
          "internalType": "address",
          "name": "account",
          "type": "address"
        }
      ],
      "name": "isAdmin",
      "outputs": [
        {
          "internalType": "bool",
          "name": "",
          "type": "bool"
        }
      ],
      "stateMutability": "view",
      "type": "function"
    },
    {
      "inputs": [
        {
          "internalType": "uint256",
          "name": "_marketId",
          "type": "uint256"
        }
      ],
      "name": "isOpened",
      "outputs": [
        {
          "internalType": "bool",
          "name": "closedBool",
          "type": "bool"
        }
      ],
      "stateMutability": "view",
      "type": "function"
    },
    {
      "inputs": [
        {
          "internalType": "address",
          "name": "account",
          "type": "address"
        }
      ],
      "name": "isPolicy",
      "outputs": [
        {
          "internalType": "bool",
          "name": "",
          "type": "bool"
        }
      ],
      "stateMutability": "view",
      "type": "function"
    },
    {
      "inputs": [
        {
          "internalType": "address",
          "name": "account",
          "type": "address"
        }
      ],
      "name": "isProxyAdmin",
      "outputs": [
        {
          "internalType": "bool",
          "name": "",
          "type": "bool"
        }
      ],
      "stateMutability": "view",
      "type": "function"
    },
    {
      "inputs": [
        {
          "internalType": "uint256",
          "name": "",
          "type": "uint256"
        }
      ],
      "name": "marketList",
      "outputs": [
        {
          "internalType": "uint256",
          "name": "",
          "type": "uint256"
        }
      ],
      "stateMutability": "view",
      "type": "function"
    },
    {
      "inputs": [
        {
          "internalType": "uint256",
          "name": "",
          "type": "uint256"
        }
      ],
      "name": "markets",
      "outputs": [
        {
          "internalType": "address",
          "name": "quoteToken",
          "type": "address"
        },
        {
          "internalType": "uint256",
          "name": "capacity",
          "type": "uint256"
        },
        {
          "internalType": "uint256",
          "name": "endSaleTime",
          "type": "uint256"
        },
        {
          "internalType": "uint256",
          "name": "maxPayout",
          "type": "uint256"
        },
        {
          "internalType": "uint256",
          "name": "tosPrice",
          "type": "uint256"
        }
      ],
      "stateMutability": "view",
      "type": "function"
    },
    {
      "inputs": [
        {
          "internalType": "uint256",
          "name": "_marketId",
          "type": "uint256"
        },
        {
          "internalType": "uint256",
          "name": "_periodWeeks",
          "type": "uint256"
        }
      ],
      "name": "maxPayoutPerLockUpPeriod",
      "outputs": [
        {
          "internalType": "uint256",
          "name": "_maxPayoutPerLockUpPeriod",
          "type": "uint256"
        }
      ],
      "stateMutability": "view",
      "type": "function"
    },
    {
      "inputs": [
        {
          "internalType": "uint256",
          "name": "_marketId",
          "type": "uint256"
        },
        {
          "internalType": "uint256",
          "name": "_periodWeeks",
          "type": "uint256"
        }
      ],
      "name": "maximumPurchasableAmountAtOneTime",
      "outputs": [
        {
          "internalType": "uint256",
          "name": "maximumAmount_",
          "type": "uint256"
        }
      ],
      "stateMutability": "view",
      "type": "function"
    },
    {
      "inputs": [
        {
          "internalType": "uint256",
          "name": "_marketId",
          "type": "uint256"
        }
      ],
      "name": "possibleMaxCapacity",
      "outputs": [
        {
          "internalType": "uint256",
          "name": "periodicCapacity",
          "type": "uint256"
        },
        {
          "internalType": "uint256",
          "name": "currentCapacity",
          "type": "uint256"
        }
      ],
      "stateMutability": "view",
      "type": "function"
    },
    {
      "inputs": [],
      "name": "removeAdmin",
      "outputs": [],
      "stateMutability": "nonpayable",
      "type": "function"
    },
    {
      "inputs": [],
      "name": "removePolicy",
      "outputs": [],
      "stateMutability": "nonpayable",
      "type": "function"
    },
    {
      "inputs": [],
      "name": "removeProxyAdmin",
      "outputs": [],
      "stateMutability": "nonpayable",
      "type": "function"
    },
    {
      "inputs": [
        {
          "internalType": "bytes32",
          "name": "role",
          "type": "bytes32"
        },
        {
          "internalType": "address",
          "name": "account",
          "type": "address"
        }
      ],
      "name": "renounceRole",
      "outputs": [],
      "stateMutability": "nonpayable",
      "type": "function"
    },
    {
      "inputs": [
        {
          "internalType": "bytes32",
          "name": "role",
          "type": "bytes32"
        },
        {
          "internalType": "address",
          "name": "account",
          "type": "address"
        }
      ],
      "name": "revokeRole",
      "outputs": [],
      "stateMutability": "nonpayable",
      "type": "function"
    },
    {
      "inputs": [
        {
          "internalType": "uint256",
          "name": "_marketId",
          "type": "uint256"
        }
      ],
      "name": "salePeriod",
      "outputs": [
        {
          "internalType": "uint256",
          "name": "numberOfPeriods",
          "type": "uint256"
        },
        {
          "internalType": "uint256",
          "name": "numberOfPeriodsPassed",
          "type": "uint256"
        }
      ],
      "stateMutability": "view",
      "type": "function"
    },
    {
      "inputs": [],
      "name": "staking",
      "outputs": [
        {
          "internalType": "contract IStaking",
          "name": "",
          "type": "address"
        }
      ],
      "stateMutability": "view",
      "type": "function"
    },
    {
      "inputs": [
        {
          "internalType": "bytes4",
          "name": "interfaceId",
          "type": "bytes4"
        }
      ],
      "name": "supportsInterface",
      "outputs": [
        {
          "internalType": "bool",
          "name": "",
          "type": "bool"
        }
      ],
      "stateMutability": "view",
      "type": "function"
    },
    {
      "inputs": [],
      "name": "tos",
      "outputs": [
        {
          "internalType": "contract IERC20",
          "name": "",
          "type": "address"
        }
      ],
      "stateMutability": "view",
      "type": "function"
    },
    {
      "inputs": [],
      "name": "totalMarketCount",
      "outputs": [
        {
          "internalType": "uint256",
          "name": "",
          "type": "uint256"
        }
      ],
      "stateMutability": "view",
      "type": "function"
    },
    {
      "inputs": [
        {
          "internalType": "address",
          "name": "newAdmin",
          "type": "address"
        }
      ],
      "name": "transferAdmin",
      "outputs": [],
      "stateMutability": "nonpayable",
      "type": "function"
    },
    {
      "inputs": [
        {
          "internalType": "address",
          "name": "newAdmin",
          "type": "address"
        }
      ],
      "name": "transferProxyAdmin",
      "outputs": [],
      "stateMutability": "nonpayable",
      "type": "function"
    },
    {
      "inputs": [],
      "name": "treasury",
      "outputs": [
        {
          "internalType": "address",
          "name": "",
          "type": "address"
        }
      ],
      "stateMutability": "view",
      "type": "function"
    },
    {
      "inputs": [],
      "name": "uniswapV3Factory",
      "outputs": [
        {
          "internalType": "address",
          "name": "",
          "type": "address"
        }
      ],
      "stateMutability": "view",
      "type": "function"
    },
    {
      "inputs": [
        {
          "internalType": "uint256",
          "name": "_marketId",
          "type": "uint256"
        }
      ],
      "name": "viewMarket",
      "outputs": [
        {
          "internalType": "address",
          "name": "quoteToken",
          "type": "address"
        },
        {
          "internalType": "uint256",
          "name": "capacity",
          "type": "uint256"
        },
        {
          "internalType": "uint256",
          "name": "endSaleTime",
          "type": "uint256"
        },
        {
          "internalType": "uint256",
          "name": "maxPayout",
          "type": "uint256"
        },
        {
          "internalType": "uint256",
          "name": "tosPrice",
          "type": "uint256"
        },
        {
          "components": [
            {
              "internalType": "uint256",
              "name": "startTime",
              "type": "uint256"
            },
            {
              "internalType": "uint256",
              "name": "initialMaxPayout",
              "type": "uint256"
            },
            {
              "internalType": "uint256",
              "name": "capacityUpdatePeriod",
              "type": "uint256"
            },
            {
              "internalType": "uint256",
              "name": "totalSold",
              "type": "uint256"
            },
            {
              "internalType": "bool",
              "name": "availableBasicBond",
              "type": "bool"
            },
            {
              "internalType": "bool",
              "name": "availableStosBond",
              "type": "bool"
            },
            {
              "internalType": "bool",
              "name": "closed",
              "type": "bool"
            }
          ],
          "internalType": "struct LibBondDepositoryV1_1.CapacityInfo",
          "name": "capacityInfo",
          "type": "tuple"
        }
      ],
      "stateMutability": "view",
      "type": "function"
    }
  ],
  "bytecode": "0x608060405234801561001057600080fd5b50613dcf806100206000396000f3fe60806040526004361061027d5760003560e01c806375b238fc1161014f578063b3de019c116100c1578063d547741f1161007a578063d547741f14610804578063e4cbc0b314610824578063f29310c114610844578063f47f2f1d14610857578063f98e422f14610877578063fad1c85c1461089757600080fd5b8063b3de019c1461074f578063b84ef0811461076f578063bd05f6241461078f578063be72f2d3146107af578063c3e58bb7146107c4578063ce3e39c0146107e457600080fd5b806396f1557c1161011357806396f1557c1461064e5780639a202d471461066e5780639e8332cd14610683578063a217fddf146106a3578063b1283e77146106b8578063b1667adf1461071d57600080fd5b806375b238fc146105a55780638356ca4f146105c757806389f395de146105e75780638b140f6b1461060757806391d148541461062e57600080fd5b80634c8df535116101f35780635faf46bb116101ac5780635faf46bb146104f057806361d027b31461051057806365cb3a83146105305780637048027514610545578063708d5c151461056557806375829def1461058557600080fd5b80634c8df535146104215780634cf088d9146104365780635b5491821461046e5780635b9907a41461048e5780635fabdf7c146104b05780635fabfedc146104d057600080fd5b8063232b956c11610245578063232b956c14610351578063248a9ca31461037157806324d7806c146103a15780632b03913e146103c15780632f2ff15d146103e157806336568abe1461040157600080fd5b806301ffc9a7146102825780630aebeb4e146102b757806312fcee80146102d957806314faecda146102fa578063229852461461032f575b600080fd5b34801561028e57600080fd5b506102a261029d366004613640565b6108b7565b60405190151581526020015b60405180910390f35b3480156102c357600080fd5b506102d76102d23660046135fd565b6108ee565b005b6102ec6102e73660046136b4565b610a6c565b6040519081526020016102ae565b34801561030657600080fd5b5061031a6103153660046135fd565b610d91565b604080519283526020830191909152016102ae565b34801561033b57600080fd5b506102ec600080516020613d7a83398151915281565b34801561035d57600080fd5b506102ec61036c3660046135fd565b610f46565b34801561037d57600080fd5b506102ec61038c3660046135fd565b60009081526008602052604090206001015490565b3480156103ad57600080fd5b506102a26103bc36600461356c565b610f67565b3480156103cd57600080fd5b506102ec6103dc366004613586565b610f81565b3480156103ed57600080fd5b506102d76103fc366004613615565b611548565b34801561040d57600080fd5b506102d761041c366004613615565b611573565b34801561042d57600080fd5b506006546102ec565b34801561044257600080fd5b50600154610456906001600160a01b031681565b6040516001600160a01b0390911681526020016102ae565b34801561047a57600080fd5b50600454610456906001600160a01b031681565b34801561049a57600080fd5b506104a36115f1565b6040516102ae91906138a5565b3480156104bc57600080fd5b506102d76104cb36600461356c565b611649565b3480156104dc57600080fd5b506102d76104eb3660046136b4565b611689565b3480156104fc57600080fd5b506102a261050b3660046135fd565b6117f9565b34801561051c57600080fd5b50600254610456906001600160a01b031681565b34801561053c57600080fd5b506102d761182c565b34801561055157600080fd5b506102d761056036600461356c565b61186b565b34801561057157600080fd5b506102d76105803660046136b4565b6118a8565b34801561059157600080fd5b506102d76105a036600461356c565b611993565b3480156105b157600080fd5b506102ec600080516020613d5a83398151915281565b3480156105d357600080fd5b506102d76105e236600461356c565b611a9a565b3480156105f357600080fd5b50600054610456906001600160a01b031681565b34801561061357600080fd5b5061061c611b78565b6040516102ae969594939291906138b8565b34801561063a57600080fd5b506102a2610649366004613615565b6120fa565b34801561065a57600080fd5b506102d761066936600461356c565b612125565b34801561067a57600080fd5b506102d7612155565b34801561068f57600080fd5b506102d761069e366004613680565b6121a1565b3480156106af57600080fd5b506102ec600081565b3480156106c457600080fd5b5061070c6106d33660046135fd565b600760205260009081526040902080546001820154600283015460038401546004909401546001600160a01b0390931693919290919085565b6040516102ae959493929190613832565b34801561072957600080fd5b5061073d6107383660046135fd565b612347565b6040516102ae96959493929190613860565b34801561075b57600080fd5b506102d761076a3660046136b4565b61243a565b34801561077b57600080fd5b506102d761078a36600461356c565b61259f565b34801561079b57600080fd5b506102ec6107aa3660046136b4565b6125dc565b3480156107bb57600080fd5b506102d76126ff565b3480156107d057600080fd5b506102ec6107df3660046136b4565b61272f565b3480156107f057600080fd5b50600354610456906001600160a01b031681565b34801561081057600080fd5b506102d761081f366004613615565b612788565b34801561083057600080fd5b5061031a61083f3660046135fd565b6127ae565b6102ec6108523660046136d5565b61291b565b34801561086357600080fd5b506102a261087236600461356c565b612cd3565b34801561088357600080fd5b50600554610456906001600160a01b031681565b3480156108a357600080fd5b506102a26108b236600461356c565b612cdf565b60006001600160e01b03198216637965db0b60e01b14806108e857506301ffc9a760e01b6001600160e01b03198316145b92915050565b6108f733612cdf565b61091c5760405162461bcd60e51b815260040161091390613b36565b60405180910390fd5b60008181526009602052604090206004015462010000900460ff16156109545760405162461bcd60e51b815260040161091390613a94565b6000818152600760205260409020600201546109a15760405162461bcd60e51b815260206004820152600c60248201526b195b5c1d1e481b585c9ad95d60a21b6044820152606401610913565b6000818152600760205260409020600201544210806109cf5750600081815260076020526040902060010154155b610a0c5760405162461bcd60e51b815260206004820152600e60248201526d185b1c9958591e4818db1bdcd95960921b6044820152606401610913565b6000818152600960205260409081902060048101805462ff000019166201000017905590517f065f36f0cc9a946e058a78fcf529ed8629c0ad3f6d065007c3c9162fd2c39d6390610a609084815260200190565b60405180910390a15050565b60008281526009602052604081205483904211610a9b5760405162461bcd60e51b815260040161091390613b7f565b60008181526009602052604090206004015462010000900460ff1615610ad35760405162461bcd60e51b815260040161091390613a94565b6000818152600760205260409020600201544210610b035760405162461bcd60e51b815260040161091390613a26565b60008181526009602090815260408083206003015460079092529091206001015411610b415760405162461bcd60e51b815260040161091390613abb565b60008481526007602052604090205484906001600160a01b0316158015610b78575060008181526007602052604090206002015415155b610bc45760405162461bcd60e51b815260206004820152601e60248201527f426f6e644465706f7369746f72793a206e6f7420455448206d61726b657400006044820152606401610913565b8380610be25760405162461bcd60e51b815260040161091390613a5d565b843414610c015760405162461bcd60e51b815260040161091390613af2565b60008681526009602052604090206004015460ff16610c625760405162461bcd60e51b815260206004820152601960248201527f756e617661696c61626c6520696e20626173696320626f6e64000000000000006044820152606401610913565b6000610c713387896000612cf9565b60015460405163332b01f360e01b815233600482015260248101849052604481018b9052606481018390529297509092506000916001600160a01b039091169063332b01f390608401602060405180830381600087803b158015610cd457600080fd5b505af1158015610ce8573d6000803e3d6000fd5b505050506040513d601f19601f82011682018060405250810190610d0c9190613668565b6002546040519192506001600160a01b0316903480156108fc02916000818181858888f19350505050158015610d46573d6000803e3d6000fd5b507fe6842e3c66982eec53fbf127ab93e36198f7d048a044b2761abd0e131b3f84a43389838a8a604051610d7e959493929190613832565b60405180910390a1505050505092915050565b6000818152600960209081526040808320815160e0810183528154808252600183015494820194909452600282015492810192909252600381015460608301526004015460ff8082161515608084015261010082048116151560a08401526201000090910416151560c0820152829115610f4057600084815260076020908152604091829020825160a08101845281546001600160a01b03168152600182015492810192909252600281015492820183905260038101546060830152600401546080820152825190911115610f3e5781516040820151600091610e7391613ca0565b9050826040015181610e859190613c6d565b945060018360400151118015610eaa57506000836040015182610ea89190613d19565b115b15610ebd5784610eb981613cfe565b9550505b825142118015610ed05750816040015142105b15610f3c5760408301518351610ee69042613ca0565b610ef09190613c6d565b60408401518451919550600091610f079042613ca0565b610f119190613d19565b905060018460400151118015610f275750600081115b15610f3a5784610f3681613cfe565b9550505b505b505b505b50915091565b60068181548110610f5657600080fd5b600091825260209091200154905081565b60006108e8600080516020613d5a833981519152836120fa565b6000610f8c33612cdf565b610fa85760405162461bcd60e51b815260040161091390613b36565b604087013580610fca5760405162461bcd60e51b815260040161091390613a5d565b606088013580610fec5760405162461bcd60e51b815260040161091390613a5d565b878061100a5760405162461bcd60e51b815260040161091390613a5d565b60008711801561105257508660011480611025575086610e10145b80611031575086615460145b8061103d57508661a8c0145b8061105257506110506201518088613d19565b155b61109e5760405162461bcd60e51b815260206004820152601c60248201527f696e76616c6964206361706163697479557064617465506572696f64000000006044820152606401610913565b85806110a75750845b61110f5760405162461bcd60e51b815260206004820152603360248201527f626f74682066616c7365205f617661696c61626c654261736963426f6e6420266044820152720817d85d985a5b18589b1954dd1bdcd09bdb99606a1b6064820152608401610913565b68056bc75e2d631000008a35116111685760405162461bcd60e51b815260206004820152601e60248201527f6e6565642074686520746f74616c53616c65416d6f756e74203e2031303000006044820152606401610913565b60208a01358910801561117e57504260208b0135115b6111c05760405162461bcd60e51b8152602060048201526013602482015272696e76616c696420656e6453616c6554696d6560681b6044820152606401610913565b600160009054906101000a90046001600160a01b03166001600160a01b03166330e06e8b6040518163ffffffff1660e01b8152600401602060405180830381600087803b15801561121057600080fd5b505af1158015611224573d6000803e3d6000fd5b505050506040513d601f19601f820116820180604052508101906112489190613668565b93506040518060a001604052808c6001600160a01b031681526020018b60006004811061128557634e487b7160e01b600052603260045260246000fd5b602002013581526020018b6001600481106112b057634e487b7160e01b600052603260045260246000fd5b602002013581526020018b6003600481106112db57634e487b7160e01b600052603260045260246000fd5b602002013581526020018b60026004811061130657634e487b7160e01b600052603260045260246000fd5b60200201358152506007600086815260200190815260200160002060008201518160000160006101000a8154816001600160a01b0302191690836001600160a01b031602179055506020820151816001015560408201518160020155606082015181600301556080820151816004015590505060068490806001815401808255809150506001900390600052602060002001600090919091909150556040518060e001604052808a8152602001898152602001888152602001600081526020018715158152602001861515815260200160001515815250600960008681526020019081526020016000206000820151816000015560208201518160010155604082015181600201556060820151816003015560808201518160040160006101000a81548160ff02191690831515021790555060a08201518160040160016101000a81548160ff02191690831515021790555060c08201518160040160026101000a81548160ff02191690831515021790555090505060006001600160a01b03168b6001600160a01b0316146114f557600254604051639ea6498560e01b81526001600160a01b038d8116600483015290911690639ea6498590602401600060405180830381600087803b1580156114dc57600080fd5b505af11580156114f0573d6000803e3d6000fd5b505050505b7f6ef32463856d589b12c08be0cb53b4657cfb7ed7b19eab0eec955441662e8304848c8c8c8c8c8c8c604051611532989796959493929190613c05565b60405180910390a1505050979650505050505050565b60008281526008602052604090206001015461156481336131eb565b61156e838361324f565b505050565b6001600160a01b03811633146115e35760405162461bcd60e51b815260206004820152602f60248201527f416363657373436f6e74726f6c3a2063616e206f6e6c792072656e6f756e636560448201526e103937b632b9903337b91039b2b63360891b6064820152608401610913565b6115ed82826132d5565b5050565b6060600680548060200260200160405190810160405280929190818152602001828054801561163f57602002820191906000526020600020905b81548152602001906001019080831161162b575b5050505050905090565b61165233612cd3565b61166e5760405162461bcd60e51b8152600401610913906139de565b611686600080516020613d7a83398151915282612788565b50565b61169233612cdf565b6116ae5760405162461bcd60e51b815260040161091390613b36565b600082815260096020526040902054829042116116dd5760405162461bcd60e51b815260040161091390613b7f565b60008181526009602052604090206004015462010000900460ff16156117155760405162461bcd60e51b815260040161091390613a94565b60008181526007602052604090206002015442106117455760405162461bcd60e51b815260040161091390613a26565b600081815260096020908152604080832060030154600790925290912060010154116117835760405162461bcd60e51b815260040161091390613abb565b81806117a15760405162461bcd60e51b815260040161091390613a5d565b600084815260076020908152604091829020600381018690558251878152918201869052917f13067d803552eac6ffd9ed0180e377884374b0ee53d2efa798e1c6d6974db44191015b60405180910390a15050505050565b600081815260076020526040812060020154421080156108e8575050600090815260076020526040902060010154151590565b61183533612cdf565b6118515760405162461bcd60e51b815260040161091390613b36565b611869600080516020613d7a83398151915233611573565b565b61187433612cd3565b6118905760405162461bcd60e51b8152600401610913906139de565b611686600080516020613d5a83398151915282611548565b6118b133612cdf565b6118cd5760405162461bcd60e51b815260040161091390613b36565b60008281526007602052604090206003015482906118fd5760405162461bcd60e51b815260040161091390613bb6565b42821161193d5760405162461bcd60e51b815260206004820152600e60248201526d7061737420636c6f736554696d6560901b6044820152606401610913565b600083815260076020908152604091829020600281018590558251868152918201859052917fc3daa84eedfacd6851bbf80d00ce11271bf926ac96c3d361c0307023c939d4b3910160405180910390a150505050565b61199c33610f67565b806119ab57506119ab33612cd3565b6119c75760405162461bcd60e51b81526004016109139061399c565b6001600160a01b038116611a185760405162461bcd60e51b815260206004820152601860248201527741636365737369626c653a207a65726f206164647265737360401b6044820152606401610913565b336001600160a01b0382161415611a6a5760405162461bcd60e51b815260206004820152601660248201527520b1b1b2b9b9b4b136329d1039b0b6b29030b236b4b760511b6044820152606401610913565b611a82600080516020613d5a83398151915282611548565b611686600080516020613d5a83398151915233611573565b611aa333612cd3565b611abf5760405162461bcd60e51b8152600401610913906139de565b6001600160a01b038116611b105760405162461bcd60e51b815260206004820152601860248201527741636365737369626c653a207a65726f206164647265737360401b6044820152606401610913565b336001600160a01b0382161415611b625760405162461bcd60e51b815260206004820152601660248201527520b1b1b2b9b9b4b136329d1039b0b6b29030b236b4b760511b6044820152606401610913565b611b6d600082611548565b611686600033611573565b6060806060806060806000600680549050905060008167ffffffffffffffff811115611bb457634e487b7160e01b600052604160045260246000fd5b604051908082528060200260200182016040528015611bdd578160200160208202803683370190505b50905060008267ffffffffffffffff811115611c0957634e487b7160e01b600052604160045260246000fd5b604051908082528060200260200182016040528015611c32578160200160208202803683370190505b50905060008367ffffffffffffffff811115611c5e57634e487b7160e01b600052604160045260246000fd5b604051908082528060200260200182016040528015611c87578160200160208202803683370190505b50905060008467ffffffffffffffff811115611cb357634e487b7160e01b600052604160045260246000fd5b604051908082528060200260200182016040528015611cdc578160200160208202803683370190505b50905060008567ffffffffffffffff811115611d0857634e487b7160e01b600052604160045260246000fd5b604051908082528060200260200182016040528015611d31578160200160208202803683370190505b50905060008667ffffffffffffffff811115611d5d57634e487b7160e01b600052604160045260246000fd5b604051908082528060200260200182016040528015611dd457816020015b611dc16040518060e00160405280600081526020016000815260200160008152602001600081526020016000151581526020016000151581526020016000151581525090565b815260200190600190039081611d7b5790505b50905060005b878110156120e55760068181548110611e0357634e487b7160e01b600052603260045260246000fd5b9060005260206000200154878281518110611e2e57634e487b7160e01b600052603260045260246000fd5b60200260200101818152505060076000888381518110611e5e57634e487b7160e01b600052603260045260246000fd5b6020026020010151815260200190815260200160002060000160009054906101000a90046001600160a01b0316868281518110611eab57634e487b7160e01b600052603260045260246000fd5b60200260200101906001600160a01b031690816001600160a01b03168152505060076000888381518110611eef57634e487b7160e01b600052603260045260246000fd5b6020026020010151815260200190815260200160002060010154858281518110611f2957634e487b7160e01b600052603260045260246000fd5b60200260200101818152505060076000888381518110611f5957634e487b7160e01b600052603260045260246000fd5b6020026020010151815260200190815260200160002060020154848281518110611f9357634e487b7160e01b600052603260045260246000fd5b60200260200101818152505060076000888381518110611fc357634e487b7160e01b600052603260045260246000fd5b6020026020010151815260200190815260200160002060040154838281518110611ffd57634e487b7160e01b600052603260045260246000fd5b6020026020010181815250506009600088838151811061202d57634e487b7160e01b600052603260045260246000fd5b6020908102919091018101518252818101929092526040908101600020815160e08101835281548152600182015493810193909352600281015491830191909152600381015460608301526004015460ff8082161515608084015261010082048116151560a08401526201000090910416151560c082015282518390839081106120c757634e487b7160e01b600052603260045260246000fd5b602002602001018190525080806120dd90613cfe565b915050611dda565b50949c939b5091995097509550909350915050565b60009182526008602090815260408084206001600160a01b0393909316845291905290205460ff1690565b61212e33612cd3565b61214a5760405162461bcd60e51b8152600401610913906139de565b61168660008261333c565b61215e33610f67565b8061216d575061216d33612cd3565b6121895760405162461bcd60e51b81526004016109139061399c565b611869600080516020613d5a83398151915233611573565b6121aa33612cdf565b6121c65760405162461bcd60e51b815260040161091390613b36565b80806121e45760405162461bcd60e51b815260040161091390613a5d565b60008481526007602052604090206003015484906122145760405162461bcd60e51b815260040161091390613bb6565b60008581526007602090815260408083206009909252909120851561225257848260010160008282546122479190613c55565b9091555061228b9050565b806003015482600101546122669190613ca0565b851161228057848260010160008282546122479190613ca0565b600381015460018301555b68056bc75e2d63100000816003015483600101546122a99190613ca0565b116122fc5760048101805462ff00001916620100001790556040517f065f36f0cc9a946e058a78fcf529ed8629c0ad3f6d065007c3c9162fd2c39d63906122f39089815260200190565b60405180910390a15b6040805188815287151560208201529081018690527f5e6b6b7fc7d8fb3137611da2ee2b2529d67d6d9e3ae513c9431123de9aa8b88e9060600160405180910390a150505050505050565b60008060008060006123956040518060e00160405280600081526020016000815260200160008152602001600081526020016000151581526020016000151581526020016000151581525090565b50505060009384525050600760209081526040808420805460018083015460028085015460038087015460049788015460098b529b899020895160e081018b5281548152968101549a87019a909a529289015497850197909752958701546060840152959093015460ff8082161515608084015261010082048116151560a08401526201000090910416151560c08201526001600160a01b0390911696919592945090565b61244333612cdf565b61245f5760405162461bcd60e51b815260040161091390613b36565b6000828152600960205260409020548290421161248e5760405162461bcd60e51b815260040161091390613b7f565b60008181526009602052604090206004015462010000900460ff16156124c65760405162461bcd60e51b815260040161091390613a94565b60008181526007602052604090206002015442106124f65760405162461bcd60e51b815260040161091390613a26565b600081815260096020908152604080832060030154600790925290912060010154116125345760405162461bcd60e51b815260040161091390613abb565b81806125525760405162461bcd60e51b815260040161091390613a5d565b600084815260076020908152604091829020600481018690558251878152918201869052917f8d41eafd4a0911818359bda81daed68115ba0312f42a7098075150da886cd0a491016117ea565b6125a833612cd3565b6125c45760405162461bcd60e51b8152600401610913906139de565b611686600080516020613d7a83398151915282611548565b6000828152600760209081526040808320815160a0808201845282546001600160a01b0316825260018084015483870152600280850154848701526003808601546060808701919091526004968701546080808801919091528c8b5260098a52888b20895160e081018b5281548152958101549a86019a909a52928901549784019790975287015495820195909552949092015460ff8082161515948601949094526101008104841615159285019290925262010000909104909116151560c083015290836126b157806020015192506126f7565b609c8411156126bf57609c93505b609b6126cc600186613ca0565b83606001516126db9190613c81565b6126e59190613c6d565b81602001516126f49190613c55565b92505b505092915050565b61270833612cd3565b6127245760405162461bcd60e51b8152600401610913906139de565b611869600033611573565b600082815260096020526040812054421080159061275d575060008381526007602052604090206002015442105b156108e857600061276d846127ae565b915050600061277c85856125dc565b90506126f48282613346565b6000828152600860205260409020600101546127a481336131eb565b61156e83836132d5565b6000806000806127bd85610d91565b915091506000600760008781526020019081526020016000206040518060a00160405290816000820160009054906101000a90046001600160a01b03166001600160a01b03166001600160a01b0316815260200160018201548152602001600282015481526020016003820154815260200160048201548152505090506000600960008881526020019081526020016000206040518060e0016040529081600082015481526020016001820154815260200160028201548152602001600382015481526020016004820160009054906101000a900460ff161515151581526020016004820160019054906101000a900460ff161515151581526020016004820160029054906101000a900460ff161515151581525050905060008411156128f1578382602001516128ee9190613c6d565b95505b8215610f3a5760608101516129068488613c81565b6129109190613ca0565b945050505050915091565b6000838152600960205260408120548490421161294a5760405162461bcd60e51b815260040161091390613b7f565b60008181526009602052604090206004015462010000900460ff16156129825760405162461bcd60e51b815260040161091390613a94565b60008181526007602052604090206002015442106129b25760405162461bcd60e51b815260040161091390613a26565b600081815260096020908152604080832060030154600790925290912060010154116129f05760405162461bcd60e51b815260040161091390613abb565b60008581526007602052604090205485906001600160a01b0316158015612a27575060008181526007602052604090206002015415155b612a735760405162461bcd60e51b815260206004820152601e60248201527f426f6e644465706f7369746f72793a206e6f7420455448206d61726b657400006044820152606401610913565b8480612a915760405162461bcd60e51b815260040161091390613a5d565b8480612aaf5760405162461bcd60e51b815260040161091390613a5d565b863414612ace5760405162461bcd60e51b815260040161091390613af2565b600088815260096020526040902060040154610100900460ff16612b345760405162461bcd60e51b815260206004820152601a60248201527f756e617661696c61626c6520696e206c6f636b757020626f6e640000000000006044820152606401610913565b60018611612b945760405162461bcd60e51b815260206004820152602760248201527f5f6c6f636b5765656b73206d7573742062652067726561746572207468616e2060448201526618903bb2b2b59760c91b6064820152608401610913565b6000612ba233898b8a612cf9565b60015460405163980b109760e01b81529298509092506000916001600160a01b039091169063980b109790612be39033908b908f908e908990600401613832565b602060405180830381600087803b158015612bfd57600080fd5b505af1158015612c11573d6000803e3d6000fd5b505050506040513d601f19601f82011682018060405250810190612c359190613668565b6002546040519192506001600160a01b0316903480156108fc02916000818181858888f19350505050158015612c6f573d6000803e3d6000fd5b5060408051338152602081018c9052908101829052606081018a90526080810189905260a081018890527fd04d64d5a1460d8c5a8c5ffb4d6ddb0f4e5cf774c894a27c5bb73c4fc41698809060c00160405180910390a15050505050509392505050565b60006108e881836120fa565b60006108e8600080516020613d7a833981519152836120fa565b600080600560149054906101000a900460ff161515600115151415612d605760405162461bcd60e51b815260206004820152601f60248201527f5265656e7472616e637947756172643a207265656e7472616e742063616c6c006044820152606401610913565b506005805460ff60a01b1916600160a01b179055600083815260076020908152604091829020825160a08101845281546001600160a01b031681526001820154928101929092526002810154828401526003810154606083015260049081015460808301819052925163519cf73960e11b8152908101839052602481018790526012604482015273__$4d923e520bb3d76171e9f0ef8a628d91a4$__9063a339ee729060640160206040518083038186803b158015612e1e57600080fd5b505af4158015612e32573d6000803e3d6000fd5b505050506040513d601f19601f82011682018060405250810190612e569190613668565b925060008311612e9e5760405162461bcd60e51b81526020600482015260136024820152721e995c9bc81cdd185ada5b99c8185b5bdd5b9d606a1b6044820152606401610913565b612ea8858561272f565b831115612ef75760405162461bcd60e51b815260206004820152601b60248201527f6578636565642063757272656e7443617061636974794c696d697400000000006044820152606401610913565b6000670de0b6b3a7640000600260009054906101000a90046001600160a01b03166001600160a01b03166396f0bd616040518163ffffffff1660e01b815260040160206040518083038186803b158015612f5057600080fd5b505afa158015612f64573d6000803e3d6000fd5b505050506040513d601f19601f82011682018060405250810190612f889190613668565b612f929089613c81565b612f9c9190613c6d565b9050838110156130025760405162461bcd60e51b815260206004820152602b60248201527f6d696e7461626c65416d6f756e74206973206c657373207468616e207374616b60448201526a34b7339030b6b7bab73a1760a91b6064820152608401610913565b600086815260096020908152604090912060030154908301516130259190613ca0565b84111561306b5760405162461bcd60e51b815260206004820152601460248201527311195c1bdcda5d1bdc9e4e881cdbdb19081bdd5d60621b6044820152606401610913565b60008681526009602052604081206003810180549192879261308e908490613c55565b90915550506003810154602084015168056bc75e2d63100000916130b191613ca0565b116131045760048101805462ff00001916620100001790556040517f065f36f0cc9a946e058a78fcf529ed8629c0ad3f6d065007c3c9162fd2c39d63906130fb9089815260200190565b60405180910390a15b60025460405163ef7c6c0f60e01b81526004810184905260248101879052600160448201526001600160a01b039091169063ef7c6c0f90606401600060405180830381600087803b15801561315857600080fd5b505af115801561316c573d6000803e3d6000fd5b5050604080516001600160a01b038d168152602081018b90529081018b9052606081018890526001608082015260a081018590527fef81711614d4ac7faee84826311bec7d949a272a2e7e4f39f3a3b72527767d69925060c001905060405180910390a150506005805460ff60a01b1916905550909590945092505050565b6131f582826120fa565b6115ed5761320d816001600160a01b0316601461335e565b61321883602061335e565b6040516020016132299291906137bd565b60408051601f198184030181529082905262461bcd60e51b825261091391600401613969565b61325982826120fa565b6115ed5760008281526008602090815260408083206001600160a01b03851684529091529020805460ff191660011790556132913390565b6001600160a01b0316816001600160a01b0316837f2f8788117e7eff1d82e926ec794901d17c78024a50270940304540a733656f0d60405160405180910390a45050565b6132df82826120fa565b156115ed5760008281526008602090815260408083206001600160a01b0385168085529252808320805460ff1916905551339285917ff6391f5c32d9c69d2a47ea670b442974b53935d1edc7fd64eb21e047a839171b9190a45050565b6115ed828261324f565b60008183106133555781613357565b825b9392505050565b6060600061336d836002613c81565b613378906002613c55565b67ffffffffffffffff81111561339e57634e487b7160e01b600052604160045260246000fd5b6040519080825280601f01601f1916602001820160405280156133c8576020820181803683370190505b509050600360fc1b816000815181106133f157634e487b7160e01b600052603260045260246000fd5b60200101906001600160f81b031916908160001a905350600f60fb1b8160018151811061342e57634e487b7160e01b600052603260045260246000fd5b60200101906001600160f81b031916908160001a9053506000613452846002613c81565b61345d906001613c55565b90505b60018111156134f1576f181899199a1a9b1b9c1cb0b131b232b360811b85600f166010811061349f57634e487b7160e01b600052603260045260246000fd5b1a60f81b8282815181106134c357634e487b7160e01b600052603260045260246000fd5b60200101906001600160f81b031916908160001a90535060049490941c936134ea81613ce7565b9050613460565b5083156133575760405162461bcd60e51b815260206004820181905260248201527f537472696e67733a20686578206c656e67746820696e73756666696369656e746044820152606401610913565b80356001600160a01b038116811461355757600080fd5b919050565b8035801515811461355757600080fd5b60006020828403121561357d578081fd5b61335782613540565b6000806000806000806000610140888a0312156135a1578283fd5b6135aa88613540565b965060a08801898111156135bc578384fd5b60208901965035945060c0880135935060e088013592506135e0610100890161355c565b91506135ef610120890161355c565b905092959891949750929550565b60006020828403121561360e578081fd5b5035919050565b60008060408385031215613627578182fd5b8235915061363760208401613540565b90509250929050565b600060208284031215613651578081fd5b81356001600160e01b031981168114613357578182fd5b600060208284031215613679578081fd5b5051919050565b600080600060608486031215613694578283fd5b833592506136a46020850161355c565b9150604084013590509250925092565b600080604083850312156136c6578182fd5b50508035926020909101359150565b6000806000606084860312156136e9578283fd5b505081359360208301359350604090920135919050565b6000815180845260208085019450808401835b8381101561373957613726878351613773565b60e0969096019590820190600101613713565b509495945050505050565b6000815180845260208085019450808401835b8381101561373957815187529582019590820190600101613757565b8051825260208101516020830152604081015160408301526060810151606083015260808101511515608083015260a0810151151560a083015260c0810151151560c08301525050565b7f416363657373436f6e74726f6c3a206163636f756e74200000000000000000008152600083516137f5816017850160208801613cb7565b7001034b99036b4b9b9b4b733903937b6329607d1b6017918401918201528351613826816028840160208801613cb7565b01602801949350505050565b6001600160a01b03959095168552602085019390935260408401919091526060830152608082015260a00190565b6001600160a01b038716815260208101869052604081018590526060810184905260808101839052610180810161389a60a0830184613773565b979650505050505050565b6020815260006133576020830184613744565b60c0815260006138cb60c0830189613744565b828103602084810191909152885180835289820192820190845b8181101561390a5784516001600160a01b0316835293830193918301916001016138e5565b5050848103604086015261391e818a613744565b9250505082810360608401526139348187613744565b905082810360808401526139488186613744565b905082810360a084015261395c8185613700565b9998505050505050505050565b6020815260008251806020840152613988816040850160208701613cb7565b601f01601f19169190910160400192915050565b60208082526022908201527f41636365737369626c653a2043616c6c6572206973206e6f7420616e2061646d60408201526134b760f11b606082015260800190565b60208082526028908201527f41636365737369626c653a2043616c6c6572206973206e6f7420616e2070726f6040820152673c3c9030b236b4b760c11b606082015260800190565b6020808252601d908201527f426f6e644465706f7369746f72793a20636c6f736564206d61726b6574000000604082015260600190565b60208082526019908201527f426f6e644465706f7369746f72793a207a65726f2075696e7400000000000000604082015260600190565b6020808252600d908201526c18db1bdcd959081b585c9ad95d609a1b604082015260600190565b6020808252601d908201527f426f6e644465706f7369746f72793a207a65726f206361706163697479000000604082015260600190565b60208082526024908201527f4465706f7369746f72793a2045544820616d6f756e747320646f206e6f74206d6040820152630c2e8c6d60e31b606082015260800190565b60208082526029908201527f41636365737369626c653a2043616c6c6572206973206e6f7420616e20706f6c60408201526834b1bc9030b236b4b760b91b606082015260800190565b60208082526018908201527f4d61726b6574206973206e6f74206f70656e6564207965740000000000000000604082015260600190565b6020808252602f908201527f426f6e644465706f7369746f72793a207061796f75742068617320746f20626560408201526e02067726561746572207468616e203608c1b606082015260800190565b8881526001600160a01b03881660208201526101608101608088604084013760c082019690965260e081019490945261010084019290925215156101208301521515610140909101529392505050565b60008219821115613c6857613c68613d2d565b500190565b600082613c7c57613c7c613d43565b500490565b6000816000190483118215151615613c9b57613c9b613d2d565b500290565b600082821015613cb257613cb2613d2d565b500390565b60005b83811015613cd2578181015183820152602001613cba565b83811115613ce1576000848401525b50505050565b600081613cf657613cf6613d2d565b506000190190565b6000600019821415613d1257613d12613d2d565b5060010190565b600082613d2857613d28613d43565b500690565b634e487b7160e01b600052601160045260246000fd5b634e487b7160e01b600052601260045260246000fdfedf8b4c520ffe197c5343c6f5aec59570151ef9a492f2c624fd45ddde6135ec42fb5864e8ff833c3cb2d2d08505e82ff02a43554c74a35d4f5a64e85261278311a26469706673582212208ebde32960525afa7cd90b796b35567a979502c1d121f024b3a75086d05ed98164736f6c63430008040033",
  "linkReferences": {
    "contracts/libraries/LibBondDepositoryV1_1.sol": {
      "LibBondDepositoryV1_1": [
        {
          "length": 20,
          "start": 11785
        }
      ]
    }
  },
  "deployedLinkReferences": {
    "contracts/libraries/LibBondDepositoryV1_1.sol": {
      "LibBondDepositoryV1_1": [
        {
          "length": 20,
          "start": 11753
        }
      ]
    }
  }
}