{
  "_format": "hh-sol-artifact-1",
  "contractName": "BondDepositoryV1_5",
  "sourceName": "contracts/BondDepositoryV1_5.sol",
  "abi": [
    {
      "inputs": [],
      "stateMutability": "nonpayable",
      "type": "constructor"
    },
    {
      "anonymous": false,
      "inputs": [
        {
          "indexed": false,
          "internalType": "uint256",
          "name": "_marketId",
          "type": "uint256"
        },
        {
          "indexed": false,
          "internalType": "address",
          "name": "bonusRatesAddress",
          "type": "address"
        },
        {
          "indexed": false,
          "internalType": "uint256",
          "name": "bonusRatesId",
          "type": "uint256"
        }
      ],
      "name": "ChangedBonusRateInfo",
      "type": "event"
    },
    {
      "anonymous": false,
      "inputs": [
        {
          "indexed": false,
          "internalType": "uint256",
          "name": "_marketId",
          "type": "uint256"
        },
        {
          "indexed": false,
          "internalType": "bool",
          "name": "_increaseFlag",
          "type": "bool"
        },
        {
          "indexed": false,
          "internalType": "uint256",
          "name": "_increaseAmount",
          "type": "uint256"
        }
      ],
      "name": "ChangedCapacity",
      "type": "event"
    },
    {
      "anonymous": false,
      "inputs": [
        {
          "indexed": false,
          "internalType": "uint256",
          "name": "_marketId",
          "type": "uint256"
        },
        {
          "indexed": false,
          "internalType": "uint256",
          "name": "closeTime",
          "type": "uint256"
        }
      ],
      "name": "ChangedCloseTime",
      "type": "event"
    },
    {
      "anonymous": false,
      "inputs": [
        {
          "indexed": false,
          "internalType": "uint256",
          "name": "_marketId",
          "type": "uint256"
        },
        {
          "indexed": false,
          "internalType": "uint256",
          "name": "_tosPrice",
          "type": "uint256"
        }
      ],
      "name": "ChangedLowerPriceLimit",
      "type": "event"
    },
    {
      "anonymous": false,
      "inputs": [
        {
          "indexed": false,
          "internalType": "address",
          "name": "oralceLibrary",
          "type": "address"
        },
        {
          "indexed": false,
          "internalType": "address",
          "name": "uniswapFactory",
          "type": "address"
        }
      ],
      "name": "ChangedOracleLibrary",
      "type": "event"
    },
    {
      "anonymous": false,
      "inputs": [
        {
          "indexed": false,
          "internalType": "uint256",
          "name": "_marketId",
          "type": "uint256"
        },
        {
          "indexed": false,
          "internalType": "address[]",
          "name": "_pools",
          "type": "address[]"
        }
      ],
      "name": "ChangedPools",
      "type": "event"
    },
    {
      "anonymous": false,
      "inputs": [
        {
          "indexed": false,
          "internalType": "uint256",
          "name": "_marketId",
          "type": "uint256"
        },
        {
          "indexed": false,
          "internalType": "bytes[]",
          "name": "pathes",
          "type": "bytes[]"
        }
      ],
      "name": "ChangedPricePathInfo",
      "type": "event"
    },
    {
      "anonymous": false,
      "inputs": [
        {
          "indexed": false,
          "internalType": "uint256",
          "name": "amount",
          "type": "uint256"
        }
      ],
      "name": "ChangedRemainingTosTolerance",
      "type": "event"
    },
    {
      "anonymous": false,
      "inputs": [
        {
          "indexed": false,
          "internalType": "uint256",
          "name": "marketId",
          "type": "uint256"
        }
      ],
      "name": "ClosedMarket",
      "type": "event"
    },
    {
      "anonymous": false,
      "inputs": [
        {
          "indexed": false,
          "internalType": "uint256",
          "name": "marketId",
          "type": "uint256"
        },
        {
          "indexed": false,
          "internalType": "address",
          "name": "token",
          "type": "address"
        },
        {
          "indexed": false,
          "internalType": "uint256[3]",
          "name": "marketInfos",
          "type": "uint256[3]"
        },
        {
          "indexed": false,
          "internalType": "address",
          "name": "bonusRatesAddress",
          "type": "address"
        },
        {
          "indexed": false,
          "internalType": "uint256",
          "name": "bonusRatesId",
          "type": "uint256"
        },
        {
          "indexed": false,
          "internalType": "uint32",
          "name": "startTime",
          "type": "uint32"
        },
        {
          "indexed": false,
          "internalType": "uint32",
          "name": "endTime",
          "type": "uint32"
        },
        {
          "indexed": false,
          "internalType": "bytes[]",
          "name": "pathes",
          "type": "bytes[]"
        }
      ],
      "name": "CreatedMarket",
      "type": "event"
    },
    {
      "anonymous": false,
      "inputs": [
        {
          "indexed": false,
          "internalType": "address",
          "name": "user",
          "type": "address"
        },
        {
          "indexed": false,
          "internalType": "uint256",
          "name": "marketId",
          "type": "uint256"
        },
        {
          "indexed": false,
          "internalType": "uint256",
          "name": "amount",
          "type": "uint256"
        },
        {
          "indexed": false,
          "internalType": "uint256",
          "name": "payout",
          "type": "uint256"
        },
        {
          "indexed": false,
          "internalType": "bool",
          "name": "isEth",
          "type": "bool"
        },
        {
          "indexed": false,
          "internalType": "uint256",
          "name": "mintAmount",
          "type": "uint256"
        }
      ],
      "name": "Deposited",
      "type": "event"
    },
    {
      "anonymous": false,
      "inputs": [
        {
          "indexed": false,
          "internalType": "address",
          "name": "user",
          "type": "address"
        },
        {
          "indexed": false,
          "internalType": "uint256",
          "name": "marketId",
          "type": "uint256"
        },
        {
          "indexed": false,
          "internalType": "uint256",
          "name": "stakeId",
          "type": "uint256"
        },
        {
          "indexed": false,
          "internalType": "uint256",
          "name": "amount",
          "type": "uint256"
        },
        {
          "indexed": false,
          "internalType": "uint256",
          "name": "minimumTosPrice",
          "type": "uint256"
        },
        {
          "indexed": false,
          "internalType": "uint256",
          "name": "tosValuation",
          "type": "uint256"
        }
      ],
      "name": "ETHDeposited",
      "type": "event"
    },
    {
      "anonymous": false,
      "inputs": [
        {
          "indexed": false,
          "internalType": "address",
          "name": "user",
          "type": "address"
        },
        {
          "indexed": false,
          "internalType": "uint256",
          "name": "marketId",
          "type": "uint256"
        },
        {
          "indexed": false,
          "internalType": "uint256",
          "name": "stakeId",
          "type": "uint256"
        },
        {
          "indexed": false,
          "internalType": "uint256",
          "name": "amount",
          "type": "uint256"
        },
        {
          "indexed": false,
          "internalType": "uint256",
          "name": "minimumTosPrice",
          "type": "uint256"
        },
        {
          "indexed": false,
          "internalType": "uint8",
          "name": "lockWeeks",
          "type": "uint8"
        },
        {
          "indexed": false,
          "internalType": "uint256",
          "name": "tosValuation",
          "type": "uint256"
        }
      ],
      "name": "ETHDepositedWithSTOS",
      "type": "event"
    },
    {
      "anonymous": false,
      "inputs": [
        {
          "indexed": true,
          "internalType": "bytes32",
          "name": "role",
          "type": "bytes32"
        },
        {
          "indexed": true,
          "internalType": "bytes32",
          "name": "previousAdminRole",
          "type": "bytes32"
        },
        {
          "indexed": true,
          "internalType": "bytes32",
          "name": "newAdminRole",
          "type": "bytes32"
        }
      ],
      "name": "RoleAdminChanged",
      "type": "event"
    },
    {
      "anonymous": false,
      "inputs": [
        {
          "indexed": true,
          "internalType": "bytes32",
          "name": "role",
          "type": "bytes32"
        },
        {
          "indexed": true,
          "internalType": "address",
          "name": "account",
          "type": "address"
        },
        {
          "indexed": true,
          "internalType": "address",
          "name": "sender",
          "type": "address"
        }
      ],
      "name": "RoleGranted",
      "type": "event"
    },
    {
      "anonymous": false,
      "inputs": [
        {
          "indexed": true,
          "internalType": "bytes32",
          "name": "role",
          "type": "bytes32"
        },
        {
          "indexed": true,
          "internalType": "address",
          "name": "account",
          "type": "address"
        },
        {
          "indexed": true,
          "internalType": "address",
          "name": "sender",
          "type": "address"
        }
      ],
      "name": "RoleRevoked",
      "type": "event"
    },
    {
      "anonymous": false,
      "inputs": [
        {
          "indexed": false,
          "internalType": "address",
          "name": "calculatorAddress",
          "type": "address"
        }
      ],
      "name": "SetCalculator",
      "type": "event"
    },
    {
      "inputs": [],
      "name": "ADMIN_ROLE",
      "outputs": [
        {
          "internalType": "bytes32",
          "name": "",
          "type": "bytes32"
        }
      ],
      "stateMutability": "view",
      "type": "function"
    },
    {
      "inputs": [],
      "name": "DEFAULT_ADMIN_ROLE",
      "outputs": [
        {
          "internalType": "bytes32",
          "name": "",
          "type": "bytes32"
        }
      ],
      "stateMutability": "view",
      "type": "function"
    },
    {
      "inputs": [
        {
          "internalType": "uint256",
          "name": "_id",
          "type": "uint256"
        },
        {
          "internalType": "uint256",
          "name": "_amount",
          "type": "uint256"
        },
        {
          "internalType": "uint256",
          "name": "_minimumTosPrice",
          "type": "uint256"
        }
      ],
      "name": "ETHDeposit",
      "outputs": [
        {
          "internalType": "uint256",
          "name": "payout_",
          "type": "uint256"
        }
      ],
      "stateMutability": "payable",
      "type": "function"
    },
    {
      "inputs": [
        {
          "internalType": "uint256",
          "name": "_id",
          "type": "uint256"
        },
        {
          "internalType": "uint256",
          "name": "_amount",
          "type": "uint256"
        },
        {
          "internalType": "uint256",
          "name": "_minimumTosPrice",
          "type": "uint256"
        },
        {
          "internalType": "uint8",
          "name": "_lockWeeks",
          "type": "uint8"
        }
      ],
      "name": "ETHDepositWithSTOS",
      "outputs": [
        {
          "internalType": "uint256",
          "name": "payout_",
          "type": "uint256"
        }
      ],
      "stateMutability": "payable",
      "type": "function"
    },
    {
      "inputs": [],
      "name": "POLICY_ROLE",
      "outputs": [
        {
          "internalType": "bytes32",
          "name": "",
          "type": "bytes32"
        }
      ],
      "stateMutability": "view",
      "type": "function"
    },
    {
      "inputs": [
        {
          "internalType": "address",
          "name": "account",
          "type": "address"
        }
      ],
      "name": "addAdmin",
      "outputs": [],
      "stateMutability": "nonpayable",
      "type": "function"
    },
    {
      "inputs": [
        {
          "internalType": "address",
          "name": "_account",
          "type": "address"
        }
      ],
      "name": "addPolicy",
      "outputs": [],
      "stateMutability": "nonpayable",
      "type": "function"
    },
    {
      "inputs": [
        {
          "internalType": "address",
          "name": "_owner",
          "type": "address"
        }
      ],
      "name": "addProxyAdmin",
      "outputs": [],
      "stateMutability": "nonpayable",
      "type": "function"
    },
    {
      "inputs": [],
      "name": "calculator",
      "outputs": [
        {
          "internalType": "address",
          "name": "",
          "type": "address"
        }
      ],
      "stateMutability": "view",
      "type": "function"
    },
    {
      "inputs": [
        {
          "internalType": "uint256",
          "name": "_marketId",
          "type": "uint256"
        },
        {
          "internalType": "address",
          "name": "_bonusRatesAddress",
          "type": "address"
        },
        {
          "internalType": "uint256",
          "name": "_bonusRatesId",
          "type": "uint256"
        }
      ],
      "name": "changeBonusRateInfo",
      "outputs": [],
      "stateMutability": "nonpayable",
      "type": "function"
    },
    {
      "inputs": [
        {
          "internalType": "uint256",
          "name": "_marketId",
          "type": "uint256"
        },
        {
          "internalType": "bool",
          "name": "_increaseFlag",
          "type": "bool"
        },
        {
          "internalType": "uint256",
          "name": "_increaseAmount",
          "type": "uint256"
        }
      ],
      "name": "changeCapacity",
      "outputs": [],
      "stateMutability": "nonpayable",
      "type": "function"
    },
    {
      "inputs": [
        {
          "internalType": "uint256",
          "name": "_marketId",
          "type": "uint256"
        },
        {
          "internalType": "uint256",
          "name": "closeTime",
          "type": "uint256"
        }
      ],
      "name": "changeCloseTime",
      "outputs": [],
      "stateMutability": "nonpayable",
      "type": "function"
    },
    {
      "inputs": [
        {
          "internalType": "uint256",
          "name": "_marketId",
          "type": "uint256"
        },
        {
          "internalType": "uint256",
          "name": "_tosPrice",
          "type": "uint256"
        }
      ],
      "name": "changeLowerPriceLimit",
      "outputs": [],
      "stateMutability": "nonpayable",
      "type": "function"
    },
    {
      "inputs": [
        {
          "internalType": "address",
          "name": "_oralceLibrary",
          "type": "address"
        },
        {
          "internalType": "address",
          "name": "_uniswapFactory",
          "type": "address"
        }
      ],
      "name": "changeOracleLibrary",
      "outputs": [],
      "stateMutability": "nonpayable",
      "type": "function"
    },
    {
      "inputs": [
        {
          "internalType": "uint256",
          "name": "_marketId",
          "type": "uint256"
        },
        {
          "internalType": "bytes[]",
          "name": "paths",
          "type": "bytes[]"
        }
      ],
      "name": "changePricePathInfo",
      "outputs": [],
      "stateMutability": "nonpayable",
      "type": "function"
    },
    {
      "inputs": [
        {
          "internalType": "uint256",
          "name": "_amount",
          "type": "uint256"
        }
      ],
      "name": "changeRemainingTosTolerance",
      "outputs": [],
      "stateMutability": "nonpayable",
      "type": "function"
    },
    {
      "inputs": [
        {
          "internalType": "uint256",
          "name": "_id",
          "type": "uint256"
        }
      ],
      "name": "close",
      "outputs": [],
      "stateMutability": "nonpayable",
      "type": "function"
    },
    {
      "inputs": [
        {
          "internalType": "address",
          "name": "_token",
          "type": "address"
        },
        {
          "internalType": "uint256[3]",
          "name": "_marketInfos",
          "type": "uint256[3]"
        },
        {
          "internalType": "address",
          "name": "_bonusRatesAddress",
          "type": "address"
        },
        {
          "internalType": "uint256",
          "name": "_bonusRatesId",
          "type": "uint256"
        },
        {
          "internalType": "uint32",
          "name": "_startTime",
          "type": "uint32"
        },
        {
          "internalType": "uint32",
          "name": "_endTime",
          "type": "uint32"
        },
        {
          "internalType": "bytes[]",
          "name": "_paths",
          "type": "bytes[]"
        }
      ],
      "name": "create",
      "outputs": [
        {
          "internalType": "uint256",
          "name": "id_",
          "type": "uint256"
        }
      ],
      "stateMutability": "nonpayable",
      "type": "function"
    },
    {
      "inputs": [
        {
          "internalType": "address",
          "name": "_account",
          "type": "address"
        }
      ],
      "name": "deletePolicy",
      "outputs": [],
      "stateMutability": "nonpayable",
      "type": "function"
    },
    {
      "inputs": [],
      "name": "dtos",
      "outputs": [
        {
          "internalType": "address",
          "name": "",
          "type": "address"
        }
      ],
      "stateMutability": "view",
      "type": "function"
    },
    {
      "inputs": [
        {
          "internalType": "uint256",
          "name": "_marketId",
          "type": "uint256"
        }
      ],
      "name": "getBasePrice",
      "outputs": [
        {
          "internalType": "uint256",
          "name": "basePrice",
          "type": "uint256"
        },
        {
          "internalType": "uint256",
          "name": "lowerPriceLimit",
          "type": "uint256"
        },
        {
          "internalType": "uint256",
          "name": "uniswapPrice",
          "type": "uint256"
        }
      ],
      "stateMutability": "view",
      "type": "function"
    },
    {
      "inputs": [
        {
          "internalType": "uint256",
          "name": "_marketId",
          "type": "uint256"
        },
        {
          "internalType": "uint8",
          "name": "_lockWeeks",
          "type": "uint8"
        },
        {
          "internalType": "uint256",
          "name": "basePrice",
          "type": "uint256"
        }
      ],
      "name": "getBondingPrice",
      "outputs": [
        {
          "internalType": "uint256",
          "name": "bondingPrice",
          "type": "uint256"
        }
      ],
      "stateMutability": "view",
      "type": "function"
    },
    {
      "inputs": [],
      "name": "getBonds",
      "outputs": [
        {
          "internalType": "uint256[]",
          "name": "",
          "type": "uint256[]"
        },
        {
          "components": [
            {
              "internalType": "address",
              "name": "quoteToken",
              "type": "address"
            },
            {
              "internalType": "uint256",
              "name": "capacity",
              "type": "uint256"
            },
            {
              "internalType": "uint256",
              "name": "endSaleTime",
              "type": "uint256"
            },
            {
              "internalType": "uint256",
              "name": "maxPayout",
              "type": "uint256"
            },
            {
              "internalType": "uint256",
              "name": "tosPrice",
              "type": "uint256"
            }
          ],
          "internalType": "struct LibBondDepository.Market[]",
          "name": "",
          "type": "tuple[]"
        },
        {
          "components": [
            {
              "internalType": "uint8",
              "name": "bondType",
              "type": "uint8"
            },
            {
              "internalType": "uint32",
              "name": "startTime",
              "type": "uint32"
            },
            {
              "internalType": "bool",
              "name": "closed",
              "type": "bool"
            },
            {
              "internalType": "uint256",
              "name": "capacityUpdatePeriod",
              "type": "uint256"
            },
            {
              "internalType": "uint256",
              "name": "totalSold",
              "type": "uint256"
            }
          ],
          "internalType": "struct LibBondDepositoryV1_5.MarketInfo[]",
          "name": "",
          "type": "tuple[]"
        },
        {
          "components": [
            {
              "internalType": "address",
              "name": "bonusRatesAddress",
              "type": "address"
            },
            {
              "internalType": "uint256",
              "name": "bonusRatesId",
              "type": "uint256"
            }
          ],
          "internalType": "struct LibBondDepositoryV1_5.BonusRateInfo[]",
          "name": "",
          "type": "tuple[]"
        }
      ],
      "stateMutability": "view",
      "type": "function"
    },
    {
      "inputs": [],
      "name": "getMarketList",
      "outputs": [
        {
          "internalType": "uint256[]",
          "name": "",
          "type": "uint256[]"
        }
      ],
      "stateMutability": "view",
      "type": "function"
    },
    {
      "inputs": [
        {
          "internalType": "bytes32",
          "name": "role",
          "type": "bytes32"
        }
      ],
      "name": "getRoleAdmin",
      "outputs": [
        {
          "internalType": "bytes32",
          "name": "",
          "type": "bytes32"
        }
      ],
      "stateMutability": "view",
      "type": "function"
    },
    {
      "inputs": [
        {
          "internalType": "uint256",
          "name": "_marketId",
          "type": "uint256"
        }
      ],
      "name": "getUniswapPrice",
      "outputs": [
        {
          "internalType": "uint256",
          "name": "uniswapPrice",
          "type": "uint256"
        }
      ],
      "stateMutability": "view",
      "type": "function"
    },
    {
      "inputs": [
        {
          "internalType": "bytes32",
          "name": "role",
          "type": "bytes32"
        },
        {
          "internalType": "address",
          "name": "account",
          "type": "address"
        }
      ],
      "name": "grantRole",
      "outputs": [],
      "stateMutability": "nonpayable",
      "type": "function"
    },
    {
      "inputs": [
        {
          "internalType": "bytes32",
          "name": "role",
          "type": "bytes32"
        },
        {
          "internalType": "address",
          "name": "account",
          "type": "address"
        }
      ],
      "name": "hasRole",
      "outputs": [
        {
          "internalType": "bool",
          "name": "",
          "type": "bool"
        }
      ],
      "stateMutability": "view",
      "type": "function"
    },
    {
      "inputs": [
        {
          "internalType": "address",
          "name": "account",
          "type": "address"
        }
      ],
      "name": "isAdmin",
      "outputs": [
        {
          "internalType": "bool",
          "name": "",
          "type": "bool"
        }
      ],
      "stateMutability": "view",
      "type": "function"
    },
    {
      "inputs": [
        {
          "internalType": "uint256",
          "name": "_marketId",
          "type": "uint256"
        }
      ],
      "name": "isOpened",
      "outputs": [
        {
          "internalType": "bool",
          "name": "closedBool",
          "type": "bool"
        }
      ],
      "stateMutability": "view",
      "type": "function"
    },
    {
      "inputs": [
        {
          "internalType": "address",
          "name": "account",
          "type": "address"
        }
      ],
      "name": "isPolicy",
      "outputs": [
        {
          "internalType": "bool",
          "name": "",
          "type": "bool"
        }
      ],
      "stateMutability": "view",
      "type": "function"
    },
    {
      "inputs": [
        {
          "internalType": "address",
          "name": "account",
          "type": "address"
        }
      ],
      "name": "isProxyAdmin",
      "outputs": [
        {
          "internalType": "bool",
          "name": "",
          "type": "bool"
        }
      ],
      "stateMutability": "view",
      "type": "function"
    },
    {
      "inputs": [
        {
          "internalType": "uint256",
          "name": "",
          "type": "uint256"
        }
      ],
      "name": "marketList",
      "outputs": [
        {
          "internalType": "uint256",
          "name": "",
          "type": "uint256"
        }
      ],
      "stateMutability": "view",
      "type": "function"
    },
    {
      "inputs": [
        {
          "internalType": "uint256",
          "name": "",
          "type": "uint256"
        }
      ],
      "name": "markets",
      "outputs": [
        {
          "internalType": "address",
          "name": "quoteToken",
          "type": "address"
        },
        {
          "internalType": "uint256",
          "name": "capacity",
          "type": "uint256"
        },
        {
          "internalType": "uint256",
          "name": "endSaleTime",
          "type": "uint256"
        },
        {
          "internalType": "uint256",
          "name": "maxPayout",
          "type": "uint256"
        },
        {
          "internalType": "uint256",
          "name": "tosPrice",
          "type": "uint256"
        }
      ],
      "stateMutability": "view",
      "type": "function"
    },
    {
      "inputs": [],
      "name": "oracleLibrary",
      "outputs": [
        {
          "internalType": "address",
          "name": "",
          "type": "address"
        }
      ],
      "stateMutability": "view",
      "type": "function"
    },
    {
      "inputs": [
        {
          "internalType": "uint256",
          "name": "_marketId",
          "type": "uint256"
        }
      ],
      "name": "possibleMaxCapacity",
      "outputs": [
        {
          "internalType": "uint256",
          "name": "periodicCapacity",
          "type": "uint256"
        },
        {
          "internalType": "uint256",
          "name": "currentCapacity",
          "type": "uint256"
        }
      ],
      "stateMutability": "view",
      "type": "function"
    },
    {
      "inputs": [],
      "name": "remainingTosTolerance",
      "outputs": [
        {
          "internalType": "uint256",
          "name": "",
          "type": "uint256"
        }
      ],
      "stateMutability": "view",
      "type": "function"
    },
    {
      "inputs": [],
      "name": "removeAdmin",
      "outputs": [],
      "stateMutability": "nonpayable",
      "type": "function"
    },
    {
      "inputs": [],
      "name": "removePolicy",
      "outputs": [],
      "stateMutability": "nonpayable",
      "type": "function"
    },
    {
      "inputs": [],
      "name": "removeProxyAdmin",
      "outputs": [],
      "stateMutability": "nonpayable",
      "type": "function"
    },
    {
      "inputs": [
        {
          "internalType": "bytes32",
          "name": "role",
          "type": "bytes32"
        },
        {
          "internalType": "address",
          "name": "account",
          "type": "address"
        }
      ],
      "name": "renounceRole",
      "outputs": [],
      "stateMutability": "nonpayable",
      "type": "function"
    },
    {
      "inputs": [
        {
          "internalType": "bytes32",
          "name": "role",
          "type": "bytes32"
        },
        {
          "internalType": "address",
          "name": "account",
          "type": "address"
        }
      ],
      "name": "revokeRole",
      "outputs": [],
      "stateMutability": "nonpayable",
      "type": "function"
    },
    {
      "inputs": [
        {
          "internalType": "uint256",
          "name": "startTime",
          "type": "uint256"
        },
        {
          "internalType": "uint256",
          "name": "endSaleTime",
          "type": "uint256"
        },
        {
          "internalType": "uint256",
          "name": "capacityUpdatePeriod",
          "type": "uint256"
        }
      ],
      "name": "salePeriod",
      "outputs": [
        {
          "internalType": "uint256",
          "name": "numberOfPeriods",
          "type": "uint256"
        },
        {
          "internalType": "uint256",
          "name": "numberOfPeriodsPassed",
          "type": "uint256"
        }
      ],
      "stateMutability": "view",
      "type": "function"
    },
    {
      "inputs": [],
      "name": "staking",
      "outputs": [
        {
          "internalType": "contract IStaking",
          "name": "",
          "type": "address"
        }
      ],
      "stateMutability": "view",
      "type": "function"
    },
    {
      "inputs": [
        {
          "internalType": "bytes4",
          "name": "interfaceId",
          "type": "bytes4"
        }
      ],
      "name": "supportsInterface",
      "outputs": [
        {
          "internalType": "bool",
          "name": "",
          "type": "bool"
        }
      ],
      "stateMutability": "view",
      "type": "function"
    },
    {
      "inputs": [],
      "name": "tos",
      "outputs": [
        {
          "internalType": "contract IERC20",
          "name": "",
          "type": "address"
        }
      ],
      "stateMutability": "view",
      "type": "function"
    },
    {
      "inputs": [],
      "name": "totalMarketCount",
      "outputs": [
        {
          "internalType": "uint256",
          "name": "",
          "type": "uint256"
        }
      ],
      "stateMutability": "view",
      "type": "function"
    },
    {
      "inputs": [
        {
          "internalType": "address",
          "name": "newAdmin",
          "type": "address"
        }
      ],
      "name": "transferAdmin",
      "outputs": [],
      "stateMutability": "nonpayable",
      "type": "function"
    },
    {
      "inputs": [
        {
          "internalType": "address",
          "name": "newAdmin",
          "type": "address"
        }
      ],
      "name": "transferProxyAdmin",
      "outputs": [],
      "stateMutability": "nonpayable",
      "type": "function"
    },
    {
      "inputs": [],
      "name": "treasury",
      "outputs": [
        {
          "internalType": "address",
          "name": "",
          "type": "address"
        }
      ],
      "stateMutability": "view",
      "type": "function"
    },
    {
      "inputs": [],
      "name": "uniswapFactory",
      "outputs": [
        {
          "internalType": "address",
          "name": "",
          "type": "address"
        }
      ],
      "stateMutability": "view",
      "type": "function"
    },
    {
      "inputs": [],
      "name": "uniswapV3Factory",
      "outputs": [
        {
          "internalType": "address",
          "name": "",
          "type": "address"
        }
      ],
      "stateMutability": "view",
      "type": "function"
    },
    {
      "inputs": [
        {
          "internalType": "uint256",
          "name": "_marketId",
          "type": "uint256"
        }
      ],
      "name": "viewMarket",
      "outputs": [
        {
          "components": [
            {
              "internalType": "address",
              "name": "quoteToken",
              "type": "address"
            },
            {
              "internalType": "uint256",
              "name": "capacity",
              "type": "uint256"
            },
            {
              "internalType": "uint256",
              "name": "endSaleTime",
              "type": "uint256"
            },
            {
              "internalType": "uint256",
              "name": "maxPayout",
              "type": "uint256"
            },
            {
              "internalType": "uint256",
              "name": "tosPrice",
              "type": "uint256"
            }
          ],
          "internalType": "struct LibBondDepository.Market",
          "name": "market",
          "type": "tuple"
        },
        {
          "components": [
            {
              "internalType": "uint8",
              "name": "bondType",
              "type": "uint8"
            },
            {
              "internalType": "uint32",
              "name": "startTime",
              "type": "uint32"
            },
            {
              "internalType": "bool",
              "name": "closed",
              "type": "bool"
            },
            {
              "internalType": "uint256",
              "name": "capacityUpdatePeriod",
              "type": "uint256"
            },
            {
              "internalType": "uint256",
              "name": "totalSold",
              "type": "uint256"
            }
          ],
          "internalType": "struct LibBondDepositoryV1_5.MarketInfo",
          "name": "marketInfo",
          "type": "tuple"
        },
        {
          "components": [
            {
              "internalType": "address",
              "name": "bonusRatesAddress",
              "type": "address"
            },
            {
              "internalType": "uint256",
              "name": "bonusRatesId",
              "type": "uint256"
            }
          ],
          "internalType": "struct LibBondDepositoryV1_5.BonusRateInfo",
          "name": "bonusInfo",
          "type": "tuple"
        },
        {
          "internalType": "bytes[]",
          "name": "pricePathes",
          "type": "bytes[]"
        }
      ],
      "stateMutability": "view",
      "type": "function"
    }
  ],
  "bytecode": "0x608060405234801561001057600080fd5b5068056bc75e2d63100000600955614c628061002d6000396000f3fe60806040526004361061031a5760003560e01c806375829def116101ab578063b1283e77116100f7578063ce3e39c011610095578063f47f2f1d1161006f578063f47f2f1d146109e2578063f98e422f14610a02578063fad1c85c14610a22578063fc79f0e814610a4257600080fd5b8063ce3e39c014610982578063d547741f146109a2578063e4cbc0b3146109c257600080fd5b8063b84ef081116100d1578063b84ef0811461090d578063bd4541ff1461092d578063be72f2d31461094d578063c8f899cd1461096257600080fd5b8063b1283e7714610841578063b1667adf146108c7578063b7170979146108f757600080fd5b80638bdb2afa116101645780639a202d471161013e5780639a202d47146107d75780639e8332cd146107ec578063a217fddf1461080c578063a9d534361461082157600080fd5b80638bdb2afa1461077757806391d148541461079757806396f1557c146107b757600080fd5b806375829def146106b057806375b238fc146106d05780637a57cbdb146106f25780638356ca4f1461071257806389f395de146107325780638b140f6b1461075257600080fd5b80634f91f8701161026a57806361d027b31161022357806368e06af3116101fd57806368e06af3146106305780636c9daf14146106505780637048027514610670578063708d5c151461069057600080fd5b806361d027b3146105e857806365cb3a831461060857806366a3133b1461061d57600080fd5b80634f91f8701461051e57806350809202146105315780635b549182146105665780635b9907a4146105865780635fabdf7c146105a85780635faf46bb146105c857600080fd5b806324d7806c116102d757806331c8d924116102b157806331c8d924146104a957806336568abe146104c95780634c8df535146104e95780634cf088d9146104fe57600080fd5b806324d7806c1461043157806326fca81c146104515780632f2ff15d1461048957600080fd5b806301ffc9a71461031f5780630aebeb4e1461035457806316ae917b1461037657806322985246146103b1578063232b956c146103e1578063248a9ca314610401575b600080fd5b34801561032b57600080fd5b5061033f61033a36600461411f565b610a62565b60405190151581526020015b60405180910390f35b34801561036057600080fd5b5061037461036f3660046140e5565b610a99565b005b34801561038257600080fd5b506103966103913660046140e5565b610be5565b6040805193845260208401929092529082015260600161034b565b3480156103bd57600080fd5b506103d3600080516020614c0d83398151915281565b60405190815260200161034b565b3480156103ed57600080fd5b506103d36103fc3660046140e5565b610c15565b34801561040d57600080fd5b506103d361041c3660046140e5565b60009081526008602052604090206001015490565b34801561043d57600080fd5b5061033f61044c366004613fc5565b610c36565b34801561045d57600080fd5b50600a54610471906001600160a01b031681565b6040516001600160a01b03909116815260200161034b565b34801561049557600080fd5b506103746104a43660046140fd565b610c50565b3480156104b557600080fd5b506103d36104c43660046140e5565b610c7b565b3480156104d557600080fd5b506103746104e43660046140fd565b610e5f565b3480156104f557600080fd5b506006546103d3565b34801561050a57600080fd5b50600154610471906001600160a01b031681565b6103d361052c366004614309565b610edd565b34801561053d57600080fd5b5061055161054c3660046142de565b61122a565b6040805192835260208301919091520161034b565b34801561057257600080fd5b50600454610471906001600160a01b031681565b34801561059257600080fd5b5061059b6112f3565b60405161034b9190614543565b3480156105b457600080fd5b506103746105c3366004613fc5565b61134b565b3480156105d457600080fd5b5061033f6105e33660046140e5565b61138b565b3480156105f457600080fd5b50600254610471906001600160a01b031681565b34801561061457600080fd5b506103746113de565b6103d361062b3660046142de565b61141d565b34801561063c57600080fd5b506103d361064b366004614011565b6116f5565b34801561065c57600080fd5b5061037461066b3660046141b5565b611d26565b34801561067c57600080fd5b5061037461068b366004613fc5565b61206d565b34801561069c57600080fd5b506103746106ab3660046142bd565b6120aa565b3480156106bc57600080fd5b506103746106cb366004613fc5565b612195565b3480156106dc57600080fd5b506103d3600080516020614bed83398151915281565b3480156106fe57600080fd5b506103d361070d366004614347565b61229c565b34801561071e57600080fd5b5061037461072d366004613fc5565b6123d2565b34801561073e57600080fd5b50600054610471906001600160a01b031681565b34801561075e57600080fd5b506107676124b0565b60405161034b9493929190614556565b34801561078357600080fd5b50600b54610471906001600160a01b031681565b3480156107a357600080fd5b5061033f6107b23660046140fd565b61285d565b3480156107c357600080fd5b506103746107d2366004613fc5565b612888565b3480156107e357600080fd5b506103746128b8565b3480156107f857600080fd5b50610374610807366004614282565b612904565b34801561081857600080fd5b506103d3600081565b34801561082d57600080fd5b5061037461083c366004613fdf565b612ac3565b34801561084d57600080fd5b5061089561085c3660046140e5565b600760205260009081526040902080546001820154600283015460038401546004909401546001600160a01b0390931693919290919085565b604080516001600160a01b0390961686526020860194909452928401919091526060830152608082015260a00161034b565b3480156108d357600080fd5b506108e76108e23660046140e5565b612c0c565b60405161034b9493929190614875565b34801561090357600080fd5b506103d360095481565b34801561091957600080fd5b50610374610928366004613fc5565b612dfd565b34801561093957600080fd5b50610374610948366004614181565b612e3a565b34801561095957600080fd5b506103746130b8565b34801561096e57600080fd5b5061037461097d3660046140e5565b6130e8565b34801561098e57600080fd5b50600354610471906001600160a01b031681565b3480156109ae57600080fd5b506103746109bd3660046140fd565b613188565b3480156109ce57600080fd5b506105516109dd3660046140e5565b6131ae565b3480156109ee57600080fd5b5061033f6109fd366004613fc5565b6132ce565b348015610a0e57600080fd5b50600554610471906001600160a01b031681565b348015610a2e57600080fd5b5061033f610a3d366004613fc5565b6132da565b348015610a4e57600080fd5b50610374610a5d3660046142bd565b6132f4565b60006001600160e01b03198216637965db0b60e01b1480610a9357506301ffc9a760e01b6001600160e01b03198316145b92915050565b610aa2336132da565b610ac75760405162461bcd60e51b8152600401610abe9061482c565b60405180910390fd5b6000818152600760205260409020600201548190610af75760405162461bcd60e51b8152600401610abe90614802565b600082815260076020526040902060020154421080610b29575060095460008381526007602052604090206001015411155b80610b4957506000828152600c6020526040902054600160281b900460ff165b610b865760405162461bcd60e51b815260206004820152600e60248201526d185b1c9958591e4818db1bdcd95960921b6044820152606401610abe565b6000828152600c602052604090819020805460ff60281b1916600160281b17815590517f065f36f0cc9a946e058a78fcf529ed8629c0ad3f6d065007c3c9162fd2c39d6390610bd89085815260200190565b60405180910390a1505050565b60008181526007602052604081206004015481610c0184610c7b565b9050610c0d828261346d565b949193509150565b60068181548110610c2557600080fd5b600091825260209091200154905081565b6000610a93600080516020614bed8339815191528361285d565b600082815260086020526040902060010154610c6c8133613483565b610c7683836134e7565b505050565b6000818152600e6020908152604080832080548251818502810185019093528083528493849084015b82821015610d50578382906000526020600020018054610cc390614b46565b80601f0160208091040260200160405190810160405280929190818152602001828054610cef90614b46565b8015610d3c5780601f10610d1157610100808354040283529160200191610d3c565b820191906000526020600020905b815481529060010190602001808311610d1f57829003601f168201915b505050505081526020019060010190610ca4565b505050509050600081511115610e59576000805b8251811015610e5657600a54600b5484516001600160a01b03928316926393eaab8a921690869085908110610da957634e487b7160e01b600052603260045260246000fd5b6020026020010151670de0b6b3a76400006040518463ffffffff1660e01b8152600401610dd89392919061450f565b60206040518083038186803b158015610df057600080fd5b505afa158015610e04573d6000803e3d6000fd5b505050506040513d601f19601f82011682018060405250810190610e289190614169565b915080610e3757819350610e44565b610e41848361346d565b93505b80610e4e81614b7b565b915050610d64565b50505b50919050565b6001600160a01b0381163314610ecf5760405162461bcd60e51b815260206004820152602f60248201527f416363657373436f6e74726f6c3a2063616e206f6e6c792072656e6f756e636560448201526e103937b632b9903337b91039b2b63360891b6064820152608401610abe565b610ed9828261356d565b5050565b6000848152600c602052604081205485904261010090910463ffffffff1610610f185760405162461bcd60e51b8152600401610abe9061470e565b6000818152600c6020526040902054600160281b900460ff1615610f4e5760405162461bcd60e51b8152600401610abe90614797565b6000818152600760205260409020600201544210610f7e5760405162461bcd60e51b8152600401610abe90614797565b6000818152600c602090815260408083206002015460079092529091206001015411610fbc5760405162461bcd60e51b8152600401610abe90614739565b60008681526007602052604090205486906001600160a01b0316158015610ff3575060008181526007602052604090206002015415155b6110305760405162461bcd60e51b815260206004820152600e60248201526d1b9bdd08115512081b585c9ad95d60921b6044820152606401610abe565b858061104e5760405162461bcd60e51b8152600401610abe90614760565b86341461106d5760405162461bcd60e51b8152600401610abe906147be565b60018560ff16116110d05760405162461bcd60e51b815260206004820152602760248201527f5f6c6f636b5765656b73206d7573742062652067726561746572207468616e2060448201526618903bb2b2b59760c91b6064820152608401610abe565b60006110df3389898c8a6135d4565b60015460405163980b109760e01b815233600482015260248101849052604481018d905260ff8a166064820152608481018390529297509092506000916001600160a01b039091169063980b10979060a401602060405180830381600087803b15801561114b57600080fd5b505af115801561115f573d6000803e3d6000fd5b505050506040513d601f19601f820116820180604052508101906111839190614169565b6002546040519192506001600160a01b0316903480156108fc02916000818181858888f193505050501580156111bd573d6000803e3d6000fd5b5060408051338152602081018c9052908101829052606081018a90526080810189905260ff881660a082015260c081018790527fffe45a5856ef7d1b047c3bac34e04d2d075c162ac936cea791b8e14b6c2b9efc9060e00160405180910390a15050505050949350505050565b60008084156112eb57848411156112eb5760006112478686614ae8565b90506112538482614ab5565b925060018411801561126e5750600061126c8583614b96565b115b15611281578261127d81614b7b565b9350505b854211801561128f57508442105b156112e9578361129f8742614ae8565b6112a99190614ab5565b91506000846112b88842614ae8565b6112c29190614b96565b90506001851180156112d45750600081115b156112e757826112e381614b7b565b9350505b505b505b935093915050565b6060600680548060200260200160405190810160405280929190818152602001828054801561134157602002820191906000526020600020905b81548152602001906001019080831161132d575b5050505050905090565b611354336132ce565b6113705760405162461bcd60e51b8152600401610abe906146c6565b611388600080516020614c0d83398151915282613188565b50565b60008181526007602052604081206002015442108015610a9357506009546000838152600c60205260409020600201546113c59190614a9d565b6000838152600760205260409020600101541192915050565b6113e7336132da565b6114035760405162461bcd60e51b8152600401610abe9061482c565b61141b600080516020614c0d83398151915233610e5f565b565b6000838152600c602052604081205484904261010090910463ffffffff16106114585760405162461bcd60e51b8152600401610abe9061470e565b6000818152600c6020526040902054600160281b900460ff161561148e5760405162461bcd60e51b8152600401610abe90614797565b60008181526007602052604090206002015442106114be5760405162461bcd60e51b8152600401610abe90614797565b6000818152600c6020908152604080832060020154600790925290912060010154116114fc5760405162461bcd60e51b8152600401610abe90614739565b60008581526007602052604090205485906001600160a01b0316158015611533575060008181526007602052604090206002015415155b6115705760405162461bcd60e51b815260206004820152600e60248201526d1b9bdd08115512081b585c9ad95d60921b6044820152606401610abe565b848061158e5760405162461bcd60e51b8152600401610abe90614760565b8534146115ad5760405162461bcd60e51b8152600401610abe906147be565b60006115bd3388888b60006135d4565b60015460405163332b01f360e01b815233600482015260248101849052604481018c9052606481018390529297509092506000916001600160a01b039091169063332b01f390608401602060405180830381600087803b15801561162057600080fd5b505af1158015611634573d6000803e3d6000fd5b505050506040513d601f19601f820116820180604052508101906116589190614169565b6002546040519192506001600160a01b0316903480156108fc02916000818181858888f19350505050158015611692573d6000803e3d6000fd5b5060408051338152602081018b9052908101829052606081018990526080810188905260a081018790527fbbdec43ed87f6ff154bf2e9b39d20bb84c7aa44ae16d0613f28025c575a4911a9060c00160405180910390a150505050509392505050565b6000611700336132da565b61171c5760405162461bcd60e51b8152600401610abe9061482c565b60208801358061173e5760405162461bcd60e51b8152600401610abe90614760565b6040890135806117605760405162461bcd60e51b8152600401610abe90614760565b8663ffffffff81166117a15760405162461bcd60e51b815260206004820152600a6024820152697a65726f2076616c756560b01b6044820152606401610abe565b8663ffffffff81166117e25760405162461bcd60e51b815260206004820152600a6024820152697a65726f2076616c756560b01b6044820152606401610abe565b6009548c35116118345760405162461bcd60e51b815260206004820152601d60248201527f746f74616c53616c65416d6f756e7420697320746f6f20736d616c6c2e0000006044820152606401610abe565b8863ffffffff168863ffffffff1611801561185857504261ffff168863ffffffff16115b6118a45760405162461bcd60e51b815260206004820152601d60248201527f696e76616c6964205f737461727454696d65206f7220656e6454696d650000006044820152606401610abe565b600160009054906101000a90046001600160a01b03166001600160a01b03166330e06e8b6040518163ffffffff1660e01b8152600401602060405180830381600087803b1580156118f457600080fd5b505af1158015611908573d6000803e3d6000fd5b505050506040513d601f19601f8201168201806040525081019061192c9190614169565b94506040518060a001604052808e6001600160a01b031681526020018d60006003811061196957634e487b7160e01b600052603260045260246000fd5b602002013581526020018963ffffffff168152602001600081526020018d6001600381106119a757634e487b7160e01b600052603260045260246000fd5b602090810291909101359091526000878152600782526040808220845181546001600160a01b0319166001600160a01b03909116178155928401516001808501919091558482015160028501556060850151600385015560809094015160049093019290925560068054808501825591527ff652222313e28459528d920b65115c16c04f3efc82aaedc97be59f3f377c0d3f01879055805160a0810190915290819060ff16815263ffffffff8b166020820152600060408201526060018d60026020908102919091013582526000918101829052878252600c81526040918290208351815492850151938501511515600160281b0260ff60281b1963ffffffff9095166101000264ffffffffff1990941660ff909216919091179290921792909216178155606082015160018201556080909101516002909101556001600160a01b038b1615801590611af957508915155b15611b45576040805180820182526001600160a01b038d8116825260208083018e815260008a8152600d909252939020915182546001600160a01b031916911617815590516001909101555b8515611c6057856001600160401b03811115611b7157634e487b7160e01b600052604160045260246000fd5b604051908082528060200260200182016040528015611ba457816020015b6060815260200190600190039081611b8f5790505b506000868152600e602090815260409091208251611bc89391929190910190613d07565b5060005b86811015611c5e57878782818110611bf457634e487b7160e01b600052603260045260246000fd5b9050602002810190611c069190614a22565b6000888152600e60205260409020805484908110611c3457634e487b7160e01b600052603260045260246000fd5b906000526020600020019190611c4b929190613d64565b5080611c5681614b7b565b915050611bcc565b505b6001600160a01b038d1615611ccf57600254604051639ea6498560e01b81526001600160a01b038f8116600483015290911690639ea6498590602401600060405180830381600087803b158015611cb657600080fd5b505af1158015611cca573d6000803e3d6000fd5b505050505b7fc108063a4550e86be130ca7553d30e951e5556e601452fd0d92ce511c4f6221b858e8e8e8e8e8e8e8e604051611d0e9998979695949392919061491a565b60405180910390a15050505098975050505050505050565b611d2f336132da565b611d4b5760405162461bcd60e51b8152600401610abe9061482c565b6000828152600c602052604090205482904261010090910463ffffffff1610611d865760405162461bcd60e51b8152600401610abe9061470e565b6000818152600c6020526040902054600160281b900460ff1615611dbc5760405162461bcd60e51b8152600401610abe90614797565b6000818152600760205260409020600201544210611dec5760405162461bcd60e51b8152600401610abe90614797565b6000818152600c602090815260408083206002015460079092529091206001015411611e2a5760405162461bcd60e51b8152600401610abe90614739565b6000838152600e602052604090205415611f1e576000838152600e6020526040812054611e5990600190614ae8565b90505b8015611ebd576000848152600e60205260409020805480611e8d57634e487b7160e01b600052603160045260246000fd5b600190038181906000526020600020016000611ea99190613de4565b905580611eb581614b2f565b915050611e5c565b506000838152600e60205260409020805480611ee957634e487b7160e01b600052603160045260246000fd5b600190038181906000526020600020016000611f059190613de4565b90556000838152600e60205260408120611f1e91613e1e565b81511561203c5781516001600160401b03811115611f4c57634e487b7160e01b600052604160045260246000fd5b604051908082528060200260200182016040528015611f7f57816020015b6060815260200190600190039081611f6a5790505b506000848152600e602090815260409091208251611fa39391929190910190613d07565b5060005b825181101561203a57828181518110611fd057634e487b7160e01b600052603260045260246000fd5b6020026020010151600e6000868152602001908152602001600020828154811061200a57634e487b7160e01b600052603260045260246000fd5b906000526020600020019080519060200190612027929190613e3c565b508061203281614b7b565b915050611fa7565b505b7f31fe29a6e5ec6cec99ac90e78c870ff8d3d42d4f5a85e8249f20f722bd2992318383604051610bd8929190614a01565b612076336132ce565b6120925760405162461bcd60e51b8152600401610abe906146c6565b611388600080516020614bed83398151915282610c50565b6120b3336132da565b6120cf5760405162461bcd60e51b8152600401610abe9061482c565b60008281526007602052604090206002015482906120ff5760405162461bcd60e51b8152600401610abe90614802565b42821161213f5760405162461bcd60e51b815260206004820152600e60248201526d7061737420636c6f736554696d6560901b6044820152606401610abe565b600083815260076020908152604091829020600281018590558251868152918201859052917fc3daa84eedfacd6851bbf80d00ce11271bf926ac96c3d361c0307023c939d4b3910160405180910390a150505050565b61219e33610c36565b806121ad57506121ad336132ce565b6121c95760405162461bcd60e51b8152600401610abe90614684565b6001600160a01b03811661221a5760405162461bcd60e51b815260206004820152601860248201527741636365737369626c653a207a65726f206164647265737360401b6044820152606401610abe565b336001600160a01b038216141561226c5760405162461bcd60e51b815260206004820152601660248201527520b1b1b2b9b9b4b136329d1039b0b6b29030b236b4b760511b6044820152606401610abe565b612284600080516020614bed83398151915282610c50565b611388600080516020614bed83398151915233610e5f565b600080821180156122b0575060008360ff16115b156123c3576000848152600d6020908152604091829020825180840190935280546001600160a01b031680845260019091015491830191909152158015906122fb5750602081015115155b156123c15780516020820151604051633266c98760e01b8152600481019190915260ff861660248201526000916001600160a01b031690633266c9879060440160206040518083038186803b15801561235357600080fd5b505afa158015612367573d6000803e3d6000fd5b505050506040513d601f19601f8201168201806040525081019061238b9190614147565b905061ffff8116156123bf576127106123a861ffff831686614ac9565b6123b29190614ab5565b6123bc9085614a9d565b92505b505b505b806123cb5750805b9392505050565b6123db336132ce565b6123f75760405162461bcd60e51b8152600401610abe906146c6565b6001600160a01b0381166124485760405162461bcd60e51b815260206004820152601860248201527741636365737369626c653a207a65726f206164647265737360401b6044820152606401610abe565b336001600160a01b038216141561249a5760405162461bcd60e51b815260206004820152601660248201527520b1b1b2b9b9b4b136329d1039b0b6b29030b236b4b760511b6044820152606401610abe565b6124a5600082610c50565b611388600033610e5f565b6006546060908190819081906000816001600160401b038111156124e457634e487b7160e01b600052604160045260246000fd5b60405190808252806020026020018201604052801561250d578160200160208202803683370190505b5090506000826001600160401b0381111561253857634e487b7160e01b600052604160045260246000fd5b60405190808252806020026020018201604052801561257157816020015b61255e613eb0565b8152602001906001900390816125565790505b5090506000836001600160401b0381111561259c57634e487b7160e01b600052604160045260246000fd5b6040519080825280602002602001820160405280156125e157816020015b60408051808201909152600080825260208201528152602001906001900390816125ba5790505b5090506000846001600160401b0381111561260c57634e487b7160e01b600052604160045260246000fd5b60405190808252806020026020018201604052801561266557816020015b6040805160a08101825260008082526020808301829052928201819052606082018190526080820152825260001990920191018161262a5790505b50905060005b8581101561284c5760006006828154811061269657634e487b7160e01b600052603260045260246000fd5b90600052602060002001549050808683815181106126c457634e487b7160e01b600052603260045260246000fd5b602090810291909101810191909152600082815260078252604090819020815160a08101835281546001600160a01b0316815260018201549381019390935260028101549183019190915260038101546060830152600401546080820152855186908490811061274457634e487b7160e01b600052603260045260246000fd5b6020908102919091018101919091526000828152600c8252604090819020815160a081018352815460ff808216835263ffffffff61010083041695830195909552600160281b90049093161515918301919091526001810154606083015260020154608082015283518490849081106127cd57634e487b7160e01b600052603260045260246000fd5b6020908102919091018101919091526000828152600d8252604090819020815180830190925280546001600160a01b031682526001015491810191909152845185908490811061282d57634e487b7160e01b600052603260045260246000fd5b602002602001018190525050808061284490614b7b565b91505061266b565b509298919750919550909350915050565b60009182526008602090815260408084206001600160a01b0393909316845291905290205460ff1690565b612891336132ce565b6128ad5760405162461bcd60e51b8152600401610abe906146c6565b611388600082613ab2565b6128c133610c36565b806128d057506128d0336132ce565b6128ec5760405162461bcd60e51b8152600401610abe90614684565b61141b600080516020614bed83398151915233610e5f565b61290d336132da565b6129295760405162461bcd60e51b8152600401610abe9061482c565b80806129475760405162461bcd60e51b8152600401610abe90614760565b60008481526007602052604090206002015484906129775760405162461bcd60e51b8152600401610abe90614802565b6000858152600760209081526040808320600c90925290912085156129b557848260010160008282546129aa9190614a9d565b90915550612a109050565b806002015482600101546129c99190614ae8565b85116129e357848260010160008282546129aa9190614ae8565b806002015482600101546129f79190614ae8565b826001016000828254612a0a9190614ae8565b90915550505b60095481600201548360010154612a279190614ae8565b11612a7857805460ff60281b1916600160281b1781556040517f065f36f0cc9a946e058a78fcf529ed8629c0ad3f6d065007c3c9162fd2c39d6390612a6f9089815260200190565b60405180910390a15b6040805188815287151560208201529081018690527f5e6b6b7fc7d8fb3137611da2ee2b2529d67d6d9e3ae513c9431123de9aa8b88e9060600160405180910390a150505050505050565b612acc336132da565b612ae85760405162461bcd60e51b8152600401610abe9061482c565b816001600160a01b038116612b3f5760405162461bcd60e51b815260206004820152601b60248201527f426f6e644465706f7369746f72793a7a65726f206164647265737300000000006044820152606401610abe565b600a546001600160a01b038481169116141580612b6a5750600b546001600160a01b03838116911614155b612ba55760405162461bcd60e51b815260206004820152600c60248201526b73616d65206164647265737360a01b6044820152606401610abe565b600a80546001600160a01b038581166001600160a01b03199283168117909355600b80549186169190921681179091556040805192835260208301919091527fe834872e75f018397d98a9d1ffee1466fa0df9ebb4a70033cf59095c8fdc27139101610bd8565b612c14613eb0565b6040805160a08101825260008082526020820181905291810182905260608101829052608081019190915260408051808201909152600080825260208201526000848152600760209081526040808320600c8352818420600d8452828520600e8552838620845160a0808201875285546001600160a01b039081168352600180880154848b0152600280890154858b015260038901546060868101919091526004909901546080808701919091528a519485018b52885460ff808216875263ffffffff610100830416878f0152600160281b909104161515858c015282890154858b0152970154968301969096528751808901895285549091168152949093015484880152815486518189028101890190975280875294979096929593949193928492919084015b82821015612de8578382906000526020600020018054612d5b90614b46565b80601f0160208091040260200160405190810160405280929190818152602001828054612d8790614b46565b8015612dd45780601f10612da957610100808354040283529160200191612dd4565b820191906000526020600020905b815481529060010190602001808311612db757829003601f168201915b505050505081526020019060010190612d3c565b50505050905093509350935093509193509193565b612e06336132ce565b612e225760405162461bcd60e51b8152600401610abe906146c6565b611388600080516020614c0d83398151915282610c50565b612e43336132da565b612e5f5760405162461bcd60e51b8152600401610abe9061482c565b6000838152600c602052604090205483904261010090910463ffffffff1610612e9a5760405162461bcd60e51b8152600401610abe9061470e565b6000818152600c6020526040902054600160281b900460ff1615612ed05760405162461bcd60e51b8152600401610abe90614797565b6000818152600760205260409020600201544210612f005760405162461bcd60e51b8152600401610abe90614797565b6000818152600c602090815260408083206002015460079092529091206001015411612f3e5760405162461bcd60e51b8152600401610abe90614739565b826001600160a01b038116612f955760405162461bcd60e51b815260206004820152601b60248201527f426f6e644465706f7369746f72793a7a65726f206164647265737300000000006044820152606401610abe565b8280612fb35760405162461bcd60e51b8152600401610abe90614760565b6000868152600d60205260409020546001600160a01b038681169116148015612fec57506000868152600d602052604090206001015484145b156130255760405162461bcd60e51b815260206004820152600960248201526873616d6520696e666f60b81b6044820152606401610abe565b6040805180820182526001600160a01b03878116808352602080840189815260008c8152600d8352869020945185546001600160a01b031916941693909317845591516001909301929092558251898152908101919091529081018590527fa7a8ec28d6b7ef25adfbbec102f5a1a25ec8656b876b01e88ad603340957c37e9060600160405180910390a1505050505050565b6130c1336132ce565b6130dd5760405162461bcd60e51b8152600401610abe906146c6565b61141b600033610e5f565b6130f1336132da565b61310d5760405162461bcd60e51b8152600401610abe9061482c565b80600954141561314d5760405162461bcd60e51b815260206004820152600b60248201526a1cd85b5948185b5bdd5b9d60aa1b6044820152606401610abe565b60098190556040518181527f9961843a54376364c925ef0bce05dd5fc5e8983e905c6cc0171dd78a566192f99060200160405180910390a150565b6000828152600860205260409020600101546131a48133613483565b610c76838361356d565b6000818152600760209081526040808320815160a0808201845282546001600160a01b031682526001808401548387015260028085015484870190815260038601546060808701919091526004909601546080808701919091528a8a52600c8952878a2088519586018952805460ff808216885263ffffffff6101008304169b88018c9052600160281b909104161515988601989098529287015495840186905295015490820152925185949193928592839261326a9261122a565b90925090508115613288578184602001516132859190614ab5565b95505b6000811180156132a4575060808301516132a28288614ac9565b115b156132c55760808301516132b88288614ac9565b6132c29190614ae8565b94505b50505050915091565b6000610a93818361285d565b6000610a93600080516020614c0d8339815191528361285d565b6132fd336132da565b6133195760405162461bcd60e51b8152600401610abe9061482c565b6000828152600c602052604090205482904261010090910463ffffffff16106133545760405162461bcd60e51b8152600401610abe9061470e565b6000818152600c6020526040902054600160281b900460ff161561338a5760405162461bcd60e51b8152600401610abe90614797565b60008181526007602052604090206002015442106133ba5760405162461bcd60e51b8152600401610abe90614797565b6000818152600c6020908152604080832060020154600790925290912060010154116133f85760405162461bcd60e51b8152600401610abe90614739565b81806134165760405162461bcd60e51b8152600401610abe90614760565b600084815260076020908152604091829020600481018690558251878152918201869052917f8acfbca94764d5685c5bfc97648ab602aaf360f94d79dcdeebc61f39b98447b1910160405180910390a15050505050565b600081831061347c57816123cb565b5090919050565b61348d828261285d565b610ed9576134a5816001600160a01b03166014613abc565b6134b0836020613abc565b6040516020016134c192919061449a565b60408051601f198184030181529082905262461bcd60e51b8252610abe91600401614671565b6134f1828261285d565b610ed95760008281526008602090815260408083206001600160a01b03851684529091529020805460ff191660011790556135293390565b6001600160a01b0316816001600160a01b0316837f2f8788117e7eff1d82e926ec794901d17c78024a50270940304540a733656f0d60405160405180910390a45050565b613577828261285d565b15610ed95760008281526008602090815260408083206001600160a01b0385168085529252808320805460ff1916905551339285917ff6391f5c32d9c69d2a47ea670b442974b53935d1edc7fd64eb21e047a839171b9190a45050565b600080600560149054906101000a900460ff16151560011515141561363b5760405162461bcd60e51b815260206004820152601f60248201527f5265656e7472616e637947756172643a207265656e7472616e742063616c6c006044820152606401610abe565b6005805460ff60a01b1916600160a01b1790556000848152600760209081526040808320815160a08101835281546001600160a01b03168152600182015481850152600282015481840152600382015460608201526004909101546080820152878452600c9092529091206136c1868661070d6136b783610c7b565b866080015161346d565b92508683101561372f5760405162461bcd60e51b815260206004820152603360248201527f54686520626f6e64696e6720616d6f756e74206973206c657373207468616e206044820152723a34329036b4b734b6bab69030b6b7bab73a1760691b6064820152608401610abe565b670de0b6b3a7640000613742848a614ac9565b61374c9190614ab5565b935081602001518160020154856137639190614a9d565b11156137b15760405162461bcd60e51b815260206004820152601760248201527f73616c657320766f6c756d65206973206c61636b696e670000000000000000006044820152606401610abe565b60006137ea8260000160019054906101000a900463ffffffff1663ffffffff168460400151846001015486602001518660020154613c9d565b9150508085111561383d5760405162461bcd60e51b815260206004820152601b60248201527f6578636565642063757272656e7443617061636974794c696d697400000000006044820152606401610abe565b6000670de0b6b3a7640000600260009054906101000a90046001600160a01b03166001600160a01b03166396f0bd616040518163ffffffff1660e01b815260040160206040518083038186803b15801561389657600080fd5b505afa1580156138aa573d6000803e3d6000fd5b505050506040513d601f19601f820116820180604052508101906138ce9190614169565b6138d8908c614ac9565b6138e29190614ab5565b9050858110156139485760405162461bcd60e51b815260206004820152602b60248201527f6d696e7461626c65416d6f756e74206973206c657373207468616e207374616b60448201526a34b7339030b6b7bab73a1760a91b6064820152608401610abe565b8583600201600082825461395c9190614a9d565b9091555050600954600284015460208601516139789190614ae8565b116139c957825460ff60281b1916600160281b1783556040517f065f36f0cc9a946e058a78fcf529ed8629c0ad3f6d065007c3c9162fd2c39d63906139c0908a815260200190565b60405180910390a15b60025460405163ef7c6c0f60e01b81526004810183905260248101889052600160448201526001600160a01b039091169063ef7c6c0f90606401600060405180830381600087803b158015613a1d57600080fd5b505af1158015613a31573d6000803e3d6000fd5b5050604080516001600160a01b038f168152602081018c90529081018d9052606081018990526001608082015260a081018490527fef81711614d4ac7faee84826311bec7d949a272a2e7e4f39f3a3b72527767d69925060c001905060405180910390a150506005805460ff60a01b19169055509197909650945050505050565b610ed982826134e7565b60606000613acb836002614ac9565b613ad6906002614a9d565b6001600160401b03811115613afb57634e487b7160e01b600052604160045260246000fd5b6040519080825280601f01601f191660200182016040528015613b25576020820181803683370190505b509050600360fc1b81600081518110613b4e57634e487b7160e01b600052603260045260246000fd5b60200101906001600160f81b031916908160001a905350600f60fb1b81600181518110613b8b57634e487b7160e01b600052603260045260246000fd5b60200101906001600160f81b031916908160001a9053506000613baf846002614ac9565b613bba906001614a9d565b90505b6001811115613c4e576f181899199a1a9b1b9c1cb0b131b232b360811b85600f1660108110613bfc57634e487b7160e01b600052603260045260246000fd5b1a60f81b828281518110613c2057634e487b7160e01b600052603260045260246000fd5b60200101906001600160f81b031916908160001a90535060049490941c93613c4781614b2f565b9050613bbd565b5083156123cb5760405162461bcd60e51b815260206004820181905260248201527f537472696e67733a20686578206c656e67746820696e73756666696369656e746044820152606401610abe565b600080600080613cae89898961122a565b90925090508115613cc657613cc38287614ab5565b93505b600081118015613cde575084613cdc8286614ac9565b115b15613cfb5784613cee8286614ac9565b613cf89190614ae8565b92505b50509550959350505050565b828054828255906000526020600020908101928215613d54579160200282015b82811115613d545782518051613d44918491602090910190613e3c565b5091602001919060010190613d27565b50613d60929150613ee8565b5090565b828054613d7090614b46565b90600052602060002090601f016020900481019282613d925760008555613dd8565b82601f10613dab5782800160ff19823516178555613dd8565b82800160010185558215613dd8579182015b82811115613dd8578235825591602001919060010190613dbd565b50613d60929150613f05565b508054613df090614b46565b6000825580601f10613e00575050565b601f0160209004906000526020600020908101906113889190613f05565b50805460008255906000526020600020908101906113889190613ee8565b828054613e4890614b46565b90600052602060002090601f016020900481019282613e6a5760008555613dd8565b82601f10613e8357805160ff1916838001178555613dd8565b82800160010185558215613dd8579182015b82811115613dd8578251825591602001919060010190613e95565b6040518060a0016040528060006001600160a01b03168152602001600081526020016000815260200160008152602001600081525090565b80821115613d60576000613efc8282613de4565b50600101613ee8565b5b80821115613d605760008155600101613f06565b80356001600160a01b0381168114613f3157600080fd5b919050565b600082601f830112613f46578081fd5b81356001600160401b03811115613f5f57613f5f614bd6565b613f72601f8201601f1916602001614a6d565b818152846020838601011115613f86578283fd5b816020850160208301379081016020019190915292915050565b803563ffffffff81168114613f3157600080fd5b803560ff81168114613f3157600080fd5b600060208284031215613fd6578081fd5b6123cb82613f1a565b60008060408385031215613ff1578081fd5b613ffa83613f1a565b915061400860208401613f1a565b90509250929050565b600080600080600080600080610120898b03121561402d578384fd5b61403689613f1a565b9750608089018a811115614048578485fd5b60208a01975061405781613f1a565b96505060a0890135945061406d60c08a01613fa0565b935061407b60e08a01613fa0565b92506101008901356001600160401b0380821115614097578384fd5b818b0191508b601f8301126140aa578384fd5b8135818111156140b8578485fd5b8c60208260051b85010111156140cc578485fd5b6020830194508093505050509295985092959890939650565b6000602082840312156140f6578081fd5b5035919050565b6000806040838503121561410f578182fd5b8235915061400860208401613f1a565b600060208284031215614130578081fd5b81356001600160e01b0319811681146123cb578182fd5b600060208284031215614158578081fd5b815161ffff811681146123cb578182fd5b60006020828403121561417a578081fd5b5051919050565b600080600060608486031215614195578283fd5b833592506141a560208501613f1a565b9150604084013590509250925092565b600080604083850312156141c7578081fd5b823591506020808401356001600160401b03808211156141e5578384fd5b818601915086601f8301126141f8578384fd5b81358181111561420a5761420a614bd6565b8060051b614219858201614a6d565b8281528581019085870183870188018c1015614233578889fd5b8893505b848410156142705780358681111561424d57898afd5b61425b8d8a838b0101613f36565b84525060019390930192918701918701614237565b50809750505050505050509250929050565b600080600060608486031215614296578081fd5b83359250602084013580151581146142ac578182fd5b929592945050506040919091013590565b600080604083850312156142cf578182fd5b50508035926020909101359150565b6000806000606084860312156142f2578081fd5b505081359360208301359350604090920135919050565b6000806000806080858703121561431e578182fd5b84359350602085013592506040850135915061433c60608601613fb4565b905092959194509250565b60008060006060848603121561435b578081fd5b833592506141a560208501613fb4565b600081518084526020808501808196508360051b81019150828601855b858110156143b25782840389526143a084835161446e565b98850198935090840190600101614388565b5091979650505050505050565b6000815180845260208085019450808401835b8381101561440b576143f887835180516001600160a01b03168252602090810151910152565b60409690960195908201906001016143d2565b509495945050505050565b6000815180845260208085019450808401835b8381101561440b57815187529582019590820190600101614429565b81835281816020850137506000828201602090810191909152601f909101601f19169091010190565b60008151808452614486816020860160208601614aff565b601f01601f19169290920160200192915050565b7f416363657373436f6e74726f6c3a206163636f756e74200000000000000000008152600083516144d2816017850160208801614aff565b7001034b99036b4b9b9b4b733903937b6329607d1b6017918401918201528351614503816028840160208801614aff565b01602801949350505050565b6001600160a01b03841681526060602082018190526000906145339083018561446e565b9050826040830152949350505050565b6020815260006123cb6020830184614416565b6080815260006145696080830187614416565b828103602084810191909152865180835287820192820190845b818110156145da576145c783865180516001600160a01b03168252602080820151908301526040808201519083015260608082015190830152608090810151910152565b9383019360a09290920191600101614583565b505084810360408601528651808252908201925081870190845b818110156146505761463d85845160ff815116825263ffffffff602082015116602083015260408101511515604083015260608101516060830152608081015160808301525050565b60a09490940193918301916001016145f4565b50505050828103606084015261466681856143bf565b979650505050505050565b6020815260006123cb602083018461446e565b60208082526022908201527f41636365737369626c653a2043616c6c6572206973206e6f7420616e2061646d60408201526134b760f11b606082015260800190565b60208082526028908201527f41636365737369626c653a2043616c6c6572206973206e6f7420616e2070726f6040820152673c3c9030b236b4b760c11b606082015260800190565b6020808252601190820152701b9bc81cdd185c9d081d1a5b59481e595d607a1b604082015260600190565b6020808252600d908201526c7a65726f20636170616369747960981b604082015260600190565b60208082526019908201527f426f6e644465706f7369746f72793a207a65726f2075696e7400000000000000604082015260600190565b6020808252600d908201526c18db1bdcd959081b585c9ad95d609a1b604082015260600190565b60208082526024908201527f4465706f7369746f72793a2045544820616d6f756e747320646f206e6f74206d6040820152630c2e8c6d60e31b606082015260800190565b60208082526010908201526f1b9bdb8b595e1a5cdd081b585c9ad95d60821b604082015260600190565b60208082526029908201527f41636365737369626c653a2043616c6c6572206973206e6f7420616e20706f6c60408201526834b1bc9030b236b4b760b91b606082015260800190565b84516001600160a01b031681526020808601519082015260408086015190820152606080860151908201526080808601519082015260006101a0855160ff1660a0840152602086015163ffffffff1660c08401526040860151151560e08401526060860151610100840152608086015161012084015284516001600160a01b03166101408401526020850151610160840152806101808401526146668184018561436b565b60006101408083018c8452602060018060a01b03808e168287015260608d60408801378b1660a086015260c085018a905263ffffffff89811660e0870152881661010086015261012085019290925284905261016080840191600586901b85019091019086845b878110156149ed5786840361015f190185528135368a9003601e190181126149a7578687fd5b890180356001600160401b038111156149be578788fd5b8036038b13156149cc578788fd5b6149d98682878501614445565b968501969550505090820190600101614981565b50919e9d5050505050505050505050505050565b828152604060208201526000614a1a604083018461436b565b949350505050565b6000808335601e19843603018112614a38578283fd5b8301803591506001600160401b03821115614a51578283fd5b602001915036819003821315614a6657600080fd5b9250929050565b604051601f8201601f191681016001600160401b0381118282101715614a9557614a95614bd6565b604052919050565b60008219821115614ab057614ab0614baa565b500190565b600082614ac457614ac4614bc0565b500490565b6000816000190483118215151615614ae357614ae3614baa565b500290565b600082821015614afa57614afa614baa565b500390565b60005b83811015614b1a578181015183820152602001614b02565b83811115614b29576000848401525b50505050565b600081614b3e57614b3e614baa565b506000190190565b600181811c90821680614b5a57607f821691505b60208210811415610e5957634e487b7160e01b600052602260045260246000fd5b6000600019821415614b8f57614b8f614baa565b5060010190565b600082614ba557614ba5614bc0565b500690565b634e487b7160e01b600052601160045260246000fd5b634e487b7160e01b600052601260045260246000fd5b634e487b7160e01b600052604160045260246000fdfedf8b4c520ffe197c5343c6f5aec59570151ef9a492f2c624fd45ddde6135ec42fb5864e8ff833c3cb2d2d08505e82ff02a43554c74a35d4f5a64e85261278311a2646970667358221220eb950a4808878fab1abc9c6dda103982a7038dc96b2324c015a5f790fe6efd9d64736f6c63430008040033",
  "linkReferences": {},
  "deployedLinkReferences": {}
}