{
  "_format": "hh-sol-artifact-1",
  "contractName": "BondDepository",
  "sourceName": "contracts/BondDepository.sol",
  "abi": [
    {
      "inputs": [],
      "stateMutability": "nonpayable",
      "type": "constructor"
    },
    {
      "anonymous": false,
      "inputs": [
        {
          "indexed": false,
          "internalType": "uint256",
          "name": "_marketId",
          "type": "uint256"
        },
        {
          "indexed": false,
          "internalType": "bool",
          "name": "_increaseFlag",
          "type": "bool"
        },
        {
          "indexed": false,
          "internalType": "uint256",
          "name": "_increaseAmount",
          "type": "uint256"
        }
      ],
      "name": "ChangedCapacity",
      "type": "event"
    },
    {
      "anonymous": false,
      "inputs": [
        {
          "indexed": false,
          "internalType": "uint256",
          "name": "_marketId",
          "type": "uint256"
        },
        {
          "indexed": false,
          "internalType": "uint256",
          "name": "closeTime",
          "type": "uint256"
        }
      ],
      "name": "ChangedCloseTime",
      "type": "event"
    },
    {
      "anonymous": false,
      "inputs": [
        {
          "indexed": false,
          "internalType": "uint256",
          "name": "_marketId",
          "type": "uint256"
        },
        {
          "indexed": false,
          "internalType": "uint256",
          "name": "_amount",
          "type": "uint256"
        }
      ],
      "name": "ChangedMaxPayout",
      "type": "event"
    },
    {
      "anonymous": false,
      "inputs": [
        {
          "indexed": false,
          "internalType": "uint256",
          "name": "_marketId",
          "type": "uint256"
        },
        {
          "indexed": false,
          "internalType": "uint256",
          "name": "_tosPrice",
          "type": "uint256"
        }
      ],
      "name": "ChangedPrice",
      "type": "event"
    },
    {
      "anonymous": false,
      "inputs": [
        {
          "indexed": false,
          "internalType": "uint256",
          "name": "marketId",
          "type": "uint256"
        }
      ],
      "name": "ClosedMarket",
      "type": "event"
    },
    {
      "anonymous": false,
      "inputs": [
        {
          "indexed": false,
          "internalType": "uint256",
          "name": "marketId",
          "type": "uint256"
        },
        {
          "indexed": false,
          "internalType": "address",
          "name": "token",
          "type": "address"
        },
        {
          "indexed": false,
          "internalType": "uint256[4]",
          "name": "market",
          "type": "uint256[4]"
        }
      ],
      "name": "CreatedMarket",
      "type": "event"
    },
    {
      "anonymous": false,
      "inputs": [
        {
          "indexed": false,
          "internalType": "address",
          "name": "user",
          "type": "address"
        },
        {
          "indexed": false,
          "internalType": "uint256",
          "name": "marketId",
          "type": "uint256"
        },
        {
          "indexed": false,
          "internalType": "uint256",
          "name": "amount",
          "type": "uint256"
        },
        {
          "indexed": false,
          "internalType": "uint256",
          "name": "payout",
          "type": "uint256"
        },
        {
          "indexed": false,
          "internalType": "bool",
          "name": "isEth",
          "type": "bool"
        },
        {
          "indexed": false,
          "internalType": "uint256",
          "name": "mintAmount",
          "type": "uint256"
        }
      ],
      "name": "Deposited",
      "type": "event"
    },
    {
      "anonymous": false,
      "inputs": [
        {
          "indexed": false,
          "internalType": "address",
          "name": "user",
          "type": "address"
        },
        {
          "indexed": false,
          "internalType": "uint256",
          "name": "marketId",
          "type": "uint256"
        },
        {
          "indexed": false,
          "internalType": "uint256",
          "name": "stakeId",
          "type": "uint256"
        },
        {
          "indexed": false,
          "internalType": "uint256",
          "name": "amount",
          "type": "uint256"
        },
        {
          "indexed": false,
          "internalType": "uint256",
          "name": "tosValuation",
          "type": "uint256"
        }
      ],
      "name": "ETHDeposited",
      "type": "event"
    },
    {
      "anonymous": false,
      "inputs": [
        {
          "indexed": false,
          "internalType": "address",
          "name": "user",
          "type": "address"
        },
        {
          "indexed": false,
          "internalType": "uint256",
          "name": "marketId",
          "type": "uint256"
        },
        {
          "indexed": false,
          "internalType": "uint256",
          "name": "stakeId",
          "type": "uint256"
        },
        {
          "indexed": false,
          "internalType": "uint256",
          "name": "amount",
          "type": "uint256"
        },
        {
          "indexed": false,
          "internalType": "uint256",
          "name": "lockWeeks",
          "type": "uint256"
        },
        {
          "indexed": false,
          "internalType": "uint256",
          "name": "tosValuation",
          "type": "uint256"
        }
      ],
      "name": "ETHDepositedWithSTOS",
      "type": "event"
    },
    {
      "anonymous": false,
      "inputs": [
        {
          "indexed": true,
          "internalType": "bytes32",
          "name": "role",
          "type": "bytes32"
        },
        {
          "indexed": true,
          "internalType": "bytes32",
          "name": "previousAdminRole",
          "type": "bytes32"
        },
        {
          "indexed": true,
          "internalType": "bytes32",
          "name": "newAdminRole",
          "type": "bytes32"
        }
      ],
      "name": "RoleAdminChanged",
      "type": "event"
    },
    {
      "anonymous": false,
      "inputs": [
        {
          "indexed": true,
          "internalType": "bytes32",
          "name": "role",
          "type": "bytes32"
        },
        {
          "indexed": true,
          "internalType": "address",
          "name": "account",
          "type": "address"
        },
        {
          "indexed": true,
          "internalType": "address",
          "name": "sender",
          "type": "address"
        }
      ],
      "name": "RoleGranted",
      "type": "event"
    },
    {
      "anonymous": false,
      "inputs": [
        {
          "indexed": true,
          "internalType": "bytes32",
          "name": "role",
          "type": "bytes32"
        },
        {
          "indexed": true,
          "internalType": "address",
          "name": "account",
          "type": "address"
        },
        {
          "indexed": true,
          "internalType": "address",
          "name": "sender",
          "type": "address"
        }
      ],
      "name": "RoleRevoked",
      "type": "event"
    },
    {
      "anonymous": false,
      "inputs": [
        {
          "indexed": false,
          "internalType": "address",
          "name": "calculatorAddress",
          "type": "address"
        }
      ],
      "name": "SetCalculator",
      "type": "event"
    },
    {
      "inputs": [],
      "name": "ADMIN_ROLE",
      "outputs": [
        {
          "internalType": "bytes32",
          "name": "",
          "type": "bytes32"
        }
      ],
      "stateMutability": "view",
      "type": "function"
    },
    {
      "inputs": [],
      "name": "DEFAULT_ADMIN_ROLE",
      "outputs": [
        {
          "internalType": "bytes32",
          "name": "",
          "type": "bytes32"
        }
      ],
      "stateMutability": "view",
      "type": "function"
    },
    {
      "inputs": [
        {
          "internalType": "uint256",
          "name": "_id",
          "type": "uint256"
        },
        {
          "internalType": "uint256",
          "name": "_amount",
          "type": "uint256"
        }
      ],
      "name": "ETHDeposit",
      "outputs": [
        {
          "internalType": "uint256",
          "name": "payout_",
          "type": "uint256"
        }
      ],
      "stateMutability": "payable",
      "type": "function"
    },
    {
      "inputs": [
        {
          "internalType": "uint256",
          "name": "_id",
          "type": "uint256"
        },
        {
          "internalType": "uint256",
          "name": "_amount",
          "type": "uint256"
        },
        {
          "internalType": "uint256",
          "name": "_lockWeeks",
          "type": "uint256"
        }
      ],
      "name": "ETHDepositWithSTOS",
      "outputs": [
        {
          "internalType": "uint256",
          "name": "payout_",
          "type": "uint256"
        }
      ],
      "stateMutability": "payable",
      "type": "function"
    },
    {
      "inputs": [],
      "name": "POLICY_ROLE",
      "outputs": [
        {
          "internalType": "bytes32",
          "name": "",
          "type": "bytes32"
        }
      ],
      "stateMutability": "view",
      "type": "function"
    },
    {
      "inputs": [
        {
          "internalType": "address",
          "name": "account",
          "type": "address"
        }
      ],
      "name": "addAdmin",
      "outputs": [],
      "stateMutability": "nonpayable",
      "type": "function"
    },
    {
      "inputs": [
        {
          "internalType": "address",
          "name": "_account",
          "type": "address"
        }
      ],
      "name": "addPolicy",
      "outputs": [],
      "stateMutability": "nonpayable",
      "type": "function"
    },
    {
      "inputs": [
        {
          "internalType": "address",
          "name": "_owner",
          "type": "address"
        }
      ],
      "name": "addProxyAdmin",
      "outputs": [],
      "stateMutability": "nonpayable",
      "type": "function"
    },
    {
      "inputs": [
        {
          "internalType": "uint256",
          "name": "_tosPrice",
          "type": "uint256"
        },
        {
          "internalType": "uint256",
          "name": "_amount",
          "type": "uint256"
        }
      ],
      "name": "calculateTosAmountForAsset",
      "outputs": [
        {
          "internalType": "uint256",
          "name": "payout",
          "type": "uint256"
        }
      ],
      "stateMutability": "pure",
      "type": "function"
    },
    {
      "inputs": [],
      "name": "calculator",
      "outputs": [
        {
          "internalType": "address",
          "name": "",
          "type": "address"
        }
      ],
      "stateMutability": "view",
      "type": "function"
    },
    {
      "inputs": [
        {
          "internalType": "uint256",
          "name": "_marketId",
          "type": "uint256"
        },
        {
          "internalType": "bool",
          "name": "_increaseFlag",
          "type": "bool"
        },
        {
          "internalType": "uint256",
          "name": "_increaseAmount",
          "type": "uint256"
        }
      ],
      "name": "changeCapacity",
      "outputs": [],
      "stateMutability": "nonpayable",
      "type": "function"
    },
    {
      "inputs": [
        {
          "internalType": "uint256",
          "name": "_marketId",
          "type": "uint256"
        },
        {
          "internalType": "uint256",
          "name": "closeTime",
          "type": "uint256"
        }
      ],
      "name": "changeCloseTime",
      "outputs": [],
      "stateMutability": "nonpayable",
      "type": "function"
    },
    {
      "inputs": [
        {
          "internalType": "uint256",
          "name": "_marketId",
          "type": "uint256"
        },
        {
          "internalType": "uint256",
          "name": "_amount",
          "type": "uint256"
        }
      ],
      "name": "changeMaxPayout",
      "outputs": [],
      "stateMutability": "nonpayable",
      "type": "function"
    },
    {
      "inputs": [
        {
          "internalType": "uint256",
          "name": "_marketId",
          "type": "uint256"
        },
        {
          "internalType": "uint256",
          "name": "_tosPrice",
          "type": "uint256"
        }
      ],
      "name": "changePrice",
      "outputs": [],
      "stateMutability": "nonpayable",
      "type": "function"
    },
    {
      "inputs": [
        {
          "internalType": "uint256",
          "name": "_id",
          "type": "uint256"
        }
      ],
      "name": "close",
      "outputs": [],
      "stateMutability": "nonpayable",
      "type": "function"
    },
    {
      "inputs": [
        {
          "internalType": "address",
          "name": "_token",
          "type": "address"
        },
        {
          "internalType": "uint256[4]",
          "name": "_market",
          "type": "uint256[4]"
        }
      ],
      "name": "create",
      "outputs": [
        {
          "internalType": "uint256",
          "name": "id_",
          "type": "uint256"
        }
      ],
      "stateMutability": "nonpayable",
      "type": "function"
    },
    {
      "inputs": [
        {
          "internalType": "address",
          "name": "_account",
          "type": "address"
        }
      ],
      "name": "deletePolicy",
      "outputs": [],
      "stateMutability": "nonpayable",
      "type": "function"
    },
    {
      "inputs": [],
      "name": "dtos",
      "outputs": [
        {
          "internalType": "address",
          "name": "",
          "type": "address"
        }
      ],
      "stateMutability": "view",
      "type": "function"
    },
    {
      "inputs": [],
      "name": "getBonds",
      "outputs": [
        {
          "internalType": "uint256[]",
          "name": "",
          "type": "uint256[]"
        },
        {
          "internalType": "address[]",
          "name": "",
          "type": "address[]"
        },
        {
          "internalType": "uint256[]",
          "name": "",
          "type": "uint256[]"
        },
        {
          "internalType": "uint256[]",
          "name": "",
          "type": "uint256[]"
        },
        {
          "internalType": "uint256[]",
          "name": "",
          "type": "uint256[]"
        }
      ],
      "stateMutability": "view",
      "type": "function"
    },
    {
      "inputs": [],
      "name": "getMarketList",
      "outputs": [
        {
          "internalType": "uint256[]",
          "name": "",
          "type": "uint256[]"
        }
      ],
      "stateMutability": "view",
      "type": "function"
    },
    {
      "inputs": [
        {
          "internalType": "bytes32",
          "name": "role",
          "type": "bytes32"
        }
      ],
      "name": "getRoleAdmin",
      "outputs": [
        {
          "internalType": "bytes32",
          "name": "",
          "type": "bytes32"
        }
      ],
      "stateMutability": "view",
      "type": "function"
    },
    {
      "inputs": [
        {
          "internalType": "bytes32",
          "name": "role",
          "type": "bytes32"
        },
        {
          "internalType": "address",
          "name": "account",
          "type": "address"
        }
      ],
      "name": "grantRole",
      "outputs": [],
      "stateMutability": "nonpayable",
      "type": "function"
    },
    {
      "inputs": [
        {
          "internalType": "bytes32",
          "name": "role",
          "type": "bytes32"
        },
        {
          "internalType": "address",
          "name": "account",
          "type": "address"
        }
      ],
      "name": "hasRole",
      "outputs": [
        {
          "internalType": "bool",
          "name": "",
          "type": "bool"
        }
      ],
      "stateMutability": "view",
      "type": "function"
    },
    {
      "inputs": [
        {
          "internalType": "address",
          "name": "account",
          "type": "address"
        }
      ],
      "name": "isAdmin",
      "outputs": [
        {
          "internalType": "bool",
          "name": "",
          "type": "bool"
        }
      ],
      "stateMutability": "view",
      "type": "function"
    },
    {
      "inputs": [
        {
          "internalType": "uint256",
          "name": "_marketId",
          "type": "uint256"
        }
      ],
      "name": "isOpened",
      "outputs": [
        {
          "internalType": "bool",
          "name": "closedBool",
          "type": "bool"
        }
      ],
      "stateMutability": "view",
      "type": "function"
    },
    {
      "inputs": [
        {
          "internalType": "address",
          "name": "account",
          "type": "address"
        }
      ],
      "name": "isPolicy",
      "outputs": [
        {
          "internalType": "bool",
          "name": "",
          "type": "bool"
        }
      ],
      "stateMutability": "view",
      "type": "function"
    },
    {
      "inputs": [
        {
          "internalType": "address",
          "name": "account",
          "type": "address"
        }
      ],
      "name": "isProxyAdmin",
      "outputs": [
        {
          "internalType": "bool",
          "name": "",
          "type": "bool"
        }
      ],
      "stateMutability": "view",
      "type": "function"
    },
    {
      "inputs": [
        {
          "internalType": "uint256",
          "name": "",
          "type": "uint256"
        }
      ],
      "name": "marketList",
      "outputs": [
        {
          "internalType": "uint256",
          "name": "",
          "type": "uint256"
        }
      ],
      "stateMutability": "view",
      "type": "function"
    },
    {
      "inputs": [
        {
          "internalType": "uint256",
          "name": "",
          "type": "uint256"
        }
      ],
      "name": "markets",
      "outputs": [
        {
          "internalType": "address",
          "name": "quoteToken",
          "type": "address"
        },
        {
          "internalType": "uint256",
          "name": "capacity",
          "type": "uint256"
        },
        {
          "internalType": "uint256",
          "name": "endSaleTime",
          "type": "uint256"
        },
        {
          "internalType": "uint256",
          "name": "maxPayout",
          "type": "uint256"
        },
        {
          "internalType": "uint256",
          "name": "tosPrice",
          "type": "uint256"
        }
      ],
      "stateMutability": "view",
      "type": "function"
    },
    {
      "inputs": [
        {
          "internalType": "uint256",
          "name": "_tosPrice",
          "type": "uint256"
        },
        {
          "internalType": "uint256",
          "name": "_maxPayout",
          "type": "uint256"
        }
      ],
      "name": "purchasableAssetAmountAtOneTime",
      "outputs": [
        {
          "internalType": "uint256",
          "name": "maxPayout_",
          "type": "uint256"
        }
      ],
      "stateMutability": "pure",
      "type": "function"
    },
    {
      "inputs": [],
      "name": "removeAdmin",
      "outputs": [],
      "stateMutability": "nonpayable",
      "type": "function"
    },
    {
      "inputs": [],
      "name": "removePolicy",
      "outputs": [],
      "stateMutability": "nonpayable",
      "type": "function"
    },
    {
      "inputs": [],
      "name": "removeProxyAdmin",
      "outputs": [],
      "stateMutability": "nonpayable",
      "type": "function"
    },
    {
      "inputs": [
        {
          "internalType": "bytes32",
          "name": "role",
          "type": "bytes32"
        },
        {
          "internalType": "address",
          "name": "account",
          "type": "address"
        }
      ],
      "name": "renounceRole",
      "outputs": [],
      "stateMutability": "nonpayable",
      "type": "function"
    },
    {
      "inputs": [
        {
          "internalType": "bytes32",
          "name": "role",
          "type": "bytes32"
        },
        {
          "internalType": "address",
          "name": "account",
          "type": "address"
        }
      ],
      "name": "revokeRole",
      "outputs": [],
      "stateMutability": "nonpayable",
      "type": "function"
    },
    {
      "inputs": [
        {
          "internalType": "address",
          "name": "_calculator",
          "type": "address"
        }
      ],
      "name": "setCalculator",
      "outputs": [],
      "stateMutability": "nonpayable",
      "type": "function"
    },
    {
      "inputs": [],
      "name": "staking",
      "outputs": [
        {
          "internalType": "contract IStaking",
          "name": "",
          "type": "address"
        }
      ],
      "stateMutability": "view",
      "type": "function"
    },
    {
      "inputs": [
        {
          "internalType": "bytes4",
          "name": "interfaceId",
          "type": "bytes4"
        }
      ],
      "name": "supportsInterface",
      "outputs": [
        {
          "internalType": "bool",
          "name": "",
          "type": "bool"
        }
      ],
      "stateMutability": "view",
      "type": "function"
    },
    {
      "inputs": [],
      "name": "tos",
      "outputs": [
        {
          "internalType": "contract IERC20",
          "name": "",
          "type": "address"
        }
      ],
      "stateMutability": "view",
      "type": "function"
    },
    {
      "inputs": [],
      "name": "totalMarketCount",
      "outputs": [
        {
          "internalType": "uint256",
          "name": "",
          "type": "uint256"
        }
      ],
      "stateMutability": "view",
      "type": "function"
    },
    {
      "inputs": [
        {
          "internalType": "address",
          "name": "newAdmin",
          "type": "address"
        }
      ],
      "name": "transferAdmin",
      "outputs": [],
      "stateMutability": "nonpayable",
      "type": "function"
    },
    {
      "inputs": [
        {
          "internalType": "address",
          "name": "newAdmin",
          "type": "address"
        }
      ],
      "name": "transferProxyAdmin",
      "outputs": [],
      "stateMutability": "nonpayable",
      "type": "function"
    },
    {
      "inputs": [],
      "name": "treasury",
      "outputs": [
        {
          "internalType": "address",
          "name": "",
          "type": "address"
        }
      ],
      "stateMutability": "view",
      "type": "function"
    },
    {
      "inputs": [],
      "name": "uniswapV3Factory",
      "outputs": [
        {
          "internalType": "address",
          "name": "",
          "type": "address"
        }
      ],
      "stateMutability": "view",
      "type": "function"
    },
    {
      "inputs": [
        {
          "internalType": "uint256",
          "name": "_marketId",
          "type": "uint256"
        }
      ],
      "name": "viewMarket",
      "outputs": [
        {
          "internalType": "address",
          "name": "quoteToken",
          "type": "address"
        },
        {
          "internalType": "uint256",
          "name": "capacity",
          "type": "uint256"
        },
        {
          "internalType": "uint256",
          "name": "endSaleTime",
          "type": "uint256"
        },
        {
          "internalType": "uint256",
          "name": "maxPayout",
          "type": "uint256"
        },
        {
          "internalType": "uint256",
          "name": "tosPrice",
          "type": "uint256"
        }
      ],
      "stateMutability": "view",
      "type": "function"
    }
  ],
  "bytecode": "0x608060405234801561001057600080fd5b50612ff1806100206000396000f3fe6080604052600436106102725760003560e01c806375829def1161014f578063b1667adf116100c1578063d547741f1161007a578063d547741f146107e5578063d6e0eee414610805578063f29310c114610825578063f47f2f1d14610838578063f98e422f14610858578063fad1c85c1461087857600080fd5b8063b1667adf146106fc578063b3de019c14610750578063b84ef08114610770578063be72f2d314610790578063c53468f0146107a5578063ce3e39c0146107c557600080fd5b806391d148541161011357806391d148541461060d57806396f1557c1461062d5780639a202d471461064d5780639e8332cd14610662578063a217fddf14610682578063b1283e771461069757600080fd5b806375829def1461056557806375b238fc146105855780638356ca4f146105a757806389f395de146105c75780638b140f6b146105e757600080fd5b80634cf088d9116101e85780635faf46bb116101ac5780635faf46bb146104b057806360a66f58146104d057806361d027b3146104f057806365cb3a83146105105780637048027514610525578063708d5c151461054557600080fd5b80634cf088d9146103f65780635b5491821461042e5780635b9907a41461044e5780635fabdf7c146104705780635fabfedc1461049057600080fd5b8063248a9ca31161023a578063248a9ca31461033157806324d7806c146103615780632f2ff15d1461038157806336568abe146103a15780633bb4f50b146103c15780634c8df535146103e157600080fd5b806301ffc9a7146102775780630aebeb4e146102ac57806312fcee80146102ce57806322985246146102ef578063232b956c14610311575b600080fd5b34801561028357600080fd5b50610297610292366004612a29565b610898565b60405190151581526020015b60405180910390f35b3480156102b857600080fd5b506102cc6102c73660046129e6565b6108cf565b005b6102e16102dc366004612aa4565b610a08565b6040519081526020016102a3565b3480156102fb57600080fd5b506102e1600080516020612f9c83398151915281565b34801561031d57600080fd5b506102e161032c3660046129e6565b610c55565b34801561033d57600080fd5b506102e161034c3660046129e6565b60009081526008602052604090206001015490565b34801561036d57600080fd5b5061029761037c366004612994565b610c76565b34801561038d57600080fd5b506102cc61039c3660046129fe565b610c90565b3480156103ad57600080fd5b506102cc6103bc3660046129fe565b610cbb565b3480156103cd57600080fd5b506102e16103dc366004612aa4565b610d39565b3480156103ed57600080fd5b506006546102e1565b34801561040257600080fd5b50600154610416906001600160a01b031681565b6040516001600160a01b0390911681526020016102a3565b34801561043a57600080fd5b50600454610416906001600160a01b031681565b34801561045a57600080fd5b50610463610d5f565b6040516102a39190612bcd565b34801561047c57600080fd5b506102cc61048b366004612994565b610db7565b34801561049c57600080fd5b506102cc6104ab366004612aa4565b610df7565b3480156104bc57600080fd5b506102976104cb3660046129e6565b610ef2565b3480156104dc57600080fd5b506102e16104eb366004612aa4565b610f25565b3480156104fc57600080fd5b50600254610416906001600160a01b031681565b34801561051c57600080fd5b506102cc610f3a565b34801561053157600080fd5b506102cc610540366004612994565b610f79565b34801561055157600080fd5b506102cc610560366004612aa4565b610fb6565b34801561057157600080fd5b506102cc610580366004612994565b6110d1565b34801561059157600080fd5b506102e1600080516020612f7c83398151915281565b3480156105b357600080fd5b506102cc6105c2366004612994565b6111d8565b3480156105d357600080fd5b50600054610416906001600160a01b031681565b3480156105f357600080fd5b506105fc6112b6565b6040516102a3959493929190612be0565b34801561061957600080fd5b506102976106283660046129fe565b6116c3565b34801561063957600080fd5b506102cc610648366004612994565b6116ee565b34801561065957600080fd5b506102cc61171e565b34801561066e57600080fd5b506102cc61067d366004612a69565b61176a565b34801561068e57600080fd5b506102e1600081565b3480156106a357600080fd5b506106eb6106b23660046129e6565b600760205260009081526040902080546001820154600283015460038401546004909401546001600160a01b0390931693919290919085565b6040516102a3959493929190612b9f565b34801561070857600080fd5b506106eb6107173660046129e6565b600090815260076020526040902080546001820154600283015460038401546004909401546001600160a01b0390931694919390929091565b34801561075c57600080fd5b506102cc61076b366004612aa4565b6118e5565b34801561077c57600080fd5b506102cc61078b366004612994565b6119d5565b34801561079c57600080fd5b506102cc611a12565b3480156107b157600080fd5b506102cc6107c0366004612994565b611a42565b3480156107d157600080fd5b50600354610416906001600160a01b031681565b3480156107f157600080fd5b506102cc6108003660046129fe565b611b59565b34801561081157600080fd5b506102e16108203660046129ae565b611b7f565b6102e1610833366004612ac5565b611f54565b34801561084457600080fd5b50610297610853366004612994565b612230565b34801561086457600080fd5b50600554610416906001600160a01b031681565b34801561088457600080fd5b50610297610893366004612994565b61223c565b60006001600160e01b03198216637965db0b60e01b14806108c957506301ffc9a760e01b6001600160e01b03198316145b92915050565b6108d83361223c565b6108fd5760405162461bcd60e51b81526004016108f490612e22565b60405180910390fd5b60008181526007602052604090206002015461094a5760405162461bcd60e51b815260206004820152600c60248201526b195b5c1d1e481b585c9ad95d60a21b60448201526064016108f4565b6000818152600760205260409020600201544210806109785750600081815260076020526040902060010154155b6109b55760405162461bcd60e51b815260206004820152600e60248201526d185b1c9958591e4818db1bdcd95960921b60448201526064016108f4565b60008181526007602090815260408083204260028201556001810193909355518381527f065f36f0cc9a946e058a78fcf529ed8629c0ad3f6d065007c3c9162fd2c39d6391015b60405180910390a15050565b60008281526007602052604081206002015483904210610a3a5760405162461bcd60e51b81526004016108f490612d39565b600081815260076020526040902060010154610a685760405162461bcd60e51b81526004016108f490612da7565b60008481526007602052604090205484906001600160a01b0316158015610a9f575060008181526007602052604090206002015415155b610aeb5760405162461bcd60e51b815260206004820152601e60248201527f426f6e644465706f7369746f72793a206e6f7420455448206d61726b6574000060448201526064016108f4565b8380610b095760405162461bcd60e51b81526004016108f490612d70565b843414610b285760405162461bcd60e51b81526004016108f490612dde565b6000610b35338789612256565b60015460405163332b01f360e01b815233600482015260248101849052604481018b9052606481018390529297509092506000916001600160a01b039091169063332b01f390608401602060405180830381600087803b158015610b9857600080fd5b505af1158015610bac573d6000803e3d6000fd5b505050506040513d601f19601f82011682018060405250810190610bd09190612a51565b6002546040519192506001600160a01b0316903480156108fc02916000818181858888f19350505050158015610c0a573d6000803e3d6000fd5b507fe6842e3c66982eec53fbf127ab93e36198f7d048a044b2761abd0e131b3f84a43389838a8a604051610c42959493929190612b9f565b60405180910390a1505050505092915050565b60068181548110610c6557600080fd5b600091825260209091200154905081565b60006108c9600080516020612f7c833981519152836116c3565b600082815260086020526040902060010154610cac813361263b565b610cb6838361269f565b505050565b6001600160a01b0381163314610d2b5760405162461bcd60e51b815260206004820152602f60248201527f416363657373436f6e74726f6c3a2063616e206f6e6c792072656e6f756e636560448201526e103937b632b9903337b91039b2b63360891b60648201526084016108f4565b610d358282612725565b5050565b6000670de0b6b3a7640000610d4e8484612ecd565b610d589190612ead565b9392505050565b60606006805480602002602001604051908101604052809291908181526020018280548015610dad57602002820191906000526020600020905b815481526020019060010190808311610d99575b5050505050905090565b610dc033612230565b610ddc5760405162461bcd60e51b81526004016108f490612cf1565b610df4600080516020612f9c83398151915282611b59565b50565b610e003361223c565b610e1c5760405162461bcd60e51b81526004016108f490612e22565b60008281526007602052604090206002015482904210610e4e5760405162461bcd60e51b81526004016108f490612d39565b600081815260076020526040902060010154610e7c5760405162461bcd60e51b81526004016108f490612da7565b8180610e9a5760405162461bcd60e51b81526004016108f490612d70565b600084815260076020908152604091829020600381018690558251878152918201869052917f13067d803552eac6ffd9ed0180e377884374b0ee53d2efa798e1c6d6974db44191015b60405180910390a15050505050565b600081815260076020526040812060020154421080156108c9575050600090815260076020526040902060010154151590565b600082610d4e83670de0b6b3a7640000612ecd565b610f433361223c565b610f5f5760405162461bcd60e51b81526004016108f490612e22565b610f77600080516020612f9c83398151915233610cbb565b565b610f8233612230565b610f9e5760405162461bcd60e51b81526004016108f490612cf1565b610df4600080516020612f7c83398151915282610c90565b610fbf3361223c565b610fdb5760405162461bcd60e51b81526004016108f490612e22565b600082815260076020526040902060030154829061103b5760405162461bcd60e51b815260206004820181905260248201527f426f6e644465706f7369746f72793a206e6f6e2d6578697374206d61726b657460448201526064016108f4565b42821161107b5760405162461bcd60e51b815260206004820152600e60248201526d7061737420636c6f736554696d6560901b60448201526064016108f4565b600083815260076020908152604091829020600281018590558251868152918201859052917fc3daa84eedfacd6851bbf80d00ce11271bf926ac96c3d361c0307023c939d4b3910160405180910390a150505050565b6110da33610c76565b806110e957506110e933612230565b6111055760405162461bcd60e51b81526004016108f490612caf565b6001600160a01b0381166111565760405162461bcd60e51b815260206004820152601860248201527741636365737369626c653a207a65726f206164647265737360401b60448201526064016108f4565b336001600160a01b03821614156111a85760405162461bcd60e51b815260206004820152601660248201527520b1b1b2b9b9b4b136329d1039b0b6b29030b236b4b760511b60448201526064016108f4565b6111c0600080516020612f7c83398151915282610c90565b610df4600080516020612f7c83398151915233610cbb565b6111e133612230565b6111fd5760405162461bcd60e51b81526004016108f490612cf1565b6001600160a01b03811661124e5760405162461bcd60e51b815260206004820152601860248201527741636365737369626c653a207a65726f206164647265737360401b60448201526064016108f4565b336001600160a01b03821614156112a05760405162461bcd60e51b815260206004820152601660248201527520b1b1b2b9b9b4b136329d1039b0b6b29030b236b4b760511b60448201526064016108f4565b6112ab600082610c90565b610df4600033610cbb565b600654606090819081908190819060008167ffffffffffffffff8111156112ed57634e487b7160e01b600052604160045260246000fd5b604051908082528060200260200182016040528015611316578160200160208202803683370190505b50905060008267ffffffffffffffff81111561134257634e487b7160e01b600052604160045260246000fd5b60405190808252806020026020018201604052801561136b578160200160208202803683370190505b50905060008367ffffffffffffffff81111561139757634e487b7160e01b600052604160045260246000fd5b6040519080825280602002602001820160405280156113c0578160200160208202803683370190505b50905060008467ffffffffffffffff8111156113ec57634e487b7160e01b600052604160045260246000fd5b604051908082528060200260200182016040528015611415578160200160208202803683370190505b50905060008567ffffffffffffffff81111561144157634e487b7160e01b600052604160045260246000fd5b60405190808252806020026020018201604052801561146a578160200160208202803683370190505b50905060005b868110156116b0576006818154811061149957634e487b7160e01b600052603260045260246000fd5b90600052602060002001548682815181106114c457634e487b7160e01b600052603260045260246000fd5b602002602001018181525050600760008783815181106114f457634e487b7160e01b600052603260045260246000fd5b6020026020010151815260200190815260200160002060000160009054906101000a90046001600160a01b031685828151811061154157634e487b7160e01b600052603260045260246000fd5b60200260200101906001600160a01b031690816001600160a01b0316815250506007600087838151811061158557634e487b7160e01b600052603260045260246000fd5b60200260200101518152602001908152602001600020600101548482815181106115bf57634e487b7160e01b600052603260045260246000fd5b602002602001018181525050600760008783815181106115ef57634e487b7160e01b600052603260045260246000fd5b602002602001015181526020019081526020016000206002015483828151811061162957634e487b7160e01b600052603260045260246000fd5b6020026020010181815250506007600087838151811061165957634e487b7160e01b600052603260045260246000fd5b602002602001015181526020019081526020016000206004015482828151811061169357634e487b7160e01b600052603260045260246000fd5b6020908102919091010152806116a881612f4a565b915050611470565b50939a9299509097509550909350915050565b60009182526008602090815260408084206001600160a01b0393909316845291905290205460ff1690565b6116f733612230565b6117135760405162461bcd60e51b81526004016108f490612cf1565b610df460008261278c565b61172733610c76565b80611736575061173633612230565b6117525760405162461bcd60e51b81526004016108f490612caf565b610f77600080516020612f7c83398151915233610cbb565b6117733361223c565b61178f5760405162461bcd60e51b81526004016108f490612e22565b80806117ad5760405162461bcd60e51b81526004016108f490612d70565b600084815260076020526040902060030154849061180d5760405162461bcd60e51b815260206004820181905260248201527f426f6e644465706f7369746f72793a206e6f6e2d6578697374206d61726b657460448201526064016108f4565b6000858152600760205260409020841561184057838160010160008282546118359190612e95565b9091555061189b9050565b806001015484101561186057838160010160008282546118359190612eec565b600060018201556040518681527f065f36f0cc9a946e058a78fcf529ed8629c0ad3f6d065007c3c9162fd2c39d639060200160405180910390a15b6040805187815286151560208201529081018590527f5e6b6b7fc7d8fb3137611da2ee2b2529d67d6d9e3ae513c9431123de9aa8b88e9060600160405180910390a1505050505050565b6118ee3361223c565b61190a5760405162461bcd60e51b81526004016108f490612e22565b6000828152600760205260409020600201548290421061193c5760405162461bcd60e51b81526004016108f490612d39565b60008181526007602052604090206001015461196a5760405162461bcd60e51b81526004016108f490612da7565b81806119885760405162461bcd60e51b81526004016108f490612d70565b600084815260076020908152604091829020600481018690558251878152918201869052917f8d41eafd4a0911818359bda81daed68115ba0312f42a7098075150da886cd0a49101610ee3565b6119de33612230565b6119fa5760405162461bcd60e51b81526004016108f490612cf1565b610df4600080516020612f9c83398151915282610c90565b611a1b33612230565b611a375760405162461bcd60e51b81526004016108f490612cf1565b610f77600033610cbb565b806001600160a01b038116611a995760405162461bcd60e51b815260206004820152601b60248201527f426f6e644465706f7369746f72793a7a65726f2061646472657373000000000060448201526064016108f4565b611aa233612230565b611abe5760405162461bcd60e51b81526004016108f490612cf1565b6003546001600160a01b0383811691161415611b0b5760405162461bcd60e51b815260206004820152600c60248201526b73616d65206164647265737360a01b60448201526064016108f4565b600380546001600160a01b0319166001600160a01b0384169081179091556040519081527f7816a90568840c698b302fddaa32068d3ac1ecf5aa9ab4060e2ff9463583c23c906020016109fc565b600082815260086020526040902060010154611b75813361263b565b610cb68383612725565b6000611b8a3361223c565b611ba65760405162461bcd60e51b81526004016108f490612e22565b813580611bc55760405162461bcd60e51b81526004016108f490612d70565b604083013580611be75760405162461bcd60e51b81526004016108f490612d70565b606084013580611c095760405162461bcd60e51b81526004016108f490612d70565b68056bc75e2d63100000853511611c625760405162461bcd60e51b815260206004820152601e60248201527f6e6565642074686520746f74616c53616c65416d6f756e74203e20313030000060448201526064016108f4565b600160009054906101000a90046001600160a01b03166001600160a01b03166330e06e8b6040518163ffffffff1660e01b8152600401602060405180830381600087803b158015611cb257600080fd5b505af1158015611cc6573d6000803e3d6000fd5b505050506040513d601f19601f82011682018060405250810190611cea9190612a51565b60008181526007602052604090206002015490945015611d4c5760405162461bcd60e51b815260206004820152601960248201527f616c72656164792072656769737465726564206d61726b65740000000000000060448201526064016108f4565b42602086013511611d985760405162461bcd60e51b8152602060048201526016602482015275195b9914d85b19551a5b59481a185cc81c185cdcd95960521b60448201526064016108f4565b6040805160a0810182526001600160a01b0388168152863560208201529081018660016020020135815260200186600360048110611de657634e487b7160e01b600052603260045260246000fd5b6020020135815260200186600260048110611e1157634e487b7160e01b600052603260045260246000fd5b602090810291909101359091526000868152600782526040808220845181546001600160a01b0319166001600160a01b03918216178255938501516001808301919091559185015160028201556060850151600382015560809094015160049094019390935560068054938401815590527ff652222313e28459528d920b65115c16c04f3efc82aaedc97be59f3f377c0d3f909101859055861615611f1057600254604051639ea6498560e01b81526001600160a01b03888116600483015290911690639ea6498590602401600060405180830381600087803b158015611ef757600080fd5b505af1158015611f0b573d6000803e3d6000fd5b505050505b7f9743ac71f9a2bcf57afd56006eb7c6027c94927d2d01c874438472819d40f5c5848787604051611f4393929190612e6b565b60405180910390a150505092915050565b60008381526007602052604081206002015484904210611f865760405162461bcd60e51b81526004016108f490612d39565b600081815260076020526040902060010154611fb45760405162461bcd60e51b81526004016108f490612da7565b60008581526007602052604090205485906001600160a01b0316158015611feb575060008181526007602052604090206002015415155b6120375760405162461bcd60e51b815260206004820152601e60248201527f426f6e644465706f7369746f72793a206e6f7420455448206d61726b6574000060448201526064016108f4565b84806120555760405162461bcd60e51b81526004016108f490612d70565b84806120735760405162461bcd60e51b81526004016108f490612d70565b8634146120925760405162461bcd60e51b81526004016108f490612dde565b600186116120f25760405162461bcd60e51b815260206004820152602760248201527f5f6c6f636b5765656b73206d7573742062652067726561746572207468616e2060448201526618903bb2b2b59760c91b60648201526084016108f4565b60006120ff33898b612256565b60015460405163980b109760e01b81529298509092506000916001600160a01b039091169063980b1097906121409033908b908f908e908990600401612b9f565b602060405180830381600087803b15801561215a57600080fd5b505af115801561216e573d6000803e3d6000fd5b505050506040513d601f19601f820116820180604052508101906121929190612a51565b6002546040519192506001600160a01b0316903480156108fc02916000818181858888f193505050501580156121cc573d6000803e3d6000fd5b5060408051338152602081018c9052908101829052606081018a90526080810189905260a081018890527fd04d64d5a1460d8c5a8c5ffb4d6ddb0f4e5cf774c894a27c5bb73c4fc41698809060c00160405180910390a15050505050509392505050565b60006108c981836116c3565b60006108c9600080516020612f9c833981519152836116c3565b600080600560149054906101000a900460ff1615156001151514156122bd5760405162461bcd60e51b815260206004820152601f60248201527f5265656e7472616e637947756172643a207265656e7472616e742063616c6c0060448201526064016108f4565b506005805460ff60a01b1916600160a01b1790556000828152600760205260409020600481015460038201549091906122f7908390610f25565b8511156123465760405162461bcd60e51b815260206004820152601860248201527f4465706f7369746f7279203a206f766572206d6178506179000000000000000060448201526064016108f4565b6123508286610d39565b9250600083116123985760405162461bcd60e51b81526020600482015260136024820152721e995c9bc81cdd185ada5b99c8185b5bdd5b9d606a1b60448201526064016108f4565b6000670de0b6b3a7640000600260009054906101000a90046001600160a01b03166001600160a01b03166396f0bd616040518163ffffffff1660e01b815260040160206040518083038186803b1580156123f157600080fd5b505afa158015612405573d6000803e3d6000fd5b505050506040513d601f19601f820116820180604052508101906124299190612a51565b6124339088612ecd565b61243d9190612ead565b9050838110156124a35760405162461bcd60e51b815260206004820152602b60248201527f6d696e7461626c65416d6f756e74206973206c657373207468616e207374616b60448201526a34b7339030b6b7bab73a1760a91b60648201526084016108f4565b81600101548411156124ee5760405162461bcd60e51b815260206004820152601460248201527311195c1bdcda5d1bdc9e4e881cdbdb19081bdd5d60621b60448201526064016108f4565b838260010160008282546125029190612eec565b9091555050600182015468056bc75e2d631000001061255657600060018301556040518581527f065f36f0cc9a946e058a78fcf529ed8629c0ad3f6d065007c3c9162fd2c39d639060200160405180910390a15b60025460405163ef7c6c0f60e01b81526004810183905260248101869052600160448201526001600160a01b039091169063ef7c6c0f90606401600060405180830381600087803b1580156125aa57600080fd5b505af11580156125be573d6000803e3d6000fd5b5050604080516001600160a01b038b16815260208101899052908101899052606081018790526001608082015260a081018490527fef81711614d4ac7faee84826311bec7d949a272a2e7e4f39f3a3b72527767d69925060c001905060405180910390a150506005805460ff60a01b191690559094909350915050565b61264582826116c3565b610d355761265d816001600160a01b03166014612796565b612668836020612796565b604051602001612679929190612b2a565b60408051601f198184030181529082905262461bcd60e51b82526108f491600401612c7c565b6126a982826116c3565b610d355760008281526008602090815260408083206001600160a01b03851684529091529020805460ff191660011790556126e13390565b6001600160a01b0316816001600160a01b0316837f2f8788117e7eff1d82e926ec794901d17c78024a50270940304540a733656f0d60405160405180910390a45050565b61272f82826116c3565b15610d355760008281526008602090815260408083206001600160a01b0385168085529252808320805460ff1916905551339285917ff6391f5c32d9c69d2a47ea670b442974b53935d1edc7fd64eb21e047a839171b9190a45050565b610d35828261269f565b606060006127a5836002612ecd565b6127b0906002612e95565b67ffffffffffffffff8111156127d657634e487b7160e01b600052604160045260246000fd5b6040519080825280601f01601f191660200182016040528015612800576020820181803683370190505b509050600360fc1b8160008151811061282957634e487b7160e01b600052603260045260246000fd5b60200101906001600160f81b031916908160001a905350600f60fb1b8160018151811061286657634e487b7160e01b600052603260045260246000fd5b60200101906001600160f81b031916908160001a905350600061288a846002612ecd565b612895906001612e95565b90505b6001811115612929576f181899199a1a9b1b9c1cb0b131b232b360811b85600f16601081106128d757634e487b7160e01b600052603260045260246000fd5b1a60f81b8282815181106128fb57634e487b7160e01b600052603260045260246000fd5b60200101906001600160f81b031916908160001a90535060049490941c9361292281612f33565b9050612898565b508315610d585760405162461bcd60e51b815260206004820181905260248201527f537472696e67733a20686578206c656e67746820696e73756666696369656e7460448201526064016108f4565b80356001600160a01b038116811461298f57600080fd5b919050565b6000602082840312156129a5578081fd5b610d5882612978565b60008060a083850312156129c0578081fd5b6129c983612978565b91508360a0840111156129da578081fd5b50926020919091019150565b6000602082840312156129f7578081fd5b5035919050565b60008060408385031215612a10578182fd5b82359150612a2060208401612978565b90509250929050565b600060208284031215612a3a578081fd5b81356001600160e01b031981168114610d58578182fd5b600060208284031215612a62578081fd5b5051919050565b600080600060608486031215612a7d578081fd5b8335925060208401358015158114612a93578182fd5b929592945050506040919091013590565b60008060408385031215612ab6578182fd5b50508035926020909101359150565b600080600060608486031215612ad9578283fd5b505081359360208301359350604090920135919050565b6000815180845260208085019450808401835b83811015612b1f57815187529582019590820190600101612b03565b509495945050505050565b7f416363657373436f6e74726f6c3a206163636f756e7420000000000000000000815260008351612b62816017850160208801612f03565b7001034b99036b4b9b9b4b733903937b6329607d1b6017918401918201528351612b93816028840160208801612f03565b01602801949350505050565b6001600160a01b03959095168552602085019390935260408401919091526060830152608082015260a00190565b602081526000610d586020830184612af0565b60a081526000612bf360a0830188612af0565b828103602084810191909152875180835288820192820190845b81811015612c325784516001600160a01b031683529383019391830191600101612c0d565b50508481036040860152612c468189612af0565b925050508281036060840152612c5c8186612af0565b90508281036080840152612c708185612af0565b98975050505050505050565b6020815260008251806020840152612c9b816040850160208701612f03565b601f01601f19169190910160400192915050565b60208082526022908201527f41636365737369626c653a2043616c6c6572206973206e6f7420616e2061646d60408201526134b760f11b606082015260800190565b60208082526028908201527f41636365737369626c653a2043616c6c6572206973206e6f7420616e2070726f6040820152673c3c9030b236b4b760c11b606082015260800190565b6020808252601d908201527f426f6e644465706f7369746f72793a20636c6f736564206d61726b6574000000604082015260600190565b60208082526019908201527f426f6e644465706f7369746f72793a207a65726f2075696e7400000000000000604082015260600190565b6020808252601d908201527f426f6e644465706f7369746f72793a207a65726f206361706163697479000000604082015260600190565b60208082526024908201527f4465706f7369746f72793a2045544820616d6f756e747320646f206e6f74206d6040820152630c2e8c6d60e31b606082015260800190565b60208082526029908201527f41636365737369626c653a2043616c6c6572206973206e6f7420616e20706f6c60408201526834b1bc9030b236b4b760b91b606082015260800190565b8381526001600160a01b038316602082015260c08101608083604084013760008152949350505050565b60008219821115612ea857612ea8612f65565b500190565b600082612ec857634e487b7160e01b81526012600452602481fd5b500490565b6000816000190483118215151615612ee757612ee7612f65565b500290565b600082821015612efe57612efe612f65565b500390565b60005b83811015612f1e578181015183820152602001612f06565b83811115612f2d576000848401525b50505050565b600081612f4257612f42612f65565b506000190190565b6000600019821415612f5e57612f5e612f65565b5060010190565b634e487b7160e01b600052601160045260246000fdfedf8b4c520ffe197c5343c6f5aec59570151ef9a492f2c624fd45ddde6135ec42fb5864e8ff833c3cb2d2d08505e82ff02a43554c74a35d4f5a64e85261278311a2646970667358221220f5c1f5416533d00f493a6f16fd5412242693b7c9e050bedbb5834d5291e3f56564736f6c63430008040033",
  "linkReferences": {},
  "deployedLinkReferences": {}
}