{
  "_format": "hh-sol-artifact-1",
  "contractName": "BondDepository",
  "sourceName": "contracts/BondDepository.sol",
  "abi": [
    {
      "inputs": [],
      "stateMutability": "nonpayable",
      "type": "constructor"
    },
    {
      "anonymous": false,
      "inputs": [
        {
          "indexed": false,
          "internalType": "uint256",
          "name": "_marketId",
          "type": "uint256"
        },
        {
          "indexed": false,
          "internalType": "uint256",
          "name": "closeTime",
          "type": "uint256"
        }
      ],
      "name": "ChangedCloseTime",
      "type": "event"
    },
    {
      "anonymous": false,
      "inputs": [
        {
          "indexed": false,
          "internalType": "uint256",
          "name": "_marketId",
          "type": "uint256"
        },
        {
          "indexed": false,
          "internalType": "uint256",
          "name": "_amount",
          "type": "uint256"
        }
      ],
      "name": "ChangedMaxPayout",
      "type": "event"
    },
    {
      "anonymous": false,
      "inputs": [
        {
          "indexed": false,
          "internalType": "uint256",
          "name": "_marketId",
          "type": "uint256"
        },
        {
          "indexed": false,
          "internalType": "uint256",
          "name": "_tosPrice",
          "type": "uint256"
        }
      ],
      "name": "ChangedPrice",
      "type": "event"
    },
    {
      "anonymous": false,
      "inputs": [
        {
          "indexed": false,
          "internalType": "uint256",
          "name": "marketId",
          "type": "uint256"
        }
      ],
      "name": "ClosedMarket",
      "type": "event"
    },
    {
      "anonymous": false,
      "inputs": [
        {
          "indexed": false,
          "internalType": "uint256",
          "name": "marketId",
          "type": "uint256"
        },
        {
          "indexed": false,
          "internalType": "address",
          "name": "token",
          "type": "address"
        },
        {
          "indexed": false,
          "internalType": "uint256[4]",
          "name": "market",
          "type": "uint256[4]"
        }
      ],
      "name": "CreatedMarket",
      "type": "event"
    },
    {
      "anonymous": false,
      "inputs": [
        {
          "indexed": false,
          "internalType": "uint256",
          "name": "_marketId",
          "type": "uint256"
        },
        {
          "indexed": false,
          "internalType": "uint256",
          "name": "_amount",
          "type": "uint256"
        }
      ],
      "name": "DecreasedCapacity",
      "type": "event"
    },
    {
      "anonymous": false,
      "inputs": [
        {
          "indexed": false,
          "internalType": "address",
          "name": "user",
          "type": "address"
        },
        {
          "indexed": false,
          "internalType": "uint256",
          "name": "marketId",
          "type": "uint256"
        },
        {
          "indexed": false,
          "internalType": "uint256",
          "name": "amount",
          "type": "uint256"
        },
        {
          "indexed": false,
          "internalType": "uint256",
          "name": "payout",
          "type": "uint256"
        },
        {
          "indexed": false,
          "internalType": "bool",
          "name": "isEth",
          "type": "bool"
        },
        {
          "indexed": false,
          "internalType": "uint256",
          "name": "mintAmount",
          "type": "uint256"
        }
      ],
      "name": "Deposited",
      "type": "event"
    },
    {
      "anonymous": false,
      "inputs": [
        {
          "indexed": false,
          "internalType": "address",
          "name": "user",
          "type": "address"
        },
        {
          "indexed": false,
          "internalType": "uint256",
          "name": "marketId",
          "type": "uint256"
        },
        {
          "indexed": false,
          "internalType": "uint256",
          "name": "stakeId",
          "type": "uint256"
        },
        {
          "indexed": false,
          "internalType": "uint256",
          "name": "amount",
          "type": "uint256"
        },
        {
          "indexed": false,
          "internalType": "uint256",
          "name": "tosValuation",
          "type": "uint256"
        }
      ],
      "name": "ETHDeposited",
      "type": "event"
    },
    {
      "anonymous": false,
      "inputs": [
        {
          "indexed": false,
          "internalType": "address",
          "name": "user",
          "type": "address"
        },
        {
          "indexed": false,
          "internalType": "uint256",
          "name": "marketId",
          "type": "uint256"
        },
        {
          "indexed": false,
          "internalType": "uint256",
          "name": "stakeId",
          "type": "uint256"
        },
        {
          "indexed": false,
          "internalType": "uint256",
          "name": "amount",
          "type": "uint256"
        },
        {
          "indexed": false,
          "internalType": "uint256",
          "name": "lockWeeks",
          "type": "uint256"
        },
        {
          "indexed": false,
          "internalType": "uint256",
          "name": "tosValuation",
          "type": "uint256"
        }
      ],
      "name": "ETHDepositedWithSTOS",
      "type": "event"
    },
    {
      "anonymous": false,
      "inputs": [
        {
          "indexed": false,
          "internalType": "uint256",
          "name": "_marketId",
          "type": "uint256"
        },
        {
          "indexed": false,
          "internalType": "uint256",
          "name": "_amount",
          "type": "uint256"
        }
      ],
      "name": "IncreasedCapacity",
      "type": "event"
    },
    {
      "anonymous": false,
      "inputs": [
        {
          "indexed": true,
          "internalType": "bytes32",
          "name": "role",
          "type": "bytes32"
        },
        {
          "indexed": true,
          "internalType": "bytes32",
          "name": "previousAdminRole",
          "type": "bytes32"
        },
        {
          "indexed": true,
          "internalType": "bytes32",
          "name": "newAdminRole",
          "type": "bytes32"
        }
      ],
      "name": "RoleAdminChanged",
      "type": "event"
    },
    {
      "anonymous": false,
      "inputs": [
        {
          "indexed": true,
          "internalType": "bytes32",
          "name": "role",
          "type": "bytes32"
        },
        {
          "indexed": true,
          "internalType": "address",
          "name": "account",
          "type": "address"
        },
        {
          "indexed": true,
          "internalType": "address",
          "name": "sender",
          "type": "address"
        }
      ],
      "name": "RoleGranted",
      "type": "event"
    },
    {
      "anonymous": false,
      "inputs": [
        {
          "indexed": true,
          "internalType": "bytes32",
          "name": "role",
          "type": "bytes32"
        },
        {
          "indexed": true,
          "internalType": "address",
          "name": "account",
          "type": "address"
        },
        {
          "indexed": true,
          "internalType": "address",
          "name": "sender",
          "type": "address"
        }
      ],
      "name": "RoleRevoked",
      "type": "event"
    },
    {
      "inputs": [],
      "name": "ADMIN_ROLE",
      "outputs": [
        {
          "internalType": "bytes32",
          "name": "",
          "type": "bytes32"
        }
      ],
      "stateMutability": "view",
      "type": "function"
    },
    {
      "inputs": [],
      "name": "BURNER_ROLE",
      "outputs": [
        {
          "internalType": "bytes32",
          "name": "",
          "type": "bytes32"
        }
      ],
      "stateMutability": "view",
      "type": "function"
    },
    {
      "inputs": [],
      "name": "DEFAULT_ADMIN_ROLE",
      "outputs": [
        {
          "internalType": "bytes32",
          "name": "",
          "type": "bytes32"
        }
      ],
      "stateMutability": "view",
      "type": "function"
    },
    {
      "inputs": [
        {
          "internalType": "uint256",
          "name": "_id",
          "type": "uint256"
        },
        {
          "internalType": "uint256",
          "name": "_amount",
          "type": "uint256"
        }
      ],
      "name": "ETHDeposit",
      "outputs": [
        {
          "internalType": "uint256",
          "name": "payout_",
          "type": "uint256"
        }
      ],
      "stateMutability": "payable",
      "type": "function"
    },
    {
      "inputs": [
        {
          "internalType": "uint256",
          "name": "_id",
          "type": "uint256"
        },
        {
          "internalType": "uint256",
          "name": "_amount",
          "type": "uint256"
        },
        {
          "internalType": "uint256",
          "name": "_lockWeeks",
          "type": "uint256"
        }
      ],
      "name": "ETHDepositWithSTOS",
      "outputs": [
        {
          "internalType": "uint256",
          "name": "payout_",
          "type": "uint256"
        }
      ],
      "stateMutability": "payable",
      "type": "function"
    },
    {
      "inputs": [],
      "name": "MINTER_ROLE",
      "outputs": [
        {
          "internalType": "bytes32",
          "name": "",
          "type": "bytes32"
        }
      ],
      "stateMutability": "view",
      "type": "function"
    },
    {
      "inputs": [],
      "name": "POLICY_ROLE",
      "outputs": [
        {
          "internalType": "bytes32",
          "name": "",
          "type": "bytes32"
        }
      ],
      "stateMutability": "view",
      "type": "function"
    },
    {
      "inputs": [],
      "name": "PROJECT_ADMIN_ROLE",
      "outputs": [
        {
          "internalType": "bytes32",
          "name": "",
          "type": "bytes32"
        }
      ],
      "stateMutability": "view",
      "type": "function"
    },
    {
      "inputs": [
        {
          "internalType": "address",
          "name": "account",
          "type": "address"
        }
      ],
      "name": "addAdmin",
      "outputs": [],
      "stateMutability": "nonpayable",
      "type": "function"
    },
    {
      "inputs": [
        {
          "internalType": "address",
          "name": "_account",
          "type": "address"
        }
      ],
      "name": "addPolicy",
      "outputs": [],
      "stateMutability": "nonpayable",
      "type": "function"
    },
    {
      "inputs": [
        {
          "internalType": "address",
          "name": "_owner",
          "type": "address"
        }
      ],
      "name": "addProxyAdmin",
      "outputs": [],
      "stateMutability": "nonpayable",
      "type": "function"
    },
    {
      "inputs": [
        {
          "internalType": "uint256",
          "name": "_tosPrice",
          "type": "uint256"
        },
        {
          "internalType": "uint256",
          "name": "_amount",
          "type": "uint256"
        }
      ],
      "name": "calculateTosAmountForAsset",
      "outputs": [
        {
          "internalType": "uint256",
          "name": "payout",
          "type": "uint256"
        }
      ],
      "stateMutability": "pure",
      "type": "function"
    },
    {
      "inputs": [],
      "name": "calculator",
      "outputs": [
        {
          "internalType": "address",
          "name": "",
          "type": "address"
        }
      ],
      "stateMutability": "view",
      "type": "function"
    },
    {
      "inputs": [
        {
          "internalType": "uint256",
          "name": "_marketId",
          "type": "uint256"
        },
        {
          "internalType": "uint256",
          "name": "closeTime",
          "type": "uint256"
        }
      ],
      "name": "changeCloseTime",
      "outputs": [],
      "stateMutability": "nonpayable",
      "type": "function"
    },
    {
      "inputs": [
        {
          "internalType": "uint256",
          "name": "_marketId",
          "type": "uint256"
        },
        {
          "internalType": "uint256",
          "name": "_amount",
          "type": "uint256"
        }
      ],
      "name": "changeMaxPayout",
      "outputs": [],
      "stateMutability": "nonpayable",
      "type": "function"
    },
    {
      "inputs": [
        {
          "internalType": "uint256",
          "name": "_marketId",
          "type": "uint256"
        },
        {
          "internalType": "uint256",
          "name": "_tosPrice",
          "type": "uint256"
        }
      ],
      "name": "changePrice",
      "outputs": [],
      "stateMutability": "nonpayable",
      "type": "function"
    },
    {
      "inputs": [
        {
          "internalType": "uint256",
          "name": "_id",
          "type": "uint256"
        }
      ],
      "name": "close",
      "outputs": [],
      "stateMutability": "nonpayable",
      "type": "function"
    },
    {
      "inputs": [
        {
          "internalType": "address",
          "name": "_token",
          "type": "address"
        },
        {
          "internalType": "uint256[4]",
          "name": "_market",
          "type": "uint256[4]"
        }
      ],
      "name": "create",
      "outputs": [
        {
          "internalType": "uint256",
          "name": "id_",
          "type": "uint256"
        }
      ],
      "stateMutability": "nonpayable",
      "type": "function"
    },
    {
      "inputs": [
        {
          "internalType": "uint256",
          "name": "_marketId",
          "type": "uint256"
        },
        {
          "internalType": "uint256",
          "name": "_amount",
          "type": "uint256"
        }
      ],
      "name": "decreaseCapacity",
      "outputs": [],
      "stateMutability": "nonpayable",
      "type": "function"
    },
    {
      "inputs": [],
      "name": "dtos",
      "outputs": [
        {
          "internalType": "address",
          "name": "",
          "type": "address"
        }
      ],
      "stateMutability": "view",
      "type": "function"
    },
    {
      "inputs": [],
      "name": "getBonds",
      "outputs": [
        {
          "internalType": "uint256[]",
          "name": "",
          "type": "uint256[]"
        },
        {
          "internalType": "address[]",
          "name": "",
          "type": "address[]"
        },
        {
          "internalType": "uint256[]",
          "name": "",
          "type": "uint256[]"
        },
        {
          "internalType": "uint256[]",
          "name": "",
          "type": "uint256[]"
        },
        {
          "internalType": "uint256[]",
          "name": "",
          "type": "uint256[]"
        }
      ],
      "stateMutability": "view",
      "type": "function"
    },
    {
      "inputs": [],
      "name": "getMarketList",
      "outputs": [
        {
          "internalType": "uint256[]",
          "name": "",
          "type": "uint256[]"
        }
      ],
      "stateMutability": "view",
      "type": "function"
    },
    {
      "inputs": [
        {
          "internalType": "bytes32",
          "name": "role",
          "type": "bytes32"
        }
      ],
      "name": "getRoleAdmin",
      "outputs": [
        {
          "internalType": "bytes32",
          "name": "",
          "type": "bytes32"
        }
      ],
      "stateMutability": "view",
      "type": "function"
    },
    {
      "inputs": [
        {
          "internalType": "bytes32",
          "name": "role",
          "type": "bytes32"
        },
        {
          "internalType": "address",
          "name": "account",
          "type": "address"
        }
      ],
      "name": "grantRole",
      "outputs": [],
      "stateMutability": "nonpayable",
      "type": "function"
    },
    {
      "inputs": [
        {
          "internalType": "bytes32",
          "name": "role",
          "type": "bytes32"
        },
        {
          "internalType": "address",
          "name": "account",
          "type": "address"
        }
      ],
      "name": "hasRole",
      "outputs": [
        {
          "internalType": "bool",
          "name": "",
          "type": "bool"
        }
      ],
      "stateMutability": "view",
      "type": "function"
    },
    {
      "inputs": [
        {
          "internalType": "uint256",
          "name": "_marketId",
          "type": "uint256"
        },
        {
          "internalType": "uint256",
          "name": "_amount",
          "type": "uint256"
        }
      ],
      "name": "increaseCapacity",
      "outputs": [],
      "stateMutability": "nonpayable",
      "type": "function"
    },
    {
      "inputs": [
        {
          "internalType": "address",
          "name": "account",
          "type": "address"
        }
      ],
      "name": "isAdmin",
      "outputs": [
        {
          "internalType": "bool",
          "name": "",
          "type": "bool"
        }
      ],
      "stateMutability": "view",
      "type": "function"
    },
    {
      "inputs": [
        {
          "internalType": "uint256",
          "name": "_index",
          "type": "uint256"
        }
      ],
      "name": "isOpened",
      "outputs": [
        {
          "internalType": "bool",
          "name": "closedBool",
          "type": "bool"
        }
      ],
      "stateMutability": "view",
      "type": "function"
    },
    {
      "inputs": [
        {
          "internalType": "address",
          "name": "account",
          "type": "address"
        }
      ],
      "name": "isPolicy",
      "outputs": [
        {
          "internalType": "bool",
          "name": "",
          "type": "bool"
        }
      ],
      "stateMutability": "view",
      "type": "function"
    },
    {
      "inputs": [
        {
          "internalType": "address",
          "name": "account",
          "type": "address"
        }
      ],
      "name": "isProxyAdmin",
      "outputs": [
        {
          "internalType": "bool",
          "name": "",
          "type": "bool"
        }
      ],
      "stateMutability": "view",
      "type": "function"
    },
    {
      "inputs": [
        {
          "internalType": "uint256",
          "name": "",
          "type": "uint256"
        }
      ],
      "name": "marketList",
      "outputs": [
        {
          "internalType": "uint256",
          "name": "",
          "type": "uint256"
        }
      ],
      "stateMutability": "view",
      "type": "function"
    },
    {
      "inputs": [
        {
          "internalType": "uint256",
          "name": "",
          "type": "uint256"
        }
      ],
      "name": "markets",
      "outputs": [
        {
          "internalType": "address",
          "name": "quoteToken",
          "type": "address"
        },
        {
          "internalType": "uint256",
          "name": "capacity",
          "type": "uint256"
        },
        {
          "internalType": "uint256",
          "name": "endSaleTime",
          "type": "uint256"
        },
        {
          "internalType": "uint256",
          "name": "maxPayout",
          "type": "uint256"
        },
        {
          "internalType": "uint256",
          "name": "tosPrice",
          "type": "uint256"
        }
      ],
      "stateMutability": "view",
      "type": "function"
    },
    {
      "inputs": [
        {
          "internalType": "uint256",
          "name": "_tosPrice",
          "type": "uint256"
        },
        {
          "internalType": "uint256",
          "name": "_maxPayout",
          "type": "uint256"
        }
      ],
      "name": "purchasableAssetAmountAtOneTime",
      "outputs": [
        {
          "internalType": "uint256",
          "name": "maxPayout_",
          "type": "uint256"
        }
      ],
      "stateMutability": "pure",
      "type": "function"
    },
    {
      "inputs": [],
      "name": "removeAdmin",
      "outputs": [],
      "stateMutability": "nonpayable",
      "type": "function"
    },
    {
      "inputs": [],
      "name": "removePolicy",
      "outputs": [],
      "stateMutability": "nonpayable",
      "type": "function"
    },
    {
      "inputs": [],
      "name": "removeProxyAdmin",
      "outputs": [],
      "stateMutability": "nonpayable",
      "type": "function"
    },
    {
      "inputs": [
        {
          "internalType": "bytes32",
          "name": "role",
          "type": "bytes32"
        },
        {
          "internalType": "address",
          "name": "account",
          "type": "address"
        }
      ],
      "name": "renounceRole",
      "outputs": [],
      "stateMutability": "nonpayable",
      "type": "function"
    },
    {
      "inputs": [
        {
          "internalType": "bytes32",
          "name": "role",
          "type": "bytes32"
        },
        {
          "internalType": "address",
          "name": "account",
          "type": "address"
        }
      ],
      "name": "revokeRole",
      "outputs": [],
      "stateMutability": "nonpayable",
      "type": "function"
    },
    {
      "inputs": [],
      "name": "staking",
      "outputs": [
        {
          "internalType": "contract IStaking",
          "name": "",
          "type": "address"
        }
      ],
      "stateMutability": "view",
      "type": "function"
    },
    {
      "inputs": [
        {
          "internalType": "bytes4",
          "name": "interfaceId",
          "type": "bytes4"
        }
      ],
      "name": "supportsInterface",
      "outputs": [
        {
          "internalType": "bool",
          "name": "",
          "type": "bool"
        }
      ],
      "stateMutability": "view",
      "type": "function"
    },
    {
      "inputs": [],
      "name": "tos",
      "outputs": [
        {
          "internalType": "contract IERC20",
          "name": "",
          "type": "address"
        }
      ],
      "stateMutability": "view",
      "type": "function"
    },
    {
      "inputs": [],
      "name": "totalMarketCount",
      "outputs": [
        {
          "internalType": "uint256",
          "name": "",
          "type": "uint256"
        }
      ],
      "stateMutability": "view",
      "type": "function"
    },
    {
      "inputs": [
        {
          "internalType": "address",
          "name": "newAdmin",
          "type": "address"
        }
      ],
      "name": "transferAdmin",
      "outputs": [],
      "stateMutability": "nonpayable",
      "type": "function"
    },
    {
      "inputs": [
        {
          "internalType": "address",
          "name": "newAdmin",
          "type": "address"
        }
      ],
      "name": "transferPolicyAdmin",
      "outputs": [],
      "stateMutability": "nonpayable",
      "type": "function"
    },
    {
      "inputs": [
        {
          "internalType": "address",
          "name": "newAdmin",
          "type": "address"
        }
      ],
      "name": "transferProxyAdmin",
      "outputs": [],
      "stateMutability": "nonpayable",
      "type": "function"
    },
    {
      "inputs": [],
      "name": "treasury",
      "outputs": [
        {
          "internalType": "address",
          "name": "",
          "type": "address"
        }
      ],
      "stateMutability": "view",
      "type": "function"
    },
    {
      "inputs": [],
      "name": "uniswapV3Factory",
      "outputs": [
        {
          "internalType": "address",
          "name": "",
          "type": "address"
        }
      ],
      "stateMutability": "view",
      "type": "function"
    },
    {
      "inputs": [
        {
          "internalType": "uint256",
          "name": "_index",
          "type": "uint256"
        }
      ],
      "name": "viewMarket",
      "outputs": [
        {
          "internalType": "address",
          "name": "quoteToken",
          "type": "address"
        },
        {
          "internalType": "uint256",
          "name": "capacity",
          "type": "uint256"
        },
        {
          "internalType": "uint256",
          "name": "endSaleTime",
          "type": "uint256"
        },
        {
          "internalType": "uint256",
          "name": "maxPayout",
          "type": "uint256"
        },
        {
          "internalType": "uint256",
          "name": "tosPrice",
          "type": "uint256"
        }
      ],
      "stateMutability": "view",
      "type": "function"
    }
  ],
  "bytecode": "0x608060405234801561001057600080fd5b50612eca806100206000396000f3fe6080604052600436106102235760003560e01c806301ffc9a7146102285780630aebeb4e1461025d57806312fcee801461027f57806322985246146102a0578063232b956c146102c2578063248a9ca3146102e257806324d7806c14610302578063282c51f3146103225780632f2ff15d1461035657806336568abe146103765780633bb4f50b1461039657806341c04d5e146103b65780634c8df535146103d85780634cf088d9146103ed5780635b5491821461041a5780635b9907a41461043a5780635fabfedc1461045c5780635faf46bb1461047c57806360a66f581461049c57806361d027b3146104bc57806365cb3a83146104dc57806370480275146104f1578063708d5c151461051157806375829def1461053157806375b238fc1461055157806380e723a3146105855780638356ca4f146105a557806389f395de146105c55780638b140f6b146105e557806391d148541461060b57806396f1557c1461062b5780639a202d471461064b578063a217fddf14610660578063af0856dc14610675578063b1283e7714610695578063b1667adf146106fa578063b3de019c1461074e578063b84ef0811461076e578063be72f2d31461078e578063ce3e39c0146107a3578063d5391393146107c3578063d547741f146107f7578063d6e0eee414610817578063f1c8c92214610837578063f29310c114610857578063f47f2f1d1461086a578063f98e422f1461088a578063fad1c85c146108aa575b600080fd5b34801561023457600080fd5b50610248610243366004612842565b6108ca565b60405190151581526020015b60405180910390f35b34801561026957600080fd5b5061027d6102783660046127ff565b610901565b005b61029261028d366004612882565b610a27565b604051908152602001610254565b3480156102ac57600080fd5b50610292600080516020612e7583398151915281565b3480156102ce57600080fd5b506102926102dd3660046127ff565b610c45565b3480156102ee57600080fd5b506102926102fd3660046127ff565b610c66565b34801561030e57600080fd5b5061024861031d3660046127ad565b610c7b565b34801561032e57600080fd5b506102927f9667e80708b6eeeb0053fa0cca44e028ff548e2a9f029edfeac87c118b08b7c881565b34801561036257600080fd5b5061027d610371366004612817565b610c95565b34801561038257600080fd5b5061027d610391366004612817565b610cb7565b3480156103a257600080fd5b506102926103b1366004612882565b610d35565b3480156103c257600080fd5b50610292600080516020612e3583398151915281565b3480156103e457600080fd5b50600754610292565b3480156103f957600080fd5b5060015461040d906001600160a01b031681565b6040516102549190612977565b34801561042657600080fd5b5060045461040d906001600160a01b031681565b34801561044657600080fd5b5061044f610d5b565b60405161025491906129b9565b34801561046857600080fd5b5061027d610477366004612882565b610db3565b34801561048857600080fd5b506102486104973660046127ff565b610ead565b3480156104a857600080fd5b506102926104b7366004612882565b610ef7565b3480156104c857600080fd5b5060025461040d906001600160a01b031681565b3480156104e857600080fd5b5061027d610f0c565b3480156104fd57600080fd5b5061027d61050c3660046127ad565b610f4b565b34801561051d57600080fd5b5061027d61052c366004612882565b610f8b565b34801561053d57600080fd5b5061027d61054c3660046127ad565b611073565b34801561055d57600080fd5b506102927fdf8b4c520ffe197c5343c6f5aec59570151ef9a492f2c624fd45ddde6135ec4281565b34801561059157600080fd5b5061027d6105a0366004612882565b611126565b3480156105b157600080fd5b5061027d6105c03660046127ad565b611255565b3480156105d157600080fd5b5060005461040d906001600160a01b031681565b3480156105f157600080fd5b506105fa6112df565b6040516102549594939291906129cc565b34801561061757600080fd5b50610248610626366004612817565b6116e7565b34801561063757600080fd5b5061027d6106463660046127ad565b611712565b34801561065757600080fd5b5061027d611742565b34801561066c57600080fd5b50610292600081565b34801561068157600080fd5b5061027d610690366004612882565b61178e565b3480156106a157600080fd5b506106e96106b03660046127ff565b600860205260009081526040902080546001820154600283015460038401546004909401546001600160a01b0390931693919290919085565b60405161025495949392919061298b565b34801561070657600080fd5b506106e96107153660046127ff565b600090815260086020526040902080546001820154600283015460038401546004909401546001600160a01b0390931694919390929091565b34801561075a57600080fd5b5061027d610769366004612882565b611859565b34801561077a57600080fd5b5061027d6107893660046127ad565b611944565b34801561079a57600080fd5b5061027d611981565b3480156107af57600080fd5b5060035461040d906001600160a01b031681565b3480156107cf57600080fd5b506102927ff0887ba65ee2024ea881d91b74c2450ef19e1557f03bed3ea9f16b037cbe2dc981565b34801561080357600080fd5b5061027d610812366004612817565b6119b1565b34801561082357600080fd5b506102926108323660046127c7565b6119ce565b34801561084357600080fd5b5061027d6108523660046127ad565b611da3565b6102926108653660046128a3565b611e47565b34801561087657600080fd5b506102486108853660046127ad565b612094565b34801561089657600080fd5b5060055461040d906001600160a01b031681565b3480156108b657600080fd5b506102486108c53660046127ad565b6120a0565b60006001600160e01b03198216637965db0b60e01b14806108fb57506301ffc9a760e01b6001600160e01b03198316145b92915050565b61090a336120a0565b61092f5760405162461bcd60e51b815260040161092690612ccd565b60405180910390fd5b60008181526008602052604090206002015461097c5760405162461bcd60e51b815260206004820152600c60248201526b195b5c1d1e481b585c9ad95d60a21b6044820152606401610926565b6000818152600860205260409020600201544210806109aa5750600081815260086020526040902060010154155b6109e75760405162461bcd60e51b815260206004820152600e60248201526d185b1c9958591e4818db1bdcd95960921b6044820152606401610926565b6000818152600860209081526040808320426002820155600181019390935551838152600080516020612e55833981519152910160405180910390a15050565b60008281526008602052604081206002015483904210610a595760405162461bcd60e51b815260040161092690612b57565b600081815260086020526040902060010154610a875760405162461bcd60e51b815260040161092690612bf1565b60008481526008602052604090205484906001600160a01b0316158015610abe575060008181526008602052604090206002015415155b610ada5760405162461bcd60e51b815260040161092690612c6c565b8380610af85760405162461bcd60e51b815260040161092690612b8e565b843414610b175760405162461bcd60e51b815260040161092690612c28565b6000610b243387896120ba565b60015460405163332b01f360e01b815233600482015260248101849052604481018b90526064810183905292975090925088916000916001600160a01b03169063332b01f390608401602060405180830381600087803b158015610b8757600080fd5b505af1158015610b9b573d6000803e3d6000fd5b505050506040513d601f19601f82011682018060405250810190610bbf919061286a565b6002546040519192506001600160a01b0316903480156108fc02916000818181858888f19350505050158015610bf9573d6000803e3d6000fd5b507fe6842e3c66982eec53fbf127ab93e36198f7d048a044b2761abd0e131b3f84a43383838b8b604051610c3195949392919061298b565b60405180910390a150505050505092915050565b60078181548110610c5557600080fd5b600091825260209091200154905081565b60009081526009602052604090206001015490565b60006108fb600080516020612e35833981519152836116e7565b610c9e82610c66565b610ca8813361245a565b610cb283836124be565b505050565b6001600160a01b0381163314610d275760405162461bcd60e51b815260206004820152602f60248201527f416363657373436f6e74726f6c3a2063616e206f6e6c792072656e6f756e636560448201526e103937b632b9903337b91039b2b63360891b6064820152608401610926565b610d318282612544565b5050565b6000670de0b6b3a7640000610d4a8484612d86565b610d549190612d66565b9392505050565b60606007805480602002602001604051908101604052809291908181526020018280548015610da957602002820191906000526020600020905b815481526020019060010190808311610d95575b5050505050905090565b610dbc336120a0565b610dd85760405162461bcd60e51b815260040161092690612ccd565b60008281526008602052604090206002015482904210610e0a5760405162461bcd60e51b815260040161092690612b57565b600081815260086020526040902060010154610e385760405162461bcd60e51b815260040161092690612bf1565b8180610e565760405162461bcd60e51b815260040161092690612b8e565b600084815260086020526040908190206003810185905590517f13067d803552eac6ffd9ed0180e377884374b0ee53d2efa798e1c6d6974db44190610e9e9087908790612d40565b60405180910390a15050505050565b60008181526008602052604081206002015442108015610edd575060008281526008602052604090206001015415155b15610eea57506001919050565b506000919050565b919050565b600082610d4a83670de0b6b3a7640000612d86565b610f15336120a0565b610f315760405162461bcd60e51b815260040161092690612ccd565b610f49600080516020612e7583398151915233610cb7565b565b610f5433612094565b610f705760405162461bcd60e51b815260040161092690612b0f565b610f88600080516020612e3583398151915282610c95565b50565b610f94336120a0565b610fb05760405162461bcd60e51b815260040161092690612ccd565b428111610ff05760405162461bcd60e51b815260206004820152600e60248201526d7061737420636c6f736554696d6560901b6044820152606401610926565b60008281526008602052604090206003015461101e5760405162461bcd60e51b815260040161092690612ca3565b600082815260086020526040908190206002810183905590517fc3daa84eedfacd6851bbf80d00ce11271bf926ac96c3d361c0307023c939d4b3906110669085908590612d40565b60405180910390a1505050565b61107c33610c7b565b8061108b575061108b33612094565b6110a75760405162461bcd60e51b815260040161092690612a9b565b6001600160a01b0381166110cd5760405162461bcd60e51b815260040161092690612add565b336001600160a01b03821614156110f65760405162461bcd60e51b815260040161092690612bc1565b61110e600080516020612e3583398151915282610c95565b610f88600080516020612e3583398151915233610cb7565b61112f336120a0565b61114b5760405162461bcd60e51b815260040161092690612ccd565b80806111695760405162461bcd60e51b815260040161092690612b8e565b60008381526008602052604090206001015482106111bf5760405162461bcd60e51b81526020600482015260136024820152726e6f7420656e6f75676820636170616369747960681b6044820152606401610926565b6000838152600860205260409020600301546111ed5760405162461bcd60e51b815260040161092690612ca3565b600083815260086020526040812060018101805491928592611210908490612da5565b90915550506040517f06bd35b7b1982d31e0bbbd1ff43126cded834cfa1465422c58945822697ea2b3906112479086908690612d40565b60405180910390a150505050565b61125e33612094565b61127a5760405162461bcd60e51b815260040161092690612b0f565b6001600160a01b0381166112a05760405162461bcd60e51b815260040161092690612add565b336001600160a01b03821614156112c95760405162461bcd60e51b815260040161092690612bc1565b6112d4600082610c95565b610f88600033610cb7565b60075460609081908190819081906000816001600160401b0381111561131557634e487b7160e01b600052604160045260246000fd5b60405190808252806020026020018201604052801561133e578160200160208202803683370190505b5090506000826001600160401b0381111561136957634e487b7160e01b600052604160045260246000fd5b604051908082528060200260200182016040528015611392578160200160208202803683370190505b5090506000836001600160401b038111156113bd57634e487b7160e01b600052604160045260246000fd5b6040519080825280602002602001820160405280156113e6578160200160208202803683370190505b5090506000846001600160401b0381111561141157634e487b7160e01b600052604160045260246000fd5b60405190808252806020026020018201604052801561143a578160200160208202803683370190505b5090506000856001600160401b0381111561146557634e487b7160e01b600052604160045260246000fd5b60405190808252806020026020018201604052801561148e578160200160208202803683370190505b50905060005b868110156116d457600781815481106114bd57634e487b7160e01b600052603260045260246000fd5b90600052602060002001548682815181106114e857634e487b7160e01b600052603260045260246000fd5b6020026020010181815250506008600087838151811061151857634e487b7160e01b600052603260045260246000fd5b6020026020010151815260200190815260200160002060000160009054906101000a90046001600160a01b031685828151811061156557634e487b7160e01b600052603260045260246000fd5b60200260200101906001600160a01b031690816001600160a01b031681525050600860008783815181106115a957634e487b7160e01b600052603260045260246000fd5b60200260200101518152602001908152602001600020600101548482815181106115e357634e487b7160e01b600052603260045260246000fd5b6020026020010181815250506008600087838151811061161357634e487b7160e01b600052603260045260246000fd5b602002602001015181526020019081526020016000206002015483828151811061164d57634e487b7160e01b600052603260045260246000fd5b6020026020010181815250506008600087838151811061167d57634e487b7160e01b600052603260045260246000fd5b60200260200101518152602001908152602001600020600401548282815181106116b757634e487b7160e01b600052603260045260246000fd5b6020908102919091010152806116cc81612e03565b915050611494565b50939a9299509097509550909350915050565b60009182526009602090815260408084206001600160a01b0393909316845291905290205460ff1690565b61171b33612094565b6117375760405162461bcd60e51b815260040161092690612b0f565b610f886000826125ab565b61174b33610c7b565b8061175a575061175a33612094565b6117765760405162461bcd60e51b815260040161092690612a9b565b610f49600080516020612e3583398151915233610cb7565b611797336120a0565b6117b35760405162461bcd60e51b815260040161092690612ccd565b80806117d15760405162461bcd60e51b815260040161092690612b8e565b6000838152600860205260409020600301546117ff5760405162461bcd60e51b815260040161092690612ca3565b600083815260086020526040812060018101805491928592611822908490612d4e565b90915550506040517fd99cf430ca9e36159c97837a2f291cfe564dfa5ca2a4f48ea0d20a3ceb718d55906112479086908690612d40565b611862336120a0565b61187e5760405162461bcd60e51b815260040161092690612ccd565b600082815260086020526040902060020154829042106118b05760405162461bcd60e51b815260040161092690612b57565b6000818152600860205260409020600101546118de5760405162461bcd60e51b815260040161092690612bf1565b81806118fc5760405162461bcd60e51b815260040161092690612b8e565b600084815260086020526040908190206004810185905590517f8d41eafd4a0911818359bda81daed68115ba0312f42a7098075150da886cd0a490610e9e9087908790612d40565b61194d33612094565b6119695760405162461bcd60e51b815260040161092690612b0f565b610f88600080516020612e7583398151915282610c95565b61198a33612094565b6119a65760405162461bcd60e51b815260040161092690612b0f565b610f49600033610cb7565b6119ba82610c66565b6119c4813361245a565b610cb28383612544565b60006119d9336120a0565b6119f55760405162461bcd60e51b815260040161092690612ccd565b813580611a145760405162461bcd60e51b815260040161092690612b8e565b604083013580611a365760405162461bcd60e51b815260040161092690612b8e565b606084013580611a585760405162461bcd60e51b815260040161092690612b8e565b68056bc75e2d6310000085351015611ab25760405162461bcd60e51b815260206004820152601e60248201527f6e6565642074686520746f74616c53616c65416d6f756e74203e2031303000006044820152606401610926565b600160009054906101000a90046001600160a01b03166001600160a01b03166330e06e8b6040518163ffffffff1660e01b8152600401602060405180830381600087803b158015611b0257600080fd5b505af1158015611b16573d6000803e3d6000fd5b505050506040513d601f19601f82011682018060405250810190611b3a919061286a565b60008181526008602052604090206002015490945015611b985760405162461bcd60e51b8152602060048201526019602482015278185b1c9958591e481c9959da5cdd195c9959081b585c9ad95d603a1b6044820152606401610926565b42602086013511611be45760405162461bcd60e51b8152602060048201526016602482015275195b9914d85b19551a5b59481a185cc81c185cdcd95960521b6044820152606401610926565b6040805160a0810182526001600160a01b0388168152863560208201529081018660016020020135815260200186600360048110611c3257634e487b7160e01b600052603260045260246000fd5b6020020135815260200186600260048110611c5d57634e487b7160e01b600052603260045260246000fd5b602090810291909101359091526000868152600882526040808220845181546001600160a01b0319166001600160a01b03918216178255938501516001808301919091559185015160028201556060850151600382015560809094015160049094019390935560078054938401815590527fa66cc928b5edb82af9bd49922954155ab7b0942694bea4ce44661d9a8736c688909101859055861615611d5f57600254604051639ea6498560e01b81526001600160a01b0390911690639ea6498590611d2c908990600401612977565b600060405180830381600087803b158015611d4657600080fd5b505af1158015611d5a573d6000803e3d6000fd5b505050505b7f9743ac71f9a2bcf57afd56006eb7c6027c94927d2d01c874438472819d40f5c5848787604051611d9293929190612d16565b60405180910390a150505092915050565b611dac336120a0565b611dc85760405162461bcd60e51b815260040161092690612ccd565b6001600160a01b038116611dee5760405162461bcd60e51b815260040161092690612add565b336001600160a01b0382161415611e175760405162461bcd60e51b815260040161092690612bc1565b611e2f600080516020612e7583398151915282610c95565b610f88600080516020612e7583398151915233610cb7565b60008381526008602052604081206002015484904210611e795760405162461bcd60e51b815260040161092690612b57565b600081815260086020526040902060010154611ea75760405162461bcd60e51b815260040161092690612bf1565b60008581526008602052604090205485906001600160a01b0316158015611ede575060008181526008602052604090206002015415155b611efa5760405162461bcd60e51b815260040161092690612c6c565b8480611f185760405162461bcd60e51b815260040161092690612b8e565b8480611f365760405162461bcd60e51b815260040161092690612b8e565b863414611f555760405162461bcd60e51b815260040161092690612c28565b6000611f6233898b6120ba565b60015460405163980b109760e01b81529298509092508a916000916001600160a01b03169063980b109790611fa39033908c9087908f908a9060040161298b565b602060405180830381600087803b158015611fbd57600080fd5b505af1158015611fd1573d6000803e3d6000fd5b505050506040513d601f19601f82011682018060405250810190611ff5919061286a565b6002546040519192506001600160a01b0316903480156108fc02916000818181858888f1935050505015801561202f573d6000803e3d6000fd5b506040805133815260208101849052908101829052606081018b9052608081018a905260a081018990527fd04d64d5a1460d8c5a8c5ffb4d6ddb0f4e5cf774c894a27c5bb73c4fc41698809060c00160405180910390a1505050505050509392505050565b60006108fb81836116e7565b60006108fb600080516020612e75833981519152836116e7565b600080600260065414156121105760405162461bcd60e51b815260206004820152601f60248201527f5265656e7472616e637947756172643a207265656e7472616e742063616c6c006044820152606401610926565b50600260065560008281526008602052604090206004810154600382015490919061213c908390610ef7565b8511156121865760405162461bcd60e51b81526020600482015260186024820152774465706f7369746f7279203a206f766572206d617850617960401b6044820152606401610926565b6121908286610d35565b9250600083116121d85760405162461bcd60e51b81526020600482015260136024820152721e995c9bc81cdd185ada5b99c8185b5bdd5b9d606a1b6044820152606401610926565b6000670de0b6b3a7640000600260009054906101000a90046001600160a01b03166001600160a01b03166396f0bd616040518163ffffffff1660e01b815260040160206040518083038186803b15801561223157600080fd5b505afa158015612245573d6000803e3d6000fd5b505050506040513d601f19601f82011682018060405250810190612269919061286a565b6122739088612d86565b61227d9190612d66565b9050838110156122e35760405162461bcd60e51b815260206004820152602b60248201527f6d696e7461626c65416d6f756e74206973206c657373207468616e207374616b60448201526a34b7339030b6b7bab73a1760a91b6064820152608401610926565b816001015484111561232e5760405162461bcd60e51b815260206004820152601460248201527311195c1bdcda5d1bdc9e4e881cdbdb19081bdd5d60621b6044820152606401610926565b838260010160008282546123429190612da5565b9091555050600182015468056bc75e2d63100000106123845760006001830155604051858152600080516020612e558339815191529060200160405180910390a15b6002546040516340def7f760e01b815260048101839052600160248201526001600160a01b03909116906340def7f790604401600060405180830381600087803b1580156123d157600080fd5b505af11580156123e5573d6000803e3d6000fd5b5050604080516001600160a01b038b16815260208101899052908101899052606081018790526001608082015260a081018490527fef81711614d4ac7faee84826311bec7d949a272a2e7e4f39f3a3b72527767d69925060c001905060405180910390a1505060016006559094909350915050565b61246482826116e7565b610d315761247c816001600160a01b031660146125b5565b6124878360206125b5565b604051602001612498929190612908565b60408051601f198184030181529082905262461bcd60e51b825261092691600401612a68565b6124c882826116e7565b610d315760008281526009602090815260408083206001600160a01b03851684529091529020805460ff191660011790556125003390565b6001600160a01b0316816001600160a01b0316837f2f8788117e7eff1d82e926ec794901d17c78024a50270940304540a733656f0d60405160405180910390a45050565b61254e82826116e7565b15610d315760008281526009602090815260408083206001600160a01b0385168085529252808320805460ff1916905551339285917ff6391f5c32d9c69d2a47ea670b442974b53935d1edc7fd64eb21e047a839171b9190a45050565b610d3182826124be565b606060006125c4836002612d86565b6125cf906002612d4e565b6001600160401b038111156125f457634e487b7160e01b600052604160045260246000fd5b6040519080825280601f01601f19166020018201604052801561261e576020820181803683370190505b509050600360fc1b8160008151811061264757634e487b7160e01b600052603260045260246000fd5b60200101906001600160f81b031916908160001a905350600f60fb1b8160018151811061268457634e487b7160e01b600052603260045260246000fd5b60200101906001600160f81b031916908160001a90535060006126a8846002612d86565b6126b3906001612d4e565b90505b6001811115612747576f181899199a1a9b1b9c1cb0b131b232b360811b85600f16601081106126f557634e487b7160e01b600052603260045260246000fd5b1a60f81b82828151811061271957634e487b7160e01b600052603260045260246000fd5b60200101906001600160f81b031916908160001a90535060049490941c9361274081612dec565b90506126b6565b508315610d545760405162461bcd60e51b815260206004820181905260248201527f537472696e67733a20686578206c656e67746820696e73756666696369656e746044820152606401610926565b80356001600160a01b0381168114610ef257600080fd5b6000602082840312156127be578081fd5b610d5482612796565b60008060a083850312156127d9578081fd5b6127e283612796565b91508360a0840111156127f3578081fd5b50926020919091019150565b600060208284031215612810578081fd5b5035919050565b60008060408385031215612829578182fd5b8235915061283960208401612796565b90509250929050565b600060208284031215612853578081fd5b81356001600160e01b031981168114610d54578182fd5b60006020828403121561287b578081fd5b5051919050565b60008060408385031215612894578182fd5b50508035926020909101359150565b6000806000606084860312156128b7578081fd5b505081359360208301359350604090920135919050565b6000815180845260208085019450808401835b838110156128fd578151875295820195908201906001016128e1565b509495945050505050565b76020b1b1b2b9b9a1b7b73a3937b61d1030b1b1b7bab73a1604d1b81526000835161293a816017850160208801612dbc565b7001034b99036b4b9b9b4b733903937b6329607d1b601791840191820152835161296b816028840160208801612dbc565b01602801949350505050565b6001600160a01b0391909116815260200190565b6001600160a01b03959095168552602085019390935260408401919091526060830152608082015260a00190565b602081526000610d5460208301846128ce565b60a0815260006129df60a08301886128ce565b828103602084810191909152875180835288820192820190845b81811015612a1e5784516001600160a01b0316835293830193918301916001016129f9565b50508481036040860152612a3281896128ce565b925050508281036060840152612a4881866128ce565b90508281036080840152612a5c81856128ce565b98975050505050505050565b6020815260008251806020840152612a87816040850160208701612dbc565b601f01601f19169190910160400192915050565b60208082526022908201527f41636365737369626c653a2043616c6c6572206973206e6f7420616e2061646d60408201526134b760f11b606082015260800190565b60208082526018908201527741636365737369626c653a207a65726f206164647265737360401b604082015260600190565b60208082526028908201527f41636365737369626c653a2043616c6c6572206973206e6f7420616e2070726f6040820152673c3c9030b236b4b760c11b606082015260800190565b6020808252601d908201527f426f6e644465706f7369746f72793a20636c6f736564206d61726b6574000000604082015260600190565b602080825260199082015278109bdb9911195c1bdcda5d1bdc9e4e881e995c9bc81d5a5b9d603a1b604082015260600190565b60208082526016908201527520b1b1b2b9b9b4b136329d1039b0b6b29030b236b4b760511b604082015260600190565b6020808252601d908201527f426f6e644465706f7369746f72793a207a65726f206361706163697479000000604082015260600190565b60208082526024908201527f4465706f7369746f72793a2045544820616d6f756e747320646f206e6f74206d6040820152630c2e8c6d60e31b606082015260800190565b6020808252601e908201527f426f6e644465706f7369746f72793a206e6f7420455448206d61726b65740000604082015260600190565b60208082526010908201526f1b9bdb8b595e1a5cdd081b585c9ad95d60821b604082015260600190565b60208082526029908201527f41636365737369626c653a2043616c6c6572206973206e6f7420616e20706f6c60408201526834b1bc9030b236b4b760b91b606082015260800190565b8381526001600160a01b038316602082015260c08101608083604084013760008152949350505050565b918252602082015260400190565b60008219821115612d6157612d61612e1e565b500190565b600082612d8157634e487b7160e01b81526012600452602481fd5b500490565b6000816000190483118215151615612da057612da0612e1e565b500290565b600082821015612db757612db7612e1e565b500390565b60005b83811015612dd7578181015183820152602001612dbf565b83811115612de6576000848401525b50505050565b600081612dfb57612dfb612e1e565b506000190190565b6000600019821415612e1757612e17612e1e565b5060010190565b634e487b7160e01b600052601160045260246000fdfe52eafc11f6f81f86878bffd31109a0d92f37506527754f00788853ff9f63b130065f36f0cc9a946e058a78fcf529ed8629c0ad3f6d065007c3c9162fd2c39d63fb5864e8ff833c3cb2d2d08505e82ff02a43554c74a35d4f5a64e85261278311a26469706673582212201a42cc1423c404d36fd383b21205bde927562a432d5c4bef39b0dc4a5c3ea65e64736f6c63430008040033",
  "linkReferences": {},
  "deployedLinkReferences": {}
}