{
  "_format": "hh-sol-artifact-1",
  "contractName": "BondDepository",
  "sourceName": "contracts/BondDepository.sol",
  "abi": [
    {
      "inputs": [],
      "stateMutability": "nonpayable",
      "type": "constructor"
    },
    {
      "anonymous": false,
      "inputs": [
        {
          "indexed": false,
          "internalType": "uint256",
          "name": "_marketId",
          "type": "uint256"
        },
        {
          "indexed": false,
          "internalType": "uint256",
          "name": "closeTime",
          "type": "uint256"
        }
      ],
      "name": "ChangedCloseTime",
      "type": "event"
    },
    {
      "anonymous": false,
      "inputs": [
        {
          "indexed": false,
          "internalType": "uint256",
          "name": "_marketId",
          "type": "uint256"
        },
        {
          "indexed": false,
          "internalType": "uint256",
          "name": "_amount",
          "type": "uint256"
        }
      ],
      "name": "ChangedMaxPayout",
      "type": "event"
    },
    {
      "anonymous": false,
      "inputs": [
        {
          "indexed": false,
          "internalType": "uint256",
          "name": "_marketId",
          "type": "uint256"
        },
        {
          "indexed": false,
          "internalType": "uint256",
          "name": "_tokenPrice",
          "type": "uint256"
        },
        {
          "indexed": false,
          "internalType": "uint256",
          "name": "_tosPrice",
          "type": "uint256"
        }
      ],
      "name": "ChangedPrice",
      "type": "event"
    },
    {
      "anonymous": false,
      "inputs": [
        {
          "indexed": false,
          "internalType": "uint256",
          "name": "marketId",
          "type": "uint256"
        }
      ],
      "name": "ClosedMarket",
      "type": "event"
    },
    {
      "anonymous": false,
      "inputs": [
        {
          "indexed": false,
          "internalType": "uint256",
          "name": "marketId",
          "type": "uint256"
        },
        {
          "indexed": false,
          "internalType": "bool",
          "name": "isEth",
          "type": "bool"
        },
        {
          "indexed": false,
          "internalType": "address",
          "name": "token",
          "type": "address"
        },
        {
          "indexed": false,
          "internalType": "address",
          "name": "pool",
          "type": "address"
        },
        {
          "indexed": false,
          "internalType": "uint24",
          "name": "fee",
          "type": "uint24"
        },
        {
          "indexed": false,
          "internalType": "uint256[5]",
          "name": "market",
          "type": "uint256[5]"
        }
      ],
      "name": "CreatedMarket",
      "type": "event"
    },
    {
      "anonymous": false,
      "inputs": [
        {
          "indexed": false,
          "internalType": "uint256",
          "name": "_marketId",
          "type": "uint256"
        },
        {
          "indexed": false,
          "internalType": "uint256",
          "name": "_amount",
          "type": "uint256"
        }
      ],
      "name": "DecreasedCapacity",
      "type": "event"
    },
    {
      "anonymous": false,
      "inputs": [
        {
          "indexed": false,
          "internalType": "address",
          "name": "user",
          "type": "address"
        },
        {
          "indexed": false,
          "internalType": "uint256",
          "name": "marketId",
          "type": "uint256"
        },
        {
          "indexed": false,
          "internalType": "uint256",
          "name": "amount",
          "type": "uint256"
        },
        {
          "indexed": false,
          "internalType": "uint256",
          "name": "payout",
          "type": "uint256"
        },
        {
          "indexed": false,
          "internalType": "bool",
          "name": "isEth",
          "type": "bool"
        },
        {
          "indexed": false,
          "internalType": "uint256",
          "name": "mintAmount",
          "type": "uint256"
        }
      ],
      "name": "Deposited",
      "type": "event"
    },
    {
      "anonymous": false,
      "inputs": [
        {
          "indexed": false,
          "internalType": "address",
          "name": "user",
          "type": "address"
        },
        {
          "indexed": false,
          "internalType": "uint256",
          "name": "marketId",
          "type": "uint256"
        },
        {
          "indexed": false,
          "internalType": "uint256",
          "name": "stakeId",
          "type": "uint256"
        },
        {
          "indexed": false,
          "internalType": "address",
          "name": "token",
          "type": "address"
        },
        {
          "indexed": false,
          "internalType": "uint256",
          "name": "amount",
          "type": "uint256"
        },
        {
          "indexed": false,
          "internalType": "uint256",
          "name": "tosValuation",
          "type": "uint256"
        }
      ],
      "name": "ERC20Deposited",
      "type": "event"
    },
    {
      "anonymous": false,
      "inputs": [
        {
          "indexed": false,
          "internalType": "address",
          "name": "user",
          "type": "address"
        },
        {
          "indexed": false,
          "internalType": "uint256",
          "name": "marketId",
          "type": "uint256"
        },
        {
          "indexed": false,
          "internalType": "uint256",
          "name": "stakeId",
          "type": "uint256"
        },
        {
          "indexed": false,
          "internalType": "address",
          "name": "token",
          "type": "address"
        },
        {
          "indexed": false,
          "internalType": "uint256",
          "name": "amount",
          "type": "uint256"
        },
        {
          "indexed": false,
          "internalType": "uint256",
          "name": "lockWeeks",
          "type": "uint256"
        },
        {
          "indexed": false,
          "internalType": "uint256",
          "name": "tosValuation",
          "type": "uint256"
        }
      ],
      "name": "ERC20DepositedWithSTOS",
      "type": "event"
    },
    {
      "anonymous": false,
      "inputs": [
        {
          "indexed": false,
          "internalType": "address",
          "name": "user",
          "type": "address"
        },
        {
          "indexed": false,
          "internalType": "uint256",
          "name": "marketId",
          "type": "uint256"
        },
        {
          "indexed": false,
          "internalType": "uint256",
          "name": "stakeId",
          "type": "uint256"
        },
        {
          "indexed": false,
          "internalType": "uint256",
          "name": "amount",
          "type": "uint256"
        },
        {
          "indexed": false,
          "internalType": "uint256",
          "name": "tosValuation",
          "type": "uint256"
        }
      ],
      "name": "ETHDeposited",
      "type": "event"
    },
    {
      "anonymous": false,
      "inputs": [
        {
          "indexed": false,
          "internalType": "address",
          "name": "user",
          "type": "address"
        },
        {
          "indexed": false,
          "internalType": "uint256",
          "name": "marketId",
          "type": "uint256"
        },
        {
          "indexed": false,
          "internalType": "uint256",
          "name": "stakeId",
          "type": "uint256"
        },
        {
          "indexed": false,
          "internalType": "uint256",
          "name": "amount",
          "type": "uint256"
        },
        {
          "indexed": false,
          "internalType": "uint256",
          "name": "lockWeeks",
          "type": "uint256"
        },
        {
          "indexed": false,
          "internalType": "uint256",
          "name": "tosValuation",
          "type": "uint256"
        }
      ],
      "name": "ETHDepositedWithSTOS",
      "type": "event"
    },
    {
      "anonymous": false,
      "inputs": [
        {
          "indexed": false,
          "internalType": "uint256",
          "name": "_marketId",
          "type": "uint256"
        },
        {
          "indexed": false,
          "internalType": "uint256",
          "name": "_amount",
          "type": "uint256"
        }
      ],
      "name": "IncreasedCapacity",
      "type": "event"
    },
    {
      "anonymous": false,
      "inputs": [
        {
          "indexed": true,
          "internalType": "bytes32",
          "name": "role",
          "type": "bytes32"
        },
        {
          "indexed": true,
          "internalType": "bytes32",
          "name": "previousAdminRole",
          "type": "bytes32"
        },
        {
          "indexed": true,
          "internalType": "bytes32",
          "name": "newAdminRole",
          "type": "bytes32"
        }
      ],
      "name": "RoleAdminChanged",
      "type": "event"
    },
    {
      "anonymous": false,
      "inputs": [
        {
          "indexed": true,
          "internalType": "bytes32",
          "name": "role",
          "type": "bytes32"
        },
        {
          "indexed": true,
          "internalType": "address",
          "name": "account",
          "type": "address"
        },
        {
          "indexed": true,
          "internalType": "address",
          "name": "sender",
          "type": "address"
        }
      ],
      "name": "RoleGranted",
      "type": "event"
    },
    {
      "anonymous": false,
      "inputs": [
        {
          "indexed": true,
          "internalType": "bytes32",
          "name": "role",
          "type": "bytes32"
        },
        {
          "indexed": true,
          "internalType": "address",
          "name": "account",
          "type": "address"
        },
        {
          "indexed": true,
          "internalType": "address",
          "name": "sender",
          "type": "address"
        }
      ],
      "name": "RoleRevoked",
      "type": "event"
    },
    {
      "inputs": [],
      "name": "ADMIN_ROLE",
      "outputs": [
        {
          "internalType": "bytes32",
          "name": "",
          "type": "bytes32"
        }
      ],
      "stateMutability": "view",
      "type": "function"
    },
    {
      "inputs": [],
      "name": "BURNER_ROLE",
      "outputs": [
        {
          "internalType": "bytes32",
          "name": "",
          "type": "bytes32"
        }
      ],
      "stateMutability": "view",
      "type": "function"
    },
    {
      "inputs": [],
      "name": "DEFAULT_ADMIN_ROLE",
      "outputs": [
        {
          "internalType": "bytes32",
          "name": "",
          "type": "bytes32"
        }
      ],
      "stateMutability": "view",
      "type": "function"
    },
    {
      "inputs": [
        {
          "internalType": "uint256",
          "name": "_id",
          "type": "uint256"
        },
        {
          "internalType": "uint256",
          "name": "_amount",
          "type": "uint256"
        }
      ],
      "name": "ERC20Deposit",
      "outputs": [
        {
          "internalType": "uint256",
          "name": "payout_",
          "type": "uint256"
        },
        {
          "internalType": "uint256",
          "name": "index_",
          "type": "uint256"
        }
      ],
      "stateMutability": "nonpayable",
      "type": "function"
    },
    {
      "inputs": [
        {
          "internalType": "uint256",
          "name": "_id",
          "type": "uint256"
        },
        {
          "internalType": "uint256",
          "name": "_amount",
          "type": "uint256"
        },
        {
          "internalType": "uint256",
          "name": "_lockWeeks",
          "type": "uint256"
        }
      ],
      "name": "ERC20DepositWithSTOS",
      "outputs": [
        {
          "internalType": "uint256",
          "name": "payout_",
          "type": "uint256"
        },
        {
          "internalType": "uint256",
          "name": "index_",
          "type": "uint256"
        }
      ],
      "stateMutability": "nonpayable",
      "type": "function"
    },
    {
      "inputs": [
        {
          "internalType": "uint256",
          "name": "_id",
          "type": "uint256"
        },
        {
          "internalType": "uint256",
          "name": "_amount",
          "type": "uint256"
        }
      ],
      "name": "ETHDeposit",
      "outputs": [
        {
          "internalType": "uint256",
          "name": "payout_",
          "type": "uint256"
        },
        {
          "internalType": "uint256",
          "name": "index_",
          "type": "uint256"
        }
      ],
      "stateMutability": "payable",
      "type": "function"
    },
    {
      "inputs": [
        {
          "internalType": "uint256",
          "name": "_id",
          "type": "uint256"
        },
        {
          "internalType": "uint256",
          "name": "_amount",
          "type": "uint256"
        },
        {
          "internalType": "uint256",
          "name": "_lockWeeks",
          "type": "uint256"
        }
      ],
      "name": "ETHDepositWithSTOS",
      "outputs": [
        {
          "internalType": "uint256",
          "name": "payout_",
          "type": "uint256"
        },
        {
          "internalType": "uint256",
          "name": "index_",
          "type": "uint256"
        }
      ],
      "stateMutability": "payable",
      "type": "function"
    },
    {
      "inputs": [],
      "name": "MINTER_ROLE",
      "outputs": [
        {
          "internalType": "bytes32",
          "name": "",
          "type": "bytes32"
        }
      ],
      "stateMutability": "view",
      "type": "function"
    },
    {
      "inputs": [],
      "name": "POLICY_ROLE",
      "outputs": [
        {
          "internalType": "bytes32",
          "name": "",
          "type": "bytes32"
        }
      ],
      "stateMutability": "view",
      "type": "function"
    },
    {
      "inputs": [],
      "name": "PROJECT_ADMIN_ROLE",
      "outputs": [
        {
          "internalType": "bytes32",
          "name": "",
          "type": "bytes32"
        }
      ],
      "stateMutability": "view",
      "type": "function"
    },
    {
      "inputs": [
        {
          "internalType": "address",
          "name": "account",
          "type": "address"
        }
      ],
      "name": "addAdmin",
      "outputs": [],
      "stateMutability": "nonpayable",
      "type": "function"
    },
    {
      "inputs": [
        {
          "internalType": "address",
          "name": "_account",
          "type": "address"
        }
      ],
      "name": "addPolicy",
      "outputs": [],
      "stateMutability": "nonpayable",
      "type": "function"
    },
    {
      "inputs": [
        {
          "internalType": "address",
          "name": "_owner",
          "type": "address"
        }
      ],
      "name": "addProxyAdmin",
      "outputs": [],
      "stateMutability": "nonpayable",
      "type": "function"
    },
    {
      "inputs": [
        {
          "internalType": "uint256",
          "name": "_id",
          "type": "uint256"
        },
        {
          "internalType": "uint256",
          "name": "_amount",
          "type": "uint256"
        }
      ],
      "name": "calculateTosAmountForAsset",
      "outputs": [
        {
          "internalType": "uint256",
          "name": "payout",
          "type": "uint256"
        }
      ],
      "stateMutability": "view",
      "type": "function"
    },
    {
      "inputs": [],
      "name": "calculator",
      "outputs": [
        {
          "internalType": "address",
          "name": "",
          "type": "address"
        }
      ],
      "stateMutability": "view",
      "type": "function"
    },
    {
      "inputs": [
        {
          "internalType": "uint256",
          "name": "_marketId",
          "type": "uint256"
        },
        {
          "internalType": "uint256",
          "name": "closeTime",
          "type": "uint256"
        }
      ],
      "name": "changeCloseTime",
      "outputs": [],
      "stateMutability": "nonpayable",
      "type": "function"
    },
    {
      "inputs": [
        {
          "internalType": "uint256",
          "name": "_marketId",
          "type": "uint256"
        },
        {
          "internalType": "uint256",
          "name": "_amount",
          "type": "uint256"
        }
      ],
      "name": "changeMaxPayout",
      "outputs": [],
      "stateMutability": "nonpayable",
      "type": "function"
    },
    {
      "inputs": [
        {
          "internalType": "uint256",
          "name": "_marketId",
          "type": "uint256"
        },
        {
          "internalType": "uint256",
          "name": "_tokenPrice",
          "type": "uint256"
        },
        {
          "internalType": "uint256",
          "name": "_tosPrice",
          "type": "uint256"
        }
      ],
      "name": "changePrice",
      "outputs": [],
      "stateMutability": "nonpayable",
      "type": "function"
    },
    {
      "inputs": [
        {
          "internalType": "uint256",
          "name": "_id",
          "type": "uint256"
        }
      ],
      "name": "close",
      "outputs": [],
      "stateMutability": "nonpayable",
      "type": "function"
    },
    {
      "inputs": [
        {
          "internalType": "bool",
          "name": "_check",
          "type": "bool"
        },
        {
          "internalType": "address",
          "name": "_token",
          "type": "address"
        },
        {
          "internalType": "address",
          "name": "_poolAddress",
          "type": "address"
        },
        {
          "internalType": "uint24",
          "name": "_fee",
          "type": "uint24"
        },
        {
          "internalType": "uint256[5]",
          "name": "_market",
          "type": "uint256[5]"
        }
      ],
      "name": "create",
      "outputs": [
        {
          "internalType": "uint256",
          "name": "id_",
          "type": "uint256"
        }
      ],
      "stateMutability": "nonpayable",
      "type": "function"
    },
    {
      "inputs": [],
      "name": "dTOS",
      "outputs": [
        {
          "internalType": "address",
          "name": "",
          "type": "address"
        }
      ],
      "stateMutability": "view",
      "type": "function"
    },
    {
      "inputs": [
        {
          "internalType": "uint256",
          "name": "_marketId",
          "type": "uint256"
        },
        {
          "internalType": "uint256",
          "name": "_amount",
          "type": "uint256"
        }
      ],
      "name": "decreaseCapacity",
      "outputs": [],
      "stateMutability": "nonpayable",
      "type": "function"
    },
    {
      "inputs": [
        {
          "internalType": "address",
          "name": "",
          "type": "address"
        },
        {
          "internalType": "uint256",
          "name": "",
          "type": "uint256"
        }
      ],
      "name": "deposits",
      "outputs": [
        {
          "internalType": "uint256",
          "name": "marketId",
          "type": "uint256"
        },
        {
          "internalType": "uint256",
          "name": "stakeId",
          "type": "uint256"
        }
      ],
      "stateMutability": "view",
      "type": "function"
    },
    {
      "inputs": [],
      "name": "getBonds",
      "outputs": [
        {
          "internalType": "uint256[]",
          "name": "",
          "type": "uint256[]"
        },
        {
          "internalType": "address[]",
          "name": "",
          "type": "address[]"
        },
        {
          "internalType": "uint256[]",
          "name": "",
          "type": "uint256[]"
        },
        {
          "internalType": "uint256[]",
          "name": "",
          "type": "uint256[]"
        },
        {
          "internalType": "uint256[]",
          "name": "",
          "type": "uint256[]"
        },
        {
          "internalType": "uint256[]",
          "name": "",
          "type": "uint256[]"
        },
        {
          "internalType": "uint256[]",
          "name": "",
          "type": "uint256[]"
        }
      ],
      "stateMutability": "view",
      "type": "function"
    },
    {
      "inputs": [
        {
          "internalType": "address",
          "name": "account",
          "type": "address"
        }
      ],
      "name": "getDepositList",
      "outputs": [
        {
          "internalType": "uint256[]",
          "name": "_marketIds",
          "type": "uint256[]"
        },
        {
          "internalType": "uint256[]",
          "name": "_stakeIds",
          "type": "uint256[]"
        }
      ],
      "stateMutability": "view",
      "type": "function"
    },
    {
      "inputs": [],
      "name": "getMarketList",
      "outputs": [
        {
          "internalType": "uint256[]",
          "name": "",
          "type": "uint256[]"
        }
      ],
      "stateMutability": "view",
      "type": "function"
    },
    {
      "inputs": [],
      "name": "getMetadataList",
      "outputs": [
        {
          "internalType": "uint256[]",
          "name": "",
          "type": "uint256[]"
        }
      ],
      "stateMutability": "view",
      "type": "function"
    },
    {
      "inputs": [
        {
          "internalType": "bytes32",
          "name": "role",
          "type": "bytes32"
        }
      ],
      "name": "getRoleAdmin",
      "outputs": [
        {
          "internalType": "bytes32",
          "name": "",
          "type": "bytes32"
        }
      ],
      "stateMutability": "view",
      "type": "function"
    },
    {
      "inputs": [
        {
          "internalType": "bytes32",
          "name": "role",
          "type": "bytes32"
        },
        {
          "internalType": "address",
          "name": "account",
          "type": "address"
        }
      ],
      "name": "grantRole",
      "outputs": [],
      "stateMutability": "nonpayable",
      "type": "function"
    },
    {
      "inputs": [
        {
          "internalType": "bytes32",
          "name": "role",
          "type": "bytes32"
        },
        {
          "internalType": "address",
          "name": "account",
          "type": "address"
        }
      ],
      "name": "hasRole",
      "outputs": [
        {
          "internalType": "bool",
          "name": "",
          "type": "bool"
        }
      ],
      "stateMutability": "view",
      "type": "function"
    },
    {
      "inputs": [
        {
          "internalType": "uint256",
          "name": "_marketId",
          "type": "uint256"
        },
        {
          "internalType": "uint256",
          "name": "_amount",
          "type": "uint256"
        }
      ],
      "name": "increaseCapacity",
      "outputs": [],
      "stateMutability": "nonpayable",
      "type": "function"
    },
    {
      "inputs": [
        {
          "internalType": "address",
          "name": "account",
          "type": "address"
        }
      ],
      "name": "isAdmin",
      "outputs": [
        {
          "internalType": "bool",
          "name": "",
          "type": "bool"
        }
      ],
      "stateMutability": "view",
      "type": "function"
    },
    {
      "inputs": [
        {
          "internalType": "uint256",
          "name": "_index",
          "type": "uint256"
        }
      ],
      "name": "isOpend",
      "outputs": [
        {
          "internalType": "bool",
          "name": "closedBool",
          "type": "bool"
        }
      ],
      "stateMutability": "view",
      "type": "function"
    },
    {
      "inputs": [
        {
          "internalType": "address",
          "name": "account",
          "type": "address"
        }
      ],
      "name": "isPolicy",
      "outputs": [
        {
          "internalType": "bool",
          "name": "",
          "type": "bool"
        }
      ],
      "stateMutability": "view",
      "type": "function"
    },
    {
      "inputs": [
        {
          "internalType": "address",
          "name": "account",
          "type": "address"
        }
      ],
      "name": "isProxyAdmin",
      "outputs": [
        {
          "internalType": "bool",
          "name": "",
          "type": "bool"
        }
      ],
      "stateMutability": "view",
      "type": "function"
    },
    {
      "inputs": [
        {
          "internalType": "uint256",
          "name": "",
          "type": "uint256"
        }
      ],
      "name": "marketList",
      "outputs": [
        {
          "internalType": "uint256",
          "name": "",
          "type": "uint256"
        }
      ],
      "stateMutability": "view",
      "type": "function"
    },
    {
      "inputs": [
        {
          "internalType": "uint256",
          "name": "",
          "type": "uint256"
        }
      ],
      "name": "markets",
      "outputs": [
        {
          "internalType": "bool",
          "name": "method",
          "type": "bool"
        },
        {
          "internalType": "address",
          "name": "quoteToken",
          "type": "address"
        },
        {
          "internalType": "uint256",
          "name": "capacity",
          "type": "uint256"
        },
        {
          "internalType": "uint256",
          "name": "endSaleTime",
          "type": "uint256"
        },
        {
          "internalType": "uint256",
          "name": "sold",
          "type": "uint256"
        },
        {
          "internalType": "uint256",
          "name": "maxPayout",
          "type": "uint256"
        }
      ],
      "stateMutability": "view",
      "type": "function"
    },
    {
      "inputs": [
        {
          "internalType": "uint256",
          "name": "",
          "type": "uint256"
        }
      ],
      "name": "metadata",
      "outputs": [
        {
          "internalType": "address",
          "name": "poolAddress",
          "type": "address"
        },
        {
          "internalType": "uint256",
          "name": "tokenPrice",
          "type": "uint256"
        },
        {
          "internalType": "uint256",
          "name": "tosPrice",
          "type": "uint256"
        },
        {
          "internalType": "uint256",
          "name": "totalSaleAmount",
          "type": "uint256"
        },
        {
          "internalType": "uint24",
          "name": "fee",
          "type": "uint24"
        },
        {
          "internalType": "bool",
          "name": "ethMarket",
          "type": "bool"
        }
      ],
      "stateMutability": "view",
      "type": "function"
    },
    {
      "inputs": [
        {
          "internalType": "uint256",
          "name": "",
          "type": "uint256"
        }
      ],
      "name": "metadataList",
      "outputs": [
        {
          "internalType": "uint256",
          "name": "",
          "type": "uint256"
        }
      ],
      "stateMutability": "view",
      "type": "function"
    },
    {
      "inputs": [
        {
          "internalType": "uint256",
          "name": "_id",
          "type": "uint256"
        }
      ],
      "name": "purchasableAseetAmountAtOneTime",
      "outputs": [
        {
          "internalType": "uint256",
          "name": "maxpayout_",
          "type": "uint256"
        }
      ],
      "stateMutability": "view",
      "type": "function"
    },
    {
      "inputs": [],
      "name": "removeAdmin",
      "outputs": [],
      "stateMutability": "nonpayable",
      "type": "function"
    },
    {
      "inputs": [],
      "name": "removePolicy",
      "outputs": [],
      "stateMutability": "nonpayable",
      "type": "function"
    },
    {
      "inputs": [],
      "name": "removeProxyAdmin",
      "outputs": [],
      "stateMutability": "nonpayable",
      "type": "function"
    },
    {
      "inputs": [
        {
          "internalType": "bytes32",
          "name": "role",
          "type": "bytes32"
        },
        {
          "internalType": "address",
          "name": "account",
          "type": "address"
        }
      ],
      "name": "renounceRole",
      "outputs": [],
      "stateMutability": "nonpayable",
      "type": "function"
    },
    {
      "inputs": [
        {
          "internalType": "bytes32",
          "name": "role",
          "type": "bytes32"
        },
        {
          "internalType": "address",
          "name": "account",
          "type": "address"
        }
      ],
      "name": "revokeRole",
      "outputs": [],
      "stateMutability": "nonpayable",
      "type": "function"
    },
    {
      "inputs": [],
      "name": "staking",
      "outputs": [
        {
          "internalType": "contract IStaking",
          "name": "",
          "type": "address"
        }
      ],
      "stateMutability": "view",
      "type": "function"
    },
    {
      "inputs": [
        {
          "internalType": "bytes4",
          "name": "interfaceId",
          "type": "bytes4"
        }
      ],
      "name": "supportsInterface",
      "outputs": [
        {
          "internalType": "bool",
          "name": "",
          "type": "bool"
        }
      ],
      "stateMutability": "view",
      "type": "function"
    },
    {
      "inputs": [
        {
          "internalType": "address",
          "name": "pool",
          "type": "address"
        },
        {
          "internalType": "address",
          "name": "token0",
          "type": "address"
        }
      ],
      "name": "tokenInUniswapV3Pool",
      "outputs": [
        {
          "internalType": "bool",
          "name": "",
          "type": "bool"
        }
      ],
      "stateMutability": "view",
      "type": "function"
    },
    {
      "inputs": [],
      "name": "tos",
      "outputs": [
        {
          "internalType": "contract IERC20",
          "name": "",
          "type": "address"
        }
      ],
      "stateMutability": "view",
      "type": "function"
    },
    {
      "inputs": [],
      "name": "totalDepositCount",
      "outputs": [
        {
          "internalType": "uint256",
          "name": "",
          "type": "uint256"
        }
      ],
      "stateMutability": "view",
      "type": "function"
    },
    {
      "inputs": [
        {
          "internalType": "address",
          "name": "account",
          "type": "address"
        }
      ],
      "name": "totalDepositCountOfAddress",
      "outputs": [
        {
          "internalType": "uint256",
          "name": "",
          "type": "uint256"
        }
      ],
      "stateMutability": "view",
      "type": "function"
    },
    {
      "inputs": [],
      "name": "totalMarketCount",
      "outputs": [
        {
          "internalType": "uint256",
          "name": "",
          "type": "uint256"
        }
      ],
      "stateMutability": "view",
      "type": "function"
    },
    {
      "inputs": [],
      "name": "totalMetadataCount",
      "outputs": [
        {
          "internalType": "uint256",
          "name": "",
          "type": "uint256"
        }
      ],
      "stateMutability": "view",
      "type": "function"
    },
    {
      "inputs": [
        {
          "internalType": "address",
          "name": "newAdmin",
          "type": "address"
        }
      ],
      "name": "transferAdmin",
      "outputs": [],
      "stateMutability": "nonpayable",
      "type": "function"
    },
    {
      "inputs": [
        {
          "internalType": "address",
          "name": "newAdmin",
          "type": "address"
        }
      ],
      "name": "transferPolicyAdmin",
      "outputs": [],
      "stateMutability": "nonpayable",
      "type": "function"
    },
    {
      "inputs": [
        {
          "internalType": "address",
          "name": "newAdmin",
          "type": "address"
        }
      ],
      "name": "transferProxyAdmin",
      "outputs": [],
      "stateMutability": "nonpayable",
      "type": "function"
    },
    {
      "inputs": [],
      "name": "treasury",
      "outputs": [
        {
          "internalType": "address",
          "name": "",
          "type": "address"
        }
      ],
      "stateMutability": "view",
      "type": "function"
    },
    {
      "inputs": [],
      "name": "uniswapV3Factory",
      "outputs": [
        {
          "internalType": "address",
          "name": "",
          "type": "address"
        }
      ],
      "stateMutability": "view",
      "type": "function"
    },
    {
      "inputs": [
        {
          "internalType": "uint256",
          "name": "",
          "type": "uint256"
        }
      ],
      "name": "userList",
      "outputs": [
        {
          "internalType": "address",
          "name": "",
          "type": "address"
        }
      ],
      "stateMutability": "view",
      "type": "function"
    },
    {
      "inputs": [
        {
          "internalType": "address",
          "name": "account",
          "type": "address"
        },
        {
          "internalType": "uint256",
          "name": "_index",
          "type": "uint256"
        }
      ],
      "name": "viewDeposit",
      "outputs": [
        {
          "internalType": "uint256",
          "name": "marketId",
          "type": "uint256"
        },
        {
          "internalType": "uint256",
          "name": "stakeId",
          "type": "uint256"
        }
      ],
      "stateMutability": "view",
      "type": "function"
    },
    {
      "inputs": [
        {
          "internalType": "uint256",
          "name": "_index",
          "type": "uint256"
        }
      ],
      "name": "viewMarket",
      "outputs": [
        {
          "internalType": "bool",
          "name": "method",
          "type": "bool"
        },
        {
          "internalType": "address",
          "name": "quoteToken",
          "type": "address"
        },
        {
          "internalType": "uint256",
          "name": "capacity",
          "type": "uint256"
        },
        {
          "internalType": "uint256",
          "name": "endSaleTime",
          "type": "uint256"
        },
        {
          "internalType": "uint256",
          "name": "sold",
          "type": "uint256"
        },
        {
          "internalType": "uint256",
          "name": "maxPayout",
          "type": "uint256"
        }
      ],
      "stateMutability": "view",
      "type": "function"
    },
    {
      "inputs": [
        {
          "internalType": "uint256",
          "name": "_index",
          "type": "uint256"
        }
      ],
      "name": "viewMetadata",
      "outputs": [
        {
          "internalType": "address",
          "name": "poolAddress",
          "type": "address"
        },
        {
          "internalType": "uint256",
          "name": "_tokenPrice",
          "type": "uint256"
        },
        {
          "internalType": "uint256",
          "name": "_tosPrice",
          "type": "uint256"
        },
        {
          "internalType": "uint256",
          "name": "totalSaleAmount",
          "type": "uint256"
        },
        {
          "internalType": "uint24",
          "name": "fee",
          "type": "uint24"
        },
        {
          "internalType": "bool",
          "name": "ethMarket",
          "type": "bool"
        }
      ],
      "stateMutability": "view",
      "type": "function"
    }
  ],
  "bytecode": "0x608060405234801561001057600080fd5b50614b4f806100206000396000f3fe6080604052600436106102cd5760003560e01c80638356ca4f116101775780638356ca4f1461078257806387cb562c146107a257806389f395de146107c25780638b140f6b146107e25780638b7a23ba1461080a57806391d148541461081f57806396f1557c1461083f5780639a202d471461085f5780639c265cac146108745780639f4216e8146108aa578063a217fddf146108ca578063a4e29ebf146108df578063a79a48c2146108ff578063af0856dc1461091f578063b1283e771461093f578063b1667adf146109cf578063b2abb48714610a2b578063b84ef08114610a4b578063be72f2d314610a6b578063ce3e39c014610a80578063cfd1055c14610aa0578063d2e4910c14610ac0578063d539139314610aee578063d547741f14610b22578063d634386714610b42578063d6d6817714610b58578063e3684e3914610b78578063f1c8c92214610bde578063f29310c114610bfe578063f47f2f1d14610c11578063fad1c85c14610c3157600080fd5b806301ffc9a7146102d25780630675de8f146103075780630aebeb4e1461033557806312fcee8014610357578063229852461461036a578063232b956c1461039a578063248a9ca3146103ba57806324d7806c146103da578063282c51f3146103fa5780632f2ff15d1461042e57806336568abe1461044e5780633bb4f50b1461046e5780633fbd6b171461048e57806340d5a0ee146104ae57806340e2b4b81461055357806341c04d5e146105735780634c8df535146105955780634cf088d9146105aa57806355ac3601146105e25780635b549182146106045780635b9907a4146106245780635c4fbd5d146106395780635fabfedc1461065957806361d027b31461067957806365cb3a831461069957806370480275146106ae578063708d5c15146106ce57806375829def146106ee57806375b238fc1461070e57806380e723a31461074257806382c876dc14610762575b600080fd5b3480156102de57600080fd5b506102f26102ed3660046142a4565b610c51565b60405190151581526020015b60405180910390f35b34801561031357600080fd5b50610327610322366004614305565b610c88565b6040516102fe929190614919565b34801561034157600080fd5b50610355610350366004614268565b6110c9565b005b6103276103653660046142e4565b6111e3565b34801561037657600080fd5b5061038c600080516020614abd83398151915281565b6040519081526020016102fe565b3480156103a657600080fd5b5061038c6103b5366004614268565b61144b565b3480156103c657600080fd5b5061038c6103d5366004614268565b61146c565b3480156103e657600080fd5b506102f26103f5366004614091565b611481565b34801561040657600080fd5b5061038c7f9667e80708b6eeeb0053fa0cca44e028ff548e2a9f029edfeac87c118b08b7c881565b34801561043a57600080fd5b50610355610449366004614280565b61149b565b34801561045a57600080fd5b50610355610469366004614280565b6114bd565b34801561047a57600080fd5b5061038c6104893660046142e4565b61153b565b34801561049a57600080fd5b5061038c6104a9366004614148565b6115a7565b3480156104ba57600080fd5b506105156104c9366004614268565b6000908152600160208190526040909120805491810154600282015460038301546004909301546001600160a01b0390941694919390929162ffffff8216916301000000900460ff1690565b604080516001600160a01b039097168752602087019590955293850192909252606084015262ffffff166080830152151560a082015260c0016102fe565b34801561055f57600080fd5b5061035561056e366004614305565b611be1565b34801561057f57600080fd5b5061038c600080516020614a4783398151915281565b3480156105a157600080fd5b5060035461038c565b3480156105b657600080fd5b506008546105ca906001600160a01b031681565b6040516001600160a01b0390911681526020016102fe565b3480156105ee57600080fd5b506105f7611d09565b6040516102fe919061448a565b34801561061057600080fd5b50600b546105ca906001600160a01b031681565b34801561063057600080fd5b506105f7611d61565b34801561064557600080fd5b5061038c610654366004614268565b611db7565b34801561066557600080fd5b506103556106743660046142e4565b611dc7565b34801561068557600080fd5b506009546105ca906001600160a01b031681565b3480156106a557600080fd5b50610355611ec1565b3480156106ba57600080fd5b506103556106c9366004614091565b611f00565b3480156106da57600080fd5b506103556106e93660046142e4565b611f40565b3480156106fa57600080fd5b50610355610709366004614091565b61201a565b34801561071a57600080fd5b5061038c7fdf8b4c520ffe197c5343c6f5aec59570151ef9a492f2c624fd45ddde6135ec4281565b34801561074e57600080fd5b5061035561075d3660046142e4565b6120cd565b34801561076e57600080fd5b506102f261077d3660046140c9565b612208565b34801561078e57600080fd5b5061035561079d366004614091565b612330565b3480156107ae57600080fd5b5061038c6107bd366004614268565b6123ba565b3480156107ce57600080fd5b506006546105ca906001600160a01b031681565b3480156107ee57600080fd5b506107f761242c565b6040516102fe979695949392919061449d565b34801561081657600080fd5b5060045461038c565b34801561082b57600080fd5b506102f261083a366004614280565b6128c3565b34801561084b57600080fd5b5061035561085a366004614091565b6128ee565b34801561086b57600080fd5b5061035561291e565b34801561088057600080fd5b5061038c61088f366004614091565b6001600160a01b031660009081526002602052604090205490565b3480156108b657600080fd5b506105ca6108c5366004614268565b61296a565b3480156108d657600080fd5b5061038c600081565b3480156108eb57600080fd5b506103276108fa3660046142e4565b612994565b34801561090b57600080fd5b5061032761091a366004614101565b612d8f565b34801561092b57600080fd5b5061035561093a3660046142e4565b612e2c565b34801561094b57600080fd5b5061099861095a366004614268565b6000602081905290815260409020805460018201546002830154600384015460049094015460ff8416946101009094046001600160a01b0316939086565b6040805196151587526001600160a01b039095166020870152938501929092526060840152608083015260a082015260c0016102fe565b3480156109db57600080fd5b506109986109ea366004614268565b6000908152602081905260409020805460018201546002830154600384015460049094015460ff8416956101009094046001600160a01b0316949293919291565b348015610a3757600080fd5b506007546105ca906001600160a01b031681565b348015610a5757600080fd5b50610355610a66366004614091565b612f11565b348015610a7757600080fd5b50610355612f4e565b348015610a8c57600080fd5b50600a546105ca906001600160a01b031681565b348015610aac57600080fd5b506102f2610abb366004614268565b612f7e565b348015610acc57600080fd5b50610ae0610adb366004614091565b612fc3565b6040516102fe929190614563565b348015610afa57600080fd5b5061038c7ff0887ba65ee2024ea881d91b74c2450ef19e1557f03bed3ea9f16b037cbe2dc981565b348015610b2e57600080fd5b50610355610b3d366004614280565b6131a0565b348015610b4e57600080fd5b5061038c600c5481565b348015610b6457600080fd5b50610327610b73366004614101565b6131bd565b348015610b8457600080fd5b50610515610b93366004614268565b6001602081905260009182526040909120805491810154600282015460038301546004909301546001600160a01b03909416939192909162ffffff8116906301000000900460ff1686565b348015610bea57600080fd5b50610355610bf9366004614091565b6131f9565b610327610c0c366004614305565b61329d565b348015610c1d57600080fd5b506102f2610c2c366004614091565b6135a3565b348015610c3d57600080fd5b506102f2610c4c366004614091565b6135af565b60006001600160e01b03198216637965db0b60e01b1480610c8257506301ffc9a760e01b6001600160e01b03198316145b92915050565b600083815260208190526040812060020154819085904210610cc55760405162461bcd60e51b8152600401610cbc90614682565b60405180910390fd5b600081815260208190526040902060010154610cf35760405162461bcd60e51b8152600401610cbc90614750565b600086815260208190526040902054869061010090046001600160a01b031615801590610d30575060008181526001602052604090206003015415155b8015610d5557506000818152600160205260409020600401546301000000900460ff16155b610d715760405162461bcd60e51b8152600401610cbc906146b9565b8580610d8f5760405162461bcd60e51b8152600401610cbc906146ed565b8580610dad5760405162461bcd60e51b8152600401610cbc906146ed565b60008981526020819052604090819020549051636eb1769f60e11b81526101009091046001600160a01b0316908990829063dd62ed3e90610df49033903090600401614405565b60206040518083038186803b158015610e0c57600080fd5b505afa158015610e20573d6000803e3d6000fd5b505050506040513d601f19601f82011682018060405250810190610e4491906142cc565b1015610e625760405162461bcd60e51b8152600401610cbc90614787565b6009546040516323b872dd60e01b81526001600160a01b03808416926323b872dd92610e9692339216908e9060040161441f565b602060405180830381600087803b158015610eb057600080fd5b505af1158015610ec4573d6000803e3d6000fd5b505050506040513d601f19601f82011682018060405250810190610ee8919061412c565b50610ef6338a8c60006135c9565b96506000600860009054906101000a90046001600160a01b03166001600160a01b031663c83347af338a8e8d6040518563ffffffff1660e01b8152600401610f419493929190614464565b602060405180830381600087803b158015610f5b57600080fd5b505af1158015610f6f573d6000803e3d6000fd5b505050506040513d601f19601f82011682018060405250810190610f9391906142cc565b905060026000336001600160a01b03166001600160a01b0316815260200190815260200160002080549050965060026000336001600160a01b03166001600160a01b0316815260200190815260200160002060405180604001604052808d8152602001838152509080600181540180825580915050600190039060005260206000209060020201600090919091909150600082015181600001556020820151816001015550507f63e1306c4ce59f88c3f65402e7792134b29bd0e3b5eab1b5831f995fef1a7a36338c83858e8e8e6040516110b397969594939291906001600160a01b03978816815260208101969096526040860194909452919094166060840152608083019390935260a082019290925260c081019190915260e00190565b60405180910390a1505050505050935093915050565b6110d2336135af565b6110ee5760405162461bcd60e51b8152600401610cbc90614865565b60008181526020819052604090206002015461113b5760405162461bcd60e51b815260206004820152600c60248201526b195b5c1d1e481b585c9ad95d60a21b6044820152606401610cbc565b6000818152602081905260409020600201544210806111695750600081815260208190526040902060010154155b6111a65760405162461bcd60e51b815260206004820152600e60248201526d185b1c9958591e4818db1bdcd95960921b6044820152606401610cbc565b600081815260208181526040808320426002820155600101929092559051828152600080516020614a67833981519152910160405180910390a150565b6000828152602081905260408120600201548190849042106112175760405162461bcd60e51b8152600401610cbc90614682565b6000818152602081905260409020600101546112455760405162461bcd60e51b8152600401610cbc90614750565b60008581526001602052604090206003015485901580159061127f57506000818152600160205260409020600401546301000000900460ff165b61129b5760405162461bcd60e51b8152600401610cbc906147cd565b84806112b95760405162461bcd60e51b8152600401610cbc906146ed565b8534146112d85760405162461bcd60e51b8152600401610cbc90614804565b6112e533878960016135c9565b600854604051631f9e9b4b60e21b81529196506000916001600160a01b0390911690637e7a6d2c9061131f9033908a908d90600401614443565b602060405180830381600087803b15801561133957600080fd5b505af115801561134d573d6000803e3d6000fd5b505050506040513d601f19601f8201168201806040525081019061137191906142cc565b3360009081526002602081815260408084208054825180840184528f815280850188815260018084018555938852948720905195820201948555925193019290925560095491519098509293506001600160a01b0316913480156108fc0292909190818181858888f193505050501580156113f0573d6000803e3d6000fd5b5060408051338152602081018a905290810182905260608101889052608081018790527fe6842e3c66982eec53fbf127ab93e36198f7d048a044b2761abd0e131b3f84a49060a00160405180910390a1505050509250929050565b6003818154811061145b57600080fd5b600091825260209091200154905081565b6000908152600e602052604090206001015490565b6000610c82600080516020614a47833981519152836128c3565b6114a48261146c565b6114ae8133613cef565b6114b88383613d53565b505050565b6001600160a01b038116331461152d5760405162461bcd60e51b815260206004820152602f60248201527f416363657373436f6e74726f6c3a2063616e206f6e6c792072656e6f756e636560448201526e103937b632b9903337b91039b2b63360891b6064820152608401610cbc565b6115378282613dd9565b5050565b6000611570604051806060016040528060368152602001614a8760369139600085815260016020526040902060020154613e40565b600083815260016020526040902060020154670de0b6b3a764000090611596908461495f565b6115a0919061493f565b9392505050565b60006115b2336135af565b6115ce5760405162461bcd60e51b8152600401610cbc90614865565b8151806115ed5760405162461bcd60e51b8152600401610cbc906146ed565b60408301518061160f5760405162461bcd60e51b8152600401610cbc906146ed565b6060840151806116315760405162461bcd60e51b8152600401610cbc906146ed565b6080850151806116535760405162461bcd60e51b8152600401610cbc906146ed565b600860009054906101000a90046001600160a01b03166001600160a01b03166330e06e8b6040518163ffffffff1660e01b8152600401602060405180830381600087803b1580156116a357600080fd5b505af11580156116b7573d6000803e3d6000fd5b505050506040513d601f19601f820116820180604052508101906116db91906142cc565b94508915611750576001600160a01b0389161561174b5760405162461bcd60e51b815260206004820152602860248201527f7768656e20757365206574682c20746f6b656e206d757374206265207a65726f604482015267206164647265737360c01b6064820152608401610cbc565b611795565b6001600160a01b0389166117955760405162461bcd60e51b815260206004820152600c60248201526b7a65726f206164647265737360a01b6044820152606401610cbc565b602086015142106117e45760405162461bcd60e51b815260206004820152601960248201527839b0b6329032b732103a34b6b2903430b9903830b9b9b2b21760391b6044820152606401610cbc565b896118295760008762ffffff16116118295760405162461bcd60e51b81526020600482015260086024820152677a65726f2066656560c01b6044820152606401610cbc565b6000858152602081905260409020600201541580156118575750600085815260016020526040902060030154155b6118b25760405162461bcd60e51b815260206004820152602660248201527f616c72656164792072656769737465726564206d61726b657420616e64206d6560448201526574616461746160d01b6064820152608401610cbc565b89611903576118c1888a612208565b6119035760405162461bcd60e51b81526020600482015260136024820152721b9bdd081d1bdad95b881c185a5c881c1bdbdb606a1b6044820152606401610cbc565b6040805160c0810182528b151581526001600160a01b038b166020808301919091528851928201929092529087015160608201526000608082015260a0810187600460209081029190910151909152600087815280825260409081902083518154858501516001600160a81b0319909116911515610100600160a81b031916919091176101006001600160a01b039283160217825584830151600183015560608501516002808401919091556080860151600384015560a090950151600490920191909155815160c081019092528b168152919082019088906020020151815260200187600360058110611a0757634e487b7160e01b600052603260045260246000fd5b6020020151815260200187600060058110611a3257634e487b7160e01b600052603260045260246000fd5b60209081029190910151825262ffffff8a81168383018190528e151560409485015260008a81526001808552858220875181546001600160a01b039182166001600160a01b03199091161782559588015181830155878701516002820155606088015160038083019190915560808901516004928301805460a0909b0151151563010000000263ffffffff19909b1691909716179890981790945586548082019097557fc2575a0e9e593c00f959f8c92f12db2869c3395a3b0502d05e2516446f71f85b9096018b9055825495860183558290527f8a35acfbc15ff81a39ae7d344fd709f28e8600b4aa8c65c6b64bfe7fe36bd19b909401899055600954925163380d70f360e11b81528d8316918101919091528b821660248201526044810193909352169063701ae1e690606401600060405180830381600087803b158015611b7b57600080fd5b505af1158015611b8f573d6000803e3d6000fd5b505050507f527de5073033b75016bd4b14f97dccd60f8010b3dfc05ffb473ce260d9ecd8a0858b8b8b8b8b604051611bcc969594939291906148ae565b60405180910390a15050505095945050505050565b611bea336135af565b611c065760405162461bcd60e51b8152600401610cbc90614865565b60008381526020819052604090206002015483904210611c385760405162461bcd60e51b8152600401610cbc90614682565b600081815260208190526040902060010154611c665760405162461bcd60e51b8152600401610cbc90614750565b8280611c845760405162461bcd60e51b8152600401610cbc906146ed565b8280611ca25760405162461bcd60e51b8152600401610cbc906146ed565b600086815260016020818152604092839020918201889055600282018790558251898152908101889052918201869052907fe7c8040b7e70fdc86a04cd924e84862b2a7d37a5adb67e951bf0defb90c74d009060600160405180910390a150505050505050565b60606004805480602002602001604051908101604052809291908181526020018280548015611d5757602002820191906000526020600020905b815481526020019060010190808311611d43575b5050505050905090565b60606003805480602002602001604051908101604052809291908181526020018280548015611d575760200282019190600052602060002090815481526020019060010190808311611d43575050505050905090565b6004818154811061145b57600080fd5b611dd0336135af565b611dec5760405162461bcd60e51b8152600401610cbc90614865565b60008281526020819052604090206002015482904210611e1e5760405162461bcd60e51b8152600401610cbc90614682565b600081815260208190526040902060010154611e4c5760405162461bcd60e51b8152600401610cbc90614750565b8180611e6a5760405162461bcd60e51b8152600401610cbc906146ed565b600084815260208190526040908190206004810185905590517f13067d803552eac6ffd9ed0180e377884374b0ee53d2efa798e1c6d6974db44190611eb29087908790614919565b60405180910390a15050505050565b611eca336135af565b611ee65760405162461bcd60e51b8152600401610cbc90614865565b611efe600080516020614abd833981519152336114bd565b565b611f09336135a3565b611f255760405162461bcd60e51b8152600401610cbc9061463a565b611f3d600080516020614a478339815191528261149b565b50565b611f49336135af565b611f655760405162461bcd60e51b8152600401610cbc90614865565b428111611fa55760405162461bcd60e51b815260206004820152600e60248201526d7061737420636c6f736554696d6560901b6044820152606401610cbc565b60008281526020819052604090206004810154611fd45760405162461bcd60e51b8152600401610cbc9061483b565b600281018290556040517fc3daa84eedfacd6851bbf80d00ce11271bf926ac96c3d361c0307023c939d4b39061200d9085908590614919565b60405180910390a1505050565b61202333611481565b806120325750612032336135a3565b61204e5760405162461bcd60e51b8152600401610cbc906145c6565b6001600160a01b0381166120745760405162461bcd60e51b8152600401610cbc90614608565b336001600160a01b038216141561209d5760405162461bcd60e51b8152600401610cbc90614720565b6120b5600080516020614a478339815191528261149b565b611f3d600080516020614a47833981519152336114bd565b6120d6336135af565b6120f25760405162461bcd60e51b8152600401610cbc90614865565b80806121105760405162461bcd60e51b8152600401610cbc906146ed565b60008381526020819052604090206001015482106121665760405162461bcd60e51b81526020600482015260136024820152726e6f7420656e6f75676820636170616369747960681b6044820152606401610cbc565b600083815260208190526040902060048101546121955760405162461bcd60e51b8152600401610cbc9061483b565b828160010160008282546121a9919061497e565b90915550506000848152600160205260408120600381018054919286926121d190849061497e565b90915550506040517f06bd35b7b1982d31e0bbbd1ff43126cded834cfa1465422c58945822697ea2b390611eb29087908790614919565b6000816001600160a01b0316836001600160a01b0316630dfe16816040518163ffffffff1660e01b815260040160206040518083038186803b15801561224d57600080fd5b505afa158015612261573d6000803e3d6000fd5b505050506040513d601f19601f8201168201806040525081019061228591906140ad565b6001600160a01b0316148061231b5750816001600160a01b0316836001600160a01b031663d21220a76040518163ffffffff1660e01b815260040160206040518083038186803b1580156122d857600080fd5b505afa1580156122ec573d6000803e3d6000fd5b505050506040513d601f19601f8201168201806040525081019061231091906140ad565b6001600160a01b0316145b1561232857506001610c82565b506000610c82565b612339336135a3565b6123555760405162461bcd60e51b8152600401610cbc9061463a565b6001600160a01b03811661237b5760405162461bcd60e51b8152600401610cbc90614608565b336001600160a01b03821614156123a45760405162461bcd60e51b8152600401610cbc90614720565b6123af60008261149b565b611f3d6000336114bd565b60006123f06040518060600160405280603d8152602001614add603d913960008481526001602081905260409091200154613e40565b60008281526001602081815260408084209092015490839052912060040154670de0b6b3a7640000916124229161495f565b610c82919061493f565b6060806060806060806060600060038054905090506000816001600160401b0381111561246957634e487b7160e01b600052604160045260246000fd5b604051908082528060200260200182016040528015612492578160200160208202803683370190505b5090506000826001600160401b038111156124bd57634e487b7160e01b600052604160045260246000fd5b6040519080825280602002602001820160405280156124e6578160200160208202803683370190505b5090506000836001600160401b0381111561251157634e487b7160e01b600052604160045260246000fd5b60405190808252806020026020018201604052801561253a578160200160208202803683370190505b5090506000846001600160401b0381111561256557634e487b7160e01b600052604160045260246000fd5b60405190808252806020026020018201604052801561258e578160200160208202803683370190505b5090506000856001600160401b038111156125b957634e487b7160e01b600052604160045260246000fd5b6040519080825280602002602001820160405280156125e2578160200160208202803683370190505b5090506000866001600160401b0381111561260d57634e487b7160e01b600052604160045260246000fd5b604051908082528060200260200182016040528015612636578160200160208202803683370190505b5090506000876001600160401b0381111561266157634e487b7160e01b600052604160045260246000fd5b60405190808252806020026020018201604052801561268a578160200160208202803683370190505b50905060005b888110156128aa57600381815481106126b957634e487b7160e01b600052603260045260246000fd5b90600052602060002001548882815181106126e457634e487b7160e01b600052603260045260246000fd5b60200260200101818152505060008082815260200190815260200160002060000160019054906101000a90046001600160a01b031687828151811061273957634e487b7160e01b600052603260045260246000fd5b6001600160a01b039092166020928302919091018201526000828152908190526040902060010154865187908390811061278357634e487b7160e01b600052603260045260246000fd5b602002602001018181525050600080828152602001908152602001600020600401548282815181106127c557634e487b7160e01b600052603260045260246000fd5b6020026020010181815250506000808281526020019081526020016000206002015485828151811061280757634e487b7160e01b600052603260045260246000fd5b602002602001018181525050600160008281526020019081526020016000206001015484828151811061284a57634e487b7160e01b600052603260045260246000fd5b602002602001018181525050600160008281526020019081526020016000206002015483828151811061288d57634e487b7160e01b600052603260045260246000fd5b6020908102919091010152806128a2816149dc565b915050612690565b50959e949d50929b509399509750919550909350915050565b6000918252600e602090815260408084206001600160a01b0393909316845291905290205460ff1690565b6128f7336135a3565b6129135760405162461bcd60e51b8152600401610cbc9061463a565b611f3d600082613e85565b61292733611481565b806129365750612936336135a3565b6129525760405162461bcd60e51b8152600401610cbc906145c6565b611efe600080516020614a47833981519152336114bd565b6005818154811061297a57600080fd5b6000918252602090912001546001600160a01b0316905081565b6000828152602081905260408120600201548190849042106129c85760405162461bcd60e51b8152600401610cbc90614682565b6000818152602081905260409020600101546129f65760405162461bcd60e51b8152600401610cbc90614750565b600085815260208190526040902054859061010090046001600160a01b031615801590612a33575060008181526001602052604090206003015415155b8015612a5857506000818152600160205260409020600401546301000000900460ff16155b612a745760405162461bcd60e51b8152600401610cbc906146b9565b8480612a925760405162461bcd60e51b8152600401610cbc906146ed565b60008781526020819052604090819020549051636eb1769f60e11b81526101009091046001600160a01b0316908790829063dd62ed3e90612ad99033903090600401614405565b60206040518083038186803b158015612af157600080fd5b505afa158015612b05573d6000803e3d6000fd5b505050506040513d601f19601f82011682018060405250810190612b2991906142cc565b1015612b475760405162461bcd60e51b8152600401610cbc90614787565b6009546040516323b872dd60e01b81526001600160a01b03808416926323b872dd92612b7b92339216908c9060040161441f565b602060405180830381600087803b158015612b9557600080fd5b505af1158015612ba9573d6000803e3d6000fd5b505050506040513d601f19601f82011682018060405250810190612bcd919061412c565b50612bdb33888a60006135c9565b600854604051631f9e9b4b60e21b81529197506000916001600160a01b0390911690637e7a6d2c90612c159033908b908e90600401614443565b602060405180830381600087803b158015612c2f57600080fd5b505af1158015612c43573d6000803e3d6000fd5b505050506040513d601f19601f82011682018060405250810190612c6791906142cc565b905060026000336001600160a01b03166001600160a01b0316815260200190815260200160002080549050955060026000336001600160a01b03166001600160a01b0316815260200190815260200160002060405180604001604052808b8152602001838152509080600181540180825580915050600190039060005260206000209060020201600090919091909150600082015181600001556020820151816001015550507fef4cd93db0884f5770437b3970961dc83206c45ea72ee3bbe5032273ab6698c1338a83858c8c604051612d7b969594939291906001600160a01b0396871681526020810195909552604085019390935293166060830152608082019290925260a081019190915260c00190565b60405180910390a150505050509250929050565b6001600160a01b0382166000908152600260205260408120805482919084908110612dca57634e487b7160e01b600052603260045260246000fd5b60009182526020808320600292830201546001600160a01b03881684529190526040909120805485908110612e0f57634e487b7160e01b600052603260045260246000fd5b906000526020600020906002020160010154915091509250929050565b612e35336135af565b612e515760405162461bcd60e51b8152600401610cbc90614865565b8080612e6f5760405162461bcd60e51b8152600401610cbc906146ed565b600083815260208190526040812060018101805491928592612e92908490614927565b909155505060008481526001602052604090206004820154612ec65760405162461bcd60e51b8152600401610cbc9061483b565b83816003016000828254612eda9190614927565b90915550506040517fd99cf430ca9e36159c97837a2f291cfe564dfa5ca2a4f48ea0d20a3ceb718d5590611eb29087908790614919565b612f1a336135a3565b612f365760405162461bcd60e51b8152600401610cbc9061463a565b611f3d600080516020614abd8339815191528261149b565b612f57336135a3565b612f735760405162461bcd60e51b8152600401610cbc9061463a565b611efe6000336114bd565b60008181526020819052604081206002015442108015612fae575060008281526020819052604090206001015415155b15612fbb57506001919050565b506000919050565b6001600160a01b0381166000908152600260205260409020546060908190806001600160401b0381111561300757634e487b7160e01b600052604160045260246000fd5b604051908082528060200260200182016040528015613030578160200160208202803683370190505b509250806001600160401b0381111561305957634e487b7160e01b600052604160045260246000fd5b604051908082528060200260200182016040528015613082578160200160208202803683370190505b50915060005b81811015613199576001600160a01b03851660009081526002602052604090208054829081106130c857634e487b7160e01b600052603260045260246000fd5b9060005260206000209060020201600001548482815181106130fa57634e487b7160e01b600052603260045260246000fd5b60200260200101818152505060026000866001600160a01b03166001600160a01b03168152602001908152602001600020818154811061314a57634e487b7160e01b600052603260045260246000fd5b90600052602060002090600202016001015483828151811061317c57634e487b7160e01b600052603260045260246000fd5b602090810291909101015280613191816149dc565b915050613088565b5050915091565b6131a98261146c565b6131b38133613cef565b6114b88383613dd9565b600260205281600052604060002081815481106131d957600080fd5b600091825260209091206002909102018054600190910154909250905082565b613202336135af565b61321e5760405162461bcd60e51b8152600401610cbc90614865565b6001600160a01b0381166132445760405162461bcd60e51b8152600401610cbc90614608565b336001600160a01b038216141561326d5760405162461bcd60e51b8152600401610cbc90614720565b613285600080516020614abd8339815191528261149b565b611f3d600080516020614abd833981519152336114bd565b6000838152602081905260408120600201548190859042106132d15760405162461bcd60e51b8152600401610cbc90614682565b6000818152602081905260409020600101546132ff5760405162461bcd60e51b8152600401610cbc90614750565b60008681526001602052604090206003015486901580159061333957506000818152600160205260409020600401546301000000900460ff165b6133555760405162461bcd60e51b8152600401610cbc906147cd565b85806133735760405162461bcd60e51b8152600401610cbc906146ed565b85806133915760405162461bcd60e51b8152600401610cbc906146ed565b8734146133b05760405162461bcd60e51b8152600401610cbc90614804565b6133bd33898b60016135c9565b60085460405163c83347af60e01b81529197506000916001600160a01b039091169063c83347af906133f99033908b908f908e90600401614464565b602060405180830381600087803b15801561341357600080fd5b505af1158015613427573d6000803e3d6000fd5b505050506040513d601f19601f8201168201806040525081019061344b91906142cc565b905060026000336001600160a01b03166001600160a01b0316815260200190815260200160002080549050955060026000336001600160a01b03166001600160a01b0316815260200190815260200160002060405180604001604052808c815260200183815250908060018154018082558091505060019003906000526020600020906002020160009091909190915060008201518160000155602082015181600101555050600960009054906101000a90046001600160a01b03166001600160a01b03166108fc349081150290604051600060405180830381858888f1935050505015801561353f573d6000803e3d6000fd5b5060408051338152602081018c9052908101829052606081018a90526080810189905260a081018890527fd04d64d5a1460d8c5a8c5ffb4d6ddb0f4e5cf774c894a27c5bb73c4fc41698809060c00160405180910390a15050505050935093915050565b6000610c8281836128c3565b6000610c82600080516020614abd833981519152836128c3565b60006002600d54141561361e5760405162461bcd60e51b815260206004820152601f60248201527f5265656e7472616e637947756172643a207265656e7472616e742063616c6c006044820152606401610cbc565b6002600d556040805180820190915260158152745f6465706f736974205f616d6f756e74203a20257360581b60208201526136599085613e40565b613662836123ba565b8411156136ac5760405162461bcd60e51b81526020600482015260186024820152774465706f7369746f7279203a206f766572206d617850617960401b6044820152606401610cbc565b6136b6838561153b565b90506136f46040518060400160405280601a8152602001795f6465706f736974207061796f7574416d6f756e74203a20257360301b81525082613e40565b6000811161373a5760405162461bcd60e51b81526020600482015260136024820152721e995c9bc81cdd185ada5b99c8185b5bdd5b9d606a1b6044820152606401610cbc565b60008261382557600a54600654604051635db7a45d60e11b81526001600160a01b039182166004820152602481018590526000928392839291169063bb6f48ba9060440160806040518083038186803b15801561379657600080fd5b505afa1580156137aa573d6000803e3d6000fd5b505050506040513d601f19601f820116820180604052508101906137ce9190614221565b93505092509250821561381d5780935061381d6040518060400160405280601d81526020017f5f6465706f736974206578697374656457657468506f6f6c203a20257300000081525082613e40565b505050613828565b50835b613861604051806040016040528060178152602001765f6465706f736974205f65746856616c7565203a20257360481b81525082613e40565b600081116138a25760405162461bcd60e51b815260206004820152600e60248201526d7a65726f205f65746856616c756560901b6044820152606401610cbc565b600954604080516396f0bd6160e01b815290516000926001600160a01b0316916396f0bd61916004808301926020929190829003018186803b1580156138e757600080fd5b505afa1580156138fb573d6000803e3d6000fd5b505050506040513d601f19601f8201168201806040525081019061391f91906142cc565b905061395a604051806040016040528060178152602001765f6465706f736974205f6d696e7452617465203a20257360481b81525082613e40565b6000811161399a5760405162461bcd60e51b815260206004820152600d60248201526c7a65726f206d696e745261746560981b6044820152606401610cbc565b6009546040805163f908ed3760e01b815290516000926001600160a01b03169163f908ed37916004808301926020929190829003018186803b1580156139df57600080fd5b505afa1580156139f3573d6000803e3d6000fd5b505050506040513d601f19601f82011682018060405250810190613a1791906142cc565b613a21838561495f565b613a2b919061493f565b905083811015613a915760405162461bcd60e51b815260206004820152602b60248201527f6d696e7461626c65416d6f756e74206973206c657373207468616e207374616b60448201526a34b7339030b6b7bab73a1760a91b6064820152608401610cbc565b600086815260208190526040902060010154841115613aea5760405162461bcd60e51b815260206004820152601560248201527411195c1bdcda5d1bdc9e480e881cdbdb19081bdd5d605a1b6044820152606401610cbc565b600086815260208190526040812060018101805491928792613b0d90849061497e565b9250508190555084816003016000828254613b289190614927565b909155505060038082015460008981526001602052604090209091015411613b735760006001820155604051878152600080516020614a678339815191529060200160405180910390a15b6001600160a01b038916600090815260026020526040902054613bdc57600580546001810182556000919091527f036b6384b5eca791c62761152d0c79bb0604c104a5fb6f4eb0703f3154bb3db00180546001600160a01b0319166001600160a01b038b161790555b600c8054906000613bec836149dc565b9190505550600082118015613c015750818511155b15613c7d576009546008546040516329c7979f60e01b8152600481018590526001600160a01b03918216602482015260448101889052600160648201529116906329c7979f90608401600060405180830381600087803b158015613c6457600080fd5b505af1158015613c78573d6000803e3d6000fd5b505050505b604080516001600160a01b038b1681526020810189905290810189905260608101869052861515608082015260a081018390527fef81711614d4ac7faee84826311bec7d949a272a2e7e4f39f3a3b72527767d699060c00160405180910390a150506001600d55509095945050505050565b613cf982826128c3565b61153757613d11816001600160a01b03166014613e8f565b613d1c836020613e8f565b604051602001613d2d929190614396565b60408051601f198184030181529082905262461bcd60e51b8252610cbc91600401614591565b613d5d82826128c3565b611537576000828152600e602090815260408083206001600160a01b03851684529091529020805460ff19166001179055613d953390565b6001600160a01b0316816001600160a01b0316837f2f8788117e7eff1d82e926ec794901d17c78024a50270940304540a733656f0d60405160405180910390a45050565b613de382826128c3565b15611537576000828152600e602090815260408083206001600160a01b0385168085529252808320805460ff1916905551339285917ff6391f5c32d9c69d2a47ea670b442974b53935d1edc7fd64eb21e047a839171b9190a45050565b6115378282604051602401613e569291906145a4565b60408051601f198184030181529190526020810180516001600160e01b03166309710a9d60e41b179052614070565b6115378282613d53565b60606000613e9e83600261495f565b613ea9906002614927565b6001600160401b03811115613ece57634e487b7160e01b600052604160045260246000fd5b6040519080825280601f01601f191660200182016040528015613ef8576020820181803683370190505b509050600360fc1b81600081518110613f2157634e487b7160e01b600052603260045260246000fd5b60200101906001600160f81b031916908160001a905350600f60fb1b81600181518110613f5e57634e487b7160e01b600052603260045260246000fd5b60200101906001600160f81b031916908160001a9053506000613f8284600261495f565b613f8d906001614927565b90505b6001811115614021576f181899199a1a9b1b9c1cb0b131b232b360811b85600f1660108110613fcf57634e487b7160e01b600052603260045260246000fd5b1a60f81b828281518110613ff357634e487b7160e01b600052603260045260246000fd5b60200101906001600160f81b031916908160001a90535060049490941c9361401a816149c5565b9050613f90565b5083156115a05760405162461bcd60e51b815260206004820181905260248201527f537472696e67733a20686578206c656e67746820696e73756666696369656e746044820152606401610cbc565b80516a636f6e736f6c652e6c6f67602083016000808483855afa5050505050565b6000602082840312156140a2578081fd5b81356115a081614a23565b6000602082840312156140be578081fd5b81516115a081614a23565b600080604083850312156140db578081fd5b82356140e681614a23565b915060208301356140f681614a23565b809150509250929050565b60008060408385031215614113578182fd5b823561411e81614a23565b946020939093013593505050565b60006020828403121561413d578081fd5b81516115a081614a38565b6000806000806000610120808789031215614161578182fd5b863561416c81614a38565b955060208781013561417d81614a23565b9550604088013561418d81614a23565b9450606088013562ffffff811681146141a4578384fd5b9350609f880189136141b4578283fd5b60405160a081016001600160401b03811182821017156141d6576141d6614a0d565b6040528060808a01848b018c10156141ec578586fd5b8594505b600585101561420f5780358252600194909401939083019083016141f0565b50508093505050509295509295909350565b60008060008060808587031215614236578384fd5b845161424181614a38565b602086015190945061425281614a38565b6040860151606090960151949790965092505050565b600060208284031215614279578081fd5b5035919050565b60008060408385031215614292578182fd5b8235915060208301356140f681614a23565b6000602082840312156142b5578081fd5b81356001600160e01b0319811681146115a0578182fd5b6000602082840312156142dd578081fd5b5051919050565b600080604083850312156142f6578182fd5b50508035926020909101359150565b600080600060608486031215614319578081fd5b505081359360208301359350604090920135919050565b6000815180845260208085019450808401835b8381101561435f57815187529582019590820190600101614343565b509495945050505050565b60008151808452614382816020860160208601614995565b601f01601f19169290920160200192915050565b76020b1b1b2b9b9a1b7b73a3937b61d1030b1b1b7bab73a1604d1b8152600083516143c8816017850160208801614995565b7001034b99036b4b9b9b4b733903937b6329607d1b60179184019182015283516143f9816028840160208801614995565b01602801949350505050565b6001600160a01b0392831681529116602082015260400190565b6001600160a01b039384168152919092166020820152604081019190915260600190565b6001600160a01b039390931683526020830191909152604082015260600190565b6001600160a01b0394909416845260208401929092526040830152606082015260800190565b6020815260006115a06020830184614330565b60e0815260006144b060e083018a614330565b82810360208481019190915289518083528a820192820190845b818110156144ef5784516001600160a01b0316835293830193918301916001016144ca565b50508481036040860152614503818b614330565b9250505082810360608401526145198188614330565b9050828103608084015261452d8187614330565b905082810360a08401526145418186614330565b905082810360c08401526145558185614330565b9a9950505050505050505050565b6040815260006145766040830185614330565b82810360208401526145888185614330565b95945050505050565b6020815260006115a0602083018461436a565b6040815260006145b7604083018561436a565b90508260208301529392505050565b60208082526022908201527f41636365737369626c653a2043616c6c6572206973206e6f7420616e2061646d60408201526134b760f11b606082015260800190565b60208082526018908201527741636365737369626c653a207a65726f206164647265737360401b604082015260600190565b60208082526028908201527f41636365737369626c653a2043616c6c6572206973206e6f7420616e2070726f6040820152673c3c9030b236b4b760c11b606082015260800190565b6020808252601d908201527f426f6e644465706f7369746f72793a20636c6f736564206d61726b6574000000604082015260600190565b6020808252601a9082015279109bdb9911195c1bdcda5d1bdc9e4e88115512081b585c9ad95d60321b604082015260600190565b602080825260199082015278109bdb9911195c1bdcda5d1bdc9e4e881e995c9bc81d5a5b9d603a1b604082015260600190565b60208082526016908201527520b1b1b2b9b9b4b136329d1039b0b6b29030b236b4b760511b604082015260600190565b6020808252601d908201527f426f6e644465706f7369746f72793a207a65726f206361706163697479000000604082015260600190565b60208082526026908201527f4465706f7369746f7279203a20616c6c6f77616e636520697320696e737566666040820152651a58da595b9d60d21b606082015260800190565b6020808252601e908201527f426f6e644465706f7369746f72793a206e6f7420455448206d61726b65740000604082015260600190565b6020808252601f908201527f4465706f7369746f7279203a204554482076616c7565206e6f742073616d6500604082015260600190565b60208082526010908201526f1b9bdb8b595e1a5cdd081b585c9ad95d60821b604082015260600190565b60208082526029908201527f41636365737369626c653a2043616c6c6572206973206e6f7420616e20706f6c60408201526834b1bc9030b236b4b760b91b606082015260800190565b8681528515156020808301919091526001600160a01b0386811660408401528516606083015262ffffff8416608083015261014082019060a083018460005b600581101561490a578151835291830191908301906001016148ed565b50505050979650505050505050565b918252602082015260400190565b6000821982111561493a5761493a6149f7565b500190565b60008261495a57634e487b7160e01b81526012600452602481fd5b500490565b6000816000190483118215151615614979576149796149f7565b500290565b600082821015614990576149906149f7565b500390565b60005b838110156149b0578181015183820152602001614998565b838111156149bf576000848401525b50505050565b6000816149d4576149d46149f7565b506000190190565b60006000198214156149f0576149f06149f7565b5060010190565b634e487b7160e01b600052601160045260246000fd5b634e487b7160e01b600052604160045260246000fd5b6001600160a01b0381168114611f3d57600080fd5b8015158114611f3d57600080fdfe52eafc11f6f81f86878bffd31109a0d92f37506527754f00788853ff9f63b130065f36f0cc9a946e058a78fcf529ed8629c0ad3f6d065007c3c9162fd2c39d6363616c63756c617465546f73416d6f756e74466f724173736574206d657461646174615b5f69645d2e746f735072696365203a202573fb5864e8ff833c3cb2d2d08505e82ff02a43554c74a35d4f5a64e852612783117075726368617361626c654173656574416d6f756e7441744f6e6554696d65206d657461646174615b5f69645d2e746f6b656e5072696365203a202573a264697066735822122061d1968797656165ce46813091ad2eae58fb02270d9f70d31451e12f44cd993d64736f6c63430008040033",
  "linkReferences": {},
  "deployedLinkReferences": {}
}