{
  "_format": "hh-sol-artifact-1",
  "contractName": "BondDepositoryProxy",
  "sourceName": "contracts/BondDepositoryProxy.sol",
  "abi": [
    {
      "anonymous": false,
      "inputs": [
        {
          "indexed": true,
          "internalType": "bytes32",
          "name": "role",
          "type": "bytes32"
        },
        {
          "indexed": true,
          "internalType": "bytes32",
          "name": "previousAdminRole",
          "type": "bytes32"
        },
        {
          "indexed": true,
          "internalType": "bytes32",
          "name": "newAdminRole",
          "type": "bytes32"
        }
      ],
      "name": "RoleAdminChanged",
      "type": "event"
    },
    {
      "anonymous": false,
      "inputs": [
        {
          "indexed": true,
          "internalType": "bytes32",
          "name": "role",
          "type": "bytes32"
        },
        {
          "indexed": true,
          "internalType": "address",
          "name": "account",
          "type": "address"
        },
        {
          "indexed": true,
          "internalType": "address",
          "name": "sender",
          "type": "address"
        }
      ],
      "name": "RoleGranted",
      "type": "event"
    },
    {
      "anonymous": false,
      "inputs": [
        {
          "indexed": true,
          "internalType": "bytes32",
          "name": "role",
          "type": "bytes32"
        },
        {
          "indexed": true,
          "internalType": "address",
          "name": "account",
          "type": "address"
        },
        {
          "indexed": true,
          "internalType": "address",
          "name": "sender",
          "type": "address"
        }
      ],
      "name": "RoleRevoked",
      "type": "event"
    },
    {
      "anonymous": false,
      "inputs": [
        {
          "indexed": true,
          "internalType": "address",
          "name": "impl",
          "type": "address"
        },
        {
          "indexed": false,
          "internalType": "bool",
          "name": "alive",
          "type": "bool"
        }
      ],
      "name": "SetAliveImplementation",
      "type": "event"
    },
    {
      "anonymous": false,
      "inputs": [
        {
          "indexed": true,
          "internalType": "bytes4",
          "name": "selector",
          "type": "bytes4"
        },
        {
          "indexed": true,
          "internalType": "address",
          "name": "impl",
          "type": "address"
        }
      ],
      "name": "SetSelectorImplementation",
      "type": "event"
    },
    {
      "anonymous": false,
      "inputs": [
        {
          "indexed": true,
          "internalType": "address",
          "name": "implementation",
          "type": "address"
        }
      ],
      "name": "Upgraded",
      "type": "event"
    },
    {
      "stateMutability": "payable",
      "type": "fallback"
    },
    {
      "inputs": [],
      "name": "ADMIN_ROLE",
      "outputs": [
        {
          "internalType": "bytes32",
          "name": "",
          "type": "bytes32"
        }
      ],
      "stateMutability": "view",
      "type": "function"
    },
    {
      "inputs": [],
      "name": "DEFAULT_ADMIN_ROLE",
      "outputs": [
        {
          "internalType": "bytes32",
          "name": "",
          "type": "bytes32"
        }
      ],
      "stateMutability": "view",
      "type": "function"
    },
    {
      "inputs": [],
      "name": "POLICY_ROLE",
      "outputs": [
        {
          "internalType": "bytes32",
          "name": "",
          "type": "bytes32"
        }
      ],
      "stateMutability": "view",
      "type": "function"
    },
    {
      "inputs": [
        {
          "internalType": "address",
          "name": "account",
          "type": "address"
        }
      ],
      "name": "addAdmin",
      "outputs": [],
      "stateMutability": "nonpayable",
      "type": "function"
    },
    {
      "inputs": [
        {
          "internalType": "address",
          "name": "_account",
          "type": "address"
        }
      ],
      "name": "addPolicy",
      "outputs": [],
      "stateMutability": "nonpayable",
      "type": "function"
    },
    {
      "inputs": [
        {
          "internalType": "address",
          "name": "_owner",
          "type": "address"
        }
      ],
      "name": "addProxyAdmin",
      "outputs": [],
      "stateMutability": "nonpayable",
      "type": "function"
    },
    {
      "inputs": [
        {
          "internalType": "address",
          "name": "",
          "type": "address"
        }
      ],
      "name": "aliveImplementation",
      "outputs": [
        {
          "internalType": "bool",
          "name": "",
          "type": "bool"
        }
      ],
      "stateMutability": "view",
      "type": "function"
    },
    {
      "inputs": [],
      "name": "calculator",
      "outputs": [
        {
          "internalType": "address",
          "name": "",
          "type": "address"
        }
      ],
      "stateMutability": "view",
      "type": "function"
    },
    {
      "inputs": [
        {
          "internalType": "address",
          "name": "_account",
          "type": "address"
        }
      ],
      "name": "deletePolicy",
      "outputs": [],
      "stateMutability": "nonpayable",
      "type": "function"
    },
    {
      "inputs": [],
      "name": "dtos",
      "outputs": [
        {
          "internalType": "address",
          "name": "",
          "type": "address"
        }
      ],
      "stateMutability": "view",
      "type": "function"
    },
    {
      "inputs": [
        {
          "internalType": "bytes32",
          "name": "role",
          "type": "bytes32"
        }
      ],
      "name": "getRoleAdmin",
      "outputs": [
        {
          "internalType": "bytes32",
          "name": "",
          "type": "bytes32"
        }
      ],
      "stateMutability": "view",
      "type": "function"
    },
    {
      "inputs": [
        {
          "internalType": "bytes4",
          "name": "_selector",
          "type": "bytes4"
        }
      ],
      "name": "getSelectorImplementation2",
      "outputs": [
        {
          "internalType": "address",
          "name": "impl",
          "type": "address"
        }
      ],
      "stateMutability": "view",
      "type": "function"
    },
    {
      "inputs": [
        {
          "internalType": "bytes32",
          "name": "role",
          "type": "bytes32"
        },
        {
          "internalType": "address",
          "name": "account",
          "type": "address"
        }
      ],
      "name": "grantRole",
      "outputs": [],
      "stateMutability": "nonpayable",
      "type": "function"
    },
    {
      "inputs": [
        {
          "internalType": "bytes32",
          "name": "role",
          "type": "bytes32"
        },
        {
          "internalType": "address",
          "name": "account",
          "type": "address"
        }
      ],
      "name": "hasRole",
      "outputs": [
        {
          "internalType": "bool",
          "name": "",
          "type": "bool"
        }
      ],
      "stateMutability": "view",
      "type": "function"
    },
    {
      "inputs": [],
      "name": "implementation",
      "outputs": [
        {
          "internalType": "address",
          "name": "",
          "type": "address"
        }
      ],
      "stateMutability": "view",
      "type": "function"
    },
    {
      "inputs": [
        {
          "internalType": "uint256",
          "name": "_index",
          "type": "uint256"
        }
      ],
      "name": "implementation2",
      "outputs": [
        {
          "internalType": "address",
          "name": "",
          "type": "address"
        }
      ],
      "stateMutability": "view",
      "type": "function"
    },
    {
      "inputs": [
        {
          "internalType": "address",
          "name": "_tos",
          "type": "address"
        },
        {
          "internalType": "address",
          "name": "_staking",
          "type": "address"
        },
        {
          "internalType": "address",
          "name": "_treasury",
          "type": "address"
        },
        {
          "internalType": "address",
          "name": "_calculator",
          "type": "address"
        },
        {
          "internalType": "address",
          "name": "_uniswapV3Factory",
          "type": "address"
        }
      ],
      "name": "initialize",
      "outputs": [],
      "stateMutability": "nonpayable",
      "type": "function"
    },
    {
      "inputs": [
        {
          "internalType": "address",
          "name": "account",
          "type": "address"
        }
      ],
      "name": "isAdmin",
      "outputs": [
        {
          "internalType": "bool",
          "name": "",
          "type": "bool"
        }
      ],
      "stateMutability": "view",
      "type": "function"
    },
    {
      "inputs": [
        {
          "internalType": "address",
          "name": "account",
          "type": "address"
        }
      ],
      "name": "isPolicy",
      "outputs": [
        {
          "internalType": "bool",
          "name": "",
          "type": "bool"
        }
      ],
      "stateMutability": "view",
      "type": "function"
    },
    {
      "inputs": [
        {
          "internalType": "address",
          "name": "account",
          "type": "address"
        }
      ],
      "name": "isProxyAdmin",
      "outputs": [
        {
          "internalType": "bool",
          "name": "",
          "type": "bool"
        }
      ],
      "stateMutability": "view",
      "type": "function"
    },
    {
      "inputs": [],
      "name": "isTreasury",
      "outputs": [
        {
          "internalType": "bool",
          "name": "",
          "type": "bool"
        }
      ],
      "stateMutability": "pure",
      "type": "function"
    },
    {
      "inputs": [
        {
          "internalType": "uint256",
          "name": "",
          "type": "uint256"
        }
      ],
      "name": "marketList",
      "outputs": [
        {
          "internalType": "uint256",
          "name": "",
          "type": "uint256"
        }
      ],
      "stateMutability": "view",
      "type": "function"
    },
    {
      "inputs": [
        {
          "internalType": "uint256",
          "name": "",
          "type": "uint256"
        }
      ],
      "name": "markets",
      "outputs": [
        {
          "internalType": "address",
          "name": "quoteToken",
          "type": "address"
        },
        {
          "internalType": "uint256",
          "name": "capacity",
          "type": "uint256"
        },
        {
          "internalType": "uint256",
          "name": "endSaleTime",
          "type": "uint256"
        },
        {
          "internalType": "uint256",
          "name": "maxPayout",
          "type": "uint256"
        },
        {
          "internalType": "uint256",
          "name": "tosPrice",
          "type": "uint256"
        }
      ],
      "stateMutability": "view",
      "type": "function"
    },
    {
      "inputs": [],
      "name": "pauseProxy",
      "outputs": [
        {
          "internalType": "bool",
          "name": "",
          "type": "bool"
        }
      ],
      "stateMutability": "view",
      "type": "function"
    },
    {
      "inputs": [
        {
          "internalType": "uint256",
          "name": "",
          "type": "uint256"
        }
      ],
      "name": "proxyImplementation",
      "outputs": [
        {
          "internalType": "address",
          "name": "",
          "type": "address"
        }
      ],
      "stateMutability": "view",
      "type": "function"
    },
    {
      "inputs": [],
      "name": "removeAdmin",
      "outputs": [],
      "stateMutability": "nonpayable",
      "type": "function"
    },
    {
      "inputs": [],
      "name": "removePolicy",
      "outputs": [],
      "stateMutability": "nonpayable",
      "type": "function"
    },
    {
      "inputs": [],
      "name": "removeProxyAdmin",
      "outputs": [],
      "stateMutability": "nonpayable",
      "type": "function"
    },
    {
      "inputs": [
        {
          "internalType": "bytes32",
          "name": "role",
          "type": "bytes32"
        },
        {
          "internalType": "address",
          "name": "account",
          "type": "address"
        }
      ],
      "name": "renounceRole",
      "outputs": [],
      "stateMutability": "nonpayable",
      "type": "function"
    },
    {
      "inputs": [
        {
          "internalType": "bytes32",
          "name": "role",
          "type": "bytes32"
        },
        {
          "internalType": "address",
          "name": "account",
          "type": "address"
        }
      ],
      "name": "revokeRole",
      "outputs": [],
      "stateMutability": "nonpayable",
      "type": "function"
    },
    {
      "inputs": [
        {
          "internalType": "bytes4",
          "name": "",
          "type": "bytes4"
        }
      ],
      "name": "selectorImplementation",
      "outputs": [
        {
          "internalType": "address",
          "name": "",
          "type": "address"
        }
      ],
      "stateMutability": "view",
      "type": "function"
    },
    {
      "inputs": [
        {
          "internalType": "address",
          "name": "newImplementation",
          "type": "address"
        },
        {
          "internalType": "bool",
          "name": "_alive",
          "type": "bool"
        }
      ],
      "name": "setAliveImplementation2",
      "outputs": [],
      "stateMutability": "nonpayable",
      "type": "function"
    },
    {
      "inputs": [
        {
          "internalType": "address",
          "name": "newImplementation",
          "type": "address"
        },
        {
          "internalType": "uint256",
          "name": "_index",
          "type": "uint256"
        },
        {
          "internalType": "bool",
          "name": "_alive",
          "type": "bool"
        }
      ],
      "name": "setImplementation2",
      "outputs": [],
      "stateMutability": "nonpayable",
      "type": "function"
    },
    {
      "inputs": [
        {
          "internalType": "bool",
          "name": "_pause",
          "type": "bool"
        }
      ],
      "name": "setProxyPause",
      "outputs": [],
      "stateMutability": "nonpayable",
      "type": "function"
    },
    {
      "inputs": [
        {
          "internalType": "bytes4[]",
          "name": "_selectors",
          "type": "bytes4[]"
        },
        {
          "internalType": "address",
          "name": "_imp",
          "type": "address"
        }
      ],
      "name": "setSelectorImplementations2",
      "outputs": [],
      "stateMutability": "nonpayable",
      "type": "function"
    },
    {
      "inputs": [],
      "name": "staking",
      "outputs": [
        {
          "internalType": "contract IStaking",
          "name": "",
          "type": "address"
        }
      ],
      "stateMutability": "view",
      "type": "function"
    },
    {
      "inputs": [
        {
          "internalType": "bytes4",
          "name": "interfaceId",
          "type": "bytes4"
        }
      ],
      "name": "supportsInterface",
      "outputs": [
        {
          "internalType": "bool",
          "name": "",
          "type": "bool"
        }
      ],
      "stateMutability": "view",
      "type": "function"
    },
    {
      "inputs": [],
      "name": "tos",
      "outputs": [
        {
          "internalType": "contract IERC20",
          "name": "",
          "type": "address"
        }
      ],
      "stateMutability": "view",
      "type": "function"
    },
    {
      "inputs": [
        {
          "internalType": "address",
          "name": "newAdmin",
          "type": "address"
        }
      ],
      "name": "transferAdmin",
      "outputs": [],
      "stateMutability": "nonpayable",
      "type": "function"
    },
    {
      "inputs": [
        {
          "internalType": "address",
          "name": "newAdmin",
          "type": "address"
        }
      ],
      "name": "transferProxyAdmin",
      "outputs": [],
      "stateMutability": "nonpayable",
      "type": "function"
    },
    {
      "inputs": [],
      "name": "treasury",
      "outputs": [
        {
          "internalType": "address",
          "name": "",
          "type": "address"
        }
      ],
      "stateMutability": "view",
      "type": "function"
    },
    {
      "inputs": [],
      "name": "uniswapV3Factory",
      "outputs": [
        {
          "internalType": "address",
          "name": "",
          "type": "address"
        }
      ],
      "stateMutability": "view",
      "type": "function"
    },
    {
      "inputs": [
        {
          "internalType": "address",
          "name": "impl",
          "type": "address"
        }
      ],
      "name": "upgradeTo",
      "outputs": [],
      "stateMutability": "nonpayable",
      "type": "function"
    },
    {
      "stateMutability": "payable",
      "type": "receive"
    }
  ],
  "bytecode": "0x60806040523480156200001157600080fd5b506200002d600080516020620020df833981519152806200005b565b62000048600080516020620020df83398151915233620000a6565b62000055600033620000a6565b6200015a565b600082815260086020526040808220600101805490849055905190918391839186917fbd79b86ffe0ab8e8776151514217cd7cacd52c909f66475c3af44e129f0b00ff9190a4505050565b620000b28282620000b6565b5050565b60008281526008602090815260408083206001600160a01b038516845290915290205460ff16620000b25760008281526008602090815260408083206001600160a01b03851684529091529020805460ff19166001179055620001163390565b6001600160a01b0316816001600160a01b0316837f2f8788117e7eff1d82e926ec794901d17c78024a50270940304540a733656f0d60405160405180910390a45050565b611f75806200016a6000396000f3fe6080604052600436106102605760003560e01c806375829def116101445780639a202d47116100b6578063be72f2d31161007a578063be72f2d3146108cb578063ce3e39c0146108e0578063d547741f14610900578063f47f2f1d14610920578063f98e422f14610940578063fad1c85c146109605761034f565b80639a202d47146107c5578063a217fddf146107da578063b1283e77146107ef578063b84ef08114610875578063b911135f146108955761034f565b8063842a3bdd11610108578063842a3bdd1461071157806389f395de146107255780638b8f4a65146107455780638d4fdb401461076557806391d148541461078557806396f1557c146107a55761034f565b806375829def1461066f57806375b238fc1461068f5780637cb00d25146106b15780637cd5f663146106d15780638356ca4f146106f15761034f565b80634cf088d9116101dd5780635cc797d8116101a15780635cc797d8146105c05780635fabdf7c146105e057806361d027b31461060057806363a8fd891461062057806365cb3a831461063a578063704802751461064f5761034f565b80634cf088d9146104ce57806350d2a27614610506578063550d01a31461053c5780635b5491821461056c5780635c60da1b1461058c5761034f565b806324d7806c1161022457806324d7806c1461042e5780632f2ff15d1461044e57806336568abe1461046e5780633659cfe61461048e5780634a5df50f146104ae5761034f565b806301ffc9a7146103595780631459457a1461038e57806322985246146103ae578063232b956c146103de578063248a9ca3146103fe5761034f565b3661034f5760408051600481526024810182526020810180516001600160e01b031663842a3bdd60e01b17905290516000918291309183916102a29190611ca1565b60006040518083038185875af1925050503d80600081146102df576040519150601f19603f3d011682016040523d82523d6000602084013e6102e4565b606091505b50915091506000818060200190518101906102ff9190611c1a565b90508061034a5760405162461bcd60e51b815260206004820152601460248201527331b0b73737ba103932b1b2b4bb329022ba3432b960611b60448201526064015b60405180910390fd5b505050005b610357610980565b005b34801561036557600080fd5b50610379610374366004611c79565b610a29565b60405190151581526020015b60405180910390f35b34801561039a57600080fd5b506103576103a9366004611aa6565b610a60565b3480156103ba57600080fd5b506103d0600080516020611f0083398151915281565b604051908152602001610385565b3480156103ea57600080fd5b506103d06103f9366004611c36565b610bfd565b34801561040a57600080fd5b506103d0610419366004611c36565b60009081526008602052604090206001015490565b34801561043a57600080fd5b50610379610449366004611a8c565b610c1e565b34801561045a57600080fd5b50610357610469366004611c4e565b610c38565b34801561047a57600080fd5b50610357610489366004611c4e565b610c5e565b34801561049a57600080fd5b506103576104a9366004611a8c565b610cdc565b3480156104ba57600080fd5b506103576104c9366004611b7f565b610deb565b3480156104da57600080fd5b506001546104ee906001600160a01b031681565b6040516001600160a01b039091168152602001610385565b34801561051257600080fd5b506104ee610521366004611c79565b600c602052600090815260409020546001600160a01b031681565b34801561054857600080fd5b50610379610557366004611a8c565b600b6020526000908152604090205460ff1681565b34801561057857600080fd5b506004546104ee906001600160a01b031681565b34801561059857600080fd5b5060008052600a602052600080516020611f20833981519152546001600160a01b03166104ee565b3480156105cc57600080fd5b506103576105db366004611b0a565b611078565b3480156105ec57600080fd5b506103576105fb366004611a8c565b6110a7565b34801561060c57600080fd5b506002546104ee906001600160a01b031681565b34801561062c57600080fd5b506009546103799060ff1681565b34801561064657600080fd5b506103576110e7565b34801561065b57600080fd5b5061035761066a366004611a8c565b611168565b34801561067b57600080fd5b5061035761068a366004611a8c565b6111a5565b34801561069b57600080fd5b506103d0600080516020611ee083398151915281565b3480156106bd57600080fd5b506103576106cc366004611bfe565b6112ac565b3480156106dd57600080fd5b506103576106ec366004611b40565b6112e4565b3480156106fd57600080fd5b5061035761070c366004611a8c565b611314565b34801561071d57600080fd5b506000610379565b34801561073157600080fd5b506000546104ee906001600160a01b031681565b34801561075157600080fd5b506104ee610760366004611c36565b6113f2565b34801561077157600080fd5b506104ee610780366004611c79565b61140f565b34801561079157600080fd5b506103796107a0366004611c4e565b6114e7565b3480156107b157600080fd5b506103576107c0366004611a8c565b611512565b3480156107d157600080fd5b50610357611542565b3480156107e657600080fd5b506103d0600081565b3480156107fb57600080fd5b5061084361080a366004611c36565b600760205260009081526040902080546001820154600283015460038401546004909401546001600160a01b0390931693919290919085565b604080516001600160a01b0390961686526020860194909452928401919091526060830152608082015260a001610385565b34801561088157600080fd5b50610357610890366004611a8c565b61158e565b3480156108a157600080fd5b506104ee6108b0366004611c36565b600a602052600090815260409020546001600160a01b031681565b3480156108d757600080fd5b506103576115cb565b3480156108ec57600080fd5b506003546104ee906001600160a01b031681565b34801561090c57600080fd5b5061035761091b366004611c4e565b6115fb565b34801561092c57600080fd5b5061037961093b366004611a8c565b611621565b34801561094c57600080fd5b506005546104ee906001600160a01b031681565b34801561096c57600080fd5b5061037961097b366004611a8c565b61162d565b60006109976000356001600160e01b03191661140f565b90506001600160a01b038116158015906109b4575060095460ff16155b610a005760405162461bcd60e51b815260206004820152601d60248201527f50726f78793a20696d706c204f522070726f78792069732066616c73650000006044820152606401610341565b3660008037600080366000845af43d6000803e808015610a1f573d6000f35b3d6000fd5b505050565b60006001600160e01b03198216637965db0b60e01b1480610a5a57506301ffc9a760e01b6001600160e01b03198316145b92915050565b610a6933611621565b610a855760405162461bcd60e51b815260040161034190611da7565b846001600160a01b038116610aac5760405162461bcd60e51b815260040161034190611def565b846001600160a01b038116610ad35760405162461bcd60e51b815260040161034190611def565b846001600160a01b038116610afa5760405162461bcd60e51b815260040161034190611def565b846001600160a01b038116610b215760405162461bcd60e51b815260040161034190611def565b846001600160a01b038116610b485760405162461bcd60e51b815260040161034190611def565b6000546001600160a01b031615610b985760405162461bcd60e51b815260206004820152601460248201527330b63932b0b23c9034b734ba34b0b634bd32b21760611b6044820152606401610341565b5050600080546001600160a01b03199081166001600160a01b039a8b1617909155600180548216988a16989098179097555050600280548616948716949094179093556003805485169286169290921790915560048054909316931692909217905550565b60068181548110610c0d57600080fd5b600091825260209091200154905081565b6000610a5a600080516020611ee0833981519152836114e7565b600082815260086020526040902060010154610c548133611647565b610a2483836116ab565b6001600160a01b0381163314610cce5760405162461bcd60e51b815260206004820152602f60248201527f416363657373436f6e74726f6c3a2063616e206f6e6c792072656e6f756e636560448201526e103937b632b9903337b91039b2b63360891b6064820152608401610341565b610cd88282611731565b5050565b610ce533611621565b610d015760405162461bcd60e51b815260040161034190611da7565b6001600160a01b038116610d475760405162461bcd60e51b815260206004820152600d60248201526c696e707574206973207a65726f60981b6044820152606401610341565b60008052600a602052600080516020611f20833981519152546001600160a01b0382811691161415610da75760405162461bcd60e51b815260206004820152600960248201526839b0b6b29030b2323960b91b6044820152606401610341565b610db48160006001611798565b6040516001600160a01b038216907fbc7cd75a20ee27fd9adebab32041f755214dbc6bffa90cc0225b39da2e5c2d3b90600090a250565b610df433611621565b610e105760405162461bcd60e51b815260040161034190611da7565b81610e5d5760405162461bcd60e51b815260206004820181905260248201527f50726f78793a205f73656c6563746f727327732073697a65206973207a65726f6044820152606401610341565b6001600160a01b0381166000908152600b602052604090205460ff16610ec55760405162461bcd60e51b815260206004820152601860248201527f50726f78793a205f696d70206973206e6f7420616c69766500000000000000006044820152606401610341565b60005b8281101561107257816001600160a01b0316600c6000868685818110610efe57634e487b7160e01b600052603260045260246000fd5b9050602002016020810190610f139190611c79565b6001600160e01b03191681526020810191909152604001600020546001600160a01b03161415610f855760405162461bcd60e51b815260206004820152601d60248201527f4c69717569646974795661756c7450726f78793a2073616d6520696d700000006044820152606401610341565b81600c6000868685818110610faa57634e487b7160e01b600052603260045260246000fd5b9050602002016020810190610fbf9190611c79565b6001600160e01b0319168152602081019190915260400160002080546001600160a01b0319166001600160a01b03928316179055821684848381811061101557634e487b7160e01b600052603260045260246000fd5b905060200201602081019061102a9190611c79565b6001600160e01b0319167f14ebc1c32aa68f4d766e89f3e546cee249f7df25183fc10ab1568d91c2ce9b7b60405160405180910390a38061106a81611ea0565b915050610ec8565b50505050565b61108133611621565b61109d5760405162461bcd60e51b815260040161034190611da7565b610cd88282611823565b6110b033611621565b6110cc5760405162461bcd60e51b815260040161034190611da7565b6110e4600080516020611f00833981519152826115fb565b50565b6110f03361162d565b61114e5760405162461bcd60e51b815260206004820152602960248201527f41636365737369626c653a2043616c6c6572206973206e6f7420616e20706f6c60448201526834b1bc9030b236b4b760b91b6064820152608401610341565b611166600080516020611f0083398151915233610c5e565b565b61117133611621565b61118d5760405162461bcd60e51b815260040161034190611da7565b6110e4600080516020611ee083398151915282610c38565b6111ae33610c1e565b806111bd57506111bd33611621565b6111d95760405162461bcd60e51b815260040161034190611d65565b6001600160a01b03811661122a5760405162461bcd60e51b815260206004820152601860248201527741636365737369626c653a207a65726f206164647265737360401b6044820152606401610341565b336001600160a01b038216141561127c5760405162461bcd60e51b815260206004820152601660248201527520b1b1b2b9b9b4b136329d1039b0b6b29030b236b4b760511b6044820152606401610341565b611294600080516020611ee083398151915282610c38565b6110e4600080516020611ee083398151915233610c5e565b6112b533611621565b6112d15760405162461bcd60e51b815260040161034190611da7565b6009805460ff1916911515919091179055565b6112ed33611621565b6113095760405162461bcd60e51b815260040161034190611da7565b610a24838383611798565b61131d33611621565b6113395760405162461bcd60e51b815260040161034190611da7565b6001600160a01b03811661138a5760405162461bcd60e51b815260206004820152601860248201527741636365737369626c653a207a65726f206164647265737360401b6044820152606401610341565b336001600160a01b03821614156113dc5760405162461bcd60e51b815260206004820152601660248201527520b1b1b2b9b9b4b136329d1039b0b6b29030b236b4b760511b6044820152606401610341565b6113e7600082610c38565b6110e4600033610c5e565b6000818152600a60205260408120546001600160a01b0316610a5a565b6001600160e01b031981166000908152600c60205260408120546001600160a01b031661145d57505060008052600a602052600080516020611f20833981519152546001600160a01b031690565b6001600160e01b031982166000908152600c60209081526040808320546001600160a01b03168352600b90915290205460ff16156114bb57506001600160e01b0319166000908152600c60205260409020546001600160a01b031690565b505060008052600a602052600080516020611f20833981519152546001600160a01b031690565b919050565b60009182526008602090815260408084206001600160a01b0393909316845291905290205460ff1690565b61151b33611621565b6115375760405162461bcd60e51b815260040161034190611da7565b6110e4600082611882565b61154b33610c1e565b8061155a575061155a33611621565b6115765760405162461bcd60e51b815260040161034190611d65565b611166600080516020611ee083398151915233610c5e565b61159733611621565b6115b35760405162461bcd60e51b815260040161034190611da7565b6110e4600080516020611f0083398151915282610c38565b6115d433611621565b6115f05760405162461bcd60e51b815260040161034190611da7565b611166600033610c5e565b6000828152600860205260409020600101546116178133611647565b610a248383611731565b6000610a5a81836114e7565b6000610a5a600080516020611f00833981519152836114e7565b61165182826114e7565b610cd857611669816001600160a01b0316601461188c565b61167483602061188c565b604051602001611685929190611cbd565b60408051601f198184030181529082905262461bcd60e51b825261034191600401611d32565b6116b582826114e7565b610cd85760008281526008602090815260408083206001600160a01b03851684529091529020805460ff191660011790556116ed3390565b6001600160a01b0316816001600160a01b0316837f2f8788117e7eff1d82e926ec794901d17c78024a50270940304540a733656f0d60405160405180910390a45050565b61173b82826114e7565b15610cd85760008281526008602090815260408083206001600160a01b0385168085529252808320805460ff1916905551339285917ff6391f5c32d9c69d2a47ea670b442974b53935d1edc7fd64eb21e047a839171b9190a45050565b6001600160a01b0383163b6117ef5760405162461bcd60e51b815260206004820152601b60248201527f50726f78793a206e6f7420636f6e7472616374206164647265737300000000006044820152606401610341565b801561181d576000828152600a6020526040902080546001600160a01b0319166001600160a01b0385161790555b610a2483825b6001600160a01b0382166000818152600b6020908152604091829020805460ff191685151590811790915591519182527f72558d9bfba4210f9ef095c782589484151f6d90f7a81bb3cb9b33efc695d324910160405180910390a25050565b610cd882826116ab565b6060600061189b836002611e3e565b6118a6906002611e26565b67ffffffffffffffff8111156118cc57634e487b7160e01b600052604160045260246000fd5b6040519080825280601f01601f1916602001820160405280156118f6576020820181803683370190505b509050600360fc1b8160008151811061191f57634e487b7160e01b600052603260045260246000fd5b60200101906001600160f81b031916908160001a905350600f60fb1b8160018151811061195c57634e487b7160e01b600052603260045260246000fd5b60200101906001600160f81b031916908160001a9053506000611980846002611e3e565b61198b906001611e26565b90505b6001811115611a1f576f181899199a1a9b1b9c1cb0b131b232b360811b85600f16601081106119cd57634e487b7160e01b600052603260045260246000fd5b1a60f81b8282815181106119f157634e487b7160e01b600052603260045260246000fd5b60200101906001600160f81b031916908160001a90535060049490941c93611a1881611e89565b905061198e565b508315611a6e5760405162461bcd60e51b815260206004820181905260248201527f537472696e67733a20686578206c656e67746820696e73756666696369656e746044820152606401610341565b9392505050565b80356001600160a01b03811681146114e257600080fd5b600060208284031215611a9d578081fd5b611a6e82611a75565b600080600080600060a08688031215611abd578081fd5b611ac686611a75565b9450611ad460208701611a75565b9350611ae260408701611a75565b9250611af060608701611a75565b9150611afe60808701611a75565b90509295509295909350565b60008060408385031215611b1c578182fd5b611b2583611a75565b91506020830135611b3581611ed1565b809150509250929050565b600080600060608486031215611b54578283fd5b611b5d84611a75565b9250602084013591506040840135611b7481611ed1565b809150509250925092565b600080600060408486031215611b93578283fd5b833567ffffffffffffffff80821115611baa578485fd5b818601915086601f830112611bbd578485fd5b813581811115611bcb578586fd5b8760208260051b8501011115611bdf578586fd5b602092830195509350611bf59186019050611a75565b90509250925092565b600060208284031215611c0f578081fd5b8135611a6e81611ed1565b600060208284031215611c2b578081fd5b8151611a6e81611ed1565b600060208284031215611c47578081fd5b5035919050565b60008060408385031215611c60578182fd5b82359150611c7060208401611a75565b90509250929050565b600060208284031215611c8a578081fd5b81356001600160e01b031981168114611a6e578182fd5b60008251611cb3818460208701611e5d565b9190910192915050565b7f416363657373436f6e74726f6c3a206163636f756e7420000000000000000000815260008351611cf5816017850160208801611e5d565b7001034b99036b4b9b9b4b733903937b6329607d1b6017918401918201528351611d26816028840160208801611e5d565b01602801949350505050565b6020815260008251806020840152611d51816040850160208701611e5d565b601f01601f19169190910160400192915050565b60208082526022908201527f41636365737369626c653a2043616c6c6572206973206e6f7420616e2061646d60408201526134b760f11b606082015260800190565b60208082526028908201527f41636365737369626c653a2043616c6c6572206973206e6f7420616e2070726f6040820152673c3c9030b236b4b760c11b606082015260800190565b6020808252601b908201527f426f6e644465706f7369746f72793a7a65726f20616464726573730000000000604082015260600190565b60008219821115611e3957611e39611ebb565b500190565b6000816000190483118215151615611e5857611e58611ebb565b500290565b60005b83811015611e78578181015183820152602001611e60565b838111156110725750506000910152565b600081611e9857611e98611ebb565b506000190190565b6000600019821415611eb457611eb4611ebb565b5060010190565b634e487b7160e01b600052601160045260246000fd5b80151581146110e457600080fdfedf8b4c520ffe197c5343c6f5aec59570151ef9a492f2c624fd45ddde6135ec42fb5864e8ff833c3cb2d2d08505e82ff02a43554c74a35d4f5a64e8526127831113da86008ba1c6922daee3e07db95305ef49ebced9f5467a0b8613fcc6b343e3a264697066735822122078fa62b23dc2fca4882a31d1873079f761f513748ad5ce73f69b7ceda425a67e64736f6c63430008040033df8b4c520ffe197c5343c6f5aec59570151ef9a492f2c624fd45ddde6135ec42",
  "linkReferences": {},
  "deployedLinkReferences": {}
}