{
  "_format": "hh-sol-artifact-1",
  "contractName": "BonusRateLockUpA",
  "sourceName": "contracts/libraries/BonusRateLockUpA.sol",
  "abi": [
    {
      "inputs": [
        {
          "internalType": "uint256",
          "name": "_id",
          "type": "uint256"
        },
        {
          "internalType": "uint8",
          "name": "_weeks",
          "type": "uint8"
        }
      ],
      "name": "getRatesByWeeks",
      "outputs": [
        {
          "internalType": "uint16",
          "name": "rate",
          "type": "uint16"
        }
      ],
      "stateMutability": "pure",
      "type": "function"
    },
    {
      "inputs": [
        {
          "internalType": "uint8",
          "name": "_weeks",
          "type": "uint8"
        }
      ],
      "name": "getRatesByWeeks1",
      "outputs": [
        {
          "internalType": "uint16",
          "name": "",
          "type": "uint16"
        }
      ],
      "stateMutability": "pure",
      "type": "function"
    },
    {
      "inputs": [],
      "name": "getRatesByWeeks2",
      "outputs": [
        {
          "internalType": "uint16",
          "name": "",
          "type": "uint16"
        }
      ],
      "stateMutability": "pure",
      "type": "function"
    }
  ],
  "bytecode": "0x61038761003a600b82828239805160001a60731461002d57634e487b7160e01b600052600060045260246000fd5b30600052607381538281f3fe730000000000000000000000000000000000000000301460806040526004361061004b5760003560e01c80633266c98714610050578063ac1b029f1461007a578063bb6d8c911461008d575b600080fd5b61006361005e366004610305565b610095565b60405161ffff909116815260200160405180910390f35b610063610088366004610330565b6101fe565b6119c8610063565b60008261018b57600d8260ff1610156100b0575060006101f8565b601a8260ff1610156100c557506102586101f8565b60278260ff1610156100da57506104b06101f8565b60348260ff1610156100ef57506107086101f8565b60418260ff16101561010457506109606101f8565b604e8260ff1610156101195750610bb86101f8565b605b8260ff16101561012e5750610e106101f8565b60688260ff16101561014357506110686101f8565b60758260ff16101561015857506112c06101f8565b60828260ff16101561016d57506115186101f8565b608f8260ff16101561018257506117706101f8565b506119c86101f8565b601a8260ff16101561019f575060006101f8565b60348260ff1610156101b457506104b06101f8565b604e8260ff1610156101c957506109606101f8565b60688260ff1610156101de5750610e106101f8565b60828260ff1610156101f357506112c06101f8565b506117705b92915050565b6000600d8260ff16101561021457506000919050565b601a8260ff1610156102295750610258919050565b60278260ff16101561023e57506104b0919050565b60348260ff1610156102535750610708919050565b60418260ff1610156102685750610960919050565b604e8260ff16101561027d5750610bb8919050565b605b8260ff1610156102925750610e10919050565b60688260ff1610156102a75750611068919050565b60758260ff1610156102bc57506112c0919050565b60828260ff1610156102d15750611518919050565b608f8260ff1610156102e65750611770919050565b506119c8919050565b919050565b803560ff811681146102ef57600080fd5b60008060408385031215610317578182fd5b82359150610327602084016102f4565b90509250929050565b600060208284031215610341578081fd5b61034a826102f4565b939250505056fea26469706673582212203361b559e5809039ef1608c3dc2e28a7b5d521ecb80b189198c9b5f745187a7664736f6c63430008040033",
  "linkReferences": {},
  "deployedLinkReferences": {}
}