{
  "_format": "hh-sol-artifact-1",
  "contractName": "BonusRateLockUpBytes",
  "sourceName": "contracts/BonusRateLockUpBytes.sol",
  "abi": [
    {
      "inputs": [],
      "stateMutability": "nonpayable",
      "type": "constructor"
    },
    {
      "anonymous": false,
      "inputs": [
        {
          "indexed": false,
          "internalType": "uint256",
          "name": "_id",
          "type": "uint256"
        },
        {
          "indexed": false,
          "internalType": "uint8",
          "name": "_intervalWeeks",
          "type": "uint8"
        }
      ],
      "name": "CreatedBonusRates",
      "type": "event"
    },
    {
      "inputs": [
        {
          "internalType": "uint256",
          "name": "",
          "type": "uint256"
        }
      ],
      "name": "bonusRates",
      "outputs": [
        {
          "internalType": "uint8",
          "name": "intervalWeeks",
          "type": "uint8"
        },
        {
          "internalType": "bytes",
          "name": "rates",
          "type": "bytes"
        }
      ],
      "stateMutability": "view",
      "type": "function"
    },
    {
      "inputs": [
        {
          "internalType": "uint8",
          "name": "_intervalWeeks",
          "type": "uint8"
        },
        {
          "internalType": "bytes",
          "name": "_rates",
          "type": "bytes"
        }
      ],
      "name": "createBonusRates",
      "outputs": [],
      "stateMutability": "nonpayable",
      "type": "function"
    },
    {
      "inputs": [
        {
          "internalType": "uint256",
          "name": "_id",
          "type": "uint256"
        },
        {
          "internalType": "uint256",
          "name": "index",
          "type": "uint256"
        }
      ],
      "name": "getRatesByIndex",
      "outputs": [
        {
          "internalType": "uint16",
          "name": "rate",
          "type": "uint16"
        }
      ],
      "stateMutability": "view",
      "type": "function"
    },
    {
      "inputs": [
        {
          "internalType": "uint256",
          "name": "_id",
          "type": "uint256"
        },
        {
          "internalType": "uint8",
          "name": "_weeks",
          "type": "uint8"
        }
      ],
      "name": "getRatesByWeeks",
      "outputs": [
        {
          "internalType": "uint16",
          "name": "rate",
          "type": "uint16"
        }
      ],
      "stateMutability": "view",
      "type": "function"
    },
    {
      "inputs": [
        {
          "internalType": "uint256",
          "name": "_id",
          "type": "uint256"
        }
      ],
      "name": "getRatesInfo",
      "outputs": [
        {
          "components": [
            {
              "internalType": "uint8",
              "name": "intervalWeeks",
              "type": "uint8"
            },
            {
              "internalType": "bytes",
              "name": "rates",
              "type": "bytes"
            }
          ],
          "internalType": "struct BonusRateLockUpBytes.BonusRates",
          "name": "",
          "type": "tuple"
        }
      ],
      "stateMutability": "view",
      "type": "function"
    },
    {
      "inputs": [],
      "name": "id",
      "outputs": [
        {
          "internalType": "uint256",
          "name": "",
          "type": "uint256"
        }
      ],
      "stateMutability": "view",
      "type": "function"
    }
  ],
  "bytecode": "0x608060405234801561001057600080fd5b50610a3f806100206000396000f3fe608060405234801561001057600080fd5b50600436106100625760003560e01c80633266c9871461006757806350bc0251146100925780637bc30c9e146100b2578063828282e9146100c7578063ade764be146100e8578063af640d0f146100fb575b600080fd5b61007a610075366004610764565b610112565b60405161ffff90911681526020015b60405180910390f35b6100a56100a036600461072b565b61022d565b6040516100899190610897565b6100c56100c036600461078f565b6102fe565b005b6100da6100d536600461072b565b61042f565b6040516100899291906108bf565b61007a6100f6366004610743565b6104d9565b61010460005481565b604051908152602001610089565b60008281526001602081815260408084208151808301909252805460ff1682529283018054859492938401919061014890610971565b80601f016020809104026020016040519081016040528092919081815260200182805461017490610971565b80156101c15780601f10610196576101008083540402835291602001916101c1565b820191906000526020600020905b8154815290600101906020018083116101a457829003601f168201915b50505091909252505081519192505060ff16156102265780516000906101e79085610907565b905060028260200151516101fb91906108f3565b8160ff16101561022457610221610213826002610948565b60208401519060ff166105d1565b92505b505b5092915050565b6040805180820190915260008152606060208201526000828152600160208181526040928390208351808501909452805460ff16845291820180549184019161027590610971565b80601f01602080910402602001604051908101604052809291908181526020018280546102a190610971565b80156102ee5780601f106102c3576101008083540402835291602001916102ee565b820191906000526020600020905b8154815290600101906020018083116102d157829003601f168201915b5050505050815250509050919050565b60ff82166103495760405162461bcd60e51b81526020600482015260136024820152727a65726f205f696e74657276616c5765656b7360681b60448201526064015b60405180910390fd5b80516103885760405162461bcd60e51b815260206004820152600e60248201526d726174657320697320656d70747960901b6044820152606401610340565b600080549080610397836109ac565b909155505060408051808201825260ff8481168252602080830185815260008054815260018084529590208451815460ff19169416939093178355518051939492936103ea93850192919091019061067c565b50506000546040805191825260ff851660208301527f655f07e611c31c073dc02fbed7d4f7ec3c707a91613d69b8f64a6fa72064dfe492500160405180910390a15050565b60016020819052600091825260409091208054918101805460ff9093169261045690610971565b80601f016020809104026020016040519081016040528092919081815260200182805461048290610971565b80156104cf5780601f106104a4576101008083540402835291602001916104cf565b820191906000526020600020905b8154815290600101906020018083116104b257829003601f168201915b5050505050905082565b60008281526001602081815260408084208151808301909252805460ff1682529283018054859492938401919061050f90610971565b80601f016020809104026020016040519081016040528092919081815260200182805461053b90610971565b80156105885780601f1061055d57610100808354040283529160200191610588565b820191906000526020600020905b81548152906001019060200180831161056b57829003601f168201915b50505091909252505081519192505060ff161515806105ab575080602001515183105b15610226576105c96105be846002610929565b6020830151906105d1565b949350505050565b6000816105df8160026108db565b10156106215760405162461bcd60e51b8152602060048201526011602482015270746f55696e7431365f6f766572666c6f7760781b6044820152606401610340565b61062c8260026108db565b835110156106735760405162461bcd60e51b8152602060048201526014602482015273746f55696e7431365f6f75744f66426f756e647360601b6044820152606401610340565b50016002015190565b82805461068890610971565b90600052602060002090601f0160209004810192826106aa57600085556106f0565b82601f106106c357805160ff19168380011785556106f0565b828001600101855582156106f0579182015b828111156106f05782518255916020019190600101906106d5565b506106fc929150610700565b5090565b5b808211156106fc5760008155600101610701565b803560ff8116811461072657600080fd5b919050565b60006020828403121561073c578081fd5b5035919050565b60008060408385031215610755578081fd5b50508035926020909101359150565b60008060408385031215610776578182fd5b8235915061078660208401610715565b90509250929050565b600080604083850312156107a1578182fd5b6107aa83610715565b9150602083013567ffffffffffffffff808211156107c6578283fd5b818501915085601f8301126107d9578283fd5b8135818111156107eb576107eb6109f3565b604051601f8201601f19908116603f01168101908382118183101715610813576108136109f3565b8160405282815288602084870101111561082b578586fd5b82602086016020830137856020848301015280955050505050509250929050565b60008151808452815b8181101561087157602081850181015186830182015201610855565b818111156108825782602083870101525b50601f01601f19169290920160200192915050565b6020815260ff8251166020820152600060208301516040808401526105c9606084018261084c565b60ff831681526040602082015260006105c9604083018461084c565b600082198211156108ee576108ee6109c7565b500190565b600082610902576109026109dd565b500490565b600060ff83168061091a5761091a6109dd565b8060ff84160491505092915050565b6000816000190483118215151615610943576109436109c7565b500290565b600060ff821660ff84168160ff0481118215151615610969576109696109c7565b029392505050565b600181811c9082168061098557607f821691505b602082108114156109a657634e487b7160e01b600052602260045260246000fd5b50919050565b60006000198214156109c0576109c06109c7565b5060010190565b634e487b7160e01b600052601160045260246000fd5b634e487b7160e01b600052601260045260246000fd5b634e487b7160e01b600052604160045260246000fdfea264697066735822122052f1d74dfdb51ba572cc06898326632aa9622084ecb86a6c1c4ec736b5f6b06364736f6c63430008040033",
  "linkReferences": {},
  "deployedLinkReferences": {}
}