{
  "_format": "hh-sol-artifact-1",
  "contractName": "BonusRateLockUpA",
  "sourceName": "contracts/libraries/BonusRateLockUpA.sol",
  "abi": [
    {
      "inputs": [
        {
          "internalType": "uint256",
          "name": "_id",
          "type": "uint256"
        },
        {
          "internalType": "uint8",
          "name": "_weeks",
          "type": "uint8"
        }
      ],
      "name": "getRatesByWeeks",
      "outputs": [
        {
          "internalType": "uint16",
          "name": "rate",
          "type": "uint16"
        }
      ],
      "stateMutability": "pure",
      "type": "function"
    },
    {
      "inputs": [
        {
          "internalType": "uint256",
          "name": "_id",
          "type": "uint256"
        }
      ],
      "name": "getRatesInfo",
      "outputs": [
        {
          "internalType": "uint8",
          "name": "intervalWeeks",
          "type": "uint8"
        },
        {
          "internalType": "uint16[]",
          "name": "rates",
          "type": "uint16[]"
        }
      ],
      "stateMutability": "pure",
      "type": "function"
    }
  ],
  "bytecode": "0x61058061003a600b82828239805160001a60731461002d57634e487b7160e01b600052600060045260246000fd5b30600052607381538281f3fe73000000000000000000000000000000000000000030146080604052600436106100405760003560e01c80633266c9871461004557806350bc025114610070575b600080fd5b610058610053366004610444565b610091565b60405161ffff90911681526020015b60405180910390f35b61008361007e36600461042c565b6102ff565b604051610067929190610478565b6000826001141561010d57601a8260ff1610156100b0575060006102f9565b60348260ff1610156100c557506104b06102f9565b604e8260ff1610156100da57506109606102f9565b60688260ff1610156100ef5750610e106102f9565b60828260ff16101561010457506112c06102f9565b506117706102f9565b826002141561020557600d8260ff16101561012a575060006102f9565b601a8260ff16101561013f57506101f46102f9565b60278260ff16101561015457506103e86102f9565b60348260ff16101561016957506105dc6102f9565b60418260ff16101561017e57506107d06102f9565b604e8260ff16101561019357506109c46102f9565b605b8260ff1610156101a85750610bb86102f9565b60688260ff1610156101bd5750610dac6102f9565b60758260ff1610156101d25750610fa06102f9565b60828260ff1610156101e757506111946102f9565b608f8260ff1610156101fc57506113886102f9565b5061157c6102f9565b82600314156102f957600d8260ff161015610222575060006102f9565b601a8260ff16101561023757506102586102f9565b60278260ff16101561024c57506104b06102f9565b60348260ff16101561026157506107086102f9565b60418260ff16101561027657506109606102f9565b604e8260ff16101561028b5750610bb86102f9565b605b8260ff1610156102a05750610e106102f9565b60688260ff1610156102b557506110686102f9565b60758260ff1610156102ca57506112c06102f9565b60828260ff1610156102df57506115186102f9565b608f8260ff1610156102f457506117706102f9565b506119c85b92915050565b60006060600080846001141561032d57601a935061031e84609c6104cc565b60ff1691506104b09050610377565b846002141561035457600d935061034584609c6104cc565b60ff1691506101f49050610377565b846003141561037757600d935061036c84609c6104cc565b60ff16915061025890505b8167ffffffffffffffff81111561039e57634e487b7160e01b600052604160045260246000fd5b6040519080825280602002602001820160405280156103c7578160200160208202803683370190505b50925060005b82811015610424576103df82826104fa565b8482815181106103ff57634e487b7160e01b600052603260045260246000fd5b61ffff909216602092830291909101909101528061041c81610519565b9150506103cd565b505050915091565b60006020828403121561043d578081fd5b5035919050565b60008060408385031215610456578081fd5b82359150602083013560ff8116811461046d578182fd5b809150509250929050565b60006040820160ff8516835260206040818501528185518084526060860191508287019350845b818110156104bf57845161ffff168352938301939183019160010161049f565b5090979650505050505050565b600060ff8316806104eb57634e487b7160e01b82526012600452602482fd5b8060ff84160491505092915050565b600081600019048311821515161561051457610514610534565b500290565b600060001982141561052d5761052d610534565b5060010190565b634e487b7160e01b600052601160045260246000fdfea26469706673582212203fe0f0a0655fc062b2758216309eb22e05b94e22646dfa95a46d3a1b142e3c8e64736f6c63430008040033",
  "linkReferences": {},
  "deployedLinkReferences": {}
}