{
  "_format": "hh-sol-artifact-1",
  "contractName": "BonusRateLockUp",
  "sourceName": "contracts/BonusRateLockUp.sol",
  "abi": [
    {
      "inputs": [],
      "stateMutability": "nonpayable",
      "type": "constructor"
    },
    {
      "anonymous": false,
      "inputs": [
        {
          "indexed": false,
          "internalType": "uint256",
          "name": "_id",
          "type": "uint256"
        },
        {
          "indexed": false,
          "internalType": "uint8",
          "name": "_intervalWeeks",
          "type": "uint8"
        },
        {
          "indexed": false,
          "internalType": "uint16[]",
          "name": "_rates",
          "type": "uint16[]"
        }
      ],
      "name": "CreatedBonusRates",
      "type": "event"
    },
    {
      "inputs": [
        {
          "internalType": "uint256",
          "name": "",
          "type": "uint256"
        }
      ],
      "name": "bonusRates",
      "outputs": [
        {
          "internalType": "uint8",
          "name": "intervalWeeks",
          "type": "uint8"
        }
      ],
      "stateMutability": "view",
      "type": "function"
    },
    {
      "inputs": [
        {
          "internalType": "uint8",
          "name": "_intervalWeeks",
          "type": "uint8"
        },
        {
          "internalType": "uint16[]",
          "name": "_rates",
          "type": "uint16[]"
        }
      ],
      "name": "createBonusRates",
      "outputs": [],
      "stateMutability": "nonpayable",
      "type": "function"
    },
    {
      "inputs": [
        {
          "internalType": "uint256",
          "name": "_id",
          "type": "uint256"
        },
        {
          "internalType": "uint256",
          "name": "index",
          "type": "uint256"
        }
      ],
      "name": "getRatesByIndex",
      "outputs": [
        {
          "internalType": "uint16",
          "name": "rate",
          "type": "uint16"
        }
      ],
      "stateMutability": "view",
      "type": "function"
    },
    {
      "inputs": [
        {
          "internalType": "uint256",
          "name": "_id",
          "type": "uint256"
        },
        {
          "internalType": "uint8",
          "name": "_weeks",
          "type": "uint8"
        }
      ],
      "name": "getRatesByWeeks",
      "outputs": [
        {
          "internalType": "uint16",
          "name": "rate",
          "type": "uint16"
        }
      ],
      "stateMutability": "view",
      "type": "function"
    },
    {
      "inputs": [
        {
          "internalType": "uint256",
          "name": "_id",
          "type": "uint256"
        }
      ],
      "name": "getRatesInfo",
      "outputs": [
        {
          "components": [
            {
              "internalType": "uint8",
              "name": "intervalWeeks",
              "type": "uint8"
            },
            {
              "internalType": "uint16[]",
              "name": "rates",
              "type": "uint16[]"
            }
          ],
          "internalType": "struct BonusRateLockUp.BonusRates",
          "name": "",
          "type": "tuple"
        }
      ],
      "stateMutability": "view",
      "type": "function"
    },
    {
      "inputs": [],
      "name": "id",
      "outputs": [
        {
          "internalType": "uint256",
          "name": "",
          "type": "uint256"
        }
      ],
      "stateMutability": "view",
      "type": "function"
    }
  ],
  "bytecode": "0x608060405234801561001057600080fd5b506109e0806100206000396000f3fe608060405234801561001057600080fd5b50600436106100625760003560e01c80633266c9871461006757806350bc02511461009257806356f90159146100b2578063828282e9146100c7578063ade764be146100fc578063af640d0f1461010f575b600080fd5b61007a61007536600461078c565b610126565b60405161ffff90911681526020015b60405180910390f35b6100a56100a0366004610753565b610230565b6040516100899190610893565b6100c56100c03660046107b7565b6102e8565b005b6100ea6100d5366004610753565b60016020526000908152604090205460ff1681565b60405160ff9091168152602001610089565b61007a61010a36600461076b565b6104b4565b61011860005481565b604051908152602001610089565b600082815260016020818152604080842081518083018352815460ff1681529381018054835181860281018601909452808452869594929385840193909291908301828280156101bd57602002820191906000526020600020906000905b82829054906101000a900461ffff1661ffff16815260200190600201906020826001010492830192600103820291508084116101845790505b50505091909252505081519192505060ff16156102295780516000906101e39085610955565b90508160200151518160ff1610156102275781602001518160ff168151811061021c57634e487b7160e01b600052603260045260246000fd5b602002602001015192505b505b5092915050565b60408051808201909152600081526060602082015260008281526001602081815260409283902083518085018552815460ff168152928101805485518185028101850190965280865293949193858401938301828280156102d857602002820191906000526020600020906000905b82829054906101000a900461ffff1661ffff168152602001906002019060208260010104928301926001038202915080841161029f5790505b5050505050815250509050919050565b60ff83166103335760405162461bcd60e51b81526020600482015260136024820152727a65726f205f696e74657276616c5765656b7360681b60448201526064015b60405180910390fd5b806103715760405162461bcd60e51b815260206004820152600e60248201526d726174657320697320656d70747960901b604482015260640161032a565b60008054908061038083610983565b91905055506103ae60405180604001604052806005815260200164696420257360d81b8152506000546105a8565b6040805180820190915260ff84168152602081018267ffffffffffffffff8111156103e957634e487b7160e01b600052604160045260246000fd5b604051908082528060200260200182016040528015610412578160200160208202803683370190505b5090526000805481526001602081815260409092208351815460ff191660ff909116178155838301518051919361044e93850192910190610612565b505060008054815260016020819052604090912061046f92500183836106bb565b507f8a5014a478b4b138a695a88f2112b73932da1aace6bab995bea932747baf479f6000548484846040516104a794939291906108f2565b60405180910390a1505050565b600082815260016020818152604080842081518083018352815460ff16815293810180548351818602810186019094528084528695949293858401939092919083018282801561054b57602002820191906000526020600020906000905b82829054906101000a900461ffff1661ffff16815260200190600201906020826001010492830192600103820291508084116105125790505b50505091909252505081519192505060ff1615158061056e575080602001515183105b15610229578060200151838151811061059757634e487b7160e01b600052603260045260246000fd5b602002602001015191505092915050565b6105ed82826040516024016105be929190610838565b60408051601f198184030181529190526020810180516001600160e01b03166309710a9d60e41b1790526105f1565b5050565b80516a636f6e736f6c652e6c6f67602083016000808483855afa5050505050565b82805482825590600052602060002090600f016010900481019282156106ab5791602002820160005b8382111561067b57835183826101000a81548161ffff021916908361ffff160217905550926020019260020160208160010104928301926001030261063b565b80156106a95782816101000a81549061ffff021916905560020160208160010104928301926001030261067b565b505b506106b7929150610728565b5090565b82805482825590600052602060002090600f016010900481019282156106ab5791602002820160005b8382111561067b57833561ffff1683826101000a81548161ffff021916908361ffff16021790555092602001926002016020816001010492830192600103026106e4565b5b808211156106b75760008155600101610729565b803560ff8116811461074e57600080fd5b919050565b600060208284031215610764578081fd5b5035919050565b6000806040838503121561077d578081fd5b50508035926020909101359150565b6000806040838503121561079e578182fd5b823591506107ae6020840161073d565b90509250929050565b6000806000604084860312156107cb578081fd5b6107d48461073d565b9250602084013567ffffffffffffffff808211156107f0578283fd5b818601915086601f830112610803578283fd5b813581811115610811578384fd5b8760208260051b8501011115610825578384fd5b6020830194508093505050509250925092565b6040815260008351806040840152815b818110156108655760208187018101516060868401015201610848565b818111156108765782606083860101525b50602083019390935250601f91909101601f191601606001919050565b6020808252825160ff16828201528281015160408084015280516060840181905260009291820190839060808601905b808310156108e757835161ffff1682529284019260019290920191908401906108c3565b509695505050505050565b600060608201868352602060ff8716818501526060604085015281858352608085019050869250835b8681101561094857833561ffff8116808214610935578687fd5b835250928201929082019060010161091b565b5098975050505050505050565b600060ff83168061097457634e487b7160e01b82526012600452602482fd5b8060ff84160491505092915050565b60006000198214156109a357634e487b7160e01b81526011600452602481fd5b506001019056fea26469706673582212203835027c3ee6b078c0e3d86211fd593455db5a7478f7e322fa48cb2b0fb55ddf64736f6c63430008040033",
  "linkReferences": {},
  "deployedLinkReferences": {}
}