{
  "_format": "hh-sol-artifact-1",
  "contractName": "BonusRateLockUp",
  "sourceName": "contracts/BonusRateLockUp.sol",
  "abi": [
    {
      "inputs": [],
      "stateMutability": "nonpayable",
      "type": "constructor"
    },
    {
      "anonymous": false,
      "inputs": [
        {
          "indexed": false,
          "internalType": "uint256",
          "name": "_id",
          "type": "uint256"
        },
        {
          "indexed": false,
          "internalType": "uint8",
          "name": "_intervalWeeks",
          "type": "uint8"
        }
      ],
      "name": "CreatedBonusRates",
      "type": "event"
    },
    {
      "inputs": [
        {
          "internalType": "uint256",
          "name": "",
          "type": "uint256"
        }
      ],
      "name": "bonusRates",
      "outputs": [
        {
          "internalType": "uint8",
          "name": "intervalWeeks",
          "type": "uint8"
        }
      ],
      "stateMutability": "view",
      "type": "function"
    },
    {
      "inputs": [
        {
          "internalType": "uint8",
          "name": "_intervalWeeks",
          "type": "uint8"
        },
        {
          "internalType": "uint16[]",
          "name": "_rates",
          "type": "uint16[]"
        }
      ],
      "name": "createBonusRates",
      "outputs": [],
      "stateMutability": "nonpayable",
      "type": "function"
    },
    {
      "inputs": [
        {
          "internalType": "uint256",
          "name": "_id",
          "type": "uint256"
        },
        {
          "internalType": "uint256",
          "name": "index",
          "type": "uint256"
        }
      ],
      "name": "getRatesByIndex",
      "outputs": [
        {
          "internalType": "uint16",
          "name": "rate",
          "type": "uint16"
        }
      ],
      "stateMutability": "view",
      "type": "function"
    },
    {
      "inputs": [
        {
          "internalType": "uint256",
          "name": "_id",
          "type": "uint256"
        },
        {
          "internalType": "uint8",
          "name": "_weeks",
          "type": "uint8"
        }
      ],
      "name": "getRatesByWeeks",
      "outputs": [
        {
          "internalType": "uint16",
          "name": "rate",
          "type": "uint16"
        }
      ],
      "stateMutability": "view",
      "type": "function"
    },
    {
      "inputs": [
        {
          "internalType": "uint256",
          "name": "_id",
          "type": "uint256"
        }
      ],
      "name": "getRatesInfo",
      "outputs": [
        {
          "components": [
            {
              "internalType": "uint8",
              "name": "intervalWeeks",
              "type": "uint8"
            },
            {
              "internalType": "uint16[]",
              "name": "rates",
              "type": "uint16[]"
            }
          ],
          "internalType": "struct BonusRateLockUp.BonusRates",
          "name": "",
          "type": "tuple"
        }
      ],
      "stateMutability": "view",
      "type": "function"
    },
    {
      "inputs": [],
      "name": "id",
      "outputs": [
        {
          "internalType": "uint256",
          "name": "",
          "type": "uint256"
        }
      ],
      "stateMutability": "view",
      "type": "function"
    }
  ],
  "bytecode": "0x608060405234801561001057600080fd5b5061088e806100206000396000f3fe608060405234801561001057600080fd5b50600436106100625760003560e01c80633266c9871461006757806350bc02511461009257806356f90159146100b2578063828282e9146100c7578063ade764be146100fc578063af640d0f1461010f575b600080fd5b61007a6100753660046106f8565b610126565b60405161ffff90911681526020015b60405180910390f35b6100a56100a03660046106bf565b610230565b60405161008991906107a4565b6100c56100c0366004610723565b6102e8565b005b6100ea6100d53660046106bf565b60016020526000908152604090205460ff1681565b60405160ff9091168152602001610089565b61007a61010a3660046106d7565b61048a565b61011860005481565b604051908152602001610089565b600082815260016020818152604080842081518083018352815460ff1681529381018054835181860281018601909452808452869594929385840193909291908301828280156101bd57602002820191906000526020600020906000905b82829054906101000a900461ffff1661ffff16815260200190600201906020826001010492830192600103820291508084116101845790505b50505091909252505081519192505060ff16156102295780516000906101e39085610803565b90508160200151518160ff1610156102275781602001518160ff168151811061021c57634e487b7160e01b600052603260045260246000fd5b602002602001015192505b505b5092915050565b60408051808201909152600081526060602082015260008281526001602081815260409283902083518085018552815460ff168152928101805485518185028101850190965280865293949193858401938301828280156102d857602002820191906000526020600020906000905b82829054906101000a900461ffff1661ffff168152602001906002019060208260010104928301926001038202915080841161029f5790505b5050505050815250509050919050565b60ff83166103335760405162461bcd60e51b81526020600482015260136024820152727a65726f205f696e74657276616c5765656b7360681b60448201526064015b60405180910390fd5b806103715760405162461bcd60e51b815260206004820152600e60248201526d726174657320697320656d70747960901b604482015260640161032a565b60008054908061038083610831565b90915550506040805180820190915260ff84168152602081018267ffffffffffffffff8111156103c057634e487b7160e01b600052604160045260246000fd5b6040519080825280602002602001820160405280156103e9578160200160208202803683370190505b5090526000805481526001602081815260409092208351815460ff191660ff90911617815583830151805191936104259385019291019061057e565b50506000805481526001602081905260409091206104469250018383610627565b506000546040805191825260ff851660208301527f655f07e611c31c073dc02fbed7d4f7ec3c707a91613d69b8f64a6fa72064dfe4910160405180910390a1505050565b600082815260016020818152604080842081518083018352815460ff16815293810180548351818602810186019094528084528695949293858401939092919083018282801561052157602002820191906000526020600020906000905b82829054906101000a900461ffff1661ffff16815260200190600201906020826001010492830192600103820291508084116104e85790505b50505091909252505081519192505060ff16151580610544575080602001515183105b15610229578060200151838151811061056d57634e487b7160e01b600052603260045260246000fd5b602002602001015191505092915050565b82805482825590600052602060002090600f016010900481019282156106175791602002820160005b838211156105e757835183826101000a81548161ffff021916908361ffff16021790555092602001926002016020816001010492830192600103026105a7565b80156106155782816101000a81549061ffff02191690556002016020816001010492830192600103026105e7565b505b50610623929150610694565b5090565b82805482825590600052602060002090600f016010900481019282156106175791602002820160005b838211156105e757833561ffff1683826101000a81548161ffff021916908361ffff1602179055509260200192600201602081600101049283019260010302610650565b5b808211156106235760008155600101610695565b803560ff811681146106ba57600080fd5b919050565b6000602082840312156106d0578081fd5b5035919050565b600080604083850312156106e9578081fd5b50508035926020909101359150565b6000806040838503121561070a578182fd5b8235915061071a602084016106a9565b90509250929050565b600080600060408486031215610737578081fd5b610740846106a9565b9250602084013567ffffffffffffffff8082111561075c578283fd5b818601915086601f83011261076f578283fd5b81358181111561077d578384fd5b8760208260051b8501011115610791578384fd5b6020830194508093505050509250925092565b6020808252825160ff16828201528281015160408084015280516060840181905260009291820190839060808601905b808310156107f857835161ffff1682529284019260019290920191908401906107d4565b509695505050505050565b600060ff83168061082257634e487b7160e01b82526012600452602482fd5b8060ff84160491505092915050565b600060001982141561085157634e487b7160e01b81526011600452602481fd5b506001019056fea26469706673582212203be95c7e1f581ec257a16412380b25b63051ae1dd03a67d2f30a6f3c4c98977764736f6c63430008040033",
  "linkReferences": {},
  "deployedLinkReferences": {}
}