{
  "_format": "hh-sol-artifact-1",
  "contractName": "LibBondDepositoryV1_1",
  "sourceName": "contracts/libraries/LibBondDepositoryV1_1.sol",
  "abi": [
    {
      "inputs": [
        {
          "internalType": "uint256",
          "name": "_tosPrice",
          "type": "uint256"
        },
        {
          "internalType": "uint256",
          "name": "_amount",
          "type": "uint256"
        },
        {
          "internalType": "uint256",
          "name": "_erc20Decimal",
          "type": "uint256"
        }
      ],
      "name": "calculateTosAmountForAsset",
      "outputs": [
        {
          "internalType": "uint256",
          "name": "payout",
          "type": "uint256"
        }
      ],
      "stateMutability": "pure",
      "type": "function"
    },
    {
      "inputs": [
        {
          "internalType": "uint256",
          "name": "_tosPrice",
          "type": "uint256"
        },
        {
          "internalType": "uint256",
          "name": "_maxPayout",
          "type": "uint256"
        }
      ],
      "name": "purchasableAssetAmountAtOneTime",
      "outputs": [
        {
          "internalType": "uint256",
          "name": "maxPayout_",
          "type": "uint256"
        }
      ],
      "stateMutability": "pure",
      "type": "function"
    }
  ],
  "bytecode": "0x61029061003a600b82828239805160001a60731461002d57634e487b7160e01b600052600060045260246000fd5b30600052607381538281f3fe73000000000000000000000000000000000000000030146080604052600436106100405760003560e01c806360a66f5814610045578063a339ee721461006a575b600080fd5b6100586100533660046100ce565b61007d565b60405190815260200160405180910390f35b6100586100783660046100ef565b6100a5565b60008261009283670de0b6b3a7640000610225565b61009c919061011a565b90505b92915050565b60006100b282600a61017d565b6100bc8585610225565b6100c6919061011a565b949350505050565b600080604083850312156100e0578182fd5b50508035926020909101359150565b600080600060608486031215610103578081fd5b505081359360208301359350604090920135919050565b60008261013557634e487b7160e01b81526012600452602481fd5b500490565b600181815b8085111561017557816000190482111561015b5761015b610244565b8085161561016857918102915b93841c939080029061013f565b509250929050565b600061009c83836000826101935750600161009f565b816101a05750600061009f565b81600181146101b657600281146101c0576101dc565b600191505061009f565b60ff8411156101d1576101d1610244565b50506001821b61009f565b5060208310610133831016604e8410600b84101617156101ff575081810a61009f565b610209838361013a565b806000190482111561021d5761021d610244565b029392505050565b600081600019048311821515161561023f5761023f610244565b500290565b634e487b7160e01b600052601160045260246000fdfea2646970667358221220072f15670203646521aa4e7e9cc6884a2b7396645b76256391044d5808ec10c364736f6c63430008040033",
  "linkReferences": {},
  "deployedLinkReferences": {}
}