{
  "_format": "hh-sol-artifact-1",
  "contractName": "LockTOSv2Logic0",
  "sourceName": "contracts/stake/LockTOSv2Logic0.sol",
  "abi": [
    {
      "anonymous": false,
      "inputs": [
        {
          "indexed": false,
          "internalType": "address",
          "name": "account",
          "type": "address"
        },
        {
          "indexed": false,
          "internalType": "uint256",
          "name": "lockId",
          "type": "uint256"
        },
        {
          "indexed": false,
          "internalType": "uint256",
          "name": "value",
          "type": "uint256"
        }
      ],
      "name": "LockAmountIncreased",
      "type": "event"
    },
    {
      "anonymous": false,
      "inputs": [
        {
          "indexed": false,
          "internalType": "address",
          "name": "account",
          "type": "address"
        },
        {
          "indexed": false,
          "internalType": "uint256",
          "name": "lockId",
          "type": "uint256"
        },
        {
          "indexed": false,
          "internalType": "uint256",
          "name": "value",
          "type": "uint256"
        },
        {
          "indexed": false,
          "internalType": "uint256",
          "name": "unlockTime",
          "type": "uint256"
        }
      ],
      "name": "LockCreated",
      "type": "event"
    },
    {
      "anonymous": false,
      "inputs": [
        {
          "indexed": false,
          "internalType": "address",
          "name": "account",
          "type": "address"
        },
        {
          "indexed": false,
          "internalType": "uint256",
          "name": "lockId",
          "type": "uint256"
        },
        {
          "indexed": false,
          "internalType": "uint256",
          "name": "value",
          "type": "uint256"
        }
      ],
      "name": "LockDeposited",
      "type": "event"
    },
    {
      "anonymous": false,
      "inputs": [
        {
          "indexed": false,
          "internalType": "address",
          "name": "account",
          "type": "address"
        },
        {
          "indexed": false,
          "internalType": "uint256",
          "name": "lockId",
          "type": "uint256"
        },
        {
          "indexed": false,
          "internalType": "uint256",
          "name": "unlockTime",
          "type": "uint256"
        }
      ],
      "name": "LockUnlockTimeIncreased",
      "type": "event"
    },
    {
      "anonymous": false,
      "inputs": [
        {
          "indexed": false,
          "internalType": "address",
          "name": "account",
          "type": "address"
        },
        {
          "indexed": false,
          "internalType": "uint256",
          "name": "lockId",
          "type": "uint256"
        },
        {
          "indexed": false,
          "internalType": "uint256",
          "name": "value",
          "type": "uint256"
        }
      ],
      "name": "LockWithdrawn",
      "type": "event"
    },
    {
      "anonymous": false,
      "inputs": [
        {
          "indexed": true,
          "internalType": "bytes32",
          "name": "role",
          "type": "bytes32"
        },
        {
          "indexed": true,
          "internalType": "bytes32",
          "name": "previousAdminRole",
          "type": "bytes32"
        },
        {
          "indexed": true,
          "internalType": "bytes32",
          "name": "newAdminRole",
          "type": "bytes32"
        }
      ],
      "name": "RoleAdminChanged",
      "type": "event"
    },
    {
      "anonymous": false,
      "inputs": [
        {
          "indexed": true,
          "internalType": "bytes32",
          "name": "role",
          "type": "bytes32"
        },
        {
          "indexed": true,
          "internalType": "address",
          "name": "account",
          "type": "address"
        },
        {
          "indexed": true,
          "internalType": "address",
          "name": "sender",
          "type": "address"
        }
      ],
      "name": "RoleGranted",
      "type": "event"
    },
    {
      "anonymous": false,
      "inputs": [
        {
          "indexed": true,
          "internalType": "bytes32",
          "name": "role",
          "type": "bytes32"
        },
        {
          "indexed": true,
          "internalType": "address",
          "name": "account",
          "type": "address"
        },
        {
          "indexed": true,
          "internalType": "address",
          "name": "sender",
          "type": "address"
        }
      ],
      "name": "RoleRevoked",
      "type": "event"
    },
    {
      "inputs": [],
      "name": "ADMIN_ROLE",
      "outputs": [
        {
          "internalType": "bytes32",
          "name": "",
          "type": "bytes32"
        }
      ],
      "stateMutability": "view",
      "type": "function"
    },
    {
      "inputs": [],
      "name": "BURNER_ROLE",
      "outputs": [
        {
          "internalType": "bytes32",
          "name": "",
          "type": "bytes32"
        }
      ],
      "stateMutability": "view",
      "type": "function"
    },
    {
      "inputs": [],
      "name": "DEFAULT_ADMIN_ROLE",
      "outputs": [
        {
          "internalType": "bytes32",
          "name": "",
          "type": "bytes32"
        }
      ],
      "stateMutability": "view",
      "type": "function"
    },
    {
      "inputs": [],
      "name": "MINTER_ROLE",
      "outputs": [
        {
          "internalType": "bytes32",
          "name": "",
          "type": "bytes32"
        }
      ],
      "stateMutability": "view",
      "type": "function"
    },
    {
      "inputs": [],
      "name": "MULTIPLIER",
      "outputs": [
        {
          "internalType": "uint256",
          "name": "",
          "type": "uint256"
        }
      ],
      "stateMutability": "view",
      "type": "function"
    },
    {
      "inputs": [],
      "name": "PROJECT_ADMIN_ROLE",
      "outputs": [
        {
          "internalType": "bytes32",
          "name": "",
          "type": "bytes32"
        }
      ],
      "stateMutability": "view",
      "type": "function"
    },
    {
      "inputs": [],
      "name": "activeHolders",
      "outputs": [
        {
          "internalType": "address[]",
          "name": "",
          "type": "address[]"
        }
      ],
      "stateMutability": "view",
      "type": "function"
    },
    {
      "inputs": [
        {
          "internalType": "address",
          "name": "_addr",
          "type": "address"
        }
      ],
      "name": "activeLocksOf",
      "outputs": [
        {
          "internalType": "uint256[]",
          "name": "",
          "type": "uint256[]"
        }
      ],
      "stateMutability": "view",
      "type": "function"
    },
    {
      "inputs": [
        {
          "internalType": "address",
          "name": "account",
          "type": "address"
        }
      ],
      "name": "addAdmin",
      "outputs": [],
      "stateMutability": "nonpayable",
      "type": "function"
    },
    {
      "inputs": [
        {
          "internalType": "address",
          "name": "",
          "type": "address"
        }
      ],
      "name": "aliveImplementation",
      "outputs": [
        {
          "internalType": "bool",
          "name": "",
          "type": "bool"
        }
      ],
      "stateMutability": "view",
      "type": "function"
    },
    {
      "inputs": [],
      "name": "allHolders",
      "outputs": [
        {
          "internalType": "address[]",
          "name": "",
          "type": "address[]"
        }
      ],
      "stateMutability": "view",
      "type": "function"
    },
    {
      "inputs": [
        {
          "internalType": "uint256",
          "name": "",
          "type": "uint256"
        }
      ],
      "name": "allLocks",
      "outputs": [
        {
          "internalType": "uint256",
          "name": "start",
          "type": "uint256"
        },
        {
          "internalType": "uint256",
          "name": "end",
          "type": "uint256"
        },
        {
          "internalType": "uint256",
          "name": "amount",
          "type": "uint256"
        },
        {
          "internalType": "bool",
          "name": "withdrawn",
          "type": "bool"
        }
      ],
      "stateMutability": "view",
      "type": "function"
    },
    {
      "inputs": [
        {
          "internalType": "address",
          "name": "_addr",
          "type": "address"
        }
      ],
      "name": "balanceOf",
      "outputs": [
        {
          "internalType": "uint256",
          "name": "balance",
          "type": "uint256"
        }
      ],
      "stateMutability": "view",
      "type": "function"
    },
    {
      "inputs": [
        {
          "internalType": "address",
          "name": "_addr",
          "type": "address"
        },
        {
          "internalType": "uint256",
          "name": "_timestamp",
          "type": "uint256"
        }
      ],
      "name": "balanceOfAt",
      "outputs": [
        {
          "internalType": "uint256",
          "name": "balance",
          "type": "uint256"
        }
      ],
      "stateMutability": "view",
      "type": "function"
    },
    {
      "inputs": [
        {
          "internalType": "uint256",
          "name": "_lockId",
          "type": "uint256"
        }
      ],
      "name": "balanceOfLock",
      "outputs": [
        {
          "internalType": "uint256",
          "name": "",
          "type": "uint256"
        }
      ],
      "stateMutability": "view",
      "type": "function"
    },
    {
      "inputs": [
        {
          "internalType": "uint256",
          "name": "_lockId",
          "type": "uint256"
        },
        {
          "internalType": "uint256",
          "name": "_timestamp",
          "type": "uint256"
        }
      ],
      "name": "balanceOfLockAt",
      "outputs": [
        {
          "internalType": "uint256",
          "name": "",
          "type": "uint256"
        }
      ],
      "stateMutability": "view",
      "type": "function"
    },
    {
      "inputs": [
        {
          "internalType": "address",
          "name": "user",
          "type": "address"
        },
        {
          "internalType": "uint256",
          "name": "_value",
          "type": "uint256"
        },
        {
          "internalType": "uint256",
          "name": "_unlockWeeks",
          "type": "uint256"
        }
      ],
      "name": "createLockByStaker",
      "outputs": [
        {
          "internalType": "uint256",
          "name": "lockId",
          "type": "uint256"
        }
      ],
      "stateMutability": "nonpayable",
      "type": "function"
    },
    {
      "inputs": [],
      "name": "cumulativeEpochUnit",
      "outputs": [
        {
          "internalType": "uint256",
          "name": "",
          "type": "uint256"
        }
      ],
      "stateMutability": "view",
      "type": "function"
    },
    {
      "inputs": [],
      "name": "cumulativeTOSAmount",
      "outputs": [
        {
          "internalType": "uint256",
          "name": "",
          "type": "uint256"
        }
      ],
      "stateMutability": "view",
      "type": "function"
    },
    {
      "inputs": [],
      "name": "currentStakedTotalTOS",
      "outputs": [
        {
          "internalType": "uint256",
          "name": "",
          "type": "uint256"
        }
      ],
      "stateMutability": "view",
      "type": "function"
    },
    {
      "inputs": [
        {
          "internalType": "address",
          "name": "_addr",
          "type": "address"
        },
        {
          "internalType": "uint256",
          "name": "_lockId",
          "type": "uint256"
        },
        {
          "internalType": "uint256",
          "name": "_value",
          "type": "uint256"
        }
      ],
      "name": "depositFor",
      "outputs": [],
      "stateMutability": "nonpayable",
      "type": "function"
    },
    {
      "inputs": [],
      "name": "epochUnit",
      "outputs": [
        {
          "internalType": "uint256",
          "name": "",
          "type": "uint256"
        }
      ],
      "stateMutability": "view",
      "type": "function"
    },
    {
      "inputs": [],
      "name": "getCurrentTime",
      "outputs": [
        {
          "internalType": "uint256",
          "name": "",
          "type": "uint256"
        }
      ],
      "stateMutability": "view",
      "type": "function"
    },
    {
      "inputs": [
        {
          "internalType": "bytes32",
          "name": "role",
          "type": "bytes32"
        }
      ],
      "name": "getRoleAdmin",
      "outputs": [
        {
          "internalType": "bytes32",
          "name": "",
          "type": "bytes32"
        }
      ],
      "stateMutability": "view",
      "type": "function"
    },
    {
      "inputs": [
        {
          "internalType": "bytes32",
          "name": "role",
          "type": "bytes32"
        },
        {
          "internalType": "uint256",
          "name": "index",
          "type": "uint256"
        }
      ],
      "name": "getRoleMember",
      "outputs": [
        {
          "internalType": "address",
          "name": "",
          "type": "address"
        }
      ],
      "stateMutability": "view",
      "type": "function"
    },
    {
      "inputs": [
        {
          "internalType": "bytes32",
          "name": "role",
          "type": "bytes32"
        }
      ],
      "name": "getRoleMemberCount",
      "outputs": [
        {
          "internalType": "uint256",
          "name": "",
          "type": "uint256"
        }
      ],
      "stateMutability": "view",
      "type": "function"
    },
    {
      "inputs": [],
      "name": "globalCheckpoint",
      "outputs": [],
      "stateMutability": "nonpayable",
      "type": "function"
    },
    {
      "inputs": [
        {
          "internalType": "bytes32",
          "name": "role",
          "type": "bytes32"
        },
        {
          "internalType": "address",
          "name": "account",
          "type": "address"
        }
      ],
      "name": "grantRole",
      "outputs": [],
      "stateMutability": "nonpayable",
      "type": "function"
    },
    {
      "inputs": [
        {
          "internalType": "bytes32",
          "name": "role",
          "type": "bytes32"
        },
        {
          "internalType": "address",
          "name": "account",
          "type": "address"
        }
      ],
      "name": "hasRole",
      "outputs": [
        {
          "internalType": "bool",
          "name": "",
          "type": "bool"
        }
      ],
      "stateMutability": "view",
      "type": "function"
    },
    {
      "inputs": [
        {
          "internalType": "uint256",
          "name": "",
          "type": "uint256"
        }
      ],
      "name": "inUse",
      "outputs": [
        {
          "internalType": "bool",
          "name": "",
          "type": "bool"
        }
      ],
      "stateMutability": "view",
      "type": "function"
    },
    {
      "inputs": [
        {
          "internalType": "address",
          "name": "user",
          "type": "address"
        },
        {
          "internalType": "uint256",
          "name": "_lockId",
          "type": "uint256"
        },
        {
          "internalType": "uint256",
          "name": "_value",
          "type": "uint256"
        }
      ],
      "name": "increaseAmountByStaker",
      "outputs": [],
      "stateMutability": "nonpayable",
      "type": "function"
    },
    {
      "inputs": [
        {
          "internalType": "address[]",
          "name": "users",
          "type": "address[]"
        },
        {
          "internalType": "uint256[]",
          "name": "_lockIds",
          "type": "uint256[]"
        },
        {
          "internalType": "uint256[]",
          "name": "_values",
          "type": "uint256[]"
        },
        {
          "internalType": "uint256",
          "name": "curTime",
          "type": "uint256"
        }
      ],
      "name": "increaseAmountOfIds",
      "outputs": [],
      "stateMutability": "nonpayable",
      "type": "function"
    },
    {
      "inputs": [
        {
          "internalType": "address",
          "name": "user",
          "type": "address"
        },
        {
          "internalType": "uint256",
          "name": "_lockId",
          "type": "uint256"
        },
        {
          "internalType": "uint256",
          "name": "_value",
          "type": "uint256"
        },
        {
          "internalType": "uint256",
          "name": "_unlockWeeks",
          "type": "uint256"
        }
      ],
      "name": "increaseAmountUnlockTimeByStaker",
      "outputs": [],
      "stateMutability": "nonpayable",
      "type": "function"
    },
    {
      "inputs": [
        {
          "internalType": "address",
          "name": "user",
          "type": "address"
        },
        {
          "internalType": "uint256",
          "name": "_lockId",
          "type": "uint256"
        },
        {
          "internalType": "uint256",
          "name": "_unlockWeeks",
          "type": "uint256"
        }
      ],
      "name": "increaseUnlockTimeByStaker",
      "outputs": [],
      "stateMutability": "nonpayable",
      "type": "function"
    },
    {
      "inputs": [
        {
          "internalType": "address",
          "name": "account",
          "type": "address"
        }
      ],
      "name": "isAdmin",
      "outputs": [
        {
          "internalType": "bool",
          "name": "",
          "type": "bool"
        }
      ],
      "stateMutability": "view",
      "type": "function"
    },
    {
      "inputs": [],
      "name": "lockIdCounter",
      "outputs": [
        {
          "internalType": "uint256",
          "name": "",
          "type": "uint256"
        }
      ],
      "stateMutability": "view",
      "type": "function"
    },
    {
      "inputs": [
        {
          "internalType": "uint256",
          "name": "",
          "type": "uint256"
        },
        {
          "internalType": "uint256",
          "name": "",
          "type": "uint256"
        }
      ],
      "name": "lockPointHistory",
      "outputs": [
        {
          "internalType": "int256",
          "name": "bias",
          "type": "int256"
        },
        {
          "internalType": "int256",
          "name": "slope",
          "type": "int256"
        },
        {
          "internalType": "uint256",
          "name": "timestamp",
          "type": "uint256"
        }
      ],
      "stateMutability": "view",
      "type": "function"
    },
    {
      "inputs": [],
      "name": "lock_",
      "outputs": [
        {
          "internalType": "bool",
          "name": "",
          "type": "bool"
        }
      ],
      "stateMutability": "view",
      "type": "function"
    },
    {
      "inputs": [
        {
          "internalType": "address",
          "name": "",
          "type": "address"
        },
        {
          "internalType": "uint256",
          "name": "",
          "type": "uint256"
        }
      ],
      "name": "lockedBalances",
      "outputs": [
        {
          "internalType": "uint256",
          "name": "start",
          "type": "uint256"
        },
        {
          "internalType": "uint256",
          "name": "end",
          "type": "uint256"
        },
        {
          "internalType": "uint256",
          "name": "amount",
          "type": "uint256"
        },
        {
          "internalType": "bool",
          "name": "withdrawn",
          "type": "bool"
        }
      ],
      "stateMutability": "view",
      "type": "function"
    },
    {
      "inputs": [
        {
          "internalType": "uint256",
          "name": "_lockId",
          "type": "uint256"
        }
      ],
      "name": "locksInfo",
      "outputs": [
        {
          "internalType": "uint256",
          "name": "start",
          "type": "uint256"
        },
        {
          "internalType": "uint256",
          "name": "end",
          "type": "uint256"
        },
        {
          "internalType": "uint256",
          "name": "amount",
          "type": "uint256"
        }
      ],
      "stateMutability": "view",
      "type": "function"
    },
    {
      "inputs": [
        {
          "internalType": "address",
          "name": "_addr",
          "type": "address"
        }
      ],
      "name": "locksOf",
      "outputs": [
        {
          "internalType": "uint256[]",
          "name": "",
          "type": "uint256[]"
        }
      ],
      "stateMutability": "view",
      "type": "function"
    },
    {
      "inputs": [],
      "name": "maxTime",
      "outputs": [
        {
          "internalType": "uint256",
          "name": "",
          "type": "uint256"
        }
      ],
      "stateMutability": "view",
      "type": "function"
    },
    {
      "inputs": [],
      "name": "migratedL2",
      "outputs": [
        {
          "internalType": "bool",
          "name": "",
          "type": "bool"
        }
      ],
      "stateMutability": "view",
      "type": "function"
    },
    {
      "inputs": [],
      "name": "needCheckpoint",
      "outputs": [
        {
          "internalType": "bool",
          "name": "need",
          "type": "bool"
        }
      ],
      "stateMutability": "view",
      "type": "function"
    },
    {
      "inputs": [],
      "name": "pauseProxy",
      "outputs": [
        {
          "internalType": "bool",
          "name": "",
          "type": "bool"
        }
      ],
      "stateMutability": "view",
      "type": "function"
    },
    {
      "inputs": [
        {
          "internalType": "uint256",
          "name": "",
          "type": "uint256"
        }
      ],
      "name": "pointHistory",
      "outputs": [
        {
          "internalType": "int256",
          "name": "bias",
          "type": "int256"
        },
        {
          "internalType": "int256",
          "name": "slope",
          "type": "int256"
        },
        {
          "internalType": "uint256",
          "name": "timestamp",
          "type": "uint256"
        }
      ],
      "stateMutability": "view",
      "type": "function"
    },
    {
      "inputs": [
        {
          "internalType": "uint256",
          "name": "_lockId",
          "type": "uint256"
        }
      ],
      "name": "pointHistoryOf",
      "outputs": [
        {
          "components": [
            {
              "internalType": "int256",
              "name": "bias",
              "type": "int256"
            },
            {
              "internalType": "int256",
              "name": "slope",
              "type": "int256"
            },
            {
              "internalType": "uint256",
              "name": "timestamp",
              "type": "uint256"
            }
          ],
          "internalType": "struct LibLockTOS.Point[]",
          "name": "",
          "type": "tuple[]"
        }
      ],
      "stateMutability": "view",
      "type": "function"
    },
    {
      "inputs": [
        {
          "internalType": "uint256",
          "name": "",
          "type": "uint256"
        }
      ],
      "name": "proxyImplementation",
      "outputs": [
        {
          "internalType": "address",
          "name": "",
          "type": "address"
        }
      ],
      "stateMutability": "view",
      "type": "function"
    },
    {
      "inputs": [
        {
          "internalType": "address",
          "name": "account",
          "type": "address"
        }
      ],
      "name": "removeAdmin",
      "outputs": [],
      "stateMutability": "nonpayable",
      "type": "function"
    },
    {
      "inputs": [
        {
          "internalType": "bytes32",
          "name": "role",
          "type": "bytes32"
        },
        {
          "internalType": "address",
          "name": "account",
          "type": "address"
        }
      ],
      "name": "renounceRole",
      "outputs": [],
      "stateMutability": "nonpayable",
      "type": "function"
    },
    {
      "inputs": [
        {
          "internalType": "bytes32",
          "name": "role",
          "type": "bytes32"
        },
        {
          "internalType": "address",
          "name": "account",
          "type": "address"
        }
      ],
      "name": "revokeRole",
      "outputs": [],
      "stateMutability": "nonpayable",
      "type": "function"
    },
    {
      "inputs": [
        {
          "internalType": "bytes4",
          "name": "",
          "type": "bytes4"
        }
      ],
      "name": "selectorImplementation",
      "outputs": [
        {
          "internalType": "address",
          "name": "",
          "type": "address"
        }
      ],
      "stateMutability": "view",
      "type": "function"
    },
    {
      "inputs": [
        {
          "internalType": "uint256",
          "name": "_maxTime",
          "type": "uint256"
        }
      ],
      "name": "setMaxTime",
      "outputs": [],
      "stateMutability": "nonpayable",
      "type": "function"
    },
    {
      "inputs": [
        {
          "internalType": "address",
          "name": "_staker",
          "type": "address"
        }
      ],
      "name": "setStaker",
      "outputs": [],
      "stateMutability": "nonpayable",
      "type": "function"
    },
    {
      "inputs": [
        {
          "internalType": "uint256",
          "name": "",
          "type": "uint256"
        }
      ],
      "name": "slopeChanges",
      "outputs": [
        {
          "internalType": "int256",
          "name": "",
          "type": "int256"
        }
      ],
      "stateMutability": "view",
      "type": "function"
    },
    {
      "inputs": [],
      "name": "stakeRegistry",
      "outputs": [
        {
          "internalType": "address",
          "name": "",
          "type": "address"
        }
      ],
      "stateMutability": "view",
      "type": "function"
    },
    {
      "inputs": [],
      "name": "staker",
      "outputs": [
        {
          "internalType": "address",
          "name": "",
          "type": "address"
        }
      ],
      "stateMutability": "view",
      "type": "function"
    },
    {
      "inputs": [],
      "name": "tos",
      "outputs": [
        {
          "internalType": "address",
          "name": "",
          "type": "address"
        }
      ],
      "stateMutability": "view",
      "type": "function"
    },
    {
      "inputs": [
        {
          "internalType": "address",
          "name": "_addr",
          "type": "address"
        }
      ],
      "name": "totalLockedAmountOf",
      "outputs": [
        {
          "internalType": "uint256",
          "name": "",
          "type": "uint256"
        }
      ],
      "stateMutability": "view",
      "type": "function"
    },
    {
      "inputs": [],
      "name": "totalSupply",
      "outputs": [
        {
          "internalType": "uint256",
          "name": "",
          "type": "uint256"
        }
      ],
      "stateMutability": "view",
      "type": "function"
    },
    {
      "inputs": [
        {
          "internalType": "uint256",
          "name": "_timestamp",
          "type": "uint256"
        }
      ],
      "name": "totalSupplyAt",
      "outputs": [
        {
          "internalType": "uint256",
          "name": "",
          "type": "uint256"
        }
      ],
      "stateMutability": "view",
      "type": "function"
    },
    {
      "inputs": [
        {
          "internalType": "address",
          "name": "newAdmin",
          "type": "address"
        }
      ],
      "name": "transferAdmin",
      "outputs": [],
      "stateMutability": "nonpayable",
      "type": "function"
    },
    {
      "inputs": [
        {
          "internalType": "address",
          "name": "_treasury",
          "type": "address"
        }
      ],
      "name": "transferTosToTreasury",
      "outputs": [],
      "stateMutability": "nonpayable",
      "type": "function"
    },
    {
      "inputs": [
        {
          "internalType": "uint256",
          "name": "",
          "type": "uint256"
        }
      ],
      "name": "uniqueUsers",
      "outputs": [
        {
          "internalType": "address",
          "name": "",
          "type": "address"
        }
      ],
      "stateMutability": "view",
      "type": "function"
    },
    {
      "inputs": [
        {
          "internalType": "address",
          "name": "",
          "type": "address"
        },
        {
          "internalType": "uint256",
          "name": "",
          "type": "uint256"
        }
      ],
      "name": "userLocks",
      "outputs": [
        {
          "internalType": "uint256",
          "name": "",
          "type": "uint256"
        }
      ],
      "stateMutability": "view",
      "type": "function"
    },
    {
      "inputs": [],
      "name": "version2",
      "outputs": [
        {
          "internalType": "bool",
          "name": "",
          "type": "bool"
        }
      ],
      "stateMutability": "pure",
      "type": "function"
    },
    {
      "inputs": [
        {
          "internalType": "address",
          "name": "user",
          "type": "address"
        }
      ],
      "name": "withdrawAllByStaker",
      "outputs": [],
      "stateMutability": "nonpayable",
      "type": "function"
    },
    {
      "inputs": [
        {
          "internalType": "address",
          "name": "user",
          "type": "address"
        },
        {
          "internalType": "uint256",
          "name": "_lockId",
          "type": "uint256"
        }
      ],
      "name": "withdrawByStaker",
      "outputs": [],
      "stateMutability": "nonpayable",
      "type": "function"
    },
    {
      "inputs": [
        {
          "internalType": "address",
          "name": "_addr",
          "type": "address"
        }
      ],
      "name": "withdrawableAmountOf",
      "outputs": [
        {
          "internalType": "uint256",
          "name": "",
          "type": "uint256"
        }
      ],
      "stateMutability": "view",
      "type": "function"
    },
    {
      "inputs": [
        {
          "internalType": "address",
          "name": "_addr",
          "type": "address"
        }
      ],
      "name": "withdrawableLocksOf",
      "outputs": [
        {
          "internalType": "uint256[]",
          "name": "",
          "type": "uint256[]"
        }
      ],
      "stateMutability": "view",
      "type": "function"
    }
  ],
  "bytecode": "0x6080604052600160075534801561001557600080fd5b50614aa5806100256000396000f3fe608060405234801561001057600080fd5b50600436106103925760003560e01c80639010d07c116101e0578063c3f9ab5811610110578063dd383394116100a8578063dd38339414610799578063e43cb666146107ac578063ea31e895146107bf578063eb86b342146107c7578063ed50c699146107da578063efe2b720146107ed578063f52a36f714610800578063f52dde6d14610813578063fd2dcecf1461082657610392565b8063c3f9ab58146106f3578063c577365614610713578063c5dc1e5f14610728578063c79acdda14610748578063c80a3aa61461075b578063ca15c87314610763578063cd29ca0e14610776578063d53913931461077e578063d547741f1461078657610392565b8063a29a43bb11610183578063a29a43bb14610669578063aa33fedb1461067c578063afae883e1461068f578063b2e9a1b714610697578063b534ad561461069f578063b839c0a5146106a7578063b911135f146106ba578063b94419e0146106cd578063c0a37b3f146106e057610392565b80639010d07c146105e757806391d14854146105fa578063981b24d01461060d57806398b777e7146106205780639ce56305146106335780639f7166a414610646578063a1f5f50e14610659578063a217fddf1461066157610392565b80634cf5fbf5116102c6578063683048351161025e5780636830483514610568578063704802751461057057806370a082311461058357806373e1d4fe1461059657806375829def1461059e57806375b238fc146105b157806389f395de146105b95780638ad4c447146105c15780638bc6fff8146105d457610392565b80634cf5fbf5146104b65780634ee2cd7e146104c957806350d2a276146104dc578063550d01a3146104fc5780635d16a6f91461050f5780635ebaf1db1461053257806363a8fd891461053a57806363d5a3d914610542578063642cf6491461055557610392565b806322e67e711161033957806322e67e7114610428578063248a9ca31461043057806324d7806c14610443578063282c51f31461045657806329cb924d1461045e5780632f2ff15d1461046657806336568abe14610479578063367b7b231461048c57806341c04d5e146104ae57610392565b8063059f8b1614610397578063086c46f4146103b55780630b7858ba146103c85780630db9cb0c146103dd5780631785f53c146103f057806318160ddd146104055780631ac40e661461040d5780631b83194414610415575b600080fd5b61039f61082e565b6040516103ac91906144e5565b60405180910390f35b61039f6103c336600461412f565b61083a565b6103d0610906565b6040516103ac91906144da565b61039f6103eb366004614172565b61094a565b6104036103fe36600461412f565b610b60565b005b61039f610bbf565b610403610c91565b6104036104233660046141dc565b610c99565b61039f610f6b565b61039f61043e3660046142e4565b610f71565b6103d061045136600461412f565b610f86565b61039f610fa6565b61039f610fca565b6104036104743660046142fc565b610fce565b6104036104873660046142fc565b611035565b61049f61049a366004614327565b611096565b6040516103ac939291906144ee565b61039f6110d8565b6104036104c4366004614172565b6110fc565b61039f6104d7366004614149565b611282565b6104ef6104ea366004614348565b61133f565b6040516103ac9190614388565b6103d061050a36600461412f565b61135a565b61052261051d366004614149565b61136f565b6040516103ac949392919061484b565b6104ef6113a4565b6103d06113b8565b6105226105503660046142e4565b6113c1565b61039f610563366004614327565b6113eb565b6104ef611464565b61040361057e36600461412f565b611478565b61039f61059136600461412f565b6114d4565b6103d0611588565b6104036105ac36600461412f565b61158d565b61039f6116ae565b6104ef6116c0565b61049f6105cf3660046142e4565b6116cf565b6104036105e236600461412f565b611702565b6104ef6105f5366004614327565b6118f2565b6103d06106083660046142fc565b611911565b61039f61061b3660046142e4565b611929565b61040361062e3660046142e4565b6119bf565b61049f6106413660046142e4565b611a08565b61040361065436600461412f565b611a27565b6103d0611bcd565b61039f611bdd565b61040361067736600461412f565b611be2565b61039f61068a366004614149565b611ca7565b61039f611cd8565b6103d0611cde565b61039f611ce7565b6104036106b53660046141a4565b611ced565b6104ef6106c83660046142e4565b611f84565b61039f6106db3660046142e4565b611f9f565b6104036106ee366004614149565b612053565b61070661070136600461412f565b6120ff565b6040516103ac91906144a2565b61071b61216b565b6040516103ac91906143fc565b61073b6107363660046142e4565b612300565b6040516103ac9190614449565b6103d06107563660046142e4565b612390565b61071b6123a5565b61039f6107713660046142e4565b612407565b61039f61241e565b61039f612424565b6104036107943660046142fc565b612448565b6107066107a736600461412f565b6124a1565b6107066107ba36600461412f565b612705565b61039f6128cf565b61039f6107d536600461412f565b612955565b6104ef6107e83660046142e4565b612a3f565b6104036107fb366004614172565b612a69565b61039f61080e3660046142e4565b612acb565b610403610821366004614172565b612add565b61039f612cbb565b670de0b6b3a764000081565b6001600160a01b0381166000908152600d602052604081205481805b828110156108fc576001600160a01b0385166000908152600d6020526040812080548390811061088257fe5b60009182526020808320909101546001600160a01b0389168352600b8252604080842082855283529283902083516080810185528154815260018201549381019390935260028101549383018490526003015460ff16151560608301529250906108ed908590612cc1565b93505050806001019050610856565b509150505b919050565b6009546000908061091b576001915050610947565b6001546009600183038154811061092e57fe5b9060005260206000209060030201600201544203119150505b90565b60145460009061010090046001600160a01b0316331461099f576040805162461bcd60e51b8152602060048201526014602482015260008051602061496d833981519152604482015290519081900360640190fd5b600083116109c85760405162461bcd60e51b81526004016109bf90614694565b60405180910390fd5b600082116109e85760405162461bcd60e51b81526004016109bf9061475f565b6005546109f59083612cc1565b600555600654610a059084612cc1565b600655600154600090610a2490610a1d908590612d1b565b4290612cc1565b600154909150610a3e90610a388382612d74565b90612d1b565b90506002544282031115610a645760405162461bcd60e51b81526004016109bf90614563565b6001600160a01b0385166000908152600d6020526040902054610acd57600880546001810182556000919091527ff3f7a9fe364faab93b216da50a3214154f22a0a2b415b23a84c8169e8b636ee30180546001600160a01b0319166001600160a01b0387161790555b600454610adb906001612cc1565b60048190559150610aee85838684612db6565b6001600160a01b0385166000908152600d6020908152604080832080546001810182559084529190922001839055517f71fc552ee832a9004ea0bdb07cb6dd9d641eb2cb53b3cfe88c8fdcff886734a090610b509087908590889086906143d6565b60405180910390a1509392505050565b610b6933610f86565b610ba45760405162461bcd60e51b81526004018080602001828103825260228152602001806148fa6022913960400191505060405180910390fd5b610bbc6000805160206149ae83398151915282611035565b50565b600954600090610bd157506000610947565b60098054600091610c27916000198101908110610bea57fe5b9060005260206000209060030201604051806060016040529081600082015481526020016001820154815260200160028201548152505042612fba565b90506000610c58610c4d610c488460400151426130b990919063ffffffff16565b6130fb565b602084015190613143565b9050610c8a670de0b6b3a764000082846000015113610c78576000610c84565b8351610c8490846131ec565b90612d74565b9250505090565b610bbc613251565b610ca233610f86565b610cdd5760405162461bcd60e51b81526004018080602001828103825260228152602001806148fa6022913960400191505060405180910390fd5b60008451118015610cef575082518451145b8015610cfc575081518451145b610d185760405162461bcd60e51b81526004016109bf906145e9565b835160005b81811015610f63576000868281518110610d3357fe5b602002602001015190506000868381518110610d4b57fe5b602002602001015190506000868481518110610d6357fe5b6020908102919091018101516001600160a01b0385166000908152600b835260408082208683528452908190208151608081018352815481526001820154948101949094526002810154918401919091526003015460ff161580156060840181905291935090610dd35750600082115b15610f5357600654610de59083612cc1565b5060408051608081018252825181526020808401519082015281830151918101829052600060608201528291610e1b9085612cc1565b6040820152610e2b81838b61344a565b6001600160a01b0386166000908152600b60209081526040808320888452825280832084518155828501805160018084019190915583870180516002808601919091556060890180516003968701805491151560ff19928316179055600c9098529588208951815593519284019290925551828201819055935191909201805491151591909416179092559054610ed391610c489190610c8490670de0b6b3a7640000612d1b565b90506000610efb610ef4610c488d86602001516130b990919063ffffffff16565b8390613143565b6040805160608101825291825260208083019485528282018e815260008b8152600a83529283208054600181810183559185529290932093516003909202909301908155935190840155516002909201919091555050505b505060019092019150610d1d9050565b505050505050565b60025481565b60009081526010602052604090206002015490565b6000610fa06000805160206149ae83398151915283611911565b92915050565b7f9667e80708b6eeeb0053fa0cca44e028ff548e2a9f029edfeac87c118b08b7c881565b4290565b600082815260106020526040902060020154610fec90610608613642565b6110275760405162461bcd60e51b815260040180806020018281038252602f8152602001806148cb602f913960400191505060405180910390fd5b6110318282613646565b5050565b61103d613642565b6001600160a01b0316816001600160a01b03161461108c5760405162461bcd60e51b815260040180806020018281038252602f815260200180614a41602f913960400191505060405180910390fd5b61103182826136af565b600a60205281600052604060002081815481106110b257600080fd5b600091825260209091206003909102018054600182015460029092015490935090915083565b7f52eafc11f6f81f86878bffd31109a0d92f37506527754f00788853ff9f63b13081565b60145461010090046001600160a01b0316331461114e576040805162461bcd60e51b8152602060048201526014602482015260008051602061496d833981519152604482015290519081900360640190fd5b6000811161116e5760405162461bcd60e51b81526004016109bf90614694565b6001600160a01b0383166000908152600b6020908152604080832085845282529182902082516080810184528154815260018201549281019290925260028101549282019290925260039091015460ff1615801560608301526111e35760405162461bcd60e51b81526004016109bf90614669565b80516112015760405162461bcd60e51b81526004016109bf9061481e565b428160200151116112245760405162461bcd60e51b81526004016109bf9061460f565b6006546112319083612cc1565b6006556112418484846000612db6565b7fea44bc904f77b1be47cd5b840b00f19b7238f88d7524fa5a86629282bfe6bcc5848484604051611274939291906143b5565b60405180910390a150505050565b6001600160a01b0382166000908152600d60209081526040808320805482518185028101850190935280835284938301828280156112df57602002820191906000526020600020905b8154815260200190600101908083116112cb575b505050505090508051600014156112fa576000915050610fa0565b60005b81518110156113375761132d61132683838151811061131857fe5b6020026020010151866113eb565b8490612cc1565b92506001016112fd565b505092915050565b6013602052600090815260409020546001600160a01b031681565b60126020526000908152604090205460ff1681565b600b60209081526000928352604080842090915290825290208054600182015460028301546003909301549192909160ff1684565b60145461010090046001600160a01b031681565b60005460ff1681565b600c6020526000908152604090208054600182015460028301546003909301549192909160ff1684565b6000828152600a60205260408120819081906114079085613718565b915091508161141b57600092505050610fa0565b600061143a610c4d610c488460400151886130b990919063ffffffff16565b905061145a670de0b6b3a764000082846000015113610c78576000610c84565b9695505050505050565b60005461010090046001600160a01b031681565b61148133610f86565b6114bc5760405162461bcd60e51b81526004018080602001828103825260228152602001806148fa6022913960400191505060405180910390fd5b610bbc6000805160206149ae83398151915282610fce565b6001600160a01b0381166000908152600d602090815260408083208054825181850281018501909352808352849383018282801561153157602002820191906000526020600020905b81548152602001906001019080831161151d575b5050505050905080516000141561154c576000915050610901565b60005b81518110156115815761157761132683838151811061156a57fe5b6020026020010151611f9f565b925060010161154f565b5050919050565b600190565b61159633610f86565b6115d15760405162461bcd60e51b81526004018080602001828103825260228152602001806148fa6022913960400191505060405180910390fd5b6001600160a01b038116611627576040805162461bcd60e51b815260206004820152601860248201527741636365737369626c653a207a65726f206164647265737360401b604482015290519081900360640190fd5b336001600160a01b038216141561167e576040805162461bcd60e51b815260206004820152601660248201527520b1b1b2b9b9b4b136329d1039b0b6b29030b236b4b760511b604482015290519081900360640190fd5b6116966000805160206149ae83398151915282610fce565b610bbc6000805160206149ae83398151915233611035565b6000805160206149ae83398151915281565b6003546001600160a01b031681565b600981815481106116df57600080fd5b600091825260209091206003909102018054600182015460029092015490925083565b61170b33610f86565b6117465760405162461bcd60e51b81526004018080602001828103825260228152602001806148fa6022913960400191505060405180910390fd5b6001600160a01b03811661176c5760405162461bcd60e51b81526004016109bf906146cb565b806001600160a01b031663842a3bdd6040518163ffffffff1660e01b815260040160206040518083038186803b1580156117a557600080fd5b505afa1580156117b9573d6000803e3d6000fd5b505050506040513d601f19601f820116820180604052508101906117dd91906142c4565b6117f95760405162461bcd60e51b81526004016109bf9061459a565b6003546040516370a0823160e01b81526001600160a01b039091169063a9059cbb90839083906370a0823190611833903090600401614388565b60206040518083038186803b15801561184b57600080fd5b505afa15801561185f573d6000803e3d6000fd5b505050506040513d601f19601f820116820180604052508101906118839190614370565b6040518363ffffffff1660e01b81526004016118a092919061439c565b602060405180830381600087803b1580156118ba57600080fd5b505af11580156118ce573d6000803e3d6000fd5b505050506040513d601f19601f8201168201806040525081019061103191906142c4565b600082815260106020526040812061190a9083613810565b9392505050565b600082815260106020526040812061190a908361381c565b60095460009061193b57506000610901565b600080611949600985613718565b915091508161195d57600092505050610901565b6119678185612fba565b90506000611985610c488360400151876130b990919063ffffffff16565b82602001510290506119b6670de0b6b3a7640000828460000151136119ab576000610c84565b835183900390612d74565b95945050505050565b6119c833610f86565b611a035760405162461bcd60e51b81526004018080602001828103825260228152602001806148fa6022913960400191505060405180910390fd5b600255565b6000908152600c60205260409020805460018201546002909201549092565b600754600114611a495760405162461bcd60e51b81526004016109bf906147ec565b600060075560145461010090046001600160a01b03163314611aa0576040805162461bcd60e51b8152602060048201526014602482015260008051602061496d833981519152604482015290519081900360640190fd5b6001600160a01b0381166000908152600d602052604090208054611ac45750611bc5565b60005b8154811015611bc2576000600c6000848481548110611ae257fe5b6000918252602080832090910154835282810193909352604091820190208151608081018352815481526001820154938101939093526002810154918301919091526003015460ff161580156060830181905291925090611b5957506000838381548110611b4c57fe5b9060005260206000200154115b8015611b69575060008160400151115b8015611b755750805115155b8015611b85575060008160200151115b8015611b945750428160200151105b15611bb957611bb984848481548110611ba957fe5b9060005260206000200154613831565b50600101611ac7565b50505b506001600755565b600054600160a81b900460ff1681565b600081565b611beb33610f86565b611c265760405162461bcd60e51b81526004018080602001828103825260228152602001806148fa6022913960400191505060405180910390fd5b6001600160a01b038116611c4c5760405162461bcd60e51b81526004016109bf906146cb565b6014546001600160a01b03828116610100909204161415611c7f5760405162461bcd60e51b81526004016109bf90614796565b601480546001600160a01b0390921661010002610100600160a81b0319909216919091179055565b600d6020528160005260406000208181548110611cc357600080fd5b90600052602060002001600091509150505481565b60045481565b60145460ff1681565b60055481565b60145461010090046001600160a01b03163314611d3f576040805162461bcd60e51b8152602060048201526014602482015260008051602061496d833981519152604482015290519081900360640190fd5b60008211611d5f5760405162461bcd60e51b81526004016109bf90614694565b60008111611d7f5760405162461bcd60e51b81526004016109bf9061475f565b6001600160a01b0384166000908152600b6020908152604080832086845282529182902082516080810184528154815260018201549281019290925260028101549282019290925260039091015460ff161580156060830152611df45760405162461bcd60e51b81526004016109bf90614669565b8051611e125760405162461bcd60e51b81526004016109bf9061481e565b42816020015111611e355760405162461bcd60e51b81526004016109bf9061460f565b6000611e5a611e4f60015485612d1b90919063ffffffff16565b602084015190612cc1565b600154909150611e6e90610a388382612d74565b905060025442820310611e935760405162461bcd60e51b81526004016109bf90614563565b80826020015110611eb65760405162461bcd60e51b81526004016109bf90614728565b6000826040015111611eda5760405162461bcd60e51b81526004016109bf90614533565b600654611ee79085612cc1565b600655600554611ef79084612cc1565b600555611f0686868684612db6565b7fea44bc904f77b1be47cd5b840b00f19b7238f88d7524fa5a86629282bfe6bcc5868686604051611f39939291906143b5565b60405180910390a17fb8596b0e78133666b86648f60233cc2d078144d06df7874ea9f612a3ccc3e2fb868683604051611f74939291906143b5565b60405180910390a1505050505050565b6011602052600090815260409020546001600160a01b031681565b6000818152600a602052604081205480611fbd576000915050610901565b6000838152600a6020526040812080546000198401908110611fdb57fe5b9060005260206000209060030201604051806060016040529081600082015481526020016001820154815260200160028201548152505090506000612033610c4d610c488460400151426130b990919063ffffffff16565b90506119b6670de0b6b3a764000082846000015113610c78576000610c84565b6007546001146120755760405162461bcd60e51b81526004016109bf906147ec565b600060075560145461010090046001600160a01b031633146120cc576040805162461bcd60e51b8152602060048201526014602482015260008051602061496d833981519152604482015290519081900360640190fd5b600081116120ec5760405162461bcd60e51b81526004016109bf906145c0565b6120f68282613831565b50506001600755565b6001600160a01b0381166000908152600d602090815260409182902080548351818402810184019094528084526060939283018282801561215f57602002820191906000526020600020905b81548152602001906001019080831161214b575b50505050509050919050565b6008546060906000906001600160401b038111801561218957600080fd5b506040519080825280602002602001820160405280156121b3578160200160208202803683370190505b5090506000805b60085481101561222a5760006121f0600883815481106121d657fe5b6000918252602090912001546001600160a01b0316612705565b805190915015612221578280600101935050600184838151811061221057fe5b911515602092830291909101909101525b506001016121ba565b506000816001600160401b038111801561224357600080fd5b5060405190808252806020026020018201604052801561226d578160200160208202803683370190505b5090506000805b6008548110156122f65784818151811061228a57fe5b6020026020010151156122ee57600881815481106122a457fe5b600091825260209091200154835160018401936001600160a01b0390921691859181106122cd57fe5b60200260200101906001600160a01b031690816001600160a01b0316815250505b600101612274565b5090935050505090565b6060600a6000838152602001908152602001600020805480602002602001604051908101604052809291908181526020016000905b828210156123855783829060005260206000209060030201604051806060016040529081600082015481526020016001820154815260200160028201548152505081526020019060010190612335565b505050509050919050565b600f6020526000908152604090205460ff1681565b606060088054806020026020016040519081016040528092919081815260200182805480156123fd57602002820191906000526020600020905b81546001600160a01b031681526001909101906020018083116123df575b5050505050905090565b6000818152601060205260408120610fa0906139fa565b60065481565b7ff0887ba65ee2024ea881d91b74c2450ef19e1557f03bed3ea9f16b037cbe2dc981565b60008281526010602052604090206002015461246690610608613642565b61108c5760405162461bcd60e51b815260040180806020018281038252603081526020018061493d6030913960400191505060405180910390fd5b60145460609061010090046001600160a01b031633146124f6576040805162461bcd60e51b8152602060048201526014602482015260008051602061496d833981519152604482015290519081900360640190fd5b6001600160a01b0382166000908152600d602052604081205490805b828110156125d4576001600160a01b0385166000908152600d6020526040812080548390811061253e57fe5b60009182526020808320909101546001600160a01b0389168352600b8252604080842082855283529283902083516080810185528154815260018201549381018490526002820154948101949094526003015460ff1615156060840152925042108015906125b0575060008160400151115b80156125be57506060810151155b156125ca576001909301925b5050600101612512565b506000816001600160401b03811180156125ed57600080fd5b50604051908082528060200260200182016040528015612617578160200160208202803683370190505b5090506000915060005b838110156126fc576001600160a01b0386166000908152600d6020526040812080548390811061264d57fe5b60009182526020808320909101546001600160a01b038a168352600b8252604080842082855283529283902083516080810185528154815260018201549381018490526002820154948101949094526003015460ff1615156060840152925042108015906126bf575060008160400151115b80156126cd57506060810151155b156126f257818486806001019750815181106126e557fe5b6020026020010181815250505b5050600101612621565b50949350505050565b6001600160a01b0381166000908152600d6020526040812054606091805b828110156127c6576001600160a01b0385166000908152600d6020526040812080548390811061274f57fe5b60009182526020808320909101546001600160a01b0389168352600b8252604080842082855283529283902083516080810185528154815260018201549381018490526002820154948101949094526003015460ff161515606084015292504210156127bc576001909301925b5050600101612723565b506000816001600160401b03811180156127df57600080fd5b50604051908082528060200260200182016040528015612809578160200160208202803683370190505b5090506000915060005b838110156126fc576001600160a01b0386166000908152600d6020526040812080548390811061283f57fe5b60009182526020808320909101546001600160a01b038a168352600b8252604080842082855283529283902083516080810185528154815260018201549381018490526002820154948101949094526003015460ff161515606084015292504210156128c557818486806001019750815181106128b857fe5b6020026020010181815250505b5050600101612813565b6003546040516370a0823160e01b81526000916001600160a01b0316906370a0823190612900903090600401614388565b60206040518083038186803b15801561291857600080fd5b505afa15801561292c573d6000803e3d6000fd5b505050506040513d601f19601f820116820180604052508101906129509190614370565b905090565b6001600160a01b0381166000908152600d602052604081205481805b828110156108fc576001600160a01b0385166000908152600d6020526040812080548390811061299d57fe5b60009182526020808320909101546001600160a01b0389168352600b8252604080842082855283529283902083516080810185528154815260018201549381018490526002820154948101949094526003015460ff161515606084015292504210801590612a0f575060008160400151115b8015612a1d57506060810151155b15612a35576040810151612a32908590612cc1565b93505b5050600101612971565b60088181548110612a4f57600080fd5b6000918252602090912001546001600160a01b0316905081565b60145461010090046001600160a01b03163314612abb576040805162461bcd60e51b8152602060048201526014602482015260008051602061496d833981519152604482015290519081900360640190fd5b612ac68383836110fc565b505050565b600e6020526000908152604090205481565b60145461010090046001600160a01b03163314612b2f576040805162461bcd60e51b8152602060048201526014602482015260008051602061496d833981519152604482015290519081900360640190fd5b60008111612b4f5760405162461bcd60e51b81526004016109bf9061475f565b600554612b5c9082612cc1565b6005556001600160a01b0383166000908152600b602090815260408083208584528252808320815160808101835281548152600180830154948201949094526002820154928101929092526003015460ff16151560608201529054909190612bc990611e4f908590612d1b565b600154909150612bdd90610a388382612d74565b905060025442820310612c025760405162461bcd60e51b81526004016109bf90614563565b42826020015111612c255760405162461bcd60e51b81526004016109bf906146f1565b80826020015110612c485760405162461bcd60e51b81526004016109bf90614728565b6000826040015111612c6c5760405162461bcd60e51b81526004016109bf90614533565b612c798585600084612db6565b7fb8596b0e78133666b86648f60233cc2d078144d06df7874ea9f612a3ccc3e2fb858583604051612cac939291906143b5565b60405180910390a15050505050565b60015481565b60008282018381101561190a576040805162461bcd60e51b815260206004820152601b60248201527f536166654d6174683a206164646974696f6e206f766572666c6f770000000000604482015290519081900360640190fd5b600082612d2a57506000610fa0565b82820282848281612d3757fe5b041461190a5760405162461bcd60e51b815260040180806020018281038252602181526020018061498d6021913960400191505060405180910390fd5b600061190a83836040518060400160405280601a81526020017f536166654d6174683a206469766973696f6e206279207a65726f000000000000815250613a05565b600754600114612dd85760405162461bcd60e51b81526004016109bf906147ec565b600060078190556001600160a01b0385168152600b602090815260408083208684528252808320815160808082018452825482526001830154828601908152600284015483860190815260039094015460ff1615156060808501919091528551928301865283518352905195820195909552915192820183905292810193909352909190612e669085612cc1565b60408201528215612e7957602081018390525b8051612e83574281525b612e8d8183613aa7565b6001600160a01b0386166000908152600b60209081526040808320888452825280832084518155828501805160018084019190915583870180516002808601919091556060890180516003968701805491151560ff19928316179055600c9098529588208951815593519284019290925551828201819055935191909201805491151591909416179092559054612f3591610c489190610c8490670de0b6b3a7640000612d1b565b90506000612f56610ef4610c484286602001516130b990919063ffffffff16565b6040805160608101825291825260208083019485524283830190815260009a8b52600a8252918a20805460018181018355918c5291909a20925160039091029092019182559251818901559151600290920191909155505050600792909255505050565b612fc261408b565b6001546040840151600091612fdb91610a389082612d74565b90505b8281146130b157613003612ffd60015483612cc190919063ffffffff16565b84613c77565b6000818152600e602052604080822054908701519293509161303690610c489061302e9086906130b9565b600154613c77565b905061305a61305282886020015161314390919063ffffffff16565b8751906131ec565b8652602086015161306b9083613c8d565b60208701528551600012613080576000613083565b85515b8652602086015160001261309857600061309e565b85602001515b6020870152505060408401819052612fde565b509192915050565b600061190a83836040518060400160405280601e81526020017f536166654d6174683a207375627472616374696f6e206f766572666c6f770000815250613cf2565b6000600160ff1b821061313f5760405162461bcd60e51b81526004018080602001828103825260288152602001806149f56028913960400191505060405180910390fd5b5090565b60008261315257506000610fa0565b826000191480156131665750600160ff1b82145b156131a25760405162461bcd60e51b81526004018080602001828103825260278152602001806149ce6027913960400191505060405180910390fd5b828202828482816131af57fe5b051461190a5760405162461bcd60e51b81526004018080602001828103825260278152602001806149ce6027913960400191505060405180910390fd5b60008183038183128015906132015750838113155b80613216575060008312801561321657508381135b61190a5760405162461bcd60e51b8152600401808060200182810382526024815260200180614a1d6024913960400191505060405180910390fd5b61325961408b565b6009544290156132b35760098054600019810190811061327557fe5b9060005260206000209060030201604051806060016040529081600082015481526020016001820154815260200160028201548152505091506132d3565b604051806060016040528060008152602001600081526020018281525091505b60015460408301516000916132ec91610a389082612d74565b90505b8181146134455761331461330e60015483612cc190919063ffffffff16565b83613c77565b6000818152600e602052604080822054908601519293509161333f90610c489061302e9086906130b9565b905061336361335b82876020015161314390919063ffffffff16565b8651906131ec565b855260208501516133749083613c8d565b6020860152845160001261338957600061338c565b84515b855260208501516000126133a15760006133a7565b84602001515b60208601908152604086018481526009805460018101825560009190915287517f6e1540171b6c0c960b71a7020d9f60077f6af931a8bbf590da0223dacf75c7af60039092029182015591517f6e1540171b6c0c960b71a7020d9f60077f6af931a8bbf590da0223dacf75c7b0830155517f6e1540171b6c0c960b71a7020d9f60077f6af931a8bbf590da0223dacf75c7b190910155506132ef9050565b505090565b60408051606080820183526000808352602080840182905283850182905284519283018552818352828101829052938201529185015183929083108015613495575060008660400151115b156134ed576134c2610c48600254610c84670de0b6b3a76400008a60400151612d1b90919063ffffffff16565b6020808401919091528601516134e090610c4d90610c4890866130b9565b8252602086015160408301525b828560200151118015613504575060008560400151115b1561356757613531610c48600254610c84670de0b6b3a76400008960400151612d1b90919063ffffffff16565b60208083019190915285015161355a9061354f90610c4890866130b9565b602083015190613143565b8152602085015160408201525b6000613571613251565b8251845191925061358d91613585916131ec565b825190613c8d565b8152602080830151908401516135b2916135a791906131ec565b602083015190613c8d565b602082015280516000126135c75760006135ca565b80515b815260208101516000126135df5760006135e5565b80602001515b60208201526009805482919060001981019081106135ff57fe5b9060005260206000209060030201600082015181600001556020820151816001015560408201518160020155905050613639838387613d4c565b50505050505050565b3390565b600082815260106020526040902061365e9082613e0f565b156110315761366b613642565b6001600160a01b0316816001600160a01b0316837f2f8788117e7eff1d82e926ec794901d17c78024a50270940304540a733656f0d60405160405180910390a45050565b60008281526010602052604090206136c79082613e24565b15611031576136d4613642565b6001600160a01b0316816001600160a01b0316837ff6391f5c32d9c69d2a47ea670b442974b53935d1edc7fd64eb21e047a839171b60405160405180910390a45050565b600061372261408b565b83546137315760009150613809565b83546000905b8082600101101561378b5760006137536002610c848585612cc1565b90508587828154811061376257fe5b9060005260206000209060030201600201541161378157809250613785565b8091505b50613737565b8486838154811061379857fe5b906000526020600020906003020160020154116138025760018683815481106137bd57fe5b90600052602060002090600302018060405180606001604052908160008201548152602001600182015481526020016002820154815250509050935093505050613809565b6000935050505b9250929050565b600061190a8383613e39565b600061190a836001600160a01b038416613e9d565b6001600160a01b0382166000908152600b6020908152604080832084845282529182902082516080810184528154815260018201549281019290925260028101549282019290925260039091015460ff1615801560608301526138a65760405162461bcd60e51b81526004016109bf9061463e565b80516138c45760405162461bcd60e51b81526004016109bf9061481e565b428160200151106138e75760405162461bcd60e51b81526004016109bf906147bc565b600081604001511161390b5760405162461bcd60e51b81526004016109bf90614504565b6040805160808101825260008082526020820181905291810191909152600160608201526139398183613aa7565b6040808301516001600160a01b0386166000908152600b60209081528382208783528152838220855181558186018051600180840191909155878701805160028086019190915560608a0180516003968701805491151560ff19928316179055600c909752968990208a51815593519284019290925551908201559251920180549215159290911691909117905590517ff1206247bdd5e2e0cfc00bea4cf05fb8dc479ebee686f9549043179cc7013b3090612cac908790879085906143b5565b6000610fa082613eb5565b60008183613a915760405162461bcd60e51b81526004018080602001828103825283818151815260200191508051906020019080838360005b83811015613a56578181015183820152602001613a3e565b50505050905090810190601f168015613a835780820380516001836020036101000a031916815260200191505b509250505060405180910390fd5b506000838581613a9d57fe5b0495945050505050565b60408051606080820183526000808352602080840182905283850182905284519283018552818352828101829052938201529184015142929083108015613af2575060008560400151115b15613b4a57613b1f610c48600254610c84670de0b6b3a76400008960400151612d1b90919063ffffffff16565b602080840191909152850151613b3d90610c4d90610c4890866130b9565b8252602085015160408301525b828460200151118015613b61575060008460400151115b15613bb957613b8e610c48600254610c84670de0b6b3a76400008860400151612d1b90919063ffffffff16565b602080830191909152840151613bac9061354f90610c4890866130b9565b8152602084015160408201525b6000613bc3613251565b82518451919250613bd791613585916131ec565b815260208083015190840151613bf1916135a791906131ec565b60208201528051600012613c06576000613c09565b80515b81526020810151600012613c1e576000613c24565b80602001515b6020820152600980548291906000198101908110613c3e57fe5b9060005260206000209060030201600082015181600001556020820151816001015560408201518160020155905050610f638383613eb9565b6000818310613c86578161190a565b5090919050565b6000828201818312801590613ca25750838112155b80613cb75750600083128015613cb757508381125b61190a5760405162461bcd60e51b815260040180806020018281038252602181526020018061491c6021913960400191505060405180910390fd5b60008184841115613d445760405162461bcd60e51b8152602060048201818152835160248401528351909283926044909101919085019080838360008315613a56578181015183820152602001613a3e565b505050900390565b6040808401516000908152600e602052818120548483018051835292909120549151909190831015613dc2576020840151613d88908290613c8d565b9050846040015184604001511415613dad576020850151613daa9082906131ec565b90505b6040808501516000908152600e602052208190555b828560400151118015613ddc575083604001518560400151115b15613e08576020850151613df19083906131ec565b6040808701516000908152600e6020522081905591505b5050505050565b600061190a836001600160a01b038416613f7b565b600061190a836001600160a01b038416613fc5565b81546000908210613e7b5760405162461bcd60e51b81526004018080602001828103825260228152602001806148a96022913960400191505060405180910390fd5b826000018281548110613e8a57fe5b9060005260206000200154905092915050565b60009081526001919091016020526040902054151590565b5490565b6040808301516000908152600e602052818120548383018051835292909120549151909190421015613f2f576020830151613ef5908290613c8d565b9050836040015183604001511415613f1a576020840151613f179082906131ec565b90505b6040808401516000908152600e602052208190555b428460400151118015613f49575082604001518460400151115b15613f75576020840151613f5e9083906131ec565b6040808601516000908152600e6020522081905591505b50505050565b6000613f878383613e9d565b613fbd57508154600181810184556000848152602080822090930184905584548482528286019093526040902091909155610fa0565b506000610fa0565b600081815260018301602052604081205480156140815783546000198083019190810190600090879083908110613ff857fe5b906000526020600020015490508087600001848154811061401557fe5b60009182526020808320909101929092558281526001898101909252604090209084019055865487908061404557fe5b60019003818190600052602060002001600090559055866001016000878152602001908152602001600020600090556001945050505050610fa0565b6000915050610fa0565b60405180606001604052806000815260200160008152602001600081525090565b80356001600160a01b038116811461090157600080fd5b600082601f8301126140d3578081fd5b813560206140e86140e38361488b565b614868565b8281528181019085830183850287018401881015614104578586fd5b855b8581101561412257813584529284019290840190600101614106565b5090979650505050505050565b600060208284031215614140578081fd5b61190a826140ac565b6000806040838503121561415b578081fd5b614164836140ac565b946020939093013593505050565b600080600060608486031215614186578081fd5b61418f846140ac565b95602085013595506040909401359392505050565b600080600080608085870312156141b9578081fd5b6141c2856140ac565b966020860135965060408601359560600135945092505050565b600080600080608085870312156141f1578384fd5b84356001600160401b0380821115614207578586fd5b818701915087601f83011261421a578586fd5b8135602061422a6140e38361488b565b82815281810190858301838502870184018d1015614246578a8bfd5b8a96505b8487101561426f5761425b816140ac565b83526001969096019591830191830161424a565b5098505088013592505080821115614285578485fd5b614291888389016140c3565b945060408701359150808211156142a6578384fd5b506142b3878288016140c3565b949793965093946060013593505050565b6000602082840312156142d5578081fd5b8151801515811461190a578182fd5b6000602082840312156142f5578081fd5b5035919050565b6000806040838503121561430e578182fd5b8235915061431e602084016140ac565b90509250929050565b60008060408385031215614339578182fd5b50508035926020909101359150565b600060208284031215614359578081fd5b81356001600160e01b03198116811461190a578182fd5b600060208284031215614381578081fd5b5051919050565b6001600160a01b0391909116815260200190565b6001600160a01b03929092168252602082015260400190565b6001600160a01b039390931683526020830191909152604082015260600190565b6001600160a01b0394909416845260208401929092526040830152606082015260800190565b6020808252825182820181905260009190848201906040850190845b8181101561443d5783516001600160a01b031683529284019291840191600101614418565b50909695505050505050565b602080825282518282018190526000919060409081850190868401855b828110156144955781518051855286810151878601528501518585015260609093019290850190600101614466565b5091979650505050505050565b6020808252825182820181905260009190848201906040850190845b8181101561443d578351835292840192918401916001016144be565b901515815260200190565b90815260200190565b9283526020830191909152604082015260600190565b6020808252601590820152744e6f20616d6f756e7420746f20776974686472617760581b604082015260600190565b6020808252601690820152754e6f206578697374696e67206c6f636b656420544f5360501b604082015260600190565b6020808252601a908201527f4d617820756e6c6f636b2074696d652069732033207965617273000000000000604082015260600190565b6020808252600c908201526b6e6f7420747265617375727960a01b604082015260600190565b6020808252600f908201526e5f6c6f636b4964206973207a65726f60881b604082015260600190565b6020808252600c908201526b0eee4dedcce40d8cadccee8d60a31b604082015260600190565b602080825260159082015274131bd8dac81d1a5b59481a5cc8199a5b9a5cda1959605a1b604082015260600190565b60208082526011908201527020b63932b0b23c903bb4ba34323930bbb760791b604082015260600190565b6020808252601190820152702637b1b59034b9903bb4ba34323930bbb760791b604082015260600190565b6020808252601f908201527f56616c7565206c6f636b65642073686f756c64206265206e6f6e2d7a65726f00604082015260600190565b6020808252600c908201526b7a65726f206164647265737360a01b604082015260600190565b6020808252601a908201527f4c6f636b2074696d6520616c72656164792066696e6973686564000000000000604082015260600190565b6020808252601d908201527f4e6577206c6f636b2074696d65206d7573742062652067726561746572000000604082015260600190565b6020808252601e908201527f556e6c6f636b20706572696f64206c657373207468616e2061207765656b0000604082015260600190565b6020808252600c908201526b73616d65206164647265737360a01b604082015260600190565b602080825260169082015275131bd8dac81d1a5b59481b9bdd08199a5b9a5cda195960521b604082015260600190565b6020808252601890820152774c6f636b496420697320616c726561647920696e2075736560401b604082015260600190565b602080825260139082015272131bd8dac8191bd95cc81b9bdd08195e1a5cdd606a1b604082015260600190565b938452602084019290925260408301521515606082015260800190565b6040518181016001600160401b038111828210171561488357fe5b604052919050565b60006001600160401b0382111561489e57fe5b506020908102019056fe456e756d657261626c655365743a20696e646578206f7574206f6620626f756e6473416363657373436f6e74726f6c3a2073656e646572206d75737420626520616e2061646d696e20746f206772616e7441636365737369626c653a2043616c6c6572206973206e6f7420616e2061646d696e5369676e6564536166654d6174683a206164646974696f6e206f766572666c6f77416363657373436f6e74726f6c3a2073656e646572206d75737420626520616e2061646d696e20746f207265766f6b6563616c6c6572206973206e6f74207374616b6572000000000000000000000000536166654d6174683a206d756c7469706c69636174696f6e206f766572666c6f77df8b4c520ffe197c5343c6f5aec59570151ef9a492f2c624fd45ddde6135ec425369676e6564536166654d6174683a206d756c7469706c69636174696f6e206f766572666c6f7753616665436173743a2076616c756520646f65736e27742066697420696e20616e20696e743235365369676e6564536166654d6174683a207375627472616374696f6e206f766572666c6f77416363657373436f6e74726f6c3a2063616e206f6e6c792072656e6f756e636520726f6c657320666f722073656c66a26469706673582212208e29f3a99e8834277d32f4ebbf147c97e1844ce973b012efb7f8bd5df7cf934664736f6c63430007060033",
  "linkReferences": {},
  "deployedLinkReferences": {}
}