{
  "_format": "hh-sol-artifact-1",
  "contractName": "LockTOSProxy",
  "sourceName": "contracts/stake/LockTOSProxy.sol",
  "abi": [
    {
      "inputs": [
        {
          "internalType": "address",
          "name": "_impl",
          "type": "address"
        },
        {
          "internalType": "address",
          "name": "_admin",
          "type": "address"
        }
      ],
      "stateMutability": "nonpayable",
      "type": "constructor"
    },
    {
      "anonymous": false,
      "inputs": [
        {
          "indexed": true,
          "internalType": "bytes32",
          "name": "role",
          "type": "bytes32"
        },
        {
          "indexed": true,
          "internalType": "bytes32",
          "name": "previousAdminRole",
          "type": "bytes32"
        },
        {
          "indexed": true,
          "internalType": "bytes32",
          "name": "newAdminRole",
          "type": "bytes32"
        }
      ],
      "name": "RoleAdminChanged",
      "type": "event"
    },
    {
      "anonymous": false,
      "inputs": [
        {
          "indexed": true,
          "internalType": "bytes32",
          "name": "role",
          "type": "bytes32"
        },
        {
          "indexed": true,
          "internalType": "address",
          "name": "account",
          "type": "address"
        },
        {
          "indexed": true,
          "internalType": "address",
          "name": "sender",
          "type": "address"
        }
      ],
      "name": "RoleGranted",
      "type": "event"
    },
    {
      "anonymous": false,
      "inputs": [
        {
          "indexed": true,
          "internalType": "bytes32",
          "name": "role",
          "type": "bytes32"
        },
        {
          "indexed": true,
          "internalType": "address",
          "name": "account",
          "type": "address"
        },
        {
          "indexed": true,
          "internalType": "address",
          "name": "sender",
          "type": "address"
        }
      ],
      "name": "RoleRevoked",
      "type": "event"
    },
    {
      "anonymous": false,
      "inputs": [
        {
          "indexed": true,
          "internalType": "address",
          "name": "implementation",
          "type": "address"
        }
      ],
      "name": "Upgraded",
      "type": "event"
    },
    {
      "stateMutability": "payable",
      "type": "fallback"
    },
    {
      "inputs": [],
      "name": "ADMIN_ROLE",
      "outputs": [
        {
          "internalType": "bytes32",
          "name": "",
          "type": "bytes32"
        }
      ],
      "stateMutability": "view",
      "type": "function"
    },
    {
      "inputs": [],
      "name": "BURNER_ROLE",
      "outputs": [
        {
          "internalType": "bytes32",
          "name": "",
          "type": "bytes32"
        }
      ],
      "stateMutability": "view",
      "type": "function"
    },
    {
      "inputs": [],
      "name": "DEFAULT_ADMIN_ROLE",
      "outputs": [
        {
          "internalType": "bytes32",
          "name": "",
          "type": "bytes32"
        }
      ],
      "stateMutability": "view",
      "type": "function"
    },
    {
      "inputs": [],
      "name": "MINTER_ROLE",
      "outputs": [
        {
          "internalType": "bytes32",
          "name": "",
          "type": "bytes32"
        }
      ],
      "stateMutability": "view",
      "type": "function"
    },
    {
      "inputs": [],
      "name": "MULTIPLIER",
      "outputs": [
        {
          "internalType": "uint256",
          "name": "",
          "type": "uint256"
        }
      ],
      "stateMutability": "view",
      "type": "function"
    },
    {
      "inputs": [],
      "name": "PROJECT_ADMIN_ROLE",
      "outputs": [
        {
          "internalType": "bytes32",
          "name": "",
          "type": "bytes32"
        }
      ],
      "stateMutability": "view",
      "type": "function"
    },
    {
      "inputs": [
        {
          "internalType": "address",
          "name": "account",
          "type": "address"
        }
      ],
      "name": "addAdmin",
      "outputs": [],
      "stateMutability": "nonpayable",
      "type": "function"
    },
    {
      "inputs": [
        {
          "internalType": "uint256",
          "name": "",
          "type": "uint256"
        }
      ],
      "name": "allLocks",
      "outputs": [
        {
          "internalType": "uint256",
          "name": "start",
          "type": "uint256"
        },
        {
          "internalType": "uint256",
          "name": "end",
          "type": "uint256"
        },
        {
          "internalType": "uint256",
          "name": "amount",
          "type": "uint256"
        },
        {
          "internalType": "bool",
          "name": "withdrawn",
          "type": "bool"
        }
      ],
      "stateMutability": "view",
      "type": "function"
    },
    {
      "inputs": [],
      "name": "cumulativeEpochUnit",
      "outputs": [
        {
          "internalType": "uint256",
          "name": "",
          "type": "uint256"
        }
      ],
      "stateMutability": "view",
      "type": "function"
    },
    {
      "inputs": [],
      "name": "cumulativeTOSAmount",
      "outputs": [
        {
          "internalType": "uint256",
          "name": "",
          "type": "uint256"
        }
      ],
      "stateMutability": "view",
      "type": "function"
    },
    {
      "inputs": [],
      "name": "epochUnit",
      "outputs": [
        {
          "internalType": "uint256",
          "name": "",
          "type": "uint256"
        }
      ],
      "stateMutability": "view",
      "type": "function"
    },
    {
      "inputs": [
        {
          "internalType": "bytes32",
          "name": "role",
          "type": "bytes32"
        }
      ],
      "name": "getRoleAdmin",
      "outputs": [
        {
          "internalType": "bytes32",
          "name": "",
          "type": "bytes32"
        }
      ],
      "stateMutability": "view",
      "type": "function"
    },
    {
      "inputs": [
        {
          "internalType": "bytes32",
          "name": "role",
          "type": "bytes32"
        },
        {
          "internalType": "uint256",
          "name": "index",
          "type": "uint256"
        }
      ],
      "name": "getRoleMember",
      "outputs": [
        {
          "internalType": "address",
          "name": "",
          "type": "address"
        }
      ],
      "stateMutability": "view",
      "type": "function"
    },
    {
      "inputs": [
        {
          "internalType": "bytes32",
          "name": "role",
          "type": "bytes32"
        }
      ],
      "name": "getRoleMemberCount",
      "outputs": [
        {
          "internalType": "uint256",
          "name": "",
          "type": "uint256"
        }
      ],
      "stateMutability": "view",
      "type": "function"
    },
    {
      "inputs": [
        {
          "internalType": "bytes32",
          "name": "role",
          "type": "bytes32"
        },
        {
          "internalType": "address",
          "name": "account",
          "type": "address"
        }
      ],
      "name": "grantRole",
      "outputs": [],
      "stateMutability": "nonpayable",
      "type": "function"
    },
    {
      "inputs": [
        {
          "internalType": "bytes32",
          "name": "role",
          "type": "bytes32"
        },
        {
          "internalType": "address",
          "name": "account",
          "type": "address"
        }
      ],
      "name": "hasRole",
      "outputs": [
        {
          "internalType": "bool",
          "name": "",
          "type": "bool"
        }
      ],
      "stateMutability": "view",
      "type": "function"
    },
    {
      "inputs": [],
      "name": "implementation",
      "outputs": [
        {
          "internalType": "address",
          "name": "",
          "type": "address"
        }
      ],
      "stateMutability": "view",
      "type": "function"
    },
    {
      "inputs": [
        {
          "internalType": "uint256",
          "name": "",
          "type": "uint256"
        }
      ],
      "name": "inUse",
      "outputs": [
        {
          "internalType": "bool",
          "name": "",
          "type": "bool"
        }
      ],
      "stateMutability": "view",
      "type": "function"
    },
    {
      "inputs": [
        {
          "internalType": "address",
          "name": "_tos",
          "type": "address"
        },
        {
          "internalType": "uint256",
          "name": "_epochUnit",
          "type": "uint256"
        },
        {
          "internalType": "uint256",
          "name": "_maxTime",
          "type": "uint256"
        }
      ],
      "name": "initialize",
      "outputs": [],
      "stateMutability": "nonpayable",
      "type": "function"
    },
    {
      "inputs": [
        {
          "internalType": "address",
          "name": "account",
          "type": "address"
        }
      ],
      "name": "isAdmin",
      "outputs": [
        {
          "internalType": "bool",
          "name": "",
          "type": "bool"
        }
      ],
      "stateMutability": "view",
      "type": "function"
    },
    {
      "inputs": [],
      "name": "lockIdCounter",
      "outputs": [
        {
          "internalType": "uint256",
          "name": "",
          "type": "uint256"
        }
      ],
      "stateMutability": "view",
      "type": "function"
    },
    {
      "inputs": [
        {
          "internalType": "uint256",
          "name": "",
          "type": "uint256"
        },
        {
          "internalType": "uint256",
          "name": "",
          "type": "uint256"
        }
      ],
      "name": "lockPointHistory",
      "outputs": [
        {
          "internalType": "int256",
          "name": "bias",
          "type": "int256"
        },
        {
          "internalType": "int256",
          "name": "slope",
          "type": "int256"
        },
        {
          "internalType": "uint256",
          "name": "timestamp",
          "type": "uint256"
        }
      ],
      "stateMutability": "view",
      "type": "function"
    },
    {
      "inputs": [
        {
          "internalType": "address",
          "name": "",
          "type": "address"
        },
        {
          "internalType": "uint256",
          "name": "",
          "type": "uint256"
        }
      ],
      "name": "lockedBalances",
      "outputs": [
        {
          "internalType": "uint256",
          "name": "start",
          "type": "uint256"
        },
        {
          "internalType": "uint256",
          "name": "end",
          "type": "uint256"
        },
        {
          "internalType": "uint256",
          "name": "amount",
          "type": "uint256"
        },
        {
          "internalType": "bool",
          "name": "withdrawn",
          "type": "bool"
        }
      ],
      "stateMutability": "view",
      "type": "function"
    },
    {
      "inputs": [],
      "name": "maxTime",
      "outputs": [
        {
          "internalType": "uint256",
          "name": "",
          "type": "uint256"
        }
      ],
      "stateMutability": "view",
      "type": "function"
    },
    {
      "inputs": [],
      "name": "migratedL2",
      "outputs": [
        {
          "internalType": "bool",
          "name": "",
          "type": "bool"
        }
      ],
      "stateMutability": "view",
      "type": "function"
    },
    {
      "inputs": [],
      "name": "pauseProxy",
      "outputs": [
        {
          "internalType": "bool",
          "name": "",
          "type": "bool"
        }
      ],
      "stateMutability": "view",
      "type": "function"
    },
    {
      "inputs": [
        {
          "internalType": "uint256",
          "name": "",
          "type": "uint256"
        }
      ],
      "name": "pointHistory",
      "outputs": [
        {
          "internalType": "int256",
          "name": "bias",
          "type": "int256"
        },
        {
          "internalType": "int256",
          "name": "slope",
          "type": "int256"
        },
        {
          "internalType": "uint256",
          "name": "timestamp",
          "type": "uint256"
        }
      ],
      "stateMutability": "view",
      "type": "function"
    },
    {
      "inputs": [
        {
          "internalType": "address",
          "name": "account",
          "type": "address"
        }
      ],
      "name": "removeAdmin",
      "outputs": [],
      "stateMutability": "nonpayable",
      "type": "function"
    },
    {
      "inputs": [
        {
          "internalType": "bytes32",
          "name": "role",
          "type": "bytes32"
        },
        {
          "internalType": "address",
          "name": "account",
          "type": "address"
        }
      ],
      "name": "renounceRole",
      "outputs": [],
      "stateMutability": "nonpayable",
      "type": "function"
    },
    {
      "inputs": [
        {
          "internalType": "bytes32",
          "name": "role",
          "type": "bytes32"
        },
        {
          "internalType": "address",
          "name": "account",
          "type": "address"
        }
      ],
      "name": "revokeRole",
      "outputs": [],
      "stateMutability": "nonpayable",
      "type": "function"
    },
    {
      "inputs": [
        {
          "internalType": "bool",
          "name": "_pause",
          "type": "bool"
        }
      ],
      "name": "setProxyPause",
      "outputs": [],
      "stateMutability": "nonpayable",
      "type": "function"
    },
    {
      "inputs": [
        {
          "internalType": "uint256",
          "name": "",
          "type": "uint256"
        }
      ],
      "name": "slopeChanges",
      "outputs": [
        {
          "internalType": "int256",
          "name": "",
          "type": "int256"
        }
      ],
      "stateMutability": "view",
      "type": "function"
    },
    {
      "inputs": [],
      "name": "stakeRegistry",
      "outputs": [
        {
          "internalType": "address",
          "name": "",
          "type": "address"
        }
      ],
      "stateMutability": "view",
      "type": "function"
    },
    {
      "inputs": [],
      "name": "tos",
      "outputs": [
        {
          "internalType": "address",
          "name": "",
          "type": "address"
        }
      ],
      "stateMutability": "view",
      "type": "function"
    },
    {
      "inputs": [
        {
          "internalType": "address",
          "name": "newAdmin",
          "type": "address"
        }
      ],
      "name": "transferAdmin",
      "outputs": [],
      "stateMutability": "nonpayable",
      "type": "function"
    },
    {
      "inputs": [
        {
          "internalType": "uint256",
          "name": "",
          "type": "uint256"
        }
      ],
      "name": "uniqueUsers",
      "outputs": [
        {
          "internalType": "address",
          "name": "",
          "type": "address"
        }
      ],
      "stateMutability": "view",
      "type": "function"
    },
    {
      "inputs": [
        {
          "internalType": "address",
          "name": "impl",
          "type": "address"
        }
      ],
      "name": "upgradeTo",
      "outputs": [],
      "stateMutability": "nonpayable",
      "type": "function"
    },
    {
      "inputs": [
        {
          "internalType": "address",
          "name": "",
          "type": "address"
        },
        {
          "internalType": "uint256",
          "name": "",
          "type": "uint256"
        }
      ],
      "name": "userLocks",
      "outputs": [
        {
          "internalType": "uint256",
          "name": "",
          "type": "uint256"
        }
      ],
      "stateMutability": "view",
      "type": "function"
    },
    {
      "stateMutability": "payable",
      "type": "receive"
    }
  ],
  "bytecode": "0x608060405260016007553480156200001657600080fd5b506040516200196238038062001962833981810160405260408110156200003c57600080fd5b5080516020909101516001600160a01b038216620000a1576040805162461bcd60e51b815260206004820152601b60248201527f4c6f636b544f5350726f78793a206c6f676963206973207a65726f0000000000604482015290519081900360640190fd5b620000ac82620000f9565b620000c7600080516020620018fc8339815191528062000170565b620000e2600080516020620018fc83398151915282620001c2565b5050600060048190556005819055600655620002de565b6200010f81620001d260201b6200112d1760201c565b6200014c5760405162461bcd60e51b81526004018080602001828103825260468152602001806200191c6046913960600191505060405180910390fd5b7f360894a13ba1a3210667c828492db98dca3e2076cc3735a920a3ca505d382bbc55565b600082815260106020526040808220600201549051839285917fbd79b86ffe0ab8e8776151514217cd7cacd52c909f66475c3af44e129f0b00ff9190a460009182526010602052604090912060020155565b620001ce8282620001d8565b5050565b3b151590565b6000828152601060209081526040909120620001ff9183906200113362000253821b17901c565b15620001ce576200020f62000273565b6001600160a01b0316816001600160a01b0316837f2f8788117e7eff1d82e926ec794901d17c78024a50270940304540a733656f0d60405160405180910390a45050565b60006200026a836001600160a01b03841662000277565b90505b92915050565b3390565b6000620002858383620002c6565b620002bd575081546001818101845560008481526020808220909301849055845484825282860190935260409020919091556200026d565b5060006200026d565b60009081526001919091016020526040902054151590565b61160e80620002ee6000396000f3fe6080604052600436106102095760003560e01c80637a1ac61e11610113578063afae883e116100ab578063d53913931161006f578063d5391393146107c3578063d547741f146107d8578063ed50c69914610811578063f52a36f71461083b578063fd2dcecf1461086557610252565b8063afae883e14610730578063b534ad5614610745578063c79acdda1461075a578063ca15c87314610784578063cd29ca0e146107ae57610252565b80637a1ac61e146105ba5780637cb00d25146105f957806389f395de146106255780638ad4c4471461063a5780639010d07c1461066457806391d1485414610694578063a1f5f50e146106cd578063a217fddf146106e2578063aa33fedb146106f757610252565b8063367b7b23116101a157806363d5a3d91161016557806363d5a3d914610500578063683048351461052a578063704802751461053f57806375829def1461057257806375b238fc146105a557610252565b8063367b7b23146103f657806341c04d5e146104445780635c60da1b146104595780635d16a6f91461048a57806363a8fd89146104eb57610252565b8063059f8b161461025c5780631785f53c1461028357806322e67e71146102b6578063248a9ca3146102cb57806324d7806c146102f5578063282c51f31461033c5780632f2ff15d1461035157806336568abe1461038a5780633659cfe6146103c357610252565b36610252576040805162461bcd60e51b815260206004820152601460248201527331b0b73737ba103932b1b2b4bb329022ba3432b960611b604482015290519081900360640190fd5b61025a61087a565b005b34801561026857600080fd5b50610271610900565b60408051918252519081900360200190f35b34801561028f57600080fd5b5061025a600480360360208110156102a657600080fd5b50356001600160a01b031661090c565b3480156102c257600080fd5b5061027161096b565b3480156102d757600080fd5b50610271600480360360208110156102ee57600080fd5b5035610971565b34801561030157600080fd5b506103286004803603602081101561031857600080fd5b50356001600160a01b0316610986565b604080519115158252519081900360200190f35b34801561034857600080fd5b506102716109a6565b34801561035d57600080fd5b5061025a6004803603604081101561037457600080fd5b50803590602001356001600160a01b03166109ca565b34801561039657600080fd5b5061025a600480360360408110156103ad57600080fd5b50803590602001356001600160a01b0316610a36565b3480156103cf57600080fd5b5061025a600480360360208110156103e657600080fd5b50356001600160a01b0316610a97565b34801561040257600080fd5b506104266004803603604081101561041957600080fd5b5080359060200135610bd9565b60408051938452602084019290925282820152519081900360600190f35b34801561045057600080fd5b50610271610c1b565b34801561046557600080fd5b5061046e610c3f565b604080516001600160a01b039092168252519081900360200190f35b34801561049657600080fd5b506104c3600480360360408110156104ad57600080fd5b506001600160a01b038135169060200135610c4e565b6040805194855260208501939093528383019190915215156060830152519081900360800190f35b3480156104f757600080fd5b50610328610c83565b34801561050c57600080fd5b506104c36004803603602081101561052357600080fd5b5035610c8c565b34801561053657600080fd5b5061046e610cb6565b34801561054b57600080fd5b5061025a6004803603602081101561056257600080fd5b50356001600160a01b0316610cca565b34801561057e57600080fd5b5061025a6004803603602081101561059557600080fd5b50356001600160a01b0316610d26565b3480156105b157600080fd5b50610271610e47565b3480156105c657600080fd5b5061025a600480360360608110156105dd57600080fd5b506001600160a01b038135169060208101359060400135610e59565b34801561060557600080fd5b5061025a6004803603602081101561061c57600080fd5b50351515610f1a565b34801561063157600080fd5b5061046e610f71565b34801561064657600080fd5b506104266004803603602081101561065d57600080fd5b5035610f80565b34801561067057600080fd5b5061046e6004803603604081101561068757600080fd5b5080359060200135610fb3565b3480156106a057600080fd5b50610328600480360360408110156106b757600080fd5b50803590602001356001600160a01b0316610fd2565b3480156106d957600080fd5b50610328610fea565b3480156106ee57600080fd5b50610271610ffa565b34801561070357600080fd5b506102716004803603604081101561071a57600080fd5b506001600160a01b038135169060200135610fff565b34801561073c57600080fd5b50610271611030565b34801561075157600080fd5b50610271611036565b34801561076657600080fd5b506103286004803603602081101561077d57600080fd5b503561103c565b34801561079057600080fd5b50610271600480360360208110156107a757600080fd5b5035611051565b3480156107ba57600080fd5b50610271611068565b3480156107cf57600080fd5b5061027161106e565b3480156107e457600080fd5b5061025a600480360360408110156107fb57600080fd5b50803590602001356001600160a01b0316611092565b34801561081d57600080fd5b5061046e6004803603602081101561083457600080fd5b50356110eb565b34801561084757600080fd5b506102716004803603602081101561085e57600080fd5b5035611115565b34801561087157600080fd5b50610271611127565b6000610884611148565b90506001600160a01b038116158015906108a1575060005460ff16155b6108dc5760405162461bcd60e51b81526004018080602001828103825260248152602001806115406024913960400191505060405180910390fd5b3660008037600080366000845af43d6000803e8080156108fb573d6000f35b3d6000fd5b670de0b6b3a764000081565b61091533610986565b6109505760405162461bcd60e51b81526004018080602001828103825260228152602001806114ce6022913960400191505060405180910390fd5b61096860008051602061152083398151915282610a36565b50565b60025481565b60009081526010602052604090206002015490565b60006109a060008051602061152083398151915283610fd2565b92915050565b7f9667e80708b6eeeb0053fa0cca44e028ff548e2a9f029edfeac87c118b08b7c881565b6000828152601060205260409020600201546109ed906109e861116d565b610fd2565b610a285760405162461bcd60e51b815260040180806020018281038252602f81526020018061149f602f913960400191505060405180910390fd5b610a328282611171565b5050565b610a3e61116d565b6001600160a01b0316816001600160a01b031614610a8d5760405162461bcd60e51b815260040180806020018281038252602f8152602001806115aa602f913960400191505060405180910390fd5b610a3282826111da565b610aa033610986565b610adb5760405162461bcd60e51b81526004018080602001828103825260228152602001806114ce6022913960400191505060405180910390fd5b6001600160a01b038116610b36576040805162461bcd60e51b815260206004820152601b60248201527f4c6f636b544f5350726f78793a20696e707574206973207a65726f0000000000604482015290519081900360640190fd5b806001600160a01b0316610b48611148565b6001600160a01b03161415610b99576040805162461bcd60e51b81526020600482015260126024820152714c6f636b544f5350726f78793a2073616d6560701b604482015290519081900360640190fd5b610ba281611243565b6040516001600160a01b038216907fbc7cd75a20ee27fd9adebab32041f755214dbc6bffa90cc0225b39da2e5c2d3b90600090a250565b600a6020528160005260406000208181548110610bf557600080fd5b600091825260209091206003909102018054600182015460029092015490935090915083565b7f52eafc11f6f81f86878bffd31109a0d92f37506527754f00788853ff9f63b13081565b6000610c49611148565b905090565b600b60209081526000928352604080842090915290825290208054600182015460028301546003909301549192909160ff1684565b60005460ff1681565b600c6020526000908152604090208054600182015460028301546003909301549192909160ff1684565b60005461010090046001600160a01b031681565b610cd333610986565b610d0e5760405162461bcd60e51b81526004018080602001828103825260228152602001806114ce6022913960400191505060405180910390fd5b610968600080516020611520833981519152826109ca565b610d2f33610986565b610d6a5760405162461bcd60e51b81526004018080602001828103825260228152602001806114ce6022913960400191505060405180910390fd5b6001600160a01b038116610dc0576040805162461bcd60e51b815260206004820152601860248201527741636365737369626c653a207a65726f206164647265737360401b604482015290519081900360640190fd5b336001600160a01b0382161415610e17576040805162461bcd60e51b815260206004820152601660248201527520b1b1b2b9b9b4b136329d1039b0b6b29030b236b4b760511b604482015290519081900360640190fd5b610e2f600080516020611520833981519152826109ca565b61096860008051602061152083398151915233610a36565b60008051602061152083398151915281565b610e6233610986565b610e9d5760405162461bcd60e51b81526004018080602001828103825260228152602001806114ce6022913960400191505060405180910390fd5b6003546001600160a01b031615610ef1576040805162461bcd60e51b8152602060048201526013602482015272105b1c9958591e481a5b9a5d1a585b1a5e9959606a1b604482015290519081900360640190fd5b600380546001600160a01b0319166001600160a01b039490941693909317909255600155600255565b610f2333610986565b610f5e5760405162461bcd60e51b81526004018080602001828103825260228152602001806114ce6022913960400191505060405180910390fd5b6000805460ff1916911515919091179055565b6003546001600160a01b031681565b60098181548110610f9057600080fd5b600091825260209091206003909102018054600182015460029092015490925083565b6000828152601060205260408120610fcb90836112ab565b9392505050565b6000828152601060205260408120610fcb90836112b7565b600054600160a81b900460ff1681565b600081565b600d602052816000526040600020818154811061101b57600080fd5b90600052602060002001600091509150505481565b60045481565b60055481565b600f6020526000908152604090205460ff1681565b60008181526010602052604081206109a0906112cc565b60065481565b7ff0887ba65ee2024ea881d91b74c2450ef19e1557f03bed3ea9f16b037cbe2dc981565b6000828152601060205260409020600201546110b0906109e861116d565b610a8d5760405162461bcd60e51b81526004018080602001828103825260308152602001806114f06030913960400191505060405180910390fd5b600881815481106110fb57600080fd5b6000918252602090912001546001600160a01b0316905081565b600e6020526000908152604090205481565b60015481565b3b151590565b6000610fcb836001600160a01b0384166112d7565b7f360894a13ba1a3210667c828492db98dca3e2076cc3735a920a3ca505d382bbc5490565b3390565b60008281526010602052604090206111899082611133565b15610a325761119661116d565b6001600160a01b0316816001600160a01b0316837f2f8788117e7eff1d82e926ec794901d17c78024a50270940304540a733656f0d60405160405180910390a45050565b60008281526010602052604090206111f29082611321565b15610a32576111ff61116d565b6001600160a01b0316816001600160a01b0316837ff6391f5c32d9c69d2a47ea670b442974b53935d1edc7fd64eb21e047a839171b60405160405180910390a45050565b61124c8161112d565b6112875760405162461bcd60e51b81526004018080602001828103825260468152602001806115646046913960600191505060405180910390fd5b7f360894a13ba1a3210667c828492db98dca3e2076cc3735a920a3ca505d382bbc55565b6000610fcb8383611336565b6000610fcb836001600160a01b03841661139a565b60006109a0826113b2565b60006112e3838361139a565b611319575081546001818101845560008481526020808220909301849055845484825282860190935260409020919091556109a0565b5060006109a0565b6000610fcb836001600160a01b0384166113b6565b815460009082106113785760405162461bcd60e51b815260040180806020018281038252602281526020018061147d6022913960400191505060405180910390fd5b82600001828154811061138757fe5b9060005260206000200154905092915050565b60009081526001919091016020526040902054151590565b5490565b6000818152600183016020526040812054801561147257835460001980830191908101906000908790839081106113e957fe5b906000526020600020015490508087600001848154811061140657fe5b60009182526020808320909101929092558281526001898101909252604090209084019055865487908061143657fe5b600190038181906000526020600020016000905590558660010160008781526020019081526020016000206000905560019450505050506109a0565b60009150506109a056fe456e756d657261626c655365743a20696e646578206f7574206f6620626f756e6473416363657373436f6e74726f6c3a2073656e646572206d75737420626520616e2061646d696e20746f206772616e7441636365737369626c653a2043616c6c6572206973206e6f7420616e2061646d696e416363657373436f6e74726f6c3a2073656e646572206d75737420626520616e2061646d696e20746f207265766f6b65df8b4c520ffe197c5343c6f5aec59570151ef9a492f2c624fd45ddde6135ec424c6f636b544f5350726f78793a20696d706c204f522070726f78792069732066616c736550726f7879426173653a2043616e6e6f742073657420612070726f787920696d706c656d656e746174696f6e20746f2061206e6f6e2d636f6e74726163742061646472657373416363657373436f6e74726f6c3a2063616e206f6e6c792072656e6f756e636520726f6c657320666f722073656c66a26469706673582212201a52dff6f7acff8da494e579b36540c038473ecb8770267e0a64a5fbaaf276c464736f6c63430007060033df8b4c520ffe197c5343c6f5aec59570151ef9a492f2c624fd45ddde6135ec4250726f7879426173653a2043616e6e6f742073657420612070726f787920696d706c656d656e746174696f6e20746f2061206e6f6e2d636f6e74726163742061646472657373",
  "linkReferences": {},
  "deployedLinkReferences": {}
}