{
  "_format": "hh-sol-artifact-1",
  "contractName": "LockTOSv2Logic0",
  "sourceName": "contracts/stake/LockTOSv2Logic0.sol",
  "abi": [
    {
      "anonymous": false,
      "inputs": [
        {
          "indexed": false,
          "internalType": "address",
          "name": "account",
          "type": "address"
        },
        {
          "indexed": false,
          "internalType": "uint256",
          "name": "lockId",
          "type": "uint256"
        },
        {
          "indexed": false,
          "internalType": "uint256",
          "name": "value",
          "type": "uint256"
        }
      ],
      "name": "LockAmountIncreased",
      "type": "event"
    },
    {
      "anonymous": false,
      "inputs": [
        {
          "indexed": false,
          "internalType": "address",
          "name": "account",
          "type": "address"
        },
        {
          "indexed": false,
          "internalType": "uint256",
          "name": "lockId",
          "type": "uint256"
        },
        {
          "indexed": false,
          "internalType": "uint256",
          "name": "value",
          "type": "uint256"
        },
        {
          "indexed": false,
          "internalType": "uint256",
          "name": "unlockTime",
          "type": "uint256"
        }
      ],
      "name": "LockCreated",
      "type": "event"
    },
    {
      "anonymous": false,
      "inputs": [
        {
          "indexed": false,
          "internalType": "address",
          "name": "account",
          "type": "address"
        },
        {
          "indexed": false,
          "internalType": "uint256",
          "name": "lockId",
          "type": "uint256"
        },
        {
          "indexed": false,
          "internalType": "uint256",
          "name": "value",
          "type": "uint256"
        }
      ],
      "name": "LockDeposited",
      "type": "event"
    },
    {
      "anonymous": false,
      "inputs": [
        {
          "indexed": false,
          "internalType": "address",
          "name": "account",
          "type": "address"
        },
        {
          "indexed": false,
          "internalType": "uint256",
          "name": "lockId",
          "type": "uint256"
        },
        {
          "indexed": false,
          "internalType": "uint256",
          "name": "unlockTime",
          "type": "uint256"
        }
      ],
      "name": "LockUnlockTimeIncreased",
      "type": "event"
    },
    {
      "anonymous": false,
      "inputs": [
        {
          "indexed": false,
          "internalType": "address",
          "name": "account",
          "type": "address"
        },
        {
          "indexed": false,
          "internalType": "uint256",
          "name": "lockId",
          "type": "uint256"
        },
        {
          "indexed": false,
          "internalType": "uint256",
          "name": "value",
          "type": "uint256"
        }
      ],
      "name": "LockWithdrawn",
      "type": "event"
    },
    {
      "anonymous": false,
      "inputs": [
        {
          "indexed": true,
          "internalType": "bytes32",
          "name": "role",
          "type": "bytes32"
        },
        {
          "indexed": true,
          "internalType": "bytes32",
          "name": "previousAdminRole",
          "type": "bytes32"
        },
        {
          "indexed": true,
          "internalType": "bytes32",
          "name": "newAdminRole",
          "type": "bytes32"
        }
      ],
      "name": "RoleAdminChanged",
      "type": "event"
    },
    {
      "anonymous": false,
      "inputs": [
        {
          "indexed": true,
          "internalType": "bytes32",
          "name": "role",
          "type": "bytes32"
        },
        {
          "indexed": true,
          "internalType": "address",
          "name": "account",
          "type": "address"
        },
        {
          "indexed": true,
          "internalType": "address",
          "name": "sender",
          "type": "address"
        }
      ],
      "name": "RoleGranted",
      "type": "event"
    },
    {
      "anonymous": false,
      "inputs": [
        {
          "indexed": true,
          "internalType": "bytes32",
          "name": "role",
          "type": "bytes32"
        },
        {
          "indexed": true,
          "internalType": "address",
          "name": "account",
          "type": "address"
        },
        {
          "indexed": true,
          "internalType": "address",
          "name": "sender",
          "type": "address"
        }
      ],
      "name": "RoleRevoked",
      "type": "event"
    },
    {
      "inputs": [],
      "name": "ADMIN_ROLE",
      "outputs": [
        {
          "internalType": "bytes32",
          "name": "",
          "type": "bytes32"
        }
      ],
      "stateMutability": "view",
      "type": "function"
    },
    {
      "inputs": [],
      "name": "BURNER_ROLE",
      "outputs": [
        {
          "internalType": "bytes32",
          "name": "",
          "type": "bytes32"
        }
      ],
      "stateMutability": "view",
      "type": "function"
    },
    {
      "inputs": [],
      "name": "DEFAULT_ADMIN_ROLE",
      "outputs": [
        {
          "internalType": "bytes32",
          "name": "",
          "type": "bytes32"
        }
      ],
      "stateMutability": "view",
      "type": "function"
    },
    {
      "inputs": [],
      "name": "MINTER_ROLE",
      "outputs": [
        {
          "internalType": "bytes32",
          "name": "",
          "type": "bytes32"
        }
      ],
      "stateMutability": "view",
      "type": "function"
    },
    {
      "inputs": [],
      "name": "MULTIPLIER",
      "outputs": [
        {
          "internalType": "uint256",
          "name": "",
          "type": "uint256"
        }
      ],
      "stateMutability": "view",
      "type": "function"
    },
    {
      "inputs": [],
      "name": "PROJECT_ADMIN_ROLE",
      "outputs": [
        {
          "internalType": "bytes32",
          "name": "",
          "type": "bytes32"
        }
      ],
      "stateMutability": "view",
      "type": "function"
    },
    {
      "inputs": [],
      "name": "activeHolders",
      "outputs": [
        {
          "internalType": "address[]",
          "name": "",
          "type": "address[]"
        }
      ],
      "stateMutability": "view",
      "type": "function"
    },
    {
      "inputs": [
        {
          "internalType": "address",
          "name": "_addr",
          "type": "address"
        }
      ],
      "name": "activeLocksOf",
      "outputs": [
        {
          "internalType": "uint256[]",
          "name": "",
          "type": "uint256[]"
        }
      ],
      "stateMutability": "view",
      "type": "function"
    },
    {
      "inputs": [
        {
          "internalType": "address",
          "name": "account",
          "type": "address"
        }
      ],
      "name": "addAdmin",
      "outputs": [],
      "stateMutability": "nonpayable",
      "type": "function"
    },
    {
      "inputs": [
        {
          "internalType": "address",
          "name": "",
          "type": "address"
        }
      ],
      "name": "aliveImplementation",
      "outputs": [
        {
          "internalType": "bool",
          "name": "",
          "type": "bool"
        }
      ],
      "stateMutability": "view",
      "type": "function"
    },
    {
      "inputs": [],
      "name": "allHolders",
      "outputs": [
        {
          "internalType": "address[]",
          "name": "",
          "type": "address[]"
        }
      ],
      "stateMutability": "view",
      "type": "function"
    },
    {
      "inputs": [
        {
          "internalType": "uint256",
          "name": "",
          "type": "uint256"
        }
      ],
      "name": "allLocks",
      "outputs": [
        {
          "internalType": "uint256",
          "name": "start",
          "type": "uint256"
        },
        {
          "internalType": "uint256",
          "name": "end",
          "type": "uint256"
        },
        {
          "internalType": "uint256",
          "name": "amount",
          "type": "uint256"
        },
        {
          "internalType": "bool",
          "name": "withdrawn",
          "type": "bool"
        }
      ],
      "stateMutability": "view",
      "type": "function"
    },
    {
      "inputs": [
        {
          "internalType": "address",
          "name": "_addr",
          "type": "address"
        }
      ],
      "name": "balanceOf",
      "outputs": [
        {
          "internalType": "uint256",
          "name": "balance",
          "type": "uint256"
        }
      ],
      "stateMutability": "view",
      "type": "function"
    },
    {
      "inputs": [
        {
          "internalType": "address",
          "name": "_addr",
          "type": "address"
        },
        {
          "internalType": "uint256",
          "name": "_timestamp",
          "type": "uint256"
        }
      ],
      "name": "balanceOfAt",
      "outputs": [
        {
          "internalType": "uint256",
          "name": "balance",
          "type": "uint256"
        }
      ],
      "stateMutability": "view",
      "type": "function"
    },
    {
      "inputs": [
        {
          "internalType": "uint256",
          "name": "_lockId",
          "type": "uint256"
        }
      ],
      "name": "balanceOfLock",
      "outputs": [
        {
          "internalType": "uint256",
          "name": "",
          "type": "uint256"
        }
      ],
      "stateMutability": "view",
      "type": "function"
    },
    {
      "inputs": [
        {
          "internalType": "uint256",
          "name": "_lockId",
          "type": "uint256"
        },
        {
          "internalType": "uint256",
          "name": "_timestamp",
          "type": "uint256"
        }
      ],
      "name": "balanceOfLockAt",
      "outputs": [
        {
          "internalType": "uint256",
          "name": "",
          "type": "uint256"
        }
      ],
      "stateMutability": "view",
      "type": "function"
    },
    {
      "inputs": [
        {
          "internalType": "address",
          "name": "user",
          "type": "address"
        },
        {
          "internalType": "uint256",
          "name": "_value",
          "type": "uint256"
        },
        {
          "internalType": "uint256",
          "name": "_unlockWeeks",
          "type": "uint256"
        }
      ],
      "name": "createLockByStaker",
      "outputs": [
        {
          "internalType": "uint256",
          "name": "lockId",
          "type": "uint256"
        }
      ],
      "stateMutability": "nonpayable",
      "type": "function"
    },
    {
      "inputs": [],
      "name": "cumulativeEpochUnit",
      "outputs": [
        {
          "internalType": "uint256",
          "name": "",
          "type": "uint256"
        }
      ],
      "stateMutability": "view",
      "type": "function"
    },
    {
      "inputs": [],
      "name": "cumulativeTOSAmount",
      "outputs": [
        {
          "internalType": "uint256",
          "name": "",
          "type": "uint256"
        }
      ],
      "stateMutability": "view",
      "type": "function"
    },
    {
      "inputs": [],
      "name": "currentStakedTotalTOS",
      "outputs": [
        {
          "internalType": "uint256",
          "name": "",
          "type": "uint256"
        }
      ],
      "stateMutability": "view",
      "type": "function"
    },
    {
      "inputs": [
        {
          "internalType": "address",
          "name": "_addr",
          "type": "address"
        },
        {
          "internalType": "uint256",
          "name": "_lockId",
          "type": "uint256"
        },
        {
          "internalType": "uint256",
          "name": "_value",
          "type": "uint256"
        }
      ],
      "name": "depositFor",
      "outputs": [],
      "stateMutability": "nonpayable",
      "type": "function"
    },
    {
      "inputs": [],
      "name": "epochUnit",
      "outputs": [
        {
          "internalType": "uint256",
          "name": "",
          "type": "uint256"
        }
      ],
      "stateMutability": "view",
      "type": "function"
    },
    {
      "inputs": [],
      "name": "getCurrentTime",
      "outputs": [
        {
          "internalType": "uint256",
          "name": "",
          "type": "uint256"
        }
      ],
      "stateMutability": "view",
      "type": "function"
    },
    {
      "inputs": [
        {
          "internalType": "bytes32",
          "name": "role",
          "type": "bytes32"
        }
      ],
      "name": "getRoleAdmin",
      "outputs": [
        {
          "internalType": "bytes32",
          "name": "",
          "type": "bytes32"
        }
      ],
      "stateMutability": "view",
      "type": "function"
    },
    {
      "inputs": [
        {
          "internalType": "bytes32",
          "name": "role",
          "type": "bytes32"
        },
        {
          "internalType": "uint256",
          "name": "index",
          "type": "uint256"
        }
      ],
      "name": "getRoleMember",
      "outputs": [
        {
          "internalType": "address",
          "name": "",
          "type": "address"
        }
      ],
      "stateMutability": "view",
      "type": "function"
    },
    {
      "inputs": [
        {
          "internalType": "bytes32",
          "name": "role",
          "type": "bytes32"
        }
      ],
      "name": "getRoleMemberCount",
      "outputs": [
        {
          "internalType": "uint256",
          "name": "",
          "type": "uint256"
        }
      ],
      "stateMutability": "view",
      "type": "function"
    },
    {
      "inputs": [],
      "name": "globalCheckpoint",
      "outputs": [],
      "stateMutability": "nonpayable",
      "type": "function"
    },
    {
      "inputs": [
        {
          "internalType": "bytes32",
          "name": "role",
          "type": "bytes32"
        },
        {
          "internalType": "address",
          "name": "account",
          "type": "address"
        }
      ],
      "name": "grantRole",
      "outputs": [],
      "stateMutability": "nonpayable",
      "type": "function"
    },
    {
      "inputs": [
        {
          "internalType": "bytes32",
          "name": "role",
          "type": "bytes32"
        },
        {
          "internalType": "address",
          "name": "account",
          "type": "address"
        }
      ],
      "name": "hasRole",
      "outputs": [
        {
          "internalType": "bool",
          "name": "",
          "type": "bool"
        }
      ],
      "stateMutability": "view",
      "type": "function"
    },
    {
      "inputs": [
        {
          "internalType": "uint256",
          "name": "",
          "type": "uint256"
        }
      ],
      "name": "inUse",
      "outputs": [
        {
          "internalType": "bool",
          "name": "",
          "type": "bool"
        }
      ],
      "stateMutability": "view",
      "type": "function"
    },
    {
      "inputs": [
        {
          "internalType": "address",
          "name": "user",
          "type": "address"
        },
        {
          "internalType": "uint256",
          "name": "_lockId",
          "type": "uint256"
        },
        {
          "internalType": "uint256",
          "name": "_value",
          "type": "uint256"
        }
      ],
      "name": "increaseAmountByStaker",
      "outputs": [],
      "stateMutability": "nonpayable",
      "type": "function"
    },
    {
      "inputs": [
        {
          "internalType": "address[]",
          "name": "users",
          "type": "address[]"
        },
        {
          "internalType": "uint256[]",
          "name": "_lockIds",
          "type": "uint256[]"
        },
        {
          "internalType": "uint256[]",
          "name": "_values",
          "type": "uint256[]"
        },
        {
          "internalType": "uint256",
          "name": "curTime",
          "type": "uint256"
        }
      ],
      "name": "increaseAmountOfIds",
      "outputs": [],
      "stateMutability": "nonpayable",
      "type": "function"
    },
    {
      "inputs": [
        {
          "internalType": "address",
          "name": "user",
          "type": "address"
        },
        {
          "internalType": "uint256",
          "name": "_lockId",
          "type": "uint256"
        },
        {
          "internalType": "uint256",
          "name": "_value",
          "type": "uint256"
        },
        {
          "internalType": "uint256",
          "name": "_unlockWeeks",
          "type": "uint256"
        }
      ],
      "name": "increaseAmountUnlockTimeByStaker",
      "outputs": [],
      "stateMutability": "nonpayable",
      "type": "function"
    },
    {
      "inputs": [
        {
          "internalType": "address",
          "name": "user",
          "type": "address"
        },
        {
          "internalType": "uint256",
          "name": "_lockId",
          "type": "uint256"
        },
        {
          "internalType": "uint256",
          "name": "_unlockWeeks",
          "type": "uint256"
        }
      ],
      "name": "increaseUnlockTimeByStaker",
      "outputs": [],
      "stateMutability": "nonpayable",
      "type": "function"
    },
    {
      "inputs": [
        {
          "internalType": "address",
          "name": "account",
          "type": "address"
        }
      ],
      "name": "isAdmin",
      "outputs": [
        {
          "internalType": "bool",
          "name": "",
          "type": "bool"
        }
      ],
      "stateMutability": "view",
      "type": "function"
    },
    {
      "inputs": [],
      "name": "lockIdCounter",
      "outputs": [
        {
          "internalType": "uint256",
          "name": "",
          "type": "uint256"
        }
      ],
      "stateMutability": "view",
      "type": "function"
    },
    {
      "inputs": [
        {
          "internalType": "uint256",
          "name": "",
          "type": "uint256"
        },
        {
          "internalType": "uint256",
          "name": "",
          "type": "uint256"
        }
      ],
      "name": "lockPointHistory",
      "outputs": [
        {
          "internalType": "int256",
          "name": "bias",
          "type": "int256"
        },
        {
          "internalType": "int256",
          "name": "slope",
          "type": "int256"
        },
        {
          "internalType": "uint256",
          "name": "timestamp",
          "type": "uint256"
        }
      ],
      "stateMutability": "view",
      "type": "function"
    },
    {
      "inputs": [],
      "name": "lock_",
      "outputs": [
        {
          "internalType": "bool",
          "name": "",
          "type": "bool"
        }
      ],
      "stateMutability": "view",
      "type": "function"
    },
    {
      "inputs": [
        {
          "internalType": "address",
          "name": "",
          "type": "address"
        },
        {
          "internalType": "uint256",
          "name": "",
          "type": "uint256"
        }
      ],
      "name": "lockedBalances",
      "outputs": [
        {
          "internalType": "uint256",
          "name": "start",
          "type": "uint256"
        },
        {
          "internalType": "uint256",
          "name": "end",
          "type": "uint256"
        },
        {
          "internalType": "uint256",
          "name": "amount",
          "type": "uint256"
        },
        {
          "internalType": "bool",
          "name": "withdrawn",
          "type": "bool"
        }
      ],
      "stateMutability": "view",
      "type": "function"
    },
    {
      "inputs": [
        {
          "internalType": "uint256",
          "name": "_lockId",
          "type": "uint256"
        }
      ],
      "name": "locksInfo",
      "outputs": [
        {
          "internalType": "uint256",
          "name": "start",
          "type": "uint256"
        },
        {
          "internalType": "uint256",
          "name": "end",
          "type": "uint256"
        },
        {
          "internalType": "uint256",
          "name": "amount",
          "type": "uint256"
        }
      ],
      "stateMutability": "view",
      "type": "function"
    },
    {
      "inputs": [
        {
          "internalType": "address",
          "name": "_addr",
          "type": "address"
        }
      ],
      "name": "locksOf",
      "outputs": [
        {
          "internalType": "uint256[]",
          "name": "",
          "type": "uint256[]"
        }
      ],
      "stateMutability": "view",
      "type": "function"
    },
    {
      "inputs": [],
      "name": "maxTime",
      "outputs": [
        {
          "internalType": "uint256",
          "name": "",
          "type": "uint256"
        }
      ],
      "stateMutability": "view",
      "type": "function"
    },
    {
      "inputs": [],
      "name": "migratedL2",
      "outputs": [
        {
          "internalType": "bool",
          "name": "",
          "type": "bool"
        }
      ],
      "stateMutability": "view",
      "type": "function"
    },
    {
      "inputs": [],
      "name": "needCheckpoint",
      "outputs": [
        {
          "internalType": "bool",
          "name": "need",
          "type": "bool"
        }
      ],
      "stateMutability": "view",
      "type": "function"
    },
    {
      "inputs": [],
      "name": "pauseProxy",
      "outputs": [
        {
          "internalType": "bool",
          "name": "",
          "type": "bool"
        }
      ],
      "stateMutability": "view",
      "type": "function"
    },
    {
      "inputs": [
        {
          "internalType": "uint256",
          "name": "",
          "type": "uint256"
        }
      ],
      "name": "pointHistory",
      "outputs": [
        {
          "internalType": "int256",
          "name": "bias",
          "type": "int256"
        },
        {
          "internalType": "int256",
          "name": "slope",
          "type": "int256"
        },
        {
          "internalType": "uint256",
          "name": "timestamp",
          "type": "uint256"
        }
      ],
      "stateMutability": "view",
      "type": "function"
    },
    {
      "inputs": [
        {
          "internalType": "uint256",
          "name": "_lockId",
          "type": "uint256"
        }
      ],
      "name": "pointHistoryOf",
      "outputs": [
        {
          "components": [
            {
              "internalType": "int256",
              "name": "bias",
              "type": "int256"
            },
            {
              "internalType": "int256",
              "name": "slope",
              "type": "int256"
            },
            {
              "internalType": "uint256",
              "name": "timestamp",
              "type": "uint256"
            }
          ],
          "internalType": "struct LibLockTOS.Point[]",
          "name": "",
          "type": "tuple[]"
        }
      ],
      "stateMutability": "view",
      "type": "function"
    },
    {
      "inputs": [
        {
          "internalType": "uint256",
          "name": "",
          "type": "uint256"
        }
      ],
      "name": "proxyImplementation",
      "outputs": [
        {
          "internalType": "address",
          "name": "",
          "type": "address"
        }
      ],
      "stateMutability": "view",
      "type": "function"
    },
    {
      "inputs": [
        {
          "internalType": "address",
          "name": "account",
          "type": "address"
        }
      ],
      "name": "removeAdmin",
      "outputs": [],
      "stateMutability": "nonpayable",
      "type": "function"
    },
    {
      "inputs": [
        {
          "internalType": "bytes32",
          "name": "role",
          "type": "bytes32"
        },
        {
          "internalType": "address",
          "name": "account",
          "type": "address"
        }
      ],
      "name": "renounceRole",
      "outputs": [],
      "stateMutability": "nonpayable",
      "type": "function"
    },
    {
      "inputs": [
        {
          "internalType": "bytes32",
          "name": "role",
          "type": "bytes32"
        },
        {
          "internalType": "address",
          "name": "account",
          "type": "address"
        }
      ],
      "name": "revokeRole",
      "outputs": [],
      "stateMutability": "nonpayable",
      "type": "function"
    },
    {
      "inputs": [
        {
          "internalType": "bytes4",
          "name": "",
          "type": "bytes4"
        }
      ],
      "name": "selectorImplementation",
      "outputs": [
        {
          "internalType": "address",
          "name": "",
          "type": "address"
        }
      ],
      "stateMutability": "view",
      "type": "function"
    },
    {
      "inputs": [
        {
          "internalType": "uint256",
          "name": "_maxTime",
          "type": "uint256"
        }
      ],
      "name": "setMaxTime",
      "outputs": [],
      "stateMutability": "nonpayable",
      "type": "function"
    },
    {
      "inputs": [
        {
          "internalType": "address",
          "name": "_staker",
          "type": "address"
        }
      ],
      "name": "setStaker",
      "outputs": [],
      "stateMutability": "nonpayable",
      "type": "function"
    },
    {
      "inputs": [
        {
          "internalType": "uint256",
          "name": "",
          "type": "uint256"
        }
      ],
      "name": "slopeChanges",
      "outputs": [
        {
          "internalType": "int256",
          "name": "",
          "type": "int256"
        }
      ],
      "stateMutability": "view",
      "type": "function"
    },
    {
      "inputs": [],
      "name": "stakeRegistry",
      "outputs": [
        {
          "internalType": "address",
          "name": "",
          "type": "address"
        }
      ],
      "stateMutability": "view",
      "type": "function"
    },
    {
      "inputs": [],
      "name": "staker",
      "outputs": [
        {
          "internalType": "address",
          "name": "",
          "type": "address"
        }
      ],
      "stateMutability": "view",
      "type": "function"
    },
    {
      "inputs": [],
      "name": "tos",
      "outputs": [
        {
          "internalType": "address",
          "name": "",
          "type": "address"
        }
      ],
      "stateMutability": "view",
      "type": "function"
    },
    {
      "inputs": [
        {
          "internalType": "address",
          "name": "_addr",
          "type": "address"
        }
      ],
      "name": "totalLockedAmountOf",
      "outputs": [
        {
          "internalType": "uint256",
          "name": "",
          "type": "uint256"
        }
      ],
      "stateMutability": "view",
      "type": "function"
    },
    {
      "inputs": [],
      "name": "totalSupply",
      "outputs": [
        {
          "internalType": "uint256",
          "name": "",
          "type": "uint256"
        }
      ],
      "stateMutability": "view",
      "type": "function"
    },
    {
      "inputs": [
        {
          "internalType": "uint256",
          "name": "_timestamp",
          "type": "uint256"
        }
      ],
      "name": "totalSupplyAt",
      "outputs": [
        {
          "internalType": "uint256",
          "name": "",
          "type": "uint256"
        }
      ],
      "stateMutability": "view",
      "type": "function"
    },
    {
      "inputs": [
        {
          "internalType": "address",
          "name": "newAdmin",
          "type": "address"
        }
      ],
      "name": "transferAdmin",
      "outputs": [],
      "stateMutability": "nonpayable",
      "type": "function"
    },
    {
      "inputs": [
        {
          "internalType": "uint256",
          "name": "",
          "type": "uint256"
        }
      ],
      "name": "uniqueUsers",
      "outputs": [
        {
          "internalType": "address",
          "name": "",
          "type": "address"
        }
      ],
      "stateMutability": "view",
      "type": "function"
    },
    {
      "inputs": [
        {
          "internalType": "address",
          "name": "",
          "type": "address"
        },
        {
          "internalType": "uint256",
          "name": "",
          "type": "uint256"
        }
      ],
      "name": "userLocks",
      "outputs": [
        {
          "internalType": "uint256",
          "name": "",
          "type": "uint256"
        }
      ],
      "stateMutability": "view",
      "type": "function"
    },
    {
      "inputs": [],
      "name": "version2",
      "outputs": [
        {
          "internalType": "bool",
          "name": "",
          "type": "bool"
        }
      ],
      "stateMutability": "pure",
      "type": "function"
    },
    {
      "inputs": [
        {
          "internalType": "address",
          "name": "user",
          "type": "address"
        }
      ],
      "name": "withdrawAllByStaker",
      "outputs": [],
      "stateMutability": "nonpayable",
      "type": "function"
    },
    {
      "inputs": [
        {
          "internalType": "address",
          "name": "user",
          "type": "address"
        },
        {
          "internalType": "uint256",
          "name": "_lockId",
          "type": "uint256"
        }
      ],
      "name": "withdrawByStaker",
      "outputs": [],
      "stateMutability": "nonpayable",
      "type": "function"
    },
    {
      "inputs": [
        {
          "internalType": "address",
          "name": "_addr",
          "type": "address"
        }
      ],
      "name": "withdrawableAmountOf",
      "outputs": [
        {
          "internalType": "uint256",
          "name": "",
          "type": "uint256"
        }
      ],
      "stateMutability": "view",
      "type": "function"
    },
    {
      "inputs": [
        {
          "internalType": "address",
          "name": "_addr",
          "type": "address"
        }
      ],
      "name": "withdrawableLocksOf",
      "outputs": [
        {
          "internalType": "uint256[]",
          "name": "",
          "type": "uint256[]"
        }
      ],
      "stateMutability": "view",
      "type": "function"
    }
  ],
  "bytecode": "0x6080604052600160075534801561001557600080fd5b50614838806100256000396000f3fe608060405234801561001057600080fd5b50600436106103875760003560e01c80639010d07c116101e0578063c3f9ab5811610110578063dd383394116100a8578063dd3833941461077b578063e43cb6661461078e578063ea31e895146107a1578063eb86b342146107a9578063ed50c699146107bc578063efe2b720146107cf578063f52a36f7146107e2578063f52dde6d146107f5578063fd2dcecf1461080857610387565b8063c3f9ab58146106d5578063c5773656146106f5578063c5dc1e5f1461070a578063c79acdda1461072a578063c80a3aa61461073d578063ca15c87314610745578063cd29ca0e14610758578063d539139314610760578063d547741f1461076857610387565b8063a29a43bb11610183578063a29a43bb1461064b578063aa33fedb1461065e578063afae883e14610671578063b2e9a1b714610679578063b534ad5614610681578063b839c0a514610689578063b911135f1461069c578063b94419e0146106af578063c0a37b3f146106c257610387565b80639010d07c146105c957806391d14854146105dc578063981b24d0146105ef57806398b777e7146106025780639ce56305146106155780639f7166a414610628578063a1f5f50e1461063b578063a217fddf1461064357610387565b80634cf5fbf5116102bb578063642cf6491161025e578063642cf6491461054a578063683048351461055d578063704802751461056557806370a082311461057857806373e1d4fe1461058b57806375829def1461059357806375b238fc146105a657806389f395de146105ae5780638ad4c447146105b657610387565b80634cf5fbf5146104ab5780634ee2cd7e146104be57806350d2a276146104d1578063550d01a3146104f15780635d16a6f9146105045780635ebaf1db1461052757806363a8fd891461052f57806363d5a3d91461053757610387565b806322e67e711161032e57806322e67e711461041d578063248a9ca31461042557806324d7806c14610438578063282c51f31461044b57806329cb924d146104535780632f2ff15d1461045b57806336568abe1461046e578063367b7b231461048157806341c04d5e146104a357610387565b8063059f8b161461038c578063086c46f4146103aa5780630b7858ba146103bd5780630db9cb0c146103d25780631785f53c146103e557806318160ddd146103fa5780631ac40e66146104025780631b8319441461040a575b600080fd5b610394610810565b6040516103a1919061429e565b60405180910390f35b6103946103b8366004613f21565b61081c565b6103c56108e8565b6040516103a19190614293565b6103946103e0366004613f64565b61092c565b6103f86103f3366004613f21565b610b42565b005b610394610ba1565b6103f8610c73565b6103f8610418366004613fce565b610c7b565b610394610f4d565b6103946104333660046140b6565b610f53565b6103c5610446366004613f21565b610f68565b610394610f88565b610394610fac565b6103f86104693660046140ce565b610fb0565b6103f861047c3660046140ce565b611017565b61049461048f3660046140f9565b611078565b6040516103a1939291906142a7565b6103946110ba565b6103f86104b9366004613f64565b6110de565b6103946104cc366004613f3b565b611264565b6104e46104df36600461411a565b611321565b6040516103a1919061415a565b6103c56104ff366004613f21565b61133c565b610517610512366004613f3b565b611351565b6040516103a194939291906145de565b6104e4611386565b6103c561139a565b6105176105453660046140b6565b6113a3565b6103946105583660046140f9565b6113cd565b6104e4611446565b6103f8610573366004613f21565b61145a565b610394610586366004613f21565b6114b6565b6103c561156a565b6103f86105a1366004613f21565b61156f565b610394611690565b6104e46116a2565b6104946105c43660046140b6565b6116b1565b6104e46105d73660046140f9565b6116e4565b6103c56105ea3660046140ce565b611703565b6103946105fd3660046140b6565b61171b565b6103f86106103660046140b6565b6117b1565b6104946106233660046140b6565b6117fa565b6103f8610636366004613f21565b611819565b6103c56119bf565b6103946119cf565b6103f8610659366004613f21565b6119d4565b61039461066c366004613f3b565b611a99565b610394611aca565b6103c5611ad0565b610394611ad9565b6103f8610697366004613f96565b611adf565b6104e46106aa3660046140b6565b611d76565b6103946106bd3660046140b6565b611d91565b6103f86106d0366004613f3b565b611e45565b6106e86106e3366004613f21565b611ef1565b6040516103a1919061425b565b6106fd611f5d565b6040516103a191906141b5565b61071d6107183660046140b6565b6120f2565b6040516103a19190614202565b6103c56107383660046140b6565b612182565b6106fd612197565b6103946107533660046140b6565b6121f9565b610394612210565b610394612216565b6103f86107763660046140ce565b61223a565b6106e8610789366004613f21565b612293565b6106e861079c366004613f21565b6124f7565b6103946126c1565b6103946107b7366004613f21565b612747565b6104e46107ca3660046140b6565b612831565b6103f86107dd366004613f64565b61285b565b6103946107f03660046140b6565b6128bd565b6103f8610803366004613f64565b6128cf565b610394612aad565b670de0b6b3a764000081565b6001600160a01b0381166000908152600d602052604081205481805b828110156108de576001600160a01b0385166000908152600d6020526040812080548390811061086457fe5b60009182526020808320909101546001600160a01b0389168352600b8252604080842082855283529283902083516080810185528154815260018201549381019390935260028101549383018490526003015460ff16151560608301529250906108cf908590612ab3565b93505050806001019050610838565b509150505b919050565b600954600090806108fd576001915050610929565b6001546009600183038154811061091057fe5b9060005260206000209060030201600201544203119150505b90565b60145460009061010090046001600160a01b03163314610981576040805162461bcd60e51b81526020600482015260146024820152600080516020614700833981519152604482015290519081900360640190fd5b600083116109aa5760405162461bcd60e51b81526004016109a190614427565b60405180910390fd5b600082116109ca5760405162461bcd60e51b81526004016109a1906144f2565b6005546109d79083612ab3565b6005556006546109e79084612ab3565b600655600154600090610a06906109ff908590612b0d565b4290612ab3565b600154909150610a2090610a1a8382612b66565b90612b0d565b90506002544282031115610a465760405162461bcd60e51b81526004016109a19061431c565b6001600160a01b0385166000908152600d6020526040902054610aaf57600880546001810182556000919091527ff3f7a9fe364faab93b216da50a3214154f22a0a2b415b23a84c8169e8b636ee30180546001600160a01b0319166001600160a01b0387161790555b600454610abd906001612ab3565b60048190559150610ad085838684612ba8565b6001600160a01b0385166000908152600d6020908152604080832080546001810182559084529190922001839055517f71fc552ee832a9004ea0bdb07cb6dd9d641eb2cb53b3cfe88c8fdcff886734a090610b3290879085908890869061418f565b60405180910390a1509392505050565b610b4b33610f68565b610b865760405162461bcd60e51b815260040180806020018281038252602281526020018061468d6022913960400191505060405180910390fd5b610b9e60008051602061474183398151915282611017565b50565b600954600090610bb357506000610929565b60098054600091610c09916000198101908110610bcc57fe5b9060005260206000209060030201604051806060016040529081600082015481526020016001820154815260200160028201548152505042612dac565b90506000610c3a610c2f610c2a846040015142612eab90919063ffffffff16565b612eed565b602084015190612f35565b9050610c6c670de0b6b3a764000082846000015113610c5a576000610c66565b8351610c669084612fde565b90612b66565b9250505090565b610b9e613043565b610c8433610f68565b610cbf5760405162461bcd60e51b815260040180806020018281038252602281526020018061468d6022913960400191505060405180910390fd5b60008451118015610cd1575082518451145b8015610cde575081518451145b610cfa5760405162461bcd60e51b81526004016109a19061437c565b835160005b81811015610f45576000868281518110610d1557fe5b602002602001015190506000868381518110610d2d57fe5b602002602001015190506000868481518110610d4557fe5b6020908102919091018101516001600160a01b0385166000908152600b835260408082208683528452908190208151608081018352815481526001820154948101949094526002810154918401919091526003015460ff161580156060840181905291935090610db55750600082115b15610f3557600654610dc79083612ab3565b5060408051608081018252825181526020808401519082015281830151918101829052600060608201528291610dfd9085612ab3565b6040820152610e0d81838b61323c565b6001600160a01b0386166000908152600b60209081526040808320888452825280832084518155828501805160018084019190915583870180516002808601919091556060890180516003968701805491151560ff19928316179055600c9098529588208951815593519284019290925551828201819055935191909201805491151591909416179092559054610eb591610c2a9190610c6690670de0b6b3a7640000612b0d565b90506000610edd610ed6610c2a8d8660200151612eab90919063ffffffff16565b8390612f35565b6040805160608101825291825260208083019485528282018e815260008b8152600a83529283208054600181810183559185529290932093516003909202909301908155935190840155516002909201919091555050505b505060019092019150610cff9050565b505050505050565b60025481565b60009081526010602052604090206002015490565b6000610f8260008051602061474183398151915283611703565b92915050565b7f9667e80708b6eeeb0053fa0cca44e028ff548e2a9f029edfeac87c118b08b7c881565b4290565b600082815260106020526040902060020154610fce906105ea613434565b6110095760405162461bcd60e51b815260040180806020018281038252602f81526020018061465e602f913960400191505060405180910390fd5b6110138282613438565b5050565b61101f613434565b6001600160a01b0316816001600160a01b03161461106e5760405162461bcd60e51b815260040180806020018281038252602f8152602001806147d4602f913960400191505060405180910390fd5b61101382826134a1565b600a602052816000526040600020818154811061109457600080fd5b600091825260209091206003909102018054600182015460029092015490935090915083565b7f52eafc11f6f81f86878bffd31109a0d92f37506527754f00788853ff9f63b13081565b60145461010090046001600160a01b03163314611130576040805162461bcd60e51b81526020600482015260146024820152600080516020614700833981519152604482015290519081900360640190fd5b600081116111505760405162461bcd60e51b81526004016109a190614427565b6001600160a01b0383166000908152600b6020908152604080832085845282529182902082516080810184528154815260018201549281019290925260028101549282019290925260039091015460ff1615801560608301526111c55760405162461bcd60e51b81526004016109a1906143fc565b80516111e35760405162461bcd60e51b81526004016109a1906145b1565b428160200151116112065760405162461bcd60e51b81526004016109a1906143a2565b6006546112139083612ab3565b6006556112238484846000612ba8565b7fea44bc904f77b1be47cd5b840b00f19b7238f88d7524fa5a86629282bfe6bcc58484846040516112569392919061416e565b60405180910390a150505050565b6001600160a01b0382166000908152600d60209081526040808320805482518185028101850190935280835284938301828280156112c157602002820191906000526020600020905b8154815260200190600101908083116112ad575b505050505090508051600014156112dc576000915050610f82565b60005b81518110156113195761130f6113088383815181106112fa57fe5b6020026020010151866113cd565b8490612ab3565b92506001016112df565b505092915050565b6013602052600090815260409020546001600160a01b031681565b60126020526000908152604090205460ff1681565b600b60209081526000928352604080842090915290825290208054600182015460028301546003909301549192909160ff1684565b60145461010090046001600160a01b031681565b60005460ff1681565b600c6020526000908152604090208054600182015460028301546003909301549192909160ff1684565b6000828152600a60205260408120819081906113e9908561350a565b91509150816113fd57600092505050610f82565b600061141c610c2f610c2a846040015188612eab90919063ffffffff16565b905061143c670de0b6b3a764000082846000015113610c5a576000610c66565b9695505050505050565b60005461010090046001600160a01b031681565b61146333610f68565b61149e5760405162461bcd60e51b815260040180806020018281038252602281526020018061468d6022913960400191505060405180910390fd5b610b9e60008051602061474183398151915282610fb0565b6001600160a01b0381166000908152600d602090815260408083208054825181850281018501909352808352849383018282801561151357602002820191906000526020600020905b8154815260200190600101908083116114ff575b5050505050905080516000141561152e5760009150506108e3565b60005b81518110156115635761155961130883838151811061154c57fe5b6020026020010151611d91565b9250600101611531565b5050919050565b600190565b61157833610f68565b6115b35760405162461bcd60e51b815260040180806020018281038252602281526020018061468d6022913960400191505060405180910390fd5b6001600160a01b038116611609576040805162461bcd60e51b815260206004820152601860248201527741636365737369626c653a207a65726f206164647265737360401b604482015290519081900360640190fd5b336001600160a01b0382161415611660576040805162461bcd60e51b815260206004820152601660248201527520b1b1b2b9b9b4b136329d1039b0b6b29030b236b4b760511b604482015290519081900360640190fd5b61167860008051602061474183398151915282610fb0565b610b9e60008051602061474183398151915233611017565b60008051602061474183398151915281565b6003546001600160a01b031681565b600981815481106116c157600080fd5b600091825260209091206003909102018054600182015460029092015490925083565b60008281526010602052604081206116fc9083613602565b9392505050565b60008281526010602052604081206116fc908361360e565b60095460009061172d575060006108e3565b60008061173b60098561350a565b915091508161174f576000925050506108e3565b6117598185612dac565b90506000611777610c2a836040015187612eab90919063ffffffff16565b82602001510290506117a8670de0b6b3a76400008284600001511361179d576000610c66565b835183900390612b66565b95945050505050565b6117ba33610f68565b6117f55760405162461bcd60e51b815260040180806020018281038252602281526020018061468d6022913960400191505060405180910390fd5b600255565b6000908152600c60205260409020805460018201546002909201549092565b60075460011461183b5760405162461bcd60e51b81526004016109a19061457f565b600060075560145461010090046001600160a01b03163314611892576040805162461bcd60e51b81526020600482015260146024820152600080516020614700833981519152604482015290519081900360640190fd5b6001600160a01b0381166000908152600d6020526040902080546118b657506119b7565b60005b81548110156119b4576000600c60008484815481106118d457fe5b6000918252602080832090910154835282810193909352604091820190208151608081018352815481526001820154938101939093526002810154918301919091526003015460ff16158015606083018190529192509061194b5750600083838154811061193e57fe5b9060005260206000200154115b801561195b575060008160400151115b80156119675750805115155b8015611977575060008160200151115b80156119865750428160200151105b156119ab576119ab8484848154811061199b57fe5b9060005260206000200154613623565b506001016118b9565b50505b506001600755565b600054600160a81b900460ff1681565b600081565b6119dd33610f68565b611a185760405162461bcd60e51b815260040180806020018281038252602281526020018061468d6022913960400191505060405180910390fd5b6001600160a01b038116611a3e5760405162461bcd60e51b81526004016109a19061445e565b6014546001600160a01b03828116610100909204161415611a715760405162461bcd60e51b81526004016109a190614529565b601480546001600160a01b0390921661010002610100600160a81b0319909216919091179055565b600d6020528160005260406000208181548110611ab557600080fd5b90600052602060002001600091509150505481565b60045481565b60145460ff1681565b60055481565b60145461010090046001600160a01b03163314611b31576040805162461bcd60e51b81526020600482015260146024820152600080516020614700833981519152604482015290519081900360640190fd5b60008211611b515760405162461bcd60e51b81526004016109a190614427565b60008111611b715760405162461bcd60e51b81526004016109a1906144f2565b6001600160a01b0384166000908152600b6020908152604080832086845282529182902082516080810184528154815260018201549281019290925260028101549282019290925260039091015460ff161580156060830152611be65760405162461bcd60e51b81526004016109a1906143fc565b8051611c045760405162461bcd60e51b81526004016109a1906145b1565b42816020015111611c275760405162461bcd60e51b81526004016109a1906143a2565b6000611c4c611c4160015485612b0d90919063ffffffff16565b602084015190612ab3565b600154909150611c6090610a1a8382612b66565b905060025442820310611c855760405162461bcd60e51b81526004016109a19061431c565b80826020015110611ca85760405162461bcd60e51b81526004016109a1906144bb565b6000826040015111611ccc5760405162461bcd60e51b81526004016109a1906142ec565b600654611cd99085612ab3565b600655600554611ce99084612ab3565b600555611cf886868684612ba8565b7fea44bc904f77b1be47cd5b840b00f19b7238f88d7524fa5a86629282bfe6bcc5868686604051611d2b9392919061416e565b60405180910390a17fb8596b0e78133666b86648f60233cc2d078144d06df7874ea9f612a3ccc3e2fb868683604051611d669392919061416e565b60405180910390a1505050505050565b6011602052600090815260409020546001600160a01b031681565b6000818152600a602052604081205480611daf5760009150506108e3565b6000838152600a6020526040812080546000198401908110611dcd57fe5b9060005260206000209060030201604051806060016040529081600082015481526020016001820154815260200160028201548152505090506000611e25610c2f610c2a846040015142612eab90919063ffffffff16565b90506117a8670de0b6b3a764000082846000015113610c5a576000610c66565b600754600114611e675760405162461bcd60e51b81526004016109a19061457f565b600060075560145461010090046001600160a01b03163314611ebe576040805162461bcd60e51b81526020600482015260146024820152600080516020614700833981519152604482015290519081900360640190fd5b60008111611ede5760405162461bcd60e51b81526004016109a190614353565b611ee88282613623565b50506001600755565b6001600160a01b0381166000908152600d6020908152604091829020805483518184028101840190945280845260609392830182828015611f5157602002820191906000526020600020905b815481526020019060010190808311611f3d575b50505050509050919050565b6008546060906000906001600160401b0381118015611f7b57600080fd5b50604051908082528060200260200182016040528015611fa5578160200160208202803683370190505b5090506000805b60085481101561201c576000611fe260088381548110611fc857fe5b6000918252602090912001546001600160a01b03166124f7565b805190915015612013578280600101935050600184838151811061200257fe5b911515602092830291909101909101525b50600101611fac565b506000816001600160401b038111801561203557600080fd5b5060405190808252806020026020018201604052801561205f578160200160208202803683370190505b5090506000805b6008548110156120e85784818151811061207c57fe5b6020026020010151156120e0576008818154811061209657fe5b600091825260209091200154835160018401936001600160a01b0390921691859181106120bf57fe5b60200260200101906001600160a01b031690816001600160a01b0316815250505b600101612066565b5090935050505090565b6060600a6000838152602001908152602001600020805480602002602001604051908101604052809291908181526020016000905b828210156121775783829060005260206000209060030201604051806060016040529081600082015481526020016001820154815260200160028201548152505081526020019060010190612127565b505050509050919050565b600f6020526000908152604090205460ff1681565b606060088054806020026020016040519081016040528092919081815260200182805480156121ef57602002820191906000526020600020905b81546001600160a01b031681526001909101906020018083116121d1575b5050505050905090565b6000818152601060205260408120610f82906137ec565b60065481565b7ff0887ba65ee2024ea881d91b74c2450ef19e1557f03bed3ea9f16b037cbe2dc981565b600082815260106020526040902060020154612258906105ea613434565b61106e5760405162461bcd60e51b81526004018080602001828103825260308152602001806146d06030913960400191505060405180910390fd5b60145460609061010090046001600160a01b031633146122e8576040805162461bcd60e51b81526020600482015260146024820152600080516020614700833981519152604482015290519081900360640190fd5b6001600160a01b0382166000908152600d602052604081205490805b828110156123c6576001600160a01b0385166000908152600d6020526040812080548390811061233057fe5b60009182526020808320909101546001600160a01b0389168352600b8252604080842082855283529283902083516080810185528154815260018201549381018490526002820154948101949094526003015460ff1615156060840152925042108015906123a2575060008160400151115b80156123b057506060810151155b156123bc576001909301925b5050600101612304565b506000816001600160401b03811180156123df57600080fd5b50604051908082528060200260200182016040528015612409578160200160208202803683370190505b5090506000915060005b838110156124ee576001600160a01b0386166000908152600d6020526040812080548390811061243f57fe5b60009182526020808320909101546001600160a01b038a168352600b8252604080842082855283529283902083516080810185528154815260018201549381018490526002820154948101949094526003015460ff1615156060840152925042108015906124b1575060008160400151115b80156124bf57506060810151155b156124e457818486806001019750815181106124d757fe5b6020026020010181815250505b5050600101612413565b50949350505050565b6001600160a01b0381166000908152600d6020526040812054606091805b828110156125b8576001600160a01b0385166000908152600d6020526040812080548390811061254157fe5b60009182526020808320909101546001600160a01b0389168352600b8252604080842082855283529283902083516080810185528154815260018201549381018490526002820154948101949094526003015460ff161515606084015292504210156125ae576001909301925b5050600101612515565b506000816001600160401b03811180156125d157600080fd5b506040519080825280602002602001820160405280156125fb578160200160208202803683370190505b5090506000915060005b838110156124ee576001600160a01b0386166000908152600d6020526040812080548390811061263157fe5b60009182526020808320909101546001600160a01b038a168352600b8252604080842082855283529283902083516080810185528154815260018201549381018490526002820154948101949094526003015460ff161515606084015292504210156126b757818486806001019750815181106126aa57fe5b6020026020010181815250505b5050600101612605565b6003546040516370a0823160e01b81526000916001600160a01b0316906370a08231906126f290309060040161415a565b60206040518083038186803b15801561270a57600080fd5b505afa15801561271e573d6000803e3d6000fd5b505050506040513d601f19601f820116820180604052508101906127429190614142565b905090565b6001600160a01b0381166000908152600d602052604081205481805b828110156108de576001600160a01b0385166000908152600d6020526040812080548390811061278f57fe5b60009182526020808320909101546001600160a01b0389168352600b8252604080842082855283529283902083516080810185528154815260018201549381018490526002820154948101949094526003015460ff161515606084015292504210801590612801575060008160400151115b801561280f57506060810151155b15612827576040810151612824908590612ab3565b93505b5050600101612763565b6008818154811061284157600080fd5b6000918252602090912001546001600160a01b0316905081565b60145461010090046001600160a01b031633146128ad576040805162461bcd60e51b81526020600482015260146024820152600080516020614700833981519152604482015290519081900360640190fd5b6128b88383836110de565b505050565b600e6020526000908152604090205481565b60145461010090046001600160a01b03163314612921576040805162461bcd60e51b81526020600482015260146024820152600080516020614700833981519152604482015290519081900360640190fd5b600081116129415760405162461bcd60e51b81526004016109a1906144f2565b60055461294e9082612ab3565b6005556001600160a01b0383166000908152600b602090815260408083208584528252808320815160808101835281548152600180830154948201949094526002820154928101929092526003015460ff161515606082015290549091906129bb90611c41908590612b0d565b6001549091506129cf90610a1a8382612b66565b9050600254428203106129f45760405162461bcd60e51b81526004016109a19061431c565b42826020015111612a175760405162461bcd60e51b81526004016109a190614484565b80826020015110612a3a5760405162461bcd60e51b81526004016109a1906144bb565b6000826040015111612a5e5760405162461bcd60e51b81526004016109a1906142ec565b612a6b8585600084612ba8565b7fb8596b0e78133666b86648f60233cc2d078144d06df7874ea9f612a3ccc3e2fb858583604051612a9e9392919061416e565b60405180910390a15050505050565b60015481565b6000828201838110156116fc576040805162461bcd60e51b815260206004820152601b60248201527f536166654d6174683a206164646974696f6e206f766572666c6f770000000000604482015290519081900360640190fd5b600082612b1c57506000610f82565b82820282848281612b2957fe5b04146116fc5760405162461bcd60e51b81526004018080602001828103825260218152602001806147206021913960400191505060405180910390fd5b60006116fc83836040518060400160405280601a81526020017f536166654d6174683a206469766973696f6e206279207a65726f0000000000008152506137f7565b600754600114612bca5760405162461bcd60e51b81526004016109a19061457f565b600060078190556001600160a01b0385168152600b602090815260408083208684528252808320815160808082018452825482526001830154828601908152600284015483860190815260039094015460ff1615156060808501919091528551928301865283518352905195820195909552915192820183905292810193909352909190612c589085612ab3565b60408201528215612c6b57602081018390525b8051612c75574281525b612c7f8183613899565b6001600160a01b0386166000908152600b60209081526040808320888452825280832084518155828501805160018084019190915583870180516002808601919091556060890180516003968701805491151560ff19928316179055600c9098529588208951815593519284019290925551828201819055935191909201805491151591909416179092559054612d2791610c2a9190610c6690670de0b6b3a7640000612b0d565b90506000612d48610ed6610c2a428660200151612eab90919063ffffffff16565b6040805160608101825291825260208083019485524283830190815260009a8b52600a8252918a20805460018181018355918c5291909a20925160039091029092019182559251818901559151600290920191909155505050600792909255505050565b612db4613e7d565b6001546040840151600091612dcd91610a1a9082612b66565b90505b828114612ea357612df5612def60015483612ab390919063ffffffff16565b84613a69565b6000818152600e6020526040808220549087015192935091612e2890610c2a90612e20908690612eab565b600154613a69565b9050612e4c612e44828860200151612f3590919063ffffffff16565b875190612fde565b86526020860151612e5d9083613a7f565b60208701528551600012612e72576000612e75565b85515b86526020860151600012612e8a576000612e90565b85602001515b6020870152505060408401819052612dd0565b509192915050565b60006116fc83836040518060400160405280601e81526020017f536166654d6174683a207375627472616374696f6e206f766572666c6f770000815250613ae4565b6000600160ff1b8210612f315760405162461bcd60e51b81526004018080602001828103825260288152602001806147886028913960400191505060405180910390fd5b5090565b600082612f4457506000610f82565b82600019148015612f585750600160ff1b82145b15612f945760405162461bcd60e51b81526004018080602001828103825260278152602001806147616027913960400191505060405180910390fd5b82820282848281612fa157fe5b05146116fc5760405162461bcd60e51b81526004018080602001828103825260278152602001806147616027913960400191505060405180910390fd5b6000818303818312801590612ff35750838113155b80613008575060008312801561300857508381135b6116fc5760405162461bcd60e51b81526004018080602001828103825260248152602001806147b06024913960400191505060405180910390fd5b61304b613e7d565b6009544290156130a55760098054600019810190811061306757fe5b9060005260206000209060030201604051806060016040529081600082015481526020016001820154815260200160028201548152505091506130c5565b604051806060016040528060008152602001600081526020018281525091505b60015460408301516000916130de91610a1a9082612b66565b90505b8181146132375761310661310060015483612ab390919063ffffffff16565b83613a69565b6000818152600e602052604080822054908601519293509161313190610c2a90612e20908690612eab565b905061315561314d828760200151612f3590919063ffffffff16565b865190612fde565b855260208501516131669083613a7f565b6020860152845160001261317b57600061317e565b84515b85526020850151600012613193576000613199565b84602001515b60208601908152604086018481526009805460018101825560009190915287517f6e1540171b6c0c960b71a7020d9f60077f6af931a8bbf590da0223dacf75c7af60039092029182015591517f6e1540171b6c0c960b71a7020d9f60077f6af931a8bbf590da0223dacf75c7b0830155517f6e1540171b6c0c960b71a7020d9f60077f6af931a8bbf590da0223dacf75c7b190910155506130e19050565b505090565b60408051606080820183526000808352602080840182905283850182905284519283018552818352828101829052938201529185015183929083108015613287575060008660400151115b156132df576132b4610c2a600254610c66670de0b6b3a76400008a60400151612b0d90919063ffffffff16565b6020808401919091528601516132d290610c2f90610c2a9086612eab565b8252602086015160408301525b8285602001511180156132f6575060008560400151115b1561335957613323610c2a600254610c66670de0b6b3a76400008960400151612b0d90919063ffffffff16565b60208083019190915285015161334c9061334190610c2a9086612eab565b602083015190612f35565b8152602085015160408201525b6000613363613043565b8251845191925061337f9161337791612fde565b825190613a7f565b8152602080830151908401516133a4916133999190612fde565b602083015190613a7f565b602082015280516000126133b95760006133bc565b80515b815260208101516000126133d15760006133d7565b80602001515b60208201526009805482919060001981019081106133f157fe5b906000526020600020906003020160008201518160000155602082015181600101556040820151816002015590505061342b838387613b3e565b50505050505050565b3390565b60008281526010602052604090206134509082613c01565b156110135761345d613434565b6001600160a01b0316816001600160a01b0316837f2f8788117e7eff1d82e926ec794901d17c78024a50270940304540a733656f0d60405160405180910390a45050565b60008281526010602052604090206134b99082613c16565b15611013576134c6613434565b6001600160a01b0316816001600160a01b0316837ff6391f5c32d9c69d2a47ea670b442974b53935d1edc7fd64eb21e047a839171b60405160405180910390a45050565b6000613514613e7d565b835461352357600091506135fb565b83546000905b8082600101101561357d5760006135456002610c668585612ab3565b90508587828154811061355457fe5b9060005260206000209060030201600201541161357357809250613577565b8091505b50613529565b8486838154811061358a57fe5b906000526020600020906003020160020154116135f45760018683815481106135af57fe5b906000526020600020906003020180604051806060016040529081600082015481526020016001820154815260200160028201548152505090509350935050506135fb565b6000935050505b9250929050565b60006116fc8383613c2b565b60006116fc836001600160a01b038416613c8f565b6001600160a01b0382166000908152600b6020908152604080832084845282529182902082516080810184528154815260018201549281019290925260028101549282019290925260039091015460ff1615801560608301526136985760405162461bcd60e51b81526004016109a1906143d1565b80516136b65760405162461bcd60e51b81526004016109a1906145b1565b428160200151106136d95760405162461bcd60e51b81526004016109a19061454f565b60008160400151116136fd5760405162461bcd60e51b81526004016109a1906142bd565b60408051608081018252600080825260208201819052918101919091526001606082015261372b8183613899565b6040808301516001600160a01b0386166000908152600b60209081528382208783528152838220855181558186018051600180840191909155878701805160028086019190915560608a0180516003968701805491151560ff19928316179055600c909752968990208a51815593519284019290925551908201559251920180549215159290911691909117905590517ff1206247bdd5e2e0cfc00bea4cf05fb8dc479ebee686f9549043179cc7013b3090612a9e9087908790859061416e565b6000610f8282613ca7565b600081836138835760405162461bcd60e51b81526004018080602001828103825283818151815260200191508051906020019080838360005b83811015613848578181015183820152602001613830565b50505050905090810190601f1680156138755780820380516001836020036101000a031916815260200191505b509250505060405180910390fd5b50600083858161388f57fe5b0495945050505050565b604080516060808201835260008083526020808401829052838501829052845192830185528183528281018290529382015291840151429290831080156138e4575060008560400151115b1561393c57613911610c2a600254610c66670de0b6b3a76400008960400151612b0d90919063ffffffff16565b60208084019190915285015161392f90610c2f90610c2a9086612eab565b8252602085015160408301525b828460200151118015613953575060008460400151115b156139ab57613980610c2a600254610c66670de0b6b3a76400008860400151612b0d90919063ffffffff16565b60208083019190915284015161399e9061334190610c2a9086612eab565b8152602084015160408201525b60006139b5613043565b825184519192506139c99161337791612fde565b8152602080830151908401516139e3916133999190612fde565b602082015280516000126139f85760006139fb565b80515b81526020810151600012613a10576000613a16565b80602001515b6020820152600980548291906000198101908110613a3057fe5b9060005260206000209060030201600082015181600001556020820151816001015560408201518160020155905050610f458383613cab565b6000818310613a7857816116fc565b5090919050565b6000828201818312801590613a945750838112155b80613aa95750600083128015613aa957508381125b6116fc5760405162461bcd60e51b81526004018080602001828103825260218152602001806146af6021913960400191505060405180910390fd5b60008184841115613b365760405162461bcd60e51b8152602060048201818152835160248401528351909283926044909101919085019080838360008315613848578181015183820152602001613830565b505050900390565b6040808401516000908152600e602052818120548483018051835292909120549151909190831015613bb4576020840151613b7a908290613a7f565b9050846040015184604001511415613b9f576020850151613b9c908290612fde565b90505b6040808501516000908152600e602052208190555b828560400151118015613bce575083604001518560400151115b15613bfa576020850151613be3908390612fde565b6040808701516000908152600e6020522081905591505b5050505050565b60006116fc836001600160a01b038416613d6d565b60006116fc836001600160a01b038416613db7565b81546000908210613c6d5760405162461bcd60e51b815260040180806020018281038252602281526020018061463c6022913960400191505060405180910390fd5b826000018281548110613c7c57fe5b9060005260206000200154905092915050565b60009081526001919091016020526040902054151590565b5490565b6040808301516000908152600e602052818120548383018051835292909120549151909190421015613d21576020830151613ce7908290613a7f565b9050836040015183604001511415613d0c576020840151613d09908290612fde565b90505b6040808401516000908152600e602052208190555b428460400151118015613d3b575082604001518460400151115b15613d67576020840151613d50908390612fde565b6040808601516000908152600e6020522081905591505b50505050565b6000613d798383613c8f565b613daf57508154600181810184556000848152602080822090930184905584548482528286019093526040902091909155610f82565b506000610f82565b60008181526001830160205260408120548015613e735783546000198083019190810190600090879083908110613dea57fe5b9060005260206000200154905080876000018481548110613e0757fe5b600091825260208083209091019290925582815260018981019092526040902090840190558654879080613e3757fe5b60019003818190600052602060002001600090559055866001016000878152602001908152602001600020600090556001945050505050610f82565b6000915050610f82565b60405180606001604052806000815260200160008152602001600081525090565b80356001600160a01b03811681146108e357600080fd5b600082601f830112613ec5578081fd5b81356020613eda613ed58361461e565b6145fb565b8281528181019085830183850287018401881015613ef6578586fd5b855b85811015613f1457813584529284019290840190600101613ef8565b5090979650505050505050565b600060208284031215613f32578081fd5b6116fc82613e9e565b60008060408385031215613f4d578081fd5b613f5683613e9e565b946020939093013593505050565b600080600060608486031215613f78578081fd5b613f8184613e9e565b95602085013595506040909401359392505050565b60008060008060808587031215613fab578081fd5b613fb485613e9e565b966020860135965060408601359560600135945092505050565b60008060008060808587031215613fe3578384fd5b84356001600160401b0380821115613ff9578586fd5b818701915087601f83011261400c578586fd5b8135602061401c613ed58361461e565b82815281810190858301838502870184018d1015614038578a8bfd5b8a96505b848710156140615761404d81613e9e565b83526001969096019591830191830161403c565b5098505088013592505080821115614077578485fd5b61408388838901613eb5565b94506040870135915080821115614098578384fd5b506140a587828801613eb5565b949793965093946060013593505050565b6000602082840312156140c7578081fd5b5035919050565b600080604083850312156140e0578182fd5b823591506140f060208401613e9e565b90509250929050565b6000806040838503121561410b578182fd5b50508035926020909101359150565b60006020828403121561412b578081fd5b81356001600160e01b0319811681146116fc578182fd5b600060208284031215614153578081fd5b5051919050565b6001600160a01b0391909116815260200190565b6001600160a01b039390931683526020830191909152604082015260600190565b6001600160a01b0394909416845260208401929092526040830152606082015260800190565b6020808252825182820181905260009190848201906040850190845b818110156141f65783516001600160a01b0316835292840192918401916001016141d1565b50909695505050505050565b602080825282518282018190526000919060409081850190868401855b8281101561424e578151805185528681015187860152850151858501526060909301929085019060010161421f565b5091979650505050505050565b6020808252825182820181905260009190848201906040850190845b818110156141f657835183529284019291840191600101614277565b901515815260200190565b90815260200190565b9283526020830191909152604082015260600190565b6020808252601590820152744e6f20616d6f756e7420746f20776974686472617760581b604082015260600190565b6020808252601690820152754e6f206578697374696e67206c6f636b656420544f5360501b604082015260600190565b6020808252601a908201527f4d617820756e6c6f636b2074696d652069732033207965617273000000000000604082015260600190565b6020808252600f908201526e5f6c6f636b4964206973207a65726f60881b604082015260600190565b6020808252600c908201526b0eee4dedcce40d8cadccee8d60a31b604082015260600190565b602080825260159082015274131bd8dac81d1a5b59481a5cc8199a5b9a5cda1959605a1b604082015260600190565b60208082526011908201527020b63932b0b23c903bb4ba34323930bbb760791b604082015260600190565b6020808252601190820152702637b1b59034b9903bb4ba34323930bbb760791b604082015260600190565b6020808252601f908201527f56616c7565206c6f636b65642073686f756c64206265206e6f6e2d7a65726f00604082015260600190565b6020808252600c908201526b7a65726f206164647265737360a01b604082015260600190565b6020808252601a908201527f4c6f636b2074696d6520616c72656164792066696e6973686564000000000000604082015260600190565b6020808252601d908201527f4e6577206c6f636b2074696d65206d7573742062652067726561746572000000604082015260600190565b6020808252601e908201527f556e6c6f636b20706572696f64206c657373207468616e2061207765656b0000604082015260600190565b6020808252600c908201526b73616d65206164647265737360a01b604082015260600190565b602080825260169082015275131bd8dac81d1a5b59481b9bdd08199a5b9a5cda195960521b604082015260600190565b6020808252601890820152774c6f636b496420697320616c726561647920696e2075736560401b604082015260600190565b602080825260139082015272131bd8dac8191bd95cc81b9bdd08195e1a5cdd606a1b604082015260600190565b938452602084019290925260408301521515606082015260800190565b6040518181016001600160401b038111828210171561461657fe5b604052919050565b60006001600160401b0382111561463157fe5b506020908102019056fe456e756d657261626c655365743a20696e646578206f7574206f6620626f756e6473416363657373436f6e74726f6c3a2073656e646572206d75737420626520616e2061646d696e20746f206772616e7441636365737369626c653a2043616c6c6572206973206e6f7420616e2061646d696e5369676e6564536166654d6174683a206164646974696f6e206f766572666c6f77416363657373436f6e74726f6c3a2073656e646572206d75737420626520616e2061646d696e20746f207265766f6b6563616c6c6572206973206e6f74207374616b6572000000000000000000000000536166654d6174683a206d756c7469706c69636174696f6e206f766572666c6f77df8b4c520ffe197c5343c6f5aec59570151ef9a492f2c624fd45ddde6135ec425369676e6564536166654d6174683a206d756c7469706c69636174696f6e206f766572666c6f7753616665436173743a2076616c756520646f65736e27742066697420696e20616e20696e743235365369676e6564536166654d6174683a207375627472616374696f6e206f766572666c6f77416363657373436f6e74726f6c3a2063616e206f6e6c792072656e6f756e636520726f6c657320666f722073656c66a26469706673582212207939176274cb94ff43d4fbc9b435f599d15598593792161a9a407faf7ad2f19064736f6c63430007060033",
  "linkReferences": {},
  "deployedLinkReferences": {}
}