{
  "_format": "hh-sol-artifact-1",
  "contractName": "LockTOSv2Proxy",
  "sourceName": "contracts/stake/LockTOSv2Proxy.sol",
  "abi": [
    {
      "inputs": [],
      "stateMutability": "nonpayable",
      "type": "constructor"
    },
    {
      "anonymous": false,
      "inputs": [
        {
          "indexed": true,
          "internalType": "bytes32",
          "name": "role",
          "type": "bytes32"
        },
        {
          "indexed": true,
          "internalType": "bytes32",
          "name": "previousAdminRole",
          "type": "bytes32"
        },
        {
          "indexed": true,
          "internalType": "bytes32",
          "name": "newAdminRole",
          "type": "bytes32"
        }
      ],
      "name": "RoleAdminChanged",
      "type": "event"
    },
    {
      "anonymous": false,
      "inputs": [
        {
          "indexed": true,
          "internalType": "bytes32",
          "name": "role",
          "type": "bytes32"
        },
        {
          "indexed": true,
          "internalType": "address",
          "name": "account",
          "type": "address"
        },
        {
          "indexed": true,
          "internalType": "address",
          "name": "sender",
          "type": "address"
        }
      ],
      "name": "RoleGranted",
      "type": "event"
    },
    {
      "anonymous": false,
      "inputs": [
        {
          "indexed": true,
          "internalType": "bytes32",
          "name": "role",
          "type": "bytes32"
        },
        {
          "indexed": true,
          "internalType": "address",
          "name": "account",
          "type": "address"
        },
        {
          "indexed": true,
          "internalType": "address",
          "name": "sender",
          "type": "address"
        }
      ],
      "name": "RoleRevoked",
      "type": "event"
    },
    {
      "anonymous": false,
      "inputs": [
        {
          "indexed": true,
          "internalType": "address",
          "name": "implementation",
          "type": "address"
        },
        {
          "indexed": false,
          "internalType": "uint256",
          "name": "_index",
          "type": "uint256"
        },
        {
          "indexed": false,
          "internalType": "bool",
          "name": "_alive",
          "type": "bool"
        }
      ],
      "name": "UpgradedLogic",
      "type": "event"
    },
    {
      "stateMutability": "payable",
      "type": "fallback"
    },
    {
      "inputs": [],
      "name": "ADMIN_ROLE",
      "outputs": [
        {
          "internalType": "bytes32",
          "name": "",
          "type": "bytes32"
        }
      ],
      "stateMutability": "view",
      "type": "function"
    },
    {
      "inputs": [],
      "name": "BURNER_ROLE",
      "outputs": [
        {
          "internalType": "bytes32",
          "name": "",
          "type": "bytes32"
        }
      ],
      "stateMutability": "view",
      "type": "function"
    },
    {
      "inputs": [],
      "name": "DEFAULT_ADMIN_ROLE",
      "outputs": [
        {
          "internalType": "bytes32",
          "name": "",
          "type": "bytes32"
        }
      ],
      "stateMutability": "view",
      "type": "function"
    },
    {
      "inputs": [],
      "name": "MINTER_ROLE",
      "outputs": [
        {
          "internalType": "bytes32",
          "name": "",
          "type": "bytes32"
        }
      ],
      "stateMutability": "view",
      "type": "function"
    },
    {
      "inputs": [],
      "name": "MULTIPLIER",
      "outputs": [
        {
          "internalType": "uint256",
          "name": "",
          "type": "uint256"
        }
      ],
      "stateMutability": "view",
      "type": "function"
    },
    {
      "inputs": [],
      "name": "PROJECT_ADMIN_ROLE",
      "outputs": [
        {
          "internalType": "bytes32",
          "name": "",
          "type": "bytes32"
        }
      ],
      "stateMutability": "view",
      "type": "function"
    },
    {
      "inputs": [
        {
          "internalType": "address",
          "name": "account",
          "type": "address"
        }
      ],
      "name": "addAdmin",
      "outputs": [],
      "stateMutability": "nonpayable",
      "type": "function"
    },
    {
      "inputs": [
        {
          "internalType": "address",
          "name": "",
          "type": "address"
        }
      ],
      "name": "aliveImplementation",
      "outputs": [
        {
          "internalType": "bool",
          "name": "",
          "type": "bool"
        }
      ],
      "stateMutability": "view",
      "type": "function"
    },
    {
      "inputs": [
        {
          "internalType": "uint256",
          "name": "",
          "type": "uint256"
        }
      ],
      "name": "allLocks",
      "outputs": [
        {
          "internalType": "uint256",
          "name": "start",
          "type": "uint256"
        },
        {
          "internalType": "uint256",
          "name": "end",
          "type": "uint256"
        },
        {
          "internalType": "uint256",
          "name": "amount",
          "type": "uint256"
        },
        {
          "internalType": "bool",
          "name": "withdrawn",
          "type": "bool"
        }
      ],
      "stateMutability": "view",
      "type": "function"
    },
    {
      "inputs": [],
      "name": "cumulativeEpochUnit",
      "outputs": [
        {
          "internalType": "uint256",
          "name": "",
          "type": "uint256"
        }
      ],
      "stateMutability": "view",
      "type": "function"
    },
    {
      "inputs": [],
      "name": "cumulativeTOSAmount",
      "outputs": [
        {
          "internalType": "uint256",
          "name": "",
          "type": "uint256"
        }
      ],
      "stateMutability": "view",
      "type": "function"
    },
    {
      "inputs": [],
      "name": "epochUnit",
      "outputs": [
        {
          "internalType": "uint256",
          "name": "",
          "type": "uint256"
        }
      ],
      "stateMutability": "view",
      "type": "function"
    },
    {
      "inputs": [
        {
          "internalType": "bytes32",
          "name": "role",
          "type": "bytes32"
        }
      ],
      "name": "getRoleAdmin",
      "outputs": [
        {
          "internalType": "bytes32",
          "name": "",
          "type": "bytes32"
        }
      ],
      "stateMutability": "view",
      "type": "function"
    },
    {
      "inputs": [
        {
          "internalType": "bytes32",
          "name": "role",
          "type": "bytes32"
        },
        {
          "internalType": "uint256",
          "name": "index",
          "type": "uint256"
        }
      ],
      "name": "getRoleMember",
      "outputs": [
        {
          "internalType": "address",
          "name": "",
          "type": "address"
        }
      ],
      "stateMutability": "view",
      "type": "function"
    },
    {
      "inputs": [
        {
          "internalType": "bytes32",
          "name": "role",
          "type": "bytes32"
        }
      ],
      "name": "getRoleMemberCount",
      "outputs": [
        {
          "internalType": "uint256",
          "name": "",
          "type": "uint256"
        }
      ],
      "stateMutability": "view",
      "type": "function"
    },
    {
      "inputs": [
        {
          "internalType": "bytes4",
          "name": "_selector",
          "type": "bytes4"
        }
      ],
      "name": "getSelectorImplementation2",
      "outputs": [
        {
          "internalType": "address",
          "name": "impl",
          "type": "address"
        }
      ],
      "stateMutability": "view",
      "type": "function"
    },
    {
      "inputs": [
        {
          "internalType": "bytes32",
          "name": "role",
          "type": "bytes32"
        },
        {
          "internalType": "address",
          "name": "account",
          "type": "address"
        }
      ],
      "name": "grantRole",
      "outputs": [],
      "stateMutability": "nonpayable",
      "type": "function"
    },
    {
      "inputs": [
        {
          "internalType": "bytes32",
          "name": "role",
          "type": "bytes32"
        },
        {
          "internalType": "address",
          "name": "account",
          "type": "address"
        }
      ],
      "name": "hasRole",
      "outputs": [
        {
          "internalType": "bool",
          "name": "",
          "type": "bool"
        }
      ],
      "stateMutability": "view",
      "type": "function"
    },
    {
      "inputs": [],
      "name": "implementation",
      "outputs": [
        {
          "internalType": "address",
          "name": "",
          "type": "address"
        }
      ],
      "stateMutability": "view",
      "type": "function"
    },
    {
      "inputs": [
        {
          "internalType": "uint256",
          "name": "_index",
          "type": "uint256"
        }
      ],
      "name": "implementation2",
      "outputs": [
        {
          "internalType": "address",
          "name": "",
          "type": "address"
        }
      ],
      "stateMutability": "view",
      "type": "function"
    },
    {
      "inputs": [
        {
          "internalType": "uint256",
          "name": "",
          "type": "uint256"
        }
      ],
      "name": "inUse",
      "outputs": [
        {
          "internalType": "bool",
          "name": "",
          "type": "bool"
        }
      ],
      "stateMutability": "view",
      "type": "function"
    },
    {
      "inputs": [
        {
          "internalType": "address",
          "name": "account",
          "type": "address"
        }
      ],
      "name": "isAdmin",
      "outputs": [
        {
          "internalType": "bool",
          "name": "",
          "type": "bool"
        }
      ],
      "stateMutability": "view",
      "type": "function"
    },
    {
      "inputs": [],
      "name": "lockIdCounter",
      "outputs": [
        {
          "internalType": "uint256",
          "name": "",
          "type": "uint256"
        }
      ],
      "stateMutability": "view",
      "type": "function"
    },
    {
      "inputs": [
        {
          "internalType": "uint256",
          "name": "",
          "type": "uint256"
        },
        {
          "internalType": "uint256",
          "name": "",
          "type": "uint256"
        }
      ],
      "name": "lockPointHistory",
      "outputs": [
        {
          "internalType": "int256",
          "name": "bias",
          "type": "int256"
        },
        {
          "internalType": "int256",
          "name": "slope",
          "type": "int256"
        },
        {
          "internalType": "uint256",
          "name": "timestamp",
          "type": "uint256"
        }
      ],
      "stateMutability": "view",
      "type": "function"
    },
    {
      "inputs": [],
      "name": "lock_",
      "outputs": [
        {
          "internalType": "bool",
          "name": "",
          "type": "bool"
        }
      ],
      "stateMutability": "view",
      "type": "function"
    },
    {
      "inputs": [
        {
          "internalType": "address",
          "name": "",
          "type": "address"
        },
        {
          "internalType": "uint256",
          "name": "",
          "type": "uint256"
        }
      ],
      "name": "lockedBalances",
      "outputs": [
        {
          "internalType": "uint256",
          "name": "start",
          "type": "uint256"
        },
        {
          "internalType": "uint256",
          "name": "end",
          "type": "uint256"
        },
        {
          "internalType": "uint256",
          "name": "amount",
          "type": "uint256"
        },
        {
          "internalType": "bool",
          "name": "withdrawn",
          "type": "bool"
        }
      ],
      "stateMutability": "view",
      "type": "function"
    },
    {
      "inputs": [],
      "name": "maxTime",
      "outputs": [
        {
          "internalType": "uint256",
          "name": "",
          "type": "uint256"
        }
      ],
      "stateMutability": "view",
      "type": "function"
    },
    {
      "inputs": [],
      "name": "migratedL2",
      "outputs": [
        {
          "internalType": "bool",
          "name": "",
          "type": "bool"
        }
      ],
      "stateMutability": "view",
      "type": "function"
    },
    {
      "inputs": [],
      "name": "pauseProxy",
      "outputs": [
        {
          "internalType": "bool",
          "name": "",
          "type": "bool"
        }
      ],
      "stateMutability": "view",
      "type": "function"
    },
    {
      "inputs": [
        {
          "internalType": "uint256",
          "name": "",
          "type": "uint256"
        }
      ],
      "name": "pointHistory",
      "outputs": [
        {
          "internalType": "int256",
          "name": "bias",
          "type": "int256"
        },
        {
          "internalType": "int256",
          "name": "slope",
          "type": "int256"
        },
        {
          "internalType": "uint256",
          "name": "timestamp",
          "type": "uint256"
        }
      ],
      "stateMutability": "view",
      "type": "function"
    },
    {
      "inputs": [
        {
          "internalType": "uint256",
          "name": "",
          "type": "uint256"
        }
      ],
      "name": "proxyImplementation",
      "outputs": [
        {
          "internalType": "address",
          "name": "",
          "type": "address"
        }
      ],
      "stateMutability": "view",
      "type": "function"
    },
    {
      "inputs": [
        {
          "internalType": "address",
          "name": "account",
          "type": "address"
        }
      ],
      "name": "removeAdmin",
      "outputs": [],
      "stateMutability": "nonpayable",
      "type": "function"
    },
    {
      "inputs": [
        {
          "internalType": "bytes32",
          "name": "role",
          "type": "bytes32"
        },
        {
          "internalType": "address",
          "name": "account",
          "type": "address"
        }
      ],
      "name": "renounceRole",
      "outputs": [],
      "stateMutability": "nonpayable",
      "type": "function"
    },
    {
      "inputs": [
        {
          "internalType": "bytes32",
          "name": "role",
          "type": "bytes32"
        },
        {
          "internalType": "address",
          "name": "account",
          "type": "address"
        }
      ],
      "name": "revokeRole",
      "outputs": [],
      "stateMutability": "nonpayable",
      "type": "function"
    },
    {
      "inputs": [
        {
          "internalType": "bytes4",
          "name": "",
          "type": "bytes4"
        }
      ],
      "name": "selectorImplementation",
      "outputs": [
        {
          "internalType": "address",
          "name": "",
          "type": "address"
        }
      ],
      "stateMutability": "view",
      "type": "function"
    },
    {
      "inputs": [
        {
          "internalType": "address",
          "name": "newImplementation",
          "type": "address"
        },
        {
          "internalType": "bool",
          "name": "_alive",
          "type": "bool"
        }
      ],
      "name": "setAliveImplementation2",
      "outputs": [],
      "stateMutability": "nonpayable",
      "type": "function"
    },
    {
      "inputs": [
        {
          "internalType": "address",
          "name": "newImplementation",
          "type": "address"
        },
        {
          "internalType": "uint256",
          "name": "_index",
          "type": "uint256"
        },
        {
          "internalType": "bool",
          "name": "_alive",
          "type": "bool"
        }
      ],
      "name": "setImplementation2",
      "outputs": [],
      "stateMutability": "nonpayable",
      "type": "function"
    },
    {
      "inputs": [
        {
          "internalType": "bytes4[]",
          "name": "_selectors",
          "type": "bytes4[]"
        },
        {
          "internalType": "address",
          "name": "_imp",
          "type": "address"
        }
      ],
      "name": "setSelectorImplementations2",
      "outputs": [],
      "stateMutability": "nonpayable",
      "type": "function"
    },
    {
      "inputs": [
        {
          "internalType": "uint256",
          "name": "",
          "type": "uint256"
        }
      ],
      "name": "slopeChanges",
      "outputs": [
        {
          "internalType": "int256",
          "name": "",
          "type": "int256"
        }
      ],
      "stateMutability": "view",
      "type": "function"
    },
    {
      "inputs": [],
      "name": "stakeRegistry",
      "outputs": [
        {
          "internalType": "address",
          "name": "",
          "type": "address"
        }
      ],
      "stateMutability": "view",
      "type": "function"
    },
    {
      "inputs": [],
      "name": "staker",
      "outputs": [
        {
          "internalType": "address",
          "name": "",
          "type": "address"
        }
      ],
      "stateMutability": "view",
      "type": "function"
    },
    {
      "inputs": [],
      "name": "tos",
      "outputs": [
        {
          "internalType": "address",
          "name": "",
          "type": "address"
        }
      ],
      "stateMutability": "view",
      "type": "function"
    },
    {
      "inputs": [
        {
          "internalType": "address",
          "name": "newAdmin",
          "type": "address"
        }
      ],
      "name": "transferAdmin",
      "outputs": [],
      "stateMutability": "nonpayable",
      "type": "function"
    },
    {
      "inputs": [
        {
          "internalType": "uint256",
          "name": "",
          "type": "uint256"
        }
      ],
      "name": "uniqueUsers",
      "outputs": [
        {
          "internalType": "address",
          "name": "",
          "type": "address"
        }
      ],
      "stateMutability": "view",
      "type": "function"
    },
    {
      "inputs": [
        {
          "internalType": "address",
          "name": "",
          "type": "address"
        },
        {
          "internalType": "uint256",
          "name": "",
          "type": "uint256"
        }
      ],
      "name": "userLocks",
      "outputs": [
        {
          "internalType": "uint256",
          "name": "",
          "type": "uint256"
        }
      ],
      "stateMutability": "view",
      "type": "function"
    },
    {
      "stateMutability": "payable",
      "type": "receive"
    }
  ],
  "bytecode": "0x6080604052600160075534801561001557600080fd5b50611a1a806100256000396000f3fe6080604052600436106102765760003560e01c806375b238fc1161014f578063afae883e116100c1578063cd29ca0e1161007a578063cd29ca0e14610717578063d53913931461072c578063d547741f14610741578063ed50c69914610761578063f52a36f714610781578063fd2dcecf146107a157610285565b8063afae883e14610678578063b2e9a1b71461068d578063b534ad56146106a2578063b911135f146106b7578063c79acdda146106d7578063ca15c873146106f757610285565b80638d4fdb40116101135780638d4fdb40146105ce5780639010d07c146105ee57806391d148541461060e578063a1f5f50e1461062e578063a217fddf14610643578063aa33fedb1461065857610285565b806375b238fc146105445780637cd5f6631461055957806389f395de146105795780638ad4c4471461058e5780638b8f4a65146105ae57610285565b806350d2a276116101e85780635ebaf1db116101ac5780635ebaf1db146104a557806363a8fd89146104ba57806363d5a3d9146104cf57806368304835146104ef578063704802751461050457806375829def1461052457610285565b806350d2a276146103f3578063550d01a3146104205780635c60da1b146104405780635cc797d8146104555780635d16a6f91461047557610285565b8063282c51f31161023a578063282c51f31461033a5780632f2ff15d1461034f57806336568abe1461036f578063367b7b231461038f57806341c04d5e146103be5780634a5df50f146103d357610285565b8063059f8b161461028d5780631785f53c146102b857806322e67e71146102d8578063248a9ca3146102ed57806324d7806c1461030d57610285565b36610285576102836107b6565b005b6102836107b6565b34801561029957600080fd5b506102a2610838565b6040516102af9190611733565b60405180910390f35b3480156102c457600080fd5b506102836102d336600461156c565b610844565b3480156102e457600080fd5b506102a26108a3565b3480156102f957600080fd5b506102a2610308366004611691565b6108a9565b34801561031957600080fd5b5061032d61032836600461156c565b6108c1565b6040516102af9190611728565b34801561034657600080fd5b506102a26108e1565b34801561035b57600080fd5b5061028361036a3660046116a9565b610905565b34801561037b57600080fd5b5061028361038a3660046116a9565b61096c565b34801561039b57600080fd5b506103af6103aa3660046116cb565b6109cd565b6040516102af9392919061173c565b3480156103ca57600080fd5b506102a2610a0f565b3480156103df57600080fd5b506102836103ee36600461161c565b610a33565b3480156103ff57600080fd5b5061041361040e3660046116ec565b610bb4565b6040516102af9190611714565b34801561042c57600080fd5b5061032d61043b36600461156c565b610bcf565b34801561044c57600080fd5b50610413610be4565b34801561046157600080fd5b50610283610470366004611586565b610bf5565b34801561048157600080fd5b506104956104903660046115b8565b610c43565b6040516102af94939291906118d5565b3480156104b157600080fd5b50610413610c78565b3480156104c657600080fd5b5061032d610c8c565b3480156104db57600080fd5b506104956104ea366004611691565b610c95565b3480156104fb57600080fd5b50610413610cbf565b34801561051057600080fd5b5061028361051f36600461156c565b610cd3565b34801561053057600080fd5b5061028361053f36600461156c565b610d2f565b34801561055057600080fd5b506102a2610e50565b34801561056557600080fd5b506102836105743660046115e1565b610e62565b34801561058557600080fd5b50610413610ef9565b34801561059a57600080fd5b506103af6105a9366004611691565b610f08565b3480156105ba57600080fd5b506104136105c9366004611691565b610f3b565b3480156105da57600080fd5b506104136105e93660046116ec565b610f46565b3480156105fa57600080fd5b506104136106093660046116cb565b611042565b34801561061a57600080fd5b5061032d6106293660046116a9565b611061565b34801561063a57600080fd5b5061032d611079565b34801561064f57600080fd5b506102a2611089565b34801561066457600080fd5b506102a26106733660046115b8565b61108e565b34801561068457600080fd5b506102a26110bf565b34801561069957600080fd5b5061032d6110c5565b3480156106ae57600080fd5b506102a26110ce565b3480156106c357600080fd5b506104136106d2366004611691565b6110d4565b3480156106e357600080fd5b5061032d6106f2366004611691565b6110ef565b34801561070357600080fd5b506102a2610712366004611691565b611104565b34801561072357600080fd5b506102a261111b565b34801561073857600080fd5b506102a2611121565b34801561074d57600080fd5b5061028361075c3660046116a9565b611145565b34801561076d57600080fd5b5061041361077c366004611691565b61119e565b34801561078d57600080fd5b506102a261079c366004611691565b6111c8565b3480156107ad57600080fd5b506102a26111da565b60006107cd6000356001600160e01b031916610f46565b90506001600160a01b038116158015906107ea575060005460ff16155b61080f5760405162461bcd60e51b815260040161080690611784565b60405180910390fd5b3660008037600080366000845af43d6000803e80801561082e573d6000f35b3d6000fd5b505050565b670de0b6b3a764000081565b61084d336108c1565b6108885760405162461bcd60e51b81526004018080602001828103825260228152602001806119446022913960400191505060405180910390fd5b6108a06000805160206119968339815191528261096c565b50565b60025481565b6000818152601060205260409020600201545b919050565b60006108db60008051602061199683398151915283611061565b92915050565b7f9667e80708b6eeeb0053fa0cca44e028ff548e2a9f029edfeac87c118b08b7c881565b600082815260106020526040902060020154610923906106296111e0565b61095e5760405162461bcd60e51b815260040180806020018281038252602f815260200180611915602f913960400191505060405180910390fd5b61096882826111e4565b5050565b6109746111e0565b6001600160a01b0316816001600160a01b0316146109c35760405162461bcd60e51b815260040180806020018281038252602f8152602001806119b6602f913960400191505060405180910390fd5b610968828261124d565b600a60205281600052604060002081815481106109e957600080fd5b600091825260209091206003909102018054600182015460029092015490935090915083565b7f52eafc11f6f81f86878bffd31109a0d92f37506527754f00788853ff9f63b13081565b610a3c336108c1565b610a775760405162461bcd60e51b81526004018080602001828103825260228152602001806119446022913960400191505060405180910390fd5b81610a945760405162461bcd60e51b8152600401610806906117ca565b6001600160a01b03811660009081526012602052604090205460ff16610acc5760405162461bcd60e51b815260040161080690611813565b60005b82811015610bae57816001600160a01b031660136000868685818110610af157fe5b9050602002016020810190610b0691906116ec565b6001600160e01b03191681526020810191909152604001600020546001600160a01b03161415610b485760405162461bcd60e51b815260040161080690611752565b8160136000868685818110610b5957fe5b9050602002016020810190610b6e91906116ec565b6001600160e01b0319168152602081019190915260400160002080546001600160a01b0319166001600160a01b0392909216919091179055600101610acf565b50505050565b6013602052600090815260409020546001600160a01b031681565b60126020526000908152604090205460ff1681565b6000610bf06000610f3b565b905090565b610bfe336108c1565b610c395760405162461bcd60e51b81526004018080602001828103825260228152602001806119446022913960400191505060405180910390fd5b61096882826112b6565b600b60209081526000928352604080842090915290825290208054600182015460028301546003909301549192909160ff1684565b60145461010090046001600160a01b031681565b60005460ff1681565b600c6020526000908152604090208054600182015460028301546003909301549192909160ff1684565b60005461010090046001600160a01b031681565b610cdc336108c1565b610d175760405162461bcd60e51b81526004018080602001828103825260228152602001806119446022913960400191505060405180910390fd5b6108a060008051602061199683398151915282610905565b610d38336108c1565b610d735760405162461bcd60e51b81526004018080602001828103825260228152602001806119446022913960400191505060405180910390fd5b6001600160a01b038116610dc9576040805162461bcd60e51b815260206004820152601860248201527741636365737369626c653a207a65726f206164647265737360401b604482015290519081900360640190fd5b336001600160a01b0382161415610e20576040805162461bcd60e51b815260206004820152601660248201527520b1b1b2b9b9b4b136329d1039b0b6b29030b236b4b760511b604482015290519081900360640190fd5b610e3860008051602061199683398151915282610905565b6108a06000805160206119968339815191523361096c565b60008051602061199683398151915281565b610e6b336108c1565b610ea65760405162461bcd60e51b81526004018080602001828103825260228152602001806119446022913960400191505060405180910390fd5b610eb18383836112e1565b826001600160a01b03167f4cc79f0548e11ec00bfa372834adc38d45fd6ce11fa5476fe3ac19a0163786408383604051610eec9291906118c5565b60405180910390a2505050565b6003546001600160a01b031681565b60098181548110610f1857600080fd5b600091825260209091206003909102018054600182015460029092015490925083565b60006108db8261133e565b6001600160e01b031981166000908152601360205260408120546001600160a01b0316610fa757506000805260116020527f4ad3b33220dddc71b994a52d72c06b10862965f7d926534c05c00fb7e819e7b7546001600160a01b03166108bc565b6001600160e01b031982166000908152601360209081526040808320546001600160a01b03168352601290915290205460ff161561100857506001600160e01b031981166000908152601360205260409020546001600160a01b03166108bc565b506000805260116020527f4ad3b33220dddc71b994a52d72c06b10862965f7d926534c05c00fb7e819e7b7546001600160a01b03166108bc565b600082815260106020526040812061105a9083611359565b9392505050565b600082815260106020526040812061105a9083611365565b600054600160a81b900460ff1681565b600081565b600d60205281600052604060002081815481106110aa57600080fd5b90600052602060002001600091509150505481565b60045481565b60145460ff1681565b60055481565b6011602052600090815260409020546001600160a01b031681565b600f6020526000908152604090205460ff1681565b60008181526010602052604081206108db9061137a565b60065481565b7ff0887ba65ee2024ea881d91b74c2450ef19e1557f03bed3ea9f16b037cbe2dc981565b600082815260106020526040902060020154611163906106296111e0565b6109c35760405162461bcd60e51b81526004018080602001828103825260308152602001806119666030913960400191505060405180910390fd5b600881815481106111ae57600080fd5b6000918252602090912001546001600160a01b0316905081565b600e6020526000908152604090205481565b60015481565b3390565b60008281526010602052604090206111fc9082611385565b15610968576112096111e0565b6001600160a01b0316816001600160a01b0316837f2f8788117e7eff1d82e926ec794901d17c78024a50270940304540a733656f0d60405160405180910390a45050565b6000828152601060205260409020611265908261139a565b15610968576112726111e0565b6001600160a01b0316816001600160a01b0316837ff6391f5c32d9c69d2a47ea670b442974b53935d1edc7fd64eb21e047a839171b60405160405180910390a45050565b6001600160a01b03919091166000908152601260205260409020805460ff1916911515919091179055565b6112ea836113af565b6113065760405162461bcd60e51b815260040161080690611854565b801561133457600082815260116020526040902080546001600160a01b0319166001600160a01b0385161790555b61083383826112b6565b6000908152601160205260409020546001600160a01b031690565b600061105a83836113b5565b600061105a836001600160a01b038416611419565b60006108db82611431565b600061105a836001600160a01b038416611435565b600061105a836001600160a01b03841661147f565b3b151590565b815460009082106113f75760405162461bcd60e51b81526004018080602001828103825260228152602001806118f36022913960400191505060405180910390fd5b82600001828154811061140657fe5b9060005260206000200154905092915050565b60009081526001919091016020526040902054151590565b5490565b60006114418383611419565b611477575081546001818101845560008481526020808220909301849055845484825282860190935260409020919091556108db565b5060006108db565b6000818152600183016020526040812054801561153b57835460001980830191908101906000908790839081106114b257fe5b90600052602060002001549050808760000184815481106114cf57fe5b6000918252602080832090910192909255828152600189810190925260409020908401905586548790806114ff57fe5b600190038181906000526020600020016000905590558660010160008781526020019081526020016000206000905560019450505050506108db565b60009150506108db565b80356001600160a01b03811681146108bc57600080fd5b803580151581146108bc57600080fd5b60006020828403121561157d578081fd5b61105a82611545565b60008060408385031215611598578081fd5b6115a183611545565b91506115af6020840161155c565b90509250929050565b600080604083850312156115ca578182fd5b6115d383611545565b946020939093013593505050565b6000806000606084860312156115f5578081fd5b6115fe84611545565b9250602084013591506116136040850161155c565b90509250925092565b600080600060408486031215611630578283fd5b833567ffffffffffffffff80821115611647578485fd5b818601915086601f83011261165a578485fd5b813581811115611668578586fd5b876020808302850101111561167b578586fd5b6020928301955093506116139186019050611545565b6000602082840312156116a2578081fd5b5035919050565b600080604083850312156116bb578182fd5b823591506115af60208401611545565b600080604083850312156116dd578182fd5b50508035926020909101359150565b6000602082840312156116fd578081fd5b81356001600160e01b03198116811461105a578182fd5b6001600160a01b0391909116815260200190565b901515815260200190565b90815260200190565b9283526020830191909152604082015260600190565b60208082526018908201527704c6f636b544f53763250726f78793a2073616d6520696d760441b604082015260600190565b60208082526026908201527f4c6f636b544f53763250726f78793a20696d706c204f522070726f78792069736040820152652066616c736560d01b606082015260800190565b60208082526029908201527f4c6f636b544f53763250726f78793a205f73656c6563746f727327732073697a60408201526865206973207a65726f60b81b606082015260800190565b60208082526021908201527f4c6f636b544f53763250726f78793a205f696d70206973206e6f7420616c69766040820152606560f81b606082015260800190565b6020808252604b908201527f4c6f636b544f53763250726f78793a2043616e6e6f742073657420612070726f60408201527f787920696d706c656d656e746174696f6e20746f2061206e6f6e2d636f6e747260608201526a616374206164647265737360a81b608082015260a00190565b9182521515602082015260400190565b93845260208401929092526040830152151560608201526080019056fe456e756d657261626c655365743a20696e646578206f7574206f6620626f756e6473416363657373436f6e74726f6c3a2073656e646572206d75737420626520616e2061646d696e20746f206772616e7441636365737369626c653a2043616c6c6572206973206e6f7420616e2061646d696e416363657373436f6e74726f6c3a2073656e646572206d75737420626520616e2061646d696e20746f207265766f6b65df8b4c520ffe197c5343c6f5aec59570151ef9a492f2c624fd45ddde6135ec42416363657373436f6e74726f6c3a2063616e206f6e6c792072656e6f756e636520726f6c657320666f722073656c66a2646970667358221220f2e1fe99914d266042e759da0377b2afff780a6bb060e1f44bcfc710e7f67fb164736f6c63430007060033",
  "linkReferences": {},
  "deployedLinkReferences": {}
}