{
  "_format": "hh-sol-artifact-1",
  "contractName": "OracleLibrary",
  "sourceName": "contracts/libraries/OracleLibrary.sol",
  "abi": [
    {
      "inputs": [
        {
          "internalType": "address",
          "name": "pool",
          "type": "address"
        },
        {
          "internalType": "uint32",
          "name": "period",
          "type": "uint32"
        }
      ],
      "name": "consult",
      "outputs": [
        {
          "internalType": "int24",
          "name": "timeWeightedAverageTick",
          "type": "int24"
        }
      ],
      "stateMutability": "view",
      "type": "function"
    },
    {
      "inputs": [
        {
          "internalType": "address",
          "name": "factory",
          "type": "address"
        },
        {
          "internalType": "bytes",
          "name": "_path",
          "type": "bytes"
        },
        {
          "internalType": "uint256",
          "name": "_amountIn",
          "type": "uint256"
        },
        {
          "internalType": "uint32",
          "name": "oracleConsultPeriod",
          "type": "uint32"
        }
      ],
      "name": "getOutAmounts",
      "outputs": [
        {
          "internalType": "uint256",
          "name": "amountOut",
          "type": "uint256"
        }
      ],
      "stateMutability": "view",
      "type": "function"
    },
    {
      "inputs": [
        {
          "internalType": "address",
          "name": "factory",
          "type": "address"
        },
        {
          "internalType": "bytes",
          "name": "_path",
          "type": "bytes"
        },
        {
          "internalType": "uint256",
          "name": "_amountIn",
          "type": "uint256"
        }
      ],
      "name": "getOutAmountsCurTick",
      "outputs": [
        {
          "internalType": "uint256",
          "name": "amountOut",
          "type": "uint256"
        }
      ],
      "stateMutability": "view",
      "type": "function"
    },
    {
      "inputs": [
        {
          "internalType": "address",
          "name": "factory",
          "type": "address"
        },
        {
          "internalType": "address",
          "name": "tokenA",
          "type": "address"
        },
        {
          "internalType": "address",
          "name": "tokenB",
          "type": "address"
        },
        {
          "internalType": "uint24",
          "name": "fee",
          "type": "uint24"
        }
      ],
      "name": "getPool",
      "outputs": [
        {
          "internalType": "address",
          "name": "",
          "type": "address"
        }
      ],
      "stateMutability": "pure",
      "type": "function"
    },
    {
      "inputs": [
        {
          "internalType": "int24",
          "name": "tick",
          "type": "int24"
        },
        {
          "internalType": "uint128",
          "name": "baseAmount",
          "type": "uint128"
        },
        {
          "internalType": "address",
          "name": "baseToken",
          "type": "address"
        },
        {
          "internalType": "address",
          "name": "quoteToken",
          "type": "address"
        }
      ],
      "name": "getQuoteAtTick",
      "outputs": [
        {
          "internalType": "uint256",
          "name": "quoteAmount",
          "type": "uint256"
        }
      ],
      "stateMutability": "pure",
      "type": "function"
    }
  ],
  "bytecode": "0x61165061003a600b82828239805160001a60731461002d57634e487b7160e01b600052600060045260246000fd5b30600052607381538281f3fe73000000000000000000000000000000000000000030146080604052600436106100615760003560e01c806343c57a27146100665780634e6c8ed81461008c57806382413489146100b757806393eaab8a146100dd578063a033a11a146100f0575b600080fd5b61007961007436600461127e565b610103565b6040519081526020015b60405180910390f35b61009f61009a36600461105e565b610211565b6040516001600160a01b039091168152602001610083565b6100ca6100c536600461117f565b610232565b60405160029190910b8152602001610083565b6100796100eb3660046110c0565b61043a565b6100796100fe366004611117565b610531565b60008061010f866105bc565b90506001600160801b036001600160a01b0382161161019557600061013d6001600160a01b0383168061147c565b9050836001600160a01b0316856001600160a01b03161061017557610170600160c01b876001600160801b0316836109d1565b61018d565b61018d81876001600160801b0316600160c01b6109d1565b925050610208565b60006101b46001600160a01b03831680680100000000000000006109d1565b9050836001600160a01b0316856001600160a01b0316106101ec576101e7600160801b876001600160801b0316836109d1565b610204565b61020481876001600160801b0316600160801b6109d1565b9250505b50949350505050565b600061022785610222868686610a9a565b610b05565b90505b949350505050565b600063ffffffff82166102715760405162461bcd60e51b8152602060048201526002602482015261042560f41b60448201526064015b60405180910390fd5b60408051600280825260608201835260009260208301908036833701905050905082816000815181106102b457634e487b7160e01b600052603260045260246000fd5b602002602001019063ffffffff16908163ffffffff16815250506000816001815181106102f157634e487b7160e01b600052603260045260246000fd5b63ffffffff9092166020928302919091019091015260405163883bdbfd60e01b81526000906001600160a01b0386169063883bdbfd90610335908590600401611373565b60006040518083038186803b15801561034d57600080fd5b505afa158015610361573d6000803e3d6000fd5b505050506040513d6000823e601f3d908101601f1916820160405261038991908101906111b3565b5090506000816000815181106103af57634e487b7160e01b600052603260045260246000fd5b6020026020010151826001815181106103d857634e487b7160e01b600052603260045260246000fd5b60200260200101516103ea919061149b565b90506103fa600386900b8261142a565b935060008160060b12801561041e5750610418600386900b82611540565b60060b15155b15610431578361042d81611501565b9450505b50505092915050565b600081835b600080600061044d84610bee565b92509250925060006104618a858585610211565b90506000816001600160a01b0316633850c7bd6040518163ffffffff1660e01b815260040160e06040518083038186803b15801561049e57600080fd5b505afa1580156104b2573d6000803e3d6000fd5b505050506040513d601f19601f820116820180604052508101906104d691906112d9565b505050505091505060006104ec82898888610103565b90508097506104fa87610c2a565b1561050f5761050887610c64565b965061051f565b879850505050505050505061052a565b50505050505061043f565b9392505050565b60008083855b600080600061054584610bee565b92509250925060006105598c858585610211565b9050600061057261056a838c610232565b888787610103565b96508690508761058181611525565b98505061058d86610c2a565b156105a25761059b86610c64565b95506105b2565b869850505050505050505061022a565b5050505050610537565b60008060008360020b126105d3578260020b6105e0565b8260020b6105e090611597565b90506105ef620d89e719611576565b60020b8111156106255760405162461bcd60e51b81526020600482015260016024820152601560fa1b6044820152606401610268565b60006001821661063957600160801b61064b565b6ffffcb933bd6fad37aa2d162d1a5940015b70ffffffffffffffffffffffffffffffffff169050600282161561068a576080610685826ffff97272373d413259a46990580e213a61147c565b901c90505b60048216156106b45760806106af826ffff2e50f5f656932ef12357cf3c7fdcc61147c565b901c90505b60088216156106de5760806106d9826fffe5caca7e10e4e61c3624eaa0941cd061147c565b901c90505b6010821615610708576080610703826fffcb9843d60f6159c9db58835c92664461147c565b901c90505b602082161561073257608061072d826fff973b41fa98c081472e6896dfb254c061147c565b901c90505b604082161561075c576080610757826fff2ea16466c96a3843ec78b326b5286161147c565b901c90505b6080821615610786576080610781826ffe5dee046a99a2a811c461f1969c305361147c565b901c90505b6101008216156107b15760806107ac826ffcbe86c7900a88aedcffc83b479aa3a461147c565b901c90505b6102008216156107dc5760806107d7826ff987a7253ac413176f2b074cf7815e5461147c565b901c90505b610400821615610807576080610802826ff3392b0822b70005940c7a398e4b70f361147c565b901c90505b61080082161561083257608061082d826fe7159475a2c29b7443b29c7fa6e889d961147c565b901c90505b61100082161561085d576080610858826fd097f3bdfd2022b8845ad8f792aa582561147c565b901c90505b612000821615610888576080610883826fa9f746462d870fdf8a65dc1f90e061e561147c565b901c90505b6140008216156108b35760806108ae826f70d869a156d2a1b890bb3df62baf32f761147c565b901c90505b6180008216156108de5760806108d9826f31be135f97d08fd981231505542fcfa661147c565b901c90505b6201000082161561090a576080610905826f09aa508b5b7a84e1c677de54f3e99bc961147c565b901c90505b62020000821615610935576080610930826e5d6af8dedb81196699c329225ee60461147c565b901c90505b6204000082161561095f57608061095a826d2216e584f5fa1ea926041bedfe9861147c565b901c90505b62080000821615610987576080610982826b048a170391f7dc42444e8fa261147c565b901c90505b60008460020b13156109a25761099f81600019611468565b90505b6109b164010000000082611562565b156109bd5760016109c0565b60005b61022a9060ff16602083901c611412565b60008082116109df57600080fd5b6000806000198587098587029250828110838203039150508060001415610a0b5750829004905061052a565b808411610a1757600080fd5b600084868809808403938111909203919050600085610a38816000196114ea565b610a43906001611412565b16958690049560026003880281188089028203028089028203028089028203028089028203028089028203028089029091030260008290038290046001019490940294049390931791909102925050509392505050565b6040805160608101825260008082526020820181905291810191909152826001600160a01b0316846001600160a01b03161115610ad5579192915b50604080516060810182526001600160a01b03948516815292909316602083015262ffffff169181019190915290565b600081602001516001600160a01b031682600001516001600160a01b031610610b2d57600080fd5b815160208084015160408086015181516001600160a01b0395861681860152949092168482015262ffffff90911660608085019190915281518085038201815260808501909252815191909201206001600160f81b031960a08401529085901b6bffffffffffffffffffffffff191660a183015260b58201527fe34f199b19b2b4f47f68442619d555527d244f78a3297ea89325f843f87b8b5460d582015260f50160408051601f1981840301815291905280516020909101209392505050565b60008080610bfc8482610c9b565b9250610c09846014610d4f565b9050610c21610c1a60036014611412565b8590610c9b565b91509193909250565b6000610c3860036014611412565b6014610c45600382611412565b610c4f9190611412565b610c599190611412565b825110159050919050565b6060610c95610c7560036014611412565b610c8160036014611412565b8451610c8d91906114ea565b849190610dfa565b92915050565b600081610ca9816014611412565b1015610cec5760405162461bcd60e51b8152602060048201526012602482015271746f416464726573735f6f766572666c6f7760701b6044820152606401610268565b610cf7826014611412565b83511015610d3f5760405162461bcd60e51b8152602060048201526015602482015274746f416464726573735f6f75744f66426f756e647360581b6044820152606401610268565b500160200151600160601b900490565b600081610d5d816003611412565b1015610d9f5760405162461bcd60e51b8152602060048201526011602482015270746f55696e7432345f6f766572666c6f7760781b6044820152606401610268565b610daa826003611412565b83511015610df15760405162461bcd60e51b8152602060048201526014602482015273746f55696e7432345f6f75744f66426f756e647360601b6044820152606401610268565b50016003015190565b606081610e0881601f611412565b1015610e475760405162461bcd60e51b815260206004820152600e60248201526d736c6963655f6f766572666c6f7760901b6044820152606401610268565b82610e528382611412565b1015610e915760405162461bcd60e51b815260206004820152600e60248201526d736c6963655f6f766572666c6f7760901b6044820152606401610268565b610e9b8284611412565b84511015610edf5760405162461bcd60e51b8152602060048201526011602482015270736c6963655f6f75744f66426f756e647360781b6044820152606401610268565b606082158015610efe5760405191506000825260208201604052610208565b6040519150601f8416801560200281840101858101878315602002848b0101015b81831015610f37578051835260209283019201610f1f565b5050858452601f01601f19166040525050949350505050565b600082601f830112610f60578081fd5b81516020610f75610f70836113ee565b6113bd565b80838252828201915082860187848660051b8901011115610f94578586fd5b855b85811015610fbb578151610fa9816115f3565b84529284019290840190600101610f96565b5090979650505050505050565b600082601f830112610fd8578081fd5b813567ffffffffffffffff811115610ff257610ff26115dd565b611005601f8201601f19166020016113bd565b818152846020838601011115611019578283fd5b816020850160208301379081016020019190915292915050565b805161ffff8116811461104557600080fd5b919050565b803563ffffffff8116811461104557600080fd5b60008060008060808587031215611073578384fd5b843561107e816115f3565b9350602085013561108e816115f3565b9250604085013561109e816115f3565b9150606085013562ffffff811681146110b5578182fd5b939692955090935050565b6000806000606084860312156110d4578283fd5b83356110df816115f3565b9250602084013567ffffffffffffffff8111156110fa578283fd5b61110686828701610fc8565b925050604084013590509250925092565b6000806000806080858703121561112c578384fd5b8435611137816115f3565b9350602085013567ffffffffffffffff811115611152578384fd5b61115e87828801610fc8565b935050604085013591506111746060860161104a565b905092959194509250565b60008060408385031215611191578182fd5b823561119c816115f3565b91506111aa6020840161104a565b90509250929050565b600080604083850312156111c5578182fd5b825167ffffffffffffffff808211156111dc578384fd5b818501915085601f8301126111ef578384fd5b815160206111ff610f70836113ee565b8083825282820191508286018a848660051b890101111561121e578889fd5b8896505b8487101561124e5780518060060b811461123a57898afd5b835260019690960195918301918301611222565b5091880151919650909350505080821115611267578283fd5b5061127485828601610f50565b9150509250929050565b60008060008060808587031215611293578081fd5b843561129e8161160b565b935060208501356001600160801b03811681146112b9578182fd5b925060408501356112c9816115f3565b915060608501356110b5816115f3565b600080600080600080600060e0888a0312156112f3578485fd5b87516112fe816115f3565b602089015190975061130f8161160b565b955061131d60408901611033565b945061132b60608901611033565b935061133960808901611033565b925060a088015160ff8116811461134e578283fd5b60c08901519092508015158114611363578182fd5b8091505092959891949750929550565b6020808252825182820181905260009190848201906040850190845b818110156113b157835163ffffffff168352928401929184019160010161138f565b50909695505050505050565b604051601f8201601f1916810167ffffffffffffffff811182821017156113e6576113e66115dd565b604052919050565b600067ffffffffffffffff821115611408576114086115dd565b5060051b60200190565b60008219821115611425576114256115b1565b500190565b60008160060b8360060b80611441576114416115c7565b667fffffffffffff1982146000198214161561145f5761145f6115b1565b90059392505050565b600082611477576114776115c7565b500490565b6000816000190483118215151615611496576114966115b1565b500290565b60008160060b8360060b82811281667fffffffffffff19018312811516156114c5576114c56115b1565b81667fffffffffffff0183138116156114e0576114e06115b1565b5090039392505050565b6000828210156114fc576114fc6115b1565b500390565b60008160020b627fffff1981141561151b5761151b6115b1565b6000190192915050565b6000600019821415611539576115396115b1565b5060010190565b60008260060b80611553576115536115c7565b808360060b0791505092915050565b600082611571576115716115c7565b500690565b60008160020b627fffff19811415611590576115906115b1565b9003919050565b6000600160ff1b8214156115ad576115ad6115b1565b0390565b634e487b7160e01b600052601160045260246000fd5b634e487b7160e01b600052601260045260246000fd5b634e487b7160e01b600052604160045260246000fd5b6001600160a01b038116811461160857600080fd5b50565b8060020b811461160857600080fdfea264697066735822122089730b08b996d04afdaee6e5f5577307b7dfe48b41d2646004a507e9879a004564736f6c63430008040033",
  "linkReferences": {},
  "deployedLinkReferences": {}
}