{
  "_format": "hh-sol-artifact-1",
  "contractName": "RewardPoolSnapshot",
  "sourceName": "contracts/reward/RewardPoolSnapshot.sol",
  "abi": [
    {
      "inputs": [],
      "stateMutability": "nonpayable",
      "type": "constructor"
    },
    {
      "anonymous": false,
      "inputs": [
        {
          "indexed": false,
          "internalType": "uint256",
          "name": "prevFactor",
          "type": "uint256"
        },
        {
          "indexed": false,
          "internalType": "uint256",
          "name": "newFactor",
          "type": "uint256"
        },
        {
          "indexed": false,
          "internalType": "uint256",
          "name": "lastRebaseTime",
          "type": "uint256"
        },
        {
          "indexed": false,
          "internalType": "uint256",
          "name": "total",
          "type": "uint256"
        },
        {
          "indexed": false,
          "internalType": "uint256",
          "name": "profits",
          "type": "uint256"
        }
      ],
      "name": "Rebased",
      "type": "event"
    },
    {
      "anonymous": false,
      "inputs": [
        {
          "indexed": true,
          "internalType": "bytes32",
          "name": "role",
          "type": "bytes32"
        },
        {
          "indexed": true,
          "internalType": "bytes32",
          "name": "previousAdminRole",
          "type": "bytes32"
        },
        {
          "indexed": true,
          "internalType": "bytes32",
          "name": "newAdminRole",
          "type": "bytes32"
        }
      ],
      "name": "RoleAdminChanged",
      "type": "event"
    },
    {
      "anonymous": false,
      "inputs": [
        {
          "indexed": true,
          "internalType": "bytes32",
          "name": "role",
          "type": "bytes32"
        },
        {
          "indexed": true,
          "internalType": "address",
          "name": "account",
          "type": "address"
        },
        {
          "indexed": true,
          "internalType": "address",
          "name": "sender",
          "type": "address"
        }
      ],
      "name": "RoleGranted",
      "type": "event"
    },
    {
      "anonymous": false,
      "inputs": [
        {
          "indexed": true,
          "internalType": "bytes32",
          "name": "role",
          "type": "bytes32"
        },
        {
          "indexed": true,
          "internalType": "address",
          "name": "account",
          "type": "address"
        },
        {
          "indexed": true,
          "internalType": "address",
          "name": "sender",
          "type": "address"
        }
      ],
      "name": "RoleRevoked",
      "type": "event"
    },
    {
      "anonymous": false,
      "inputs": [
        {
          "indexed": false,
          "internalType": "uint256",
          "name": "id",
          "type": "uint256"
        }
      ],
      "name": "Snapshot",
      "type": "event"
    },
    {
      "anonymous": false,
      "inputs": [
        {
          "indexed": false,
          "internalType": "address",
          "name": "sender",
          "type": "address"
        },
        {
          "indexed": false,
          "internalType": "uint256",
          "name": "tokenId",
          "type": "uint256"
        },
        {
          "indexed": false,
          "internalType": "uint256",
          "name": "tosAmount",
          "type": "uint256"
        },
        {
          "indexed": false,
          "internalType": "uint256",
          "name": "dtosAmount",
          "type": "uint256"
        },
        {
          "indexed": false,
          "internalType": "uint256",
          "name": "factoredAmount",
          "type": "uint256"
        },
        {
          "indexed": false,
          "internalType": "uint256",
          "name": "liquidity",
          "type": "uint256"
        }
      ],
      "name": "Staked",
      "type": "event"
    },
    {
      "anonymous": false,
      "inputs": [
        {
          "indexed": false,
          "internalType": "address",
          "name": "from",
          "type": "address"
        },
        {
          "indexed": false,
          "internalType": "address",
          "name": "to",
          "type": "address"
        },
        {
          "indexed": false,
          "internalType": "uint256",
          "name": "tokenId",
          "type": "uint256"
        },
        {
          "indexed": false,
          "internalType": "uint256",
          "name": "amount",
          "type": "uint256"
        },
        {
          "indexed": false,
          "internalType": "uint256",
          "name": "factoredAmount",
          "type": "uint256"
        }
      ],
      "name": "TransferFrom",
      "type": "event"
    },
    {
      "anonymous": false,
      "inputs": [
        {
          "indexed": false,
          "internalType": "address",
          "name": "sender",
          "type": "address"
        },
        {
          "indexed": false,
          "internalType": "uint256",
          "name": "tokenId",
          "type": "uint256"
        },
        {
          "indexed": false,
          "internalType": "uint256",
          "name": "tosAmount",
          "type": "uint256"
        },
        {
          "indexed": false,
          "internalType": "uint256",
          "name": "factoredAmount",
          "type": "uint256"
        },
        {
          "indexed": false,
          "internalType": "uint256",
          "name": "liquidity",
          "type": "uint256"
        },
        {
          "indexed": false,
          "internalType": "uint256",
          "name": "rewardTokenId",
          "type": "uint256"
        }
      ],
      "name": "Unstaked",
      "type": "event"
    },
    {
      "anonymous": false,
      "inputs": [
        {
          "indexed": false,
          "internalType": "address",
          "name": "account",
          "type": "address"
        },
        {
          "indexed": false,
          "internalType": "uint256",
          "name": "balances",
          "type": "uint256"
        },
        {
          "indexed": false,
          "internalType": "uint256",
          "name": "factoredAmount",
          "type": "uint256"
        }
      ],
      "name": "UpdatedBalanceSnapshots",
      "type": "event"
    },
    {
      "inputs": [],
      "name": "ADMIN_ROLE",
      "outputs": [
        {
          "internalType": "bytes32",
          "name": "",
          "type": "bytes32"
        }
      ],
      "stateMutability": "view",
      "type": "function"
    },
    {
      "inputs": [],
      "name": "BURNER_ROLE",
      "outputs": [
        {
          "internalType": "bytes32",
          "name": "",
          "type": "bytes32"
        }
      ],
      "stateMutability": "view",
      "type": "function"
    },
    {
      "inputs": [],
      "name": "DEFAULT_ADMIN_ROLE",
      "outputs": [
        {
          "internalType": "bytes32",
          "name": "",
          "type": "bytes32"
        }
      ],
      "stateMutability": "view",
      "type": "function"
    },
    {
      "inputs": [],
      "name": "DEFAULT_FACTOR",
      "outputs": [
        {
          "internalType": "uint256",
          "name": "",
          "type": "uint256"
        }
      ],
      "stateMutability": "view",
      "type": "function"
    },
    {
      "inputs": [],
      "name": "MINTER_ROLE",
      "outputs": [
        {
          "internalType": "bytes32",
          "name": "",
          "type": "bytes32"
        }
      ],
      "stateMutability": "view",
      "type": "function"
    },
    {
      "inputs": [],
      "name": "POLICY_ROLE",
      "outputs": [
        {
          "internalType": "bytes32",
          "name": "",
          "type": "bytes32"
        }
      ],
      "stateMutability": "view",
      "type": "function"
    },
    {
      "inputs": [],
      "name": "PROJECT_ADMIN_ROLE",
      "outputs": [
        {
          "internalType": "bytes32",
          "name": "",
          "type": "bytes32"
        }
      ],
      "stateMutability": "view",
      "type": "function"
    },
    {
      "inputs": [
        {
          "internalType": "address",
          "name": "account",
          "type": "address"
        }
      ],
      "name": "addAdmin",
      "outputs": [],
      "stateMutability": "nonpayable",
      "type": "function"
    },
    {
      "inputs": [
        {
          "internalType": "address",
          "name": "account",
          "type": "address"
        }
      ],
      "name": "balanceOf",
      "outputs": [
        {
          "internalType": "uint256",
          "name": "",
          "type": "uint256"
        }
      ],
      "stateMutability": "view",
      "type": "function"
    },
    {
      "inputs": [
        {
          "internalType": "address",
          "name": "account",
          "type": "address"
        },
        {
          "internalType": "uint256",
          "name": "snapshotId",
          "type": "uint256"
        }
      ],
      "name": "balanceOfAt",
      "outputs": [
        {
          "internalType": "uint256",
          "name": "",
          "type": "uint256"
        }
      ],
      "stateMutability": "view",
      "type": "function"
    },
    {
      "inputs": [
        {
          "internalType": "address",
          "name": "factory",
          "type": "address"
        },
        {
          "internalType": "address",
          "name": "npm",
          "type": "address"
        },
        {
          "internalType": "address",
          "name": "rlpm",
          "type": "address"
        },
        {
          "internalType": "address",
          "name": "tos",
          "type": "address"
        }
      ],
      "name": "changeInitializeAddress",
      "outputs": [],
      "stateMutability": "nonpayable",
      "type": "function"
    },
    {
      "inputs": [
        {
          "internalType": "uint256",
          "name": "principal",
          "type": "uint256"
        },
        {
          "internalType": "uint256",
          "name": "ratio",
          "type": "uint256"
        },
        {
          "internalType": "uint256",
          "name": "n",
          "type": "uint256"
        }
      ],
      "name": "compound",
      "outputs": [
        {
          "internalType": "uint256",
          "name": "",
          "type": "uint256"
        }
      ],
      "stateMutability": "pure",
      "type": "function"
    },
    {
      "inputs": [],
      "name": "compoundInteresRatePerRebase",
      "outputs": [
        {
          "internalType": "uint256",
          "name": "",
          "type": "uint256"
        }
      ],
      "stateMutability": "view",
      "type": "function"
    },
    {
      "inputs": [],
      "name": "currentSnapshotId",
      "outputs": [
        {
          "internalType": "uint256",
          "name": "",
          "type": "uint256"
        }
      ],
      "stateMutability": "view",
      "type": "function"
    },
    {
      "inputs": [],
      "name": "dTosBaseRates",
      "outputs": [
        {
          "internalType": "uint256",
          "name": "",
          "type": "uint256"
        }
      ],
      "stateMutability": "view",
      "type": "function"
    },
    {
      "inputs": [],
      "name": "decimals",
      "outputs": [
        {
          "internalType": "uint8",
          "name": "",
          "type": "uint8"
        }
      ],
      "stateMutability": "view",
      "type": "function"
    },
    {
      "inputs": [
        {
          "internalType": "address",
          "name": "account",
          "type": "address"
        }
      ],
      "name": "depositAmount",
      "outputs": [
        {
          "internalType": "uint256",
          "name": "",
          "type": "uint256"
        }
      ],
      "stateMutability": "view",
      "type": "function"
    },
    {
      "inputs": [
        {
          "internalType": "address",
          "name": "account",
          "type": "address"
        },
        {
          "internalType": "uint256",
          "name": "snapshotId",
          "type": "uint256"
        }
      ],
      "name": "depositAmountOfAt",
      "outputs": [
        {
          "internalType": "uint256",
          "name": "",
          "type": "uint256"
        }
      ],
      "stateMutability": "view",
      "type": "function"
    },
    {
      "inputs": [
        {
          "internalType": "uint256",
          "name": "tokenId",
          "type": "uint256"
        },
        {
          "internalType": "address",
          "name": "token0",
          "type": "address"
        },
        {
          "internalType": "address",
          "name": "token1",
          "type": "address"
        }
      ],
      "name": "evaluateTOS",
      "outputs": [
        {
          "internalType": "uint256",
          "name": "tosAmount",
          "type": "uint256"
        }
      ],
      "stateMutability": "view",
      "type": "function"
    },
    {
      "inputs": [],
      "name": "getCurrentSnapshotId",
      "outputs": [
        {
          "internalType": "uint256",
          "name": "",
          "type": "uint256"
        }
      ],
      "stateMutability": "view",
      "type": "function"
    },
    {
      "inputs": [],
      "name": "getFactor",
      "outputs": [
        {
          "internalType": "uint256",
          "name": "f",
          "type": "uint256"
        }
      ],
      "stateMutability": "view",
      "type": "function"
    },
    {
      "inputs": [
        {
          "internalType": "bytes32",
          "name": "role",
          "type": "bytes32"
        }
      ],
      "name": "getRoleAdmin",
      "outputs": [
        {
          "internalType": "bytes32",
          "name": "",
          "type": "bytes32"
        }
      ],
      "stateMutability": "view",
      "type": "function"
    },
    {
      "inputs": [
        {
          "internalType": "bytes32",
          "name": "role",
          "type": "bytes32"
        },
        {
          "internalType": "address",
          "name": "account",
          "type": "address"
        }
      ],
      "name": "grantRole",
      "outputs": [],
      "stateMutability": "nonpayable",
      "type": "function"
    },
    {
      "inputs": [
        {
          "internalType": "bytes32",
          "name": "role",
          "type": "bytes32"
        },
        {
          "internalType": "address",
          "name": "account",
          "type": "address"
        }
      ],
      "name": "hasRole",
      "outputs": [
        {
          "internalType": "bool",
          "name": "",
          "type": "bool"
        }
      ],
      "stateMutability": "view",
      "type": "function"
    },
    {
      "inputs": [
        {
          "internalType": "address",
          "name": "account",
          "type": "address"
        }
      ],
      "name": "isAdmin",
      "outputs": [
        {
          "internalType": "bool",
          "name": "",
          "type": "bool"
        }
      ],
      "stateMutability": "view",
      "type": "function"
    },
    {
      "inputs": [],
      "name": "lastRebaseTime",
      "outputs": [
        {
          "internalType": "uint256",
          "name": "",
          "type": "uint256"
        }
      ],
      "stateMutability": "view",
      "type": "function"
    },
    {
      "inputs": [],
      "name": "name",
      "outputs": [
        {
          "internalType": "string",
          "name": "",
          "type": "string"
        }
      ],
      "stateMutability": "view",
      "type": "function"
    },
    {
      "inputs": [],
      "name": "nonfungiblePositionManager",
      "outputs": [
        {
          "internalType": "contract INonfungiblePositionManager",
          "name": "",
          "type": "address"
        }
      ],
      "stateMutability": "view",
      "type": "function"
    },
    {
      "inputs": [
        {
          "internalType": "address",
          "name": "from",
          "type": "address"
        },
        {
          "internalType": "address",
          "name": "sender",
          "type": "address"
        },
        {
          "internalType": "uint256",
          "name": "tokenId",
          "type": "uint256"
        },
        {
          "internalType": "bytes",
          "name": "data",
          "type": "bytes"
        }
      ],
      "name": "onERC721Received",
      "outputs": [
        {
          "internalType": "bytes4",
          "name": "",
          "type": "bytes4"
        }
      ],
      "stateMutability": "nonpayable",
      "type": "function"
    },
    {
      "inputs": [],
      "name": "pool",
      "outputs": [
        {
          "internalType": "contract IUniswapV3Pool",
          "name": "",
          "type": "address"
        }
      ],
      "stateMutability": "view",
      "type": "function"
    },
    {
      "inputs": [
        {
          "internalType": "int128",
          "name": "x",
          "type": "int128"
        },
        {
          "internalType": "uint256",
          "name": "n",
          "type": "uint256"
        }
      ],
      "name": "pow",
      "outputs": [
        {
          "internalType": "int128",
          "name": "r",
          "type": "int128"
        }
      ],
      "stateMutability": "pure",
      "type": "function"
    },
    {
      "inputs": [],
      "name": "rebaseIntervalSecond",
      "outputs": [
        {
          "internalType": "uint256",
          "name": "",
          "type": "uint256"
        }
      ],
      "stateMutability": "view",
      "type": "function"
    },
    {
      "inputs": [
        {
          "internalType": "address",
          "name": "account",
          "type": "address"
        }
      ],
      "name": "removeAdmin",
      "outputs": [],
      "stateMutability": "nonpayable",
      "type": "function"
    },
    {
      "inputs": [
        {
          "internalType": "bytes32",
          "name": "role",
          "type": "bytes32"
        },
        {
          "internalType": "address",
          "name": "account",
          "type": "address"
        }
      ],
      "name": "renounceRole",
      "outputs": [],
      "stateMutability": "nonpayable",
      "type": "function"
    },
    {
      "inputs": [
        {
          "internalType": "bytes32",
          "name": "role",
          "type": "bytes32"
        },
        {
          "internalType": "address",
          "name": "account",
          "type": "address"
        }
      ],
      "name": "revokeRole",
      "outputs": [],
      "stateMutability": "nonpayable",
      "type": "function"
    },
    {
      "inputs": [],
      "name": "rewardLPTokenManager",
      "outputs": [
        {
          "internalType": "contract IRewardLPTokenManagerAction",
          "name": "",
          "type": "address"
        }
      ],
      "stateMutability": "view",
      "type": "function"
    },
    {
      "inputs": [
        {
          "internalType": "uint256",
          "name": "",
          "type": "uint256"
        }
      ],
      "name": "rewardLPs",
      "outputs": [
        {
          "internalType": "uint256",
          "name": "",
          "type": "uint256"
        }
      ],
      "stateMutability": "view",
      "type": "function"
    },
    {
      "inputs": [
        {
          "internalType": "uint256",
          "name": "_baseRates",
          "type": "uint256"
        }
      ],
      "name": "setDtosBaseRates",
      "outputs": [],
      "stateMutability": "nonpayable",
      "type": "function"
    },
    {
      "inputs": [
        {
          "internalType": "uint256",
          "name": "_period",
          "type": "uint256"
        },
        {
          "internalType": "uint256",
          "name": "_interest",
          "type": "uint256"
        }
      ],
      "name": "setRebaseInfo",
      "outputs": [],
      "stateMutability": "nonpayable",
      "type": "function"
    },
    {
      "inputs": [],
      "name": "snapshot",
      "outputs": [
        {
          "internalType": "uint256",
          "name": "",
          "type": "uint256"
        }
      ],
      "stateMutability": "nonpayable",
      "type": "function"
    },
    {
      "inputs": [
        {
          "internalType": "uint256",
          "name": "tokenId",
          "type": "uint256"
        }
      ],
      "name": "stake",
      "outputs": [],
      "stateMutability": "nonpayable",
      "type": "function"
    },
    {
      "inputs": [
        {
          "internalType": "uint256",
          "name": "",
          "type": "uint256"
        }
      ],
      "name": "stakedTokensInPool",
      "outputs": [
        {
          "internalType": "uint256",
          "name": "",
          "type": "uint256"
        }
      ],
      "stateMutability": "view",
      "type": "function"
    },
    {
      "inputs": [
        {
          "internalType": "uint256",
          "name": "",
          "type": "uint256"
        }
      ],
      "name": "stakedTokensInPoolIndexs",
      "outputs": [
        {
          "internalType": "uint256",
          "name": "",
          "type": "uint256"
        }
      ],
      "stateMutability": "view",
      "type": "function"
    },
    {
      "inputs": [
        {
          "internalType": "bytes4",
          "name": "interfaceId",
          "type": "bytes4"
        }
      ],
      "name": "supportsInterface",
      "outputs": [
        {
          "internalType": "bool",
          "name": "",
          "type": "bool"
        }
      ],
      "stateMutability": "view",
      "type": "function"
    },
    {
      "inputs": [],
      "name": "symbol",
      "outputs": [
        {
          "internalType": "string",
          "name": "",
          "type": "string"
        }
      ],
      "stateMutability": "view",
      "type": "function"
    },
    {
      "inputs": [],
      "name": "token0",
      "outputs": [
        {
          "internalType": "address",
          "name": "",
          "type": "address"
        }
      ],
      "stateMutability": "view",
      "type": "function"
    },
    {
      "inputs": [],
      "name": "token1",
      "outputs": [
        {
          "internalType": "address",
          "name": "",
          "type": "address"
        }
      ],
      "stateMutability": "view",
      "type": "function"
    },
    {
      "inputs": [],
      "name": "tosAddress",
      "outputs": [
        {
          "internalType": "address",
          "name": "",
          "type": "address"
        }
      ],
      "stateMutability": "view",
      "type": "function"
    },
    {
      "inputs": [
        {
          "internalType": "uint256",
          "name": "_amount",
          "type": "uint256"
        }
      ],
      "name": "tosToDtosAmount",
      "outputs": [
        {
          "internalType": "uint256",
          "name": "",
          "type": "uint256"
        }
      ],
      "stateMutability": "view",
      "type": "function"
    },
    {
      "inputs": [],
      "name": "totalDepositAmount",
      "outputs": [
        {
          "internalType": "uint256",
          "name": "",
          "type": "uint256"
        }
      ],
      "stateMutability": "view",
      "type": "function"
    },
    {
      "inputs": [
        {
          "internalType": "uint256",
          "name": "snapshotId",
          "type": "uint256"
        }
      ],
      "name": "totalDepositAmountOfAt",
      "outputs": [
        {
          "internalType": "uint256",
          "name": "",
          "type": "uint256"
        }
      ],
      "stateMutability": "view",
      "type": "function"
    },
    {
      "inputs": [],
      "name": "totalLiquidity",
      "outputs": [
        {
          "internalType": "uint256",
          "name": "",
          "type": "uint256"
        }
      ],
      "stateMutability": "view",
      "type": "function"
    },
    {
      "inputs": [],
      "name": "totalSupply",
      "outputs": [
        {
          "internalType": "uint256",
          "name": "",
          "type": "uint256"
        }
      ],
      "stateMutability": "view",
      "type": "function"
    },
    {
      "inputs": [
        {
          "internalType": "uint256",
          "name": "snapshotId",
          "type": "uint256"
        }
      ],
      "name": "totalSupplyAt",
      "outputs": [
        {
          "internalType": "uint256",
          "name": "",
          "type": "uint256"
        }
      ],
      "stateMutability": "view",
      "type": "function"
    },
    {
      "inputs": [
        {
          "internalType": "address",
          "name": "newAdmin",
          "type": "address"
        }
      ],
      "name": "transferAdmin",
      "outputs": [],
      "stateMutability": "nonpayable",
      "type": "function"
    },
    {
      "inputs": [
        {
          "internalType": "address",
          "name": "from",
          "type": "address"
        },
        {
          "internalType": "address",
          "name": "to",
          "type": "address"
        },
        {
          "internalType": "uint256",
          "name": "tokenId",
          "type": "uint256"
        },
        {
          "internalType": "uint256",
          "name": "amount",
          "type": "uint256"
        },
        {
          "internalType": "uint256",
          "name": "factoredAmount",
          "type": "uint256"
        }
      ],
      "name": "transferFrom",
      "outputs": [],
      "stateMutability": "nonpayable",
      "type": "function"
    },
    {
      "inputs": [],
      "name": "uniswapV3Factory",
      "outputs": [
        {
          "internalType": "contract IUniswapV3Factory",
          "name": "",
          "type": "address"
        }
      ],
      "stateMutability": "view",
      "type": "function"
    },
    {
      "inputs": [
        {
          "internalType": "uint256",
          "name": "tokenId",
          "type": "uint256"
        }
      ],
      "name": "unstake",
      "outputs": [],
      "stateMutability": "nonpayable",
      "type": "function"
    },
    {
      "inputs": [
        {
          "internalType": "address",
          "name": "",
          "type": "address"
        },
        {
          "internalType": "uint256",
          "name": "",
          "type": "uint256"
        }
      ],
      "name": "userTokenIndexs",
      "outputs": [
        {
          "internalType": "uint256",
          "name": "",
          "type": "uint256"
        }
      ],
      "stateMutability": "view",
      "type": "function"
    },
    {
      "inputs": [
        {
          "internalType": "address",
          "name": "",
          "type": "address"
        },
        {
          "internalType": "uint256",
          "name": "",
          "type": "uint256"
        }
      ],
      "name": "userTokens",
      "outputs": [
        {
          "internalType": "uint256",
          "name": "",
          "type": "uint256"
        }
      ],
      "stateMutability": "view",
      "type": "function"
    }
  ],
  "bytecode": "0x60806040526002805460ff19166012179055670de0b6b3a7640000601b5534801561002957600080fd5b50613d1a806100396000396000f3fe608060405234801561001057600080fd5b50600436106103245760003560e01c8063634b5db5116101a9578063a217fddf116100ef578063c5408d501161009d578063c5408d5014610773578063d0fa3c3c1461077b578063d21220a714610784578063d539139314610797578063d547741f146107be578063d96f4a8f146107d1578063f3c85eba146107e4578063f9f411d8146107f757600080fd5b8063a217fddf146106d8578063a3db16a2146106e0578063a694fc3a146106e9578063ae581bc2146106fc578063b44a272214610722578063baa2b69514610735578063c4e821151461076057600080fd5b806388abfe131161015757806388abfe131461066a5780638bf91dc41461067d5780639067a4701461068657806391d148541461069957806395d89b41146106ac578063970875ce146106b45780639711715a146106bd578063981b24d0146106c557600080fd5b8063634b5db5146105c95780636455ac50146105dc57806370480275146105fc57806370a082311461060f5780637517d5171461062257806375829def1461064257806375b238fc1461065557600080fd5b80632e17de781161026e57806350f62da71161021c57806350f62da7146105515780635184cc4314610564578063520194a61461056c5780635439ad861461057f5780635934c3a9146105875780635a8adddc1461059a5780635b549182146105ad57806360567229146105c057600080fd5b80632e17de78146104ac5780632f2ff15d146104bf578063313ce567146104d257806336568abe146104f157806341c04d5e146105045780634aed53c21461052b5780634ee2cd7e1461053e57600080fd5b806316f0115b116102d657806316f0115b146103ef5780631785f53c1461040257806318160ddd146104175780631924063e1461041f5780632298524614610428578063248a9ca31461044f57806324d7806c14610472578063282c51f31461048557600080fd5b806301ffc9a714610329578063063f21f51461035157806306fdde03146103725780630dfe1681146103875780631042f08d146103a7578063150b7a02146103ba57806315770f92146103e6575b600080fd5b61033c6103373660046136af565b61080a565b60405190151581526020015b60405180910390f35b61036461035f366004613668565b610841565b604051908152602001610348565b61037a610864565b6040516103489190613a70565b600c5461039a906001600160a01b031681565b6040516103489190613a38565b600e5461039a906001600160a01b031681565b6103cd6103c8366004613553565b6108f2565b6040516001600160e01b03199091168152602001610348565b610364600a5481565b600b5461039a906001600160a01b031681565b6104156104103660046134c0565b610983565b005b6103646109c3565b610364601a5481565b6103647ffb5864e8ff833c3cb2d2d08505e82ff02a43554c74a35d4f5a64e8526127831181565b61036461045d366004613668565b6000908152601c602052604090206001015490565b61033c6104803660046134c0565b6109d6565b6103647f9667e80708b6eeeb0053fa0cca44e028ff548e2a9f029edfeac87c118b08b7c881565b6104156104ba366004613668565b6109f0565b6104156104cd366004613680565b610a63565b6002546104df9060ff1681565b60405160ff9091168152602001610348565b6104156104ff366004613680565b610a8e565b6103647f52eafc11f6f81f86878bffd31109a0d92f37506527754f00788853ff9f63b13081565b6104156105393660046135ed565b610b0c565b61036461054c36600461363d565b610c65565b61036461055f3660046134c0565b610d0a565b610364610d19565b60115461039a906001600160a01b031681565b600354610364565b6104156105953660046134f8565b610d2e565b6104156105a836600461387b565b610edf565b600f5461039a906001600160a01b031681565b61036460185481565b6103646105d736600461383a565b610fe7565b6103646105ea366004613668565b60166020526000908152604090205481565b61041561060a3660046134c0565b61124a565b61036461061d3660046134c0565b611287565b610364610630366004613668565b60156020526000908152604090205481565b6104156106503660046134c0565b611296565b610364600080516020613cc583398151915281565b610364610678366004613668565b61138e565b610364601b5481565b610364610694366004613668565b6113af565b61033c6106a7366004613680565b6113e0565b61037a61140b565b61036460035481565b610364611418565b6103646106d3366004613668565b611422565b610364600081565b61036460195481565b6104156106f7366004613668565b61148b565b61070f61070a3660046136d7565b6115c5565b604051600f9190910b8152602001610348565b60105461039a906001600160a01b031681565b61036461074336600461363d565b601360209081526000928352604080842090915290825290205481565b61041561076e366004613668565b611622565b61036461168b565b61036460175481565b600d5461039a906001600160a01b031681565b6103647ff0887ba65ee2024ea881d91b74c2450ef19e1557f03bed3ea9f16b037cbe2dc981565b6104156107cc366004613680565b611699565b6103646107df36600461363d565b6116bf565b6103646107f23660046138bf565b611709565b61036461080536600461363d565b611741565b60006001600160e01b03198216637965db0b60e01b148061083b57506301ffc9a760e01b6001600160e01b03198316145b92915050565b6000670de0b6b3a76400006017548361085a9190613ba0565b61083b9190613b8c565b6000805461087190613c19565b80601f016020809104026020016040519081016040528092919081815260200182805461089d90613c19565b80156108ea5780601f106108bf576101008083540402835291602001916108ea565b820191906000526020600020905b8154815290600101906020018083116108cd57829003601f168201915b505050505081565b6010546000906001600160a01b031633146109675760405162461bcd60e51b815260206004820152602a60248201527f6f70657261746f72206973206e6f74206e6f6e66756e6769626c65506f73697460448201526934b7b726b0b730b3b2b960b11b60648201526084015b60405180910390fd5b6109718685611772565b50630a85bd0160e11b95945050505050565b61098c336109d6565b6109a85760405162461bcd60e51b815260040161095e90613ad4565b6109c0600080516020613cc583398151915282610a8e565b50565b60006109d16106d360035490565b905090565b600061083b600080516020613cc5833981519152836113e0565b6109fa3382611b6d565b6010546040516323b872dd60e01b81526001600160a01b03909116906323b872dd90610a2e90309033908690600401613a4c565b600060405180830381600087803b158015610a4857600080fd5b505af1158015610a5c573d6000803e3d6000fd5b5050505050565b6000828152601c6020526040902060010154610a7f8133611e58565b610a898383611ebc565b505050565b6001600160a01b0381163314610afe5760405162461bcd60e51b815260206004820152602f60248201527f416363657373436f6e74726f6c3a2063616e206f6e6c792072656e6f756e636560448201526e103937b632b9903337b91039b2b63360891b606482015260840161095e565b610b088282611f42565b5050565b6011546001600160a01b03163314610b725760405162461bcd60e51b815260206004820152602360248201527f73656e646572206973206e6f74207265776172644c50546f6b656e4d616e616760448201526232b91760e91b606482015260840161095e565b6001600160a01b038516600090815260136020908152604080832086845290915290205480610bdb5760405162461bcd60e51b815260206004820152601560248201527424ba13b9903737ba10333937b693b9903a37b5b2b760591b604482015260640161095e565b610be58685611fa9565b610bef85856121b1565b610bf76121f4565b610c0386868585612317565b604080516001600160a01b0380891682528716602082015290810185905260608101849052608081018390527f6e5a38057baf9296321472dfcde2be37c0f493bb980fa364d836bc543a4e91419060a0015b60405180910390a1505050505050565b600060175460001415610c7a5750600061083b565b6001600160a01b038316600090815260046020526040812081908190610ca1908690612467565b9250925092508215610cf7578015610ceb57600080610cbf87612599565b915091508115610cdf57610cd38382612626565b9550505050505061083b565b610cd383601b54612626565b6000935050505061083b565b610d0086611287565b935050505061083b565b600061083b826107df60035490565b600080610d27600354612599565b9392505050565b836001600160a01b038116610d555760405162461bcd60e51b815260040161095e90613b16565b836001600160a01b038116610d7c5760405162461bcd60e51b815260040161095e90613b16565b836001600160a01b038116610da35760405162461bcd60e51b815260040161095e90613b16565b836001600160a01b038116610dca5760405162461bcd60e51b815260040161095e90613b16565b610dd3336109d6565b610def5760405162461bcd60e51b815260040161095e90613ad4565b600f546001600160a01b038981169116141580610e1a57506010546001600160a01b03888116911614155b80610e3357506011546001600160a01b03878116911614155b80610e4c5750600e546001600160a01b03868116911614155b610e8b5760405162461bcd60e51b815260206004820152601060248201526f73616d6520616c6c206164647265737360801b604482015260640161095e565b5050600f80546001600160a01b039788166001600160a01b031991821617909155601080549688169682169690961790955550506011805492851692841692909217909155600e8054919093169116179055565b8160008111610f1d5760405162461bcd60e51b815260206004820152600a6024820152697a65726f2076616c756560b01b604482015260640161095e565b610f26336109d6565b610f425760405162461bcd60e51b815260040161095e90613ad4565b826019541415610f895760405162461bcd60e51b81526020600482015260126024820152711cd85b59481c9958985cd9481c195c9a5bd960721b604482015260640161095e565b816018541415610fdb5760405162461bcd60e51b815260206004820152601b60248201527f73616d6520636f6d706f756e6420696e74657265737420726174650000000000604482015260640161095e565b50601991909155601855565b601054600b5460405163d20aecad60e01b81526000928392839273__$a03916ed4f1788ba6e5ab73a2b1aa81c66$__9263d20aecad9261103b926001600160a01b0392831692909116908b90600401613a4c565b604080518083038186803b15801561105257600080fd5b505af4158015611066573d6000803e3d6000fd5b505050506040513d601f19601f8201168201806040525081019061108a919061389c565b600e5491935091506001600160a01b0386811691161415611168576110af8284613b74565b600b546040516324352c3560e11b815291945060009173__$a03916ed4f1788ba6e5ab73a2b1aa81c66$__9163486a586a916110f7916001600160a01b031690600401613a38565b60206040518083038186803b15801561110f57600080fd5b505af4158015611123573d6000803e3d6000fd5b505050506040513d601f19601f820116820180604052508101906111479190613822565b90508015611166576111598282613ba0565b6111639085613b74565b93505b505b600e546001600160a01b0385811691161415611241576111888184613b74565b600b54604051630446db5d60e01b815291945060009173__$a03916ed4f1788ba6e5ab73a2b1aa81c66$__91630446db5d916111d0916001600160a01b031690600401613a38565b60206040518083038186803b1580156111e857600080fd5b505af41580156111fc573d6000803e3d6000fd5b505050506040513d601f19601f820116820180604052508101906112209190613822565b9050801561123f576112328382613ba0565b61123c9085613b74565b93505b505b50509392505050565b611253336109d6565b61126f5760405162461bcd60e51b815260040161095e90613ad4565b6109c0600080516020613cc583398151915282610a63565b600061083b8261054c60035490565b61129f336109d6565b6112bb5760405162461bcd60e51b815260040161095e90613ad4565b6001600160a01b03811661130c5760405162461bcd60e51b815260206004820152601860248201527741636365737369626c653a207a65726f206164647265737360401b604482015260640161095e565b336001600160a01b038216141561135e5760405162461bcd60e51b815260206004820152601660248201527520b1b1b2b9b9b4b136329d1039b0b6b29030b236b4b760511b604482015260640161095e565b611376600080516020613cc583398151915282610a63565b6109c0600080516020613cc583398151915233610a8e565b6014818154811061139e57600080fd5b600091825260209091200154905081565b60008060006113bf846005612467565b5091509150816113d6576113d161168b565b6113d8565b805b949350505050565b6000918252601c602090815260408084206001600160a01b0393909316845291905290205460ff1690565b6001805461087190613c19565b60006109d1612645565b6000806000611432846005612467565b925050915081156114835780156114795760008061144f86612599565b91509150811561146d576114638382612626565b9695505050505050565b61146383601b54612626565b5060009392505050565b6113d86109c3565b6010546040516331a9108f60e11b81526004810183905233916001600160a01b031690636352211e9060240160206040518083038186803b1580156114cf57600080fd5b505afa1580156114e3573d6000803e3d6000fd5b505050506040513d601f19601f8201168201806040525081019061150791906134dc565b6001600160a01b0316146115555760405162461bcd60e51b81526020600482015260156024820152743a37b5b2b724b21034b9903737ba103cb7bab9399760591b604482015260640161095e565b6010546040516323b872dd60e01b81526001600160a01b03909116906323b872dd9061158990339030908690600401613a4c565b600060405180830381600087803b1580156115a357600080fd5b505af11580156115b7573d6000803e3d6000fd5b505050506109c03382611772565b60006115d160016126a6565b90505b811561083b576115e5600283613c6f565b6001141561160b576115f781846126c4565b9050611604600183613bbf565b91506115d4565b61161583846126c4565b9250611604600283613b8c565b61162b336109d6565b6116475760405162461bcd60e51b815260040161095e90613ad4565b8060175414156116865760405162461bcd60e51b815260206004820152600a60248201526973616d652076616c756560b01b604482015260640161095e565b601755565b60006109d161069460035490565b6000828152601c60205260409020600101546116b58133611e58565b610a898383611f42565b6001600160a01b0382166000908152600460205260408120819081906116e6908590612467565b5091509150816116fe576116f985610d0a565b611700565b805b95945050505050565b60006113d861173b61173561171e60016126a6565b61173087670de0b6b3a76400006126fb565b612732565b846115c5565b85612765565b6012602052816000526040600020818154811061175d57600080fd5b90600052602060002001600091509150505481565b60105460405163133f757160e31b81526004810183905260009182918291829182916001600160a01b0316906399fbab88906024016101806040518083038186803b1580156117c057600080fd5b505afa1580156117d4573d6000803e3d6000fd5b505050506040513d601f19601f820116820180604052508101906117f891906138ea565b50505050975097509750509650965050506000816001600160801b0316116118535760405162461bcd60e51b815260206004820152600e60248201526d7a65726f206c697175696469747960901b604482015260640161095e565b600b5460408051633850c7bd60e01b815290516000926001600160a01b031691633850c7bd9160048083019260e0929190829003018186803b15801561189857600080fd5b505afa1580156118ac573d6000803e3d6000fd5b505050506040513d601f19601f820116820180604052508101906118d0919061378b565b50505050509150508060020b8460020b1280156118f257508260020b8160020b125b61192d5760405162461bcd60e51b815260206004820152600c60248201526b6f7574206f662072616e676560a01b604482015260640161095e565b6119356121f4565b6000611942888888610fe7565b9050600081116119885760405162461bcd60e51b8152602060048201526011602482015270746f73416d6f756e74206973207a65726f60781b604482015260640161095e565b600061199382610841565b90506000806119a0610d19565b905082156119b5576119b283826127cd565b91505b601154600b546040516361644d7b60e11b81526001600160a01b038f811660048301529182166024820152604481018e9052606481018790526001600160801b038916608482015260a48101859052600092919091169063c2c89af69060c401602060405180830381600087803b158015611a2f57600080fd5b505af1158015611a43573d6000803e3d6000fd5b505050506040513d601f19601f82011682018060405250810190611a679190613822565b60008d81526016602052604090208190559050611ac28c601480546000838152601560205260408120829055600182018355919091527fce6d7b5282bd9a3661ae061feed1dbda4e52ab073b1f9285be6e155d9c38d4ec0155565b611acc8d8d6121b1565b611ad78d86856127e2565b866001600160801b0316600a6000828254611af29190613b74565b9091555050604080516001600160a01b038f168152602081018e905290810186905260608101859052608081018490526001600160801b03881660a08201527f6381ea17a5324d29cc015352644672ead5185c1c61a0d3a521eda97e35cec97e9060c00160405180910390a150505050505050505050505050565b60008181526016602052604090205480611bb95760405162461bcd60e51b815260206004820152600d60248201526c1e995c9bc81c951bdad95b9259609a1b604482015260640161095e565b60115460405163b6b55f2560e01b8152600481018390526000916001600160a01b03169063b6b55f25906024016101206040518083038186803b158015611bff57600080fd5b505afa158015611c13573d6000803e3d6000fd5b505050506040513d601f19601f82011682018060405250810190611c3791906136f9565b80519091506001600160a01b03163014611c865760405162461bcd60e51b815260206004820152601060248201526f3737ba103837b7b613b9903a37b5b2b760811b604482015260640161095e565b836001600160a01b031681602001516001600160a01b031614611cd75760405162461bcd60e51b81526020600482015260096024820152683737ba1037bbb732b960b91b604482015260640161095e565b82816060015114611d1b5760405162461bcd60e51b815260206004820152600e60248201526d3737ba1039b0b6b2903a37b5b2b760911b604482015260640161095e565b601154604051630852cd8d60e31b8152600481018490526001600160a01b03909116906342966c6890602401600060405180830381600087803b158015611d6157600080fd5b505af1158015611d75573d6000803e3d6000fd5b50505050611d82836128fb565b611d8c8484611fa9565b611d946121f4565b611da78482608001518360e00151612a43565b8061010001516001600160801b0316600a6000828254611dc79190613bbf565b909155505060008381526016602090815260408083209290925560808381015160e085015161010086015185516001600160a01b038b1681529485018990528486019290925260608401526001600160801b03169082015260a0810184905290517f055f388d8102e9e2bfeaa944b25b4cdb0c06fd1c42d5c2812a8f3c7ac1aa26d39181900360c00190a150505050565b611e6282826113e0565b610b0857611e7a816001600160a01b03166014612b59565b611e85836020612b59565b604051602001611e969291906139c9565b60408051601f198184030181529082905262461bcd60e51b825261095e91600401613a70565b611ec682826113e0565b610b08576000828152601c602090815260408083206001600160a01b03851684529091529020805460ff19166001179055611efe3390565b6001600160a01b0316816001600160a01b0316837f2f8788117e7eff1d82e926ec794901d17c78024a50270940304540a733656f0d60405160405180910390a45050565b611f4c82826113e0565b15610b08576000828152601c602090815260408083206001600160a01b0385168085529252808320805460ff1916905551339285917ff6391f5c32d9c69d2a47ea670b442974b53935d1edc7fd64eb21e047a839171b9190a45050565b6001600160a01b03821660008181526013602090815260408083208584528252808320549383526012909152812054611fe490600190613bbf565b905080821415612054576001600160a01b03841660008181526013602090815260408083208784528252808320839055928252601290522080548061203957634e487b7160e01b600052603160045260246000fd5b600190038181906000526020600020016000905590556121ab565b6001600160a01b038416600090815260126020526040902080548290811061208c57634e487b7160e01b600052603260045260246000fd5b906000526020600020015460126000866001600160a01b03166001600160a01b0316815260200190815260200160002083815481106120db57634e487b7160e01b600052603260045260246000fd5b60009182526020808320909101929092556001600160a01b038616815260138252604080822060129093528120805485939291908490811061212d57634e487b7160e01b600052603260045260246000fd5b600091825260208083209091015483528281019390935260409182018120939093556001600160a01b03871680845260138352818420878552835281842084905583526012909152902080548061219457634e487b7160e01b600052603160045260246000fd5b600190038181906000526020600020016000905590555b50505050565b6001600160a01b03909116600090815260126020818152604080842080546013845282862087875284529185208290559282526001810183559183529091200155565b600060195411801561220857506000601854115b15612315574260006122186109c3565b90506000601a54600014801561222e5750600082115b80612237575081155b15612243575050601a55565b601a54831180156122545750600082115b15610a8957601954601a546122699085613bbf565b6122739190613b8c565b90508015610a89576000612285610d19565b905060006122968460185485611709565b905060006122a5858385612d3b565b90506122b081612d50565b601a8690557f1c5f76ee6d4a200763c92ee4aa5b497d5d0d283c449647a59866d47429eb5e1e836122df610d19565b601a54856122ed8a82613bbf565b604080519586526020860194909452928401919091526060830152608082015260a001610c55565b565b6001600160a01b0384161580159061233757506001600160a01b03831615155b61237e5760405162461bcd60e51b8152602060048201526018602482015277526577617264506f6f6c3a207a65726f206164647265737360401b604482015260640161095e565b60008211801561238e5750600081115b6123aa5760405162461bcd60e51b815260040161095e90613aa3565b6000806123d66123b960035490565b6001600160a01b0388166000908152600460205260409020612467565b92509250506000806124076123ea60035490565b6001600160a01b0389166000908152600460205260409020612467565b90935091508690508085101561241a5750835b85808510156124265750835b6124438a6124348489613bbf565b61243e8489613bbf565b612de0565b61245b896124518487613b74565b61243e8487613b74565b50505050505050505050565b60008060008085116124b15760405162461bcd60e51b81526020600482015260136024820152720526577617264506f6f6c3a206964206973203606c1b604482015260640161095e565b6003548511156125035760405162461bcd60e51b815260206004820152601a60248201527f526577617264506f6f6c3a206e6f6e6578697374656e74206964000000000000604482015260640161095e565b600061250f8587612e04565b855490915081141561252c57600080600093509350935050612592565b600185600101828154811061255157634e487b7160e01b600052603260045260246000fd5b906000526020600020015486600201838154811061257f57634e487b7160e01b600052603260045260246000fd5b9060005260206000200154935093509350505b9250925092565b600080600883158015906125af57506003548411155b156126175760006125c08286612ee3565b82549091508114156125dc576000601b54935093505050915091565b600182600101828154811061260157634e487b7160e01b600052603260045260246000fd5b9060005260206000200154935093505050915091565b6000601b549250925050915091565b6000670de0b6b3a764000061263b848461301b565b610d279190613b8c565b600380546000918261265683613c54565b9190505550600061266660035490565b90507f8030e83b04d87bef53480e26263266d6ca66863aa8506aca6f2559d18aa1cb678160405161269991815260200190565b60405180910390a1919050565b6000677fffffffffffffff8211156126bd57600080fd5b5060401b90565b6000600f83810b9083900b0260401d60016001607f1b031981128015906126f2575060016001607f1b038113155b610d2757600080fd5b60008161270757600080fd5b60006127138484613082565b905060016001607f1b036001600160801b0382161115610d2757600080fd5b6000600f83810b9083900b0160016001607f1b031981128015906126f2575060016001607f1b03811315610d2757600080fd5b6000816127745750600061083b565b600083600f0b121561278557600080fd5b600f83900b6001600160801b038316810260401c90608084901c026001600160c01b038111156127b457600080fd5b60401b81198111156127c557600080fd5b019392505050565b60008161263b84670de0b6b3a764000061301b565b6001600160a01b0383166128445760405162461bcd60e51b8152602060048201526024808201527f526577617264506f6f6c3a206d696e7420746f20746865207a65726f206164646044820152637265737360e01b606482015260840161095e565b6000821180156128545750600081115b6128705760405162461bcd60e51b815260040161095e90613aa3565b60008061289c61287f60035490565b6001600160a01b0387166000908152600460205260409020612467565b92509250506000806128b76128b060035490565b6005612467565b92509250506128d68787866128cc9190613b74565b61243e8887613b74565b6128f26128e38784613b74565b6128ed8784613b74565b61321c565b50505050505050565b60008181526015602052604081205460145490919061291c90600190613bbf565b90508082141561296f57600083815260156020526040812055601480548061295457634e487b7160e01b600052603160045260246000fd5b60019003818190600052602060002001600090559055505050565b6014818154811061299057634e487b7160e01b600052603260045260246000fd5b9060005260206000200154601483815481106129bc57634e487b7160e01b600052603260045260246000fd5b90600052602060002001819055508160156000601485815481106129f057634e487b7160e01b600052603260045260246000fd5b90600052602060002001548152602001908152602001600020819055506015600084815260200190815260200160002060009055601480548061295457634e487b7160e01b600052603160045260246000fd5b6001600160a01b038316612aa55760405162461bcd60e51b8152602060048201526024808201527f526577617264506f6f6c3a206275726e20746f20746865207a65726f206164646044820152637265737360e01b606482015260840161095e565b600082118015612ab55750600081115b612ad15760405162461bcd60e51b815260040161095e90613aa3565b600080612ae061287f60035490565b9250925050600080612af46128b060035490565b909350915086905080851015612b075750835b80831015612b125750815b8580851015612b1e5750835b80831015612b295750815b612b37896124348489613bbf565b612b4e612b448386613bbf565b6128ed8386613bbf565b505050505050505050565b60606000612b68836002613ba0565b612b73906002613b74565b67ffffffffffffffff811115612b9957634e487b7160e01b600052604160045260246000fd5b6040519080825280601f01601f191660200182016040528015612bc3576020820181803683370190505b509050600360fc1b81600081518110612bec57634e487b7160e01b600052603260045260246000fd5b60200101906001600160f81b031916908160001a905350600f60fb1b81600181518110612c2957634e487b7160e01b600052603260045260246000fd5b60200101906001600160f81b031916908160001a9053506000612c4d846002613ba0565b612c58906001613b74565b90505b6001811115612cec576f181899199a1a9b1b9c1cb0b131b232b360811b85600f1660108110612c9a57634e487b7160e01b600052603260045260246000fd5b1a60f81b828281518110612cbe57634e487b7160e01b600052603260045260246000fd5b60200101906001600160f81b031916908160001a90535060049490941c93612ce581613c02565b9050612c5b565b508315610d275760405162461bcd60e51b815260206004820181905260248201527f537472696e67733a20686578206c656e67746820696e73756666696369656e74604482015260640161095e565b60006113d8612d4a848461322a565b8561325a565b60035460086000612d608261327d565b905082811015612d9c578154600181810184556000848152602080822090930186905581850180549283018155815291909120018490556121ab565b81548490600180850191612db09190613bbf565b81548110612dce57634e487b7160e01b600052603260045260246000fd5b60009182526020909120015550505050565b6001600160a01b0383166000908152600460205260409020610a89908484846132d3565b8154600090612e155750600061083b565b82546000905b80821015612e7f576000612e2f83836133f7565b905084868281548110612e5257634e487b7160e01b600052603260045260246000fd5b90600052602060002001541115612e6b57809150612e79565b612e76816001613b74565b92505b50612e1b565b600082118015612ec257508385612e97600185613bbf565b81548110612eb557634e487b7160e01b600052603260045260246000fd5b9060005260206000200154145b15612edb57612ed2600183613bbf565b9250505061083b565b50905061083b565b8154600090612ef45750600061083b565b82548390612f0490600190613bbf565b81548110612f2257634e487b7160e01b600052603260045260246000fd5b90600052602060002001548210612f48578254612f4190600190613bbf565b905061083b565b82600081548110612f6957634e487b7160e01b600052603260045260246000fd5b9060005260206000200154821015612f835750600061083b565b82546000908190612f9690600190613bbf565b90505b818111156130135760006002612faf8484613b74565b612fba906001613b74565b612fc49190613b8c565b905084868281548110612fe757634e487b7160e01b600052603260045260246000fd5b906000526020600020015411612fff5780925061300d565b61300a600182613bbf565b91505b50612f99565b509392505050565b600081158061303f575082826130318183613ba0565b925061303d9083613b8c565b145b61083b5760405162461bcd60e51b815260206004820152601460248201527364732d6d6174682d6d756c2d6f766572666c6f7760601b604482015260640161095e565b60008161308e57600080fd5b60006001600160c01b0384116130c75782604085901b816130bf57634e487b7160e01b600052601260045260246000fd5b049050613208565b60c084811c64010000000081106130e0576020918201911c5b6201000081106130f2576010918201911c5b6101008110613103576008918201911c5b60108110613113576004918201911c5b60048110613123576002918201911c5b60028110613132576001820191505b60bf820360018603901c6001018260ff0387901b8161316157634e487b7160e01b600052601260045260246000fd5b0492506001600160801b0383111561317857600080fd5b608085901c83026001600160801b038616840260c088901c604089901b828110156131a4576001820391505b608084901b929003828110156131bb576001820391505b829003608084901c82146131df57634e487b7160e01b600052600160045260246000fd5b8881816131fc57634e487b7160e01b600052601260045260246000fd5b04870196505050505050505b6001600160801b03811115610d2757600080fd5b610b086005600084846132d3565b6000670de0b6b3a764000061263b613242858561301b565b6132556002670de0b6b3a7640000613b8c565b613412565b60008161263b61327285670de0b6b3a764000061301b565b613255600286613b8c565b805460009061328e57506000919050565b8154829061329e90600190613bbf565b815481106132bc57634e487b7160e01b600052603260045260246000fd5b90600052602060002001549050919050565b919050565b60035460006132e18661327d565b905081811015613332578554600181810188556000888152602080822090930185905581890180548084018255908252838220018790556002890180549283018155815291909120018390556133b0565b855484906001808901916133469190613bbf565b8154811061336457634e487b7160e01b600052603260045260246000fd5b60009182526020909120015585548390600288019061338590600190613bbf565b815481106133a357634e487b7160e01b600052603260045260246000fd5b6000918252602090912001555b604080516001600160a01b0387168152602081018690529081018490527ff86c9ef367dff1116511f7cc40a71ba6c866b8c31f5644d8bd519b00764cb36890606001610c55565b60006134066002848418613b8c565b610d2790848416613b74565b60008261341f8382613b74565b915081101561083b5760405162461bcd60e51b815260206004820152601460248201527364732d6d6174682d6164642d6f766572666c6f7760601b604482015260640161095e565b80516132ce81613caf565b8051600281900b81146132ce57600080fd5b80516001600160801b03811681146132ce57600080fd5b805161ffff811681146132ce57600080fd5b805162ffffff811681146132ce57600080fd5b6000602082840312156134d1578081fd5b8135610d2781613caf565b6000602082840312156134ed578081fd5b8151610d2781613caf565b6000806000806080858703121561350d578283fd5b843561351881613caf565b9350602085013561352881613caf565b9250604085013561353881613caf565b9150606085013561354881613caf565b939692955090935050565b60008060008060006080868803121561356a578081fd5b853561357581613caf565b9450602086013561358581613caf565b935060408601359250606086013567ffffffffffffffff808211156135a8578283fd5b818801915088601f8301126135bb578283fd5b8135818111156135c9578384fd5b8960208285010111156135da578384fd5b9699959850939650602001949392505050565b600080600080600060a08688031215613604578081fd5b853561360f81613caf565b9450602086013561361f81613caf565b94979496505050506040830135926060810135926080909101359150565b6000806040838503121561364f578182fd5b823561365a81613caf565b946020939093013593505050565b600060208284031215613679578081fd5b5035919050565b60008060408385031215613692578182fd5b8235915060208301356136a481613caf565b809150509250929050565b6000602082840312156136c0578081fd5b81356001600160e01b031981168114610d27578182fd5b600080604083850312156136e9578182fd5b823580600f0b811461365a578283fd5b6000610120828403121561370b578081fd5b613713613b3c565b61371c83613467565b815261372a60208401613467565b602082015261373b60408401613467565b6040820152606083015160608201526080830151608082015260a083015160a082015260c083015160c082015260e083015160e0820152610100613780818501613484565b908201529392505050565b600080600080600080600060e0888a0312156137a5578485fd5b87516137b081613caf565b96506137be60208901613472565b95506137cc6040890161349b565b94506137da6060890161349b565b93506137e86080890161349b565b925060a088015160ff811681146137fd578283fd5b60c08901519092508015158114613812578182fd5b8091505092959891949750929550565b600060208284031215613833578081fd5b5051919050565b60008060006060848603121561384e578081fd5b83359250602084013561386081613caf565b9150604084013561387081613caf565b809150509250925092565b6000806040838503121561388d578182fd5b50508035926020909101359150565b600080604083850312156138ae578182fd5b505080516020909101519092909150565b6000806000606084860312156138d3578081fd5b505081359360208301359350604090920135919050565b6000806000806000806000806000806000806101808d8f03121561390c578586fd5b8c516bffffffffffffffffffffffff81168114613927578687fd5b9b5061393560208e01613467565b9a5061394360408e01613467565b995061395160608e01613467565b985061395f60808e016134ad565b975061396d60a08e01613472565b965061397b60c08e01613472565b955061398960e08e01613484565b94506101008d015193506101208d015192506139a86101408e01613484565b91506139b76101608e01613484565b90509295989b509295989b509295989b565b76020b1b1b2b9b9a1b7b73a3937b61d1030b1b1b7bab73a1604d1b8152600083516139fb816017850160208801613bd6565b7001034b99036b4b9b9b4b733903937b6329607d1b6017918401918201528351613a2c816028840160208801613bd6565b01602801949350505050565b6001600160a01b0391909116815260200190565b6001600160a01b039384168152919092166020820152604081019190915260600190565b6020815260008251806020840152613a8f816040850160208701613bd6565b601f01601f19169190910160400192915050565b60208082526017908201527614995dd85c99141bdbdb0e881e995c9bc8185b5bdd5b9d604a1b604082015260600190565b60208082526022908201527f41636365737369626c653a2043616c6c6572206973206e6f7420616e2061646d60408201526134b760f11b606082015260800190565b6020808252600c908201526b7a65726f206164647265737360a01b604082015260600190565b604051610120810167ffffffffffffffff81118282101715613b6e57634e487b7160e01b600052604160045260246000fd5b60405290565b60008219821115613b8757613b87613c83565b500190565b600082613b9b57613b9b613c99565b500490565b6000816000190483118215151615613bba57613bba613c83565b500290565b600082821015613bd157613bd1613c83565b500390565b60005b83811015613bf1578181015183820152602001613bd9565b838111156121ab5750506000910152565b600081613c1157613c11613c83565b506000190190565b600181811c90821680613c2d57607f821691505b60208210811415613c4e57634e487b7160e01b600052602260045260246000fd5b50919050565b6000600019821415613c6857613c68613c83565b5060010190565b600082613c7e57613c7e613c99565b500690565b634e487b7160e01b600052601160045260246000fd5b634e487b7160e01b600052601260045260246000fd5b6001600160a01b03811681146109c057600080fdfedf8b4c520ffe197c5343c6f5aec59570151ef9a492f2c624fd45ddde6135ec42a2646970667358221220b86c4e8d9f5587c1d8d3fa06cc8981556b89a688cee1cee28a8bb0dcfa3763b164736f6c63430008040033",
  "linkReferences": {
    "contracts/libraries/TOSEvaluator.sol": {
      "TOSEvaluator": [
        {
          "length": 20,
          "start": 4156
        },
        {
          "length": 20,
          "start": 4352
        },
        {
          "length": 20,
          "start": 4569
        }
      ]
    }
  },
  "deployedLinkReferences": {
    "contracts/libraries/TOSEvaluator.sol": {
      "TOSEvaluator": [
        {
          "length": 20,
          "start": 4099
        },
        {
          "length": 20,
          "start": 4295
        },
        {
          "length": 20,
          "start": 4512
        }
      ]
    }
  }
}