{
  "_format": "hh-sol-artifact-1",
  "contractName": "StakingV2",
  "sourceName": "contracts/StakingV2.sol",
  "abi": [
    {
      "inputs": [],
      "stateMutability": "nonpayable",
      "type": "constructor"
    },
    {
      "anonymous": false,
      "inputs": [
        {
          "indexed": false,
          "internalType": "address",
          "name": "staker",
          "type": "address"
        },
        {
          "indexed": false,
          "internalType": "uint256",
          "name": "claimAmount",
          "type": "uint256"
        },
        {
          "indexed": false,
          "internalType": "uint256",
          "name": "stakeId",
          "type": "uint256"
        }
      ],
      "name": "ClaimdForNonLock",
      "type": "event"
    },
    {
      "anonymous": false,
      "inputs": [
        {
          "indexed": false,
          "internalType": "address",
          "name": "to",
          "type": "address"
        },
        {
          "indexed": false,
          "internalType": "uint256",
          "name": "amount",
          "type": "uint256"
        },
        {
          "indexed": false,
          "internalType": "uint256",
          "name": "stakeId",
          "type": "uint256"
        }
      ],
      "name": "IncreasedAmountForSimpleStake",
      "type": "event"
    },
    {
      "anonymous": false,
      "inputs": [
        {
          "indexed": false,
          "internalType": "address",
          "name": "staker",
          "type": "address"
        },
        {
          "indexed": false,
          "internalType": "uint256",
          "name": "amount",
          "type": "uint256"
        },
        {
          "indexed": false,
          "internalType": "uint256",
          "name": "unlockWeeks",
          "type": "uint256"
        },
        {
          "indexed": false,
          "internalType": "uint256",
          "name": "stakeId",
          "type": "uint256"
        },
        {
          "indexed": false,
          "internalType": "uint256",
          "name": "stosId",
          "type": "uint256"
        },
        {
          "indexed": false,
          "internalType": "uint256",
          "name": "stosPrincipal",
          "type": "uint256"
        }
      ],
      "name": "IncreasedBeforeEndOrNonEnd",
      "type": "event"
    },
    {
      "anonymous": false,
      "inputs": [
        {
          "indexed": false,
          "internalType": "uint256",
          "name": "oldIndex",
          "type": "uint256"
        },
        {
          "indexed": false,
          "internalType": "uint256",
          "name": "newIndex",
          "type": "uint256"
        },
        {
          "indexed": false,
          "internalType": "uint256",
          "name": "totalLTOS",
          "type": "uint256"
        }
      ],
      "name": "Rebased",
      "type": "event"
    },
    {
      "anonymous": false,
      "inputs": [
        {
          "indexed": false,
          "internalType": "address",
          "name": "to",
          "type": "address"
        },
        {
          "indexed": false,
          "internalType": "uint256",
          "name": "addAmount",
          "type": "uint256"
        },
        {
          "indexed": false,
          "internalType": "uint256",
          "name": "claimAmount",
          "type": "uint256"
        },
        {
          "indexed": false,
          "internalType": "uint256",
          "name": "periodWeeks",
          "type": "uint256"
        },
        {
          "indexed": false,
          "internalType": "uint256",
          "name": "stakeId",
          "type": "uint256"
        },
        {
          "indexed": false,
          "internalType": "uint256",
          "name": "stosId",
          "type": "uint256"
        },
        {
          "indexed": false,
          "internalType": "uint256",
          "name": "stosPrincipal",
          "type": "uint256"
        }
      ],
      "name": "ResetStakedGetStosAfterLock",
      "type": "event"
    },
    {
      "anonymous": false,
      "inputs": [
        {
          "indexed": true,
          "internalType": "bytes32",
          "name": "role",
          "type": "bytes32"
        },
        {
          "indexed": true,
          "internalType": "bytes32",
          "name": "previousAdminRole",
          "type": "bytes32"
        },
        {
          "indexed": true,
          "internalType": "bytes32",
          "name": "newAdminRole",
          "type": "bytes32"
        }
      ],
      "name": "RoleAdminChanged",
      "type": "event"
    },
    {
      "anonymous": false,
      "inputs": [
        {
          "indexed": true,
          "internalType": "bytes32",
          "name": "role",
          "type": "bytes32"
        },
        {
          "indexed": true,
          "internalType": "address",
          "name": "account",
          "type": "address"
        },
        {
          "indexed": true,
          "internalType": "address",
          "name": "sender",
          "type": "address"
        }
      ],
      "name": "RoleGranted",
      "type": "event"
    },
    {
      "anonymous": false,
      "inputs": [
        {
          "indexed": true,
          "internalType": "bytes32",
          "name": "role",
          "type": "bytes32"
        },
        {
          "indexed": true,
          "internalType": "address",
          "name": "account",
          "type": "address"
        },
        {
          "indexed": true,
          "internalType": "address",
          "name": "sender",
          "type": "address"
        }
      ],
      "name": "RoleRevoked",
      "type": "event"
    },
    {
      "anonymous": false,
      "inputs": [
        {
          "indexed": false,
          "internalType": "address",
          "name": "to",
          "type": "address"
        },
        {
          "indexed": false,
          "internalType": "uint256",
          "name": "amount",
          "type": "uint256"
        },
        {
          "indexed": false,
          "internalType": "uint256",
          "name": "stakeId",
          "type": "uint256"
        }
      ],
      "name": "Staked",
      "type": "event"
    },
    {
      "anonymous": false,
      "inputs": [
        {
          "indexed": false,
          "internalType": "address",
          "name": "to",
          "type": "address"
        },
        {
          "indexed": false,
          "internalType": "uint256",
          "name": "amount",
          "type": "uint256"
        },
        {
          "indexed": false,
          "internalType": "uint256",
          "name": "ltos",
          "type": "uint256"
        },
        {
          "indexed": false,
          "internalType": "uint256",
          "name": "marketId",
          "type": "uint256"
        },
        {
          "indexed": false,
          "internalType": "uint256",
          "name": "stakeId",
          "type": "uint256"
        },
        {
          "indexed": false,
          "internalType": "uint256",
          "name": "tosPrice",
          "type": "uint256"
        }
      ],
      "name": "StakedByBond",
      "type": "event"
    },
    {
      "anonymous": false,
      "inputs": [
        {
          "indexed": false,
          "internalType": "address",
          "name": "to",
          "type": "address"
        },
        {
          "indexed": false,
          "internalType": "uint256",
          "name": "amount",
          "type": "uint256"
        },
        {
          "indexed": false,
          "internalType": "uint256",
          "name": "periodWeeks",
          "type": "uint256"
        },
        {
          "indexed": false,
          "internalType": "uint256",
          "name": "stakeId",
          "type": "uint256"
        },
        {
          "indexed": false,
          "internalType": "uint256",
          "name": "stosId",
          "type": "uint256"
        },
        {
          "indexed": false,
          "internalType": "uint256",
          "name": "stosPrincipal",
          "type": "uint256"
        }
      ],
      "name": "StakedGetStos",
      "type": "event"
    },
    {
      "anonymous": false,
      "inputs": [
        {
          "indexed": false,
          "internalType": "address",
          "name": "to",
          "type": "address"
        },
        {
          "indexed": false,
          "internalType": "uint256",
          "name": "amount",
          "type": "uint256"
        },
        {
          "indexed": false,
          "internalType": "uint256",
          "name": "ltos",
          "type": "uint256"
        },
        {
          "indexed": false,
          "internalType": "uint256",
          "name": "periodWeeks",
          "type": "uint256"
        },
        {
          "indexed": false,
          "internalType": "uint256",
          "name": "marketId",
          "type": "uint256"
        },
        {
          "indexed": false,
          "internalType": "uint256",
          "name": "stakeId",
          "type": "uint256"
        },
        {
          "indexed": false,
          "internalType": "uint256",
          "name": "stosId",
          "type": "uint256"
        },
        {
          "indexed": false,
          "internalType": "uint256",
          "name": "tosPrice",
          "type": "uint256"
        },
        {
          "indexed": false,
          "internalType": "uint256",
          "name": "stosPrincipal",
          "type": "uint256"
        }
      ],
      "name": "StakedGetStosByBond",
      "type": "event"
    },
    {
      "anonymous": false,
      "inputs": [
        {
          "indexed": false,
          "internalType": "address",
          "name": "staker",
          "type": "address"
        },
        {
          "indexed": false,
          "internalType": "uint256",
          "name": "amount",
          "type": "uint256"
        },
        {
          "indexed": false,
          "internalType": "uint256",
          "name": "stakeId",
          "type": "uint256"
        }
      ],
      "name": "Unstaked",
      "type": "event"
    },
    {
      "inputs": [],
      "name": "ADMIN_ROLE",
      "outputs": [
        {
          "internalType": "bytes32",
          "name": "",
          "type": "bytes32"
        }
      ],
      "stateMutability": "view",
      "type": "function"
    },
    {
      "inputs": [],
      "name": "DEFAULT_ADMIN_ROLE",
      "outputs": [
        {
          "internalType": "bytes32",
          "name": "",
          "type": "bytes32"
        }
      ],
      "stateMutability": "view",
      "type": "function"
    },
    {
      "inputs": [],
      "name": "POLICY_ROLE",
      "outputs": [
        {
          "internalType": "bytes32",
          "name": "",
          "type": "bytes32"
        }
      ],
      "stateMutability": "view",
      "type": "function"
    },
    {
      "inputs": [],
      "name": "PROJECT_ADMIN_ROLE",
      "outputs": [
        {
          "internalType": "bytes32",
          "name": "",
          "type": "bytes32"
        }
      ],
      "stateMutability": "view",
      "type": "function"
    },
    {
      "inputs": [
        {
          "internalType": "address",
          "name": "account",
          "type": "address"
        }
      ],
      "name": "addAdmin",
      "outputs": [],
      "stateMutability": "nonpayable",
      "type": "function"
    },
    {
      "inputs": [
        {
          "internalType": "address",
          "name": "_account",
          "type": "address"
        }
      ],
      "name": "addPolicy",
      "outputs": [],
      "stateMutability": "nonpayable",
      "type": "function"
    },
    {
      "inputs": [
        {
          "internalType": "address",
          "name": "_owner",
          "type": "address"
        }
      ],
      "name": "addProxyAdmin",
      "outputs": [],
      "stateMutability": "nonpayable",
      "type": "function"
    },
    {
      "inputs": [
        {
          "internalType": "uint256",
          "name": "",
          "type": "uint256"
        }
      ],
      "name": "allStakings",
      "outputs": [
        {
          "internalType": "address",
          "name": "staker",
          "type": "address"
        },
        {
          "internalType": "uint256",
          "name": "deposit",
          "type": "uint256"
        },
        {
          "internalType": "uint256",
          "name": "ltos",
          "type": "uint256"
        },
        {
          "internalType": "uint256",
          "name": "endTime",
          "type": "uint256"
        },
        {
          "internalType": "uint256",
          "name": "marketId",
          "type": "uint256"
        }
      ],
      "stateMutability": "view",
      "type": "function"
    },
    {
      "inputs": [
        {
          "internalType": "address",
          "name": "_addr",
          "type": "address"
        }
      ],
      "name": "balanceOf",
      "outputs": [
        {
          "internalType": "uint256",
          "name": "balance",
          "type": "uint256"
        }
      ],
      "stateMutability": "view",
      "type": "function"
    },
    {
      "inputs": [
        {
          "internalType": "uint256",
          "name": "_stakeId",
          "type": "uint256"
        }
      ],
      "name": "balanceOfId",
      "outputs": [
        {
          "internalType": "uint256",
          "name": "",
          "type": "uint256"
        }
      ],
      "stateMutability": "view",
      "type": "function"
    },
    {
      "inputs": [],
      "name": "basicBondPeriod",
      "outputs": [
        {
          "internalType": "uint256",
          "name": "",
          "type": "uint256"
        }
      ],
      "stateMutability": "view",
      "type": "function"
    },
    {
      "inputs": [
        {
          "internalType": "uint256",
          "name": "_stakeId",
          "type": "uint256"
        },
        {
          "internalType": "uint256",
          "name": "claimLtos",
          "type": "uint256"
        }
      ],
      "name": "claimForSimpleType",
      "outputs": [],
      "stateMutability": "nonpayable",
      "type": "function"
    },
    {
      "inputs": [
        {
          "internalType": "uint256",
          "name": "_stakeId",
          "type": "uint256"
        }
      ],
      "name": "claimableLtos",
      "outputs": [
        {
          "internalType": "uint256",
          "name": "",
          "type": "uint256"
        }
      ],
      "stateMutability": "view",
      "type": "function"
    },
    {
      "inputs": [
        {
          "internalType": "uint256",
          "name": "",
          "type": "uint256"
        }
      ],
      "name": "connectId",
      "outputs": [
        {
          "internalType": "uint256",
          "name": "",
          "type": "uint256"
        }
      ],
      "stateMutability": "view",
      "type": "function"
    },
    {
      "inputs": [],
      "name": "epoch",
      "outputs": [
        {
          "internalType": "uint256",
          "name": "length_",
          "type": "uint256"
        },
        {
          "internalType": "uint256",
          "name": "end",
          "type": "uint256"
        }
      ],
      "stateMutability": "view",
      "type": "function"
    },
    {
      "inputs": [],
      "name": "generateMarketId",
      "outputs": [
        {
          "internalType": "uint256",
          "name": "",
          "type": "uint256"
        }
      ],
      "stateMutability": "nonpayable",
      "type": "function"
    },
    {
      "inputs": [],
      "name": "getIndex",
      "outputs": [
        {
          "internalType": "uint256",
          "name": "",
          "type": "uint256"
        }
      ],
      "stateMutability": "view",
      "type": "function"
    },
    {
      "inputs": [
        {
          "internalType": "uint256",
          "name": "ltos",
          "type": "uint256"
        }
      ],
      "name": "getLtosToTos",
      "outputs": [
        {
          "internalType": "uint256",
          "name": "",
          "type": "uint256"
        }
      ],
      "stateMutability": "view",
      "type": "function"
    },
    {
      "inputs": [
        {
          "internalType": "uint256",
          "name": "ltos",
          "type": "uint256"
        }
      ],
      "name": "getLtosToTosPossibleIndex",
      "outputs": [
        {
          "internalType": "uint256",
          "name": "",
          "type": "uint256"
        }
      ],
      "stateMutability": "view",
      "type": "function"
    },
    {
      "inputs": [
        {
          "internalType": "bytes32",
          "name": "role",
          "type": "bytes32"
        }
      ],
      "name": "getRoleAdmin",
      "outputs": [
        {
          "internalType": "bytes32",
          "name": "",
          "type": "bytes32"
        }
      ],
      "stateMutability": "view",
      "type": "function"
    },
    {
      "inputs": [
        {
          "internalType": "uint256",
          "name": "amount",
          "type": "uint256"
        }
      ],
      "name": "getTosToLtos",
      "outputs": [
        {
          "internalType": "uint256",
          "name": "",
          "type": "uint256"
        }
      ],
      "stateMutability": "view",
      "type": "function"
    },
    {
      "inputs": [
        {
          "internalType": "uint256",
          "name": "amount",
          "type": "uint256"
        }
      ],
      "name": "getTosToLtosPossibleIndex",
      "outputs": [
        {
          "internalType": "uint256",
          "name": "",
          "type": "uint256"
        }
      ],
      "stateMutability": "view",
      "type": "function"
    },
    {
      "inputs": [
        {
          "internalType": "bytes32",
          "name": "role",
          "type": "bytes32"
        },
        {
          "internalType": "address",
          "name": "account",
          "type": "address"
        }
      ],
      "name": "grantRole",
      "outputs": [],
      "stateMutability": "nonpayable",
      "type": "function"
    },
    {
      "inputs": [
        {
          "internalType": "bytes32",
          "name": "role",
          "type": "bytes32"
        },
        {
          "internalType": "address",
          "name": "account",
          "type": "address"
        }
      ],
      "name": "hasRole",
      "outputs": [
        {
          "internalType": "bool",
          "name": "",
          "type": "bool"
        }
      ],
      "stateMutability": "view",
      "type": "function"
    },
    {
      "inputs": [
        {
          "internalType": "uint256",
          "name": "_stakeId",
          "type": "uint256"
        },
        {
          "internalType": "uint256",
          "name": "_amount",
          "type": "uint256"
        }
      ],
      "name": "increaseAmountForSimpleStake",
      "outputs": [],
      "stateMutability": "nonpayable",
      "type": "function"
    },
    {
      "inputs": [
        {
          "internalType": "uint256",
          "name": "_stakeId",
          "type": "uint256"
        },
        {
          "internalType": "uint256",
          "name": "_amount",
          "type": "uint256"
        },
        {
          "internalType": "uint256",
          "name": "_unlockWeeks",
          "type": "uint256"
        }
      ],
      "name": "increaseBeforeEndOrNonEnd",
      "outputs": [],
      "stateMutability": "nonpayable",
      "type": "function"
    },
    {
      "inputs": [
        {
          "internalType": "uint256",
          "name": "_stakeId",
          "type": "uint256"
        },
        {
          "internalType": "uint256",
          "name": "_amount",
          "type": "uint256"
        }
      ],
      "name": "increaseBeforeEndOrNonEnd",
      "outputs": [],
      "stateMutability": "nonpayable",
      "type": "function"
    },
    {
      "inputs": [],
      "name": "index_",
      "outputs": [
        {
          "internalType": "uint256",
          "name": "",
          "type": "uint256"
        }
      ],
      "stateMutability": "view",
      "type": "function"
    },
    {
      "inputs": [
        {
          "internalType": "address",
          "name": "account",
          "type": "address"
        }
      ],
      "name": "isAdmin",
      "outputs": [
        {
          "internalType": "bool",
          "name": "",
          "type": "bool"
        }
      ],
      "stateMutability": "view",
      "type": "function"
    },
    {
      "inputs": [
        {
          "internalType": "address",
          "name": "account",
          "type": "address"
        }
      ],
      "name": "isPolicy",
      "outputs": [
        {
          "internalType": "bool",
          "name": "",
          "type": "bool"
        }
      ],
      "stateMutability": "view",
      "type": "function"
    },
    {
      "inputs": [
        {
          "internalType": "address",
          "name": "account",
          "type": "address"
        }
      ],
      "name": "isProxyAdmin",
      "outputs": [
        {
          "internalType": "bool",
          "name": "",
          "type": "bool"
        }
      ],
      "stateMutability": "view",
      "type": "function"
    },
    {
      "inputs": [],
      "name": "lockTOS",
      "outputs": [
        {
          "internalType": "address",
          "name": "",
          "type": "address"
        }
      ],
      "stateMutability": "view",
      "type": "function"
    },
    {
      "inputs": [],
      "name": "marketIdCounter",
      "outputs": [
        {
          "internalType": "uint256",
          "name": "",
          "type": "uint256"
        }
      ],
      "stateMutability": "view",
      "type": "function"
    },
    {
      "inputs": [
        {
          "internalType": "uint256[]",
          "name": "_stakeIds",
          "type": "uint256[]"
        }
      ],
      "name": "multiUnstake",
      "outputs": [],
      "stateMutability": "nonpayable",
      "type": "function"
    },
    {
      "inputs": [],
      "name": "possibleIndex",
      "outputs": [
        {
          "internalType": "uint256",
          "name": "",
          "type": "uint256"
        }
      ],
      "stateMutability": "view",
      "type": "function"
    },
    {
      "inputs": [],
      "name": "rebaseIndex",
      "outputs": [],
      "stateMutability": "nonpayable",
      "type": "function"
    },
    {
      "inputs": [],
      "name": "rebasePerEpoch",
      "outputs": [
        {
          "internalType": "uint256",
          "name": "",
          "type": "uint256"
        }
      ],
      "stateMutability": "view",
      "type": "function"
    },
    {
      "inputs": [
        {
          "internalType": "uint256",
          "name": "_stakeId",
          "type": "uint256"
        }
      ],
      "name": "remainedLtos",
      "outputs": [
        {
          "internalType": "uint256",
          "name": "",
          "type": "uint256"
        }
      ],
      "stateMutability": "view",
      "type": "function"
    },
    {
      "inputs": [],
      "name": "removeAdmin",
      "outputs": [],
      "stateMutability": "nonpayable",
      "type": "function"
    },
    {
      "inputs": [],
      "name": "removePolicy",
      "outputs": [],
      "stateMutability": "nonpayable",
      "type": "function"
    },
    {
      "inputs": [],
      "name": "removeProxyAdmin",
      "outputs": [],
      "stateMutability": "nonpayable",
      "type": "function"
    },
    {
      "inputs": [
        {
          "internalType": "bytes32",
          "name": "role",
          "type": "bytes32"
        },
        {
          "internalType": "address",
          "name": "account",
          "type": "address"
        }
      ],
      "name": "renounceRole",
      "outputs": [],
      "stateMutability": "nonpayable",
      "type": "function"
    },
    {
      "inputs": [
        {
          "internalType": "uint256",
          "name": "_stakeId",
          "type": "uint256"
        },
        {
          "internalType": "uint256",
          "name": "_addAmount",
          "type": "uint256"
        },
        {
          "internalType": "uint256",
          "name": "_claimAmount",
          "type": "uint256"
        },
        {
          "internalType": "uint256",
          "name": "_periodWeeks",
          "type": "uint256"
        }
      ],
      "name": "resetStakeGetStosAfterLock",
      "outputs": [],
      "stateMutability": "nonpayable",
      "type": "function"
    },
    {
      "inputs": [
        {
          "internalType": "uint256",
          "name": "_stakeId",
          "type": "uint256"
        },
        {
          "internalType": "uint256",
          "name": "_claimAmount",
          "type": "uint256"
        }
      ],
      "name": "resetStakeGetStosAfterLock",
      "outputs": [],
      "stateMutability": "nonpayable",
      "type": "function"
    },
    {
      "inputs": [
        {
          "internalType": "uint256",
          "name": "_stakeId",
          "type": "uint256"
        },
        {
          "internalType": "uint256",
          "name": "_addAmount",
          "type": "uint256"
        },
        {
          "internalType": "uint256",
          "name": "_periodWeeks",
          "type": "uint256"
        }
      ],
      "name": "resetStakeGetStosAfterLock",
      "outputs": [],
      "stateMutability": "nonpayable",
      "type": "function"
    },
    {
      "inputs": [
        {
          "internalType": "bytes32",
          "name": "role",
          "type": "bytes32"
        },
        {
          "internalType": "address",
          "name": "account",
          "type": "address"
        }
      ],
      "name": "revokeRole",
      "outputs": [],
      "stateMutability": "nonpayable",
      "type": "function"
    },
    {
      "inputs": [],
      "name": "runwayTos",
      "outputs": [
        {
          "internalType": "uint256",
          "name": "",
          "type": "uint256"
        }
      ],
      "stateMutability": "view",
      "type": "function"
    },
    {
      "inputs": [],
      "name": "runwayTosPossibleIndex",
      "outputs": [
        {
          "internalType": "uint256",
          "name": "",
          "type": "uint256"
        }
      ],
      "stateMutability": "view",
      "type": "function"
    },
    {
      "inputs": [],
      "name": "secondsToNextEpoch",
      "outputs": [
        {
          "internalType": "uint256",
          "name": "",
          "type": "uint256"
        }
      ],
      "stateMutability": "view",
      "type": "function"
    },
    {
      "inputs": [
        {
          "internalType": "address",
          "name": "_tos",
          "type": "address"
        },
        {
          "internalType": "address",
          "name": "_lockTOS",
          "type": "address"
        },
        {
          "internalType": "address",
          "name": "_treasury",
          "type": "address"
        }
      ],
      "name": "setAddressInfos",
      "outputs": [],
      "stateMutability": "nonpayable",
      "type": "function"
    },
    {
      "inputs": [
        {
          "internalType": "uint256",
          "name": "_period",
          "type": "uint256"
        }
      ],
      "name": "setBasicBondPeriod",
      "outputs": [],
      "stateMutability": "nonpayable",
      "type": "function"
    },
    {
      "inputs": [
        {
          "internalType": "uint256",
          "name": "_index",
          "type": "uint256"
        }
      ],
      "name": "setIndex",
      "outputs": [],
      "stateMutability": "nonpayable",
      "type": "function"
    },
    {
      "inputs": [
        {
          "internalType": "uint256",
          "name": "_rebasePerEpoch",
          "type": "uint256"
        }
      ],
      "name": "setRebasePerEpoch",
      "outputs": [],
      "stateMutability": "nonpayable",
      "type": "function"
    },
    {
      "inputs": [
        {
          "internalType": "uint256",
          "name": "_amount",
          "type": "uint256"
        }
      ],
      "name": "stake",
      "outputs": [
        {
          "internalType": "uint256",
          "name": "stakeId",
          "type": "uint256"
        }
      ],
      "stateMutability": "nonpayable",
      "type": "function"
    },
    {
      "inputs": [
        {
          "internalType": "address",
          "name": "to",
          "type": "address"
        },
        {
          "internalType": "uint256",
          "name": "_amount",
          "type": "uint256"
        },
        {
          "internalType": "uint256",
          "name": "_marketId",
          "type": "uint256"
        },
        {
          "internalType": "uint256",
          "name": "tosPrice",
          "type": "uint256"
        }
      ],
      "name": "stakeByBond",
      "outputs": [
        {
          "internalType": "uint256",
          "name": "stakeId",
          "type": "uint256"
        }
      ],
      "stateMutability": "nonpayable",
      "type": "function"
    },
    {
      "inputs": [
        {
          "internalType": "uint256",
          "name": "_amount",
          "type": "uint256"
        },
        {
          "internalType": "uint256",
          "name": "_periodWeeks",
          "type": "uint256"
        }
      ],
      "name": "stakeGetStos",
      "outputs": [
        {
          "internalType": "uint256",
          "name": "stakeId",
          "type": "uint256"
        }
      ],
      "stateMutability": "nonpayable",
      "type": "function"
    },
    {
      "inputs": [
        {
          "internalType": "address",
          "name": "_to",
          "type": "address"
        },
        {
          "internalType": "uint256",
          "name": "_amount",
          "type": "uint256"
        },
        {
          "internalType": "uint256",
          "name": "_marketId",
          "type": "uint256"
        },
        {
          "internalType": "uint256",
          "name": "_periodWeeks",
          "type": "uint256"
        },
        {
          "internalType": "uint256",
          "name": "tosPrice",
          "type": "uint256"
        }
      ],
      "name": "stakeGetStosByBond",
      "outputs": [
        {
          "internalType": "uint256",
          "name": "stakeId",
          "type": "uint256"
        }
      ],
      "stateMutability": "nonpayable",
      "type": "function"
    },
    {
      "inputs": [
        {
          "internalType": "uint256",
          "name": "stakeId",
          "type": "uint256"
        }
      ],
      "name": "stakeInfo",
      "outputs": [
        {
          "internalType": "address",
          "name": "staker",
          "type": "address"
        },
        {
          "internalType": "uint256",
          "name": "deposit",
          "type": "uint256"
        },
        {
          "internalType": "uint256",
          "name": "ltos",
          "type": "uint256"
        },
        {
          "internalType": "uint256",
          "name": "endTime",
          "type": "uint256"
        },
        {
          "internalType": "uint256",
          "name": "marketId",
          "type": "uint256"
        }
      ],
      "stateMutability": "view",
      "type": "function"
    },
    {
      "inputs": [
        {
          "internalType": "uint256",
          "name": "stakeId",
          "type": "uint256"
        }
      ],
      "name": "stakedOf",
      "outputs": [
        {
          "internalType": "uint256",
          "name": "",
          "type": "uint256"
        }
      ],
      "stateMutability": "view",
      "type": "function"
    },
    {
      "inputs": [],
      "name": "stakedOfAll",
      "outputs": [
        {
          "internalType": "uint256",
          "name": "",
          "type": "uint256"
        }
      ],
      "stateMutability": "view",
      "type": "function"
    },
    {
      "inputs": [],
      "name": "stakingIdCounter",
      "outputs": [
        {
          "internalType": "uint256",
          "name": "",
          "type": "uint256"
        }
      ],
      "stateMutability": "view",
      "type": "function"
    },
    {
      "inputs": [
        {
          "internalType": "address",
          "name": "_addr",
          "type": "address"
        }
      ],
      "name": "stakingOf",
      "outputs": [
        {
          "internalType": "uint256[]",
          "name": "",
          "type": "uint256[]"
        }
      ],
      "stateMutability": "view",
      "type": "function"
    },
    {
      "inputs": [],
      "name": "stakingPrincipal",
      "outputs": [
        {
          "internalType": "uint256",
          "name": "",
          "type": "uint256"
        }
      ],
      "stateMutability": "view",
      "type": "function"
    },
    {
      "inputs": [
        {
          "internalType": "bytes4",
          "name": "interfaceId",
          "type": "bytes4"
        }
      ],
      "name": "supportsInterface",
      "outputs": [
        {
          "internalType": "bool",
          "name": "",
          "type": "bool"
        }
      ],
      "stateMutability": "view",
      "type": "function"
    },
    {
      "inputs": [
        {
          "internalType": "address[]",
          "name": "accounts",
          "type": "address[]"
        },
        {
          "internalType": "uint256[]",
          "name": "balances",
          "type": "uint256[]"
        },
        {
          "internalType": "uint256[]",
          "name": "period",
          "type": "uint256[]"
        },
        {
          "internalType": "uint256[]",
          "name": "tokenId",
          "type": "uint256[]"
        }
      ],
      "name": "syncStos",
      "outputs": [],
      "stateMutability": "nonpayable",
      "type": "function"
    },
    {
      "inputs": [],
      "name": "tos",
      "outputs": [
        {
          "internalType": "contract IERC20",
          "name": "",
          "type": "address"
        }
      ],
      "stateMutability": "view",
      "type": "function"
    },
    {
      "inputs": [],
      "name": "totalLtos",
      "outputs": [
        {
          "internalType": "uint256",
          "name": "",
          "type": "uint256"
        }
      ],
      "stateMutability": "view",
      "type": "function"
    },
    {
      "inputs": [
        {
          "internalType": "address",
          "name": "newAdmin",
          "type": "address"
        }
      ],
      "name": "transferAdmin",
      "outputs": [],
      "stateMutability": "nonpayable",
      "type": "function"
    },
    {
      "inputs": [
        {
          "internalType": "address",
          "name": "newAdmin",
          "type": "address"
        }
      ],
      "name": "transferPolicyAdmin",
      "outputs": [],
      "stateMutability": "nonpayable",
      "type": "function"
    },
    {
      "inputs": [
        {
          "internalType": "address",
          "name": "newAdmin",
          "type": "address"
        }
      ],
      "name": "transferProxyAdmin",
      "outputs": [],
      "stateMutability": "nonpayable",
      "type": "function"
    },
    {
      "inputs": [],
      "name": "treasury",
      "outputs": [
        {
          "internalType": "address",
          "name": "",
          "type": "address"
        }
      ],
      "stateMutability": "view",
      "type": "function"
    },
    {
      "inputs": [
        {
          "internalType": "uint256",
          "name": "_stakeId",
          "type": "uint256"
        }
      ],
      "name": "unstake",
      "outputs": [],
      "stateMutability": "nonpayable",
      "type": "function"
    },
    {
      "inputs": [
        {
          "internalType": "address",
          "name": "",
          "type": "address"
        },
        {
          "internalType": "uint256",
          "name": "",
          "type": "uint256"
        }
      ],
      "name": "userStakingIndex",
      "outputs": [
        {
          "internalType": "uint256",
          "name": "",
          "type": "uint256"
        }
      ],
      "stateMutability": "view",
      "type": "function"
    },
    {
      "inputs": [
        {
          "internalType": "address",
          "name": "",
          "type": "address"
        },
        {
          "internalType": "uint256",
          "name": "",
          "type": "uint256"
        }
      ],
      "name": "userStakings",
      "outputs": [
        {
          "internalType": "uint256",
          "name": "",
          "type": "uint256"
        }
      ],
      "stateMutability": "view",
      "type": "function"
    }
  ],
  "bytecode": "0x6080604052600160065534801561001557600080fd5b5061590a80620000266000396000f3fe608060405234801561001057600080fd5b506004361061035e5760003560e01c806379be7bd0116101c657806379be7bd0146106da5780637cc0fee6146106ed57806381045ead146107005780638356ca4f1461070857806383a5683a1461071b57806389f395de1461072e578063900cf0cf1461074157806391d14854146107645780639483c1d71461077757806396f1557c1461077f57806397b4293714610792578063980b1097146107a557806398842ff6146107b85780639a202d47146107c05780639a794e66146107c85780639e9e792f146107db578063a052e69e146107fb578063a1c95e5a14610804578063a217fddf14610817578063a694fc3a1461081f578063a7110dc314610832578063b24352b11461085d578063b84ef08114610870578063b88ad1e314610883578063bba4307e14610896578063bbad8ac9146108a9578063be72f2d3146108bc578063c68450bf146108c4578063ca16910f146108d7578063d547741f146108ea578063d7fe4a49146108fd578063e6500b2114610910578063e75f77e114610918578063f1c8c9221461092b578063f47f2f1d1461093e578063f558138214610951578063fad1c85c1461095a57600080fd5b806301ffc9a714610363578063037859af1461038b5780630e1e998f146103ab57806311f1c8bf146103c257806317ed177a146103d55780631e725567146103e857806322985246146103fd578063248a9ca31461041257806324d7806c14610425578063265705b11461043857806328ea9ff01461044b5780632e17de78146104535780632f2ff15d1461046657806330e06e8b14610479578063332b01f31461048157806336568abe14610494578063385030b4146104a757806340a5737f146104b057806341c04d5e146104c357806347e1b372146104d857806349ec9883146104e05780634e533572146104f35780634e6c4466146105915780635720bf3a146105bc5780635746248f146105c55780635dc3c29a146105d85780635f3383521461061f57806361d027b31461062757806365cb3a831461063a578063660fe73f146106425780636d1c789f14610655578063704802751461065e57806370a082311461067157806375829def1461068457806375b238fc1461069757806377d73dc6146106be57806378ad1405146106d1575b600080fd5b610376610371366004615142565b61096d565b60405190151581526020015b60405180910390f35b61039e610399366004614ee4565b6109a4565b6040516103829190615382565b6103b4600b5481565b604051908152602001610382565b6103b46103d03660046150ff565b610a10565b6103b46103e33660046150ff565b610a2b565b6103fb6103f6366004615182565b610a40565b005b6103b46000805160206158b583398151915281565b6103b46104203660046150ff565b610d0f565b610376610433366004614ee4565b610d24565b6103fb610446366004614efe565b610d3e565b6103b4610e99565b6103fb6104613660046150ff565b61103c565b6103fb610474366004615117565b6112f3565b6103b4611315565b6103b461048f366004614f69565b6113ce565b6103fb6104a2366004615117565b611561565b6103b4600a5481565b6103fb6104be3660046150ff565b6115df565b6103b460008051602061587583398151915281565b6103fb611609565b6103fb6104ee3660046150ff565b61180e565b61055f6105013660046150ff565b6000908152600f6020908152604091829020825160a08101845281546001600160a01b031680825260018301549382018490526002830154948201859052600383015460608301819052600490930154608090920182905294929392565b604080516001600160a01b0390961686526020860194909452928401919091526060830152608082015260a001610382565b6003546105a4906001600160a01b031681565b6040516001600160a01b039091168152602001610382565b6103b460095481565b6103b46105d3366004614f40565b611838565b61055f6105e63660046150ff565b600f60205260009081526040902080546001820154600283015460038401546004909401546001600160a01b0390931693919290919085565b6103b4611869565b6004546105a4906001600160a01b031681565b6103fb61187b565b6103b46106503660046150ff565b6118b8565b6103b4600c5481565b6103fb61066c366004614ee4565b6118de565b6103b461067f366004614ee4565b61191e565b6103fb610692366004614ee4565b6119f4565b6103b47fdf8b4c520ffe197c5343c6f5aec59570151ef9a492f2c624fd45ddde6135ec4281565b6103b46106cc3660046150ff565b611aa7565b6103b460055481565b6103b46106e83660046150ff565b611abf565b6103b46106fb3660046150ff565b611adc565b6005546103b4565b6103fb610716366004614ee4565b611b30565b6103fb610729366004615182565b611bba565b6002546105a4906001600160a01b031681565b60005460015461074f919082565b60408051928352602083019190915201610382565b610376610772366004615117565b611d74565b6103b4611d9f565b6103fb61078d366004614ee4565b611dc2565b6103b46107a03660046150ff565b611df2565b6103b46107b3366004614fa1565b611e0b565b6103b461212b565b6103fb6121da565b6103fb6107d63660046150a0565b612226565b6103b46107e93660046150ff565b60106020526000908152604090205481565b6103b460085481565b6103b46108123660046150ff565b6122b4565b6103b4600081565b6103b461082d3660046150ff565b6122bf565b6103b4610840366004614f40565b600e60209081526000928352604080842090915290825290205481565b6103fb61086b36600461521e565b6123a6565b6103fb61087e366004614ee4565b61275e565b6103fb6108913660046151c6565b61279b565b6103fb6108a4366004615182565b612e7f565b6103fb6108b7366004615182565b6130d2565b6103fb613471565b6103fb6108d2366004614fe2565b6134a1565b6103b46108e5366004615182565b6136bc565b6103fb6108f8366004615117565b613881565b6103fb61090b3660046151c6565b61389e565b6103b4613c1a565b6103fb6109263660046150ff565b613ca5565b6103fb610939366004614ee4565b613d2e565b61037661094c366004614ee4565b613dd2565b6103b460075481565b610376610968366004614ee4565b613dde565b60006001600160e01b03198216637965db0b60e01b148061099e57506301ffc9a760e01b6001600160e01b03198316145b92915050565b6001600160a01b0381166000908152600d6020908152604091829020805483518184028101840190945280845260609392830182828015610a0457602002820191906000526020600020905b8154815260200190600101908083116109f0575b50505050509050919050565b6000818152600f602052604081206002015461099e90611abf565b6000908152600f602052604090206002015490565b8180610a675760405162461bcd60e51b8152600401610a5e90615648565b60405180910390fd5b8180610a855760405162461bcd60e51b8152600401610a5e90615648565b60008481526010602052604090205415610ae15760405162461bcd60e51b815260206004820152601d60248201527f7468697320697320666f72206e6f6e2d6c6f636b2070726f647563742e0000006044820152606401610a5e565b6000848152600f6020526040902080546001600160a01b03163314610b185760405162461bcd60e51b8152600401610a5e9061554f565b42816003015410610b665760405162461bcd60e51b815260206004820152601860248201527732b732103a34b6b2903430b9903737ba103830b9b9b2b21760411b6044820152606401610a5e565b8060020154841115610bb15760405162461bcd60e51b81526020600482015260146024820152731b1d1bdcc81a5cc81a5b9cdd59999a58da595b9d60621b6044820152606401610a5e565b610bb9611609565b6000610bc88260020154611df2565b90506000610bd586611df2565b905060008360010154831115610bf7576001840154610bf490846157c9565b90505b86846002016000828254610c0b91906157c9565b925050819055508660076000828254610c2491906157c9565b909155505060018401548290610c3b908390615772565b610c4591906157c9565b60018501556008548290610c5a908390615772565b610c6491906157c9565b60085560048054604051632a97f1e560e21b81526001600160a01b039091169163aa5fc79491610c98913391879101615336565b600060405180830381600087803b158015610cb257600080fd5b505af1158015610cc6573d6000803e3d6000fd5b505050507f5ac7224c417abee0b26a4daa9b5221c45297a5429fc56e11bc9170dabc15d33c33838a604051610cfd939291906152da565b60405180910390a15050505050505050565b60009081526011602052604090206001015490565b600061099e60008051602061587583398151915283611d74565b610d4733613dde565b610d635760405162461bcd60e51b8152600401610a5e90615674565b826001600160a01b038116610d8a5760405162461bcd60e51b8152600401610a5e90615520565b826001600160a01b038116610db15760405162461bcd60e51b8152600401610a5e90615520565b826001600160a01b038116610dd85760405162461bcd60e51b8152600401610a5e90615520565b6002546001600160a01b038781169116141580610e0357506003546001600160a01b03868116911614155b80610e1c57506004546001600160a01b03858116911614155b610e575760405162461bcd60e51b815260206004820152600c60248201526b73616d65206164647265737360a01b6044820152606401610a5e565b5050600280546001600160a01b039586166001600160a01b03199182161790915560038054948616948216949094179093555060048054919093169116179055565b6005546001546000919042106110375760005460018054909190610ebd90426157c9565b1115610eeb57600054600154610ed390426157c9565b610edd919061578a565b610ee8906001615772565b90505b8060011415610f2e57670de0b6b3a7640000600954670de0b6b3a7640000610f139190615772565b610f1d90846157aa565b610f27919061578a565b9150610fbe565b6005546009546040516379e42f5d60e11b815273__$23c3f0c4d39c3898c699ac978f80cfe781$__9263f3c85eba92610f6b92869060040161575c565b60206040518083038186803b158015610f8357600080fd5b505af4158015610f97573d6000803e3d6000fd5b505050506040513d601f19601f82011682018060405250810190610fbb919061516a565b91505b6000610fc8613c1a565b90506000670de0b6b3a764000060055485610fe391906157c9565b600754610ff091906157aa565b610ffa919061578a565b9050818111156110335760055460075461101c84670de0b6b3a76400006157aa565b611026919061578a565b6110309190615772565b93505b5050505b919050565b808061105a5760405162461bcd60e51b8152600401610a5e90615648565b6000828152600f6020526040902080546001600160a01b031633146110b95760405162461bcd60e51b815260206004820152601560248201527431b0b63632b91034b9903737ba1039ba30b5b2b91760591b6044820152606401610a5e565b428160030154106111065760405162461bcd60e51b815260206004820152601760248201527632b732103a34b6b2903430b9b713ba103830b9b9b2b21760491b6044820152606401610a5e565b61110e611609565b600061111d8260020154611df2565b9050600081116111675760405162461bcd60e51b81526020600482015260156024820152741e995c9bc818db185a5b58589b1948185b5bdd5b9d605a1b6044820152606401610a5e565b81600101546008600082825461117d91906157c9565b90915550506002820154600780546000906111999084906157c9565b90915550600090506111ab3386613df8565b90506111b78582613fa3565b6000858152601060205260409020541561124e576003546000868152601060205260409081902054905163c0a37b3f60e01b81526001600160a01b039092169163c0a37b3f9161120c91339190600401615336565b600060405180830381600087803b15801561122657600080fd5b505af115801561123a573d6000803e3d6000fd5b505050600086815260106020526040812055505b60048054604051632a97f1e560e21b81526001600160a01b039091169163aa5fc7949161127f913391879101615336565b600060405180830381600087803b15801561129957600080fd5b505af11580156112ad573d6000803e3d6000fd5b505050507f7fc4727e062e336010f2c282598ef5f14facb3de68cf8195c2f23e1454b2b74e3383876040516112e4939291906152da565b60405180910390a15050505050565b6112fc82610d0f565b6113068133614025565b6113108383614089565b505050565b6004546000906001600160a01b0316634cf158586009336040518363ffffffff1660e01b8152600401611349929190615745565b60206040518083038186803b15801561136157600080fd5b505afa158015611375573d6000803e3d6000fd5b505050506040513d601f19601f8201168201806040525081019061139991906150df565b6113b55760405162461bcd60e51b8152600401610a5e906155ad565b600c80549060006113c583615823565b91905055905090565b6004546000906001600160a01b0316634cf158586009336040518363ffffffff1660e01b8152600401611402929190615745565b60206040518083038186803b15801561141a57600080fd5b505afa15801561142e573d6000803e3d6000fd5b505050506040513d601f19601f8201168201806040525081019061145291906150df565b61146e5760405162461bcd60e51b8152600401610a5e906155ad565b846001600160a01b0381166114955760405162461bcd60e51b8152600401610a5e90615520565b84806114b35760405162461bcd60e51b8152600401610a5e90615648565b84806114d15760405162461bcd60e51b8152600401610a5e90615648565b6114da8861410f565b6114e26141b5565b93506114ee88856141d0565b6114f6611609565b600061151289868a600a544261150c9190615772565b8b614213565b90507f10b677c7a9f17c8fa541bdcc53b14beb96651665c3ef380c8df860dbd8f3545e8989838a898b60405161154d9695949392919061534f565b60405180910390a150505050949350505050565b6001600160a01b03811633146115d15760405162461bcd60e51b815260206004820152602f60248201527f416363657373436f6e74726f6c3a2063616e206f6e6c792072656e6f756e636560448201526e103937b632b9903337b91039b2b63360891b6064820152608401610a5e565b6115db82826142fd565b5050565b6115e833613dde565b6116045760405162461bcd60e51b8152600401610a5e90615674565b600555565b600154421061180c576000546001805490919061162690426157c9565b11156116545760005460015461163c90426157c9565b611646919061578a565b611651906001615772565b90505b6000546116629082906157aa565b60018054600090611674908490615772565b909155506000905060018214156116c257670de0b6b3a7640000600954670de0b6b3a76400006116a49190615772565b6005546116b191906157aa565b6116bb919061578a565b9050611752565b6005546009546040516379e42f5d60e11b815273__$23c3f0c4d39c3898c699ac978f80cfe781$__9263f3c85eba926116ff92879060040161575c565b60206040518083038186803b15801561171757600080fd5b505af415801561172b573d6000803e3d6000fd5b505050506040513d601f19601f8201168201806040525081019061174f919061516a565b90505b600061175c613c1a565b6005549091506000670de0b6b3a764000061177783866157c9565b60075461178491906157aa565b61178e919061578a565b9050828111156117c4576007546117ad84670de0b6b3a76400006157aa565b6117b7919061578a565b6117c19083615772565b93505b818411156118065760058490556007546040517fd1a8a452d776b1b6802824ca2e8489c6448e2cb0963f552a9a19ab4ae064ca58916112e4918591889161575c565b50505050505b565b61181733613dde565b6118335760405162461bcd60e51b8152600401610a5e90615674565b600955565b600d602052816000526040600020818154811061185457600080fd5b90600052602060002001600091509150505481565b6000611876600754611abf565b905090565b61188433613dde565b6118a05760405162461bcd60e51b8152600401610a5e90615674565b61180c6000805160206158b583398151915233611561565b60006118c2610e99565b6118d483670de0b6b3a76400006157aa565b61099e919061578a565b6118e733613dd2565b6119035760405162461bcd60e51b8152600401610a5e90615495565b61191b600080516020615875833981519152826112f3565b50565b6001600160a01b0381166000908152600d602090815260408083208054825181850281018501909352808352849383018282801561197b57602002820191906000526020600020905b815481526020019060010190808311611967575b505050505090508051600014156119955750600092915050565b60005b81518110156119ed576119d18282815181106119c457634e487b7160e01b600052603260045260246000fd5b60200260200101516122b4565b6119db9084615772565b92506119e681615823565b9050611998565b5050919050565b6119fd33610d24565b80611a0c5750611a0c33613dd2565b611a285760405162461bcd60e51b8152600401610a5e90615421565b6001600160a01b038116611a4e5760405162461bcd60e51b8152600401610a5e90615463565b336001600160a01b0382161415611a775760405162461bcd60e51b8152600401610a5e9061557d565b611a8f600080516020615875833981519152826112f3565b61191b60008051602061587583398151915233611561565b6005546000906118d483670de0b6b3a76400006157aa565b6000670de0b6b3a7640000611ad2610e99565b6118d490846157aa565b60008180611afc5760405162461bcd60e51b8152600401610a5e90615648565b6000838152600f6020526040902060030154421115611b2557611b1e83610a2b565b9150611b2a565b600091505b50919050565b611b3933613dd2565b611b555760405162461bcd60e51b8152600401610a5e90615495565b6001600160a01b038116611b7b5760405162461bcd60e51b8152600401610a5e90615463565b336001600160a01b0382161415611ba45760405162461bcd60e51b8152600401610a5e9061557d565b611baf6000826112f3565b61191b600033611561565b8180611bd85760405162461bcd60e51b8152600401610a5e90615648565b8180611bf65760405162461bcd60e51b8152600401610a5e90615648565b6000848152600f6020526040902080546001600160a01b03163314611c2d5760405162461bcd60e51b8152600401610a5e9061554f565b336000908152600e60209081526040808320888452909152902054600114611c975760405162461bcd60e51b815260206004820152601f60248201527f69742773206e6f742073696d706c65207374616b696e672070726f64756374006044820152606401610a5e565b611c9f611609565b6000611caa85611aa7565b905084826001016000828254611cc09190615772565b9250508190555080826002016000828254611cdb9190615772565b925050819055508460086000828254611cf49190615772565b925050819055508060076000828254611d0d9190615772565b9091555050600454600254611d31916001600160a01b039182169133911688614364565b7f3580fad54ac878fb39f354ed4980379c99975b958cc12f96c2342daf1a943384338688604051611d64939291906152da565b60405180910390a1505050505050565b60009182526011602090815260408084206001600160a01b0393909316845291905290205460ff1690565b6000426000600101541015611db45750600090565b6001546118769042906157c9565b611dcb33613dd2565b611de75760405162461bcd60e51b8152600401610a5e90615495565b61191b60008261447f565b6000670de0b6b3a7640000600554836118d491906157aa565b6004546000906001600160a01b0316634cf158586009336040518363ffffffff1660e01b8152600401611e3f929190615745565b60206040518083038186803b158015611e5757600080fd5b505afa158015611e6b573d6000803e3d6000fd5b505050506040513d601f19601f82011682018060405250810190611e8f91906150df565b611eab5760405162461bcd60e51b8152600401610a5e906155ad565b856001600160a01b038116611ed25760405162461bcd60e51b8152600401610a5e90615520565b600086118015611ee25750600084115b8015611eee5750600085115b611f0a5760405162461bcd60e51b8152600401610a5e906156bd565b6003546040516316045cb160e31b8152600091829173__$23c3f0c4d39c3898c699ac978f80cfe781$__9163b022e58891611f55916001600160a01b03169042908b906004016152da565b604080518083038186803b158015611f6c57600080fd5b505af4158015611f80573d6000803e3d6000fd5b505050506040513d601f19601f82011682018060405250810190611fa491906151a3565b9150915060008211611fed5760405162461bcd60e51b81526020600482015260126024820152711e995c9bc81cdd1bdcd15c1bd8da155b9a5d60721b6044820152606401610a5e565b6000811161202f5760405162461bcd60e51b815260206004820152600f60248201526e7a65726f20756e6c6f636b54696d6560881b6044820152606401610a5e565b6120388961410f565b6120406141b5565b935061204c89856141d0565b612054611609565b60006120638a868b858c614213565b90506000806120748c8c8b88614489565b915091508160106000898152602001908152602001600020819055507fe3cd05b44cf9a64ec6c44b15776a7af54f595a214f12b62950054db4faeef15e8c8c858c8e8c888f89604051612114999897969594939291906001600160a01b03999099168952602089019790975260408801959095526060870193909352608086019190915260a085015260c084015260e08301526101008201526101200190565b60405180910390a150505050505095945050505050565b600480546040805163688d653160e11b8152905160009384936001600160a01b03169263d11aca629281830192602092829003018186803b15801561216f57600080fd5b505afa158015612183573d6000803e3d6000fd5b505050506040513d601f19601f820116820180604052508101906121a7919061516a565b905060006121b6600754611abf565b9050808210156121c95760009250505090565b6121d381836157c9565b9250505090565b6121e333610d24565b806121f257506121f233613dd2565b61220e5760405162461bcd60e51b8152600401610a5e90615421565b61180c60008051602061587583398151915233611561565b806122615760405162461bcd60e51b815260206004820152600b60248201526a6e6f207374616b6549647360a81b6044820152606401610a5e565b8060005b818110156122ae5761229c84848381811061229057634e487b7160e01b600052603260045260246000fd5b9050602002013561103c565b806122a681615823565b915050612265565b50505050565b600061099e82610a2b565b600081806122df5760405162461bcd60e51b8152600401610a5e90615648565b6004546002546122fe916001600160a01b039182169133911686614364565b6123073361410f565b336000908152600d602052604090208054600190811061233757634e487b7160e01b600052603260045260246000fd5b9060005260206000200154915061234c611609565b61236433838561235d426001615772565b6000614213565b507f1449c6dd7851abc30abf37f57715f492010519147cc2652fbc38202c18a6ee90338484604051612398939291906152da565b60405180910390a150919050565b60008311806123b55750600082115b806123c05750600081115b6123dc5760405162461bcd60e51b8152600401610a5e906153f9565b600084815260106020908152604080832054600f835292819020815160a08101835281546001600160a01b0316808252600183015494820194909452600282015492810192909252600381015460608301526004015460808201529033146124565760405162461bcd60e51b8152600401610a5e9061554f565b336000908152600e602090815260408083208984529091529020546001106124905760405162461bcd60e51b8152600401610a5e906154dd565b612498611609565b60006124a78260400151611df2565b9050808511156124c95760405162461bcd60e51b8152600401610a5e90615613565b82156124e4576124df338885856060015161467c565b612507565b428260600151106125075760405162461bcd60e51b8152600401610a5e906155dd565b851561252c5760045460025461252c916001600160a01b039182169133911689614364565b60008085156125d4576003546040516316045cb160e31b815273__$23c3f0c4d39c3898c699ac978f80cfe781$__9163b022e5889161257b916001600160a01b03169042908b906004016152da565b604080518083038186803b15801561259257600080fd5b505af41580156125a6573d6000803e3d6000fd5b505050506040513d601f19601f820116820180604052508101906125ca91906151a3565b9092509050612664565b600360009054906101000a90046001600160a01b03166001600160a01b031663fd2dcecf6040518163ffffffff1660e01b815260040160206040518083038186803b15801561262257600080fd5b505afa158015612636573d6000803e3d6000fd5b505050506040513d601f19601f8201168201806040525081019061265a919061516a565b9150836060015190505b61267089828a8a6147a0565b6000808a88156126b5576126848b87615772565b95506126908a876157c9565b955061269e33878b88614489565b600083815260106020526040902082905590935091505b891561271f5760048054604051632a97f1e560e21b81526001600160a01b039091169163aa5fc794916126ec9133918f9101615336565b600060405180830381600087803b15801561270657600080fd5b505af115801561271a573d6000803e3d6000fd5b505050505b600080516020615895833981519152338c8c8c85888860405161274897969594939291906152fb565b60405180910390a1505050505050505050505050565b61276733613dd2565b6127835760405162461bcd60e51b8152600401610a5e90615495565b61191b6000805160206158b5833981519152826112f3565b82806127b95760405162461bcd60e51b8152600401610a5e90615648565b60008311806127c85750600082115b6128145760405162461bcd60e51b815260206004820152601d60248201527f7a65726f205f616d6f756e7420616e64205f756e6c6f636b5765656b730000006044820152606401610a5e565b6000848152600f6020908152604091829020825160a08101845281546001600160a01b03168082526001830154938201939093526002820154938101939093526003810154606084015260040154608083015233146128855760405162461bcd60e51b8152600401610a5e9061554f565b821561290657336000908152600e602090815260408083208884529091529020546001106129065760405162461bcd60e51b815260206004820152602860248201527f697427732073696d706c65207374616b696e672070726f647563742c2063616e60448201526713ba103637b1b59760c11b6064820152608401610a5e565b61290e611609565b61291a33868686614a0e565b6003546040805163fd2dcecf60e01b815290516000926001600160a01b03169163fd2dcecf916004808301926020929190829003018186803b15801561295f57600080fd5b505afa158015612973573d6000803e3d6000fd5b505050506040513d601f19601f82011682018060405250810190612997919061516a565b600087815260106020908152604080832054338452600e83528184208b85529092528220549293509160011080156129cd575081155b80156129d95750600086115b15612a18576129ff336129ee6107a08b610a2b565b6129f8908a615772565b8886614489565b60008a8152601060205260409020919091559050612e58565b336000908152600e602090815260408083208b84529091529020546001108015612a425750600082115b15612e5857600354604051639ce5630560e01b81526004810184905260009182916001600160a01b0390911690639ce563059060240160606040518083038186803b158015612a9057600080fd5b505afa158015612aa4573d6000803e3d6000fd5b505050506040513d601f19601f82011682018060405250810190612ac891906151f1565b92509250504282118015612adf5750428660600151115b612afb5760405162461bcd60e51b8152600401610a5e906156e1565b87612c2a57600080546060880151612b149042906157c9565b612b1e919061578a565b6009546040516379e42f5d60e11b815291925060009173__$23c3f0c4d39c3898c699ac978f80cfe781$__9163f3c85eba91612b60918f91879060040161575c565b60206040518083038186803b158015612b7857600080fd5b505af4158015612b8c573d6000803e3d6000fd5b505050506040513d601f19601f82011682018060405250810190612bb0919061516a565b9050612bbc8184615772565b60035460405163077f15b960e51b81529196506001600160a01b03169063efe2b72090612bf19033908a9086906004016152da565b600060405180830381600087803b158015612c0b57600080fd5b505af1158015612c1f573d6000803e3d6000fd5b505050505050612e55565b8715612e55576000805481908190612c42898d6157aa565b612c4c919061578a565b6009546040516379e42f5d60e11b815291925073__$23c3f0c4d39c3898c699ac978f80cfe781$__9163f3c85eba91612c8c91889190869060040161575c565b60206040518083038186803b158015612ca457600080fd5b505af4158015612cb8573d6000803e3d6000fd5b505050506040513d601f19601f82011682018060405250810190612cdc919061516a565b9250612ce884846157c9565b92508b15612daf5760008054612cfe8a8e6157aa565b612d0842896157c9565b612d129190615772565b612d1c919061578a565b905073__$23c3f0c4d39c3898c699ac978f80cfe781$__63f3c85eba8e600954846040518463ffffffff1660e01b8152600401612d5b9392919061575c565b60206040518083038186803b158015612d7357600080fd5b505af4158015612d87573d6000803e3d6000fd5b505050506040513d601f19601f82011682018060405250810190612dab919061516a565b9250505b81612dba8486615772565b612dc49190615772565b6003549096506001600160a01b031663b839c0a53389612de48688615772565b6040516001600160e01b031960e086901b1681526001600160a01b03909316600484015260248301919091526044820152606481018e9052608401600060405180830381600087803b158015612e3957600080fd5b505af1158015612e4d573d6000803e3d6000fd5b505050505050505b50505b6000805160206158558339815191523388888b8686604051610cfd9695949392919061534f565b60008111612e9f5760405162461bcd60e51b8152600401610a5e906156bd565b6000828152600f6020526040902080546001600160a01b03163314612ed65760405162461bcd60e51b8152600401610a5e9061554f565b336000908152600e60209081526040808320868452909152902054600110612f105760405162461bcd60e51b8152600401610a5e906154dd565b612f18611609565b6000612f278260020154611df2565b905080831115612f495760405162461bcd60e51b8152600401610a5e90615613565b60008481526010602052604090205480612f855742836003015410612f805760405162461bcd60e51b8152600401610a5e906155dd565b612f95565b612f95338683866003015461467c565b6000612fa085611aa7565b905060008460010154841115612fc2576001850154612fbf90856157c9565b90505b81856002016000828254612fd691906157c9565b925050819055508160076000828254612fef91906157c9565b909155505060018501548690613006908390615772565b61301091906157c9565b60018601556008548690613025908390615772565b61302f91906157c9565b60085560048054604051632a97f1e560e21b81526001600160a01b039091169163aa5fc794916130639133918b9101615336565b600060405180830381600087803b15801561307d57600080fd5b505af1158015613091573d6000803e3d6000fd5b505050506000805160206158958339815191523360008860008b6000806040516130c197969594939291906152fb565b60405180910390a150505050505050565b81806130f05760405162461bcd60e51b8152600401610a5e90615648565b818061310e5760405162461bcd60e51b8152600401610a5e90615648565b6000848152600f6020526040902080546001600160a01b031633146131455760405162461bcd60e51b8152600401610a5e9061554f565b600454600254613164916001600160a01b039182169133911687614364565b61316c611609565b600061317785611aa7565b90508482600101600082825461318d9190615772565b92505081905550808260020160008282546131a89190615772565b9250508190555084600860008282546131c19190615772565b9250508190555080600760008282546131da9190615772565b9091555050600086815260106020908152604080832054338452600e83528184208a855290925282205490919060011080156132165750600082115b1561344957600354604051639ce5630560e01b81526004810184905260009182916001600160a01b0390911690639ce563059060240160606040518083038186803b15801561326457600080fd5b505afa158015613278573d6000803e3d6000fd5b505050506040513d601f19601f8201168201806040525081019061329c91906151f1565b925092505042821180156132b35750428660030154115b6132cf5760405162461bcd60e51b8152600401610a5e906156e1565b6000805460038801546132e39042906157c9565b6132ed919061578a565b9050806001141561333257670de0b6b3a7640000600954670de0b6b3a76400006133179190615772565b613321908c6157aa565b61332b919061578a565b93506133ca565b60018111156133ca576009546040516379e42f5d60e11b815273__$23c3f0c4d39c3898c699ac978f80cfe781$__9163f3c85eba91613377918e91869060040161575c565b60206040518083038186803b15801561338f57600080fd5b505af41580156133a3573d6000803e3d6000fd5b505050506040513d601f19601f820116820180604052508101906133c7919061516a565b93505b83156134455760035460405163077f15b960e51b81526001600160a01b039091169063efe2b72090613404903390899089906004016152da565b600060405180830381600087803b15801561341e57600080fd5b505af1158015613432573d6000803e3d6000fd5b5050505083826134429190615772565b93505b5050505b600080516020615855833981519152338860008b8686604051610cfd9695949392919061534f565b61347a33613dd2565b6134965760405162461bcd60e51b8152600401610a5e90615495565b61180c600033611561565b6134aa33610d24565b806134b957506134b933613dd2565b6134d55760405162461bcd60e51b8152600401610a5e90615421565b866135105760405162461bcd60e51b815260206004820152600b60248201526a0f4cae4de40d8cadccee8d60ab1b6044820152606401610a5e565b8685146135565760405162461bcd60e51b81526020600482015260146024820152730eee4dedcce40c4c2d8c2dcc6ca40d8cadccee8d60631b6044820152606401610a5e565b86831461359b5760405162461bcd60e51b81526020600482015260136024820152720eee4dedcce40e0cae4d2dec840d8cadccee8d606b1b6044820152606401610a5e565b8681146135e15760405162461bcd60e51b81526020600482015260146024820152730eee4dedcce40e8ded6cadc92c840d8cadccee8d60631b6044820152606401610a5e565b60005b878110156136b15761369e89898381811061360f57634e487b7160e01b600052603260045260246000fd5b90506020020160208101906136249190614ee4565b88888481811061364457634e487b7160e01b600052603260045260246000fd5b9050602002013587878581811061366b57634e487b7160e01b600052603260045260246000fd5b9050602002013586868681811061369257634e487b7160e01b600052603260045260246000fd5b90506020020135614ae2565b50806136a981615823565b9150506135e4565b505050505050505050565b600082806136dc5760405162461bcd60e51b8152600401610a5e90615648565b82806136fa5760405162461bcd60e51b8152600401610a5e90615648565b6009548061371a5760405162461bcd60e51b8152600401610a5e90615648565b6003546040516316045cb160e31b8152600091829173__$23c3f0c4d39c3898c699ac978f80cfe781$__9163b022e58891613765916001600160a01b03169042908c906004016152da565b604080518083038186803b15801561377c57600080fd5b505af4158015613790573d6000803e3d6000fd5b505050506040513d601f19601f820116820180604052508101906137b491906151a3565b6004546002549294509092506137d9916001600160a01b03908116913391168b614364565b6137e23361410f565b6137ea6141b5565b95506137f633876141d0565b6137fe611609565b61380c33878a846000614213565b5060008061381c338b8b87614489565b60008a815260106020526040908190208390555191935091507ff46503b8d1f95e046084d2a40bac278932cd394b6ef745d41548422b8182af289061386c9033908d908d908d908890889061534f565b60405180910390a15050505050505092915050565b61388a82610d0f565b6138948133614025565b61131083836142fd565b60008211806138ad5750600081115b6138c95760405162461bcd60e51b8152600401610a5e906153f9565b6000838152600f6020526040902080546001600160a01b031633146139005760405162461bcd60e51b8152600401610a5e9061554f565b336000908152600e6020908152604080832087845290915290205460011061393a5760405162461bcd60e51b8152600401610a5e906154dd565b60008481526010602052604090205480156139645761395f338683856003015461467c565b613987565b428260030154106139875760405162461bcd60e51b8152600401610a5e906155dd565b83156139ac576004546002546139ac916001600160a01b039182169133911687614364565b6000808415613a54576003546040516316045cb160e31b815273__$23c3f0c4d39c3898c699ac978f80cfe781$__9163b022e588916139fb916001600160a01b03169042908a906004016152da565b604080518083038186803b158015613a1257600080fd5b505af4158015613a26573d6000803e3d6000fd5b505050506040513d601f19601f82011682018060405250810190613a4a91906151a3565b9092509050613ae4565b600360009054906101000a90046001600160a01b03166001600160a01b031663fd2dcecf6040518163ffffffff1660e01b815260040160206040518083038186803b158015613aa257600080fd5b505afa158015613ab6573d6000803e3d6000fd5b505050506040513d601f19601f82011682018060405250810190613ada919061516a565b9150836003015490505b613aec611609565b6000613afb8560020154611df2565b90506000613b0888611aa7565b905060008660010154831115613b2a576001870154613b2790846157c9565b90505b81876002016000828254613b3e9190615772565b90915550506003870184905560018701548190613b5c908b90615772565b613b669190615772565b60018801556008548190613b7b908b90615772565b613b859190615772565b6008819055508160076000828254613b9d9190615772565b9091555060009050808b8a15613bd957613bc233613bbb8e89615772565b8d8b614489565b600083815260106020526040902082905590935091505b600080516020615895833981519152338d60008e858888604051613c0397969594939291906152fb565b60405180910390a150505050505050505050505050565b600480546040805163688d653160e11b8152905160009384936001600160a01b03169263d11aca629281830192602092829003018186803b158015613c5e57600080fd5b505afa158015613c72573d6000803e3d6000fd5b505050506040513d601f19601f82011682018060405250810190613c96919061516a565b905060006121b6600754611df2565b613cae33613dde565b613cca5760405162461bcd60e51b8152600401610a5e90615674565b8080613ce85760405162461bcd60e51b8152600401610a5e90615648565b81600a541415613d285760405162461bcd60e51b815260206004820152600b60248201526a1cd85b59481c195c9a5bd960aa1b6044820152606401610a5e565b50600a55565b613d3733613dde565b613d535760405162461bcd60e51b8152600401610a5e90615674565b6001600160a01b038116613d795760405162461bcd60e51b8152600401610a5e90615463565b336001600160a01b0382161415613da25760405162461bcd60e51b8152600401610a5e9061557d565b613dba6000805160206158b5833981519152826112f3565b61191b6000805160206158b583398151915233611561565b600061099e8183611d74565b600061099e6000805160206158b583398151915283611d74565b6001600160a01b0382166000908152600e60209081526040808320848452909152902054600181118015613e4357506001600160a01b0383166000908152600d602052604090205481105b1561099e576001600160a01b0383166000908152600d6020526040902054613e6d906001906157c9565b811015613f3c576001600160a01b0383166000908152600d602052604081208054613e9a906001906157c9565b81548110613eb857634e487b7160e01b600052603260045260246000fd5b9060005260206000200154905080600d6000866001600160a01b03166001600160a01b031681526020019081526020016000208381548110613f0a57634e487b7160e01b600052603260045260246000fd5b60009182526020808320909101929092556001600160a01b0386168152600e8252604080822093825292909152208190555b6001600160a01b0383166000818152600e602090815260408083208684528252808320839055928252600d905220805480613f8757634e487b7160e01b600052603160045260246000fd5b6001900381819060005260206000200160009055905592915050565b6001811115613fe457506000908152600f6020526040812080546001600160a01b031916815560018101829055600281018290556003810182905560040155565b80600114156115db57506000908152600f6020526040812080546001600160a01b031916815560018101829055600281018290556003810182905560040155565b61402f8282611d74565b6115db57614047816001600160a01b03166014614b67565b614052836020614b67565b60405160200161406392919061526b565b60408051601f198184030181529082905262461bcd60e51b8252610a5e916004016153c6565b6140938282611d74565b6115db5760008281526011602090815260408083206001600160a01b03851684529091529020805460ff191660011790556140cb3390565b6001600160a01b0316816001600160a01b0316837f2f8788117e7eff1d82e926ec794901d17c78024a50270940304540a733656f0d60405160405180910390a45050565b6001600160a01b0381166000908152600d602052604090205461191b576001600160a01b0381166000908152600d602090815260408220805460018101825590835290822001819055600b80549161416683615823565b90915550506001600160a01b03166000818152600e60209081526040808320600b80548552908352818420600190819055948452600d8352908320905481549485018255908352912090910155565b6000600b600081546141c690615823565b9182905550919050565b6001600160a01b039091166000908152600d602081815260408084208054600e845282862087875284529185208290559282526001810183559183529091200155565b60006006546001146142375760405162461bcd60e51b8152600401610a5e90615713565b6000600681905561424785611aa7565b6040805160a0810182526001600160a01b038a8116825260208083018a8152838501868152606085018b8152608086018b815260008f8152600f909552968420955186546001600160a01b0319169516949094178555905160018501555160028401559051600383015591516004909101556008805492935087929091906142d0908490615772565b9250508190555080600760008282546142e99190615772565b909155505060016006559695505050505050565b6143078282611d74565b156115db5760008281526011602090815260408083206001600160a01b0385168085529252808320805460ff1916905551339285917ff6391f5c32d9c69d2a47ea670b442974b53935d1edc7fd64eb21e047a839171b9190a45050565b604080516001600160a01b0385811660248301528481166044830152606480830185905283518084039091018152608490920183526020820180516001600160e01b03166323b872dd60e01b17905291516000928392908816916143c8919061524f565b6000604051808303816000865af19150503d8060008114614405576040519150601f19603f3d011682016040523d82523d6000602084013e61440a565b606091505b509150915081801561443457508051158061443457508080602001905181019061443491906150df565b6144775760405162461bcd60e51b81526020600482015260146024820152731514905394d1915497d19493d357d1905253115160621b6044820152606401610a5e565b505050505050565b6115db8282614089565b6000806006546001146144ae5760405162461bcd60e51b8152600401610a5e90615713565b60006006819055600954905473__$23c3f0c4d39c3898c699ac978f80cfe781$__9163f3c85eba918891906144e3888a6157aa565b6144ed919061578a565b6040518463ffffffff1660e01b815260040161450b9392919061575c565b60206040518083038186803b15801561452357600080fd5b505af4158015614537573d6000803e3d6000fd5b505050506040513d601f19601f8201168201806040525081019061455b919061516a565b9050600081116145a65760405162461bcd60e51b81526020600482015260166024820152751e995c9bc818dbdb5c1bdd5b99195908185b5bdd5b9d60521b6044820152606401610a5e565b60035460405163036e72c360e21b81526001600160a01b0390911690630db9cb0c906145da908990859089906004016152da565b602060405180830381600087803b1580156145f457600080fd5b505af1158015614608573d6000803e3d6000fd5b505050506040513d601f19601f8201168201806040525081019061462c919061516a565b91506000821161466c5760405162461bcd60e51b815260206004820152600b60248201526a1e995c9bc81cdd1bdcd25960aa1b6044820152606401610a5e565b6001600655909590945092505050565b600354604051639ce5630560e01b8152600481018490526000916001600160a01b031690639ce563059060240160606040518083038186803b1580156146c157600080fd5b505afa1580156146d5573d6000803e3d6000fd5b505050506040513d601f19601f820116820180604052508101906146f991906151f1565b50915050428110801561470b57504282105b6147275760405162461bcd60e51b8152600401610a5e906155dd565b60035460405163c0a37b3f60e01b81526001600160a01b039091169063c0a37b3f906147599088908790600401615336565b600060405180830381600087803b15801561477357600080fd5b505af1158015614787573d6000803e3d6000fd5b5050506000948552505060106020525050604081205550565b6006546001146147c25760405162461bcd60e51b8152600401610a5e90615713565b60006006819055848152600f60205260409020821515806147e35750600082115b806147ee5750600084115b6148295760405162461bcd60e51b815260206004820152600c60248201526b7a65726f20416d6f756e747360a01b6044820152606401610a5e565b60008160020154116148695760405162461bcd60e51b81526020600482015260096024820152687a65726f206c746f7360b81b6044820152606401610a5e565b60006148788260020154611df2565b9050808311156148c95760405162461bcd60e51b815260206004820152601c60248201527b1cdd185ad948185b5bdd5b9d081a5cc81a5b9cdd59999a58da595b9d60221b6044820152606401610a5e565b60008085156148de576148db86611aa7565b91505b84156148f0576148ed85611aa7565b90505b60038401879055600184015460009084111561491857600185015461491590856157c9565b90505b821561495157828560020160008282546149329190615772565b92505081905550826007600082825461494b9190615772565b90915550505b811561498a578185600201600082825461496b91906157c9565b92505081905550816007600082825461498491906157c9565b90915550505b60008711806149995750600081115b806149a45750600086115b156149fe5785818887600101546149bb9190615772565b6149c59190615772565b6149cf91906157c9565b6001860155600854869082906149e6908a90615772565b6149f09190615772565b6149fa91906157c9565b6008555b5050600160065550505050505050565b8115614a3357600454600254614a33916001600160a01b039182169187911685614364565b6000808215614ad7576003546040516316045cb160e31b815273__$23c3f0c4d39c3898c699ac978f80cfe781$__9163b022e58891614a83916001600160a01b03169060009088906004016152da565b604080518083038186803b158015614a9a57600080fd5b505af4158015614aae573d6000803e3d6000fd5b505050506040513d601f19601f82011682018060405250810190614ad291906151a3565b925090505b614477858584614d4f565b60008380614b025760405162461bcd60e51b8152600401610a5e90615648565b8380614b205760405162461bcd60e51b8152600401610a5e90615648565b614b298761410f565b614b316141b5565b9250614b3d87846141d0565b614b4b878488886000614213565b5050506000818152601060205260409020919091559392505050565b60606000614b768360026157aa565b614b81906002615772565b6001600160401b03811115614ba657634e487b7160e01b600052604160045260246000fd5b6040519080825280601f01601f191660200182016040528015614bd0576020820181803683370190505b509050600360fc1b81600081518110614bf957634e487b7160e01b600052603260045260246000fd5b60200101906001600160f81b031916908160001a905350600f60fb1b81600181518110614c3657634e487b7160e01b600052603260045260246000fd5b60200101906001600160f81b031916908160001a9053506000614c5a8460026157aa565b614c65906001615772565b90505b6001811115614cf9576f181899199a1a9b1b9c1cb0b131b232b360811b85600f1660108110614ca757634e487b7160e01b600052603260045260246000fd5b1a60f81b828281518110614ccb57634e487b7160e01b600052603260045260246000fd5b60200101906001600160f81b031916908160001a90535060049490941c93614cf28161580c565b9050614c68565b508315614d485760405162461bcd60e51b815260206004820181905260248201527f537472696e67733a20686578206c656e67746820696e73756666696369656e746044820152606401610a5e565b9392505050565b600654600114614d715760405162461bcd60e51b8152600401610a5e90615713565b600060065581151580614d845750600081115b614dd05760405162461bcd60e51b815260206004820181905260248201527f7a65726f20616d6f756e7420616e64205f696e6372656173655365636f6e64736044820152606401610a5e565b6000838152600f602052604090208215614e59576000614def84611aa7565b905083826001016000828254614e059190615772565b9250508190555080826002016000828254614e209190615772565b925050819055508360086000828254614e399190615772565b925050819055508060076000828254614e529190615772565b9091555050505b8115614e795781816003016000828254614e739190615772565b90915550505b505060016006555050565b80356001600160a01b038116811461103757600080fd5b60008083601f840112614eac578182fd5b5081356001600160401b03811115614ec2578182fd5b6020830191508360208260051b8501011115614edd57600080fd5b9250929050565b600060208284031215614ef5578081fd5b614d4882614e84565b600080600060608486031215614f12578182fd5b614f1b84614e84565b9250614f2960208501614e84565b9150614f3760408501614e84565b90509250925092565b60008060408385031215614f52578182fd5b614f5b83614e84565b946020939093013593505050565b60008060008060808587031215614f7e578081fd5b614f8785614e84565b966020860135965060408601359560600135945092505050565b600080600080600060a08688031215614fb8578081fd5b614fc186614e84565b97602087013597506040870135966060810135965060800135945092505050565b6000806000806000806000806080898b031215614ffd578283fd5b88356001600160401b0380821115615013578485fd5b61501f8c838d01614e9b565b909a50985060208b0135915080821115615037578485fd5b6150438c838d01614e9b565b909850965060408b013591508082111561505b578485fd5b6150678c838d01614e9b565b909650945060608b013591508082111561507f578384fd5b5061508c8b828c01614e9b565b999c989b5096995094979396929594505050565b600080602083850312156150b2578182fd5b82356001600160401b038111156150c7578283fd5b6150d385828601614e9b565b90969095509350505050565b6000602082840312156150f0578081fd5b81518015158114614d48578182fd5b600060208284031215615110578081fd5b5035919050565b60008060408385031215615129578182fd5b8235915061513960208401614e84565b90509250929050565b600060208284031215615153578081fd5b81356001600160e01b031981168114614d48578182fd5b60006020828403121561517b578081fd5b5051919050565b60008060408385031215615194578081fd5b50508035926020909101359150565b600080604083850312156151b5578182fd5b505080516020909101519092909150565b6000806000606084860312156151da578081fd5b505081359360208301359350604090920135919050565b600080600060608486031215615205578081fd5b8351925060208401519150604084015190509250925092565b60008060008060808587031215615233578182fd5b5050823594602084013594506040840135936060013592509050565b600082516152618184602087016157e0565b9190910192915050565b76020b1b1b2b9b9a1b7b73a3937b61d1030b1b1b7bab73a1604d1b81526000835161529d8160178501602088016157e0565b7001034b99036b4b9b9b4b733903937b6329607d1b60179184019182015283516152ce8160288401602088016157e0565b01602801949350505050565b6001600160a01b039390931683526020830191909152604082015260600190565b6001600160a01b03979097168752602087019590955260408601939093526060850191909152608084015260a083015260c082015260e00190565b6001600160a01b03929092168252602082015260400190565b6001600160a01b03969096168652602086019490945260408501929092526060840152608083015260a082015260c00190565b6020808252825182820181905260009190848201906040850190845b818110156153ba5783518352928401929184019160010161539e565b50909695505050505050565b60208152600082518060208401526153e58160408501602087016157e0565b601f01601f19169190910160400192915050565b6020808252600e908201526d185b1b081e995c9bc81a5b9c1d5d60921b604082015260600190565b60208082526022908201527f41636365737369626c653a2043616c6c6572206973206e6f7420616e2061646d60408201526134b760f11b606082015260800190565b60208082526018908201527741636365737369626c653a207a65726f206164647265737360401b604082015260600190565b60208082526028908201527f41636365737369626c653a2043616c6c6572206973206e6f7420616e2070726f6040820152673c3c9030b236b4b760c11b606082015260800190565b60208082526023908201527f69742773206e6f7420666f722073696d706c65207374616b65206f7220656d706040820152623a3c9760e91b606082015260800190565b6020808252601590820152745374616b696e673a207a65726f206164647265737360581b604082015260600190565b60208082526014908201527331b0b63632b91034b9903737ba1039ba30b5b2b960611b604082015260600190565b60208082526016908201527520b1b1b2b9b9b4b136329d1039b0b6b29030b236b4b760511b604082015260600190565b60208082526016908201527539b2b73232b91034b9903737ba1030903137b73232b960511b604082015260600190565b6020808252601c908201527b1b1bd8dac8195b99081d1a5b59481a185cc81b9bdd081c185cdcd95960221b604082015260600190565b6020808252601b908201527a1c995b585a5b9959151bdcc81a5cc81a5b9cdd59999a58da595b9d602a1b604082015260600190565b60208082526012908201527114dd185ada5b99ce881e995c9bc81d5a5b9d60721b604082015260600190565b60208082526029908201527f41636365737369626c653a2043616c6c6572206973206e6f7420616e20706f6c60408201526834b1bc9030b236b4b760b91b606082015260800190565b6020808252600a90820152691e995c9bc81a5b9c1d5d60b21b604082015260600190565b6020808252601890820152771b1bd8dac8195b99081d1a5b59481a185cc81c185cdcd95960421b604082015260600190565b6020808252601890820152774c6f636b496420697320616c726561647920696e2075736560401b604082015260600190565b9182526001600160a01b0316602082015260400190565b9283526020830191909152604082015260600190565b600082198211156157855761578561583e565b500190565b6000826157a557634e487b7160e01b81526012600452602481fd5b500490565b60008160001904831182151516156157c4576157c461583e565b500290565b6000828210156157db576157db61583e565b500390565b60005b838110156157fb5781810151838201526020016157e3565b838111156122ae5750506000910152565b60008161581b5761581b61583e565b506000190190565b60006000198214156158375761583761583e565b5060010190565b634e487b7160e01b600052601160045260246000fdfe4ed3cb428b71401f7eebc41b131a378b44ab9e704fc3fbd44909b1792ecb4ad052eafc11f6f81f86878bffd31109a0d92f37506527754f00788853ff9f63b130b96969612f881e3e16987f7cc8e53854fbdcd75a94b1f85e911129b7fe279b5cfb5864e8ff833c3cb2d2d08505e82ff02a43554c74a35d4f5a64e85261278311a264697066735822122002b863f055a8a7d7d09d79d65a8fd745329408c35b444a09c8bf5f3b81e5865564736f6c63430008040033",
  "linkReferences": {
    "contracts/libraries/LibStaking.sol": {
      "LibStaking": [
        {
          "length": 20,
          "start": 3945
        },
        {
          "length": 20,
          "start": 5885
        },
        {
          "length": 20,
          "start": 8007
        },
        {
          "length": 20,
          "start": 9581
        },
        {
          "length": 20,
          "start": 11100
        },
        {
          "length": 20,
          "start": 11399
        },
        {
          "length": 20,
          "start": 11590
        },
        {
          "length": 20,
          "start": 13171
        },
        {
          "length": 20,
          "start": 14167
        },
        {
          "length": 20,
          "start": 14829
        },
        {
          "length": 20,
          "start": 17634
        },
        {
          "length": 20,
          "start": 19060
        }
      ]
    }
  },
  "deployedLinkReferences": {
    "contracts/libraries/LibStaking.sol": {
      "LibStaking": [
        {
          "length": 20,
          "start": 3907
        },
        {
          "length": 20,
          "start": 5847
        },
        {
          "length": 20,
          "start": 7969
        },
        {
          "length": 20,
          "start": 9543
        },
        {
          "length": 20,
          "start": 11062
        },
        {
          "length": 20,
          "start": 11361
        },
        {
          "length": 20,
          "start": 11552
        },
        {
          "length": 20,
          "start": 13133
        },
        {
          "length": 20,
          "start": 14129
        },
        {
          "length": 20,
          "start": 14791
        },
        {
          "length": 20,
          "start": 17596
        },
        {
          "length": 20,
          "start": 19022
        }
      ]
    }
  }
}