{
  "_format": "hh-sol-artifact-1",
  "contractName": "StakingV2",
  "sourceName": "contracts/StakingV2.sol",
  "abi": [
    {
      "inputs": [],
      "stateMutability": "nonpayable",
      "type": "constructor"
    },
    {
      "anonymous": false,
      "inputs": [
        {
          "indexed": false,
          "internalType": "address",
          "name": "staker",
          "type": "address"
        },
        {
          "indexed": false,
          "internalType": "uint256",
          "name": "claimAmount",
          "type": "uint256"
        },
        {
          "indexed": false,
          "internalType": "uint256",
          "name": "stakeId",
          "type": "uint256"
        }
      ],
      "name": "ClaimdForNonLock",
      "type": "event"
    },
    {
      "anonymous": false,
      "inputs": [
        {
          "indexed": false,
          "internalType": "address",
          "name": "to",
          "type": "address"
        },
        {
          "indexed": false,
          "internalType": "uint256",
          "name": "amount",
          "type": "uint256"
        },
        {
          "indexed": false,
          "internalType": "uint256",
          "name": "stakeId",
          "type": "uint256"
        }
      ],
      "name": "IncreasedAmountForSimpleStake",
      "type": "event"
    },
    {
      "anonymous": false,
      "inputs": [
        {
          "indexed": false,
          "internalType": "address",
          "name": "staker",
          "type": "address"
        },
        {
          "indexed": false,
          "internalType": "uint256",
          "name": "amount",
          "type": "uint256"
        },
        {
          "indexed": false,
          "internalType": "uint256",
          "name": "unlockWeeks",
          "type": "uint256"
        },
        {
          "indexed": false,
          "internalType": "uint256",
          "name": "stakeId",
          "type": "uint256"
        },
        {
          "indexed": false,
          "internalType": "uint256",
          "name": "stosId",
          "type": "uint256"
        }
      ],
      "name": "IncreasedBeforeEndOrNonEnd",
      "type": "event"
    },
    {
      "anonymous": false,
      "inputs": [
        {
          "indexed": false,
          "internalType": "uint256",
          "name": "oldIndex",
          "type": "uint256"
        },
        {
          "indexed": false,
          "internalType": "uint256",
          "name": "newIndex",
          "type": "uint256"
        },
        {
          "indexed": false,
          "internalType": "uint256",
          "name": "totalLTOS",
          "type": "uint256"
        }
      ],
      "name": "Rebased",
      "type": "event"
    },
    {
      "anonymous": false,
      "inputs": [
        {
          "indexed": false,
          "internalType": "address",
          "name": "to",
          "type": "address"
        },
        {
          "indexed": false,
          "internalType": "uint256",
          "name": "addAmount",
          "type": "uint256"
        },
        {
          "indexed": false,
          "internalType": "uint256",
          "name": "claimAmount",
          "type": "uint256"
        },
        {
          "indexed": false,
          "internalType": "uint256",
          "name": "periodWeeks",
          "type": "uint256"
        },
        {
          "indexed": false,
          "internalType": "uint256",
          "name": "stakeId",
          "type": "uint256"
        },
        {
          "indexed": false,
          "internalType": "uint256",
          "name": "stosId",
          "type": "uint256"
        }
      ],
      "name": "ResetStakedGetStosAfterLock",
      "type": "event"
    },
    {
      "anonymous": false,
      "inputs": [
        {
          "indexed": true,
          "internalType": "bytes32",
          "name": "role",
          "type": "bytes32"
        },
        {
          "indexed": true,
          "internalType": "bytes32",
          "name": "previousAdminRole",
          "type": "bytes32"
        },
        {
          "indexed": true,
          "internalType": "bytes32",
          "name": "newAdminRole",
          "type": "bytes32"
        }
      ],
      "name": "RoleAdminChanged",
      "type": "event"
    },
    {
      "anonymous": false,
      "inputs": [
        {
          "indexed": true,
          "internalType": "bytes32",
          "name": "role",
          "type": "bytes32"
        },
        {
          "indexed": true,
          "internalType": "address",
          "name": "account",
          "type": "address"
        },
        {
          "indexed": true,
          "internalType": "address",
          "name": "sender",
          "type": "address"
        }
      ],
      "name": "RoleGranted",
      "type": "event"
    },
    {
      "anonymous": false,
      "inputs": [
        {
          "indexed": true,
          "internalType": "bytes32",
          "name": "role",
          "type": "bytes32"
        },
        {
          "indexed": true,
          "internalType": "address",
          "name": "account",
          "type": "address"
        },
        {
          "indexed": true,
          "internalType": "address",
          "name": "sender",
          "type": "address"
        }
      ],
      "name": "RoleRevoked",
      "type": "event"
    },
    {
      "anonymous": false,
      "inputs": [
        {
          "indexed": false,
          "internalType": "address",
          "name": "to",
          "type": "address"
        },
        {
          "indexed": false,
          "internalType": "uint256",
          "name": "amount",
          "type": "uint256"
        },
        {
          "indexed": false,
          "internalType": "uint256",
          "name": "stakeId",
          "type": "uint256"
        }
      ],
      "name": "Staked",
      "type": "event"
    },
    {
      "anonymous": false,
      "inputs": [
        {
          "indexed": false,
          "internalType": "address",
          "name": "to",
          "type": "address"
        },
        {
          "indexed": false,
          "internalType": "uint256",
          "name": "amount",
          "type": "uint256"
        },
        {
          "indexed": false,
          "internalType": "uint256",
          "name": "ltos",
          "type": "uint256"
        },
        {
          "indexed": false,
          "internalType": "uint256",
          "name": "marketId",
          "type": "uint256"
        },
        {
          "indexed": false,
          "internalType": "uint256",
          "name": "stakeId",
          "type": "uint256"
        },
        {
          "indexed": false,
          "internalType": "uint256",
          "name": "tosPrice",
          "type": "uint256"
        }
      ],
      "name": "StakedByBond",
      "type": "event"
    },
    {
      "anonymous": false,
      "inputs": [
        {
          "indexed": false,
          "internalType": "address",
          "name": "to",
          "type": "address"
        },
        {
          "indexed": false,
          "internalType": "uint256",
          "name": "amount",
          "type": "uint256"
        },
        {
          "indexed": false,
          "internalType": "uint256",
          "name": "periodWeeks",
          "type": "uint256"
        },
        {
          "indexed": false,
          "internalType": "uint256",
          "name": "stakeId",
          "type": "uint256"
        },
        {
          "indexed": false,
          "internalType": "uint256",
          "name": "stosId",
          "type": "uint256"
        }
      ],
      "name": "StakedGetStos",
      "type": "event"
    },
    {
      "anonymous": false,
      "inputs": [
        {
          "indexed": false,
          "internalType": "address",
          "name": "to",
          "type": "address"
        },
        {
          "indexed": false,
          "internalType": "uint256",
          "name": "amount",
          "type": "uint256"
        },
        {
          "indexed": false,
          "internalType": "uint256",
          "name": "ltos",
          "type": "uint256"
        },
        {
          "indexed": false,
          "internalType": "uint256",
          "name": "periodWeeks",
          "type": "uint256"
        },
        {
          "indexed": false,
          "internalType": "uint256",
          "name": "marketId",
          "type": "uint256"
        },
        {
          "indexed": false,
          "internalType": "uint256",
          "name": "stakeId",
          "type": "uint256"
        },
        {
          "indexed": false,
          "internalType": "uint256",
          "name": "stosId",
          "type": "uint256"
        },
        {
          "indexed": false,
          "internalType": "uint256",
          "name": "tosPrice",
          "type": "uint256"
        }
      ],
      "name": "StakedGetStosByBond",
      "type": "event"
    },
    {
      "anonymous": false,
      "inputs": [
        {
          "indexed": false,
          "internalType": "address",
          "name": "staker",
          "type": "address"
        },
        {
          "indexed": false,
          "internalType": "uint256",
          "name": "amount",
          "type": "uint256"
        },
        {
          "indexed": false,
          "internalType": "uint256",
          "name": "stakeId",
          "type": "uint256"
        }
      ],
      "name": "Unstaked",
      "type": "event"
    },
    {
      "inputs": [],
      "name": "ADMIN_ROLE",
      "outputs": [
        {
          "internalType": "bytes32",
          "name": "",
          "type": "bytes32"
        }
      ],
      "stateMutability": "view",
      "type": "function"
    },
    {
      "inputs": [],
      "name": "DEFAULT_ADMIN_ROLE",
      "outputs": [
        {
          "internalType": "bytes32",
          "name": "",
          "type": "bytes32"
        }
      ],
      "stateMutability": "view",
      "type": "function"
    },
    {
      "inputs": [],
      "name": "POLICY_ROLE",
      "outputs": [
        {
          "internalType": "bytes32",
          "name": "",
          "type": "bytes32"
        }
      ],
      "stateMutability": "view",
      "type": "function"
    },
    {
      "inputs": [],
      "name": "PROJECT_ADMIN_ROLE",
      "outputs": [
        {
          "internalType": "bytes32",
          "name": "",
          "type": "bytes32"
        }
      ],
      "stateMutability": "view",
      "type": "function"
    },
    {
      "inputs": [
        {
          "internalType": "address",
          "name": "account",
          "type": "address"
        }
      ],
      "name": "addAdmin",
      "outputs": [],
      "stateMutability": "nonpayable",
      "type": "function"
    },
    {
      "inputs": [
        {
          "internalType": "address",
          "name": "_account",
          "type": "address"
        }
      ],
      "name": "addPolicy",
      "outputs": [],
      "stateMutability": "nonpayable",
      "type": "function"
    },
    {
      "inputs": [
        {
          "internalType": "address",
          "name": "_owner",
          "type": "address"
        }
      ],
      "name": "addProxyAdmin",
      "outputs": [],
      "stateMutability": "nonpayable",
      "type": "function"
    },
    {
      "inputs": [
        {
          "internalType": "uint256",
          "name": "",
          "type": "uint256"
        }
      ],
      "name": "allStakings",
      "outputs": [
        {
          "internalType": "address",
          "name": "staker",
          "type": "address"
        },
        {
          "internalType": "uint256",
          "name": "deposit",
          "type": "uint256"
        },
        {
          "internalType": "uint256",
          "name": "ltos",
          "type": "uint256"
        },
        {
          "internalType": "uint256",
          "name": "endTime",
          "type": "uint256"
        },
        {
          "internalType": "uint256",
          "name": "marketId",
          "type": "uint256"
        }
      ],
      "stateMutability": "view",
      "type": "function"
    },
    {
      "inputs": [
        {
          "internalType": "address",
          "name": "_addr",
          "type": "address"
        }
      ],
      "name": "balanceOf",
      "outputs": [
        {
          "internalType": "uint256",
          "name": "balance",
          "type": "uint256"
        }
      ],
      "stateMutability": "view",
      "type": "function"
    },
    {
      "inputs": [
        {
          "internalType": "uint256",
          "name": "_stakeId",
          "type": "uint256"
        }
      ],
      "name": "balanceOfId",
      "outputs": [
        {
          "internalType": "uint256",
          "name": "",
          "type": "uint256"
        }
      ],
      "stateMutability": "view",
      "type": "function"
    },
    {
      "inputs": [],
      "name": "basicBondPeriod",
      "outputs": [
        {
          "internalType": "uint256",
          "name": "",
          "type": "uint256"
        }
      ],
      "stateMutability": "view",
      "type": "function"
    },
    {
      "inputs": [
        {
          "internalType": "uint256",
          "name": "_stakeId",
          "type": "uint256"
        },
        {
          "internalType": "uint256",
          "name": "_claimAmount",
          "type": "uint256"
        }
      ],
      "name": "claimForSimpleType",
      "outputs": [],
      "stateMutability": "nonpayable",
      "type": "function"
    },
    {
      "inputs": [
        {
          "internalType": "uint256",
          "name": "_stakeId",
          "type": "uint256"
        }
      ],
      "name": "claimableLtos",
      "outputs": [
        {
          "internalType": "uint256",
          "name": "",
          "type": "uint256"
        }
      ],
      "stateMutability": "view",
      "type": "function"
    },
    {
      "inputs": [
        {
          "internalType": "uint256",
          "name": "_stakeId",
          "type": "uint256"
        }
      ],
      "name": "claimableTos",
      "outputs": [
        {
          "internalType": "uint256",
          "name": "",
          "type": "uint256"
        }
      ],
      "stateMutability": "view",
      "type": "function"
    },
    {
      "inputs": [
        {
          "internalType": "uint256",
          "name": "",
          "type": "uint256"
        }
      ],
      "name": "connectId",
      "outputs": [
        {
          "internalType": "uint256",
          "name": "",
          "type": "uint256"
        }
      ],
      "stateMutability": "view",
      "type": "function"
    },
    {
      "inputs": [],
      "name": "epoch",
      "outputs": [
        {
          "internalType": "uint256",
          "name": "length_",
          "type": "uint256"
        },
        {
          "internalType": "uint256",
          "name": "end",
          "type": "uint256"
        }
      ],
      "stateMutability": "view",
      "type": "function"
    },
    {
      "inputs": [],
      "name": "generateMarketId",
      "outputs": [
        {
          "internalType": "uint256",
          "name": "",
          "type": "uint256"
        }
      ],
      "stateMutability": "nonpayable",
      "type": "function"
    },
    {
      "inputs": [],
      "name": "getIndex",
      "outputs": [
        {
          "internalType": "uint256",
          "name": "",
          "type": "uint256"
        }
      ],
      "stateMutability": "view",
      "type": "function"
    },
    {
      "inputs": [
        {
          "internalType": "uint256",
          "name": "ltos",
          "type": "uint256"
        }
      ],
      "name": "getLtosToTos",
      "outputs": [
        {
          "internalType": "uint256",
          "name": "",
          "type": "uint256"
        }
      ],
      "stateMutability": "view",
      "type": "function"
    },
    {
      "inputs": [
        {
          "internalType": "bytes32",
          "name": "role",
          "type": "bytes32"
        }
      ],
      "name": "getRoleAdmin",
      "outputs": [
        {
          "internalType": "bytes32",
          "name": "",
          "type": "bytes32"
        }
      ],
      "stateMutability": "view",
      "type": "function"
    },
    {
      "inputs": [
        {
          "internalType": "uint256",
          "name": "amount",
          "type": "uint256"
        }
      ],
      "name": "getTosToLtos",
      "outputs": [
        {
          "internalType": "uint256",
          "name": "",
          "type": "uint256"
        }
      ],
      "stateMutability": "view",
      "type": "function"
    },
    {
      "inputs": [
        {
          "internalType": "bytes32",
          "name": "role",
          "type": "bytes32"
        },
        {
          "internalType": "address",
          "name": "account",
          "type": "address"
        }
      ],
      "name": "grantRole",
      "outputs": [],
      "stateMutability": "nonpayable",
      "type": "function"
    },
    {
      "inputs": [
        {
          "internalType": "bytes32",
          "name": "role",
          "type": "bytes32"
        },
        {
          "internalType": "address",
          "name": "account",
          "type": "address"
        }
      ],
      "name": "hasRole",
      "outputs": [
        {
          "internalType": "bool",
          "name": "",
          "type": "bool"
        }
      ],
      "stateMutability": "view",
      "type": "function"
    },
    {
      "inputs": [
        {
          "internalType": "uint256",
          "name": "_stakeId",
          "type": "uint256"
        },
        {
          "internalType": "uint256",
          "name": "_amount",
          "type": "uint256"
        }
      ],
      "name": "increaseAmountForSimpleStake",
      "outputs": [],
      "stateMutability": "nonpayable",
      "type": "function"
    },
    {
      "inputs": [
        {
          "internalType": "uint256",
          "name": "_stakeId",
          "type": "uint256"
        },
        {
          "internalType": "uint256",
          "name": "_amount",
          "type": "uint256"
        },
        {
          "internalType": "uint256",
          "name": "_unlockWeeks",
          "type": "uint256"
        }
      ],
      "name": "increaseBeforeEndOrNonEnd",
      "outputs": [],
      "stateMutability": "nonpayable",
      "type": "function"
    },
    {
      "inputs": [
        {
          "internalType": "uint256",
          "name": "_stakeId",
          "type": "uint256"
        },
        {
          "internalType": "uint256",
          "name": "_amount",
          "type": "uint256"
        }
      ],
      "name": "increaseBeforeEndOrNonEnd",
      "outputs": [],
      "stateMutability": "nonpayable",
      "type": "function"
    },
    {
      "inputs": [],
      "name": "index_",
      "outputs": [
        {
          "internalType": "uint256",
          "name": "",
          "type": "uint256"
        }
      ],
      "stateMutability": "view",
      "type": "function"
    },
    {
      "inputs": [
        {
          "internalType": "address",
          "name": "account",
          "type": "address"
        }
      ],
      "name": "isAdmin",
      "outputs": [
        {
          "internalType": "bool",
          "name": "",
          "type": "bool"
        }
      ],
      "stateMutability": "view",
      "type": "function"
    },
    {
      "inputs": [
        {
          "internalType": "address",
          "name": "account",
          "type": "address"
        }
      ],
      "name": "isPolicy",
      "outputs": [
        {
          "internalType": "bool",
          "name": "",
          "type": "bool"
        }
      ],
      "stateMutability": "view",
      "type": "function"
    },
    {
      "inputs": [
        {
          "internalType": "address",
          "name": "account",
          "type": "address"
        }
      ],
      "name": "isProxyAdmin",
      "outputs": [
        {
          "internalType": "bool",
          "name": "",
          "type": "bool"
        }
      ],
      "stateMutability": "view",
      "type": "function"
    },
    {
      "inputs": [],
      "name": "lockTOS",
      "outputs": [
        {
          "internalType": "address",
          "name": "",
          "type": "address"
        }
      ],
      "stateMutability": "view",
      "type": "function"
    },
    {
      "inputs": [],
      "name": "marketIdCounter",
      "outputs": [
        {
          "internalType": "uint256",
          "name": "",
          "type": "uint256"
        }
      ],
      "stateMutability": "view",
      "type": "function"
    },
    {
      "inputs": [
        {
          "internalType": "uint256[]",
          "name": "_stakeIds",
          "type": "uint256[]"
        }
      ],
      "name": "multiUnstake",
      "outputs": [],
      "stateMutability": "nonpayable",
      "type": "function"
    },
    {
      "inputs": [],
      "name": "nextIndex",
      "outputs": [
        {
          "internalType": "uint256",
          "name": "",
          "type": "uint256"
        }
      ],
      "stateMutability": "view",
      "type": "function"
    },
    {
      "inputs": [],
      "name": "possibleIndex",
      "outputs": [
        {
          "internalType": "uint256",
          "name": "",
          "type": "uint256"
        }
      ],
      "stateMutability": "view",
      "type": "function"
    },
    {
      "inputs": [],
      "name": "rebaseIndex",
      "outputs": [],
      "stateMutability": "nonpayable",
      "type": "function"
    },
    {
      "inputs": [],
      "name": "rebasePerEpoch",
      "outputs": [
        {
          "internalType": "uint256",
          "name": "",
          "type": "uint256"
        }
      ],
      "stateMutability": "view",
      "type": "function"
    },
    {
      "inputs": [
        {
          "internalType": "uint256",
          "name": "_stakeId",
          "type": "uint256"
        }
      ],
      "name": "remainedLtos",
      "outputs": [
        {
          "internalType": "uint256",
          "name": "",
          "type": "uint256"
        }
      ],
      "stateMutability": "view",
      "type": "function"
    },
    {
      "inputs": [],
      "name": "removeAdmin",
      "outputs": [],
      "stateMutability": "nonpayable",
      "type": "function"
    },
    {
      "inputs": [],
      "name": "removePolicy",
      "outputs": [],
      "stateMutability": "nonpayable",
      "type": "function"
    },
    {
      "inputs": [],
      "name": "removeProxyAdmin",
      "outputs": [],
      "stateMutability": "nonpayable",
      "type": "function"
    },
    {
      "inputs": [
        {
          "internalType": "bytes32",
          "name": "role",
          "type": "bytes32"
        },
        {
          "internalType": "address",
          "name": "account",
          "type": "address"
        }
      ],
      "name": "renounceRole",
      "outputs": [],
      "stateMutability": "nonpayable",
      "type": "function"
    },
    {
      "inputs": [
        {
          "internalType": "uint256",
          "name": "_stakeId",
          "type": "uint256"
        },
        {
          "internalType": "uint256",
          "name": "_addAmount",
          "type": "uint256"
        },
        {
          "internalType": "uint256",
          "name": "_claimAmount",
          "type": "uint256"
        },
        {
          "internalType": "uint256",
          "name": "_periodWeeks",
          "type": "uint256"
        }
      ],
      "name": "resetStakeGetStosAfterLock",
      "outputs": [],
      "stateMutability": "nonpayable",
      "type": "function"
    },
    {
      "inputs": [
        {
          "internalType": "uint256",
          "name": "_stakeId",
          "type": "uint256"
        },
        {
          "internalType": "uint256",
          "name": "_claimAmount",
          "type": "uint256"
        }
      ],
      "name": "resetStakeGetStosAfterLock",
      "outputs": [],
      "stateMutability": "nonpayable",
      "type": "function"
    },
    {
      "inputs": [
        {
          "internalType": "uint256",
          "name": "_stakeId",
          "type": "uint256"
        },
        {
          "internalType": "uint256",
          "name": "_addAmount",
          "type": "uint256"
        },
        {
          "internalType": "uint256",
          "name": "_periodWeeks",
          "type": "uint256"
        }
      ],
      "name": "resetStakeGetStosAfterLock",
      "outputs": [],
      "stateMutability": "nonpayable",
      "type": "function"
    },
    {
      "inputs": [
        {
          "internalType": "bytes32",
          "name": "role",
          "type": "bytes32"
        },
        {
          "internalType": "address",
          "name": "account",
          "type": "address"
        }
      ],
      "name": "revokeRole",
      "outputs": [],
      "stateMutability": "nonpayable",
      "type": "function"
    },
    {
      "inputs": [],
      "name": "runwayTos",
      "outputs": [
        {
          "internalType": "uint256",
          "name": "",
          "type": "uint256"
        }
      ],
      "stateMutability": "view",
      "type": "function"
    },
    {
      "inputs": [],
      "name": "secondsToNextEpoch",
      "outputs": [
        {
          "internalType": "uint256",
          "name": "",
          "type": "uint256"
        }
      ],
      "stateMutability": "view",
      "type": "function"
    },
    {
      "inputs": [
        {
          "internalType": "address",
          "name": "_tos",
          "type": "address"
        },
        {
          "internalType": "address",
          "name": "_lockTOS",
          "type": "address"
        },
        {
          "internalType": "address",
          "name": "_treasury",
          "type": "address"
        }
      ],
      "name": "setAddressInfos",
      "outputs": [],
      "stateMutability": "nonpayable",
      "type": "function"
    },
    {
      "inputs": [
        {
          "internalType": "uint256",
          "name": "_period",
          "type": "uint256"
        }
      ],
      "name": "setBasicBondPeriod",
      "outputs": [],
      "stateMutability": "nonpayable",
      "type": "function"
    },
    {
      "inputs": [
        {
          "internalType": "uint256",
          "name": "_index",
          "type": "uint256"
        }
      ],
      "name": "setIndex",
      "outputs": [],
      "stateMutability": "nonpayable",
      "type": "function"
    },
    {
      "inputs": [
        {
          "internalType": "uint256",
          "name": "_rebasePerEpoch",
          "type": "uint256"
        }
      ],
      "name": "setRebasePerEpoch",
      "outputs": [],
      "stateMutability": "nonpayable",
      "type": "function"
    },
    {
      "inputs": [
        {
          "internalType": "uint256",
          "name": "_amount",
          "type": "uint256"
        }
      ],
      "name": "stake",
      "outputs": [
        {
          "internalType": "uint256",
          "name": "stakeId",
          "type": "uint256"
        }
      ],
      "stateMutability": "nonpayable",
      "type": "function"
    },
    {
      "inputs": [
        {
          "internalType": "address",
          "name": "to",
          "type": "address"
        },
        {
          "internalType": "uint256",
          "name": "_amount",
          "type": "uint256"
        },
        {
          "internalType": "uint256",
          "name": "_marketId",
          "type": "uint256"
        },
        {
          "internalType": "uint256",
          "name": "tosPrice",
          "type": "uint256"
        }
      ],
      "name": "stakeByBond",
      "outputs": [
        {
          "internalType": "uint256",
          "name": "stakeId",
          "type": "uint256"
        }
      ],
      "stateMutability": "nonpayable",
      "type": "function"
    },
    {
      "inputs": [
        {
          "internalType": "uint256",
          "name": "_amount",
          "type": "uint256"
        },
        {
          "internalType": "uint256",
          "name": "_periodWeeks",
          "type": "uint256"
        }
      ],
      "name": "stakeGetStos",
      "outputs": [
        {
          "internalType": "uint256",
          "name": "stakeId",
          "type": "uint256"
        }
      ],
      "stateMutability": "nonpayable",
      "type": "function"
    },
    {
      "inputs": [
        {
          "internalType": "address",
          "name": "_to",
          "type": "address"
        },
        {
          "internalType": "uint256",
          "name": "_amount",
          "type": "uint256"
        },
        {
          "internalType": "uint256",
          "name": "_marketId",
          "type": "uint256"
        },
        {
          "internalType": "uint256",
          "name": "_periodWeeks",
          "type": "uint256"
        },
        {
          "internalType": "uint256",
          "name": "tosPrice",
          "type": "uint256"
        }
      ],
      "name": "stakeGetStosByBond",
      "outputs": [
        {
          "internalType": "uint256",
          "name": "stakeId",
          "type": "uint256"
        }
      ],
      "stateMutability": "nonpayable",
      "type": "function"
    },
    {
      "inputs": [
        {
          "internalType": "uint256",
          "name": "stakeId",
          "type": "uint256"
        }
      ],
      "name": "stakeInfo",
      "outputs": [
        {
          "internalType": "address",
          "name": "staker",
          "type": "address"
        },
        {
          "internalType": "uint256",
          "name": "deposit",
          "type": "uint256"
        },
        {
          "internalType": "uint256",
          "name": "ltos",
          "type": "uint256"
        },
        {
          "internalType": "uint256",
          "name": "endTime",
          "type": "uint256"
        },
        {
          "internalType": "uint256",
          "name": "marketId",
          "type": "uint256"
        }
      ],
      "stateMutability": "view",
      "type": "function"
    },
    {
      "inputs": [
        {
          "internalType": "uint256",
          "name": "stakeId",
          "type": "uint256"
        }
      ],
      "name": "stakedOf",
      "outputs": [
        {
          "internalType": "uint256",
          "name": "",
          "type": "uint256"
        }
      ],
      "stateMutability": "view",
      "type": "function"
    },
    {
      "inputs": [],
      "name": "stakedOfAll",
      "outputs": [
        {
          "internalType": "uint256",
          "name": "",
          "type": "uint256"
        }
      ],
      "stateMutability": "view",
      "type": "function"
    },
    {
      "inputs": [],
      "name": "stakingIdCounter",
      "outputs": [
        {
          "internalType": "uint256",
          "name": "",
          "type": "uint256"
        }
      ],
      "stateMutability": "view",
      "type": "function"
    },
    {
      "inputs": [
        {
          "internalType": "address",
          "name": "_addr",
          "type": "address"
        }
      ],
      "name": "stakingOf",
      "outputs": [
        {
          "internalType": "uint256[]",
          "name": "",
          "type": "uint256[]"
        }
      ],
      "stateMutability": "view",
      "type": "function"
    },
    {
      "inputs": [],
      "name": "stakingPrincipal",
      "outputs": [
        {
          "internalType": "uint256",
          "name": "",
          "type": "uint256"
        }
      ],
      "stateMutability": "view",
      "type": "function"
    },
    {
      "inputs": [
        {
          "internalType": "bytes4",
          "name": "interfaceId",
          "type": "bytes4"
        }
      ],
      "name": "supportsInterface",
      "outputs": [
        {
          "internalType": "bool",
          "name": "",
          "type": "bool"
        }
      ],
      "stateMutability": "view",
      "type": "function"
    },
    {
      "inputs": [
        {
          "internalType": "address[]",
          "name": "accounts",
          "type": "address[]"
        },
        {
          "internalType": "uint256[]",
          "name": "balances",
          "type": "uint256[]"
        },
        {
          "internalType": "uint256[]",
          "name": "period",
          "type": "uint256[]"
        },
        {
          "internalType": "uint256[]",
          "name": "tokenId",
          "type": "uint256[]"
        }
      ],
      "name": "syncStos",
      "outputs": [],
      "stateMutability": "nonpayable",
      "type": "function"
    },
    {
      "inputs": [],
      "name": "tos",
      "outputs": [
        {
          "internalType": "contract IERC20",
          "name": "",
          "type": "address"
        }
      ],
      "stateMutability": "view",
      "type": "function"
    },
    {
      "inputs": [],
      "name": "totalLtos",
      "outputs": [
        {
          "internalType": "uint256",
          "name": "",
          "type": "uint256"
        }
      ],
      "stateMutability": "view",
      "type": "function"
    },
    {
      "inputs": [
        {
          "internalType": "address",
          "name": "newAdmin",
          "type": "address"
        }
      ],
      "name": "transferAdmin",
      "outputs": [],
      "stateMutability": "nonpayable",
      "type": "function"
    },
    {
      "inputs": [
        {
          "internalType": "address",
          "name": "newAdmin",
          "type": "address"
        }
      ],
      "name": "transferPolicyAdmin",
      "outputs": [],
      "stateMutability": "nonpayable",
      "type": "function"
    },
    {
      "inputs": [
        {
          "internalType": "address",
          "name": "newAdmin",
          "type": "address"
        }
      ],
      "name": "transferProxyAdmin",
      "outputs": [],
      "stateMutability": "nonpayable",
      "type": "function"
    },
    {
      "inputs": [],
      "name": "treasury",
      "outputs": [
        {
          "internalType": "address",
          "name": "",
          "type": "address"
        }
      ],
      "stateMutability": "view",
      "type": "function"
    },
    {
      "inputs": [
        {
          "internalType": "uint256",
          "name": "_stakeId",
          "type": "uint256"
        }
      ],
      "name": "unstake",
      "outputs": [],
      "stateMutability": "nonpayable",
      "type": "function"
    },
    {
      "inputs": [
        {
          "internalType": "address",
          "name": "",
          "type": "address"
        },
        {
          "internalType": "uint256",
          "name": "",
          "type": "uint256"
        }
      ],
      "name": "userStakingIndex",
      "outputs": [
        {
          "internalType": "uint256",
          "name": "",
          "type": "uint256"
        }
      ],
      "stateMutability": "view",
      "type": "function"
    },
    {
      "inputs": [
        {
          "internalType": "address",
          "name": "",
          "type": "address"
        },
        {
          "internalType": "uint256",
          "name": "",
          "type": "uint256"
        }
      ],
      "name": "userStakings",
      "outputs": [
        {
          "internalType": "uint256",
          "name": "",
          "type": "uint256"
        }
      ],
      "stateMutability": "view",
      "type": "function"
    }
  ],
  "bytecode": "0x6080604052600160065534801561001557600080fd5b5061577080620000266000396000f3fe608060405234801561001057600080fd5b50600436106103535760003560e01c80637cc0fee6116101c65780637cc0fee61461069b57806381045ead146106ae5780638356ca4f146106b657806383a5683a146106c957806389f395de146106dc578063900cf0cf146106ef57806391d14854146107125780639483c1d71461072557806396f1557c1461072d57806397b4293714610740578063980b1097146107535780639a202d47146107665780639a794e661461076e5780639e9e792f14610781578063a052e69e146107a1578063a1c95e5a146107aa578063a217fddf146107bd578063a694fc3a146107c5578063a7110dc3146107d8578063a89aa6a814610803578063b24352b114610816578063b84ef08114610829578063b88ad1e31461083c578063bba4307e1461084f578063bbad8ac914610862578063be72f2d314610875578063c68450bf1461087d578063ca16910f14610890578063d547741f146108a3578063d7fe4a49146108b6578063e6500b21146108c9578063e75f77e1146108d1578063f1c8c922146108e4578063f47f2f1d146108f7578063f55813821461090a578063fad1c85c14610913578063fc7e9c6f1461092657600080fd5b806301ffc9a714610358578063037859af146103805780630e1e998f146103a057806311f1c8bf146103b757806317ed177a146103ca5780631e725567146103dd57806322985246146103f2578063248a9ca31461040757806324d7806c1461041a578063265705b11461042d57806328ea9ff0146104405780632e17de78146104485780632f2ff15d1461045b57806330e06e8b1461046e578063332b01f31461047657806336568abe14610489578063385030b41461049c57806340a5737f146104a557806341c04d5e146104b857806347e1b372146104cd57806349ec9883146104d55780634e533572146104e85780634e6c4466146105655780635720bf3a146105905780635746248f146105995780635dc3c29a146105ac5780635f338352146105f357806361d027b3146105fb57806365cb3a831461060e5780636d1c789f14610616578063704802751461061f57806370a082311461063257806375829def1461064557806375b238fc1461065857806377d73dc61461067f57806378ad140514610692575b600080fd5b61036b610366366004614f95565b61092e565b60405190151581526020015b60405180910390f35b61039361038e366004614d37565b610965565b60405161037791906151c8565b6103a9600b5481565b604051908152602001610377565b6103a96103c5366004614f52565b6109d1565b6103a96103d8366004614f52565b6109ec565b6103f06103eb366004614fd5565b610a01565b005b6103a960008051602061571b83398151915281565b6103a9610415366004614f52565b610ca5565b61036b610428366004614d37565b610cba565b6103f061043b366004614d51565b610cd4565b6103a9610e2f565b6103f0610456366004614f52565b610f8d565b6103f0610469366004614f6a565b611240565b6103a9611262565b6103a9610484366004614dbc565b61131b565b6103f0610497366004614f6a565b6114ae565b6103a9600a5481565b6103f06104b3366004614f52565b61152c565b6103a960008051602061569b83398151915281565b6103f0611556565b6103f06104e3366004614f52565b61172f565b6105546104f6366004614f52565b6000908152600f6020908152604091829020825160a08101845281546001600160a01b031680825260018301549382018490526002830154948201859052600383015460608301819052600490930154608090920182905294929392565b60405161037795949392919061519a565b600354610578906001600160a01b031681565b6040516001600160a01b039091168152602001610377565b6103a960095481565b6103a96105a7366004614d93565b611759565b6105546105ba366004614f52565b600f60205260009081526040902080546001820154600283015460038401546004909401546001600160a01b0390931693919290919085565b6103a961178a565b600454610578906001600160a01b031681565b6103f061179c565b6103a9600c5481565b6103f061062d366004614d37565b6117d9565b6103a9610640366004614d37565b611819565b6103f0610653366004614d37565b6118ef565b6103a97fdf8b4c520ffe197c5343c6f5aec59570151ef9a492f2c624fd45ddde6135ec4281565b6103a961068d366004614f52565b6119a2565b6103a960055481565b6103a96106a9366004614f52565b6119c4565b6005546103a9565b6103f06106c4366004614d37565b611a18565b6103f06106d7366004614fd5565b611aa2565b600254610578906001600160a01b031681565b6000546001546106fd919082565b60408051928352602083019190915201610377565b61036b610720366004614f6a565b611c5c565b6103a9611c87565b6103f061073b366004614d37565b611caa565b6103a961074e366004614f52565b611cda565b6103a9610761366004614df4565b611cf3565b6103f0611fec565b6103f061077c366004614ef3565b612038565b6103a961078f366004614f52565b60106020526000908152604090205481565b6103a960085481565b6103a96107b8366004614f52565b6120c6565b6103a9600081565b6103a96107d3366004614f52565b6120d1565b6103a96107e6366004614d93565b600e60209081526000928352604080842090915290825290205481565b6103a9610811366004614f52565b6121b8565b6103f0610824366004615071565b6121fd565b6103f0610837366004614d37565b6125ae565b6103f061084a366004615019565b6125eb565b6103f061085d366004614fd5565b612cb6565b6103f0610870366004614fd5565b612ef6565b6103f0613278565b6103f061088b366004614e35565b6132a8565b6103a961089e366004614fd5565b6134c3565b6103f06108b1366004614f6a565b613682565b6103f06108c4366004615019565b61369f565b6103a9613a14565b6103f06108df366004614f52565b613ac3565b6103f06108f2366004614d37565b613b4c565b61036b610905366004614d37565b613bf0565b6103a960075481565b61036b610921366004614d37565b613bfc565b6103a9613c16565b60006001600160e01b03198216637965db0b60e01b148061095f57506301ffc9a760e01b6001600160e01b03198316145b92915050565b6001600160a01b0381166000908152600d60209081526040918290208054835181840281018401909452808452606093928301828280156109c557602002820191906000526020600020905b8154815260200190600101908083116109b1575b50505050509050919050565b6000818152600f602052604081206002015461095f90611cda565b6000908152600f602052604090206002015490565b8180610a285760405162461bcd60e51b8152600401610a1f9061548e565b60405180910390fd5b8180610a465760405162461bcd60e51b8152600401610a1f9061548e565b60008481526010602052604090205415610aa25760405162461bcd60e51b815260206004820152601d60248201527f7468697320697320666f72206e6f6e2d6c6f636b2070726f647563742e0000006044820152606401610a1f565b6000848152600f6020526040902080546001600160a01b03163314610ad95760405162461bcd60e51b8152600401610a1f90615395565b42816003015410610b275760405162461bcd60e51b815260206004820152601860248201527732b732103a34b6b2903430b9903737ba103830b9b9b2b21760411b6044820152606401610a1f565b610b2f611556565b6000610b3e8260020154611cda565b905080851115610b605760405162461bcd60e51b8152600401610a1f90615459565b6000610b6b866119a2565b905060008360010154831115610b8d576001840154610b8a908461560f565b90505b81846002016000828254610ba1919061560f565b925050819055508160076000828254610bba919061560f565b909155505060018401548790610bd19083906155b8565b610bdb919061560f565b60018501556008548790610bf09083906155b8565b610bfa919061560f565b60085560048054604051632a97f1e560e21b81526001600160a01b039091169163aa5fc79491610c2e9133918c9101615181565b600060405180830381600087803b158015610c4857600080fd5b505af1158015610c5c573d6000803e3d6000fd5b505050507f5ac7224c417abee0b26a4daa9b5221c45297a5429fc56e11bc9170dabc15d33c33888a604051610c939392919061512d565b60405180910390a15050505050505050565b60009081526011602052604090206001015490565b600061095f60008051602061569b83398151915283611c5c565b610cdd33613bfc565b610cf95760405162461bcd60e51b8152600401610a1f906154ba565b826001600160a01b038116610d205760405162461bcd60e51b8152600401610a1f90615366565b826001600160a01b038116610d475760405162461bcd60e51b8152600401610a1f90615366565b826001600160a01b038116610d6e5760405162461bcd60e51b8152600401610a1f90615366565b6002546001600160a01b038781169116141580610d9957506003546001600160a01b03868116911614155b80610db257506004546001600160a01b03858116911614155b610ded5760405162461bcd60e51b815260206004820152600c60248201526b73616d65206164647265737360a01b6044820152606401610a1f565b5050600280546001600160a01b039586166001600160a01b03199182161790915560038054948616948216949094179093555060048054919093169116179055565b60015460009081904210610f885760008054600154610e4e904261560f565b610e5891906155d0565b905080610e6481615669565b9150508060011415610e7f57610e78613c16565b9150610f0f565b6005546009546040516379e42f5d60e11b815273__$23c3f0c4d39c3898c699ac978f80cfe781$__9263f3c85eba92610ebc9286906004016155a2565b60206040518083038186803b158015610ed457600080fd5b505af4158015610ee8573d6000803e3d6000fd5b505050506040513d601f19601f82011682018060405250810190610f0c9190614fbd565b91505b6000610f19613a14565b90506000670de0b6b3a764000060055485610f34919061560f565b600754610f4191906155f0565b610f4b91906155d0565b905081811115610f8457600554600754610f6590846155d0565b610f7790670de0b6b3a76400006155f0565b610f8191906155b8565b93505b5050505b919050565b8080610fab5760405162461bcd60e51b8152600401610a1f9061548e565b6000828152600f6020526040902080546001600160a01b0316331461100a5760405162461bcd60e51b815260206004820152601560248201527431b0b63632b91034b9903737ba1039ba30b5b2b91760591b6044820152606401610a1f565b428160030154106110575760405162461bcd60e51b815260206004820152601760248201527632b732103a34b6b2903430b9b713ba103830b9b9b2b21760491b6044820152606401610a1f565b61105f611556565b600061106a846121b8565b9050600081116110b45760405162461bcd60e51b81526020600482015260156024820152741e995c9bc818db185a5b58589b1948185b5bdd5b9d605a1b6044820152606401610a1f565b8160010154600860008282546110ca919061560f565b90915550506002820154600780546000906110e690849061560f565b90915550600090506110f83386613c4e565b90506111048582613df9565b6000858152601060205260409020541561119b576003546000868152601060205260409081902054905163c0a37b3f60e01b81526001600160a01b039092169163c0a37b3f9161115991339190600401615181565b600060405180830381600087803b15801561117357600080fd5b505af1158015611187573d6000803e3d6000fd5b505050600086815260106020526040812055505b60048054604051632a97f1e560e21b81526001600160a01b039091169163aa5fc794916111cc913391879101615181565b600060405180830381600087803b1580156111e657600080fd5b505af11580156111fa573d6000803e3d6000fd5b505050507f7fc4727e062e336010f2c282598ef5f14facb3de68cf8195c2f23e1454b2b74e3383876040516112319392919061512d565b60405180910390a15050505050565b61124982610ca5565b6112538133613e7b565b61125d8383613edf565b505050565b6004546000906001600160a01b0316634cf158586009336040518363ffffffff1660e01b815260040161129692919061558b565b60206040518083038186803b1580156112ae57600080fd5b505afa1580156112c2573d6000803e3d6000fd5b505050506040513d601f19601f820116820180604052508101906112e69190614f32565b6113025760405162461bcd60e51b8152600401610a1f906153f3565b600c805490600061131283615669565b91905055905090565b6004546000906001600160a01b0316634cf158586009336040518363ffffffff1660e01b815260040161134f92919061558b565b60206040518083038186803b15801561136757600080fd5b505afa15801561137b573d6000803e3d6000fd5b505050506040513d601f19601f8201168201806040525081019061139f9190614f32565b6113bb5760405162461bcd60e51b8152600401610a1f906153f3565b846001600160a01b0381166113e25760405162461bcd60e51b8152600401610a1f90615366565b84806114005760405162461bcd60e51b8152600401610a1f9061548e565b848061141e5760405162461bcd60e51b8152600401610a1f9061548e565b61142788613f65565b61142f61400b565b935061143b8885614026565b611443611556565b600061145f89868a600a544261145991906155b8565b8b614069565b90507f10b677c7a9f17c8fa541bdcc53b14beb96651665c3ef380c8df860dbd8f3545e8989838a898b60405161149a9695949392919061514e565b60405180910390a150505050949350505050565b6001600160a01b038116331461151e5760405162461bcd60e51b815260206004820152602f60248201527f416363657373436f6e74726f6c3a2063616e206f6e6c792072656e6f756e636560448201526e103937b632b9903337b91039b2b63360891b6064820152608401610a1f565b6115288282614153565b5050565b61153533613bfc565b6115515760405162461bcd60e51b8152600401610a1f906154ba565b600555565b600154421061172d5760008054600154611570904261560f565b111561159357600054600154611586904261560f565b61159091906155d0565b90505b8061159d81615669565b6000549092506115af915082906155f0565b600180546000906115c19084906155b8565b909155505060055460018214156115e1576115da613c16565b9050611671565b6005546009546040516379e42f5d60e11b815273__$23c3f0c4d39c3898c699ac978f80cfe781$__9263f3c85eba9261161e9287906004016155a2565b60206040518083038186803b15801561163657600080fd5b505af415801561164a573d6000803e3d6000fd5b505050506040513d601f19601f8201168201806040525081019061166e9190614fbd565b90505b600061167b613a14565b6005549091506000670de0b6b3a7640000611696838661560f565b6007546116a391906155f0565b6116ad91906155d0565b90508281116116eb5760058490556007546040516000805160206156bb833981519152916116de91859188916155a2565b60405180910390a1611727565b6007546116f890846155d0565b61170290836155b8565b93506000805160206156bb8339815191528285600754604051611231939291906155a2565b50505050505b565b61173833613bfc565b6117545760405162461bcd60e51b8152600401610a1f906154ba565b600955565b600d602052816000526040600020818154811061177557600080fd5b90600052602060002001600091509150505481565b6000611797600754611cda565b905090565b6117a533613bfc565b6117c15760405162461bcd60e51b8152600401610a1f906154ba565b61172d60008051602061571b833981519152336114ae565b6117e233613bf0565b6117fe5760405162461bcd60e51b8152600401610a1f906152db565b61181660008051602061569b83398151915282611240565b50565b6001600160a01b0381166000908152600d602090815260408083208054825181850281018501909352808352849383018282801561187657602002820191906000526020600020905b815481526020019060010190808311611862575b505050505090508051600014156118905750600092915050565b60005b81518110156118e8576118cc8282815181106118bf57634e487b7160e01b600052603260045260246000fd5b60200260200101516120c6565b6118d690846155b8565b92506118e181615669565b9050611893565b5050919050565b6118f833610cba565b80611907575061190733613bf0565b6119235760405162461bcd60e51b8152600401610a1f90615267565b6001600160a01b0381166119495760405162461bcd60e51b8152600401610a1f906152a9565b336001600160a01b03821614156119725760405162461bcd60e51b8152600401610a1f906153c3565b61198a60008051602061569b83398151915282611240565b61181660008051602061569b833981519152336114ae565b6005546000906119ba83670de0b6b3a76400006155f0565b61095f91906155d0565b600081806119e45760405162461bcd60e51b8152600401610a1f9061548e565b6000838152600f6020526040902060030154421115611a0d57611a06836109ec565b9150611a12565b600091505b50919050565b611a2133613bf0565b611a3d5760405162461bcd60e51b8152600401610a1f906152db565b6001600160a01b038116611a635760405162461bcd60e51b8152600401610a1f906152a9565b336001600160a01b0382161415611a8c5760405162461bcd60e51b8152600401610a1f906153c3565b611a97600082611240565b6118166000336114ae565b8180611ac05760405162461bcd60e51b8152600401610a1f9061548e565b8180611ade5760405162461bcd60e51b8152600401610a1f9061548e565b6000848152600f6020526040902080546001600160a01b03163314611b155760405162461bcd60e51b8152600401610a1f90615395565b336000908152600e60209081526040808320888452909152902054600114611b7f5760405162461bcd60e51b815260206004820152601f60248201527f69742773206e6f742073696d706c65207374616b696e672070726f64756374006044820152606401610a1f565b611b87611556565b6000611b92856119a2565b905084826001016000828254611ba891906155b8565b9250508190555080826002016000828254611bc391906155b8565b925050819055508460086000828254611bdc91906155b8565b925050819055508060076000828254611bf591906155b8565b9091555050600454600254611c19916001600160a01b0391821691339116886141ba565b7f3580fad54ac878fb39f354ed4980379c99975b958cc12f96c2342daf1a943384338688604051611c4c9392919061512d565b60405180910390a1505050505050565b60009182526011602090815260408084206001600160a01b0393909316845291905290205460ff1690565b6000426000600101541015611c9c5750600090565b60015461179790429061560f565b611cb333613bf0565b611ccf5760405162461bcd60e51b8152600401610a1f906152db565b6118166000826142d5565b6000670de0b6b3a7640000600554836119ba91906155f0565b6004546000906001600160a01b0316634cf158586009336040518363ffffffff1660e01b8152600401611d2792919061558b565b60206040518083038186803b158015611d3f57600080fd5b505afa158015611d53573d6000803e3d6000fd5b505050506040513d601f19601f82011682018060405250810190611d779190614f32565b611d935760405162461bcd60e51b8152600401610a1f906153f3565b856001600160a01b038116611dba5760405162461bcd60e51b8152600401610a1f90615366565b600086118015611dca5750600084115b8015611dd65750600085115b611df25760405162461bcd60e51b8152600401610a1f90615503565b6003546040516316045cb160e31b8152600091829173__$23c3f0c4d39c3898c699ac978f80cfe781$__9163b022e58891611e3d916001600160a01b03169042908b9060040161512d565b604080518083038186803b158015611e5457600080fd5b505af4158015611e68573d6000803e3d6000fd5b505050506040513d601f19601f82011682018060405250810190611e8c9190614ff6565b9150915060008211611ed55760405162461bcd60e51b81526020600482015260126024820152711e995c9bc81cdd1bdcd15c1bd8da155b9a5d60721b6044820152606401610a1f565b60008111611f175760405162461bcd60e51b815260206004820152600f60248201526e7a65726f20756e6c6f636b54696d6560881b6044820152606401610a1f565b611f2089613f65565b611f2861400b565b9350611f348985614026565b611f3c611556565b6000611f4b8a868b858c614069565b90506000611f5b8b8b8a876142df565b60008781526010602090815260409182902083905581516001600160a01b038f1681529081018d9052908101849052606081018a9052608081018b905260a0810188905260c0810182905260e081018990529091507f01477f4d2bc42b2a9cab1d8d62fff240cb575ef03884aace04d6e6655d483861906101000160405180910390a1505050505095945050505050565b611ff533610cba565b80612004575061200433613bf0565b6120205760405162461bcd60e51b8152600401610a1f90615267565b61172d60008051602061569b833981519152336114ae565b806120735760405162461bcd60e51b815260206004820152600b60248201526a6e6f207374616b6549647360a81b6044820152606401610a1f565b8060005b818110156120c0576120ae8484838181106120a257634e487b7160e01b600052603260045260246000fd5b90506020020135610f8d565b806120b881615669565b915050612077565b50505050565b600061095f826109ec565b600081806120f15760405162461bcd60e51b8152600401610a1f9061548e565b600454600254612110916001600160a01b0391821691339116866141ba565b61211933613f65565b336000908152600d602052604090208054600190811061214957634e487b7160e01b600052603260045260246000fd5b9060005260206000200154915061215e611556565b61217633838561216f4260016155b8565b6000614069565b507f1449c6dd7851abc30abf37f57715f492010519147cc2652fbc38202c18a6ee903384846040516121aa9392919061512d565b60405180910390a150919050565b600081806121d85760405162461bcd60e51b8152600401610a1f9061548e565b6000838152600f6020526040902060030154421115611a0d57611a0661074e846109ec565b600083118061220c5750600082115b806122175750600081115b6122335760405162461bcd60e51b8152600401610a1f9061523f565b600084815260106020908152604080832054600f835292819020815160a08101835281546001600160a01b0316808252600183015494820194909452600282015492810192909252600381015460608301526004015460808201529033146122ad5760405162461bcd60e51b8152600401610a1f90615395565b336000908152600e602090815260408083208984529091529020546001106122e75760405162461bcd60e51b8152600401610a1f90615323565b6122ef611556565b60006122fe8260400151611cda565b9050808511156123205760405162461bcd60e51b8152600401610a1f90615459565b821561233b5761233633888585606001516144cf565b61235e565b4282606001511061235e5760405162461bcd60e51b8152600401610a1f90615423565b851561238357600454600254612383916001600160a01b0391821691339116896141ba565b600080851561242b576003546040516316045cb160e31b815273__$23c3f0c4d39c3898c699ac978f80cfe781$__9163b022e588916123d2916001600160a01b03169042908b9060040161512d565b604080518083038186803b1580156123e957600080fd5b505af41580156123fd573d6000803e3d6000fd5b505050506040513d601f19601f820116820180604052508101906124219190614ff6565b90925090506124bb565b600360009054906101000a90046001600160a01b03166001600160a01b031663fd2dcecf6040518163ffffffff1660e01b815260040160206040518083038186803b15801561247957600080fd5b505afa15801561248d573d6000803e3d6000fd5b505050506040513d601f19601f820116820180604052508101906124b19190614fbd565b9150836060015190505b6124c789828a8a6145f3565b6000898715612508576124da8a866155b8565b94506124e6898661560f565b94506124f433868a876142df565b600082815260106020526040902081905591505b88156125725760048054604051632a97f1e560e21b81526001600160a01b039091169163aa5fc7949161253f9133918e9101615181565b600060405180830381600087803b15801561255957600080fd5b505af115801561256d573d6000803e3d6000fd5b505050505b6000805160206156db833981519152338b8b8b85876040516125999695949392919061514e565b60405180910390a15050505050505050505050565b6125b733613bf0565b6125d35760405162461bcd60e51b8152600401610a1f906152db565b61181660008051602061571b83398151915282611240565b82806126095760405162461bcd60e51b8152600401610a1f9061548e565b60008311806126185750600082115b6126645760405162461bcd60e51b815260206004820152601d60248201527f7a65726f205f616d6f756e7420616e64205f756e6c6f636b5765656b730000006044820152606401610a1f565b6000848152600f6020908152604091829020825160a08101845281546001600160a01b03168082526001830154938201939093526002820154938101939093526003810154606084015260040154608083015233146126d55760405162461bcd60e51b8152600401610a1f90615395565b821561275657336000908152600e602090815260408083208884529091529020546001106127565760405162461bcd60e51b815260206004820152602860248201527f697427732073696d706c65207374616b696e672070726f647563742c2063616e60448201526713ba103637b1b59760c11b6064820152608401610a1f565b61275e611556565b61276a33868686614861565b6003546040805163fd2dcecf60e01b815290516000926001600160a01b03169163fd2dcecf916004808301926020929190829003018186803b1580156127af57600080fd5b505afa1580156127c3573d6000803e3d6000fd5b505050506040513d601f19601f820116820180604052508101906127e79190614fbd565b600087815260106020908152604080832054338452600e83528184208b85529092529091205491925090600110801561281e575080155b801561282a5750600085115b15612864576128503361283f61074e8a6109ec565b61284990896155b8565b87856142df565b600088815260106020526040902055612c80565b336000908152600e602090815260408083208a8452909152902054600110801561288e5750600081115b15612c8057600354604051639ce5630560e01b81526004810183905260009182916001600160a01b0390911690639ce563059060240160606040518083038186803b1580156128dc57600080fd5b505afa1580156128f0573d6000803e3d6000fd5b505050506040513d601f19601f820116820180604052508101906129149190615044565b9250925050428211801561292b5750428560600151115b6129475760405162461bcd60e51b8152600401610a1f90615527565b86612a6a5760008054606087015161296090429061560f565b61296a91906155d0565b6009546040516379e42f5d60e11b815291925060009173__$23c3f0c4d39c3898c699ac978f80cfe781$__9163f3c85eba916129ac918e9187906004016155a2565b60206040518083038186803b1580156129c457600080fd5b505af41580156129d8573d6000803e3d6000fd5b505050506040513d601f19601f820116820180604052508101906129fc9190614fbd565b60035460405163077f15b960e51b81529192506001600160a01b03169063efe2b72090612a319033908990869060040161512d565b600060405180830381600087803b158015612a4b57600080fd5b505af1158015612a5f573d6000803e3d6000fd5b505050505050612c7d565b8615612c7d576000805481908190612a82888c6155f0565b612a8c91906155d0565b6009546040516379e42f5d60e11b815291925073__$23c3f0c4d39c3898c699ac978f80cfe781$__9163f3c85eba91612acc9188919086906004016155a2565b60206040518083038186803b158015612ae457600080fd5b505af4158015612af8573d6000803e3d6000fd5b505050506040513d601f19601f82011682018060405250810190612b1c9190614fbd565b9250612b28848461560f565b92508a15612bef5760008054612b3e898d6155f0565b612b48428961560f565b612b5291906155b8565b612b5c91906155d0565b905073__$23c3f0c4d39c3898c699ac978f80cfe781$__63f3c85eba8d600954846040518463ffffffff1660e01b8152600401612b9b939291906155a2565b60206040518083038186803b158015612bb357600080fd5b505af4158015612bc7573d6000803e3d6000fd5b505050506040513d601f19601f82011682018060405250810190612beb9190614fbd565b9250505b6003546001600160a01b031663b839c0a53388612c0c86886155b8565b6040516001600160e01b031960e086901b1681526001600160a01b03909316600484015260248301919091526044820152606481018d9052608401600060405180830381600087803b158015612c6157600080fd5b505af1158015612c75573d6000803e3d6000fd5b505050505050505b50505b6000805160206156fb8339815191523387878a85604051612ca595949392919061519a565b60405180910390a150505050505050565b60008111612cd65760405162461bcd60e51b8152600401610a1f90615503565b6000828152600f6020526040902080546001600160a01b03163314612d0d5760405162461bcd60e51b8152600401610a1f90615395565b336000908152600e60209081526040808320868452909152902054600110612d475760405162461bcd60e51b8152600401610a1f90615323565b612d4f611556565b6000612d5e8260020154611cda565b905080831115612d805760405162461bcd60e51b8152600401610a1f90615459565b60008481526010602052604090205480612dbc5742836003015410612db75760405162461bcd60e51b8152600401610a1f90615423565b612dcc565b612dcc33868386600301546144cf565b6000612dd7856119a2565b905060008460010154841115612df9576001850154612df6908561560f565b90505b81856002016000828254612e0d919061560f565b925050819055508160076000828254612e26919061560f565b909155505060018501548690612e3d9083906155b8565b612e47919061560f565b60018601556008548690612e5c9083906155b8565b612e66919061560f565b60085560048054604051632a97f1e560e21b81526001600160a01b039091169163aa5fc79491612e9a9133918b9101615181565b600060405180830381600087803b158015612eb457600080fd5b505af1158015612ec8573d6000803e3d6000fd5b505050506000805160206156db8339815191523360008860008b6000604051612ca59695949392919061514e565b8180612f145760405162461bcd60e51b8152600401610a1f9061548e565b8180612f325760405162461bcd60e51b8152600401610a1f9061548e565b6000848152600f6020526040902080546001600160a01b03163314612f695760405162461bcd60e51b8152600401610a1f90615395565b600454600254612f88916001600160a01b0391821691339116876141ba565b612f90611556565b6000612f9b856119a2565b905084826001016000828254612fb191906155b8565b9250508190555080826002016000828254612fcc91906155b8565b925050819055508460086000828254612fe591906155b8565b925050819055508060076000828254612ffe91906155b8565b9091555050600086815260106020908152604080832054338452600e83528184208a85529092529091205460011080156130385750600081115b1561325257600354604051639ce5630560e01b8152600481018390526000916001600160a01b031690639ce563059060240160606040518083038186803b15801561308257600080fd5b505afa158015613096573d6000803e3d6000fd5b505050506040513d601f19601f820116820180604052508101906130ba9190615044565b5091505042811180156130d05750428460030154115b6130ec5760405162461bcd60e51b8152600401610a1f90615527565b60008054600386015461310090429061560f565b61310a91906155d0565b905087600182141561315057670de0b6b3a7640000600954670de0b6b3a764000061313591906155b8565b61313f908b6155f0565b61314991906155d0565b90506131e8565b60018211156131e8576009546040516379e42f5d60e11b815273__$23c3f0c4d39c3898c699ac978f80cfe781$__9163f3c85eba91613195918d9187906004016155a2565b60206040518083038186803b1580156131ad57600080fd5b505af41580156131c1573d6000803e3d6000fd5b505050506040513d601f19601f820116820180604052508101906131e59190614fbd565b90505b60035460405163077f15b960e51b81526001600160a01b039091169063efe2b7209061321c9033908890869060040161512d565b600060405180830381600087803b15801561323657600080fd5b505af115801561324a573d6000803e3d6000fd5b505050505050505b6000805160206156fb833981519152338760008a85604051612ca595949392919061519a565b61328133613bf0565b61329d5760405162461bcd60e51b8152600401610a1f906152db565b61172d6000336114ae565b6132b133610cba565b806132c057506132c033613bf0565b6132dc5760405162461bcd60e51b8152600401610a1f90615267565b866133175760405162461bcd60e51b815260206004820152600b60248201526a0f4cae4de40d8cadccee8d60ab1b6044820152606401610a1f565b86851461335d5760405162461bcd60e51b81526020600482015260146024820152730eee4dedcce40c4c2d8c2dcc6ca40d8cadccee8d60631b6044820152606401610a1f565b8683146133a25760405162461bcd60e51b81526020600482015260136024820152720eee4dedcce40e0cae4d2dec840d8cadccee8d606b1b6044820152606401610a1f565b8681146133e85760405162461bcd60e51b81526020600482015260146024820152730eee4dedcce40e8ded6cadc92c840d8cadccee8d60631b6044820152606401610a1f565b60005b878110156134b8576134a589898381811061341657634e487b7160e01b600052603260045260246000fd5b905060200201602081019061342b9190614d37565b88888481811061344b57634e487b7160e01b600052603260045260246000fd5b9050602002013587878581811061347257634e487b7160e01b600052603260045260246000fd5b9050602002013586868681811061349957634e487b7160e01b600052603260045260246000fd5b90506020020135614935565b50806134b081615669565b9150506133eb565b505050505050505050565b600082806134e35760405162461bcd60e51b8152600401610a1f9061548e565b82806135015760405162461bcd60e51b8152600401610a1f9061548e565b600954806135215760405162461bcd60e51b8152600401610a1f9061548e565b6003546040516316045cb160e31b8152600091829173__$23c3f0c4d39c3898c699ac978f80cfe781$__9163b022e5889161356c916001600160a01b03169042908c9060040161512d565b604080518083038186803b15801561358357600080fd5b505af4158015613597573d6000803e3d6000fd5b505050506040513d601f19601f820116820180604052508101906135bb9190614ff6565b6004546002549294509092506135e0916001600160a01b03908116913391168b6141ba565b6135e933613f65565b6135f161400b565b95506135fd3387614026565b613605611556565b61361333878a846000614069565b506000613622338a8a866142df565b60008881526010602052604090819020829055519091507f354a6b3cd6afbe9ef2b8c8bbc20901d395d112a1891737da4aff281b283cca429061366e9033908c908c908c90879061519a565b60405180910390a150505050505092915050565b61368b82610ca5565b6136958133613e7b565b61125d8383614153565b60008211806136ae5750600081115b6136ca5760405162461bcd60e51b8152600401610a1f9061523f565b6000838152600f6020526040902080546001600160a01b031633146137015760405162461bcd60e51b8152600401610a1f90615395565b336000908152600e6020908152604080832087845290915290205460011061373b5760405162461bcd60e51b8152600401610a1f90615323565b60008481526010602052604090205480156137655761376033868385600301546144cf565b613788565b428260030154106137885760405162461bcd60e51b8152600401610a1f90615423565b83156137ad576004546002546137ad916001600160a01b0391821691339116876141ba565b6000808415613855576003546040516316045cb160e31b815273__$23c3f0c4d39c3898c699ac978f80cfe781$__9163b022e588916137fc916001600160a01b03169042908a9060040161512d565b604080518083038186803b15801561381357600080fd5b505af4158015613827573d6000803e3d6000fd5b505050506040513d601f19601f8201168201806040525081019061384b9190614ff6565b90925090506138e5565b600360009054906101000a90046001600160a01b03166001600160a01b031663fd2dcecf6040518163ffffffff1660e01b815260040160206040518083038186803b1580156138a357600080fd5b505afa1580156138b7573d6000803e3d6000fd5b505050506040513d601f19601f820116820180604052508101906138db9190614fbd565b9150836003015490505b6138ed611556565b60006138fc8560020154611cda565b90506000613909886119a2565b90506000866001015483111561392b576001870154613928908461560f565b90505b8187600201600082825461393f91906155b8565b9091555050600387018490556001870154819061395d908b906155b8565b61396791906155b8565b6001880155600854819061397c908b906155b8565b61398691906155b8565b600881905550816007600082825461399e91906155b8565b90915550600090508a89156139d6576139c2336139bb8d886155b8565b8c8a6142df565b600082815260106020526040902081905591505b6000805160206156db833981519152338c60008d85876040516139fe9695949392919061514e565b60405180910390a1505050505050505050505050565b600480546040805163688d653160e11b8152905160009384936001600160a01b03169263d11aca629281830192602092829003018186803b158015613a5857600080fd5b505afa158015613a6c573d6000803e3d6000fd5b505050506040513d601f19601f82011682018060405250810190613a909190614fbd565b90506000613a9f600754611cda565b905080821015613ab25760009250505090565b613abc818361560f565b9250505090565b613acc33613bfc565b613ae85760405162461bcd60e51b8152600401610a1f906154ba565b8080613b065760405162461bcd60e51b8152600401610a1f9061548e565b81600a541415613b465760405162461bcd60e51b815260206004820152600b60248201526a1cd85b59481c195c9a5bd960aa1b6044820152606401610a1f565b50600a55565b613b5533613bfc565b613b715760405162461bcd60e51b8152600401610a1f906154ba565b6001600160a01b038116613b975760405162461bcd60e51b8152600401610a1f906152a9565b336001600160a01b0382161415613bc05760405162461bcd60e51b8152600401610a1f906153c3565b613bd860008051602061571b83398151915282611240565b61181660008051602061571b833981519152336114ae565b600061095f8183611c5c565b600061095f60008051602061571b83398151915283611c5c565b6000670de0b6b3a7640000600954670de0b6b3a7640000613c3791906155b8565b600554613c4491906155f0565b61179791906155d0565b6001600160a01b0382166000908152600e60209081526040808320848452909152902054600181118015613c9957506001600160a01b0383166000908152600d602052604090205481105b1561095f576001600160a01b0383166000908152600d6020526040902054613cc39060019061560f565b811015613d92576001600160a01b0383166000908152600d602052604081208054613cf09060019061560f565b81548110613d0e57634e487b7160e01b600052603260045260246000fd5b9060005260206000200154905080600d6000866001600160a01b03166001600160a01b031681526020019081526020016000208381548110613d6057634e487b7160e01b600052603260045260246000fd5b60009182526020808320909101929092556001600160a01b0386168152600e8252604080822093825292909152208190555b6001600160a01b0383166000818152600e602090815260408083208684528252808320839055928252600d905220805480613ddd57634e487b7160e01b600052603160045260246000fd5b6001900381819060005260206000200160009055905592915050565b6001811115613e3a57506000908152600f6020526040812080546001600160a01b031916815560018101829055600281018290556003810182905560040155565b806001141561152857506000908152600f6020526040812080546001600160a01b031916815560018101829055600281018290556003810182905560040155565b613e858282611c5c565b61152857613e9d816001600160a01b031660146149ba565b613ea88360206149ba565b604051602001613eb99291906150be565b60408051601f198184030181529082905262461bcd60e51b8252610a1f9160040161520c565b613ee98282611c5c565b6115285760008281526011602090815260408083206001600160a01b03851684529091529020805460ff19166001179055613f213390565b6001600160a01b0316816001600160a01b0316837f2f8788117e7eff1d82e926ec794901d17c78024a50270940304540a733656f0d60405160405180910390a45050565b6001600160a01b0381166000908152600d6020526040902054611816576001600160a01b0381166000908152600d602090815260408220805460018101825590835290822001819055600b805491613fbc83615669565b90915550506001600160a01b03166000818152600e60209081526040808320600b80548552908352818420600190819055948452600d8352908320905481549485018255908352912090910155565b6000600b6000815461401c90615669565b9182905550919050565b6001600160a01b039091166000908152600d602081815260408084208054600e845282862087875284529185208290559282526001810183559183529091200155565b600060065460011461408d5760405162461bcd60e51b8152600401610a1f90615559565b6000600681905561409d856119a2565b6040805160a0810182526001600160a01b038a8116825260208083018a8152838501868152606085018b8152608086018b815260008f8152600f909552968420955186546001600160a01b0319169516949094178555905160018501555160028401559051600383015591516004909101556008805492935087929091906141269084906155b8565b92505081905550806007600082825461413f91906155b8565b909155505060016006559695505050505050565b61415d8282611c5c565b156115285760008281526011602090815260408083206001600160a01b0385168085529252808320805460ff1916905551339285917ff6391f5c32d9c69d2a47ea670b442974b53935d1edc7fd64eb21e047a839171b9190a45050565b604080516001600160a01b0385811660248301528481166044830152606480830185905283518084039091018152608490920183526020820180516001600160e01b03166323b872dd60e01b179052915160009283929088169161421e91906150a2565b6000604051808303816000865af19150503d806000811461425b576040519150601f19603f3d011682016040523d82523d6000602084013e614260565b606091505b509150915081801561428a57508051158061428a57508080602001905181019061428a9190614f32565b6142cd5760405162461bcd60e51b81526020600482015260146024820152731514905394d1915497d19493d357d1905253115160621b6044820152606401610a1f565b505050505050565b6115288282613edf565b60006006546001146143035760405162461bcd60e51b8152600401610a1f90615559565b60006006819055600954815473__$23c3f0c4d39c3898c699ac978f80cfe781$__9163f3c85eba91889190614338888a6155f0565b61434291906155d0565b6040518463ffffffff1660e01b8152600401614360939291906155a2565b60206040518083038186803b15801561437857600080fd5b505af415801561438c573d6000803e3d6000fd5b505050506040513d601f19601f820116820180604052508101906143b09190614fbd565b9050600081116143fb5760405162461bcd60e51b81526020600482015260166024820152751e995c9bc818dbdb5c1bdd5b99195908185b5bdd5b9d60521b6044820152606401610a1f565b60035460405163036e72c360e21b81526001600160a01b0390911690630db9cb0c9061442f9089908590899060040161512d565b602060405180830381600087803b15801561444957600080fd5b505af115801561445d573d6000803e3d6000fd5b505050506040513d601f19601f820116820180604052508101906144819190614fbd565b9150600082116144c15760405162461bcd60e51b815260206004820152600b60248201526a1e995c9bc81cdd1bdcd25960aa1b6044820152606401610a1f565b506001600655949350505050565b600354604051639ce5630560e01b8152600481018490526000916001600160a01b031690639ce563059060240160606040518083038186803b15801561451457600080fd5b505afa158015614528573d6000803e3d6000fd5b505050506040513d601f19601f8201168201806040525081019061454c9190615044565b50915050428110801561455e57504282105b61457a5760405162461bcd60e51b8152600401610a1f90615423565b60035460405163c0a37b3f60e01b81526001600160a01b039091169063c0a37b3f906145ac9088908790600401615181565b600060405180830381600087803b1580156145c657600080fd5b505af11580156145da573d6000803e3d6000fd5b5050506000948552505060106020525050604081205550565b6006546001146146155760405162461bcd60e51b8152600401610a1f90615559565b60006006819055848152600f60205260409020821515806146365750600082115b806146415750600084115b61467c5760405162461bcd60e51b815260206004820152600c60248201526b7a65726f20416d6f756e747360a01b6044820152606401610a1f565b60008160020154116146bc5760405162461bcd60e51b81526020600482015260096024820152687a65726f206c746f7360b81b6044820152606401610a1f565b60006146cb8260020154611cda565b90508083111561471c5760405162461bcd60e51b815260206004820152601c60248201527b1cdd185ad948185b5bdd5b9d081a5cc81a5b9cdd59999a58da595b9d60221b6044820152606401610a1f565b60008085156147315761472e866119a2565b91505b841561474357614740856119a2565b90505b60038401879055600184015460009084111561476b576001850154614768908561560f565b90505b82156147a4578285600201600082825461478591906155b8565b92505081905550826007600082825461479e91906155b8565b90915550505b81156147dd57818560020160008282546147be919061560f565b9250508190555081600760008282546147d7919061560f565b90915550505b60008711806147ec5750600081115b806147f75750600086115b1561485157858188876001015461480e91906155b8565b61481891906155b8565b614822919061560f565b600186015560085486908290614839908a906155b8565b61484391906155b8565b61484d919061560f565b6008555b5050600160065550505050505050565b811561488657600454600254614886916001600160a01b0391821691879116856141ba565b600080821561492a576003546040516316045cb160e31b815273__$23c3f0c4d39c3898c699ac978f80cfe781$__9163b022e588916148d6916001600160a01b031690600090889060040161512d565b604080518083038186803b1580156148ed57600080fd5b505af4158015614901573d6000803e3d6000fd5b505050506040513d601f19601f820116820180604052508101906149259190614ff6565b925090505b6142cd858584614ba2565b600083806149555760405162461bcd60e51b8152600401610a1f9061548e565b83806149735760405162461bcd60e51b8152600401610a1f9061548e565b61497c87613f65565b61498461400b565b92506149908784614026565b61499e878488886000614069565b5050506000818152601060205260409020919091559392505050565b606060006149c98360026155f0565b6149d49060026155b8565b6001600160401b038111156149f957634e487b7160e01b600052604160045260246000fd5b6040519080825280601f01601f191660200182016040528015614a23576020820181803683370190505b509050600360fc1b81600081518110614a4c57634e487b7160e01b600052603260045260246000fd5b60200101906001600160f81b031916908160001a905350600f60fb1b81600181518110614a8957634e487b7160e01b600052603260045260246000fd5b60200101906001600160f81b031916908160001a9053506000614aad8460026155f0565b614ab89060016155b8565b90505b6001811115614b4c576f181899199a1a9b1b9c1cb0b131b232b360811b85600f1660108110614afa57634e487b7160e01b600052603260045260246000fd5b1a60f81b828281518110614b1e57634e487b7160e01b600052603260045260246000fd5b60200101906001600160f81b031916908160001a90535060049490941c93614b4581615652565b9050614abb565b508315614b9b5760405162461bcd60e51b815260206004820181905260248201527f537472696e67733a20686578206c656e67746820696e73756666696369656e746044820152606401610a1f565b9392505050565b600654600114614bc45760405162461bcd60e51b8152600401610a1f90615559565b600060065581151580614bd75750600081115b614c235760405162461bcd60e51b815260206004820181905260248201527f7a65726f20616d6f756e7420616e64205f696e6372656173655365636f6e64736044820152606401610a1f565b6000838152600f602052604090208215614cac576000614c42846119a2565b905083826001016000828254614c5891906155b8565b9250508190555080826002016000828254614c7391906155b8565b925050819055508360086000828254614c8c91906155b8565b925050819055508060076000828254614ca591906155b8565b9091555050505b8115614ccc5781816003016000828254614cc691906155b8565b90915550505b505060016006555050565b80356001600160a01b0381168114610f8857600080fd5b60008083601f840112614cff578182fd5b5081356001600160401b03811115614d15578182fd5b6020830191508360208260051b8501011115614d3057600080fd5b9250929050565b600060208284031215614d48578081fd5b614b9b82614cd7565b600080600060608486031215614d65578182fd5b614d6e84614cd7565b9250614d7c60208501614cd7565b9150614d8a60408501614cd7565b90509250925092565b60008060408385031215614da5578182fd5b614dae83614cd7565b946020939093013593505050565b60008060008060808587031215614dd1578081fd5b614dda85614cd7565b966020860135965060408601359560600135945092505050565b600080600080600060a08688031215614e0b578081fd5b614e1486614cd7565b97602087013597506040870135966060810135965060800135945092505050565b6000806000806000806000806080898b031215614e50578283fd5b88356001600160401b0380821115614e66578485fd5b614e728c838d01614cee565b909a50985060208b0135915080821115614e8a578485fd5b614e968c838d01614cee565b909850965060408b0135915080821115614eae578485fd5b614eba8c838d01614cee565b909650945060608b0135915080821115614ed2578384fd5b50614edf8b828c01614cee565b999c989b5096995094979396929594505050565b60008060208385031215614f05578182fd5b82356001600160401b03811115614f1a578283fd5b614f2685828601614cee565b90969095509350505050565b600060208284031215614f43578081fd5b81518015158114614b9b578182fd5b600060208284031215614f63578081fd5b5035919050565b60008060408385031215614f7c578182fd5b82359150614f8c60208401614cd7565b90509250929050565b600060208284031215614fa6578081fd5b81356001600160e01b031981168114614b9b578182fd5b600060208284031215614fce578081fd5b5051919050565b60008060408385031215614fe7578081fd5b50508035926020909101359150565b60008060408385031215615008578182fd5b505080516020909101519092909150565b60008060006060848603121561502d578081fd5b505081359360208301359350604090920135919050565b600080600060608486031215615058578081fd5b8351925060208401519150604084015190509250925092565b60008060008060808587031215615086578182fd5b5050823594602084013594506040840135936060013592509050565b600082516150b4818460208701615626565b9190910192915050565b76020b1b1b2b9b9a1b7b73a3937b61d1030b1b1b7bab73a1604d1b8152600083516150f0816017850160208801615626565b7001034b99036b4b9b9b4b733903937b6329607d1b6017918401918201528351615121816028840160208801615626565b01602801949350505050565b6001600160a01b039390931683526020830191909152604082015260600190565b6001600160a01b03969096168652602086019490945260408501929092526060840152608083015260a082015260c00190565b6001600160a01b03929092168252602082015260400190565b6001600160a01b03959095168552602085019390935260408401919091526060830152608082015260a00190565b6020808252825182820181905260009190848201906040850190845b81811015615200578351835292840192918401916001016151e4565b50909695505050505050565b602081526000825180602084015261522b816040850160208701615626565b601f01601f19169190910160400192915050565b6020808252600e908201526d185b1b081e995c9bc81a5b9c1d5d60921b604082015260600190565b60208082526022908201527f41636365737369626c653a2043616c6c6572206973206e6f7420616e2061646d60408201526134b760f11b606082015260800190565b60208082526018908201527741636365737369626c653a207a65726f206164647265737360401b604082015260600190565b60208082526028908201527f41636365737369626c653a2043616c6c6572206973206e6f7420616e2070726f6040820152673c3c9030b236b4b760c11b606082015260800190565b60208082526023908201527f69742773206e6f7420666f722073696d706c65207374616b65206f7220656d706040820152623a3c9760e91b606082015260800190565b6020808252601590820152745374616b696e673a207a65726f206164647265737360581b604082015260600190565b60208082526014908201527331b0b63632b91034b9903737ba1039ba30b5b2b960611b604082015260600190565b60208082526016908201527520b1b1b2b9b9b4b136329d1039b0b6b29030b236b4b760511b604082015260600190565b60208082526016908201527539b2b73232b91034b9903737ba1030903137b73232b960511b604082015260600190565b6020808252601c908201527b1b1bd8dac8195b99081d1a5b59481a185cc81b9bdd081c185cdcd95960221b604082015260600190565b6020808252601b908201527a1c995b585a5b9959151bdcc81a5cc81a5b9cdd59999a58da595b9d602a1b604082015260600190565b60208082526012908201527114dd185ada5b99ce881e995c9bc81d5a5b9d60721b604082015260600190565b60208082526029908201527f41636365737369626c653a2043616c6c6572206973206e6f7420616e20706f6c60408201526834b1bc9030b236b4b760b91b606082015260800190565b6020808252600a90820152691e995c9bc81a5b9c1d5d60b21b604082015260600190565b6020808252601890820152771b1bd8dac8195b99081d1a5b59481a185cc81c185cdcd95960421b604082015260600190565b6020808252601890820152774c6f636b496420697320616c726561647920696e2075736560401b604082015260600190565b9182526001600160a01b0316602082015260400190565b9283526020830191909152604082015260600190565b600082198211156155cb576155cb615684565b500190565b6000826155eb57634e487b7160e01b81526012600452602481fd5b500490565b600081600019048311821515161561560a5761560a615684565b500290565b60008282101561562157615621615684565b500390565b60005b83811015615641578181015183820152602001615629565b838111156120c05750506000910152565b60008161566157615661615684565b506000190190565b600060001982141561567d5761567d615684565b5060010190565b634e487b7160e01b600052601160045260246000fdfe52eafc11f6f81f86878bffd31109a0d92f37506527754f00788853ff9f63b130d1a8a452d776b1b6802824ca2e8489c6448e2cb0963f552a9a19ab4ae064ca58bc7a4cb4698ff9bbd20c2fa066bd7234e4dbb886a81ea2f45677f5f942c6e9e88123201ee995a827ab51b6fa7437b3656f79bb6ce0ec96a8ec91516a33574206fb5864e8ff833c3cb2d2d08505e82ff02a43554c74a35d4f5a64e85261278311a2646970667358221220ce66bdac5a6c6f85e08f04ce3006f9ad9db9d7cf2e34e9d18862aaaa4ae2eac764736f6c63430008040033",
  "linkReferences": {
    "contracts/libraries/LibStaking.sol": {
      "LibStaking": [
        {
          "length": 20,
          "start": 3770
        },
        {
          "length": 20,
          "start": 5660
        },
        {
          "length": 20,
          "start": 7727
        },
        {
          "length": 20,
          "start": 9156
        },
        {
          "length": 20,
          "start": 10664
        },
        {
          "length": 20,
          "start": 10951
        },
        {
          "length": 20,
          "start": 11142
        },
        {
          "length": 20,
          "start": 12689
        },
        {
          "length": 20,
          "start": 13662
        },
        {
          "length": 20,
          "start": 14318
        },
        {
          "length": 20,
          "start": 17207
        },
        {
          "length": 20,
          "start": 18631
        }
      ]
    }
  },
  "deployedLinkReferences": {
    "contracts/libraries/LibStaking.sol": {
      "LibStaking": [
        {
          "length": 20,
          "start": 3732
        },
        {
          "length": 20,
          "start": 5622
        },
        {
          "length": 20,
          "start": 7689
        },
        {
          "length": 20,
          "start": 9118
        },
        {
          "length": 20,
          "start": 10626
        },
        {
          "length": 20,
          "start": 10913
        },
        {
          "length": 20,
          "start": 11104
        },
        {
          "length": 20,
          "start": 12651
        },
        {
          "length": 20,
          "start": 13624
        },
        {
          "length": 20,
          "start": 14280
        },
        {
          "length": 20,
          "start": 17169
        },
        {
          "length": 20,
          "start": 18593
        }
      ]
    }
  }
}