{
  "_format": "hh-sol-artifact-1",
  "contractName": "StakingV2",
  "sourceName": "contracts/StakingV2.sol",
  "abi": [
    {
      "inputs": [],
      "stateMutability": "nonpayable",
      "type": "constructor"
    },
    {
      "anonymous": false,
      "inputs": [
        {
          "indexed": false,
          "internalType": "address",
          "name": "staker",
          "type": "address"
        },
        {
          "indexed": false,
          "internalType": "uint256",
          "name": "claimAmount",
          "type": "uint256"
        },
        {
          "indexed": false,
          "internalType": "uint256",
          "name": "stakeId",
          "type": "uint256"
        }
      ],
      "name": "ClaimedForNonLock",
      "type": "event"
    },
    {
      "anonymous": false,
      "inputs": [
        {
          "indexed": false,
          "internalType": "address",
          "name": "to",
          "type": "address"
        },
        {
          "indexed": false,
          "internalType": "uint256",
          "name": "amount",
          "type": "uint256"
        },
        {
          "indexed": false,
          "internalType": "uint256",
          "name": "stakeId",
          "type": "uint256"
        }
      ],
      "name": "IncreasedAmountForSimpleStake",
      "type": "event"
    },
    {
      "anonymous": false,
      "inputs": [
        {
          "indexed": false,
          "internalType": "address",
          "name": "staker",
          "type": "address"
        },
        {
          "indexed": false,
          "internalType": "uint256",
          "name": "amount",
          "type": "uint256"
        },
        {
          "indexed": false,
          "internalType": "uint256",
          "name": "unlockWeeks",
          "type": "uint256"
        },
        {
          "indexed": false,
          "internalType": "uint256",
          "name": "stakeId",
          "type": "uint256"
        },
        {
          "indexed": false,
          "internalType": "uint256",
          "name": "stosId",
          "type": "uint256"
        },
        {
          "indexed": false,
          "internalType": "uint256",
          "name": "stosPrincipal",
          "type": "uint256"
        }
      ],
      "name": "IncreasedBeforeEndOrNonEnd",
      "type": "event"
    },
    {
      "anonymous": false,
      "inputs": [
        {
          "indexed": false,
          "internalType": "uint256",
          "name": "oldIndex",
          "type": "uint256"
        },
        {
          "indexed": false,
          "internalType": "uint256",
          "name": "newIndex",
          "type": "uint256"
        },
        {
          "indexed": false,
          "internalType": "uint256",
          "name": "totalLTOS",
          "type": "uint256"
        }
      ],
      "name": "Rebased",
      "type": "event"
    },
    {
      "anonymous": false,
      "inputs": [
        {
          "indexed": false,
          "internalType": "address",
          "name": "to",
          "type": "address"
        },
        {
          "indexed": false,
          "internalType": "uint256",
          "name": "addAmount",
          "type": "uint256"
        },
        {
          "indexed": false,
          "internalType": "uint256",
          "name": "claimAmount",
          "type": "uint256"
        },
        {
          "indexed": false,
          "internalType": "uint256",
          "name": "periodWeeks",
          "type": "uint256"
        },
        {
          "indexed": false,
          "internalType": "uint256",
          "name": "stakeId",
          "type": "uint256"
        },
        {
          "indexed": false,
          "internalType": "uint256",
          "name": "stosId",
          "type": "uint256"
        },
        {
          "indexed": false,
          "internalType": "uint256",
          "name": "stosPrincipal",
          "type": "uint256"
        }
      ],
      "name": "ResetStakedGetStosAfterLock",
      "type": "event"
    },
    {
      "anonymous": false,
      "inputs": [
        {
          "indexed": true,
          "internalType": "bytes32",
          "name": "role",
          "type": "bytes32"
        },
        {
          "indexed": true,
          "internalType": "bytes32",
          "name": "previousAdminRole",
          "type": "bytes32"
        },
        {
          "indexed": true,
          "internalType": "bytes32",
          "name": "newAdminRole",
          "type": "bytes32"
        }
      ],
      "name": "RoleAdminChanged",
      "type": "event"
    },
    {
      "anonymous": false,
      "inputs": [
        {
          "indexed": true,
          "internalType": "bytes32",
          "name": "role",
          "type": "bytes32"
        },
        {
          "indexed": true,
          "internalType": "address",
          "name": "account",
          "type": "address"
        },
        {
          "indexed": true,
          "internalType": "address",
          "name": "sender",
          "type": "address"
        }
      ],
      "name": "RoleGranted",
      "type": "event"
    },
    {
      "anonymous": false,
      "inputs": [
        {
          "indexed": true,
          "internalType": "bytes32",
          "name": "role",
          "type": "bytes32"
        },
        {
          "indexed": true,
          "internalType": "address",
          "name": "account",
          "type": "address"
        },
        {
          "indexed": true,
          "internalType": "address",
          "name": "sender",
          "type": "address"
        }
      ],
      "name": "RoleRevoked",
      "type": "event"
    },
    {
      "anonymous": false,
      "inputs": [
        {
          "indexed": false,
          "internalType": "address",
          "name": "tosAddress",
          "type": "address"
        },
        {
          "indexed": false,
          "internalType": "address",
          "name": "lockTOSAddress",
          "type": "address"
        },
        {
          "indexed": false,
          "internalType": "address",
          "name": "treasuryAddress",
          "type": "address"
        }
      ],
      "name": "SetAddressInfos",
      "type": "event"
    },
    {
      "anonymous": false,
      "inputs": [
        {
          "indexed": false,
          "internalType": "uint256",
          "name": "period",
          "type": "uint256"
        }
      ],
      "name": "SetBasicBondPeriod",
      "type": "event"
    },
    {
      "anonymous": false,
      "inputs": [
        {
          "indexed": false,
          "internalType": "uint256",
          "name": "length",
          "type": "uint256"
        },
        {
          "indexed": false,
          "internalType": "uint256",
          "name": "end",
          "type": "uint256"
        }
      ],
      "name": "SetEpochInfo",
      "type": "event"
    },
    {
      "anonymous": false,
      "inputs": [
        {
          "indexed": false,
          "internalType": "uint256",
          "name": "index",
          "type": "uint256"
        }
      ],
      "name": "SetIndex",
      "type": "event"
    },
    {
      "anonymous": false,
      "inputs": [
        {
          "indexed": false,
          "internalType": "uint256",
          "name": "rebasePerEpoch",
          "type": "uint256"
        }
      ],
      "name": "SetRebasePerEpoch",
      "type": "event"
    },
    {
      "anonymous": false,
      "inputs": [
        {
          "indexed": false,
          "internalType": "address",
          "name": "to",
          "type": "address"
        },
        {
          "indexed": false,
          "internalType": "uint256",
          "name": "amount",
          "type": "uint256"
        },
        {
          "indexed": false,
          "internalType": "uint256",
          "name": "stakeId",
          "type": "uint256"
        }
      ],
      "name": "Staked",
      "type": "event"
    },
    {
      "anonymous": false,
      "inputs": [
        {
          "indexed": false,
          "internalType": "address",
          "name": "to",
          "type": "address"
        },
        {
          "indexed": false,
          "internalType": "uint256",
          "name": "amount",
          "type": "uint256"
        },
        {
          "indexed": false,
          "internalType": "uint256",
          "name": "ltos",
          "type": "uint256"
        },
        {
          "indexed": false,
          "internalType": "uint256",
          "name": "marketId",
          "type": "uint256"
        },
        {
          "indexed": false,
          "internalType": "uint256",
          "name": "stakeId",
          "type": "uint256"
        },
        {
          "indexed": false,
          "internalType": "uint256",
          "name": "tosPrice",
          "type": "uint256"
        }
      ],
      "name": "StakedByBond",
      "type": "event"
    },
    {
      "anonymous": false,
      "inputs": [
        {
          "indexed": false,
          "internalType": "address",
          "name": "to",
          "type": "address"
        },
        {
          "indexed": false,
          "internalType": "uint256",
          "name": "amount",
          "type": "uint256"
        },
        {
          "indexed": false,
          "internalType": "uint256",
          "name": "periodWeeks",
          "type": "uint256"
        },
        {
          "indexed": false,
          "internalType": "uint256",
          "name": "stakeId",
          "type": "uint256"
        },
        {
          "indexed": false,
          "internalType": "uint256",
          "name": "stosId",
          "type": "uint256"
        },
        {
          "indexed": false,
          "internalType": "uint256",
          "name": "stosPrincipal",
          "type": "uint256"
        }
      ],
      "name": "StakedGetStos",
      "type": "event"
    },
    {
      "anonymous": false,
      "inputs": [
        {
          "indexed": false,
          "internalType": "address",
          "name": "to",
          "type": "address"
        },
        {
          "indexed": false,
          "internalType": "uint256",
          "name": "amount",
          "type": "uint256"
        },
        {
          "indexed": false,
          "internalType": "uint256",
          "name": "ltos",
          "type": "uint256"
        },
        {
          "indexed": false,
          "internalType": "uint256",
          "name": "periodWeeks",
          "type": "uint256"
        },
        {
          "indexed": false,
          "internalType": "uint256",
          "name": "marketId",
          "type": "uint256"
        },
        {
          "indexed": false,
          "internalType": "uint256",
          "name": "stakeId",
          "type": "uint256"
        },
        {
          "indexed": false,
          "internalType": "uint256",
          "name": "stosId",
          "type": "uint256"
        },
        {
          "indexed": false,
          "internalType": "uint256",
          "name": "tosPrice",
          "type": "uint256"
        },
        {
          "indexed": false,
          "internalType": "uint256",
          "name": "stosPrincipal",
          "type": "uint256"
        }
      ],
      "name": "StakedGetStosByBond",
      "type": "event"
    },
    {
      "anonymous": false,
      "inputs": [
        {
          "indexed": false,
          "internalType": "address",
          "name": "staker",
          "type": "address"
        },
        {
          "indexed": false,
          "internalType": "uint256",
          "name": "amount",
          "type": "uint256"
        },
        {
          "indexed": false,
          "internalType": "uint256",
          "name": "stakeId",
          "type": "uint256"
        }
      ],
      "name": "Unstaked",
      "type": "event"
    },
    {
      "inputs": [],
      "name": "ADMIN_ROLE",
      "outputs": [
        {
          "internalType": "bytes32",
          "name": "",
          "type": "bytes32"
        }
      ],
      "stateMutability": "view",
      "type": "function"
    },
    {
      "inputs": [],
      "name": "DEFAULT_ADMIN_ROLE",
      "outputs": [
        {
          "internalType": "bytes32",
          "name": "",
          "type": "bytes32"
        }
      ],
      "stateMutability": "view",
      "type": "function"
    },
    {
      "inputs": [],
      "name": "POLICY_ROLE",
      "outputs": [
        {
          "internalType": "bytes32",
          "name": "",
          "type": "bytes32"
        }
      ],
      "stateMutability": "view",
      "type": "function"
    },
    {
      "inputs": [
        {
          "internalType": "address",
          "name": "account",
          "type": "address"
        }
      ],
      "name": "addAdmin",
      "outputs": [],
      "stateMutability": "nonpayable",
      "type": "function"
    },
    {
      "inputs": [
        {
          "internalType": "address",
          "name": "_account",
          "type": "address"
        }
      ],
      "name": "addPolicy",
      "outputs": [],
      "stateMutability": "nonpayable",
      "type": "function"
    },
    {
      "inputs": [
        {
          "internalType": "address",
          "name": "_owner",
          "type": "address"
        }
      ],
      "name": "addProxyAdmin",
      "outputs": [],
      "stateMutability": "nonpayable",
      "type": "function"
    },
    {
      "inputs": [
        {
          "internalType": "uint256",
          "name": "",
          "type": "uint256"
        }
      ],
      "name": "allStakings",
      "outputs": [
        {
          "internalType": "address",
          "name": "staker",
          "type": "address"
        },
        {
          "internalType": "uint256",
          "name": "deposit",
          "type": "uint256"
        },
        {
          "internalType": "uint256",
          "name": "ltos",
          "type": "uint256"
        },
        {
          "internalType": "uint256",
          "name": "endTime",
          "type": "uint256"
        },
        {
          "internalType": "uint256",
          "name": "marketId",
          "type": "uint256"
        }
      ],
      "stateMutability": "view",
      "type": "function"
    },
    {
      "inputs": [
        {
          "internalType": "address",
          "name": "_addr",
          "type": "address"
        }
      ],
      "name": "balanceOf",
      "outputs": [
        {
          "internalType": "uint256",
          "name": "balance",
          "type": "uint256"
        }
      ],
      "stateMutability": "view",
      "type": "function"
    },
    {
      "inputs": [],
      "name": "basicBondPeriod",
      "outputs": [
        {
          "internalType": "uint256",
          "name": "",
          "type": "uint256"
        }
      ],
      "stateMutability": "view",
      "type": "function"
    },
    {
      "inputs": [
        {
          "internalType": "uint256",
          "name": "_stakeId",
          "type": "uint256"
        },
        {
          "internalType": "uint256",
          "name": "claimLtos",
          "type": "uint256"
        }
      ],
      "name": "claimForSimpleType",
      "outputs": [],
      "stateMutability": "nonpayable",
      "type": "function"
    },
    {
      "inputs": [
        {
          "internalType": "uint256",
          "name": "_stakeId",
          "type": "uint256"
        }
      ],
      "name": "claimableLtos",
      "outputs": [
        {
          "internalType": "uint256",
          "name": "",
          "type": "uint256"
        }
      ],
      "stateMutability": "view",
      "type": "function"
    },
    {
      "inputs": [
        {
          "internalType": "uint256",
          "name": "",
          "type": "uint256"
        }
      ],
      "name": "connectId",
      "outputs": [
        {
          "internalType": "uint256",
          "name": "",
          "type": "uint256"
        }
      ],
      "stateMutability": "view",
      "type": "function"
    },
    {
      "inputs": [
        {
          "internalType": "address",
          "name": "_account",
          "type": "address"
        }
      ],
      "name": "deletePolicy",
      "outputs": [],
      "stateMutability": "nonpayable",
      "type": "function"
    },
    {
      "inputs": [],
      "name": "epoch",
      "outputs": [
        {
          "internalType": "uint256",
          "name": "length_",
          "type": "uint256"
        },
        {
          "internalType": "uint256",
          "name": "end",
          "type": "uint256"
        }
      ],
      "stateMutability": "view",
      "type": "function"
    },
    {
      "inputs": [],
      "name": "generateMarketId",
      "outputs": [
        {
          "internalType": "uint256",
          "name": "",
          "type": "uint256"
        }
      ],
      "stateMutability": "nonpayable",
      "type": "function"
    },
    {
      "inputs": [],
      "name": "getIndex",
      "outputs": [
        {
          "internalType": "uint256",
          "name": "",
          "type": "uint256"
        }
      ],
      "stateMutability": "view",
      "type": "function"
    },
    {
      "inputs": [
        {
          "internalType": "uint256",
          "name": "ltos",
          "type": "uint256"
        }
      ],
      "name": "getLtosToTos",
      "outputs": [
        {
          "internalType": "uint256",
          "name": "",
          "type": "uint256"
        }
      ],
      "stateMutability": "view",
      "type": "function"
    },
    {
      "inputs": [
        {
          "internalType": "uint256",
          "name": "ltos",
          "type": "uint256"
        }
      ],
      "name": "getLtosToTosPossibleIndex",
      "outputs": [
        {
          "internalType": "uint256",
          "name": "",
          "type": "uint256"
        }
      ],
      "stateMutability": "view",
      "type": "function"
    },
    {
      "inputs": [
        {
          "internalType": "bytes32",
          "name": "role",
          "type": "bytes32"
        }
      ],
      "name": "getRoleAdmin",
      "outputs": [
        {
          "internalType": "bytes32",
          "name": "",
          "type": "bytes32"
        }
      ],
      "stateMutability": "view",
      "type": "function"
    },
    {
      "inputs": [
        {
          "internalType": "uint256",
          "name": "amount",
          "type": "uint256"
        }
      ],
      "name": "getTosToLtos",
      "outputs": [
        {
          "internalType": "uint256",
          "name": "",
          "type": "uint256"
        }
      ],
      "stateMutability": "view",
      "type": "function"
    },
    {
      "inputs": [
        {
          "internalType": "uint256",
          "name": "amount",
          "type": "uint256"
        }
      ],
      "name": "getTosToLtosPossibleIndex",
      "outputs": [
        {
          "internalType": "uint256",
          "name": "",
          "type": "uint256"
        }
      ],
      "stateMutability": "view",
      "type": "function"
    },
    {
      "inputs": [
        {
          "internalType": "address",
          "name": "lockTos",
          "type": "address"
        },
        {
          "internalType": "uint256",
          "name": "start",
          "type": "uint256"
        },
        {
          "internalType": "uint256",
          "name": "_periodWeeks",
          "type": "uint256"
        }
      ],
      "name": "getUnlockTime",
      "outputs": [
        {
          "internalType": "uint256",
          "name": "stosEpochUnit",
          "type": "uint256"
        },
        {
          "internalType": "uint256",
          "name": "unlockTime",
          "type": "uint256"
        }
      ],
      "stateMutability": "view",
      "type": "function"
    },
    {
      "inputs": [
        {
          "internalType": "bytes32",
          "name": "role",
          "type": "bytes32"
        },
        {
          "internalType": "address",
          "name": "account",
          "type": "address"
        }
      ],
      "name": "grantRole",
      "outputs": [],
      "stateMutability": "nonpayable",
      "type": "function"
    },
    {
      "inputs": [
        {
          "internalType": "bytes32",
          "name": "role",
          "type": "bytes32"
        },
        {
          "internalType": "address",
          "name": "account",
          "type": "address"
        }
      ],
      "name": "hasRole",
      "outputs": [
        {
          "internalType": "bool",
          "name": "",
          "type": "bool"
        }
      ],
      "stateMutability": "view",
      "type": "function"
    },
    {
      "inputs": [
        {
          "internalType": "uint256",
          "name": "_stakeId",
          "type": "uint256"
        },
        {
          "internalType": "uint256",
          "name": "_amount",
          "type": "uint256"
        }
      ],
      "name": "increaseAmountForSimpleStake",
      "outputs": [],
      "stateMutability": "nonpayable",
      "type": "function"
    },
    {
      "inputs": [
        {
          "internalType": "uint256",
          "name": "_stakeId",
          "type": "uint256"
        },
        {
          "internalType": "uint256",
          "name": "_amount",
          "type": "uint256"
        },
        {
          "internalType": "uint256",
          "name": "_unlockWeeks",
          "type": "uint256"
        }
      ],
      "name": "increaseBeforeEndOrNonEnd",
      "outputs": [],
      "stateMutability": "nonpayable",
      "type": "function"
    },
    {
      "inputs": [
        {
          "internalType": "uint256",
          "name": "_stakeId",
          "type": "uint256"
        },
        {
          "internalType": "uint256",
          "name": "_amount",
          "type": "uint256"
        }
      ],
      "name": "increaseBeforeEndOrNonEnd",
      "outputs": [],
      "stateMutability": "nonpayable",
      "type": "function"
    },
    {
      "inputs": [],
      "name": "index_",
      "outputs": [
        {
          "internalType": "uint256",
          "name": "",
          "type": "uint256"
        }
      ],
      "stateMutability": "view",
      "type": "function"
    },
    {
      "inputs": [
        {
          "internalType": "address",
          "name": "account",
          "type": "address"
        }
      ],
      "name": "isAdmin",
      "outputs": [
        {
          "internalType": "bool",
          "name": "",
          "type": "bool"
        }
      ],
      "stateMutability": "view",
      "type": "function"
    },
    {
      "inputs": [
        {
          "internalType": "address",
          "name": "account",
          "type": "address"
        }
      ],
      "name": "isPolicy",
      "outputs": [
        {
          "internalType": "bool",
          "name": "",
          "type": "bool"
        }
      ],
      "stateMutability": "view",
      "type": "function"
    },
    {
      "inputs": [
        {
          "internalType": "address",
          "name": "account",
          "type": "address"
        }
      ],
      "name": "isProxyAdmin",
      "outputs": [
        {
          "internalType": "bool",
          "name": "",
          "type": "bool"
        }
      ],
      "stateMutability": "view",
      "type": "function"
    },
    {
      "inputs": [],
      "name": "lockTOS",
      "outputs": [
        {
          "internalType": "address",
          "name": "",
          "type": "address"
        }
      ],
      "stateMutability": "view",
      "type": "function"
    },
    {
      "inputs": [],
      "name": "marketIdCounter",
      "outputs": [
        {
          "internalType": "uint256",
          "name": "",
          "type": "uint256"
        }
      ],
      "stateMutability": "view",
      "type": "function"
    },
    {
      "inputs": [
        {
          "internalType": "uint256[]",
          "name": "_stakeIds",
          "type": "uint256[]"
        }
      ],
      "name": "multiUnstake",
      "outputs": [],
      "stateMutability": "nonpayable",
      "type": "function"
    },
    {
      "inputs": [],
      "name": "possibleIndex",
      "outputs": [
        {
          "internalType": "uint256",
          "name": "",
          "type": "uint256"
        }
      ],
      "stateMutability": "view",
      "type": "function"
    },
    {
      "inputs": [],
      "name": "rebaseIndex",
      "outputs": [],
      "stateMutability": "nonpayable",
      "type": "function"
    },
    {
      "inputs": [],
      "name": "rebasePerEpoch",
      "outputs": [
        {
          "internalType": "uint256",
          "name": "",
          "type": "uint256"
        }
      ],
      "stateMutability": "view",
      "type": "function"
    },
    {
      "inputs": [
        {
          "internalType": "uint256",
          "name": "_stakeId",
          "type": "uint256"
        }
      ],
      "name": "remainedLtos",
      "outputs": [
        {
          "internalType": "uint256",
          "name": "",
          "type": "uint256"
        }
      ],
      "stateMutability": "view",
      "type": "function"
    },
    {
      "inputs": [],
      "name": "removeAdmin",
      "outputs": [],
      "stateMutability": "nonpayable",
      "type": "function"
    },
    {
      "inputs": [],
      "name": "removePolicy",
      "outputs": [],
      "stateMutability": "nonpayable",
      "type": "function"
    },
    {
      "inputs": [],
      "name": "removeProxyAdmin",
      "outputs": [],
      "stateMutability": "nonpayable",
      "type": "function"
    },
    {
      "inputs": [
        {
          "internalType": "bytes32",
          "name": "role",
          "type": "bytes32"
        },
        {
          "internalType": "address",
          "name": "account",
          "type": "address"
        }
      ],
      "name": "renounceRole",
      "outputs": [],
      "stateMutability": "nonpayable",
      "type": "function"
    },
    {
      "inputs": [
        {
          "internalType": "uint256",
          "name": "_stakeId",
          "type": "uint256"
        },
        {
          "internalType": "uint256",
          "name": "_addTosAmount",
          "type": "uint256"
        },
        {
          "internalType": "uint256",
          "name": "_relockLtosAmount",
          "type": "uint256"
        },
        {
          "internalType": "uint256",
          "name": "_periodWeeks",
          "type": "uint256"
        }
      ],
      "name": "resetStakeGetStosAfterLock",
      "outputs": [],
      "stateMutability": "nonpayable",
      "type": "function"
    },
    {
      "inputs": [
        {
          "internalType": "uint256",
          "name": "_stakeId",
          "type": "uint256"
        },
        {
          "internalType": "uint256",
          "name": "_addAmount",
          "type": "uint256"
        },
        {
          "internalType": "uint256",
          "name": "_periodWeeks",
          "type": "uint256"
        }
      ],
      "name": "resetStakeGetStosAfterLock",
      "outputs": [],
      "stateMutability": "nonpayable",
      "type": "function"
    },
    {
      "inputs": [
        {
          "internalType": "bytes32",
          "name": "role",
          "type": "bytes32"
        },
        {
          "internalType": "address",
          "name": "account",
          "type": "address"
        }
      ],
      "name": "revokeRole",
      "outputs": [],
      "stateMutability": "nonpayable",
      "type": "function"
    },
    {
      "inputs": [],
      "name": "runwayTos",
      "outputs": [
        {
          "internalType": "uint256",
          "name": "",
          "type": "uint256"
        }
      ],
      "stateMutability": "view",
      "type": "function"
    },
    {
      "inputs": [],
      "name": "runwayTosPossibleIndex",
      "outputs": [
        {
          "internalType": "uint256",
          "name": "",
          "type": "uint256"
        }
      ],
      "stateMutability": "view",
      "type": "function"
    },
    {
      "inputs": [],
      "name": "secondsToNextEpoch",
      "outputs": [
        {
          "internalType": "uint256",
          "name": "",
          "type": "uint256"
        }
      ],
      "stateMutability": "view",
      "type": "function"
    },
    {
      "inputs": [
        {
          "internalType": "address",
          "name": "_tos",
          "type": "address"
        },
        {
          "internalType": "address",
          "name": "_lockTOS",
          "type": "address"
        },
        {
          "internalType": "address",
          "name": "_treasury",
          "type": "address"
        }
      ],
      "name": "setAddressInfos",
      "outputs": [],
      "stateMutability": "nonpayable",
      "type": "function"
    },
    {
      "inputs": [
        {
          "internalType": "uint256",
          "name": "_period",
          "type": "uint256"
        }
      ],
      "name": "setBasicBondPeriod",
      "outputs": [],
      "stateMutability": "nonpayable",
      "type": "function"
    },
    {
      "inputs": [
        {
          "internalType": "uint256",
          "name": "_length",
          "type": "uint256"
        },
        {
          "internalType": "uint256",
          "name": "_end",
          "type": "uint256"
        }
      ],
      "name": "setEpochInfo",
      "outputs": [],
      "stateMutability": "nonpayable",
      "type": "function"
    },
    {
      "inputs": [
        {
          "internalType": "uint256",
          "name": "_rebasePerEpoch",
          "type": "uint256"
        }
      ],
      "name": "setRebasePerEpoch",
      "outputs": [],
      "stateMutability": "nonpayable",
      "type": "function"
    },
    {
      "inputs": [
        {
          "internalType": "uint256",
          "name": "_amount",
          "type": "uint256"
        }
      ],
      "name": "stake",
      "outputs": [
        {
          "internalType": "uint256",
          "name": "stakeId",
          "type": "uint256"
        }
      ],
      "stateMutability": "nonpayable",
      "type": "function"
    },
    {
      "inputs": [
        {
          "internalType": "address",
          "name": "to",
          "type": "address"
        },
        {
          "internalType": "uint256",
          "name": "_amount",
          "type": "uint256"
        },
        {
          "internalType": "uint256",
          "name": "_marketId",
          "type": "uint256"
        },
        {
          "internalType": "uint256",
          "name": "tosPrice",
          "type": "uint256"
        }
      ],
      "name": "stakeByBond",
      "outputs": [
        {
          "internalType": "uint256",
          "name": "stakeId",
          "type": "uint256"
        }
      ],
      "stateMutability": "nonpayable",
      "type": "function"
    },
    {
      "inputs": [
        {
          "internalType": "uint256",
          "name": "_amount",
          "type": "uint256"
        },
        {
          "internalType": "uint256",
          "name": "_periodWeeks",
          "type": "uint256"
        }
      ],
      "name": "stakeGetStos",
      "outputs": [
        {
          "internalType": "uint256",
          "name": "stakeId",
          "type": "uint256"
        }
      ],
      "stateMutability": "nonpayable",
      "type": "function"
    },
    {
      "inputs": [
        {
          "internalType": "address",
          "name": "_to",
          "type": "address"
        },
        {
          "internalType": "uint256",
          "name": "_amount",
          "type": "uint256"
        },
        {
          "internalType": "uint256",
          "name": "_marketId",
          "type": "uint256"
        },
        {
          "internalType": "uint256",
          "name": "_periodWeeks",
          "type": "uint256"
        },
        {
          "internalType": "uint256",
          "name": "tosPrice",
          "type": "uint256"
        }
      ],
      "name": "stakeGetStosByBond",
      "outputs": [
        {
          "internalType": "uint256",
          "name": "stakeId",
          "type": "uint256"
        }
      ],
      "stateMutability": "nonpayable",
      "type": "function"
    },
    {
      "inputs": [
        {
          "internalType": "uint256",
          "name": "stakeId",
          "type": "uint256"
        }
      ],
      "name": "stakeInfo",
      "outputs": [
        {
          "internalType": "address",
          "name": "staker",
          "type": "address"
        },
        {
          "internalType": "uint256",
          "name": "deposit",
          "type": "uint256"
        },
        {
          "internalType": "uint256",
          "name": "ltos",
          "type": "uint256"
        },
        {
          "internalType": "uint256",
          "name": "endTime",
          "type": "uint256"
        },
        {
          "internalType": "uint256",
          "name": "marketId",
          "type": "uint256"
        }
      ],
      "stateMutability": "view",
      "type": "function"
    },
    {
      "inputs": [
        {
          "internalType": "uint256",
          "name": "stakeId",
          "type": "uint256"
        }
      ],
      "name": "stakedOf",
      "outputs": [
        {
          "internalType": "uint256",
          "name": "",
          "type": "uint256"
        }
      ],
      "stateMutability": "view",
      "type": "function"
    },
    {
      "inputs": [],
      "name": "stakedOfAll",
      "outputs": [
        {
          "internalType": "uint256",
          "name": "",
          "type": "uint256"
        }
      ],
      "stateMutability": "view",
      "type": "function"
    },
    {
      "inputs": [],
      "name": "stakingIdCounter",
      "outputs": [
        {
          "internalType": "uint256",
          "name": "",
          "type": "uint256"
        }
      ],
      "stateMutability": "view",
      "type": "function"
    },
    {
      "inputs": [
        {
          "internalType": "address",
          "name": "_addr",
          "type": "address"
        }
      ],
      "name": "stakingOf",
      "outputs": [
        {
          "internalType": "uint256[]",
          "name": "",
          "type": "uint256[]"
        }
      ],
      "stateMutability": "view",
      "type": "function"
    },
    {
      "inputs": [],
      "name": "stakingPrincipal",
      "outputs": [
        {
          "internalType": "uint256",
          "name": "",
          "type": "uint256"
        }
      ],
      "stateMutability": "view",
      "type": "function"
    },
    {
      "inputs": [
        {
          "internalType": "bytes4",
          "name": "interfaceId",
          "type": "bytes4"
        }
      ],
      "name": "supportsInterface",
      "outputs": [
        {
          "internalType": "bool",
          "name": "",
          "type": "bool"
        }
      ],
      "stateMutability": "view",
      "type": "function"
    },
    {
      "inputs": [
        {
          "internalType": "address[]",
          "name": "accounts",
          "type": "address[]"
        },
        {
          "internalType": "uint256[]",
          "name": "balances",
          "type": "uint256[]"
        },
        {
          "internalType": "uint256[]",
          "name": "period",
          "type": "uint256[]"
        },
        {
          "internalType": "uint256[]",
          "name": "tokenId",
          "type": "uint256[]"
        }
      ],
      "name": "syncStos",
      "outputs": [],
      "stateMutability": "nonpayable",
      "type": "function"
    },
    {
      "inputs": [],
      "name": "tos",
      "outputs": [
        {
          "internalType": "contract IERC20",
          "name": "",
          "type": "address"
        }
      ],
      "stateMutability": "view",
      "type": "function"
    },
    {
      "inputs": [],
      "name": "totalLtos",
      "outputs": [
        {
          "internalType": "uint256",
          "name": "",
          "type": "uint256"
        }
      ],
      "stateMutability": "view",
      "type": "function"
    },
    {
      "inputs": [
        {
          "internalType": "address",
          "name": "newAdmin",
          "type": "address"
        }
      ],
      "name": "transferAdmin",
      "outputs": [],
      "stateMutability": "nonpayable",
      "type": "function"
    },
    {
      "inputs": [
        {
          "internalType": "address",
          "name": "newAdmin",
          "type": "address"
        }
      ],
      "name": "transferProxyAdmin",
      "outputs": [],
      "stateMutability": "nonpayable",
      "type": "function"
    },
    {
      "inputs": [],
      "name": "treasury",
      "outputs": [
        {
          "internalType": "address",
          "name": "",
          "type": "address"
        }
      ],
      "stateMutability": "view",
      "type": "function"
    },
    {
      "inputs": [
        {
          "internalType": "uint256",
          "name": "_stakeId",
          "type": "uint256"
        }
      ],
      "name": "unstake",
      "outputs": [],
      "stateMutability": "nonpayable",
      "type": "function"
    },
    {
      "inputs": [
        {
          "internalType": "address",
          "name": "",
          "type": "address"
        },
        {
          "internalType": "uint256",
          "name": "",
          "type": "uint256"
        }
      ],
      "name": "userStakingIndex",
      "outputs": [
        {
          "internalType": "uint256",
          "name": "",
          "type": "uint256"
        }
      ],
      "stateMutability": "view",
      "type": "function"
    },
    {
      "inputs": [
        {
          "internalType": "address",
          "name": "",
          "type": "address"
        },
        {
          "internalType": "uint256",
          "name": "",
          "type": "uint256"
        }
      ],
      "name": "userStakings",
      "outputs": [
        {
          "internalType": "uint256",
          "name": "",
          "type": "uint256"
        }
      ],
      "stateMutability": "view",
      "type": "function"
    }
  ],
  "bytecode": "0x6080604052600160065534801561001557600080fd5b5061570a80620000266000396000f3fe608060405234801561001057600080fd5b50600436106104285760003560e01c806378ad14051161022b578063a217fddf11610130578063c68450bf116100b8578063e6500b2111610087578063e6500b21146109d3578063e75f77e1146109db578063f47f2f1d146109ee578063f558138214610a01578063fad1c85c14610a0a57600080fd5b8063c68450bf14610987578063ca16910f1461099a578063d547741f146109ad578063d7fe4a49146109c057600080fd5b8063b24352b1116100ff578063b24352b114610933578063b84ef08114610946578063b88ad1e314610959578063bbad8ac91461096c578063be72f2d31461097f57600080fd5b8063a217fddf146108da578063a694fc3a146108e2578063a7110dc3146108f5578063b022e5881461092057600080fd5b80639483c1d7116101b357806398842ff61161018257806398842ff61461088e5780639a202d47146108965780639a794e661461089e5780639e9e792f146108b1578063a052e69e146108d157600080fd5b80639483c1d71461084d57806396f1557c1461085557806397b4293714610868578063980b10971461087b57600080fd5b80638356ca4f116101fa5780638356ca4f146107de57806383a5683a146107f157806389f395de14610804578063900cf0cf1461081757806391d148541461083a57600080fd5b806378ad1405146107a757806379be7bd0146107b05780637cc0fee6146107c357806381045ead146107d657600080fd5b806347e1b3721161033157806361d027b3116102b95780637048027511610288578063704802751461074657806370a082311461075957806375829def1461076c57806375b238fc1461077f57806377d73dc61461079457600080fd5b806361d027b31461070f57806365cb3a8314610722578063660fe73f1461072a5780636d1c789f1461073d57600080fd5b80635720bf3a116103005780635720bf3a146106915780635746248f1461069a5780635dc3c29a146106ad5780635f338352146106f45780635fabdf7c146106fc57600080fd5b806347e1b372146105ad57806349ec9883146105b55780634e533572146105c85780634e6c44661461066657600080fd5b806324d7806c116103b45780632f2ff15d116103835780632f2ff15d1461056357806330e06e8b14610576578063332b01f31461057e57806336568abe14610591578063385030b4146105a457600080fd5b806324d7806c14610522578063265705b11461053557806328ea9ff0146105485780632e17de781461055057600080fd5b806311f1c8bf116103fb57806311f1c8bf146104a157806317ed177a146104b45780631e725567146104d757806322985246146104ea578063248a9ca3146104ff57600080fd5b806301ffc9a71461042d578063037859af146104555780630e1e998f1461047557806310dcf1681461048c575b600080fd5b61044061043b36600461514d565b610a1d565b60405190151581526020015b60405180910390f35b610468610463366004614ebb565b610a54565b60405161044c9190615357565b61047e600b5481565b60405190815260200161044c565b61049f61049a36600461518d565b610ac0565b005b61047e6104af36600461510a565b610b73565b61047e6104c236600461510a565b6000908152600f602052604090206002015490565b61049f6104e536600461518d565b610b8e565b61047e6000805160206156b583398151915281565b61047e61050d36600461510a565b60009081526011602052604090206001015490565b610440610530366004614ebb565b610e82565b61049f610543366004614ed5565b610e9c565b61047e61103d565b61049f61055e36600461510a565b6111e9565b61049f610571366004615122565b6114bd565b61047e6114e8565b61047e61058c366004614f72565b6115a8565b61049f61059f366004615122565b611742565b61047e600a5481565b61049f6117c0565b61049f6105c336600461510a565b6119db565b6106346105d636600461510a565b6000908152600f6020908152604091829020825160a08101845281546001600160a01b031680825260018301549382018490526002830154948201859052600383015460608301819052600490930154608090920182905294929392565b604080516001600160a01b0390961686526020860194909452928401919091526060830152608082015260a00161044c565b600354610679906001600160a01b031681565b6040516001600160a01b03909116815260200161044c565b61047e60095481565b61047e6106a8366004614f17565b611a3b565b6106346106bb36600461510a565b600f60205260009081526040902080546001820154600283015460038401546004909401546001600160a01b0390931693919290919085565b61047e611a6c565b61049f61070a366004614ebb565b611a7e565b600454610679906001600160a01b031681565b61049f611abe565b61047e61073836600461510a565b611b3d565b61047e600c5481565b61049f610754366004614ebb565b611b63565b61047e610767366004614ebb565b611ba0565b61049f61077a366004614ebb565b611c86565b61047e60008051602061569583398151915281565b61047e6107a236600461510a565b611d8d565b61047e60055481565b61047e6107be36600461510a565b611da5565b61047e6107d136600461510a565b611dc2565b60055461047e565b61049f6107ec366004614ebb565b611e1f565b61049f6107ff36600461518d565b611efd565b600254610679906001600160a01b031681565b600054600154610825919082565b6040805192835260208301919091520161044c565b610440610848366004615122565b6120a7565b61047e6120d2565b61049f610863366004614ebb565b6120f5565b61047e61087636600461510a565b612125565b61047e610889366004614faa565b61213e565b61047e6124af565b61049f61255e565b61049f6108ac3660046150aa565b6125aa565b61047e6108bf36600461510a565b60106020526000908152604090205481565b61047e60085481565b61047e600081565b61047e6108f036600461510a565b612638565b61047e610903366004614f17565b600e60209081526000928352604080842090915290825290205481565b61082561092e366004614f40565b612835565b61049f610941366004615206565b6128e7565b61049f610954366004614ebb565b612c58565b61049f6109673660046151ae565b612c95565b61049f61097a36600461518d565b61349b565b61049f6138f4565b61049f610995366004614feb565b613924565b61047e6109a836600461518d565b613b3f565b61049f6109bb366004615122565b613dd1565b61049f6109ce3660046151ae565b613df7565b61047e614095565b61049f6109e936600461510a565b614120565b6104406109fc366004614ebb565b6141df565b61047e60075481565b610440610a18366004614ebb565b6141eb565b60006001600160e01b03198216637965db0b60e01b1480610a4e57506301ffc9a760e01b6001600160e01b03198316145b92915050565b6001600160a01b0381166000908152600d6020908152604091829020805483518184028101840190945280845260609392830182828015610ab457602002820191906000526020600020905b815481526020019060010190808311610aa0575b50505050509050919050565b610ac9336141df565b610aee5760405162461bcd60e51b8152600401610ae590615435565b60405180910390fd5b8180610b0c5760405162461bcd60e51b8152600401610ae590615584565b8180610b2a5760405162461bcd60e51b8152600401610ae590615584565b6000849055600183905560408051858152602081018590527f75ca52093e88f04d90e5759a0d4156d76cc6f47aba81e6876b4a3a3df91bfe8d910160405180910390a150505050565b6000818152600f6020526040812060020154610a4e90611da5565b8180610bac5760405162461bcd60e51b8152600401610ae590615584565b8180610bca5760405162461bcd60e51b8152600401610ae590615584565b60008481526010602052604090205415610c265760405162461bcd60e51b815260206004820152601d60248201527f7468697320697320666f72206e6f6e2d6c6f636b2070726f647563742e0000006044820152606401610ae5565b6000848152600f6020526040902080546001600160a01b03163314610c5d5760405162461bcd60e51b8152600401610ae5906154ef565b42816003015410610cb05760405162461bcd60e51b815260206004820152601860248201527f656e642074696d6520686173206e6f74207061737365642e00000000000000006044820152606401610ae5565b8060020154841115610cfb5760405162461bcd60e51b81526020600482015260146024820152731b1d1bdcc81a5cc81a5b9cdd59999a58da595b9d60621b6044820152606401610ae5565b610d036117c0565b6000610d128260020154612125565b90506000610d1f86612125565b905060008360010154831115610d45576001840154610d3e9084615609565b9050610d68565b836001015483108015610d5b5750868460020154145b15610d6857836001015491505b86846002016000828254610d7c9190615609565b925050819055508660076000828254610d959190615609565b909155505060018401548290610dac9083906155b2565b610db69190615609565b60018501556008548290610dcb9083906155b2565b610dd59190615609565b60085560048054604051632a97f1e560e21b81523392810192909252602482018490526001600160a01b03169063aa5fc79490604401600060405180830381600087803b158015610e2557600080fd5b505af1158015610e39573d6000803e3d6000fd5b505050507f433fd73da0b487c6993f56778c906400046131197ed15e4a80db6adca99f415133838a604051610e7093929190615336565b60405180910390a15050505050505050565b6000610a4e600080516020615695833981519152836120a7565b610ea5336141df565b610ec15760405162461bcd60e51b8152600401610ae590615435565b826001600160a01b038116610ee85760405162461bcd60e51b8152600401610ae5906154c0565b826001600160a01b038116610f0f5760405162461bcd60e51b8152600401610ae5906154c0565b826001600160a01b038116610f365760405162461bcd60e51b8152600401610ae5906154c0565b6002546001600160a01b038781169116141580610f6157506003546001600160a01b03868116911614155b80610f7a57506004546001600160a01b03858116911614155b610fb55760405162461bcd60e51b815260206004820152600c60248201526b73616d65206164647265737360a01b6044820152606401610ae5565b600280546001600160a01b038881166001600160a01b0319928316811790935560038054898316908416811790915560048054928916929093168217909255604080519384526020840192909252908201527fd4d9385e8f718d5a4bd0f6818082ca825c31506fd64f7214105ab48fe4ebecfc906060015b60405180910390a1505050505050565b6005546001546000919042106111e457600054600180549091906110619042615609565b111561108f576000546001546110779042615609565b61108191906155ca565b61108c9060016155b2565b90505b80600114156110d257670de0b6b3a7640000600954670de0b6b3a76400006110b791906155b2565b6110c190846155ea565b6110cb91906155ca565b915061116b565b6005546009546040516379e42f5d60e11b8152600481019290925260248201526044810182905273__$23c3f0c4d39c3898c699ac978f80cfe781$__9063f3c85eba9060640160206040518083038186803b15801561113057600080fd5b505af4158015611144573d6000803e3d6000fd5b505050506040513d601f19601f820116820180604052508101906111689190615175565b91505b6000611175614095565b90506000670de0b6b3a7640000600554856111909190615609565b60075461119d91906155ea565b6111a791906155ca565b9050818111156111e0576005546007546111c984670de0b6b3a76400006155ea565b6111d391906155ca565b6111dd91906155b2565b93505b5050505b919050565b80806112075760405162461bcd60e51b8152600401610ae590615584565b6000828152600f6020526040902080546001600160a01b031633146112665760405162461bcd60e51b815260206004820152601560248201527431b0b63632b91034b9903737ba1039ba30b5b2b91760591b6044820152606401610ae5565b428160030154106112b95760405162461bcd60e51b815260206004820152601760248201527f656e642074696d65206861736e2774207061737365642e0000000000000000006044820152606401610ae5565b6112c16117c0565b60006112d08260020154612125565b90506000811161131a5760405162461bcd60e51b81526020600482015260156024820152741e995c9bc818db185a5b58589b1948185b5bdd5b9d605a1b6044820152606401610ae5565b816001015481101561132d575060018101545b8160010154600860008282546113439190615609565b909155505060028201546007805460009061135f908490615609565b90915550600090506113713386614205565b905061137d85826143b0565b60008581526010602052604090205415611416576003546000868152601060205260409081902054905163c0a37b3f60e01b815233600482015260248101919091526001600160a01b039091169063c0a37b3f90604401600060405180830381600087803b1580156113ee57600080fd5b505af1158015611402573d6000803e3d6000fd5b505050600086815260106020526040812055505b60048054604051632a97f1e560e21b81523392810192909252602482018490526001600160a01b03169063aa5fc79490604401600060405180830381600087803b15801561146357600080fd5b505af1158015611477573d6000803e3d6000fd5b505050507f7fc4727e062e336010f2c282598ef5f14facb3de68cf8195c2f23e1454b2b74e3383876040516114ae93929190615336565b60405180910390a15050505050565b6000828152601160205260409020600101546114d98133614432565b6114e38383614496565b505050565b6004546000906001600160a01b0316634cf1585860096040516001600160e01b031960e084901b168152600481019190915233602482015260440160206040518083038186803b15801561153b57600080fd5b505afa15801561154f573d6000803e3d6000fd5b505050506040513d601f19601f8201168201806040525081019061157391906150ea565b61158f5760405162461bcd60e51b8152600401610ae59061551d565b600c6000815461159e90615663565b9182905550905090565b6004546000906001600160a01b0316634cf1585860096040516001600160e01b031960e084901b168152600481019190915233602482015260440160206040518083038186803b1580156115fb57600080fd5b505afa15801561160f573d6000803e3d6000fd5b505050506040513d601f19601f8201168201806040525081019061163391906150ea565b61164f5760405162461bcd60e51b8152600401610ae59061551d565b846001600160a01b0381166116765760405162461bcd60e51b8152600401610ae5906154c0565b84806116945760405162461bcd60e51b8152600401610ae590615584565b84806116b25760405162461bcd60e51b8152600401610ae590615584565b6116bb8861451c565b6116c36145c2565b93506116cf88856145d3565b6116d76117c0565b60006116f389868a600a54426116ed91906155b2565b8b614616565b90507f10b677c7a9f17c8fa541bdcc53b14beb96651665c3ef380c8df860dbd8f3545e8989838a898b60405161172e969594939291906152c8565b60405180910390a150505050949350505050565b6001600160a01b03811633146117b25760405162461bcd60e51b815260206004820152602f60248201527f416363657373436f6e74726f6c3a2063616e206f6e6c792072656e6f756e636560448201526e103937b632b9903337b91039b2b63360891b6064820152608401610ae5565b6117bc828261472b565b5050565b60015442106119d957600054600180549091906117dd9042615609565b111561180b576000546001546117f39042615609565b6117fd91906155ca565b6118089060016155b2565b90505b6000546118199082906155ea565b6001805460009061182b9084906155b2565b9091555060009050600182141561187957670de0b6b3a7640000600954670de0b6b3a764000061185b91906155b2565b60055461186891906155ea565b61187291906155ca565b9050611912565b6005546009546040516379e42f5d60e11b8152600481019290925260248201526044810183905273__$23c3f0c4d39c3898c699ac978f80cfe781$__9063f3c85eba9060640160206040518083038186803b1580156118d757600080fd5b505af41580156118eb573d6000803e3d6000fd5b505050506040513d601f19601f8201168201806040525081019061190f9190615175565b90505b600061191c614095565b6005549091506000670de0b6b3a76400006119378386615609565b60075461194491906155ea565b61194e91906155ca565b9050828111156119845760075461196d84670de0b6b3a76400006155ea565b61197791906155ca565b61198190836155b2565b93505b818411156119d35760058490556007546040805184815260208101879052908101919091527fd1a8a452d776b1b6802824ca2e8489c6448e2cb0963f552a9a19ab4ae064ca58906060016114ae565b50505050505b565b6119e4336141df565b611a005760405162461bcd60e51b8152600401610ae590615435565b60098190556040518181527ff2487381a9f464bdc3be9dc66c9a0d2ca77597833452f8e63b6cf187603cdd099060200160405180910390a150565b600d6020528160005260406000208181548110611a5757600080fd5b90600052602060002001600091509150505481565b6000611a79600754611da5565b905090565b611a87336141df565b611aa35760405162461bcd60e51b8152600401610ae590615435565b611abb6000805160206156b583398151915282613dd1565b50565b611ac7336141eb565b611b255760405162461bcd60e51b815260206004820152602960248201527f41636365737369626c653a2043616c6c6572206973206e6f7420616e20706f6c60448201526834b1bc9030b236b4b760b91b6064820152608401610ae5565b6119d96000805160206156b583398151915233611742565b6000611b4761103d565b611b5983670de0b6b3a76400006155ea565b610a4e91906155ca565b611b6c336141df565b611b885760405162461bcd60e51b8152600401610ae590615435565b611abb600080516020615695833981519152826114bd565b6001600160a01b0381166000908152600d6020908152604080832080548251818502810185019093528083528493830182828015611bfd57602002820191906000526020600020905b815481526020019060010190808311611be9575b50505050509050805160001415611c175750600092915050565b60005b8151811015611c7f57611c63828281518110611c4657634e487b7160e01b600052603260045260246000fd5b60200260200101516000908152600f602052604090206002015490565b611c6d90846155b2565b9250611c7881615663565b9050611c1a565b5050919050565b611c8f33610e82565b80611c9e5750611c9e336141df565b611cba5760405162461bcd60e51b8152600401610ae5906153f3565b6001600160a01b038116611d0b5760405162461bcd60e51b815260206004820152601860248201527741636365737369626c653a207a65726f206164647265737360401b6044820152606401610ae5565b336001600160a01b0382161415611d5d5760405162461bcd60e51b815260206004820152601660248201527520b1b1b2b9b9b4b136329d1039b0b6b29030b236b4b760511b6044820152606401610ae5565b611d75600080516020615695833981519152826114bd565b611abb60008051602061569583398151915233611742565b600554600090611b5983670de0b6b3a76400006155ea565b6000670de0b6b3a7640000611db861103d565b611b5990846155ea565b60008180611de25760405162461bcd60e51b8152600401610ae590615584565b6000838152600f6020526040902060030154421115611e14576000838152600f60205260409020600201549150611e19565b600091505b50919050565b611e28336141df565b611e445760405162461bcd60e51b8152600401610ae590615435565b6001600160a01b038116611e955760405162461bcd60e51b815260206004820152601860248201527741636365737369626c653a207a65726f206164647265737360401b6044820152606401610ae5565b336001600160a01b0382161415611ee75760405162461bcd60e51b815260206004820152601660248201527520b1b1b2b9b9b4b136329d1039b0b6b29030b236b4b760511b6044820152606401610ae5565b611ef26000826114bd565b611abb600033611742565b8180611f1b5760405162461bcd60e51b8152600401610ae590615584565b8180611f395760405162461bcd60e51b8152600401610ae590615584565b6000848152600f6020526040902080546001600160a01b03163314611f705760405162461bcd60e51b8152600401610ae5906154ef565b336000908152600e60209081526040808320888452909152902054600114611fda5760405162461bcd60e51b815260206004820152601f60248201527f69742773206e6f742073696d706c65207374616b696e672070726f64756374006044820152606401610ae5565b611fe26117c0565b6000611fed85611d8d565b90508482600101600082825461200391906155b2565b925050819055508082600201600082825461201e91906155b2565b92505081905550846008600082825461203791906155b2565b92505081905550806007600082825461205091906155b2565b9091555050600454600254612074916001600160a01b039182169133911688614792565b7f3580fad54ac878fb39f354ed4980379c99975b958cc12f96c2342daf1a94338433868860405161102d93929190615336565b60009182526011602090815260408084206001600160a01b0393909316845291905290205460ff1690565b60004260006001015410156120e75750600090565b600154611a79904290615609565b6120fe336141df565b61211a5760405162461bcd60e51b8152600401610ae590615435565b611abb6000826148ad565b6000670de0b6b3a764000060055483611b5991906155ea565b6004546000906001600160a01b0316634cf1585860096040516001600160e01b031960e084901b168152600481019190915233602482015260440160206040518083038186803b15801561219157600080fd5b505afa1580156121a5573d6000803e3d6000fd5b505050506040513d601f19601f820116820180604052508101906121c991906150ea565b6121e55760405162461bcd60e51b8152600401610ae59061551d565b856001600160a01b03811661220c5760405162461bcd60e51b8152600401610ae5906154c0565b60008611801561221c5750600084115b80156122285750600085115b6122615760405162461bcd60e51b815260206004820152600a6024820152691e995c9bc81a5b9c1d5d60b21b6044820152606401610ae5565b60035460009061227b906001600160a01b03164287612835565b9150506122878861451c565b61228f6145c2565b925061229b88846145d3565b6122a36117c0565b60006122b289858a858b614616565b9050600073__$23c3f0c4d39c3898c699ac978f80cfe781$__63f3c85eba8a600954600080015442886122e59190615609565b6122ef91906155ca565b6040516001600160e01b031960e086901b16815260048101939093526024830191909152604482015260640160206040518083038186803b15801561233357600080fd5b505af4158015612347573d6000803e3d6000fd5b505050506040513d601f19601f8201168201806040525081019061236b9190615175565b60035460405163036e72c360e21b81529192506000916001600160a01b0390911690630db9cb0c906123a5908e9086908d90600401615336565b602060405180830381600087803b1580156123bf57600080fd5b505af11580156123d3573d6000803e3d6000fd5b505050506040513d601f19601f820116820180604052508101906123f79190615175565b9050600081116124195760405162461bcd60e51b8152600401610ae5906153ce565b60008681526010602090815260409182902083905581516001600160a01b038e1681529081018c905290810184905260608101899052608081018a905260a0810187905260c0810182905260e0810188905261010081018390527fe3cd05b44cf9a64ec6c44b15776a7af54f595a214f12b62950054db4faeef15e906101200160405180910390a1505050505095945050505050565b600480546040805163688d653160e11b8152905160009384936001600160a01b03169263d11aca629281830192602092829003018186803b1580156124f357600080fd5b505afa158015612507573d6000803e3d6000fd5b505050506040513d601f19601f8201168201806040525081019061252b9190615175565b9050600061253a600754611da5565b90508082101561254d5760009250505090565b6125578183615609565b9250505090565b61256733610e82565b806125765750612576336141df565b6125925760405162461bcd60e51b8152600401610ae5906153f3565b6119d960008051602061569583398151915233611742565b806125e55760405162461bcd60e51b815260206004820152600b60248201526a6e6f207374616b6549647360a81b6044820152606401610ae5565b8060005b818110156126325761262084848381811061261457634e487b7160e01b600052603260045260246000fd5b905060200201356111e9565b8061262a81615663565b9150506125e9565b50505050565b600081806126585760405162461bcd60e51b8152600401610ae590615584565b6126613361451c565b336000908152600d602052604090208054600190811061269157634e487b7160e01b600052603260045260246000fd5b906000526020600020015491506126a66117c0565b6004546002546126c5916001600160a01b039182169133911686614792565b60006126d084611d8d565b6000848152600f60205260409020549091506001600160a01b031633141561273c576000838152600f60205260408120600181018054919287926127159084906155b2565b925050819055508181600201600082825461273091906155b2565b909155506127c2915050565b6040805160a08101825233815260208101869052908101829052606081016127654260016155b2565b815260006020918201819052858152600f8252604090819020835181546001600160a01b0319166001600160a01b039091161781559183015160018301558201516002820155606082015160038201556080909101516004909101555b83600860008282546127d491906155b2565b9250508190555080600760008282546127ed91906155b2565b90915550506040517f1449c6dd7851abc30abf37f57715f492010519147cc2652fbc38202c18a6ee909061282690339087908790615336565b60405180910390a15050919050565b600080846001600160a01b031663fd2dcecf6040518163ffffffff1660e01b815260040160206040518083038186803b15801561287157600080fd5b505afa158015612885573d6000803e3d6000fd5b505050506040513d601f19601f820116820180604052508101906128a99190615175565b915082156128df576128bb82846155ea565b6128c590856155b2565b9050816128d281836155ca565b6128dc91906155ea565b90505b935093915050565b60008311806128f65750600082115b6129335760405162461bcd60e51b815260206004820152600e60248201526d185b1b081e995c9bc81a5b9c1d5d60921b6044820152606401610ae5565b600084815260106020908152604080832054600f90925290912080546001600160a01b031633146129765760405162461bcd60e51b8152600401610ae5906154ef565b336000908152600e602090815260408083208984529091529020546001106129b05760405162461bcd60e51b8152600401610ae59061547d565b8060020154841115612a045760405162461bcd60e51b815260206004820152601d60248201527f7374616b6564416d6f756e7420697320696e73756666696369656e742e0000006044820152606401610ae5565b8115612a1f57612a1a33878484600301546148b7565b612a42565b42816003015410612a425760405162461bcd60e51b8152600401610ae59061554d565b612a4a6117c0565b60008160020154851015612a6e57612a6b8583600201546108769190615609565b90505b6003546000908190612a8a906001600160a01b03164288612835565b915091508560001415612a9e575060038301545b8715612ac357600454600254612ac3916001600160a01b03918216913391168b614792565b6000808915612ad857612ad58a611d8d565b91505b8815612aea57612ae789612125565b90505b81898760020154600754612afe9190615609565b612b0891906155b2565b612b1291906155b2565b60075560018601546008548b918391612b2b9190615609565b612b3591906155b2565b612b3f91906155b2565b600855612b4c828a6155b2565b6002870155612b5b8a826155b2565b6001870155600386018390556000808c8a15612b9957612b8281338b600101548e8b6149dd565b600083815260106020526040902082905590935091505b8715612c055760048054604051632a97f1e560e21b81523392810192909252602482018a90526001600160a01b03169063aa5fc79490604401600060405180830381600087803b158015612bec57600080fd5b505af1158015612c00573d6000803e3d6000fd5b505050505b7fb96969612f881e3e16987f7cc8e53854fbdcd75a94b1f85e911129b7fe279b5c338e8a8e858888604051612c4097969594939291906152fb565b60405180910390a15050505050505050505050505050565b612c61336141df565b612c7d5760405162461bcd60e51b8152600401610ae590615435565b611abb6000805160206156b5833981519152826114bd565b8280612cb35760405162461bcd60e51b8152600401610ae590615584565b6000848152601060205260409020548490158015612ce157506000818152600f602052604090206004015415155b15612d1a5760405162461bcd60e51b815260206004820152600960248201526818985cda58d09bdb9960ba1b6044820152606401610ae5565b6000841180612d295750600083115b612d755760405162461bcd60e51b815260206004820152601d60248201527f7a65726f205f616d6f756e7420616e64205f756e6c6f636b5765656b730000006044820152606401610ae5565b6000858152600f6020526040902080546001600160a01b03163314612dac5760405162461bcd60e51b8152600401610ae5906154ef565b8315612e2d57336000908152600e60209081526040808320898452909152902054600110612e2d5760405162461bcd60e51b815260206004820152602860248201527f697427732073696d706c65207374616b696e672070726f647563742c2063616e60448201526713ba103637b1b59760c11b6064820152608401610ae5565b612e356117c0565b6000868152601060205260408120546003549091908190612e60906001600160a01b03164289612835565b90925090508715612eff57600454600254612e8a916001600160a01b03918216913391168b614792565b6000612e9589611d8d565b905088856001016000828254612eab91906155b2565b9250508190555080856002016000828254612ec691906155b2565b925050819055508860086000828254612edf91906155b2565b925050819055508060076000828254612ef891906155b2565b9091555050505b336000908152600e602090815260408083208c84529091528120546001108015612f27575083155b8015612f335750600088115b15612f8a57612f6a8a33612f596108768e6000908152600f602052604090206002015490565b612f63908d6155b2565b8b876149dd565b60008c81526010602052604090209190915560038601839055905061344e565b336000908152600e602090815260408083208d84529091529020546001108015612fb45750600084115b1561344e57600354604051639ce5630560e01b81526004810186905260009182916001600160a01b0390911690639ce563059060240160606040518083038186803b15801561300257600080fd5b505afa158015613016573d6000803e3d6000fd5b505050506040513d601f19601f8201168201806040525081019061303a91906151d9565b925092505042821180156130515750428760030154115b6130985760405162461bcd60e51b81526020600482015260186024820152771b1bd8dac8195b99081d1a5b59481a185cc81c185cdcd95960421b6044820152606401610ae5565b896131d7576000805460038901546130b1904290615609565b6130bb91906155ca565b6009546040516379e42f5d60e11b8152600481018f905260248101919091526044810182905290915060009073__$23c3f0c4d39c3898c699ac978f80cfe781$__9063f3c85eba9060640160206040518083038186803b15801561311e57600080fd5b505af4158015613132573d6000803e3d6000fd5b505050506040513d601f19601f820116820180604052508101906131569190615175565b905080156131d05761316881846155b2565b60035460405163077f15b960e51b81529196506001600160a01b03169063efe2b7209061319d9033908c908690600401615336565b600060405180830381600087803b1580156131b757600080fd5b505af11580156131cb573d6000803e3d6000fd5b505050505b505061344b565b891561344b576000808b8d81156132ac5773__$23c3f0c4d39c3898c699ac978f80cfe781$__63f3c85eba8660095460008001548d8761321791906155ea565b61322191906155ca565b6040516001600160e01b031960e086901b16815260048101939093526024830191909152604482015260640160206040518083038186803b15801561326557600080fd5b505af4158015613279573d6000803e3d6000fd5b505050506040513d601f19601f8201168201806040525081019061329d9190615175565b93506132a98585615609565b93505b801561338057600080546132c08b856155ea565b6132ca428a615609565b6132d491906155b2565b6132de91906155ca565b9050801561337e576009546040516379e42f5d60e11b81526004810184905260248101919091526044810182905273__$23c3f0c4d39c3898c699ac978f80cfe781$__9063f3c85eba9060640160206040518083038186803b15801561334357600080fd5b505af4158015613357573d6000803e3d6000fd5b505050506040513d601f19601f8201168201806040525081019061337b9190615175565b93505b505b8261338b85876155b2565b61339591906155b2565b6003549097506001600160a01b031663b839c0a5338c6133b587896155b2565b6040516001600160e01b031960e086901b1681526001600160a01b0390931660048401526024830191909152604482015260648101859052608401600060405180830381600087803b15801561340a57600080fd5b505af115801561341e573d6000803e3d6000fd5b50505050888261342e91906155ea565b8b600301600082825461344191906155b2565b9091555050505050505b50505b7f4ed3cb428b71401f7eebc41b131a378b44ab9e704fc3fbd44909b1792ecb4ad0338a8a8d8886604051613487969594939291906152c8565b60405180910390a150505050505050505050565b81806134b95760405162461bcd60e51b8152600401610ae590615584565b81806134d75760405162461bcd60e51b8152600401610ae590615584565b600084815260106020526040902054849015801561350557506000818152600f602052604090206004015415155b1561353e5760405162461bcd60e51b815260206004820152600960248201526818985cda58d09bdb9960ba1b6044820152606401610ae5565b6000858152600f6020526040902080546001600160a01b031633146135755760405162461bcd60e51b8152600401610ae5906154ef565b61357d6117c0565b60045460025461359c916001600160a01b039182169133911688614792565b60006135a786611d8d565b9050858260010160008282546135bd91906155b2565b92505081905550808260020160008282546135d891906155b2565b9250508190555085600860008282546135f191906155b2565b92505081905550806007600082825461360a91906155b2565b9091555050600087815260106020908152604080832054338452600e83528184208b855290925282205490919060011080156136465750600082115b156138a757600354604051639ce5630560e01b81526004810184905260009182916001600160a01b0390911690639ce563059060240160606040518083038186803b15801561369457600080fd5b505afa1580156136a8573d6000803e3d6000fd5b505050506040513d601f19601f820116820180604052508101906136cc91906151d9565b925092505042821180156136e35750428660030154115b61372a5760405162461bcd60e51b81526020600482015260186024820152771b1bd8dac8195b99081d1a5b59481a185cc81c185cdcd95960421b6044820152606401610ae5565b60008054600388015461373e904290615609565b61374891906155ca565b9050806001141561378d57670de0b6b3a7640000600954670de0b6b3a764000061377291906155b2565b61377c908d6155ea565b61378691906155ca565b935061382f565b600181111561382b576009546040516379e42f5d60e11b8152600481018d905260248101919091526044810182905273__$23c3f0c4d39c3898c699ac978f80cfe781$__9063f3c85eba9060640160206040518083038186803b1580156137f357600080fd5b505af4158015613807573d6000803e3d6000fd5b505050506040513d601f19601f820116820180604052508101906137869190615175565b8a93505b60035460405163077f15b960e51b81526001600160a01b039091169063efe2b7209061386390339089908990600401615336565b600060405180830381600087803b15801561387d57600080fd5b505af1158015613891573d6000803e3d6000fd5b5050505083826138a191906155b2565b93505050505b7f4ed3cb428b71401f7eebc41b131a378b44ab9e704fc3fbd44909b1792ecb4ad0338960008c86866040516138e1969594939291906152c8565b60405180910390a1505050505050505050565b6138fd336141df565b6139195760405162461bcd60e51b8152600401610ae590615435565b6119d9600033611742565b61392d33610e82565b8061393c575061393c336141df565b6139585760405162461bcd60e51b8152600401610ae5906153f3565b866139935760405162461bcd60e51b815260206004820152600b60248201526a0f4cae4de40d8cadccee8d60ab1b6044820152606401610ae5565b8685146139d95760405162461bcd60e51b81526020600482015260146024820152730eee4dedcce40c4c2d8c2dcc6ca40d8cadccee8d60631b6044820152606401610ae5565b868314613a1e5760405162461bcd60e51b81526020600482015260136024820152720eee4dedcce40e0cae4d2dec840d8cadccee8d606b1b6044820152606401610ae5565b868114613a645760405162461bcd60e51b81526020600482015260146024820152730eee4dedcce40e8ded6cadc92c840d8cadccee8d60631b6044820152606401610ae5565b60005b87811015613b3457613b21898983818110613a9257634e487b7160e01b600052603260045260246000fd5b9050602002016020810190613aa79190614ebb565b888884818110613ac757634e487b7160e01b600052603260045260246000fd5b90506020020135878785818110613aee57634e487b7160e01b600052603260045260246000fd5b90506020020135868686818110613b1557634e487b7160e01b600052603260045260246000fd5b90506020020135614bec565b5080613b2c81615663565b915050613a67565b505050505050505050565b60008280613b5f5760405162461bcd60e51b8152600401610ae590615584565b8280613b7d5760405162461bcd60e51b8152600401610ae590615584565b60095480613b9d5760405162461bcd60e51b8152600401610ae590615584565b600354600090613bb7906001600160a01b03164288612835565b915050613bc33361451c565b613bcb6145c2565b9450613bd733866145d3565b613bdf6117c0565b600454600254613bfe916001600160a01b03918216913391168a614792565b613c0c338689846000614616565b50600073__$23c3f0c4d39c3898c699ac978f80cfe781$__63f3c85eba8960095460008001544287613c3e9190615609565b613c4891906155ca565b6040516001600160e01b031960e086901b16815260048101939093526024830191909152604482015260640160206040518083038186803b158015613c8c57600080fd5b505af4158015613ca0573d6000803e3d6000fd5b505050506040513d601f19601f82011682018060405250810190613cc49190615175565b60035460405163036e72c360e21b81529192506000916001600160a01b0390911690630db9cb0c90613cfe90339086908d90600401615336565b602060405180830381600087803b158015613d1857600080fd5b505af1158015613d2c573d6000803e3d6000fd5b505050506040513d601f19601f82011682018060405250810190613d509190615175565b905060008111613d725760405162461bcd60e51b8152600401610ae5906153ce565b60008781526010602052604090819020829055517ff46503b8d1f95e046084d2a40bac278932cd394b6ef745d41548422b8182af2890613dbd9033908c908c908c90879089906152c8565b60405180910390a150505050505092915050565b600082815260116020526040902060010154613ded8133614432565b6114e3838361472b565b6000821180613e065750600081115b613e435760405162461bcd60e51b815260206004820152600e60248201526d185b1b081e995c9bc81a5b9c1d5d60921b6044820152606401610ae5565b6000838152600f6020526040902080546001600160a01b03163314613e7a5760405162461bcd60e51b8152600401610ae5906154ef565b336000908152600e60209081526040808320878452909152902054600110613eb45760405162461bcd60e51b8152600401610ae59061547d565b6000848152601060205260409020548015613ede57613ed933868385600301546148b7565b613f01565b42826003015410613f015760405162461bcd60e51b8152600401610ae59061554d565b6003546000908190613f1d906001600160a01b03164287612835565b91509150613f296117c0565b8515613f4e57600454600254613f4e916001600160a01b039182169133911689614792565b6000613f5d8560020154612125565b90506000613f6a88611d8d565b905060008660010154831115613f8c576001870154613f899084615609565b90505b81876002016000828254613fa091906155b2565b90915550508715613fb357600387018490555b80898860010154613fc491906155b2565b613fce91906155b2565b60018801556008548190613fe3908b906155b2565b613fed91906155b2565b600881905550816007600082825461400591906155b2565b9091555060009050808b8a156140425761402b81336140248f8a6155b2565b8e8c6149dd565b600083815260106020526040902082905590935091505b7fb96969612f881e3e16987f7cc8e53854fbdcd75a94b1f85e911129b7fe279b5c338d60008e85888860405161407e97969594939291906152fb565b60405180910390a150505050505050505050505050565b600480546040805163688d653160e11b8152905160009384936001600160a01b03169263d11aca629281830192602092829003018186803b1580156140d957600080fd5b505afa1580156140ed573d6000803e3d6000fd5b505050506040513d601f19601f820116820180604052508101906141119190615175565b9050600061253a600754612125565b614129336141df565b6141455760405162461bcd60e51b8152600401610ae590615435565b80806141635760405162461bcd60e51b8152600401610ae590615584565b81600a5414156141a35760405162461bcd60e51b815260206004820152600b60248201526a1cd85b59481c195c9a5bd960aa1b6044820152606401610ae5565b600a8290556040518281527f0eace2f066627e26a6351985cce1b1051b33fa213128dadff6dd0da3208994589060200160405180910390a15050565b6000610a4e81836120a7565b6000610a4e6000805160206156b5833981519152836120a7565b6001600160a01b0382166000908152600e6020908152604080832084845290915290205460018111801561425057506001600160a01b0383166000908152600d602052604090205481105b15610a4e576001600160a01b0383166000908152600d602052604090205461427a90600190615609565b811015614349576001600160a01b0383166000908152600d6020526040812080546142a790600190615609565b815481106142c557634e487b7160e01b600052603260045260246000fd5b9060005260206000200154905080600d6000866001600160a01b03166001600160a01b03168152602001908152602001600020838154811061431757634e487b7160e01b600052603260045260246000fd5b60009182526020808320909101929092556001600160a01b0386168152600e8252604080822093825292909152208190555b6001600160a01b0383166000818152600e602090815260408083208684528252808320839055928252600d90522080548061439457634e487b7160e01b600052603160045260246000fd5b6001900381819060005260206000200160009055905592915050565b60018111156143f157506000908152600f6020526040812080546001600160a01b031916815560018101829055600281018290556003810182905560040155565b80600114156117bc57506000908152600f6020526040812080546001600160a01b031916815560018101829055600281018290556003810182905560040155565b61443c82826120a7565b6117bc57614454816001600160a01b03166014614c71565b61445f836020614c71565b604051602001614470929190615253565b60408051601f198184030181529082905262461bcd60e51b8252610ae59160040161539b565b6144a082826120a7565b6117bc5760008281526011602090815260408083206001600160a01b03851684529091529020805460ff191660011790556144d83390565b6001600160a01b0316816001600160a01b0316837f2f8788117e7eff1d82e926ec794901d17c78024a50270940304540a733656f0d60405160405180910390a45050565b6001600160a01b0381166000908152600d6020526040902054611abb576001600160a01b0381166000908152600d602090815260408220805460018101825590835290822001819055600b80549161457383615663565b90915550506001600160a01b03166000818152600e60209081526040808320600b80548552908352818420600190819055948452600d8352908320905481549485018255908352912090910155565b6000600b6000815461159e90615663565b6001600160a01b039091166000908152600d602081815260408084208054600e845282862087875284529185208290559282526001810183559183529091200155565b60006006546001146146655760405162461bcd60e51b81526020600482015260186024820152774c6f636b496420697320616c726561647920696e2075736560401b6044820152606401610ae5565b6000600681905561467585611d8d565b6040805160a0810182526001600160a01b038a8116825260208083018a8152838501868152606085018b8152608086018b815260008f8152600f909552968420955186546001600160a01b0319169516949094178555905160018501555160028401559051600383015591516004909101556008805492935087929091906146fe9084906155b2565b92505081905550806007600082825461471791906155b2565b909155505060016006559695505050505050565b61473582826120a7565b156117bc5760008281526011602090815260408083206001600160a01b0385168085529252808320805460ff1916905551339285917ff6391f5c32d9c69d2a47ea670b442974b53935d1edc7fd64eb21e047a839171b9190a45050565b604080516001600160a01b0385811660248301528481166044830152606480830185905283518084039091018152608490920183526020820180516001600160e01b03166323b872dd60e01b17905291516000928392908816916147f69190615237565b6000604051808303816000865af19150503d8060008114614833576040519150601f19603f3d011682016040523d82523d6000602084013e614838565b606091505b509150915081801561486257508051158061486257508080602001905181019061486291906150ea565b6148a55760405162461bcd60e51b81526020600482015260146024820152731514905394d1915497d19493d357d1905253115160621b6044820152606401610ae5565b505050505050565b6117bc8282614496565b600354604051639ce5630560e01b8152600481018490526000916001600160a01b031690639ce563059060240160606040518083038186803b1580156148fc57600080fd5b505afa158015614910573d6000803e3d6000fd5b505050506040513d601f19601f8201168201806040525081019061493491906151d9565b50915050428110801561494657504282105b6149625760405162461bcd60e51b8152600401610ae59061554d565b60035460405163c0a37b3f60e01b81526001600160a01b038781166004830152602482018690529091169063c0a37b3f90604401600060405180830381600087803b1580156149b057600080fd5b505af11580156149c4573d6000803e3d6000fd5b5050506000948552505060106020525050604081205550565b600080600654600114614a2d5760405162461bcd60e51b81526020600482015260186024820152774c6f636b496420697320616c726561647920696e2075736560401b6044820152606401610ae5565b60006006819055600954905473__$23c3f0c4d39c3898c699ac978f80cfe781$__9163f3c85eba91889190614a62888a6155ea565b614a6c91906155ca565b6040516001600160e01b031960e086901b16815260048101939093526024830191909152604482015260640160206040518083038186803b158015614ab057600080fd5b505af4158015614ac4573d6000803e3d6000fd5b505050506040513d601f19601f82011682018060405250810190614ae89190615175565b905060008111614b335760405162461bcd60e51b81526020600482015260166024820152751e995c9bc818dbdb5c1bdd5b99195908185b5bdd5b9d60521b6044820152606401610ae5565b60035460405163036e72c360e21b81526001600160a01b0390911690630db9cb0c90614b6790899085908990600401615336565b602060405180830381600087803b158015614b8157600080fd5b505af1158015614b95573d6000803e3d6000fd5b505050506040513d601f19601f82011682018060405250810190614bb99190615175565b915060008211614bdb5760405162461bcd60e51b8152600401610ae5906153ce565b600160065590969095509350505050565b60008380614c0c5760405162461bcd60e51b8152600401610ae590615584565b8380614c2a5760405162461bcd60e51b8152600401610ae590615584565b614c338761451c565b614c3b6145c2565b9250614c4787846145d3565b614c55878488886000614616565b5050506000818152601060205260409020919091559392505050565b60606000614c808360026155ea565b614c8b9060026155b2565b67ffffffffffffffff811115614cb157634e487b7160e01b600052604160045260246000fd5b6040519080825280601f01601f191660200182016040528015614cdb576020820181803683370190505b509050600360fc1b81600081518110614d0457634e487b7160e01b600052603260045260246000fd5b60200101906001600160f81b031916908160001a905350600f60fb1b81600181518110614d4157634e487b7160e01b600052603260045260246000fd5b60200101906001600160f81b031916908160001a9053506000614d658460026155ea565b614d709060016155b2565b90505b6001811115614e04576f181899199a1a9b1b9c1cb0b131b232b360811b85600f1660108110614db257634e487b7160e01b600052603260045260246000fd5b1a60f81b828281518110614dd657634e487b7160e01b600052603260045260246000fd5b60200101906001600160f81b031916908160001a90535060049490941c93614dfd8161564c565b9050614d73565b508315614e535760405162461bcd60e51b815260206004820181905260248201527f537472696e67733a20686578206c656e67746820696e73756666696369656e746044820152606401610ae5565b9392505050565b80356001600160a01b03811681146111e457600080fd5b60008083601f840112614e82578182fd5b50813567ffffffffffffffff811115614e99578182fd5b6020830191508360208260051b8501011115614eb457600080fd5b9250929050565b600060208284031215614ecc578081fd5b614e5382614e5a565b600080600060608486031215614ee9578182fd5b614ef284614e5a565b9250614f0060208501614e5a565b9150614f0e60408501614e5a565b90509250925092565b60008060408385031215614f29578182fd5b614f3283614e5a565b946020939093013593505050565b600080600060608486031215614f54578283fd5b614f5d84614e5a565b95602085013595506040909401359392505050565b60008060008060808587031215614f87578081fd5b614f9085614e5a565b966020860135965060408601359560600135945092505050565b600080600080600060a08688031215614fc1578081fd5b614fca86614e5a565b97602087013597506040870135966060810135965060800135945092505050565b6000806000806000806000806080898b031215615006578283fd5b883567ffffffffffffffff8082111561501d578485fd5b6150298c838d01614e71565b909a50985060208b0135915080821115615041578485fd5b61504d8c838d01614e71565b909850965060408b0135915080821115615065578485fd5b6150718c838d01614e71565b909650945060608b0135915080821115615089578384fd5b506150968b828c01614e71565b999c989b5096995094979396929594505050565b600080602083850312156150bc578182fd5b823567ffffffffffffffff8111156150d2578283fd5b6150de85828601614e71565b90969095509350505050565b6000602082840312156150fb578081fd5b81518015158114614e53578182fd5b60006020828403121561511b578081fd5b5035919050565b60008060408385031215615134578182fd5b8235915061514460208401614e5a565b90509250929050565b60006020828403121561515e578081fd5b81356001600160e01b031981168114614e53578182fd5b600060208284031215615186578081fd5b5051919050565b6000806040838503121561519f578182fd5b50508035926020909101359150565b6000806000606084860312156151c2578081fd5b505081359360208301359350604090920135919050565b6000806000606084860312156151ed578081fd5b8351925060208401519150604084015190509250925092565b6000806000806080858703121561521b578182fd5b5050823594602084013594506040840135936060013592509050565b60008251615249818460208701615620565b9190910192915050565b7f416363657373436f6e74726f6c3a206163636f756e742000000000000000000081526000835161528b816017850160208801615620565b7001034b99036b4b9b9b4b733903937b6329607d1b60179184019182015283516152bc816028840160208801615620565b01602801949350505050565b6001600160a01b03969096168652602086019490945260408501929092526060840152608083015260a082015260c00190565b6001600160a01b03979097168752602087019590955260408601939093526060850191909152608084015260a083015260c082015260e00190565b6001600160a01b039390931683526020830191909152604082015260600190565b6020808252825182820181905260009190848201906040850190845b8181101561538f57835183529284019291840191600101615373565b50909695505050505050565b60208152600082518060208401526153ba816040850160208701615620565b601f01601f19169190910160400192915050565b6020808252600b908201526a1e995c9bc81cdd1bdcd25960aa1b604082015260600190565b60208082526022908201527f41636365737369626c653a2043616c6c6572206973206e6f7420616e2061646d60408201526134b760f11b606082015260800190565b60208082526028908201527f41636365737369626c653a2043616c6c6572206973206e6f7420616e2070726f6040820152673c3c9030b236b4b760c11b606082015260800190565b60208082526023908201527f69742773206e6f7420666f722073696d706c65207374616b65206f7220656d706040820152623a3c9760e91b606082015260800190565b6020808252601590820152745374616b696e673a207a65726f206164647265737360581b604082015260600190565b60208082526014908201527331b0b63632b91034b9903737ba1039ba30b5b2b960611b604082015260600190565b60208082526016908201527539b2b73232b91034b9903737ba1030903137b73232b960511b604082015260600190565b6020808252601c908201527f6c6f636b20656e642074696d6520686173206e6f742070617373656400000000604082015260600190565b6020808252601490820152735374616b696e673a207a65726f2076616c6c756560601b604082015260600190565b600082198211156155c5576155c561567e565b500190565b6000826155e557634e487b7160e01b81526012600452602481fd5b500490565b60008160001904831182151516156156045761560461567e565b500290565b60008282101561561b5761561b61567e565b500390565b60005b8381101561563b578181015183820152602001615623565b838111156126325750506000910152565b60008161565b5761565b61567e565b506000190190565b60006000198214156156775761567761567e565b5060010190565b634e487b7160e01b600052601160045260246000fdfedf8b4c520ffe197c5343c6f5aec59570151ef9a492f2c624fd45ddde6135ec42fb5864e8ff833c3cb2d2d08505e82ff02a43554c74a35d4f5a64e85261278311a264697066735822122056d41e2fe5e00b5de8e9d941965b0fbc4489e86f941d77a657dac15ee7fc3bac64736f6c63430008040033",
  "linkReferences": {
    "contracts/libraries/LibStaking.sol": {
      "LibStaking": [
        {
          "length": 20,
          "start": 4385
        },
        {
          "length": 20,
          "start": 6344
        },
        {
          "length": 20,
          "start": 8926
        },
        {
          "length": 20,
          "start": 12559
        },
        {
          "length": 20,
          "start": 12816
        },
        {
          "length": 20,
          "start": 13108
        },
        {
          "length": 20,
          "start": 14308
        },
        {
          "length": 20,
          "start": 15415
        },
        {
          "length": 20,
          "start": 19041
        }
      ]
    }
  },
  "deployedLinkReferences": {
    "contracts/libraries/LibStaking.sol": {
      "LibStaking": [
        {
          "length": 20,
          "start": 4347
        },
        {
          "length": 20,
          "start": 6306
        },
        {
          "length": 20,
          "start": 8888
        },
        {
          "length": 20,
          "start": 12521
        },
        {
          "length": 20,
          "start": 12778
        },
        {
          "length": 20,
          "start": 13070
        },
        {
          "length": 20,
          "start": 14270
        },
        {
          "length": 20,
          "start": 15377
        },
        {
          "length": 20,
          "start": 19003
        }
      ]
    }
  }
}