{
  "_format": "hh-sol-artifact-1",
  "contractName": "StakingV2",
  "sourceName": "contracts/StakingV2.sol",
  "abi": [
    {
      "inputs": [],
      "stateMutability": "nonpayable",
      "type": "constructor"
    },
    {
      "anonymous": false,
      "inputs": [
        {
          "indexed": false,
          "internalType": "address",
          "name": "staker",
          "type": "address"
        },
        {
          "indexed": false,
          "internalType": "uint256",
          "name": "claimAmount",
          "type": "uint256"
        },
        {
          "indexed": false,
          "internalType": "uint256",
          "name": "stakeId",
          "type": "uint256"
        }
      ],
      "name": "ClaimdForNonLock",
      "type": "event"
    },
    {
      "anonymous": false,
      "inputs": [
        {
          "indexed": false,
          "internalType": "address",
          "name": "to",
          "type": "address"
        },
        {
          "indexed": false,
          "internalType": "uint256",
          "name": "amount",
          "type": "uint256"
        },
        {
          "indexed": false,
          "internalType": "uint256",
          "name": "stakeId",
          "type": "uint256"
        }
      ],
      "name": "IncreasedAmountForSimpleStake",
      "type": "event"
    },
    {
      "anonymous": false,
      "inputs": [
        {
          "indexed": false,
          "internalType": "address",
          "name": "staker",
          "type": "address"
        },
        {
          "indexed": false,
          "internalType": "uint256",
          "name": "amount",
          "type": "uint256"
        },
        {
          "indexed": false,
          "internalType": "uint256",
          "name": "unlockWeeks",
          "type": "uint256"
        },
        {
          "indexed": false,
          "internalType": "uint256",
          "name": "stakeId",
          "type": "uint256"
        },
        {
          "indexed": false,
          "internalType": "uint256",
          "name": "stosId",
          "type": "uint256"
        }
      ],
      "name": "IncreasedBeforeEndOrNonEnd",
      "type": "event"
    },
    {
      "anonymous": false,
      "inputs": [
        {
          "indexed": false,
          "internalType": "uint256",
          "name": "oldIndex",
          "type": "uint256"
        },
        {
          "indexed": false,
          "internalType": "uint256",
          "name": "newIndex",
          "type": "uint256"
        },
        {
          "indexed": false,
          "internalType": "uint256",
          "name": "totalLTOS",
          "type": "uint256"
        }
      ],
      "name": "Rebased",
      "type": "event"
    },
    {
      "anonymous": false,
      "inputs": [
        {
          "indexed": false,
          "internalType": "address",
          "name": "to",
          "type": "address"
        },
        {
          "indexed": false,
          "internalType": "uint256",
          "name": "addAmount",
          "type": "uint256"
        },
        {
          "indexed": false,
          "internalType": "uint256",
          "name": "claimAmount",
          "type": "uint256"
        },
        {
          "indexed": false,
          "internalType": "uint256",
          "name": "periodWeeks",
          "type": "uint256"
        },
        {
          "indexed": false,
          "internalType": "uint256",
          "name": "stakeId",
          "type": "uint256"
        },
        {
          "indexed": false,
          "internalType": "uint256",
          "name": "stosId",
          "type": "uint256"
        }
      ],
      "name": "ResetStakedGetStosAfterLock",
      "type": "event"
    },
    {
      "anonymous": false,
      "inputs": [
        {
          "indexed": true,
          "internalType": "bytes32",
          "name": "role",
          "type": "bytes32"
        },
        {
          "indexed": true,
          "internalType": "bytes32",
          "name": "previousAdminRole",
          "type": "bytes32"
        },
        {
          "indexed": true,
          "internalType": "bytes32",
          "name": "newAdminRole",
          "type": "bytes32"
        }
      ],
      "name": "RoleAdminChanged",
      "type": "event"
    },
    {
      "anonymous": false,
      "inputs": [
        {
          "indexed": true,
          "internalType": "bytes32",
          "name": "role",
          "type": "bytes32"
        },
        {
          "indexed": true,
          "internalType": "address",
          "name": "account",
          "type": "address"
        },
        {
          "indexed": true,
          "internalType": "address",
          "name": "sender",
          "type": "address"
        }
      ],
      "name": "RoleGranted",
      "type": "event"
    },
    {
      "anonymous": false,
      "inputs": [
        {
          "indexed": true,
          "internalType": "bytes32",
          "name": "role",
          "type": "bytes32"
        },
        {
          "indexed": true,
          "internalType": "address",
          "name": "account",
          "type": "address"
        },
        {
          "indexed": true,
          "internalType": "address",
          "name": "sender",
          "type": "address"
        }
      ],
      "name": "RoleRevoked",
      "type": "event"
    },
    {
      "anonymous": false,
      "inputs": [
        {
          "indexed": false,
          "internalType": "address",
          "name": "to",
          "type": "address"
        },
        {
          "indexed": false,
          "internalType": "uint256",
          "name": "amount",
          "type": "uint256"
        },
        {
          "indexed": false,
          "internalType": "uint256",
          "name": "stakeId",
          "type": "uint256"
        }
      ],
      "name": "Staked",
      "type": "event"
    },
    {
      "anonymous": false,
      "inputs": [
        {
          "indexed": false,
          "internalType": "address",
          "name": "to",
          "type": "address"
        },
        {
          "indexed": false,
          "internalType": "uint256",
          "name": "amount",
          "type": "uint256"
        },
        {
          "indexed": false,
          "internalType": "uint256",
          "name": "ltos",
          "type": "uint256"
        },
        {
          "indexed": false,
          "internalType": "uint256",
          "name": "marketId",
          "type": "uint256"
        },
        {
          "indexed": false,
          "internalType": "uint256",
          "name": "stakeId",
          "type": "uint256"
        },
        {
          "indexed": false,
          "internalType": "uint256",
          "name": "tokenPrice",
          "type": "uint256"
        },
        {
          "indexed": false,
          "internalType": "uint256",
          "name": "tosPrice",
          "type": "uint256"
        }
      ],
      "name": "StakedByBond",
      "type": "event"
    },
    {
      "anonymous": false,
      "inputs": [
        {
          "indexed": false,
          "internalType": "address",
          "name": "to",
          "type": "address"
        },
        {
          "indexed": false,
          "internalType": "uint256",
          "name": "amount",
          "type": "uint256"
        },
        {
          "indexed": false,
          "internalType": "uint256",
          "name": "periodWeeks",
          "type": "uint256"
        },
        {
          "indexed": false,
          "internalType": "uint256",
          "name": "stakeId",
          "type": "uint256"
        },
        {
          "indexed": false,
          "internalType": "uint256",
          "name": "stosId",
          "type": "uint256"
        }
      ],
      "name": "StakedGetStos",
      "type": "event"
    },
    {
      "anonymous": false,
      "inputs": [
        {
          "indexed": false,
          "internalType": "address",
          "name": "to",
          "type": "address"
        },
        {
          "indexed": false,
          "internalType": "uint256",
          "name": "amount",
          "type": "uint256"
        },
        {
          "indexed": false,
          "internalType": "uint256",
          "name": "ltos",
          "type": "uint256"
        },
        {
          "indexed": false,
          "internalType": "uint256",
          "name": "periodWeeks",
          "type": "uint256"
        },
        {
          "indexed": false,
          "internalType": "uint256",
          "name": "marketId",
          "type": "uint256"
        },
        {
          "indexed": false,
          "internalType": "uint256",
          "name": "stakeId",
          "type": "uint256"
        },
        {
          "indexed": false,
          "internalType": "uint256",
          "name": "stosId",
          "type": "uint256"
        },
        {
          "indexed": false,
          "internalType": "uint256",
          "name": "tokenPrice",
          "type": "uint256"
        },
        {
          "indexed": false,
          "internalType": "uint256",
          "name": "tosPrice",
          "type": "uint256"
        }
      ],
      "name": "StakedGetStosByBond",
      "type": "event"
    },
    {
      "anonymous": false,
      "inputs": [
        {
          "indexed": false,
          "internalType": "address",
          "name": "staker",
          "type": "address"
        },
        {
          "indexed": false,
          "internalType": "uint256",
          "name": "amount",
          "type": "uint256"
        },
        {
          "indexed": false,
          "internalType": "uint256",
          "name": "stakeId",
          "type": "uint256"
        }
      ],
      "name": "Unstaked",
      "type": "event"
    },
    {
      "inputs": [],
      "name": "ADMIN_ROLE",
      "outputs": [
        {
          "internalType": "bytes32",
          "name": "",
          "type": "bytes32"
        }
      ],
      "stateMutability": "view",
      "type": "function"
    },
    {
      "inputs": [],
      "name": "DEFAULT_ADMIN_ROLE",
      "outputs": [
        {
          "internalType": "bytes32",
          "name": "",
          "type": "bytes32"
        }
      ],
      "stateMutability": "view",
      "type": "function"
    },
    {
      "inputs": [],
      "name": "POLICY_ROLE",
      "outputs": [
        {
          "internalType": "bytes32",
          "name": "",
          "type": "bytes32"
        }
      ],
      "stateMutability": "view",
      "type": "function"
    },
    {
      "inputs": [],
      "name": "PROJECT_ADMIN_ROLE",
      "outputs": [
        {
          "internalType": "bytes32",
          "name": "",
          "type": "bytes32"
        }
      ],
      "stateMutability": "view",
      "type": "function"
    },
    {
      "inputs": [],
      "name": "TOS",
      "outputs": [
        {
          "internalType": "contract IERC20",
          "name": "",
          "type": "address"
        }
      ],
      "stateMutability": "view",
      "type": "function"
    },
    {
      "inputs": [
        {
          "internalType": "address",
          "name": "account",
          "type": "address"
        }
      ],
      "name": "addAdmin",
      "outputs": [],
      "stateMutability": "nonpayable",
      "type": "function"
    },
    {
      "inputs": [
        {
          "internalType": "address",
          "name": "_account",
          "type": "address"
        }
      ],
      "name": "addPolicy",
      "outputs": [],
      "stateMutability": "nonpayable",
      "type": "function"
    },
    {
      "inputs": [
        {
          "internalType": "address",
          "name": "_owner",
          "type": "address"
        }
      ],
      "name": "addProxyAdmin",
      "outputs": [],
      "stateMutability": "nonpayable",
      "type": "function"
    },
    {
      "inputs": [
        {
          "internalType": "uint256",
          "name": "",
          "type": "uint256"
        }
      ],
      "name": "allStakings",
      "outputs": [
        {
          "internalType": "address",
          "name": "staker",
          "type": "address"
        },
        {
          "internalType": "uint256",
          "name": "deposit",
          "type": "uint256"
        },
        {
          "internalType": "uint256",
          "name": "LTOS",
          "type": "uint256"
        },
        {
          "internalType": "uint256",
          "name": "startTime",
          "type": "uint256"
        },
        {
          "internalType": "uint256",
          "name": "endTime",
          "type": "uint256"
        },
        {
          "internalType": "uint256",
          "name": "marketId",
          "type": "uint256"
        }
      ],
      "stateMutability": "view",
      "type": "function"
    },
    {
      "inputs": [
        {
          "internalType": "address",
          "name": "_addr",
          "type": "address"
        }
      ],
      "name": "balanceOf",
      "outputs": [
        {
          "internalType": "uint256",
          "name": "balance",
          "type": "uint256"
        }
      ],
      "stateMutability": "view",
      "type": "function"
    },
    {
      "inputs": [
        {
          "internalType": "uint256",
          "name": "_stakeId",
          "type": "uint256"
        }
      ],
      "name": "balanceOfId",
      "outputs": [
        {
          "internalType": "uint256",
          "name": "",
          "type": "uint256"
        }
      ],
      "stateMutability": "view",
      "type": "function"
    },
    {
      "inputs": [],
      "name": "basicBondPeriod",
      "outputs": [
        {
          "internalType": "uint256",
          "name": "",
          "type": "uint256"
        }
      ],
      "stateMutability": "view",
      "type": "function"
    },
    {
      "inputs": [
        {
          "internalType": "uint256",
          "name": "_stakeId",
          "type": "uint256"
        },
        {
          "internalType": "uint256",
          "name": "_claimAmount",
          "type": "uint256"
        }
      ],
      "name": "claimForSimpleType",
      "outputs": [],
      "stateMutability": "nonpayable",
      "type": "function"
    },
    {
      "inputs": [
        {
          "internalType": "uint256",
          "name": "_stakeId",
          "type": "uint256"
        }
      ],
      "name": "claimableLtos",
      "outputs": [
        {
          "internalType": "uint256",
          "name": "",
          "type": "uint256"
        }
      ],
      "stateMutability": "view",
      "type": "function"
    },
    {
      "inputs": [
        {
          "internalType": "uint256",
          "name": "_stakeId",
          "type": "uint256"
        }
      ],
      "name": "claimableTos",
      "outputs": [
        {
          "internalType": "uint256",
          "name": "",
          "type": "uint256"
        }
      ],
      "stateMutability": "view",
      "type": "function"
    },
    {
      "inputs": [
        {
          "internalType": "uint256",
          "name": "",
          "type": "uint256"
        }
      ],
      "name": "connectId",
      "outputs": [
        {
          "internalType": "uint256",
          "name": "",
          "type": "uint256"
        }
      ],
      "stateMutability": "view",
      "type": "function"
    },
    {
      "inputs": [],
      "name": "epoch",
      "outputs": [
        {
          "internalType": "uint256",
          "name": "length_",
          "type": "uint256"
        },
        {
          "internalType": "uint256",
          "name": "number",
          "type": "uint256"
        },
        {
          "internalType": "uint256",
          "name": "end",
          "type": "uint256"
        }
      ],
      "stateMutability": "view",
      "type": "function"
    },
    {
      "inputs": [],
      "name": "generateMarketId",
      "outputs": [
        {
          "internalType": "uint256",
          "name": "",
          "type": "uint256"
        }
      ],
      "stateMutability": "nonpayable",
      "type": "function"
    },
    {
      "inputs": [],
      "name": "getIndex",
      "outputs": [
        {
          "internalType": "uint256",
          "name": "",
          "type": "uint256"
        }
      ],
      "stateMutability": "view",
      "type": "function"
    },
    {
      "inputs": [
        {
          "internalType": "uint256",
          "name": "ltos",
          "type": "uint256"
        }
      ],
      "name": "getLtosToTos",
      "outputs": [
        {
          "internalType": "uint256",
          "name": "",
          "type": "uint256"
        }
      ],
      "stateMutability": "view",
      "type": "function"
    },
    {
      "inputs": [
        {
          "internalType": "bytes32",
          "name": "role",
          "type": "bytes32"
        }
      ],
      "name": "getRoleAdmin",
      "outputs": [
        {
          "internalType": "bytes32",
          "name": "",
          "type": "bytes32"
        }
      ],
      "stateMutability": "view",
      "type": "function"
    },
    {
      "inputs": [
        {
          "internalType": "uint256",
          "name": "amount",
          "type": "uint256"
        }
      ],
      "name": "getTosToLtos",
      "outputs": [
        {
          "internalType": "uint256",
          "name": "",
          "type": "uint256"
        }
      ],
      "stateMutability": "view",
      "type": "function"
    },
    {
      "inputs": [
        {
          "internalType": "bytes32",
          "name": "role",
          "type": "bytes32"
        },
        {
          "internalType": "address",
          "name": "account",
          "type": "address"
        }
      ],
      "name": "grantRole",
      "outputs": [],
      "stateMutability": "nonpayable",
      "type": "function"
    },
    {
      "inputs": [
        {
          "internalType": "bytes32",
          "name": "role",
          "type": "bytes32"
        },
        {
          "internalType": "address",
          "name": "account",
          "type": "address"
        }
      ],
      "name": "hasRole",
      "outputs": [
        {
          "internalType": "bool",
          "name": "",
          "type": "bool"
        }
      ],
      "stateMutability": "view",
      "type": "function"
    },
    {
      "inputs": [
        {
          "internalType": "uint256",
          "name": "_stakeId",
          "type": "uint256"
        },
        {
          "internalType": "uint256",
          "name": "_amount",
          "type": "uint256"
        }
      ],
      "name": "increaseAmountForSimpleStake",
      "outputs": [],
      "stateMutability": "nonpayable",
      "type": "function"
    },
    {
      "inputs": [
        {
          "internalType": "uint256",
          "name": "_stakeId",
          "type": "uint256"
        },
        {
          "internalType": "uint256",
          "name": "_amount",
          "type": "uint256"
        },
        {
          "internalType": "uint256",
          "name": "_unlockWeeks",
          "type": "uint256"
        }
      ],
      "name": "increaseBeforeEndOrNonEnd",
      "outputs": [],
      "stateMutability": "nonpayable",
      "type": "function"
    },
    {
      "inputs": [],
      "name": "index_",
      "outputs": [
        {
          "internalType": "uint256",
          "name": "",
          "type": "uint256"
        }
      ],
      "stateMutability": "view",
      "type": "function"
    },
    {
      "inputs": [
        {
          "internalType": "address",
          "name": "account",
          "type": "address"
        }
      ],
      "name": "isAdmin",
      "outputs": [
        {
          "internalType": "bool",
          "name": "",
          "type": "bool"
        }
      ],
      "stateMutability": "view",
      "type": "function"
    },
    {
      "inputs": [
        {
          "internalType": "address",
          "name": "account",
          "type": "address"
        }
      ],
      "name": "isPolicy",
      "outputs": [
        {
          "internalType": "bool",
          "name": "",
          "type": "bool"
        }
      ],
      "stateMutability": "view",
      "type": "function"
    },
    {
      "inputs": [
        {
          "internalType": "address",
          "name": "account",
          "type": "address"
        }
      ],
      "name": "isProxyAdmin",
      "outputs": [
        {
          "internalType": "bool",
          "name": "",
          "type": "bool"
        }
      ],
      "stateMutability": "view",
      "type": "function"
    },
    {
      "inputs": [],
      "name": "lockTOS",
      "outputs": [
        {
          "internalType": "address",
          "name": "",
          "type": "address"
        }
      ],
      "stateMutability": "view",
      "type": "function"
    },
    {
      "inputs": [
        {
          "internalType": "uint256",
          "name": "",
          "type": "uint256"
        }
      ],
      "name": "lockTOSId",
      "outputs": [
        {
          "internalType": "uint256",
          "name": "",
          "type": "uint256"
        }
      ],
      "stateMutability": "view",
      "type": "function"
    },
    {
      "inputs": [],
      "name": "marketIdCounter",
      "outputs": [
        {
          "internalType": "uint256",
          "name": "",
          "type": "uint256"
        }
      ],
      "stateMutability": "view",
      "type": "function"
    },
    {
      "inputs": [
        {
          "internalType": "uint256[]",
          "name": "_stakeIds",
          "type": "uint256[]"
        }
      ],
      "name": "multiUnstake",
      "outputs": [],
      "stateMutability": "nonpayable",
      "type": "function"
    },
    {
      "inputs": [],
      "name": "nextIndex",
      "outputs": [
        {
          "internalType": "uint256",
          "name": "",
          "type": "uint256"
        }
      ],
      "stateMutability": "view",
      "type": "function"
    },
    {
      "inputs": [],
      "name": "rebaseIndex",
      "outputs": [],
      "stateMutability": "nonpayable",
      "type": "function"
    },
    {
      "inputs": [],
      "name": "rebasePerEpoch",
      "outputs": [
        {
          "internalType": "uint256",
          "name": "",
          "type": "uint256"
        }
      ],
      "stateMutability": "view",
      "type": "function"
    },
    {
      "inputs": [
        {
          "internalType": "uint256",
          "name": "_stakeId",
          "type": "uint256"
        }
      ],
      "name": "remainedLTOS",
      "outputs": [
        {
          "internalType": "uint256",
          "name": "",
          "type": "uint256"
        }
      ],
      "stateMutability": "view",
      "type": "function"
    },
    {
      "inputs": [
        {
          "internalType": "uint256",
          "name": "_stakeId",
          "type": "uint256"
        }
      ],
      "name": "remainedLTOSToTos",
      "outputs": [
        {
          "internalType": "uint256",
          "name": "",
          "type": "uint256"
        }
      ],
      "stateMutability": "view",
      "type": "function"
    },
    {
      "inputs": [],
      "name": "removeAdmin",
      "outputs": [],
      "stateMutability": "nonpayable",
      "type": "function"
    },
    {
      "inputs": [],
      "name": "removePolicy",
      "outputs": [],
      "stateMutability": "nonpayable",
      "type": "function"
    },
    {
      "inputs": [],
      "name": "removeProxyAdmin",
      "outputs": [],
      "stateMutability": "nonpayable",
      "type": "function"
    },
    {
      "inputs": [
        {
          "internalType": "bytes32",
          "name": "role",
          "type": "bytes32"
        },
        {
          "internalType": "address",
          "name": "account",
          "type": "address"
        }
      ],
      "name": "renounceRole",
      "outputs": [],
      "stateMutability": "nonpayable",
      "type": "function"
    },
    {
      "inputs": [
        {
          "internalType": "uint256",
          "name": "_stakeId",
          "type": "uint256"
        },
        {
          "internalType": "uint256",
          "name": "_addAmount",
          "type": "uint256"
        },
        {
          "internalType": "uint256",
          "name": "_claimAmount",
          "type": "uint256"
        },
        {
          "internalType": "uint256",
          "name": "_periodWeeks",
          "type": "uint256"
        }
      ],
      "name": "resetStakeGetStosAfterLock",
      "outputs": [],
      "stateMutability": "nonpayable",
      "type": "function"
    },
    {
      "inputs": [
        {
          "internalType": "bytes32",
          "name": "role",
          "type": "bytes32"
        },
        {
          "internalType": "address",
          "name": "account",
          "type": "address"
        }
      ],
      "name": "revokeRole",
      "outputs": [],
      "stateMutability": "nonpayable",
      "type": "function"
    },
    {
      "inputs": [],
      "name": "runwayTOS",
      "outputs": [
        {
          "internalType": "uint256",
          "name": "",
          "type": "uint256"
        }
      ],
      "stateMutability": "view",
      "type": "function"
    },
    {
      "inputs": [],
      "name": "secondsToNextEpoch",
      "outputs": [
        {
          "internalType": "uint256",
          "name": "",
          "type": "uint256"
        }
      ],
      "stateMutability": "view",
      "type": "function"
    },
    {
      "inputs": [
        {
          "internalType": "address",
          "name": "_tos",
          "type": "address"
        },
        {
          "internalType": "address",
          "name": "_lockTOS",
          "type": "address"
        },
        {
          "internalType": "address",
          "name": "_treasury",
          "type": "address"
        }
      ],
      "name": "setAddressInfos",
      "outputs": [],
      "stateMutability": "nonpayable",
      "type": "function"
    },
    {
      "inputs": [
        {
          "internalType": "uint256",
          "name": "_period",
          "type": "uint256"
        }
      ],
      "name": "setBasicBondPeriod",
      "outputs": [],
      "stateMutability": "nonpayable",
      "type": "function"
    },
    {
      "inputs": [
        {
          "internalType": "uint256",
          "name": "_index",
          "type": "uint256"
        }
      ],
      "name": "setIndex",
      "outputs": [],
      "stateMutability": "nonpayable",
      "type": "function"
    },
    {
      "inputs": [
        {
          "internalType": "uint256",
          "name": "_rebasePerEpoch",
          "type": "uint256"
        }
      ],
      "name": "setRebasePerEpoch",
      "outputs": [],
      "stateMutability": "nonpayable",
      "type": "function"
    },
    {
      "inputs": [
        {
          "internalType": "uint256",
          "name": "_amount",
          "type": "uint256"
        }
      ],
      "name": "stake",
      "outputs": [
        {
          "internalType": "uint256",
          "name": "stakeId",
          "type": "uint256"
        }
      ],
      "stateMutability": "nonpayable",
      "type": "function"
    },
    {
      "inputs": [
        {
          "internalType": "address",
          "name": "to",
          "type": "address"
        },
        {
          "internalType": "uint256",
          "name": "_amount",
          "type": "uint256"
        },
        {
          "internalType": "uint256",
          "name": "_marketId",
          "type": "uint256"
        },
        {
          "internalType": "uint256",
          "name": "tokenPrice",
          "type": "uint256"
        },
        {
          "internalType": "uint256",
          "name": "tosPrice",
          "type": "uint256"
        }
      ],
      "name": "stakeByBond",
      "outputs": [
        {
          "internalType": "uint256",
          "name": "stakeId",
          "type": "uint256"
        }
      ],
      "stateMutability": "nonpayable",
      "type": "function"
    },
    {
      "inputs": [
        {
          "internalType": "uint256",
          "name": "_amount",
          "type": "uint256"
        },
        {
          "internalType": "uint256",
          "name": "_periodWeeks",
          "type": "uint256"
        }
      ],
      "name": "stakeGetStos",
      "outputs": [
        {
          "internalType": "uint256",
          "name": "stakeId",
          "type": "uint256"
        }
      ],
      "stateMutability": "nonpayable",
      "type": "function"
    },
    {
      "inputs": [
        {
          "internalType": "address",
          "name": "_to",
          "type": "address"
        },
        {
          "internalType": "uint256",
          "name": "_amount",
          "type": "uint256"
        },
        {
          "internalType": "uint256",
          "name": "_marketId",
          "type": "uint256"
        },
        {
          "internalType": "uint256",
          "name": "_periodWeeks",
          "type": "uint256"
        },
        {
          "internalType": "uint256",
          "name": "tokenPrice",
          "type": "uint256"
        },
        {
          "internalType": "uint256",
          "name": "tosPrice",
          "type": "uint256"
        }
      ],
      "name": "stakeGetStosByBond",
      "outputs": [
        {
          "internalType": "uint256",
          "name": "stakeId",
          "type": "uint256"
        }
      ],
      "stateMutability": "nonpayable",
      "type": "function"
    },
    {
      "inputs": [
        {
          "internalType": "uint256",
          "name": "stakeId",
          "type": "uint256"
        }
      ],
      "name": "stakeInfo",
      "outputs": [
        {
          "internalType": "address",
          "name": "staker",
          "type": "address"
        },
        {
          "internalType": "uint256",
          "name": "deposit",
          "type": "uint256"
        },
        {
          "internalType": "uint256",
          "name": "LTOS",
          "type": "uint256"
        },
        {
          "internalType": "uint256",
          "name": "startTime",
          "type": "uint256"
        },
        {
          "internalType": "uint256",
          "name": "endTime",
          "type": "uint256"
        },
        {
          "internalType": "uint256",
          "name": "marketId",
          "type": "uint256"
        }
      ],
      "stateMutability": "view",
      "type": "function"
    },
    {
      "inputs": [
        {
          "internalType": "uint256",
          "name": "stakeId",
          "type": "uint256"
        }
      ],
      "name": "stakedOf",
      "outputs": [
        {
          "internalType": "uint256",
          "name": "",
          "type": "uint256"
        }
      ],
      "stateMutability": "view",
      "type": "function"
    },
    {
      "inputs": [],
      "name": "stakedOfAll",
      "outputs": [
        {
          "internalType": "uint256",
          "name": "",
          "type": "uint256"
        }
      ],
      "stateMutability": "view",
      "type": "function"
    },
    {
      "inputs": [],
      "name": "stakingIdCounter",
      "outputs": [
        {
          "internalType": "uint256",
          "name": "",
          "type": "uint256"
        }
      ],
      "stateMutability": "view",
      "type": "function"
    },
    {
      "inputs": [
        {
          "internalType": "address",
          "name": "_addr",
          "type": "address"
        }
      ],
      "name": "stakingOf",
      "outputs": [
        {
          "internalType": "uint256[]",
          "name": "",
          "type": "uint256[]"
        }
      ],
      "stateMutability": "view",
      "type": "function"
    },
    {
      "inputs": [],
      "name": "stakingPrincipal",
      "outputs": [
        {
          "internalType": "uint256",
          "name": "",
          "type": "uint256"
        }
      ],
      "stateMutability": "view",
      "type": "function"
    },
    {
      "inputs": [],
      "name": "startEpochTime",
      "outputs": [
        {
          "internalType": "uint256",
          "name": "",
          "type": "uint256"
        }
      ],
      "stateMutability": "view",
      "type": "function"
    },
    {
      "inputs": [
        {
          "internalType": "bytes4",
          "name": "interfaceId",
          "type": "bytes4"
        }
      ],
      "name": "supportsInterface",
      "outputs": [
        {
          "internalType": "bool",
          "name": "",
          "type": "bool"
        }
      ],
      "stateMutability": "view",
      "type": "function"
    },
    {
      "inputs": [
        {
          "internalType": "address[]",
          "name": "accounts",
          "type": "address[]"
        },
        {
          "internalType": "uint256[]",
          "name": "balances",
          "type": "uint256[]"
        },
        {
          "internalType": "uint256[]",
          "name": "period",
          "type": "uint256[]"
        },
        {
          "internalType": "uint256[]",
          "name": "tokenId",
          "type": "uint256[]"
        }
      ],
      "name": "syncSTOS",
      "outputs": [],
      "stateMutability": "nonpayable",
      "type": "function"
    },
    {
      "inputs": [],
      "name": "totalDepositTOS",
      "outputs": [
        {
          "internalType": "uint256",
          "name": "",
          "type": "uint256"
        }
      ],
      "stateMutability": "view",
      "type": "function"
    },
    {
      "inputs": [],
      "name": "totalLTOS",
      "outputs": [
        {
          "internalType": "uint256",
          "name": "",
          "type": "uint256"
        }
      ],
      "stateMutability": "view",
      "type": "function"
    },
    {
      "inputs": [
        {
          "internalType": "address",
          "name": "newAdmin",
          "type": "address"
        }
      ],
      "name": "transferAdmin",
      "outputs": [],
      "stateMutability": "nonpayable",
      "type": "function"
    },
    {
      "inputs": [
        {
          "internalType": "address",
          "name": "newAdmin",
          "type": "address"
        }
      ],
      "name": "transferPolicyAdmin",
      "outputs": [],
      "stateMutability": "nonpayable",
      "type": "function"
    },
    {
      "inputs": [
        {
          "internalType": "address",
          "name": "newAdmin",
          "type": "address"
        }
      ],
      "name": "transferProxyAdmin",
      "outputs": [],
      "stateMutability": "nonpayable",
      "type": "function"
    },
    {
      "inputs": [],
      "name": "treasury",
      "outputs": [
        {
          "internalType": "address",
          "name": "",
          "type": "address"
        }
      ],
      "stateMutability": "view",
      "type": "function"
    },
    {
      "inputs": [
        {
          "internalType": "uint256",
          "name": "_stakeId",
          "type": "uint256"
        }
      ],
      "name": "unstake",
      "outputs": [],
      "stateMutability": "nonpayable",
      "type": "function"
    },
    {
      "inputs": [
        {
          "internalType": "address",
          "name": "",
          "type": "address"
        },
        {
          "internalType": "uint256",
          "name": "",
          "type": "uint256"
        }
      ],
      "name": "userStakingIndex",
      "outputs": [
        {
          "internalType": "uint256",
          "name": "",
          "type": "uint256"
        }
      ],
      "stateMutability": "view",
      "type": "function"
    },
    {
      "inputs": [
        {
          "internalType": "address",
          "name": "",
          "type": "address"
        },
        {
          "internalType": "uint256",
          "name": "",
          "type": "uint256"
        }
      ],
      "name": "userStakings",
      "outputs": [
        {
          "internalType": "uint256",
          "name": "",
          "type": "uint256"
        }
      ],
      "stateMutability": "view",
      "type": "function"
    }
  ],
  "bytecode": "0x6080604052600160085534801561001557600080fd5b50615e2280620000266000396000f3fe608060405234801561001057600080fd5b50600436106103535760003560e01c806381045ead116101c657806381045ead146106a95780638356ca4f146106b157806383a5683a146106c45780638acf45fd146106d7578063900cf0cf146106f757806391d14854146107185780639483c1d71461072b57806396f1557c1461073357806397b42937146107465780639a202d47146107595780639a794e66146107615780639e9e792f14610774578063a052e69e14610794578063a1c95e5a1461079d578063a217fddf146107b0578063a694fc3a146107b8578063a7110dc3146107cb578063a89aa6a8146107f6578063b24352b114610809578063b84ef0811461081c578063b88ad1e31461082f578063be72f2d314610842578063c1b1c10e1461084a578063ca16910f1461085d578063ccd811c814610870578063d547741f14610878578063d5f95aab1461088b578063d8bc7be114610893578063da953911146108a6578063df160b3f146108b9578063e75f77e1146108c2578063f1c8c922146108d5578063f47f2f1d146108e8578063f8646408146108fb578063fad1c85c1461090e578063fbebef7a14610921578063fc7e9c6f1461093457600080fd5b806301ffc9a714610358578063037859af146103805780630e1e998f146103a057806311f1c8bf146103b75780631814a5b1146103ca5780631e725567146103d357806322985246146103e8578063248a9ca3146103fd57806324d7806c14610410578063265705b1146104235780632e17de78146104365780632f2ff15d1461044957806330e06e8b1461045c57806336568abe14610464578063385030b41461047757806340a5737f1461048057806341c04d5e1461049357806347e1b372146104a857806349ec9883146104b05780634e533572146104c35780634e6c4466146105525780635720bf3a146105725780635746248f1461057b5780635dc3c29a1461058e5780635f338352146105db57806361d027b3146105e357806365cb3a83146105f65780636d1c789f146105fe578063704802751461060757806370a082311461061a57806375829def1461062d57806375b238fc1461064057806377d73dc61461066757806378ad14051461067a57806379a34c79146106835780637cc0fee614610696575b600080fd5b61036b6103663660046154d4565b61093c565b60405190151581526020015b60405180910390f35b61039361038e366004615265565b610973565b6040516103779190615761565b6103a9600d5481565b604051908152602001610377565b6103a96103c5366004615491565b6109df565b6103a960065481565b6103e66103e1366004615514565b6109fa565b005b6103a9600080516020615da983398151915281565b6103a961040b366004615491565b610b9b565b61036b61041e366004615265565b610bb0565b6103e661043136600461527f565b610bca565b6103e6610444366004615491565b610d25565b6103e66104573660046154a9565b61115a565b6103a961117c565b6103e66104723660046154a9565b611235565b6103a9600c5481565b6103e661048e366004615491565b6112b3565b6103a9600080516020615c5483398151915281565b6103e66112dd565b6103e66104be366004615491565b6119c9565b6105406104d1366004615491565b600090815260116020908152604091829020825160c08101845281546001600160a01b03168082526001830154938201849052600283015494820185905260038301546060830181905260048401546080840181905260059094015460a0909301839052909593949390929190565b6040516103779695949392919061572e565b600154610565906001600160a01b031681565b6040516103779190615698565b6103a9600b5481565b6103a96105893660046152c1565b6119f3565b61054061059c366004615491565b6011602052600090815260409020805460018201546002830154600384015460048501546005909501546001600160a01b039094169492939192909186565b6103a9611a24565b600254610565906001600160a01b031681565b6103e6611a36565b6103a9600e5481565b6103e6610615366004615265565b611a73565b6103a9610628366004615265565b611ab3565b6103e661063b366004615265565b611b89565b6103a97fdf8b4c520ffe197c5343c6f5aec59570151ef9a492f2c624fd45ddde6135ec4281565b6103a9610675366004615491565b611c3c565b6103a960075481565b6103e6610691366004615374565b611c5e565b6103a96106a4366004615491565b611e79565b6007546103a9565b6103e66106bf366004615265565b611ecd565b6103e66106d2366004615514565b611f57565b6103a96106e5366004615491565b60136020526000908152604090205481565b60035460045460055461070992919083565b60405161037793929190615b5b565b61036b6107263660046154a9565b612085565b6103a96120b0565b6103e6610741366004615265565b6120d3565b6103a9610754366004615491565b612103565b6103e661211c565b6103e661076f366004615432565b612168565b6103a9610782366004615491565b60126020526000908152604090205481565b6103a9600a5481565b6103a96107ab366004615491565b6121f6565b6103a9600081565b6103a96107c6366004615491565b612201565b6103a96107d93660046152c1565b601060209081526000928352604080842090915290825290205481565b6103a9610804366004615491565b61238c565b6103e66108173660046155b0565b6123d1565b6103e661082a366004615265565b61297c565b6103e661083d366004615558565b6129b9565b6103e66130fd565b6103a9610858366004615491565b61312d565b6103a961086b366004615514565b613142565b6103a96133ea565b6103e66108863660046154a9565b6134c8565b6103a96134e5565b6103a96108a13660046152ea565b613566565b6103a96108b4366004615491565b613720565b6103a960095481565b6103e66108d0366004615491565b61372e565b6103e66108e3366004615265565b6137b7565b61036b6108f6366004615265565b61385b565b600054610565906001600160a01b031681565b61036b61091c366004615265565b613867565b6103a961092f36600461532b565b613881565b6103a9613b8c565b60006001600160e01b03198216637965db0b60e01b148061096d57506301ffc9a760e01b6001600160e01b03198316145b92915050565b6001600160a01b0381166000908152600f60209081526040918290208054835181840281018401909452808452606093928301828280156109d357602002820191906000526020600020905b8154815260200190600101908083116109bf575b50505050509050919050565b60008181526011602052604081206002015461096d90612103565b8180610a215760405162461bcd60e51b8152600401610a1890615a9d565b60405180910390fd5b8180610a3f5760405162461bcd60e51b8152600401610a1890615a9d565b60008481526012602052604090205415610a9b5760405162461bcd60e51b815260206004820152601d60248201527f7468697320697320666f72206e6f6e2d6c6f636b2070726f647563742e0000006044820152606401610a18565b6000848152601160205260409020546001600160a01b0316338114610ad25760405162461bcd60e51b8152600401610a1890615980565b6000858152601160205260409020600401544211610b2d5760405162461bcd60e51b815260206004820152601860248201527732b732103a34b6b2903430b9903737ba103830b9b9b2b21760411b6044820152606401610a18565b610b356112dd565b610b428560008087613bc4565b600054610b59906001600160a01b0316828661413e565b7f5ac7224c417abee0b26a4daa9b5221c45297a5429fc56e11bc9170dabc15d33c818587604051610b8c939291906156c6565b60405180910390a15050505050565b60009081526014602052604090206001015490565b600061096d600080516020615c5483398151915283612085565b610bd333613867565b610bef5760405162461bcd60e51b8152600401610a1890615ac9565b826001600160a01b038116610c165760405162461bcd60e51b8152600401610a1890615951565b826001600160a01b038116610c3d5760405162461bcd60e51b8152600401610a1890615951565b826001600160a01b038116610c645760405162461bcd60e51b8152600401610a1890615951565b6000546001600160a01b038781169116141580610c8f57506001546001600160a01b03868116911614155b80610ca857506002546001600160a01b03858116911614155b610ce35760405162461bcd60e51b815260206004820152600c60248201526b73616d65206164647265737360a01b6044820152606401610a18565b5050600080546001600160a01b039586166001600160a01b03199182161790915560018054948616948216949094179093555060028054919093169116179055565b8080610d435760405162461bcd60e51b8152600401610a1890615a9d565b600082815260116020526040902080546001600160a01b0316338114610da35760405162461bcd60e51b815260206004820152601560248201527431b0b63632b91034b9903737ba1039ba30b5b2b91760591b6044820152606401610a18565b42826004015410610df05760405162461bcd60e51b815260206004820152601760248201527632b732103a34b6b2903430b9b713ba103830b9b9b2b21760491b6044820152606401610a18565b610df86112dd565b6000610e038561238c565b905060008111610e4d5760405162461bcd60e51b81526020600482015260156024820152741e995c9bc818db185a5b58589b1948185b5bdd5b9d605a1b6044820152606401610a18565b6000610e5b6107548761312d565b9050600084600101549050600060126000898152602001908152602001600020549050610eb160405180604001604052806011815260200170756e7374616b6520616d6f756e7420257360781b8152508561424e565b610ef46040518060400160405280601e81526020017f756e7374616b65205f7374616b65496e666f2e6465706f736974202025730000815250876001015461424e565b610f356040518060400160405280601b81526020017a756e7374616b65205f7374616b65496e666f2e4c544f532020257360281b815250876002015461424e565b610f756040518060400160405280601c81526020017b756e7374616b65207374616b696e675072696e636970616c2020257360201b815250600a5461424e565b81600a6000828254610f879190615bc8565b9091555050600286015460098054600090610fa3908490615bc8565b909155505080156110325760015460405163c0a37b3f60e01b81526001600160a01b039091169063c0a37b3f90610fe090889085906004016156e7565b600060405180830381600087803b158015610ffa57600080fd5b505af115801561100e573d6000803e3d6000fd5b50505060008981526012602090815260408083208390558483526013909152812055505b600061103e868a614293565b905061107f6040518060400160405280601d81526020017f756e7374616b6520757365725374616b654964496e64657820202025730000008152508261424e565b6110898982614508565b828411156110fd576002546001600160a01b031663013d02d6306110ad8688615bc8565b6040518363ffffffff1660e01b81526004016110ca9291906156e7565b600060405180830381600087803b1580156110e457600080fd5b505af11580156110f8573d6000803e3d6000fd5b505050505b600054611114906001600160a01b0316878761413e565b7f7fc4727e062e336010f2c282598ef5f14facb3de68cf8195c2f23e1454b2b74e86868b604051611147939291906156c6565b60405180910390a1505050505050505050565b61116382610b9b565b61116d813361458f565b61117783836145f3565b505050565b60025460405163099e2b0b60e31b81526000916001600160a01b031690634cf15858906111b0906009903390600401615b44565b60206040518083038186803b1580156111c857600080fd5b505afa1580156111dc573d6000803e3d6000fd5b505050506040513d601f19601f820116820180604052508101906112009190615471565b61121c5760405162461bcd60e51b8152600401610a18906159de565b600e805490600061122c83615c22565b91905055905090565b6001600160a01b03811633146112a55760405162461bcd60e51b815260206004820152602f60248201527f416363657373436f6e74726f6c3a2063616e206f6e6c792072656e6f756e636560448201526e103937b632b9903337b91039b2b63360891b6064820152608401610a18565b6112af8282614679565b5050565b6112bc33613867565b6112d85760405162461bcd60e51b8152600401610a1890615ac9565b600755565b61131e6040518060400160405280601a815260200179726562617365496e6465782065706f63682e656e64203a20257360301b81525060036002015461424e565b61135d6040518060400160405280602081526020017f726562617365496e64657820626c6f636b2e74696d657374616d70203a2025738152504261424e565b6113a16040518060400160405280601e81526020017f726562617365496e6465782065706f63682e6c656e6774685f203a202573000081525060036000015461424e565b6113dc60405180604001604052806017815260200176726562617365496e64657820696e6465785f203a20257360481b81525060075461424e565b60055442106119c757600354600554600091906113f99042615bc8565b111561141c5760035460055461140f9042615bc8565b6114199190615b89565b90505b61145a6040518060400160405280601c81526020017b726562617365496e6465782065706f63684e756d626572203a20257360201b8152508261424e565b611465816001615b71565b6003546114729190615ba9565b60058054600090611484908490615b71565b9091555081905061149481615c22565b9150506114d56040518060400160405280601c81526020017b726562617365496e6465782065706f63684e756d626572203a20257360201b8152508261424e565b6115166040518060400160405280601a815260200179726562617365496e6465782065706f63682e656e64203a20257360301b81525060036002015461424e565b60075460018211156115b657600754600b546040516379e42f5d60e11b815273__$23c3f0c4d39c3898c699ac978f80cfe781$__9263f3c85eba9261155f928790600401615b5b565b60206040518083038186803b15801561157757600080fd5b505af415801561158b573d6000803e3d6000fd5b505050506040513d601f19601f820116820180604052508101906115af91906154fc565b90506115ca565b81600114156115ca576115c7613b8c565b90505b61160560405180604001604052806019815260200178726562617365496e646578206e6577496e646578203a20257360381b8152508261424e565b6116436040518060400160405280601a815260200179726562617365496e64657820746f74616c4c544f53203a20257360301b81525060095461424e565b600061164d6133ea565b905061168d6040518060400160405280601c81526020017b726562617365496e6465782072756e776179544f532829203a20257360201b8152508261424e565b8061169757505050565b6007546000670de0b6b3a76400006116af8386615bc8565b6009546116bc9190615ba9565b6116c69190615b89565b905061170260405180604001604052806018815260200177726562617365496e646578206e656564546f73203a20257360401b8152508261424e565b8281101561175957600784905560048054869190600090611724908490615b71565b9091555050600954604051600080516020615cbc8339815191529161174c9185918891615b5b565b60405180910390a1611986565b600185111561198657600073__$23c3f0c4d39c3898c699ac978f80cfe781$__6343b440826117866133ea565b611791600954612103565b600b546040518463ffffffff1660e01b81526004016117b293929190615b5b565b60206040518083038186803b1580156117ca57600080fd5b505af41580156117de573d6000803e3d6000fd5b505050506040513d601f19601f8201168201806040525081019061180291906154fc565b9050611826604051806060016040528060258152602001615d84602591398261424e565b8581101561198457600754600b546040516379e42f5d60e11b815273__$23c3f0c4d39c3898c699ac978f80cfe781$__9263f3c85eba9261186b928690600401615b5b565b60206040518083038186803b15801561188357600080fd5b505af4158015611897573d6000803e3d6000fd5b505050506040513d601f19601f820116820180604052508101906118bb91906154fc565b94506118df604051806060016040528060228152602001615c74602291398661424e565b670de0b6b3a7640000600754866118f69190615bc8565b6009546119039190615ba9565b61190d9190615b89565b9150611931604051806060016040528060248152602001615cdc602491398361424e565b8382101561198457600785905560048054829190600090611953908490615b71565b9091555050600954604051600080516020615cbc8339815191529161197b9186918991615b5b565b60405180910390a15b505b6119c160405180604001604052806017815260200176726562617365496e64657820696e6465785f203a20257360481b81525060075461424e565b50505050505b565b6119d233613867565b6119ee5760405162461bcd60e51b8152600401610a1890615ac9565b600b55565b600f6020528160005260406000208181548110611a0f57600080fd5b90600052602060002001600091509150505481565b6000611a31600954612103565b905090565b611a3f33613867565b611a5b5760405162461bcd60e51b8152600401610a1890615ac9565b6119c7600080516020615da983398151915233611235565b611a7c3361385b565b611a985760405162461bcd60e51b8152600401610a1890615909565b611ab0600080516020615c548339815191528261115a565b50565b6001600160a01b0381166000908152600f6020908152604080832080548251818502810185019093528083528493830182828015611b1057602002820191906000526020600020905b815481526020019060010190808311611afc575b50505050509050805160001415611b2a5750600092915050565b60005b8151811015611b8257611b66828281518110611b5957634e487b7160e01b600052603260045260246000fd5b60200260200101516121f6565b611b709084615b71565b9250611b7b81615c22565b9050611b2d565b5050919050565b611b9233610bb0565b80611ba15750611ba13361385b565b611bbd5760405162461bcd60e51b8152600401610a1890615895565b6001600160a01b038116611be35760405162461bcd60e51b8152600401610a18906158d7565b336001600160a01b0382161415611c0c5760405162461bcd60e51b8152600401610a18906159ae565b611c24600080516020615c548339815191528261115a565b611ab0600080516020615c5483398151915233611235565b600754600090611c5483670de0b6b3a7640000615ba9565b61096d9190615b89565b611c6733610bb0565b80611c765750611c763361385b565b611c925760405162461bcd60e51b8152600401610a1890615895565b86611ccd5760405162461bcd60e51b815260206004820152600b60248201526a0f4cae4de40d8cadccee8d60ab1b6044820152606401610a18565b868514611d135760405162461bcd60e51b81526020600482015260146024820152730eee4dedcce40c4c2d8c2dcc6ca40d8cadccee8d60631b6044820152606401610a18565b868314611d585760405162461bcd60e51b81526020600482015260136024820152720eee4dedcce40e0cae4d2dec840d8cadccee8d606b1b6044820152606401610a18565b868114611d9e5760405162461bcd60e51b81526020600482015260146024820152730eee4dedcce40e8ded6cadc92c840d8cadccee8d60631b6044820152606401610a18565b60005b87811015611e6e57611e5b898983818110611dcc57634e487b7160e01b600052603260045260246000fd5b9050602002016020810190611de19190615265565b888884818110611e0157634e487b7160e01b600052603260045260246000fd5b90506020020135878785818110611e2857634e487b7160e01b600052603260045260246000fd5b90506020020135868686818110611e4f57634e487b7160e01b600052603260045260246000fd5b905060200201356146e0565b5080611e6681615c22565b915050611da1565b505050505050505050565b60008180611e995760405162461bcd60e51b8152600401610a1890615a9d565b600083815260116020526040902060040154421115611ec257611ebb8361312d565b9150611ec7565b600091505b50919050565b611ed63361385b565b611ef25760405162461bcd60e51b8152600401610a1890615909565b6001600160a01b038116611f185760405162461bcd60e51b8152600401610a18906158d7565b336001600160a01b0382161415611f415760405162461bcd60e51b8152600401610a18906159ae565b611f4c60008261115a565b611ab0600033611235565b8180611f755760405162461bcd60e51b8152600401610a1890615a9d565b8180611f935760405162461bcd60e51b8152600401610a1890615a9d565b6000848152601160205260409020546001600160a01b0316338114611fca5760405162461bcd60e51b8152600401610a1890615980565b6001600160a01b038116600090815260106020908152604080832088845290915290205460011461203d5760405162461bcd60e51b815260206004820152601f60248201527f69742773206e6f742073696d706c65207374616b696e672070726f64756374006044820152606401610a18565b6120456112dd565b6120528186866000614775565b7f3580fad54ac878fb39f354ed4980379c99975b958cc12f96c2342daf1a943384818587604051610b8c939291906156c6565b60009182526014602090815260408084206001600160a01b0393909316845291905290205460ff1690565b60004260036002015410156120c55750600090565b600554611a31904290615bc8565b6120dc3361385b565b6120f85760405162461bcd60e51b8152600401610a1890615909565b611ab06000826148ea565b6000670de0b6b3a764000060075483611c549190615ba9565b61212533610bb0565b8061213457506121343361385b565b6121505760405162461bcd60e51b8152600401610a1890615895565b6119c7600080516020615c5483398151915233611235565b806121a35760405162461bcd60e51b815260206004820152600b60248201526a6e6f207374616b6549647360a81b6044820152606401610a18565b8060005b818110156121f0576121de8484838181106121d257634e487b7160e01b600052603260045260246000fd5b90506020020135610d25565b806121e881615c22565b9150506121a7565b50505050565b600061096d8261312d565b600081806122215760405162461bcd60e51b8152600401610a1890615a9d565b600054604051636eb1769f60e11b815284916001600160a01b03169063dd62ed3e9061225390339030906004016156ac565b60206040518083038186803b15801561226b57600080fd5b505afa15801561227f573d6000803e3d6000fd5b505050506040513d601f19601f820116820180604052508101906122a391906154fc565b10156122c15760405162461bcd60e51b8152600401610a1890615831565b6000546122d9906001600160a01b03163330866148f4565b336122e381614a07565b6001600160a01b0381166000908152600f602052604090208054600190811061231c57634e487b7160e01b600052603260045260246000fd5b906000526020600020015492506123316112dd565b612349818486612342426001615b71565b6000614a96565b507f1449c6dd7851abc30abf37f57715f492010519147cc2652fbc38202c18a6ee9081858560405161237d939291906156c6565b60405180910390a15050919050565b600081806123ac5760405162461bcd60e51b8152600401610a1890615a9d565b600083815260116020526040902060040154421115611ec257611ebb6107548461312d565b60008311806123e05750600082115b806123eb5750600081115b6124285760405162461bcd60e51b815260206004820152600e60248201526d185b1b081e995c9bc81a5b9c1d5d60921b6044820152606401610a18565b600084815260126020908152604080832054601190925290912080546001600160a01b031633811461246c5760405162461bcd60e51b8152600401610a1890615980565b6001600160a01b03811660009081526010602090815260408083208a84529091529020546001106124eb5760405162461bcd60e51b815260206004820152602360248201527f69742773206e6f7420666f722073696d706c65207374616b65206f7220656d706044820152623a3c9760e91b6064820152608401610a18565b60006124fa8360020154612103565b90508086111561254a5760405162461bcd60e51b815260206004820152601b60248201527a1c995b585a5b9959151bdcc81a5cc81a5b9cdd59999a58da595b9d602a1b6044820152606401610a18565b831561268957600154604051639ce5630560e01b8152600481018690526000916001600160a01b031690639ce563059060240160606040518083038186803b15801561259557600080fd5b505afa1580156125a9573d6000803e3d6000fd5b505050506040513d601f19601f820116820180604052508101906125cd9190615583565b5091505042811080156125e35750428460040154105b6125ff5760405162461bcd60e51b8152600401610a1890615a0e565b60015460405163c0a37b3f60e01b81526001600160a01b039091169063c0a37b3f9061263190869089906004016156e7565b600060405180830381600087803b15801561264b57600080fd5b505af115801561265f573d6000803e3d6000fd5b50505060008a81526012602090815260408083208390558883526013909152812055506126ac9050565b428360040154106126ac5760405162461bcd60e51b8152600401610a1890615a0e565b861561276a57600054604051636eb1769f60e11b815288916001600160a01b03169063dd62ed3e906126e490339030906004016156ac565b60206040518083038186803b1580156126fc57600080fd5b505afa158015612710573d6000803e3d6000fd5b505050506040513d601f19601f8201168201806040525081019061273491906154fc565b10156127525760405162461bcd60e51b8152600401610a1890615831565b60005461276a906001600160a01b031633308a6148f4565b6000808615612812576001546040516316045cb160e31b815273__$23c3f0c4d39c3898c699ac978f80cfe781$__9163b022e588916127b9916001600160a01b03169042908c906004016156c6565b604080518083038186803b1580156127d057600080fd5b505af41580156127e4573d6000803e3d6000fd5b505050506040513d601f19601f820116820180604052508101906128089190615535565b90925090506128a2565b600160009054906101000a90046001600160a01b03166001600160a01b031663fd2dcecf6040518163ffffffff1660e01b815260040160206040518083038186803b15801561286057600080fd5b505afa158015612874573d6000803e3d6000fd5b505050506040513d601f19601f8201168201806040525081019061289891906154fc565b9150846004015490505b6128ab84614a07565b6128b36112dd565b6128bf8a828b8b613bc4565b60008a8815612910576128d28b86615b71565b94506128de8a86615bc8565b94506128ec86868b87614beb565b60008281526012602090815260408083208490558383526013909152902082905591505b891561292d5760005461292d906001600160a01b0316338c61413e565b7fbc7a4cb4698ff9bbd20c2fa066bd7234e4dbb886a81ea2f45677f5f942c6e9e8868c8c8c85876040516129669695949392919061572e565b60405180910390a1505050505050505050505050565b6129853361385b565b6129a15760405162461bcd60e51b8152600401610a1890615909565b611ab0600080516020615da98339815191528261115a565b82806129d75760405162461bcd60e51b8152600401610a1890615a9d565b60008311806129e65750600082115b612a325760405162461bcd60e51b815260206004820152601d60248201527f7a65726f205f616d6f756e7420616e64205f756e6c6f636b5765656b730000006044820152606401610a18565b6000848152601160205260409020546001600160a01b0316338114612a695760405162461bcd60e51b8152600401610a1890615980565b8215612af3576001600160a01b0381166000908152601060209081526040808320888452909152902054600110612af35760405162461bcd60e51b815260206004820152602860248201527f697427732073696d706c65207374616b696e672070726f647563742c2063616e60448201526713ba103637b1b59760c11b6064820152608401610a18565b612afb6112dd565b612b0781868686614775565b6001546040805163fd2dcecf60e01b815290516000926001600160a01b03169163fd2dcecf916004808301926020929190829003018186803b158015612b4c57600080fd5b505afa158015612b60573d6000803e3d6000fd5b505050506040513d601f19601f82011682018060405250810190612b8491906154fc565b6000878152601260209081526040808320546001600160a01b0387168452601083528184208b855290925290912054919250906001108015612bc4575080155b8015612bd05750600085115b15612c24576000612be36107548961312d565b612bed9088615b71565b90506000612bfd85838987614beb565b60008a81526012602090815260408083208490559282526013905220899055506130b59050565b6001600160a01b03831660009081526010602090815260408083208a84529091529020546001108015612c575750600081115b156130b557600154604051639ce5630560e01b81526004810183905260009182916001600160a01b0390911690639ce563059060240160606040518083038186803b158015612ca557600080fd5b505afa158015612cb9573d6000803e3d6000fd5b505050506040513d601f19601f82011682018060405250810190612cdd9190615583565b92509250504282118015612d01575060008981526011602052604090206004015442105b612d485760405162461bcd60e51b81526020600482015260186024820152771b1bd8dac8195b99081d1a5b59481a185cc81c185cdcd95960421b6044820152606401610a18565b86612e9b5760035460008a815260116020526040812060040154909190612d70904290615bc8565b612d7a9190615b89565b600b546040516379e42f5d60e11b815291925060009173__$23c3f0c4d39c3898c699ac978f80cfe781$__9163f3c85eba91612dbc918e918790600401615b5b565b60206040518083038186803b158015612dd457600080fd5b505af4158015612de8573d6000803e3d6000fd5b505050506040513d601f19601f82011682018060405250810190612e0c91906154fc565b905060008111612e2e5760405162461bcd60e51b8152600401610a1890615865565b60015460405163077f15b960e51b81526001600160a01b039091169063efe2b72090612e62908a90899086906004016156c6565b600060405180830381600087803b158015612e7c57600080fd5b505af1158015612e90573d6000803e3d6000fd5b5050505050506130b2565b86156130b25760035460009081908190612eb5888c615ba9565b612ebf9190615b89565b600b546040516379e42f5d60e11b815291925073__$23c3f0c4d39c3898c699ac978f80cfe781$__9163f3c85eba91612eff918891908690600401615b5b565b60206040518083038186803b158015612f1757600080fd5b505af4158015612f2b573d6000803e3d6000fd5b505050506040513d601f19601f82011682018060405250810190612f4f91906154fc565b9250612f5b8484615bc8565b92508a1561302457600354600090612f73898d615ba9565b612f7d4289615bc8565b612f879190615b71565b612f919190615b89565b905073__$23c3f0c4d39c3898c699ac978f80cfe781$__63f3c85eba8d600b54846040518463ffffffff1660e01b8152600401612fd093929190615b5b565b60206040518083038186803b158015612fe857600080fd5b505af4158015612ffc573d6000803e3d6000fd5b505050506040513d601f19601f8201168201806040525081019061302091906154fc565b9250505b6001546001600160a01b031663b839c0a589886130418688615b71565b6040516001600160e01b031960e086901b1681526001600160a01b03909316600484015260248301919091526044820152606481018d9052608401600060405180830381600087803b15801561309657600080fd5b505af11580156130aa573d6000803e3d6000fd5b505050505050505b50505b7f8123201ee995a827ab51b6fa7437b3656f79bb6ce0ec96a8ec91516a335742068387878a856040516130ec959493929190615700565b60405180910390a150505050505050565b6131063361385b565b6131225760405162461bcd60e51b8152600401610a1890615909565b6119c7600033611235565b60009081526011602052604090206002015490565b600082806131625760405162461bcd60e51b8152600401610a1890615a9d565b82806131805760405162461bcd60e51b8152600401610a1890615a9d565b600b54806131a05760405162461bcd60e51b8152600401610a1890615a9d565b600054604051636eb1769f60e11b815287916001600160a01b03169063dd62ed3e906131d290339030906004016156ac565b60206040518083038186803b1580156131ea57600080fd5b505afa1580156131fe573d6000803e3d6000fd5b505050506040513d601f19601f8201168201806040525081019061322291906154fc565b10156132405760405162461bcd60e51b8152600401610a1890615831565b6001546040516316045cb160e31b8152600091829173__$23c3f0c4d39c3898c699ac978f80cfe781$__9163b022e5889161328b916001600160a01b03169042908c906004016156c6565b604080518083038186803b1580156132a257600080fd5b505af41580156132b6573d6000803e3d6000fd5b505050506040513d601f19601f820116820180604052508101906132da9190615535565b91509150600082116132fe5760405162461bcd60e51b8152600401610a1890615a44565b6000811161331e5760405162461bcd60e51b8152600401610a1890615808565b600054613336906001600160a01b031633308b6148f4565b3361334081614a07565b613348614db3565b96506133548188614dc4565b61335c6112dd565b61336a81888b856000614a96565b506000613379828b8b87614beb565b60008981526012602090815260408083208490558383526013909152908190208a9055519091507f354a6b3cd6afbe9ef2b8c8bbc20901d395d112a1891737da4aff281b283cca42906133d59084908d908d908d908790615700565b60405180910390a15050505050505092915050565b600080600260009054906101000a90046001600160a01b03166001600160a01b031663d11aca626040518163ffffffff1660e01b815260040160206040518083038186803b15801561343b57600080fd5b505afa15801561344f573d6000803e3d6000fd5b505050506040513d601f19601f8201168201806040525081019061347391906154fc565b9050600061347f6134e5565b9050600061348e600954612103565b90508061349b8385615b71565b10156134ab576000935050505090565b806134b68385615b71565b6134c09190615bc8565b935050505090565b6134d182610b9b565b6134db813361458f565b6111778383614679565b600080546040516370a0823160e01b81526001600160a01b03909116906370a0823190613516903090600401615698565b60206040518083038186803b15801561352e57600080fd5b505afa158015613542573d6000803e3d6000fd5b505050506040513d601f19601f82011682018060405250810190611a3191906154fc565b60025460405163099e2b0b60e31b81526000916001600160a01b031690634cf158589061359a906009903390600401615b44565b60206040518083038186803b1580156135b257600080fd5b505afa1580156135c6573d6000803e3d6000fd5b505050506040513d601f19601f820116820180604052508101906135ea9190615471565b6136065760405162461bcd60e51b8152600401610a18906159de565b856001600160a01b03811661362d5760405162461bcd60e51b8152600401610a1890615951565b858061364b5760405162461bcd60e51b8152600401610a1890615a9d565b85806136695760405162461bcd60e51b8152600401610a1890615a9d565b61367289614a07565b61367a614db3565b93506136868985614dc4565b61368e6112dd565b60006136aa8a868b600c54426136a49190615b71565b8c614a96565b604080516001600160a01b038d168152602081018c9052908101829052606081018a90526080810187905260a0810189905260c081018890529091507fbb7f56f83a3d3de43954bd1cd7c58ae08040ae412aaf3d92a867f81a5d50fd109060e00160405180910390a15050505095945050505050565b600061096d6107548361312d565b61373733613867565b6137535760405162461bcd60e51b8152600401610a1890615ac9565b80806137715760405162461bcd60e51b8152600401610a1890615a9d565b81600c5414156137b15760405162461bcd60e51b815260206004820152600b60248201526a1cd85b59481c195c9a5bd960aa1b6044820152606401610a18565b50600c55565b6137c033613867565b6137dc5760405162461bcd60e51b8152600401610a1890615ac9565b6001600160a01b0381166138025760405162461bcd60e51b8152600401610a18906158d7565b336001600160a01b038216141561382b5760405162461bcd60e51b8152600401610a18906159ae565b613843600080516020615da98339815191528261115a565b611ab0600080516020615da983398151915233611235565b600061096d8183612085565b600061096d600080516020615da983398151915283612085565b60025460405163099e2b0b60e31b81526000916001600160a01b031690634cf15858906138b5906009903390600401615b44565b60206040518083038186803b1580156138cd57600080fd5b505afa1580156138e1573d6000803e3d6000fd5b505050506040513d601f19601f820116820180604052508101906139059190615471565b6139215760405162461bcd60e51b8152600401610a18906159de565b866001600160a01b0381166139485760405162461bcd60e51b8152600401610a1890615951565b6000871180156139585750600085115b80156139645750600086115b61399d5760405162461bcd60e51b815260206004820152600a6024820152691e995c9bc81a5b9c1d5d60b21b6044820152606401610a18565b6001546040516316045cb160e31b8152600091829173__$23c3f0c4d39c3898c699ac978f80cfe781$__9163b022e588916139e8916001600160a01b03169042908c906004016156c6565b604080518083038186803b1580156139ff57600080fd5b505af4158015613a13573d6000803e3d6000fd5b505050506040513d601f19601f82011682018060405250810190613a379190615535565b9150915060008211613a5b5760405162461bcd60e51b8152600401610a1890615a44565b60008111613a7b5760405162461bcd60e51b8152600401610a1890615808565b613a848a614a07565b613a8c614db3565b9350613a988a85614dc4565b613aa06112dd565b6000613aaf8b868c858d614a96565b90506000613abf8c8c8b87614beb565b90508060126000888152602001908152602001600020819055508560136000838152602001908152602001600020819055507fe3cd05b44cf9a64ec6c44b15776a7af54f595a214f12b62950054db4faeef15e8c8c848c8e8b878f8f604051613b75999897969594939291906001600160a01b03999099168952602089019790975260408801959095526060870193909352608086019190915260a085015260c084015260e08301526101008201526101200190565b60405180910390a150505050509695505050505050565b6000670de0b6b3a7640000600b54670de0b6b3a7640000613bad9190615b71565b600754613bba9190615ba9565b611a319190615b89565b600854600114613be65760405162461bcd60e51b8152600401610a1890615b12565b60006008556040805180820190915260198152785f7570646174655374616b65496e666f20737461727420257360381b6020820152613c25908561424e565b6000848152601160205260409020546001600160a01b0316613c7f5760405162461bcd60e51b81526020600482015260136024820152726e6f6e2d6578697374207374616b65496e666f60681b6044820152606401610a18565b6000821180613c8e5750600081115b80613c995750600083115b613cd45760405162461bcd60e51b815260206004820152600c60248201526b7a65726f20416d6f756e747360a01b6044820152606401610a18565b600084815260116020526040902060020154613d1e5760405162461bcd60e51b81526020600482015260096024820152687a65726f204c544f5360b81b6044820152606401610a18565b600084815260116020526040812060020154613d3990612103565b9050613d6e604051806040016040528060128152602001715f7570646174655374616b65496e666f203160701b815250614e07565b80821115613dbd5760405162461bcd60e51b815260206004820152601c60248201527b1cdd185ad948185b5bdd5b9d081a5cc81a5b9cdd59999a58da595b9d60221b6044820152606401610a18565b600085815260116020526040812081908515613ddf57613ddc86611c3c565b92505b8415613df157613dee85611c3c565b91505b4260038201556004810187905560408051606081019091526028808252613e259190615d5c6020830139826004015461424e565b613e646040518060400160405280602081526020017f5f7570646174655374616b65496e666f207374616b6564416d6f756e742025738152508561424e565b613e8a604051806060016040528060268152602001615c9660269139826001015461424e565b60008160010154851115613eaa576001820154613ea79086615bc8565b90505b613edd604051806040016040528060128152602001715f7570646174655374616b65496e666f203360701b815250614e07565b8315613f165783826002016000828254613ef79190615b71565b925050819055508360096000828254613f109190615b71565b90915550505b8215613f4f5782826002016000828254613f309190615bc8565b925050819055508260096000828254613f499190615bc8565b90915550505b6000871180613f5e5750600081115b80613f695750600086115b15613fc3578581888460010154613f809190615b71565b613f8a9190615b71565b613f949190615bc8565b6001830155600a5486908290613fab908a90615b71565b613fb59190615b71565b613fbf9190615bc8565b600a555b613fe46040518060600160405280602e8152602001615d2e602e9139614e07565b6140206040518060400160405280601a8152602001795f7570646174655374616b65496e666f2070726f66697420257360301b8152508261424e565b614044604051806060016040528060248152602001615dc960249139600a5461424e565b6140836040518060400160405280601d81526020017f5f7570646174655374616b65496e666f20636c61696d4c746f732025730000008152508461424e565b6140c46040518060400160405280601d81526020017f5f7570646174655374616b65496e666f20746f74616c4c544f5320257300000081525060095461424e565b801561412e57600254604051629e816b60e11b81526001600160a01b039091169063013d02d6906140fb90309085906004016156e7565b600060405180830381600087803b15801561411557600080fd5b505af1158015614129573d6000803e3d6000fd5b505050505b5050600160085550505050505050565b600080846001600160a01b031663a9059cbb60e01b85856040516024016141669291906156e7565b60408051601f198184030181529181526020820180516001600160e01b03166001600160e01b03199094169390931790925290516141a4919061560d565b6000604051808303816000865af19150503d80600081146141e1576040519150601f19603f3d011682016040523d82523d6000602084013e6141e6565b606091505b50915091508180156142105750805115806142105750808060200190518101906142109190615471565b6119c15760405162461bcd60e51b815260206004820152600f60248201526e1514905394d1915497d19052531151608a1b6044820152606401610a18565b6112af82826040516024016142649291906157e6565b60408051601f198184030181529190526020810180516001600160e01b03166309710a9d60e41b179052614e46565b60006142d0604051806040016040528060188152602001775f64656c657465557365725374616b65496420257320257360401b8152508484614e67565b506001600160a01b0382166000908152601060209081526040808320848452825291829020548251808401909352601f83527f5f64656c657465557365725374616b6549642020637572496e646578202573009183019190915290614335908261424e565b600181111561096d576143786040518060600160405280602e8152602001615d00602e91396001600160a01b0385166000908152600f602052604090205461424e565b6001600160a01b0383166000908152600f602052604090205461439d90600190615bc8565b8110156144a1576001600160a01b0383166000908152600f6020526040812080546143ca90600190615bc8565b815481106143e857634e487b7160e01b600052603260045260246000fd5b906000526020600020015490506144346040518060400160405280601d81526020017f5f64656c657465557365725374616b65496420206c61737449642025730000008152508261424e565b6001600160a01b0384166000908152600f6020526040902080548291908490811061446f57634e487b7160e01b600052603260045260246000fd5b60009182526020808320909101929092556001600160a01b038616815260108252604080822093825292909152208190555b6001600160a01b03831660008181526010602090815260408083208684528252808320839055928252600f9052208054806144ec57634e487b7160e01b600052603160045260246000fd5b6001900381819060005260206000200160009055905592915050565b60018111156145505750600090815260116020526040812080546001600160a01b03191681556001810182905560028101829055600381018290556004810182905560050155565b50600090815260116020526040812080546001600160a01b03191681556001810182905560028101829055600381018290556004810182905560050155565b6145998282612085565b6112af576145b1816001600160a01b03166014614eae565b6145bc836020614eae565b6040516020016145cd929190615629565b60408051601f198184030181529082905262461bcd60e51b8252610a18916004016157a5565b6145fd8282612085565b6112af5760008281526014602090815260408083206001600160a01b03851684529091529020805460ff191660011790556146353390565b6001600160a01b0316816001600160a01b0316837f2f8788117e7eff1d82e926ec794901d17c78024a50270940304540a733656f0d60405160405180910390a45050565b6146838282612085565b156112af5760008281526014602090815260408083206001600160a01b0385168085529252808320805460ff1916905551339285917ff6391f5c32d9c69d2a47ea670b442974b53935d1edc7fd64eb21e047a839171b9190a45050565b600083806147005760405162461bcd60e51b8152600401610a1890615a9d565b838061471e5760405162461bcd60e51b8152600401610a1890615a9d565b61472787614a07565b61472f614db3565b925061473b8784614dc4565b614749878488886000614a96565b505050600081815260126020908152604080832085905593825260139052919091208190559392505050565b811561483357600054604051636eb1769f60e11b815283916001600160a01b03169063dd62ed3e906147ad90889030906004016156ac565b60206040518083038186803b1580156147c557600080fd5b505afa1580156147d9573d6000803e3d6000fd5b505050506040513d601f19601f820116820180604052508101906147fd91906154fc565b101561481b5760405162461bcd60e51b8152600401610a1890615831565b600054614833906001600160a01b03168530856148f4565b60008082156148d7576001546040516316045cb160e31b815273__$23c3f0c4d39c3898c699ac978f80cfe781$__9163b022e58891614883916001600160a01b03169060009088906004016156c6565b604080518083038186803b15801561489a57600080fd5b505af41580156148ae573d6000803e3d6000fd5b505050506040513d601f19601f820116820180604052508101906148d29190615535565b925090505b6148e2858584615096565b505050505050565b6112af82826145f3565b604080516001600160a01b0385811660248301528481166044830152606480830185905283518084039091018152608490920183526020820180516001600160e01b03166323b872dd60e01b1790529151600092839290881691614958919061560d565b6000604051808303816000865af19150503d8060008114614995576040519150601f19603f3d011682016040523d82523d6000602084013e61499a565b606091505b50915091508180156149c45750805115806149c45750808060200190518101906149c49190615471565b6148e25760405162461bcd60e51b81526020600482015260146024820152731514905394d1915497d19493d357d1905253115160621b6044820152606401610a18565b6001600160a01b0381166000908152600f6020526040902054611ab057600d8054906000614a3483615c22565b90915550506001600160a01b03166000818152600f6020818152604080842080546001808201835582875284872091820187905596865260108452828620600d8054885290855292862087905593909252548154948501825592529190910155565b6000600854600114614aba5760405162461bcd60e51b8152600401610a1890615b12565b60006008819055858152601160205260409020546001600160a01b031615614af45760405162461bcd60e51b8152600401610a1890615a70565b6000614aff85611c3c565b90506040518060c00160405280886001600160a01b03168152602001868152602001828152602001428152602001858152602001848152506011600088815260200190815260200160002060008201518160000160006101000a8154816001600160a01b0302191690836001600160a01b031602179055506020820151816001015560408201518160020155606082015181600301556080820151816004015560a0820151816005015590505084600a6000828254614bbe9190615b71565b925050819055508060096000828254614bd79190615b71565b909155505060016008559695505050505050565b6000600854600114614c0f5760405162461bcd60e51b8152600401610a1890615b12565b60006008819055600b5460035473__$23c3f0c4d39c3898c699ac978f80cfe781$__9163f3c85eba91889190614c45888a615ba9565b614c4f9190615b89565b6040518463ffffffff1660e01b8152600401614c6d93929190615b5b565b60206040518083038186803b158015614c8557600080fd5b505af4158015614c99573d6000803e3d6000fd5b505050506040513d601f19601f82011682018060405250810190614cbd91906154fc565b905060008111614cdf5760405162461bcd60e51b8152600401610a1890615865565b60015460405163036e72c360e21b81526001600160a01b0390911690630db9cb0c90614d13908990859089906004016156c6565b602060405180830381600087803b158015614d2d57600080fd5b505af1158015614d41573d6000803e3d6000fd5b505050506040513d601f19601f82011682018060405250810190614d6591906154fc565b915060008211614da55760405162461bcd60e51b815260206004820152600b60248201526a1e995c9bc81cd513d4da5960aa1b6044820152606401610a18565b506001600855949350505050565b600d80546000918261122c83615c22565b6001600160a01b039091166000908152600f6020818152604080842080546010845282862087875284529185208290559282526001810183559183529091200155565b611ab081604051602401614e1b91906157a5565b60408051601f198184030181529190526020810180516001600160e01b031663104c13eb60e21b1790525b80516a636f6e736f6c652e6c6f67602083016000808483855afa5050505050565b611177838383604051602401614e7f939291906157b8565b60408051601f198184030181529190526020810180516001600160e01b03166307c8121760e01b179052614e46565b60606000614ebd836002615ba9565b614ec8906002615b71565b6001600160401b03811115614eed57634e487b7160e01b600052604160045260246000fd5b6040519080825280601f01601f191660200182016040528015614f17576020820181803683370190505b509050600360fc1b81600081518110614f4057634e487b7160e01b600052603260045260246000fd5b60200101906001600160f81b031916908160001a905350600f60fb1b81600181518110614f7d57634e487b7160e01b600052603260045260246000fd5b60200101906001600160f81b031916908160001a9053506000614fa1846002615ba9565b614fac906001615b71565b90505b6001811115615040576f181899199a1a9b1b9c1cb0b131b232b360811b85600f1660108110614fee57634e487b7160e01b600052603260045260246000fd5b1a60f81b82828151811061501257634e487b7160e01b600052603260045260246000fd5b60200101906001600160f81b031916908160001a90535060049490941c9361503981615c0b565b9050614faf565b50831561508f5760405162461bcd60e51b815260206004820181905260248201527f537472696e67733a20686578206c656e67746820696e73756666696369656e746044820152606401610a18565b9392505050565b6008546001146150b85760405162461bcd60e51b8152600401610a1890615b12565b60006008819055838152601160205260409020546001600160a01b03166150f15760405162461bcd60e51b8152600401610a1890615a70565b60008211806151005750600081115b61514c5760405162461bcd60e51b815260206004820181905260248201527f7a65726f20616d6f756e7420616e64205f696e6372656173655365636f6e64736044820152606401610a18565b600083815260116020526040902082156151d557600061516b84611c3c565b9050838260010160008282546151819190615b71565b925050819055508082600201600082825461519c9190615b71565b9250508190555083600a60008282546151b59190615b71565b9250508190555080600960008282546151ce9190615b71565b9091555050505b81156151f557818160040160008282546151ef9190615b71565b90915550505b505060016008555050565b80356001600160a01b038116811461521757600080fd5b919050565b60008083601f84011261522d578182fd5b5081356001600160401b03811115615243578182fd5b6020830191508360208260051b850101111561525e57600080fd5b9250929050565b600060208284031215615276578081fd5b61508f82615200565b600080600060608486031215615293578182fd5b61529c84615200565b92506152aa60208501615200565b91506152b860408501615200565b90509250925092565b600080604083850312156152d3578182fd5b6152dc83615200565b946020939093013593505050565b600080600080600060a08688031215615301578081fd5b61530a86615200565b97602087013597506040870135966060810135965060800135945092505050565b60008060008060008060c08789031215615343578081fd5b61534c87615200565b9860208801359850604088013597606081013597506080810135965060a00135945092505050565b6000806000806000806000806080898b03121561538f578182fd5b88356001600160401b03808211156153a5578384fd5b6153b18c838d0161521c565b909a50985060208b01359150808211156153c9578384fd5b6153d58c838d0161521c565b909850965060408b01359150808211156153ed578384fd5b6153f98c838d0161521c565b909650945060608b0135915080821115615411578384fd5b5061541e8b828c0161521c565b999c989b5096995094979396929594505050565b60008060208385031215615444578182fd5b82356001600160401b03811115615459578283fd5b6154658582860161521c565b90969095509350505050565b600060208284031215615482578081fd5b8151801515811461508f578182fd5b6000602082840312156154a2578081fd5b5035919050565b600080604083850312156154bb578182fd5b823591506154cb60208401615200565b90509250929050565b6000602082840312156154e5578081fd5b81356001600160e01b03198116811461508f578182fd5b60006020828403121561550d578081fd5b5051919050565b60008060408385031215615526578182fd5b50508035926020909101359150565b60008060408385031215615547578182fd5b505080516020909101519092909150565b60008060006060848603121561556c578081fd5b505081359360208301359350604090920135919050565b600080600060608486031215615597578081fd5b8351925060208401519150604084015190509250925092565b600080600080608085870312156155c5578182fd5b5050823594602084013594506040840135936060013592509050565b600081518084526155f9816020860160208601615bdf565b601f01601f19169290920160200192915050565b6000825161561f818460208701615bdf565b9190910192915050565b76020b1b1b2b9b9a1b7b73a3937b61d1030b1b1b7bab73a1604d1b81526000835161565b816017850160208801615bdf565b7001034b99036b4b9b9b4b733903937b6329607d1b601791840191820152835161568c816028840160208801615bdf565b01602801949350505050565b6001600160a01b0391909116815260200190565b6001600160a01b0392831681529116602082015260400190565b6001600160a01b039390931683526020830191909152604082015260600190565b6001600160a01b03929092168252602082015260400190565b6001600160a01b03959095168552602085019390935260408401919091526060830152608082015260a00190565b6001600160a01b03969096168652602086019490945260408501929092526060840152608083015260a082015260c00190565b6020808252825182820181905260009190848201906040850190845b818110156157995783518352928401929184019160010161577d565b50909695505050505050565b60208152600061508f60208301846155e1565b6060815260006157cb60608301866155e1565b6001600160a01b039490941660208301525060400152919050565b6040815260006157f960408301856155e1565b90508260208301529392505050565b6020808252600f908201526e7a65726f20756e6c6f636b54696d6560881b604082015260600190565b6020808252601a908201527930b63637bbb0b731b29034b99034b739bab33334b1b4b2b73a1760311b604082015260600190565b6020808252601690820152751e995c9bc818dbdb5c1bdd5b99195908185b5bdd5b9d60521b604082015260600190565b60208082526022908201527f41636365737369626c653a2043616c6c6572206973206e6f7420616e2061646d60408201526134b760f11b606082015260800190565b60208082526018908201527741636365737369626c653a207a65726f206164647265737360401b604082015260600190565b60208082526028908201527f41636365737369626c653a2043616c6c6572206973206e6f7420616e2070726f6040820152673c3c9030b236b4b760c11b606082015260800190565b6020808252601590820152745374616b696e673a207a65726f206164647265737360581b604082015260600190565b60208082526014908201527331b0b63632b91034b9903737ba1039ba30b5b2b960611b604082015260600190565b60208082526016908201527520b1b1b2b9b9b4b136329d1039b0b6b29030b236b4b760511b604082015260600190565b60208082526016908201527539b2b73232b91034b9903737ba1030903137b73232b960511b604082015260600190565b6020808252601c908201527b1b1bd8dac8195b99081d1a5b59481a185cc81b9bdd081c185cdcd95960221b604082015260600190565b6020808252601290820152711e995c9bc81cd51bdcd15c1bd8da155b9a5d60721b604082015260600190565b6020808252601390820152726e6f6e2d656d707479207374616b65496e666f60681b604082015260600190565b60208082526012908201527114dd185ada5b99ce881e995c9bc81d5a5b9d60721b604082015260600190565b60208082526029908201527f41636365737369626c653a2043616c6c6572206973206e6f7420616e20706f6c60408201526834b1bc9030b236b4b760b91b606082015260800190565b6020808252601890820152774c6f636b496420697320616c726561647920696e2075736560401b604082015260600190565b9182526001600160a01b0316602082015260400190565b9283526020830191909152604082015260600190565b60008219821115615b8457615b84615c3d565b500190565b600082615ba457634e487b7160e01b81526012600452602481fd5b500490565b6000816000190483118215151615615bc357615bc3615c3d565b500290565b600082821015615bda57615bda615c3d565b500390565b60005b83811015615bfa578181015183820152602001615be2565b838111156121f05750506000910152565b600081615c1a57615c1a615c3d565b506000190190565b6000600019821415615c3657615c36615c3d565b5060010190565b634e487b7160e01b600052601160045260246000fdfe52eafc11f6f81f86878bffd31109a0d92f37506527754f00788853ff9f63b130726562617365496e64657820636f6d706f756e64206e6577496e646578203a2025735f7570646174655374616b65496e666f205f7374616b65496e666f2e6465706f736974202573d1a8a452d776b1b6802824ca2e8489c6448e2cb0963f552a9a19ab4ae064ca58726562617365496e646578206e6577496e646578202d3e206e656564546f73203a2025735f64656c657465557365725374616b6549642020757365725374616b696e67735b746f5d2e6c656e6774682025732d2d2d2d2d2d2d2d2d2d2d5f7570646174655374616b65496e666f202d2d2d2d2d2d2d2d2d2d2d2d2d2d2d2d2d2d5f7570646174655374616b65496e666f205f7374616b65496e666f2e656e6454696d65203a202573726562617365496e646578205f706f737369626c6545706f63684e756d626572203a202573fb5864e8ff833c3cb2d2d08505e82ff02a43554c74a35d4f5a64e852612783115f7570646174655374616b65496e666f207374616b696e675072696e636970616c202573a2646970667358221220cd6461fd62d4b402a6e1711d160eea14434326fdce46fd3fe3d68d8b11e7753664736f6c63430008040033",
  "linkReferences": {
    "contracts/libraries/LibStaking.sol": {
      "LibStaking": [
        {
          "length": 20,
          "start": 5469
        },
        {
          "length": 20,
          "start": 6028
        },
        {
          "length": 20,
          "start": 6249
        },
        {
          "length": 20,
          "start": 10155
        },
        {
          "length": 20,
          "start": 11704
        },
        {
          "length": 20,
          "start": 12026
        },
        {
          "length": 20,
          "start": 12219
        },
        {
          "length": 20,
          "start": 12925
        },
        {
          "length": 20,
          "start": 14810
        },
        {
          "length": 20,
          "start": 18548
        },
        {
          "length": 20,
          "start": 19524
        }
      ]
    }
  },
  "deployedLinkReferences": {
    "contracts/libraries/LibStaking.sol": {
      "LibStaking": [
        {
          "length": 20,
          "start": 5431
        },
        {
          "length": 20,
          "start": 5990
        },
        {
          "length": 20,
          "start": 6211
        },
        {
          "length": 20,
          "start": 10117
        },
        {
          "length": 20,
          "start": 11666
        },
        {
          "length": 20,
          "start": 11988
        },
        {
          "length": 20,
          "start": 12181
        },
        {
          "length": 20,
          "start": 12887
        },
        {
          "length": 20,
          "start": 14772
        },
        {
          "length": 20,
          "start": 18510
        },
        {
          "length": 20,
          "start": 19486
        }
      ]
    }
  }
}