{
  "_format": "hh-sol-artifact-1",
  "contractName": "StakingV2",
  "sourceName": "contracts/StakingV2.sol",
  "abi": [
    {
      "inputs": [],
      "stateMutability": "nonpayable",
      "type": "constructor"
    },
    {
      "anonymous": false,
      "inputs": [
        {
          "indexed": false,
          "internalType": "address",
          "name": "staker",
          "type": "address"
        },
        {
          "indexed": false,
          "internalType": "uint256",
          "name": "claimAmount",
          "type": "uint256"
        },
        {
          "indexed": false,
          "internalType": "uint256",
          "name": "stakeId",
          "type": "uint256"
        }
      ],
      "name": "ClaimdForNonLock",
      "type": "event"
    },
    {
      "anonymous": false,
      "inputs": [
        {
          "indexed": false,
          "internalType": "address",
          "name": "to",
          "type": "address"
        },
        {
          "indexed": false,
          "internalType": "uint256",
          "name": "amount",
          "type": "uint256"
        },
        {
          "indexed": false,
          "internalType": "uint256",
          "name": "stakeId",
          "type": "uint256"
        }
      ],
      "name": "IncreasedAmountForSimpleStake",
      "type": "event"
    },
    {
      "anonymous": false,
      "inputs": [
        {
          "indexed": false,
          "internalType": "address",
          "name": "staker",
          "type": "address"
        },
        {
          "indexed": false,
          "internalType": "uint256",
          "name": "amount",
          "type": "uint256"
        },
        {
          "indexed": false,
          "internalType": "uint256",
          "name": "unlockWeeks",
          "type": "uint256"
        },
        {
          "indexed": false,
          "internalType": "uint256",
          "name": "stakeId",
          "type": "uint256"
        },
        {
          "indexed": false,
          "internalType": "uint256",
          "name": "stosId",
          "type": "uint256"
        },
        {
          "indexed": false,
          "internalType": "uint256",
          "name": "stosPrincipal",
          "type": "uint256"
        }
      ],
      "name": "IncreasedBeforeEndOrNonEnd",
      "type": "event"
    },
    {
      "anonymous": false,
      "inputs": [
        {
          "indexed": false,
          "internalType": "uint256",
          "name": "oldIndex",
          "type": "uint256"
        },
        {
          "indexed": false,
          "internalType": "uint256",
          "name": "newIndex",
          "type": "uint256"
        },
        {
          "indexed": false,
          "internalType": "uint256",
          "name": "totalLTOS",
          "type": "uint256"
        }
      ],
      "name": "Rebased",
      "type": "event"
    },
    {
      "anonymous": false,
      "inputs": [
        {
          "indexed": false,
          "internalType": "address",
          "name": "to",
          "type": "address"
        },
        {
          "indexed": false,
          "internalType": "uint256",
          "name": "addAmount",
          "type": "uint256"
        },
        {
          "indexed": false,
          "internalType": "uint256",
          "name": "claimAmount",
          "type": "uint256"
        },
        {
          "indexed": false,
          "internalType": "uint256",
          "name": "periodWeeks",
          "type": "uint256"
        },
        {
          "indexed": false,
          "internalType": "uint256",
          "name": "stakeId",
          "type": "uint256"
        },
        {
          "indexed": false,
          "internalType": "uint256",
          "name": "stosId",
          "type": "uint256"
        },
        {
          "indexed": false,
          "internalType": "uint256",
          "name": "stosPrincipal",
          "type": "uint256"
        }
      ],
      "name": "ResetStakedGetStosAfterLock",
      "type": "event"
    },
    {
      "anonymous": false,
      "inputs": [
        {
          "indexed": true,
          "internalType": "bytes32",
          "name": "role",
          "type": "bytes32"
        },
        {
          "indexed": true,
          "internalType": "bytes32",
          "name": "previousAdminRole",
          "type": "bytes32"
        },
        {
          "indexed": true,
          "internalType": "bytes32",
          "name": "newAdminRole",
          "type": "bytes32"
        }
      ],
      "name": "RoleAdminChanged",
      "type": "event"
    },
    {
      "anonymous": false,
      "inputs": [
        {
          "indexed": true,
          "internalType": "bytes32",
          "name": "role",
          "type": "bytes32"
        },
        {
          "indexed": true,
          "internalType": "address",
          "name": "account",
          "type": "address"
        },
        {
          "indexed": true,
          "internalType": "address",
          "name": "sender",
          "type": "address"
        }
      ],
      "name": "RoleGranted",
      "type": "event"
    },
    {
      "anonymous": false,
      "inputs": [
        {
          "indexed": true,
          "internalType": "bytes32",
          "name": "role",
          "type": "bytes32"
        },
        {
          "indexed": true,
          "internalType": "address",
          "name": "account",
          "type": "address"
        },
        {
          "indexed": true,
          "internalType": "address",
          "name": "sender",
          "type": "address"
        }
      ],
      "name": "RoleRevoked",
      "type": "event"
    },
    {
      "anonymous": false,
      "inputs": [
        {
          "indexed": false,
          "internalType": "address",
          "name": "to",
          "type": "address"
        },
        {
          "indexed": false,
          "internalType": "uint256",
          "name": "amount",
          "type": "uint256"
        },
        {
          "indexed": false,
          "internalType": "uint256",
          "name": "stakeId",
          "type": "uint256"
        }
      ],
      "name": "Staked",
      "type": "event"
    },
    {
      "anonymous": false,
      "inputs": [
        {
          "indexed": false,
          "internalType": "address",
          "name": "to",
          "type": "address"
        },
        {
          "indexed": false,
          "internalType": "uint256",
          "name": "amount",
          "type": "uint256"
        },
        {
          "indexed": false,
          "internalType": "uint256",
          "name": "ltos",
          "type": "uint256"
        },
        {
          "indexed": false,
          "internalType": "uint256",
          "name": "marketId",
          "type": "uint256"
        },
        {
          "indexed": false,
          "internalType": "uint256",
          "name": "stakeId",
          "type": "uint256"
        },
        {
          "indexed": false,
          "internalType": "uint256",
          "name": "tosPrice",
          "type": "uint256"
        }
      ],
      "name": "StakedByBond",
      "type": "event"
    },
    {
      "anonymous": false,
      "inputs": [
        {
          "indexed": false,
          "internalType": "address",
          "name": "to",
          "type": "address"
        },
        {
          "indexed": false,
          "internalType": "uint256",
          "name": "amount",
          "type": "uint256"
        },
        {
          "indexed": false,
          "internalType": "uint256",
          "name": "periodWeeks",
          "type": "uint256"
        },
        {
          "indexed": false,
          "internalType": "uint256",
          "name": "stakeId",
          "type": "uint256"
        },
        {
          "indexed": false,
          "internalType": "uint256",
          "name": "stosId",
          "type": "uint256"
        },
        {
          "indexed": false,
          "internalType": "uint256",
          "name": "stosPrincipal",
          "type": "uint256"
        }
      ],
      "name": "StakedGetStos",
      "type": "event"
    },
    {
      "anonymous": false,
      "inputs": [
        {
          "indexed": false,
          "internalType": "address",
          "name": "to",
          "type": "address"
        },
        {
          "indexed": false,
          "internalType": "uint256",
          "name": "amount",
          "type": "uint256"
        },
        {
          "indexed": false,
          "internalType": "uint256",
          "name": "ltos",
          "type": "uint256"
        },
        {
          "indexed": false,
          "internalType": "uint256",
          "name": "periodWeeks",
          "type": "uint256"
        },
        {
          "indexed": false,
          "internalType": "uint256",
          "name": "marketId",
          "type": "uint256"
        },
        {
          "indexed": false,
          "internalType": "uint256",
          "name": "stakeId",
          "type": "uint256"
        },
        {
          "indexed": false,
          "internalType": "uint256",
          "name": "stosId",
          "type": "uint256"
        },
        {
          "indexed": false,
          "internalType": "uint256",
          "name": "tosPrice",
          "type": "uint256"
        },
        {
          "indexed": false,
          "internalType": "uint256",
          "name": "stosPrincipal",
          "type": "uint256"
        }
      ],
      "name": "StakedGetStosByBond",
      "type": "event"
    },
    {
      "anonymous": false,
      "inputs": [
        {
          "indexed": false,
          "internalType": "address",
          "name": "staker",
          "type": "address"
        },
        {
          "indexed": false,
          "internalType": "uint256",
          "name": "amount",
          "type": "uint256"
        },
        {
          "indexed": false,
          "internalType": "uint256",
          "name": "stakeId",
          "type": "uint256"
        }
      ],
      "name": "Unstaked",
      "type": "event"
    },
    {
      "inputs": [],
      "name": "ADMIN_ROLE",
      "outputs": [
        {
          "internalType": "bytes32",
          "name": "",
          "type": "bytes32"
        }
      ],
      "stateMutability": "view",
      "type": "function"
    },
    {
      "inputs": [],
      "name": "DEFAULT_ADMIN_ROLE",
      "outputs": [
        {
          "internalType": "bytes32",
          "name": "",
          "type": "bytes32"
        }
      ],
      "stateMutability": "view",
      "type": "function"
    },
    {
      "inputs": [],
      "name": "POLICY_ROLE",
      "outputs": [
        {
          "internalType": "bytes32",
          "name": "",
          "type": "bytes32"
        }
      ],
      "stateMutability": "view",
      "type": "function"
    },
    {
      "inputs": [],
      "name": "PROJECT_ADMIN_ROLE",
      "outputs": [
        {
          "internalType": "bytes32",
          "name": "",
          "type": "bytes32"
        }
      ],
      "stateMutability": "view",
      "type": "function"
    },
    {
      "inputs": [
        {
          "internalType": "address",
          "name": "account",
          "type": "address"
        }
      ],
      "name": "addAdmin",
      "outputs": [],
      "stateMutability": "nonpayable",
      "type": "function"
    },
    {
      "inputs": [
        {
          "internalType": "address",
          "name": "_account",
          "type": "address"
        }
      ],
      "name": "addPolicy",
      "outputs": [],
      "stateMutability": "nonpayable",
      "type": "function"
    },
    {
      "inputs": [
        {
          "internalType": "address",
          "name": "_owner",
          "type": "address"
        }
      ],
      "name": "addProxyAdmin",
      "outputs": [],
      "stateMutability": "nonpayable",
      "type": "function"
    },
    {
      "inputs": [
        {
          "internalType": "uint256",
          "name": "",
          "type": "uint256"
        }
      ],
      "name": "allStakings",
      "outputs": [
        {
          "internalType": "address",
          "name": "staker",
          "type": "address"
        },
        {
          "internalType": "uint256",
          "name": "deposit",
          "type": "uint256"
        },
        {
          "internalType": "uint256",
          "name": "ltos",
          "type": "uint256"
        },
        {
          "internalType": "uint256",
          "name": "endTime",
          "type": "uint256"
        },
        {
          "internalType": "uint256",
          "name": "marketId",
          "type": "uint256"
        }
      ],
      "stateMutability": "view",
      "type": "function"
    },
    {
      "inputs": [
        {
          "internalType": "address",
          "name": "_addr",
          "type": "address"
        }
      ],
      "name": "balanceOf",
      "outputs": [
        {
          "internalType": "uint256",
          "name": "balance",
          "type": "uint256"
        }
      ],
      "stateMutability": "view",
      "type": "function"
    },
    {
      "inputs": [],
      "name": "basicBondPeriod",
      "outputs": [
        {
          "internalType": "uint256",
          "name": "",
          "type": "uint256"
        }
      ],
      "stateMutability": "view",
      "type": "function"
    },
    {
      "inputs": [
        {
          "internalType": "uint256",
          "name": "_stakeId",
          "type": "uint256"
        },
        {
          "internalType": "uint256",
          "name": "claimLtos",
          "type": "uint256"
        }
      ],
      "name": "claimForSimpleType",
      "outputs": [],
      "stateMutability": "nonpayable",
      "type": "function"
    },
    {
      "inputs": [
        {
          "internalType": "uint256",
          "name": "_stakeId",
          "type": "uint256"
        }
      ],
      "name": "claimableLtos",
      "outputs": [
        {
          "internalType": "uint256",
          "name": "",
          "type": "uint256"
        }
      ],
      "stateMutability": "view",
      "type": "function"
    },
    {
      "inputs": [
        {
          "internalType": "uint256",
          "name": "",
          "type": "uint256"
        }
      ],
      "name": "connectId",
      "outputs": [
        {
          "internalType": "uint256",
          "name": "",
          "type": "uint256"
        }
      ],
      "stateMutability": "view",
      "type": "function"
    },
    {
      "inputs": [],
      "name": "epoch",
      "outputs": [
        {
          "internalType": "uint256",
          "name": "length_",
          "type": "uint256"
        },
        {
          "internalType": "uint256",
          "name": "end",
          "type": "uint256"
        }
      ],
      "stateMutability": "view",
      "type": "function"
    },
    {
      "inputs": [],
      "name": "generateMarketId",
      "outputs": [
        {
          "internalType": "uint256",
          "name": "",
          "type": "uint256"
        }
      ],
      "stateMutability": "nonpayable",
      "type": "function"
    },
    {
      "inputs": [],
      "name": "getIndex",
      "outputs": [
        {
          "internalType": "uint256",
          "name": "",
          "type": "uint256"
        }
      ],
      "stateMutability": "view",
      "type": "function"
    },
    {
      "inputs": [
        {
          "internalType": "uint256",
          "name": "ltos",
          "type": "uint256"
        }
      ],
      "name": "getLtosToTos",
      "outputs": [
        {
          "internalType": "uint256",
          "name": "",
          "type": "uint256"
        }
      ],
      "stateMutability": "view",
      "type": "function"
    },
    {
      "inputs": [
        {
          "internalType": "uint256",
          "name": "ltos",
          "type": "uint256"
        }
      ],
      "name": "getLtosToTosPossibleIndex",
      "outputs": [
        {
          "internalType": "uint256",
          "name": "",
          "type": "uint256"
        }
      ],
      "stateMutability": "view",
      "type": "function"
    },
    {
      "inputs": [
        {
          "internalType": "bytes32",
          "name": "role",
          "type": "bytes32"
        }
      ],
      "name": "getRoleAdmin",
      "outputs": [
        {
          "internalType": "bytes32",
          "name": "",
          "type": "bytes32"
        }
      ],
      "stateMutability": "view",
      "type": "function"
    },
    {
      "inputs": [
        {
          "internalType": "uint256",
          "name": "amount",
          "type": "uint256"
        }
      ],
      "name": "getTosToLtos",
      "outputs": [
        {
          "internalType": "uint256",
          "name": "",
          "type": "uint256"
        }
      ],
      "stateMutability": "view",
      "type": "function"
    },
    {
      "inputs": [
        {
          "internalType": "uint256",
          "name": "amount",
          "type": "uint256"
        }
      ],
      "name": "getTosToLtosPossibleIndex",
      "outputs": [
        {
          "internalType": "uint256",
          "name": "",
          "type": "uint256"
        }
      ],
      "stateMutability": "view",
      "type": "function"
    },
    {
      "inputs": [
        {
          "internalType": "bytes32",
          "name": "role",
          "type": "bytes32"
        },
        {
          "internalType": "address",
          "name": "account",
          "type": "address"
        }
      ],
      "name": "grantRole",
      "outputs": [],
      "stateMutability": "nonpayable",
      "type": "function"
    },
    {
      "inputs": [
        {
          "internalType": "bytes32",
          "name": "role",
          "type": "bytes32"
        },
        {
          "internalType": "address",
          "name": "account",
          "type": "address"
        }
      ],
      "name": "hasRole",
      "outputs": [
        {
          "internalType": "bool",
          "name": "",
          "type": "bool"
        }
      ],
      "stateMutability": "view",
      "type": "function"
    },
    {
      "inputs": [
        {
          "internalType": "uint256",
          "name": "_stakeId",
          "type": "uint256"
        },
        {
          "internalType": "uint256",
          "name": "_amount",
          "type": "uint256"
        }
      ],
      "name": "increaseAmountForSimpleStake",
      "outputs": [],
      "stateMutability": "nonpayable",
      "type": "function"
    },
    {
      "inputs": [
        {
          "internalType": "uint256",
          "name": "_stakeId",
          "type": "uint256"
        },
        {
          "internalType": "uint256",
          "name": "_amount",
          "type": "uint256"
        },
        {
          "internalType": "uint256",
          "name": "_unlockWeeks",
          "type": "uint256"
        }
      ],
      "name": "increaseBeforeEndOrNonEnd",
      "outputs": [],
      "stateMutability": "nonpayable",
      "type": "function"
    },
    {
      "inputs": [
        {
          "internalType": "uint256",
          "name": "_stakeId",
          "type": "uint256"
        },
        {
          "internalType": "uint256",
          "name": "_amount",
          "type": "uint256"
        }
      ],
      "name": "increaseBeforeEndOrNonEnd",
      "outputs": [],
      "stateMutability": "nonpayable",
      "type": "function"
    },
    {
      "inputs": [],
      "name": "index_",
      "outputs": [
        {
          "internalType": "uint256",
          "name": "",
          "type": "uint256"
        }
      ],
      "stateMutability": "view",
      "type": "function"
    },
    {
      "inputs": [
        {
          "internalType": "address",
          "name": "account",
          "type": "address"
        }
      ],
      "name": "isAdmin",
      "outputs": [
        {
          "internalType": "bool",
          "name": "",
          "type": "bool"
        }
      ],
      "stateMutability": "view",
      "type": "function"
    },
    {
      "inputs": [
        {
          "internalType": "address",
          "name": "account",
          "type": "address"
        }
      ],
      "name": "isPolicy",
      "outputs": [
        {
          "internalType": "bool",
          "name": "",
          "type": "bool"
        }
      ],
      "stateMutability": "view",
      "type": "function"
    },
    {
      "inputs": [
        {
          "internalType": "address",
          "name": "account",
          "type": "address"
        }
      ],
      "name": "isProxyAdmin",
      "outputs": [
        {
          "internalType": "bool",
          "name": "",
          "type": "bool"
        }
      ],
      "stateMutability": "view",
      "type": "function"
    },
    {
      "inputs": [],
      "name": "lockTOS",
      "outputs": [
        {
          "internalType": "address",
          "name": "",
          "type": "address"
        }
      ],
      "stateMutability": "view",
      "type": "function"
    },
    {
      "inputs": [],
      "name": "marketIdCounter",
      "outputs": [
        {
          "internalType": "uint256",
          "name": "",
          "type": "uint256"
        }
      ],
      "stateMutability": "view",
      "type": "function"
    },
    {
      "inputs": [
        {
          "internalType": "uint256[]",
          "name": "_stakeIds",
          "type": "uint256[]"
        }
      ],
      "name": "multiUnstake",
      "outputs": [],
      "stateMutability": "nonpayable",
      "type": "function"
    },
    {
      "inputs": [],
      "name": "possibleIndex",
      "outputs": [
        {
          "internalType": "uint256",
          "name": "",
          "type": "uint256"
        }
      ],
      "stateMutability": "view",
      "type": "function"
    },
    {
      "inputs": [],
      "name": "rebaseIndex",
      "outputs": [],
      "stateMutability": "nonpayable",
      "type": "function"
    },
    {
      "inputs": [],
      "name": "rebasePerEpoch",
      "outputs": [
        {
          "internalType": "uint256",
          "name": "",
          "type": "uint256"
        }
      ],
      "stateMutability": "view",
      "type": "function"
    },
    {
      "inputs": [
        {
          "internalType": "uint256",
          "name": "_stakeId",
          "type": "uint256"
        }
      ],
      "name": "remainedLtos",
      "outputs": [
        {
          "internalType": "uint256",
          "name": "",
          "type": "uint256"
        }
      ],
      "stateMutability": "view",
      "type": "function"
    },
    {
      "inputs": [],
      "name": "removeAdmin",
      "outputs": [],
      "stateMutability": "nonpayable",
      "type": "function"
    },
    {
      "inputs": [],
      "name": "removePolicy",
      "outputs": [],
      "stateMutability": "nonpayable",
      "type": "function"
    },
    {
      "inputs": [],
      "name": "removeProxyAdmin",
      "outputs": [],
      "stateMutability": "nonpayable",
      "type": "function"
    },
    {
      "inputs": [
        {
          "internalType": "bytes32",
          "name": "role",
          "type": "bytes32"
        },
        {
          "internalType": "address",
          "name": "account",
          "type": "address"
        }
      ],
      "name": "renounceRole",
      "outputs": [],
      "stateMutability": "nonpayable",
      "type": "function"
    },
    {
      "inputs": [
        {
          "internalType": "uint256",
          "name": "_stakeId",
          "type": "uint256"
        },
        {
          "internalType": "uint256",
          "name": "_addAmount",
          "type": "uint256"
        },
        {
          "internalType": "uint256",
          "name": "_claimAmount",
          "type": "uint256"
        },
        {
          "internalType": "uint256",
          "name": "_periodWeeks",
          "type": "uint256"
        }
      ],
      "name": "resetStakeGetStosAfterLock",
      "outputs": [],
      "stateMutability": "nonpayable",
      "type": "function"
    },
    {
      "inputs": [
        {
          "internalType": "uint256",
          "name": "_stakeId",
          "type": "uint256"
        },
        {
          "internalType": "uint256",
          "name": "_claimAmount",
          "type": "uint256"
        }
      ],
      "name": "resetStakeGetStosAfterLock",
      "outputs": [],
      "stateMutability": "nonpayable",
      "type": "function"
    },
    {
      "inputs": [
        {
          "internalType": "uint256",
          "name": "_stakeId",
          "type": "uint256"
        },
        {
          "internalType": "uint256",
          "name": "_addAmount",
          "type": "uint256"
        },
        {
          "internalType": "uint256",
          "name": "_periodWeeks",
          "type": "uint256"
        }
      ],
      "name": "resetStakeGetStosAfterLock",
      "outputs": [],
      "stateMutability": "nonpayable",
      "type": "function"
    },
    {
      "inputs": [
        {
          "internalType": "bytes32",
          "name": "role",
          "type": "bytes32"
        },
        {
          "internalType": "address",
          "name": "account",
          "type": "address"
        }
      ],
      "name": "revokeRole",
      "outputs": [],
      "stateMutability": "nonpayable",
      "type": "function"
    },
    {
      "inputs": [],
      "name": "runwayTos",
      "outputs": [
        {
          "internalType": "uint256",
          "name": "",
          "type": "uint256"
        }
      ],
      "stateMutability": "view",
      "type": "function"
    },
    {
      "inputs": [],
      "name": "runwayTosPossibleIndex",
      "outputs": [
        {
          "internalType": "uint256",
          "name": "",
          "type": "uint256"
        }
      ],
      "stateMutability": "view",
      "type": "function"
    },
    {
      "inputs": [],
      "name": "secondsToNextEpoch",
      "outputs": [
        {
          "internalType": "uint256",
          "name": "",
          "type": "uint256"
        }
      ],
      "stateMutability": "view",
      "type": "function"
    },
    {
      "inputs": [
        {
          "internalType": "address",
          "name": "_tos",
          "type": "address"
        },
        {
          "internalType": "address",
          "name": "_lockTOS",
          "type": "address"
        },
        {
          "internalType": "address",
          "name": "_treasury",
          "type": "address"
        }
      ],
      "name": "setAddressInfos",
      "outputs": [],
      "stateMutability": "nonpayable",
      "type": "function"
    },
    {
      "inputs": [
        {
          "internalType": "uint256",
          "name": "_period",
          "type": "uint256"
        }
      ],
      "name": "setBasicBondPeriod",
      "outputs": [],
      "stateMutability": "nonpayable",
      "type": "function"
    },
    {
      "inputs": [
        {
          "internalType": "uint256",
          "name": "_index",
          "type": "uint256"
        }
      ],
      "name": "setIndex",
      "outputs": [],
      "stateMutability": "nonpayable",
      "type": "function"
    },
    {
      "inputs": [
        {
          "internalType": "uint256",
          "name": "_rebasePerEpoch",
          "type": "uint256"
        }
      ],
      "name": "setRebasePerEpoch",
      "outputs": [],
      "stateMutability": "nonpayable",
      "type": "function"
    },
    {
      "inputs": [
        {
          "internalType": "uint256",
          "name": "_amount",
          "type": "uint256"
        }
      ],
      "name": "stake",
      "outputs": [
        {
          "internalType": "uint256",
          "name": "stakeId",
          "type": "uint256"
        }
      ],
      "stateMutability": "nonpayable",
      "type": "function"
    },
    {
      "inputs": [
        {
          "internalType": "address",
          "name": "to",
          "type": "address"
        },
        {
          "internalType": "uint256",
          "name": "_amount",
          "type": "uint256"
        },
        {
          "internalType": "uint256",
          "name": "_marketId",
          "type": "uint256"
        },
        {
          "internalType": "uint256",
          "name": "tosPrice",
          "type": "uint256"
        }
      ],
      "name": "stakeByBond",
      "outputs": [
        {
          "internalType": "uint256",
          "name": "stakeId",
          "type": "uint256"
        }
      ],
      "stateMutability": "nonpayable",
      "type": "function"
    },
    {
      "inputs": [
        {
          "internalType": "uint256",
          "name": "_amount",
          "type": "uint256"
        },
        {
          "internalType": "uint256",
          "name": "_periodWeeks",
          "type": "uint256"
        }
      ],
      "name": "stakeGetStos",
      "outputs": [
        {
          "internalType": "uint256",
          "name": "stakeId",
          "type": "uint256"
        }
      ],
      "stateMutability": "nonpayable",
      "type": "function"
    },
    {
      "inputs": [
        {
          "internalType": "address",
          "name": "_to",
          "type": "address"
        },
        {
          "internalType": "uint256",
          "name": "_amount",
          "type": "uint256"
        },
        {
          "internalType": "uint256",
          "name": "_marketId",
          "type": "uint256"
        },
        {
          "internalType": "uint256",
          "name": "_periodWeeks",
          "type": "uint256"
        },
        {
          "internalType": "uint256",
          "name": "tosPrice",
          "type": "uint256"
        }
      ],
      "name": "stakeGetStosByBond",
      "outputs": [
        {
          "internalType": "uint256",
          "name": "stakeId",
          "type": "uint256"
        }
      ],
      "stateMutability": "nonpayable",
      "type": "function"
    },
    {
      "inputs": [
        {
          "internalType": "uint256",
          "name": "stakeId",
          "type": "uint256"
        }
      ],
      "name": "stakeInfo",
      "outputs": [
        {
          "internalType": "address",
          "name": "staker",
          "type": "address"
        },
        {
          "internalType": "uint256",
          "name": "deposit",
          "type": "uint256"
        },
        {
          "internalType": "uint256",
          "name": "ltos",
          "type": "uint256"
        },
        {
          "internalType": "uint256",
          "name": "endTime",
          "type": "uint256"
        },
        {
          "internalType": "uint256",
          "name": "marketId",
          "type": "uint256"
        }
      ],
      "stateMutability": "view",
      "type": "function"
    },
    {
      "inputs": [
        {
          "internalType": "uint256",
          "name": "stakeId",
          "type": "uint256"
        }
      ],
      "name": "stakedOf",
      "outputs": [
        {
          "internalType": "uint256",
          "name": "",
          "type": "uint256"
        }
      ],
      "stateMutability": "view",
      "type": "function"
    },
    {
      "inputs": [],
      "name": "stakedOfAll",
      "outputs": [
        {
          "internalType": "uint256",
          "name": "",
          "type": "uint256"
        }
      ],
      "stateMutability": "view",
      "type": "function"
    },
    {
      "inputs": [],
      "name": "stakingIdCounter",
      "outputs": [
        {
          "internalType": "uint256",
          "name": "",
          "type": "uint256"
        }
      ],
      "stateMutability": "view",
      "type": "function"
    },
    {
      "inputs": [
        {
          "internalType": "address",
          "name": "_addr",
          "type": "address"
        }
      ],
      "name": "stakingOf",
      "outputs": [
        {
          "internalType": "uint256[]",
          "name": "",
          "type": "uint256[]"
        }
      ],
      "stateMutability": "view",
      "type": "function"
    },
    {
      "inputs": [],
      "name": "stakingPrincipal",
      "outputs": [
        {
          "internalType": "uint256",
          "name": "",
          "type": "uint256"
        }
      ],
      "stateMutability": "view",
      "type": "function"
    },
    {
      "inputs": [
        {
          "internalType": "bytes4",
          "name": "interfaceId",
          "type": "bytes4"
        }
      ],
      "name": "supportsInterface",
      "outputs": [
        {
          "internalType": "bool",
          "name": "",
          "type": "bool"
        }
      ],
      "stateMutability": "view",
      "type": "function"
    },
    {
      "inputs": [
        {
          "internalType": "address[]",
          "name": "accounts",
          "type": "address[]"
        },
        {
          "internalType": "uint256[]",
          "name": "balances",
          "type": "uint256[]"
        },
        {
          "internalType": "uint256[]",
          "name": "period",
          "type": "uint256[]"
        },
        {
          "internalType": "uint256[]",
          "name": "tokenId",
          "type": "uint256[]"
        }
      ],
      "name": "syncStos",
      "outputs": [],
      "stateMutability": "nonpayable",
      "type": "function"
    },
    {
      "inputs": [],
      "name": "tos",
      "outputs": [
        {
          "internalType": "contract IERC20",
          "name": "",
          "type": "address"
        }
      ],
      "stateMutability": "view",
      "type": "function"
    },
    {
      "inputs": [],
      "name": "totalLtos",
      "outputs": [
        {
          "internalType": "uint256",
          "name": "",
          "type": "uint256"
        }
      ],
      "stateMutability": "view",
      "type": "function"
    },
    {
      "inputs": [
        {
          "internalType": "address",
          "name": "newAdmin",
          "type": "address"
        }
      ],
      "name": "transferAdmin",
      "outputs": [],
      "stateMutability": "nonpayable",
      "type": "function"
    },
    {
      "inputs": [
        {
          "internalType": "address",
          "name": "newAdmin",
          "type": "address"
        }
      ],
      "name": "transferPolicyAdmin",
      "outputs": [],
      "stateMutability": "nonpayable",
      "type": "function"
    },
    {
      "inputs": [
        {
          "internalType": "address",
          "name": "newAdmin",
          "type": "address"
        }
      ],
      "name": "transferProxyAdmin",
      "outputs": [],
      "stateMutability": "nonpayable",
      "type": "function"
    },
    {
      "inputs": [],
      "name": "treasury",
      "outputs": [
        {
          "internalType": "address",
          "name": "",
          "type": "address"
        }
      ],
      "stateMutability": "view",
      "type": "function"
    },
    {
      "inputs": [
        {
          "internalType": "uint256",
          "name": "_stakeId",
          "type": "uint256"
        }
      ],
      "name": "unstake",
      "outputs": [],
      "stateMutability": "nonpayable",
      "type": "function"
    },
    {
      "inputs": [
        {
          "internalType": "address",
          "name": "",
          "type": "address"
        },
        {
          "internalType": "uint256",
          "name": "",
          "type": "uint256"
        }
      ],
      "name": "userStakingIndex",
      "outputs": [
        {
          "internalType": "uint256",
          "name": "",
          "type": "uint256"
        }
      ],
      "stateMutability": "view",
      "type": "function"
    },
    {
      "inputs": [
        {
          "internalType": "address",
          "name": "",
          "type": "address"
        },
        {
          "internalType": "uint256",
          "name": "",
          "type": "uint256"
        }
      ],
      "name": "userStakings",
      "outputs": [
        {
          "internalType": "uint256",
          "name": "",
          "type": "uint256"
        }
      ],
      "stateMutability": "view",
      "type": "function"
    }
  ],
  "bytecode": "0x6080604052600160065534801561001557600080fd5b506158e180620000266000396000f3fe608060405234801561001057600080fd5b50600436106103535760003560e01c806378ad1405116101c657806378ad1405146106c657806379be7bd0146106cf5780637cc0fee6146106e257806381045ead146106f55780638356ca4f146106fd57806383a5683a1461071057806389f395de14610723578063900cf0cf1461073657806391d14854146107595780639483c1d71461076c57806396f1557c1461077457806397b4293714610787578063980b10971461079a57806398842ff6146107ad5780639a202d47146107b55780639a794e66146107bd5780639e9e792f146107d0578063a052e69e146107f0578063a217fddf146107f9578063a694fc3a14610801578063a7110dc314610814578063b24352b11461083f578063b84ef08114610852578063b88ad1e314610865578063bba4307e14610878578063bbad8ac91461088b578063be72f2d31461089e578063c68450bf146108a6578063ca16910f146108b9578063d547741f146108cc578063d7fe4a49146108df578063e6500b21146108f2578063e75f77e1146108fa578063f1c8c9221461090d578063f47f2f1d14610920578063f558138214610933578063fad1c85c1461093c57600080fd5b806301ffc9a714610358578063037859af146103805780630e1e998f146103a057806311f1c8bf146103b757806317ed177a146103ca5780631e725567146103dd57806322985246146103f2578063248a9ca31461040757806324d7806c1461041a578063265705b11461042d57806328ea9ff0146104405780632e17de78146104485780632f2ff15d1461045b57806330e06e8b1461046e578063332b01f31461047657806336568abe14610489578063385030b41461049c57806340a5737f146104a557806341c04d5e146104b857806347e1b372146104cd57806349ec9883146104d55780634e533572146104e85780634e6c4466146105865780635720bf3a146105b15780635746248f146105ba5780635dc3c29a146105cd5780635f3383521461061457806361d027b31461061c57806365cb3a831461062f578063660fe73f146106375780636d1c789f1461064a578063704802751461065357806370a082311461066657806375829def1461067957806375b238fc1461068c57806377d73dc6146106b3575b600080fd5b61036b610366366004615119565b61094f565b60405190151581526020015b60405180910390f35b61039361038e366004614ebb565b610986565b6040516103779190615359565b6103a9600b5481565b604051908152602001610377565b6103a96103c53660046150d6565b6109f2565b6103a96103d83660046150d6565b610a0d565b6103f06103eb366004615159565b610a22565b005b6103a960008051602061588c83398151915281565b6103a96104153660046150d6565b610cf1565b61036b610428366004614ebb565b610d06565b6103f061043b366004614ed5565b610d20565b6103a9610e7b565b6103f06104563660046150d6565b61101e565b6103f06104693660046150ee565b6112d5565b6103a96112f7565b6103a9610484366004614f40565b6113b0565b6103f06104973660046150ee565b611543565b6103a9600a5481565b6103f06104b33660046150d6565b6115c1565b6103a960008051602061584c83398151915281565b6103f06115eb565b6103f06104e33660046150d6565b6117f0565b6105546104f63660046150d6565b6000908152600f6020908152604091829020825160a08101845281546001600160a01b031680825260018301549382018490526002830154948201859052600383015460608301819052600490930154608090920182905294929392565b604080516001600160a01b0390961686526020860194909452928401919091526060830152608082015260a001610377565b600354610599906001600160a01b031681565b6040516001600160a01b039091168152602001610377565b6103a960095481565b6103a96105c8366004614f17565b61181a565b6105546105db3660046150d6565b600f60205260009081526040902080546001820154600283015460038401546004909401546001600160a01b0390931693919290919085565b6103a961184b565b600454610599906001600160a01b031681565b6103f061185d565b6103a96106453660046150d6565b61189a565b6103a9600c5481565b6103f0610661366004614ebb565b6118c0565b6103a9610674366004614ebb565b611900565b6103f0610687366004614ebb565b6119d6565b6103a97fdf8b4c520ffe197c5343c6f5aec59570151ef9a492f2c624fd45ddde6135ec4281565b6103a96106c13660046150d6565b611a89565b6103a960055481565b6103a96106dd3660046150d6565b611aa1565b6103a96106f03660046150d6565b611abe565b6005546103a9565b6103f061070b366004614ebb565b611b12565b6103f061071e366004615159565b611b9c565b600254610599906001600160a01b031681565b600054600154610744919082565b60408051928352602083019190915201610377565b61036b6107673660046150ee565b611d56565b6103a9611d81565b6103f0610782366004614ebb565b611da4565b6103a96107953660046150d6565b611dd4565b6103a96107a8366004614f78565b611ded565b6103a961210d565b6103f06121bc565b6103f06107cb366004615077565b612208565b6103a96107de3660046150d6565b60106020526000908152604090205481565b6103a960085481565b6103a9600081565b6103a961080f3660046150d6565b612296565b6103a9610822366004614f17565b600e60209081526000928352604080842090915290825290205481565b6103f061084d3660046151f5565b61237d565b6103f0610860366004614ebb565b612735565b6103f061087336600461519d565b612772565b6103f0610886366004615159565b612e56565b6103f0610899366004615159565b6130a9565b6103f0613448565b6103f06108b4366004614fb9565b613478565b6103a96108c7366004615159565b613693565b6103f06108da3660046150ee565b613858565b6103f06108ed36600461519d565b613875565b6103a9613bf1565b6103f06109083660046150d6565b613c7c565b6103f061091b366004614ebb565b613d05565b61036b61092e366004614ebb565b613da9565b6103a960075481565b61036b61094a366004614ebb565b613db5565b60006001600160e01b03198216637965db0b60e01b148061098057506301ffc9a760e01b6001600160e01b03198316145b92915050565b6001600160a01b0381166000908152600d60209081526040918290208054835181840281018401909452808452606093928301828280156109e657602002820191906000526020600020905b8154815260200190600101908083116109d2575b50505050509050919050565b6000818152600f602052604081206002015461098090611aa1565b6000908152600f602052604090206002015490565b8180610a495760405162461bcd60e51b8152600401610a409061561f565b60405180910390fd5b8180610a675760405162461bcd60e51b8152600401610a409061561f565b60008481526010602052604090205415610ac35760405162461bcd60e51b815260206004820152601d60248201527f7468697320697320666f72206e6f6e2d6c6f636b2070726f647563742e0000006044820152606401610a40565b6000848152600f6020526040902080546001600160a01b03163314610afa5760405162461bcd60e51b8152600401610a4090615526565b42816003015410610b485760405162461bcd60e51b815260206004820152601860248201527732b732103a34b6b2903430b9903737ba103830b9b9b2b21760411b6044820152606401610a40565b8060020154841115610b935760405162461bcd60e51b81526020600482015260146024820152731b1d1bdcc81a5cc81a5b9cdd59999a58da595b9d60621b6044820152606401610a40565b610b9b6115eb565b6000610baa8260020154611dd4565b90506000610bb786611dd4565b905060008360010154831115610bd9576001840154610bd690846157a0565b90505b86846002016000828254610bed91906157a0565b925050819055508660076000828254610c0691906157a0565b909155505060018401548290610c1d908390615749565b610c2791906157a0565b60018501556008548290610c3c908390615749565b610c4691906157a0565b60085560048054604051632a97f1e560e21b81526001600160a01b039091169163aa5fc79491610c7a91339187910161530d565b600060405180830381600087803b158015610c9457600080fd5b505af1158015610ca8573d6000803e3d6000fd5b505050507f5ac7224c417abee0b26a4daa9b5221c45297a5429fc56e11bc9170dabc15d33c33838a604051610cdf939291906152b1565b60405180910390a15050505050505050565b60009081526011602052604090206001015490565b600061098060008051602061584c83398151915283611d56565b610d2933613db5565b610d455760405162461bcd60e51b8152600401610a409061564b565b826001600160a01b038116610d6c5760405162461bcd60e51b8152600401610a40906154f7565b826001600160a01b038116610d935760405162461bcd60e51b8152600401610a40906154f7565b826001600160a01b038116610dba5760405162461bcd60e51b8152600401610a40906154f7565b6002546001600160a01b038781169116141580610de557506003546001600160a01b03868116911614155b80610dfe57506004546001600160a01b03858116911614155b610e395760405162461bcd60e51b815260206004820152600c60248201526b73616d65206164647265737360a01b6044820152606401610a40565b5050600280546001600160a01b039586166001600160a01b03199182161790915560038054948616948216949094179093555060048054919093169116179055565b6005546001546000919042106110195760005460018054909190610e9f90426157a0565b1115610ecd57600054600154610eb590426157a0565b610ebf9190615761565b610eca906001615749565b90505b8060011415610f1057670de0b6b3a7640000600954670de0b6b3a7640000610ef59190615749565b610eff9084615781565b610f099190615761565b9150610fa0565b6005546009546040516379e42f5d60e11b815273__$23c3f0c4d39c3898c699ac978f80cfe781$__9263f3c85eba92610f4d928690600401615733565b60206040518083038186803b158015610f6557600080fd5b505af4158015610f79573d6000803e3d6000fd5b505050506040513d601f19601f82011682018060405250810190610f9d9190615141565b91505b6000610faa613bf1565b90506000670de0b6b3a764000060055485610fc591906157a0565b600754610fd29190615781565b610fdc9190615761565b90508181111561101557600554600754610ffe84670de0b6b3a7640000615781565b6110089190615761565b6110129190615749565b93505b5050505b919050565b808061103c5760405162461bcd60e51b8152600401610a409061561f565b6000828152600f6020526040902080546001600160a01b0316331461109b5760405162461bcd60e51b815260206004820152601560248201527431b0b63632b91034b9903737ba1039ba30b5b2b91760591b6044820152606401610a40565b428160030154106110e85760405162461bcd60e51b815260206004820152601760248201527632b732103a34b6b2903430b9b713ba103830b9b9b2b21760491b6044820152606401610a40565b6110f06115eb565b60006110ff8260020154611dd4565b9050600081116111495760405162461bcd60e51b81526020600482015260156024820152741e995c9bc818db185a5b58589b1948185b5bdd5b9d605a1b6044820152606401610a40565b81600101546008600082825461115f91906157a0565b909155505060028201546007805460009061117b9084906157a0565b909155506000905061118d3386613dcf565b90506111998582613f7a565b60008581526010602052604090205415611230576003546000868152601060205260409081902054905163c0a37b3f60e01b81526001600160a01b039092169163c0a37b3f916111ee9133919060040161530d565b600060405180830381600087803b15801561120857600080fd5b505af115801561121c573d6000803e3d6000fd5b505050600086815260106020526040812055505b60048054604051632a97f1e560e21b81526001600160a01b039091169163aa5fc7949161126191339187910161530d565b600060405180830381600087803b15801561127b57600080fd5b505af115801561128f573d6000803e3d6000fd5b505050507f7fc4727e062e336010f2c282598ef5f14facb3de68cf8195c2f23e1454b2b74e3383876040516112c6939291906152b1565b60405180910390a15050505050565b6112de82610cf1565b6112e88133613ffc565b6112f28383614060565b505050565b6004546000906001600160a01b0316634cf158586009336040518363ffffffff1660e01b815260040161132b92919061571c565b60206040518083038186803b15801561134357600080fd5b505afa158015611357573d6000803e3d6000fd5b505050506040513d601f19601f8201168201806040525081019061137b91906150b6565b6113975760405162461bcd60e51b8152600401610a4090615584565b600c80549060006113a7836157fa565b91905055905090565b6004546000906001600160a01b0316634cf158586009336040518363ffffffff1660e01b81526004016113e492919061571c565b60206040518083038186803b1580156113fc57600080fd5b505afa158015611410573d6000803e3d6000fd5b505050506040513d601f19601f8201168201806040525081019061143491906150b6565b6114505760405162461bcd60e51b8152600401610a4090615584565b846001600160a01b0381166114775760405162461bcd60e51b8152600401610a40906154f7565b84806114955760405162461bcd60e51b8152600401610a409061561f565b84806114b35760405162461bcd60e51b8152600401610a409061561f565b6114bc886140e6565b6114c461418c565b93506114d088856141a7565b6114d86115eb565b60006114f489868a600a54426114ee9190615749565b8b6141ea565b90507f10b677c7a9f17c8fa541bdcc53b14beb96651665c3ef380c8df860dbd8f3545e8989838a898b60405161152f96959493929190615326565b60405180910390a150505050949350505050565b6001600160a01b03811633146115b35760405162461bcd60e51b815260206004820152602f60248201527f416363657373436f6e74726f6c3a2063616e206f6e6c792072656e6f756e636560448201526e103937b632b9903337b91039b2b63360891b6064820152608401610a40565b6115bd82826142d4565b5050565b6115ca33613db5565b6115e65760405162461bcd60e51b8152600401610a409061564b565b600555565b60015442106117ee576000546001805490919061160890426157a0565b11156116365760005460015461161e90426157a0565b6116289190615761565b611633906001615749565b90505b600054611644908290615781565b60018054600090611656908490615749565b909155506000905060018214156116a457670de0b6b3a7640000600954670de0b6b3a76400006116869190615749565b6005546116939190615781565b61169d9190615761565b9050611734565b6005546009546040516379e42f5d60e11b815273__$23c3f0c4d39c3898c699ac978f80cfe781$__9263f3c85eba926116e1928790600401615733565b60206040518083038186803b1580156116f957600080fd5b505af415801561170d573d6000803e3d6000fd5b505050506040513d601f19601f820116820180604052508101906117319190615141565b90505b600061173e613bf1565b6005549091506000670de0b6b3a764000061175983866157a0565b6007546117669190615781565b6117709190615761565b9050828111156117a65760075461178f84670de0b6b3a7640000615781565b6117999190615761565b6117a39083615749565b93505b818411156117e85760058490556007546040517fd1a8a452d776b1b6802824ca2e8489c6448e2cb0963f552a9a19ab4ae064ca58916112c69185918891615733565b50505050505b565b6117f933613db5565b6118155760405162461bcd60e51b8152600401610a409061564b565b600955565b600d602052816000526040600020818154811061183657600080fd5b90600052602060002001600091509150505481565b6000611858600754611aa1565b905090565b61186633613db5565b6118825760405162461bcd60e51b8152600401610a409061564b565b6117ee60008051602061588c83398151915233611543565b60006118a4610e7b565b6118b683670de0b6b3a7640000615781565b6109809190615761565b6118c933613da9565b6118e55760405162461bcd60e51b8152600401610a409061546c565b6118fd60008051602061584c833981519152826112d5565b50565b6001600160a01b0381166000908152600d602090815260408083208054825181850281018501909352808352849383018282801561195d57602002820191906000526020600020905b815481526020019060010190808311611949575b505050505090508051600014156119775750600092915050565b60005b81518110156119cf576119b38282815181106119a657634e487b7160e01b600052603260045260246000fd5b6020026020010151610a0d565b6119bd9084615749565b92506119c8816157fa565b905061197a565b5050919050565b6119df33610d06565b806119ee57506119ee33613da9565b611a0a5760405162461bcd60e51b8152600401610a40906153f8565b6001600160a01b038116611a305760405162461bcd60e51b8152600401610a409061543a565b336001600160a01b0382161415611a595760405162461bcd60e51b8152600401610a4090615554565b611a7160008051602061584c833981519152826112d5565b6118fd60008051602061584c83398151915233611543565b6005546000906118b683670de0b6b3a7640000615781565b6000670de0b6b3a7640000611ab4610e7b565b6118b69084615781565b60008180611ade5760405162461bcd60e51b8152600401610a409061561f565b6000838152600f6020526040902060030154421115611b0757611b0083610a0d565b9150611b0c565b600091505b50919050565b611b1b33613da9565b611b375760405162461bcd60e51b8152600401610a409061546c565b6001600160a01b038116611b5d5760405162461bcd60e51b8152600401610a409061543a565b336001600160a01b0382161415611b865760405162461bcd60e51b8152600401610a4090615554565b611b916000826112d5565b6118fd600033611543565b8180611bba5760405162461bcd60e51b8152600401610a409061561f565b8180611bd85760405162461bcd60e51b8152600401610a409061561f565b6000848152600f6020526040902080546001600160a01b03163314611c0f5760405162461bcd60e51b8152600401610a4090615526565b336000908152600e60209081526040808320888452909152902054600114611c795760405162461bcd60e51b815260206004820152601f60248201527f69742773206e6f742073696d706c65207374616b696e672070726f64756374006044820152606401610a40565b611c816115eb565b6000611c8c85611a89565b905084826001016000828254611ca29190615749565b9250508190555080826002016000828254611cbd9190615749565b925050819055508460086000828254611cd69190615749565b925050819055508060076000828254611cef9190615749565b9091555050600454600254611d13916001600160a01b03918216913391168861433b565b7f3580fad54ac878fb39f354ed4980379c99975b958cc12f96c2342daf1a943384338688604051611d46939291906152b1565b60405180910390a1505050505050565b60009182526011602090815260408084206001600160a01b0393909316845291905290205460ff1690565b6000426000600101541015611d965750600090565b6001546118589042906157a0565b611dad33613da9565b611dc95760405162461bcd60e51b8152600401610a409061546c565b6118fd600082614456565b6000670de0b6b3a7640000600554836118b69190615781565b6004546000906001600160a01b0316634cf158586009336040518363ffffffff1660e01b8152600401611e2192919061571c565b60206040518083038186803b158015611e3957600080fd5b505afa158015611e4d573d6000803e3d6000fd5b505050506040513d601f19601f82011682018060405250810190611e7191906150b6565b611e8d5760405162461bcd60e51b8152600401610a4090615584565b856001600160a01b038116611eb45760405162461bcd60e51b8152600401610a40906154f7565b600086118015611ec45750600084115b8015611ed05750600085115b611eec5760405162461bcd60e51b8152600401610a4090615694565b6003546040516316045cb160e31b8152600091829173__$23c3f0c4d39c3898c699ac978f80cfe781$__9163b022e58891611f37916001600160a01b03169042908b906004016152b1565b604080518083038186803b158015611f4e57600080fd5b505af4158015611f62573d6000803e3d6000fd5b505050506040513d601f19601f82011682018060405250810190611f86919061517a565b9150915060008211611fcf5760405162461bcd60e51b81526020600482015260126024820152711e995c9bc81cdd1bdcd15c1bd8da155b9a5d60721b6044820152606401610a40565b600081116120115760405162461bcd60e51b815260206004820152600f60248201526e7a65726f20756e6c6f636b54696d6560881b6044820152606401610a40565b61201a896140e6565b61202261418c565b935061202e89856141a7565b6120366115eb565b60006120458a868b858c6141ea565b90506000806120568c8c8b88614460565b915091508160106000898152602001908152602001600020819055507fe3cd05b44cf9a64ec6c44b15776a7af54f595a214f12b62950054db4faeef15e8c8c858c8e8c888f896040516120f6999897969594939291906001600160a01b03999099168952602089019790975260408801959095526060870193909352608086019190915260a085015260c084015260e08301526101008201526101200190565b60405180910390a150505050505095945050505050565b600480546040805163688d653160e11b8152905160009384936001600160a01b03169263d11aca629281830192602092829003018186803b15801561215157600080fd5b505afa158015612165573d6000803e3d6000fd5b505050506040513d601f19601f820116820180604052508101906121899190615141565b90506000612198600754611aa1565b9050808210156121ab5760009250505090565b6121b581836157a0565b9250505090565b6121c533610d06565b806121d457506121d433613da9565b6121f05760405162461bcd60e51b8152600401610a40906153f8565b6117ee60008051602061584c83398151915233611543565b806122435760405162461bcd60e51b815260206004820152600b60248201526a6e6f207374616b6549647360a81b6044820152606401610a40565b8060005b818110156122905761227e84848381811061227257634e487b7160e01b600052603260045260246000fd5b9050602002013561101e565b80612288816157fa565b915050612247565b50505050565b600081806122b65760405162461bcd60e51b8152600401610a409061561f565b6004546002546122d5916001600160a01b03918216913391168661433b565b6122de336140e6565b336000908152600d602052604090208054600190811061230e57634e487b7160e01b600052603260045260246000fd5b906000526020600020015491506123236115eb565b61233b338385612334426001615749565b60006141ea565b507f1449c6dd7851abc30abf37f57715f492010519147cc2652fbc38202c18a6ee9033848460405161236f939291906152b1565b60405180910390a150919050565b600083118061238c5750600082115b806123975750600081115b6123b35760405162461bcd60e51b8152600401610a40906153d0565b600084815260106020908152604080832054600f835292819020815160a08101835281546001600160a01b03168082526001830154948201949094526002820154928101929092526003810154606083015260040154608082015290331461242d5760405162461bcd60e51b8152600401610a4090615526565b336000908152600e602090815260408083208984529091529020546001106124675760405162461bcd60e51b8152600401610a40906154b4565b61246f6115eb565b600061247e8260400151611dd4565b9050808511156124a05760405162461bcd60e51b8152600401610a40906155ea565b82156124bb576124b63388858560600151614653565b6124de565b428260600151106124de5760405162461bcd60e51b8152600401610a40906155b4565b851561250357600454600254612503916001600160a01b03918216913391168961433b565b60008085156125ab576003546040516316045cb160e31b815273__$23c3f0c4d39c3898c699ac978f80cfe781$__9163b022e58891612552916001600160a01b03169042908b906004016152b1565b604080518083038186803b15801561256957600080fd5b505af415801561257d573d6000803e3d6000fd5b505050506040513d601f19601f820116820180604052508101906125a1919061517a565b909250905061263b565b600360009054906101000a90046001600160a01b03166001600160a01b031663fd2dcecf6040518163ffffffff1660e01b815260040160206040518083038186803b1580156125f957600080fd5b505afa15801561260d573d6000803e3d6000fd5b505050506040513d601f19601f820116820180604052508101906126319190615141565b9150836060015190505b61264789828a8a614777565b6000808a881561268c5761265b8b87615749565b95506126678a876157a0565b955061267533878b88614460565b600083815260106020526040902082905590935091505b89156126f65760048054604051632a97f1e560e21b81526001600160a01b039091169163aa5fc794916126c39133918f910161530d565b600060405180830381600087803b1580156126dd57600080fd5b505af11580156126f1573d6000803e3d6000fd5b505050505b60008051602061586c833981519152338c8c8c85888860405161271f97969594939291906152d2565b60405180910390a1505050505050505050505050565b61273e33613da9565b61275a5760405162461bcd60e51b8152600401610a409061546c565b6118fd60008051602061588c833981519152826112d5565b82806127905760405162461bcd60e51b8152600401610a409061561f565b600083118061279f5750600082115b6127eb5760405162461bcd60e51b815260206004820152601d60248201527f7a65726f205f616d6f756e7420616e64205f756e6c6f636b5765656b730000006044820152606401610a40565b6000848152600f6020908152604091829020825160a08101845281546001600160a01b031680825260018301549382019390935260028201549381019390935260038101546060840152600401546080830152331461285c5760405162461bcd60e51b8152600401610a4090615526565b82156128dd57336000908152600e602090815260408083208884529091529020546001106128dd5760405162461bcd60e51b815260206004820152602860248201527f697427732073696d706c65207374616b696e672070726f647563742c2063616e60448201526713ba103637b1b59760c11b6064820152608401610a40565b6128e56115eb565b6128f1338686866149e5565b6003546040805163fd2dcecf60e01b815290516000926001600160a01b03169163fd2dcecf916004808301926020929190829003018186803b15801561293657600080fd5b505afa15801561294a573d6000803e3d6000fd5b505050506040513d601f19601f8201168201806040525081019061296e9190615141565b600087815260106020908152604080832054338452600e83528184208b85529092528220549293509160011080156129a4575081155b80156129b05750600086115b156129ef576129d6336129c56107958b610a0d565b6129cf908a615749565b8886614460565b60008a8152601060205260409020919091559050612e2f565b336000908152600e602090815260408083208b84529091529020546001108015612a195750600082115b15612e2f57600354604051639ce5630560e01b81526004810184905260009182916001600160a01b0390911690639ce563059060240160606040518083038186803b158015612a6757600080fd5b505afa158015612a7b573d6000803e3d6000fd5b505050506040513d601f19601f82011682018060405250810190612a9f91906151c8565b92509250504282118015612ab65750428660600151115b612ad25760405162461bcd60e51b8152600401610a40906156b8565b87612c0157600080546060880151612aeb9042906157a0565b612af59190615761565b6009546040516379e42f5d60e11b815291925060009173__$23c3f0c4d39c3898c699ac978f80cfe781$__9163f3c85eba91612b37918f918790600401615733565b60206040518083038186803b158015612b4f57600080fd5b505af4158015612b63573d6000803e3d6000fd5b505050506040513d601f19601f82011682018060405250810190612b879190615141565b9050612b938184615749565b60035460405163077f15b960e51b81529196506001600160a01b03169063efe2b72090612bc89033908a9086906004016152b1565b600060405180830381600087803b158015612be257600080fd5b505af1158015612bf6573d6000803e3d6000fd5b505050505050612e2c565b8715612e2c576000805481908190612c19898d615781565b612c239190615761565b6009546040516379e42f5d60e11b815291925073__$23c3f0c4d39c3898c699ac978f80cfe781$__9163f3c85eba91612c63918891908690600401615733565b60206040518083038186803b158015612c7b57600080fd5b505af4158015612c8f573d6000803e3d6000fd5b505050506040513d601f19601f82011682018060405250810190612cb39190615141565b9250612cbf84846157a0565b92508b15612d865760008054612cd58a8e615781565b612cdf42896157a0565b612ce99190615749565b612cf39190615761565b905073__$23c3f0c4d39c3898c699ac978f80cfe781$__63f3c85eba8e600954846040518463ffffffff1660e01b8152600401612d3293929190615733565b60206040518083038186803b158015612d4a57600080fd5b505af4158015612d5e573d6000803e3d6000fd5b505050506040513d601f19601f82011682018060405250810190612d829190615141565b9250505b81612d918486615749565b612d9b9190615749565b6003549096506001600160a01b031663b839c0a53389612dbb8688615749565b6040516001600160e01b031960e086901b1681526001600160a01b03909316600484015260248301919091526044820152606481018e9052608401600060405180830381600087803b158015612e1057600080fd5b505af1158015612e24573d6000803e3d6000fd5b505050505050505b50505b60008051602061582c8339815191523388888b8686604051610cdf96959493929190615326565b60008111612e765760405162461bcd60e51b8152600401610a4090615694565b6000828152600f6020526040902080546001600160a01b03163314612ead5760405162461bcd60e51b8152600401610a4090615526565b336000908152600e60209081526040808320868452909152902054600110612ee75760405162461bcd60e51b8152600401610a40906154b4565b612eef6115eb565b6000612efe8260020154611dd4565b905080831115612f205760405162461bcd60e51b8152600401610a40906155ea565b60008481526010602052604090205480612f5c5742836003015410612f575760405162461bcd60e51b8152600401610a40906155b4565b612f6c565b612f6c3386838660030154614653565b6000612f7785611a89565b905060008460010154841115612f99576001850154612f9690856157a0565b90505b81856002016000828254612fad91906157a0565b925050819055508160076000828254612fc691906157a0565b909155505060018501548690612fdd908390615749565b612fe791906157a0565b60018601556008548690612ffc908390615749565b61300691906157a0565b60085560048054604051632a97f1e560e21b81526001600160a01b039091169163aa5fc7949161303a9133918b910161530d565b600060405180830381600087803b15801561305457600080fd5b505af1158015613068573d6000803e3d6000fd5b5050505060008051602061586c8339815191523360008860008b60008060405161309897969594939291906152d2565b60405180910390a150505050505050565b81806130c75760405162461bcd60e51b8152600401610a409061561f565b81806130e55760405162461bcd60e51b8152600401610a409061561f565b6000848152600f6020526040902080546001600160a01b0316331461311c5760405162461bcd60e51b8152600401610a4090615526565b60045460025461313b916001600160a01b03918216913391168761433b565b6131436115eb565b600061314e85611a89565b9050848260010160008282546131649190615749565b925050819055508082600201600082825461317f9190615749565b9250508190555084600860008282546131989190615749565b9250508190555080600760008282546131b19190615749565b9091555050600086815260106020908152604080832054338452600e83528184208a855290925282205490919060011080156131ed5750600082115b1561342057600354604051639ce5630560e01b81526004810184905260009182916001600160a01b0390911690639ce563059060240160606040518083038186803b15801561323b57600080fd5b505afa15801561324f573d6000803e3d6000fd5b505050506040513d601f19601f8201168201806040525081019061327391906151c8565b9250925050428211801561328a5750428660030154115b6132a65760405162461bcd60e51b8152600401610a40906156b8565b6000805460038801546132ba9042906157a0565b6132c49190615761565b9050806001141561330957670de0b6b3a7640000600954670de0b6b3a76400006132ee9190615749565b6132f8908c615781565b6133029190615761565b93506133a1565b60018111156133a1576009546040516379e42f5d60e11b815273__$23c3f0c4d39c3898c699ac978f80cfe781$__9163f3c85eba9161334e918e918690600401615733565b60206040518083038186803b15801561336657600080fd5b505af415801561337a573d6000803e3d6000fd5b505050506040513d601f19601f8201168201806040525081019061339e9190615141565b93505b831561341c5760035460405163077f15b960e51b81526001600160a01b039091169063efe2b720906133db903390899089906004016152b1565b600060405180830381600087803b1580156133f557600080fd5b505af1158015613409573d6000803e3d6000fd5b5050505083826134199190615749565b93505b5050505b60008051602061582c833981519152338860008b8686604051610cdf96959493929190615326565b61345133613da9565b61346d5760405162461bcd60e51b8152600401610a409061546c565b6117ee600033611543565b61348133610d06565b80613490575061349033613da9565b6134ac5760405162461bcd60e51b8152600401610a40906153f8565b866134e75760405162461bcd60e51b815260206004820152600b60248201526a0f4cae4de40d8cadccee8d60ab1b6044820152606401610a40565b86851461352d5760405162461bcd60e51b81526020600482015260146024820152730eee4dedcce40c4c2d8c2dcc6ca40d8cadccee8d60631b6044820152606401610a40565b8683146135725760405162461bcd60e51b81526020600482015260136024820152720eee4dedcce40e0cae4d2dec840d8cadccee8d606b1b6044820152606401610a40565b8681146135b85760405162461bcd60e51b81526020600482015260146024820152730eee4dedcce40e8ded6cadc92c840d8cadccee8d60631b6044820152606401610a40565b60005b87811015613688576136758989838181106135e657634e487b7160e01b600052603260045260246000fd5b90506020020160208101906135fb9190614ebb565b88888481811061361b57634e487b7160e01b600052603260045260246000fd5b9050602002013587878581811061364257634e487b7160e01b600052603260045260246000fd5b9050602002013586868681811061366957634e487b7160e01b600052603260045260246000fd5b90506020020135614ab9565b5080613680816157fa565b9150506135bb565b505050505050505050565b600082806136b35760405162461bcd60e51b8152600401610a409061561f565b82806136d15760405162461bcd60e51b8152600401610a409061561f565b600954806136f15760405162461bcd60e51b8152600401610a409061561f565b6003546040516316045cb160e31b8152600091829173__$23c3f0c4d39c3898c699ac978f80cfe781$__9163b022e5889161373c916001600160a01b03169042908c906004016152b1565b604080518083038186803b15801561375357600080fd5b505af4158015613767573d6000803e3d6000fd5b505050506040513d601f19601f8201168201806040525081019061378b919061517a565b6004546002549294509092506137b0916001600160a01b03908116913391168b61433b565b6137b9336140e6565b6137c161418c565b95506137cd33876141a7565b6137d56115eb565b6137e333878a8460006141ea565b506000806137f3338b8b87614460565b60008a815260106020526040908190208390555191935091507ff46503b8d1f95e046084d2a40bac278932cd394b6ef745d41548422b8182af28906138439033908d908d908d9088908890615326565b60405180910390a15050505050505092915050565b61386182610cf1565b61386b8133613ffc565b6112f283836142d4565b60008211806138845750600081115b6138a05760405162461bcd60e51b8152600401610a40906153d0565b6000838152600f6020526040902080546001600160a01b031633146138d75760405162461bcd60e51b8152600401610a4090615526565b336000908152600e602090815260408083208784529091529020546001106139115760405162461bcd60e51b8152600401610a40906154b4565b600084815260106020526040902054801561393b576139363386838560030154614653565b61395e565b4282600301541061395e5760405162461bcd60e51b8152600401610a40906155b4565b831561398357600454600254613983916001600160a01b03918216913391168761433b565b6000808415613a2b576003546040516316045cb160e31b815273__$23c3f0c4d39c3898c699ac978f80cfe781$__9163b022e588916139d2916001600160a01b03169042908a906004016152b1565b604080518083038186803b1580156139e957600080fd5b505af41580156139fd573d6000803e3d6000fd5b505050506040513d601f19601f82011682018060405250810190613a21919061517a565b9092509050613abb565b600360009054906101000a90046001600160a01b03166001600160a01b031663fd2dcecf6040518163ffffffff1660e01b815260040160206040518083038186803b158015613a7957600080fd5b505afa158015613a8d573d6000803e3d6000fd5b505050506040513d601f19601f82011682018060405250810190613ab19190615141565b9150836003015490505b613ac36115eb565b6000613ad28560020154611dd4565b90506000613adf88611a89565b905060008660010154831115613b01576001870154613afe90846157a0565b90505b81876002016000828254613b159190615749565b90915550506003870184905560018701548190613b33908b90615749565b613b3d9190615749565b60018801556008548190613b52908b90615749565b613b5c9190615749565b6008819055508160076000828254613b749190615749565b9091555060009050808b8a15613bb057613b9933613b928e89615749565b8d8b614460565b600083815260106020526040902082905590935091505b60008051602061586c833981519152338d60008e858888604051613bda97969594939291906152d2565b60405180910390a150505050505050505050505050565b600480546040805163688d653160e11b8152905160009384936001600160a01b03169263d11aca629281830192602092829003018186803b158015613c3557600080fd5b505afa158015613c49573d6000803e3d6000fd5b505050506040513d601f19601f82011682018060405250810190613c6d9190615141565b90506000612198600754611dd4565b613c8533613db5565b613ca15760405162461bcd60e51b8152600401610a409061564b565b8080613cbf5760405162461bcd60e51b8152600401610a409061561f565b81600a541415613cff5760405162461bcd60e51b815260206004820152600b60248201526a1cd85b59481c195c9a5bd960aa1b6044820152606401610a40565b50600a55565b613d0e33613db5565b613d2a5760405162461bcd60e51b8152600401610a409061564b565b6001600160a01b038116613d505760405162461bcd60e51b8152600401610a409061543a565b336001600160a01b0382161415613d795760405162461bcd60e51b8152600401610a4090615554565b613d9160008051602061588c833981519152826112d5565b6118fd60008051602061588c83398151915233611543565b60006109808183611d56565b600061098060008051602061588c83398151915283611d56565b6001600160a01b0382166000908152600e60209081526040808320848452909152902054600181118015613e1a57506001600160a01b0383166000908152600d602052604090205481105b15610980576001600160a01b0383166000908152600d6020526040902054613e44906001906157a0565b811015613f13576001600160a01b0383166000908152600d602052604081208054613e71906001906157a0565b81548110613e8f57634e487b7160e01b600052603260045260246000fd5b9060005260206000200154905080600d6000866001600160a01b03166001600160a01b031681526020019081526020016000208381548110613ee157634e487b7160e01b600052603260045260246000fd5b60009182526020808320909101929092556001600160a01b0386168152600e8252604080822093825292909152208190555b6001600160a01b0383166000818152600e602090815260408083208684528252808320839055928252600d905220805480613f5e57634e487b7160e01b600052603160045260246000fd5b6001900381819060005260206000200160009055905592915050565b6001811115613fbb57506000908152600f6020526040812080546001600160a01b031916815560018101829055600281018290556003810182905560040155565b80600114156115bd57506000908152600f6020526040812080546001600160a01b031916815560018101829055600281018290556003810182905560040155565b6140068282611d56565b6115bd5761401e816001600160a01b03166014614b3e565b614029836020614b3e565b60405160200161403a929190615242565b60408051601f198184030181529082905262461bcd60e51b8252610a409160040161539d565b61406a8282611d56565b6115bd5760008281526011602090815260408083206001600160a01b03851684529091529020805460ff191660011790556140a23390565b6001600160a01b0316816001600160a01b0316837f2f8788117e7eff1d82e926ec794901d17c78024a50270940304540a733656f0d60405160405180910390a45050565b6001600160a01b0381166000908152600d60205260409020546118fd576001600160a01b0381166000908152600d602090815260408220805460018101825590835290822001819055600b80549161413d836157fa565b90915550506001600160a01b03166000818152600e60209081526040808320600b80548552908352818420600190819055948452600d8352908320905481549485018255908352912090910155565b6000600b6000815461419d906157fa565b9182905550919050565b6001600160a01b039091166000908152600d602081815260408084208054600e845282862087875284529185208290559282526001810183559183529091200155565b600060065460011461420e5760405162461bcd60e51b8152600401610a40906156ea565b6000600681905561421e85611a89565b6040805160a0810182526001600160a01b038a8116825260208083018a8152838501868152606085018b8152608086018b815260008f8152600f909552968420955186546001600160a01b0319169516949094178555905160018501555160028401559051600383015591516004909101556008805492935087929091906142a7908490615749565b9250508190555080600760008282546142c09190615749565b909155505060016006559695505050505050565b6142de8282611d56565b156115bd5760008281526011602090815260408083206001600160a01b0385168085529252808320805460ff1916905551339285917ff6391f5c32d9c69d2a47ea670b442974b53935d1edc7fd64eb21e047a839171b9190a45050565b604080516001600160a01b0385811660248301528481166044830152606480830185905283518084039091018152608490920183526020820180516001600160e01b03166323b872dd60e01b179052915160009283929088169161439f9190615226565b6000604051808303816000865af19150503d80600081146143dc576040519150601f19603f3d011682016040523d82523d6000602084013e6143e1565b606091505b509150915081801561440b57508051158061440b57508080602001905181019061440b91906150b6565b61444e5760405162461bcd60e51b81526020600482015260146024820152731514905394d1915497d19493d357d1905253115160621b6044820152606401610a40565b505050505050565b6115bd8282614060565b6000806006546001146144855760405162461bcd60e51b8152600401610a40906156ea565b60006006819055600954905473__$23c3f0c4d39c3898c699ac978f80cfe781$__9163f3c85eba918891906144ba888a615781565b6144c49190615761565b6040518463ffffffff1660e01b81526004016144e293929190615733565b60206040518083038186803b1580156144fa57600080fd5b505af415801561450e573d6000803e3d6000fd5b505050506040513d601f19601f820116820180604052508101906145329190615141565b90506000811161457d5760405162461bcd60e51b81526020600482015260166024820152751e995c9bc818dbdb5c1bdd5b99195908185b5bdd5b9d60521b6044820152606401610a40565b60035460405163036e72c360e21b81526001600160a01b0390911690630db9cb0c906145b1908990859089906004016152b1565b602060405180830381600087803b1580156145cb57600080fd5b505af11580156145df573d6000803e3d6000fd5b505050506040513d601f19601f820116820180604052508101906146039190615141565b9150600082116146435760405162461bcd60e51b815260206004820152600b60248201526a1e995c9bc81cdd1bdcd25960aa1b6044820152606401610a40565b6001600655909590945092505050565b600354604051639ce5630560e01b8152600481018490526000916001600160a01b031690639ce563059060240160606040518083038186803b15801561469857600080fd5b505afa1580156146ac573d6000803e3d6000fd5b505050506040513d601f19601f820116820180604052508101906146d091906151c8565b5091505042811080156146e257504282105b6146fe5760405162461bcd60e51b8152600401610a40906155b4565b60035460405163c0a37b3f60e01b81526001600160a01b039091169063c0a37b3f90614730908890879060040161530d565b600060405180830381600087803b15801561474a57600080fd5b505af115801561475e573d6000803e3d6000fd5b5050506000948552505060106020525050604081205550565b6006546001146147995760405162461bcd60e51b8152600401610a40906156ea565b60006006819055848152600f60205260409020821515806147ba5750600082115b806147c55750600084115b6148005760405162461bcd60e51b815260206004820152600c60248201526b7a65726f20416d6f756e747360a01b6044820152606401610a40565b60008160020154116148405760405162461bcd60e51b81526020600482015260096024820152687a65726f206c746f7360b81b6044820152606401610a40565b600061484f8260020154611dd4565b9050808311156148a05760405162461bcd60e51b815260206004820152601c60248201527b1cdd185ad948185b5bdd5b9d081a5cc81a5b9cdd59999a58da595b9d60221b6044820152606401610a40565b60008085156148b5576148b286611a89565b91505b84156148c7576148c485611a89565b90505b6003840187905560018401546000908411156148ef5760018501546148ec90856157a0565b90505b821561492857828560020160008282546149099190615749565b9250508190555082600760008282546149229190615749565b90915550505b8115614961578185600201600082825461494291906157a0565b92505081905550816007600082825461495b91906157a0565b90915550505b60008711806149705750600081115b8061497b5750600086115b156149d55785818887600101546149929190615749565b61499c9190615749565b6149a691906157a0565b6001860155600854869082906149bd908a90615749565b6149c79190615749565b6149d191906157a0565b6008555b5050600160065550505050505050565b8115614a0a57600454600254614a0a916001600160a01b03918216918791168561433b565b6000808215614aae576003546040516316045cb160e31b815273__$23c3f0c4d39c3898c699ac978f80cfe781$__9163b022e58891614a5a916001600160a01b03169060009088906004016152b1565b604080518083038186803b158015614a7157600080fd5b505af4158015614a85573d6000803e3d6000fd5b505050506040513d601f19601f82011682018060405250810190614aa9919061517a565b925090505b61444e858584614d26565b60008380614ad95760405162461bcd60e51b8152600401610a409061561f565b8380614af75760405162461bcd60e51b8152600401610a409061561f565b614b00876140e6565b614b0861418c565b9250614b1487846141a7565b614b228784888860006141ea565b5050506000818152601060205260409020919091559392505050565b60606000614b4d836002615781565b614b58906002615749565b6001600160401b03811115614b7d57634e487b7160e01b600052604160045260246000fd5b6040519080825280601f01601f191660200182016040528015614ba7576020820181803683370190505b509050600360fc1b81600081518110614bd057634e487b7160e01b600052603260045260246000fd5b60200101906001600160f81b031916908160001a905350600f60fb1b81600181518110614c0d57634e487b7160e01b600052603260045260246000fd5b60200101906001600160f81b031916908160001a9053506000614c31846002615781565b614c3c906001615749565b90505b6001811115614cd0576f181899199a1a9b1b9c1cb0b131b232b360811b85600f1660108110614c7e57634e487b7160e01b600052603260045260246000fd5b1a60f81b828281518110614ca257634e487b7160e01b600052603260045260246000fd5b60200101906001600160f81b031916908160001a90535060049490941c93614cc9816157e3565b9050614c3f565b508315614d1f5760405162461bcd60e51b815260206004820181905260248201527f537472696e67733a20686578206c656e67746820696e73756666696369656e746044820152606401610a40565b9392505050565b600654600114614d485760405162461bcd60e51b8152600401610a40906156ea565b600060065581151580614d5b5750600081115b614da75760405162461bcd60e51b815260206004820181905260248201527f7a65726f20616d6f756e7420616e64205f696e6372656173655365636f6e64736044820152606401610a40565b6000838152600f602052604090208215614e30576000614dc684611a89565b905083826001016000828254614ddc9190615749565b9250508190555080826002016000828254614df79190615749565b925050819055508360086000828254614e109190615749565b925050819055508060076000828254614e299190615749565b9091555050505b8115614e505781816003016000828254614e4a9190615749565b90915550505b505060016006555050565b80356001600160a01b038116811461101957600080fd5b60008083601f840112614e83578182fd5b5081356001600160401b03811115614e99578182fd5b6020830191508360208260051b8501011115614eb457600080fd5b9250929050565b600060208284031215614ecc578081fd5b614d1f82614e5b565b600080600060608486031215614ee9578182fd5b614ef284614e5b565b9250614f0060208501614e5b565b9150614f0e60408501614e5b565b90509250925092565b60008060408385031215614f29578182fd5b614f3283614e5b565b946020939093013593505050565b60008060008060808587031215614f55578081fd5b614f5e85614e5b565b966020860135965060408601359560600135945092505050565b600080600080600060a08688031215614f8f578081fd5b614f9886614e5b565b97602087013597506040870135966060810135965060800135945092505050565b6000806000806000806000806080898b031215614fd4578283fd5b88356001600160401b0380821115614fea578485fd5b614ff68c838d01614e72565b909a50985060208b013591508082111561500e578485fd5b61501a8c838d01614e72565b909850965060408b0135915080821115615032578485fd5b61503e8c838d01614e72565b909650945060608b0135915080821115615056578384fd5b506150638b828c01614e72565b999c989b5096995094979396929594505050565b60008060208385031215615089578182fd5b82356001600160401b0381111561509e578283fd5b6150aa85828601614e72565b90969095509350505050565b6000602082840312156150c7578081fd5b81518015158114614d1f578182fd5b6000602082840312156150e7578081fd5b5035919050565b60008060408385031215615100578182fd5b8235915061511060208401614e5b565b90509250929050565b60006020828403121561512a578081fd5b81356001600160e01b031981168114614d1f578182fd5b600060208284031215615152578081fd5b5051919050565b6000806040838503121561516b578081fd5b50508035926020909101359150565b6000806040838503121561518c578182fd5b505080516020909101519092909150565b6000806000606084860312156151b1578081fd5b505081359360208301359350604090920135919050565b6000806000606084860312156151dc578081fd5b8351925060208401519150604084015190509250925092565b6000806000806080858703121561520a578182fd5b5050823594602084013594506040840135936060013592509050565b600082516152388184602087016157b7565b9190910192915050565b76020b1b1b2b9b9a1b7b73a3937b61d1030b1b1b7bab73a1604d1b8152600083516152748160178501602088016157b7565b7001034b99036b4b9b9b4b733903937b6329607d1b60179184019182015283516152a58160288401602088016157b7565b01602801949350505050565b6001600160a01b039390931683526020830191909152604082015260600190565b6001600160a01b03979097168752602087019590955260408601939093526060850191909152608084015260a083015260c082015260e00190565b6001600160a01b03929092168252602082015260400190565b6001600160a01b03969096168652602086019490945260408501929092526060840152608083015260a082015260c00190565b6020808252825182820181905260009190848201906040850190845b8181101561539157835183529284019291840191600101615375565b50909695505050505050565b60208152600082518060208401526153bc8160408501602087016157b7565b601f01601f19169190910160400192915050565b6020808252600e908201526d185b1b081e995c9bc81a5b9c1d5d60921b604082015260600190565b60208082526022908201527f41636365737369626c653a2043616c6c6572206973206e6f7420616e2061646d60408201526134b760f11b606082015260800190565b60208082526018908201527741636365737369626c653a207a65726f206164647265737360401b604082015260600190565b60208082526028908201527f41636365737369626c653a2043616c6c6572206973206e6f7420616e2070726f6040820152673c3c9030b236b4b760c11b606082015260800190565b60208082526023908201527f69742773206e6f7420666f722073696d706c65207374616b65206f7220656d706040820152623a3c9760e91b606082015260800190565b6020808252601590820152745374616b696e673a207a65726f206164647265737360581b604082015260600190565b60208082526014908201527331b0b63632b91034b9903737ba1039ba30b5b2b960611b604082015260600190565b60208082526016908201527520b1b1b2b9b9b4b136329d1039b0b6b29030b236b4b760511b604082015260600190565b60208082526016908201527539b2b73232b91034b9903737ba1030903137b73232b960511b604082015260600190565b6020808252601c908201527b1b1bd8dac8195b99081d1a5b59481a185cc81b9bdd081c185cdcd95960221b604082015260600190565b6020808252601b908201527a1c995b585a5b9959151bdcc81a5cc81a5b9cdd59999a58da595b9d602a1b604082015260600190565b60208082526012908201527114dd185ada5b99ce881e995c9bc81d5a5b9d60721b604082015260600190565b60208082526029908201527f41636365737369626c653a2043616c6c6572206973206e6f7420616e20706f6c60408201526834b1bc9030b236b4b760b91b606082015260800190565b6020808252600a90820152691e995c9bc81a5b9c1d5d60b21b604082015260600190565b6020808252601890820152771b1bd8dac8195b99081d1a5b59481a185cc81c185cdcd95960421b604082015260600190565b6020808252601890820152774c6f636b496420697320616c726561647920696e2075736560401b604082015260600190565b9182526001600160a01b0316602082015260400190565b9283526020830191909152604082015260600190565b6000821982111561575c5761575c615815565b500190565b60008261577c57634e487b7160e01b81526012600452602481fd5b500490565b600081600019048311821515161561579b5761579b615815565b500290565b6000828210156157b2576157b2615815565b500390565b60005b838110156157d25781810151838201526020016157ba565b838111156122905750506000910152565b6000816157f2576157f2615815565b506000190190565b600060001982141561580e5761580e615815565b5060010190565b634e487b7160e01b600052601160045260246000fdfe4ed3cb428b71401f7eebc41b131a378b44ab9e704fc3fbd44909b1792ecb4ad052eafc11f6f81f86878bffd31109a0d92f37506527754f00788853ff9f63b130b96969612f881e3e16987f7cc8e53854fbdcd75a94b1f85e911129b7fe279b5cfb5864e8ff833c3cb2d2d08505e82ff02a43554c74a35d4f5a64e85261278311a26469706673582212202a17cb5e6bae9f2e3f1a6ae880c5d149acea2cff1c46805f7341386b81473a9d64736f6c63430008040033",
  "linkReferences": {
    "contracts/libraries/LibStaking.sol": {
      "LibStaking": [
        {
          "length": 20,
          "start": 3915
        },
        {
          "length": 20,
          "start": 5855
        },
        {
          "length": 20,
          "start": 7977
        },
        {
          "length": 20,
          "start": 9540
        },
        {
          "length": 20,
          "start": 11059
        },
        {
          "length": 20,
          "start": 11358
        },
        {
          "length": 20,
          "start": 11549
        },
        {
          "length": 20,
          "start": 13130
        },
        {
          "length": 20,
          "start": 14126
        },
        {
          "length": 20,
          "start": 14788
        },
        {
          "length": 20,
          "start": 17593
        },
        {
          "length": 20,
          "start": 19019
        }
      ]
    }
  },
  "deployedLinkReferences": {
    "contracts/libraries/LibStaking.sol": {
      "LibStaking": [
        {
          "length": 20,
          "start": 3877
        },
        {
          "length": 20,
          "start": 5817
        },
        {
          "length": 20,
          "start": 7939
        },
        {
          "length": 20,
          "start": 9502
        },
        {
          "length": 20,
          "start": 11021
        },
        {
          "length": 20,
          "start": 11320
        },
        {
          "length": 20,
          "start": 11511
        },
        {
          "length": 20,
          "start": 13092
        },
        {
          "length": 20,
          "start": 14088
        },
        {
          "length": 20,
          "start": 14750
        },
        {
          "length": 20,
          "start": 17555
        },
        {
          "length": 20,
          "start": 18981
        }
      ]
    }
  }
}