{
  "_format": "hh-sol-artifact-1",
  "contractName": "StakingV2",
  "sourceName": "contracts/StakingV2.sol",
  "abi": [
    {
      "inputs": [],
      "stateMutability": "nonpayable",
      "type": "constructor"
    },
    {
      "anonymous": false,
      "inputs": [
        {
          "indexed": true,
          "internalType": "bytes32",
          "name": "role",
          "type": "bytes32"
        },
        {
          "indexed": true,
          "internalType": "bytes32",
          "name": "previousAdminRole",
          "type": "bytes32"
        },
        {
          "indexed": true,
          "internalType": "bytes32",
          "name": "newAdminRole",
          "type": "bytes32"
        }
      ],
      "name": "RoleAdminChanged",
      "type": "event"
    },
    {
      "anonymous": false,
      "inputs": [
        {
          "indexed": true,
          "internalType": "bytes32",
          "name": "role",
          "type": "bytes32"
        },
        {
          "indexed": true,
          "internalType": "address",
          "name": "account",
          "type": "address"
        },
        {
          "indexed": true,
          "internalType": "address",
          "name": "sender",
          "type": "address"
        }
      ],
      "name": "RoleGranted",
      "type": "event"
    },
    {
      "anonymous": false,
      "inputs": [
        {
          "indexed": true,
          "internalType": "bytes32",
          "name": "role",
          "type": "bytes32"
        },
        {
          "indexed": true,
          "internalType": "address",
          "name": "account",
          "type": "address"
        },
        {
          "indexed": true,
          "internalType": "address",
          "name": "sender",
          "type": "address"
        }
      ],
      "name": "RoleRevoked",
      "type": "event"
    },
    {
      "anonymous": false,
      "inputs": [
        {
          "indexed": false,
          "internalType": "uint256",
          "name": "warmup",
          "type": "uint256"
        }
      ],
      "name": "WarmupSet",
      "type": "event"
    },
    {
      "inputs": [],
      "name": "ADMIN_ROLE",
      "outputs": [
        {
          "internalType": "bytes32",
          "name": "",
          "type": "bytes32"
        }
      ],
      "stateMutability": "view",
      "type": "function"
    },
    {
      "inputs": [],
      "name": "BURNER_ROLE",
      "outputs": [
        {
          "internalType": "bytes32",
          "name": "",
          "type": "bytes32"
        }
      ],
      "stateMutability": "view",
      "type": "function"
    },
    {
      "inputs": [],
      "name": "DEFAULT_ADMIN_ROLE",
      "outputs": [
        {
          "internalType": "bytes32",
          "name": "",
          "type": "bytes32"
        }
      ],
      "stateMutability": "view",
      "type": "function"
    },
    {
      "inputs": [],
      "name": "LTOSinterest",
      "outputs": [
        {
          "internalType": "uint256",
          "name": "",
          "type": "uint256"
        }
      ],
      "stateMutability": "view",
      "type": "function"
    },
    {
      "inputs": [],
      "name": "MINTER_ROLE",
      "outputs": [
        {
          "internalType": "bytes32",
          "name": "",
          "type": "bytes32"
        }
      ],
      "stateMutability": "view",
      "type": "function"
    },
    {
      "inputs": [],
      "name": "POLICY_ROLE",
      "outputs": [
        {
          "internalType": "bytes32",
          "name": "",
          "type": "bytes32"
        }
      ],
      "stateMutability": "view",
      "type": "function"
    },
    {
      "inputs": [],
      "name": "PROJECT_ADMIN_ROLE",
      "outputs": [
        {
          "internalType": "bytes32",
          "name": "",
          "type": "bytes32"
        }
      ],
      "stateMutability": "view",
      "type": "function"
    },
    {
      "inputs": [],
      "name": "TOS",
      "outputs": [
        {
          "internalType": "contract IERC20",
          "name": "",
          "type": "address"
        }
      ],
      "stateMutability": "view",
      "type": "function"
    },
    {
      "inputs": [
        {
          "internalType": "address",
          "name": "account",
          "type": "address"
        }
      ],
      "name": "addAdmin",
      "outputs": [],
      "stateMutability": "nonpayable",
      "type": "function"
    },
    {
      "inputs": [
        {
          "internalType": "address",
          "name": "_account",
          "type": "address"
        }
      ],
      "name": "addPolicy",
      "outputs": [],
      "stateMutability": "nonpayable",
      "type": "function"
    },
    {
      "inputs": [
        {
          "internalType": "address",
          "name": "_owner",
          "type": "address"
        }
      ],
      "name": "addProxyAdmin",
      "outputs": [],
      "stateMutability": "nonpayable",
      "type": "function"
    },
    {
      "inputs": [
        {
          "internalType": "uint256",
          "name": "",
          "type": "uint256"
        }
      ],
      "name": "allStakings",
      "outputs": [
        {
          "internalType": "uint256",
          "name": "deposit",
          "type": "uint256"
        },
        {
          "internalType": "uint256",
          "name": "LTOS",
          "type": "uint256"
        },
        {
          "internalType": "uint256",
          "name": "startTime",
          "type": "uint256"
        },
        {
          "internalType": "uint256",
          "name": "endTime",
          "type": "uint256"
        },
        {
          "internalType": "uint256",
          "name": "getLTOS",
          "type": "uint256"
        },
        {
          "internalType": "uint256",
          "name": "rewardTOS",
          "type": "uint256"
        }
      ],
      "stateMutability": "view",
      "type": "function"
    },
    {
      "inputs": [
        {
          "internalType": "address",
          "name": "_addr",
          "type": "address"
        }
      ],
      "name": "balanceOf",
      "outputs": [
        {
          "internalType": "uint256",
          "name": "balance",
          "type": "uint256"
        }
      ],
      "stateMutability": "view",
      "type": "function"
    },
    {
      "inputs": [
        {
          "internalType": "uint256",
          "name": "_stakeId",
          "type": "uint256"
        }
      ],
      "name": "balanceOfId",
      "outputs": [
        {
          "internalType": "uint256",
          "name": "",
          "type": "uint256"
        }
      ],
      "stateMutability": "view",
      "type": "function"
    },
    {
      "inputs": [],
      "name": "circulatingSupply",
      "outputs": [
        {
          "internalType": "uint256",
          "name": "",
          "type": "uint256"
        }
      ],
      "stateMutability": "view",
      "type": "function"
    },
    {
      "inputs": [
        {
          "internalType": "uint256",
          "name": "",
          "type": "uint256"
        }
      ],
      "name": "connectId",
      "outputs": [
        {
          "internalType": "uint256",
          "name": "",
          "type": "uint256"
        }
      ],
      "stateMutability": "view",
      "type": "function"
    },
    {
      "inputs": [],
      "name": "epoch",
      "outputs": [
        {
          "internalType": "uint256",
          "name": "length_",
          "type": "uint256"
        },
        {
          "internalType": "uint256",
          "name": "number",
          "type": "uint256"
        },
        {
          "internalType": "uint256",
          "name": "end",
          "type": "uint256"
        }
      ],
      "stateMutability": "view",
      "type": "function"
    },
    {
      "inputs": [],
      "name": "epochUnit",
      "outputs": [
        {
          "internalType": "uint256",
          "name": "",
          "type": "uint256"
        }
      ],
      "stateMutability": "view",
      "type": "function"
    },
    {
      "inputs": [
        {
          "internalType": "bytes32",
          "name": "role",
          "type": "bytes32"
        }
      ],
      "name": "getRoleAdmin",
      "outputs": [
        {
          "internalType": "bytes32",
          "name": "",
          "type": "bytes32"
        }
      ],
      "stateMutability": "view",
      "type": "function"
    },
    {
      "inputs": [
        {
          "internalType": "bytes32",
          "name": "role",
          "type": "bytes32"
        },
        {
          "internalType": "address",
          "name": "account",
          "type": "address"
        }
      ],
      "name": "grantRole",
      "outputs": [],
      "stateMutability": "nonpayable",
      "type": "function"
    },
    {
      "inputs": [
        {
          "internalType": "bytes32",
          "name": "role",
          "type": "bytes32"
        },
        {
          "internalType": "address",
          "name": "account",
          "type": "address"
        }
      ],
      "name": "hasRole",
      "outputs": [
        {
          "internalType": "bool",
          "name": "",
          "type": "bool"
        }
      ],
      "stateMutability": "view",
      "type": "function"
    },
    {
      "inputs": [],
      "name": "index_",
      "outputs": [
        {
          "internalType": "uint256",
          "name": "",
          "type": "uint256"
        }
      ],
      "stateMutability": "view",
      "type": "function"
    },
    {
      "inputs": [
        {
          "internalType": "address",
          "name": "account",
          "type": "address"
        }
      ],
      "name": "isAdmin",
      "outputs": [
        {
          "internalType": "bool",
          "name": "",
          "type": "bool"
        }
      ],
      "stateMutability": "view",
      "type": "function"
    },
    {
      "inputs": [
        {
          "internalType": "address",
          "name": "account",
          "type": "address"
        }
      ],
      "name": "isPolicy",
      "outputs": [
        {
          "internalType": "bool",
          "name": "",
          "type": "bool"
        }
      ],
      "stateMutability": "view",
      "type": "function"
    },
    {
      "inputs": [
        {
          "internalType": "address",
          "name": "account",
          "type": "address"
        }
      ],
      "name": "isProxyAdmin",
      "outputs": [
        {
          "internalType": "bool",
          "name": "",
          "type": "bool"
        }
      ],
      "stateMutability": "view",
      "type": "function"
    },
    {
      "inputs": [],
      "name": "lockTOS",
      "outputs": [
        {
          "internalType": "contract ILockTOSv2Action0",
          "name": "",
          "type": "address"
        }
      ],
      "stateMutability": "view",
      "type": "function"
    },
    {
      "inputs": [],
      "name": "nextIndex",
      "outputs": [
        {
          "internalType": "uint256",
          "name": "",
          "type": "uint256"
        }
      ],
      "stateMutability": "view",
      "type": "function"
    },
    {
      "inputs": [],
      "name": "nextLTOSinterest",
      "outputs": [
        {
          "internalType": "uint256",
          "name": "",
          "type": "uint256"
        }
      ],
      "stateMutability": "view",
      "type": "function"
    },
    {
      "inputs": [],
      "name": "rebaseIndex",
      "outputs": [],
      "stateMutability": "nonpayable",
      "type": "function"
    },
    {
      "inputs": [],
      "name": "rebasePerEpoch",
      "outputs": [
        {
          "internalType": "uint256",
          "name": "",
          "type": "uint256"
        }
      ],
      "stateMutability": "view",
      "type": "function"
    },
    {
      "inputs": [],
      "name": "removeAdmin",
      "outputs": [],
      "stateMutability": "nonpayable",
      "type": "function"
    },
    {
      "inputs": [],
      "name": "removePolicy",
      "outputs": [],
      "stateMutability": "nonpayable",
      "type": "function"
    },
    {
      "inputs": [],
      "name": "removeProxyAdmin",
      "outputs": [],
      "stateMutability": "nonpayable",
      "type": "function"
    },
    {
      "inputs": [
        {
          "internalType": "bytes32",
          "name": "role",
          "type": "bytes32"
        },
        {
          "internalType": "address",
          "name": "account",
          "type": "address"
        }
      ],
      "name": "renounceRole",
      "outputs": [],
      "stateMutability": "nonpayable",
      "type": "function"
    },
    {
      "inputs": [
        {
          "internalType": "bytes32",
          "name": "role",
          "type": "bytes32"
        },
        {
          "internalType": "address",
          "name": "account",
          "type": "address"
        }
      ],
      "name": "revokeRole",
      "outputs": [],
      "stateMutability": "nonpayable",
      "type": "function"
    },
    {
      "inputs": [],
      "name": "secondsToNextEpoch",
      "outputs": [
        {
          "internalType": "uint256",
          "name": "",
          "type": "uint256"
        }
      ],
      "stateMutability": "view",
      "type": "function"
    },
    {
      "inputs": [
        {
          "internalType": "uint256",
          "name": "_rebasePerEpoch",
          "type": "uint256"
        }
      ],
      "name": "setRebasePerepoch",
      "outputs": [],
      "stateMutability": "nonpayable",
      "type": "function"
    },
    {
      "inputs": [
        {
          "internalType": "uint256",
          "name": "_index",
          "type": "uint256"
        }
      ],
      "name": "setindex",
      "outputs": [],
      "stateMutability": "nonpayable",
      "type": "function"
    },
    {
      "inputs": [
        {
          "internalType": "address",
          "name": "_to",
          "type": "address"
        },
        {
          "internalType": "uint256",
          "name": "_amount",
          "type": "uint256"
        },
        {
          "internalType": "uint256",
          "name": "_periodWeeks",
          "type": "uint256"
        },
        {
          "internalType": "uint256",
          "name": "_exist",
          "type": "uint256"
        },
        {
          "internalType": "bool",
          "name": "_lockTOS",
          "type": "bool"
        }
      ],
      "name": "stake",
      "outputs": [
        {
          "internalType": "uint256",
          "name": "stakeId",
          "type": "uint256"
        }
      ],
      "stateMutability": "nonpayable",
      "type": "function"
    },
    {
      "inputs": [
        {
          "internalType": "address",
          "name": "_addr",
          "type": "address"
        }
      ],
      "name": "stakinOf",
      "outputs": [
        {
          "internalType": "uint256[]",
          "name": "",
          "type": "uint256[]"
        }
      ],
      "stateMutability": "view",
      "type": "function"
    },
    {
      "inputs": [
        {
          "internalType": "address",
          "name": "",
          "type": "address"
        },
        {
          "internalType": "uint256",
          "name": "",
          "type": "uint256"
        }
      ],
      "name": "stakingBalances",
      "outputs": [
        {
          "internalType": "uint256",
          "name": "deposit",
          "type": "uint256"
        },
        {
          "internalType": "uint256",
          "name": "LTOS",
          "type": "uint256"
        },
        {
          "internalType": "uint256",
          "name": "startTime",
          "type": "uint256"
        },
        {
          "internalType": "uint256",
          "name": "endTime",
          "type": "uint256"
        },
        {
          "internalType": "uint256",
          "name": "getLTOS",
          "type": "uint256"
        },
        {
          "internalType": "uint256",
          "name": "rewardTOS",
          "type": "uint256"
        }
      ],
      "stateMutability": "view",
      "type": "function"
    },
    {
      "inputs": [],
      "name": "stakingIdCounter",
      "outputs": [
        {
          "internalType": "uint256",
          "name": "",
          "type": "uint256"
        }
      ],
      "stateMutability": "view",
      "type": "function"
    },
    {
      "inputs": [
        {
          "internalType": "bytes4",
          "name": "interfaceId",
          "type": "bytes4"
        }
      ],
      "name": "supportsInterface",
      "outputs": [
        {
          "internalType": "bool",
          "name": "",
          "type": "bool"
        }
      ],
      "stateMutability": "view",
      "type": "function"
    },
    {
      "inputs": [
        {
          "internalType": "address[]",
          "name": "accounts",
          "type": "address[]"
        },
        {
          "internalType": "uint256[]",
          "name": "balances",
          "type": "uint256[]"
        },
        {
          "internalType": "uint256[]",
          "name": "period",
          "type": "uint256[]"
        },
        {
          "internalType": "uint256[]",
          "name": "tokenId",
          "type": "uint256[]"
        }
      ],
      "name": "syncSTOS",
      "outputs": [
        {
          "internalType": "bool",
          "name": "",
          "type": "bool"
        }
      ],
      "stateMutability": "nonpayable",
      "type": "function"
    },
    {
      "inputs": [],
      "name": "totalLTOS",
      "outputs": [
        {
          "internalType": "uint256",
          "name": "",
          "type": "uint256"
        }
      ],
      "stateMutability": "view",
      "type": "function"
    },
    {
      "inputs": [],
      "name": "totaldeposit",
      "outputs": [
        {
          "internalType": "uint256",
          "name": "",
          "type": "uint256"
        }
      ],
      "stateMutability": "view",
      "type": "function"
    },
    {
      "inputs": [
        {
          "internalType": "address",
          "name": "newAdmin",
          "type": "address"
        }
      ],
      "name": "transferAdmin",
      "outputs": [],
      "stateMutability": "nonpayable",
      "type": "function"
    },
    {
      "inputs": [
        {
          "internalType": "address",
          "name": "newAdmin",
          "type": "address"
        }
      ],
      "name": "transferPolicyAdmin",
      "outputs": [],
      "stateMutability": "nonpayable",
      "type": "function"
    },
    {
      "inputs": [
        {
          "internalType": "address",
          "name": "newAdmin",
          "type": "address"
        }
      ],
      "name": "transferProxyAdmin",
      "outputs": [],
      "stateMutability": "nonpayable",
      "type": "function"
    },
    {
      "inputs": [],
      "name": "treasury",
      "outputs": [
        {
          "internalType": "contract ITreasury",
          "name": "",
          "type": "address"
        }
      ],
      "stateMutability": "view",
      "type": "function"
    },
    {
      "inputs": [
        {
          "internalType": "address",
          "name": "_to",
          "type": "address"
        },
        {
          "internalType": "uint256",
          "name": "_stakeId",
          "type": "uint256"
        },
        {
          "internalType": "uint256",
          "name": "_amount",
          "type": "uint256"
        }
      ],
      "name": "unstake",
      "outputs": [
        {
          "internalType": "uint256",
          "name": "amount_",
          "type": "uint256"
        }
      ],
      "stateMutability": "nonpayable",
      "type": "function"
    },
    {
      "inputs": [
        {
          "internalType": "address",
          "name": "",
          "type": "address"
        },
        {
          "internalType": "uint256",
          "name": "",
          "type": "uint256"
        }
      ],
      "name": "userStakings",
      "outputs": [
        {
          "internalType": "uint256",
          "name": "",
          "type": "uint256"
        }
      ],
      "stateMutability": "view",
      "type": "function"
    }
  ],
  "bytecode": "0x6080604052600160085534801561001557600080fd5b5061286f806100256000396000f3fe608060405234801561001057600080fd5b50600436106102cc5760003560e01c80638356ca4f1161017d578063b84ef081116100d9578063f1c8c92211610092578063f1c8c922146106f7578063f47f2f1d1461070a578063f86464081461071d578063fa6efb9914610730578063fad1c85c14610738578063fc7e9c6f1461074b578063fd2dcecf1461075357600080fd5b8063b84ef08114610686578063be72f2d314610699578063c8cdd742146106a1578063d5391393146106b4578063d547741f146106db578063df160b3f146106ee57600080fd5b806396f1557c1161013657806396f1557c1461060a5780639a202d471461061d5780639e706e32146106255780639e9e792f14610638578063a1c95e5a14610658578063a217fddf1461066b578063a2bc66be1461067357600080fd5b80638356ca4f14610587578063861831601461059a578063900cf0cf146105ba57806391d14854146105e75780639358928b146105fa5780639483c1d71461060257600080fd5b806356b316d61161022c57806365cb3a83116101e557806365cb3a8314610503578063704802751461050b57806370a082311461051e57806375829def1461053157806375b238fc1461054457806378ad14051461056b57806379a34c791461057457600080fd5b806356b316d61461040d5780635720bf3a146104885780635746248f146104915780635bdce25f146104a45780635dc3c29a146104ad57806361d027b3146104f057600080fd5b8063282c51f311610289578063282c51f3146103635780632f2ff15d1461038a57806336568abe1461039f57806341c04d5e146103b2578063435c2768146103c757806347e1b372146103da5780634e6c4466146103e257600080fd5b806301ffc9a7146102d15780630e1e998f146102f957806317e85bff146103105780632298524614610318578063248a9ca31461032d57806324d7806c14610350575b600080fd5b6102e46102df3660046123d5565b61075c565b60405190151581526020015b60405180910390f35b610302600c5481565b6040519081526020016102f0565b610302610793565b61030260008051602061281a83398151915281565b61030261033b366004612392565b60009081526011602052604090206001015490565b6102e461035e3660046121a6565b6107ca565b6103027f9667e80708b6eeeb0053fa0cca44e028ff548e2a9f029edfeac87c118b08b7c881565b61039d6103983660046123aa565b6107e4565b005b61039d6103ad3660046123aa565b61080f565b6103026000805160206127fa83398151915281565b6103026103d536600461221b565b610892565b61039d610b0d565b6001546103f5906001600160a01b031681565b6040516001600160a01b0390911681526020016102f0565b61045b61041b3660046121c0565b600f602090815260009283526040808420909152908252902080546001820154600283015460038401546004850154600590950154939492939192909186565b604080519687526020870195909552938501929092526060840152608083015260a082015260c0016102f0565b610302600b5481565b61030261049f3660046121c0565b610c36565b61030260095481565b61045b6104bb366004612392565b600e60205260009081526040902080546001820154600283015460038401546004850154600590950154939492939192909186565b6002546103f5906001600160a01b031681565b61039d610c67565b61039d6105193660046121a6565b610ca4565b61030261052c3660046121a6565b610ce4565b61039d61053f3660046121a6565b610dba565b6103027fdf8b4c520ffe197c5343c6f5aec59570151ef9a492f2c624fd45ddde6135ec4281565b61030260075481565b6102e461058236600461226e565b610e6d565b61039d6105953660046121a6565b611051565b6105ad6105a83660046121a6565b6110db565b6040516102f091906124ee565b6003546004546005546105cc92919083565b604080519384526020840192909252908201526060016102f0565b6102e46105f53660046123aa565b611147565b610302611172565b61030261120d565b61039d6106183660046121a6565b61121d565b61039d61124d565b61039d610633366004612392565b611299565b610302610646366004612392565b60106020526000908152604090205481565b610302610666366004612392565b6112c3565b610302600081565b6103026106813660046121e9565b61132b565b61039d6106943660046121a6565b6115db565b61039d611618565b61039d6106af366004612392565b611648565b6103027ff0887ba65ee2024ea881d91b74c2450ef19e1557f03bed3ea9f16b037cbe2dc981565b61039d6106e93660046123aa565b611672565b610302600a5481565b61039d6107053660046121a6565b611698565b6102e46107183660046121a6565b61173c565b6000546103f5906001600160a01b031681565b610302611748565b6102e46107463660046121a6565b61176b565b610302611785565b61030260065481565b60006001600160e01b03198216637965db0b60e01b148061078d57506301ffc9a760e01b6001600160e01b03198316145b92915050565b6000600954670de0b6b3a7640000600754600a546107b19190612727565b6107bb9190612707565b6107c59190612746565b905090565b600061078d6000805160206127fa83398151915283611147565b60008281526011602052604090206001015461080081336117be565b61080a8383611822565b505050565b6001600160a01b03811633146108845760405162461bcd60e51b815260206004820152602f60248201527f416363657373436f6e74726f6c3a2063616e206f6e6c792072656e6f756e636560448201526e103937b632b9903337b91039b2b63360891b60648201526084015b60405180910390fd5b61088e82826118a8565b5050565b60008085116108df5760405162461bcd60e51b8152602060048201526019602482015278616d6f756e742073686f756c64206265206e6f6e2d7a65726f60381b604482015260640161087b565b6000546108f7906001600160a01b031633308861190f565b600061091861091160065487611a2a90919063ffffffff16565b4290611aa9565b90508315610a0757600154604051634cf5fbf560e01b81526001600160a01b0390911690634cf5fbf590610954908a9088908b906004016124cd565b600060405180830381600087803b15801561096e57600080fd5b505af1158015610982573d6000803e3d6000fd5b5050600154604051639ce5630560e01b8152600481018890526001600160a01b039091169250639ce56305915060240160606040518083038186803b1580156109ca57600080fd5b505afa1580156109de573d6000803e3d6000fd5b505050506040513d601f19601f82011682018060405250810190610a029190612415565b509150505b600c54610a159060016126ef565b600c8190556001600160a01b0388166000908152600d60209081526040822080546001810182559083529120018190559150610a5387838884611b08565b610a5b610b0d565b600060018415151415610b025760015460405163036e72c360e21b81526001600160a01b0390911690630db9cb0c90610a9c908b908b908b906004016124cd565b602060405180830381600087803b158015610ab657600080fd5b505af1158015610aca573d6000803e3d6000fd5b505050506040513d601f19601f82011682018060405250810190610aee91906123fd565b600084815260106020526040902081905590505b505095945050505050565b6005544210610c345760035460055460009190610b2a9042612746565b610b349190612707565b9050610b418160016126ef565b600354610b4e9190612727565b600554610b5b91906126ef565b600555600454610b6c9082906126ef565b60045560005b610b7d8260016126ef565b81101561088e57610b8c611748565b600260009054906101000a90046001600160a01b03166001600160a01b031663d11aca626040518163ffffffff1660e01b815260040160206040518083038186803b158015610bda57600080fd5b505afa158015610bee573d6000803e3d6000fd5b505050506040513d601f19601f82011682018060405250810190610c1291906123fd565b1115610c2257610c20611d64565b505b80610c2c816127a4565b915050610b72565b565b600d6020528160005260406000208181548110610c5257600080fd5b90600052602060002001600091509150505481565b610c703361176b565b610c8c5760405162461bcd60e51b815260040161087b90612651565b610c3460008051602061281a8339815191523361080f565b610cad3361173c565b610cc95760405162461bcd60e51b815260040161087b906125d9565b610ce16000805160206127fa833981519152826107e4565b50565b6001600160a01b0381166000908152600d6020908152604080832080548251818502810185019093528083528493830182828015610d4157602002820191906000526020600020905b815481526020019060010190808311610d2d575b50505050509050805160001415610d5b5750600092915050565b60005b8151811015610db357610d97828281518110610d8a57634e487b7160e01b600052603260045260246000fd5b60200260200101516112c3565b610da190846126ef565b9250610dac816127a4565b9050610d5e565b5050919050565b610dc3336107ca565b80610dd25750610dd23361173c565b610dee5760405162461bcd60e51b815260040161087b90612565565b6001600160a01b038116610e145760405162461bcd60e51b815260040161087b906125a7565b336001600160a01b0382161415610e3d5760405162461bcd60e51b815260040161087b90612621565b610e556000805160206127fa833981519152826107e4565b610ce16000805160206127fa8339815191523361080f565b6000610e78336107ca565b80610e875750610e873361173c565b610ea35760405162461bcd60e51b815260040161087b90612565565b8351855114610eee5760405162461bcd60e51b815260206004820152601760248201527609cde40c4c2d8c2dcc6cae640e6c2daca40d8cadccee8d604b1b604482015260640161087b565b6000805b865181101561104457600c54610f099060016126ef565b600c81905550600c549150600d6000888381518110610f3857634e487b7160e01b600052603260045260246000fd5b6020908102919091018101516001600160a01b031682528181019290925260400160009081208054600181018255908252919020018290558351849082908110610f9257634e487b7160e01b600052603260045260246000fd5b60200260200101516010600084815260200190815260200160002081905550611032878281518110610fd457634e487b7160e01b600052603260045260246000fd5b602002602001015183888481518110610ffd57634e487b7160e01b600052603260045260246000fd5b602002602001015188858151811061102557634e487b7160e01b600052603260045260246000fd5b6020026020010151611b08565b8061103c816127a4565b915050610ef2565b5060019695505050505050565b61105a3361173c565b6110765760405162461bcd60e51b815260040161087b906125d9565b6001600160a01b03811661109c5760405162461bcd60e51b815260040161087b906125a7565b336001600160a01b03821614156110c55760405162461bcd60e51b815260040161087b90612621565b6110d06000826107e4565b610ce160003361080f565b6001600160a01b0381166000908152600d602090815260409182902080548351818402810184019094528084526060939283018282801561113b57602002820191906000526020600020905b815481526020019060010190808311611127575b50505050509050919050565b60009182526011602090815260408084206001600160a01b0393909316845291905290205460ff1690565b60008061117d610793565b600260009054906101000a90046001600160a01b03166001600160a01b031663d11aca626040518163ffffffff1660e01b815260040160206040518083038186803b1580156111cb57600080fd5b505afa1580156111df573d6000803e3d6000fd5b505050506040513d601f19601f8201168201806040525081019061120391906123fd565b61078d9190612746565b6005546000906107c59042611da6565b6112263361173c565b6112425760405162461bcd60e51b815260040161087b906125d9565b610ce1600082611de8565b611256336107ca565b8061126557506112653361173c565b6112815760405162461bcd60e51b815260040161087b90612565565b610c346000805160206127fa8339815191523361080f565b6112a23361176b565b6112be5760405162461bcd60e51b815260040161087b90612651565b600755565b6000818152600e60209081526040808320815160c0810183528154815260018201549381018490526002820154928101929092526003810154606083015260048101546080830181905260059091015460a083015290916113249190612746565b9392505050565b6001600160a01b0383166000908152600f602090815260408083208584529091528120600381015442116113965760405162461bcd60e51b81526020600482015260126024820152711b995959081d1a1948195b9914195c9a5bd960721b604482015260640161087b565b6000816004015482600101546113ac9190612746565b9050838110156113f55760405162461bcd60e51b81526020600482015260146024820152731b1858dac81d1a1948131513d4c8185b5bdd5b9d60621b604482015260640161087b565b670de0b6b3a76400006007548561140c9190612727565b6114169190612707565b8254909350831115611455576002548254611455916001600160a01b03169030906114419087612746565b6000546001600160a01b031692919061190f565b60015460405163c0a37b3f60e01b81526001600160a01b038881166004830152602482018890529091169063c0a37b3f90604401600060405180830381600087803b1580156114a357600080fd5b505af11580156114b7573d6000803e3d6000fd5b505050508382600401546114cb91906126ef565b600483015560058201546114e09084906126ef565b60058301556000546040516370a0823160e01b81523060048201526001600160a01b03909116906370a082319060240160206040518083038186803b15801561152857600080fd5b505afa15801561153c573d6000803e3d6000fd5b505050506040513d601f19601f8201168201806040525081019061156091906123fd565b8311156115bb5760405162461bcd60e51b8152602060048201526024808201527f496e73756666696369656e7420544f532062616c616e636520696e20636f6e746044820152631c9858dd60e21b606482015260840161087b565b6000546115d2906001600160a01b03168785611df2565b50509392505050565b6115e43361173c565b6116005760405162461bcd60e51b815260040161087b906125d9565b610ce160008051602061281a83398151915282611de8565b6116213361173c565b61163d5760405162461bcd60e51b815260040161087b906125d9565b610c3460003361080f565b6116513361176b565b61166d5760405162461bcd60e51b815260040161087b90612651565b600b55565b60008281526011602052604090206001015461168e81336117be565b61080a83836118a8565b6116a13361176b565b6116bd5760405162461bcd60e51b815260040161087b90612651565b6001600160a01b0381166116e35760405162461bcd60e51b815260040161087b906125a7565b336001600160a01b038216141561170c5760405162461bcd60e51b815260040161087b90612621565b61172460008051602061281a833981519152826107e4565b610ce160008051602061281a8339815191523361080f565b600061078d8183611147565b6000600954670de0b6b3a764000061175e611785565b600a546107b19190612727565b600061078d60008051602061281a83398151915283611147565b600080670de0b6b3a7640000600b54670de0b6b3a76400006117a791906126ef565b6007546117b49190612727565b61078d9190612707565b6117c88282611147565b61088e576117e0816001600160a01b03166014611eff565b6117eb836020611eff565b6040516020016117fc92919061245e565b60408051601f198184030181529082905262461bcd60e51b825261087b91600401612532565b61182c8282611147565b61088e5760008281526011602090815260408083206001600160a01b03851684529091529020805460ff191660011790556118643390565b6001600160a01b0316816001600160a01b0316837f2f8788117e7eff1d82e926ec794901d17c78024a50270940304540a733656f0d60405160405180910390a45050565b6118b28282611147565b1561088e5760008281526011602090815260408083206001600160a01b0385168085529252808320805460ff1916905551339285917ff6391f5c32d9c69d2a47ea670b442974b53935d1edc7fd64eb21e047a839171b9190a45050565b604080516001600160a01b0385811660248301528481166044830152606480830185905283518084039091018152608490920183526020820180516001600160e01b03166323b872dd60e01b17905291516000928392908816916119739190612442565b6000604051808303816000865af19150503d80600081146119b0576040519150601f19603f3d011682016040523d82523d6000602084013e6119b5565b606091505b50915091508180156119df5750805115806119df5750808060200190518101906119df9190612376565b611a225760405162461bcd60e51b81526020600482015260146024820152731514905394d1915497d19493d357d1905253115160621b604482015260640161087b565b505050505050565b600082611a395750600061078d565b6000611a458385612727565b905082611a528583612707565b146113245760405162461bcd60e51b815260206004820152602160248201527f536166654d6174683a206d756c7469706c69636174696f6e206f766572666c6f6044820152607760f81b606482015260840161087b565b600080611ab683856126ef565b9050838110156113245760405162461bcd60e51b815260206004820152601b60248201527f536166654d6174683a206164646974696f6e206f766572666c6f770000000000604482015260640161087b565b600854600114611b555760405162461bcd60e51b81526020600482015260186024820152774c6f636b496420697320616c726561647920696e2075736560401b604482015260640161087b565b600060088190556001600160a01b0385168152600f60209081526040808320868452825291829020825160c081018452815480825260018301549382019390935260028201549381019390935260038101546060840152600481015460808401526005015460a0830152829015611bea578215611be357828260600151611bdc91906126ef565b9050611bea565b5060608101515b600754600090611c0286670de0b6b3a7640000612727565b611c0c9190612707565b905060006040518060c00160405280878660000151611c2b91906126ef565b8152602001838660200151611c4091906126ef565b8152602001428152602001848152602001856080015181526020018560a00151815250905080600f60008a6001600160a01b03166001600160a01b031681526020019081526020016000206000898152602001908152602001600020600082015181600001556020820151816001015560408201518160020155606082015181600301556080820151816004015560a0820151816005015590505080600e6000898152602001908152602001600020600082015181600001556020820151816001015560408201518160020155606082015181600301556080820151816004015560a082015181600501559050508360200151600a54611d4091906126ef565b600a558351600954611d5291906126ef565b60095550506001600855505050505050565b6000670de0b6b3a7640000600b54670de0b6b3a7640000611d8591906126ef565b600754611d929190612727565b611d9c9190612707565b6007819055919050565b600061132483836040518060400160405280601e81526020017f536166654d6174683a207375627472616374696f6e206f766572666c6f7700008152506120e1565b61088e8282611822565b604080516001600160a01b038481166024830152604480830185905283518084039091018152606490920183526020820180516001600160e01b031663a9059cbb60e01b1790529151600092839290871691611e4e9190612442565b6000604051808303816000865af19150503d8060008114611e8b576040519150601f19603f3d011682016040523d82523d6000602084013e611e90565b606091505b5091509150818015611eba575080511580611eba575080806020019051810190611eba9190612376565b611ef85760405162461bcd60e51b815260206004820152600f60248201526e1514905394d1915497d19052531151608a1b604482015260640161087b565b5050505050565b60606000611f0e836002612727565b611f199060026126ef565b67ffffffffffffffff811115611f3f57634e487b7160e01b600052604160045260246000fd5b6040519080825280601f01601f191660200182016040528015611f69576020820181803683370190505b509050600360fc1b81600081518110611f9257634e487b7160e01b600052603260045260246000fd5b60200101906001600160f81b031916908160001a905350600f60fb1b81600181518110611fcf57634e487b7160e01b600052603260045260246000fd5b60200101906001600160f81b031916908160001a9053506000611ff3846002612727565b611ffe9060016126ef565b90505b6001811115612092576f181899199a1a9b1b9c1cb0b131b232b360811b85600f166010811061204057634e487b7160e01b600052603260045260246000fd5b1a60f81b82828151811061206457634e487b7160e01b600052603260045260246000fd5b60200101906001600160f81b031916908160001a90535060049490941c9361208b8161278d565b9050612001565b5083156113245760405162461bcd60e51b815260206004820181905260248201527f537472696e67733a20686578206c656e67746820696e73756666696369656e74604482015260640161087b565b600081848411156121055760405162461bcd60e51b815260040161087b9190612532565b5060006121128486612746565b95945050505050565b80356001600160a01b038116811461213257600080fd5b919050565b600082601f830112612147578081fd5b8135602061215c612157836126cb565b61269a565b80838252828201915082860187848660051b890101111561217b578586fd5b855b858110156121995781358452928401929084019060010161217d565b5090979650505050505050565b6000602082840312156121b7578081fd5b6113248261211b565b600080604083850312156121d2578081fd5b6121db8361211b565b946020939093013593505050565b6000806000606084860312156121fd578081fd5b6122068461211b565b95602085013595506040909401359392505050565b600080600080600060a08688031215612232578081fd5b61223b8661211b565b94506020860135935060408601359250606086013591506080860135612260816127eb565b809150509295509295909350565b60008060008060808587031215612283578384fd5b843567ffffffffffffffff8082111561229a578586fd5b818701915087601f8301126122ad578586fd5b813560206122bd612157836126cb565b8083825282820191508286018c848660051b89010111156122dc578a8bfd5b8a96505b84871015612305576122f18161211b565b8352600196909601959183019183016122e0565b509850508801359250508082111561231b578485fd5b61232788838901612137565b9450604087013591508082111561233c578384fd5b61234888838901612137565b9350606087013591508082111561235d578283fd5b5061236a87828801612137565b91505092959194509250565b600060208284031215612387578081fd5b8151611324816127eb565b6000602082840312156123a3578081fd5b5035919050565b600080604083850312156123bc578182fd5b823591506123cc6020840161211b565b90509250929050565b6000602082840312156123e6578081fd5b81356001600160e01b031981168114611324578182fd5b60006020828403121561240e578081fd5b5051919050565b600080600060608486031215612429578081fd5b8351925060208401519150604084015190509250925092565b6000825161245481846020870161275d565b9190910192915050565b76020b1b1b2b9b9a1b7b73a3937b61d1030b1b1b7bab73a1604d1b81526000835161249081601785016020880161275d565b7001034b99036b4b9b9b4b733903937b6329607d1b60179184019182015283516124c181602884016020880161275d565b01602801949350505050565b6001600160a01b039390931683526020830191909152604082015260600190565b6020808252825182820181905260009190848201906040850190845b818110156125265783518352928401929184019160010161250a565b50909695505050505050565b602081526000825180602084015261255181604085016020870161275d565b601f01601f19169190910160400192915050565b60208082526022908201527f41636365737369626c653a2043616c6c6572206973206e6f7420616e2061646d60408201526134b760f11b606082015260800190565b60208082526018908201527741636365737369626c653a207a65726f206164647265737360401b604082015260600190565b60208082526028908201527f41636365737369626c653a2043616c6c6572206973206e6f7420616e2070726f6040820152673c3c9030b236b4b760c11b606082015260800190565b60208082526016908201527520b1b1b2b9b9b4b136329d1039b0b6b29030b236b4b760511b604082015260600190565b60208082526029908201527f41636365737369626c653a2043616c6c6572206973206e6f7420616e20706f6c60408201526834b1bc9030b236b4b760b91b606082015260800190565b604051601f8201601f1916810167ffffffffffffffff811182821017156126c3576126c36127d5565b604052919050565b600067ffffffffffffffff8211156126e5576126e56127d5565b5060051b60200190565b60008219821115612702576127026127bf565b500190565b60008261272257634e487b7160e01b81526012600452602481fd5b500490565b6000816000190483118215151615612741576127416127bf565b500290565b600082821015612758576127586127bf565b500390565b60005b83811015612778578181015183820152602001612760565b83811115612787576000848401525b50505050565b60008161279c5761279c6127bf565b506000190190565b60006000198214156127b8576127b86127bf565b5060010190565b634e487b7160e01b600052601160045260246000fd5b634e487b7160e01b600052604160045260246000fd5b8015158114610ce157600080fdfe52eafc11f6f81f86878bffd31109a0d92f37506527754f00788853ff9f63b130fb5864e8ff833c3cb2d2d08505e82ff02a43554c74a35d4f5a64e85261278311a2646970667358221220508e937d7d3fe11cec89d6ae6785b782902a2bfb0d1ce0c9c623b2b9ec5e656664736f6c63430008040033",
  "linkReferences": {},
  "deployedLinkReferences": {}
}