{
  "_format": "hh-sol-artifact-1",
  "contractName": "StakingV2",
  "sourceName": "contracts/StakingV2.sol",
  "abi": [
    {
      "inputs": [],
      "stateMutability": "nonpayable",
      "type": "constructor"
    },
    {
      "anonymous": false,
      "inputs": [
        {
          "indexed": false,
          "internalType": "address",
          "name": "staker",
          "type": "address"
        },
        {
          "indexed": false,
          "internalType": "uint256",
          "name": "claimAmount",
          "type": "uint256"
        },
        {
          "indexed": false,
          "internalType": "uint256",
          "name": "stakeId",
          "type": "uint256"
        }
      ],
      "name": "ClaimdForNonLock",
      "type": "event"
    },
    {
      "anonymous": false,
      "inputs": [
        {
          "indexed": false,
          "internalType": "address",
          "name": "to",
          "type": "address"
        },
        {
          "indexed": false,
          "internalType": "uint256",
          "name": "amount",
          "type": "uint256"
        },
        {
          "indexed": false,
          "internalType": "uint256",
          "name": "stakeId",
          "type": "uint256"
        }
      ],
      "name": "IncreasedAmountForSimpleStake",
      "type": "event"
    },
    {
      "anonymous": false,
      "inputs": [
        {
          "indexed": false,
          "internalType": "address",
          "name": "staker",
          "type": "address"
        },
        {
          "indexed": false,
          "internalType": "uint256",
          "name": "amount",
          "type": "uint256"
        },
        {
          "indexed": false,
          "internalType": "uint256",
          "name": "unlockWeeks",
          "type": "uint256"
        },
        {
          "indexed": false,
          "internalType": "uint256",
          "name": "stakeId",
          "type": "uint256"
        },
        {
          "indexed": false,
          "internalType": "uint256",
          "name": "stosId",
          "type": "uint256"
        }
      ],
      "name": "IncreasedBeforeEndOrNonEnd",
      "type": "event"
    },
    {
      "anonymous": false,
      "inputs": [
        {
          "indexed": false,
          "internalType": "uint256",
          "name": "oldIndex",
          "type": "uint256"
        },
        {
          "indexed": false,
          "internalType": "uint256",
          "name": "newIndex",
          "type": "uint256"
        },
        {
          "indexed": false,
          "internalType": "uint256",
          "name": "totalLTOS",
          "type": "uint256"
        }
      ],
      "name": "Rebased",
      "type": "event"
    },
    {
      "anonymous": false,
      "inputs": [
        {
          "indexed": false,
          "internalType": "address",
          "name": "to",
          "type": "address"
        },
        {
          "indexed": false,
          "internalType": "uint256",
          "name": "addAmount",
          "type": "uint256"
        },
        {
          "indexed": false,
          "internalType": "uint256",
          "name": "claimAmount",
          "type": "uint256"
        },
        {
          "indexed": false,
          "internalType": "uint256",
          "name": "periodWeeks",
          "type": "uint256"
        },
        {
          "indexed": false,
          "internalType": "uint256",
          "name": "stakeId",
          "type": "uint256"
        },
        {
          "indexed": false,
          "internalType": "uint256",
          "name": "stosId",
          "type": "uint256"
        }
      ],
      "name": "ResetStakedGetStosAfterLock",
      "type": "event"
    },
    {
      "anonymous": false,
      "inputs": [
        {
          "indexed": true,
          "internalType": "bytes32",
          "name": "role",
          "type": "bytes32"
        },
        {
          "indexed": true,
          "internalType": "bytes32",
          "name": "previousAdminRole",
          "type": "bytes32"
        },
        {
          "indexed": true,
          "internalType": "bytes32",
          "name": "newAdminRole",
          "type": "bytes32"
        }
      ],
      "name": "RoleAdminChanged",
      "type": "event"
    },
    {
      "anonymous": false,
      "inputs": [
        {
          "indexed": true,
          "internalType": "bytes32",
          "name": "role",
          "type": "bytes32"
        },
        {
          "indexed": true,
          "internalType": "address",
          "name": "account",
          "type": "address"
        },
        {
          "indexed": true,
          "internalType": "address",
          "name": "sender",
          "type": "address"
        }
      ],
      "name": "RoleGranted",
      "type": "event"
    },
    {
      "anonymous": false,
      "inputs": [
        {
          "indexed": true,
          "internalType": "bytes32",
          "name": "role",
          "type": "bytes32"
        },
        {
          "indexed": true,
          "internalType": "address",
          "name": "account",
          "type": "address"
        },
        {
          "indexed": true,
          "internalType": "address",
          "name": "sender",
          "type": "address"
        }
      ],
      "name": "RoleRevoked",
      "type": "event"
    },
    {
      "anonymous": false,
      "inputs": [
        {
          "indexed": false,
          "internalType": "address",
          "name": "to",
          "type": "address"
        },
        {
          "indexed": false,
          "internalType": "uint256",
          "name": "amount",
          "type": "uint256"
        },
        {
          "indexed": false,
          "internalType": "uint256",
          "name": "stakeId",
          "type": "uint256"
        }
      ],
      "name": "Staked",
      "type": "event"
    },
    {
      "anonymous": false,
      "inputs": [
        {
          "indexed": false,
          "internalType": "address",
          "name": "to",
          "type": "address"
        },
        {
          "indexed": false,
          "internalType": "uint256",
          "name": "amount",
          "type": "uint256"
        },
        {
          "indexed": false,
          "internalType": "uint256",
          "name": "marketId",
          "type": "uint256"
        },
        {
          "indexed": false,
          "internalType": "uint256",
          "name": "stakeId",
          "type": "uint256"
        }
      ],
      "name": "StakedByBond",
      "type": "event"
    },
    {
      "anonymous": false,
      "inputs": [
        {
          "indexed": false,
          "internalType": "address",
          "name": "to",
          "type": "address"
        },
        {
          "indexed": false,
          "internalType": "uint256",
          "name": "amount",
          "type": "uint256"
        },
        {
          "indexed": false,
          "internalType": "uint256",
          "name": "periodWeeks",
          "type": "uint256"
        },
        {
          "indexed": false,
          "internalType": "uint256",
          "name": "stakeId",
          "type": "uint256"
        },
        {
          "indexed": false,
          "internalType": "uint256",
          "name": "stosId",
          "type": "uint256"
        }
      ],
      "name": "StakedGetStos",
      "type": "event"
    },
    {
      "anonymous": false,
      "inputs": [
        {
          "indexed": false,
          "internalType": "address",
          "name": "to",
          "type": "address"
        },
        {
          "indexed": false,
          "internalType": "uint256",
          "name": "amount",
          "type": "uint256"
        },
        {
          "indexed": false,
          "internalType": "uint256",
          "name": "periodWeeks",
          "type": "uint256"
        },
        {
          "indexed": false,
          "internalType": "uint256",
          "name": "marketId",
          "type": "uint256"
        },
        {
          "indexed": false,
          "internalType": "uint256",
          "name": "stakeId",
          "type": "uint256"
        },
        {
          "indexed": false,
          "internalType": "uint256",
          "name": "stosId",
          "type": "uint256"
        }
      ],
      "name": "StakedGetStosByBond",
      "type": "event"
    },
    {
      "anonymous": false,
      "inputs": [
        {
          "indexed": false,
          "internalType": "address",
          "name": "staker",
          "type": "address"
        },
        {
          "indexed": false,
          "internalType": "uint256",
          "name": "amount",
          "type": "uint256"
        },
        {
          "indexed": false,
          "internalType": "uint256",
          "name": "stakeId",
          "type": "uint256"
        }
      ],
      "name": "Unstaked",
      "type": "event"
    },
    {
      "inputs": [],
      "name": "ADMIN_ROLE",
      "outputs": [
        {
          "internalType": "bytes32",
          "name": "",
          "type": "bytes32"
        }
      ],
      "stateMutability": "view",
      "type": "function"
    },
    {
      "inputs": [],
      "name": "DEFAULT_ADMIN_ROLE",
      "outputs": [
        {
          "internalType": "bytes32",
          "name": "",
          "type": "bytes32"
        }
      ],
      "stateMutability": "view",
      "type": "function"
    },
    {
      "inputs": [],
      "name": "POLICY_ROLE",
      "outputs": [
        {
          "internalType": "bytes32",
          "name": "",
          "type": "bytes32"
        }
      ],
      "stateMutability": "view",
      "type": "function"
    },
    {
      "inputs": [],
      "name": "PROJECT_ADMIN_ROLE",
      "outputs": [
        {
          "internalType": "bytes32",
          "name": "",
          "type": "bytes32"
        }
      ],
      "stateMutability": "view",
      "type": "function"
    },
    {
      "inputs": [],
      "name": "TOS",
      "outputs": [
        {
          "internalType": "contract IERC20",
          "name": "",
          "type": "address"
        }
      ],
      "stateMutability": "view",
      "type": "function"
    },
    {
      "inputs": [
        {
          "internalType": "address",
          "name": "account",
          "type": "address"
        }
      ],
      "name": "addAdmin",
      "outputs": [],
      "stateMutability": "nonpayable",
      "type": "function"
    },
    {
      "inputs": [
        {
          "internalType": "address",
          "name": "_account",
          "type": "address"
        }
      ],
      "name": "addPolicy",
      "outputs": [],
      "stateMutability": "nonpayable",
      "type": "function"
    },
    {
      "inputs": [
        {
          "internalType": "address",
          "name": "_owner",
          "type": "address"
        }
      ],
      "name": "addProxyAdmin",
      "outputs": [],
      "stateMutability": "nonpayable",
      "type": "function"
    },
    {
      "inputs": [
        {
          "internalType": "uint256",
          "name": "",
          "type": "uint256"
        }
      ],
      "name": "allStakings",
      "outputs": [
        {
          "internalType": "address",
          "name": "staker",
          "type": "address"
        },
        {
          "internalType": "uint256",
          "name": "deposit",
          "type": "uint256"
        },
        {
          "internalType": "uint256",
          "name": "LTOS",
          "type": "uint256"
        },
        {
          "internalType": "uint256",
          "name": "startTime",
          "type": "uint256"
        },
        {
          "internalType": "uint256",
          "name": "endTime",
          "type": "uint256"
        },
        {
          "internalType": "uint256",
          "name": "marketId",
          "type": "uint256"
        }
      ],
      "stateMutability": "view",
      "type": "function"
    },
    {
      "inputs": [
        {
          "internalType": "address",
          "name": "_addr",
          "type": "address"
        }
      ],
      "name": "balanceOf",
      "outputs": [
        {
          "internalType": "uint256",
          "name": "balance",
          "type": "uint256"
        }
      ],
      "stateMutability": "view",
      "type": "function"
    },
    {
      "inputs": [
        {
          "internalType": "uint256",
          "name": "_stakeId",
          "type": "uint256"
        }
      ],
      "name": "balanceOfId",
      "outputs": [
        {
          "internalType": "uint256",
          "name": "",
          "type": "uint256"
        }
      ],
      "stateMutability": "view",
      "type": "function"
    },
    {
      "inputs": [],
      "name": "basicBondPeriod",
      "outputs": [
        {
          "internalType": "uint256",
          "name": "",
          "type": "uint256"
        }
      ],
      "stateMutability": "view",
      "type": "function"
    },
    {
      "inputs": [
        {
          "internalType": "uint256",
          "name": "_stakeId",
          "type": "uint256"
        },
        {
          "internalType": "uint256",
          "name": "_claimAmount",
          "type": "uint256"
        }
      ],
      "name": "claimForSimpleType",
      "outputs": [],
      "stateMutability": "nonpayable",
      "type": "function"
    },
    {
      "inputs": [
        {
          "internalType": "uint256",
          "name": "_stakeId",
          "type": "uint256"
        }
      ],
      "name": "claimableLtos",
      "outputs": [
        {
          "internalType": "uint256",
          "name": "",
          "type": "uint256"
        }
      ],
      "stateMutability": "view",
      "type": "function"
    },
    {
      "inputs": [
        {
          "internalType": "uint256",
          "name": "_stakeId",
          "type": "uint256"
        }
      ],
      "name": "claimableTos",
      "outputs": [
        {
          "internalType": "uint256",
          "name": "",
          "type": "uint256"
        }
      ],
      "stateMutability": "view",
      "type": "function"
    },
    {
      "inputs": [
        {
          "internalType": "uint256",
          "name": "",
          "type": "uint256"
        }
      ],
      "name": "connectId",
      "outputs": [
        {
          "internalType": "uint256",
          "name": "",
          "type": "uint256"
        }
      ],
      "stateMutability": "view",
      "type": "function"
    },
    {
      "inputs": [],
      "name": "epoch",
      "outputs": [
        {
          "internalType": "uint256",
          "name": "length_",
          "type": "uint256"
        },
        {
          "internalType": "uint256",
          "name": "number",
          "type": "uint256"
        },
        {
          "internalType": "uint256",
          "name": "end",
          "type": "uint256"
        }
      ],
      "stateMutability": "view",
      "type": "function"
    },
    {
      "inputs": [],
      "name": "generateMarketId",
      "outputs": [
        {
          "internalType": "uint256",
          "name": "",
          "type": "uint256"
        }
      ],
      "stateMutability": "nonpayable",
      "type": "function"
    },
    {
      "inputs": [],
      "name": "getIndex",
      "outputs": [
        {
          "internalType": "uint256",
          "name": "",
          "type": "uint256"
        }
      ],
      "stateMutability": "view",
      "type": "function"
    },
    {
      "inputs": [
        {
          "internalType": "uint256",
          "name": "ltos",
          "type": "uint256"
        }
      ],
      "name": "getLtosToTos",
      "outputs": [
        {
          "internalType": "uint256",
          "name": "",
          "type": "uint256"
        }
      ],
      "stateMutability": "view",
      "type": "function"
    },
    {
      "inputs": [
        {
          "internalType": "bytes32",
          "name": "role",
          "type": "bytes32"
        }
      ],
      "name": "getRoleAdmin",
      "outputs": [
        {
          "internalType": "bytes32",
          "name": "",
          "type": "bytes32"
        }
      ],
      "stateMutability": "view",
      "type": "function"
    },
    {
      "inputs": [
        {
          "internalType": "uint256",
          "name": "amount",
          "type": "uint256"
        }
      ],
      "name": "getTosToLtos",
      "outputs": [
        {
          "internalType": "uint256",
          "name": "",
          "type": "uint256"
        }
      ],
      "stateMutability": "view",
      "type": "function"
    },
    {
      "inputs": [
        {
          "internalType": "bytes32",
          "name": "role",
          "type": "bytes32"
        },
        {
          "internalType": "address",
          "name": "account",
          "type": "address"
        }
      ],
      "name": "grantRole",
      "outputs": [],
      "stateMutability": "nonpayable",
      "type": "function"
    },
    {
      "inputs": [
        {
          "internalType": "bytes32",
          "name": "role",
          "type": "bytes32"
        },
        {
          "internalType": "address",
          "name": "account",
          "type": "address"
        }
      ],
      "name": "hasRole",
      "outputs": [
        {
          "internalType": "bool",
          "name": "",
          "type": "bool"
        }
      ],
      "stateMutability": "view",
      "type": "function"
    },
    {
      "inputs": [
        {
          "internalType": "uint256",
          "name": "_stakeId",
          "type": "uint256"
        },
        {
          "internalType": "uint256",
          "name": "_amount",
          "type": "uint256"
        }
      ],
      "name": "increaseAmountForSimpleStake",
      "outputs": [],
      "stateMutability": "nonpayable",
      "type": "function"
    },
    {
      "inputs": [
        {
          "internalType": "uint256",
          "name": "_stakeId",
          "type": "uint256"
        },
        {
          "internalType": "uint256",
          "name": "_amount",
          "type": "uint256"
        },
        {
          "internalType": "uint256",
          "name": "_unlockWeeks",
          "type": "uint256"
        }
      ],
      "name": "increaseBeforeEndOrNonEnd",
      "outputs": [],
      "stateMutability": "nonpayable",
      "type": "function"
    },
    {
      "inputs": [],
      "name": "index_",
      "outputs": [
        {
          "internalType": "uint256",
          "name": "",
          "type": "uint256"
        }
      ],
      "stateMutability": "view",
      "type": "function"
    },
    {
      "inputs": [
        {
          "internalType": "address",
          "name": "account",
          "type": "address"
        }
      ],
      "name": "isAdmin",
      "outputs": [
        {
          "internalType": "bool",
          "name": "",
          "type": "bool"
        }
      ],
      "stateMutability": "view",
      "type": "function"
    },
    {
      "inputs": [
        {
          "internalType": "address",
          "name": "account",
          "type": "address"
        }
      ],
      "name": "isPolicy",
      "outputs": [
        {
          "internalType": "bool",
          "name": "",
          "type": "bool"
        }
      ],
      "stateMutability": "view",
      "type": "function"
    },
    {
      "inputs": [
        {
          "internalType": "address",
          "name": "account",
          "type": "address"
        }
      ],
      "name": "isProxyAdmin",
      "outputs": [
        {
          "internalType": "bool",
          "name": "",
          "type": "bool"
        }
      ],
      "stateMutability": "view",
      "type": "function"
    },
    {
      "inputs": [],
      "name": "lockTOS",
      "outputs": [
        {
          "internalType": "address",
          "name": "",
          "type": "address"
        }
      ],
      "stateMutability": "view",
      "type": "function"
    },
    {
      "inputs": [
        {
          "internalType": "uint256",
          "name": "",
          "type": "uint256"
        }
      ],
      "name": "lockTOSId",
      "outputs": [
        {
          "internalType": "uint256",
          "name": "",
          "type": "uint256"
        }
      ],
      "stateMutability": "view",
      "type": "function"
    },
    {
      "inputs": [],
      "name": "marketIdCounter",
      "outputs": [
        {
          "internalType": "uint256",
          "name": "",
          "type": "uint256"
        }
      ],
      "stateMutability": "view",
      "type": "function"
    },
    {
      "inputs": [
        {
          "internalType": "uint256[]",
          "name": "_stakeIds",
          "type": "uint256[]"
        }
      ],
      "name": "multiUnstake",
      "outputs": [],
      "stateMutability": "nonpayable",
      "type": "function"
    },
    {
      "inputs": [],
      "name": "nextIndex",
      "outputs": [
        {
          "internalType": "uint256",
          "name": "",
          "type": "uint256"
        }
      ],
      "stateMutability": "view",
      "type": "function"
    },
    {
      "inputs": [],
      "name": "rebaseIndex",
      "outputs": [],
      "stateMutability": "nonpayable",
      "type": "function"
    },
    {
      "inputs": [],
      "name": "rebasePerEpoch",
      "outputs": [
        {
          "internalType": "uint256",
          "name": "",
          "type": "uint256"
        }
      ],
      "stateMutability": "view",
      "type": "function"
    },
    {
      "inputs": [
        {
          "internalType": "uint256",
          "name": "_stakeId",
          "type": "uint256"
        }
      ],
      "name": "remainedLTOS",
      "outputs": [
        {
          "internalType": "uint256",
          "name": "",
          "type": "uint256"
        }
      ],
      "stateMutability": "view",
      "type": "function"
    },
    {
      "inputs": [
        {
          "internalType": "uint256",
          "name": "_stakeId",
          "type": "uint256"
        }
      ],
      "name": "remainedLTOSToTos",
      "outputs": [
        {
          "internalType": "uint256",
          "name": "",
          "type": "uint256"
        }
      ],
      "stateMutability": "view",
      "type": "function"
    },
    {
      "inputs": [],
      "name": "removeAdmin",
      "outputs": [],
      "stateMutability": "nonpayable",
      "type": "function"
    },
    {
      "inputs": [],
      "name": "removePolicy",
      "outputs": [],
      "stateMutability": "nonpayable",
      "type": "function"
    },
    {
      "inputs": [],
      "name": "removeProxyAdmin",
      "outputs": [],
      "stateMutability": "nonpayable",
      "type": "function"
    },
    {
      "inputs": [
        {
          "internalType": "bytes32",
          "name": "role",
          "type": "bytes32"
        },
        {
          "internalType": "address",
          "name": "account",
          "type": "address"
        }
      ],
      "name": "renounceRole",
      "outputs": [],
      "stateMutability": "nonpayable",
      "type": "function"
    },
    {
      "inputs": [
        {
          "internalType": "uint256",
          "name": "_stakeId",
          "type": "uint256"
        },
        {
          "internalType": "uint256",
          "name": "_addAmount",
          "type": "uint256"
        },
        {
          "internalType": "uint256",
          "name": "_claimAmount",
          "type": "uint256"
        },
        {
          "internalType": "uint256",
          "name": "_periodWeeks",
          "type": "uint256"
        }
      ],
      "name": "resetStakeGetStosAfterLock",
      "outputs": [],
      "stateMutability": "nonpayable",
      "type": "function"
    },
    {
      "inputs": [
        {
          "internalType": "bytes32",
          "name": "role",
          "type": "bytes32"
        },
        {
          "internalType": "address",
          "name": "account",
          "type": "address"
        }
      ],
      "name": "revokeRole",
      "outputs": [],
      "stateMutability": "nonpayable",
      "type": "function"
    },
    {
      "inputs": [],
      "name": "runwayTOS",
      "outputs": [
        {
          "internalType": "uint256",
          "name": "",
          "type": "uint256"
        }
      ],
      "stateMutability": "view",
      "type": "function"
    },
    {
      "inputs": [],
      "name": "secondsToNextEpoch",
      "outputs": [
        {
          "internalType": "uint256",
          "name": "",
          "type": "uint256"
        }
      ],
      "stateMutability": "view",
      "type": "function"
    },
    {
      "inputs": [
        {
          "internalType": "address",
          "name": "_tos",
          "type": "address"
        },
        {
          "internalType": "address",
          "name": "_lockTOS",
          "type": "address"
        },
        {
          "internalType": "address",
          "name": "_treasury",
          "type": "address"
        }
      ],
      "name": "setAddressInfos",
      "outputs": [],
      "stateMutability": "nonpayable",
      "type": "function"
    },
    {
      "inputs": [
        {
          "internalType": "uint256",
          "name": "_period",
          "type": "uint256"
        }
      ],
      "name": "setBasicBondPeriod",
      "outputs": [],
      "stateMutability": "nonpayable",
      "type": "function"
    },
    {
      "inputs": [
        {
          "internalType": "uint256",
          "name": "_index",
          "type": "uint256"
        }
      ],
      "name": "setIndex",
      "outputs": [],
      "stateMutability": "nonpayable",
      "type": "function"
    },
    {
      "inputs": [
        {
          "internalType": "uint256",
          "name": "_rebasePerEpoch",
          "type": "uint256"
        }
      ],
      "name": "setRebasePerEpoch",
      "outputs": [],
      "stateMutability": "nonpayable",
      "type": "function"
    },
    {
      "inputs": [
        {
          "internalType": "uint256",
          "name": "_amount",
          "type": "uint256"
        }
      ],
      "name": "stake",
      "outputs": [
        {
          "internalType": "uint256",
          "name": "stakeId",
          "type": "uint256"
        }
      ],
      "stateMutability": "nonpayable",
      "type": "function"
    },
    {
      "inputs": [
        {
          "internalType": "address",
          "name": "to",
          "type": "address"
        },
        {
          "internalType": "uint256",
          "name": "_amount",
          "type": "uint256"
        },
        {
          "internalType": "uint256",
          "name": "_marketId",
          "type": "uint256"
        }
      ],
      "name": "stakeByBond",
      "outputs": [
        {
          "internalType": "uint256",
          "name": "stakeId",
          "type": "uint256"
        }
      ],
      "stateMutability": "nonpayable",
      "type": "function"
    },
    {
      "inputs": [
        {
          "internalType": "uint256",
          "name": "_amount",
          "type": "uint256"
        },
        {
          "internalType": "uint256",
          "name": "_periodWeeks",
          "type": "uint256"
        }
      ],
      "name": "stakeGetStos",
      "outputs": [
        {
          "internalType": "uint256",
          "name": "stakeId",
          "type": "uint256"
        }
      ],
      "stateMutability": "nonpayable",
      "type": "function"
    },
    {
      "inputs": [
        {
          "internalType": "address",
          "name": "_to",
          "type": "address"
        },
        {
          "internalType": "uint256",
          "name": "_amount",
          "type": "uint256"
        },
        {
          "internalType": "uint256",
          "name": "_marketId",
          "type": "uint256"
        },
        {
          "internalType": "uint256",
          "name": "_periodWeeks",
          "type": "uint256"
        }
      ],
      "name": "stakeGetStosByBond",
      "outputs": [
        {
          "internalType": "uint256",
          "name": "stakeId",
          "type": "uint256"
        }
      ],
      "stateMutability": "nonpayable",
      "type": "function"
    },
    {
      "inputs": [
        {
          "internalType": "uint256",
          "name": "stakeId",
          "type": "uint256"
        }
      ],
      "name": "stakeInfo",
      "outputs": [
        {
          "internalType": "address",
          "name": "staker",
          "type": "address"
        },
        {
          "internalType": "uint256",
          "name": "deposit",
          "type": "uint256"
        },
        {
          "internalType": "uint256",
          "name": "LTOS",
          "type": "uint256"
        },
        {
          "internalType": "uint256",
          "name": "startTime",
          "type": "uint256"
        },
        {
          "internalType": "uint256",
          "name": "endTime",
          "type": "uint256"
        },
        {
          "internalType": "uint256",
          "name": "marketId",
          "type": "uint256"
        }
      ],
      "stateMutability": "view",
      "type": "function"
    },
    {
      "inputs": [
        {
          "internalType": "uint256",
          "name": "stakeId",
          "type": "uint256"
        }
      ],
      "name": "stakedOf",
      "outputs": [
        {
          "internalType": "uint256",
          "name": "",
          "type": "uint256"
        }
      ],
      "stateMutability": "view",
      "type": "function"
    },
    {
      "inputs": [],
      "name": "stakedOfAll",
      "outputs": [
        {
          "internalType": "uint256",
          "name": "",
          "type": "uint256"
        }
      ],
      "stateMutability": "view",
      "type": "function"
    },
    {
      "inputs": [],
      "name": "stakingIdCounter",
      "outputs": [
        {
          "internalType": "uint256",
          "name": "",
          "type": "uint256"
        }
      ],
      "stateMutability": "view",
      "type": "function"
    },
    {
      "inputs": [
        {
          "internalType": "address",
          "name": "_addr",
          "type": "address"
        }
      ],
      "name": "stakingOf",
      "outputs": [
        {
          "internalType": "uint256[]",
          "name": "",
          "type": "uint256[]"
        }
      ],
      "stateMutability": "view",
      "type": "function"
    },
    {
      "inputs": [],
      "name": "stakingPrincipal",
      "outputs": [
        {
          "internalType": "uint256",
          "name": "",
          "type": "uint256"
        }
      ],
      "stateMutability": "view",
      "type": "function"
    },
    {
      "inputs": [],
      "name": "startEpochTime",
      "outputs": [
        {
          "internalType": "uint256",
          "name": "",
          "type": "uint256"
        }
      ],
      "stateMutability": "view",
      "type": "function"
    },
    {
      "inputs": [
        {
          "internalType": "bytes4",
          "name": "interfaceId",
          "type": "bytes4"
        }
      ],
      "name": "supportsInterface",
      "outputs": [
        {
          "internalType": "bool",
          "name": "",
          "type": "bool"
        }
      ],
      "stateMutability": "view",
      "type": "function"
    },
    {
      "inputs": [
        {
          "internalType": "address[]",
          "name": "accounts",
          "type": "address[]"
        },
        {
          "internalType": "uint256[]",
          "name": "balances",
          "type": "uint256[]"
        },
        {
          "internalType": "uint256[]",
          "name": "period",
          "type": "uint256[]"
        },
        {
          "internalType": "uint256[]",
          "name": "tokenId",
          "type": "uint256[]"
        }
      ],
      "name": "syncSTOS",
      "outputs": [],
      "stateMutability": "nonpayable",
      "type": "function"
    },
    {
      "inputs": [],
      "name": "totalDepositTOS",
      "outputs": [
        {
          "internalType": "uint256",
          "name": "",
          "type": "uint256"
        }
      ],
      "stateMutability": "view",
      "type": "function"
    },
    {
      "inputs": [],
      "name": "totalLTOS",
      "outputs": [
        {
          "internalType": "uint256",
          "name": "",
          "type": "uint256"
        }
      ],
      "stateMutability": "view",
      "type": "function"
    },
    {
      "inputs": [
        {
          "internalType": "address",
          "name": "newAdmin",
          "type": "address"
        }
      ],
      "name": "transferAdmin",
      "outputs": [],
      "stateMutability": "nonpayable",
      "type": "function"
    },
    {
      "inputs": [
        {
          "internalType": "address",
          "name": "newAdmin",
          "type": "address"
        }
      ],
      "name": "transferPolicyAdmin",
      "outputs": [],
      "stateMutability": "nonpayable",
      "type": "function"
    },
    {
      "inputs": [
        {
          "internalType": "address",
          "name": "newAdmin",
          "type": "address"
        }
      ],
      "name": "transferProxyAdmin",
      "outputs": [],
      "stateMutability": "nonpayable",
      "type": "function"
    },
    {
      "inputs": [],
      "name": "treasury",
      "outputs": [
        {
          "internalType": "address",
          "name": "",
          "type": "address"
        }
      ],
      "stateMutability": "view",
      "type": "function"
    },
    {
      "inputs": [
        {
          "internalType": "uint256",
          "name": "_stakeId",
          "type": "uint256"
        }
      ],
      "name": "unstake",
      "outputs": [],
      "stateMutability": "nonpayable",
      "type": "function"
    },
    {
      "inputs": [
        {
          "internalType": "address",
          "name": "",
          "type": "address"
        },
        {
          "internalType": "uint256",
          "name": "",
          "type": "uint256"
        }
      ],
      "name": "userStakingIndex",
      "outputs": [
        {
          "internalType": "uint256",
          "name": "",
          "type": "uint256"
        }
      ],
      "stateMutability": "view",
      "type": "function"
    },
    {
      "inputs": [
        {
          "internalType": "address",
          "name": "",
          "type": "address"
        },
        {
          "internalType": "uint256",
          "name": "",
          "type": "uint256"
        }
      ],
      "name": "userStakings",
      "outputs": [
        {
          "internalType": "uint256",
          "name": "",
          "type": "uint256"
        }
      ],
      "stateMutability": "view",
      "type": "function"
    }
  ],
  "bytecode": "0x6080604052600160085534801561001557600080fd5b50615d5680620000266000396000f3fe608060405234801561001057600080fd5b50600436106103535760003560e01c80637e7a6d2c116101c65780637e7a6d2c146106a957806381045ead146106bc5780638356ca4f146106c457806383a5683a146106d75780638acf45fd146106ea578063900cf0cf1461070a57806391d148541461072b5780639483c1d71461073e57806396f1557c1461074657806397b42937146107595780639a202d471461076c5780639a794e66146107745780639e9e792f14610787578063a052e69e146107a7578063a1c95e5a146107b0578063a217fddf146107c3578063a694fc3a146107cb578063a7110dc3146107de578063a89aa6a814610809578063b24352b11461081c578063b84ef0811461082f578063b88ad1e314610842578063be72f2d314610855578063c1b1c10e1461085d578063c83347af14610870578063ca16910f14610883578063ccd811c814610896578063d547741f1461089e578063d5f95aab146108b1578063da953911146108b9578063df160b3f146108cc578063e75f77e1146108d5578063f1c8c922146108e8578063f47f2f1d146108fb578063f86464081461090e578063fad1c85c14610921578063fc7e9c6f1461093457600080fd5b806301ffc9a714610358578063037859af146103805780630e1e998f146103a057806311f1c8bf146103b75780631814a5b1146103ca5780631e725567146103d357806322985246146103e8578063248a9ca3146103fd57806324d7806c14610410578063265705b1146104235780632e17de78146104365780632f2ff15d1461044957806330e06e8b1461045c57806336568abe14610464578063385030b41461047757806340a5737f1461048057806341c04d5e1461049357806347e1b372146104a857806349ec9883146104b05780634e533572146104c35780634e6c4466146105525780635720bf3a146105725780635746248f1461057b5780635dc3c29a1461058e5780635f338352146105db57806361d027b3146105e357806365cb3a83146105f65780636d1c789f146105fe578063704802751461060757806370a082311461061a57806375829def1461062d57806375b238fc1461064057806377d73dc61461066757806378ad14051461067a57806379a34c79146106835780637cc0fee614610696575b600080fd5b61036b6103663660046153e2565b61093c565b60405190151581526020015b60405180910390f35b61039361038e366004615193565b610973565b6040516103779190615695565b6103a9600d5481565b604051908152602001610377565b6103a96103c536600461539f565b6109df565b6103a960065481565b6103e66103e1366004615422565b6109fa565b005b6103a9600080516020615cdd83398151915281565b6103a961040b36600461539f565b610b9b565b61036b61041e366004615193565b610bb0565b6103e66104313660046151ad565b610bca565b6103e661044436600461539f565b610d25565b6103e66104573660046153b7565b61115a565b6103a961117c565b6103e66104723660046153b7565b611235565b6103a9600c5481565b6103e661048e36600461539f565b6112b3565b6103a9600080516020615b8883398151915281565b6103e66112dd565b6103e66104be36600461539f565b6119c9565b6105406104d136600461539f565b600090815260116020908152604091829020825160c08101845281546001600160a01b03168082526001830154938201849052600283015494820185905260038301546060830181905260048401546080840181905260059094015460a0909301839052909593949390929190565b60405161037796959493929190615662565b600154610565906001600160a01b031681565b60405161037791906155a6565b6103a9600b5481565b6103a96105893660046151ef565b6119f3565b61054061059c36600461539f565b6011602052600090815260409020805460018201546002830154600384015460048501546005909501546001600160a01b039094169492939192909186565b6103a9611a24565b600254610565906001600160a01b031681565b6103e6611a36565b6103a9600e5481565b6103e6610615366004615193565b611a73565b6103a9610628366004615193565b611ab3565b6103e661063b366004615193565b611b89565b6103a97fdf8b4c520ffe197c5343c6f5aec59570151ef9a492f2c624fd45ddde6135ec4281565b6103a961067536600461539f565b611c3c565b6103a960075481565b6103e6610691366004615282565b611c5e565b6103a96106a436600461539f565b611e79565b6103a96106b7366004615218565b611ecd565b6007546103a9565b6103e66106d2366004615193565b612056565b6103e66106e5366004615422565b6120e0565b6103a96106f836600461539f565b60136020526000908152604090205481565b60035460045460055461071c92919083565b60405161037793929190615a8f565b61036b6107393660046153b7565b61220e565b6103a9612239565b6103e6610754366004615193565b61225c565b6103a961076736600461539f565b61228c565b6103e66122a5565b6103e6610782366004615340565b6122f1565b6103a961079536600461539f565b60126020526000908152604090205481565b6103a9600a5481565b6103a96107be36600461539f565b61237f565b6103a9600081565b6103a96107d936600461539f565b61238a565b6103a96107ec3660046151ef565b601060209081526000928352604080842090915290825290205481565b6103a961081736600461539f565b612514565b6103e661082a3660046154be565b612559565b6103e661083d366004615193565b612b04565b6103e6610850366004615466565b612b41565b6103e661326a565b6103a961086b36600461539f565b61329a565b6103a961087e36600461524a565b6132af565b6103a9610891366004615422565b613563565b6103a961380a565b6103e66108ac3660046153b7565b6138e8565b6103a9613905565b6103a96108c736600461539f565b613986565b6103a960095481565b6103e66108e336600461539f565b613994565b6103e66108f6366004615193565b613a1d565b61036b610909366004615193565b613ac1565b600054610565906001600160a01b031681565b61036b61092f366004615193565b613acd565b6103a9613ae7565b60006001600160e01b03198216637965db0b60e01b148061096d57506301ffc9a760e01b6001600160e01b03198316145b92915050565b6001600160a01b0381166000908152600f60209081526040918290208054835181840281018401909452808452606093928301828280156109d357602002820191906000526020600020905b8154815260200190600101908083116109bf575b50505050509050919050565b60008181526011602052604081206002015461096d9061228c565b8180610a215760405162461bcd60e51b8152600401610a18906159d1565b60405180910390fd5b8180610a3f5760405162461bcd60e51b8152600401610a18906159d1565b60008481526012602052604090205415610a9b5760405162461bcd60e51b815260206004820152601d60248201527f7468697320697320666f72206e6f6e2d6c6f636b2070726f647563742e0000006044820152606401610a18565b6000848152601160205260409020546001600160a01b0316338114610ad25760405162461bcd60e51b8152600401610a18906158b4565b6000858152601160205260409020600401544211610b2d5760405162461bcd60e51b815260206004820152601860248201527732b732103a34b6b2903430b9903737ba103830b9b9b2b21760411b6044820152606401610a18565b610b356112dd565b610b428560008087613b1f565b600054610b59906001600160a01b03168286614099565b7f5ac7224c417abee0b26a4daa9b5221c45297a5429fc56e11bc9170dabc15d33c818587604051610b8c939291906155d4565b60405180910390a15050505050565b60009081526014602052604090206001015490565b600061096d600080516020615b888339815191528361220e565b610bd333613acd565b610bef5760405162461bcd60e51b8152600401610a18906159fd565b826001600160a01b038116610c165760405162461bcd60e51b8152600401610a1890615885565b826001600160a01b038116610c3d5760405162461bcd60e51b8152600401610a1890615885565b826001600160a01b038116610c645760405162461bcd60e51b8152600401610a1890615885565b6000546001600160a01b038781169116141580610c8f57506001546001600160a01b03868116911614155b80610ca857506002546001600160a01b03858116911614155b610ce35760405162461bcd60e51b815260206004820152600c60248201526b73616d65206164647265737360a01b6044820152606401610a18565b5050600080546001600160a01b039586166001600160a01b03199182161790915560018054948616948216949094179093555060028054919093169116179055565b8080610d435760405162461bcd60e51b8152600401610a18906159d1565b600082815260116020526040902080546001600160a01b0316338114610da35760405162461bcd60e51b815260206004820152601560248201527431b0b63632b91034b9903737ba1039ba30b5b2b91760591b6044820152606401610a18565b42826004015410610df05760405162461bcd60e51b815260206004820152601760248201527632b732103a34b6b2903430b9b713ba103830b9b9b2b21760491b6044820152606401610a18565b610df86112dd565b6000610e0385612514565b905060008111610e4d5760405162461bcd60e51b81526020600482015260156024820152741e995c9bc818db185a5b58589b1948185b5bdd5b9d605a1b6044820152606401610a18565b6000610e5b6107678761329a565b9050600084600101549050600060126000898152602001908152602001600020549050610eb160405180604001604052806011815260200170756e7374616b6520616d6f756e7420257360781b815250856141a9565b610ef46040518060400160405280601e81526020017f756e7374616b65205f7374616b65496e666f2e6465706f73697420202573000081525087600101546141a9565b610f356040518060400160405280601b81526020017a756e7374616b65205f7374616b65496e666f2e4c544f532020257360281b81525087600201546141a9565b610f756040518060400160405280601c81526020017b756e7374616b65207374616b696e675072696e636970616c2020257360201b815250600a546141a9565b81600a6000828254610f879190615afc565b9091555050600286015460098054600090610fa3908490615afc565b909155505080156110325760015460405163c0a37b3f60e01b81526001600160a01b039091169063c0a37b3f90610fe090889085906004016155f5565b600060405180830381600087803b158015610ffa57600080fd5b505af115801561100e573d6000803e3d6000fd5b50505060008981526012602090815260408083208390558483526013909152812055505b600061103e868a6141ee565b905061107f6040518060400160405280601d81526020017f756e7374616b6520757365725374616b654964496e6465782020202573000000815250826141a9565b6110898982614463565b828411156110fd576002546001600160a01b031663013d02d6306110ad8688615afc565b6040518363ffffffff1660e01b81526004016110ca9291906155f5565b600060405180830381600087803b1580156110e457600080fd5b505af11580156110f8573d6000803e3d6000fd5b505050505b600054611114906001600160a01b03168787614099565b7f7fc4727e062e336010f2c282598ef5f14facb3de68cf8195c2f23e1454b2b74e86868b604051611147939291906155d4565b60405180910390a1505050505050505050565b61116382610b9b565b61116d81336144ea565b611177838361454e565b505050565b60025460405163099e2b0b60e31b81526000916001600160a01b031690634cf15858906111b0906009903390600401615a78565b60206040518083038186803b1580156111c857600080fd5b505afa1580156111dc573d6000803e3d6000fd5b505050506040513d601f19601f82011682018060405250810190611200919061537f565b61121c5760405162461bcd60e51b8152600401610a1890615912565b600e805490600061122c83615b56565b91905055905090565b6001600160a01b03811633146112a55760405162461bcd60e51b815260206004820152602f60248201527f416363657373436f6e74726f6c3a2063616e206f6e6c792072656e6f756e636560448201526e103937b632b9903337b91039b2b63360891b6064820152608401610a18565b6112af82826145d4565b5050565b6112bc33613acd565b6112d85760405162461bcd60e51b8152600401610a18906159fd565b600755565b61131e6040518060400160405280601a815260200179726562617365496e6465782065706f63682e656e64203a20257360301b8152506003600201546141a9565b61135d6040518060400160405280602081526020017f726562617365496e64657820626c6f636b2e74696d657374616d70203a202573815250426141a9565b6113a16040518060400160405280601e81526020017f726562617365496e6465782065706f63682e6c656e6774685f203a20257300008152506003600001546141a9565b6113dc60405180604001604052806017815260200176726562617365496e64657820696e6465785f203a20257360481b8152506007546141a9565b60055442106119c757600354600554600091906113f99042615afc565b111561141c5760035460055461140f9042615afc565b6114199190615abd565b90505b61145a6040518060400160405280601c81526020017b726562617365496e6465782065706f63684e756d626572203a20257360201b815250826141a9565b611465816001615aa5565b6003546114729190615add565b60058054600090611484908490615aa5565b9091555081905061149481615b56565b9150506114d56040518060400160405280601c81526020017b726562617365496e6465782065706f63684e756d626572203a20257360201b815250826141a9565b6115166040518060400160405280601a815260200179726562617365496e6465782065706f63682e656e64203a20257360301b8152506003600201546141a9565b60075460018211156115b657600754600b546040516379e42f5d60e11b815273__$23c3f0c4d39c3898c699ac978f80cfe781$__9263f3c85eba9261155f928790600401615a8f565b60206040518083038186803b15801561157757600080fd5b505af415801561158b573d6000803e3d6000fd5b505050506040513d601f19601f820116820180604052508101906115af919061540a565b90506115ca565b81600114156115ca576115c7613ae7565b90505b61160560405180604001604052806019815260200178726562617365496e646578206e6577496e646578203a20257360381b815250826141a9565b6116436040518060400160405280601a815260200179726562617365496e64657820746f74616c4c544f53203a20257360301b8152506009546141a9565b600061164d61380a565b905061168d6040518060400160405280601c81526020017b726562617365496e6465782072756e776179544f532829203a20257360201b815250826141a9565b8061169757505050565b6007546000670de0b6b3a76400006116af8386615afc565b6009546116bc9190615add565b6116c69190615abd565b905061170260405180604001604052806018815260200177726562617365496e646578206e656564546f73203a20257360401b815250826141a9565b8281101561175957600784905560048054869190600090611724908490615aa5565b9091555050600954604051600080516020615bf08339815191529161174c9185918891615a8f565b60405180910390a1611986565b600185111561198657600073__$23c3f0c4d39c3898c699ac978f80cfe781$__6343b4408261178661380a565b61179160095461228c565b600b546040518463ffffffff1660e01b81526004016117b293929190615a8f565b60206040518083038186803b1580156117ca57600080fd5b505af41580156117de573d6000803e3d6000fd5b505050506040513d601f19601f82011682018060405250810190611802919061540a565b9050611826604051806060016040528060258152602001615cb860259139826141a9565b8581101561198457600754600b546040516379e42f5d60e11b815273__$23c3f0c4d39c3898c699ac978f80cfe781$__9263f3c85eba9261186b928690600401615a8f565b60206040518083038186803b15801561188357600080fd5b505af4158015611897573d6000803e3d6000fd5b505050506040513d601f19601f820116820180604052508101906118bb919061540a565b94506118df604051806060016040528060228152602001615ba860229139866141a9565b670de0b6b3a7640000600754866118f69190615afc565b6009546119039190615add565b61190d9190615abd565b9150611931604051806060016040528060248152602001615c1060249139836141a9565b8382101561198457600785905560048054829190600090611953908490615aa5565b9091555050600954604051600080516020615bf08339815191529161197b9186918991615a8f565b60405180910390a15b505b6119c160405180604001604052806017815260200176726562617365496e64657820696e6465785f203a20257360481b8152506007546141a9565b50505050505b565b6119d233613acd565b6119ee5760405162461bcd60e51b8152600401610a18906159fd565b600b55565b600f6020528160005260406000208181548110611a0f57600080fd5b90600052602060002001600091509150505481565b6000611a3160095461228c565b905090565b611a3f33613acd565b611a5b5760405162461bcd60e51b8152600401610a18906159fd565b6119c7600080516020615cdd83398151915233611235565b611a7c33613ac1565b611a985760405162461bcd60e51b8152600401610a189061583d565b611ab0600080516020615b888339815191528261115a565b50565b6001600160a01b0381166000908152600f6020908152604080832080548251818502810185019093528083528493830182828015611b1057602002820191906000526020600020905b815481526020019060010190808311611afc575b50505050509050805160001415611b2a5750600092915050565b60005b8151811015611b8257611b66828281518110611b5957634e487b7160e01b600052603260045260246000fd5b602002602001015161237f565b611b709084615aa5565b9250611b7b81615b56565b9050611b2d565b5050919050565b611b9233610bb0565b80611ba15750611ba133613ac1565b611bbd5760405162461bcd60e51b8152600401610a18906157c9565b6001600160a01b038116611be35760405162461bcd60e51b8152600401610a189061580b565b336001600160a01b0382161415611c0c5760405162461bcd60e51b8152600401610a18906158e2565b611c24600080516020615b888339815191528261115a565b611ab0600080516020615b8883398151915233611235565b600754600090611c5483670de0b6b3a7640000615add565b61096d9190615abd565b611c6733610bb0565b80611c765750611c7633613ac1565b611c925760405162461bcd60e51b8152600401610a18906157c9565b86611ccd5760405162461bcd60e51b815260206004820152600b60248201526a0f4cae4de40d8cadccee8d60ab1b6044820152606401610a18565b868514611d135760405162461bcd60e51b81526020600482015260146024820152730eee4dedcce40c4c2d8c2dcc6ca40d8cadccee8d60631b6044820152606401610a18565b868314611d585760405162461bcd60e51b81526020600482015260136024820152720eee4dedcce40e0cae4d2dec840d8cadccee8d606b1b6044820152606401610a18565b868114611d9e5760405162461bcd60e51b81526020600482015260146024820152730eee4dedcce40e8ded6cadc92c840d8cadccee8d60631b6044820152606401610a18565b60005b87811015611e6e57611e5b898983818110611dcc57634e487b7160e01b600052603260045260246000fd5b9050602002016020810190611de19190615193565b888884818110611e0157634e487b7160e01b600052603260045260246000fd5b90506020020135878785818110611e2857634e487b7160e01b600052603260045260246000fd5b90506020020135868686818110611e4f57634e487b7160e01b600052603260045260246000fd5b9050602002013561463b565b5080611e6681615b56565b915050611da1565b505050505050505050565b60008180611e995760405162461bcd60e51b8152600401610a18906159d1565b600083815260116020526040902060040154421115611ec257611ebb8361329a565b9150611ec7565b600091505b50919050565b60025460405163099e2b0b60e31b81526000916001600160a01b031690634cf1585890611f01906009903390600401615a78565b60206040518083038186803b158015611f1957600080fd5b505afa158015611f2d573d6000803e3d6000fd5b505050506040513d601f19601f82011682018060405250810190611f51919061537f565b611f6d5760405162461bcd60e51b8152600401610a1890615912565b836001600160a01b038116611f945760405162461bcd60e51b8152600401610a1890615885565b8380611fb25760405162461bcd60e51b8152600401610a18906159d1565b8380611fd05760405162461bcd60e51b8152600401610a18906159d1565b611fd9876146cf565b611fe161475e565b9350611fed878561476f565b611ff56112dd565b61200f878588600c54426120099190615aa5565b896147b2565b7fe1f3800913baabb4cd64b85c322408d211fe8d69b0412ed551ae01195a86d2a487878787604051612044949392919061560e565b60405180910390a15050509392505050565b61205f33613ac1565b61207b5760405162461bcd60e51b8152600401610a189061583d565b6001600160a01b0381166120a15760405162461bcd60e51b8152600401610a189061580b565b336001600160a01b03821614156120ca5760405162461bcd60e51b8152600401610a18906158e2565b6120d560008261115a565b611ab0600033611235565b81806120fe5760405162461bcd60e51b8152600401610a18906159d1565b818061211c5760405162461bcd60e51b8152600401610a18906159d1565b6000848152601160205260409020546001600160a01b03163381146121535760405162461bcd60e51b8152600401610a18906158b4565b6001600160a01b03811660009081526010602090815260408083208884529091529020546001146121c65760405162461bcd60e51b815260206004820152601f60248201527f69742773206e6f742073696d706c65207374616b696e672070726f64756374006044820152606401610a18565b6121ce6112dd565b6121db81868660006148db565b7f3580fad54ac878fb39f354ed4980379c99975b958cc12f96c2342daf1a943384818587604051610b8c939291906155d4565b60009182526014602090815260408084206001600160a01b0393909316845291905290205460ff1690565b600042600360020154101561224e5750600090565b600554611a31904290615afc565b61226533613ac1565b6122815760405162461bcd60e51b8152600401610a189061583d565b611ab0600082614a50565b6000670de0b6b3a764000060075483611c549190615add565b6122ae33610bb0565b806122bd57506122bd33613ac1565b6122d95760405162461bcd60e51b8152600401610a18906157c9565b6119c7600080516020615b8883398151915233611235565b8061232c5760405162461bcd60e51b815260206004820152600b60248201526a6e6f207374616b6549647360a81b6044820152606401610a18565b8060005b818110156123795761236784848381811061235b57634e487b7160e01b600052603260045260246000fd5b90506020020135610d25565b8061237181615b56565b915050612330565b50505050565b600061096d8261329a565b600081806123aa5760405162461bcd60e51b8152600401610a18906159d1565b600054604051636eb1769f60e11b815284916001600160a01b03169063dd62ed3e906123dc90339030906004016155ba565b60206040518083038186803b1580156123f457600080fd5b505afa158015612408573d6000803e3d6000fd5b505050506040513d601f19601f8201168201806040525081019061242c919061540a565b101561244a5760405162461bcd60e51b8152600401610a1890615765565b600054612462906001600160a01b0316333086614a5a565b3361246c816146cf565b6001600160a01b0381166000908152600f60205260409020805460019081106124a557634e487b7160e01b600052603260045260246000fd5b906000526020600020015492506124ba6112dd565b6124d28184866124cb426001615aa5565b60006147b2565b7f1449c6dd7851abc30abf37f57715f492010519147cc2652fbc38202c18a6ee90818585604051612505939291906155d4565b60405180910390a15050919050565b600081806125345760405162461bcd60e51b8152600401610a18906159d1565b600083815260116020526040902060040154421115611ec257611ebb6107678461329a565b60008311806125685750600082115b806125735750600081115b6125b05760405162461bcd60e51b815260206004820152600e60248201526d185b1b081e995c9bc81a5b9c1d5d60921b6044820152606401610a18565b600084815260126020908152604080832054601190925290912080546001600160a01b03163381146125f45760405162461bcd60e51b8152600401610a18906158b4565b6001600160a01b03811660009081526010602090815260408083208a84529091529020546001106126735760405162461bcd60e51b815260206004820152602360248201527f69742773206e6f7420666f722073696d706c65207374616b65206f7220656d706044820152623a3c9760e91b6064820152608401610a18565b6000612682836002015461228c565b9050808611156126d25760405162461bcd60e51b815260206004820152601b60248201527a1c995b585a5b9959151bdcc81a5cc81a5b9cdd59999a58da595b9d602a1b6044820152606401610a18565b831561281157600154604051639ce5630560e01b8152600481018690526000916001600160a01b031690639ce563059060240160606040518083038186803b15801561271d57600080fd5b505afa158015612731573d6000803e3d6000fd5b505050506040513d601f19601f820116820180604052508101906127559190615491565b50915050428110801561276b5750428460040154105b6127875760405162461bcd60e51b8152600401610a1890615942565b60015460405163c0a37b3f60e01b81526001600160a01b039091169063c0a37b3f906127b990869089906004016155f5565b600060405180830381600087803b1580156127d357600080fd5b505af11580156127e7573d6000803e3d6000fd5b50505060008a81526012602090815260408083208390558883526013909152812055506128349050565b428360040154106128345760405162461bcd60e51b8152600401610a1890615942565b86156128f257600054604051636eb1769f60e11b815288916001600160a01b03169063dd62ed3e9061286c90339030906004016155ba565b60206040518083038186803b15801561288457600080fd5b505afa158015612898573d6000803e3d6000fd5b505050506040513d601f19601f820116820180604052508101906128bc919061540a565b10156128da5760405162461bcd60e51b8152600401610a1890615765565b6000546128f2906001600160a01b031633308a614a5a565b600080861561299a576001546040516316045cb160e31b815273__$23c3f0c4d39c3898c699ac978f80cfe781$__9163b022e58891612941916001600160a01b03169042908c906004016155d4565b604080518083038186803b15801561295857600080fd5b505af415801561296c573d6000803e3d6000fd5b505050506040513d601f19601f820116820180604052508101906129909190615443565b9092509050612a2a565b600160009054906101000a90046001600160a01b03166001600160a01b031663fd2dcecf6040518163ffffffff1660e01b815260040160206040518083038186803b1580156129e857600080fd5b505afa1580156129fc573d6000803e3d6000fd5b505050506040513d601f19601f82011682018060405250810190612a20919061540a565b9150846004015490505b612a33846146cf565b612a3b6112dd565b612a478a828b8b613b1f565b60008a8815612a9857612a5a8b86615aa5565b9450612a668a86615afc565b9450612a7486868b87614b6d565b60008281526012602090815260408083208490558383526013909152902082905591505b8915612ab557600054612ab5906001600160a01b0316338c614099565b7fbc7a4cb4698ff9bbd20c2fa066bd7234e4dbb886a81ea2f45677f5f942c6e9e8868c8c8c8587604051612aee96959493929190615662565b60405180910390a1505050505050505050505050565b612b0d33613ac1565b612b295760405162461bcd60e51b8152600401610a189061583d565b611ab0600080516020615cdd8339815191528261115a565b8280612b5f5760405162461bcd60e51b8152600401610a18906159d1565b6000831180612b6e5750600082115b612bba5760405162461bcd60e51b815260206004820152601d60248201527f7a65726f205f616d6f756e7420616e64205f756e6c6f636b5765656b730000006044820152606401610a18565b6000848152601160205260409020546001600160a01b0316338114612bf15760405162461bcd60e51b8152600401610a18906158b4565b8215612c7b576001600160a01b0381166000908152601060209081526040808320888452909152902054600110612c7b5760405162461bcd60e51b815260206004820152602860248201527f697427732073696d706c65207374616b696e672070726f647563742c2063616e60448201526713ba103637b1b59760c11b6064820152608401610a18565b612c836112dd565b612c8f818686866148db565b6001546040805163fd2dcecf60e01b815290516000926001600160a01b03169163fd2dcecf916004808301926020929190829003018186803b158015612cd457600080fd5b505afa158015612ce8573d6000803e3d6000fd5b505050506040513d601f19601f82011682018060405250810190612d0c919061540a565b6000878152601260209081526040808320546001600160a01b0387168452601083528184208b855290925290912054919250906001108015612d4c575080155b8015612d585750600085115b15612dac576000612d6b6107678961329a565b612d759088615aa5565b90506000612d8585838987614b6d565b60008a81526012602090815260408083208490559282526013905220899055506132229050565b6001600160a01b03831660009081526010602090815260408083208a84529091529020546001108015612ddf5750600081115b1561322257600154604051639ce5630560e01b81526004810183905260009182916001600160a01b0390911690639ce563059060240160606040518083038186803b158015612e2d57600080fd5b505afa158015612e41573d6000803e3d6000fd5b505050506040513d601f19601f82011682018060405250810190612e659190615491565b92509250504282118015612e89575060008981526011602052604090206004015442105b612ed05760405162461bcd60e51b81526020600482015260186024820152771b1bd8dac8195b99081d1a5b59481a185cc81c185cdcd95960421b6044820152606401610a18565b866130235760035460008a815260116020526040812060040154909190612ef8904290615afc565b612f029190615abd565b600b546040516379e42f5d60e11b815291925060009173__$23c3f0c4d39c3898c699ac978f80cfe781$__9163f3c85eba91612f44918e918790600401615a8f565b60206040518083038186803b158015612f5c57600080fd5b505af4158015612f70573d6000803e3d6000fd5b505050506040513d601f19601f82011682018060405250810190612f94919061540a565b905060008111612fb65760405162461bcd60e51b8152600401610a1890615799565b60015460405163077f15b960e51b81526001600160a01b039091169063efe2b72090612fea908a90899086906004016155d4565b600060405180830381600087803b15801561300457600080fd5b505af1158015613018573d6000803e3d6000fd5b50505050505061321f565b861561321f576003546000908190819061303d888c615add565b6130479190615abd565b600b546040516379e42f5d60e11b815291925073__$23c3f0c4d39c3898c699ac978f80cfe781$__9163f3c85eba91613087918891908690600401615a8f565b60206040518083038186803b15801561309f57600080fd5b505af41580156130b3573d6000803e3d6000fd5b505050506040513d601f19601f820116820180604052508101906130d7919061540a565b92506130e38484615afc565b92508a156131ac576003546000906130fb898d615add565b6131054289615afc565b61310f9190615aa5565b6131199190615abd565b905073__$23c3f0c4d39c3898c699ac978f80cfe781$__63f3c85eba8d600b54846040518463ffffffff1660e01b815260040161315893929190615a8f565b60206040518083038186803b15801561317057600080fd5b505af4158015613184573d6000803e3d6000fd5b505050506040513d601f19601f820116820180604052508101906131a8919061540a565b9250505b6001546001600160a01b031663b839c0a589886131c98688615aa5565b8e6040518563ffffffff1660e01b81526004016131e9949392919061560e565b600060405180830381600087803b15801561320357600080fd5b505af1158015613217573d6000803e3d6000fd5b505050505050505b50505b7f8123201ee995a827ab51b6fa7437b3656f79bb6ce0ec96a8ec91516a335742068387878a85604051613259959493929190615634565b60405180910390a150505050505050565b61327333613ac1565b61328f5760405162461bcd60e51b8152600401610a189061583d565b6119c7600033611235565b60009081526011602052604090206002015490565b60025460405163099e2b0b60e31b81526000916001600160a01b031690634cf15858906132e3906009903390600401615a78565b60206040518083038186803b1580156132fb57600080fd5b505afa15801561330f573d6000803e3d6000fd5b505050506040513d601f19601f82011682018060405250810190613333919061537f565b61334f5760405162461bcd60e51b8152600401610a1890615912565b846001600160a01b0381166133765760405162461bcd60e51b8152600401610a1890615885565b84806133945760405162461bcd60e51b8152600401610a18906159d1565b83806133b25760405162461bcd60e51b8152600401610a18906159d1565b85806133d05760405162461bcd60e51b8152600401610a18906159d1565b6001546040516316045cb160e31b8152600091829173__$23c3f0c4d39c3898c699ac978f80cfe781$__9163b022e5889161341b916001600160a01b03169042908d906004016155d4565b604080518083038186803b15801561343257600080fd5b505af4158015613446573d6000803e3d6000fd5b505050506040513d601f19601f8201168201806040525081019061346a9190615443565b915091506000821161348e5760405162461bcd60e51b8152600401610a1890615978565b600081116134ae5760405162461bcd60e51b8152600401610a189061573c565b6134b78b6146cf565b6134bf61475e565b96506134cb8b8861476f565b6134d36112dd565b6134e08b888c848d6147b2565b60006134ee8c8c8b86614b6d565b60008981526012602090815260408083208490558383526013909152908190208a9055519091507fb47948ad9395db9a50783bfd56f5ee0ed5ca88bf926550eb5713c5fff7250e319061354c908e908e908d908f908e908890615662565b60405180910390a150505050505050949350505050565b600082806135835760405162461bcd60e51b8152600401610a18906159d1565b82806135a15760405162461bcd60e51b8152600401610a18906159d1565b600b54806135c15760405162461bcd60e51b8152600401610a18906159d1565b600054604051636eb1769f60e11b815287916001600160a01b03169063dd62ed3e906135f390339030906004016155ba565b60206040518083038186803b15801561360b57600080fd5b505afa15801561361f573d6000803e3d6000fd5b505050506040513d601f19601f82011682018060405250810190613643919061540a565b10156136615760405162461bcd60e51b8152600401610a1890615765565b6001546040516316045cb160e31b8152600091829173__$23c3f0c4d39c3898c699ac978f80cfe781$__9163b022e588916136ac916001600160a01b03169042908c906004016155d4565b604080518083038186803b1580156136c357600080fd5b505af41580156136d7573d6000803e3d6000fd5b505050506040513d601f19601f820116820180604052508101906136fb9190615443565b915091506000821161371f5760405162461bcd60e51b8152600401610a1890615978565b6000811161373f5760405162461bcd60e51b8152600401610a189061573c565b600054613757906001600160a01b031633308b614a5a565b33613761816146cf565b61376961475e565b9650613775818861476f565b61377d6112dd565b61378b81888b8560006147b2565b6000613799828b8b87614b6d565b60008981526012602090815260408083208490558383526013909152908190208a9055519091507f354a6b3cd6afbe9ef2b8c8bbc20901d395d112a1891737da4aff281b283cca42906137f59084908d908d908d908790615634565b60405180910390a15050505050505092915050565b600080600260009054906101000a90046001600160a01b03166001600160a01b031663d11aca626040518163ffffffff1660e01b815260040160206040518083038186803b15801561385b57600080fd5b505afa15801561386f573d6000803e3d6000fd5b505050506040513d601f19601f82011682018060405250810190613893919061540a565b9050600061389f613905565b905060006138ae60095461228c565b9050806138bb8385615aa5565b10156138cb576000935050505090565b806138d68385615aa5565b6138e09190615afc565b935050505090565b6138f182610b9b565b6138fb81336144ea565b61117783836145d4565b600080546040516370a0823160e01b81526001600160a01b03909116906370a08231906139369030906004016155a6565b60206040518083038186803b15801561394e57600080fd5b505afa158015613962573d6000803e3d6000fd5b505050506040513d601f19601f82011682018060405250810190611a31919061540a565b600061096d6107678361329a565b61399d33613acd565b6139b95760405162461bcd60e51b8152600401610a18906159fd565b80806139d75760405162461bcd60e51b8152600401610a18906159d1565b81600c541415613a175760405162461bcd60e51b815260206004820152600b60248201526a1cd85b59481c195c9a5bd960aa1b6044820152606401610a18565b50600c55565b613a2633613acd565b613a425760405162461bcd60e51b8152600401610a18906159fd565b6001600160a01b038116613a685760405162461bcd60e51b8152600401610a189061580b565b336001600160a01b0382161415613a915760405162461bcd60e51b8152600401610a18906158e2565b613aa9600080516020615cdd8339815191528261115a565b611ab0600080516020615cdd83398151915233611235565b600061096d818361220e565b600061096d600080516020615cdd8339815191528361220e565b6000670de0b6b3a7640000600b54670de0b6b3a7640000613b089190615aa5565b600754613b159190615add565b611a319190615abd565b600854600114613b415760405162461bcd60e51b8152600401610a1890615a46565b60006008556040805180820190915260198152785f7570646174655374616b65496e666f20737461727420257360381b6020820152613b8090856141a9565b6000848152601160205260409020546001600160a01b0316613bda5760405162461bcd60e51b81526020600482015260136024820152726e6f6e2d6578697374207374616b65496e666f60681b6044820152606401610a18565b6000821180613be95750600081115b80613bf45750600083115b613c2f5760405162461bcd60e51b815260206004820152600c60248201526b7a65726f20416d6f756e747360a01b6044820152606401610a18565b600084815260116020526040902060020154613c795760405162461bcd60e51b81526020600482015260096024820152687a65726f204c544f5360b81b6044820152606401610a18565b600084815260116020526040812060020154613c949061228c565b9050613cc9604051806040016040528060128152602001715f7570646174655374616b65496e666f203160701b815250614d35565b80821115613d185760405162461bcd60e51b815260206004820152601c60248201527b1cdd185ad948185b5bdd5b9d081a5cc81a5b9cdd59999a58da595b9d60221b6044820152606401610a18565b600085815260116020526040812081908515613d3a57613d3786611c3c565b92505b8415613d4c57613d4985611c3c565b91505b4260038201556004810187905560408051606081019091526028808252613d809190615c90602083013982600401546141a9565b613dbf6040518060400160405280602081526020017f5f7570646174655374616b65496e666f207374616b6564416d6f756e74202573815250856141a9565b613de5604051806060016040528060268152602001615bca6026913982600101546141a9565b60008160010154851115613e05576001820154613e029086615afc565b90505b613e38604051806040016040528060128152602001715f7570646174655374616b65496e666f203360701b815250614d35565b8315613e715783826002016000828254613e529190615aa5565b925050819055508360096000828254613e6b9190615aa5565b90915550505b8215613eaa5782826002016000828254613e8b9190615afc565b925050819055508260096000828254613ea49190615afc565b90915550505b6000871180613eb95750600081115b80613ec45750600086115b15613f1e578581888460010154613edb9190615aa5565b613ee59190615aa5565b613eef9190615afc565b6001830155600a5486908290613f06908a90615aa5565b613f109190615aa5565b613f1a9190615afc565b600a555b613f3f6040518060600160405280602e8152602001615c62602e9139614d35565b613f7b6040518060400160405280601a8152602001795f7570646174655374616b65496e666f2070726f66697420257360301b815250826141a9565b613f9f604051806060016040528060248152602001615cfd60249139600a546141a9565b613fde6040518060400160405280601d81526020017f5f7570646174655374616b65496e666f20636c61696d4c746f73202573000000815250846141a9565b61401f6040518060400160405280601d81526020017f5f7570646174655374616b65496e666f20746f74616c4c544f532025730000008152506009546141a9565b801561408957600254604051629e816b60e11b81526001600160a01b039091169063013d02d69061405690309085906004016155f5565b600060405180830381600087803b15801561407057600080fd5b505af1158015614084573d6000803e3d6000fd5b505050505b5050600160085550505050505050565b600080846001600160a01b031663a9059cbb60e01b85856040516024016140c19291906155f5565b60408051601f198184030181529181526020820180516001600160e01b03166001600160e01b03199094169390931790925290516140ff919061551b565b6000604051808303816000865af19150503d806000811461413c576040519150601f19603f3d011682016040523d82523d6000602084013e614141565b606091505b509150915081801561416b57508051158061416b57508080602001905181019061416b919061537f565b6119c15760405162461bcd60e51b815260206004820152600f60248201526e1514905394d1915497d19052531151608a1b6044820152606401610a18565b6112af82826040516024016141bf92919061571a565b60408051601f198184030181529190526020810180516001600160e01b03166309710a9d60e41b179052614d74565b600061422b604051806040016040528060188152602001775f64656c657465557365725374616b65496420257320257360401b8152508484614d95565b506001600160a01b0382166000908152601060209081526040808320848452825291829020548251808401909352601f83527f5f64656c657465557365725374616b6549642020637572496e64657820257300918301919091529061429090826141a9565b600181111561096d576142d36040518060600160405280602e8152602001615c34602e91396001600160a01b0385166000908152600f60205260409020546141a9565b6001600160a01b0383166000908152600f60205260409020546142f890600190615afc565b8110156143fc576001600160a01b0383166000908152600f60205260408120805461432590600190615afc565b8154811061434357634e487b7160e01b600052603260045260246000fd5b9060005260206000200154905061438f6040518060400160405280601d81526020017f5f64656c657465557365725374616b65496420206c6173744964202573000000815250826141a9565b6001600160a01b0384166000908152600f602052604090208054829190849081106143ca57634e487b7160e01b600052603260045260246000fd5b60009182526020808320909101929092556001600160a01b038616815260108252604080822093825292909152208190555b6001600160a01b03831660008181526010602090815260408083208684528252808320839055928252600f90522080548061444757634e487b7160e01b600052603160045260246000fd5b6001900381819060005260206000200160009055905592915050565b60018111156144ab5750600090815260116020526040812080546001600160a01b03191681556001810182905560028101829055600381018290556004810182905560050155565b50600090815260116020526040812080546001600160a01b03191681556001810182905560028101829055600381018290556004810182905560050155565b6144f4828261220e565b6112af5761450c816001600160a01b03166014614ddc565b614517836020614ddc565b604051602001614528929190615537565b60408051601f198184030181529082905262461bcd60e51b8252610a18916004016156d9565b614558828261220e565b6112af5760008281526014602090815260408083206001600160a01b03851684529091529020805460ff191660011790556145903390565b6001600160a01b0316816001600160a01b0316837f2f8788117e7eff1d82e926ec794901d17c78024a50270940304540a733656f0d60405160405180910390a45050565b6145de828261220e565b156112af5760008281526014602090815260408083206001600160a01b0385168085529252808320805460ff1916905551339285917ff6391f5c32d9c69d2a47ea670b442974b53935d1edc7fd64eb21e047a839171b9190a45050565b6000838061465b5760405162461bcd60e51b8152600401610a18906159d1565b83806146795760405162461bcd60e51b8152600401610a18906159d1565b614682876146cf565b61468a61475e565b9250614696878461476f565b6146a48784888860006147b2565b5050600081815260126020908152604080832085905593825260139052919091208190559392505050565b6001600160a01b0381166000908152600f6020526040902054611ab057600d80549060006146fc83615b56565b90915550506001600160a01b03166000818152600f6020818152604080842080546001808201835582875284872091820187905596865260108452828620600d8054885290855292862087905593909252548154948501825592529190910155565b600d80546000918261122c83615b56565b6001600160a01b039091166000908152600f6020818152604080842080546010845282862087875284529185208290559282526001810183559183529091200155565b6008546001146147d45760405162461bcd60e51b8152600401610a1890615a46565b60006008819055848152601160205260409020546001600160a01b03161561480e5760405162461bcd60e51b8152600401610a18906159a4565b600061481984611c3c565b6040805160c0810182526001600160a01b03898116825260208083018981528385018681524260608601908152608086018b815260a087018b815260008f81526011909652978520965187546001600160a01b031916961695909517865591516001860155516002850155516003840155905160048301559151600590910155600a805492935086929091906148b0908490615aa5565b9250508190555080600960008282546148c99190615aa5565b90915550506001600855505050505050565b811561499957600054604051636eb1769f60e11b815283916001600160a01b03169063dd62ed3e9061491390889030906004016155ba565b60206040518083038186803b15801561492b57600080fd5b505afa15801561493f573d6000803e3d6000fd5b505050506040513d601f19601f82011682018060405250810190614963919061540a565b10156149815760405162461bcd60e51b8152600401610a1890615765565b600054614999906001600160a01b0316853085614a5a565b6000808215614a3d576001546040516316045cb160e31b815273__$23c3f0c4d39c3898c699ac978f80cfe781$__9163b022e588916149e9916001600160a01b03169060009088906004016155d4565b604080518083038186803b158015614a0057600080fd5b505af4158015614a14573d6000803e3d6000fd5b505050506040513d601f19601f82011682018060405250810190614a389190615443565b925090505b614a48858584614fc4565b505050505050565b6112af828261454e565b604080516001600160a01b0385811660248301528481166044830152606480830185905283518084039091018152608490920183526020820180516001600160e01b03166323b872dd60e01b1790529151600092839290881691614abe919061551b565b6000604051808303816000865af19150503d8060008114614afb576040519150601f19603f3d011682016040523d82523d6000602084013e614b00565b606091505b5091509150818015614b2a575080511580614b2a575080806020019051810190614b2a919061537f565b614a485760405162461bcd60e51b81526020600482015260146024820152731514905394d1915497d19493d357d1905253115160621b6044820152606401610a18565b6000600854600114614b915760405162461bcd60e51b8152600401610a1890615a46565b60006008819055600b5460035473__$23c3f0c4d39c3898c699ac978f80cfe781$__9163f3c85eba91889190614bc7888a615add565b614bd19190615abd565b6040518463ffffffff1660e01b8152600401614bef93929190615a8f565b60206040518083038186803b158015614c0757600080fd5b505af4158015614c1b573d6000803e3d6000fd5b505050506040513d601f19601f82011682018060405250810190614c3f919061540a565b905060008111614c615760405162461bcd60e51b8152600401610a1890615799565b60015460405163036e72c360e21b81526001600160a01b0390911690630db9cb0c90614c95908990859089906004016155d4565b602060405180830381600087803b158015614caf57600080fd5b505af1158015614cc3573d6000803e3d6000fd5b505050506040513d601f19601f82011682018060405250810190614ce7919061540a565b915060008211614d275760405162461bcd60e51b815260206004820152600b60248201526a1e995c9bc81cd513d4da5960aa1b6044820152606401610a18565b506001600855949350505050565b611ab081604051602401614d4991906156d9565b60408051601f198184030181529190526020810180516001600160e01b031663104c13eb60e21b1790525b80516a636f6e736f6c652e6c6f67602083016000808483855afa5050505050565b611177838383604051602401614dad939291906156ec565b60408051601f198184030181529190526020810180516001600160e01b03166307c8121760e01b179052614d74565b60606000614deb836002615add565b614df6906002615aa5565b6001600160401b03811115614e1b57634e487b7160e01b600052604160045260246000fd5b6040519080825280601f01601f191660200182016040528015614e45576020820181803683370190505b509050600360fc1b81600081518110614e6e57634e487b7160e01b600052603260045260246000fd5b60200101906001600160f81b031916908160001a905350600f60fb1b81600181518110614eab57634e487b7160e01b600052603260045260246000fd5b60200101906001600160f81b031916908160001a9053506000614ecf846002615add565b614eda906001615aa5565b90505b6001811115614f6e576f181899199a1a9b1b9c1cb0b131b232b360811b85600f1660108110614f1c57634e487b7160e01b600052603260045260246000fd5b1a60f81b828281518110614f4057634e487b7160e01b600052603260045260246000fd5b60200101906001600160f81b031916908160001a90535060049490941c93614f6781615b3f565b9050614edd565b508315614fbd5760405162461bcd60e51b815260206004820181905260248201527f537472696e67733a20686578206c656e67746820696e73756666696369656e746044820152606401610a18565b9392505050565b600854600114614fe65760405162461bcd60e51b8152600401610a1890615a46565b60006008819055838152601160205260409020546001600160a01b031661501f5760405162461bcd60e51b8152600401610a18906159a4565b600082118061502e5750600081115b61507a5760405162461bcd60e51b815260206004820181905260248201527f7a65726f20616d6f756e7420616e64205f696e6372656173655365636f6e64736044820152606401610a18565b6000838152601160205260409020821561510357600061509984611c3c565b9050838260010160008282546150af9190615aa5565b92505081905550808260020160008282546150ca9190615aa5565b9250508190555083600a60008282546150e39190615aa5565b9250508190555080600960008282546150fc9190615aa5565b9091555050505b8115615123578181600401600082825461511d9190615aa5565b90915550505b505060016008555050565b80356001600160a01b038116811461514557600080fd5b919050565b60008083601f84011261515b578182fd5b5081356001600160401b03811115615171578182fd5b6020830191508360208260051b850101111561518c57600080fd5b9250929050565b6000602082840312156151a4578081fd5b614fbd8261512e565b6000806000606084860312156151c1578182fd5b6151ca8461512e565b92506151d86020850161512e565b91506151e66040850161512e565b90509250925092565b60008060408385031215615201578182fd5b61520a8361512e565b946020939093013593505050565b60008060006060848603121561522c578283fd5b6152358461512e565b95602085013595506040909401359392505050565b6000806000806080858703121561525f578081fd5b6152688561512e565b966020860135965060408601359560600135945092505050565b6000806000806000806000806080898b03121561529d578384fd5b88356001600160401b03808211156152b3578586fd5b6152bf8c838d0161514a565b909a50985060208b01359150808211156152d7578586fd5b6152e38c838d0161514a565b909850965060408b01359150808211156152fb578586fd5b6153078c838d0161514a565b909650945060608b013591508082111561531f578384fd5b5061532c8b828c0161514a565b999c989b5096995094979396929594505050565b60008060208385031215615352578182fd5b82356001600160401b03811115615367578283fd5b6153738582860161514a565b90969095509350505050565b600060208284031215615390578081fd5b81518015158114614fbd578182fd5b6000602082840312156153b0578081fd5b5035919050565b600080604083850312156153c9578182fd5b823591506153d96020840161512e565b90509250929050565b6000602082840312156153f3578081fd5b81356001600160e01b031981168114614fbd578182fd5b60006020828403121561541b578081fd5b5051919050565b60008060408385031215615434578182fd5b50508035926020909101359150565b60008060408385031215615455578182fd5b505080516020909101519092909150565b60008060006060848603121561547a578081fd5b505081359360208301359350604090920135919050565b6000806000606084860312156154a5578081fd5b8351925060208401519150604084015190509250925092565b600080600080608085870312156154d3578182fd5b5050823594602084013594506040840135936060013592509050565b60008151808452615507816020860160208601615b13565b601f01601f19169290920160200192915050565b6000825161552d818460208701615b13565b9190910192915050565b76020b1b1b2b9b9a1b7b73a3937b61d1030b1b1b7bab73a1604d1b815260008351615569816017850160208801615b13565b7001034b99036b4b9b9b4b733903937b6329607d1b601791840191820152835161559a816028840160208801615b13565b01602801949350505050565b6001600160a01b0391909116815260200190565b6001600160a01b0392831681529116602082015260400190565b6001600160a01b039390931683526020830191909152604082015260600190565b6001600160a01b03929092168252602082015260400190565b6001600160a01b0394909416845260208401929092526040830152606082015260800190565b6001600160a01b03959095168552602085019390935260408401919091526060830152608082015260a00190565b6001600160a01b03969096168652602086019490945260408501929092526060840152608083015260a082015260c00190565b6020808252825182820181905260009190848201906040850190845b818110156156cd578351835292840192918401916001016156b1565b50909695505050505050565b602081526000614fbd60208301846154ef565b6060815260006156ff60608301866154ef565b6001600160a01b039490941660208301525060400152919050565b60408152600061572d60408301856154ef565b90508260208301529392505050565b6020808252600f908201526e7a65726f20756e6c6f636b54696d6560881b604082015260600190565b6020808252601a908201527930b63637bbb0b731b29034b99034b739bab33334b1b4b2b73a1760311b604082015260600190565b6020808252601690820152751e995c9bc818dbdb5c1bdd5b99195908185b5bdd5b9d60521b604082015260600190565b60208082526022908201527f41636365737369626c653a2043616c6c6572206973206e6f7420616e2061646d60408201526134b760f11b606082015260800190565b60208082526018908201527741636365737369626c653a207a65726f206164647265737360401b604082015260600190565b60208082526028908201527f41636365737369626c653a2043616c6c6572206973206e6f7420616e2070726f6040820152673c3c9030b236b4b760c11b606082015260800190565b6020808252601590820152745374616b696e673a207a65726f206164647265737360581b604082015260600190565b60208082526014908201527331b0b63632b91034b9903737ba1039ba30b5b2b960611b604082015260600190565b60208082526016908201527520b1b1b2b9b9b4b136329d1039b0b6b29030b236b4b760511b604082015260600190565b60208082526016908201527539b2b73232b91034b9903737ba1030903137b73232b960511b604082015260600190565b6020808252601c908201527b1b1bd8dac8195b99081d1a5b59481a185cc81b9bdd081c185cdcd95960221b604082015260600190565b6020808252601290820152711e995c9bc81cd51bdcd15c1bd8da155b9a5d60721b604082015260600190565b6020808252601390820152726e6f6e2d656d707479207374616b65496e666f60681b604082015260600190565b60208082526012908201527114dd185ada5b99ce881e995c9bc81d5a5b9d60721b604082015260600190565b60208082526029908201527f41636365737369626c653a2043616c6c6572206973206e6f7420616e20706f6c60408201526834b1bc9030b236b4b760b91b606082015260800190565b6020808252601890820152774c6f636b496420697320616c726561647920696e2075736560401b604082015260600190565b9182526001600160a01b0316602082015260400190565b9283526020830191909152604082015260600190565b60008219821115615ab857615ab8615b71565b500190565b600082615ad857634e487b7160e01b81526012600452602481fd5b500490565b6000816000190483118215151615615af757615af7615b71565b500290565b600082821015615b0e57615b0e615b71565b500390565b60005b83811015615b2e578181015183820152602001615b16565b838111156123795750506000910152565b600081615b4e57615b4e615b71565b506000190190565b6000600019821415615b6a57615b6a615b71565b5060010190565b634e487b7160e01b600052601160045260246000fdfe52eafc11f6f81f86878bffd31109a0d92f37506527754f00788853ff9f63b130726562617365496e64657820636f6d706f756e64206e6577496e646578203a2025735f7570646174655374616b65496e666f205f7374616b65496e666f2e6465706f736974202573d1a8a452d776b1b6802824ca2e8489c6448e2cb0963f552a9a19ab4ae064ca58726562617365496e646578206e6577496e646578202d3e206e656564546f73203a2025735f64656c657465557365725374616b6549642020757365725374616b696e67735b746f5d2e6c656e6774682025732d2d2d2d2d2d2d2d2d2d2d5f7570646174655374616b65496e666f202d2d2d2d2d2d2d2d2d2d2d2d2d2d2d2d2d2d5f7570646174655374616b65496e666f205f7374616b65496e666f2e656e6454696d65203a202573726562617365496e646578205f706f737369626c6545706f63684e756d626572203a202573fb5864e8ff833c3cb2d2d08505e82ff02a43554c74a35d4f5a64e852612783115f7570646174655374616b65496e666f207374616b696e675072696e636970616c202573a26469706673582212208c4ed47eefbaa0b4a7eb9c739c546aa2660ab49b548e9b6f22dd1f3c9cb9bda664736f6c63430008040033",
  "linkReferences": {
    "contracts/libraries/LibStaking.sol": {
      "LibStaking": [
        {
          "length": 20,
          "start": 5469
        },
        {
          "length": 20,
          "start": 6028
        },
        {
          "length": 20,
          "start": 6249
        },
        {
          "length": 20,
          "start": 10547
        },
        {
          "length": 20,
          "start": 12096
        },
        {
          "length": 20,
          "start": 12418
        },
        {
          "length": 20,
          "start": 12611
        },
        {
          "length": 20,
          "start": 13325
        },
        {
          "length": 20,
          "start": 13982
        },
        {
          "length": 20,
          "start": 18906
        },
        {
          "length": 20,
          "start": 19398
        }
      ]
    }
  },
  "deployedLinkReferences": {
    "contracts/libraries/LibStaking.sol": {
      "LibStaking": [
        {
          "length": 20,
          "start": 5431
        },
        {
          "length": 20,
          "start": 5990
        },
        {
          "length": 20,
          "start": 6211
        },
        {
          "length": 20,
          "start": 10509
        },
        {
          "length": 20,
          "start": 12058
        },
        {
          "length": 20,
          "start": 12380
        },
        {
          "length": 20,
          "start": 12573
        },
        {
          "length": 20,
          "start": 13287
        },
        {
          "length": 20,
          "start": 13944
        },
        {
          "length": 20,
          "start": 18868
        },
        {
          "length": 20,
          "start": 19360
        }
      ]
    }
  }
}