{
  "_format": "hh-sol-artifact-1",
  "contractName": "StakingV2",
  "sourceName": "contracts/StakingV2.sol",
  "abi": [
    {
      "inputs": [],
      "stateMutability": "nonpayable",
      "type": "constructor"
    },
    {
      "anonymous": false,
      "inputs": [
        {
          "indexed": false,
          "internalType": "address",
          "name": "staker",
          "type": "address"
        },
        {
          "indexed": false,
          "internalType": "uint256",
          "name": "claimAmount",
          "type": "uint256"
        },
        {
          "indexed": false,
          "internalType": "uint256",
          "name": "stakeId",
          "type": "uint256"
        }
      ],
      "name": "ClaimdForNonLock",
      "type": "event"
    },
    {
      "anonymous": false,
      "inputs": [
        {
          "indexed": false,
          "internalType": "address",
          "name": "to",
          "type": "address"
        },
        {
          "indexed": false,
          "internalType": "uint256",
          "name": "amount",
          "type": "uint256"
        },
        {
          "indexed": false,
          "internalType": "uint256",
          "name": "stakeId",
          "type": "uint256"
        }
      ],
      "name": "IncreasedAmountForSimpleStake",
      "type": "event"
    },
    {
      "anonymous": false,
      "inputs": [
        {
          "indexed": false,
          "internalType": "address",
          "name": "staker",
          "type": "address"
        },
        {
          "indexed": false,
          "internalType": "uint256",
          "name": "amount",
          "type": "uint256"
        },
        {
          "indexed": false,
          "internalType": "uint256",
          "name": "unlockWeeks",
          "type": "uint256"
        },
        {
          "indexed": false,
          "internalType": "uint256",
          "name": "stakeId",
          "type": "uint256"
        },
        {
          "indexed": false,
          "internalType": "uint256",
          "name": "stosId",
          "type": "uint256"
        },
        {
          "indexed": false,
          "internalType": "uint256",
          "name": "stosPrincipal",
          "type": "uint256"
        }
      ],
      "name": "IncreasedBeforeEndOrNonEnd",
      "type": "event"
    },
    {
      "anonymous": false,
      "inputs": [
        {
          "indexed": false,
          "internalType": "uint256",
          "name": "oldIndex",
          "type": "uint256"
        },
        {
          "indexed": false,
          "internalType": "uint256",
          "name": "newIndex",
          "type": "uint256"
        },
        {
          "indexed": false,
          "internalType": "uint256",
          "name": "totalLTOS",
          "type": "uint256"
        }
      ],
      "name": "Rebased",
      "type": "event"
    },
    {
      "anonymous": false,
      "inputs": [
        {
          "indexed": false,
          "internalType": "address",
          "name": "to",
          "type": "address"
        },
        {
          "indexed": false,
          "internalType": "uint256",
          "name": "addAmount",
          "type": "uint256"
        },
        {
          "indexed": false,
          "internalType": "uint256",
          "name": "claimAmount",
          "type": "uint256"
        },
        {
          "indexed": false,
          "internalType": "uint256",
          "name": "periodWeeks",
          "type": "uint256"
        },
        {
          "indexed": false,
          "internalType": "uint256",
          "name": "stakeId",
          "type": "uint256"
        },
        {
          "indexed": false,
          "internalType": "uint256",
          "name": "stosId",
          "type": "uint256"
        },
        {
          "indexed": false,
          "internalType": "uint256",
          "name": "stosPrincipal",
          "type": "uint256"
        }
      ],
      "name": "ResetStakedGetStosAfterLock",
      "type": "event"
    },
    {
      "anonymous": false,
      "inputs": [
        {
          "indexed": true,
          "internalType": "bytes32",
          "name": "role",
          "type": "bytes32"
        },
        {
          "indexed": true,
          "internalType": "bytes32",
          "name": "previousAdminRole",
          "type": "bytes32"
        },
        {
          "indexed": true,
          "internalType": "bytes32",
          "name": "newAdminRole",
          "type": "bytes32"
        }
      ],
      "name": "RoleAdminChanged",
      "type": "event"
    },
    {
      "anonymous": false,
      "inputs": [
        {
          "indexed": true,
          "internalType": "bytes32",
          "name": "role",
          "type": "bytes32"
        },
        {
          "indexed": true,
          "internalType": "address",
          "name": "account",
          "type": "address"
        },
        {
          "indexed": true,
          "internalType": "address",
          "name": "sender",
          "type": "address"
        }
      ],
      "name": "RoleGranted",
      "type": "event"
    },
    {
      "anonymous": false,
      "inputs": [
        {
          "indexed": true,
          "internalType": "bytes32",
          "name": "role",
          "type": "bytes32"
        },
        {
          "indexed": true,
          "internalType": "address",
          "name": "account",
          "type": "address"
        },
        {
          "indexed": true,
          "internalType": "address",
          "name": "sender",
          "type": "address"
        }
      ],
      "name": "RoleRevoked",
      "type": "event"
    },
    {
      "anonymous": false,
      "inputs": [
        {
          "indexed": false,
          "internalType": "address",
          "name": "to",
          "type": "address"
        },
        {
          "indexed": false,
          "internalType": "uint256",
          "name": "amount",
          "type": "uint256"
        },
        {
          "indexed": false,
          "internalType": "uint256",
          "name": "stakeId",
          "type": "uint256"
        }
      ],
      "name": "Staked",
      "type": "event"
    },
    {
      "anonymous": false,
      "inputs": [
        {
          "indexed": false,
          "internalType": "address",
          "name": "to",
          "type": "address"
        },
        {
          "indexed": false,
          "internalType": "uint256",
          "name": "amount",
          "type": "uint256"
        },
        {
          "indexed": false,
          "internalType": "uint256",
          "name": "ltos",
          "type": "uint256"
        },
        {
          "indexed": false,
          "internalType": "uint256",
          "name": "marketId",
          "type": "uint256"
        },
        {
          "indexed": false,
          "internalType": "uint256",
          "name": "stakeId",
          "type": "uint256"
        },
        {
          "indexed": false,
          "internalType": "uint256",
          "name": "tosPrice",
          "type": "uint256"
        }
      ],
      "name": "StakedByBond",
      "type": "event"
    },
    {
      "anonymous": false,
      "inputs": [
        {
          "indexed": false,
          "internalType": "address",
          "name": "to",
          "type": "address"
        },
        {
          "indexed": false,
          "internalType": "uint256",
          "name": "amount",
          "type": "uint256"
        },
        {
          "indexed": false,
          "internalType": "uint256",
          "name": "periodWeeks",
          "type": "uint256"
        },
        {
          "indexed": false,
          "internalType": "uint256",
          "name": "stakeId",
          "type": "uint256"
        },
        {
          "indexed": false,
          "internalType": "uint256",
          "name": "stosId",
          "type": "uint256"
        },
        {
          "indexed": false,
          "internalType": "uint256",
          "name": "stosPrincipal",
          "type": "uint256"
        }
      ],
      "name": "StakedGetStos",
      "type": "event"
    },
    {
      "anonymous": false,
      "inputs": [
        {
          "indexed": false,
          "internalType": "address",
          "name": "to",
          "type": "address"
        },
        {
          "indexed": false,
          "internalType": "uint256",
          "name": "amount",
          "type": "uint256"
        },
        {
          "indexed": false,
          "internalType": "uint256",
          "name": "ltos",
          "type": "uint256"
        },
        {
          "indexed": false,
          "internalType": "uint256",
          "name": "periodWeeks",
          "type": "uint256"
        },
        {
          "indexed": false,
          "internalType": "uint256",
          "name": "marketId",
          "type": "uint256"
        },
        {
          "indexed": false,
          "internalType": "uint256",
          "name": "stakeId",
          "type": "uint256"
        },
        {
          "indexed": false,
          "internalType": "uint256",
          "name": "stosId",
          "type": "uint256"
        },
        {
          "indexed": false,
          "internalType": "uint256",
          "name": "tosPrice",
          "type": "uint256"
        },
        {
          "indexed": false,
          "internalType": "uint256",
          "name": "stosPrincipal",
          "type": "uint256"
        }
      ],
      "name": "StakedGetStosByBond",
      "type": "event"
    },
    {
      "anonymous": false,
      "inputs": [
        {
          "indexed": false,
          "internalType": "address",
          "name": "staker",
          "type": "address"
        },
        {
          "indexed": false,
          "internalType": "uint256",
          "name": "amount",
          "type": "uint256"
        },
        {
          "indexed": false,
          "internalType": "uint256",
          "name": "stakeId",
          "type": "uint256"
        }
      ],
      "name": "Unstaked",
      "type": "event"
    },
    {
      "inputs": [],
      "name": "ADMIN_ROLE",
      "outputs": [
        {
          "internalType": "bytes32",
          "name": "",
          "type": "bytes32"
        }
      ],
      "stateMutability": "view",
      "type": "function"
    },
    {
      "inputs": [],
      "name": "DEFAULT_ADMIN_ROLE",
      "outputs": [
        {
          "internalType": "bytes32",
          "name": "",
          "type": "bytes32"
        }
      ],
      "stateMutability": "view",
      "type": "function"
    },
    {
      "inputs": [],
      "name": "POLICY_ROLE",
      "outputs": [
        {
          "internalType": "bytes32",
          "name": "",
          "type": "bytes32"
        }
      ],
      "stateMutability": "view",
      "type": "function"
    },
    {
      "inputs": [],
      "name": "PROJECT_ADMIN_ROLE",
      "outputs": [
        {
          "internalType": "bytes32",
          "name": "",
          "type": "bytes32"
        }
      ],
      "stateMutability": "view",
      "type": "function"
    },
    {
      "inputs": [
        {
          "internalType": "address",
          "name": "account",
          "type": "address"
        }
      ],
      "name": "addAdmin",
      "outputs": [],
      "stateMutability": "nonpayable",
      "type": "function"
    },
    {
      "inputs": [
        {
          "internalType": "address",
          "name": "_account",
          "type": "address"
        }
      ],
      "name": "addPolicy",
      "outputs": [],
      "stateMutability": "nonpayable",
      "type": "function"
    },
    {
      "inputs": [
        {
          "internalType": "address",
          "name": "_owner",
          "type": "address"
        }
      ],
      "name": "addProxyAdmin",
      "outputs": [],
      "stateMutability": "nonpayable",
      "type": "function"
    },
    {
      "inputs": [
        {
          "internalType": "uint256",
          "name": "",
          "type": "uint256"
        }
      ],
      "name": "allStakings",
      "outputs": [
        {
          "internalType": "address",
          "name": "staker",
          "type": "address"
        },
        {
          "internalType": "uint256",
          "name": "deposit",
          "type": "uint256"
        },
        {
          "internalType": "uint256",
          "name": "ltos",
          "type": "uint256"
        },
        {
          "internalType": "uint256",
          "name": "endTime",
          "type": "uint256"
        },
        {
          "internalType": "uint256",
          "name": "marketId",
          "type": "uint256"
        }
      ],
      "stateMutability": "view",
      "type": "function"
    },
    {
      "inputs": [
        {
          "internalType": "address",
          "name": "_addr",
          "type": "address"
        }
      ],
      "name": "balanceOf",
      "outputs": [
        {
          "internalType": "uint256",
          "name": "balance",
          "type": "uint256"
        }
      ],
      "stateMutability": "view",
      "type": "function"
    },
    {
      "inputs": [
        {
          "internalType": "uint256",
          "name": "_stakeId",
          "type": "uint256"
        }
      ],
      "name": "balanceOfId",
      "outputs": [
        {
          "internalType": "uint256",
          "name": "",
          "type": "uint256"
        }
      ],
      "stateMutability": "view",
      "type": "function"
    },
    {
      "inputs": [],
      "name": "basicBondPeriod",
      "outputs": [
        {
          "internalType": "uint256",
          "name": "",
          "type": "uint256"
        }
      ],
      "stateMutability": "view",
      "type": "function"
    },
    {
      "inputs": [
        {
          "internalType": "uint256",
          "name": "_stakeId",
          "type": "uint256"
        },
        {
          "internalType": "uint256",
          "name": "_claimAmount",
          "type": "uint256"
        }
      ],
      "name": "claimForSimpleType",
      "outputs": [],
      "stateMutability": "nonpayable",
      "type": "function"
    },
    {
      "inputs": [
        {
          "internalType": "uint256",
          "name": "_stakeId",
          "type": "uint256"
        }
      ],
      "name": "claimableLtos",
      "outputs": [
        {
          "internalType": "uint256",
          "name": "",
          "type": "uint256"
        }
      ],
      "stateMutability": "view",
      "type": "function"
    },
    {
      "inputs": [
        {
          "internalType": "uint256",
          "name": "_stakeId",
          "type": "uint256"
        }
      ],
      "name": "claimableTos",
      "outputs": [
        {
          "internalType": "uint256",
          "name": "",
          "type": "uint256"
        }
      ],
      "stateMutability": "view",
      "type": "function"
    },
    {
      "inputs": [
        {
          "internalType": "uint256",
          "name": "",
          "type": "uint256"
        }
      ],
      "name": "connectId",
      "outputs": [
        {
          "internalType": "uint256",
          "name": "",
          "type": "uint256"
        }
      ],
      "stateMutability": "view",
      "type": "function"
    },
    {
      "inputs": [],
      "name": "epoch",
      "outputs": [
        {
          "internalType": "uint256",
          "name": "length_",
          "type": "uint256"
        },
        {
          "internalType": "uint256",
          "name": "end",
          "type": "uint256"
        }
      ],
      "stateMutability": "view",
      "type": "function"
    },
    {
      "inputs": [],
      "name": "generateMarketId",
      "outputs": [
        {
          "internalType": "uint256",
          "name": "",
          "type": "uint256"
        }
      ],
      "stateMutability": "nonpayable",
      "type": "function"
    },
    {
      "inputs": [],
      "name": "getIndex",
      "outputs": [
        {
          "internalType": "uint256",
          "name": "",
          "type": "uint256"
        }
      ],
      "stateMutability": "view",
      "type": "function"
    },
    {
      "inputs": [
        {
          "internalType": "uint256",
          "name": "ltos",
          "type": "uint256"
        }
      ],
      "name": "getLtosToTos",
      "outputs": [
        {
          "internalType": "uint256",
          "name": "",
          "type": "uint256"
        }
      ],
      "stateMutability": "view",
      "type": "function"
    },
    {
      "inputs": [
        {
          "internalType": "bytes32",
          "name": "role",
          "type": "bytes32"
        }
      ],
      "name": "getRoleAdmin",
      "outputs": [
        {
          "internalType": "bytes32",
          "name": "",
          "type": "bytes32"
        }
      ],
      "stateMutability": "view",
      "type": "function"
    },
    {
      "inputs": [
        {
          "internalType": "uint256",
          "name": "amount",
          "type": "uint256"
        }
      ],
      "name": "getTosToLtos",
      "outputs": [
        {
          "internalType": "uint256",
          "name": "",
          "type": "uint256"
        }
      ],
      "stateMutability": "view",
      "type": "function"
    },
    {
      "inputs": [
        {
          "internalType": "bytes32",
          "name": "role",
          "type": "bytes32"
        },
        {
          "internalType": "address",
          "name": "account",
          "type": "address"
        }
      ],
      "name": "grantRole",
      "outputs": [],
      "stateMutability": "nonpayable",
      "type": "function"
    },
    {
      "inputs": [
        {
          "internalType": "bytes32",
          "name": "role",
          "type": "bytes32"
        },
        {
          "internalType": "address",
          "name": "account",
          "type": "address"
        }
      ],
      "name": "hasRole",
      "outputs": [
        {
          "internalType": "bool",
          "name": "",
          "type": "bool"
        }
      ],
      "stateMutability": "view",
      "type": "function"
    },
    {
      "inputs": [
        {
          "internalType": "uint256",
          "name": "_stakeId",
          "type": "uint256"
        },
        {
          "internalType": "uint256",
          "name": "_amount",
          "type": "uint256"
        }
      ],
      "name": "increaseAmountForSimpleStake",
      "outputs": [],
      "stateMutability": "nonpayable",
      "type": "function"
    },
    {
      "inputs": [
        {
          "internalType": "uint256",
          "name": "_stakeId",
          "type": "uint256"
        },
        {
          "internalType": "uint256",
          "name": "_amount",
          "type": "uint256"
        },
        {
          "internalType": "uint256",
          "name": "_unlockWeeks",
          "type": "uint256"
        }
      ],
      "name": "increaseBeforeEndOrNonEnd",
      "outputs": [],
      "stateMutability": "nonpayable",
      "type": "function"
    },
    {
      "inputs": [
        {
          "internalType": "uint256",
          "name": "_stakeId",
          "type": "uint256"
        },
        {
          "internalType": "uint256",
          "name": "_amount",
          "type": "uint256"
        }
      ],
      "name": "increaseBeforeEndOrNonEnd",
      "outputs": [],
      "stateMutability": "nonpayable",
      "type": "function"
    },
    {
      "inputs": [],
      "name": "index_",
      "outputs": [
        {
          "internalType": "uint256",
          "name": "",
          "type": "uint256"
        }
      ],
      "stateMutability": "view",
      "type": "function"
    },
    {
      "inputs": [
        {
          "internalType": "address",
          "name": "account",
          "type": "address"
        }
      ],
      "name": "isAdmin",
      "outputs": [
        {
          "internalType": "bool",
          "name": "",
          "type": "bool"
        }
      ],
      "stateMutability": "view",
      "type": "function"
    },
    {
      "inputs": [
        {
          "internalType": "address",
          "name": "account",
          "type": "address"
        }
      ],
      "name": "isPolicy",
      "outputs": [
        {
          "internalType": "bool",
          "name": "",
          "type": "bool"
        }
      ],
      "stateMutability": "view",
      "type": "function"
    },
    {
      "inputs": [
        {
          "internalType": "address",
          "name": "account",
          "type": "address"
        }
      ],
      "name": "isProxyAdmin",
      "outputs": [
        {
          "internalType": "bool",
          "name": "",
          "type": "bool"
        }
      ],
      "stateMutability": "view",
      "type": "function"
    },
    {
      "inputs": [],
      "name": "lockTOS",
      "outputs": [
        {
          "internalType": "address",
          "name": "",
          "type": "address"
        }
      ],
      "stateMutability": "view",
      "type": "function"
    },
    {
      "inputs": [],
      "name": "marketIdCounter",
      "outputs": [
        {
          "internalType": "uint256",
          "name": "",
          "type": "uint256"
        }
      ],
      "stateMutability": "view",
      "type": "function"
    },
    {
      "inputs": [
        {
          "internalType": "uint256[]",
          "name": "_stakeIds",
          "type": "uint256[]"
        }
      ],
      "name": "multiUnstake",
      "outputs": [],
      "stateMutability": "nonpayable",
      "type": "function"
    },
    {
      "inputs": [],
      "name": "possibleIndex",
      "outputs": [
        {
          "internalType": "uint256",
          "name": "",
          "type": "uint256"
        }
      ],
      "stateMutability": "view",
      "type": "function"
    },
    {
      "inputs": [],
      "name": "rebaseIndex",
      "outputs": [],
      "stateMutability": "nonpayable",
      "type": "function"
    },
    {
      "inputs": [],
      "name": "rebasePerEpoch",
      "outputs": [
        {
          "internalType": "uint256",
          "name": "",
          "type": "uint256"
        }
      ],
      "stateMutability": "view",
      "type": "function"
    },
    {
      "inputs": [
        {
          "internalType": "uint256",
          "name": "_stakeId",
          "type": "uint256"
        }
      ],
      "name": "remainedLtos",
      "outputs": [
        {
          "internalType": "uint256",
          "name": "",
          "type": "uint256"
        }
      ],
      "stateMutability": "view",
      "type": "function"
    },
    {
      "inputs": [],
      "name": "removeAdmin",
      "outputs": [],
      "stateMutability": "nonpayable",
      "type": "function"
    },
    {
      "inputs": [],
      "name": "removePolicy",
      "outputs": [],
      "stateMutability": "nonpayable",
      "type": "function"
    },
    {
      "inputs": [],
      "name": "removeProxyAdmin",
      "outputs": [],
      "stateMutability": "nonpayable",
      "type": "function"
    },
    {
      "inputs": [
        {
          "internalType": "bytes32",
          "name": "role",
          "type": "bytes32"
        },
        {
          "internalType": "address",
          "name": "account",
          "type": "address"
        }
      ],
      "name": "renounceRole",
      "outputs": [],
      "stateMutability": "nonpayable",
      "type": "function"
    },
    {
      "inputs": [
        {
          "internalType": "uint256",
          "name": "_stakeId",
          "type": "uint256"
        },
        {
          "internalType": "uint256",
          "name": "_addAmount",
          "type": "uint256"
        },
        {
          "internalType": "uint256",
          "name": "_claimAmount",
          "type": "uint256"
        },
        {
          "internalType": "uint256",
          "name": "_periodWeeks",
          "type": "uint256"
        }
      ],
      "name": "resetStakeGetStosAfterLock",
      "outputs": [],
      "stateMutability": "nonpayable",
      "type": "function"
    },
    {
      "inputs": [
        {
          "internalType": "uint256",
          "name": "_stakeId",
          "type": "uint256"
        },
        {
          "internalType": "uint256",
          "name": "_claimAmount",
          "type": "uint256"
        }
      ],
      "name": "resetStakeGetStosAfterLock",
      "outputs": [],
      "stateMutability": "nonpayable",
      "type": "function"
    },
    {
      "inputs": [
        {
          "internalType": "uint256",
          "name": "_stakeId",
          "type": "uint256"
        },
        {
          "internalType": "uint256",
          "name": "_addAmount",
          "type": "uint256"
        },
        {
          "internalType": "uint256",
          "name": "_periodWeeks",
          "type": "uint256"
        }
      ],
      "name": "resetStakeGetStosAfterLock",
      "outputs": [],
      "stateMutability": "nonpayable",
      "type": "function"
    },
    {
      "inputs": [
        {
          "internalType": "bytes32",
          "name": "role",
          "type": "bytes32"
        },
        {
          "internalType": "address",
          "name": "account",
          "type": "address"
        }
      ],
      "name": "revokeRole",
      "outputs": [],
      "stateMutability": "nonpayable",
      "type": "function"
    },
    {
      "inputs": [],
      "name": "runwayTos",
      "outputs": [
        {
          "internalType": "uint256",
          "name": "",
          "type": "uint256"
        }
      ],
      "stateMutability": "view",
      "type": "function"
    },
    {
      "inputs": [],
      "name": "secondsToNextEpoch",
      "outputs": [
        {
          "internalType": "uint256",
          "name": "",
          "type": "uint256"
        }
      ],
      "stateMutability": "view",
      "type": "function"
    },
    {
      "inputs": [
        {
          "internalType": "address",
          "name": "_tos",
          "type": "address"
        },
        {
          "internalType": "address",
          "name": "_lockTOS",
          "type": "address"
        },
        {
          "internalType": "address",
          "name": "_treasury",
          "type": "address"
        }
      ],
      "name": "setAddressInfos",
      "outputs": [],
      "stateMutability": "nonpayable",
      "type": "function"
    },
    {
      "inputs": [
        {
          "internalType": "uint256",
          "name": "_period",
          "type": "uint256"
        }
      ],
      "name": "setBasicBondPeriod",
      "outputs": [],
      "stateMutability": "nonpayable",
      "type": "function"
    },
    {
      "inputs": [
        {
          "internalType": "uint256",
          "name": "_index",
          "type": "uint256"
        }
      ],
      "name": "setIndex",
      "outputs": [],
      "stateMutability": "nonpayable",
      "type": "function"
    },
    {
      "inputs": [
        {
          "internalType": "uint256",
          "name": "_rebasePerEpoch",
          "type": "uint256"
        }
      ],
      "name": "setRebasePerEpoch",
      "outputs": [],
      "stateMutability": "nonpayable",
      "type": "function"
    },
    {
      "inputs": [
        {
          "internalType": "uint256",
          "name": "_amount",
          "type": "uint256"
        }
      ],
      "name": "stake",
      "outputs": [
        {
          "internalType": "uint256",
          "name": "stakeId",
          "type": "uint256"
        }
      ],
      "stateMutability": "nonpayable",
      "type": "function"
    },
    {
      "inputs": [
        {
          "internalType": "address",
          "name": "to",
          "type": "address"
        },
        {
          "internalType": "uint256",
          "name": "_amount",
          "type": "uint256"
        },
        {
          "internalType": "uint256",
          "name": "_marketId",
          "type": "uint256"
        },
        {
          "internalType": "uint256",
          "name": "tosPrice",
          "type": "uint256"
        }
      ],
      "name": "stakeByBond",
      "outputs": [
        {
          "internalType": "uint256",
          "name": "stakeId",
          "type": "uint256"
        }
      ],
      "stateMutability": "nonpayable",
      "type": "function"
    },
    {
      "inputs": [
        {
          "internalType": "uint256",
          "name": "_amount",
          "type": "uint256"
        },
        {
          "internalType": "uint256",
          "name": "_periodWeeks",
          "type": "uint256"
        }
      ],
      "name": "stakeGetStos",
      "outputs": [
        {
          "internalType": "uint256",
          "name": "stakeId",
          "type": "uint256"
        }
      ],
      "stateMutability": "nonpayable",
      "type": "function"
    },
    {
      "inputs": [
        {
          "internalType": "address",
          "name": "_to",
          "type": "address"
        },
        {
          "internalType": "uint256",
          "name": "_amount",
          "type": "uint256"
        },
        {
          "internalType": "uint256",
          "name": "_marketId",
          "type": "uint256"
        },
        {
          "internalType": "uint256",
          "name": "_periodWeeks",
          "type": "uint256"
        },
        {
          "internalType": "uint256",
          "name": "tosPrice",
          "type": "uint256"
        }
      ],
      "name": "stakeGetStosByBond",
      "outputs": [
        {
          "internalType": "uint256",
          "name": "stakeId",
          "type": "uint256"
        }
      ],
      "stateMutability": "nonpayable",
      "type": "function"
    },
    {
      "inputs": [
        {
          "internalType": "uint256",
          "name": "stakeId",
          "type": "uint256"
        }
      ],
      "name": "stakeInfo",
      "outputs": [
        {
          "internalType": "address",
          "name": "staker",
          "type": "address"
        },
        {
          "internalType": "uint256",
          "name": "deposit",
          "type": "uint256"
        },
        {
          "internalType": "uint256",
          "name": "ltos",
          "type": "uint256"
        },
        {
          "internalType": "uint256",
          "name": "endTime",
          "type": "uint256"
        },
        {
          "internalType": "uint256",
          "name": "marketId",
          "type": "uint256"
        }
      ],
      "stateMutability": "view",
      "type": "function"
    },
    {
      "inputs": [
        {
          "internalType": "uint256",
          "name": "stakeId",
          "type": "uint256"
        }
      ],
      "name": "stakedOf",
      "outputs": [
        {
          "internalType": "uint256",
          "name": "",
          "type": "uint256"
        }
      ],
      "stateMutability": "view",
      "type": "function"
    },
    {
      "inputs": [],
      "name": "stakedOfAll",
      "outputs": [
        {
          "internalType": "uint256",
          "name": "",
          "type": "uint256"
        }
      ],
      "stateMutability": "view",
      "type": "function"
    },
    {
      "inputs": [],
      "name": "stakingIdCounter",
      "outputs": [
        {
          "internalType": "uint256",
          "name": "",
          "type": "uint256"
        }
      ],
      "stateMutability": "view",
      "type": "function"
    },
    {
      "inputs": [
        {
          "internalType": "address",
          "name": "_addr",
          "type": "address"
        }
      ],
      "name": "stakingOf",
      "outputs": [
        {
          "internalType": "uint256[]",
          "name": "",
          "type": "uint256[]"
        }
      ],
      "stateMutability": "view",
      "type": "function"
    },
    {
      "inputs": [],
      "name": "stakingPrincipal",
      "outputs": [
        {
          "internalType": "uint256",
          "name": "",
          "type": "uint256"
        }
      ],
      "stateMutability": "view",
      "type": "function"
    },
    {
      "inputs": [
        {
          "internalType": "bytes4",
          "name": "interfaceId",
          "type": "bytes4"
        }
      ],
      "name": "supportsInterface",
      "outputs": [
        {
          "internalType": "bool",
          "name": "",
          "type": "bool"
        }
      ],
      "stateMutability": "view",
      "type": "function"
    },
    {
      "inputs": [
        {
          "internalType": "address[]",
          "name": "accounts",
          "type": "address[]"
        },
        {
          "internalType": "uint256[]",
          "name": "balances",
          "type": "uint256[]"
        },
        {
          "internalType": "uint256[]",
          "name": "period",
          "type": "uint256[]"
        },
        {
          "internalType": "uint256[]",
          "name": "tokenId",
          "type": "uint256[]"
        }
      ],
      "name": "syncStos",
      "outputs": [],
      "stateMutability": "nonpayable",
      "type": "function"
    },
    {
      "inputs": [],
      "name": "tos",
      "outputs": [
        {
          "internalType": "contract IERC20",
          "name": "",
          "type": "address"
        }
      ],
      "stateMutability": "view",
      "type": "function"
    },
    {
      "inputs": [],
      "name": "totalLtos",
      "outputs": [
        {
          "internalType": "uint256",
          "name": "",
          "type": "uint256"
        }
      ],
      "stateMutability": "view",
      "type": "function"
    },
    {
      "inputs": [
        {
          "internalType": "address",
          "name": "newAdmin",
          "type": "address"
        }
      ],
      "name": "transferAdmin",
      "outputs": [],
      "stateMutability": "nonpayable",
      "type": "function"
    },
    {
      "inputs": [
        {
          "internalType": "address",
          "name": "newAdmin",
          "type": "address"
        }
      ],
      "name": "transferPolicyAdmin",
      "outputs": [],
      "stateMutability": "nonpayable",
      "type": "function"
    },
    {
      "inputs": [
        {
          "internalType": "address",
          "name": "newAdmin",
          "type": "address"
        }
      ],
      "name": "transferProxyAdmin",
      "outputs": [],
      "stateMutability": "nonpayable",
      "type": "function"
    },
    {
      "inputs": [],
      "name": "treasury",
      "outputs": [
        {
          "internalType": "address",
          "name": "",
          "type": "address"
        }
      ],
      "stateMutability": "view",
      "type": "function"
    },
    {
      "inputs": [
        {
          "internalType": "uint256",
          "name": "_stakeId",
          "type": "uint256"
        }
      ],
      "name": "unstake",
      "outputs": [],
      "stateMutability": "nonpayable",
      "type": "function"
    },
    {
      "inputs": [
        {
          "internalType": "address",
          "name": "",
          "type": "address"
        },
        {
          "internalType": "uint256",
          "name": "",
          "type": "uint256"
        }
      ],
      "name": "userStakingIndex",
      "outputs": [
        {
          "internalType": "uint256",
          "name": "",
          "type": "uint256"
        }
      ],
      "stateMutability": "view",
      "type": "function"
    },
    {
      "inputs": [
        {
          "internalType": "address",
          "name": "",
          "type": "address"
        },
        {
          "internalType": "uint256",
          "name": "",
          "type": "uint256"
        }
      ],
      "name": "userStakings",
      "outputs": [
        {
          "internalType": "uint256",
          "name": "",
          "type": "uint256"
        }
      ],
      "stateMutability": "view",
      "type": "function"
    }
  ],
  "bytecode": "0x6080604052600160065534801561001557600080fd5b506157ef80620000266000396000f3fe608060405234801561001057600080fd5b50600436106103485760003560e01c80637cc0fee6116101bb5780637cc0fee6146106b157806381045ead146106c45780638356ca4f146106cc57806383a5683a146106df57806389f395de146106f2578063900cf0cf1461070557806391d14854146107285780639483c1d71461073b57806396f1557c1461074357806397b4293714610756578063980b1097146107695780639a202d471461077c5780639a794e66146107845780639e9e792f14610797578063a052e69e146107b7578063a1c95e5a146107c0578063a217fddf146107d3578063a694fc3a146107db578063a7110dc3146107ee578063a89aa6a814610819578063b24352b11461082c578063b84ef0811461083f578063b88ad1e314610852578063bba4307e14610865578063bbad8ac914610878578063be72f2d31461088b578063c68450bf14610893578063ca16910f146108a6578063d547741f146108b9578063d7fe4a49146108cc578063e6500b21146108df578063e75f77e1146108e7578063f1c8c922146108fa578063f47f2f1d1461090d578063f558138214610920578063fad1c85c1461092957600080fd5b806301ffc9a71461034d578063037859af146103755780630e1e998f1461039557806311f1c8bf146103ac57806317ed177a146103bf5780631e725567146103d257806322985246146103e7578063248a9ca3146103fc57806324d7806c1461040f578063265705b11461042257806328ea9ff0146104355780632e17de781461043d5780632f2ff15d1461045057806330e06e8b14610463578063332b01f31461046b57806336568abe1461047e578063385030b41461049157806340a5737f1461049a57806341c04d5e146104ad57806347e1b372146104c257806349ec9883146104ca5780634e533572146104dd5780634e6c44661461057b5780635720bf3a146105a65780635746248f146105af5780635dc3c29a146105c25780635f3383521461060957806361d027b31461061157806365cb3a83146106245780636d1c789f1461062c578063704802751461063557806370a082311461064857806375829def1461065b57806375b238fc1461066e57806377d73dc61461069557806378ad1405146106a8575b600080fd5b61036061035b366004615027565b61093c565b60405190151581526020015b60405180910390f35b610388610383366004614dc9565b610973565b60405161036c9190615267565b61039e600b5481565b60405190815260200161036c565b61039e6103ba366004614fe4565b6109df565b61039e6103cd366004614fe4565b6109fa565b6103e56103e0366004615067565b610a0f565b005b61039e60008051602061579a83398151915281565b61039e61040a366004614fe4565b610cb3565b61036061041d366004614dc9565b610cc8565b6103e5610430366004614de3565b610ce2565b61039e610e3d565b6103e561044b366004614fe4565b610fe0565b6103e561045e366004614ffc565b611293565b61039e6112b5565b61039e610479366004614e4e565b61136e565b6103e561048c366004614ffc565b611501565b61039e600a5481565b6103e56104a8366004614fe4565b61157f565b61039e60008051602061575a83398151915281565b6103e56115a9565b6103e56104d8366004614fe4565b6117ae565b6105496104eb366004614fe4565b6000908152600f6020908152604091829020825160a08101845281546001600160a01b031680825260018301549382018490526002830154948201859052600383015460608301819052600490930154608090920182905294929392565b604080516001600160a01b0390961686526020860194909452928401919091526060830152608082015260a00161036c565b60035461058e906001600160a01b031681565b6040516001600160a01b03909116815260200161036c565b61039e60095481565b61039e6105bd366004614e25565b6117d8565b6105496105d0366004614fe4565b600f60205260009081526040902080546001820154600283015460038401546004909401546001600160a01b0390931693919290919085565b61039e611809565b60045461058e906001600160a01b031681565b6103e561181b565b61039e600c5481565b6103e5610643366004614dc9565b611858565b61039e610656366004614dc9565b611898565b6103e5610669366004614dc9565b61196e565b61039e7fdf8b4c520ffe197c5343c6f5aec59570151ef9a492f2c624fd45ddde6135ec4281565b61039e6106a3366004614fe4565b611a21565b61039e60055481565b61039e6106bf366004614fe4565b611a43565b60055461039e565b6103e56106da366004614dc9565b611a97565b6103e56106ed366004615067565b611b21565b60025461058e906001600160a01b031681565b600054600154610713919082565b6040805192835260208301919091520161036c565b610360610736366004614ffc565b611cdb565b61039e611d06565b6103e5610751366004614dc9565b611d29565b61039e610764366004614fe4565b611d59565b61039e610777366004614e86565b611d72565b6103e5612092565b6103e5610792366004614f85565b6120de565b61039e6107a5366004614fe4565b60106020526000908152604090205481565b61039e60085481565b61039e6107ce366004614fe4565b61216c565b61039e600081565b61039e6107e9366004614fe4565b612177565b61039e6107fc366004614e25565b600e60209081526000928352604080842090915290825290205481565b61039e610827366004614fe4565b61225e565b6103e561083a366004615103565b6122a3565b6103e561084d366004614dc9565b61265b565b6103e56108603660046150ab565b612698565b6103e5610873366004615067565b612d58565b6103e5610886366004615067565b612fab565b6103e5613332565b6103e56108a1366004614ec7565b613362565b61039e6108b4366004615067565b61357d565b6103e56108c7366004614ffc565b613742565b6103e56108da3660046150ab565b61375f565b61039e613adb565b6103e56108f5366004614fe4565b613b8a565b6103e5610908366004614dc9565b613c13565b61036061091b366004614dc9565b613cb7565b61039e60075481565b610360610937366004614dc9565b613cc3565b60006001600160e01b03198216637965db0b60e01b148061096d57506301ffc9a760e01b6001600160e01b03198316145b92915050565b6001600160a01b0381166000908152600d60209081526040918290208054835181840281018401909452808452606093928301828280156109d357602002820191906000526020600020905b8154815260200190600101908083116109bf575b50505050509050919050565b6000818152600f602052604081206002015461096d90611d59565b6000908152600f602052604090206002015490565b8180610a365760405162461bcd60e51b8152600401610a2d9061552d565b60405180910390fd5b8180610a545760405162461bcd60e51b8152600401610a2d9061552d565b60008481526010602052604090205415610ab05760405162461bcd60e51b815260206004820152601d60248201527f7468697320697320666f72206e6f6e2d6c6f636b2070726f647563742e0000006044820152606401610a2d565b6000848152600f6020526040902080546001600160a01b03163314610ae75760405162461bcd60e51b8152600401610a2d90615434565b42816003015410610b355760405162461bcd60e51b815260206004820152601860248201527732b732103a34b6b2903430b9903737ba103830b9b9b2b21760411b6044820152606401610a2d565b610b3d6115a9565b6000610b4c8260020154611d59565b905080851115610b6e5760405162461bcd60e51b8152600401610a2d906154f8565b6000610b7986611a21565b905060008360010154831115610b9b576001840154610b9890846156ae565b90505b81846002016000828254610baf91906156ae565b925050819055508160076000828254610bc891906156ae565b909155505060018401548790610bdf908390615657565b610be991906156ae565b60018501556008548790610bfe908390615657565b610c0891906156ae565b60085560048054604051632a97f1e560e21b81526001600160a01b039091169163aa5fc79491610c3c9133918c910161521b565b600060405180830381600087803b158015610c5657600080fd5b505af1158015610c6a573d6000803e3d6000fd5b505050507f5ac7224c417abee0b26a4daa9b5221c45297a5429fc56e11bc9170dabc15d33c33888a604051610ca1939291906151bf565b60405180910390a15050505050505050565b60009081526011602052604090206001015490565b600061096d60008051602061575a83398151915283611cdb565b610ceb33613cc3565b610d075760405162461bcd60e51b8152600401610a2d90615559565b826001600160a01b038116610d2e5760405162461bcd60e51b8152600401610a2d90615405565b826001600160a01b038116610d555760405162461bcd60e51b8152600401610a2d90615405565b826001600160a01b038116610d7c5760405162461bcd60e51b8152600401610a2d90615405565b6002546001600160a01b038781169116141580610da757506003546001600160a01b03868116911614155b80610dc057506004546001600160a01b03858116911614155b610dfb5760405162461bcd60e51b815260206004820152600c60248201526b73616d65206164647265737360a01b6044820152606401610a2d565b5050600280546001600160a01b039586166001600160a01b03199182161790915560038054948616948216949094179093555060048054919093169116179055565b600554600154600091904210610fdb5760005460018054909190610e6190426156ae565b1115610e8f57600054600154610e7790426156ae565b610e81919061566f565b610e8c906001615657565b90505b8060011415610ed257670de0b6b3a7640000600954670de0b6b3a7640000610eb79190615657565b610ec1908461568f565b610ecb919061566f565b9150610f62565b6005546009546040516379e42f5d60e11b815273__$23c3f0c4d39c3898c699ac978f80cfe781$__9263f3c85eba92610f0f928690600401615641565b60206040518083038186803b158015610f2757600080fd5b505af4158015610f3b573d6000803e3d6000fd5b505050506040513d601f19601f82011682018060405250810190610f5f919061504f565b91505b6000610f6c613adb565b90506000670de0b6b3a764000060055485610f8791906156ae565b600754610f94919061568f565b610f9e919061566f565b905081811115610fd757600554600754610fc084670de0b6b3a764000061568f565b610fca919061566f565b610fd49190615657565b93505b5050505b919050565b8080610ffe5760405162461bcd60e51b8152600401610a2d9061552d565b6000828152600f6020526040902080546001600160a01b0316331461105d5760405162461bcd60e51b815260206004820152601560248201527431b0b63632b91034b9903737ba1039ba30b5b2b91760591b6044820152606401610a2d565b428160030154106110aa5760405162461bcd60e51b815260206004820152601760248201527632b732103a34b6b2903430b9b713ba103830b9b9b2b21760491b6044820152606401610a2d565b6110b26115a9565b60006110bd8461225e565b9050600081116111075760405162461bcd60e51b81526020600482015260156024820152741e995c9bc818db185a5b58589b1948185b5bdd5b9d605a1b6044820152606401610a2d565b81600101546008600082825461111d91906156ae565b90915550506002820154600780546000906111399084906156ae565b909155506000905061114b3386613cdd565b90506111578582613e88565b600085815260106020526040902054156111ee576003546000868152601060205260409081902054905163c0a37b3f60e01b81526001600160a01b039092169163c0a37b3f916111ac9133919060040161521b565b600060405180830381600087803b1580156111c657600080fd5b505af11580156111da573d6000803e3d6000fd5b505050600086815260106020526040812055505b60048054604051632a97f1e560e21b81526001600160a01b039091169163aa5fc7949161121f91339187910161521b565b600060405180830381600087803b15801561123957600080fd5b505af115801561124d573d6000803e3d6000fd5b505050507f7fc4727e062e336010f2c282598ef5f14facb3de68cf8195c2f23e1454b2b74e338387604051611284939291906151bf565b60405180910390a15050505050565b61129c82610cb3565b6112a68133613f0a565b6112b08383613f6e565b505050565b6004546000906001600160a01b0316634cf158586009336040518363ffffffff1660e01b81526004016112e992919061562a565b60206040518083038186803b15801561130157600080fd5b505afa158015611315573d6000803e3d6000fd5b505050506040513d601f19601f820116820180604052508101906113399190614fc4565b6113555760405162461bcd60e51b8152600401610a2d90615492565b600c805490600061136583615708565b91905055905090565b6004546000906001600160a01b0316634cf158586009336040518363ffffffff1660e01b81526004016113a292919061562a565b60206040518083038186803b1580156113ba57600080fd5b505afa1580156113ce573d6000803e3d6000fd5b505050506040513d601f19601f820116820180604052508101906113f29190614fc4565b61140e5760405162461bcd60e51b8152600401610a2d90615492565b846001600160a01b0381166114355760405162461bcd60e51b8152600401610a2d90615405565b84806114535760405162461bcd60e51b8152600401610a2d9061552d565b84806114715760405162461bcd60e51b8152600401610a2d9061552d565b61147a88613ff4565b61148261409a565b935061148e88856140b5565b6114966115a9565b60006114b289868a600a54426114ac9190615657565b8b6140f8565b90507f10b677c7a9f17c8fa541bdcc53b14beb96651665c3ef380c8df860dbd8f3545e8989838a898b6040516114ed96959493929190615234565b60405180910390a150505050949350505050565b6001600160a01b03811633146115715760405162461bcd60e51b815260206004820152602f60248201527f416363657373436f6e74726f6c3a2063616e206f6e6c792072656e6f756e636560448201526e103937b632b9903337b91039b2b63360891b6064820152608401610a2d565b61157b82826141e2565b5050565b61158833613cc3565b6115a45760405162461bcd60e51b8152600401610a2d90615559565b600555565b60015442106117ac57600054600180549091906115c690426156ae565b11156115f4576000546001546115dc90426156ae565b6115e6919061566f565b6115f1906001615657565b90505b60005461160290829061568f565b60018054600090611614908490615657565b9091555060009050600182141561166257670de0b6b3a7640000600954670de0b6b3a76400006116449190615657565b600554611651919061568f565b61165b919061566f565b90506116f2565b6005546009546040516379e42f5d60e11b815273__$23c3f0c4d39c3898c699ac978f80cfe781$__9263f3c85eba9261169f928790600401615641565b60206040518083038186803b1580156116b757600080fd5b505af41580156116cb573d6000803e3d6000fd5b505050506040513d601f19601f820116820180604052508101906116ef919061504f565b90505b60006116fc613adb565b6005549091506000670de0b6b3a764000061171783866156ae565b600754611724919061568f565b61172e919061566f565b9050828111156117645760075461174d84670de0b6b3a764000061568f565b611757919061566f565b6117619083615657565b93505b818411156117a65760058490556007546040517fd1a8a452d776b1b6802824ca2e8489c6448e2cb0963f552a9a19ab4ae064ca58916112849185918891615641565b50505050505b565b6117b733613cc3565b6117d35760405162461bcd60e51b8152600401610a2d90615559565b600955565b600d60205281600052604060002081815481106117f457600080fd5b90600052602060002001600091509150505481565b6000611816600754611d59565b905090565b61182433613cc3565b6118405760405162461bcd60e51b8152600401610a2d90615559565b6117ac60008051602061579a83398151915233611501565b61186133613cb7565b61187d5760405162461bcd60e51b8152600401610a2d9061537a565b61189560008051602061575a83398151915282611293565b50565b6001600160a01b0381166000908152600d60209081526040808320805482518185028101850190935280835284938301828280156118f557602002820191906000526020600020905b8154815260200190600101908083116118e1575b5050505050905080516000141561190f5750600092915050565b60005b81518110156119675761194b82828151811061193e57634e487b7160e01b600052603260045260246000fd5b602002602001015161216c565b6119559084615657565b925061196081615708565b9050611912565b5050919050565b61197733610cc8565b80611986575061198633613cb7565b6119a25760405162461bcd60e51b8152600401610a2d90615306565b6001600160a01b0381166119c85760405162461bcd60e51b8152600401610a2d90615348565b336001600160a01b03821614156119f15760405162461bcd60e51b8152600401610a2d90615462565b611a0960008051602061575a83398151915282611293565b61189560008051602061575a83398151915233611501565b600554600090611a3983670de0b6b3a764000061568f565b61096d919061566f565b60008180611a635760405162461bcd60e51b8152600401610a2d9061552d565b6000838152600f6020526040902060030154421115611a8c57611a85836109fa565b9150611a91565b600091505b50919050565b611aa033613cb7565b611abc5760405162461bcd60e51b8152600401610a2d9061537a565b6001600160a01b038116611ae25760405162461bcd60e51b8152600401610a2d90615348565b336001600160a01b0382161415611b0b5760405162461bcd60e51b8152600401610a2d90615462565b611b16600082611293565b611895600033611501565b8180611b3f5760405162461bcd60e51b8152600401610a2d9061552d565b8180611b5d5760405162461bcd60e51b8152600401610a2d9061552d565b6000848152600f6020526040902080546001600160a01b03163314611b945760405162461bcd60e51b8152600401610a2d90615434565b336000908152600e60209081526040808320888452909152902054600114611bfe5760405162461bcd60e51b815260206004820152601f60248201527f69742773206e6f742073696d706c65207374616b696e672070726f64756374006044820152606401610a2d565b611c066115a9565b6000611c1185611a21565b905084826001016000828254611c279190615657565b9250508190555080826002016000828254611c429190615657565b925050819055508460086000828254611c5b9190615657565b925050819055508060076000828254611c749190615657565b9091555050600454600254611c98916001600160a01b039182169133911688614249565b7f3580fad54ac878fb39f354ed4980379c99975b958cc12f96c2342daf1a943384338688604051611ccb939291906151bf565b60405180910390a1505050505050565b60009182526011602090815260408084206001600160a01b0393909316845291905290205460ff1690565b6000426000600101541015611d1b5750600090565b6001546118169042906156ae565b611d3233613cb7565b611d4e5760405162461bcd60e51b8152600401610a2d9061537a565b611895600082614364565b6000670de0b6b3a764000060055483611a39919061568f565b6004546000906001600160a01b0316634cf158586009336040518363ffffffff1660e01b8152600401611da692919061562a565b60206040518083038186803b158015611dbe57600080fd5b505afa158015611dd2573d6000803e3d6000fd5b505050506040513d601f19601f82011682018060405250810190611df69190614fc4565b611e125760405162461bcd60e51b8152600401610a2d90615492565b856001600160a01b038116611e395760405162461bcd60e51b8152600401610a2d90615405565b600086118015611e495750600084115b8015611e555750600085115b611e715760405162461bcd60e51b8152600401610a2d906155a2565b6003546040516316045cb160e31b8152600091829173__$23c3f0c4d39c3898c699ac978f80cfe781$__9163b022e58891611ebc916001600160a01b03169042908b906004016151bf565b604080518083038186803b158015611ed357600080fd5b505af4158015611ee7573d6000803e3d6000fd5b505050506040513d601f19601f82011682018060405250810190611f0b9190615088565b9150915060008211611f545760405162461bcd60e51b81526020600482015260126024820152711e995c9bc81cdd1bdcd15c1bd8da155b9a5d60721b6044820152606401610a2d565b60008111611f965760405162461bcd60e51b815260206004820152600f60248201526e7a65726f20756e6c6f636b54696d6560881b6044820152606401610a2d565b611f9f89613ff4565b611fa761409a565b9350611fb389856140b5565b611fbb6115a9565b6000611fca8a868b858c6140f8565b9050600080611fdb8c8c8b8861436e565b915091508160106000898152602001908152602001600020819055507fe3cd05b44cf9a64ec6c44b15776a7af54f595a214f12b62950054db4faeef15e8c8c858c8e8c888f8960405161207b999897969594939291906001600160a01b03999099168952602089019790975260408801959095526060870193909352608086019190915260a085015260c084015260e08301526101008201526101200190565b60405180910390a150505050505095945050505050565b61209b33610cc8565b806120aa57506120aa33613cb7565b6120c65760405162461bcd60e51b8152600401610a2d90615306565b6117ac60008051602061575a83398151915233611501565b806121195760405162461bcd60e51b815260206004820152600b60248201526a6e6f207374616b6549647360a81b6044820152606401610a2d565b8060005b818110156121665761215484848381811061214857634e487b7160e01b600052603260045260246000fd5b90506020020135610fe0565b8061215e81615708565b91505061211d565b50505050565b600061096d826109fa565b600081806121975760405162461bcd60e51b8152600401610a2d9061552d565b6004546002546121b6916001600160a01b039182169133911686614249565b6121bf33613ff4565b336000908152600d60205260409020805460019081106121ef57634e487b7160e01b600052603260045260246000fd5b906000526020600020015491506122046115a9565b61221c338385612215426001615657565b60006140f8565b507f1449c6dd7851abc30abf37f57715f492010519147cc2652fbc38202c18a6ee90338484604051612250939291906151bf565b60405180910390a150919050565b6000818061227e5760405162461bcd60e51b8152600401610a2d9061552d565b6000838152600f6020526040902060030154421115611a8c57611a85610764846109fa565b60008311806122b25750600082115b806122bd5750600081115b6122d95760405162461bcd60e51b8152600401610a2d906152de565b600084815260106020908152604080832054600f835292819020815160a08101835281546001600160a01b0316808252600183015494820194909452600282015492810192909252600381015460608301526004015460808201529033146123535760405162461bcd60e51b8152600401610a2d90615434565b336000908152600e6020908152604080832089845290915290205460011061238d5760405162461bcd60e51b8152600401610a2d906153c2565b6123956115a9565b60006123a48260400151611d59565b9050808511156123c65760405162461bcd60e51b8152600401610a2d906154f8565b82156123e1576123dc3388858560600151614561565b612404565b428260600151106124045760405162461bcd60e51b8152600401610a2d906154c2565b851561242957600454600254612429916001600160a01b039182169133911689614249565b60008085156124d1576003546040516316045cb160e31b815273__$23c3f0c4d39c3898c699ac978f80cfe781$__9163b022e58891612478916001600160a01b03169042908b906004016151bf565b604080518083038186803b15801561248f57600080fd5b505af41580156124a3573d6000803e3d6000fd5b505050506040513d601f19601f820116820180604052508101906124c79190615088565b9092509050612561565b600360009054906101000a90046001600160a01b03166001600160a01b031663fd2dcecf6040518163ffffffff1660e01b815260040160206040518083038186803b15801561251f57600080fd5b505afa158015612533573d6000803e3d6000fd5b505050506040513d601f19601f82011682018060405250810190612557919061504f565b9150836060015190505b61256d89828a8a614685565b6000808a88156125b2576125818b87615657565b955061258d8a876156ae565b955061259b33878b8861436e565b600083815260106020526040902082905590935091505b891561261c5760048054604051632a97f1e560e21b81526001600160a01b039091169163aa5fc794916125e99133918f910161521b565b600060405180830381600087803b15801561260357600080fd5b505af1158015612617573d6000803e3d6000fd5b505050505b60008051602061577a833981519152338c8c8c85888860405161264597969594939291906151e0565b60405180910390a1505050505050505050505050565b61266433613cb7565b6126805760405162461bcd60e51b8152600401610a2d9061537a565b61189560008051602061579a83398151915282611293565b82806126b65760405162461bcd60e51b8152600401610a2d9061552d565b60008311806126c55750600082115b6127115760405162461bcd60e51b815260206004820152601d60248201527f7a65726f205f616d6f756e7420616e64205f756e6c6f636b5765656b730000006044820152606401610a2d565b6000848152600f6020908152604091829020825160a08101845281546001600160a01b03168082526001830154938201939093526002820154938101939093526003810154606084015260040154608083015233146127825760405162461bcd60e51b8152600401610a2d90615434565b821561280357336000908152600e602090815260408083208884529091529020546001106128035760405162461bcd60e51b815260206004820152602860248201527f697427732073696d706c65207374616b696e672070726f647563742c2063616e60448201526713ba103637b1b59760c11b6064820152608401610a2d565b61280b6115a9565b612817338686866148f3565b6003546040805163fd2dcecf60e01b815290516000926001600160a01b03169163fd2dcecf916004808301926020929190829003018186803b15801561285c57600080fd5b505afa158015612870573d6000803e3d6000fd5b505050506040513d601f19601f82011682018060405250810190612894919061504f565b600087815260106020908152604080832054338452600e83528184208b85529092528220549293509160011080156128ca575081155b80156128d65750600086115b15612915576128fc336128eb6107648b6109fa565b6128f5908a615657565b888661436e565b60008a8152601060205260409020919091559050612d31565b336000908152600e602090815260408083208b8452909152902054600110801561293f5750600082115b15612d3157600354604051639ce5630560e01b81526004810184905260009182916001600160a01b0390911690639ce563059060240160606040518083038186803b15801561298d57600080fd5b505afa1580156129a1573d6000803e3d6000fd5b505050506040513d601f19601f820116820180604052508101906129c591906150d6565b925092505042821180156129dc5750428660600151115b6129f85760405162461bcd60e51b8152600401610a2d906155c6565b87612b1b57600080546060880151612a119042906156ae565b612a1b919061566f565b6009546040516379e42f5d60e11b815291925060009173__$23c3f0c4d39c3898c699ac978f80cfe781$__9163f3c85eba91612a5d918f918790600401615641565b60206040518083038186803b158015612a7557600080fd5b505af4158015612a89573d6000803e3d6000fd5b505050506040513d601f19601f82011682018060405250810190612aad919061504f565b60035460405163077f15b960e51b81529192506001600160a01b03169063efe2b72090612ae29033908a9086906004016151bf565b600060405180830381600087803b158015612afc57600080fd5b505af1158015612b10573d6000803e3d6000fd5b505050505050612d2e565b8715612d2e576000805481908190612b33898d61568f565b612b3d919061566f565b6009546040516379e42f5d60e11b815291925073__$23c3f0c4d39c3898c699ac978f80cfe781$__9163f3c85eba91612b7d918891908690600401615641565b60206040518083038186803b158015612b9557600080fd5b505af4158015612ba9573d6000803e3d6000fd5b505050506040513d601f19601f82011682018060405250810190612bcd919061504f565b9250612bd984846156ae565b92508b15612ca05760008054612bef8a8e61568f565b612bf942896156ae565b612c039190615657565b612c0d919061566f565b905073__$23c3f0c4d39c3898c699ac978f80cfe781$__63f3c85eba8e600954846040518463ffffffff1660e01b8152600401612c4c93929190615641565b60206040518083038186803b158015612c6457600080fd5b505af4158015612c78573d6000803e3d6000fd5b505050506040513d601f19601f82011682018060405250810190612c9c919061504f565b9250505b6003546001600160a01b031663b839c0a53389612cbd8688615657565b6040516001600160e01b031960e086901b1681526001600160a01b03909316600484015260248301919091526044820152606481018e9052608401600060405180830381600087803b158015612d1257600080fd5b505af1158015612d26573d6000803e3d6000fd5b505050505050505b50505b60008051602061573a8339815191523388888b8686604051610ca196959493929190615234565b60008111612d785760405162461bcd60e51b8152600401610a2d906155a2565b6000828152600f6020526040902080546001600160a01b03163314612daf5760405162461bcd60e51b8152600401610a2d90615434565b336000908152600e60209081526040808320868452909152902054600110612de95760405162461bcd60e51b8152600401610a2d906153c2565b612df16115a9565b6000612e008260020154611d59565b905080831115612e225760405162461bcd60e51b8152600401610a2d906154f8565b60008481526010602052604090205480612e5e5742836003015410612e595760405162461bcd60e51b8152600401610a2d906154c2565b612e6e565b612e6e3386838660030154614561565b6000612e7985611a21565b905060008460010154841115612e9b576001850154612e9890856156ae565b90505b81856002016000828254612eaf91906156ae565b925050819055508160076000828254612ec891906156ae565b909155505060018501548690612edf908390615657565b612ee991906156ae565b60018601556008548690612efe908390615657565b612f0891906156ae565b60085560048054604051632a97f1e560e21b81526001600160a01b039091169163aa5fc79491612f3c9133918b910161521b565b600060405180830381600087803b158015612f5657600080fd5b505af1158015612f6a573d6000803e3d6000fd5b5050505060008051602061577a8339815191523360008860008b600080604051612f9a97969594939291906151e0565b60405180910390a150505050505050565b8180612fc95760405162461bcd60e51b8152600401610a2d9061552d565b8180612fe75760405162461bcd60e51b8152600401610a2d9061552d565b6000848152600f6020526040902080546001600160a01b0316331461301e5760405162461bcd60e51b8152600401610a2d90615434565b60045460025461303d916001600160a01b039182169133911687614249565b6130456115a9565b600061305085611a21565b9050848260010160008282546130669190615657565b92505081905550808260020160008282546130819190615657565b92505081905550846008600082825461309a9190615657565b9250508190555080600760008282546130b39190615657565b9091555050600086815260106020908152604080832054338452600e83528184208a855290925282205490919060011080156130ef5750600082115b1561330a57600354604051639ce5630560e01b8152600481018490526000916001600160a01b031690639ce563059060240160606040518083038186803b15801561313957600080fd5b505afa15801561314d573d6000803e3d6000fd5b505050506040513d601f19601f8201168201806040525081019061317191906150d6565b5091505042811180156131875750428560030154115b6131a35760405162461bcd60e51b8152600401610a2d906155c6565b6000805460038701546131b79042906156ae565b6131c1919061566f565b9050889250806001141561320957670de0b6b3a7640000600954670de0b6b3a76400006131ee9190615657565b6131f8908b61568f565b613202919061566f565b92506132a1565b60018111156132a1576009546040516379e42f5d60e11b815273__$23c3f0c4d39c3898c699ac978f80cfe781$__9163f3c85eba9161324e918d918690600401615641565b60206040518083038186803b15801561326657600080fd5b505af415801561327a573d6000803e3d6000fd5b505050506040513d601f19601f8201168201806040525081019061329e919061504f565b92505b60035460405163077f15b960e51b81526001600160a01b039091169063efe2b720906132d5903390889088906004016151bf565b600060405180830381600087803b1580156132ef57600080fd5b505af1158015613303573d6000803e3d6000fd5b5050505050505b60008051602061573a833981519152338860008b8686604051610ca196959493929190615234565b61333b33613cb7565b6133575760405162461bcd60e51b8152600401610a2d9061537a565b6117ac600033611501565b61336b33610cc8565b8061337a575061337a33613cb7565b6133965760405162461bcd60e51b8152600401610a2d90615306565b866133d15760405162461bcd60e51b815260206004820152600b60248201526a0f4cae4de40d8cadccee8d60ab1b6044820152606401610a2d565b8685146134175760405162461bcd60e51b81526020600482015260146024820152730eee4dedcce40c4c2d8c2dcc6ca40d8cadccee8d60631b6044820152606401610a2d565b86831461345c5760405162461bcd60e51b81526020600482015260136024820152720eee4dedcce40e0cae4d2dec840d8cadccee8d606b1b6044820152606401610a2d565b8681146134a25760405162461bcd60e51b81526020600482015260146024820152730eee4dedcce40e8ded6cadc92c840d8cadccee8d60631b6044820152606401610a2d565b60005b878110156135725761355f8989838181106134d057634e487b7160e01b600052603260045260246000fd5b90506020020160208101906134e59190614dc9565b88888481811061350557634e487b7160e01b600052603260045260246000fd5b9050602002013587878581811061352c57634e487b7160e01b600052603260045260246000fd5b9050602002013586868681811061355357634e487b7160e01b600052603260045260246000fd5b905060200201356149c7565b508061356a81615708565b9150506134a5565b505050505050505050565b6000828061359d5760405162461bcd60e51b8152600401610a2d9061552d565b82806135bb5760405162461bcd60e51b8152600401610a2d9061552d565b600954806135db5760405162461bcd60e51b8152600401610a2d9061552d565b6003546040516316045cb160e31b8152600091829173__$23c3f0c4d39c3898c699ac978f80cfe781$__9163b022e58891613626916001600160a01b03169042908c906004016151bf565b604080518083038186803b15801561363d57600080fd5b505af4158015613651573d6000803e3d6000fd5b505050506040513d601f19601f820116820180604052508101906136759190615088565b60045460025492945090925061369a916001600160a01b03908116913391168b614249565b6136a333613ff4565b6136ab61409a565b95506136b733876140b5565b6136bf6115a9565b6136cd33878a8460006140f8565b506000806136dd338b8b8761436e565b60008a815260106020526040908190208390555191935091507ff46503b8d1f95e046084d2a40bac278932cd394b6ef745d41548422b8182af289061372d9033908d908d908d9088908890615234565b60405180910390a15050505050505092915050565b61374b82610cb3565b6137558133613f0a565b6112b083836141e2565b600082118061376e5750600081115b61378a5760405162461bcd60e51b8152600401610a2d906152de565b6000838152600f6020526040902080546001600160a01b031633146137c15760405162461bcd60e51b8152600401610a2d90615434565b336000908152600e602090815260408083208784529091529020546001106137fb5760405162461bcd60e51b8152600401610a2d906153c2565b6000848152601060205260409020548015613825576138203386838560030154614561565b613848565b428260030154106138485760405162461bcd60e51b8152600401610a2d906154c2565b831561386d5760045460025461386d916001600160a01b039182169133911687614249565b6000808415613915576003546040516316045cb160e31b815273__$23c3f0c4d39c3898c699ac978f80cfe781$__9163b022e588916138bc916001600160a01b03169042908a906004016151bf565b604080518083038186803b1580156138d357600080fd5b505af41580156138e7573d6000803e3d6000fd5b505050506040513d601f19601f8201168201806040525081019061390b9190615088565b90925090506139a5565b600360009054906101000a90046001600160a01b03166001600160a01b031663fd2dcecf6040518163ffffffff1660e01b815260040160206040518083038186803b15801561396357600080fd5b505afa158015613977573d6000803e3d6000fd5b505050506040513d601f19601f8201168201806040525081019061399b919061504f565b9150836003015490505b6139ad6115a9565b60006139bc8560020154611d59565b905060006139c988611a21565b9050600086600101548311156139eb5760018701546139e890846156ae565b90505b818760020160008282546139ff9190615657565b90915550506003870184905560018701548190613a1d908b90615657565b613a279190615657565b60018801556008548190613a3c908b90615657565b613a469190615657565b6008819055508160076000828254613a5e9190615657565b9091555060009050808b8a15613a9a57613a8333613a7c8e89615657565b8d8b61436e565b600083815260106020526040902082905590935091505b60008051602061577a833981519152338d60008e858888604051613ac497969594939291906151e0565b60405180910390a150505050505050505050505050565b600480546040805163688d653160e11b8152905160009384936001600160a01b03169263d11aca629281830192602092829003018186803b158015613b1f57600080fd5b505afa158015613b33573d6000803e3d6000fd5b505050506040513d601f19601f82011682018060405250810190613b57919061504f565b90506000613b66600754611d59565b905080821015613b795760009250505090565b613b8381836156ae565b9250505090565b613b9333613cc3565b613baf5760405162461bcd60e51b8152600401610a2d90615559565b8080613bcd5760405162461bcd60e51b8152600401610a2d9061552d565b81600a541415613c0d5760405162461bcd60e51b815260206004820152600b60248201526a1cd85b59481c195c9a5bd960aa1b6044820152606401610a2d565b50600a55565b613c1c33613cc3565b613c385760405162461bcd60e51b8152600401610a2d90615559565b6001600160a01b038116613c5e5760405162461bcd60e51b8152600401610a2d90615348565b336001600160a01b0382161415613c875760405162461bcd60e51b8152600401610a2d90615462565b613c9f60008051602061579a83398151915282611293565b61189560008051602061579a83398151915233611501565b600061096d8183611cdb565b600061096d60008051602061579a83398151915283611cdb565b6001600160a01b0382166000908152600e60209081526040808320848452909152902054600181118015613d2857506001600160a01b0383166000908152600d602052604090205481105b1561096d576001600160a01b0383166000908152600d6020526040902054613d52906001906156ae565b811015613e21576001600160a01b0383166000908152600d602052604081208054613d7f906001906156ae565b81548110613d9d57634e487b7160e01b600052603260045260246000fd5b9060005260206000200154905080600d6000866001600160a01b03166001600160a01b031681526020019081526020016000208381548110613def57634e487b7160e01b600052603260045260246000fd5b60009182526020808320909101929092556001600160a01b0386168152600e8252604080822093825292909152208190555b6001600160a01b0383166000818152600e602090815260408083208684528252808320839055928252600d905220805480613e6c57634e487b7160e01b600052603160045260246000fd5b6001900381819060005260206000200160009055905592915050565b6001811115613ec957506000908152600f6020526040812080546001600160a01b031916815560018101829055600281018290556003810182905560040155565b806001141561157b57506000908152600f6020526040812080546001600160a01b031916815560018101829055600281018290556003810182905560040155565b613f148282611cdb565b61157b57613f2c816001600160a01b03166014614a4c565b613f37836020614a4c565b604051602001613f48929190615150565b60408051601f198184030181529082905262461bcd60e51b8252610a2d916004016152ab565b613f788282611cdb565b61157b5760008281526011602090815260408083206001600160a01b03851684529091529020805460ff19166001179055613fb03390565b6001600160a01b0316816001600160a01b0316837f2f8788117e7eff1d82e926ec794901d17c78024a50270940304540a733656f0d60405160405180910390a45050565b6001600160a01b0381166000908152600d6020526040902054611895576001600160a01b0381166000908152600d602090815260408220805460018101825590835290822001819055600b80549161404b83615708565b90915550506001600160a01b03166000818152600e60209081526040808320600b80548552908352818420600190819055948452600d8352908320905481549485018255908352912090910155565b6000600b600081546140ab90615708565b9182905550919050565b6001600160a01b039091166000908152600d602081815260408084208054600e845282862087875284529185208290559282526001810183559183529091200155565b600060065460011461411c5760405162461bcd60e51b8152600401610a2d906155f8565b6000600681905561412c85611a21565b6040805160a0810182526001600160a01b038a8116825260208083018a8152838501868152606085018b8152608086018b815260008f8152600f909552968420955186546001600160a01b0319169516949094178555905160018501555160028401559051600383015591516004909101556008805492935087929091906141b5908490615657565b9250508190555080600760008282546141ce9190615657565b909155505060016006559695505050505050565b6141ec8282611cdb565b1561157b5760008281526011602090815260408083206001600160a01b0385168085529252808320805460ff1916905551339285917ff6391f5c32d9c69d2a47ea670b442974b53935d1edc7fd64eb21e047a839171b9190a45050565b604080516001600160a01b0385811660248301528481166044830152606480830185905283518084039091018152608490920183526020820180516001600160e01b03166323b872dd60e01b17905291516000928392908816916142ad9190615134565b6000604051808303816000865af19150503d80600081146142ea576040519150601f19603f3d011682016040523d82523d6000602084013e6142ef565b606091505b50915091508180156143195750805115806143195750808060200190518101906143199190614fc4565b61435c5760405162461bcd60e51b81526020600482015260146024820152731514905394d1915497d19493d357d1905253115160621b6044820152606401610a2d565b505050505050565b61157b8282613f6e565b6000806006546001146143935760405162461bcd60e51b8152600401610a2d906155f8565b60006006819055600954905473__$23c3f0c4d39c3898c699ac978f80cfe781$__9163f3c85eba918891906143c8888a61568f565b6143d2919061566f565b6040518463ffffffff1660e01b81526004016143f093929190615641565b60206040518083038186803b15801561440857600080fd5b505af415801561441c573d6000803e3d6000fd5b505050506040513d601f19601f82011682018060405250810190614440919061504f565b90506000811161448b5760405162461bcd60e51b81526020600482015260166024820152751e995c9bc818dbdb5c1bdd5b99195908185b5bdd5b9d60521b6044820152606401610a2d565b60035460405163036e72c360e21b81526001600160a01b0390911690630db9cb0c906144bf908990859089906004016151bf565b602060405180830381600087803b1580156144d957600080fd5b505af11580156144ed573d6000803e3d6000fd5b505050506040513d601f19601f82011682018060405250810190614511919061504f565b9150600082116145515760405162461bcd60e51b815260206004820152600b60248201526a1e995c9bc81cdd1bdcd25960aa1b6044820152606401610a2d565b6001600655909590945092505050565b600354604051639ce5630560e01b8152600481018490526000916001600160a01b031690639ce563059060240160606040518083038186803b1580156145a657600080fd5b505afa1580156145ba573d6000803e3d6000fd5b505050506040513d601f19601f820116820180604052508101906145de91906150d6565b5091505042811080156145f057504282105b61460c5760405162461bcd60e51b8152600401610a2d906154c2565b60035460405163c0a37b3f60e01b81526001600160a01b039091169063c0a37b3f9061463e908890879060040161521b565b600060405180830381600087803b15801561465857600080fd5b505af115801561466c573d6000803e3d6000fd5b5050506000948552505060106020525050604081205550565b6006546001146146a75760405162461bcd60e51b8152600401610a2d906155f8565b60006006819055848152600f60205260409020821515806146c85750600082115b806146d35750600084115b61470e5760405162461bcd60e51b815260206004820152600c60248201526b7a65726f20416d6f756e747360a01b6044820152606401610a2d565b600081600201541161474e5760405162461bcd60e51b81526020600482015260096024820152687a65726f206c746f7360b81b6044820152606401610a2d565b600061475d8260020154611d59565b9050808311156147ae5760405162461bcd60e51b815260206004820152601c60248201527b1cdd185ad948185b5bdd5b9d081a5cc81a5b9cdd59999a58da595b9d60221b6044820152606401610a2d565b60008085156147c3576147c086611a21565b91505b84156147d5576147d285611a21565b90505b6003840187905560018401546000908411156147fd5760018501546147fa90856156ae565b90505b821561483657828560020160008282546148179190615657565b9250508190555082600760008282546148309190615657565b90915550505b811561486f578185600201600082825461485091906156ae565b92505081905550816007600082825461486991906156ae565b90915550505b600087118061487e5750600081115b806148895750600086115b156148e35785818887600101546148a09190615657565b6148aa9190615657565b6148b491906156ae565b6001860155600854869082906148cb908a90615657565b6148d59190615657565b6148df91906156ae565b6008555b5050600160065550505050505050565b811561491857600454600254614918916001600160a01b039182169187911685614249565b60008082156149bc576003546040516316045cb160e31b815273__$23c3f0c4d39c3898c699ac978f80cfe781$__9163b022e58891614968916001600160a01b03169060009088906004016151bf565b604080518083038186803b15801561497f57600080fd5b505af4158015614993573d6000803e3d6000fd5b505050506040513d601f19601f820116820180604052508101906149b79190615088565b925090505b61435c858584614c34565b600083806149e75760405162461bcd60e51b8152600401610a2d9061552d565b8380614a055760405162461bcd60e51b8152600401610a2d9061552d565b614a0e87613ff4565b614a1661409a565b9250614a2287846140b5565b614a308784888860006140f8565b5050506000818152601060205260409020919091559392505050565b60606000614a5b83600261568f565b614a66906002615657565b6001600160401b03811115614a8b57634e487b7160e01b600052604160045260246000fd5b6040519080825280601f01601f191660200182016040528015614ab5576020820181803683370190505b509050600360fc1b81600081518110614ade57634e487b7160e01b600052603260045260246000fd5b60200101906001600160f81b031916908160001a905350600f60fb1b81600181518110614b1b57634e487b7160e01b600052603260045260246000fd5b60200101906001600160f81b031916908160001a9053506000614b3f84600261568f565b614b4a906001615657565b90505b6001811115614bde576f181899199a1a9b1b9c1cb0b131b232b360811b85600f1660108110614b8c57634e487b7160e01b600052603260045260246000fd5b1a60f81b828281518110614bb057634e487b7160e01b600052603260045260246000fd5b60200101906001600160f81b031916908160001a90535060049490941c93614bd7816156f1565b9050614b4d565b508315614c2d5760405162461bcd60e51b815260206004820181905260248201527f537472696e67733a20686578206c656e67746820696e73756666696369656e746044820152606401610a2d565b9392505050565b600654600114614c565760405162461bcd60e51b8152600401610a2d906155f8565b600060065581151580614c695750600081115b614cb55760405162461bcd60e51b815260206004820181905260248201527f7a65726f20616d6f756e7420616e64205f696e6372656173655365636f6e64736044820152606401610a2d565b6000838152600f602052604090208215614d3e576000614cd484611a21565b905083826001016000828254614cea9190615657565b9250508190555080826002016000828254614d059190615657565b925050819055508360086000828254614d1e9190615657565b925050819055508060076000828254614d379190615657565b9091555050505b8115614d5e5781816003016000828254614d589190615657565b90915550505b505060016006555050565b80356001600160a01b0381168114610fdb57600080fd5b60008083601f840112614d91578182fd5b5081356001600160401b03811115614da7578182fd5b6020830191508360208260051b8501011115614dc257600080fd5b9250929050565b600060208284031215614dda578081fd5b614c2d82614d69565b600080600060608486031215614df7578182fd5b614e0084614d69565b9250614e0e60208501614d69565b9150614e1c60408501614d69565b90509250925092565b60008060408385031215614e37578182fd5b614e4083614d69565b946020939093013593505050565b60008060008060808587031215614e63578081fd5b614e6c85614d69565b966020860135965060408601359560600135945092505050565b600080600080600060a08688031215614e9d578081fd5b614ea686614d69565b97602087013597506040870135966060810135965060800135945092505050565b6000806000806000806000806080898b031215614ee2578283fd5b88356001600160401b0380821115614ef8578485fd5b614f048c838d01614d80565b909a50985060208b0135915080821115614f1c578485fd5b614f288c838d01614d80565b909850965060408b0135915080821115614f40578485fd5b614f4c8c838d01614d80565b909650945060608b0135915080821115614f64578384fd5b50614f718b828c01614d80565b999c989b5096995094979396929594505050565b60008060208385031215614f97578182fd5b82356001600160401b03811115614fac578283fd5b614fb885828601614d80565b90969095509350505050565b600060208284031215614fd5578081fd5b81518015158114614c2d578182fd5b600060208284031215614ff5578081fd5b5035919050565b6000806040838503121561500e578182fd5b8235915061501e60208401614d69565b90509250929050565b600060208284031215615038578081fd5b81356001600160e01b031981168114614c2d578182fd5b600060208284031215615060578081fd5b5051919050565b60008060408385031215615079578081fd5b50508035926020909101359150565b6000806040838503121561509a578182fd5b505080516020909101519092909150565b6000806000606084860312156150bf578081fd5b505081359360208301359350604090920135919050565b6000806000606084860312156150ea578081fd5b8351925060208401519150604084015190509250925092565b60008060008060808587031215615118578182fd5b5050823594602084013594506040840135936060013592509050565b600082516151468184602087016156c5565b9190910192915050565b76020b1b1b2b9b9a1b7b73a3937b61d1030b1b1b7bab73a1604d1b8152600083516151828160178501602088016156c5565b7001034b99036b4b9b9b4b733903937b6329607d1b60179184019182015283516151b38160288401602088016156c5565b01602801949350505050565b6001600160a01b039390931683526020830191909152604082015260600190565b6001600160a01b03979097168752602087019590955260408601939093526060850191909152608084015260a083015260c082015260e00190565b6001600160a01b03929092168252602082015260400190565b6001600160a01b03969096168652602086019490945260408501929092526060840152608083015260a082015260c00190565b6020808252825182820181905260009190848201906040850190845b8181101561529f57835183529284019291840191600101615283565b50909695505050505050565b60208152600082518060208401526152ca8160408501602087016156c5565b601f01601f19169190910160400192915050565b6020808252600e908201526d185b1b081e995c9bc81a5b9c1d5d60921b604082015260600190565b60208082526022908201527f41636365737369626c653a2043616c6c6572206973206e6f7420616e2061646d60408201526134b760f11b606082015260800190565b60208082526018908201527741636365737369626c653a207a65726f206164647265737360401b604082015260600190565b60208082526028908201527f41636365737369626c653a2043616c6c6572206973206e6f7420616e2070726f6040820152673c3c9030b236b4b760c11b606082015260800190565b60208082526023908201527f69742773206e6f7420666f722073696d706c65207374616b65206f7220656d706040820152623a3c9760e91b606082015260800190565b6020808252601590820152745374616b696e673a207a65726f206164647265737360581b604082015260600190565b60208082526014908201527331b0b63632b91034b9903737ba1039ba30b5b2b960611b604082015260600190565b60208082526016908201527520b1b1b2b9b9b4b136329d1039b0b6b29030b236b4b760511b604082015260600190565b60208082526016908201527539b2b73232b91034b9903737ba1030903137b73232b960511b604082015260600190565b6020808252601c908201527b1b1bd8dac8195b99081d1a5b59481a185cc81b9bdd081c185cdcd95960221b604082015260600190565b6020808252601b908201527a1c995b585a5b9959151bdcc81a5cc81a5b9cdd59999a58da595b9d602a1b604082015260600190565b60208082526012908201527114dd185ada5b99ce881e995c9bc81d5a5b9d60721b604082015260600190565b60208082526029908201527f41636365737369626c653a2043616c6c6572206973206e6f7420616e20706f6c60408201526834b1bc9030b236b4b760b91b606082015260800190565b6020808252600a90820152691e995c9bc81a5b9c1d5d60b21b604082015260600190565b6020808252601890820152771b1bd8dac8195b99081d1a5b59481a185cc81c185cdcd95960421b604082015260600190565b6020808252601890820152774c6f636b496420697320616c726561647920696e2075736560401b604082015260600190565b9182526001600160a01b0316602082015260400190565b9283526020830191909152604082015260600190565b6000821982111561566a5761566a615723565b500190565b60008261568a57634e487b7160e01b81526012600452602481fd5b500490565b60008160001904831182151516156156a9576156a9615723565b500290565b6000828210156156c0576156c0615723565b500390565b60005b838110156156e05781810151838201526020016156c8565b838111156121665750506000910152565b60008161570057615700615723565b506000190190565b600060001982141561571c5761571c615723565b5060010190565b634e487b7160e01b600052601160045260246000fdfe4ed3cb428b71401f7eebc41b131a378b44ab9e704fc3fbd44909b1792ecb4ad052eafc11f6f81f86878bffd31109a0d92f37506527754f00788853ff9f63b130b96969612f881e3e16987f7cc8e53854fbdcd75a94b1f85e911129b7fe279b5cfb5864e8ff833c3cb2d2d08505e82ff02a43554c74a35d4f5a64e85261278311a2646970667358221220b94175362b37bc869832950b1fedbd64aaa9b7a6eeba96927aedc01b4584c06b64736f6c63430008040033",
  "linkReferences": {
    "contracts/libraries/LibStaking.sol": {
      "LibStaking": [
        {
          "length": 20,
          "start": 3853
        },
        {
          "length": 20,
          "start": 5789
        },
        {
          "length": 20,
          "start": 7854
        },
        {
          "length": 20,
          "start": 9322
        },
        {
          "length": 20,
          "start": 10841
        },
        {
          "length": 20,
          "start": 11128
        },
        {
          "length": 20,
          "start": 11319
        },
        {
          "length": 20,
          "start": 12874
        },
        {
          "length": 20,
          "start": 13848
        },
        {
          "length": 20,
          "start": 14510
        },
        {
          "length": 20,
          "start": 17351
        },
        {
          "length": 20,
          "start": 18777
        }
      ]
    }
  },
  "deployedLinkReferences": {
    "contracts/libraries/LibStaking.sol": {
      "LibStaking": [
        {
          "length": 20,
          "start": 3815
        },
        {
          "length": 20,
          "start": 5751
        },
        {
          "length": 20,
          "start": 7816
        },
        {
          "length": 20,
          "start": 9284
        },
        {
          "length": 20,
          "start": 10803
        },
        {
          "length": 20,
          "start": 11090
        },
        {
          "length": 20,
          "start": 11281
        },
        {
          "length": 20,
          "start": 12836
        },
        {
          "length": 20,
          "start": 13810
        },
        {
          "length": 20,
          "start": 14472
        },
        {
          "length": 20,
          "start": 17313
        },
        {
          "length": 20,
          "start": 18739
        }
      ]
    }
  }
}