{
  "_format": "hh-sol-artifact-1",
  "contractName": "StakingV2",
  "sourceName": "contracts/StakingV2.sol",
  "abi": [
    {
      "inputs": [],
      "stateMutability": "nonpayable",
      "type": "constructor"
    },
    {
      "anonymous": false,
      "inputs": [
        {
          "indexed": false,
          "internalType": "address",
          "name": "staker",
          "type": "address"
        },
        {
          "indexed": false,
          "internalType": "uint256",
          "name": "claimAmount",
          "type": "uint256"
        },
        {
          "indexed": false,
          "internalType": "uint256",
          "name": "stakeId",
          "type": "uint256"
        }
      ],
      "name": "ClaimdForNonLock",
      "type": "event"
    },
    {
      "anonymous": false,
      "inputs": [
        {
          "indexed": false,
          "internalType": "address",
          "name": "to",
          "type": "address"
        },
        {
          "indexed": false,
          "internalType": "uint256",
          "name": "amount",
          "type": "uint256"
        },
        {
          "indexed": false,
          "internalType": "uint256",
          "name": "stakeId",
          "type": "uint256"
        }
      ],
      "name": "IncreasedAmountForSimpleStake",
      "type": "event"
    },
    {
      "anonymous": false,
      "inputs": [
        {
          "indexed": false,
          "internalType": "address",
          "name": "staker",
          "type": "address"
        },
        {
          "indexed": false,
          "internalType": "uint256",
          "name": "amount",
          "type": "uint256"
        },
        {
          "indexed": false,
          "internalType": "uint256",
          "name": "unlockWeeks",
          "type": "uint256"
        },
        {
          "indexed": false,
          "internalType": "uint256",
          "name": "stakeId",
          "type": "uint256"
        },
        {
          "indexed": false,
          "internalType": "uint256",
          "name": "stosId",
          "type": "uint256"
        }
      ],
      "name": "IncreasedBeforeEndOrNonEnd",
      "type": "event"
    },
    {
      "anonymous": false,
      "inputs": [
        {
          "indexed": false,
          "internalType": "uint256",
          "name": "oldIndex",
          "type": "uint256"
        },
        {
          "indexed": false,
          "internalType": "uint256",
          "name": "newIndex",
          "type": "uint256"
        },
        {
          "indexed": false,
          "internalType": "uint256",
          "name": "totalLTOS",
          "type": "uint256"
        }
      ],
      "name": "Rebased",
      "type": "event"
    },
    {
      "anonymous": false,
      "inputs": [
        {
          "indexed": false,
          "internalType": "address",
          "name": "to",
          "type": "address"
        },
        {
          "indexed": false,
          "internalType": "uint256",
          "name": "addAmount",
          "type": "uint256"
        },
        {
          "indexed": false,
          "internalType": "uint256",
          "name": "claimAmount",
          "type": "uint256"
        },
        {
          "indexed": false,
          "internalType": "uint256",
          "name": "periodWeeks",
          "type": "uint256"
        },
        {
          "indexed": false,
          "internalType": "uint256",
          "name": "stakeId",
          "type": "uint256"
        },
        {
          "indexed": false,
          "internalType": "uint256",
          "name": "stosId",
          "type": "uint256"
        }
      ],
      "name": "ResetStakedGetStosAfterLock",
      "type": "event"
    },
    {
      "anonymous": false,
      "inputs": [
        {
          "indexed": true,
          "internalType": "bytes32",
          "name": "role",
          "type": "bytes32"
        },
        {
          "indexed": true,
          "internalType": "bytes32",
          "name": "previousAdminRole",
          "type": "bytes32"
        },
        {
          "indexed": true,
          "internalType": "bytes32",
          "name": "newAdminRole",
          "type": "bytes32"
        }
      ],
      "name": "RoleAdminChanged",
      "type": "event"
    },
    {
      "anonymous": false,
      "inputs": [
        {
          "indexed": true,
          "internalType": "bytes32",
          "name": "role",
          "type": "bytes32"
        },
        {
          "indexed": true,
          "internalType": "address",
          "name": "account",
          "type": "address"
        },
        {
          "indexed": true,
          "internalType": "address",
          "name": "sender",
          "type": "address"
        }
      ],
      "name": "RoleGranted",
      "type": "event"
    },
    {
      "anonymous": false,
      "inputs": [
        {
          "indexed": true,
          "internalType": "bytes32",
          "name": "role",
          "type": "bytes32"
        },
        {
          "indexed": true,
          "internalType": "address",
          "name": "account",
          "type": "address"
        },
        {
          "indexed": true,
          "internalType": "address",
          "name": "sender",
          "type": "address"
        }
      ],
      "name": "RoleRevoked",
      "type": "event"
    },
    {
      "anonymous": false,
      "inputs": [
        {
          "indexed": false,
          "internalType": "address",
          "name": "to",
          "type": "address"
        },
        {
          "indexed": false,
          "internalType": "uint256",
          "name": "amount",
          "type": "uint256"
        },
        {
          "indexed": false,
          "internalType": "uint256",
          "name": "stakeId",
          "type": "uint256"
        }
      ],
      "name": "Staked",
      "type": "event"
    },
    {
      "anonymous": false,
      "inputs": [
        {
          "indexed": false,
          "internalType": "address",
          "name": "to",
          "type": "address"
        },
        {
          "indexed": false,
          "internalType": "uint256",
          "name": "amount",
          "type": "uint256"
        },
        {
          "indexed": false,
          "internalType": "uint256",
          "name": "ltos",
          "type": "uint256"
        },
        {
          "indexed": false,
          "internalType": "uint256",
          "name": "marketId",
          "type": "uint256"
        },
        {
          "indexed": false,
          "internalType": "uint256",
          "name": "stakeId",
          "type": "uint256"
        },
        {
          "indexed": false,
          "internalType": "uint256",
          "name": "tosPrice",
          "type": "uint256"
        }
      ],
      "name": "StakedByBond",
      "type": "event"
    },
    {
      "anonymous": false,
      "inputs": [
        {
          "indexed": false,
          "internalType": "address",
          "name": "to",
          "type": "address"
        },
        {
          "indexed": false,
          "internalType": "uint256",
          "name": "amount",
          "type": "uint256"
        },
        {
          "indexed": false,
          "internalType": "uint256",
          "name": "periodWeeks",
          "type": "uint256"
        },
        {
          "indexed": false,
          "internalType": "uint256",
          "name": "stakeId",
          "type": "uint256"
        },
        {
          "indexed": false,
          "internalType": "uint256",
          "name": "stosId",
          "type": "uint256"
        }
      ],
      "name": "StakedGetStos",
      "type": "event"
    },
    {
      "anonymous": false,
      "inputs": [
        {
          "indexed": false,
          "internalType": "address",
          "name": "to",
          "type": "address"
        },
        {
          "indexed": false,
          "internalType": "uint256",
          "name": "amount",
          "type": "uint256"
        },
        {
          "indexed": false,
          "internalType": "uint256",
          "name": "ltos",
          "type": "uint256"
        },
        {
          "indexed": false,
          "internalType": "uint256",
          "name": "periodWeeks",
          "type": "uint256"
        },
        {
          "indexed": false,
          "internalType": "uint256",
          "name": "marketId",
          "type": "uint256"
        },
        {
          "indexed": false,
          "internalType": "uint256",
          "name": "stakeId",
          "type": "uint256"
        },
        {
          "indexed": false,
          "internalType": "uint256",
          "name": "stosId",
          "type": "uint256"
        },
        {
          "indexed": false,
          "internalType": "uint256",
          "name": "tosPrice",
          "type": "uint256"
        }
      ],
      "name": "StakedGetStosByBond",
      "type": "event"
    },
    {
      "anonymous": false,
      "inputs": [
        {
          "indexed": false,
          "internalType": "address",
          "name": "staker",
          "type": "address"
        },
        {
          "indexed": false,
          "internalType": "uint256",
          "name": "amount",
          "type": "uint256"
        },
        {
          "indexed": false,
          "internalType": "uint256",
          "name": "stakeId",
          "type": "uint256"
        }
      ],
      "name": "Unstaked",
      "type": "event"
    },
    {
      "inputs": [],
      "name": "ADMIN_ROLE",
      "outputs": [
        {
          "internalType": "bytes32",
          "name": "",
          "type": "bytes32"
        }
      ],
      "stateMutability": "view",
      "type": "function"
    },
    {
      "inputs": [],
      "name": "DEFAULT_ADMIN_ROLE",
      "outputs": [
        {
          "internalType": "bytes32",
          "name": "",
          "type": "bytes32"
        }
      ],
      "stateMutability": "view",
      "type": "function"
    },
    {
      "inputs": [],
      "name": "POLICY_ROLE",
      "outputs": [
        {
          "internalType": "bytes32",
          "name": "",
          "type": "bytes32"
        }
      ],
      "stateMutability": "view",
      "type": "function"
    },
    {
      "inputs": [],
      "name": "PROJECT_ADMIN_ROLE",
      "outputs": [
        {
          "internalType": "bytes32",
          "name": "",
          "type": "bytes32"
        }
      ],
      "stateMutability": "view",
      "type": "function"
    },
    {
      "inputs": [
        {
          "internalType": "address",
          "name": "account",
          "type": "address"
        }
      ],
      "name": "addAdmin",
      "outputs": [],
      "stateMutability": "nonpayable",
      "type": "function"
    },
    {
      "inputs": [
        {
          "internalType": "address",
          "name": "_account",
          "type": "address"
        }
      ],
      "name": "addPolicy",
      "outputs": [],
      "stateMutability": "nonpayable",
      "type": "function"
    },
    {
      "inputs": [
        {
          "internalType": "address",
          "name": "_owner",
          "type": "address"
        }
      ],
      "name": "addProxyAdmin",
      "outputs": [],
      "stateMutability": "nonpayable",
      "type": "function"
    },
    {
      "inputs": [
        {
          "internalType": "uint256",
          "name": "",
          "type": "uint256"
        }
      ],
      "name": "allStakings",
      "outputs": [
        {
          "internalType": "address",
          "name": "staker",
          "type": "address"
        },
        {
          "internalType": "uint256",
          "name": "deposit",
          "type": "uint256"
        },
        {
          "internalType": "uint256",
          "name": "ltos",
          "type": "uint256"
        },
        {
          "internalType": "uint256",
          "name": "startTime",
          "type": "uint256"
        },
        {
          "internalType": "uint256",
          "name": "endTime",
          "type": "uint256"
        },
        {
          "internalType": "uint256",
          "name": "marketId",
          "type": "uint256"
        }
      ],
      "stateMutability": "view",
      "type": "function"
    },
    {
      "inputs": [
        {
          "internalType": "address",
          "name": "_addr",
          "type": "address"
        }
      ],
      "name": "balanceOf",
      "outputs": [
        {
          "internalType": "uint256",
          "name": "balance",
          "type": "uint256"
        }
      ],
      "stateMutability": "view",
      "type": "function"
    },
    {
      "inputs": [
        {
          "internalType": "uint256",
          "name": "_stakeId",
          "type": "uint256"
        }
      ],
      "name": "balanceOfId",
      "outputs": [
        {
          "internalType": "uint256",
          "name": "",
          "type": "uint256"
        }
      ],
      "stateMutability": "view",
      "type": "function"
    },
    {
      "inputs": [],
      "name": "basicBondPeriod",
      "outputs": [
        {
          "internalType": "uint256",
          "name": "",
          "type": "uint256"
        }
      ],
      "stateMutability": "view",
      "type": "function"
    },
    {
      "inputs": [
        {
          "internalType": "uint256",
          "name": "_stakeId",
          "type": "uint256"
        },
        {
          "internalType": "uint256",
          "name": "_claimAmount",
          "type": "uint256"
        }
      ],
      "name": "claimForSimpleType",
      "outputs": [],
      "stateMutability": "nonpayable",
      "type": "function"
    },
    {
      "inputs": [
        {
          "internalType": "uint256",
          "name": "_stakeId",
          "type": "uint256"
        }
      ],
      "name": "claimableLtos",
      "outputs": [
        {
          "internalType": "uint256",
          "name": "",
          "type": "uint256"
        }
      ],
      "stateMutability": "view",
      "type": "function"
    },
    {
      "inputs": [
        {
          "internalType": "uint256",
          "name": "_stakeId",
          "type": "uint256"
        }
      ],
      "name": "claimableTos",
      "outputs": [
        {
          "internalType": "uint256",
          "name": "",
          "type": "uint256"
        }
      ],
      "stateMutability": "view",
      "type": "function"
    },
    {
      "inputs": [
        {
          "internalType": "uint256",
          "name": "",
          "type": "uint256"
        }
      ],
      "name": "connectId",
      "outputs": [
        {
          "internalType": "uint256",
          "name": "",
          "type": "uint256"
        }
      ],
      "stateMutability": "view",
      "type": "function"
    },
    {
      "inputs": [],
      "name": "epoch",
      "outputs": [
        {
          "internalType": "uint256",
          "name": "length_",
          "type": "uint256"
        },
        {
          "internalType": "uint256",
          "name": "end",
          "type": "uint256"
        }
      ],
      "stateMutability": "view",
      "type": "function"
    },
    {
      "inputs": [],
      "name": "generateMarketId",
      "outputs": [
        {
          "internalType": "uint256",
          "name": "",
          "type": "uint256"
        }
      ],
      "stateMutability": "nonpayable",
      "type": "function"
    },
    {
      "inputs": [],
      "name": "getIndex",
      "outputs": [
        {
          "internalType": "uint256",
          "name": "",
          "type": "uint256"
        }
      ],
      "stateMutability": "view",
      "type": "function"
    },
    {
      "inputs": [
        {
          "internalType": "uint256",
          "name": "ltos",
          "type": "uint256"
        }
      ],
      "name": "getLtosToTos",
      "outputs": [
        {
          "internalType": "uint256",
          "name": "",
          "type": "uint256"
        }
      ],
      "stateMutability": "view",
      "type": "function"
    },
    {
      "inputs": [
        {
          "internalType": "bytes32",
          "name": "role",
          "type": "bytes32"
        }
      ],
      "name": "getRoleAdmin",
      "outputs": [
        {
          "internalType": "bytes32",
          "name": "",
          "type": "bytes32"
        }
      ],
      "stateMutability": "view",
      "type": "function"
    },
    {
      "inputs": [
        {
          "internalType": "uint256",
          "name": "amount",
          "type": "uint256"
        }
      ],
      "name": "getTosToLtos",
      "outputs": [
        {
          "internalType": "uint256",
          "name": "",
          "type": "uint256"
        }
      ],
      "stateMutability": "view",
      "type": "function"
    },
    {
      "inputs": [
        {
          "internalType": "bytes32",
          "name": "role",
          "type": "bytes32"
        },
        {
          "internalType": "address",
          "name": "account",
          "type": "address"
        }
      ],
      "name": "grantRole",
      "outputs": [],
      "stateMutability": "nonpayable",
      "type": "function"
    },
    {
      "inputs": [
        {
          "internalType": "bytes32",
          "name": "role",
          "type": "bytes32"
        },
        {
          "internalType": "address",
          "name": "account",
          "type": "address"
        }
      ],
      "name": "hasRole",
      "outputs": [
        {
          "internalType": "bool",
          "name": "",
          "type": "bool"
        }
      ],
      "stateMutability": "view",
      "type": "function"
    },
    {
      "inputs": [
        {
          "internalType": "uint256",
          "name": "_stakeId",
          "type": "uint256"
        },
        {
          "internalType": "uint256",
          "name": "_amount",
          "type": "uint256"
        }
      ],
      "name": "increaseAmountForSimpleStake",
      "outputs": [],
      "stateMutability": "nonpayable",
      "type": "function"
    },
    {
      "inputs": [
        {
          "internalType": "uint256",
          "name": "_stakeId",
          "type": "uint256"
        },
        {
          "internalType": "uint256",
          "name": "_amount",
          "type": "uint256"
        },
        {
          "internalType": "uint256",
          "name": "_unlockWeeks",
          "type": "uint256"
        }
      ],
      "name": "increaseBeforeEndOrNonEnd",
      "outputs": [],
      "stateMutability": "nonpayable",
      "type": "function"
    },
    {
      "inputs": [],
      "name": "index_",
      "outputs": [
        {
          "internalType": "uint256",
          "name": "",
          "type": "uint256"
        }
      ],
      "stateMutability": "view",
      "type": "function"
    },
    {
      "inputs": [
        {
          "internalType": "address",
          "name": "account",
          "type": "address"
        }
      ],
      "name": "isAdmin",
      "outputs": [
        {
          "internalType": "bool",
          "name": "",
          "type": "bool"
        }
      ],
      "stateMutability": "view",
      "type": "function"
    },
    {
      "inputs": [
        {
          "internalType": "address",
          "name": "account",
          "type": "address"
        }
      ],
      "name": "isPolicy",
      "outputs": [
        {
          "internalType": "bool",
          "name": "",
          "type": "bool"
        }
      ],
      "stateMutability": "view",
      "type": "function"
    },
    {
      "inputs": [
        {
          "internalType": "address",
          "name": "account",
          "type": "address"
        }
      ],
      "name": "isProxyAdmin",
      "outputs": [
        {
          "internalType": "bool",
          "name": "",
          "type": "bool"
        }
      ],
      "stateMutability": "view",
      "type": "function"
    },
    {
      "inputs": [],
      "name": "lockTOS",
      "outputs": [
        {
          "internalType": "address",
          "name": "",
          "type": "address"
        }
      ],
      "stateMutability": "view",
      "type": "function"
    },
    {
      "inputs": [],
      "name": "marketIdCounter",
      "outputs": [
        {
          "internalType": "uint256",
          "name": "",
          "type": "uint256"
        }
      ],
      "stateMutability": "view",
      "type": "function"
    },
    {
      "inputs": [
        {
          "internalType": "uint256[]",
          "name": "_stakeIds",
          "type": "uint256[]"
        }
      ],
      "name": "multiUnstake",
      "outputs": [],
      "stateMutability": "nonpayable",
      "type": "function"
    },
    {
      "inputs": [],
      "name": "nextIndex",
      "outputs": [
        {
          "internalType": "uint256",
          "name": "",
          "type": "uint256"
        }
      ],
      "stateMutability": "view",
      "type": "function"
    },
    {
      "inputs": [],
      "name": "possibleIndex",
      "outputs": [
        {
          "internalType": "uint256",
          "name": "",
          "type": "uint256"
        }
      ],
      "stateMutability": "view",
      "type": "function"
    },
    {
      "inputs": [],
      "name": "rebaseIndex",
      "outputs": [],
      "stateMutability": "nonpayable",
      "type": "function"
    },
    {
      "inputs": [],
      "name": "rebasePerEpoch",
      "outputs": [
        {
          "internalType": "uint256",
          "name": "",
          "type": "uint256"
        }
      ],
      "stateMutability": "view",
      "type": "function"
    },
    {
      "inputs": [
        {
          "internalType": "uint256",
          "name": "_stakeId",
          "type": "uint256"
        }
      ],
      "name": "remainedLtos",
      "outputs": [
        {
          "internalType": "uint256",
          "name": "",
          "type": "uint256"
        }
      ],
      "stateMutability": "view",
      "type": "function"
    },
    {
      "inputs": [],
      "name": "removeAdmin",
      "outputs": [],
      "stateMutability": "nonpayable",
      "type": "function"
    },
    {
      "inputs": [],
      "name": "removePolicy",
      "outputs": [],
      "stateMutability": "nonpayable",
      "type": "function"
    },
    {
      "inputs": [],
      "name": "removeProxyAdmin",
      "outputs": [],
      "stateMutability": "nonpayable",
      "type": "function"
    },
    {
      "inputs": [
        {
          "internalType": "bytes32",
          "name": "role",
          "type": "bytes32"
        },
        {
          "internalType": "address",
          "name": "account",
          "type": "address"
        }
      ],
      "name": "renounceRole",
      "outputs": [],
      "stateMutability": "nonpayable",
      "type": "function"
    },
    {
      "inputs": [
        {
          "internalType": "uint256",
          "name": "_stakeId",
          "type": "uint256"
        },
        {
          "internalType": "uint256",
          "name": "_addAmount",
          "type": "uint256"
        },
        {
          "internalType": "uint256",
          "name": "_claimAmount",
          "type": "uint256"
        },
        {
          "internalType": "uint256",
          "name": "_periodWeeks",
          "type": "uint256"
        }
      ],
      "name": "resetStakeGetStosAfterLock",
      "outputs": [],
      "stateMutability": "nonpayable",
      "type": "function"
    },
    {
      "inputs": [
        {
          "internalType": "uint256",
          "name": "_stakeId",
          "type": "uint256"
        },
        {
          "internalType": "uint256",
          "name": "_claimAmount",
          "type": "uint256"
        }
      ],
      "name": "resetStakeGetStosAfterLock",
      "outputs": [],
      "stateMutability": "nonpayable",
      "type": "function"
    },
    {
      "inputs": [
        {
          "internalType": "uint256",
          "name": "_stakeId",
          "type": "uint256"
        },
        {
          "internalType": "uint256",
          "name": "_addAmount",
          "type": "uint256"
        },
        {
          "internalType": "uint256",
          "name": "_periodWeeks",
          "type": "uint256"
        }
      ],
      "name": "resetStakeGetStosAfterLock",
      "outputs": [],
      "stateMutability": "nonpayable",
      "type": "function"
    },
    {
      "inputs": [
        {
          "internalType": "bytes32",
          "name": "role",
          "type": "bytes32"
        },
        {
          "internalType": "address",
          "name": "account",
          "type": "address"
        }
      ],
      "name": "revokeRole",
      "outputs": [],
      "stateMutability": "nonpayable",
      "type": "function"
    },
    {
      "inputs": [],
      "name": "runwayTos",
      "outputs": [
        {
          "internalType": "uint256",
          "name": "",
          "type": "uint256"
        }
      ],
      "stateMutability": "view",
      "type": "function"
    },
    {
      "inputs": [],
      "name": "secondsToNextEpoch",
      "outputs": [
        {
          "internalType": "uint256",
          "name": "",
          "type": "uint256"
        }
      ],
      "stateMutability": "view",
      "type": "function"
    },
    {
      "inputs": [
        {
          "internalType": "address",
          "name": "_tos",
          "type": "address"
        },
        {
          "internalType": "address",
          "name": "_lockTOS",
          "type": "address"
        },
        {
          "internalType": "address",
          "name": "_treasury",
          "type": "address"
        }
      ],
      "name": "setAddressInfos",
      "outputs": [],
      "stateMutability": "nonpayable",
      "type": "function"
    },
    {
      "inputs": [
        {
          "internalType": "uint256",
          "name": "_period",
          "type": "uint256"
        }
      ],
      "name": "setBasicBondPeriod",
      "outputs": [],
      "stateMutability": "nonpayable",
      "type": "function"
    },
    {
      "inputs": [
        {
          "internalType": "uint256",
          "name": "_index",
          "type": "uint256"
        }
      ],
      "name": "setIndex",
      "outputs": [],
      "stateMutability": "nonpayable",
      "type": "function"
    },
    {
      "inputs": [
        {
          "internalType": "uint256",
          "name": "_rebasePerEpoch",
          "type": "uint256"
        }
      ],
      "name": "setRebasePerEpoch",
      "outputs": [],
      "stateMutability": "nonpayable",
      "type": "function"
    },
    {
      "inputs": [
        {
          "internalType": "uint256",
          "name": "_amount",
          "type": "uint256"
        }
      ],
      "name": "stake",
      "outputs": [
        {
          "internalType": "uint256",
          "name": "stakeId",
          "type": "uint256"
        }
      ],
      "stateMutability": "nonpayable",
      "type": "function"
    },
    {
      "inputs": [
        {
          "internalType": "address",
          "name": "to",
          "type": "address"
        },
        {
          "internalType": "uint256",
          "name": "_amount",
          "type": "uint256"
        },
        {
          "internalType": "uint256",
          "name": "_marketId",
          "type": "uint256"
        },
        {
          "internalType": "uint256",
          "name": "tosPrice",
          "type": "uint256"
        }
      ],
      "name": "stakeByBond",
      "outputs": [
        {
          "internalType": "uint256",
          "name": "stakeId",
          "type": "uint256"
        }
      ],
      "stateMutability": "nonpayable",
      "type": "function"
    },
    {
      "inputs": [
        {
          "internalType": "uint256",
          "name": "_amount",
          "type": "uint256"
        },
        {
          "internalType": "uint256",
          "name": "_periodWeeks",
          "type": "uint256"
        }
      ],
      "name": "stakeGetStos",
      "outputs": [
        {
          "internalType": "uint256",
          "name": "stakeId",
          "type": "uint256"
        }
      ],
      "stateMutability": "nonpayable",
      "type": "function"
    },
    {
      "inputs": [
        {
          "internalType": "address",
          "name": "_to",
          "type": "address"
        },
        {
          "internalType": "uint256",
          "name": "_amount",
          "type": "uint256"
        },
        {
          "internalType": "uint256",
          "name": "_marketId",
          "type": "uint256"
        },
        {
          "internalType": "uint256",
          "name": "_periodWeeks",
          "type": "uint256"
        },
        {
          "internalType": "uint256",
          "name": "tosPrice",
          "type": "uint256"
        }
      ],
      "name": "stakeGetStosByBond",
      "outputs": [
        {
          "internalType": "uint256",
          "name": "stakeId",
          "type": "uint256"
        }
      ],
      "stateMutability": "nonpayable",
      "type": "function"
    },
    {
      "inputs": [
        {
          "internalType": "uint256",
          "name": "stakeId",
          "type": "uint256"
        }
      ],
      "name": "stakeInfo",
      "outputs": [
        {
          "internalType": "address",
          "name": "staker",
          "type": "address"
        },
        {
          "internalType": "uint256",
          "name": "deposit",
          "type": "uint256"
        },
        {
          "internalType": "uint256",
          "name": "ltos",
          "type": "uint256"
        },
        {
          "internalType": "uint256",
          "name": "startTime",
          "type": "uint256"
        },
        {
          "internalType": "uint256",
          "name": "endTime",
          "type": "uint256"
        },
        {
          "internalType": "uint256",
          "name": "marketId",
          "type": "uint256"
        }
      ],
      "stateMutability": "view",
      "type": "function"
    },
    {
      "inputs": [
        {
          "internalType": "uint256",
          "name": "stakeId",
          "type": "uint256"
        }
      ],
      "name": "stakedOf",
      "outputs": [
        {
          "internalType": "uint256",
          "name": "",
          "type": "uint256"
        }
      ],
      "stateMutability": "view",
      "type": "function"
    },
    {
      "inputs": [],
      "name": "stakedOfAll",
      "outputs": [
        {
          "internalType": "uint256",
          "name": "",
          "type": "uint256"
        }
      ],
      "stateMutability": "view",
      "type": "function"
    },
    {
      "inputs": [],
      "name": "stakingIdCounter",
      "outputs": [
        {
          "internalType": "uint256",
          "name": "",
          "type": "uint256"
        }
      ],
      "stateMutability": "view",
      "type": "function"
    },
    {
      "inputs": [
        {
          "internalType": "address",
          "name": "_addr",
          "type": "address"
        }
      ],
      "name": "stakingOf",
      "outputs": [
        {
          "internalType": "uint256[]",
          "name": "",
          "type": "uint256[]"
        }
      ],
      "stateMutability": "view",
      "type": "function"
    },
    {
      "inputs": [],
      "name": "stakingPrincipal",
      "outputs": [
        {
          "internalType": "uint256",
          "name": "",
          "type": "uint256"
        }
      ],
      "stateMutability": "view",
      "type": "function"
    },
    {
      "inputs": [
        {
          "internalType": "bytes4",
          "name": "interfaceId",
          "type": "bytes4"
        }
      ],
      "name": "supportsInterface",
      "outputs": [
        {
          "internalType": "bool",
          "name": "",
          "type": "bool"
        }
      ],
      "stateMutability": "view",
      "type": "function"
    },
    {
      "inputs": [
        {
          "internalType": "address[]",
          "name": "accounts",
          "type": "address[]"
        },
        {
          "internalType": "uint256[]",
          "name": "balances",
          "type": "uint256[]"
        },
        {
          "internalType": "uint256[]",
          "name": "period",
          "type": "uint256[]"
        },
        {
          "internalType": "uint256[]",
          "name": "tokenId",
          "type": "uint256[]"
        }
      ],
      "name": "syncStos",
      "outputs": [],
      "stateMutability": "nonpayable",
      "type": "function"
    },
    {
      "inputs": [],
      "name": "tos",
      "outputs": [
        {
          "internalType": "contract IERC20",
          "name": "",
          "type": "address"
        }
      ],
      "stateMutability": "view",
      "type": "function"
    },
    {
      "inputs": [],
      "name": "totalDepositTOS",
      "outputs": [
        {
          "internalType": "uint256",
          "name": "",
          "type": "uint256"
        }
      ],
      "stateMutability": "view",
      "type": "function"
    },
    {
      "inputs": [],
      "name": "totalLtos",
      "outputs": [
        {
          "internalType": "uint256",
          "name": "",
          "type": "uint256"
        }
      ],
      "stateMutability": "view",
      "type": "function"
    },
    {
      "inputs": [
        {
          "internalType": "address",
          "name": "newAdmin",
          "type": "address"
        }
      ],
      "name": "transferAdmin",
      "outputs": [],
      "stateMutability": "nonpayable",
      "type": "function"
    },
    {
      "inputs": [
        {
          "internalType": "address",
          "name": "newAdmin",
          "type": "address"
        }
      ],
      "name": "transferPolicyAdmin",
      "outputs": [],
      "stateMutability": "nonpayable",
      "type": "function"
    },
    {
      "inputs": [
        {
          "internalType": "address",
          "name": "newAdmin",
          "type": "address"
        }
      ],
      "name": "transferProxyAdmin",
      "outputs": [],
      "stateMutability": "nonpayable",
      "type": "function"
    },
    {
      "inputs": [],
      "name": "treasury",
      "outputs": [
        {
          "internalType": "address",
          "name": "",
          "type": "address"
        }
      ],
      "stateMutability": "view",
      "type": "function"
    },
    {
      "inputs": [
        {
          "internalType": "uint256",
          "name": "_stakeId",
          "type": "uint256"
        }
      ],
      "name": "unstake",
      "outputs": [],
      "stateMutability": "nonpayable",
      "type": "function"
    },
    {
      "inputs": [
        {
          "internalType": "address",
          "name": "",
          "type": "address"
        },
        {
          "internalType": "uint256",
          "name": "",
          "type": "uint256"
        }
      ],
      "name": "userStakingIndex",
      "outputs": [
        {
          "internalType": "uint256",
          "name": "",
          "type": "uint256"
        }
      ],
      "stateMutability": "view",
      "type": "function"
    },
    {
      "inputs": [
        {
          "internalType": "address",
          "name": "",
          "type": "address"
        },
        {
          "internalType": "uint256",
          "name": "",
          "type": "uint256"
        }
      ],
      "name": "userStakings",
      "outputs": [
        {
          "internalType": "uint256",
          "name": "",
          "type": "uint256"
        }
      ],
      "stateMutability": "view",
      "type": "function"
    }
  ],
  "bytecode": "0x6080604052600160065534801561001557600080fd5b506154df806100256000396000f3fe608060405234801561001057600080fd5b50600436106103535760003560e01c80637cc0fee6116101c65780637cc0fee6146106a857806381045ead146106bb5780638356ca4f146106c357806383a5683a146106d657806389f395de146106e9578063900cf0cf146106fc57806391d148541461071f5780639483c1d71461073257806396f1557c1461073a57806397b429371461074d578063980b1097146107605780639a202d47146107735780639a794e661461077b5780639e9e792f1461078e578063a052e69e146107ae578063a1c95e5a146107b7578063a217fddf146107ca578063a694fc3a146107d2578063a7110dc3146107e5578063a89aa6a814610810578063b24352b114610823578063b84ef08114610836578063b88ad1e314610849578063bba4307e1461085c578063be72f2d31461086f578063c68450bf14610877578063ca16910f1461088a578063d547741f1461089d578063d5f95aab146108b0578063d7fe4a49146108b8578063e6500b21146108cb578063e75f77e1146108d3578063f1c8c922146108e6578063f47f2f1d146108f9578063f55813821461090c578063fad1c85c14610915578063fc7e9c6f1461092857600080fd5b806301ffc9a714610358578063037859af146103805780630e1e998f146103a057806311f1c8bf146103b757806317ed177a146103ca5780631e725567146103dd57806322985246146103f2578063248a9ca31461040757806324d7806c1461041a578063265705b11461042d57806328ea9ff0146104405780632e17de78146104485780632f2ff15d1461045b57806330e06e8b1461046e578063332b01f31461047657806336568abe14610489578063385030b41461049c57806340a5737f146104a557806341c04d5e146104b857806347e1b372146104cd57806349ec9883146104d55780634e533572146104e85780634e6c4466146105775780635720bf3a146105975780635746248f146105a05780635dc3c29a146105b35780635f3383521461060057806361d027b31461060857806365cb3a831461061b5780636d1c789f14610623578063704802751461062c57806370a082311461063f57806375829def1461065257806375b238fc1461066557806377d73dc61461068c57806378ad14051461069f575b600080fd5b61036b610366366004614d12565b610930565b60405190151581526020015b60405180910390f35b61039361038e366004614ab4565b610967565b6040516103779190614f59565b6103a9600b5481565b604051908152602001610377565b6103a96103c5366004614ccf565b6109d3565b6103a96103d8366004614ccf565b6109ee565b6103f06103eb366004614d52565b610a03565b005b6103a960008051602061548a83398151915281565b6103a9610415366004614ccf565b610c25565b61036b610428366004614ab4565b610c3a565b6103f061043b366004614ace565b610c54565b6103a9610daf565b6103f0610456366004614ccf565b610ee8565b6103f0610469366004614ce7565b6111cb565b6103a96111ed565b6103a9610484366004614b39565b6112a6565b6103f0610497366004614ce7565b611439565b6103a9600a5481565b6103f06104b3366004614ccf565b6114b7565b6103a960008051602061542a83398151915281565b6103f06114e1565b6103f06104e3366004614ccf565b6116ba565b6105656104f6366004614ccf565b6000908152600f6020908152604091829020825160c08101845281546001600160a01b03168082526001830154938201849052600283015494820185905260038301546060830181905260048401546080840181905260059094015460a0909301839052909593949390929190565b60405161037796959493929190614edf565b60035461058a906001600160a01b031681565b6040516103779190614eaa565b6103a960095481565b6103a96105ae366004614b10565b6116e4565b6105656105c1366004614ccf565b600f602052600090815260409020805460018201546002830154600384015460048501546005909501546001600160a01b039094169492939192909186565b6103a9611715565b60045461058a906001600160a01b031681565b6103f0611727565b6103a9600c5481565b6103f061063a366004614ab4565b611764565b6103a961064d366004614ab4565b6117a4565b6103f0610660366004614ab4565b61187a565b6103a97fdf8b4c520ffe197c5343c6f5aec59570151ef9a492f2c624fd45ddde6135ec4281565b6103a961069a366004614ccf565b61192d565b6103a960055481565b6103a96106b6366004614ccf565b61194f565b6005546103a9565b6103f06106d1366004614ab4565b6119a3565b6103f06106e4366004614d52565b611a2d565b60025461058a906001600160a01b031681565b60005460015461070a919082565b60408051928352602083019190915201610377565b61036b61072d366004614ce7565b611b51565b6103a9611b7c565b6103f0610748366004614ab4565b611b9f565b6103a961075b366004614ccf565b611bcf565b6103a961076e366004614b71565b611be8565b6103f0611ee1565b6103f0610789366004614c70565b611f2d565b6103a961079c366004614ccf565b60106020526000908152604090205481565b6103a960085481565b6103a96107c5366004614ccf565b611fbb565b6103a9600081565b6103a96107e0366004614ccf565b611fc6565b6103a96107f3366004614b10565b600e60209081526000928352604080842090915290825290205481565b6103a961081e366004614ccf565b6120ad565b6103f0610831366004614dee565b6120f2565b6103f0610844366004614ab4565b61246c565b6103f0610857366004614d96565b6124a9565b6103f061086a366004614d52565b612bd5565b6103f0612d7e565b6103f0610885366004614bb2565b612dae565b6103a9610898366004614d52565b612fc9565b6103f06108ab366004614ce7565b613188565b6103a96131a5565b6103f06108c6366004614d96565b613226565b6103a96134f1565b6103f06108e1366004614ccf565b6135c2565b6103f06108f4366004614ab4565b61364b565b61036b610907366004614ab4565b6136ef565b6103a960075481565b61036b610923366004614ab4565b6136fb565b6103a9613715565b60006001600160e01b03198216637965db0b60e01b148061096157506301ffc9a760e01b6001600160e01b03198316145b92915050565b6001600160a01b0381166000908152600d60209081526040918290208054835181840281018401909452808452606093928301828280156109c757602002820191906000526020600020905b8154815260200190600101908083116109b3575b50505050509050919050565b6000818152600f602052604081206002015461096190611bcf565b6000908152600f602052604090206002015490565b8180610a2a5760405162461bcd60e51b8152600401610a219061524f565b60405180910390fd5b8180610a485760405162461bcd60e51b8152600401610a219061524f565b60008481526010602052604090205415610aa45760405162461bcd60e51b815260206004820152601d60248201527f7468697320697320666f72206e6f6e2d6c6f636b2070726f647563742e0000006044820152606401610a21565b6000848152600f60205260409020546001600160a01b03163314610ada5760405162461bcd60e51b8152600401610a2190615156565b6000848152600f6020526040902060020154610af590611bcf565b831115610b145760405162461bcd60e51b8152600401610a219061521a565b6000848152600f60205260409020600401544211610b6f5760405162461bcd60e51b815260206004820152601860248201527732b732103a34b6b2903430b9903737ba103830b9b9b2b21760411b6044820152606401610a21565b610b776114e1565b610b81848461374d565b60048054604051632a97f1e560e21b81526001600160a01b039091169163aa5fc79491610bb2913391889101614f12565b600060405180830381600087803b158015610bcc57600080fd5b505af1158015610be0573d6000803e3d6000fd5b505050507f5ac7224c417abee0b26a4daa9b5221c45297a5429fc56e11bc9170dabc15d33c338486604051610c1793929190614ebe565b60405180910390a150505050565b60009081526011602052604090206001015490565b600061096160008051602061542a83398151915283611b51565b610c5d336136fb565b610c795760405162461bcd60e51b8152600401610a219061527b565b826001600160a01b038116610ca05760405162461bcd60e51b8152600401610a2190615127565b826001600160a01b038116610cc75760405162461bcd60e51b8152600401610a2190615127565b826001600160a01b038116610cee5760405162461bcd60e51b8152600401610a2190615127565b6002546001600160a01b038781169116141580610d1957506003546001600160a01b03868116911614155b80610d3257506004546001600160a01b03858116911614155b610d6d5760405162461bcd60e51b815260206004820152600c60248201526b73616d65206164647265737360a01b6044820152606401610a21565b5050600280546001600160a01b039586166001600160a01b03199182161790915560038054948616948216949094179093555060048054919093169116179055565b60008073__$23c3f0c4d39c3898c699ac978f80cfe781$__6343b44082610dd46134f1565b610ddf600754611bcf565b6009546040518463ffffffff1660e01b8152600401610e0093929190615331565b60206040518083038186803b158015610e1857600080fd5b505af4158015610e2c573d6000803e3d6000fd5b505050506040513d601f19601f82011682018060405250810190610e509190614d3a565b6005546009546040516379e42f5d60e11b815292935073__$23c3f0c4d39c3898c699ac978f80cfe781$__9263f3c85eba92610e929290918690600401615331565b60206040518083038186803b158015610eaa57600080fd5b505af4158015610ebe573d6000803e3d6000fd5b505050506040513d601f19601f82011682018060405250810190610ee29190614d3a565b91505090565b8080610f065760405162461bcd60e51b8152600401610a219061524f565b6000828152600f6020526040902080546001600160a01b03163314610f655760405162461bcd60e51b815260206004820152601560248201527431b0b63632b91034b9903737ba1039ba30b5b2b91760591b6044820152606401610a21565b42816004015410610fb25760405162461bcd60e51b815260206004820152601760248201527632b732103a34b6b2903430b9b713ba103830b9b9b2b21760491b6044820152606401610a21565b610fba6114e1565b6000610fc5846120ad565b90506000811161100f5760405162461bcd60e51b81526020600482015260156024820152741e995c9bc818db185a5b58589b1948185b5bdd5b9d605a1b6044820152606401610a21565b81600101546008541061103d57816001015460086000828254611032919061539e565b909155506110439050565b60006008555b81600201546007541061107157816002015460076000828254611066919061539e565b909155506110779050565b60006007555b60006110833386613846565b905061108f85826139f1565b60008581526010602052604090205415611126576003546000868152601060205260409081902054905163c0a37b3f60e01b81526001600160a01b039092169163c0a37b3f916110e491339190600401614f12565b600060405180830381600087803b1580156110fe57600080fd5b505af1158015611112573d6000803e3d6000fd5b505050600086815260106020526040812055505b60048054604051632a97f1e560e21b81526001600160a01b039091169163aa5fc79491611157913391879101614f12565b600060405180830381600087803b15801561117157600080fd5b505af1158015611185573d6000803e3d6000fd5b505050507f7fc4727e062e336010f2c282598ef5f14facb3de68cf8195c2f23e1454b2b74e3383876040516111bc93929190614ebe565b60405180910390a15050505050565b6111d482610c25565b6111de8133613a81565b6111e88383613ae5565b505050565b6004546000906001600160a01b0316634cf158586009336040518363ffffffff1660e01b815260040161122192919061531a565b60206040518083038186803b15801561123957600080fd5b505afa15801561124d573d6000803e3d6000fd5b505050506040513d601f19601f820116820180604052508101906112719190614caf565b61128d5760405162461bcd60e51b8152600401610a21906151b4565b600c805490600061129d836153f8565b91905055905090565b6004546000906001600160a01b0316634cf158586009336040518363ffffffff1660e01b81526004016112da92919061531a565b60206040518083038186803b1580156112f257600080fd5b505afa158015611306573d6000803e3d6000fd5b505050506040513d601f19601f8201168201806040525081019061132a9190614caf565b6113465760405162461bcd60e51b8152600401610a21906151b4565b846001600160a01b03811661136d5760405162461bcd60e51b8152600401610a2190615127565b848061138b5760405162461bcd60e51b8152600401610a219061524f565b84806113a95760405162461bcd60e51b8152600401610a219061524f565b6113b288613b6b565b6113ba613c11565b93506113c68885613c2c565b6113ce6114e1565b60006113ea89868a600a54426113e49190615347565b8b613c6f565b90507f10b677c7a9f17c8fa541bdcc53b14beb96651665c3ef380c8df860dbd8f3545e8989838a898b60405161142596959493929190614edf565b60405180910390a150505050949350505050565b6001600160a01b03811633146114a95760405162461bcd60e51b815260206004820152602f60248201527f416363657373436f6e74726f6c3a2063616e206f6e6c792072656e6f756e636560448201526e103937b632b9903337b91039b2b63360891b6064820152608401610a21565b6114b38282613d8f565b5050565b6114c0336136fb565b6114dc5760405162461bcd60e51b8152600401610a219061527b565b600555565b60015442106116b857600080546001546114fb904261539e565b111561151e57600054600154611511904261539e565b61151b919061535f565b90505b80611528816153f8565b60005490925061153a9150829061537f565b6001805460009061154c908490615347565b9091555050600554600182141561156c57611565613715565b90506115fc565b6005546009546040516379e42f5d60e11b815273__$23c3f0c4d39c3898c699ac978f80cfe781$__9263f3c85eba926115a9928790600401615331565b60206040518083038186803b1580156115c157600080fd5b505af41580156115d5573d6000803e3d6000fd5b505050506040513d601f19601f820116820180604052508101906115f99190614d3a565b90505b60006116066134f1565b6005549091506000670de0b6b3a7640000611621838661539e565b60075461162e919061537f565b611638919061535f565b905082811161167657600584905560075460405160008051602061544a833981519152916116699185918891615331565b60405180910390a16116b2565b600754611683908461535f565b61168d9083615347565b935060008051602061544a83398151915282856007546040516111bc93929190615331565b50505050505b565b6116c3336136fb565b6116df5760405162461bcd60e51b8152600401610a219061527b565b600955565b600d602052816000526040600020818154811061170057600080fd5b90600052602060002001600091509150505481565b6000611722600754611bcf565b905090565b611730336136fb565b61174c5760405162461bcd60e51b8152600401610a219061527b565b6116b860008051602061548a83398151915233611439565b61176d336136ef565b6117895760405162461bcd60e51b8152600401610a219061509c565b6117a160008051602061542a833981519152826111cb565b50565b6001600160a01b0381166000908152600d602090815260408083208054825181850281018501909352808352849383018282801561180157602002820191906000526020600020905b8154815260200190600101908083116117ed575b5050505050905080516000141561181b5750600092915050565b60005b81518110156118735761185782828151811061184a57634e487b7160e01b600052603260045260246000fd5b6020026020010151611fbb565b6118619084615347565b925061186c816153f8565b905061181e565b5050919050565b61188333610c3a565b806118925750611892336136ef565b6118ae5760405162461bcd60e51b8152600401610a2190615028565b6001600160a01b0381166118d45760405162461bcd60e51b8152600401610a219061506a565b336001600160a01b03821614156118fd5760405162461bcd60e51b8152600401610a2190615184565b61191560008051602061542a833981519152826111cb565b6117a160008051602061542a83398151915233611439565b60055460009061194583670de0b6b3a764000061537f565b610961919061535f565b6000818061196f5760405162461bcd60e51b8152600401610a219061524f565b6000838152600f602052604090206004015442111561199857611991836109ee565b915061199d565b600091505b50919050565b6119ac336136ef565b6119c85760405162461bcd60e51b8152600401610a219061509c565b6001600160a01b0381166119ee5760405162461bcd60e51b8152600401610a219061506a565b336001600160a01b0382161415611a175760405162461bcd60e51b8152600401610a2190615184565b611a226000826111cb565b6117a1600033611439565b8180611a4b5760405162461bcd60e51b8152600401610a219061524f565b8180611a695760405162461bcd60e51b8152600401610a219061524f565b6000848152600f60205260409020546001600160a01b03163314611a9f5760405162461bcd60e51b8152600401610a2190615156565b336000908152600e60209081526040808320878452909152902054600114611b095760405162461bcd60e51b815260206004820152601f60248201527f69742773206e6f742073696d706c65207374616b696e672070726f64756374006044820152606401610a21565b611b116114e1565b611b1e3385856000613df6565b7f3580fad54ac878fb39f354ed4980379c99975b958cc12f96c2342daf1a943384338486604051610c1793929190614ebe565b60009182526011602090815260408084206001600160a01b0393909316845291905290205460ff1690565b6000426000600101541015611b915750600090565b60015461172290429061539e565b611ba8336136ef565b611bc45760405162461bcd60e51b8152600401610a219061509c565b6117a1600082613ed2565b6000670de0b6b3a764000060055483611945919061537f565b6004546000906001600160a01b0316634cf158586009336040518363ffffffff1660e01b8152600401611c1c92919061531a565b60206040518083038186803b158015611c3457600080fd5b505afa158015611c48573d6000803e3d6000fd5b505050506040513d601f19601f82011682018060405250810190611c6c9190614caf565b611c885760405162461bcd60e51b8152600401610a21906151b4565b856001600160a01b038116611caf5760405162461bcd60e51b8152600401610a2190615127565b600086118015611cbf5750600084115b8015611ccb5750600085115b611ce75760405162461bcd60e51b8152600401610a21906152c4565b6003546040516316045cb160e31b8152600091829173__$23c3f0c4d39c3898c699ac978f80cfe781$__9163b022e58891611d32916001600160a01b03169042908b90600401614ebe565b604080518083038186803b158015611d4957600080fd5b505af4158015611d5d573d6000803e3d6000fd5b505050506040513d601f19601f82011682018060405250810190611d819190614d73565b9150915060008211611dca5760405162461bcd60e51b81526020600482015260126024820152711e995c9bc81cdd1bdcd15c1bd8da155b9a5d60721b6044820152606401610a21565b60008111611e0c5760405162461bcd60e51b815260206004820152600f60248201526e7a65726f20756e6c6f636b54696d6560881b6044820152606401610a21565b611e1589613b6b565b611e1d613c11565b9350611e298985613c2c565b611e316114e1565b6000611e408a868b858c613c6f565b90506000611e508b8b8a87613edc565b60008781526010602090815260409182902083905581516001600160a01b038f1681529081018d9052908101849052606081018a9052608081018b905260a0810188905260c0810182905260e081018990529091507f01477f4d2bc42b2a9cab1d8d62fff240cb575ef03884aace04d6e6655d483861906101000160405180910390a1505050505095945050505050565b611eea33610c3a565b80611ef95750611ef9336136ef565b611f155760405162461bcd60e51b8152600401610a2190615028565b6116b860008051602061542a83398151915233611439565b80611f685760405162461bcd60e51b815260206004820152600b60248201526a6e6f207374616b6549647360a81b6044820152606401610a21565b8060005b81811015611fb557611fa3848483818110611f9757634e487b7160e01b600052603260045260246000fd5b90506020020135610ee8565b80611fad816153f8565b915050611f6c565b50505050565b6000610961826109ee565b60008180611fe65760405162461bcd60e51b8152600401610a219061524f565b600454600254612005916001600160a01b0391821691339116866140a3565b61200e33613b6b565b336000908152600d602052604090208054600190811061203e57634e487b7160e01b600052603260045260246000fd5b906000526020600020015491506120536114e1565b61206b338385612064426001615347565b6000613c6f565b507f1449c6dd7851abc30abf37f57715f492010519147cc2652fbc38202c18a6ee9033848460405161209f93929190614ebe565b60405180910390a150919050565b600081806120cd5760405162461bcd60e51b8152600401610a219061524f565b6000838152600f60205260409020600401544211156119985761199161075b846109ee565b60008311806121015750600082115b8061210c5750600081115b6121285760405162461bcd60e51b8152600401610a2190614fd0565b600084815260106020908152604080832054600f90925290912080546001600160a01b0316331461216b5760405162461bcd60e51b8152600401610a2190615156565b336000908152600e602090815260408083208984529091529020546001106121a55760405162461bcd60e51b8152600401610a21906150e4565b60006121b48260020154611bcf565b9050808511156121d65760405162461bcd60e51b8152600401610a219061521a565b82156121f1576121ec33888585600401546141b6565b612214565b428260040154106122145760405162461bcd60e51b8152600401610a21906151e4565b851561223957600454600254612239916001600160a01b0391821691339116896140a3565b60008085156122e1576003546040516316045cb160e31b815273__$23c3f0c4d39c3898c699ac978f80cfe781$__9163b022e58891612288916001600160a01b03169042908b90600401614ebe565b604080518083038186803b15801561229f57600080fd5b505af41580156122b3573d6000803e3d6000fd5b505050506040513d601f19601f820116820180604052508101906122d79190614d73565b9092509050612371565b600360009054906101000a90046001600160a01b03166001600160a01b031663fd2dcecf6040518163ffffffff1660e01b815260040160206040518083038186803b15801561232f57600080fd5b505afa158015612343573d6000803e3d6000fd5b505050506040513d601f19601f820116820180604052508101906123679190614d3a565b9150836004015490505b6123796114e1565b61238589828a8a6142da565b60008987156123c6576123988a86615347565b94506123a4898661539e565b94506123b233868a87613edc565b600082815260106020526040902081905591505b88156124305760048054604051632a97f1e560e21b81526001600160a01b039091169163aa5fc794916123fd9133918e9101614f12565b600060405180830381600087803b15801561241757600080fd5b505af115801561242b573d6000803e3d6000fd5b505050505b60008051602061546a833981519152338b8b8b858760405161245796959493929190614edf565b60405180910390a15050505050505050505050565b612475336136ef565b6124915760405162461bcd60e51b8152600401610a219061509c565b6117a160008051602061548a833981519152826111cb565b82806124c75760405162461bcd60e51b8152600401610a219061524f565b60008311806124d65750600082115b6125225760405162461bcd60e51b815260206004820152601d60248201527f7a65726f205f616d6f756e7420616e64205f756e6c6f636b5765656b730000006044820152606401610a21565b6000848152600f60205260409020546001600160a01b03163381146125595760405162461bcd60e51b8152600401610a2190615156565b82156125e3576001600160a01b0381166000908152600e602090815260408083208884529091529020546001106125e35760405162461bcd60e51b815260206004820152602860248201527f697427732073696d706c65207374616b696e672070726f647563742c2063616e60448201526713ba103637b1b59760c11b6064820152608401610a21565b6125eb6114e1565b6125f781868686613df6565b6003546040805163fd2dcecf60e01b815290516000926001600160a01b03169163fd2dcecf916004808301926020929190829003018186803b15801561263c57600080fd5b505afa158015612650573d6000803e3d6000fd5b505050506040513d601f19601f820116820180604052508101906126749190614d3a565b6000878152601060209081526040808320546001600160a01b0387168452600e83528184208b8552909252909120549192509060011080156126b4575080155b80156126c05750600085115b156127045760006126d361075b896109ee565b6126dd9088615347565b905060006126ed85838987613edc565b60008a81526010602052604090205550612b8d9050565b6001600160a01b0383166000908152600e602090815260408083208a845290915290205460011080156127375750600081115b15612b8d57600354604051639ce5630560e01b81526004810183905260009182916001600160a01b0390911690639ce563059060240160606040518083038186803b15801561278557600080fd5b505afa158015612799573d6000803e3d6000fd5b505050506040513d601f19601f820116820180604052508101906127bd9190614dc1565b925092505042821180156127e157506000898152600f602052604090206004015442105b6128285760405162461bcd60e51b81526020600482015260186024820152771b1bd8dac8195b99081d1a5b59481a185cc81c185cdcd95960421b6044820152606401610a21565b8661297757600080548a8252600f602052604082206004015461284c90429061539e565b612856919061535f565b6009546040516379e42f5d60e11b815291925060009173__$23c3f0c4d39c3898c699ac978f80cfe781$__9163f3c85eba91612898918e918790600401615331565b60206040518083038186803b1580156128b057600080fd5b505af41580156128c4573d6000803e3d6000fd5b505050506040513d601f19601f820116820180604052508101906128e89190614d3a565b90506000811161290a5760405162461bcd60e51b8152600401610a2190614ff8565b60035460405163077f15b960e51b81526001600160a01b039091169063efe2b7209061293e908a9089908690600401614ebe565b600060405180830381600087803b15801561295857600080fd5b505af115801561296c573d6000803e3d6000fd5b505050505050612b8a565b8615612b8a57600080548190819061298f888c61537f565b612999919061535f565b6009546040516379e42f5d60e11b815291925073__$23c3f0c4d39c3898c699ac978f80cfe781$__9163f3c85eba916129d9918891908690600401615331565b60206040518083038186803b1580156129f157600080fd5b505af4158015612a05573d6000803e3d6000fd5b505050506040513d601f19601f82011682018060405250810190612a299190614d3a565b9250612a35848461539e565b92508a15612afc5760008054612a4b898d61537f565b612a55428961539e565b612a5f9190615347565b612a69919061535f565b905073__$23c3f0c4d39c3898c699ac978f80cfe781$__63f3c85eba8d600954846040518463ffffffff1660e01b8152600401612aa893929190615331565b60206040518083038186803b158015612ac057600080fd5b505af4158015612ad4573d6000803e3d6000fd5b505050506040513d601f19601f82011682018060405250810190612af89190614d3a565b9250505b6003546001600160a01b031663b839c0a58988612b198688615347565b6040516001600160e01b031960e086901b1681526001600160a01b03909316600484015260248301919091526044820152606481018d9052608401600060405180830381600087803b158015612b6e57600080fd5b505af1158015612b82573d6000803e3d6000fd5b505050505050505b50505b7f8123201ee995a827ab51b6fa7437b3656f79bb6ce0ec96a8ec91516a335742068387878a85604051612bc4959493929190614f2b565b60405180910390a150505050505050565b60008111612bf55760405162461bcd60e51b8152600401610a21906152c4565b6000828152600f6020526040902080546001600160a01b03163314612c2c5760405162461bcd60e51b8152600401610a2190615156565b336000908152600e60209081526040808320868452909152902054600110612c665760405162461bcd60e51b8152600401610a21906150e4565b612c738160020154611bcf565b821115612c925760405162461bcd60e51b8152600401610a219061521a565b6000838152601060205260409020548015612cbc57612cb733858385600401546141b6565b612cdf565b42826004015410612cdf5760405162461bcd60e51b8152600401610a21906151e4565b612ce76114e1565b612cf1848461374d565b60048054604051632a97f1e560e21b81526001600160a01b039091169163aa5fc79491612d22913391889101614f12565b600060405180830381600087803b158015612d3c57600080fd5b505af1158015612d50573d6000803e3d6000fd5b5050505060008051602061546a833981519152336000856000886000604051610c1796959493929190614edf565b612d87336136ef565b612da35760405162461bcd60e51b8152600401610a219061509c565b6116b8600033611439565b612db733610c3a565b80612dc65750612dc6336136ef565b612de25760405162461bcd60e51b8152600401610a2190615028565b86612e1d5760405162461bcd60e51b815260206004820152600b60248201526a0f4cae4de40d8cadccee8d60ab1b6044820152606401610a21565b868514612e635760405162461bcd60e51b81526020600482015260146024820152730eee4dedcce40c4c2d8c2dcc6ca40d8cadccee8d60631b6044820152606401610a21565b868314612ea85760405162461bcd60e51b81526020600482015260136024820152720eee4dedcce40e0cae4d2dec840d8cadccee8d606b1b6044820152606401610a21565b868114612eee5760405162461bcd60e51b81526020600482015260146024820152730eee4dedcce40e8ded6cadc92c840d8cadccee8d60631b6044820152606401610a21565b60005b87811015612fbe57612fab898983818110612f1c57634e487b7160e01b600052603260045260246000fd5b9050602002016020810190612f319190614ab4565b888884818110612f5157634e487b7160e01b600052603260045260246000fd5b90506020020135878785818110612f7857634e487b7160e01b600052603260045260246000fd5b90506020020135868686818110612f9f57634e487b7160e01b600052603260045260246000fd5b90506020020135614563565b5080612fb6816153f8565b915050612ef1565b505050505050505050565b60008280612fe95760405162461bcd60e51b8152600401610a219061524f565b82806130075760405162461bcd60e51b8152600401610a219061524f565b600954806130275760405162461bcd60e51b8152600401610a219061524f565b6003546040516316045cb160e31b8152600091829173__$23c3f0c4d39c3898c699ac978f80cfe781$__9163b022e58891613072916001600160a01b03169042908c90600401614ebe565b604080518083038186803b15801561308957600080fd5b505af415801561309d573d6000803e3d6000fd5b505050506040513d601f19601f820116820180604052508101906130c19190614d73565b6004546002549294509092506130e6916001600160a01b03908116913391168b6140a3565b6130ef33613b6b565b6130f7613c11565b95506131033387613c2c565b61310b6114e1565b61311933878a846000613c6f565b506000613128338a8a86613edc565b60008881526010602052604090819020829055519091507f354a6b3cd6afbe9ef2b8c8bbc20901d395d112a1891737da4aff281b283cca42906131749033908c908c908c908790614f2b565b60405180910390a150505050505092915050565b61319182610c25565b61319b8133613a81565b6111e88383613d8f565b6002546040516370a0823160e01b81526000916001600160a01b0316906370a08231906131d6903090600401614eaa565b60206040518083038186803b1580156131ee57600080fd5b505afa158015613202573d6000803e3d6000fd5b505050506040513d601f19601f820116820180604052508101906117229190614d3a565b60008211806132355750600081115b6132515760405162461bcd60e51b8152600401610a2190614fd0565b6000838152600f6020526040902080546001600160a01b031633146132885760405162461bcd60e51b8152600401610a2190615156565b336000908152600e602090815260408083208784529091529020546001106132c25760405162461bcd60e51b8152600401610a21906150e4565b60008481526010602052604090205480156132ec576132e733868385600401546141b6565b61330f565b4282600401541061330f5760405162461bcd60e51b8152600401610a21906151e4565b831561333457600454600254613334916001600160a01b0391821691339116876140a3565b60008084156133dc576003546040516316045cb160e31b815273__$23c3f0c4d39c3898c699ac978f80cfe781$__9163b022e58891613383916001600160a01b03169042908a90600401614ebe565b604080518083038186803b15801561339a57600080fd5b505af41580156133ae573d6000803e3d6000fd5b505050506040513d601f19601f820116820180604052508101906133d29190614d73565b909250905061346c565b600360009054906101000a90046001600160a01b03166001600160a01b031663fd2dcecf6040518163ffffffff1660e01b815260040160206040518083038186803b15801561342a57600080fd5b505afa15801561343e573d6000803e3d6000fd5b505050506040513d601f19601f820116820180604052508101906134629190614d3a565b9150836004015490505b6134746114e1565b60006134818883896145e8565b905060008887156134b5576134a13361349a8b86615347565b8a88613edc565b600082815260106020526040902081905591505b60008051602061546a833981519152338a60008b85876040516134dd96959493929190614edf565b60405180910390a150505050505050505050565b600480546040805163688d653160e11b8152905160009384936001600160a01b03169263d11aca629281830192602092829003018186803b15801561353557600080fd5b505afa158015613549573d6000803e3d6000fd5b505050506040513d601f19601f8201168201806040525081019061356d9190614d3a565b905060006135796131a5565b90506000613588600754611bcf565b9050806135958385615347565b10156135a5576000935050505090565b806135b08385615347565b6135ba919061539e565b935050505090565b6135cb336136fb565b6135e75760405162461bcd60e51b8152600401610a219061527b565b80806136055760405162461bcd60e51b8152600401610a219061524f565b81600a5414156136455760405162461bcd60e51b815260206004820152600b60248201526a1cd85b59481c195c9a5bd960aa1b6044820152606401610a21565b50600a55565b613654336136fb565b6136705760405162461bcd60e51b8152600401610a219061527b565b6001600160a01b0381166136965760405162461bcd60e51b8152600401610a219061506a565b336001600160a01b03821614156136bf5760405162461bcd60e51b8152600401610a2190615184565b6136d760008051602061548a833981519152826111cb565b6117a160008051602061548a83398151915233611439565b60006109618183611b51565b600061096160008051602061548a83398151915283611b51565b6000670de0b6b3a7640000600954670de0b6b3a76400006137369190615347565b600554613743919061537f565b611722919061535f565b60065460011461376f5760405162461bcd60e51b8152600401610a21906152e8565b6000600681905561377f8261192d565b6000848152600f6020526040812060028101549293509161379f90611bcf565b42600384015560018301549091506000908211156137c95760018301546137c6908361539e565b90505b838360020160008282546137dd919061539e565b9250508190555083600760008282546137f6919061539e565b90915550506001830154859061380d908390615347565b613817919061539e565b6001840155600854859061382c908390615347565b613836919061539e565b6008555050600160065550505050565b6001600160a01b0382166000908152600e6020908152604080832084845290915290205460018111801561389157506001600160a01b0383166000908152600d602052604090205481105b15610961576001600160a01b0383166000908152600d60205260409020546138bb9060019061539e565b81101561398a576001600160a01b0383166000908152600d6020526040812080546138e89060019061539e565b8154811061390657634e487b7160e01b600052603260045260246000fd5b9060005260206000200154905080600d6000866001600160a01b03166001600160a01b03168152602001908152602001600020838154811061395857634e487b7160e01b600052603260045260246000fd5b60009182526020808320909101929092556001600160a01b0386168152600e8252604080822093825292909152208190555b6001600160a01b0383166000818152600e602090815260408083208684528252808320839055928252600d9052208054806139d557634e487b7160e01b600052603160045260246000fd5b6001900381819060005260206000200160009055905592915050565b6001811115613a3957506000908152600f6020526040812080546001600160a01b03191681556001810182905560028101829055600381018290556004810182905560050155565b80600114156114b357506000908152600f6020526040812080546001600160a01b03191681556001810182905560028101829055600381018290556004810182905560050155565b613a8b8282611b51565b6114b357613aa3816001600160a01b03166014614732565b613aae836020614732565b604051602001613abf929190614e3b565b60408051601f198184030181529082905262461bcd60e51b8252610a2191600401614f9d565b613aef8282611b51565b6114b35760008281526011602090815260408083206001600160a01b03851684529091529020805460ff19166001179055613b273390565b6001600160a01b0316816001600160a01b0316837f2f8788117e7eff1d82e926ec794901d17c78024a50270940304540a733656f0d60405160405180910390a45050565b6001600160a01b0381166000908152600d60205260409020546117a1576001600160a01b0381166000908152600d602090815260408220805460018101825590835290822001819055600b805491613bc2836153f8565b90915550506001600160a01b03166000818152600e60209081526040808320600b80548552908352818420600190819055948452600d8352908320905481549485018255908352912090910155565b6000600b60008154613c22906153f8565b9182905550919050565b6001600160a01b039091166000908152600d602081815260408084208054600e845282862087875284529185208290559282526001810183559183529091200155565b6000600654600114613c935760405162461bcd60e51b8152600401610a21906152e8565b60006006819055613ca38561192d565b90506040518060c00160405280886001600160a01b0316815260200186815260200182815260200142815260200185815260200184815250600f600088815260200190815260200160002060008201518160000160006101000a8154816001600160a01b0302191690836001600160a01b031602179055506020820151816001015560408201518160020155606082015181600301556080820151816004015560a082015181600501559050508460086000828254613d629190615347565b925050819055508060076000828254613d7b9190615347565b909155505060016006559695505050505050565b613d998282611b51565b156114b35760008281526011602090815260408083206001600160a01b0385168085529252808320805460ff1916905551339285917ff6391f5c32d9c69d2a47ea670b442974b53935d1edc7fd64eb21e047a839171b9190a45050565b8115613e1b57600454600254613e1b916001600160a01b0391821691879116856140a3565b6000808215613ebf576003546040516316045cb160e31b815273__$23c3f0c4d39c3898c699ac978f80cfe781$__9163b022e58891613e6b916001600160a01b0316906000908890600401614ebe565b604080518083038186803b158015613e8257600080fd5b505af4158015613e96573d6000803e3d6000fd5b505050506040513d601f19601f82011682018060405250810190613eba9190614d73565b925090505b613eca85858461491a565b505050505050565b6114b38282613ae5565b6000600654600114613f005760405162461bcd60e51b8152600401610a21906152e8565b60006006819055600954815473__$23c3f0c4d39c3898c699ac978f80cfe781$__9163f3c85eba91889190613f35888a61537f565b613f3f919061535f565b6040518463ffffffff1660e01b8152600401613f5d93929190615331565b60206040518083038186803b158015613f7557600080fd5b505af4158015613f89573d6000803e3d6000fd5b505050506040513d601f19601f82011682018060405250810190613fad9190614d3a565b905060008111613fcf5760405162461bcd60e51b8152600401610a2190614ff8565b60035460405163036e72c360e21b81526001600160a01b0390911690630db9cb0c9061400390899085908990600401614ebe565b602060405180830381600087803b15801561401d57600080fd5b505af1158015614031573d6000803e3d6000fd5b505050506040513d601f19601f820116820180604052508101906140559190614d3a565b9150600082116140955760405162461bcd60e51b815260206004820152600b60248201526a1e995c9bc81cdd1bdcd25960aa1b6044820152606401610a21565b506001600655949350505050565b604080516001600160a01b0385811660248301528481166044830152606480830185905283518084039091018152608490920183526020820180516001600160e01b03166323b872dd60e01b17905291516000928392908816916141079190614e1f565b6000604051808303816000865af19150503d8060008114614144576040519150601f19603f3d011682016040523d82523d6000602084013e614149565b606091505b50915091508180156141735750805115806141735750808060200190518101906141739190614caf565b613eca5760405162461bcd60e51b81526020600482015260146024820152731514905394d1915497d19493d357d1905253115160621b6044820152606401610a21565b600354604051639ce5630560e01b8152600481018490526000916001600160a01b031690639ce563059060240160606040518083038186803b1580156141fb57600080fd5b505afa15801561420f573d6000803e3d6000fd5b505050506040513d601f19601f820116820180604052508101906142339190614dc1565b50915050428110801561424557504282105b6142615760405162461bcd60e51b8152600401610a21906151e4565b60035460405163c0a37b3f60e01b81526001600160a01b039091169063c0a37b3f906142939088908790600401614f12565b600060405180830381600087803b1580156142ad57600080fd5b505af11580156142c1573d6000803e3d6000fd5b5050506000948552505060106020525050604081205550565b6006546001146142fc5760405162461bcd60e51b8152600401610a21906152e8565b60006006558115158061430f5750600081115b8061431a5750600083115b6143555760405162461bcd60e51b815260206004820152600c60248201526b7a65726f20416d6f756e747360a01b6044820152606401610a21565b6000848152600f602052604090206002015461439f5760405162461bcd60e51b81526020600482015260096024820152687a65726f206c746f7360b81b6044820152606401610a21565b6000848152600f60205260408120600201546143ba90611bcf565b90508082111561440b5760405162461bcd60e51b815260206004820152601c60248201527b1cdd185ad948185b5bdd5b9d081a5cc81a5b9cdd59999a58da595b9d60221b6044820152606401610a21565b6000858152600f602052604081208190851561442d5761442a8661192d565b92505b841561443f5761443c8561192d565b91505b42600382015560048101879055600181015460009085111561446d57600182015461446a908661539e565b90505b83156144a657838260020160008282546144879190615347565b9250508190555083600760008282546144a09190615347565b90915550505b82156144df57828260020160008282546144c0919061539e565b9250508190555082600760008282546144d9919061539e565b90915550505b60008711806144ee5750600081115b806144f95750600086115b156145535785818884600101546145109190615347565b61451a9190615347565b614524919061539e565b60018301556008548690829061453b908a90615347565b6145459190615347565b61454f919061539e565b6008555b5050600160065550505050505050565b600083806145835760405162461bcd60e51b8152600401610a219061524f565b83806145a15760405162461bcd60e51b8152600401610a219061524f565b6145aa87613b6b565b6145b2613c11565b92506145be8784613c2c565b6145cc878488886000613c6f565b5050506000818152601060205260409020919091559392505050565b600060065460011461460c5760405162461bcd60e51b8152600401610a21906152e8565b60006006558115158061461f5750600083115b6146595760405162461bcd60e51b815260206004820152600b60248201526a7a65726f20496e7075747360a81b6044820152606401610a21565b6000848152600f60205260409020600281015461467590611bcf565b915060006146828461192d565b4260038401556004830186905560018301549091506000908411156146b35760018301546146b0908561539e565b90505b818360020160008282546146c79190615347565b9250508190555081600760008282546146e09190615347565b9091555050600183015481906146f7908790615347565b6147019190615347565b60018401556008548190614716908790615347565b6147209190615347565b60085550506001600655509392505050565b6060600061474183600261537f565b61474c906002615347565b6001600160401b0381111561477157634e487b7160e01b600052604160045260246000fd5b6040519080825280601f01601f19166020018201604052801561479b576020820181803683370190505b509050600360fc1b816000815181106147c457634e487b7160e01b600052603260045260246000fd5b60200101906001600160f81b031916908160001a905350600f60fb1b8160018151811061480157634e487b7160e01b600052603260045260246000fd5b60200101906001600160f81b031916908160001a905350600061482584600261537f565b614830906001615347565b90505b60018111156148c4576f181899199a1a9b1b9c1cb0b131b232b360811b85600f166010811061487257634e487b7160e01b600052603260045260246000fd5b1a60f81b82828151811061489657634e487b7160e01b600052603260045260246000fd5b60200101906001600160f81b031916908160001a90535060049490941c936148bd816153e1565b9050614833565b5083156149135760405162461bcd60e51b815260206004820181905260248201527f537472696e67733a20686578206c656e67746820696e73756666696369656e746044820152606401610a21565b9392505050565b60065460011461493c5760405162461bcd60e51b8152600401610a21906152e8565b60006006558115158061494f5750600081115b61499b5760405162461bcd60e51b815260206004820181905260248201527f7a65726f20616d6f756e7420616e64205f696e6372656173655365636f6e64736044820152606401610a21565b6000838152600f602052604090208215614a245760006149ba8461192d565b9050838260010160008282546149d09190615347565b92505081905550808260020160008282546149eb9190615347565b925050819055508360086000828254614a049190615347565b925050819055508060076000828254614a1d9190615347565b9091555050505b8115614a445781816004016000828254614a3e9190615347565b90915550505b505060016006555050565b80356001600160a01b0381168114614a6657600080fd5b919050565b60008083601f840112614a7c578182fd5b5081356001600160401b03811115614a92578182fd5b6020830191508360208260051b8501011115614aad57600080fd5b9250929050565b600060208284031215614ac5578081fd5b61491382614a4f565b600080600060608486031215614ae2578182fd5b614aeb84614a4f565b9250614af960208501614a4f565b9150614b0760408501614a4f565b90509250925092565b60008060408385031215614b22578182fd5b614b2b83614a4f565b946020939093013593505050565b60008060008060808587031215614b4e578081fd5b614b5785614a4f565b966020860135965060408601359560600135945092505050565b600080600080600060a08688031215614b88578081fd5b614b9186614a4f565b97602087013597506040870135966060810135965060800135945092505050565b6000806000806000806000806080898b031215614bcd578283fd5b88356001600160401b0380821115614be3578485fd5b614bef8c838d01614a6b565b909a50985060208b0135915080821115614c07578485fd5b614c138c838d01614a6b565b909850965060408b0135915080821115614c2b578485fd5b614c378c838d01614a6b565b909650945060608b0135915080821115614c4f578384fd5b50614c5c8b828c01614a6b565b999c989b5096995094979396929594505050565b60008060208385031215614c82578182fd5b82356001600160401b03811115614c97578283fd5b614ca385828601614a6b565b90969095509350505050565b600060208284031215614cc0578081fd5b81518015158114614913578182fd5b600060208284031215614ce0578081fd5b5035919050565b60008060408385031215614cf9578182fd5b82359150614d0960208401614a4f565b90509250929050565b600060208284031215614d23578081fd5b81356001600160e01b031981168114614913578182fd5b600060208284031215614d4b578081fd5b5051919050565b60008060408385031215614d64578081fd5b50508035926020909101359150565b60008060408385031215614d85578182fd5b505080516020909101519092909150565b600080600060608486031215614daa578081fd5b505081359360208301359350604090920135919050565b600080600060608486031215614dd5578081fd5b8351925060208401519150604084015190509250925092565b60008060008060808587031215614e03578182fd5b5050823594602084013594506040840135936060013592509050565b60008251614e318184602087016153b5565b9190910192915050565b76020b1b1b2b9b9a1b7b73a3937b61d1030b1b1b7bab73a1604d1b815260008351614e6d8160178501602088016153b5565b7001034b99036b4b9b9b4b733903937b6329607d1b6017918401918201528351614e9e8160288401602088016153b5565b01602801949350505050565b6001600160a01b0391909116815260200190565b6001600160a01b039390931683526020830191909152604082015260600190565b6001600160a01b03969096168652602086019490945260408501929092526060840152608083015260a082015260c00190565b6001600160a01b03929092168252602082015260400190565b6001600160a01b03959095168552602085019390935260408401919091526060830152608082015260a00190565b6020808252825182820181905260009190848201906040850190845b81811015614f9157835183529284019291840191600101614f75565b50909695505050505050565b6020815260008251806020840152614fbc8160408501602087016153b5565b601f01601f19169190910160400192915050565b6020808252600e908201526d185b1b081e995c9bc81a5b9c1d5d60921b604082015260600190565b6020808252601690820152751e995c9bc818dbdb5c1bdd5b99195908185b5bdd5b9d60521b604082015260600190565b60208082526022908201527f41636365737369626c653a2043616c6c6572206973206e6f7420616e2061646d60408201526134b760f11b606082015260800190565b60208082526018908201527741636365737369626c653a207a65726f206164647265737360401b604082015260600190565b60208082526028908201527f41636365737369626c653a2043616c6c6572206973206e6f7420616e2070726f6040820152673c3c9030b236b4b760c11b606082015260800190565b60208082526023908201527f69742773206e6f7420666f722073696d706c65207374616b65206f7220656d706040820152623a3c9760e91b606082015260800190565b6020808252601590820152745374616b696e673a207a65726f206164647265737360581b604082015260600190565b60208082526014908201527331b0b63632b91034b9903737ba1039ba30b5b2b960611b604082015260600190565b60208082526016908201527520b1b1b2b9b9b4b136329d1039b0b6b29030b236b4b760511b604082015260600190565b60208082526016908201527539b2b73232b91034b9903737ba1030903137b73232b960511b604082015260600190565b6020808252601c908201527b1b1bd8dac8195b99081d1a5b59481a185cc81b9bdd081c185cdcd95960221b604082015260600190565b6020808252601b908201527a1c995b585a5b9959151bdcc81a5cc81a5b9cdd59999a58da595b9d602a1b604082015260600190565b60208082526012908201527114dd185ada5b99ce881e995c9bc81d5a5b9d60721b604082015260600190565b60208082526029908201527f41636365737369626c653a2043616c6c6572206973206e6f7420616e20706f6c60408201526834b1bc9030b236b4b760b91b606082015260800190565b6020808252600a90820152691e995c9bc81a5b9c1d5d60b21b604082015260600190565b6020808252601890820152774c6f636b496420697320616c726561647920696e2075736560401b604082015260600190565b9182526001600160a01b0316602082015260400190565b9283526020830191909152604082015260600190565b6000821982111561535a5761535a615413565b500190565b60008261537a57634e487b7160e01b81526012600452602481fd5b500490565b600081600019048311821515161561539957615399615413565b500290565b6000828210156153b0576153b0615413565b500390565b60005b838110156153d05781810151838201526020016153b8565b83811115611fb55750506000910152565b6000816153f0576153f0615413565b506000190190565b600060001982141561540c5761540c615413565b5060010190565b634e487b7160e01b600052601160045260246000fdfe52eafc11f6f81f86878bffd31109a0d92f37506527754f00788853ff9f63b130d1a8a452d776b1b6802824ca2e8489c6448e2cb0963f552a9a19ab4ae064ca58bc7a4cb4698ff9bbd20c2fa066bd7234e4dbb886a81ea2f45677f5f942c6e9e8fb5864e8ff833c3cb2d2d08505e82ff02a43554c74a35d4f5a64e85261278311a2646970667358221220dac024b85177bb3dde489ef03132275ce7a62b2b07dd63fb247522b4b2a1d5b264736f6c63430008040033",
  "linkReferences": {
    "contracts/libraries/LibStaking.sol": {
      "LibStaking": [
        {
          "length": 20,
          "start": 3545
        },
        {
          "length": 20,
          "start": 3725
        },
        {
          "length": 20,
          "start": 5542
        },
        {
          "length": 20,
          "start": 7459
        },
        {
          "length": 20,
          "start": 8825
        },
        {
          "length": 20,
          "start": 10387
        },
        {
          "length": 20,
          "start": 10707
        },
        {
          "length": 20,
          "start": 10898
        },
        {
          "length": 20,
          "start": 12387
        },
        {
          "length": 20,
          "start": 13172
        },
        {
          "length": 20,
          "start": 15963
        },
        {
          "length": 20,
          "start": 16179
        }
      ]
    }
  },
  "deployedLinkReferences": {
    "contracts/libraries/LibStaking.sol": {
      "LibStaking": [
        {
          "length": 20,
          "start": 3508
        },
        {
          "length": 20,
          "start": 3688
        },
        {
          "length": 20,
          "start": 5505
        },
        {
          "length": 20,
          "start": 7422
        },
        {
          "length": 20,
          "start": 8788
        },
        {
          "length": 20,
          "start": 10350
        },
        {
          "length": 20,
          "start": 10670
        },
        {
          "length": 20,
          "start": 10861
        },
        {
          "length": 20,
          "start": 12350
        },
        {
          "length": 20,
          "start": 13135
        },
        {
          "length": 20,
          "start": 15926
        },
        {
          "length": 20,
          "start": 16142
        }
      ]
    }
  }
}