{
  "_format": "hh-sol-artifact-1",
  "contractName": "TreasuryProxy",
  "sourceName": "contracts/TreasuryProxy.sol",
  "abi": [
    {
      "anonymous": false,
      "inputs": [
        {
          "indexed": true,
          "internalType": "bytes32",
          "name": "role",
          "type": "bytes32"
        },
        {
          "indexed": true,
          "internalType": "bytes32",
          "name": "previousAdminRole",
          "type": "bytes32"
        },
        {
          "indexed": true,
          "internalType": "bytes32",
          "name": "newAdminRole",
          "type": "bytes32"
        }
      ],
      "name": "RoleAdminChanged",
      "type": "event"
    },
    {
      "anonymous": false,
      "inputs": [
        {
          "indexed": true,
          "internalType": "bytes32",
          "name": "role",
          "type": "bytes32"
        },
        {
          "indexed": true,
          "internalType": "address",
          "name": "account",
          "type": "address"
        },
        {
          "indexed": true,
          "internalType": "address",
          "name": "sender",
          "type": "address"
        }
      ],
      "name": "RoleGranted",
      "type": "event"
    },
    {
      "anonymous": false,
      "inputs": [
        {
          "indexed": true,
          "internalType": "bytes32",
          "name": "role",
          "type": "bytes32"
        },
        {
          "indexed": true,
          "internalType": "address",
          "name": "account",
          "type": "address"
        },
        {
          "indexed": true,
          "internalType": "address",
          "name": "sender",
          "type": "address"
        }
      ],
      "name": "RoleRevoked",
      "type": "event"
    },
    {
      "anonymous": false,
      "inputs": [
        {
          "indexed": true,
          "internalType": "address",
          "name": "impl",
          "type": "address"
        },
        {
          "indexed": false,
          "internalType": "bool",
          "name": "alive",
          "type": "bool"
        }
      ],
      "name": "SetAliveImplementation",
      "type": "event"
    },
    {
      "anonymous": false,
      "inputs": [
        {
          "indexed": true,
          "internalType": "bytes4",
          "name": "selector",
          "type": "bytes4"
        },
        {
          "indexed": true,
          "internalType": "address",
          "name": "impl",
          "type": "address"
        }
      ],
      "name": "SetSelectorImplementation",
      "type": "event"
    },
    {
      "anonymous": false,
      "inputs": [
        {
          "indexed": true,
          "internalType": "address",
          "name": "implementation",
          "type": "address"
        }
      ],
      "name": "Upgraded",
      "type": "event"
    },
    {
      "stateMutability": "payable",
      "type": "fallback"
    },
    {
      "inputs": [],
      "name": "ADMIN_ROLE",
      "outputs": [
        {
          "internalType": "bytes32",
          "name": "",
          "type": "bytes32"
        }
      ],
      "stateMutability": "view",
      "type": "function"
    },
    {
      "inputs": [],
      "name": "DEFAULT_ADMIN_ROLE",
      "outputs": [
        {
          "internalType": "bytes32",
          "name": "",
          "type": "bytes32"
        }
      ],
      "stateMutability": "view",
      "type": "function"
    },
    {
      "inputs": [],
      "name": "POLICY_ROLE",
      "outputs": [
        {
          "internalType": "bytes32",
          "name": "",
          "type": "bytes32"
        }
      ],
      "stateMutability": "view",
      "type": "function"
    },
    {
      "inputs": [
        {
          "internalType": "address",
          "name": "account",
          "type": "address"
        }
      ],
      "name": "addAdmin",
      "outputs": [],
      "stateMutability": "nonpayable",
      "type": "function"
    },
    {
      "inputs": [
        {
          "internalType": "address",
          "name": "_account",
          "type": "address"
        }
      ],
      "name": "addPolicy",
      "outputs": [],
      "stateMutability": "nonpayable",
      "type": "function"
    },
    {
      "inputs": [
        {
          "internalType": "address",
          "name": "_owner",
          "type": "address"
        }
      ],
      "name": "addProxyAdmin",
      "outputs": [],
      "stateMutability": "nonpayable",
      "type": "function"
    },
    {
      "inputs": [
        {
          "internalType": "address",
          "name": "",
          "type": "address"
        }
      ],
      "name": "aliveImplementation",
      "outputs": [
        {
          "internalType": "bool",
          "name": "",
          "type": "bool"
        }
      ],
      "stateMutability": "view",
      "type": "function"
    },
    {
      "inputs": [
        {
          "internalType": "address",
          "name": "",
          "type": "address"
        }
      ],
      "name": "backingIndexPlusOne",
      "outputs": [
        {
          "internalType": "uint256",
          "name": "",
          "type": "uint256"
        }
      ],
      "stateMutability": "view",
      "type": "function"
    },
    {
      "inputs": [
        {
          "internalType": "uint256",
          "name": "",
          "type": "uint256"
        }
      ],
      "name": "backings",
      "outputs": [
        {
          "internalType": "address",
          "name": "",
          "type": "address"
        }
      ],
      "stateMutability": "view",
      "type": "function"
    },
    {
      "inputs": [],
      "name": "calculator",
      "outputs": [
        {
          "internalType": "address",
          "name": "",
          "type": "address"
        }
      ],
      "stateMutability": "view",
      "type": "function"
    },
    {
      "inputs": [
        {
          "internalType": "address",
          "name": "_account",
          "type": "address"
        }
      ],
      "name": "deletePolicy",
      "outputs": [],
      "stateMutability": "nonpayable",
      "type": "function"
    },
    {
      "inputs": [],
      "name": "foundationAmount",
      "outputs": [
        {
          "internalType": "uint256",
          "name": "",
          "type": "uint256"
        }
      ],
      "stateMutability": "view",
      "type": "function"
    },
    {
      "inputs": [],
      "name": "foundationTotalPercentage",
      "outputs": [
        {
          "internalType": "uint256",
          "name": "",
          "type": "uint256"
        }
      ],
      "stateMutability": "view",
      "type": "function"
    },
    {
      "inputs": [
        {
          "internalType": "bytes32",
          "name": "role",
          "type": "bytes32"
        }
      ],
      "name": "getRoleAdmin",
      "outputs": [
        {
          "internalType": "bytes32",
          "name": "",
          "type": "bytes32"
        }
      ],
      "stateMutability": "view",
      "type": "function"
    },
    {
      "inputs": [
        {
          "internalType": "bytes4",
          "name": "_selector",
          "type": "bytes4"
        }
      ],
      "name": "getSelectorImplementation2",
      "outputs": [
        {
          "internalType": "address",
          "name": "impl",
          "type": "address"
        }
      ],
      "stateMutability": "view",
      "type": "function"
    },
    {
      "inputs": [
        {
          "internalType": "bytes32",
          "name": "role",
          "type": "bytes32"
        },
        {
          "internalType": "address",
          "name": "account",
          "type": "address"
        }
      ],
      "name": "grantRole",
      "outputs": [],
      "stateMutability": "nonpayable",
      "type": "function"
    },
    {
      "inputs": [
        {
          "internalType": "bytes32",
          "name": "role",
          "type": "bytes32"
        },
        {
          "internalType": "address",
          "name": "account",
          "type": "address"
        }
      ],
      "name": "hasRole",
      "outputs": [
        {
          "internalType": "bool",
          "name": "",
          "type": "bool"
        }
      ],
      "stateMutability": "view",
      "type": "function"
    },
    {
      "inputs": [],
      "name": "implementation",
      "outputs": [
        {
          "internalType": "address",
          "name": "",
          "type": "address"
        }
      ],
      "stateMutability": "view",
      "type": "function"
    },
    {
      "inputs": [
        {
          "internalType": "uint256",
          "name": "_index",
          "type": "uint256"
        }
      ],
      "name": "implementation2",
      "outputs": [
        {
          "internalType": "address",
          "name": "",
          "type": "address"
        }
      ],
      "stateMutability": "view",
      "type": "function"
    },
    {
      "inputs": [
        {
          "internalType": "address",
          "name": "_tos",
          "type": "address"
        },
        {
          "internalType": "address",
          "name": "_calculator",
          "type": "address"
        },
        {
          "internalType": "address",
          "name": "_wethAddress",
          "type": "address"
        },
        {
          "internalType": "address",
          "name": "_uniswapV3Factory",
          "type": "address"
        },
        {
          "internalType": "address",
          "name": "_stakingV2",
          "type": "address"
        },
        {
          "internalType": "address",
          "name": "_poolAddressTOSETH",
          "type": "address"
        }
      ],
      "name": "initialize",
      "outputs": [],
      "stateMutability": "nonpayable",
      "type": "function"
    },
    {
      "inputs": [
        {
          "internalType": "address",
          "name": "account",
          "type": "address"
        }
      ],
      "name": "isAdmin",
      "outputs": [
        {
          "internalType": "bool",
          "name": "",
          "type": "bool"
        }
      ],
      "stateMutability": "view",
      "type": "function"
    },
    {
      "inputs": [
        {
          "internalType": "address",
          "name": "account",
          "type": "address"
        }
      ],
      "name": "isPolicy",
      "outputs": [
        {
          "internalType": "bool",
          "name": "",
          "type": "bool"
        }
      ],
      "stateMutability": "view",
      "type": "function"
    },
    {
      "inputs": [
        {
          "internalType": "address",
          "name": "account",
          "type": "address"
        }
      ],
      "name": "isProxyAdmin",
      "outputs": [
        {
          "internalType": "bool",
          "name": "",
          "type": "bool"
        }
      ],
      "stateMutability": "view",
      "type": "function"
    },
    {
      "inputs": [],
      "name": "isTreasury",
      "outputs": [
        {
          "internalType": "bool",
          "name": "",
          "type": "bool"
        }
      ],
      "stateMutability": "pure",
      "type": "function"
    },
    {
      "inputs": [
        {
          "internalType": "uint256",
          "name": "",
          "type": "uint256"
        }
      ],
      "name": "lpTokens",
      "outputs": [
        {
          "internalType": "uint256",
          "name": "",
          "type": "uint256"
        }
      ],
      "stateMutability": "view",
      "type": "function"
    },
    {
      "inputs": [],
      "name": "mintRate",
      "outputs": [
        {
          "internalType": "uint256",
          "name": "",
          "type": "uint256"
        }
      ],
      "stateMutability": "view",
      "type": "function"
    },
    {
      "inputs": [],
      "name": "mintRateDenominator",
      "outputs": [
        {
          "internalType": "uint256",
          "name": "",
          "type": "uint256"
        }
      ],
      "stateMutability": "view",
      "type": "function"
    },
    {
      "inputs": [
        {
          "internalType": "uint256",
          "name": "",
          "type": "uint256"
        }
      ],
      "name": "mintings",
      "outputs": [
        {
          "internalType": "address",
          "name": "mintAddress",
          "type": "address"
        },
        {
          "internalType": "uint256",
          "name": "mintPercents",
          "type": "uint256"
        }
      ],
      "stateMutability": "view",
      "type": "function"
    },
    {
      "inputs": [],
      "name": "pauseProxy",
      "outputs": [
        {
          "internalType": "bool",
          "name": "",
          "type": "bool"
        }
      ],
      "stateMutability": "view",
      "type": "function"
    },
    {
      "inputs": [
        {
          "internalType": "enum LibTreasury.STATUS",
          "name": "",
          "type": "uint8"
        },
        {
          "internalType": "address",
          "name": "",
          "type": "address"
        }
      ],
      "name": "permissions",
      "outputs": [
        {
          "internalType": "bool",
          "name": "",
          "type": "bool"
        }
      ],
      "stateMutability": "view",
      "type": "function"
    },
    {
      "inputs": [],
      "name": "poolAddressTOSETH",
      "outputs": [
        {
          "internalType": "address",
          "name": "",
          "type": "address"
        }
      ],
      "stateMutability": "view",
      "type": "function"
    },
    {
      "inputs": [
        {
          "internalType": "uint256",
          "name": "",
          "type": "uint256"
        }
      ],
      "name": "proxyImplementation",
      "outputs": [
        {
          "internalType": "address",
          "name": "",
          "type": "address"
        }
      ],
      "stateMutability": "view",
      "type": "function"
    },
    {
      "inputs": [
        {
          "internalType": "enum LibTreasury.STATUS",
          "name": "",
          "type": "uint8"
        },
        {
          "internalType": "uint256",
          "name": "",
          "type": "uint256"
        }
      ],
      "name": "registry",
      "outputs": [
        {
          "internalType": "address",
          "name": "",
          "type": "address"
        }
      ],
      "stateMutability": "view",
      "type": "function"
    },
    {
      "inputs": [],
      "name": "removeAdmin",
      "outputs": [],
      "stateMutability": "nonpayable",
      "type": "function"
    },
    {
      "inputs": [],
      "name": "removePolicy",
      "outputs": [],
      "stateMutability": "nonpayable",
      "type": "function"
    },
    {
      "inputs": [],
      "name": "removeProxyAdmin",
      "outputs": [],
      "stateMutability": "nonpayable",
      "type": "function"
    },
    {
      "inputs": [
        {
          "internalType": "bytes32",
          "name": "role",
          "type": "bytes32"
        },
        {
          "internalType": "address",
          "name": "account",
          "type": "address"
        }
      ],
      "name": "renounceRole",
      "outputs": [],
      "stateMutability": "nonpayable",
      "type": "function"
    },
    {
      "inputs": [
        {
          "internalType": "bytes32",
          "name": "role",
          "type": "bytes32"
        },
        {
          "internalType": "address",
          "name": "account",
          "type": "address"
        }
      ],
      "name": "revokeRole",
      "outputs": [],
      "stateMutability": "nonpayable",
      "type": "function"
    },
    {
      "inputs": [
        {
          "internalType": "bytes4",
          "name": "",
          "type": "bytes4"
        }
      ],
      "name": "selectorImplementation",
      "outputs": [
        {
          "internalType": "address",
          "name": "",
          "type": "address"
        }
      ],
      "stateMutability": "view",
      "type": "function"
    },
    {
      "inputs": [
        {
          "internalType": "address",
          "name": "newImplementation",
          "type": "address"
        },
        {
          "internalType": "bool",
          "name": "_alive",
          "type": "bool"
        }
      ],
      "name": "setAliveImplementation2",
      "outputs": [],
      "stateMutability": "nonpayable",
      "type": "function"
    },
    {
      "inputs": [
        {
          "internalType": "address",
          "name": "newImplementation",
          "type": "address"
        },
        {
          "internalType": "uint256",
          "name": "_index",
          "type": "uint256"
        },
        {
          "internalType": "bool",
          "name": "_alive",
          "type": "bool"
        }
      ],
      "name": "setImplementation2",
      "outputs": [],
      "stateMutability": "nonpayable",
      "type": "function"
    },
    {
      "inputs": [
        {
          "internalType": "bool",
          "name": "_pause",
          "type": "bool"
        }
      ],
      "name": "setProxyPause",
      "outputs": [],
      "stateMutability": "nonpayable",
      "type": "function"
    },
    {
      "inputs": [
        {
          "internalType": "bytes4[]",
          "name": "_selectors",
          "type": "bytes4[]"
        },
        {
          "internalType": "address",
          "name": "_imp",
          "type": "address"
        }
      ],
      "name": "setSelectorImplementations2",
      "outputs": [],
      "stateMutability": "nonpayable",
      "type": "function"
    },
    {
      "inputs": [],
      "name": "stakingV2",
      "outputs": [
        {
          "internalType": "address",
          "name": "",
          "type": "address"
        }
      ],
      "stateMutability": "view",
      "type": "function"
    },
    {
      "inputs": [
        {
          "internalType": "bytes4",
          "name": "interfaceId",
          "type": "bytes4"
        }
      ],
      "name": "supportsInterface",
      "outputs": [
        {
          "internalType": "bool",
          "name": "",
          "type": "bool"
        }
      ],
      "stateMutability": "view",
      "type": "function"
    },
    {
      "inputs": [],
      "name": "tos",
      "outputs": [
        {
          "internalType": "contract IERC20",
          "name": "",
          "type": "address"
        }
      ],
      "stateMutability": "view",
      "type": "function"
    },
    {
      "inputs": [
        {
          "internalType": "address",
          "name": "newAdmin",
          "type": "address"
        }
      ],
      "name": "transferAdmin",
      "outputs": [],
      "stateMutability": "nonpayable",
      "type": "function"
    },
    {
      "inputs": [
        {
          "internalType": "address",
          "name": "newAdmin",
          "type": "address"
        }
      ],
      "name": "transferProxyAdmin",
      "outputs": [],
      "stateMutability": "nonpayable",
      "type": "function"
    },
    {
      "inputs": [],
      "name": "uniswapV3Factory",
      "outputs": [
        {
          "internalType": "address",
          "name": "",
          "type": "address"
        }
      ],
      "stateMutability": "view",
      "type": "function"
    },
    {
      "inputs": [
        {
          "internalType": "address",
          "name": "impl",
          "type": "address"
        }
      ],
      "name": "upgradeTo",
      "outputs": [],
      "stateMutability": "nonpayable",
      "type": "function"
    },
    {
      "inputs": [],
      "name": "wethAddress",
      "outputs": [
        {
          "internalType": "address",
          "name": "",
          "type": "address"
        }
      ],
      "stateMutability": "view",
      "type": "function"
    },
    {
      "stateMutability": "payable",
      "type": "receive"
    }
  ],
  "bytecode": "0x60c0604052601660808190527f54726561737572793a206e6f742061636365707465640000000000000000000060a09081526200004091600091906200026c565b506040805180820190915260168082527f54726561737572793a206e6f7420617070726f76656400000000000000000000602090920191825262000087916001916200026c565b506040805180820190915260178082527f54726561737572793a20696e76616c696420746f6b656e0000000000000000006020909201918252620000ce916002916200026c565b5060408051808201909152601f8082527f54726561737572793a20696e73756666696369656e7420726573657276657300602090920191825262000115916003916200026c565b503480156200012357600080fd5b506200013f60008051602062002552833981519152806200016d565b6200015a6000805160206200255283398151915233620001b8565b62000167600033620001b8565b6200034f565b600082815260146020526040808220600101805490849055905190918391839186917fbd79b86ffe0ab8e8776151514217cd7cacd52c909f66475c3af44e129f0b00ff9190a4505050565b620001c48282620001c8565b5050565b60008281526014602090815260408083206001600160a01b038516845290915290205460ff16620001c45760008281526014602090815260408083206001600160a01b03851684529091529020805460ff19166001179055620002283390565b6001600160a01b0316816001600160a01b0316837f2f8788117e7eff1d82e926ec794901d17c78024a50270940304540a733656f0d60405160405180910390a45050565b8280546200027a9062000312565b90600052602060002090601f0160209004810192826200029e5760008555620002e9565b82601f10620002b957805160ff1916838001178555620002e9565b82800160010185558215620002e9579182015b82811115620002e9578251825591602001919060010190620002cc565b50620002f7929150620002fb565b5090565b5b80821115620002f75760008155600101620002fc565b600181811c908216806200032757607f821691505b602082108114156200034957634e487b7160e01b600052602260045260246000fd5b50919050565b6121f3806200035f6000396000f3fe6080604052600436106102e85760003560e01c80638356ca4f11610190578063a217fddf116100dc578063cc2a9a5b11610095578063da9c88641161006f578063da9c886414610a4b578063f47f2f1d14610a6b578063f908ed3714610a8b578063fad1c85c14610aa1576103d7565b8063cc2a9a5b146109eb578063ce3e39c014610a0b578063d547741f14610a2b576103d7565b8063a217fddf14610935578063a44b82871461094a578063b84ef0811461096a578063b911135f1461098a578063be72f2d3146109c0578063ca0dcf16146109d5576103d7565b80638d4fdb401161014957806396f1557c1161012357806396f1557c146108bd578063976b58e9146108dd5780639a202d47146108f3578063a0b9bca914610908576103d7565b80638d4fdb401461085d5780638d71bc5b1461087d57806391d148541461089d576103d7565b80638356ca4f146107b3578063842a3bdd146107d357806385e36cc2146107e757806388611736146107fd57806389f395de1461081d5780638b8f4a651461083d576103d7565b8063550d01a31161024f57806365cb3a831161020857806375b238fc116101e257806375b238fc1461071257806376f2766c146107345780637cb00d25146107735780637cd5f66314610793576103d7565b806365cb3a83146106bd57806370480275146106d257806375829def146106f2576103d7565b8063550d01a3146105df5780635b5491821461060f5780635c60da1b1461062f5780635cc797d8146106635780635fabdf7c1461068357806363a8fd89146106a3576103d7565b8063330dd345116102a1578063330dd345146104d657806336568abe146105115780633659cfe6146105315780634a5df50f146105515780634f0e0ef31461057157806350d2a276146105a9576103d7565b806301ffc9a7146103e15780631bb5e2dc146104165780632298524614610444578063248a9ca31461046657806324d7806c146104965780632f2ff15d146104b6576103d7565b366103d75760408051600481526024810182526020810180516001600160e01b031663842a3bdd60e01b179052905160009182913091839161032a9190611f27565b60006040518083038185875af1925050503d8060008114610367576040519150601f19603f3d011682016040523d82523d6000602084013e61036c565b606091505b50915091506000818060200190518101906103879190611e4e565b9050806103d25760405162461bcd60e51b815260206004820152601460248201527331b0b73737ba103932b1b2b4bb329022ba3432b960611b60448201526064015b60405180910390fd5b505050005b6103df610ac1565b005b3480156103ed57600080fd5b506104016103fc366004611ead565b610b6a565b60405190151581526020015b60405180910390f35b34801561042257600080fd5b50610436610431366004611e6a565b610ba1565b60405190815260200161040d565b34801561045057600080fd5b5061043660008051602061219e83398151915281565b34801561047257600080fd5b50610436610481366004611e6a565b60009081526014602052604090206001015490565b3480156104a257600080fd5b506104016104b1366004611cb1565b610bc2565b3480156104c257600080fd5b506103df6104d1366004611e82565b610bdc565b3480156104e257600080fd5b506104016104f1366004611ed5565b600f60209081526000928352604080842090915290825290205460ff1681565b34801561051d57600080fd5b506103df61052c366004611e82565b610c02565b34801561053d57600080fd5b506103df61054c366004611cb1565b610c80565b34801561055d57600080fd5b506103df61056c366004611db3565b610d8f565b34801561057d57600080fd5b50600654610591906001600160a01b031681565b6040516001600160a01b03909116815260200161040d565b3480156105b557600080fd5b506105916105c4366004611ead565b6018602052600090815260409020546001600160a01b031681565b3480156105eb57600080fd5b506104016105fa366004611cb1565b60176020526000908152604090205460ff1681565b34801561061b57600080fd5b50600754610591906001600160a01b031681565b34801561063b57600080fd5b5060008052601660205260008051602061217e833981519152546001600160a01b0316610591565b34801561066f57600080fd5b506103df61067e366004611d3e565b61101c565b34801561068f57600080fd5b506103df61069e366004611cb1565b61104b565b3480156106af57600080fd5b506015546104019060ff1681565b3480156106c957600080fd5b506103df61108b565b3480156106de57600080fd5b506103df6106ed366004611cb1565b61110c565b3480156106fe57600080fd5b506103df61070d366004611cb1565b611149565b34801561071e57600080fd5b5061043660008051602061215e83398151915281565b34801561074057600080fd5b5061075461074f366004611e6a565b611250565b604080516001600160a01b03909316835260208301919091520161040d565b34801561077f57600080fd5b506103df61078e366004611e32565b611288565b34801561079f57600080fd5b506103df6107ae366004611d74565b6112c0565b3480156107bf57600080fd5b506103df6107ce366004611cb1565b6112f0565b3480156107df57600080fd5b506001610401565b3480156107f357600080fd5b50610436600c5481565b34801561080957600080fd5b50600854610591906001600160a01b031681565b34801561082957600080fd5b50600454610591906001600160a01b031681565b34801561084957600080fd5b50610591610858366004611e6a565b6113ce565b34801561086957600080fd5b50610591610878366004611ead565b6113eb565b34801561088957600080fd5b50600954610591906001600160a01b031681565b3480156108a957600080fd5b506104016108b8366004611e82565b6114c3565b3480156108c957600080fd5b506103df6108d8366004611cb1565b6114ee565b3480156108e957600080fd5b50610436600d5481565b3480156108ff57600080fd5b506103df61151e565b34801561091457600080fd5b50610436610923366004611cb1565b60106020526000908152604090205481565b34801561094157600080fd5b50610436600081565b34801561095657600080fd5b50610591610965366004611efe565b61156a565b34801561097657600080fd5b506103df610985366004611cb1565b6115a2565b34801561099657600080fd5b506105916109a5366004611e6a565b6016602052600090815260409020546001600160a01b031681565b3480156109cc57600080fd5b506103df6115df565b3480156109e157600080fd5b50610436600a5481565b3480156109f757600080fd5b506103df610a06366004611ccb565b61160f565b348015610a1757600080fd5b50600554610591906001600160a01b031681565b348015610a3757600080fd5b506103df610a46366004611e82565b6117e7565b348015610a5757600080fd5b50610591610a66366004611e6a565b61180d565b348015610a7757600080fd5b50610401610a86366004611cb1565b611837565b348015610a9757600080fd5b50610436600b5481565b348015610aad57600080fd5b50610401610abc366004611cb1565b611843565b6000610ad86000356001600160e01b0319166113eb565b90506001600160a01b03811615801590610af5575060155460ff16155b610b415760405162461bcd60e51b815260206004820152601d60248201527f50726f78793a20696d706c204f522070726f78792069732066616c736500000060448201526064016103c9565b3660008037600080366000845af43d6000803e808015610b60573d6000f35b3d6000fd5b505050565b60006001600160e01b03198216637965db0b60e01b1480610b9b57506301ffc9a760e01b6001600160e01b03198316145b92915050565b60138181548110610bb157600080fd5b600091825260209091200154905081565b6000610b9b60008051602061215e833981519152836114c3565b600082815260146020526040902060010154610bf8813361185d565b610b6583836118c1565b6001600160a01b0381163314610c725760405162461bcd60e51b815260206004820152602f60248201527f416363657373436f6e74726f6c3a2063616e206f6e6c792072656e6f756e636560448201526e103937b632b9903337b91039b2b63360891b60648201526084016103c9565b610c7c8282611947565b5050565b610c8933611837565b610ca55760405162461bcd60e51b81526004016103c99061205c565b6001600160a01b038116610ceb5760405162461bcd60e51b815260206004820152600d60248201526c696e707574206973207a65726f60981b60448201526064016103c9565b60008052601660205260008051602061217e833981519152546001600160a01b0382811691161415610d4b5760405162461bcd60e51b815260206004820152600960248201526839b0b6b29030b2323960b91b60448201526064016103c9565b610d5881600060016119ae565b6040516001600160a01b038216907fbc7cd75a20ee27fd9adebab32041f755214dbc6bffa90cc0225b39da2e5c2d3b90600090a250565b610d9833611837565b610db45760405162461bcd60e51b81526004016103c99061205c565b81610e015760405162461bcd60e51b815260206004820181905260248201527f50726f78793a205f73656c6563746f727327732073697a65206973207a65726f60448201526064016103c9565b6001600160a01b03811660009081526017602052604090205460ff16610e695760405162461bcd60e51b815260206004820152601860248201527f50726f78793a205f696d70206973206e6f7420616c697665000000000000000060448201526064016103c9565b60005b8281101561101657816001600160a01b031660186000868685818110610ea257634e487b7160e01b600052603260045260246000fd5b9050602002016020810190610eb79190611ead565b6001600160e01b03191681526020810191909152604001600020546001600160a01b03161415610f295760405162461bcd60e51b815260206004820152601d60248201527f4c69717569646974795661756c7450726f78793a2073616d6520696d7000000060448201526064016103c9565b8160186000868685818110610f4e57634e487b7160e01b600052603260045260246000fd5b9050602002016020810190610f639190611ead565b6001600160e01b0319168152602081019190915260400160002080546001600160a01b0319166001600160a01b039283161790558216848483818110610fb957634e487b7160e01b600052603260045260246000fd5b9050602002016020810190610fce9190611ead565b6001600160e01b0319167f14ebc1c32aa68f4d766e89f3e546cee249f7df25183fc10ab1568d91c2ce9b7b60405160405180910390a38061100e8161211e565b915050610e6c565b50505050565b61102533611837565b6110415760405162461bcd60e51b81526004016103c99061205c565b610c7c8282611a39565b61105433611837565b6110705760405162461bcd60e51b81526004016103c99061205c565b61108860008051602061219e833981519152826117e7565b50565b61109433611843565b6110f25760405162461bcd60e51b815260206004820152602960248201527f41636365737369626c653a2043616c6c6572206973206e6f7420616e20706f6c60448201526834b1bc9030b236b4b760b91b60648201526084016103c9565b61110a60008051602061219e83398151915233610c02565b565b61111533611837565b6111315760405162461bcd60e51b81526004016103c99061205c565b61108860008051602061215e83398151915282610bdc565b61115233610bc2565b80611161575061116133611837565b61117d5760405162461bcd60e51b81526004016103c99061201a565b6001600160a01b0381166111ce5760405162461bcd60e51b815260206004820152601860248201527741636365737369626c653a207a65726f206164647265737360401b60448201526064016103c9565b336001600160a01b03821614156112205760405162461bcd60e51b815260206004820152601660248201527520b1b1b2b9b9b4b136329d1039b0b6b29030b236b4b760511b60448201526064016103c9565b61123860008051602061215e83398151915282610bdc565b61108860008051602061215e83398151915233610c02565b6012818154811061126057600080fd5b6000918252602090912060029091020180546001909101546001600160a01b03909116915082565b61129133611837565b6112ad5760405162461bcd60e51b81526004016103c99061205c565b6015805460ff1916911515919091179055565b6112c933611837565b6112e55760405162461bcd60e51b81526004016103c99061205c565b610b658383836119ae565b6112f933611837565b6113155760405162461bcd60e51b81526004016103c99061205c565b6001600160a01b0381166113665760405162461bcd60e51b815260206004820152601860248201527741636365737369626c653a207a65726f206164647265737360401b60448201526064016103c9565b336001600160a01b03821614156113b85760405162461bcd60e51b815260206004820152601660248201527520b1b1b2b9b9b4b136329d1039b0b6b29030b236b4b760511b60448201526064016103c9565b6113c3600082610bdc565b611088600033610c02565b6000818152601660205260408120546001600160a01b0316610b9b565b6001600160e01b031981166000908152601860205260408120546001600160a01b031661143957505060008052601660205260008051602061217e833981519152546001600160a01b031690565b6001600160e01b031982166000908152601860209081526040808320546001600160a01b03168352601790915290205460ff161561149757506001600160e01b0319166000908152601860205260409020546001600160a01b031690565b505060008052601660205260008051602061217e833981519152546001600160a01b031690565b919050565b60009182526014602090815260408084206001600160a01b0393909316845291905290205460ff1690565b6114f733611837565b6115135760405162461bcd60e51b81526004016103c99061205c565b611088600082611a98565b61152733610bc2565b80611536575061153633611837565b6115525760405162461bcd60e51b81526004016103c99061201a565b61110a60008051602061215e83398151915233610c02565b600e602052816000526040600020818154811061158657600080fd5b6000918252602090912001546001600160a01b03169150829050565b6115ab33611837565b6115c75760405162461bcd60e51b81526004016103c99061205c565b61108860008051602061219e83398151915282610bdc565b6115e833611837565b6116045760405162461bcd60e51b81526004016103c99061205c565b61110a600033610c02565b856001600160a01b0381166116365760405162461bcd60e51b81526004016103c990611feb565b856001600160a01b03811661165d5760405162461bcd60e51b81526004016103c990611feb565b856001600160a01b0381166116845760405162461bcd60e51b81526004016103c990611feb565b856001600160a01b0381166116ab5760405162461bcd60e51b81526004016103c990611feb565b856001600160a01b0381166116d25760405162461bcd60e51b81526004016103c990611feb565b856001600160a01b0381166116f95760405162461bcd60e51b81526004016103c990611feb565b61170233611837565b61171e5760405162461bcd60e51b81526004016103c99061205c565b6004546001600160a01b03161561176d5760405162461bcd60e51b8152602060048201526013602482015272185b1c9958591e481a5b9a5d1a585b1a5e9959606a1b60448201526064016103c9565b5050600480546001600160a01b03199081166001600160a01b039c8d16179091556005805482169a8c169a909a1790995550506006805488169689169690961790955550600780548616938716939093179092556001600b5560088054851691861691909117905560098054909316931692909217905550565b600082815260146020526040902060010154611803813361185d565b610b658383611947565b6011818154811061181d57600080fd5b6000918252602090912001546001600160a01b0316905081565b6000610b9b81836114c3565b6000610b9b60008051602061219e833981519152836114c3565b61186782826114c3565b610c7c5761187f816001600160a01b03166014611aa2565b61188a836020611aa2565b60405160200161189b929190611f43565b60408051601f198184030181529082905262461bcd60e51b82526103c991600401611fb8565b6118cb82826114c3565b610c7c5760008281526014602090815260408083206001600160a01b03851684529091529020805460ff191660011790556119033390565b6001600160a01b0316816001600160a01b0316837f2f8788117e7eff1d82e926ec794901d17c78024a50270940304540a733656f0d60405160405180910390a45050565b61195182826114c3565b15610c7c5760008281526014602090815260408083206001600160a01b0385168085529252808320805460ff1916905551339285917ff6391f5c32d9c69d2a47ea670b442974b53935d1edc7fd64eb21e047a839171b9190a45050565b6001600160a01b0383163b611a055760405162461bcd60e51b815260206004820152601b60248201527f50726f78793a206e6f7420636f6e74726163742061646472657373000000000060448201526064016103c9565b8015611a3357600082815260166020526040902080546001600160a01b0319166001600160a01b0385161790555b610b6583825b6001600160a01b038216600081815260176020908152604091829020805460ff191685151590811790915591519182527f72558d9bfba4210f9ef095c782589484151f6d90f7a81bb3cb9b33efc695d324910160405180910390a25050565b610c7c82826118c1565b60606000611ab18360026120bc565b611abc9060026120a4565b67ffffffffffffffff811115611ae257634e487b7160e01b600052604160045260246000fd5b6040519080825280601f01601f191660200182016040528015611b0c576020820181803683370190505b509050600360fc1b81600081518110611b3557634e487b7160e01b600052603260045260246000fd5b60200101906001600160f81b031916908160001a905350600f60fb1b81600181518110611b7257634e487b7160e01b600052603260045260246000fd5b60200101906001600160f81b031916908160001a9053506000611b968460026120bc565b611ba19060016120a4565b90505b6001811115611c35576f181899199a1a9b1b9c1cb0b131b232b360811b85600f1660108110611be357634e487b7160e01b600052603260045260246000fd5b1a60f81b828281518110611c0757634e487b7160e01b600052603260045260246000fd5b60200101906001600160f81b031916908160001a90535060049490941c93611c2e81612107565b9050611ba4565b508315611c845760405162461bcd60e51b815260206004820181905260248201527f537472696e67733a20686578206c656e67746820696e73756666696369656e7460448201526064016103c9565b9392505050565b80356001600160a01b03811681146114be57600080fd5b8035600b81106114be57600080fd5b600060208284031215611cc2578081fd5b611c8482611c8b565b60008060008060008060c08789031215611ce3578182fd5b611cec87611c8b565b9550611cfa60208801611c8b565b9450611d0860408801611c8b565b9350611d1660608801611c8b565b9250611d2460808801611c8b565b9150611d3260a08801611c8b565b90509295509295509295565b60008060408385031215611d50578182fd5b611d5983611c8b565b91506020830135611d698161214f565b809150509250929050565b600080600060608486031215611d88578283fd5b611d9184611c8b565b9250602084013591506040840135611da88161214f565b809150509250925092565b600080600060408486031215611dc7578283fd5b833567ffffffffffffffff80821115611dde578485fd5b818601915086601f830112611df1578485fd5b813581811115611dff578586fd5b8760208260051b8501011115611e13578586fd5b602092830195509350611e299186019050611c8b565b90509250925092565b600060208284031215611e43578081fd5b8135611c848161214f565b600060208284031215611e5f578081fd5b8151611c848161214f565b600060208284031215611e7b578081fd5b5035919050565b60008060408385031215611e94578182fd5b82359150611ea460208401611c8b565b90509250929050565b600060208284031215611ebe578081fd5b81356001600160e01b031981168114611c84578182fd5b60008060408385031215611ee7578182fd5b611ef083611ca2565b9150611ea460208401611c8b565b60008060408385031215611f10578182fd5b611f1983611ca2565b946020939093013593505050565b60008251611f398184602087016120db565b9190910192915050565b7f416363657373436f6e74726f6c3a206163636f756e7420000000000000000000815260008351611f7b8160178501602088016120db565b7001034b99036b4b9b9b4b733903937b6329607d1b6017918401918201528351611fac8160288401602088016120db565b01602801949350505050565b6020815260008251806020840152611fd78160408501602087016120db565b601f01601f19169190910160400192915050565b60208082526015908201527454726561737572793a7a65726f206164647265737360581b604082015260600190565b60208082526022908201527f41636365737369626c653a2043616c6c6572206973206e6f7420616e2061646d60408201526134b760f11b606082015260800190565b60208082526028908201527f41636365737369626c653a2043616c6c6572206973206e6f7420616e2070726f6040820152673c3c9030b236b4b760c11b606082015260800190565b600082198211156120b7576120b7612139565b500190565b60008160001904831182151516156120d6576120d6612139565b500290565b60005b838110156120f65781810151838201526020016120de565b838111156110165750506000910152565b60008161211657612116612139565b506000190190565b600060001982141561213257612132612139565b5060010190565b634e487b7160e01b600052601160045260246000fd5b801515811461108857600080fdfedf8b4c520ffe197c5343c6f5aec59570151ef9a492f2c624fd45ddde6135ec420263c2b778d062355049effc2dece97bc6547ff8a88a3258daa512061c2153ddfb5864e8ff833c3cb2d2d08505e82ff02a43554c74a35d4f5a64e85261278311a264697066735822122030de3fa8bb2c3773b584c68e1653314be8f786c47d23c9fe7853cb34e5a5a50864736f6c63430008040033df8b4c520ffe197c5343c6f5aec59570151ef9a492f2c624fd45ddde6135ec42",
  "linkReferences": {},
  "deployedLinkReferences": {}
}