{
  "_format": "hh-sol-artifact-1",
  "contractName": "Treasury",
  "sourceName": "contracts/Treasury.sol",
  "abi": [
    {
      "inputs": [],
      "stateMutability": "nonpayable",
      "type": "constructor"
    },
    {
      "anonymous": false,
      "inputs": [
        {
          "indexed": true,
          "internalType": "address",
          "name": "token",
          "type": "address"
        },
        {
          "indexed": false,
          "internalType": "uint256",
          "name": "amount",
          "type": "uint256"
        },
        {
          "indexed": false,
          "internalType": "uint256",
          "name": "value",
          "type": "uint256"
        }
      ],
      "name": "Deposit",
      "type": "event"
    },
    {
      "anonymous": false,
      "inputs": [
        {
          "indexed": true,
          "internalType": "address",
          "name": "caller",
          "type": "address"
        },
        {
          "indexed": true,
          "internalType": "address",
          "name": "recipient",
          "type": "address"
        },
        {
          "indexed": false,
          "internalType": "uint256",
          "name": "amount",
          "type": "uint256"
        }
      ],
      "name": "Minted",
      "type": "event"
    },
    {
      "anonymous": false,
      "inputs": [
        {
          "indexed": false,
          "internalType": "address",
          "name": "addr",
          "type": "address"
        },
        {
          "indexed": true,
          "internalType": "enum TreasuryStorage.STATUS",
          "name": "status",
          "type": "uint8"
        },
        {
          "indexed": false,
          "internalType": "bool",
          "name": "result",
          "type": "bool"
        }
      ],
      "name": "Permissioned",
      "type": "event"
    },
    {
      "anonymous": false,
      "inputs": [
        {
          "indexed": true,
          "internalType": "uint256",
          "name": "totalReserves",
          "type": "uint256"
        }
      ],
      "name": "ReservesAudited",
      "type": "event"
    },
    {
      "anonymous": false,
      "inputs": [
        {
          "indexed": true,
          "internalType": "bytes32",
          "name": "role",
          "type": "bytes32"
        },
        {
          "indexed": true,
          "internalType": "bytes32",
          "name": "previousAdminRole",
          "type": "bytes32"
        },
        {
          "indexed": true,
          "internalType": "bytes32",
          "name": "newAdminRole",
          "type": "bytes32"
        }
      ],
      "name": "RoleAdminChanged",
      "type": "event"
    },
    {
      "anonymous": false,
      "inputs": [
        {
          "indexed": true,
          "internalType": "bytes32",
          "name": "role",
          "type": "bytes32"
        },
        {
          "indexed": true,
          "internalType": "address",
          "name": "account",
          "type": "address"
        },
        {
          "indexed": true,
          "internalType": "address",
          "name": "sender",
          "type": "address"
        }
      ],
      "name": "RoleGranted",
      "type": "event"
    },
    {
      "anonymous": false,
      "inputs": [
        {
          "indexed": true,
          "internalType": "bytes32",
          "name": "role",
          "type": "bytes32"
        },
        {
          "indexed": true,
          "internalType": "address",
          "name": "account",
          "type": "address"
        },
        {
          "indexed": true,
          "internalType": "address",
          "name": "sender",
          "type": "address"
        }
      ],
      "name": "RoleRevoked",
      "type": "event"
    },
    {
      "anonymous": false,
      "inputs": [
        {
          "indexed": true,
          "internalType": "address",
          "name": "token",
          "type": "address"
        },
        {
          "indexed": false,
          "internalType": "uint256",
          "name": "amount",
          "type": "uint256"
        },
        {
          "indexed": false,
          "internalType": "uint256",
          "name": "value",
          "type": "uint256"
        }
      ],
      "name": "Withdrawal",
      "type": "event"
    },
    {
      "inputs": [],
      "name": "ADMIN_ROLE",
      "outputs": [
        {
          "internalType": "bytes32",
          "name": "",
          "type": "bytes32"
        }
      ],
      "stateMutability": "view",
      "type": "function"
    },
    {
      "inputs": [],
      "name": "BURNER_ROLE",
      "outputs": [
        {
          "internalType": "bytes32",
          "name": "",
          "type": "bytes32"
        }
      ],
      "stateMutability": "view",
      "type": "function"
    },
    {
      "inputs": [],
      "name": "DEFAULT_ADMIN_ROLE",
      "outputs": [
        {
          "internalType": "bytes32",
          "name": "",
          "type": "bytes32"
        }
      ],
      "stateMutability": "view",
      "type": "function"
    },
    {
      "inputs": [],
      "name": "ETHbacking",
      "outputs": [
        {
          "internalType": "uint256",
          "name": "",
          "type": "uint256"
        }
      ],
      "stateMutability": "view",
      "type": "function"
    },
    {
      "inputs": [],
      "name": "MINTER_ROLE",
      "outputs": [
        {
          "internalType": "bytes32",
          "name": "",
          "type": "bytes32"
        }
      ],
      "stateMutability": "view",
      "type": "function"
    },
    {
      "inputs": [],
      "name": "POLICY_ROLE",
      "outputs": [
        {
          "internalType": "bytes32",
          "name": "",
          "type": "bytes32"
        }
      ],
      "stateMutability": "view",
      "type": "function"
    },
    {
      "inputs": [],
      "name": "PROJECT_ADMIN_ROLE",
      "outputs": [
        {
          "internalType": "bytes32",
          "name": "",
          "type": "bytes32"
        }
      ],
      "stateMutability": "view",
      "type": "function"
    },
    {
      "inputs": [],
      "name": "TOS",
      "outputs": [
        {
          "internalType": "contract IERC20",
          "name": "",
          "type": "address"
        }
      ],
      "stateMutability": "view",
      "type": "function"
    },
    {
      "inputs": [
        {
          "internalType": "address",
          "name": "account",
          "type": "address"
        }
      ],
      "name": "addAdmin",
      "outputs": [],
      "stateMutability": "nonpayable",
      "type": "function"
    },
    {
      "inputs": [
        {
          "internalType": "address",
          "name": "_account",
          "type": "address"
        }
      ],
      "name": "addPolicy",
      "outputs": [],
      "stateMutability": "nonpayable",
      "type": "function"
    },
    {
      "inputs": [
        {
          "internalType": "address",
          "name": "_owner",
          "type": "address"
        }
      ],
      "name": "addProxyAdmin",
      "outputs": [],
      "stateMutability": "nonpayable",
      "type": "function"
    },
    {
      "inputs": [
        {
          "internalType": "uint256",
          "name": "_tokenId",
          "type": "uint256"
        }
      ],
      "name": "addbackingIdList",
      "outputs": [],
      "stateMutability": "nonpayable",
      "type": "function"
    },
    {
      "inputs": [
        {
          "internalType": "address",
          "name": "_address",
          "type": "address"
        },
        {
          "internalType": "address",
          "name": "_tosPooladdress",
          "type": "address"
        },
        {
          "internalType": "uint24",
          "name": "_fee",
          "type": "uint24"
        }
      ],
      "name": "addbackingList",
      "outputs": [],
      "stateMutability": "nonpayable",
      "type": "function"
    },
    {
      "inputs": [
        {
          "internalType": "address",
          "name": "_addr",
          "type": "address"
        }
      ],
      "name": "approve",
      "outputs": [],
      "stateMutability": "nonpayable",
      "type": "function"
    },
    {
      "inputs": [],
      "name": "auditReserves",
      "outputs": [],
      "stateMutability": "nonpayable",
      "type": "function"
    },
    {
      "inputs": [
        {
          "internalType": "uint256",
          "name": "",
          "type": "uint256"
        }
      ],
      "name": "backingList",
      "outputs": [
        {
          "internalType": "uint256",
          "name": "",
          "type": "uint256"
        }
      ],
      "stateMutability": "view",
      "type": "function"
    },
    {
      "inputs": [
        {
          "internalType": "uint256",
          "name": "",
          "type": "uint256"
        }
      ],
      "name": "backingLists",
      "outputs": [
        {
          "internalType": "address",
          "name": "",
          "type": "address"
        }
      ],
      "stateMutability": "view",
      "type": "function"
    },
    {
      "inputs": [],
      "name": "backingReserve",
      "outputs": [
        {
          "internalType": "uint256",
          "name": "",
          "type": "uint256"
        }
      ],
      "stateMutability": "view",
      "type": "function"
    },
    {
      "inputs": [],
      "name": "backingUpdate",
      "outputs": [],
      "stateMutability": "nonpayable",
      "type": "function"
    },
    {
      "inputs": [
        {
          "internalType": "uint256",
          "name": "",
          "type": "uint256"
        }
      ],
      "name": "backings",
      "outputs": [
        {
          "internalType": "address",
          "name": "erc20Address",
          "type": "address"
        },
        {
          "internalType": "address",
          "name": "tosPoolAddress",
          "type": "address"
        },
        {
          "internalType": "uint24",
          "name": "fee",
          "type": "uint24"
        }
      ],
      "stateMutability": "view",
      "type": "function"
    },
    {
      "inputs": [
        {
          "internalType": "address",
          "name": "",
          "type": "address"
        }
      ],
      "name": "bondCalculator",
      "outputs": [
        {
          "internalType": "address",
          "name": "",
          "type": "address"
        }
      ],
      "stateMutability": "view",
      "type": "function"
    },
    {
      "inputs": [],
      "name": "calculator",
      "outputs": [
        {
          "internalType": "address",
          "name": "",
          "type": "address"
        }
      ],
      "stateMutability": "view",
      "type": "function"
    },
    {
      "inputs": [
        {
          "internalType": "uint256",
          "name": "_amount",
          "type": "uint256"
        },
        {
          "internalType": "address",
          "name": "_token",
          "type": "address"
        },
        {
          "internalType": "uint256",
          "name": "_profit",
          "type": "uint256"
        }
      ],
      "name": "deposit",
      "outputs": [
        {
          "internalType": "uint256",
          "name": "send_",
          "type": "uint256"
        }
      ],
      "stateMutability": "nonpayable",
      "type": "function"
    },
    {
      "inputs": [
        {
          "internalType": "enum TreasuryStorage.STATUS",
          "name": "_status",
          "type": "uint8"
        },
        {
          "internalType": "address",
          "name": "_toDisable",
          "type": "address"
        }
      ],
      "name": "disable",
      "outputs": [],
      "stateMutability": "nonpayable",
      "type": "function"
    },
    {
      "inputs": [
        {
          "internalType": "enum TreasuryStorage.STATUS",
          "name": "_status",
          "type": "uint8"
        },
        {
          "internalType": "address",
          "name": "_address",
          "type": "address"
        },
        {
          "internalType": "address",
          "name": "_calculator",
          "type": "address"
        }
      ],
      "name": "enable",
      "outputs": [],
      "stateMutability": "nonpayable",
      "type": "function"
    },
    {
      "inputs": [],
      "name": "enableStaking",
      "outputs": [
        {
          "internalType": "uint256",
          "name": "",
          "type": "uint256"
        }
      ],
      "stateMutability": "view",
      "type": "function"
    },
    {
      "inputs": [
        {
          "internalType": "bytes32",
          "name": "role",
          "type": "bytes32"
        }
      ],
      "name": "getRoleAdmin",
      "outputs": [
        {
          "internalType": "bytes32",
          "name": "",
          "type": "bytes32"
        }
      ],
      "stateMutability": "view",
      "type": "function"
    },
    {
      "inputs": [
        {
          "internalType": "bytes32",
          "name": "role",
          "type": "bytes32"
        },
        {
          "internalType": "address",
          "name": "account",
          "type": "address"
        }
      ],
      "name": "grantRole",
      "outputs": [],
      "stateMutability": "nonpayable",
      "type": "function"
    },
    {
      "inputs": [
        {
          "internalType": "bytes32",
          "name": "role",
          "type": "bytes32"
        },
        {
          "internalType": "address",
          "name": "account",
          "type": "address"
        }
      ],
      "name": "hasRole",
      "outputs": [
        {
          "internalType": "bool",
          "name": "",
          "type": "bool"
        }
      ],
      "stateMutability": "view",
      "type": "function"
    },
    {
      "inputs": [
        {
          "internalType": "address",
          "name": "_address",
          "type": "address"
        },
        {
          "internalType": "enum TreasuryStorage.STATUS",
          "name": "_status",
          "type": "uint8"
        }
      ],
      "name": "indexInRegistry",
      "outputs": [
        {
          "internalType": "bool",
          "name": "",
          "type": "bool"
        },
        {
          "internalType": "uint256",
          "name": "",
          "type": "uint256"
        }
      ],
      "stateMutability": "view",
      "type": "function"
    },
    {
      "inputs": [
        {
          "internalType": "address",
          "name": "account",
          "type": "address"
        }
      ],
      "name": "isAdmin",
      "outputs": [
        {
          "internalType": "bool",
          "name": "",
          "type": "bool"
        }
      ],
      "stateMutability": "view",
      "type": "function"
    },
    {
      "inputs": [
        {
          "internalType": "address",
          "name": "account",
          "type": "address"
        }
      ],
      "name": "isPolicy",
      "outputs": [
        {
          "internalType": "bool",
          "name": "",
          "type": "bool"
        }
      ],
      "stateMutability": "view",
      "type": "function"
    },
    {
      "inputs": [
        {
          "internalType": "address",
          "name": "account",
          "type": "address"
        }
      ],
      "name": "isProxyAdmin",
      "outputs": [
        {
          "internalType": "bool",
          "name": "",
          "type": "bool"
        }
      ],
      "stateMutability": "view",
      "type": "function"
    },
    {
      "inputs": [
        {
          "internalType": "address",
          "name": "_recipient",
          "type": "address"
        },
        {
          "internalType": "uint256",
          "name": "_amount",
          "type": "uint256"
        }
      ],
      "name": "mint",
      "outputs": [],
      "stateMutability": "nonpayable",
      "type": "function"
    },
    {
      "inputs": [
        {
          "internalType": "enum TreasuryStorage.STATUS",
          "name": "",
          "type": "uint8"
        },
        {
          "internalType": "address",
          "name": "",
          "type": "address"
        }
      ],
      "name": "permissions",
      "outputs": [
        {
          "internalType": "bool",
          "name": "",
          "type": "bool"
        }
      ],
      "stateMutability": "view",
      "type": "function"
    },
    {
      "inputs": [
        {
          "internalType": "enum TreasuryStorage.STATUS",
          "name": "",
          "type": "uint8"
        },
        {
          "internalType": "uint256",
          "name": "",
          "type": "uint256"
        }
      ],
      "name": "registry",
      "outputs": [
        {
          "internalType": "address",
          "name": "",
          "type": "address"
        }
      ],
      "stateMutability": "view",
      "type": "function"
    },
    {
      "inputs": [],
      "name": "removeAdmin",
      "outputs": [],
      "stateMutability": "nonpayable",
      "type": "function"
    },
    {
      "inputs": [],
      "name": "removePolicy",
      "outputs": [],
      "stateMutability": "nonpayable",
      "type": "function"
    },
    {
      "inputs": [],
      "name": "removeProxyAdmin",
      "outputs": [],
      "stateMutability": "nonpayable",
      "type": "function"
    },
    {
      "inputs": [
        {
          "internalType": "bytes32",
          "name": "role",
          "type": "bytes32"
        },
        {
          "internalType": "address",
          "name": "account",
          "type": "address"
        }
      ],
      "name": "renounceRole",
      "outputs": [],
      "stateMutability": "nonpayable",
      "type": "function"
    },
    {
      "inputs": [
        {
          "internalType": "bytes32",
          "name": "role",
          "type": "bytes32"
        },
        {
          "internalType": "address",
          "name": "account",
          "type": "address"
        }
      ],
      "name": "revokeRole",
      "outputs": [],
      "stateMutability": "nonpayable",
      "type": "function"
    },
    {
      "inputs": [
        {
          "internalType": "bytes4",
          "name": "interfaceId",
          "type": "bytes4"
        }
      ],
      "name": "supportsInterface",
      "outputs": [
        {
          "internalType": "bool",
          "name": "",
          "type": "bool"
        }
      ],
      "stateMutability": "view",
      "type": "function"
    },
    {
      "inputs": [
        {
          "internalType": "uint256",
          "name": "",
          "type": "uint256"
        }
      ],
      "name": "tokenIdLists",
      "outputs": [
        {
          "internalType": "uint256",
          "name": "",
          "type": "uint256"
        }
      ],
      "stateMutability": "view",
      "type": "function"
    },
    {
      "inputs": [
        {
          "internalType": "address",
          "name": "_token",
          "type": "address"
        },
        {
          "internalType": "uint256",
          "name": "_amount",
          "type": "uint256"
        }
      ],
      "name": "tokenValue",
      "outputs": [
        {
          "internalType": "uint256",
          "name": "value_",
          "type": "uint256"
        }
      ],
      "stateMutability": "view",
      "type": "function"
    },
    {
      "inputs": [],
      "name": "tosBacking",
      "outputs": [
        {
          "internalType": "uint256",
          "name": "",
          "type": "uint256"
        }
      ],
      "stateMutability": "view",
      "type": "function"
    },
    {
      "inputs": [],
      "name": "totalReserves",
      "outputs": [
        {
          "internalType": "uint256",
          "name": "",
          "type": "uint256"
        }
      ],
      "stateMutability": "view",
      "type": "function"
    },
    {
      "inputs": [
        {
          "internalType": "address",
          "name": "newAdmin",
          "type": "address"
        }
      ],
      "name": "transferAdmin",
      "outputs": [],
      "stateMutability": "nonpayable",
      "type": "function"
    },
    {
      "inputs": [
        {
          "internalType": "address",
          "name": "newAdmin",
          "type": "address"
        }
      ],
      "name": "transferPolicyAdmin",
      "outputs": [],
      "stateMutability": "nonpayable",
      "type": "function"
    },
    {
      "inputs": [
        {
          "internalType": "address",
          "name": "newAdmin",
          "type": "address"
        }
      ],
      "name": "transferProxyAdmin",
      "outputs": [],
      "stateMutability": "nonpayable",
      "type": "function"
    },
    {
      "inputs": [
        {
          "internalType": "uint256",
          "name": "_amount",
          "type": "uint256"
        },
        {
          "internalType": "address",
          "name": "_token",
          "type": "address"
        }
      ],
      "name": "withdraw",
      "outputs": [],
      "stateMutability": "nonpayable",
      "type": "function"
    }
  ],
  "bytecode": "0x60c0604052601660808190527f54726561737572793a206e6f742061636365707465640000000000000000000060a09081526200004091600c91906200012a565b506040805180820190915260168082527f54726561737572793a206e6f7420617070726f7665640000000000000000000060209092019182526200008791600d916200012a565b506040805180820190915260178082527f54726561737572793a20696e76616c696420746f6b656e0000000000000000006020909201918252620000ce91600e916200012a565b5060408051808201909152601f8082527f54726561737572793a20696e73756666696369656e742072657365727665730060209092019182526200011591600f916200012a565b503480156200012357600080fd5b506200020d565b8280546200013890620001d0565b90600052602060002090601f0160209004810192826200015c5760008555620001a7565b82601f106200017757805160ff1916838001178555620001a7565b82800160010185558215620001a7579182015b82811115620001a75782518255916020019190600101906200018a565b50620001b5929150620001b9565b5090565b5b80821115620001b55760008155600101620001ba565b600181811c90821680620001e557607f821691505b602082108114156200020757634e487b7160e01b600052602260045260246000fd5b50919050565b612fba806200021d6000396000f3fe608060405234801561001057600080fd5b50600436106102b55760003560e01c806393988b5311610172578063d11aca62116100d9578063e9e33e1611610092578063e9e33e161461066f578063f182178314610678578063f1c8c9221461068b578063f3e291fb1461069e578063f47f2f1d146106a7578063f8646408146106ba578063fad1c85c146106cd57600080fd5b8063d11aca62146105e5578063d5391393146105ed578063d547741f14610614578063da9c886414610627578063daea85c514610649578063e4e33ef81461065c57600080fd5b8063b11a35ea1161012b578063b11a35ea14610594578063b84ef0811461059c578063bc157ac1146105af578063be72f2d3146105c2578063c3d6a0ab146105ca578063ce3e39c0146105d257600080fd5b806393988b531461052157806396f1557c1461054b5780639a202d471461055e578063a217fddf14610566578063a300f2ac1461056e578063a44b82871461058157600080fd5b806336568abe116102215780636cfdb63f116101da5780636cfdb63f1461048557806370480275146104a557806375829def146104b857806375b238fc146104cb5780638356ca4f146104f25780638f840ddd1461050557806391d148541461050e57600080fd5b806336568abe1461041c57806340c10f191461042f57806341c04d5e14610442578063529918311461045757806352ae7a731461046a57806365cb3a831461047d57600080fd5b806324d7806c1161027357806324d7806c14610386578063259d7f3014610399578063282c51f3146103ac5780632b7ce500146103d35780632f2ff15d146103db578063330dd345146103ee57600080fd5b8062f714ce146102ba57806301ffc9a7146102cf5780631af4da70146102f757806321ce4f161461032d5780632298524614610340578063248a9ca314610363575b600080fd5b6102cd6102c8366004612907565b6106e0565b005b6102e26102dd366004612929565b610885565b60405190151581526020015b60405180910390f35b61032061030536600461280d565b6004602052600090815260409020546001600160a01b031681565b6040516102ee9190612acf565b6102cd61033b366004612827565b6108bc565b610355600080516020612f6583398151915281565b6040519081526020016102ee565b6103556103713660046128ef565b60009081526010602052604090206001015490565b6102e261039436600461280d565b610a3f565b6103556103a73660046128ef565b610a59565b6103557f9667e80708b6eeeb0053fa0cca44e028ff548e2a9f029edfeac87c118b08b7c881565b6102cd610a7a565b6102cd6103e9366004612907565b610e0f565b6102e26103fc366004612951565b600360209081526000928352604080842090915290825290205460ff1681565b6102cd61042a366004612907565b610e3a565b6102cd61043d3660046128a6565b610eb8565b610355600080516020612f4583398151915281565b6102cd610465366004612951565b610fd4565b6103206104783660046128ef565b6110d9565b6102cd611103565b6103556104933660046128ef565b600b6020526000908152604090205481565b6102cd6104b336600461280d565b611142565b6102cd6104c636600461280d565b611182565b6103557fdf8b4c520ffe197c5343c6f5aec59570151ef9a492f2c624fd45ddde6135ec4281565b6102cd61050036600461280d565b611235565b61035560055481565b6102e261051c366004612907565b6112bf565b61053461052f366004612874565b6112ea565b6040805192151583526020830191909152016102ee565b6102cd61055936600461280d565b611418565b6102cd611448565b610355600081565b6102cd61057c3660046128ef565b611494565b61032061058f3660046129bc565b6114b9565b6103556114f1565b6102cd6105aa36600461280d565b6117db565b6103556105bd3660046129ef565b611818565b6102cd611a27565b6102cd611a57565b600154610320906001600160a01b031681565b610355611b3b565b6103557ff0887ba65ee2024ea881d91b74c2450ef19e1557f03bed3ea9f16b037cbe2dc981565b6102cd610622366004612907565b611bc1565b61063a6106353660046128ef565b611be7565b6040516102ee93929190612ae3565b6102cd61065736600461280d565b611c2f565b6102cd61066a36600461297a565b611ceb565b61035560065481565b6103556106863660046128a6565b611e84565b6102cd61069936600461280d565b611f9b565b61035560075481565b6102e26106b536600461280d565b61203f565b600054610320906001600160a01b031681565b6102e26106db36600461280d565b61204b565b6001600160a01b0381166000908152600080516020612f258339815191526020526040902054600c9060ff166107325760405162461bcd60e51b81526004016107299190612b57565b60405180910390fd5b503360009081527fa15bc60c955c405d20d9149c709e2460f1c2d9a497496a7f46004d1772c3054c6020526040902054600d9060ff166107855760405162461bcd60e51b81526004016107299190612b57565b5060006107928284611e84565b600054604051632770a7eb60e21b81529192506001600160a01b031690639dc29fac906107c59033908590600401612b0b565b602060405180830381600087803b1580156107df57600080fd5b505af11580156107f3573d6000803e3d6000fd5b505050506040513d601f19601f8201168201806040525081019061081791906128cf565b506005546108259082612065565b60055561083c6001600160a01b03831633856120a7565b60408051848152602081018390526001600160a01b038416917fdf273cb619d95419a9cd0ec88123a0538c85064229baa6363788f743fff90deb910160405180910390a2505050565b60006001600160e01b03198216637965db0b60e01b14806108b657506301ffc9a760e01b6001600160e01b03198316145b92915050565b6108c53361204b565b6108e15760405162461bcd60e51b815260040161072990612ce9565b6040516370a0823160e01b81526000906001600160a01b038516906370a0823190610910903090600401612acf565b60206040518083038186803b15801561092857600080fd5b505afa15801561093c573d6000803e3d6000fd5b505050506040513d601f19601f8201168201806040525081019061096091906129d7565b600880546000908152600b602090815260408083209490945583516060810185526001600160a01b03988916815296881690870190815262ffffff95861693870193845282546001810184559290915294517ff3f7a9fe364faab93b216da50a3214154f22a0a2b415b23a84c8169e8b636ee3600290920291820180546001600160a01b03191691881691909117905593517ff3f7a9fe364faab93b216da50a3214154f22a0a2b415b23a84c8169e8b636ee490940180549151949095166001600160b81b031990911617600160a01b93909216929092021790915550565b60006108b6600080516020612f45833981519152836112bf565b600a8181548110610a6957600080fd5b600091825260209091200154905081565b610a833361204b565b610a9f5760405162461bcd60e51b815260040161072990612ce9565b6002600081815260209182527f679795a0195a1b76cdebb7c51d74e058aee92919b8c3389af86ef24535e8a28c8054604080518286028101860190915281815292938493929190830182828015610b1f57602002820191906000526020600020905b81546001600160a01b03168152600190910190602001808311610b01575b5050505050905060005b8151811015610c8a576002600090815260036020528251600080516020612f258339815191529190849084908110610b7157634e487b7160e01b600052603260045260246000fd5b6020908102919091018101516001600160a01b031682528101919091526040016000205460ff1615610c7857610c75610c6e838381518110610bc357634e487b7160e01b600052603260045260246000fd5b6020026020010151848481518110610beb57634e487b7160e01b600052603260045260246000fd5b60200260200101516001600160a01b03166370a08231306040518263ffffffff1660e01b8152600401610c1e9190612acf565b60206040518083038186803b158015610c3657600080fd5b505afa158015610c4a573d6000803e3d6000fd5b505050506040513d601f19601f8201168201806040525081019061068691906129d7565b84906121be565b92505b80610c8281612ec9565b915050610b29565b5060056000908152600260209081527fb98b78633099fa36ed8b8680c4f8092689e1e04080eb9cbb077ca38a14d7e3848054604080518285028101850190915281815292830182828015610d0757602002820191906000526020600020905b81546001600160a01b03168152600190910190602001808311610ce9575b5050505050905060005b8151811015610dd95760056000908152600360205282517f405aad32e1adbac89bb7f176e338b8fc6e994ca210c9bb7bdca249b4659422509190849084908110610d6b57634e487b7160e01b600052603260045260246000fd5b6020908102919091018101516001600160a01b031682528101919091526040016000205460ff1615610dc757610dc4610dbd838381518110610bc357634e487b7160e01b600052603260045260246000fd5b85906121be565b93505b80610dd181612ec9565b915050610d11565b50600583905560405183907fec691f09f6924b27932253f85caf99bacc30360cc0e50a1cc4d2acc24601446690600090a2505050565b600082815260106020526040902060010154610e2b813361221d565b610e358383612281565b505050565b6001600160a01b0381163314610eaa5760405162461bcd60e51b815260206004820152602f60248201527f416363657373436f6e74726f6c3a2063616e206f6e6c792072656e6f756e636560448201526e103937b632b9903337b91039b2b63360891b6064820152608401610729565b610eb48282612307565b5050565b3360009081527ff2c49132ed1cee2a7e75bde50d332a2f81f1d01e5456d8a19d1df09bd561dbd26020526040902054600d9060ff16610f0a5760405162461bcd60e51b81526004016107299190612b57565b506000546040516340c10f1960e01b81526001600160a01b03909116906340c10f1990610f3d9085908590600401612b0b565b602060405180830381600087803b158015610f5757600080fd5b505af1158015610f6b573d6000803e3d6000fd5b505050506040513d601f19601f82011682018060405250810190610f8f91906128cf565b506040518181526001600160a01b0383169033907f9d228d69b5fdb8d273a2336f8fb8612d039631024ea9bf09c424a9503aa078f09060200160405180910390a35050565b610fdd3361204b565b610ff95760405162461bcd60e51b815260040161072990612ce9565b60006003600084600781111561101f57634e487b7160e01b600052602160045260246000fd5b600781111561103e57634e487b7160e01b600052602160045260246000fd5b8152602080820192909252604090810160009081206001600160a01b03861682529092529020805460ff191691151591909117905581600781111561109357634e487b7160e01b600052602160045260246000fd5b604080516001600160a01b0384168152600060208201527f7531a7aefe3985500c4dec2dcb6049a708f14c6a8a9022b435b8841bdb8e1713910160405180910390a25050565b600981815481106110e957600080fd5b6000918252602090912001546001600160a01b0316905081565b61110c3361204b565b6111285760405162461bcd60e51b815260040161072990612ce9565b611140600080516020612f6583398151915233610e3a565b565b61114b3361203f565b6111675760405162461bcd60e51b815260040161072990612c71565b61117f600080516020612f4583398151915282610e0f565b50565b61118b33610a3f565b8061119a575061119a3361203f565b6111b65760405162461bcd60e51b815260040161072990612bfd565b6001600160a01b0381166111dc5760405162461bcd60e51b815260040161072990612c3f565b336001600160a01b03821614156112055760405162461bcd60e51b815260040161072990612cb9565b61121d600080516020612f4583398151915282610e0f565b61117f600080516020612f4583398151915233610e3a565b61123e3361203f565b61125a5760405162461bcd60e51b815260040161072990612c71565b6001600160a01b0381166112805760405162461bcd60e51b815260040161072990612c3f565b336001600160a01b03821614156112a95760405162461bcd60e51b815260040161072990612cb9565b6112b4600082610e0f565b61117f600033610e3a565b60009182526010602090815260408084206001600160a01b0393909316845291905290205460ff1690565b60008060006002600085600781111561131357634e487b7160e01b600052602160045260246000fd5b600781111561133257634e487b7160e01b600052602160045260246000fd5b815260200190815260200160002080548060200260200160405190810160405280929190818152602001828054801561139457602002820191906000526020600020905b81546001600160a01b03168152600190910190602001808311611376575b5050505050905060005b8151811015611407578181815181106113c757634e487b7160e01b600052603260045260246000fd5b60200260200101516001600160a01b0316866001600160a01b031614156113f5576001935091506114119050565b806113ff81612ec9565b91505061139e565b5060008092509250505b9250929050565b6114213361203f565b61143d5760405162461bcd60e51b815260040161072990612c71565b61117f60008261236e565b61145133610a3f565b8061146057506114603361203f565b61147c5760405162461bcd60e51b815260040161072990612bfd565b611140600080516020612f4583398151915233610e3a565b61149d3361204b565b61117f5760405162461bcd60e51b815260040161072990612ce9565b600260205281600052604060002081815481106114d557600080fd5b6000918252602090912001546001600160a01b03169150829050565b6000806000600160009054906101000a90046001600160a01b03166001600160a01b031663371b97636040518163ffffffff1660e01b815260040160206040518083038186803b15801561154457600080fd5b505afa158015611558573d6000803e3d6000fd5b505050506040513d601f19601f8201168201806040525081019061157c91906129d7565b905060005b6008548110156117c6576000600882815481106115ae57634e487b7160e01b600052603260045260246000fd5b60009182526020909120600290910201546040516370a0823160e01b81526001600160a01b03909116906370a08231906115ec903090600401612acf565b60206040518083038186803b15801561160457600080fd5b505afa158015611618573d6000803e3d6000fd5b505050506040513d601f19601f8201168201806040525081019061163c91906129d7565b600154600880549293506000926001600160a01b039092169163f9e62d3a91908690811061167a57634e487b7160e01b600052603260045260246000fd5b6000918252602090912060029091020154600880546001600160a01b0390921691879081106116b957634e487b7160e01b600052603260045260246000fd5b906000526020600020906002020160010160009054906101000a90046001600160a01b0316600887815481106116ff57634e487b7160e01b600052603260045260246000fd5b906000526020600020906002020160010160149054906101000a900462ffffff166040518463ffffffff1660e01b815260040161173e93929190612ae3565b60206040518083038186803b15801561175657600080fd5b505afa15801561176a573d6000803e3d6000fd5b505050506040513d601f19601f8201168201806040525081019061178e91906129d7565b90508361179b8284612e4c565b6117a59190612e4c565b6117af9086612d32565b9450505080806117be90612ec9565b915050611581565b506006546117d49083612d32565b9392505050565b6117e43361203f565b6118005760405162461bcd60e51b815260040161072990612c71565b61117f600080516020612f658339815191528261236e565b6001600160a01b0382166000908152600080516020612f25833981519152602052604081205460ff16156118b25760036000805b600781111561186b57634e487b7160e01b600052602160045260246000fd5b815260208082019290925260409081016000908120338252909252902054600d9060ff166118ac5760405162461bcd60e51b81526004016107299190612b57565b50611918565b6001600160a01b03831660009081527f405aad32e1adbac89bb7f176e338b8fc6e994ca210c9bb7bdca249b465942250602052604090205460ff16156118fd5760036000600461184c565b600e60405162461bcd60e51b81526004016107299190612b57565b61192d6001600160a01b038416333087612378565b60006119398486611e84565b90506119458184612065565b6000546040516340c10f1960e01b81529193506001600160a01b0316906340c10f19906119789033908690600401612b0b565b602060405180830381600087803b15801561199257600080fd5b505af11580156119a6573d6000803e3d6000fd5b505050506040513d601f19601f820116820180604052508101906119ca91906128cf565b506005546119d890826121be565b60055560408051868152602081018390526001600160a01b038616917f90890809c654f11d6e72a28fa60149770a0d11ec6c92319d6ceb2bb0a4ea1a15910160405180910390a2509392505050565b611a303361203f565b611a4c5760405162461bcd60e51b815260040161072990612c71565b611140600033610e3a565b4760065560005b60085481101561117f57600060088281548110611a8b57634e487b7160e01b600052603260045260246000fd5b60009182526020909120600290910201546040516370a0823160e01b81526001600160a01b03909116906370a0823190611ac9903090600401612acf565b60206040518083038186803b158015611ae157600080fd5b505afa158015611af5573d6000803e3d6000fd5b505050506040513d601f19601f82011682018060405250810190611b1991906129d7565b6000838152600b60205260409020555080611b3381612ec9565b915050611a5e565b600080546040516370a0823160e01b81526001600160a01b03909116906370a0823190611b6c903090600401612acf565b60206040518083038186803b158015611b8457600080fd5b505afa158015611b98573d6000803e3d6000fd5b505050506040513d601f19601f82011682018060405250810190611bbc91906129d7565b905090565b600082815260106020526040902060010154611bdd813361221d565b610e358383612307565b60088181548110611bf757600080fd5b6000918252602090912060029091020180546001909101546001600160a01b03918216925090811690600160a01b900462ffffff1683565b611c383361204b565b611c545760405162461bcd60e51b815260040161072990612ce9565b60005460405163095ea7b360e01b81526001600160a01b039091169063095ea7b390611c99908490722cd76fe086b93ce2f768a00b22a0000000000090600401612b0b565b602060405180830381600087803b158015611cb357600080fd5b505af1158015611cc7573d6000803e3d6000fd5b505050506040513d601f19601f82011682018060405250810190610eb491906128cf565b611cf43361204b565b611d105760405162461bcd60e51b815260040161072990612ce9565b600160036000856007811115611d3657634e487b7160e01b600052602160045260246000fd5b6007811115611d5557634e487b7160e01b600052602160045260246000fd5b8152602080820192909252604090810160009081206001600160a01b03871682529092528120805460ff191692151592909217909155611d9583856112ea565b50905080611e1c5760026000856007811115611dc157634e487b7160e01b600052602160045260246000fd5b6007811115611de057634e487b7160e01b600052602160045260246000fd5b8152602080820192909252604001600090812080546001810182559082529190200180546001600160a01b0319166001600160a01b0385161790555b836007811115611e3c57634e487b7160e01b600052602160045260246000fd5b604080516001600160a01b0386168152600160208201527f7531a7aefe3985500c4dec2dcb6049a708f14c6a8a9022b435b8841bdb8e1713910160405180910390a250505050565b60006117d4836001600160a01b031663313ce5676040518163ffffffff1660e01b815260040160206040518083038186803b158015611ec257600080fd5b505afa158015611ed6573d6000803e3d6000fd5b505050506040513d601f19601f82011682018060405250810190611efa9190612a23565b611f0590600a612da1565b6000546040805163313ce56760e01b81529051611f95926001600160a01b03169163313ce567916004808301926020929190829003018186803b158015611f4b57600080fd5b505afa158015611f5f573d6000803e3d6000fd5b505050506040513d601f19601f82011682018060405250810190611f839190612a23565b611f8e90600a612da1565b8590612493565b90612512565b611fa43361204b565b611fc05760405162461bcd60e51b815260040161072990612ce9565b6001600160a01b038116611fe65760405162461bcd60e51b815260040161072990612c3f565b336001600160a01b038216141561200f5760405162461bcd60e51b815260040161072990612cb9565b612027600080516020612f6583398151915282610e0f565b61117f600080516020612f6583398151915233610e3a565b60006108b681836112bf565b60006108b6600080516020612f65833981519152836112bf565b60006117d483836040518060400160405280601e81526020017f536166654d6174683a207375627472616374696f6e206f766572666c6f770000815250612554565b600080846001600160a01b031663a9059cbb60e01b85856040516024016120cf929190612b0b565b60408051601f198184030181529181526020820180516001600160e01b03166001600160e01b031990941693909317909252905161210d9190612a44565b6000604051808303816000865af19150503d806000811461214a576040519150601f19603f3d011682016040523d82523d6000602084013e61214f565b606091505b509150915081801561217957508051158061217957508080602001905181019061217991906128cf565b6121b75760405162461bcd60e51b815260206004820152600f60248201526e1514905394d1915497d19052531151608a1b6044820152606401610729565b5050505050565b6000806121cb8385612d32565b9050838110156117d45760405162461bcd60e51b815260206004820152601b60248201527f536166654d6174683a206164646974696f6e206f766572666c6f7700000000006044820152606401610729565b61222782826112bf565b610eb45761223f816001600160a01b0316601461258e565b61224a83602061258e565b60405160200161225b929190612a60565b60408051601f198184030181529082905262461bcd60e51b825261072991600401612b24565b61228b82826112bf565b610eb45760008281526010602090815260408083206001600160a01b03851684529091529020805460ff191660011790556122c33390565b6001600160a01b0316816001600160a01b0316837f2f8788117e7eff1d82e926ec794901d17c78024a50270940304540a733656f0d60405160405180910390a45050565b61231182826112bf565b15610eb45760008281526010602090815260408083206001600160a01b0385168085529252808320805460ff1916905551339285917ff6391f5c32d9c69d2a47ea670b442974b53935d1edc7fd64eb21e047a839171b9190a45050565b610eb48282612281565b604080516001600160a01b0385811660248301528481166044830152606480830185905283518084039091018152608490920183526020820180516001600160e01b03166323b872dd60e01b17905291516000928392908816916123dc9190612a44565b6000604051808303816000865af19150503d8060008114612419576040519150601f19603f3d011682016040523d82523d6000602084013e61241e565b606091505b509150915081801561244857508051158061244857508080602001905181019061244891906128cf565b61248b5760405162461bcd60e51b81526020600482015260146024820152731514905394d1915497d19493d357d1905253115160621b6044820152606401610729565b505050505050565b6000826124a2575060006108b6565b60006124ae8385612e4c565b9050826124bb8583612d4a565b146117d45760405162461bcd60e51b815260206004820152602160248201527f536166654d6174683a206d756c7469706c69636174696f6e206f766572666c6f6044820152607760f81b6064820152608401610729565b60006117d483836040518060400160405280601a81526020017f536166654d6174683a206469766973696f6e206279207a65726f000000000000815250612770565b600081848411156125785760405162461bcd60e51b81526004016107299190612b24565b5060006125858486612e6b565b95945050505050565b6060600061259d836002612e4c565b6125a8906002612d32565b67ffffffffffffffff8111156125ce57634e487b7160e01b600052604160045260246000fd5b6040519080825280601f01601f1916602001820160405280156125f8576020820181803683370190505b509050600360fc1b8160008151811061262157634e487b7160e01b600052603260045260246000fd5b60200101906001600160f81b031916908160001a905350600f60fb1b8160018151811061265e57634e487b7160e01b600052603260045260246000fd5b60200101906001600160f81b031916908160001a9053506000612682846002612e4c565b61268d906001612d32565b90505b6001811115612721576f181899199a1a9b1b9c1cb0b131b232b360811b85600f16601081106126cf57634e487b7160e01b600052603260045260246000fd5b1a60f81b8282815181106126f357634e487b7160e01b600052603260045260246000fd5b60200101906001600160f81b031916908160001a90535060049490941c9361271a81612eb2565b9050612690565b5083156117d45760405162461bcd60e51b815260206004820181905260248201527f537472696e67733a20686578206c656e67746820696e73756666696369656e746044820152606401610729565b600081836127915760405162461bcd60e51b81526004016107299190612b24565b50600061279e8486612d4a565b90506127aa8486612ee4565b6127b48286612e4c565b6127be9190612d32565b85146127da57634e487b7160e01b600052600160045260246000fd5b949350505050565b80356001600160a01b03811681146127f957600080fd5b919050565b8035600881106127f957600080fd5b60006020828403121561281e578081fd5b6117d4826127e2565b60008060006060848603121561283b578182fd5b612844846127e2565b9250612852602085016127e2565b9150604084013562ffffff81168114612869578182fd5b809150509250925092565b60008060408385031215612886578182fd5b61288f836127e2565b915061289d602084016127fe565b90509250929050565b600080604083850312156128b8578182fd5b6128c1836127e2565b946020939093013593505050565b6000602082840312156128e0578081fd5b815180151581146117d4578182fd5b600060208284031215612900578081fd5b5035919050565b60008060408385031215612919578182fd5b8235915061289d602084016127e2565b60006020828403121561293a578081fd5b81356001600160e01b0319811681146117d4578182fd5b60008060408385031215612963578182fd5b61296c836127fe565b915061289d602084016127e2565b60008060006060848603121561298e578283fd5b612997846127fe565b92506129a5602085016127e2565b91506129b3604085016127e2565b90509250925092565b600080604083850312156129ce578182fd5b6128c1836127fe565b6000602082840312156129e8578081fd5b5051919050565b600080600060608486031215612a03578081fd5b83359250612a13602085016127e2565b9150604084013590509250925092565b600060208284031215612a34578081fd5b815160ff811681146117d4578182fd5b60008251612a56818460208701612e82565b9190910192915050565b76020b1b1b2b9b9a1b7b73a3937b61d1030b1b1b7bab73a1604d1b815260008351612a92816017850160208801612e82565b7001034b99036b4b9b9b4b733903937b6329607d1b6017918401918201528351612ac3816028840160208801612e82565b01602801949350505050565b6001600160a01b0391909116815260200190565b6001600160a01b03938416815291909216602082015262ffffff909116604082015260600190565b6001600160a01b03929092168252602082015260400190565b6020815260008251806020840152612b43816040850160208701612e82565b601f01601f19169190910160400192915050565b6000602080835281845483600182811c915080831680612b7857607f831692505b858310811415612b9657634e487b7160e01b87526022600452602487fd5b878601838152602001818015612bb35760018114612bc457612bee565b60ff19861682528782019650612bee565b60008b815260209020895b86811015612be857815484820152908501908901612bcf565b83019750505b50949998505050505050505050565b60208082526022908201527f41636365737369626c653a2043616c6c6572206973206e6f7420616e2061646d60408201526134b760f11b606082015260800190565b60208082526018908201527741636365737369626c653a207a65726f206164647265737360401b604082015260600190565b60208082526028908201527f41636365737369626c653a2043616c6c6572206973206e6f7420616e2070726f6040820152673c3c9030b236b4b760c11b606082015260800190565b60208082526016908201527520b1b1b2b9b9b4b136329d1039b0b6b29030b236b4b760511b604082015260600190565b60208082526029908201527f41636365737369626c653a2043616c6c6572206973206e6f7420616e20706f6c60408201526834b1bc9030b236b4b760b91b606082015260800190565b60008219821115612d4557612d45612ef8565b500190565b600082612d5957612d59612f0e565b500490565b600181815b80851115612d99578160001904821115612d7f57612d7f612ef8565b80851615612d8c57918102915b93841c9390800290612d63565b509250929050565b60006117d460ff841683600082612dba575060016108b6565b81612dc7575060006108b6565b8160018114612ddd5760028114612de757612e03565b60019150506108b6565b60ff841115612df857612df8612ef8565b50506001821b6108b6565b5060208310610133831016604e8410600b8410161715612e26575081810a6108b6565b612e308383612d5e565b8060001904821115612e4457612e44612ef8565b029392505050565b6000816000190483118215151615612e6657612e66612ef8565b500290565b600082821015612e7d57612e7d612ef8565b500390565b60005b83811015612e9d578181015183820152602001612e85565b83811115612eac576000848401525b50505050565b600081612ec157612ec1612ef8565b506000190190565b6000600019821415612edd57612edd612ef8565b5060010190565b600082612ef357612ef3612f0e565b500690565b634e487b7160e01b600052601160045260246000fd5b634e487b7160e01b600052601260045260246000fdfec3a24b0501bd2c13a7e57f2db4369ec4c223447539fc0724a9d55ac4a06ebd4d52eafc11f6f81f86878bffd31109a0d92f37506527754f00788853ff9f63b130fb5864e8ff833c3cb2d2d08505e82ff02a43554c74a35d4f5a64e85261278311a264697066735822122000144b23e2ffae0aa095e397bee1631baa11c3929e8cdf0cf0a292c60b71300864736f6c63430008040033",
  "linkReferences": {},
  "deployedLinkReferences": {}
}