{
  "_format": "hh-sol-artifact-1",
  "contractName": "Treasury",
  "sourceName": "contracts/Treasury.sol",
  "abi": [
    {
      "inputs": [],
      "stateMutability": "nonpayable",
      "type": "constructor"
    },
    {
      "anonymous": false,
      "inputs": [
        {
          "indexed": false,
          "internalType": "address",
          "name": "_address",
          "type": "address"
        }
      ],
      "name": "AddedBackingList",
      "type": "event"
    },
    {
      "anonymous": false,
      "inputs": [
        {
          "indexed": false,
          "internalType": "address",
          "name": "_address",
          "type": "address"
        },
        {
          "indexed": false,
          "internalType": "address",
          "name": "_tosPooladdress",
          "type": "address"
        },
        {
          "indexed": false,
          "internalType": "uint24",
          "name": "_fee",
          "type": "uint24"
        }
      ],
      "name": "AddedBondAsset",
      "type": "event"
    },
    {
      "anonymous": false,
      "inputs": [
        {
          "indexed": false,
          "internalType": "address",
          "name": "_address",
          "type": "address"
        }
      ],
      "name": "DeletedBackingList",
      "type": "event"
    },
    {
      "anonymous": false,
      "inputs": [
        {
          "indexed": false,
          "internalType": "address",
          "name": "addr",
          "type": "address"
        },
        {
          "indexed": true,
          "internalType": "uint256",
          "name": "status",
          "type": "uint256"
        },
        {
          "indexed": false,
          "internalType": "bool",
          "name": "result",
          "type": "bool"
        }
      ],
      "name": "Permissioned",
      "type": "event"
    },
    {
      "anonymous": false,
      "inputs": [
        {
          "indexed": false,
          "internalType": "address",
          "name": "_recipient",
          "type": "address"
        },
        {
          "indexed": false,
          "internalType": "uint256",
          "name": "_amount",
          "type": "uint256"
        }
      ],
      "name": "RequestedTransfer",
      "type": "event"
    },
    {
      "anonymous": false,
      "inputs": [
        {
          "indexed": true,
          "internalType": "bytes32",
          "name": "role",
          "type": "bytes32"
        },
        {
          "indexed": true,
          "internalType": "bytes32",
          "name": "previousAdminRole",
          "type": "bytes32"
        },
        {
          "indexed": true,
          "internalType": "bytes32",
          "name": "newAdminRole",
          "type": "bytes32"
        }
      ],
      "name": "RoleAdminChanged",
      "type": "event"
    },
    {
      "anonymous": false,
      "inputs": [
        {
          "indexed": true,
          "internalType": "bytes32",
          "name": "role",
          "type": "bytes32"
        },
        {
          "indexed": true,
          "internalType": "address",
          "name": "account",
          "type": "address"
        },
        {
          "indexed": true,
          "internalType": "address",
          "name": "sender",
          "type": "address"
        }
      ],
      "name": "RoleGranted",
      "type": "event"
    },
    {
      "anonymous": false,
      "inputs": [
        {
          "indexed": true,
          "internalType": "bytes32",
          "name": "role",
          "type": "bytes32"
        },
        {
          "indexed": true,
          "internalType": "address",
          "name": "account",
          "type": "address"
        },
        {
          "indexed": true,
          "internalType": "address",
          "name": "sender",
          "type": "address"
        }
      ],
      "name": "RoleRevoked",
      "type": "event"
    },
    {
      "anonymous": false,
      "inputs": [
        {
          "indexed": false,
          "internalType": "uint256",
          "name": "_mintAmount",
          "type": "uint256"
        },
        {
          "indexed": false,
          "internalType": "bool",
          "name": "_distribute",
          "type": "bool"
        }
      ],
      "name": "RquestedMint",
      "type": "event"
    },
    {
      "anonymous": false,
      "inputs": [
        {
          "indexed": false,
          "internalType": "address[]",
          "name": "_addr",
          "type": "address[]"
        },
        {
          "indexed": false,
          "internalType": "uint256[]",
          "name": "_percents",
          "type": "uint256[]"
        }
      ],
      "name": "SetFoundationDistributeInfo",
      "type": "event"
    },
    {
      "anonymous": false,
      "inputs": [
        {
          "indexed": false,
          "internalType": "uint256",
          "name": "mrRate",
          "type": "uint256"
        },
        {
          "indexed": false,
          "internalType": "uint256",
          "name": "amount",
          "type": "uint256"
        }
      ],
      "name": "SetMintRate",
      "type": "event"
    },
    {
      "anonymous": false,
      "inputs": [
        {
          "indexed": false,
          "internalType": "uint256",
          "name": "_mintRateDenominator",
          "type": "uint256"
        }
      ],
      "name": "SetMintRateDenominator",
      "type": "event"
    },
    {
      "anonymous": false,
      "inputs": [
        {
          "indexed": false,
          "internalType": "address",
          "name": "_poolAddressTOSETH",
          "type": "address"
        }
      ],
      "name": "SetPoolAddressTOSETH",
      "type": "event"
    },
    {
      "anonymous": false,
      "inputs": [
        {
          "indexed": false,
          "internalType": "address",
          "name": "_uniswapFactory",
          "type": "address"
        }
      ],
      "name": "SetUniswapV3Factory",
      "type": "event"
    },
    {
      "inputs": [],
      "name": "ADMIN_ROLE",
      "outputs": [
        {
          "internalType": "bytes32",
          "name": "",
          "type": "bytes32"
        }
      ],
      "stateMutability": "view",
      "type": "function"
    },
    {
      "inputs": [],
      "name": "BURNER_ROLE",
      "outputs": [
        {
          "internalType": "bytes32",
          "name": "",
          "type": "bytes32"
        }
      ],
      "stateMutability": "view",
      "type": "function"
    },
    {
      "inputs": [],
      "name": "DEFAULT_ADMIN_ROLE",
      "outputs": [
        {
          "internalType": "bytes32",
          "name": "",
          "type": "bytes32"
        }
      ],
      "stateMutability": "view",
      "type": "function"
    },
    {
      "inputs": [],
      "name": "MINTER_ROLE",
      "outputs": [
        {
          "internalType": "bytes32",
          "name": "",
          "type": "bytes32"
        }
      ],
      "stateMutability": "view",
      "type": "function"
    },
    {
      "inputs": [],
      "name": "POLICY_ROLE",
      "outputs": [
        {
          "internalType": "bytes32",
          "name": "",
          "type": "bytes32"
        }
      ],
      "stateMutability": "view",
      "type": "function"
    },
    {
      "inputs": [],
      "name": "PROJECT_ADMIN_ROLE",
      "outputs": [
        {
          "internalType": "bytes32",
          "name": "",
          "type": "bytes32"
        }
      ],
      "stateMutability": "view",
      "type": "function"
    },
    {
      "inputs": [
        {
          "internalType": "address",
          "name": "account",
          "type": "address"
        }
      ],
      "name": "addAdmin",
      "outputs": [],
      "stateMutability": "nonpayable",
      "type": "function"
    },
    {
      "inputs": [
        {
          "internalType": "address",
          "name": "_address",
          "type": "address"
        }
      ],
      "name": "addBackingList",
      "outputs": [],
      "stateMutability": "nonpayable",
      "type": "function"
    },
    {
      "inputs": [
        {
          "internalType": "address",
          "name": "_address",
          "type": "address"
        }
      ],
      "name": "addBondAsset",
      "outputs": [],
      "stateMutability": "nonpayable",
      "type": "function"
    },
    {
      "inputs": [
        {
          "internalType": "address",
          "name": "_account",
          "type": "address"
        }
      ],
      "name": "addPolicy",
      "outputs": [],
      "stateMutability": "nonpayable",
      "type": "function"
    },
    {
      "inputs": [
        {
          "internalType": "address",
          "name": "_owner",
          "type": "address"
        }
      ],
      "name": "addProxyAdmin",
      "outputs": [],
      "stateMutability": "nonpayable",
      "type": "function"
    },
    {
      "inputs": [],
      "name": "allBacking",
      "outputs": [
        {
          "internalType": "address[]",
          "name": "",
          "type": "address[]"
        }
      ],
      "stateMutability": "view",
      "type": "function"
    },
    {
      "inputs": [],
      "name": "allMinting",
      "outputs": [
        {
          "internalType": "address[]",
          "name": "mintAddress",
          "type": "address[]"
        },
        {
          "internalType": "uint256[]",
          "name": "mintPercents",
          "type": "uint256[]"
        }
      ],
      "stateMutability": "view",
      "type": "function"
    },
    {
      "inputs": [
        {
          "internalType": "address",
          "name": "_address",
          "type": "address"
        }
      ],
      "name": "approve",
      "outputs": [],
      "stateMutability": "nonpayable",
      "type": "function"
    },
    {
      "inputs": [],
      "name": "backingRateETHPerTOS",
      "outputs": [
        {
          "internalType": "uint256",
          "name": "",
          "type": "uint256"
        }
      ],
      "stateMutability": "view",
      "type": "function"
    },
    {
      "inputs": [],
      "name": "backingReserve",
      "outputs": [
        {
          "internalType": "uint256",
          "name": "",
          "type": "uint256"
        }
      ],
      "stateMutability": "view",
      "type": "function"
    },
    {
      "inputs": [],
      "name": "backingReserveETH",
      "outputs": [
        {
          "internalType": "uint256",
          "name": "",
          "type": "uint256"
        }
      ],
      "stateMutability": "view",
      "type": "function"
    },
    {
      "inputs": [],
      "name": "backingReserveTOS",
      "outputs": [
        {
          "internalType": "uint256",
          "name": "",
          "type": "uint256"
        }
      ],
      "stateMutability": "view",
      "type": "function"
    },
    {
      "inputs": [
        {
          "internalType": "uint256",
          "name": "",
          "type": "uint256"
        }
      ],
      "name": "backings",
      "outputs": [
        {
          "internalType": "address",
          "name": "",
          "type": "address"
        }
      ],
      "stateMutability": "view",
      "type": "function"
    },
    {
      "inputs": [],
      "name": "calculator",
      "outputs": [
        {
          "internalType": "address",
          "name": "",
          "type": "address"
        }
      ],
      "stateMutability": "view",
      "type": "function"
    },
    {
      "inputs": [
        {
          "internalType": "uint256",
          "name": "amount",
          "type": "uint256"
        }
      ],
      "name": "checkTosSolvency",
      "outputs": [
        {
          "internalType": "bool",
          "name": "",
          "type": "bool"
        }
      ],
      "stateMutability": "view",
      "type": "function"
    },
    {
      "inputs": [
        {
          "internalType": "uint256",
          "name": "_checkMintRate",
          "type": "uint256"
        },
        {
          "internalType": "uint256",
          "name": "amount",
          "type": "uint256"
        }
      ],
      "name": "checkTosSolvencyAfterTOSMint",
      "outputs": [
        {
          "internalType": "bool",
          "name": "",
          "type": "bool"
        }
      ],
      "stateMutability": "view",
      "type": "function"
    },
    {
      "inputs": [
        {
          "internalType": "address",
          "name": "_address",
          "type": "address"
        }
      ],
      "name": "deleteBackingList",
      "outputs": [],
      "stateMutability": "nonpayable",
      "type": "function"
    },
    {
      "inputs": [
        {
          "internalType": "uint256",
          "name": "_status",
          "type": "uint256"
        },
        {
          "internalType": "address",
          "name": "_toDisable",
          "type": "address"
        }
      ],
      "name": "disable",
      "outputs": [],
      "stateMutability": "nonpayable",
      "type": "function"
    },
    {
      "inputs": [
        {
          "internalType": "uint256",
          "name": "_status",
          "type": "uint256"
        },
        {
          "internalType": "address",
          "name": "_address",
          "type": "address"
        }
      ],
      "name": "enable",
      "outputs": [],
      "stateMutability": "nonpayable",
      "type": "function"
    },
    {
      "inputs": [],
      "name": "enableStaking",
      "outputs": [
        {
          "internalType": "uint256",
          "name": "",
          "type": "uint256"
        }
      ],
      "stateMutability": "view",
      "type": "function"
    },
    {
      "inputs": [],
      "name": "foundationAmount",
      "outputs": [
        {
          "internalType": "uint256",
          "name": "",
          "type": "uint256"
        }
      ],
      "stateMutability": "view",
      "type": "function"
    },
    {
      "inputs": [],
      "name": "foundationDistribute",
      "outputs": [],
      "stateMutability": "nonpayable",
      "type": "function"
    },
    {
      "inputs": [],
      "name": "foundationTotalPercentage",
      "outputs": [
        {
          "internalType": "uint256",
          "name": "",
          "type": "uint256"
        }
      ],
      "stateMutability": "view",
      "type": "function"
    },
    {
      "inputs": [],
      "name": "getETHPricePerTOS",
      "outputs": [
        {
          "internalType": "uint256",
          "name": "",
          "type": "uint256"
        }
      ],
      "stateMutability": "view",
      "type": "function"
    },
    {
      "inputs": [],
      "name": "getMintRate",
      "outputs": [
        {
          "internalType": "uint256",
          "name": "",
          "type": "uint256"
        }
      ],
      "stateMutability": "view",
      "type": "function"
    },
    {
      "inputs": [
        {
          "internalType": "bytes32",
          "name": "role",
          "type": "bytes32"
        }
      ],
      "name": "getRoleAdmin",
      "outputs": [
        {
          "internalType": "bytes32",
          "name": "",
          "type": "bytes32"
        }
      ],
      "stateMutability": "view",
      "type": "function"
    },
    {
      "inputs": [],
      "name": "getTOSPricePerETH",
      "outputs": [
        {
          "internalType": "uint256",
          "name": "",
          "type": "uint256"
        }
      ],
      "stateMutability": "view",
      "type": "function"
    },
    {
      "inputs": [
        {
          "internalType": "bytes32",
          "name": "role",
          "type": "bytes32"
        },
        {
          "internalType": "address",
          "name": "account",
          "type": "address"
        }
      ],
      "name": "grantRole",
      "outputs": [],
      "stateMutability": "nonpayable",
      "type": "function"
    },
    {
      "inputs": [
        {
          "internalType": "uint256",
          "name": "role",
          "type": "uint256"
        },
        {
          "internalType": "address",
          "name": "account",
          "type": "address"
        }
      ],
      "name": "hasPermission",
      "outputs": [
        {
          "internalType": "bool",
          "name": "",
          "type": "bool"
        }
      ],
      "stateMutability": "view",
      "type": "function"
    },
    {
      "inputs": [
        {
          "internalType": "bytes32",
          "name": "role",
          "type": "bytes32"
        },
        {
          "internalType": "address",
          "name": "account",
          "type": "address"
        }
      ],
      "name": "hasRole",
      "outputs": [
        {
          "internalType": "bool",
          "name": "",
          "type": "bool"
        }
      ],
      "stateMutability": "view",
      "type": "function"
    },
    {
      "inputs": [
        {
          "internalType": "address",
          "name": "_address",
          "type": "address"
        },
        {
          "internalType": "enum LibTreasury.STATUS",
          "name": "_status",
          "type": "uint8"
        }
      ],
      "name": "indexInRegistry",
      "outputs": [
        {
          "internalType": "bool",
          "name": "",
          "type": "bool"
        },
        {
          "internalType": "uint256",
          "name": "",
          "type": "uint256"
        }
      ],
      "stateMutability": "view",
      "type": "function"
    },
    {
      "inputs": [
        {
          "internalType": "address",
          "name": "account",
          "type": "address"
        }
      ],
      "name": "isAdmin",
      "outputs": [
        {
          "internalType": "bool",
          "name": "",
          "type": "bool"
        }
      ],
      "stateMutability": "view",
      "type": "function"
    },
    {
      "inputs": [
        {
          "internalType": "address",
          "name": "account",
          "type": "address"
        }
      ],
      "name": "isBonder",
      "outputs": [
        {
          "internalType": "bool",
          "name": "",
          "type": "bool"
        }
      ],
      "stateMutability": "view",
      "type": "function"
    },
    {
      "inputs": [
        {
          "internalType": "address",
          "name": "account",
          "type": "address"
        }
      ],
      "name": "isPolicy",
      "outputs": [
        {
          "internalType": "bool",
          "name": "",
          "type": "bool"
        }
      ],
      "stateMutability": "view",
      "type": "function"
    },
    {
      "inputs": [
        {
          "internalType": "address",
          "name": "account",
          "type": "address"
        }
      ],
      "name": "isProxyAdmin",
      "outputs": [
        {
          "internalType": "bool",
          "name": "",
          "type": "bool"
        }
      ],
      "stateMutability": "view",
      "type": "function"
    },
    {
      "inputs": [
        {
          "internalType": "address",
          "name": "account",
          "type": "address"
        }
      ],
      "name": "isStaker",
      "outputs": [
        {
          "internalType": "bool",
          "name": "",
          "type": "bool"
        }
      ],
      "stateMutability": "view",
      "type": "function"
    },
    {
      "inputs": [
        {
          "internalType": "uint256",
          "name": "",
          "type": "uint256"
        }
      ],
      "name": "lpTokens",
      "outputs": [
        {
          "internalType": "uint256",
          "name": "",
          "type": "uint256"
        }
      ],
      "stateMutability": "view",
      "type": "function"
    },
    {
      "inputs": [],
      "name": "mintRate",
      "outputs": [
        {
          "internalType": "uint256",
          "name": "",
          "type": "uint256"
        }
      ],
      "stateMutability": "view",
      "type": "function"
    },
    {
      "inputs": [],
      "name": "mintRateDenominator",
      "outputs": [
        {
          "internalType": "uint256",
          "name": "",
          "type": "uint256"
        }
      ],
      "stateMutability": "view",
      "type": "function"
    },
    {
      "inputs": [
        {
          "internalType": "uint256",
          "name": "",
          "type": "uint256"
        }
      ],
      "name": "mintings",
      "outputs": [
        {
          "internalType": "address",
          "name": "mintAddress",
          "type": "address"
        },
        {
          "internalType": "uint256",
          "name": "mintPercents",
          "type": "uint256"
        }
      ],
      "stateMutability": "view",
      "type": "function"
    },
    {
      "inputs": [
        {
          "internalType": "enum LibTreasury.STATUS",
          "name": "",
          "type": "uint8"
        },
        {
          "internalType": "address",
          "name": "",
          "type": "address"
        }
      ],
      "name": "permissions",
      "outputs": [
        {
          "internalType": "bool",
          "name": "",
          "type": "bool"
        }
      ],
      "stateMutability": "view",
      "type": "function"
    },
    {
      "inputs": [],
      "name": "poolAddressTOSETH",
      "outputs": [
        {
          "internalType": "address",
          "name": "",
          "type": "address"
        }
      ],
      "stateMutability": "view",
      "type": "function"
    },
    {
      "inputs": [
        {
          "internalType": "enum LibTreasury.STATUS",
          "name": "",
          "type": "uint8"
        },
        {
          "internalType": "uint256",
          "name": "",
          "type": "uint256"
        }
      ],
      "name": "registry",
      "outputs": [
        {
          "internalType": "address",
          "name": "",
          "type": "address"
        }
      ],
      "stateMutability": "view",
      "type": "function"
    },
    {
      "inputs": [],
      "name": "removeAdmin",
      "outputs": [],
      "stateMutability": "nonpayable",
      "type": "function"
    },
    {
      "inputs": [],
      "name": "removePolicy",
      "outputs": [],
      "stateMutability": "nonpayable",
      "type": "function"
    },
    {
      "inputs": [],
      "name": "removeProxyAdmin",
      "outputs": [],
      "stateMutability": "nonpayable",
      "type": "function"
    },
    {
      "inputs": [
        {
          "internalType": "bytes32",
          "name": "role",
          "type": "bytes32"
        },
        {
          "internalType": "address",
          "name": "account",
          "type": "address"
        }
      ],
      "name": "renounceRole",
      "outputs": [],
      "stateMutability": "nonpayable",
      "type": "function"
    },
    {
      "inputs": [
        {
          "internalType": "uint256",
          "name": "_mintAmount",
          "type": "uint256"
        },
        {
          "internalType": "bool",
          "name": "_distribute",
          "type": "bool"
        }
      ],
      "name": "requestMint",
      "outputs": [],
      "stateMutability": "nonpayable",
      "type": "function"
    },
    {
      "inputs": [
        {
          "internalType": "address",
          "name": "_recipient",
          "type": "address"
        },
        {
          "internalType": "uint256",
          "name": "_amount",
          "type": "uint256"
        }
      ],
      "name": "requestTransfer",
      "outputs": [],
      "stateMutability": "nonpayable",
      "type": "function"
    },
    {
      "inputs": [
        {
          "internalType": "bytes32",
          "name": "role",
          "type": "bytes32"
        },
        {
          "internalType": "address",
          "name": "account",
          "type": "address"
        }
      ],
      "name": "revokeRole",
      "outputs": [],
      "stateMutability": "nonpayable",
      "type": "function"
    },
    {
      "inputs": [
        {
          "internalType": "address[]",
          "name": "_address",
          "type": "address[]"
        },
        {
          "internalType": "uint256[]",
          "name": "_percents",
          "type": "uint256[]"
        }
      ],
      "name": "setFoundationDistributeInfo",
      "outputs": [],
      "stateMutability": "nonpayable",
      "type": "function"
    },
    {
      "inputs": [
        {
          "internalType": "uint256",
          "name": "_mrRate",
          "type": "uint256"
        },
        {
          "internalType": "uint256",
          "name": "amount",
          "type": "uint256"
        }
      ],
      "name": "setMR",
      "outputs": [],
      "stateMutability": "nonpayable",
      "type": "function"
    },
    {
      "inputs": [
        {
          "internalType": "uint256",
          "name": "_mintRateDenominator",
          "type": "uint256"
        }
      ],
      "name": "setMintRateDenominator",
      "outputs": [],
      "stateMutability": "nonpayable",
      "type": "function"
    },
    {
      "inputs": [
        {
          "internalType": "address",
          "name": "_poolAddressTOSETH",
          "type": "address"
        }
      ],
      "name": "setPoolAddressTOSETH",
      "outputs": [],
      "stateMutability": "nonpayable",
      "type": "function"
    },
    {
      "inputs": [
        {
          "internalType": "address",
          "name": "_uniswapFactory",
          "type": "address"
        }
      ],
      "name": "setUniswapV3Factory",
      "outputs": [],
      "stateMutability": "nonpayable",
      "type": "function"
    },
    {
      "inputs": [],
      "name": "stakingV2",
      "outputs": [
        {
          "internalType": "address",
          "name": "",
          "type": "address"
        }
      ],
      "stateMutability": "view",
      "type": "function"
    },
    {
      "inputs": [
        {
          "internalType": "bytes4",
          "name": "interfaceId",
          "type": "bytes4"
        }
      ],
      "name": "supportsInterface",
      "outputs": [
        {
          "internalType": "bool",
          "name": "",
          "type": "bool"
        }
      ],
      "stateMutability": "view",
      "type": "function"
    },
    {
      "inputs": [],
      "name": "tos",
      "outputs": [
        {
          "internalType": "contract IERC20",
          "name": "",
          "type": "address"
        }
      ],
      "stateMutability": "view",
      "type": "function"
    },
    {
      "inputs": [],
      "name": "totalBacking",
      "outputs": [
        {
          "internalType": "uint256",
          "name": "",
          "type": "uint256"
        }
      ],
      "stateMutability": "view",
      "type": "function"
    },
    {
      "inputs": [],
      "name": "totalMinting",
      "outputs": [
        {
          "internalType": "uint256",
          "name": "",
          "type": "uint256"
        }
      ],
      "stateMutability": "view",
      "type": "function"
    },
    {
      "inputs": [
        {
          "internalType": "address",
          "name": "newAdmin",
          "type": "address"
        }
      ],
      "name": "transferAdmin",
      "outputs": [],
      "stateMutability": "nonpayable",
      "type": "function"
    },
    {
      "inputs": [
        {
          "internalType": "address",
          "name": "newAdmin",
          "type": "address"
        }
      ],
      "name": "transferPolicyAdmin",
      "outputs": [],
      "stateMutability": "nonpayable",
      "type": "function"
    },
    {
      "inputs": [
        {
          "internalType": "address",
          "name": "newAdmin",
          "type": "address"
        }
      ],
      "name": "transferProxyAdmin",
      "outputs": [],
      "stateMutability": "nonpayable",
      "type": "function"
    },
    {
      "inputs": [],
      "name": "uniswapV3Factory",
      "outputs": [
        {
          "internalType": "address",
          "name": "",
          "type": "address"
        }
      ],
      "stateMutability": "view",
      "type": "function"
    },
    {
      "inputs": [
        {
          "internalType": "uint256",
          "name": "_index",
          "type": "uint256"
        }
      ],
      "name": "viewMintingInfo",
      "outputs": [
        {
          "internalType": "address",
          "name": "mintAddress",
          "type": "address"
        },
        {
          "internalType": "uint256",
          "name": "mintPercents",
          "type": "uint256"
        }
      ],
      "stateMutability": "view",
      "type": "function"
    },
    {
      "inputs": [],
      "name": "wethAddress",
      "outputs": [
        {
          "internalType": "address",
          "name": "",
          "type": "address"
        }
      ],
      "stateMutability": "view",
      "type": "function"
    },
    {
      "inputs": [
        {
          "internalType": "address",
          "name": "account",
          "type": "address"
        }
      ],
      "name": "withdrawEther",
      "outputs": [],
      "stateMutability": "nonpayable",
      "type": "function"
    }
  ],
  "bytecode": "0x60c0604052601660808190527f54726561737572793a206e6f742061636365707465640000000000000000000060a09081526200004091600091906200012a565b506040805180820190915260168082527f54726561737572793a206e6f7420617070726f76656400000000000000000000602090920191825262000087916001916200012a565b506040805180820190915260178082527f54726561737572793a20696e76616c696420746f6b656e0000000000000000006020909201918252620000ce916002916200012a565b5060408051808201909152601f8082527f54726561737572793a20696e73756666696369656e7420726573657276657300602090920191825262000115916003916200012a565b503480156200012357600080fd5b506200020d565b8280546200013890620001d0565b90600052602060002090601f0160209004810192826200015c5760008555620001a7565b82601f106200017757805160ff1916838001178555620001a7565b82800160010185558215620001a7579182015b82811115620001a75782518255916020019190600101906200018a565b50620001b5929150620001b9565b5090565b5b80821115620001b55760008155600101620001ba565b600181811c90821680620001e557607f821691505b602082108114156200020757634e487b7160e01b600052602260045260246000fd5b50919050565b6143c5806200021d6000396000f3fe608060405234801561001057600080fd5b50600436106103535760003560e01c806393988b53116101c657806393988b531461064857806396f0bd611461067257806396f1557c1461067a578063976b58e91461068d5780639982f45e146106965780639a202d47146106a95780639ea64985146106b1578063a217fddf146106c4578063a44b8287146106cc578063aa5fc794146106df578063aa7e445c146106f2578063af933b57146106fa578063b11a35ea1461070d578063b3bc8ae814610715578063b84ef0811461071d578063be72f2d314610730578063c5bb95bc14610738578063c62a0bd814610740578063ca0dcf1614610753578063ca2c2a591461075c578063ce3e39c01461076f578063d11aca6214610782578063d53913931461078a578063d547741f146107b1578063d6f9b343146107c4578063da9c8864146107da578063daea85c5146107ed578063dc4655a114610800578063e170c19a14610813578063e2cfcfee14610826578063eb2cd25814610839578063f1c8c92214610841578063f2ccf1ea14610854578063f47f2f1d14610867578063f908ed371461087a578063fad1c85c14610883578063ffc12dae1461089657600080fd5b806301ffc9a71461035857806314fba479146103805780631bb5e2dc146103925780631cf29893146103a55780631f770e7b146103ba57806321320fcc146103cf57806322985246146103e2578063248a9ca3146103f757806324d7806c1461040a578063282c51f31461041d5780632f2ff15d14610444578063330dd3451461045757806333f21cd51461048557806336568abe1461048d5780633e0f19a0146104a05780633eb970a7146104b357806340def7f7146104c657806341c04d5e146104d95780634cf15858146104ee5780634f0e0ef3146105015780635b5491821461052157806365cb3a831461053457806368afaca81461053c5780636f1e853314610544578063704802751461055757806375829def1461056a57806375b238fc1461057d57806376f2766c146105a4578063794dde64146105c55780638356ca4f146105d857806385e36cc2146105eb57806388611736146105f457806389f395de146106075780638d71bc5b1461061a5780638e549a451461062d57806391d1485414610635575b600080fd5b61036b610366366004613c6f565b6108a9565b60405190151581526020015b60405180910390f35b6011545b604051908152602001610377565b6103846103a0366004613c2c565b6108e0565b6103ad610901565b6040516103779190613f12565b6103cd6103c8366004613ae8565b610963565b005b61036b6103dd366004613c2c565b6109c5565b61038460008051602061437083398151915281565b610384610405366004613c2c565b610a94565b61036b610418366004613ae8565b610aa9565b6103847f9667e80708b6eeeb0053fa0cca44e028ff548e2a9f029edfeac87c118b08b7c881565b6103cd610452366004613c44565b610ac3565b61036b610465366004613cb3565b600f60209081526000928352604080842090915290825290205460ff1681565b610384610ae5565b6103cd61049b366004613c44565b610af4565b6103cd6104ae366004613c44565b610b6e565b6103cd6104c1366004613d5e565b6110c6565b6103cd6104d4366004613d3a565b61123d565b61038460008051602061433083398151915281565b61036b6104fc366004613c44565b6113b4565b600654610514906001600160a01b031681565b6040516103779190613e4d565b600754610514906001600160a01b031681565b6103cd6114b3565b6103846114f2565b61036b610552366004613ae8565b611636565b6103cd610565366004613ae8565b61168f565b6103cd610578366004613ae8565b6116cf565b6103847fdf8b4c520ffe197c5343c6f5aec59570151ef9a492f2c624fd45ddde6135ec4281565b6105b76105b2366004613c2c565b611782565b604051610377929190613e7c565b6103cd6105d3366004613c44565b6117ba565b6103cd6105e6366004613ae8565b611a8a565b610384600c5481565b600854610514906001600160a01b031681565b600454610514906001600160a01b031681565b600954610514906001600160a01b031681565b610384611b14565b61036b610643366004613c44565b611c17565b61065b610656366004613b02565b611c42565b604080519215158352602083019190915201610377565b600a54610384565b6103cd610688366004613ae8565b611d70565b610384600d5481565b6103cd6106a4366004613b61565b611da0565b6103cd6120f4565b6103cd6106bf366004613ae8565b612140565b610384600081565b6105146106da366004613cde565b6121d8565b6103cd6106ed366004613b38565b612210565b6103cd612338565b6103cd610708366004613ae8565b61248a565b61038461254a565b610384612ac2565b6103cd61072b366004613ae8565b612af1565b6103cd612b2e565b610384612b5e565b6103cd61074e366004613ae8565b612bee565b610384600a5481565b61036b61076a366004613d5e565b612c97565b600554610514906001600160a01b031681565b610384612d5f565b6103847ff0887ba65ee2024ea881d91b74c2450ef19e1557f03bed3ea9f16b037cbe2dc981565b6103cd6107bf366004613c44565b612e07565b6107cc612e24565b604051610377929190613f25565b6105146107e8366004613c2c565b612fd1565b6103cd6107fb366004613ae8565b612ffb565b61036b61080e366004613ae8565b6130b4565b6103cd610821366004613c2c565b6130c0565b6103cd610834366004613ae8565b613148565b601054610384565b6103cd61084f366004613ae8565b6131e6565b6103cd610862366004613ae8565b61328a565b61036b610875366004613ae8565b61345f565b610384600b5481565b61036b610891366004613ae8565b61346b565b6105b76108a4366004613c2c565b613485565b60006001600160e01b03198216637965db0b60e01b14806108da57506301ffc9a760e01b6001600160e01b03198316145b92915050565b601281815481106108f057600080fd5b600091825260209091200154905081565b6060601080548060200260200160405190810160405280929190818152602001828054801561095957602002820191906000526020600020905b81546001600160a01b0316815260019091019060200180831161093b575b5050505050905090565b61096c3361346b565b6109915760405162461bcd60e51b8152600401610988906141c3565b60405180910390fd5b806001600160a01b0381166109b85760405162461bcd60e51b815260040161098890614054565b6109c182613503565b5050565b6000600b54600a546109d561254a565b6109df919061426a565b6109e9919061424a565b82600460009054906101000a90046001600160a01b03166001600160a01b03166318160ddd6040518163ffffffff1660e01b815260040160206040518083038186803b158015610a3857600080fd5b505afa158015610a4c573d6000803e3d6000fd5b505050506040513d601f19601f82011682018060405250810190610a709190613d22565b610a7a9190614232565b11610a8757506001919050565b506000919050565b919050565b60009081526013602052604090206001015490565b60006108da60008051602061433083398151915283611c17565b610acc82610a94565b610ad681336135ef565b610ae08383613653565b505050565b6000610aef61254a565b905090565b6001600160a01b0381163314610b645760405162461bcd60e51b815260206004820152602f60248201527f416363657373436f6e74726f6c3a2063616e206f6e6c792072656e6f756e636560448201526e103937b632b9903337b91039b2b63360891b6064820152608401610988565b6109c182826136d9565b610b773361346b565b610b935760405162461bcd60e51b8152600401610988906141c3565b604051632e31150760e11b81526004810183905260009073__$9cfa9b0e3c0a9a6ba047022cc53a6c3f44$__90635c622a0e9060240160206040518083038186803b158015610be157600080fd5b505af4158015610bf5573d6000803e3d6000fd5b505050506040513d601f19601f82011682018060405250810190610c199190613c97565b9050600081600a811115610c3d57634e487b7160e01b600052602160045260246000fd5b1415610c5b5760405162461bcd60e51b815260040161098890614083565b600f600082600a811115610c7f57634e487b7160e01b600052602160045260246000fd5b600a811115610c9e57634e487b7160e01b600052602160045260246000fd5b8152602080820192909252604090810160009081206001600160a01b038616825290925290205460ff161515600114610d0e5760405162461bcd60e51b81526020600482015260126024820152716861736e2774207065726d697373696f6e7360701b6044820152606401610988565b6000600f600083600a811115610d3457634e487b7160e01b600052602160045260246000fd5b600a811115610d5357634e487b7160e01b600052602160045260246000fd5b8152602080820192909252604090810160009081206001600160a01b03871682529092528120805460ff19169215159290921790915580610d948484611c42565b91509150818015610df857506000600e600085600a811115610dc657634e487b7160e01b600052602160045260246000fd5b600a811115610de557634e487b7160e01b600052602160045260246000fd5b8152602081019190915260400160002054115b15611077576001600e600085600a811115610e2357634e487b7160e01b600052602160045260246000fd5b600a811115610e4257634e487b7160e01b600052602160045260246000fd5b8152602081019190915260400160002054610e5d9190614289565b811015610fe657600e600084600a811115610e8857634e487b7160e01b600052602160045260246000fd5b600a811115610ea757634e487b7160e01b600052602160045260246000fd5b81526020019081526020016000206001600e600086600a811115610edb57634e487b7160e01b600052602160045260246000fd5b600a811115610efa57634e487b7160e01b600052602160045260246000fd5b8152602081019190915260400160002054610f159190614289565b81548110610f3357634e487b7160e01b600052603260045260246000fd5b60009182526020822001546001600160a01b031690600e9085600a811115610f6b57634e487b7160e01b600052602160045260246000fd5b600a811115610f8a57634e487b7160e01b600052602160045260246000fd5b81526020019081526020016000208281548110610fb757634e487b7160e01b600052603260045260246000fd5b9060005260206000200160006101000a8154816001600160a01b0302191690836001600160a01b031602179055505b600e600084600a81111561100a57634e487b7160e01b600052602160045260246000fd5b600a81111561102957634e487b7160e01b600052602160045260246000fd5b815260200190815260200160002080548061105457634e487b7160e01b600052603160045260246000fd5b600082815260209020810160001990810180546001600160a01b03191690550190555b82600a81111561109757634e487b7160e01b600052602160045260246000fd5b6000805160206143508339815191528560006040516110b7929190613e61565b60405180910390a25050505050565b6110cf3361346b565b6110eb5760405162461bcd60e51b8152600401610988906141c3565b81600a541415806110fc5750600081115b6111185760405162461bcd60e51b8152600401610988906140ac565b6111228282612c97565b6111655760405162461bcd60e51b8152602060048201526014602482015273756e617661696c61626c65206d696e745261746560601b6044820152606401610988565b81600a541461117457600a8290555b80156111ff57600480546040516340c10f1960e01b81526001600160a01b03909116916340c10f19916111ab913091869101613e7c565b602060405180830381600087803b1580156111c557600080fd5b505af11580156111d9573d6000803e3d6000fd5b505050506040513d601f19601f820116820180604052508101906111fd9190613bc9565b505b60408051838152602081018390527fe4cc2e96dce6da59e211b63b86e93c1e8da883b98fd0d184adc684dc66fc7ed591015b60405180910390a15050565b81806112815760405162461bcd60e51b8152602060048201526013602482015272151c99585cdd5c9e4e881e995c9bc81d5a5b9d606a1b6044820152606401610988565b61128a336130b4565b6001906112aa5760405162461bcd60e51b81526004016109889190613fae565b50600480546040516340c10f1960e01b81526001600160a01b03909116916340c10f19916112dc913091889101613e7c565b602060405180830381600087803b1580156112f657600080fd5b505af115801561130a573d6000803e3d6000fd5b505050506040513d601f19601f8201168201806040525081019061132e9190613bc9565b5081801561133e57506000600d54115b15611374576064600d5484611353919061426a565b61135d919061424a565b600c600082825461136e9190614232565b90915550505b6040805184815283151560208201527f60037f60bce79115878858b94d45b5bfb7387cce97d88ca2fdd51ce8f33d820491015b60405180910390a1505050565b6000600f600073__$9cfa9b0e3c0a9a6ba047022cc53a6c3f44$__635c622a0e866040518263ffffffff1660e01b81526004016113f391815260200190565b60206040518083038186803b15801561140b57600080fd5b505af415801561141f573d6000803e3d6000fd5b505050506040513d601f19601f820116820180604052508101906114439190613c97565b600a81111561146257634e487b7160e01b600052602160045260246000fd5b600a81111561148157634e487b7160e01b600052602160045260246000fd5b8152602080820192909252604090810160009081206001600160a01b038616825290925290205460ff16905092915050565b6114bc3361346b565b6114d85760405162461bcd60e51b8152600401610988906141c3565b6114f060008051602061437083398151915233610af4565b565b6009546000906001600160a01b03161580159061159b5750600960009054906101000a90046001600160a01b03166001600160a01b0316631a6865026040518163ffffffff1660e01b815260040160206040518083038186803b15801561155857600080fd5b505afa15801561156c573d6000803e3d6000fd5b505050506040513d601f19601f820116820180604052508101906115909190613cfb565b6001600160801b0316155b156115b057600a54600b54610aef919061424a565b600560009054906101000a90046001600160a01b03166001600160a01b03166368afaca86040518163ffffffff1660e01b815260040160206040518083038186803b1580156115fe57600080fd5b505afa158015611612573d6000803e3d6000fd5b505050506040513d601f19601f82011682018060405250810190610aef9190613d22565b6000600f81600a5b600a81111561165d57634e487b7160e01b600052602160045260246000fd5b8152602080820192909252604090810160009081206001600160a01b039095168152939091529091205460ff16919050565b6116983361345f565b6116b45760405162461bcd60e51b81526004016109889061414b565b6116cc60008051602061433083398151915282610ac3565b50565b6116d833610aa9565b806116e757506116e73361345f565b6117035760405162461bcd60e51b8152600401610988906140d7565b6001600160a01b0381166117295760405162461bcd60e51b815260040161098890614119565b336001600160a01b03821614156117525760405162461bcd60e51b815260040161098890614193565b61176a60008051602061433083398151915282610ac3565b6116cc60008051602061433083398151915233610af4565b6011818154811061179257600080fd5b6000918252602090912060029091020180546001909101546001600160a01b03909116915082565b6117c33361346b565b6117df5760405162461bcd60e51b8152600401610988906141c3565b604051632e31150760e11b81526004810183905260009073__$9cfa9b0e3c0a9a6ba047022cc53a6c3f44$__90635c622a0e9060240160206040518083038186803b15801561182d57600080fd5b505af4158015611841573d6000803e3d6000fd5b505050506040513d601f19601f820116820180604052508101906118659190613c97565b9050600081600a81111561188957634e487b7160e01b600052602160045260246000fd5b14156118a75760405162461bcd60e51b815260040161098890614083565b600f600082600a8111156118cb57634e487b7160e01b600052602160045260246000fd5b600a8111156118ea57634e487b7160e01b600052602160045260246000fd5b8152602080820192909252604090810160009081206001600160a01b038616825290925290205460ff161561194f5760405162461bcd60e51b815260206004820152600b60248201526a185b1c9958591e481cd95d60aa1b6044820152606401610988565b6001600f600083600a81111561197557634e487b7160e01b600052602160045260246000fd5b600a81111561199457634e487b7160e01b600052602160045260246000fd5b8152602080820192909252604090810160009081206001600160a01b03871682529092528120805460ff1916921515929092179091556119d48383611c42565b50905080611a5b57600e600083600a811115611a0057634e487b7160e01b600052602160045260246000fd5b600a811115611a1f57634e487b7160e01b600052602160045260246000fd5b8152602080820192909252604001600090812080546001810182559082529190200180546001600160a01b0319166001600160a01b0385161790555b83600080516020614350833981519152846001604051611a7c929190613e61565b60405180910390a250505050565b611a933361345f565b611aaf5760405162461bcd60e51b81526004016109889061414b565b6001600160a01b038116611ad55760405162461bcd60e51b815260040161098890614119565b336001600160a01b0382161415611afe5760405162461bcd60e51b815260040161098890614193565b611b09600082610ac3565b6116cc600033610af4565b6009546000906001600160a01b031615801590611bbd5750600960009054906101000a90046001600160a01b03166001600160a01b0316631a6865026040518163ffffffff1660e01b815260040160206040518083038186803b158015611b7a57600080fd5b505afa158015611b8e573d6000803e3d6000fd5b505050506040513d601f19601f82011682018060405250810190611bb29190613cfb565b6001600160801b0316155b15611bc95750600a5490565b600560009054906101000a90046001600160a01b03166001600160a01b0316638e549a456040518163ffffffff1660e01b815260040160206040518083038186803b1580156115fe57600080fd5b60009182526013602090815260408084206001600160a01b0393909316845291905290205460ff1690565b6000806000600e600085600a811115611c6b57634e487b7160e01b600052602160045260246000fd5b600a811115611c8a57634e487b7160e01b600052602160045260246000fd5b8152602001908152602001600020805480602002602001604051908101604052809291908181526020018280548015611cec57602002820191906000526020600020905b81546001600160a01b03168152600190910190602001808311611cce575b5050505050905060005b8151811015611d5f57818181518110611d1f57634e487b7160e01b600052603260045260246000fd5b60200260200101516001600160a01b0316866001600160a01b03161415611d4d57600193509150611d699050565b80611d57816142e3565b915050611cf6565b5060008092509250505b9250929050565b611d793361345f565b611d955760405162461bcd60e51b81526004016109889061414b565b6116cc600082613740565b611da93361346b565b611dc55760405162461bcd60e51b8152600401610988906141c3565b82611e005760405162461bcd60e51b815260206004820152600b60248201526a0f4cae4de40d8cadccee8d60ab1b6044820152606401610988565b828114611e3e5760405162461bcd60e51b815260206004820152600c60248201526b0eee4dedcce40d8cadccee8d60a31b6044820152606401610988565b6000600d81905583905b81811015611f84576000868683818110611e7257634e487b7160e01b600052603260045260246000fd5b9050602002016020810190611e879190613ae8565b6001600160a01b03161415611ecd5760405162461bcd60e51b815260206004820152600c60248201526b7a65726f206164647265737360a01b6044820152606401610988565b6000848483818110611eef57634e487b7160e01b600052603260045260246000fd5b9050602002013511611f345760405162461bcd60e51b815260206004820152600e60248201526d7a65726f205f70657263656e747360901b6044820152606401610988565b838382818110611f5457634e487b7160e01b600052603260045260246000fd5b90506020020135600d6000828254611f6c9190614232565b90915550819050611f7c816142e3565b915050611e48565b506064600d5410611fc95760405162461bcd60e51b815260206004820152600f60248201526e77726f6e67205f70657263656e747360881b6044820152606401610988565b611fd560116000613a49565b60005b818110156120af576011604051806040016040528088888581811061200d57634e487b7160e01b600052603260045260246000fd5b90506020020160208101906120229190613ae8565b6001600160a01b0316815260200186868581811061205057634e487b7160e01b600052603260045260246000fd5b60209081029290920135909252835460018082018655600095865294829020845160029092020180546001600160a01b0319166001600160a01b03909216919091178155920151919092015550806120a7816142e3565b915050611fd8565b507ffcb8b54542c57e79d857f0e43e5697d82605478358e9bfd65755f1ac4f7c467c858585856040516120e59493929190613e95565b60405180910390a15050505050565b6120fd33610aa9565b8061210c575061210c3361345f565b6121285760405162461bcd60e51b8152600401610988906140d7565b6114f060008051602061433083398151915233610af4565b612149336130b4565b61218c5760405162461bcd60e51b815260206004820152601460248201527331b0b63632b91034b9903737ba103137b73232b960611b6044820152606401610988565b6001600160a01b0381166121cf5760405162461bcd60e51b815260206004820152600a6024820152691e995c9bc8185cdcd95d60b21b6044820152606401610988565b6116cc81613503565b600e60205281600052604060002081815481106121f457600080fd5b6000918252602090912001546001600160a01b03169150829050565b61221933611636565b6001906122395760405162461bcd60e51b81526004016109889190613fae565b506001600160a01b038216158015906122525750600081115b6122995760405162461bcd60e51b81526020600482015260186024820152771e995c9bc81c9958da5c1a595b9d081bdc88185b5bdd5b9d60421b6044820152606401610988565b806122a2612d5f565b10156122f05760405162461bcd60e51b815260206004820181905260248201527f74726561737572792062616c616e636520697320696e73756666696369656e746044820152606401610988565b600454612307906001600160a01b0316838361374a565b7fac14ca7b339c0e7e9533002fffbecb915441d1cce29e21355ecccfe1b21508518282604051611231929190613e7c565b6123413361346b565b61235d5760405162461bcd60e51b8152600401610988906141c3565b6000600c54118015612370575060115415155b6123ba5760405162461bcd60e51b815260206004820152601b60248201527a273790333ab732399037b9103737903234b9ba3934b13aba34b7b760291b6044820152606401610988565b600c5460005b6011548110156124845760006064601183815481106123ef57634e487b7160e01b600052603260045260246000fd5b906000526020600020906002020160010154600c5461240e919061426a565b612418919061424a565b90506124248184614289565b92506124716011838154811061244a57634e487b7160e01b600052603260045260246000fd5b60009182526020909120600290910201546004546001600160a01b0390811691168361374a565b508061247c816142e3565b9150506123c0565b50600c55565b6124933361346b565b6124af5760405162461bcd60e51b8152600401610988906141c3565b806001600160a01b0381166124d65760405162461bcd60e51b815260040161098890614054565b600047116125155760405162461bcd60e51b815260206004820152600c60248201526b7a65726f2062616c616e636560a01b6044820152606401610988565b6040516001600160a01b038316904780156108fc02916000818181858888f19350505050158015610ae0573d6000803e3d6000fd5b60055460408051630d15f59560e31b815290516000928392839283926001600160a01b0316916368afaca8916004808301926020929190829003018186803b15801561259557600080fd5b505afa1580156125a9573d6000803e3d6000fd5b505050506040513d601f19601f820116820180604052508101906125cd9190613d22565b60105490915060005b81811015612a0457600654601080546001600160a01b03909216918390811061260f57634e487b7160e01b600052603260045260246000fd5b6000918252602090912001546001600160a01b031614156126bf576006546040516370a0823160e01b81526001600160a01b03909116906370a082319061265a903090600401613e4d565b60206040518083038186803b15801561267257600080fd5b505afa158015612686573d6000803e3d6000fd5b505050506040513d601f19601f820116820180604052508101906126aa9190613d22565b6126b49086614232565b9450600193506129f2565b60006001600160a01b0316601082815481106126eb57634e487b7160e01b600052603260045260246000fd5b6000918252602090912001546001600160a01b0316148015906127525750600454601080546001600160a01b03909216918390811061273a57634e487b7160e01b600052603260045260246000fd5b6000918252602090912001546001600160a01b031614155b156129f2576000806000600560009054906101000a90046001600160a01b03166001600160a01b031663bb6f48ba601086815481106127a157634e487b7160e01b600052603260045260246000fd5b600091825260209091200154601080546001600160a01b0390921691889081106127db57634e487b7160e01b600052603260045260246000fd5b6000918252602090912001546040516370a0823160e01b81526001600160a01b03909116906370a0823190612814903090600401613e4d565b60206040518083038186803b15801561282c57600080fd5b505afa158015612840573d6000803e3d6000fd5b505050506040513d601f19601f820116820180604052508101906128649190613d22565b6040518363ffffffff1660e01b8152600401612881929190613e7c565b60806040518083038186803b15801561289957600080fd5b505afa1580156128ad573d6000803e3d6000fd5b505050506040513d601f19601f820116820180604052508101906128d19190613be5565b9350509250925082156128ef576128e88189614232565b97506129ee565b81156129ee576009546001600160a01b03161580159061299b5750600960009054906101000a90046001600160a01b03166001600160a01b0316631a6865026040518163ffffffff1660e01b815260040160206040518083038186803b15801561295857600080fd5b505afa15801561296c573d6000803e3d6000fd5b505050506040513d601f19601f820116820180604052508101906129909190613cfb565b6001600160801b0316155b156129c457600a54600b546129b0908361426a565b6129ba919061424a565b6128e89089614232565b670de0b6b3a76400006129d7878361426a565b6129e1919061424a565b6129eb9089614232565b97505b5050505b806129fc816142e3565b9150506125d6565b5082158015612a1d57506006546001600160a01b031615155b15612aaf576006546040516370a0823160e01b81526001600160a01b03909116906370a0823190612a52903090600401613e4d565b60206040518083038186803b158015612a6a57600080fd5b505afa158015612a7e573d6000803e3d6000fd5b505050506040513d601f19601f82011682018060405250810190612aa29190613d22565b612aac9085614232565b93505b612ab94785614232565b95945050505050565b6000670de0b6b3a7640000612ad5611b14565b612add61254a565b612ae7919061426a565b610aef919061424a565b612afa3361345f565b612b165760405162461bcd60e51b81526004016109889061414b565b6116cc60008051602061437083398151915282610ac3565b612b373361345f565b612b535760405162461bcd60e51b81526004016109889061414b565b6114f0600033610af4565b6000600460009054906101000a90046001600160a01b03166001600160a01b03166318160ddd6040518163ffffffff1660e01b815260040160206040518083038186803b158015612bae57600080fd5b505afa158015612bc2573d6000803e3d6000fd5b505050506040513d601f19601f82011682018060405250810190612be69190613d22565b612ae761254a565b612bf73361346b565b612c135760405162461bcd60e51b8152600401610988906141c3565b6009546001600160a01b0382811691161415612c415760405162461bcd60e51b81526004016109889061420c565b600980546001600160a01b0319166001600160a01b0383161790556040517fc01e12e9bd0b3827f706592d13f881c40e918e90ffd9e3bb9b771643a608685290612c8c908390613e4d565b60405180910390a150565b6000600b5483612ca561254a565b612caf919061426a565b612cb9919061424a565b82600460009054906101000a90046001600160a01b03166001600160a01b03166318160ddd6040518163ffffffff1660e01b815260040160206040518083038186803b158015612d0857600080fd5b505afa158015612d1c573d6000803e3d6000fd5b505050506040513d601f19601f82011682018060405250810190612d409190613d22565b612d4a9190614232565b11612d57575060016108da565b5060006108da565b600480546040516370a0823160e01b815260009283926001600160a01b0316916370a0823191612d9191309101613e4d565b60206040518083038186803b158015612da957600080fd5b505afa158015612dbd573d6000803e3d6000fd5b505050506040513d601f19601f82011682018060405250810190612de19190613d22565b9050600c548110612dff57600c54612df99082614289565b91505090565b600091505090565b612e1082610a94565b612e1a81336135ef565b610ae083836136d9565b6011546060908190806001600160401b03811115612e5257634e487b7160e01b600052604160045260246000fd5b604051908082528060200260200182016040528015612e7b578160200160208202803683370190505b509250806001600160401b03811115612ea457634e487b7160e01b600052604160045260246000fd5b604051908082528060200260200182016040528015612ecd578160200160208202803683370190505b50915060005b81811015612fcb5760118181548110612efc57634e487b7160e01b600052603260045260246000fd5b600091825260209091206002909102015484516001600160a01b0390911690859083908110612f3b57634e487b7160e01b600052603260045260246000fd5b60200260200101906001600160a01b031690816001600160a01b03168152505060118181548110612f7c57634e487b7160e01b600052603260045260246000fd5b906000526020600020906002020160010154838281518110612fae57634e487b7160e01b600052603260045260246000fd5b602090810291909101015280612fc3816142e3565b915050612ed3565b50509091565b60108181548110612fe157600080fd5b6000918252602090912001546001600160a01b0316905081565b6130043361346b565b6130205760405162461bcd60e51b8152600401610988906141c3565b6004805460405163095ea7b360e01b81526001600160a01b039091169163095ea7b3916130629185916d0166bb7f0435c9e717bb45005915602d1b9101613e7c565b602060405180830381600087803b15801561307c57600080fd5b505af1158015613090573d6000803e3d6000fd5b505050506040513d601f19601f820116820180604052508101906109c19190613bc9565b6000600f81600961163e565b6130c93361346b565b6130e55760405162461bcd60e51b8152600401610988906141c3565b80600b54141580156130f75750600081115b6131135760405162461bcd60e51b8152600401610988906140ac565b600b8190556040518181527f9ff242a6ecf76b19e165c80131c467a8fce34056d7bd44c8ff30726836e580bc90602001612c8c565b6131513361346b565b61316d5760405162461bcd60e51b8152600401610988906141c3565b6007546001600160a01b038281169116141561319b5760405162461bcd60e51b81526004016109889061420c565b600780546001600160a01b0319166001600160a01b0383161790556040517f844bdf9a7473f7dee84b48585eff441c1ed9044b2e04508067ad71b9194cdf0b90612c8c908390613e4d565b6131ef3361346b565b61320b5760405162461bcd60e51b8152600401610988906141c3565b6001600160a01b0381166132315760405162461bcd60e51b815260040161098890614119565b336001600160a01b038216141561325a5760405162461bcd60e51b815260040161098890614193565b61327260008051602061437083398151915282610ac3565b6116cc60008051602061437083398151915233610af4565b6132933361346b565b6132af5760405162461bcd60e51b8152600401610988906141c3565b806001600160a01b0381166132d65760405162461bcd60e51b815260040161098890614054565b60105460005b81811015613459576010818154811061330557634e487b7160e01b600052603260045260246000fd5b6000918252602090912001546001600160a01b03858116911614156134475761332f600183614289565b8110156133ca576010613343600184614289565b8154811061336157634e487b7160e01b600052603260045260246000fd5b600091825260209091200154601080546001600160a01b03909216918390811061339b57634e487b7160e01b600052603260045260246000fd5b9060005260206000200160006101000a8154816001600160a01b0302191690836001600160a01b031602179055505b60108054806133e957634e487b7160e01b600052603160045260246000fd5b600082815260209020810160001990810180546001600160a01b03191690550190556040517e5e4bdc7ff4f434ef45e9b73093b5ee11ebd056f46704bb4f66e059f18b14259061343a908690613e4d565b60405180910390a1613459565b80613451816142e3565b9150506132dc565b50505050565b60006108da8183611c17565b60006108da60008051602061437083398151915283611c17565b600080601183815481106134a957634e487b7160e01b600052603260045260246000fd5b6000918252602090912060029091020154601180546001600160a01b0390921691859081106134e857634e487b7160e01b600052603260045260246000fd5b90600052602060002090600202016001015491509150915091565b601054600090815b8181101561356e576010818154811061353457634e487b7160e01b600052603260045260246000fd5b6000918252602090912001546001600160a01b038581169116141561355c576001925061356e565b80613566816142e3565b91505061350b565b5081610ae057601080546001810182556000919091527f1b6847dc741a1b0cd08d278845f9d819d87b734759afb55fe2de5cb82a9ae6720180546001600160a01b0319166001600160a01b0385161790556040517f51d46aa62889dada289ca574cb63cef7f51a70de054ed7feac6b783e6f7bd4a8906113a7908590613e4d565b6135f98282611c17565b6109c157613611816001600160a01b03166014613861565b61361c836020613861565b60405160200161362d929190613dde565b60408051601f198184030181529082905262461bcd60e51b825261098891600401613f7b565b61365d8282611c17565b6109c15760008281526013602090815260408083206001600160a01b03851684529091529020805460ff191660011790556136953390565b6001600160a01b0316816001600160a01b0316837f2f8788117e7eff1d82e926ec794901d17c78024a50270940304540a733656f0d60405160405180910390a45050565b6136e38282611c17565b156109c15760008281526013602090815260408083206001600160a01b0385168085529252808320805460ff1916905551339285917ff6391f5c32d9c69d2a47ea670b442974b53935d1edc7fd64eb21e047a839171b9190a45050565b6109c18282613653565b600080846001600160a01b031663a9059cbb60e01b8585604051602401613772929190613e7c565b60408051601f198184030181529181526020820180516001600160e01b03166001600160e01b03199094169390931790925290516137b09190613dc2565b6000604051808303816000865af19150503d80600081146137ed576040519150601f19603f3d011682016040523d82523d6000602084013e6137f2565b606091505b509150915081801561381c57508051158061381c57508080602001905181019061381c9190613bc9565b61385a5760405162461bcd60e51b815260206004820152600f60248201526e1514905394d1915497d19052531151608a1b6044820152606401610988565b5050505050565b6060600061387083600261426a565b61387b906002614232565b6001600160401b038111156138a057634e487b7160e01b600052604160045260246000fd5b6040519080825280601f01601f1916602001820160405280156138ca576020820181803683370190505b509050600360fc1b816000815181106138f357634e487b7160e01b600052603260045260246000fd5b60200101906001600160f81b031916908160001a905350600f60fb1b8160018151811061393057634e487b7160e01b600052603260045260246000fd5b60200101906001600160f81b031916908160001a905350600061395484600261426a565b61395f906001614232565b90505b60018111156139f3576f181899199a1a9b1b9c1cb0b131b232b360811b85600f16601081106139a157634e487b7160e01b600052603260045260246000fd5b1a60f81b8282815181106139c557634e487b7160e01b600052603260045260246000fd5b60200101906001600160f81b031916908160001a90535060049490941c936139ec816142cc565b9050613962565b508315613a425760405162461bcd60e51b815260206004820181905260248201527f537472696e67733a20686578206c656e67746820696e73756666696369656e746044820152606401610988565b9392505050565b50805460008255600202906000526020600020908101906116cc91905b80821115613a8b5780546001600160a01b031916815560006001820155600201613a66565b5090565b80356001600160a01b0381168114610a8f57600080fd5b60008083601f840112613ab7578182fd5b5081356001600160401b03811115613acd578182fd5b6020830191508360208260051b8501011115611d6957600080fd5b600060208284031215613af9578081fd5b613a4282613a8f565b60008060408385031215613b14578081fd5b613b1d83613a8f565b91506020830135613b2d81614322565b809150509250929050565b60008060408385031215613b4a578182fd5b613b5383613a8f565b946020939093013593505050565b60008060008060408587031215613b76578182fd5b84356001600160401b0380821115613b8c578384fd5b613b9888838901613aa6565b90965094506020870135915080821115613bb0578384fd5b50613bbd87828801613aa6565b95989497509550505050565b600060208284031215613bda578081fd5b8151613a4281614314565b60008060008060808587031215613bfa578384fd5b8451613c0581614314565b6020860151909450613c1681614314565b6040860151606090960151949790965092505050565b600060208284031215613c3d578081fd5b5035919050565b60008060408385031215613c56578182fd5b82359150613c6660208401613a8f565b90509250929050565b600060208284031215613c80578081fd5b81356001600160e01b031981168114613a42578182fd5b600060208284031215613ca8578081fd5b8151613a4281614322565b60008060408385031215613cc5578182fd5b8235613cd081614322565b9150613c6660208401613a8f565b60008060408385031215613cf0578182fd5b8235613b5381614322565b600060208284031215613d0c578081fd5b81516001600160801b0381168114613a42578182fd5b600060208284031215613d33578081fd5b5051919050565b60008060408385031215613d4c578182fd5b823591506020830135613b2d81614314565b60008060408385031215613d70578182fd5b50508035926020909101359150565b6000815180845260208085019450808401835b83811015613db75781516001600160a01b031687529582019590820190600101613d92565b509495945050505050565b60008251613dd48184602087016142a0565b9190910192915050565b76020b1b1b2b9b9a1b7b73a3937b61d1030b1b1b7bab73a1604d1b815260008351613e108160178501602088016142a0565b7001034b99036b4b9b9b4b733903937b6329607d1b6017918401918201528351613e418160288401602088016142a0565b01602801949350505050565b6001600160a01b0391909116815260200190565b6001600160a01b039290921682521515602082015260400190565b6001600160a01b03929092168252602082015260400190565b6040808252810184905260008560608301825b87811015613ed6576001600160a01b03613ec184613a8f565b16825260209283019290910190600101613ea8565b5083810360208501528481526001600160fb1b03851115613ef5578283fd5b8460051b9150818660208301370160200190815295945050505050565b602081526000613a426020830184613d7f565b604081526000613f386040830185613d7f565b828103602084810191909152845180835285820192820190845b81811015613f6e57845183529383019391830191600101613f52565b5090979650505050505050565b6020815260008251806020840152613f9a8160408501602087016142a0565b601f01601f19169190910160400192915050565b6000602080835281845483600182811c915080831680613fcf57607f831692505b858310811415613fed57634e487b7160e01b87526022600452602487fd5b87860183815260200181801561400a576001811461401b57614045565b60ff19861682528782019650614045565b60008b815260209020895b8681101561403f57815484820152908501908901614026565b83019750505b50949998505050505050505050565b60208082526015908201527454726561737572793a7a65726f206164647265737360581b604082015260600190565b6020808252600f908201526e2727a722903832b936b4b9b9b4b7b760891b604082015260600190565b602080825260119082015270636865636b20696e7075742076616c756560781b604082015260600190565b60208082526022908201527f41636365737369626c653a2043616c6c6572206973206e6f7420616e2061646d60408201526134b760f11b606082015260800190565b60208082526018908201527741636365737369626c653a207a65726f206164647265737360401b604082015260600190565b60208082526028908201527f41636365737369626c653a2043616c6c6572206973206e6f7420616e2070726f6040820152673c3c9030b236b4b760c11b606082015260800190565b60208082526016908201527520b1b1b2b9b9b4b136329d1039b0b6b29030b236b4b760511b604082015260600190565b60208082526029908201527f41636365737369626c653a2043616c6c6572206973206e6f7420616e20706f6c60408201526834b1bc9030b236b4b760b91b606082015260800190565b6020808252600c908201526b73616d65206164647265737360a01b604082015260600190565b60008219821115614245576142456142fe565b500190565b60008261426557634e487b7160e01b81526012600452602481fd5b500490565b6000816000190483118215151615614284576142846142fe565b500290565b60008282101561429b5761429b6142fe565b500390565b60005b838110156142bb5781810151838201526020016142a3565b838111156134595750506000910152565b6000816142db576142db6142fe565b506000190190565b60006000198214156142f7576142f76142fe565b5060010190565b634e487b7160e01b600052601160045260246000fd5b80151581146116cc57600080fd5b600b81106116cc57600080fdfe52eafc11f6f81f86878bffd31109a0d92f37506527754f00788853ff9f63b1303c6eb44f3a083ba65fca4eae750beac5efa33a89dec0e50004b62cbb835cc0b6fb5864e8ff833c3cb2d2d08505e82ff02a43554c74a35d4f5a64e85261278311a26469706673582212208286ef803f43c5d6c2a28719068561c00e8bf744bd0ad5f9fed6b8160165582864736f6c63430008040033",
  "linkReferences": {
    "contracts/libraries/LibTreasury.sol": {
      "LibTreasury": [
        {
          "length": 20,
          "start": 3529
        },
        {
          "length": 20,
          "start": 5593
        },
        {
          "length": 20,
          "start": 6677
        }
      ]
    }
  },
  "deployedLinkReferences": {
    "contracts/libraries/LibTreasury.sol": {
      "LibTreasury": [
        {
          "length": 20,
          "start": 2988
        },
        {
          "length": 20,
          "start": 5052
        },
        {
          "length": 20,
          "start": 6136
        }
      ]
    }
  }
}