{
  "_format": "hh-sol-artifact-1",
  "contractName": "Treasury",
  "sourceName": "contracts/Treasury.sol",
  "abi": [
    {
      "inputs": [],
      "stateMutability": "nonpayable",
      "type": "constructor"
    },
    {
      "anonymous": false,
      "inputs": [
        {
          "indexed": false,
          "internalType": "uint256",
          "name": "amount",
          "type": "uint256"
        }
      ],
      "name": "BurnedTOS",
      "type": "event"
    },
    {
      "anonymous": false,
      "inputs": [
        {
          "indexed": true,
          "internalType": "address",
          "name": "token",
          "type": "address"
        },
        {
          "indexed": false,
          "internalType": "uint256",
          "name": "amount",
          "type": "uint256"
        },
        {
          "indexed": false,
          "internalType": "uint256",
          "name": "value",
          "type": "uint256"
        }
      ],
      "name": "Deposit",
      "type": "event"
    },
    {
      "anonymous": false,
      "inputs": [
        {
          "indexed": true,
          "internalType": "address",
          "name": "caller",
          "type": "address"
        },
        {
          "indexed": true,
          "internalType": "address",
          "name": "recipient",
          "type": "address"
        },
        {
          "indexed": false,
          "internalType": "uint256",
          "name": "amount",
          "type": "uint256"
        }
      ],
      "name": "Minted",
      "type": "event"
    },
    {
      "anonymous": false,
      "inputs": [
        {
          "indexed": false,
          "internalType": "address",
          "name": "addr",
          "type": "address"
        },
        {
          "indexed": true,
          "internalType": "uint256",
          "name": "status",
          "type": "uint256"
        },
        {
          "indexed": false,
          "internalType": "bool",
          "name": "result",
          "type": "bool"
        }
      ],
      "name": "Permissioned",
      "type": "event"
    },
    {
      "anonymous": false,
      "inputs": [
        {
          "indexed": true,
          "internalType": "bytes32",
          "name": "role",
          "type": "bytes32"
        },
        {
          "indexed": true,
          "internalType": "bytes32",
          "name": "previousAdminRole",
          "type": "bytes32"
        },
        {
          "indexed": true,
          "internalType": "bytes32",
          "name": "newAdminRole",
          "type": "bytes32"
        }
      ],
      "name": "RoleAdminChanged",
      "type": "event"
    },
    {
      "anonymous": false,
      "inputs": [
        {
          "indexed": true,
          "internalType": "bytes32",
          "name": "role",
          "type": "bytes32"
        },
        {
          "indexed": true,
          "internalType": "address",
          "name": "account",
          "type": "address"
        },
        {
          "indexed": true,
          "internalType": "address",
          "name": "sender",
          "type": "address"
        }
      ],
      "name": "RoleGranted",
      "type": "event"
    },
    {
      "anonymous": false,
      "inputs": [
        {
          "indexed": true,
          "internalType": "bytes32",
          "name": "role",
          "type": "bytes32"
        },
        {
          "indexed": true,
          "internalType": "address",
          "name": "account",
          "type": "address"
        },
        {
          "indexed": true,
          "internalType": "address",
          "name": "sender",
          "type": "address"
        }
      ],
      "name": "RoleRevoked",
      "type": "event"
    },
    {
      "anonymous": false,
      "inputs": [
        {
          "indexed": false,
          "internalType": "address",
          "name": "to",
          "type": "address"
        },
        {
          "indexed": false,
          "internalType": "address",
          "name": "token",
          "type": "address"
        },
        {
          "indexed": false,
          "internalType": "uint256",
          "name": "amount",
          "type": "uint256"
        },
        {
          "indexed": false,
          "internalType": "uint256",
          "name": "tosValue",
          "type": "uint256"
        }
      ],
      "name": "WithdrawalERC20",
      "type": "event"
    },
    {
      "anonymous": false,
      "inputs": [
        {
          "indexed": false,
          "internalType": "address",
          "name": "to",
          "type": "address"
        },
        {
          "indexed": false,
          "internalType": "uint256",
          "name": "amount",
          "type": "uint256"
        },
        {
          "indexed": false,
          "internalType": "uint256",
          "name": "tosValue",
          "type": "uint256"
        }
      ],
      "name": "WithdrawalEther",
      "type": "event"
    },
    {
      "inputs": [],
      "name": "ADMIN_ROLE",
      "outputs": [
        {
          "internalType": "bytes32",
          "name": "",
          "type": "bytes32"
        }
      ],
      "stateMutability": "view",
      "type": "function"
    },
    {
      "inputs": [],
      "name": "BURNER_ROLE",
      "outputs": [
        {
          "internalType": "bytes32",
          "name": "",
          "type": "bytes32"
        }
      ],
      "stateMutability": "view",
      "type": "function"
    },
    {
      "inputs": [],
      "name": "DEFAULT_ADMIN_ROLE",
      "outputs": [
        {
          "internalType": "bytes32",
          "name": "",
          "type": "bytes32"
        }
      ],
      "stateMutability": "view",
      "type": "function"
    },
    {
      "inputs": [],
      "name": "ETHbacking",
      "outputs": [
        {
          "internalType": "uint256",
          "name": "",
          "type": "uint256"
        }
      ],
      "stateMutability": "view",
      "type": "function"
    },
    {
      "inputs": [],
      "name": "ETHliquidity",
      "outputs": [
        {
          "internalType": "uint256",
          "name": "",
          "type": "uint256"
        }
      ],
      "stateMutability": "view",
      "type": "function"
    },
    {
      "inputs": [],
      "name": "MINTER_ROLE",
      "outputs": [
        {
          "internalType": "bytes32",
          "name": "",
          "type": "bytes32"
        }
      ],
      "stateMutability": "view",
      "type": "function"
    },
    {
      "inputs": [],
      "name": "POLICY_ROLE",
      "outputs": [
        {
          "internalType": "bytes32",
          "name": "",
          "type": "bytes32"
        }
      ],
      "stateMutability": "view",
      "type": "function"
    },
    {
      "inputs": [],
      "name": "PROJECT_ADMIN_ROLE",
      "outputs": [
        {
          "internalType": "bytes32",
          "name": "",
          "type": "bytes32"
        }
      ],
      "stateMutability": "view",
      "type": "function"
    },
    {
      "inputs": [],
      "name": "TOS",
      "outputs": [
        {
          "internalType": "contract IERC20",
          "name": "",
          "type": "address"
        }
      ],
      "stateMutability": "view",
      "type": "function"
    },
    {
      "inputs": [
        {
          "internalType": "address",
          "name": "account",
          "type": "address"
        }
      ],
      "name": "addAdmin",
      "outputs": [],
      "stateMutability": "nonpayable",
      "type": "function"
    },
    {
      "inputs": [
        {
          "internalType": "address",
          "name": "_address",
          "type": "address"
        },
        {
          "internalType": "address",
          "name": "_tosPooladdress",
          "type": "address"
        },
        {
          "internalType": "uint24",
          "name": "_fee",
          "type": "uint24"
        }
      ],
      "name": "addBackingList",
      "outputs": [],
      "stateMutability": "nonpayable",
      "type": "function"
    },
    {
      "inputs": [
        {
          "internalType": "address",
          "name": "_address",
          "type": "address"
        },
        {
          "internalType": "address",
          "name": "_tosPooladdress",
          "type": "address"
        },
        {
          "internalType": "uint24",
          "name": "_fee",
          "type": "uint24"
        }
      ],
      "name": "addBondAsset",
      "outputs": [],
      "stateMutability": "nonpayable",
      "type": "function"
    },
    {
      "inputs": [
        {
          "internalType": "address",
          "name": "_account",
          "type": "address"
        }
      ],
      "name": "addPolicy",
      "outputs": [],
      "stateMutability": "nonpayable",
      "type": "function"
    },
    {
      "inputs": [
        {
          "internalType": "address",
          "name": "_owner",
          "type": "address"
        }
      ],
      "name": "addProxyAdmin",
      "outputs": [],
      "stateMutability": "nonpayable",
      "type": "function"
    },
    {
      "inputs": [],
      "name": "allBacking",
      "outputs": [
        {
          "internalType": "address[]",
          "name": "erc20Address",
          "type": "address[]"
        },
        {
          "internalType": "address[]",
          "name": "tosPoolAddress",
          "type": "address[]"
        },
        {
          "internalType": "uint24[]",
          "name": "fee",
          "type": "uint24[]"
        }
      ],
      "stateMutability": "view",
      "type": "function"
    },
    {
      "inputs": [],
      "name": "allMintingg",
      "outputs": [
        {
          "internalType": "address[]",
          "name": "mintAddress",
          "type": "address[]"
        },
        {
          "internalType": "uint256[]",
          "name": "mintPercents",
          "type": "uint256[]"
        }
      ],
      "stateMutability": "view",
      "type": "function"
    },
    {
      "inputs": [
        {
          "internalType": "address",
          "name": "_addr",
          "type": "address"
        }
      ],
      "name": "approve",
      "outputs": [],
      "stateMutability": "nonpayable",
      "type": "function"
    },
    {
      "inputs": [],
      "name": "backingRateETHPerTOS",
      "outputs": [
        {
          "internalType": "uint256",
          "name": "",
          "type": "uint256"
        }
      ],
      "stateMutability": "view",
      "type": "function"
    },
    {
      "inputs": [],
      "name": "backingReserve",
      "outputs": [
        {
          "internalType": "uint256",
          "name": "",
          "type": "uint256"
        }
      ],
      "stateMutability": "view",
      "type": "function"
    },
    {
      "inputs": [],
      "name": "backingReserveETH",
      "outputs": [
        {
          "internalType": "uint256",
          "name": "",
          "type": "uint256"
        }
      ],
      "stateMutability": "view",
      "type": "function"
    },
    {
      "inputs": [],
      "name": "backingReserveTOS",
      "outputs": [
        {
          "internalType": "uint256",
          "name": "",
          "type": "uint256"
        }
      ],
      "stateMutability": "view",
      "type": "function"
    },
    {
      "inputs": [
        {
          "internalType": "uint256",
          "name": "",
          "type": "uint256"
        }
      ],
      "name": "backings",
      "outputs": [
        {
          "internalType": "address",
          "name": "erc20Address",
          "type": "address"
        },
        {
          "internalType": "address",
          "name": "tosPoolAddress",
          "type": "address"
        },
        {
          "internalType": "uint24",
          "name": "fee",
          "type": "uint24"
        }
      ],
      "stateMutability": "view",
      "type": "function"
    },
    {
      "inputs": [
        {
          "internalType": "address",
          "name": "",
          "type": "address"
        }
      ],
      "name": "backingsIndex",
      "outputs": [
        {
          "internalType": "uint256",
          "name": "",
          "type": "uint256"
        }
      ],
      "stateMutability": "view",
      "type": "function"
    },
    {
      "inputs": [],
      "name": "calculator",
      "outputs": [
        {
          "internalType": "address",
          "name": "",
          "type": "address"
        }
      ],
      "stateMutability": "view",
      "type": "function"
    },
    {
      "inputs": [
        {
          "internalType": "uint256",
          "name": "amount",
          "type": "uint256"
        }
      ],
      "name": "checkTosSolvency",
      "outputs": [
        {
          "internalType": "bool",
          "name": "",
          "type": "bool"
        }
      ],
      "stateMutability": "view",
      "type": "function"
    },
    {
      "inputs": [
        {
          "internalType": "uint256",
          "name": "_checkMintRate",
          "type": "uint256"
        },
        {
          "internalType": "uint256",
          "name": "amount",
          "type": "uint256"
        }
      ],
      "name": "checkTosSolvencyAfterTOSMint",
      "outputs": [
        {
          "internalType": "bool",
          "name": "",
          "type": "bool"
        }
      ],
      "stateMutability": "view",
      "type": "function"
    },
    {
      "inputs": [
        {
          "internalType": "address",
          "name": "_address",
          "type": "address"
        }
      ],
      "name": "deleteBackingList",
      "outputs": [],
      "stateMutability": "nonpayable",
      "type": "function"
    },
    {
      "inputs": [
        {
          "internalType": "uint256",
          "name": "_status",
          "type": "uint256"
        },
        {
          "internalType": "address",
          "name": "_toDisable",
          "type": "address"
        }
      ],
      "name": "disable",
      "outputs": [],
      "stateMutability": "nonpayable",
      "type": "function"
    },
    {
      "inputs": [
        {
          "internalType": "uint256",
          "name": "_status",
          "type": "uint256"
        },
        {
          "internalType": "address",
          "name": "_address",
          "type": "address"
        }
      ],
      "name": "enable",
      "outputs": [],
      "stateMutability": "nonpayable",
      "type": "function"
    },
    {
      "inputs": [],
      "name": "enableStaking",
      "outputs": [
        {
          "internalType": "uint256",
          "name": "",
          "type": "uint256"
        }
      ],
      "stateMutability": "view",
      "type": "function"
    },
    {
      "inputs": [],
      "name": "getETHPricePerTOS",
      "outputs": [
        {
          "internalType": "uint256",
          "name": "",
          "type": "uint256"
        }
      ],
      "stateMutability": "view",
      "type": "function"
    },
    {
      "inputs": [],
      "name": "getMintRate",
      "outputs": [
        {
          "internalType": "uint256",
          "name": "",
          "type": "uint256"
        }
      ],
      "stateMutability": "view",
      "type": "function"
    },
    {
      "inputs": [
        {
          "internalType": "bytes32",
          "name": "role",
          "type": "bytes32"
        }
      ],
      "name": "getRoleAdmin",
      "outputs": [
        {
          "internalType": "bytes32",
          "name": "",
          "type": "bytes32"
        }
      ],
      "stateMutability": "view",
      "type": "function"
    },
    {
      "inputs": [],
      "name": "getTOSPricePerETH",
      "outputs": [
        {
          "internalType": "uint256",
          "name": "",
          "type": "uint256"
        }
      ],
      "stateMutability": "view",
      "type": "function"
    },
    {
      "inputs": [
        {
          "internalType": "bytes32",
          "name": "role",
          "type": "bytes32"
        },
        {
          "internalType": "address",
          "name": "account",
          "type": "address"
        }
      ],
      "name": "grantRole",
      "outputs": [],
      "stateMutability": "nonpayable",
      "type": "function"
    },
    {
      "inputs": [
        {
          "internalType": "uint256",
          "name": "role",
          "type": "uint256"
        },
        {
          "internalType": "address",
          "name": "account",
          "type": "address"
        }
      ],
      "name": "hasPermission",
      "outputs": [
        {
          "internalType": "bool",
          "name": "",
          "type": "bool"
        }
      ],
      "stateMutability": "view",
      "type": "function"
    },
    {
      "inputs": [
        {
          "internalType": "bytes32",
          "name": "role",
          "type": "bytes32"
        },
        {
          "internalType": "address",
          "name": "account",
          "type": "address"
        }
      ],
      "name": "hasRole",
      "outputs": [
        {
          "internalType": "bool",
          "name": "",
          "type": "bool"
        }
      ],
      "stateMutability": "view",
      "type": "function"
    },
    {
      "inputs": [
        {
          "internalType": "address",
          "name": "_address",
          "type": "address"
        },
        {
          "internalType": "enum LibTreasury.STATUS",
          "name": "_status",
          "type": "uint8"
        }
      ],
      "name": "indexInRegistry",
      "outputs": [
        {
          "internalType": "bool",
          "name": "",
          "type": "bool"
        },
        {
          "internalType": "uint256",
          "name": "",
          "type": "uint256"
        }
      ],
      "stateMutability": "view",
      "type": "function"
    },
    {
      "inputs": [
        {
          "internalType": "address",
          "name": "account",
          "type": "address"
        }
      ],
      "name": "isAdmin",
      "outputs": [
        {
          "internalType": "bool",
          "name": "",
          "type": "bool"
        }
      ],
      "stateMutability": "view",
      "type": "function"
    },
    {
      "inputs": [
        {
          "internalType": "address",
          "name": "account",
          "type": "address"
        }
      ],
      "name": "isBonder",
      "outputs": [
        {
          "internalType": "bool",
          "name": "",
          "type": "bool"
        }
      ],
      "stateMutability": "view",
      "type": "function"
    },
    {
      "inputs": [
        {
          "internalType": "address",
          "name": "account",
          "type": "address"
        }
      ],
      "name": "isPolicy",
      "outputs": [
        {
          "internalType": "bool",
          "name": "",
          "type": "bool"
        }
      ],
      "stateMutability": "view",
      "type": "function"
    },
    {
      "inputs": [
        {
          "internalType": "address",
          "name": "account",
          "type": "address"
        }
      ],
      "name": "isProxyAdmin",
      "outputs": [
        {
          "internalType": "bool",
          "name": "",
          "type": "bool"
        }
      ],
      "stateMutability": "view",
      "type": "function"
    },
    {
      "inputs": [
        {
          "internalType": "address",
          "name": "account",
          "type": "address"
        }
      ],
      "name": "isStaker",
      "outputs": [
        {
          "internalType": "bool",
          "name": "",
          "type": "bool"
        }
      ],
      "stateMutability": "view",
      "type": "function"
    },
    {
      "inputs": [
        {
          "internalType": "uint256",
          "name": "amount",
          "type": "uint256"
        }
      ],
      "name": "isTreasuryHealthyAfterTOSMint",
      "outputs": [
        {
          "internalType": "bool",
          "name": "",
          "type": "bool"
        }
      ],
      "stateMutability": "view",
      "type": "function"
    },
    {
      "inputs": [
        {
          "internalType": "uint256",
          "name": "",
          "type": "uint256"
        }
      ],
      "name": "lpTokens",
      "outputs": [
        {
          "internalType": "uint256",
          "name": "",
          "type": "uint256"
        }
      ],
      "stateMutability": "view",
      "type": "function"
    },
    {
      "inputs": [],
      "name": "minimumTOSPricePerETH",
      "outputs": [
        {
          "internalType": "uint256",
          "name": "",
          "type": "uint256"
        }
      ],
      "stateMutability": "view",
      "type": "function"
    },
    {
      "inputs": [],
      "name": "mintRate",
      "outputs": [
        {
          "internalType": "uint256",
          "name": "",
          "type": "uint256"
        }
      ],
      "stateMutability": "view",
      "type": "function"
    },
    {
      "inputs": [],
      "name": "mintRateDenominator",
      "outputs": [
        {
          "internalType": "uint256",
          "name": "",
          "type": "uint256"
        }
      ],
      "stateMutability": "view",
      "type": "function"
    },
    {
      "inputs": [
        {
          "internalType": "uint256",
          "name": "",
          "type": "uint256"
        }
      ],
      "name": "mintings",
      "outputs": [
        {
          "internalType": "address",
          "name": "mintAddress",
          "type": "address"
        },
        {
          "internalType": "uint256",
          "name": "mintPercents",
          "type": "uint256"
        }
      ],
      "stateMutability": "view",
      "type": "function"
    },
    {
      "inputs": [
        {
          "internalType": "enum LibTreasury.STATUS",
          "name": "",
          "type": "uint8"
        },
        {
          "internalType": "address",
          "name": "",
          "type": "address"
        }
      ],
      "name": "permissions",
      "outputs": [
        {
          "internalType": "bool",
          "name": "",
          "type": "bool"
        }
      ],
      "stateMutability": "view",
      "type": "function"
    },
    {
      "inputs": [],
      "name": "poolAddressTOSETH",
      "outputs": [
        {
          "internalType": "address",
          "name": "",
          "type": "address"
        }
      ],
      "stateMutability": "view",
      "type": "function"
    },
    {
      "inputs": [
        {
          "internalType": "enum LibTreasury.STATUS",
          "name": "",
          "type": "uint8"
        },
        {
          "internalType": "uint256",
          "name": "",
          "type": "uint256"
        }
      ],
      "name": "registry",
      "outputs": [
        {
          "internalType": "address",
          "name": "",
          "type": "address"
        }
      ],
      "stateMutability": "view",
      "type": "function"
    },
    {
      "inputs": [],
      "name": "removeAdmin",
      "outputs": [],
      "stateMutability": "nonpayable",
      "type": "function"
    },
    {
      "inputs": [],
      "name": "removePolicy",
      "outputs": [],
      "stateMutability": "nonpayable",
      "type": "function"
    },
    {
      "inputs": [],
      "name": "removeProxyAdmin",
      "outputs": [],
      "stateMutability": "nonpayable",
      "type": "function"
    },
    {
      "inputs": [
        {
          "internalType": "bytes32",
          "name": "role",
          "type": "bytes32"
        },
        {
          "internalType": "address",
          "name": "account",
          "type": "address"
        }
      ],
      "name": "renounceRole",
      "outputs": [],
      "stateMutability": "nonpayable",
      "type": "function"
    },
    {
      "inputs": [
        {
          "internalType": "uint256",
          "name": "_mintAmount",
          "type": "uint256"
        },
        {
          "internalType": "address",
          "name": "_recipient",
          "type": "address"
        },
        {
          "internalType": "uint256",
          "name": "_transferAmount",
          "type": "uint256"
        },
        {
          "internalType": "bool",
          "name": "_distribute",
          "type": "bool"
        }
      ],
      "name": "requestMintAndTransfer",
      "outputs": [],
      "stateMutability": "nonpayable",
      "type": "function"
    },
    {
      "inputs": [
        {
          "internalType": "address",
          "name": "_recipient",
          "type": "address"
        },
        {
          "internalType": "uint256",
          "name": "_amount",
          "type": "uint256"
        }
      ],
      "name": "requestTrasfer",
      "outputs": [],
      "stateMutability": "nonpayable",
      "type": "function"
    },
    {
      "inputs": [
        {
          "internalType": "bytes32",
          "name": "role",
          "type": "bytes32"
        },
        {
          "internalType": "address",
          "name": "account",
          "type": "address"
        }
      ],
      "name": "revokeRole",
      "outputs": [],
      "stateMutability": "nonpayable",
      "type": "function"
    },
    {
      "inputs": [
        {
          "internalType": "address[]",
          "name": "_addr",
          "type": "address[]"
        },
        {
          "internalType": "uint256[]",
          "name": "_percents",
          "type": "uint256[]"
        }
      ],
      "name": "setFoundationDistributeInfo",
      "outputs": [],
      "stateMutability": "nonpayable",
      "type": "function"
    },
    {
      "inputs": [
        {
          "internalType": "uint256",
          "name": "_mrRate",
          "type": "uint256"
        },
        {
          "internalType": "uint256",
          "name": "amount",
          "type": "uint256"
        }
      ],
      "name": "setMR",
      "outputs": [],
      "stateMutability": "nonpayable",
      "type": "function"
    },
    {
      "inputs": [
        {
          "internalType": "uint256",
          "name": "_minimumTOSPricePerETH",
          "type": "uint256"
        }
      ],
      "name": "setMinimumTOSPricePerETH",
      "outputs": [],
      "stateMutability": "nonpayable",
      "type": "function"
    },
    {
      "inputs": [
        {
          "internalType": "uint256",
          "name": "_mintRateDenominator",
          "type": "uint256"
        }
      ],
      "name": "setMintRateDenominator",
      "outputs": [],
      "stateMutability": "nonpayable",
      "type": "function"
    },
    {
      "inputs": [
        {
          "internalType": "address",
          "name": "_poolAddressTOSETH",
          "type": "address"
        }
      ],
      "name": "setPoolAddressTOSETH",
      "outputs": [],
      "stateMutability": "nonpayable",
      "type": "function"
    },
    {
      "inputs": [
        {
          "internalType": "address",
          "name": "_uniswapFactory",
          "type": "address"
        }
      ],
      "name": "setUniswapV3Factory",
      "outputs": [],
      "stateMutability": "nonpayable",
      "type": "function"
    },
    {
      "inputs": [],
      "name": "stakingv2",
      "outputs": [
        {
          "internalType": "address",
          "name": "",
          "type": "address"
        }
      ],
      "stateMutability": "view",
      "type": "function"
    },
    {
      "inputs": [
        {
          "internalType": "bytes4",
          "name": "interfaceId",
          "type": "bytes4"
        }
      ],
      "name": "supportsInterface",
      "outputs": [
        {
          "internalType": "bool",
          "name": "",
          "type": "bool"
        }
      ],
      "stateMutability": "view",
      "type": "function"
    },
    {
      "inputs": [],
      "name": "tosBacking",
      "outputs": [
        {
          "internalType": "uint256",
          "name": "",
          "type": "uint256"
        }
      ],
      "stateMutability": "view",
      "type": "function"
    },
    {
      "inputs": [],
      "name": "totalBacking",
      "outputs": [
        {
          "internalType": "uint256",
          "name": "",
          "type": "uint256"
        }
      ],
      "stateMutability": "view",
      "type": "function"
    },
    {
      "inputs": [],
      "name": "totalMinting",
      "outputs": [
        {
          "internalType": "uint256",
          "name": "",
          "type": "uint256"
        }
      ],
      "stateMutability": "view",
      "type": "function"
    },
    {
      "inputs": [],
      "name": "totalPercents",
      "outputs": [
        {
          "internalType": "uint256",
          "name": "",
          "type": "uint256"
        }
      ],
      "stateMutability": "view",
      "type": "function"
    },
    {
      "inputs": [
        {
          "internalType": "address",
          "name": "newAdmin",
          "type": "address"
        }
      ],
      "name": "transferAdmin",
      "outputs": [],
      "stateMutability": "nonpayable",
      "type": "function"
    },
    {
      "inputs": [
        {
          "internalType": "address",
          "name": "newAdmin",
          "type": "address"
        }
      ],
      "name": "transferPolicyAdmin",
      "outputs": [],
      "stateMutability": "nonpayable",
      "type": "function"
    },
    {
      "inputs": [
        {
          "internalType": "address",
          "name": "newAdmin",
          "type": "address"
        }
      ],
      "name": "transferProxyAdmin",
      "outputs": [],
      "stateMutability": "nonpayable",
      "type": "function"
    },
    {
      "inputs": [],
      "name": "uniswapV3Factory",
      "outputs": [
        {
          "internalType": "address",
          "name": "",
          "type": "address"
        }
      ],
      "stateMutability": "view",
      "type": "function"
    },
    {
      "inputs": [
        {
          "internalType": "uint256",
          "name": "_index",
          "type": "uint256"
        }
      ],
      "name": "viewBackingInfo",
      "outputs": [
        {
          "internalType": "address",
          "name": "erc20Address",
          "type": "address"
        },
        {
          "internalType": "address",
          "name": "tosPoolAddress",
          "type": "address"
        },
        {
          "internalType": "uint24",
          "name": "fee",
          "type": "uint24"
        }
      ],
      "stateMutability": "view",
      "type": "function"
    },
    {
      "inputs": [
        {
          "internalType": "uint256",
          "name": "_index",
          "type": "uint256"
        }
      ],
      "name": "viewMintingInfo",
      "outputs": [
        {
          "internalType": "address",
          "name": "mintAddress",
          "type": "address"
        },
        {
          "internalType": "uint256",
          "name": "mintPercents",
          "type": "uint256"
        }
      ],
      "stateMutability": "view",
      "type": "function"
    },
    {
      "inputs": [],
      "name": "wethAddress",
      "outputs": [
        {
          "internalType": "address",
          "name": "",
          "type": "address"
        }
      ],
      "stateMutability": "view",
      "type": "function"
    }
  ],
  "bytecode": "0x60c0604052601660808190527f54726561737572793a206e6f742061636365707465640000000000000000000060a09081526200004091600091906200012a565b506040805180820190915260168082527f54726561737572793a206e6f7420617070726f76656400000000000000000000602090920191825262000087916001916200012a565b506040805180820190915260178082527f54726561737572793a20696e76616c696420746f6b656e0000000000000000006020909201918252620000ce916002916200012a565b5060408051808201909152601f8082527f54726561737572793a20696e73756666696369656e7420726573657276657300602090920191825262000115916003916200012a565b503480156200012357600080fd5b506200020d565b8280546200013890620001d0565b90600052602060002090601f0160209004810192826200015c5760008555620001a7565b82601f106200017757805160ff1916838001178555620001a7565b82800160010185558215620001a7579182015b82811115620001a75782518255916020019190600101906200018a565b50620001b5929150620001b9565b5090565b5b80821115620001b55760008155600101620001ba565b600181811c90821680620001e557607f821691505b602082108114156200020757634e487b7160e01b600052602260045260246000fd5b50919050565b614d8d806200021d6000396000f3fe608060405234801561001057600080fd5b506004361061038a5760003560e01c806391d14854116101dc57806391d14854146106e857806393988b53146106fb57806396f0bd611461072557806396f1557c1461072d578063986873a0146107405780639982f45e146107535780639a202d4714610766578063a217fddf1461076e578063a44b828714610776578063b11a35ea14610789578063b2749bca14610791578063b3bc8ae81461079a578063b84ef081146107a2578063be72f2d3146107b5578063c5bb95bc146107bd578063c62a0bd8146107c5578063ca0dcf16146107d8578063ca2c2a59146107e1578063ce3e39c0146107f4578063d11aca6214610807578063d1d823fa1461080f578063d539139314610818578063d547741f1461083f578063da9c886414610852578063daea85c514610865578063dc4655a114610878578063e170c19a1461088b578063e2cfcfee1461089e578063e9e33e16146108b1578063eb2cd258146108ba578063f1c8c922146108c2578063f2ccf1ea146108d5578063f3e291fb146108e8578063f47f2f1d146108f1578063f864640814610904578063f908ed3714610917578063fad1c85c14610920578063ff86f06114610933578063ffc12dae1461095357600080fd5b8063013d02d61461038f57806301ffc9a7146103a457806314fba479146103cc5780631bb5e2dc146103de5780631cf29893146103f157806321320fcc14610408578063229852461461041b578063248a9ca31461043057806324d7806c14610443578063282c51f31461045657806329c7979f1461047d5780632f2ff15d14610490578063330dd345146104a35780633347f5b7146104d157806333f21cd5146104e757806335eb5fd5146104ef57806336568abe146105025780633e0f19a0146105155780633eb970a7146105285780633f9ea9ee1461053b57806341c04d5e146105445780634cf15858146105595780634f0e0ef31461056c5780635b5491821461058c57806361694e271461059f57806365cb3a83146105dd57806366af12c4146105e557806368afaca8146105f85780636f1e853314610600578063701ae1e614610613578063704802751461062657806375829def1461063957806375b238fc1461064c57806376f2766c14610673578063794dde64146106945780637ea586b9146106a75780638356ca4f146106ba5780638d71bc5b146106cd5780638e549a45146106e0575b600080fd5b6103a261039d3660046142be565b610966565b005b6103b76103b236600461444d565b610bd0565b60405190151581526020015b60405180910390f35b6015545b6040519081526020016103c3565b6103d06103ec36600461440a565b610c07565b6103f9610c28565b6040516103c3939291906146c2565b6103b761041636600461440a565b610ec8565b6103d0600080516020614cc483398151915281565b6103d061043e36600461440a565b610f97565b6103b7610451366004614221565b610fac565b6103d07f9667e80708b6eeeb0053fa0cca44e028ff548e2a9f029edfeac87c118b08b7c881565b6103a261048b366004614518565b610fc6565b6103a261049e366004614422565b611168565b6103b76104b1366004614491565b600760209081526000928352604080842090915290825290205460ff1681565b6104d9611185565b6040516103c392919061472f565b6103d0611332565b6103b76104fd36600461440a565b611341565b6103a2610510366004614422565b61134b565b6103a2610523366004614422565b6113c9565b6103a261053636600461455f565b611921565b6103d060115481565b6103d0600080516020614c1383398151915281565b6103b7610567366004614422565b611a06565b60085461057f906001600160a01b031681565b6040516103c3919061467a565b60095461057f906001600160a01b031681565b6105b26105ad36600461440a565b611b05565b604080516001600160a01b03948516815293909216602084015262ffffff16908201526060016103c3565b6103a2611bde565b6103a26105f336600461423b565b611c1d565b6103d0611e3a565b6103b761060e366004614221565b61208a565b6103a261062136600461423b565b6120e3565b6103a2610634366004614221565b61216d565b6103a2610647366004614221565b6121ad565b6103d07fdf8b4c520ffe197c5343c6f5aec59570151ef9a492f2c624fd45ddde6135ec4281565b61068661068136600461440a565b612260565b6040516103c39291906146a9565b6103a26106a2366004614422565b612298565b6103a26106b536600461440a565b612568565b6103a26106c8366004614221565b6125e6565b600b5461057f906001600160a01b031681565b6103d0612670565b6103b76106f6366004614422565b61279f565b61070e610709366004614288565b6127ca565b6040805192151583526020830191909152016103c3565b600f546103d0565b6103a261073b366004614221565b6128f8565b600a5461057f906001600160a01b031681565b6103a26107613660046142e7565b612928565b6103a2612c1d565b6103d0600081565b61057f6107843660046144bc565b612c69565b6103d0612ca1565b6103d060125481565b6103d061329a565b6103a26107b0366004614221565b6132c9565b6103a2613306565b6103d0613336565b6103a26107d3366004614221565b6133c6565b6103d0600f5481565b6103b76107ef36600461455f565b61343b565b60055461057f906001600160a01b031681565b6103d0613503565b6103d0600e5481565b6103d07ff0887ba65ee2024ea881d91b74c2450ef19e1557f03bed3ea9f16b037cbe2dc981565b6103a261084d366004614422565b61354d565b6105b261086036600461440a565b61356a565b6103a2610873366004614221565b6135b2565b6103b7610886366004614221565b61366b565b6103a261089936600461440a565b613677565b6103a26108ac366004614221565b6136cf565b6103d0600c5481565b6013546103d0565b6103a26108d0366004614221565b613744565b6103a26108e3366004614221565b6137e8565b6103d0600d5481565b6103b76108ff366004614221565b613aa3565b60045461057f906001600160a01b031681565b6103d060105481565b6103b761092e366004614221565b613aaf565b6103d0610941366004614221565b60146020526000908152604090205481565b61068661096136600461440a565b613ac9565b61096f3361208a565b6001906109985760405162461bcd60e51b815260040161098f91906147d7565b60405180910390fd5b506109ba604051806060016040528060318152602001614c9360319139613b47565b6001600160a01b0382166109e05760405162461bcd60e51b815260040161098f90614a11565b60008111610a005760405162461bcd60e51b815260040161098f906148ac565b600480546040516370a0823160e01b815283926001600160a01b03909216916370a0823191610a319130910161467a565b60206040518083038186803b158015610a4957600080fd5b505afa158015610a5d573d6000803e3d6000fd5b505050506040513d601f19601f82011682018060405250810190610a819190614500565b1015610acf5760405162461bcd60e51b815260206004820181905260248201527f74726561737572792062616c616e636520697320696e73756666696369656e74604482015260640161098f565b610b0d6040518060400160405280601c81526020017b7265717565737454726173666572205f726563697069656e7420257360201b81525083613b8a565b610b48604051806040016040528060198152602001787265717565737454726173666572205f616d6f756e7420257360381b81525082613bcf565b6004805460405163a9059cbb60e01b81526001600160a01b039091169163a9059cbb91610b799186918691016146a9565b602060405180830381600087803b158015610b9357600080fd5b505af1158015610ba7573d6000803e3d6000fd5b505050506040513d601f19601f82011682018060405250810190610bcb91906143a7565b505050565b60006001600160e01b03198216637965db0b60e01b1480610c0157506301ffc9a760e01b6001600160e01b03198316145b92915050565b60168181548110610c1757600080fd5b600091825260209091200154905081565b60135460609081908190806001600160401b03811115610c5857634e487b7160e01b600052604160045260246000fd5b604051908082528060200260200182016040528015610c81578160200160208202803683370190505b509350806001600160401b03811115610caa57634e487b7160e01b600052604160045260246000fd5b604051908082528060200260200182016040528015610cd3578160200160208202803683370190505b509250806001600160401b03811115610cfc57634e487b7160e01b600052604160045260246000fd5b604051908082528060200260200182016040528015610d25578160200160208202803683370190505b50915060005b81811015610ec15760138181548110610d5457634e487b7160e01b600052603260045260246000fd5b600091825260209091206002909102015485516001600160a01b0390911690869083908110610d9357634e487b7160e01b600052603260045260246000fd5b60200260200101906001600160a01b031690816001600160a01b03168152505060138181548110610dd457634e487b7160e01b600052603260045260246000fd5b906000526020600020906002020160010160009054906101000a90046001600160a01b0316848281518110610e1957634e487b7160e01b600052603260045260246000fd5b60200260200101906001600160a01b031690816001600160a01b03168152505060138181548110610e5a57634e487b7160e01b600052603260045260246000fd5b906000526020600020906002020160010160149054906101000a900462ffffff16838281518110610e9b57634e487b7160e01b600052603260045260246000fd5b62ffffff9092166020928302919091019091015280610eb981614bb0565b915050610d2b565b5050909192565b6000601054600f54610ed861329a565b610ee29190614b33565b610eec9190614b13565b82600460009054906101000a90046001600160a01b03166001600160a01b03166318160ddd6040518163ffffffff1660e01b815260040160206040518083038186803b158015610f3b57600080fd5b505afa158015610f4f573d6000803e3d6000fd5b505050506040513d601f19601f82011682018060405250810190610f739190614500565b610f7d9190614afb565b11610f8a57506001919050565b506000919050565b919050565b60009081526017602052604090206001015490565b6000610c01600080516020614c138339815191528361279f565b610fcf3361366b565b600190610fef5760405162461bcd60e51b815260040161098f91906147d7565b50600084116110105760405162461bcd60e51b815260040161098f906148ac565b818410156110715760405162461bcd60e51b815260206004820152602860248201527f5f6d696e74416d6f756e74206973206c657373207468616e205f7472616e7366604482015267195c905b5bdd5b9d60c21b606482015260840161098f565b600480546040516340c10f1960e01b81526001600160a01b03909116916340c10f19916110a29130918991016146a9565b602060405180830381600087803b1580156110bc57600080fd5b505af11580156110d0573d6000803e3d6000fd5b505050506040513d601f19601f820116820180604052508101906110f491906143a7565b508115611138576001600160a01b0383166111215760405162461bcd60e51b815260040161098f90614a11565b600454611138906001600160a01b03168484613c14565b60006111448386614b52565b90506000811180156111535750815b156111615761116181613d24565b5050505050565b61117182610f97565b61117b8133613df1565b610bcb8383613e55565b6015546060908190806001600160401b038111156111b357634e487b7160e01b600052604160045260246000fd5b6040519080825280602002602001820160405280156111dc578160200160208202803683370190505b509250806001600160401b0381111561120557634e487b7160e01b600052604160045260246000fd5b60405190808252806020026020018201604052801561122e578160200160208202803683370190505b50915060005b8181101561132c576015818154811061125d57634e487b7160e01b600052603260045260246000fd5b600091825260209091206002909102015484516001600160a01b039091169085908390811061129c57634e487b7160e01b600052603260045260246000fd5b60200260200101906001600160a01b031690816001600160a01b031681525050601581815481106112dd57634e487b7160e01b600052603260045260246000fd5b90600052602060002090600202016001015483828151811061130f57634e487b7160e01b600052603260045260246000fd5b60209081029190910101528061132481614bb0565b915050611234565b50509091565b600061133c612ca1565b905090565b6000610eec61329a565b6001600160a01b03811633146113bb5760405162461bcd60e51b815260206004820152602f60248201527f416363657373436f6e74726f6c3a2063616e206f6e6c792072656e6f756e636560448201526e103937b632b9903337b91039b2b63360891b606482015260840161098f565b6113c58282613edb565b5050565b6113d233613aaf565b6113ee5760405162461bcd60e51b815260040161098f90614a39565b604051635139e51160e11b81526004810183905260009073__$9cfa9b0e3c0a9a6ba047022cc53a6c3f44$__9063a273ca229060240160206040518083038186803b15801561143c57600080fd5b505af4158015611450573d6000803e3d6000fd5b505050506040513d601f19601f820116820180604052508101906114749190614475565b9050600081600a81111561149857634e487b7160e01b600052602160045260246000fd5b14156114b65760405162461bcd60e51b815260040161098f906148d1565b6007600082600a8111156114da57634e487b7160e01b600052602160045260246000fd5b600a8111156114f957634e487b7160e01b600052602160045260246000fd5b8152602080820192909252604090810160009081206001600160a01b038616825290925290205460ff1615156001146115695760405162461bcd60e51b81526020600482015260126024820152716861736e2774207065726d697373696f6e7360701b604482015260640161098f565b60006007600083600a81111561158f57634e487b7160e01b600052602160045260246000fd5b600a8111156115ae57634e487b7160e01b600052602160045260246000fd5b8152602080820192909252604090810160009081206001600160a01b03871682529092528120805460ff191692151592909217909155806115ef84846127ca565b91509150818015611653575060006006600085600a81111561162157634e487b7160e01b600052602160045260246000fd5b600a81111561164057634e487b7160e01b600052602160045260246000fd5b8152602081019190915260400160002054115b156118d25760016006600085600a81111561167e57634e487b7160e01b600052602160045260246000fd5b600a81111561169d57634e487b7160e01b600052602160045260246000fd5b81526020810191909152604001600020546116b89190614b52565b811015611841576006600084600a8111156116e357634e487b7160e01b600052602160045260246000fd5b600a81111561170257634e487b7160e01b600052602160045260246000fd5b815260200190815260200160002060016006600086600a81111561173657634e487b7160e01b600052602160045260246000fd5b600a81111561175557634e487b7160e01b600052602160045260246000fd5b81526020810191909152604001600020546117709190614b52565b8154811061178e57634e487b7160e01b600052603260045260246000fd5b60009182526020822001546001600160a01b03169060069085600a8111156117c657634e487b7160e01b600052602160045260246000fd5b600a8111156117e557634e487b7160e01b600052602160045260246000fd5b8152602001908152602001600020828154811061181257634e487b7160e01b600052603260045260246000fd5b9060005260206000200160006101000a8154816001600160a01b0302191690836001600160a01b031602179055505b6006600084600a81111561186557634e487b7160e01b600052602160045260246000fd5b600a81111561188457634e487b7160e01b600052602160045260246000fd5b81526020019081526020016000208054806118af57634e487b7160e01b600052603160045260246000fd5b600082815260209020810160001990810180546001600160a01b03191690550190555b82600a8111156118f257634e487b7160e01b600052602160045260246000fd5b600080516020614c3383398151915285600060405161191292919061468e565b60405180910390a25050505050565b61192a33613aaf565b6119465760405162461bcd60e51b815260040161098f90614a39565b81600f541415806119575750600081115b6119735760405162461bcd60e51b815260040161098f906148fa565b61197d828261343b565b6119c05760405162461bcd60e51b8152602060048201526014602482015273756e617661696c61626c65206d696e745261746560601b604482015260640161098f565b81600f54146119cf57600f8290555b80156113c557600480546040516340c10f1960e01b81526001600160a01b03909116916340c10f1991610b799130918691016146a9565b60006007600073__$9cfa9b0e3c0a9a6ba047022cc53a6c3f44$__63a273ca22866040518263ffffffff1660e01b8152600401611a4591815260200190565b60206040518083038186803b158015611a5d57600080fd5b505af4158015611a71573d6000803e3d6000fd5b505050506040513d601f19601f82011682018060405250810190611a959190614475565b600a811115611ab457634e487b7160e01b600052602160045260246000fd5b600a811115611ad357634e487b7160e01b600052602160045260246000fd5b8152602080820192909252604090810160009081206001600160a01b038616825290925290205460ff16905092915050565b600080600060138481548110611b2b57634e487b7160e01b600052603260045260246000fd5b6000918252602090912060029091020154601380546001600160a01b039092169186908110611b6a57634e487b7160e01b600052603260045260246000fd5b906000526020600020906002020160010160009054906101000a90046001600160a01b031660138681548110611bb057634e487b7160e01b600052603260045260246000fd5b906000526020600020906002020160010160149054906101000a900462ffffff169250925092509193909250565b611be733613aaf565b611c035760405162461bcd60e51b815260040161098f90614a39565b611c1b600080516020614cc48339815191523361134b565b565b611c2633613aaf565b611c425760405162461bcd60e51b815260040161098f90614a39565b826001600160a01b038116611c695760405162461bcd60e51b815260040161098f9061487d565b826001600160a01b038116611c905760405162461bcd60e51b815260040161098f9061487d565b601354611d2e576040805160608101825260008082526020820181815292820181815260138054600181018255925291516002909102600080516020614c53833981519152810180546001600160a01b039384166001600160a01b03199091161790559251600080516020614c738339815191529093018054925162ffffff16600160a01b026001600160b81b031990931693909116929092171790555b6001600160a01b03851660009081526014602052604090205415611d845760405162461bcd60e51b815260206004820152600d60248201526c185b1c9958591e481859191959609a1b604482015260640161098f565b5050601380546001600160a01b039485166000818152601460209081526040808320859055805160608101825293845296881690830190815262ffffff958616968301968752600184018555939052516002909102600080516020614c53833981519152810180549287166001600160a01b0319909316929092179091559051600080516020614c7383398151915290910180549351909216600160a01b026001600160b81b0319909316931692909217179055565b6000611e69604051806060016040528060268152602001614ce460269139600b546001600160a01b0316613b8a565b604080518082018252601e81527f6765744554485072696365506572544f53206c69717569646974792025730000602080830191909152600b548351630d34328160e11b81529351611f28946001600160a01b0390921692631a6865029260048082019391829003018186803b158015611ee257600080fd5b505afa158015611ef6573d6000803e3d6000fd5b505050506040513d601f19601f82011682018060405250810190611f1a91906144d9565b6001600160801b0316613bcf565b600b546001600160a01b031615801590611fce5750600b60009054906101000a90046001600160a01b03166001600160a01b0316631a6865026040518163ffffffff1660e01b815260040160206040518083038186803b158015611f8b57600080fd5b505afa158015611f9f573d6000803e3d6000fd5b505050506040513d601f19601f82011682018060405250810190611fc391906144d9565b6001600160801b0316155b15611fe357600f5460105461133c9190614b13565b612004604051806060016040528060288152602001614d0a60289139613b47565b600560009054906101000a90046001600160a01b03166001600160a01b03166368afaca86040518163ffffffff1660e01b815260040160206040518083038186803b15801561205257600080fd5b505afa158015612066573d6000803e3d6000fd5b505050506040513d601f19601f8201168201806040525081019061133c9190614500565b6000600781600a5b600a8111156120b157634e487b7160e01b600052602160045260246000fd5b8152602080820192909252604090810160009081206001600160a01b039095168152939091529091205460ff16919050565b6120ec3361366b565b61212f5760405162461bcd60e51b815260206004820152601460248201527331b0b63632b91034b9903737ba103137b73232b960611b604482015260640161098f565b6001600160a01b03831660009081526014602052604090205415801561215d57506001600160a01b03831615155b15610bcb57610bcb838383611c1d565b61217633613aa3565b6121925760405162461bcd60e51b815260040161098f90614999565b6121aa600080516020614c1383398151915282611168565b50565b6121b633610fac565b806121c557506121c533613aa3565b6121e15760405162461bcd60e51b815260040161098f90614925565b6001600160a01b0381166122075760405162461bcd60e51b815260040161098f90614967565b336001600160a01b03821614156122305760405162461bcd60e51b815260040161098f906149e1565b612248600080516020614c1383398151915282611168565b6121aa600080516020614c138339815191523361134b565b6015818154811061227057600080fd5b6000918252602090912060029091020180546001909101546001600160a01b03909116915082565b6122a133613aaf565b6122bd5760405162461bcd60e51b815260040161098f90614a39565b604051635139e51160e11b81526004810183905260009073__$9cfa9b0e3c0a9a6ba047022cc53a6c3f44$__9063a273ca229060240160206040518083038186803b15801561230b57600080fd5b505af415801561231f573d6000803e3d6000fd5b505050506040513d601f19601f820116820180604052508101906123439190614475565b9050600081600a81111561236757634e487b7160e01b600052602160045260246000fd5b14156123855760405162461bcd60e51b815260040161098f906148d1565b6007600082600a8111156123a957634e487b7160e01b600052602160045260246000fd5b600a8111156123c857634e487b7160e01b600052602160045260246000fd5b8152602080820192909252604090810160009081206001600160a01b038616825290925290205460ff161561242d5760405162461bcd60e51b815260206004820152600b60248201526a185b1c9958591e481cd95d60aa1b604482015260640161098f565b60016007600083600a81111561245357634e487b7160e01b600052602160045260246000fd5b600a81111561247257634e487b7160e01b600052602160045260246000fd5b8152602080820192909252604090810160009081206001600160a01b03871682529092528120805460ff1916921515929092179091556124b283836127ca565b50905080612539576006600083600a8111156124de57634e487b7160e01b600052602160045260246000fd5b600a8111156124fd57634e487b7160e01b600052602160045260246000fd5b8152602080820192909252604001600090812080546001810182559082529190200180546001600160a01b0319166001600160a01b0385161790555b83600080516020614c3383398151915284600160405161255a92919061468e565b60405180910390a250505050565b61257133613aaf565b61258d5760405162461bcd60e51b815260040161098f90614a39565b60008111801561259f57508060115414155b6125e15760405162461bcd60e51b815260206004820152601360248201527277726f6e67205f6d696e696e756d56616c756560681b604482015260640161098f565b601155565b6125ef33613aa3565b61260b5760405162461bcd60e51b815260040161098f90614999565b6001600160a01b0381166126315760405162461bcd60e51b815260040161098f90614967565b336001600160a01b038216141561265a5760405162461bcd60e51b815260040161098f906149e1565b612665600082611168565b6121aa60003361134b565b600061269f604051806060016040528060268152602001614d3260269139600b546001600160a01b0316613b8a565b600b546001600160a01b0316158015906127455750600b60009054906101000a90046001600160a01b03166001600160a01b0316631a6865026040518163ffffffff1660e01b815260040160206040518083038186803b15801561270257600080fd5b505afa158015612716573d6000803e3d6000fd5b505050506040513d601f19601f8201168201806040525081019061273a91906144d9565b6001600160801b0316155b15612751575060115490565b600560009054906101000a90046001600160a01b03166001600160a01b0316638e549a456040518163ffffffff1660e01b815260040160206040518083038186803b15801561205257600080fd5b60009182526017602090815260408084206001600160a01b0393909316845291905290205460ff1690565b60008060006006600085600a8111156127f357634e487b7160e01b600052602160045260246000fd5b600a81111561281257634e487b7160e01b600052602160045260246000fd5b815260200190815260200160002080548060200260200160405190810160405280929190818152602001828054801561287457602002820191906000526020600020905b81546001600160a01b03168152600190910190602001808311612856575b5050505050905060005b81518110156128e7578181815181106128a757634e487b7160e01b600052603260045260246000fd5b60200260200101516001600160a01b0316866001600160a01b031614156128d5576001935091506128f19050565b806128df81614bb0565b91505061287e565b5060008092509250505b9250929050565b61290133613aa3565b61291d5760405162461bcd60e51b815260040161098f90614999565b6121aa600082613f42565b61293133613aaf565b61294d5760405162461bcd60e51b815260040161098f90614a39565b60008083511161298d5760405162461bcd60e51b815260206004820152600b60248201526a0f4cae4de40d8cadccee8d60ab1b604482015260640161098f565b81518351146129cd5760405162461bcd60e51b815260206004820152600c60248201526b0eee4dedcce40d8cadccee8d60a31b604482015260640161098f565b825160005b81811015612b025760006001600160a01b0316858281518110612a0557634e487b7160e01b600052603260045260246000fd5b60200260200101516001600160a01b03161415612a535760405162461bcd60e51b815260206004820152600c60248201526b7a65726f206164647265737360a01b604482015260640161098f565b6000848281518110612a7557634e487b7160e01b600052603260045260246000fd5b602002602001015111612abb5760405162461bcd60e51b815260206004820152600e60248201526d7a65726f205f70657263656e747360901b604482015260640161098f565b838181518110612adb57634e487b7160e01b600052603260045260246000fd5b602002602001015183612aee9190614afb565b925080612afa81614bb0565b9150506129d2565b5060648210612b455760405162461bcd60e51b815260206004820152600f60248201526e77726f6e67205f70657263656e747360881b604482015260640161098f565b612b5160156000614155565b60005b818110156111615760156040518060400160405280878481518110612b8957634e487b7160e01b600052603260045260246000fd5b60200260200101516001600160a01b03168152602001868481518110612bbf57634e487b7160e01b600052603260045260246000fd5b602090810291909101810151909152825460018082018555600094855293829020835160029092020180546001600160a01b0319166001600160a01b0390921691909117815591015191015580612c1581614bb0565b915050612b54565b612c2633610fac565b80612c355750612c3533613aa3565b612c515760405162461bcd60e51b815260040161098f90614925565b611c1b600080516020614c138339815191523361134b565b60066020528160005260406000208181548110612c8557600080fd5b6000918252602090912001546001600160a01b03169150829050565b60055460408051630d15f59560e31b815290516000928392839283926001600160a01b0316916368afaca8916004808301926020929190829003018186803b158015612cec57600080fd5b505afa158015612d00573d6000803e3d6000fd5b505050506040513d601f19601f82011682018060405250810190612d249190614500565b9050612d5c60405180604001604052806014815260200173746f734554485072696365506572544f5320257360601b81525082613bcf565b60005b6013548110156131a857600854601380546001600160a01b039092169183908110612d9a57634e487b7160e01b600052603260045260246000fd5b60009182526020909120600290910201546001600160a01b03161415612e4f576008546040516370a0823160e01b81526001600160a01b03909116906370a0823190612dea90309060040161467a565b60206040518083038186803b158015612e0257600080fd5b505afa158015612e16573d6000803e3d6000fd5b505050506040513d601f19601f82011682018060405250810190612e3a9190614500565b612e449085614afb565b935060019250613196565b60006001600160a01b031660138281548110612e7b57634e487b7160e01b600052603260045260246000fd5b60009182526020909120600290910201546001600160a01b031614801590612eec5750600454601380546001600160a01b039092169183908110612ecf57634e487b7160e01b600052603260045260246000fd5b60009182526020909120600290910201546001600160a01b031614155b15613196576000806000600560009054906101000a90046001600160a01b03166001600160a01b031663bb6f48ba60138681548110612f3b57634e487b7160e01b600052603260045260246000fd5b6000918252602090912060029091020154601380546001600160a01b039092169188908110612f7a57634e487b7160e01b600052603260045260246000fd5b60009182526020909120600290910201546040516370a0823160e01b81526001600160a01b03909116906370a0823190612fb890309060040161467a565b60206040518083038186803b158015612fd057600080fd5b505afa158015612fe4573d6000803e3d6000fd5b505050506040513d601f19601f820116820180604052508101906130089190614500565b6040518363ffffffff1660e01b81526004016130259291906146a9565b60806040518083038186803b15801561303d57600080fd5b505afa158015613051573d6000803e3d6000fd5b505050506040513d601f19601f8201168201806040525081019061307591906143c3565b9350509250925082156130935761308c8188614afb565b9650613192565b811561319257600b546001600160a01b03161580159061313f5750600b60009054906101000a90046001600160a01b03166001600160a01b0316631a6865026040518163ffffffff1660e01b815260040160206040518083038186803b1580156130fc57600080fd5b505afa158015613110573d6000803e3d6000fd5b505050506040513d601f19601f8201168201806040525081019061313491906144d9565b6001600160801b0316155b1561316857600f546010546131549083614b33565b61315e9190614b13565b61308c9088614afb565b670de0b6b3a764000061317b8683614b33565b6131859190614b13565b61318f9088614afb565b96505b5050505b806131a081614bb0565b915050612d5f565b50811580156131c157506008546001600160a01b031615155b15613253576008546040516370a0823160e01b81526001600160a01b03909116906370a08231906131f690309060040161467a565b60206040518083038186803b15801561320e57600080fd5b505afa158015613222573d6000803e3d6000fd5b505050506040513d601f19601f820116820180604052508101906132469190614500565b6132509084614afb565b92505b61325d4784614afb565b9250613292604051806040016040528060118152602001706261636b696e675265736572766520257360781b81525084613bcf565b509092915050565b6000670de0b6b3a76400006132ad612670565b6132b5612ca1565b6132bf9190614b33565b61133c9190614b13565b6132d233613aa3565b6132ee5760405162461bcd60e51b815260040161098f90614999565b6121aa600080516020614cc483398151915282611168565b61330f33613aa3565b61332b5760405162461bcd60e51b815260040161098f90614999565b611c1b60003361134b565b6000600460009054906101000a90046001600160a01b03166001600160a01b03166318160ddd6040518163ffffffff1660e01b815260040160206040518083038186803b15801561338657600080fd5b505afa15801561339a573d6000803e3d6000fd5b505050506040513d601f19601f820116820180604052508101906133be9190614500565b6132bf612ca1565b6133cf33613aaf565b6133eb5760405162461bcd60e51b815260040161098f90614a39565b600b546001600160a01b03828116911614156134195760405162461bcd60e51b815260040161098f90614a82565b600b80546001600160a01b0319166001600160a01b0392909216919091179055565b60006010548361344961329a565b6134539190614b33565b61345d9190614b13565b82600460009054906101000a90046001600160a01b03166001600160a01b03166318160ddd6040518163ffffffff1660e01b815260040160206040518083038186803b1580156134ac57600080fd5b505afa1580156134c0573d6000803e3d6000fd5b505050506040513d601f19601f820116820180604052508101906134e49190614500565b6134ee9190614afb565b116134fb57506001610c01565b506000610c01565b600480546040516370a0823160e01b81526000926001600160a01b03909216916370a08231916135359130910161467a565b60206040518083038186803b15801561205257600080fd5b61355682610f97565b6135608133613df1565b610bcb8383613edb565b6013818154811061357a57600080fd5b6000918252602090912060029091020180546001909101546001600160a01b03918216925090811690600160a01b900462ffffff1683565b6135bb33613aaf565b6135d75760405162461bcd60e51b815260040161098f90614a39565b6004805460405163095ea7b360e01b81526001600160a01b039091169163095ea7b3916136199185916d0166bb7f0435c9e717bb45005915602d1b91016146a9565b602060405180830381600087803b15801561363357600080fd5b505af1158015613647573d6000803e3d6000fd5b505050506040513d601f19601f820116820180604052508101906113c591906143a7565b60006007816009612092565b61368033613aaf565b61369c5760405162461bcd60e51b815260040161098f90614a39565b80601054141580156136ae5750600081115b6136ca5760405162461bcd60e51b815260040161098f906148fa565b601055565b6136d833613aaf565b6136f45760405162461bcd60e51b815260040161098f90614a39565b6009546001600160a01b03828116911614156137225760405162461bcd60e51b815260040161098f90614a82565b600980546001600160a01b0319166001600160a01b0392909216919091179055565b61374d33613aaf565b6137695760405162461bcd60e51b815260040161098f90614a39565b6001600160a01b03811661378f5760405162461bcd60e51b815260040161098f90614967565b336001600160a01b03821614156137b85760405162461bcd60e51b815260040161098f906149e1565b6137d0600080516020614cc483398151915282611168565b6121aa600080516020614cc48339815191523361134b565b6137f133613aaf565b61380d5760405162461bcd60e51b815260040161098f90614a39565b806001600160a01b0381166138345760405162461bcd60e51b815260040161098f9061487d565b6001600160a01b03821660009081526014602052604090205461388a5760405162461bcd60e51b815260206004820152600e60248201526d1b9bdd081c9959da5cdd195c995960921b604482015260640161098f565b6001600160a01b0382166000908152601460205260409020546013546138b290600190614b52565b811015613a30576000601382815481106138dc57634e487b7160e01b600052603260045260246000fd5b90600052602060002090600202019050601360016013805490506139009190614b52565b8154811061391e57634e487b7160e01b600052603260045260246000fd5b600091825260209091206002909102015481546001600160a01b0319166001600160a01b039091161781556013805461395990600190614b52565b8154811061397757634e487b7160e01b600052603260045260246000fd5b60009182526020909120600160029092020181015482820180546001600160a01b0319166001600160a01b039092169190911790556013805490916139bb91614b52565b815481106139d957634e487b7160e01b600052603260045260246000fd5b600091825260208083206001600290930201820154918401805462ffffff600160a01b948590041690930262ffffff60a01b199093169290921790915591546001600160a01b031681526014909152604090208190555b6001600160a01b0383166000908152601460205260408120556013805480613a6857634e487b7160e01b600052603160045260246000fd5b60008281526020902060026000199092019182020180546001600160a01b031916815560010180546001600160b81b03191690559055505050565b6000610c01818361279f565b6000610c01600080516020614cc48339815191528361279f565b60008060158381548110613aed57634e487b7160e01b600052603260045260246000fd5b6000918252602090912060029091020154601580546001600160a01b039092169185908110613b2c57634e487b7160e01b600052603260045260246000fd5b90600052602060002090600202016001015491509150915091565b6121aa81604051602401613b5b9190614778565b60408051601f198184030181529190526020810180516001600160e01b031663104c13eb60e21b179052613f4c565b6113c58282604051602401613ba092919061478b565b60408051601f198184030181529190526020810180516001600160e01b031663319af33360e01b179052613f4c565b6113c58282604051602401613be59291906147b5565b60408051601f198184030181529190526020810180516001600160e01b03166309710a9d60e41b179052613f4c565b600080846001600160a01b031663a9059cbb60e01b8585604051602401613c3c9291906146a9565b60408051601f198184030181529181526020820180516001600160e01b03166001600160e01b0319909416939093179092529051613c7a91906145ef565b6000604051808303816000865af19150503d8060008114613cb7576040519150601f19603f3d011682016040523d82523d6000602084013e613cbc565b606091505b5091509150818015613ce6575080511580613ce6575080806020019051810190613ce691906143a7565b6111615760405162461bcd60e51b815260206004820152600f60248201526e1514905394d1915497d19052531151608a1b604482015260640161098f565b601554156121aa5760005b6015548110156113c557613ddf60158281548110613d5d57634e487b7160e01b600052603260045260246000fd5b906000526020600020906002020160000160009054906101000a90046001600160a01b0316606460158481548110613da557634e487b7160e01b600052603260045260246000fd5b90600052602060002090600202016001015485613dc29190614b33565b613dcc9190614b13565b6004546001600160a01b03169190613c14565b80613de981614bb0565b915050613d2f565b613dfb828261279f565b6113c557613e13816001600160a01b03166014613f6d565b613e1e836020613f6d565b604051602001613e2f92919061460b565b60408051601f198184030181529082905262461bcd60e51b825261098f91600401614778565b613e5f828261279f565b6113c55760008281526017602090815260408083206001600160a01b03851684529091529020805460ff19166001179055613e973390565b6001600160a01b0316816001600160a01b0316837f2f8788117e7eff1d82e926ec794901d17c78024a50270940304540a733656f0d60405160405180910390a45050565b613ee5828261279f565b156113c55760008281526017602090815260408083206001600160a01b0385168085529252808320805460ff1916905551339285917ff6391f5c32d9c69d2a47ea670b442974b53935d1edc7fd64eb21e047a839171b9190a45050565b6113c58282613e55565b80516a636f6e736f6c652e6c6f67602083016000808483855afa5050505050565b60606000613f7c836002614b33565b613f87906002614afb565b6001600160401b03811115613fac57634e487b7160e01b600052604160045260246000fd5b6040519080825280601f01601f191660200182016040528015613fd6576020820181803683370190505b509050600360fc1b81600081518110613fff57634e487b7160e01b600052603260045260246000fd5b60200101906001600160f81b031916908160001a905350600f60fb1b8160018151811061403c57634e487b7160e01b600052603260045260246000fd5b60200101906001600160f81b031916908160001a9053506000614060846002614b33565b61406b906001614afb565b90505b60018111156140ff576f181899199a1a9b1b9c1cb0b131b232b360811b85600f16601081106140ad57634e487b7160e01b600052603260045260246000fd5b1a60f81b8282815181106140d157634e487b7160e01b600052603260045260246000fd5b60200101906001600160f81b031916908160001a90535060049490941c936140f881614b99565b905061406e565b50831561414e5760405162461bcd60e51b815260206004820181905260248201527f537472696e67733a20686578206c656e67746820696e73756666696369656e74604482015260640161098f565b9392505050565b50805460008255600202906000526020600020908101906121aa91905b808211156141975780546001600160a01b031916815560006001820155600201614172565b5090565b80356001600160a01b0381168114610f9257600080fd5b600082601f8301126141c2578081fd5b813560206141d76141d283614ad8565b614aa8565b80838252828201915082860187848660051b89010111156141f6578586fd5b855b85811015614214578135845292840192908401906001016141f8565b5090979650505050505050565b600060208284031215614232578081fd5b61414e8261419b565b60008060006060848603121561424f578182fd5b6142588461419b565b92506142666020850161419b565b9150604084013562ffffff8116811461427d578182fd5b809150509250925092565b6000806040838503121561429a578182fd5b6142a38361419b565b915060208301356142b381614c05565b809150509250929050565b600080604083850312156142d0578182fd5b6142d98361419b565b946020939093013593505050565b600080604083850312156142f9578182fd5b82356001600160401b038082111561430f578384fd5b818501915085601f830112614322578384fd5b813560206143326141d283614ad8565b8083825282820191508286018a848660051b8901011115614351578889fd5b8896505b8487101561437a576143668161419b565b835260019690960195918301918301614355565b5096505086013592505080821115614390578283fd5b5061439d858286016141b2565b9150509250929050565b6000602082840312156143b8578081fd5b815161414e81614bf7565b600080600080608085870312156143d8578081fd5b84516143e381614bf7565b60208601519094506143f481614bf7565b6040860151606090960151949790965092505050565b60006020828403121561441b578081fd5b5035919050565b60008060408385031215614434578182fd5b823591506144446020840161419b565b90509250929050565b60006020828403121561445e578081fd5b81356001600160e01b03198116811461414e578182fd5b600060208284031215614486578081fd5b815161414e81614c05565b600080604083850312156144a3578182fd5b82356144ae81614c05565b91506144446020840161419b565b600080604083850312156144ce578182fd5b82356142d981614c05565b6000602082840312156144ea578081fd5b81516001600160801b038116811461414e578182fd5b600060208284031215614511578081fd5b5051919050565b6000806000806080858703121561452d578182fd5b8435935061453d6020860161419b565b925060408501359150606085013561455481614bf7565b939692955090935050565b60008060408385031215614571578182fd5b50508035926020909101359150565b6000815180845260208085019450808401835b838110156145b85781516001600160a01b031687529582019590820190600101614593565b509495945050505050565b600081518084526145db816020860160208601614b69565b601f01601f19169290920160200192915050565b60008251614601818460208701614b69565b9190910192915050565b76020b1b1b2b9b9a1b7b73a3937b61d1030b1b1b7bab73a1604d1b81526000835161463d816017850160208801614b69565b7001034b99036b4b9b9b4b733903937b6329607d1b601791840191820152835161466e816028840160208801614b69565b01602801949350505050565b6001600160a01b0391909116815260200190565b6001600160a01b039290921682521515602082015260400190565b6001600160a01b03929092168252602082015260400190565b6060815260006146d56060830186614580565b6020838203818501526146e88287614580565b84810360408601528551808252828701935090820190845b8181101561472157845162ffffff1683529383019391830191600101614700565b509098975050505050505050565b6040815260006147426040830185614580565b828103602084810191909152845180835285820192820190845b818110156142145784518352938301939183019160010161475c565b60208152600061414e60208301846145c3565b60408152600061479e60408301856145c3565b905060018060a01b03831660208301529392505050565b6040815260006147c860408301856145c3565b90508260208301529392505050565b6000602080835281845483600182811c9150808316806147f857607f831692505b85831081141561481657634e487b7160e01b87526022600452602487fd5b87860183815260200181801561483357600181146148445761486e565b60ff1986168252878201965061486e565b60008b815260209020895b868110156148685781548482015290850190890161484f565b83019750505b50949998505050505050505050565b60208082526015908201527454726561737572793a7a65726f206164647265737360581b604082015260600190565b6020808252600b908201526a1e995c9bc8185b5bdd5b9d60aa1b604082015260600190565b6020808252600f908201526e2727a722903832b936b4b9b9b4b7b760891b604082015260600190565b602080825260119082015270636865636b20696e7075742076616c756560781b604082015260600190565b60208082526022908201527f41636365737369626c653a2043616c6c6572206973206e6f7420616e2061646d60408201526134b760f11b606082015260800190565b60208082526018908201527741636365737369626c653a207a65726f206164647265737360401b604082015260600190565b60208082526028908201527f41636365737369626c653a2043616c6c6572206973206e6f7420616e2070726f6040820152673c3c9030b236b4b760c11b606082015260800190565b60208082526016908201527520b1b1b2b9b9b4b136329d1039b0b6b29030b236b4b760511b604082015260600190565b6020808252600e908201526d1e995c9bc81c9958da5c1a595b9d60921b604082015260600190565b60208082526029908201527f41636365737369626c653a2043616c6c6572206973206e6f7420616e20706f6c60408201526834b1bc9030b236b4b760b91b606082015260800190565b6020808252600c908201526b73616d65206164647265737360a01b604082015260600190565b604051601f8201601f191681016001600160401b0381118282101715614ad057614ad0614be1565b604052919050565b60006001600160401b03821115614af157614af1614be1565b5060051b60200190565b60008219821115614b0e57614b0e614bcb565b500190565b600082614b2e57634e487b7160e01b81526012600452602481fd5b500490565b6000816000190483118215151615614b4d57614b4d614bcb565b500290565b600082821015614b6457614b64614bcb565b500390565b60005b83811015614b84578181015183820152602001614b6c565b83811115614b93576000848401525b50505050565b600081614ba857614ba8614bcb565b506000190190565b6000600019821415614bc457614bc4614bcb565b5060010190565b634e487b7160e01b600052601160045260246000fd5b634e487b7160e01b600052604160045260246000fd5b80151581146121aa57600080fd5b600b81106121aa57600080fdfe52eafc11f6f81f86878bffd31109a0d92f37506527754f00788853ff9f63b1303c6eb44f3a083ba65fca4eae750beac5efa33a89dec0e50004b62cbb835cc0b666de8ffda797e3de9c05e8fc57b3bf0ec28a930d40b0d285d93c06501cf6a09066de8ffda797e3de9c05e8fc57b3bf0ec28a930d40b0d285d93c06501cf6a0912d2d2d2d2d2d2d2d2d2d2d2d207265717565737454726173666572202d2d2d2d2d2d2d2d2d2d2d2d2d2d2d2d2d2d2d2d2dfb5864e8ff833c3cb2d2d08505e82ff02a43554c74a35d4f5a64e852612783116765744554485072696365506572544f5320706f6f6c41646472657373544f534554482025736765744554485072696365506572544f53206c6971756964697479206973206e6f74207a65726f20676574544f53507269636550657245544820706f6f6c41646472657373544f53455448202573a2646970667358221220dce66f09514ca5deb5ebb2135127e0a77d69daedc4dca187149b48f39884150364736f6c63430008040033",
  "linkReferences": {
    "contracts/libraries/LibTreasury.sol": {
      "LibTreasury": [
        {
          "length": 20,
          "start": 5668
        },
        {
          "length": 20,
          "start": 7211
        },
        {
          "length": 20,
          "start": 9459
        }
      ]
    }
  },
  "deployedLinkReferences": {
    "contracts/libraries/LibTreasury.sol": {
      "LibTreasury": [
        {
          "length": 20,
          "start": 5127
        },
        {
          "length": 20,
          "start": 6670
        },
        {
          "length": 20,
          "start": 8918
        }
      ]
    }
  }
}