{
  "_format": "hh-sol-artifact-1",
  "contractName": "Treasury",
  "sourceName": "contracts/Treasury.sol",
  "abi": [
    {
      "inputs": [],
      "stateMutability": "nonpayable",
      "type": "constructor"
    },
    {
      "anonymous": false,
      "inputs": [
        {
          "indexed": false,
          "internalType": "address",
          "name": "_address",
          "type": "address"
        }
      ],
      "name": "AddedBackingList",
      "type": "event"
    },
    {
      "anonymous": false,
      "inputs": [
        {
          "indexed": false,
          "internalType": "address",
          "name": "_address",
          "type": "address"
        },
        {
          "indexed": false,
          "internalType": "address",
          "name": "_tosPooladdress",
          "type": "address"
        },
        {
          "indexed": false,
          "internalType": "uint24",
          "name": "_fee",
          "type": "uint24"
        }
      ],
      "name": "AddedBondAsset",
      "type": "event"
    },
    {
      "anonymous": false,
      "inputs": [
        {
          "indexed": false,
          "internalType": "address",
          "name": "_address",
          "type": "address"
        }
      ],
      "name": "DeletedBackingList",
      "type": "event"
    },
    {
      "anonymous": false,
      "inputs": [
        {
          "indexed": false,
          "internalType": "address",
          "name": "to",
          "type": "address"
        },
        {
          "indexed": false,
          "internalType": "uint256",
          "name": "amount",
          "type": "uint256"
        }
      ],
      "name": "DistributedFoundation",
      "type": "event"
    },
    {
      "anonymous": false,
      "inputs": [
        {
          "indexed": false,
          "internalType": "address",
          "name": "addr",
          "type": "address"
        },
        {
          "indexed": true,
          "internalType": "uint256",
          "name": "status",
          "type": "uint256"
        },
        {
          "indexed": false,
          "internalType": "bool",
          "name": "result",
          "type": "bool"
        }
      ],
      "name": "Permissioned",
      "type": "event"
    },
    {
      "anonymous": false,
      "inputs": [
        {
          "indexed": false,
          "internalType": "address",
          "name": "_recipient",
          "type": "address"
        },
        {
          "indexed": false,
          "internalType": "uint256",
          "name": "_amount",
          "type": "uint256"
        }
      ],
      "name": "RequestedTransfer",
      "type": "event"
    },
    {
      "anonymous": false,
      "inputs": [
        {
          "indexed": true,
          "internalType": "bytes32",
          "name": "role",
          "type": "bytes32"
        },
        {
          "indexed": true,
          "internalType": "bytes32",
          "name": "previousAdminRole",
          "type": "bytes32"
        },
        {
          "indexed": true,
          "internalType": "bytes32",
          "name": "newAdminRole",
          "type": "bytes32"
        }
      ],
      "name": "RoleAdminChanged",
      "type": "event"
    },
    {
      "anonymous": false,
      "inputs": [
        {
          "indexed": true,
          "internalType": "bytes32",
          "name": "role",
          "type": "bytes32"
        },
        {
          "indexed": true,
          "internalType": "address",
          "name": "account",
          "type": "address"
        },
        {
          "indexed": true,
          "internalType": "address",
          "name": "sender",
          "type": "address"
        }
      ],
      "name": "RoleGranted",
      "type": "event"
    },
    {
      "anonymous": false,
      "inputs": [
        {
          "indexed": true,
          "internalType": "bytes32",
          "name": "role",
          "type": "bytes32"
        },
        {
          "indexed": true,
          "internalType": "address",
          "name": "account",
          "type": "address"
        },
        {
          "indexed": true,
          "internalType": "address",
          "name": "sender",
          "type": "address"
        }
      ],
      "name": "RoleRevoked",
      "type": "event"
    },
    {
      "anonymous": false,
      "inputs": [
        {
          "indexed": false,
          "internalType": "uint256",
          "name": "_mintAmount",
          "type": "uint256"
        },
        {
          "indexed": false,
          "internalType": "bool",
          "name": "_distribute",
          "type": "bool"
        }
      ],
      "name": "RquestedMint",
      "type": "event"
    },
    {
      "anonymous": false,
      "inputs": [
        {
          "indexed": false,
          "internalType": "address[]",
          "name": "_addr",
          "type": "address[]"
        },
        {
          "indexed": false,
          "internalType": "uint256[]",
          "name": "_percents",
          "type": "uint256[]"
        }
      ],
      "name": "SetFoundationDistributeInfo",
      "type": "event"
    },
    {
      "anonymous": false,
      "inputs": [
        {
          "indexed": false,
          "internalType": "uint256",
          "name": "mrRate",
          "type": "uint256"
        },
        {
          "indexed": false,
          "internalType": "uint256",
          "name": "amount",
          "type": "uint256"
        }
      ],
      "name": "SetMintRate",
      "type": "event"
    },
    {
      "anonymous": false,
      "inputs": [
        {
          "indexed": false,
          "internalType": "uint256",
          "name": "_mintRateDenominator",
          "type": "uint256"
        }
      ],
      "name": "SetMintRateDenominator",
      "type": "event"
    },
    {
      "anonymous": false,
      "inputs": [
        {
          "indexed": false,
          "internalType": "address",
          "name": "_poolAddressTOSETH",
          "type": "address"
        }
      ],
      "name": "SetPoolAddressTOSETH",
      "type": "event"
    },
    {
      "anonymous": false,
      "inputs": [
        {
          "indexed": false,
          "internalType": "address",
          "name": "_uniswapFactory",
          "type": "address"
        }
      ],
      "name": "SetUniswapV3Factory",
      "type": "event"
    },
    {
      "inputs": [],
      "name": "ADMIN_ROLE",
      "outputs": [
        {
          "internalType": "bytes32",
          "name": "",
          "type": "bytes32"
        }
      ],
      "stateMutability": "view",
      "type": "function"
    },
    {
      "inputs": [],
      "name": "BURNER_ROLE",
      "outputs": [
        {
          "internalType": "bytes32",
          "name": "",
          "type": "bytes32"
        }
      ],
      "stateMutability": "view",
      "type": "function"
    },
    {
      "inputs": [],
      "name": "DEFAULT_ADMIN_ROLE",
      "outputs": [
        {
          "internalType": "bytes32",
          "name": "",
          "type": "bytes32"
        }
      ],
      "stateMutability": "view",
      "type": "function"
    },
    {
      "inputs": [],
      "name": "MINTER_ROLE",
      "outputs": [
        {
          "internalType": "bytes32",
          "name": "",
          "type": "bytes32"
        }
      ],
      "stateMutability": "view",
      "type": "function"
    },
    {
      "inputs": [],
      "name": "POLICY_ROLE",
      "outputs": [
        {
          "internalType": "bytes32",
          "name": "",
          "type": "bytes32"
        }
      ],
      "stateMutability": "view",
      "type": "function"
    },
    {
      "inputs": [],
      "name": "PROJECT_ADMIN_ROLE",
      "outputs": [
        {
          "internalType": "bytes32",
          "name": "",
          "type": "bytes32"
        }
      ],
      "stateMutability": "view",
      "type": "function"
    },
    {
      "inputs": [
        {
          "internalType": "address",
          "name": "account",
          "type": "address"
        }
      ],
      "name": "addAdmin",
      "outputs": [],
      "stateMutability": "nonpayable",
      "type": "function"
    },
    {
      "inputs": [
        {
          "internalType": "address",
          "name": "_address",
          "type": "address"
        }
      ],
      "name": "addBackingList",
      "outputs": [],
      "stateMutability": "nonpayable",
      "type": "function"
    },
    {
      "inputs": [
        {
          "internalType": "address",
          "name": "_address",
          "type": "address"
        }
      ],
      "name": "addBondAsset",
      "outputs": [],
      "stateMutability": "nonpayable",
      "type": "function"
    },
    {
      "inputs": [
        {
          "internalType": "address",
          "name": "_account",
          "type": "address"
        }
      ],
      "name": "addPolicy",
      "outputs": [],
      "stateMutability": "nonpayable",
      "type": "function"
    },
    {
      "inputs": [
        {
          "internalType": "address",
          "name": "_owner",
          "type": "address"
        }
      ],
      "name": "addProxyAdmin",
      "outputs": [],
      "stateMutability": "nonpayable",
      "type": "function"
    },
    {
      "inputs": [],
      "name": "allBacking",
      "outputs": [
        {
          "internalType": "address[]",
          "name": "",
          "type": "address[]"
        }
      ],
      "stateMutability": "view",
      "type": "function"
    },
    {
      "inputs": [],
      "name": "allMinting",
      "outputs": [
        {
          "internalType": "address[]",
          "name": "mintAddress",
          "type": "address[]"
        },
        {
          "internalType": "uint256[]",
          "name": "mintPercents",
          "type": "uint256[]"
        }
      ],
      "stateMutability": "view",
      "type": "function"
    },
    {
      "inputs": [],
      "name": "backingRateETHPerTOS",
      "outputs": [
        {
          "internalType": "uint256",
          "name": "",
          "type": "uint256"
        }
      ],
      "stateMutability": "view",
      "type": "function"
    },
    {
      "inputs": [],
      "name": "backingReserve",
      "outputs": [
        {
          "internalType": "uint256",
          "name": "",
          "type": "uint256"
        }
      ],
      "stateMutability": "view",
      "type": "function"
    },
    {
      "inputs": [],
      "name": "backingReserveETH",
      "outputs": [
        {
          "internalType": "uint256",
          "name": "",
          "type": "uint256"
        }
      ],
      "stateMutability": "view",
      "type": "function"
    },
    {
      "inputs": [],
      "name": "backingReserveTOS",
      "outputs": [
        {
          "internalType": "uint256",
          "name": "",
          "type": "uint256"
        }
      ],
      "stateMutability": "view",
      "type": "function"
    },
    {
      "inputs": [
        {
          "internalType": "uint256",
          "name": "",
          "type": "uint256"
        }
      ],
      "name": "backings",
      "outputs": [
        {
          "internalType": "address",
          "name": "",
          "type": "address"
        }
      ],
      "stateMutability": "view",
      "type": "function"
    },
    {
      "inputs": [],
      "name": "calculator",
      "outputs": [
        {
          "internalType": "address",
          "name": "",
          "type": "address"
        }
      ],
      "stateMutability": "view",
      "type": "function"
    },
    {
      "inputs": [
        {
          "internalType": "uint256",
          "name": "amount",
          "type": "uint256"
        }
      ],
      "name": "checkTosSolvency",
      "outputs": [
        {
          "internalType": "bool",
          "name": "",
          "type": "bool"
        }
      ],
      "stateMutability": "view",
      "type": "function"
    },
    {
      "inputs": [
        {
          "internalType": "uint256",
          "name": "_checkMintRate",
          "type": "uint256"
        },
        {
          "internalType": "uint256",
          "name": "amount",
          "type": "uint256"
        }
      ],
      "name": "checkTosSolvencyAfterTOSMint",
      "outputs": [
        {
          "internalType": "bool",
          "name": "",
          "type": "bool"
        }
      ],
      "stateMutability": "view",
      "type": "function"
    },
    {
      "inputs": [
        {
          "internalType": "address",
          "name": "_address",
          "type": "address"
        }
      ],
      "name": "deleteBackingList",
      "outputs": [],
      "stateMutability": "nonpayable",
      "type": "function"
    },
    {
      "inputs": [
        {
          "internalType": "uint256",
          "name": "_status",
          "type": "uint256"
        },
        {
          "internalType": "address",
          "name": "_toDisable",
          "type": "address"
        }
      ],
      "name": "disable",
      "outputs": [],
      "stateMutability": "nonpayable",
      "type": "function"
    },
    {
      "inputs": [
        {
          "internalType": "uint256",
          "name": "_status",
          "type": "uint256"
        },
        {
          "internalType": "address",
          "name": "_address",
          "type": "address"
        }
      ],
      "name": "enable",
      "outputs": [],
      "stateMutability": "nonpayable",
      "type": "function"
    },
    {
      "inputs": [],
      "name": "enableStaking",
      "outputs": [
        {
          "internalType": "uint256",
          "name": "",
          "type": "uint256"
        }
      ],
      "stateMutability": "view",
      "type": "function"
    },
    {
      "inputs": [],
      "name": "foundationAmount",
      "outputs": [
        {
          "internalType": "uint256",
          "name": "",
          "type": "uint256"
        }
      ],
      "stateMutability": "view",
      "type": "function"
    },
    {
      "inputs": [],
      "name": "foundationDistribute",
      "outputs": [],
      "stateMutability": "nonpayable",
      "type": "function"
    },
    {
      "inputs": [],
      "name": "foundationTotalPercentage",
      "outputs": [
        {
          "internalType": "uint256",
          "name": "",
          "type": "uint256"
        }
      ],
      "stateMutability": "view",
      "type": "function"
    },
    {
      "inputs": [],
      "name": "getETHPricePerTOS",
      "outputs": [
        {
          "internalType": "uint256",
          "name": "",
          "type": "uint256"
        }
      ],
      "stateMutability": "view",
      "type": "function"
    },
    {
      "inputs": [],
      "name": "getMintRate",
      "outputs": [
        {
          "internalType": "uint256",
          "name": "",
          "type": "uint256"
        }
      ],
      "stateMutability": "view",
      "type": "function"
    },
    {
      "inputs": [
        {
          "internalType": "bytes32",
          "name": "role",
          "type": "bytes32"
        }
      ],
      "name": "getRoleAdmin",
      "outputs": [
        {
          "internalType": "bytes32",
          "name": "",
          "type": "bytes32"
        }
      ],
      "stateMutability": "view",
      "type": "function"
    },
    {
      "inputs": [],
      "name": "getTOSPricePerETH",
      "outputs": [
        {
          "internalType": "uint256",
          "name": "",
          "type": "uint256"
        }
      ],
      "stateMutability": "view",
      "type": "function"
    },
    {
      "inputs": [
        {
          "internalType": "bytes32",
          "name": "role",
          "type": "bytes32"
        },
        {
          "internalType": "address",
          "name": "account",
          "type": "address"
        }
      ],
      "name": "grantRole",
      "outputs": [],
      "stateMutability": "nonpayable",
      "type": "function"
    },
    {
      "inputs": [
        {
          "internalType": "uint256",
          "name": "role",
          "type": "uint256"
        },
        {
          "internalType": "address",
          "name": "account",
          "type": "address"
        }
      ],
      "name": "hasPermission",
      "outputs": [
        {
          "internalType": "bool",
          "name": "",
          "type": "bool"
        }
      ],
      "stateMutability": "view",
      "type": "function"
    },
    {
      "inputs": [
        {
          "internalType": "bytes32",
          "name": "role",
          "type": "bytes32"
        },
        {
          "internalType": "address",
          "name": "account",
          "type": "address"
        }
      ],
      "name": "hasRole",
      "outputs": [
        {
          "internalType": "bool",
          "name": "",
          "type": "bool"
        }
      ],
      "stateMutability": "view",
      "type": "function"
    },
    {
      "inputs": [
        {
          "internalType": "address",
          "name": "_address",
          "type": "address"
        },
        {
          "internalType": "enum LibTreasury.STATUS",
          "name": "_status",
          "type": "uint8"
        }
      ],
      "name": "indexInRegistry",
      "outputs": [
        {
          "internalType": "bool",
          "name": "",
          "type": "bool"
        },
        {
          "internalType": "uint256",
          "name": "",
          "type": "uint256"
        }
      ],
      "stateMutability": "view",
      "type": "function"
    },
    {
      "inputs": [
        {
          "internalType": "address",
          "name": "account",
          "type": "address"
        }
      ],
      "name": "isAdmin",
      "outputs": [
        {
          "internalType": "bool",
          "name": "",
          "type": "bool"
        }
      ],
      "stateMutability": "view",
      "type": "function"
    },
    {
      "inputs": [
        {
          "internalType": "address",
          "name": "account",
          "type": "address"
        }
      ],
      "name": "isBonder",
      "outputs": [
        {
          "internalType": "bool",
          "name": "",
          "type": "bool"
        }
      ],
      "stateMutability": "view",
      "type": "function"
    },
    {
      "inputs": [
        {
          "internalType": "address",
          "name": "account",
          "type": "address"
        }
      ],
      "name": "isPolicy",
      "outputs": [
        {
          "internalType": "bool",
          "name": "",
          "type": "bool"
        }
      ],
      "stateMutability": "view",
      "type": "function"
    },
    {
      "inputs": [
        {
          "internalType": "address",
          "name": "account",
          "type": "address"
        }
      ],
      "name": "isProxyAdmin",
      "outputs": [
        {
          "internalType": "bool",
          "name": "",
          "type": "bool"
        }
      ],
      "stateMutability": "view",
      "type": "function"
    },
    {
      "inputs": [
        {
          "internalType": "address",
          "name": "account",
          "type": "address"
        }
      ],
      "name": "isStaker",
      "outputs": [
        {
          "internalType": "bool",
          "name": "",
          "type": "bool"
        }
      ],
      "stateMutability": "view",
      "type": "function"
    },
    {
      "inputs": [
        {
          "internalType": "uint256",
          "name": "",
          "type": "uint256"
        }
      ],
      "name": "lpTokens",
      "outputs": [
        {
          "internalType": "uint256",
          "name": "",
          "type": "uint256"
        }
      ],
      "stateMutability": "view",
      "type": "function"
    },
    {
      "inputs": [],
      "name": "mintRate",
      "outputs": [
        {
          "internalType": "uint256",
          "name": "",
          "type": "uint256"
        }
      ],
      "stateMutability": "view",
      "type": "function"
    },
    {
      "inputs": [],
      "name": "mintRateDenominator",
      "outputs": [
        {
          "internalType": "uint256",
          "name": "",
          "type": "uint256"
        }
      ],
      "stateMutability": "view",
      "type": "function"
    },
    {
      "inputs": [
        {
          "internalType": "uint256",
          "name": "",
          "type": "uint256"
        }
      ],
      "name": "mintings",
      "outputs": [
        {
          "internalType": "address",
          "name": "mintAddress",
          "type": "address"
        },
        {
          "internalType": "uint256",
          "name": "mintPercents",
          "type": "uint256"
        }
      ],
      "stateMutability": "view",
      "type": "function"
    },
    {
      "inputs": [
        {
          "internalType": "enum LibTreasury.STATUS",
          "name": "",
          "type": "uint8"
        },
        {
          "internalType": "address",
          "name": "",
          "type": "address"
        }
      ],
      "name": "permissions",
      "outputs": [
        {
          "internalType": "bool",
          "name": "",
          "type": "bool"
        }
      ],
      "stateMutability": "view",
      "type": "function"
    },
    {
      "inputs": [],
      "name": "poolAddressTOSETH",
      "outputs": [
        {
          "internalType": "address",
          "name": "",
          "type": "address"
        }
      ],
      "stateMutability": "view",
      "type": "function"
    },
    {
      "inputs": [
        {
          "internalType": "enum LibTreasury.STATUS",
          "name": "",
          "type": "uint8"
        },
        {
          "internalType": "uint256",
          "name": "",
          "type": "uint256"
        }
      ],
      "name": "registry",
      "outputs": [
        {
          "internalType": "address",
          "name": "",
          "type": "address"
        }
      ],
      "stateMutability": "view",
      "type": "function"
    },
    {
      "inputs": [],
      "name": "removeAdmin",
      "outputs": [],
      "stateMutability": "nonpayable",
      "type": "function"
    },
    {
      "inputs": [],
      "name": "removePolicy",
      "outputs": [],
      "stateMutability": "nonpayable",
      "type": "function"
    },
    {
      "inputs": [],
      "name": "removeProxyAdmin",
      "outputs": [],
      "stateMutability": "nonpayable",
      "type": "function"
    },
    {
      "inputs": [
        {
          "internalType": "bytes32",
          "name": "role",
          "type": "bytes32"
        },
        {
          "internalType": "address",
          "name": "account",
          "type": "address"
        }
      ],
      "name": "renounceRole",
      "outputs": [],
      "stateMutability": "nonpayable",
      "type": "function"
    },
    {
      "inputs": [
        {
          "internalType": "uint256",
          "name": "_mintAmount",
          "type": "uint256"
        },
        {
          "internalType": "bool",
          "name": "_distribute",
          "type": "bool"
        }
      ],
      "name": "requestMint",
      "outputs": [],
      "stateMutability": "nonpayable",
      "type": "function"
    },
    {
      "inputs": [
        {
          "internalType": "address",
          "name": "_recipient",
          "type": "address"
        },
        {
          "internalType": "uint256",
          "name": "_amount",
          "type": "uint256"
        }
      ],
      "name": "requestTransfer",
      "outputs": [],
      "stateMutability": "nonpayable",
      "type": "function"
    },
    {
      "inputs": [
        {
          "internalType": "bytes32",
          "name": "role",
          "type": "bytes32"
        },
        {
          "internalType": "address",
          "name": "account",
          "type": "address"
        }
      ],
      "name": "revokeRole",
      "outputs": [],
      "stateMutability": "nonpayable",
      "type": "function"
    },
    {
      "inputs": [
        {
          "internalType": "address[]",
          "name": "_address",
          "type": "address[]"
        },
        {
          "internalType": "uint256[]",
          "name": "_percents",
          "type": "uint256[]"
        }
      ],
      "name": "setFoundationDistributeInfo",
      "outputs": [],
      "stateMutability": "nonpayable",
      "type": "function"
    },
    {
      "inputs": [
        {
          "internalType": "uint256",
          "name": "_mrRate",
          "type": "uint256"
        },
        {
          "internalType": "uint256",
          "name": "amount",
          "type": "uint256"
        }
      ],
      "name": "setMR",
      "outputs": [],
      "stateMutability": "nonpayable",
      "type": "function"
    },
    {
      "inputs": [
        {
          "internalType": "uint256",
          "name": "_mintRateDenominator",
          "type": "uint256"
        }
      ],
      "name": "setMintRateDenominator",
      "outputs": [],
      "stateMutability": "nonpayable",
      "type": "function"
    },
    {
      "inputs": [
        {
          "internalType": "address",
          "name": "_poolAddressTOSETH",
          "type": "address"
        }
      ],
      "name": "setPoolAddressTOSETH",
      "outputs": [],
      "stateMutability": "nonpayable",
      "type": "function"
    },
    {
      "inputs": [
        {
          "internalType": "address",
          "name": "_uniswapFactory",
          "type": "address"
        }
      ],
      "name": "setUniswapV3Factory",
      "outputs": [],
      "stateMutability": "nonpayable",
      "type": "function"
    },
    {
      "inputs": [],
      "name": "stakingV2",
      "outputs": [
        {
          "internalType": "address",
          "name": "",
          "type": "address"
        }
      ],
      "stateMutability": "view",
      "type": "function"
    },
    {
      "inputs": [
        {
          "internalType": "bytes4",
          "name": "interfaceId",
          "type": "bytes4"
        }
      ],
      "name": "supportsInterface",
      "outputs": [
        {
          "internalType": "bool",
          "name": "",
          "type": "bool"
        }
      ],
      "stateMutability": "view",
      "type": "function"
    },
    {
      "inputs": [],
      "name": "tos",
      "outputs": [
        {
          "internalType": "contract IERC20",
          "name": "",
          "type": "address"
        }
      ],
      "stateMutability": "view",
      "type": "function"
    },
    {
      "inputs": [],
      "name": "totalBacking",
      "outputs": [
        {
          "internalType": "uint256",
          "name": "",
          "type": "uint256"
        }
      ],
      "stateMutability": "view",
      "type": "function"
    },
    {
      "inputs": [],
      "name": "totalMinting",
      "outputs": [
        {
          "internalType": "uint256",
          "name": "",
          "type": "uint256"
        }
      ],
      "stateMutability": "view",
      "type": "function"
    },
    {
      "inputs": [
        {
          "internalType": "address",
          "name": "newAdmin",
          "type": "address"
        }
      ],
      "name": "transferAdmin",
      "outputs": [],
      "stateMutability": "nonpayable",
      "type": "function"
    },
    {
      "inputs": [
        {
          "internalType": "address",
          "name": "newAdmin",
          "type": "address"
        }
      ],
      "name": "transferPolicyAdmin",
      "outputs": [],
      "stateMutability": "nonpayable",
      "type": "function"
    },
    {
      "inputs": [
        {
          "internalType": "address",
          "name": "newAdmin",
          "type": "address"
        }
      ],
      "name": "transferProxyAdmin",
      "outputs": [],
      "stateMutability": "nonpayable",
      "type": "function"
    },
    {
      "inputs": [],
      "name": "uniswapV3Factory",
      "outputs": [
        {
          "internalType": "address",
          "name": "",
          "type": "address"
        }
      ],
      "stateMutability": "view",
      "type": "function"
    },
    {
      "inputs": [
        {
          "internalType": "uint256",
          "name": "_index",
          "type": "uint256"
        }
      ],
      "name": "viewMintingInfo",
      "outputs": [
        {
          "internalType": "address",
          "name": "mintAddress",
          "type": "address"
        },
        {
          "internalType": "uint256",
          "name": "mintPercents",
          "type": "uint256"
        }
      ],
      "stateMutability": "view",
      "type": "function"
    },
    {
      "inputs": [],
      "name": "wethAddress",
      "outputs": [
        {
          "internalType": "address",
          "name": "",
          "type": "address"
        }
      ],
      "stateMutability": "view",
      "type": "function"
    },
    {
      "inputs": [
        {
          "internalType": "address",
          "name": "account",
          "type": "address"
        }
      ],
      "name": "withdrawEther",
      "outputs": [],
      "stateMutability": "nonpayable",
      "type": "function"
    }
  ],
  "bytecode": "0x60c0604052601660808190527f54726561737572793a206e6f742061636365707465640000000000000000000060a09081526200004091600091906200012a565b506040805180820190915260168082527f54726561737572793a206e6f7420617070726f76656400000000000000000000602090920191825262000087916001916200012a565b506040805180820190915260178082527f54726561737572793a20696e76616c696420746f6b656e0000000000000000006020909201918252620000ce916002916200012a565b5060408051808201909152601f8082527f54726561737572793a20696e73756666696369656e7420726573657276657300602090920191825262000115916003916200012a565b503480156200012357600080fd5b506200020d565b8280546200013890620001d0565b90600052602060002090601f0160209004810192826200015c5760008555620001a7565b82601f106200017757805160ff1916838001178555620001a7565b82800160010185558215620001a7579182015b82811115620001a75782518255916020019190600101906200018a565b50620001b5929150620001b9565b5090565b5b80821115620001b55760008155600101620001ba565b600181811c90821680620001e557607f821691505b602082108114156200020757634e487b7160e01b600052602260045260246000fd5b50919050565b614372806200021d6000396000f3fe608060405234801561001057600080fd5b50600436106103485760003560e01c806393988b53116101bb57806393988b531461063d57806396f0bd611461066757806396f1557c1461066f578063976b58e9146106825780639982f45e1461068b5780639a202d471461069e5780639ea64985146106a6578063a217fddf146106b9578063a44b8287146106c1578063aa5fc794146106d4578063aa7e445c146106e7578063af933b57146106ef578063b11a35ea14610702578063b3bc8ae81461070a578063b84ef08114610712578063be72f2d314610725578063c5bb95bc1461072d578063c62a0bd814610735578063ca0dcf1614610748578063ca2c2a5914610751578063ce3e39c014610764578063d11aca6214610777578063d53913931461077f578063d547741f146107a6578063d6f9b343146107b9578063da9c8864146107cf578063dc4655a1146107e2578063e170c19a146107f5578063e2cfcfee14610808578063eb2cd2581461081b578063f1c8c92214610823578063f2ccf1ea14610836578063f47f2f1d14610849578063f908ed371461085c578063fad1c85c14610865578063ffc12dae1461087857600080fd5b806301ffc9a71461034d57806314fba479146103755780631bb5e2dc146103875780631cf298931461039a5780631f770e7b146103af57806321320fcc146103c457806322985246146103d7578063248a9ca3146103ec57806324d7806c146103ff578063282c51f3146104125780632f2ff15d14610439578063330dd3451461044c57806333f21cd51461047a57806336568abe146104825780633e0f19a0146104955780633eb970a7146104a857806340def7f7146104bb57806341c04d5e146104ce5780634cf15858146104e35780634f0e0ef3146104f65780635b5491821461051657806365cb3a831461052957806368afaca8146105315780636f1e853314610539578063704802751461054c57806375829def1461055f57806375b238fc1461057257806376f2766c14610599578063794dde64146105ba5780638356ca4f146105cd57806385e36cc2146105e057806388611736146105e957806389f395de146105fc5780638d71bc5b1461060f5780638e549a451461062257806391d148541461062a575b600080fd5b61036061035b366004613c1c565b61088b565b60405190151581526020015b60405180910390f35b6011545b60405190815260200161036c565b610379610395366004613bd9565b6108c2565b6103a26108e3565b60405161036c9190613ebf565b6103c26103bd366004613a95565b610945565b005b6103606103d2366004613bd9565b6109a7565b61037960008051602061431d83398151915281565b6103796103fa366004613bd9565b610a76565b61036061040d366004613a95565b610a8b565b6103797f9667e80708b6eeeb0053fa0cca44e028ff548e2a9f029edfeac87c118b08b7c881565b6103c2610447366004613bf1565b610aa5565b61036061045a366004613c60565b600f60209081526000928352604080842090915290825290205460ff1681565b610379610ac7565b6103c2610490366004613bf1565b610ad6565b6103c26104a3366004613bf1565b610b50565b6103c26104b6366004613d0b565b6110a8565b6103c26104c9366004613ce7565b61121f565b6103796000805160206142dd83398151915281565b6103606104f1366004613bf1565b611397565b600654610509906001600160a01b031681565b60405161036c9190613dfa565b600754610509906001600160a01b031681565b6103c2611496565b6103796114d5565b610360610547366004613a95565b611619565b6103c261055a366004613a95565b611672565b6103c261056d366004613a95565b6116b2565b6103797fdf8b4c520ffe197c5343c6f5aec59570151ef9a492f2c624fd45ddde6135ec4281565b6105ac6105a7366004613bd9565b611765565b60405161036c929190613e29565b6103c26105c8366004613bf1565b61179d565b6103c26105db366004613a95565b611a6d565b610379600c5481565b600854610509906001600160a01b031681565b600454610509906001600160a01b031681565b600954610509906001600160a01b031681565b610379611af7565b610360610638366004613bf1565b611bfa565b61065061064b366004613aaf565b611c25565b60408051921515835260208301919091520161036c565b600a54610379565b6103c261067d366004613a95565b611d53565b610379600d5481565b6103c2610699366004613b0e565b611d83565b6103c26120d8565b6103c26106b4366004613a95565b612124565b610379600081565b6105096106cf366004613c8b565b6121bc565b6103c26106e2366004613ae5565b6121f4565b6103c261231c565b6103c26106fd366004613a95565b6124f0565b6103796125b0565b610379612b28565b6103c2610720366004613a95565b612b57565b6103c2612b94565b610379612bc4565b6103c2610743366004613a95565b612c54565b610379600a5481565b61036061075f366004613d0b565b612cfd565b600554610509906001600160a01b031681565b610379612dc5565b6103797ff0887ba65ee2024ea881d91b74c2450ef19e1557f03bed3ea9f16b037cbe2dc981565b6103c26107b4366004613bf1565b612e6d565b6107c1612e8a565b60405161036c929190613ed2565b6105096107dd366004613bd9565b613037565b6103606107f0366004613a95565b613061565b6103c2610803366004613bd9565b61306d565b6103c2610816366004613a95565b6130f5565b601054610379565b6103c2610831366004613a95565b613193565b6103c2610844366004613a95565b613237565b610360610857366004613a95565b61340c565b610379600b5481565b610360610873366004613a95565b613418565b6105ac610886366004613bd9565b613432565b60006001600160e01b03198216637965db0b60e01b14806108bc57506301ffc9a760e01b6001600160e01b03198316145b92915050565b601281815481106108d257600080fd5b600091825260209091200154905081565b6060601080548060200260200160405190810160405280929190818152602001828054801561093b57602002820191906000526020600020905b81546001600160a01b0316815260019091019060200180831161091d575b5050505050905090565b61094e33613418565b6109735760405162461bcd60e51b815260040161096a90614170565b60405180910390fd5b806001600160a01b03811661099a5760405162461bcd60e51b815260040161096a90614001565b6109a3826134b0565b5050565b6000600b54600a546109b76125b0565b6109c19190614217565b6109cb91906141f7565b82600460009054906101000a90046001600160a01b03166001600160a01b03166318160ddd6040518163ffffffff1660e01b815260040160206040518083038186803b158015610a1a57600080fd5b505afa158015610a2e573d6000803e3d6000fd5b505050506040513d601f19601f82011682018060405250810190610a529190613ccf565b610a5c91906141df565b11610a6957506001919050565b506000919050565b919050565b60009081526013602052604090206001015490565b60006108bc6000805160206142dd83398151915283611bfa565b610aae82610a76565b610ab8813361359c565b610ac28383613600565b505050565b6000610ad16125b0565b905090565b6001600160a01b0381163314610b465760405162461bcd60e51b815260206004820152602f60248201527f416363657373436f6e74726f6c3a2063616e206f6e6c792072656e6f756e636560448201526e103937b632b9903337b91039b2b63360891b606482015260840161096a565b6109a38282613686565b610b5933613418565b610b755760405162461bcd60e51b815260040161096a90614170565b604051632e31150760e11b81526004810183905260009073__$9cfa9b0e3c0a9a6ba047022cc53a6c3f44$__90635c622a0e9060240160206040518083038186803b158015610bc357600080fd5b505af4158015610bd7573d6000803e3d6000fd5b505050506040513d601f19601f82011682018060405250810190610bfb9190613c44565b9050600081600a811115610c1f57634e487b7160e01b600052602160045260246000fd5b1415610c3d5760405162461bcd60e51b815260040161096a90614030565b600f600082600a811115610c6157634e487b7160e01b600052602160045260246000fd5b600a811115610c8057634e487b7160e01b600052602160045260246000fd5b8152602080820192909252604090810160009081206001600160a01b038616825290925290205460ff161515600114610cf05760405162461bcd60e51b81526020600482015260126024820152716861736e2774207065726d697373696f6e7360701b604482015260640161096a565b6000600f600083600a811115610d1657634e487b7160e01b600052602160045260246000fd5b600a811115610d3557634e487b7160e01b600052602160045260246000fd5b8152602080820192909252604090810160009081206001600160a01b03871682529092528120805460ff19169215159290921790915580610d768484611c25565b91509150818015610dda57506000600e600085600a811115610da857634e487b7160e01b600052602160045260246000fd5b600a811115610dc757634e487b7160e01b600052602160045260246000fd5b8152602081019190915260400160002054115b15611059576001600e600085600a811115610e0557634e487b7160e01b600052602160045260246000fd5b600a811115610e2457634e487b7160e01b600052602160045260246000fd5b8152602081019190915260400160002054610e3f9190614236565b811015610fc857600e600084600a811115610e6a57634e487b7160e01b600052602160045260246000fd5b600a811115610e8957634e487b7160e01b600052602160045260246000fd5b81526020019081526020016000206001600e600086600a811115610ebd57634e487b7160e01b600052602160045260246000fd5b600a811115610edc57634e487b7160e01b600052602160045260246000fd5b8152602081019190915260400160002054610ef79190614236565b81548110610f1557634e487b7160e01b600052603260045260246000fd5b60009182526020822001546001600160a01b031690600e9085600a811115610f4d57634e487b7160e01b600052602160045260246000fd5b600a811115610f6c57634e487b7160e01b600052602160045260246000fd5b81526020019081526020016000208281548110610f9957634e487b7160e01b600052603260045260246000fd5b9060005260206000200160006101000a8154816001600160a01b0302191690836001600160a01b031602179055505b600e600084600a811115610fec57634e487b7160e01b600052602160045260246000fd5b600a81111561100b57634e487b7160e01b600052602160045260246000fd5b815260200190815260200160002080548061103657634e487b7160e01b600052603160045260246000fd5b600082815260209020810160001990810180546001600160a01b03191690550190555b82600a81111561107957634e487b7160e01b600052602160045260246000fd5b6000805160206142fd833981519152856000604051611099929190613e0e565b60405180910390a25050505050565b6110b133613418565b6110cd5760405162461bcd60e51b815260040161096a90614170565b81600a541415806110de5750600081115b6110fa5760405162461bcd60e51b815260040161096a90614059565b6111048282612cfd565b6111475760405162461bcd60e51b8152602060048201526014602482015273756e617661696c61626c65206d696e745261746560601b604482015260640161096a565b81600a541461115657600a8290555b80156111e157600480546040516340c10f1960e01b81526001600160a01b03909116916340c10f199161118d913091869101613e29565b602060405180830381600087803b1580156111a757600080fd5b505af11580156111bb573d6000803e3d6000fd5b505050506040513d601f19601f820116820180604052508101906111df9190613b76565b505b60408051838152602081018390527fe4cc2e96dce6da59e211b63b86e93c1e8da883b98fd0d184adc684dc66fc7ed591015b60405180910390a15050565b81806112635760405162461bcd60e51b8152602060048201526013602482015272151c99585cdd5c9e4e881e995c9bc81d5a5b9d606a1b604482015260640161096a565b61126c33613061565b60019061128c5760405162461bcd60e51b815260040161096a9190613f5b565b50600480546040516340c10f1960e01b81526001600160a01b03909116916340c10f19916112be913091889101613e29565b602060405180830381600087803b1580156112d857600080fd5b505af11580156112ec573d6000803e3d6000fd5b505050506040513d601f19601f820116820180604052508101906113109190613b76565b5081801561132057506000600d54115b1561135757612710600d54846113369190614217565b61134091906141f7565b600c600082825461135191906141df565b90915550505b6040805184815283151560208201527f60037f60bce79115878858b94d45b5bfb7387cce97d88ca2fdd51ce8f33d820491015b60405180910390a1505050565b6000600f600073__$9cfa9b0e3c0a9a6ba047022cc53a6c3f44$__635c622a0e866040518263ffffffff1660e01b81526004016113d691815260200190565b60206040518083038186803b1580156113ee57600080fd5b505af4158015611402573d6000803e3d6000fd5b505050506040513d601f19601f820116820180604052508101906114269190613c44565b600a81111561144557634e487b7160e01b600052602160045260246000fd5b600a81111561146457634e487b7160e01b600052602160045260246000fd5b8152602080820192909252604090810160009081206001600160a01b038616825290925290205460ff16905092915050565b61149f33613418565b6114bb5760405162461bcd60e51b815260040161096a90614170565b6114d360008051602061431d83398151915233610ad6565b565b6009546000906001600160a01b03161580159061157e5750600960009054906101000a90046001600160a01b03166001600160a01b0316631a6865026040518163ffffffff1660e01b815260040160206040518083038186803b15801561153b57600080fd5b505afa15801561154f573d6000803e3d6000fd5b505050506040513d601f19601f820116820180604052508101906115739190613ca8565b6001600160801b0316155b1561159357600a54600b54610ad191906141f7565b600560009054906101000a90046001600160a01b03166001600160a01b03166368afaca86040518163ffffffff1660e01b815260040160206040518083038186803b1580156115e157600080fd5b505afa1580156115f5573d6000803e3d6000fd5b505050506040513d601f19601f82011682018060405250810190610ad19190613ccf565b6000600f81600a5b600a81111561164057634e487b7160e01b600052602160045260246000fd5b8152602080820192909252604090810160009081206001600160a01b039095168152939091529091205460ff16919050565b61167b3361340c565b6116975760405162461bcd60e51b815260040161096a906140f8565b6116af6000805160206142dd83398151915282610aa5565b50565b6116bb33610a8b565b806116ca57506116ca3361340c565b6116e65760405162461bcd60e51b815260040161096a90614084565b6001600160a01b03811661170c5760405162461bcd60e51b815260040161096a906140c6565b336001600160a01b03821614156117355760405162461bcd60e51b815260040161096a90614140565b61174d6000805160206142dd83398151915282610aa5565b6116af6000805160206142dd83398151915233610ad6565b6011818154811061177557600080fd5b6000918252602090912060029091020180546001909101546001600160a01b03909116915082565b6117a633613418565b6117c25760405162461bcd60e51b815260040161096a90614170565b604051632e31150760e11b81526004810183905260009073__$9cfa9b0e3c0a9a6ba047022cc53a6c3f44$__90635c622a0e9060240160206040518083038186803b15801561181057600080fd5b505af4158015611824573d6000803e3d6000fd5b505050506040513d601f19601f820116820180604052508101906118489190613c44565b9050600081600a81111561186c57634e487b7160e01b600052602160045260246000fd5b141561188a5760405162461bcd60e51b815260040161096a90614030565b600f600082600a8111156118ae57634e487b7160e01b600052602160045260246000fd5b600a8111156118cd57634e487b7160e01b600052602160045260246000fd5b8152602080820192909252604090810160009081206001600160a01b038616825290925290205460ff16156119325760405162461bcd60e51b815260206004820152600b60248201526a185b1c9958591e481cd95d60aa1b604482015260640161096a565b6001600f600083600a81111561195857634e487b7160e01b600052602160045260246000fd5b600a81111561197757634e487b7160e01b600052602160045260246000fd5b8152602080820192909252604090810160009081206001600160a01b03871682529092528120805460ff1916921515929092179091556119b78383611c25565b50905080611a3e57600e600083600a8111156119e357634e487b7160e01b600052602160045260246000fd5b600a811115611a0257634e487b7160e01b600052602160045260246000fd5b8152602080820192909252604001600090812080546001810182559082529190200180546001600160a01b0319166001600160a01b0385161790555b836000805160206142fd833981519152846001604051611a5f929190613e0e565b60405180910390a250505050565b611a763361340c565b611a925760405162461bcd60e51b815260040161096a906140f8565b6001600160a01b038116611ab85760405162461bcd60e51b815260040161096a906140c6565b336001600160a01b0382161415611ae15760405162461bcd60e51b815260040161096a90614140565b611aec600082610aa5565b6116af600033610ad6565b6009546000906001600160a01b031615801590611ba05750600960009054906101000a90046001600160a01b03166001600160a01b0316631a6865026040518163ffffffff1660e01b815260040160206040518083038186803b158015611b5d57600080fd5b505afa158015611b71573d6000803e3d6000fd5b505050506040513d601f19601f82011682018060405250810190611b959190613ca8565b6001600160801b0316155b15611bac5750600a5490565b600560009054906101000a90046001600160a01b03166001600160a01b0316638e549a456040518163ffffffff1660e01b815260040160206040518083038186803b1580156115e157600080fd5b60009182526013602090815260408084206001600160a01b0393909316845291905290205460ff1690565b6000806000600e600085600a811115611c4e57634e487b7160e01b600052602160045260246000fd5b600a811115611c6d57634e487b7160e01b600052602160045260246000fd5b8152602001908152602001600020805480602002602001604051908101604052809291908181526020018280548015611ccf57602002820191906000526020600020905b81546001600160a01b03168152600190910190602001808311611cb1575b5050505050905060005b8151811015611d4257818181518110611d0257634e487b7160e01b600052603260045260246000fd5b60200260200101516001600160a01b0316866001600160a01b03161415611d3057600193509150611d4c9050565b80611d3a81614290565b915050611cd9565b5060008092509250505b9250929050565b611d5c3361340c565b611d785760405162461bcd60e51b815260040161096a906140f8565b6116af6000826136ed565b611d8c33613418565b611da85760405162461bcd60e51b815260040161096a90614170565b82611de35760405162461bcd60e51b815260206004820152600b60248201526a0f4cae4de40d8cadccee8d60ab1b604482015260640161096a565b828114611e215760405162461bcd60e51b815260206004820152600c60248201526b0eee4dedcce40d8cadccee8d60a31b604482015260640161096a565b6000600d81905583905b81811015611f67576000868683818110611e5557634e487b7160e01b600052603260045260246000fd5b9050602002016020810190611e6a9190613a95565b6001600160a01b03161415611eb05760405162461bcd60e51b815260206004820152600c60248201526b7a65726f206164647265737360a01b604482015260640161096a565b6000848483818110611ed257634e487b7160e01b600052603260045260246000fd5b9050602002013511611f175760405162461bcd60e51b815260206004820152600e60248201526d7a65726f205f70657263656e747360901b604482015260640161096a565b838382818110611f3757634e487b7160e01b600052603260045260246000fd5b90506020020135600d6000828254611f4f91906141df565b90915550819050611f5f81614290565b915050611e2b565b50612710600d5410611fad5760405162461bcd60e51b815260206004820152600f60248201526e77726f6e67205f70657263656e747360881b604482015260640161096a565b611fb9601160006139f6565b60005b818110156120935760116040518060400160405280888885818110611ff157634e487b7160e01b600052603260045260246000fd5b90506020020160208101906120069190613a95565b6001600160a01b0316815260200186868581811061203457634e487b7160e01b600052603260045260246000fd5b60209081029290920135909252835460018082018655600095865294829020845160029092020180546001600160a01b0319166001600160a01b039092169190911781559201519190920155508061208b81614290565b915050611fbc565b507ffcb8b54542c57e79d857f0e43e5697d82605478358e9bfd65755f1ac4f7c467c858585856040516120c99493929190613e42565b60405180910390a15050505050565b6120e133610a8b565b806120f057506120f03361340c565b61210c5760405162461bcd60e51b815260040161096a90614084565b6114d36000805160206142dd83398151915233610ad6565b61212d33613061565b6121705760405162461bcd60e51b815260206004820152601460248201527331b0b63632b91034b9903737ba103137b73232b960611b604482015260640161096a565b6001600160a01b0381166121b35760405162461bcd60e51b815260206004820152600a6024820152691e995c9bc8185cdcd95d60b21b604482015260640161096a565b6116af816134b0565b600e60205281600052604060002081815481106121d857600080fd5b6000918252602090912001546001600160a01b03169150829050565b6121fd33611619565b60019061221d5760405162461bcd60e51b815260040161096a9190613f5b565b506001600160a01b038216158015906122365750600081115b61227d5760405162461bcd60e51b81526020600482015260186024820152771e995c9bc81c9958da5c1a595b9d081bdc88185b5bdd5b9d60421b604482015260640161096a565b80612286612dc5565b10156122d45760405162461bcd60e51b815260206004820181905260248201527f74726561737572792062616c616e636520697320696e73756666696369656e74604482015260640161096a565b6004546122eb906001600160a01b031683836136f7565b7fac14ca7b339c0e7e9533002fffbecb915441d1cce29e21355ecccfe1b21508518282604051611213929190613e29565b61232533613418565b6123415760405162461bcd60e51b815260040161096a90614170565b6000600c5411801561235557506000600d54115b8015612362575060115415155b6123ac5760405162461bcd60e51b815260206004820152601b60248201527a273790333ab732399037b9103737903234b9ba3934b13aba34b7b760291b604482015260640161096a565b600c5460005b6011548110156124ea576000600d54601183815481106123e257634e487b7160e01b600052603260045260246000fd5b906000526020600020906002020160010154600c546124019190614217565b61240b91906141f7565b90506124178184614236565b92506124646011838154811061243d57634e487b7160e01b600052603260045260246000fd5b60009182526020909120600290910201546004546001600160a01b039081169116836136f7565b7f4d24075306dc3984e69d480aab0d727ad8be3e8a7bb8003cf65dfac2ac36fc43601183815481106124a657634e487b7160e01b600052603260045260246000fd5b60009182526020909120600290910201546040516124cf916001600160a01b0316908490613e29565b60405180910390a150806124e281614290565b9150506123b2565b50600c55565b6124f933613418565b6125155760405162461bcd60e51b815260040161096a90614170565b806001600160a01b03811661253c5760405162461bcd60e51b815260040161096a90614001565b6000471161257b5760405162461bcd60e51b815260206004820152600c60248201526b7a65726f2062616c616e636560a01b604482015260640161096a565b6040516001600160a01b038316904780156108fc02916000818181858888f19350505050158015610ac2573d6000803e3d6000fd5b60055460408051630d15f59560e31b815290516000928392839283926001600160a01b0316916368afaca8916004808301926020929190829003018186803b1580156125fb57600080fd5b505afa15801561260f573d6000803e3d6000fd5b505050506040513d601f19601f820116820180604052508101906126339190613ccf565b60105490915060005b81811015612a6a57600654601080546001600160a01b03909216918390811061267557634e487b7160e01b600052603260045260246000fd5b6000918252602090912001546001600160a01b03161415612725576006546040516370a0823160e01b81526001600160a01b03909116906370a08231906126c0903090600401613dfa565b60206040518083038186803b1580156126d857600080fd5b505afa1580156126ec573d6000803e3d6000fd5b505050506040513d601f19601f820116820180604052508101906127109190613ccf565b61271a90866141df565b945060019350612a58565b60006001600160a01b03166010828154811061275157634e487b7160e01b600052603260045260246000fd5b6000918252602090912001546001600160a01b0316148015906127b85750600454601080546001600160a01b0390921691839081106127a057634e487b7160e01b600052603260045260246000fd5b6000918252602090912001546001600160a01b031614155b15612a58576000806000600560009054906101000a90046001600160a01b03166001600160a01b031663bb6f48ba6010868154811061280757634e487b7160e01b600052603260045260246000fd5b600091825260209091200154601080546001600160a01b03909216918890811061284157634e487b7160e01b600052603260045260246000fd5b6000918252602090912001546040516370a0823160e01b81526001600160a01b03909116906370a082319061287a903090600401613dfa565b60206040518083038186803b15801561289257600080fd5b505afa1580156128a6573d6000803e3d6000fd5b505050506040513d601f19601f820116820180604052508101906128ca9190613ccf565b6040518363ffffffff1660e01b81526004016128e7929190613e29565b60806040518083038186803b1580156128ff57600080fd5b505afa158015612913573d6000803e3d6000fd5b505050506040513d601f19601f820116820180604052508101906129379190613b92565b9350509250925082156129555761294e81896141df565b9750612a54565b8115612a54576009546001600160a01b031615801590612a015750600960009054906101000a90046001600160a01b03166001600160a01b0316631a6865026040518163ffffffff1660e01b815260040160206040518083038186803b1580156129be57600080fd5b505afa1580156129d2573d6000803e3d6000fd5b505050506040513d601f19601f820116820180604052508101906129f69190613ca8565b6001600160801b0316155b15612a2a57600a54600b54612a169083614217565b612a2091906141f7565b61294e90896141df565b670de0b6b3a7640000612a3d8783614217565b612a4791906141f7565b612a5190896141df565b97505b5050505b80612a6281614290565b91505061263c565b5082158015612a8357506006546001600160a01b031615155b15612b15576006546040516370a0823160e01b81526001600160a01b03909116906370a0823190612ab8903090600401613dfa565b60206040518083038186803b158015612ad057600080fd5b505afa158015612ae4573d6000803e3d6000fd5b505050506040513d601f19601f82011682018060405250810190612b089190613ccf565b612b1290856141df565b93505b612b1f47856141df565b95945050505050565b6000670de0b6b3a7640000612b3b611af7565b612b436125b0565b612b4d9190614217565b610ad191906141f7565b612b603361340c565b612b7c5760405162461bcd60e51b815260040161096a906140f8565b6116af60008051602061431d83398151915282610aa5565b612b9d3361340c565b612bb95760405162461bcd60e51b815260040161096a906140f8565b6114d3600033610ad6565b6000600460009054906101000a90046001600160a01b03166001600160a01b03166318160ddd6040518163ffffffff1660e01b815260040160206040518083038186803b158015612c1457600080fd5b505afa158015612c28573d6000803e3d6000fd5b505050506040513d601f19601f82011682018060405250810190612c4c9190613ccf565b612b4d6125b0565b612c5d33613418565b612c795760405162461bcd60e51b815260040161096a90614170565b6009546001600160a01b0382811691161415612ca75760405162461bcd60e51b815260040161096a906141b9565b600980546001600160a01b0319166001600160a01b0383161790556040517fc01e12e9bd0b3827f706592d13f881c40e918e90ffd9e3bb9b771643a608685290612cf2908390613dfa565b60405180910390a150565b6000600b5483612d0b6125b0565b612d159190614217565b612d1f91906141f7565b82600460009054906101000a90046001600160a01b03166001600160a01b03166318160ddd6040518163ffffffff1660e01b815260040160206040518083038186803b158015612d6e57600080fd5b505afa158015612d82573d6000803e3d6000fd5b505050506040513d601f19601f82011682018060405250810190612da69190613ccf565b612db091906141df565b11612dbd575060016108bc565b5060006108bc565b600480546040516370a0823160e01b815260009283926001600160a01b0316916370a0823191612df791309101613dfa565b60206040518083038186803b158015612e0f57600080fd5b505afa158015612e23573d6000803e3d6000fd5b505050506040513d601f19601f82011682018060405250810190612e479190613ccf565b9050600c548110612e6557600c54612e5f9082614236565b91505090565b600091505090565b612e7682610a76565b612e80813361359c565b610ac28383613686565b6011546060908190806001600160401b03811115612eb857634e487b7160e01b600052604160045260246000fd5b604051908082528060200260200182016040528015612ee1578160200160208202803683370190505b509250806001600160401b03811115612f0a57634e487b7160e01b600052604160045260246000fd5b604051908082528060200260200182016040528015612f33578160200160208202803683370190505b50915060005b818110156130315760118181548110612f6257634e487b7160e01b600052603260045260246000fd5b600091825260209091206002909102015484516001600160a01b0390911690859083908110612fa157634e487b7160e01b600052603260045260246000fd5b60200260200101906001600160a01b031690816001600160a01b03168152505060118181548110612fe257634e487b7160e01b600052603260045260246000fd5b90600052602060002090600202016001015483828151811061301457634e487b7160e01b600052603260045260246000fd5b60209081029190910101528061302981614290565b915050612f39565b50509091565b6010818154811061304757600080fd5b6000918252602090912001546001600160a01b0316905081565b6000600f816009611621565b61307633613418565b6130925760405162461bcd60e51b815260040161096a90614170565b80600b54141580156130a45750600081115b6130c05760405162461bcd60e51b815260040161096a90614059565b600b8190556040518181527f9ff242a6ecf76b19e165c80131c467a8fce34056d7bd44c8ff30726836e580bc90602001612cf2565b6130fe33613418565b61311a5760405162461bcd60e51b815260040161096a90614170565b6007546001600160a01b03828116911614156131485760405162461bcd60e51b815260040161096a906141b9565b600780546001600160a01b0319166001600160a01b0383161790556040517f844bdf9a7473f7dee84b48585eff441c1ed9044b2e04508067ad71b9194cdf0b90612cf2908390613dfa565b61319c33613418565b6131b85760405162461bcd60e51b815260040161096a90614170565b6001600160a01b0381166131de5760405162461bcd60e51b815260040161096a906140c6565b336001600160a01b03821614156132075760405162461bcd60e51b815260040161096a90614140565b61321f60008051602061431d83398151915282610aa5565b6116af60008051602061431d83398151915233610ad6565b61324033613418565b61325c5760405162461bcd60e51b815260040161096a90614170565b806001600160a01b0381166132835760405162461bcd60e51b815260040161096a90614001565b60105460005b8181101561340657601081815481106132b257634e487b7160e01b600052603260045260246000fd5b6000918252602090912001546001600160a01b03858116911614156133f4576132dc600183614236565b8110156133775760106132f0600184614236565b8154811061330e57634e487b7160e01b600052603260045260246000fd5b600091825260209091200154601080546001600160a01b03909216918390811061334857634e487b7160e01b600052603260045260246000fd5b9060005260206000200160006101000a8154816001600160a01b0302191690836001600160a01b031602179055505b601080548061339657634e487b7160e01b600052603160045260246000fd5b600082815260209020810160001990810180546001600160a01b03191690550190556040517e5e4bdc7ff4f434ef45e9b73093b5ee11ebd056f46704bb4f66e059f18b1425906133e7908690613dfa565b60405180910390a1613406565b806133fe81614290565b915050613289565b50505050565b60006108bc8183611bfa565b60006108bc60008051602061431d83398151915283611bfa565b6000806011838154811061345657634e487b7160e01b600052603260045260246000fd5b6000918252602090912060029091020154601180546001600160a01b03909216918590811061349557634e487b7160e01b600052603260045260246000fd5b90600052602060002090600202016001015491509150915091565b601054600090815b8181101561351b57601081815481106134e157634e487b7160e01b600052603260045260246000fd5b6000918252602090912001546001600160a01b0385811691161415613509576001925061351b565b8061351381614290565b9150506134b8565b5081610ac257601080546001810182556000919091527f1b6847dc741a1b0cd08d278845f9d819d87b734759afb55fe2de5cb82a9ae6720180546001600160a01b0319166001600160a01b0385161790556040517f51d46aa62889dada289ca574cb63cef7f51a70de054ed7feac6b783e6f7bd4a89061138a908590613dfa565b6135a68282611bfa565b6109a3576135be816001600160a01b0316601461380e565b6135c983602061380e565b6040516020016135da929190613d8b565b60408051601f198184030181529082905262461bcd60e51b825261096a91600401613f28565b61360a8282611bfa565b6109a35760008281526013602090815260408083206001600160a01b03851684529091529020805460ff191660011790556136423390565b6001600160a01b0316816001600160a01b0316837f2f8788117e7eff1d82e926ec794901d17c78024a50270940304540a733656f0d60405160405180910390a45050565b6136908282611bfa565b156109a35760008281526013602090815260408083206001600160a01b0385168085529252808320805460ff1916905551339285917ff6391f5c32d9c69d2a47ea670b442974b53935d1edc7fd64eb21e047a839171b9190a45050565b6109a38282613600565b600080846001600160a01b031663a9059cbb60e01b858560405160240161371f929190613e29565b60408051601f198184030181529181526020820180516001600160e01b03166001600160e01b031990941693909317909252905161375d9190613d6f565b6000604051808303816000865af19150503d806000811461379a576040519150601f19603f3d011682016040523d82523d6000602084013e61379f565b606091505b50915091508180156137c95750805115806137c95750808060200190518101906137c99190613b76565b6138075760405162461bcd60e51b815260206004820152600f60248201526e1514905394d1915497d19052531151608a1b604482015260640161096a565b5050505050565b6060600061381d836002614217565b6138289060026141df565b6001600160401b0381111561384d57634e487b7160e01b600052604160045260246000fd5b6040519080825280601f01601f191660200182016040528015613877576020820181803683370190505b509050600360fc1b816000815181106138a057634e487b7160e01b600052603260045260246000fd5b60200101906001600160f81b031916908160001a905350600f60fb1b816001815181106138dd57634e487b7160e01b600052603260045260246000fd5b60200101906001600160f81b031916908160001a9053506000613901846002614217565b61390c9060016141df565b90505b60018111156139a0576f181899199a1a9b1b9c1cb0b131b232b360811b85600f166010811061394e57634e487b7160e01b600052603260045260246000fd5b1a60f81b82828151811061397257634e487b7160e01b600052603260045260246000fd5b60200101906001600160f81b031916908160001a90535060049490941c9361399981614279565b905061390f565b5083156139ef5760405162461bcd60e51b815260206004820181905260248201527f537472696e67733a20686578206c656e67746820696e73756666696369656e74604482015260640161096a565b9392505050565b50805460008255600202906000526020600020908101906116af91905b80821115613a385780546001600160a01b031916815560006001820155600201613a13565b5090565b80356001600160a01b0381168114610a7157600080fd5b60008083601f840112613a64578182fd5b5081356001600160401b03811115613a7a578182fd5b6020830191508360208260051b8501011115611d4c57600080fd5b600060208284031215613aa6578081fd5b6139ef82613a3c565b60008060408385031215613ac1578081fd5b613aca83613a3c565b91506020830135613ada816142cf565b809150509250929050565b60008060408385031215613af7578182fd5b613b0083613a3c565b946020939093013593505050565b60008060008060408587031215613b23578182fd5b84356001600160401b0380821115613b39578384fd5b613b4588838901613a53565b90965094506020870135915080821115613b5d578384fd5b50613b6a87828801613a53565b95989497509550505050565b600060208284031215613b87578081fd5b81516139ef816142c1565b60008060008060808587031215613ba7578384fd5b8451613bb2816142c1565b6020860151909450613bc3816142c1565b6040860151606090960151949790965092505050565b600060208284031215613bea578081fd5b5035919050565b60008060408385031215613c03578182fd5b82359150613c1360208401613a3c565b90509250929050565b600060208284031215613c2d578081fd5b81356001600160e01b0319811681146139ef578182fd5b600060208284031215613c55578081fd5b81516139ef816142cf565b60008060408385031215613c72578182fd5b8235613c7d816142cf565b9150613c1360208401613a3c565b60008060408385031215613c9d578182fd5b8235613b00816142cf565b600060208284031215613cb9578081fd5b81516001600160801b03811681146139ef578182fd5b600060208284031215613ce0578081fd5b5051919050565b60008060408385031215613cf9578182fd5b823591506020830135613ada816142c1565b60008060408385031215613d1d578182fd5b50508035926020909101359150565b6000815180845260208085019450808401835b83811015613d645781516001600160a01b031687529582019590820190600101613d3f565b509495945050505050565b60008251613d8181846020870161424d565b9190910192915050565b76020b1b1b2b9b9a1b7b73a3937b61d1030b1b1b7bab73a1604d1b815260008351613dbd81601785016020880161424d565b7001034b99036b4b9b9b4b733903937b6329607d1b6017918401918201528351613dee81602884016020880161424d565b01602801949350505050565b6001600160a01b0391909116815260200190565b6001600160a01b039290921682521515602082015260400190565b6001600160a01b03929092168252602082015260400190565b6040808252810184905260008560608301825b87811015613e83576001600160a01b03613e6e84613a3c565b16825260209283019290910190600101613e55565b5083810360208501528481526001600160fb1b03851115613ea2578283fd5b8460051b9150818660208301370160200190815295945050505050565b6020815260006139ef6020830184613d2c565b604081526000613ee56040830185613d2c565b828103602084810191909152845180835285820192820190845b81811015613f1b57845183529383019391830191600101613eff565b5090979650505050505050565b6020815260008251806020840152613f4781604085016020870161424d565b601f01601f19169190910160400192915050565b6000602080835281845483600182811c915080831680613f7c57607f831692505b858310811415613f9a57634e487b7160e01b87526022600452602487fd5b878601838152602001818015613fb75760018114613fc857613ff2565b60ff19861682528782019650613ff2565b60008b815260209020895b86811015613fec57815484820152908501908901613fd3565b83019750505b50949998505050505050505050565b60208082526015908201527454726561737572793a7a65726f206164647265737360581b604082015260600190565b6020808252600f908201526e2727a722903832b936b4b9b9b4b7b760891b604082015260600190565b602080825260119082015270636865636b20696e7075742076616c756560781b604082015260600190565b60208082526022908201527f41636365737369626c653a2043616c6c6572206973206e6f7420616e2061646d60408201526134b760f11b606082015260800190565b60208082526018908201527741636365737369626c653a207a65726f206164647265737360401b604082015260600190565b60208082526028908201527f41636365737369626c653a2043616c6c6572206973206e6f7420616e2070726f6040820152673c3c9030b236b4b760c11b606082015260800190565b60208082526016908201527520b1b1b2b9b9b4b136329d1039b0b6b29030b236b4b760511b604082015260600190565b60208082526029908201527f41636365737369626c653a2043616c6c6572206973206e6f7420616e20706f6c60408201526834b1bc9030b236b4b760b91b606082015260800190565b6020808252600c908201526b73616d65206164647265737360a01b604082015260600190565b600082198211156141f2576141f26142ab565b500190565b60008261421257634e487b7160e01b81526012600452602481fd5b500490565b6000816000190483118215151615614231576142316142ab565b500290565b600082821015614248576142486142ab565b500390565b60005b83811015614268578181015183820152602001614250565b838111156134065750506000910152565b600081614288576142886142ab565b506000190190565b60006000198214156142a4576142a46142ab565b5060010190565b634e487b7160e01b600052601160045260246000fd5b80151581146116af57600080fd5b600b81106116af57600080fdfe52eafc11f6f81f86878bffd31109a0d92f37506527754f00788853ff9f63b1303c6eb44f3a083ba65fca4eae750beac5efa33a89dec0e50004b62cbb835cc0b6fb5864e8ff833c3cb2d2d08505e82ff02a43554c74a35d4f5a64e85261278311a2646970667358221220b4404cf7054cdc8ea60d6ed36f5a2904dd0a0a1726cf1e99a1b1fe376e519f9964736f6c63430008040033",
  "linkReferences": {
    "contracts/libraries/LibTreasury.sol": {
      "LibTreasury": [
        {
          "length": 20,
          "start": 3499
        },
        {
          "length": 20,
          "start": 5564
        },
        {
          "length": 20,
          "start": 6648
        }
      ]
    }
  },
  "deployedLinkReferences": {
    "contracts/libraries/LibTreasury.sol": {
      "LibTreasury": [
        {
          "length": 20,
          "start": 2958
        },
        {
          "length": 20,
          "start": 5023
        },
        {
          "length": 20,
          "start": 6107
        }
      ]
    }
  }
}