{
  "_format": "hh-sol-artifact-1",
  "contractName": "UniswapV3LiquidityChanger",
  "sourceName": "contracts/uniswapV3/UniswapV3LiquidityChanger.sol",
  "abi": [
    {
      "inputs": [
        {
          "internalType": "address",
          "name": "npm",
          "type": "address"
        },
        {
          "internalType": "address",
          "name": "poolAddress",
          "type": "address"
        },
        {
          "internalType": "uint256",
          "name": "tokenId",
          "type": "uint256"
        }
      ],
      "name": "getAmounts",
      "outputs": [
        {
          "internalType": "uint256",
          "name": "amount0",
          "type": "uint256"
        },
        {
          "internalType": "uint256",
          "name": "amount1",
          "type": "uint256"
        }
      ],
      "stateMutability": "view",
      "type": "function"
    },
    {
      "inputs": [
        {
          "internalType": "address",
          "name": "token0",
          "type": "address"
        },
        {
          "internalType": "address",
          "name": "token1",
          "type": "address"
        }
      ],
      "name": "getDecimals",
      "outputs": [
        {
          "internalType": "uint256",
          "name": "token0Decimals",
          "type": "uint256"
        },
        {
          "internalType": "uint256",
          "name": "token1Decimals",
          "type": "uint256"
        }
      ],
      "stateMutability": "view",
      "type": "function"
    },
    {
      "inputs": [
        {
          "internalType": "address",
          "name": "poolAddress",
          "type": "address"
        }
      ],
      "name": "getPriceToken0",
      "outputs": [
        {
          "internalType": "uint256",
          "name": "priceX96",
          "type": "uint256"
        }
      ],
      "stateMutability": "view",
      "type": "function"
    },
    {
      "inputs": [
        {
          "internalType": "address",
          "name": "poolAddress",
          "type": "address"
        }
      ],
      "name": "getPriceToken1",
      "outputs": [
        {
          "internalType": "uint256",
          "name": "priceX96",
          "type": "uint256"
        }
      ],
      "stateMutability": "view",
      "type": "function"
    }
  ],
  "bytecode": "0x608060405234801561001057600080fd5b50611414806100206000396000f3fe608060405234801561001057600080fd5b506004361061004c5760003560e01c80630446db5d14610051578063486a586a14610077578063740fcd201461008a578063d20aecad146100b2575b600080fd5b61006461005f366004610f3b565b6100c5565b6040519081526020015b60405180910390f35b610064610085366004610f3b565b61032d565b61009d610098366004610f73565b6104a6565b6040805192835260208301919091520161006e565b61009d6100c0366004610fab565b610596565b600080826001600160a01b0316633850c7bd6040518163ffffffff1660e01b815260040160e06040518083038186803b15801561010157600080fd5b505afa158015610115573d6000803e3d6000fd5b505050506040513d601f19601f820116820180604052508101906101399190610feb565b5050505050915050600080610229856001600160a01b0316630dfe16816040518163ffffffff1660e01b815260040160206040518083038186803b15801561018057600080fd5b505afa158015610194573d6000803e3d6000fd5b505050506040513d601f19601f820116820180604052508101906101b89190610f57565b866001600160a01b031663d21220a76040518163ffffffff1660e01b815260040160206040518083038186803b1580156101f157600080fd5b505afa158015610205573d6000803e3d6000fd5b505050506040513d601f19601f820116820180604052508101906100989190610f57565b90925090506103248361023d84600a611243565b876001600160a01b0316630dfe16816040518163ffffffff1660e01b815260040160206040518083038186803b15801561027657600080fd5b505afa15801561028a573d6000803e3d6000fd5b505050506040513d601f19601f820116820180604052508101906102ae9190610f57565b886001600160a01b031663d21220a76040518163ffffffff1660e01b815260040160206040518083038186803b1580156102e757600080fd5b505afa1580156102fb573d6000803e3d6000fd5b505050506040513d601f19601f8201168201806040525081019061031f9190610f57565b610739565b95945050505050565b600080826001600160a01b0316633850c7bd6040518163ffffffff1660e01b815260040160e06040518083038186803b15801561036957600080fd5b505afa15801561037d573d6000803e3d6000fd5b505050506040513d601f19601f820116820180604052508101906103a19190610feb565b50505050509150506000806103e8856001600160a01b0316630dfe16816040518163ffffffff1660e01b815260040160206040518083038186803b15801561018057600080fd5b9092509050610324836103fc83600a611243565b876001600160a01b031663d21220a76040518163ffffffff1660e01b815260040160206040518083038186803b15801561043557600080fd5b505afa158015610449573d6000803e3d6000fd5b505050506040513d601f19601f8201168201806040525081019061046d9190610f57565b886001600160a01b0316630dfe16816040518163ffffffff1660e01b815260040160206040518083038186803b1580156102e757600080fd5b600080836001600160a01b031663313ce5676040518163ffffffff1660e01b815260040160206040518083038186803b1580156104e257600080fd5b505afa1580156104f6573d6000803e3d6000fd5b505050506040513d601f19601f8201168201806040525081019061051a9190611082565b836001600160a01b031663313ce5676040518163ffffffff1660e01b815260040160206040518083038186803b15801561055357600080fd5b505afa158015610567573d6000803e3d6000fd5b505050506040513d601f19601f8201168201806040525081019061058b9190611082565b915091509250929050565b6000806000846001600160a01b0316633850c7bd6040518163ffffffff1660e01b815260040160e06040518083038186803b1580156105d457600080fd5b505afa1580156105e8573d6000803e3d6000fd5b505050506040513d601f19601f8201168201806040525081019061060c9190610feb565b50505050505090506000806000886001600160a01b03166399fbab88886040518263ffffffff1660e01b815260040161064791815260200190565b6101806040518083038186803b15801561066057600080fd5b505afa158015610674573d6000803e3d6000fd5b505050506040513d601f19601f82011682018060405250810190610698919061109a565b50505050975097509750505050505060006106b284610842565b905060006106bf84610842565b90506106cd86838386610c59565b60408051808201909152600b81526a030b6b7bab73a181012b9960ad1b602082015291995097506106fe9089610cf5565b61072b6040518060400160405280600b81526020016a030b6b7bab73a189012b9960ad1b81525088610cf5565b505050505050935093915050565b60008061074586610842565b90506001600160801b036001600160a01b038216116107cb5760006107736001600160a01b038316806112ed565b9050836001600160a01b0316856001600160a01b0316106107ab576107a6600160c01b876001600160801b031683610d3e565b6107c3565b6107c381876001600160801b0316600160c01b610d3e565b925050610839565b60006107e56001600160a01b03831680600160401b610d3e565b9050836001600160a01b0316856001600160a01b03161061081d57610818600160801b876001600160801b031683610d3e565b610835565b61083581876001600160801b0316600160801b610d3e565b9250505b50949350505050565b60008060008360020b12610859578260020b610866565b8260020b61086690611380565b9050610875620d89e71961135f565b60020b8111156108af5760405162461bcd60e51b81526020600482015260016024820152601560fa1b604482015260640160405180910390fd5b6000600182166108c357600160801b6108d5565b6ffffcb933bd6fad37aa2d162d1a5940015b6001600160881b03169050600282161561090a576080610905826ffff97272373d413259a46990580e213a6112ed565b901c90505b600482161561093457608061092f826ffff2e50f5f656932ef12357cf3c7fdcc6112ed565b901c90505b600882161561095e576080610959826fffe5caca7e10e4e61c3624eaa0941cd06112ed565b901c90505b6010821615610988576080610983826fffcb9843d60f6159c9db58835c9266446112ed565b901c90505b60208216156109b25760806109ad826fff973b41fa98c081472e6896dfb254c06112ed565b901c90505b60408216156109dc5760806109d7826fff2ea16466c96a3843ec78b326b528616112ed565b901c90505b6080821615610a06576080610a01826ffe5dee046a99a2a811c461f1969c30536112ed565b901c90505b610100821615610a31576080610a2c826ffcbe86c7900a88aedcffc83b479aa3a46112ed565b901c90505b610200821615610a5c576080610a57826ff987a7253ac413176f2b074cf7815e546112ed565b901c90505b610400821615610a87576080610a82826ff3392b0822b70005940c7a398e4b70f36112ed565b901c90505b610800821615610ab2576080610aad826fe7159475a2c29b7443b29c7fa6e889d96112ed565b901c90505b611000821615610add576080610ad8826fd097f3bdfd2022b8845ad8f792aa58256112ed565b901c90505b612000821615610b08576080610b03826fa9f746462d870fdf8a65dc1f90e061e56112ed565b901c90505b614000821615610b33576080610b2e826f70d869a156d2a1b890bb3df62baf32f76112ed565b901c90505b618000821615610b5e576080610b59826f31be135f97d08fd981231505542fcfa66112ed565b901c90505b62010000821615610b8a576080610b85826f09aa508b5b7a84e1c677de54f3e99bc96112ed565b901c90505b62020000821615610bb5576080610bb0826e5d6af8dedb81196699c329225ee6046112ed565b901c90505b62040000821615610bdf576080610bda826d2216e584f5fa1ea926041bedfe986112ed565b901c90505b62080000821615610c07576080610c02826b048a170391f7dc42444e8fa26112ed565b901c90505b60008460020b1315610c2257610c1f816000196111ec565b90505b610c316401000000008261134b565b15610c3d576001610c40565b60005b610c519060ff16602083901c6111d4565b949350505050565b600080836001600160a01b0316856001600160a01b03161115610c7a579293925b846001600160a01b0316866001600160a01b031611610ca557610c9e858585610e08565b9150610cec565b836001600160a01b0316866001600160a01b03161015610cde57610cca868585610e08565b9150610cd7858785610e72565b9050610cec565b610ce9858585610e72565b90505b94509492505050565b610d3a8282604051602401610d0b929190611179565b60408051601f198184030181529190526020810180516001600160e01b03166309710a9d60e41b179052610ebc565b5050565b6000808211610d4c57600080fd5b6000806000198587098587029250828110838203039150508060001415610d7857508290049050610e01565b808411610d8457600080fd5b600084868809808403938111909203919050600085610da581600019611334565b610db09060016111d4565b16958690049560026003880281188089028203028089028203028089028203028089028203028089028203028089029091030260008290038290046001019490940294049390931791909102925050505b9392505050565b6000826001600160a01b0316846001600160a01b03161115610e28579192915b6001600160a01b038416610e68600160601b600160e01b03606085901b16610e50878761130c565b6001600160a01b0316866001600160a01b0316610d3e565b610c5191906111ec565b6000826001600160a01b0316846001600160a01b03161115610e92579192915b610c516001600160801b038316610ea9868661130c565b6001600160a01b0316600160601b610d3e565b80516a636f6e736f6c652e6c6f67602083016000808483855afa5050505050565b8051610ee8816113c6565b919050565b8051600281900b8114610ee857600080fd5b80516001600160801b0381168114610ee857600080fd5b805161ffff81168114610ee857600080fd5b805162ffffff81168114610ee857600080fd5b600060208284031215610f4c578081fd5b8135610e01816113c6565b600060208284031215610f68578081fd5b8151610e01816113c6565b60008060408385031215610f85578081fd5b8235610f90816113c6565b91506020830135610fa0816113c6565b809150509250929050565b600080600060608486031215610fbf578081fd5b8335610fca816113c6565b92506020840135610fda816113c6565b929592945050506040919091013590565b600080600080600080600060e0888a031215611005578283fd5b8751611010816113c6565b965061101e60208901610eed565b955061102c60408901610f16565b945061103a60608901610f16565b935061104860808901610f16565b925060a088015160ff8116811461105d578283fd5b60c08901519092508015158114611072578182fd5b8091505092959891949750929550565b600060208284031215611093578081fd5b5051919050565b6000806000806000806000806000806000806101808d8f0312156110bc578485fd5b8c516bffffffffffffffffffffffff811681146110d7578586fd5b9b506110e560208e01610edd565b9a506110f360408e01610edd565b995061110160608e01610edd565b985061110f60808e01610f28565b975061111d60a08e01610eed565b965061112b60c08e01610eed565b955061113960e08e01610eff565b94506101008d015193506101208d015192506111586101408e01610eff565b91506111676101608e01610eff565b90509295989b509295989b509295989b565b6040815260008351806040840152815b818110156111a65760208187018101516060868401015201611189565b818111156111b75782606083860101525b50602083019390935250601f91909101601f191601606001919050565b600082198211156111e7576111e761139a565b500190565b6000826111fb576111fb6113b0565b500490565b600181815b8085111561123b5781600019048211156112215761122161139a565b8085161561122e57918102915b93841c9390800290611205565b509250929050565b6000610e018383600082611259575060016112e7565b81611266575060006112e7565b816001811461127c5760028114611286576112a2565b60019150506112e7565b60ff8411156112975761129761139a565b50506001821b6112e7565b5060208310610133831016604e8410600b84101617156112c5575081810a6112e7565b6112cf8383611200565b80600019048211156112e3576112e361139a565b0290505b92915050565b60008160001904831182151516156113075761130761139a565b500290565b60006001600160a01b038381169083168181101561132c5761132c61139a565b039392505050565b6000828210156113465761134661139a565b500390565b60008261135a5761135a6113b0565b500690565b60008160020b627fffff198114156113795761137961139a565b9003919050565b6000600160ff1b8214156113965761139661139a565b0390565b634e487b7160e01b600052601160045260246000fd5b634e487b7160e01b600052601260045260246000fd5b6001600160a01b03811681146113db57600080fd5b5056fea26469706673582212202d46e7b1b00b3579abb7c887b1e5264204c55843e678ebe9ff1cf535ccdfd90a64736f6c63430008040033",
  "linkReferences": {},
  "deployedLinkReferences": {}
}