{
  "_format": "hh-sol-artifact-1",
  "contractName": "Treasury",
  "sourceName": "contracts/Treasury.sol",
  "abi": [
    {
      "inputs": [],
      "stateMutability": "nonpayable",
      "type": "constructor"
    },
    {
      "anonymous": false,
      "inputs": [
        {
          "indexed": false,
          "internalType": "address",
          "name": "_address",
          "type": "address"
        }
      ],
      "name": "AddedBackingList",
      "type": "event"
    },
    {
      "anonymous": false,
      "inputs": [
        {
          "indexed": false,
          "internalType": "uint256",
          "name": "amount",
          "type": "uint256"
        }
      ],
      "name": "BurnedTos",
      "type": "event"
    },
    {
      "anonymous": false,
      "inputs": [
        {
          "indexed": false,
          "internalType": "address",
          "name": "_address",
          "type": "address"
        }
      ],
      "name": "DeletedBackingList",
      "type": "event"
    },
    {
      "anonymous": false,
      "inputs": [
        {
          "indexed": false,
          "internalType": "address",
          "name": "to",
          "type": "address"
        },
        {
          "indexed": false,
          "internalType": "uint256",
          "name": "amount",
          "type": "uint256"
        }
      ],
      "name": "DistributedFoundation",
      "type": "event"
    },
    {
      "anonymous": false,
      "inputs": [
        {
          "indexed": false,
          "internalType": "address",
          "name": "addr",
          "type": "address"
        },
        {
          "indexed": true,
          "internalType": "uint256",
          "name": "status",
          "type": "uint256"
        },
        {
          "indexed": false,
          "internalType": "bool",
          "name": "result",
          "type": "bool"
        }
      ],
      "name": "Permissioned",
      "type": "event"
    },
    {
      "anonymous": false,
      "inputs": [
        {
          "indexed": false,
          "internalType": "uint256",
          "name": "_mintAmount",
          "type": "uint256"
        },
        {
          "indexed": false,
          "internalType": "uint256",
          "name": "_payout",
          "type": "uint256"
        },
        {
          "indexed": false,
          "internalType": "bool",
          "name": "_distribute",
          "type": "bool"
        }
      ],
      "name": "RequestedMint",
      "type": "event"
    },
    {
      "anonymous": false,
      "inputs": [
        {
          "indexed": false,
          "internalType": "address",
          "name": "_recipient",
          "type": "address"
        },
        {
          "indexed": false,
          "internalType": "uint256",
          "name": "_amount",
          "type": "uint256"
        }
      ],
      "name": "RequestedTransfer",
      "type": "event"
    },
    {
      "anonymous": false,
      "inputs": [
        {
          "indexed": true,
          "internalType": "bytes32",
          "name": "role",
          "type": "bytes32"
        },
        {
          "indexed": true,
          "internalType": "bytes32",
          "name": "previousAdminRole",
          "type": "bytes32"
        },
        {
          "indexed": true,
          "internalType": "bytes32",
          "name": "newAdminRole",
          "type": "bytes32"
        }
      ],
      "name": "RoleAdminChanged",
      "type": "event"
    },
    {
      "anonymous": false,
      "inputs": [
        {
          "indexed": true,
          "internalType": "bytes32",
          "name": "role",
          "type": "bytes32"
        },
        {
          "indexed": true,
          "internalType": "address",
          "name": "account",
          "type": "address"
        },
        {
          "indexed": true,
          "internalType": "address",
          "name": "sender",
          "type": "address"
        }
      ],
      "name": "RoleGranted",
      "type": "event"
    },
    {
      "anonymous": false,
      "inputs": [
        {
          "indexed": true,
          "internalType": "bytes32",
          "name": "role",
          "type": "bytes32"
        },
        {
          "indexed": true,
          "internalType": "address",
          "name": "account",
          "type": "address"
        },
        {
          "indexed": true,
          "internalType": "address",
          "name": "sender",
          "type": "address"
        }
      ],
      "name": "RoleRevoked",
      "type": "event"
    },
    {
      "anonymous": false,
      "inputs": [
        {
          "indexed": false,
          "internalType": "address",
          "name": "calculatorAddress",
          "type": "address"
        }
      ],
      "name": "SetCalculator",
      "type": "event"
    },
    {
      "anonymous": false,
      "inputs": [
        {
          "indexed": false,
          "internalType": "address[]",
          "name": "_addr",
          "type": "address[]"
        },
        {
          "indexed": false,
          "internalType": "uint256[]",
          "name": "_percents",
          "type": "uint256[]"
        }
      ],
      "name": "SetFoundationDistributeInfo",
      "type": "event"
    },
    {
      "anonymous": false,
      "inputs": [
        {
          "indexed": false,
          "internalType": "uint256",
          "name": "mrRate",
          "type": "uint256"
        },
        {
          "indexed": false,
          "internalType": "uint256",
          "name": "amount",
          "type": "uint256"
        },
        {
          "indexed": false,
          "internalType": "bool",
          "name": "isBurn",
          "type": "bool"
        }
      ],
      "name": "SetMintRate",
      "type": "event"
    },
    {
      "anonymous": false,
      "inputs": [
        {
          "indexed": false,
          "internalType": "uint256",
          "name": "_mintRateDenominator",
          "type": "uint256"
        }
      ],
      "name": "SetMintRateDenominator",
      "type": "event"
    },
    {
      "anonymous": false,
      "inputs": [
        {
          "indexed": false,
          "internalType": "address",
          "name": "_poolAddressTOSETH",
          "type": "address"
        }
      ],
      "name": "SetPoolAddressTOSETH",
      "type": "event"
    },
    {
      "anonymous": false,
      "inputs": [
        {
          "indexed": false,
          "internalType": "address",
          "name": "_uniswapFactory",
          "type": "address"
        }
      ],
      "name": "SetUniswapV3Factory",
      "type": "event"
    },
    {
      "anonymous": false,
      "inputs": [
        {
          "indexed": false,
          "internalType": "address",
          "name": "_wethAddress",
          "type": "address"
        }
      ],
      "name": "SetWethAddress",
      "type": "event"
    },
    {
      "inputs": [],
      "name": "ADMIN_ROLE",
      "outputs": [
        {
          "internalType": "bytes32",
          "name": "",
          "type": "bytes32"
        }
      ],
      "stateMutability": "view",
      "type": "function"
    },
    {
      "inputs": [],
      "name": "DEFAULT_ADMIN_ROLE",
      "outputs": [
        {
          "internalType": "bytes32",
          "name": "",
          "type": "bytes32"
        }
      ],
      "stateMutability": "view",
      "type": "function"
    },
    {
      "inputs": [],
      "name": "POLICY_ROLE",
      "outputs": [
        {
          "internalType": "bytes32",
          "name": "",
          "type": "bytes32"
        }
      ],
      "stateMutability": "view",
      "type": "function"
    },
    {
      "inputs": [
        {
          "internalType": "address",
          "name": "account",
          "type": "address"
        }
      ],
      "name": "addAdmin",
      "outputs": [],
      "stateMutability": "nonpayable",
      "type": "function"
    },
    {
      "inputs": [
        {
          "internalType": "address",
          "name": "_address",
          "type": "address"
        }
      ],
      "name": "addBackingList",
      "outputs": [],
      "stateMutability": "nonpayable",
      "type": "function"
    },
    {
      "inputs": [
        {
          "internalType": "address",
          "name": "_address",
          "type": "address"
        }
      ],
      "name": "addBondAsset",
      "outputs": [],
      "stateMutability": "nonpayable",
      "type": "function"
    },
    {
      "inputs": [
        {
          "internalType": "address",
          "name": "_account",
          "type": "address"
        }
      ],
      "name": "addPolicy",
      "outputs": [],
      "stateMutability": "nonpayable",
      "type": "function"
    },
    {
      "inputs": [
        {
          "internalType": "address",
          "name": "_owner",
          "type": "address"
        }
      ],
      "name": "addProxyAdmin",
      "outputs": [],
      "stateMutability": "nonpayable",
      "type": "function"
    },
    {
      "inputs": [],
      "name": "allBacking",
      "outputs": [
        {
          "internalType": "address[]",
          "name": "",
          "type": "address[]"
        }
      ],
      "stateMutability": "view",
      "type": "function"
    },
    {
      "inputs": [],
      "name": "allMinting",
      "outputs": [
        {
          "internalType": "address[]",
          "name": "mintAddress",
          "type": "address[]"
        },
        {
          "internalType": "uint256[]",
          "name": "mintPercents",
          "type": "uint256[]"
        }
      ],
      "stateMutability": "view",
      "type": "function"
    },
    {
      "inputs": [
        {
          "internalType": "address",
          "name": "",
          "type": "address"
        }
      ],
      "name": "backingIndexPlusOne",
      "outputs": [
        {
          "internalType": "uint256",
          "name": "",
          "type": "uint256"
        }
      ],
      "stateMutability": "view",
      "type": "function"
    },
    {
      "inputs": [],
      "name": "backingRateETHPerTOS",
      "outputs": [
        {
          "internalType": "uint256",
          "name": "",
          "type": "uint256"
        }
      ],
      "stateMutability": "view",
      "type": "function"
    },
    {
      "inputs": [],
      "name": "backingReserve",
      "outputs": [
        {
          "internalType": "uint256",
          "name": "",
          "type": "uint256"
        }
      ],
      "stateMutability": "view",
      "type": "function"
    },
    {
      "inputs": [],
      "name": "backingReserveETH",
      "outputs": [
        {
          "internalType": "uint256",
          "name": "",
          "type": "uint256"
        }
      ],
      "stateMutability": "view",
      "type": "function"
    },
    {
      "inputs": [],
      "name": "backingReserveTOS",
      "outputs": [
        {
          "internalType": "uint256",
          "name": "",
          "type": "uint256"
        }
      ],
      "stateMutability": "view",
      "type": "function"
    },
    {
      "inputs": [
        {
          "internalType": "uint256",
          "name": "",
          "type": "uint256"
        }
      ],
      "name": "backings",
      "outputs": [
        {
          "internalType": "address",
          "name": "",
          "type": "address"
        }
      ],
      "stateMutability": "view",
      "type": "function"
    },
    {
      "inputs": [],
      "name": "calculator",
      "outputs": [
        {
          "internalType": "address",
          "name": "",
          "type": "address"
        }
      ],
      "stateMutability": "view",
      "type": "function"
    },
    {
      "inputs": [
        {
          "internalType": "uint256",
          "name": "amount",
          "type": "uint256"
        }
      ],
      "name": "checkTosSolvency",
      "outputs": [
        {
          "internalType": "bool",
          "name": "",
          "type": "bool"
        }
      ],
      "stateMutability": "view",
      "type": "function"
    },
    {
      "inputs": [
        {
          "internalType": "uint256",
          "name": "_checkMintRate",
          "type": "uint256"
        },
        {
          "internalType": "uint256",
          "name": "amount",
          "type": "uint256"
        }
      ],
      "name": "checkTosSolvencyAfterTOSBurn",
      "outputs": [
        {
          "internalType": "bool",
          "name": "",
          "type": "bool"
        }
      ],
      "stateMutability": "view",
      "type": "function"
    },
    {
      "inputs": [
        {
          "internalType": "uint256",
          "name": "_checkMintRate",
          "type": "uint256"
        },
        {
          "internalType": "uint256",
          "name": "amount",
          "type": "uint256"
        }
      ],
      "name": "checkTosSolvencyAfterTOSMint",
      "outputs": [
        {
          "internalType": "bool",
          "name": "",
          "type": "bool"
        }
      ],
      "stateMutability": "view",
      "type": "function"
    },
    {
      "inputs": [
        {
          "internalType": "address",
          "name": "_address",
          "type": "address"
        }
      ],
      "name": "deleteBackingList",
      "outputs": [],
      "stateMutability": "nonpayable",
      "type": "function"
    },
    {
      "inputs": [
        {
          "internalType": "address",
          "name": "_account",
          "type": "address"
        }
      ],
      "name": "deletePolicy",
      "outputs": [],
      "stateMutability": "nonpayable",
      "type": "function"
    },
    {
      "inputs": [
        {
          "internalType": "uint256",
          "name": "_status",
          "type": "uint256"
        },
        {
          "internalType": "address",
          "name": "_toDisable",
          "type": "address"
        }
      ],
      "name": "disable",
      "outputs": [],
      "stateMutability": "nonpayable",
      "type": "function"
    },
    {
      "inputs": [
        {
          "internalType": "uint256",
          "name": "_status",
          "type": "uint256"
        },
        {
          "internalType": "address",
          "name": "_address",
          "type": "address"
        }
      ],
      "name": "enable",
      "outputs": [],
      "stateMutability": "nonpayable",
      "type": "function"
    },
    {
      "inputs": [],
      "name": "enableStaking",
      "outputs": [
        {
          "internalType": "uint256",
          "name": "",
          "type": "uint256"
        }
      ],
      "stateMutability": "view",
      "type": "function"
    },
    {
      "inputs": [],
      "name": "foundationAmount",
      "outputs": [
        {
          "internalType": "uint256",
          "name": "",
          "type": "uint256"
        }
      ],
      "stateMutability": "view",
      "type": "function"
    },
    {
      "inputs": [],
      "name": "foundationDistribute",
      "outputs": [],
      "stateMutability": "nonpayable",
      "type": "function"
    },
    {
      "inputs": [],
      "name": "foundationTotalPercentage",
      "outputs": [
        {
          "internalType": "uint256",
          "name": "",
          "type": "uint256"
        }
      ],
      "stateMutability": "view",
      "type": "function"
    },
    {
      "inputs": [],
      "name": "getETHPricePerTOS",
      "outputs": [
        {
          "internalType": "uint256",
          "name": "",
          "type": "uint256"
        }
      ],
      "stateMutability": "view",
      "type": "function"
    },
    {
      "inputs": [],
      "name": "getMintRate",
      "outputs": [
        {
          "internalType": "uint256",
          "name": "",
          "type": "uint256"
        }
      ],
      "stateMutability": "view",
      "type": "function"
    },
    {
      "inputs": [
        {
          "internalType": "bytes32",
          "name": "role",
          "type": "bytes32"
        }
      ],
      "name": "getRoleAdmin",
      "outputs": [
        {
          "internalType": "bytes32",
          "name": "",
          "type": "bytes32"
        }
      ],
      "stateMutability": "view",
      "type": "function"
    },
    {
      "inputs": [],
      "name": "getTOSPricePerETH",
      "outputs": [
        {
          "internalType": "uint256",
          "name": "",
          "type": "uint256"
        }
      ],
      "stateMutability": "view",
      "type": "function"
    },
    {
      "inputs": [
        {
          "internalType": "bytes32",
          "name": "role",
          "type": "bytes32"
        },
        {
          "internalType": "address",
          "name": "account",
          "type": "address"
        }
      ],
      "name": "grantRole",
      "outputs": [],
      "stateMutability": "nonpayable",
      "type": "function"
    },
    {
      "inputs": [
        {
          "internalType": "uint256",
          "name": "role",
          "type": "uint256"
        },
        {
          "internalType": "address",
          "name": "account",
          "type": "address"
        }
      ],
      "name": "hasPermission",
      "outputs": [
        {
          "internalType": "bool",
          "name": "",
          "type": "bool"
        }
      ],
      "stateMutability": "view",
      "type": "function"
    },
    {
      "inputs": [
        {
          "internalType": "bytes32",
          "name": "role",
          "type": "bytes32"
        },
        {
          "internalType": "address",
          "name": "account",
          "type": "address"
        }
      ],
      "name": "hasRole",
      "outputs": [
        {
          "internalType": "bool",
          "name": "",
          "type": "bool"
        }
      ],
      "stateMutability": "view",
      "type": "function"
    },
    {
      "inputs": [
        {
          "internalType": "address",
          "name": "_address",
          "type": "address"
        },
        {
          "internalType": "enum LibTreasury.STATUS",
          "name": "_status",
          "type": "uint8"
        }
      ],
      "name": "indexInRegistry",
      "outputs": [
        {
          "internalType": "bool",
          "name": "",
          "type": "bool"
        },
        {
          "internalType": "uint256",
          "name": "",
          "type": "uint256"
        }
      ],
      "stateMutability": "view",
      "type": "function"
    },
    {
      "inputs": [
        {
          "internalType": "address",
          "name": "account",
          "type": "address"
        }
      ],
      "name": "isAdmin",
      "outputs": [
        {
          "internalType": "bool",
          "name": "",
          "type": "bool"
        }
      ],
      "stateMutability": "view",
      "type": "function"
    },
    {
      "inputs": [
        {
          "internalType": "address",
          "name": "account",
          "type": "address"
        }
      ],
      "name": "isBonder",
      "outputs": [
        {
          "internalType": "bool",
          "name": "",
          "type": "bool"
        }
      ],
      "stateMutability": "view",
      "type": "function"
    },
    {
      "inputs": [
        {
          "internalType": "address",
          "name": "account",
          "type": "address"
        }
      ],
      "name": "isPolicy",
      "outputs": [
        {
          "internalType": "bool",
          "name": "",
          "type": "bool"
        }
      ],
      "stateMutability": "view",
      "type": "function"
    },
    {
      "inputs": [
        {
          "internalType": "address",
          "name": "account",
          "type": "address"
        }
      ],
      "name": "isProxyAdmin",
      "outputs": [
        {
          "internalType": "bool",
          "name": "",
          "type": "bool"
        }
      ],
      "stateMutability": "view",
      "type": "function"
    },
    {
      "inputs": [
        {
          "internalType": "address",
          "name": "account",
          "type": "address"
        }
      ],
      "name": "isStaker",
      "outputs": [
        {
          "internalType": "bool",
          "name": "",
          "type": "bool"
        }
      ],
      "stateMutability": "view",
      "type": "function"
    },
    {
      "inputs": [
        {
          "internalType": "uint256",
          "name": "",
          "type": "uint256"
        }
      ],
      "name": "lpTokens",
      "outputs": [
        {
          "internalType": "uint256",
          "name": "",
          "type": "uint256"
        }
      ],
      "stateMutability": "view",
      "type": "function"
    },
    {
      "inputs": [],
      "name": "mintRate",
      "outputs": [
        {
          "internalType": "uint256",
          "name": "",
          "type": "uint256"
        }
      ],
      "stateMutability": "view",
      "type": "function"
    },
    {
      "inputs": [],
      "name": "mintRateDenominator",
      "outputs": [
        {
          "internalType": "uint256",
          "name": "",
          "type": "uint256"
        }
      ],
      "stateMutability": "view",
      "type": "function"
    },
    {
      "inputs": [
        {
          "internalType": "uint256",
          "name": "",
          "type": "uint256"
        }
      ],
      "name": "mintings",
      "outputs": [
        {
          "internalType": "address",
          "name": "mintAddress",
          "type": "address"
        },
        {
          "internalType": "uint256",
          "name": "mintPercents",
          "type": "uint256"
        }
      ],
      "stateMutability": "view",
      "type": "function"
    },
    {
      "inputs": [
        {
          "internalType": "enum LibTreasury.STATUS",
          "name": "",
          "type": "uint8"
        },
        {
          "internalType": "address",
          "name": "",
          "type": "address"
        }
      ],
      "name": "permissions",
      "outputs": [
        {
          "internalType": "bool",
          "name": "",
          "type": "bool"
        }
      ],
      "stateMutability": "view",
      "type": "function"
    },
    {
      "inputs": [],
      "name": "poolAddressTOSETH",
      "outputs": [
        {
          "internalType": "address",
          "name": "",
          "type": "address"
        }
      ],
      "stateMutability": "view",
      "type": "function"
    },
    {
      "inputs": [
        {
          "internalType": "enum LibTreasury.STATUS",
          "name": "",
          "type": "uint8"
        },
        {
          "internalType": "uint256",
          "name": "",
          "type": "uint256"
        }
      ],
      "name": "registry",
      "outputs": [
        {
          "internalType": "address",
          "name": "",
          "type": "address"
        }
      ],
      "stateMutability": "view",
      "type": "function"
    },
    {
      "inputs": [],
      "name": "removeAdmin",
      "outputs": [],
      "stateMutability": "nonpayable",
      "type": "function"
    },
    {
      "inputs": [],
      "name": "removePolicy",
      "outputs": [],
      "stateMutability": "nonpayable",
      "type": "function"
    },
    {
      "inputs": [],
      "name": "removeProxyAdmin",
      "outputs": [],
      "stateMutability": "nonpayable",
      "type": "function"
    },
    {
      "inputs": [
        {
          "internalType": "bytes32",
          "name": "role",
          "type": "bytes32"
        },
        {
          "internalType": "address",
          "name": "account",
          "type": "address"
        }
      ],
      "name": "renounceRole",
      "outputs": [],
      "stateMutability": "nonpayable",
      "type": "function"
    },
    {
      "inputs": [
        {
          "internalType": "uint256",
          "name": "_mintAmount",
          "type": "uint256"
        },
        {
          "internalType": "uint256",
          "name": "_payout",
          "type": "uint256"
        },
        {
          "internalType": "bool",
          "name": "_distribute",
          "type": "bool"
        }
      ],
      "name": "requestMint",
      "outputs": [],
      "stateMutability": "nonpayable",
      "type": "function"
    },
    {
      "inputs": [
        {
          "internalType": "address",
          "name": "_recipient",
          "type": "address"
        },
        {
          "internalType": "uint256",
          "name": "_amount",
          "type": "uint256"
        }
      ],
      "name": "requestTransfer",
      "outputs": [],
      "stateMutability": "nonpayable",
      "type": "function"
    },
    {
      "inputs": [
        {
          "internalType": "bytes32",
          "name": "role",
          "type": "bytes32"
        },
        {
          "internalType": "address",
          "name": "account",
          "type": "address"
        }
      ],
      "name": "revokeRole",
      "outputs": [],
      "stateMutability": "nonpayable",
      "type": "function"
    },
    {
      "inputs": [
        {
          "internalType": "address",
          "name": "_calculator",
          "type": "address"
        }
      ],
      "name": "setCalculator",
      "outputs": [],
      "stateMutability": "nonpayable",
      "type": "function"
    },
    {
      "inputs": [
        {
          "internalType": "address[]",
          "name": "_address",
          "type": "address[]"
        },
        {
          "internalType": "uint256[]",
          "name": "_percents",
          "type": "uint256[]"
        }
      ],
      "name": "setFoundationDistributeInfo",
      "outputs": [],
      "stateMutability": "nonpayable",
      "type": "function"
    },
    {
      "inputs": [
        {
          "internalType": "uint256",
          "name": "_mrRate",
          "type": "uint256"
        },
        {
          "internalType": "uint256",
          "name": "amount",
          "type": "uint256"
        },
        {
          "internalType": "bool",
          "name": "_isBurn",
          "type": "bool"
        }
      ],
      "name": "setMR",
      "outputs": [],
      "stateMutability": "nonpayable",
      "type": "function"
    },
    {
      "inputs": [
        {
          "internalType": "uint256",
          "name": "_mintRateDenominator",
          "type": "uint256"
        }
      ],
      "name": "setMintRateDenominator",
      "outputs": [],
      "stateMutability": "nonpayable",
      "type": "function"
    },
    {
      "inputs": [
        {
          "internalType": "address",
          "name": "_poolAddressTOSETH",
          "type": "address"
        }
      ],
      "name": "setPoolAddressTOSETH",
      "outputs": [],
      "stateMutability": "nonpayable",
      "type": "function"
    },
    {
      "inputs": [
        {
          "internalType": "address",
          "name": "_uniswapFactory",
          "type": "address"
        }
      ],
      "name": "setUniswapV3Factory",
      "outputs": [],
      "stateMutability": "nonpayable",
      "type": "function"
    },
    {
      "inputs": [
        {
          "internalType": "address",
          "name": "_wethAddress",
          "type": "address"
        }
      ],
      "name": "setWeth",
      "outputs": [],
      "stateMutability": "nonpayable",
      "type": "function"
    },
    {
      "inputs": [],
      "name": "stakingV2",
      "outputs": [
        {
          "internalType": "address",
          "name": "",
          "type": "address"
        }
      ],
      "stateMutability": "view",
      "type": "function"
    },
    {
      "inputs": [
        {
          "internalType": "bytes4",
          "name": "interfaceId",
          "type": "bytes4"
        }
      ],
      "name": "supportsInterface",
      "outputs": [
        {
          "internalType": "bool",
          "name": "",
          "type": "bool"
        }
      ],
      "stateMutability": "view",
      "type": "function"
    },
    {
      "inputs": [],
      "name": "tos",
      "outputs": [
        {
          "internalType": "contract IERC20",
          "name": "",
          "type": "address"
        }
      ],
      "stateMutability": "view",
      "type": "function"
    },
    {
      "inputs": [
        {
          "internalType": "uint256",
          "name": "amount",
          "type": "uint256"
        }
      ],
      "name": "tosBurn",
      "outputs": [],
      "stateMutability": "nonpayable",
      "type": "function"
    },
    {
      "inputs": [],
      "name": "totalBacking",
      "outputs": [
        {
          "internalType": "uint256",
          "name": "",
          "type": "uint256"
        }
      ],
      "stateMutability": "view",
      "type": "function"
    },
    {
      "inputs": [],
      "name": "totalMinting",
      "outputs": [
        {
          "internalType": "uint256",
          "name": "",
          "type": "uint256"
        }
      ],
      "stateMutability": "view",
      "type": "function"
    },
    {
      "inputs": [
        {
          "internalType": "address",
          "name": "newAdmin",
          "type": "address"
        }
      ],
      "name": "transferAdmin",
      "outputs": [],
      "stateMutability": "nonpayable",
      "type": "function"
    },
    {
      "inputs": [
        {
          "internalType": "address",
          "name": "newAdmin",
          "type": "address"
        }
      ],
      "name": "transferProxyAdmin",
      "outputs": [],
      "stateMutability": "nonpayable",
      "type": "function"
    },
    {
      "inputs": [],
      "name": "uniswapV3Factory",
      "outputs": [
        {
          "internalType": "address",
          "name": "",
          "type": "address"
        }
      ],
      "stateMutability": "view",
      "type": "function"
    },
    {
      "inputs": [
        {
          "internalType": "uint256",
          "name": "_index",
          "type": "uint256"
        }
      ],
      "name": "viewMintingInfo",
      "outputs": [
        {
          "internalType": "address",
          "name": "mintAddress",
          "type": "address"
        },
        {
          "internalType": "uint256",
          "name": "mintPercents",
          "type": "uint256"
        }
      ],
      "stateMutability": "view",
      "type": "function"
    },
    {
      "inputs": [],
      "name": "wethAddress",
      "outputs": [
        {
          "internalType": "address",
          "name": "",
          "type": "address"
        }
      ],
      "stateMutability": "view",
      "type": "function"
    },
    {
      "inputs": [
        {
          "internalType": "address",
          "name": "account",
          "type": "address"
        }
      ],
      "name": "withdrawEther",
      "outputs": [],
      "stateMutability": "nonpayable",
      "type": "function"
    }
  ],
  "bytecode": "0x60c0604052601660808190527f54726561737572793a206e6f742061636365707465640000000000000000000060a09081526200004091600091906200012a565b506040805180820190915260168082527f54726561737572793a206e6f7420617070726f76656400000000000000000000602090920191825262000087916001916200012a565b506040805180820190915260178082527f54726561737572793a20696e76616c696420746f6b656e0000000000000000006020909201918252620000ce916002916200012a565b5060408051808201909152601f8082527f54726561737572793a20696e73756666696369656e7420726573657276657300602090920191825262000115916003916200012a565b503480156200012357600080fd5b506200020d565b8280546200013890620001d0565b90600052602060002090601f0160209004810192826200015c5760008555620001a7565b82601f106200017757805160ff1916838001178555620001a7565b82800160010185558215620001a7579182015b82811115620001a75782518255916020019190600101906200018a565b50620001b5929150620001b9565b5090565b5b80821115620001b55760008155600101620001ba565b600181811c90821680620001e557607f821691505b602082108114156200020757634e487b7160e01b600052602260045260246000fd5b50919050565b6149b7806200021d6000396000f3fe608060405234801561001057600080fd5b506004361061043e5760003560e01c806397168c7211610236578063c62a0bd81161013b578063e170c19a116100c3578063f2ccf1ea11610087578063f2ccf1ea1461094f578063f47f2f1d14610962578063f908ed3714610975578063fad1c85c1461097e578063ffc12dae1461099157600080fd5b8063e170c19a146108fb578063e2cfcfee1461090e578063eb2cd25814610921578063ef7c6c0f14610929578063f1c2689e1461093c57600080fd5b8063d11aca621161010a578063d11aca62146108a4578063d547741f146108ac578063d6f9b343146108bf578063da9c8864146108d5578063dc4655a1146108e857600080fd5b8063c62a0bd814610862578063ca0dcf1614610875578063ca2c2a591461087e578063ce3e39c01461089157600080fd5b8063aa7e445c116101be578063b84ef0811161018d578063b84ef08114610819578063b8d1452f1461082c578063be72f2d31461083f578063c53468f014610847578063c5bb95bc1461085a57600080fd5b8063aa7e445c146107ee578063af933b57146107f6578063b11a35ea14610809578063b3bc8ae81461081157600080fd5b80639ea64985116102055780639ea649851461078d578063a0b9bca9146107a0578063a217fddf146107c0578063a44b8287146107c8578063aa5fc794146107db57600080fd5b806397168c7214610756578063976b58e9146107695780639982f45e146107725780639a202d471461078557600080fd5b80635fabdf7c116103475780638356ca4f116102cf5780638e549a45116102935780638e549a45146106f657806391d14854146106fe57806393988b531461071157806396f0bd611461073b57806396f1557c1461074357600080fd5b80638356ca4f146106a157806385e36cc2146106b457806388611736146106bd57806389f395de146106d05780638d71bc5b146106e357600080fd5b80637048027511610316578063704802751461062157806375829def1461063457806375b238fc1461064757806376f2766c1461065c578063794dde641461068e57600080fd5b80635fabdf7c146105eb57806365cb3a83146105fe57806368afaca8146106065780636f1e85331461060e57600080fd5b80632f2ff15d116103ca5780633c20af9f116103995780633c20af9f146105745780633e0f19a0146105875780634cf158581461059a5780634f0e0ef3146105ad5780635b549182146105d857600080fd5b80632f2ff15d14610518578063330dd3451461052b57806333f21cd51461055957806336568abe1461056157600080fd5b80631f770e7b116104115780631f770e7b146104a557806321320fcc146104ba57806322985246146104cd578063248a9ca3146104e257806324d7806c1461050557600080fd5b806301ffc9a71461044357806314fba4791461046b5780631bb5e2dc1461047d5780631cf2989314610490575b600080fd5b610456610451366004614361565b6109a4565b60405190151581526020015b60405180910390f35b6012545b604051908152602001610462565b61046f61048b36600461431e565b6109db565b6104986109fc565b60405161046291906145d6565b6104b86104b33660046141d9565b610a5e565b005b6104566104c836600461431e565b610ac0565b61046f60008051602061496283398151915281565b61046f6104f036600461431e565b60009081526014602052604090206001015490565b6104566105133660046141d9565b610b8f565b6104b8610526366004614336565b610ba9565b6104566105393660046143a5565b600f60209081526000928352604080842090915290825290205460ff1681565b61046f610bd3565b6104b861056f366004614336565b610be2565b6104b861058236600461431e565b610c5c565b6104b8610595366004614336565b610e0c565b6104566105a8366004614336565b6113a0565b6006546105c0906001600160a01b031681565b6040516001600160a01b039091168152602001610462565b6007546105c0906001600160a01b031681565b6104b86105f93660046141d9565b61149f565b6104b86114df565b61046f61151e565b61045661061c3660046141d9565b611662565b6104b861062f3660046141d9565b6116bb565b6104b86106423660046141d9565b6116f8565b61046f60008051602061494283398151915281565b61066f61066a36600461431e565b6117ff565b604080516001600160a01b039093168352602083019190915201610462565b6104b861069c366004614336565b611837565b6104b86106af3660046141d9565b611b44565b61046f600c5481565b6008546105c0906001600160a01b031681565b6004546105c0906001600160a01b031681565b6009546105c0906001600160a01b031681565b61046f611c22565b61045661070c366004614336565b611d25565b61072461071f3660046141f3565b611d50565b604080519215158352602083019190915201610462565b600a5461046f565b6104b86107513660046141d9565b611e7e565b6104b861076436600461444d565b611eae565b61046f600d5481565b6104b8610780366004614252565b612138565b6104b861248d565b6104b861079b3660046141d9565b6124d9565b61046f6107ae3660046141d9565b60106020526000908152604090205481565b61046f600081565b6105c06107d63660046143d0565b612571565b6104b86107e9366004614229565b6125a9565b6104b86126ec565b6104b86108043660046141d9565b61289e565b61046f61295e565b61046f612ee6565b6104b86108273660046141d9565b612f15565b6104b861083a3660046141d9565b612f52565b6104b861301a565b6104b86108553660046141d9565b61304a565b61046f613112565b6104b86108703660046141d9565b6131b4565b61046f600a5481565b61045661088c36600461442c565b613255565b6005546105c0906001600160a01b031681565b61046f61331d565b6104b86108ba366004614336565b6133c4565b6108c76133e9565b6040516104629291906145e9565b6105c06108e336600461431e565b613598565b6104566108f63660046141d9565b6135c2565b6104b861090936600461431e565b6135ce565b6104b861091c3660046141d9565b61367a565b60115461046f565b6104b861093736600461444d565b61371b565b61045661094a36600461442c565b6138ab565b6104b861095d3660046141d9565b61395e565b6104566109703660046141d9565b613b50565b61046f600b5481565b61045661098c3660046141d9565b613b5c565b61066f61099f36600461431e565b613b76565b60006001600160e01b03198216637965db0b60e01b14806109d557506301ffc9a760e01b6001600160e01b03198316145b92915050565b601381815481106109eb57600080fd5b600091825260209091200154905081565b60606011805480602002602001604051908101604052809291908181526020018280548015610a5457602002820191906000526020600020905b81546001600160a01b03168152600190910190602001808311610a36575b5050505050905090565b610a6733613b5c565b610a8c5760405162461bcd60e51b8152600401610a83906147d1565b60405180910390fd5b806001600160a01b038116610ab35760405162461bcd60e51b8152600401610a8390614718565b610abc82613bf4565b5050565b6000600b54600a54610ad061295e565b610ada9190614878565b610ae49190614858565b82600460009054906101000a90046001600160a01b03166001600160a01b03166318160ddd6040518163ffffffff1660e01b815260040160206040518083038186803b158015610b3357600080fd5b505afa158015610b47573d6000803e3d6000fd5b505050506040513d601f19601f82011682018060405250810190610b6b9190614414565b610b759190614840565b11610b8257506001919050565b506000919050565b919050565b60006109d560008051602061494283398151915283611d25565b600082815260146020526040902060010154610bc481613cd7565b610bce8383613ce1565b505050565b6000610bdd61295e565b905090565b6001600160a01b0381163314610c525760405162461bcd60e51b815260206004820152602f60248201527f416363657373436f6e74726f6c3a2063616e206f6e6c792072656e6f756e636560448201526e103937b632b9903337b91039b2b63360891b6064820152608401610a83565b610abc8282613d67565b610c6533613b50565b610c815760405162461bcd60e51b8152600401610a8390614789565b600480546040516370a0823160e01b8152309281019290925282916001600160a01b03909116906370a082319060240160206040518083038186803b158015610cc957600080fd5b505afa158015610cdd573d6000803e3d6000fd5b505050506040513d601f19601f82011682018060405250810190610d019190614414565b1015610d4f5760405162461bcd60e51b815260206004820152601860248201527f62616c616e636520697320696e73756666696369656e742e00000000000000006044820152606401610a83565b60048054604051632770a7eb60e21b81523092810192909252602482018390526001600160a01b031690639dc29fac90604401602060405180830381600087803b158015610d9c57600080fd5b505af1158015610db0573d6000803e3d6000fd5b505050506040513d601f19601f82011682018060405250810190610dd491906142bb565b506040518181527fb87bbd0c98ee2e2458f413add923f8d52727bfb4ae90d947411c1242ff29d6d6906020015b60405180910390a150565b610e1533613b50565b610e315760405162461bcd60e51b8152600401610a8390614789565b604051632e31150760e11b81526004810183905260009073__$9cfa9b0e3c0a9a6ba047022cc53a6c3f44$__90635c622a0e9060240160206040518083038186803b158015610e7f57600080fd5b505af4158015610e93573d6000803e3d6000fd5b505050506040513d601f19601f82011682018060405250810190610eb79190614389565b9050600081600a811115610edb57634e487b7160e01b600052602160045260246000fd5b1415610f1b5760405162461bcd60e51b815260206004820152600f60248201526e2727a722903832b936b4b9b9b4b7b760891b6044820152606401610a83565b600f600082600a811115610f3f57634e487b7160e01b600052602160045260246000fd5b600a811115610f5e57634e487b7160e01b600052602160045260246000fd5b8152602080820192909252604090810160009081206001600160a01b038616825290925290205460ff161515600114610fce5760405162461bcd60e51b81526020600482015260126024820152716861736e2774207065726d697373696f6e7360701b6044820152606401610a83565b6000600f600083600a811115610ff457634e487b7160e01b600052602160045260246000fd5b600a81111561101357634e487b7160e01b600052602160045260246000fd5b8152602080820192909252604090810160009081206001600160a01b03871682529092528120805460ff191692151592909217909155806110548484611d50565b915091508180156110b857506000600e600085600a81111561108657634e487b7160e01b600052602160045260246000fd5b600a8111156110a557634e487b7160e01b600052602160045260246000fd5b8152602081019190915260400160002054115b15611337576001600e600085600a8111156110e357634e487b7160e01b600052602160045260246000fd5b600a81111561110257634e487b7160e01b600052602160045260246000fd5b815260208101919091526040016000205461111d9190614897565b8110156112a657600e600084600a81111561114857634e487b7160e01b600052602160045260246000fd5b600a81111561116757634e487b7160e01b600052602160045260246000fd5b81526020019081526020016000206001600e600086600a81111561119b57634e487b7160e01b600052602160045260246000fd5b600a8111156111ba57634e487b7160e01b600052602160045260246000fd5b81526020810191909152604001600020546111d59190614897565b815481106111f357634e487b7160e01b600052603260045260246000fd5b60009182526020822001546001600160a01b031690600e9085600a81111561122b57634e487b7160e01b600052602160045260246000fd5b600a81111561124a57634e487b7160e01b600052602160045260246000fd5b8152602001908152602001600020828154811061127757634e487b7160e01b600052603260045260246000fd5b9060005260206000200160006101000a8154816001600160a01b0302191690836001600160a01b031602179055505b600e600084600a8111156112ca57634e487b7160e01b600052602160045260246000fd5b600a8111156112e957634e487b7160e01b600052602160045260246000fd5b815260200190815260200160002080548061131457634e487b7160e01b600052603160045260246000fd5b600082815260209020810160001990810180546001600160a01b03191690550190555b82600a81111561135757634e487b7160e01b600052602160045260246000fd5b604080516001600160a01b0387168152600060208201527f3c6eb44f3a083ba65fca4eae750beac5efa33a89dec0e50004b62cbb835cc0b6910160405180910390a25050505050565b6000600f600073__$9cfa9b0e3c0a9a6ba047022cc53a6c3f44$__635c622a0e866040518263ffffffff1660e01b81526004016113df91815260200190565b60206040518083038186803b1580156113f757600080fd5b505af415801561140b573d6000803e3d6000fd5b505050506040513d601f19601f8201168201806040525081019061142f9190614389565b600a81111561144e57634e487b7160e01b600052602160045260246000fd5b600a81111561146d57634e487b7160e01b600052602160045260246000fd5b8152602080820192909252604090810160009081206001600160a01b038616825290925290205460ff16905092915050565b6114a833613b50565b6114c45760405162461bcd60e51b8152600401610a8390614789565b6114dc600080516020614962833981519152826133c4565b50565b6114e833613b5c565b6115045760405162461bcd60e51b8152600401610a83906147d1565b61151c60008051602061496283398151915233610be2565b565b6009546000906001600160a01b0316158015906115c75750600960009054906101000a90046001600160a01b03166001600160a01b0316631a6865026040518163ffffffff1660e01b815260040160206040518083038186803b15801561158457600080fd5b505afa158015611598573d6000803e3d6000fd5b505050506040513d601f19601f820116820180604052508101906115bc91906143ed565b6001600160801b0316155b156115dc57600a54600b54610bdd9190614858565b600560009054906101000a90046001600160a01b03166001600160a01b03166368afaca86040518163ffffffff1660e01b815260040160206040518083038186803b15801561162a57600080fd5b505afa15801561163e573d6000803e3d6000fd5b505050506040513d601f19601f82011682018060405250810190610bdd9190614414565b6000600f81600a5b600a81111561168957634e487b7160e01b600052602160045260246000fd5b8152602080820192909252604090810160009081206001600160a01b039095168152939091529091205460ff16919050565b6116c433613b50565b6116e05760405162461bcd60e51b8152600401610a8390614789565b6114dc60008051602061494283398151915282610ba9565b61170133610b8f565b80611710575061171033613b50565b61172c5760405162461bcd60e51b8152600401610a8390614747565b6001600160a01b03811661177d5760405162461bcd60e51b815260206004820152601860248201527741636365737369626c653a207a65726f206164647265737360401b6044820152606401610a83565b336001600160a01b03821614156117cf5760405162461bcd60e51b815260206004820152601660248201527520b1b1b2b9b9b4b136329d1039b0b6b29030b236b4b760511b6044820152606401610a83565b6117e760008051602061494283398151915282610ba9565b6114dc60008051602061494283398151915233610be2565b6012818154811061180f57600080fd5b6000918252602090912060029091020180546001909101546001600160a01b03909116915082565b61184033613b50565b61185c5760405162461bcd60e51b8152600401610a8390614789565b604051632e31150760e11b81526004810183905260009073__$9cfa9b0e3c0a9a6ba047022cc53a6c3f44$__90635c622a0e9060240160206040518083038186803b1580156118aa57600080fd5b505af41580156118be573d6000803e3d6000fd5b505050506040513d601f19601f820116820180604052508101906118e29190614389565b9050600081600a81111561190657634e487b7160e01b600052602160045260246000fd5b14156119465760405162461bcd60e51b815260206004820152600f60248201526e2727a722903832b936b4b9b9b4b7b760891b6044820152606401610a83565b600f600082600a81111561196a57634e487b7160e01b600052602160045260246000fd5b600a81111561198957634e487b7160e01b600052602160045260246000fd5b8152602080820192909252604090810160009081206001600160a01b038616825290925290205460ff16156119ee5760405162461bcd60e51b815260206004820152600b60248201526a185b1c9958591e481cd95d60aa1b6044820152606401610a83565b6001600f600083600a811115611a1457634e487b7160e01b600052602160045260246000fd5b600a811115611a3357634e487b7160e01b600052602160045260246000fd5b8152602080820192909252604090810160009081206001600160a01b03871682529092528120805460ff191692151592909217909155611a738383611d50565b50905080611afa57600e600083600a811115611a9f57634e487b7160e01b600052602160045260246000fd5b600a811115611abe57634e487b7160e01b600052602160045260246000fd5b8152602080820192909252604001600090812080546001810182559082529190200180546001600160a01b0319166001600160a01b0385161790555b604080516001600160a01b03851681526001602082015285917f3c6eb44f3a083ba65fca4eae750beac5efa33a89dec0e50004b62cbb835cc0b6910160405180910390a250505050565b611b4d33613b50565b611b695760405162461bcd60e51b8152600401610a8390614789565b6001600160a01b038116611bba5760405162461bcd60e51b815260206004820152601860248201527741636365737369626c653a207a65726f206164647265737360401b6044820152606401610a83565b336001600160a01b0382161415611c0c5760405162461bcd60e51b815260206004820152601660248201527520b1b1b2b9b9b4b136329d1039b0b6b29030b236b4b760511b6044820152606401610a83565b611c17600082610ba9565b6114dc600033610be2565b6009546000906001600160a01b031615801590611ccb5750600960009054906101000a90046001600160a01b03166001600160a01b0316631a6865026040518163ffffffff1660e01b815260040160206040518083038186803b158015611c8857600080fd5b505afa158015611c9c573d6000803e3d6000fd5b505050506040513d601f19601f82011682018060405250810190611cc091906143ed565b6001600160801b0316155b15611cd75750600a5490565b600560009054906101000a90046001600160a01b03166001600160a01b0316638e549a456040518163ffffffff1660e01b815260040160206040518083038186803b15801561162a57600080fd5b60009182526014602090815260408084206001600160a01b0393909316845291905290205460ff1690565b6000806000600e600085600a811115611d7957634e487b7160e01b600052602160045260246000fd5b600a811115611d9857634e487b7160e01b600052602160045260246000fd5b8152602001908152602001600020805480602002602001604051908101604052809291908181526020018280548015611dfa57602002820191906000526020600020905b81546001600160a01b03168152600190910190602001808311611ddc575b5050505050905060005b8151811015611e6d57818181518110611e2d57634e487b7160e01b600052603260045260246000fd5b60200260200101516001600160a01b0316866001600160a01b03161415611e5b57600193509150611e779050565b80611e65816148f5565b915050611e04565b5060008092509250505b9250929050565b611e8733613b50565b611ea35760405162461bcd60e51b8152600401610a8390614789565b6114dc600082613dce565b611eb733613b5c565b611ed35760405162461bcd60e51b8152600401610a83906147d1565b82600a54141580611ee45750600082115b611f245760405162461bcd60e51b8152602060048201526011602482015270636865636b20696e7075742076616c756560781b6044820152606401610a83565b801561200957611f3483836138ab565b611f775760405162461bcd60e51b8152602060048201526014602482015273756e617661696c61626c65206d696e745261746560601b6044820152606401610a83565b81156120045760048054604051632770a7eb60e21b81523092810192909252602482018490526001600160a01b031690639dc29fac90604401602060405180830381600087803b158015611fca57600080fd5b505af1158015611fde573d6000803e3d6000fd5b505050506040513d601f19601f8201168201806040525081019061200291906142bb565b505b6120e3565b6120138383613255565b6120565760405162461bcd60e51b8152602060048201526014602482015273756e617661696c61626c65206d696e745261746560601b6044820152606401610a83565b81156120e357600480546040516340c10f1960e01b81523092810192909252602482018490526001600160a01b0316906340c10f1990604401602060405180830381600087803b1580156120a957600080fd5b505af11580156120bd573d6000803e3d6000fd5b505050506040513d601f19601f820116820180604052508101906120e191906142bb565b505b82600a54146120f257600a8390555b60408051848152602081018490528215158183015290517f0bb82b7043e6f4cbb36b3ff82f2678d0da8dc4d24c60607d3ea6c4a0b5116c9e9181900360600190a1505050565b61214133613b5c565b61215d5760405162461bcd60e51b8152600401610a83906147d1565b826121985760405162461bcd60e51b815260206004820152600b60248201526a0f4cae4de40d8cadccee8d60ab1b6044820152606401610a83565b8281146121d65760405162461bcd60e51b815260206004820152600c60248201526b0eee4dedcce40d8cadccee8d60a31b6044820152606401610a83565b6000600d81905583905b8181101561231c57600086868381811061220a57634e487b7160e01b600052603260045260246000fd5b905060200201602081019061221f91906141d9565b6001600160a01b031614156122655760405162461bcd60e51b815260206004820152600c60248201526b7a65726f206164647265737360a01b6044820152606401610a83565b600084848381811061228757634e487b7160e01b600052603260045260246000fd5b90506020020135116122cc5760405162461bcd60e51b815260206004820152600e60248201526d7a65726f205f70657263656e747360901b6044820152606401610a83565b8383828181106122ec57634e487b7160e01b600052603260045260246000fd5b90506020020135600d60008282546123049190614840565b90915550819050612314816148f5565b9150506121e0565b50612710600d54106123625760405162461bcd60e51b815260206004820152600f60248201526e77726f6e67205f70657263656e747360881b6044820152606401610a83565b61236e60126000614139565b60005b8181101561244857601260405180604001604052808888858181106123a657634e487b7160e01b600052603260045260246000fd5b90506020020160208101906123bb91906141d9565b6001600160a01b031681526020018686858181106123e957634e487b7160e01b600052603260045260246000fd5b60209081029290920135909252835460018082018655600095865294829020845160029092020180546001600160a01b0319166001600160a01b0390921691909117815592015191909201555080612440816148f5565b915050612371565b507ffcb8b54542c57e79d857f0e43e5697d82605478358e9bfd65755f1ac4f7c467c8585858560405161247e9493929190614559565b60405180910390a15050505050565b61249633610b8f565b806124a557506124a533613b50565b6124c15760405162461bcd60e51b8152600401610a8390614747565b61151c60008051602061494283398151915233610be2565b6124e2336135c2565b6125255760405162461bcd60e51b815260206004820152601460248201527331b0b63632b91034b9903737ba103137b73232b960611b6044820152606401610a83565b6001600160a01b0381166125685760405162461bcd60e51b815260206004820152600a6024820152691e995c9bc8185cdcd95d60b21b6044820152606401610a83565b6114dc81613bf4565b600e602052816000526040600020818154811061258d57600080fd5b6000918252602090912001546001600160a01b03169150829050565b6125b233611662565b6001906125d25760405162461bcd60e51b8152600401610a839190614672565b506001600160a01b038216158015906125eb5750600081115b6126375760405162461bcd60e51b815260206004820152601860248201527f7a65726f20726563697069656e74206f7220616d6f756e7400000000000000006044820152606401610a83565b8061264061331d565b101561268e5760405162461bcd60e51b815260206004820181905260248201527f74726561737572792062616c616e636520697320696e73756666696369656e746044820152606401610a83565b6004546126a5906001600160a01b03168383613dd8565b604080516001600160a01b0384168152602081018390527fac14ca7b339c0e7e9533002fffbecb915441d1cce29e21355ecccfe1b215085191015b60405180910390a15050565b6000600c5411801561270057506000600d54115b801561270d575060125415155b6127595760405162461bcd60e51b815260206004820152601b60248201527f4e6f2066756e6473206f72206e6f20646973747269627574696f6e00000000006044820152606401610a83565b600c5460005b601254811015612898576000600d546012838154811061278f57634e487b7160e01b600052603260045260246000fd5b906000526020600020906002020160010154600c546127ae9190614878565b6127b89190614858565b90506127c48184614897565b9250612811601283815481106127ea57634e487b7160e01b600052603260045260246000fd5b60009182526020909120600290910201546004546001600160a01b03908116911683613dd8565b7f4d24075306dc3984e69d480aab0d727ad8be3e8a7bb8003cf65dfac2ac36fc436012838154811061285357634e487b7160e01b600052603260045260246000fd5b600091825260209182902060029091020154604080516001600160a01b0390921682529181018490520160405180910390a15080612890816148f5565b91505061275f565b50600c55565b6128a733613b5c565b6128c35760405162461bcd60e51b8152600401610a83906147d1565b806001600160a01b0381166128ea5760405162461bcd60e51b8152600401610a8390614718565b600047116129295760405162461bcd60e51b815260206004820152600c60248201526b7a65726f2062616c616e636560a01b6044820152606401610a83565b6040516001600160a01b038316904780156108fc02916000818181858888f19350505050158015610bce573d6000803e3d6000fd5b601154600090819081908190815b81811015612e2d5780612a0257600560009054906101000a90046001600160a01b03166001600160a01b03166368afaca86040518163ffffffff1660e01b815260040160206040518083038186803b1580156129c757600080fd5b505afa1580156129db573d6000803e3d6000fd5b505050506040513d601f19601f820116820180604052508101906129ff9190614414565b92505b600654601180546001600160a01b039092169183908110612a3357634e487b7160e01b600052603260045260246000fd5b6000918252602090912001546001600160a01b03161415612ade576006546040516370a0823160e01b81523060048201526001600160a01b03909116906370a082319060240160206040518083038186803b158015612a9157600080fd5b505afa158015612aa5573d6000803e3d6000fd5b505050506040513d601f19601f82011682018060405250810190612ac99190614414565b612ad39086614840565b945060019350612e1b565b60006001600160a01b031660118281548110612b0a57634e487b7160e01b600052603260045260246000fd5b6000918252602090912001546001600160a01b031614801590612b715750600454601180546001600160a01b039092169183908110612b5957634e487b7160e01b600052603260045260246000fd5b6000918252602090912001546001600160a01b031614155b15612e1b576000806000600560009054906101000a90046001600160a01b03166001600160a01b031663bb6f48ba60118681548110612bc057634e487b7160e01b600052603260045260246000fd5b600091825260209091200154601180546001600160a01b039092169188908110612bfa57634e487b7160e01b600052603260045260246000fd5b6000918252602090912001546040516370a0823160e01b81523060048201526001600160a01b03909116906370a082319060240160206040518083038186803b158015612c4657600080fd5b505afa158015612c5a573d6000803e3d6000fd5b505050506040513d601f19601f82011682018060405250810190612c7e9190614414565b6040516001600160e01b031960e085901b1681526001600160a01b039092166004830152602482015260440160806040518083038186803b158015612cc257600080fd5b505afa158015612cd6573d6000803e3d6000fd5b505050506040513d601f19601f82011682018060405250810190612cfa91906142d7565b935050925092508215612d1857612d118189614840565b9750612e17565b8115612e17576009546001600160a01b031615801590612dc45750600960009054906101000a90046001600160a01b03166001600160a01b0316631a6865026040518163ffffffff1660e01b815260040160206040518083038186803b158015612d8157600080fd5b505afa158015612d95573d6000803e3d6000fd5b505050506040513d601f19601f82011682018060405250810190612db991906143ed565b6001600160801b0316155b15612ded57600a54600b54612dd99083614878565b612de39190614858565b612d119089614840565b670de0b6b3a7640000612e008783614878565b612e0a9190614858565b612e149089614840565b97505b5050505b80612e25816148f5565b91505061296c565b5082158015612e4657506006546001600160a01b031615155b15612ed3576006546040516370a0823160e01b81523060048201526001600160a01b03909116906370a082319060240160206040518083038186803b158015612e8e57600080fd5b505afa158015612ea2573d6000803e3d6000fd5b505050506040513d601f19601f82011682018060405250810190612ec69190614414565b612ed09085614840565b93505b612edd4785614840565b95945050505050565b6000670de0b6b3a7640000612ef9611c22565b612f0161295e565b612f0b9190614878565b610bdd9190614858565b612f1e33613b50565b612f3a5760405162461bcd60e51b8152600401610a8390614789565b6114dc60008051602061496283398151915282610ba9565b806001600160a01b038116612f795760405162461bcd60e51b8152600401610a8390614718565b612f8233613b5c565b612f9e5760405162461bcd60e51b8152600401610a83906147d1565b6006546001600160a01b0383811691161415612fcc5760405162461bcd60e51b8152600401610a839061481a565b600680546001600160a01b0319166001600160a01b0384169081179091556040519081527fff8ab24f675c1eee431de04d5ba93b5d6e1e947359771788c5db3968d10c2e3e906020016126e0565b61302333613b50565b61303f5760405162461bcd60e51b8152600401610a8390614789565b61151c600033610be2565b806001600160a01b0381166130715760405162461bcd60e51b8152600401610a8390614718565b61307a33613b5c565b6130965760405162461bcd60e51b8152600401610a83906147d1565b6005546001600160a01b03838116911614156130c45760405162461bcd60e51b8152600401610a839061481a565b600580546001600160a01b0319166001600160a01b0384169081179091556040519081527f7816a90568840c698b302fddaa32068d3ac1ecf5aa9ab4060e2ff9463583c23c906020016126e0565b6000600460009054906101000a90046001600160a01b03166001600160a01b03166318160ddd6040518163ffffffff1660e01b815260040160206040518083038186803b15801561316257600080fd5b505afa158015613176573d6000803e3d6000fd5b505050506040513d601f19601f8201168201806040525081019061319a9190614414565b6131a261295e565b612f0b90670de0b6b3a7640000614878565b6131bd33613b50565b6131d95760405162461bcd60e51b8152600401610a8390614789565b6009546001600160a01b03828116911614156132075760405162461bcd60e51b8152600401610a839061481a565b600980546001600160a01b0319166001600160a01b0383169081179091556040519081527fc01e12e9bd0b3827f706592d13f881c40e918e90ffd9e3bb9b771643a608685290602001610e01565b6000600b548361326361295e565b61326d9190614878565b6132779190614858565b82600460009054906101000a90046001600160a01b03166001600160a01b03166318160ddd6040518163ffffffff1660e01b815260040160206040518083038186803b1580156132c657600080fd5b505afa1580156132da573d6000803e3d6000fd5b505050506040513d601f19601f820116820180604052508101906132fe9190614414565b6133089190614840565b11613315575060016109d5565b5060006109d5565b600480546040516370a0823160e01b8152309281019290925260009182916001600160a01b0316906370a082319060240160206040518083038186803b15801561336657600080fd5b505afa15801561337a573d6000803e3d6000fd5b505050506040513d601f19601f8201168201806040525081019061339e9190614414565b9050600c5481106133bc57600c546133b69082614897565b91505090565b600091505090565b6000828152601460205260409020600101546133df81613cd7565b610bce8383613d67565b60125460609081908067ffffffffffffffff81111561341857634e487b7160e01b600052604160045260246000fd5b604051908082528060200260200182016040528015613441578160200160208202803683370190505b5092508067ffffffffffffffff81111561346b57634e487b7160e01b600052604160045260246000fd5b604051908082528060200260200182016040528015613494578160200160208202803683370190505b50915060005b8181101561359257601281815481106134c357634e487b7160e01b600052603260045260246000fd5b600091825260209091206002909102015484516001600160a01b039091169085908390811061350257634e487b7160e01b600052603260045260246000fd5b60200260200101906001600160a01b031690816001600160a01b0316815250506012818154811061354357634e487b7160e01b600052603260045260246000fd5b90600052602060002090600202016001015483828151811061357557634e487b7160e01b600052603260045260246000fd5b60209081029190910101528061358a816148f5565b91505061349a565b50509091565b601181815481106135a857600080fd5b6000918252602090912001546001600160a01b0316905081565b6000600f81600961166a565b6135d733613b50565b6135f35760405162461bcd60e51b8152600401610a8390614789565b80600b54141580156136055750600081115b6136455760405162461bcd60e51b8152602060048201526011602482015270636865636b20696e7075742076616c756560781b6044820152606401610a83565b600b8190556040518181527f9ff242a6ecf76b19e165c80131c467a8fce34056d7bd44c8ff30726836e580bc90602001610e01565b61368333613b50565b61369f5760405162461bcd60e51b8152600401610a8390614789565b6007546001600160a01b03828116911614156136cd5760405162461bcd60e51b8152600401610a839061481a565b600780546001600160a01b0319166001600160a01b0383169081179091556040519081527f844bdf9a7473f7dee84b48585eff441c1ed9044b2e04508067ad71b9194cdf0b90602001610e01565b828061375f5760405162461bcd60e51b8152602060048201526013602482015272151c99585cdd5c9e4e881e995c9bc81d5a5b9d606a1b6044820152606401610a83565b613768336135c2565b6001906137885760405162461bcd60e51b8152600401610a839190614672565b50600480546040516340c10f1960e01b81523092810192909252602482018690526001600160a01b0316906340c10f1990604401602060405180830381600087803b1580156137d657600080fd5b505af11580156137ea573d6000803e3d6000fd5b505050506040513d601f19601f8201168201806040525081019061380e91906142bb565b5081801561381e57506000600d54115b1561385f57600d54612710906138348587614897565b61383e9190614878565b6138489190614858565b600c60008282546138599190614840565b90915550505b6040805185815260208101859052831515918101919091527fe4e4eb0d844b2de93cf4217b8f1937dee90696f25ed5fa3ae4a023ca69d54bb3906060015b60405180910390a150505050565b6000600b54836138b961295e565b6138c39190614878565b6138cd9190614858565b82600460009054906101000a90046001600160a01b03166001600160a01b03166318160ddd6040518163ffffffff1660e01b815260040160206040518083038186803b15801561391c57600080fd5b505afa158015613930573d6000803e3d6000fd5b505050506040513d601f19601f820116820180604052508101906139549190614414565b6133089190614897565b61396733613b5c565b6139835760405162461bcd60e51b8152600401610a83906147d1565b806001600160a01b0381166139aa5760405162461bcd60e51b8152600401610a8390614718565b6001600160a01b038216600090815260106020526040902054613a045760405162461bcd60e51b81526020600482015260126024820152716e6f206261636b696e67206164647265737360701b6044820152606401610a83565b6011546001600160a01b038316600090815260106020526040812054613a2c90600190614897565b9050613a39600183614897565b811015613ad4576011613a4d600184614897565b81548110613a6b57634e487b7160e01b600052603260045260246000fd5b600091825260209091200154601180546001600160a01b039092169183908110613aa557634e487b7160e01b600052603260045260246000fd5b9060005260206000200160006101000a8154816001600160a01b0302191690836001600160a01b031602179055505b6011805480613af357634e487b7160e01b600052603160045260246000fd5b6000828152602090819020600019908301810180546001600160a01b03191690559091019091556040516001600160a01b03861681527e5e4bdc7ff4f434ef45e9b73093b5ee11ebd056f46704bb4f66e059f18b1425910161389d565b60006109d58183611d25565b60006109d560008051602061496283398151915283611d25565b60008060128381548110613b9a57634e487b7160e01b600052603260045260246000fd5b6000918252602090912060029091020154601280546001600160a01b039092169185908110613bd957634e487b7160e01b600052603260045260246000fd5b90600052602060002090600202016001015491509150915091565b6001600160a01b03811660009081526010602052604090205415613c4b5760405162461bcd60e51b815260206004820152600e60248201526d30b63932b0b23c9030b23232b21760911b6044820152606401610a83565b601180546001810182557f31ecc21a745e3968a04e9570e4425bc18fa8019c68028196b546d1669c200c680180546001600160a01b0319166001600160a01b038416908117909155905460008281526010602090815260409182902092909255519182527f51d46aa62889dada289ca574cb63cef7f51a70de054ed7feac6b783e6f7bd4a89101610e01565b6114dc8133613ee5565b613ceb8282611d25565b610abc5760008281526014602090815260408083206001600160a01b03851684529091529020805460ff19166001179055613d233390565b6001600160a01b0316816001600160a01b0316837f2f8788117e7eff1d82e926ec794901d17c78024a50270940304540a733656f0d60405160405180910390a45050565b613d718282611d25565b15610abc5760008281526014602090815260408083206001600160a01b0385168085529252808320805460ff1916905551339285917ff6391f5c32d9c69d2a47ea670b442974b53935d1edc7fd64eb21e047a839171b9190a45050565b610abc8282613ce1565b604080516001600160a01b038481166024830152604480830185905283518084039091018152606490920183526020820180516001600160e01b031663a9059cbb60e01b1790529151600092839290871691613e3491906144c8565b6000604051808303816000865af19150503d8060008114613e71576040519150601f19603f3d011682016040523d82523d6000602084013e613e76565b606091505b5091509150818015613ea0575080511580613ea0575080806020019051810190613ea091906142bb565b613ede5760405162461bcd60e51b815260206004820152600f60248201526e1514905394d1915497d19052531151608a1b6044820152606401610a83565b5050505050565b613eef8282611d25565b610abc57613efc81613f3e565b613f07836020613f50565b604051602001613f189291906144e4565b60408051601f198184030181529082905262461bcd60e51b8252610a839160040161463f565b60606109d56001600160a01b03831660145b60606000613f5f836002614878565b613f6a906002614840565b67ffffffffffffffff811115613f9057634e487b7160e01b600052604160045260246000fd5b6040519080825280601f01601f191660200182016040528015613fba576020820181803683370190505b509050600360fc1b81600081518110613fe357634e487b7160e01b600052603260045260246000fd5b60200101906001600160f81b031916908160001a905350600f60fb1b8160018151811061402057634e487b7160e01b600052603260045260246000fd5b60200101906001600160f81b031916908160001a9053506000614044846002614878565b61404f906001614840565b90505b60018111156140e3576f181899199a1a9b1b9c1cb0b131b232b360811b85600f166010811061409157634e487b7160e01b600052603260045260246000fd5b1a60f81b8282815181106140b557634e487b7160e01b600052603260045260246000fd5b60200101906001600160f81b031916908160001a90535060049490941c936140dc816148de565b9050614052565b5083156141325760405162461bcd60e51b815260206004820181905260248201527f537472696e67733a20686578206c656e67746820696e73756666696369656e746044820152606401610a83565b9392505050565b50805460008255600202906000526020600020908101906114dc91905b8082111561417b5780546001600160a01b031916815560006001820155600201614156565b5090565b80356001600160a01b0381168114610b8a57600080fd5b60008083601f8401126141a7578182fd5b50813567ffffffffffffffff8111156141be578182fd5b6020830191508360208260051b8501011115611e7757600080fd5b6000602082840312156141ea578081fd5b6141328261417f565b60008060408385031215614205578081fd5b61420e8361417f565b9150602083013561421e81614934565b809150509250929050565b6000806040838503121561423b578182fd5b6142448361417f565b946020939093013593505050565b60008060008060408587031215614267578182fd5b843567ffffffffffffffff8082111561427e578384fd5b61428a88838901614196565b909650945060208701359150808211156142a2578384fd5b506142af87828801614196565b95989497509550505050565b6000602082840312156142cc578081fd5b815161413281614926565b600080600080608085870312156142ec578384fd5b84516142f781614926565b602086015190945061430881614926565b6040860151606090960151949790965092505050565b60006020828403121561432f578081fd5b5035919050565b60008060408385031215614348578182fd5b823591506143586020840161417f565b90509250929050565b600060208284031215614372578081fd5b81356001600160e01b031981168114614132578182fd5b60006020828403121561439a578081fd5b815161413281614934565b600080604083850312156143b7578182fd5b82356143c281614934565b91506143586020840161417f565b600080604083850312156143e2578182fd5b823561424481614934565b6000602082840312156143fe578081fd5b81516001600160801b0381168114614132578182fd5b600060208284031215614425578081fd5b5051919050565b6000806040838503121561443e578182fd5b50508035926020909101359150565b600080600060608486031215614461578081fd5b8335925060208401359150604084013561447a81614926565b809150509250925092565b6000815180845260208085019450808401835b838110156144bd5781516001600160a01b031687529582019590820190600101614498565b509495945050505050565b600082516144da8184602087016148ae565b9190910192915050565b7f416363657373436f6e74726f6c3a206163636f756e742000000000000000000081526000835161451c8160178501602088016148ae565b7001034b99036b4b9b9b4b733903937b6329607d1b601791840191820152835161454d8160288401602088016148ae565b01602801949350505050565b6040808252810184905260008560608301825b8781101561459a576001600160a01b036145858461417f565b1682526020928301929091019060010161456c565b5083810360208501528481526001600160fb1b038511156145b9578283fd5b8460051b9150818660208301370160200190815295945050505050565b6020815260006141326020830184614485565b6040815260006145fc6040830185614485565b828103602084810191909152845180835285820192820190845b8181101561463257845183529383019391830191600101614616565b5090979650505050505050565b602081526000825180602084015261465e8160408501602087016148ae565b601f01601f19169190910160400192915050565b6000602080835281845483600182811c91508083168061469357607f831692505b8583108114156146b157634e487b7160e01b87526022600452602487fd5b8786018381526020018180156146ce57600181146146df57614709565b60ff19861682528782019650614709565b60008b815260209020895b86811015614703578154848201529085019089016146ea565b83019750505b50949998505050505050505050565b60208082526015908201527454726561737572793a7a65726f206164647265737360581b604082015260600190565b60208082526022908201527f41636365737369626c653a2043616c6c6572206973206e6f7420616e2061646d60408201526134b760f11b606082015260800190565b60208082526028908201527f41636365737369626c653a2043616c6c6572206973206e6f7420616e2070726f6040820152673c3c9030b236b4b760c11b606082015260800190565b60208082526029908201527f41636365737369626c653a2043616c6c6572206973206e6f7420616e20706f6c60408201526834b1bc9030b236b4b760b91b606082015260800190565b6020808252600c908201526b73616d65206164647265737360a01b604082015260600190565b6000821982111561485357614853614910565b500190565b60008261487357634e487b7160e01b81526012600452602481fd5b500490565b600081600019048311821515161561489257614892614910565b500290565b6000828210156148a9576148a9614910565b500390565b60005b838110156148c95781810151838201526020016148b1565b838111156148d8576000848401525b50505050565b6000816148ed576148ed614910565b506000190190565b600060001982141561490957614909614910565b5060010190565b634e487b7160e01b600052601160045260246000fd5b80151581146114dc57600080fd5b600b81106114dc57600080fdfedf8b4c520ffe197c5343c6f5aec59570151ef9a492f2c624fd45ddde6135ec42fb5864e8ff833c3cb2d2d08505e82ff02a43554c74a35d4f5a64e85261278311a264697066735822122037774f9a70cd7156e7ec3ee2434cae23a51e3e4b544513fc9e47854fd5abaa8b64736f6c63430008040033",
  "linkReferences": {
    "contracts/libraries/LibTreasury.sol": {
      "LibTreasury": [
        {
          "length": 20,
          "start": 4199
        },
        {
          "length": 20,
          "start": 5573
        },
        {
          "length": 20,
          "start": 6802
        }
      ]
    }
  },
  "deployedLinkReferences": {
    "contracts/libraries/LibTreasury.sol": {
      "LibTreasury": [
        {
          "length": 20,
          "start": 3658
        },
        {
          "length": 20,
          "start": 5032
        },
        {
          "length": 20,
          "start": 6261
        }
      ]
    }
  }
}