{
  "_format": "hh-sol-artifact-1",
  "contractName": "RewardPoolFactory",
  "sourceName": "contracts/factory/RewardPoolFactory.sol",
  "abi": [
    {
      "inputs": [],
      "stateMutability": "nonpayable",
      "type": "constructor"
    },
    {
      "anonymous": false,
      "inputs": [
        {
          "indexed": false,
          "internalType": "address",
          "name": "contractAddress",
          "type": "address"
        },
        {
          "indexed": false,
          "internalType": "string",
          "name": "name",
          "type": "string"
        },
        {
          "indexed": false,
          "internalType": "address",
          "name": "poolAddress",
          "type": "address"
        }
      ],
      "name": "CreatedRewardPool",
      "type": "event"
    },
    {
      "anonymous": false,
      "inputs": [
        {
          "indexed": true,
          "internalType": "bytes32",
          "name": "role",
          "type": "bytes32"
        },
        {
          "indexed": true,
          "internalType": "bytes32",
          "name": "previousAdminRole",
          "type": "bytes32"
        },
        {
          "indexed": true,
          "internalType": "bytes32",
          "name": "newAdminRole",
          "type": "bytes32"
        }
      ],
      "name": "RoleAdminChanged",
      "type": "event"
    },
    {
      "anonymous": false,
      "inputs": [
        {
          "indexed": true,
          "internalType": "bytes32",
          "name": "role",
          "type": "bytes32"
        },
        {
          "indexed": true,
          "internalType": "address",
          "name": "account",
          "type": "address"
        },
        {
          "indexed": true,
          "internalType": "address",
          "name": "sender",
          "type": "address"
        }
      ],
      "name": "RoleGranted",
      "type": "event"
    },
    {
      "anonymous": false,
      "inputs": [
        {
          "indexed": true,
          "internalType": "bytes32",
          "name": "role",
          "type": "bytes32"
        },
        {
          "indexed": true,
          "internalType": "address",
          "name": "account",
          "type": "address"
        },
        {
          "indexed": true,
          "internalType": "address",
          "name": "sender",
          "type": "address"
        }
      ],
      "name": "RoleRevoked",
      "type": "event"
    },
    {
      "inputs": [],
      "name": "ADMIN_ROLE",
      "outputs": [
        {
          "internalType": "bytes32",
          "name": "",
          "type": "bytes32"
        }
      ],
      "stateMutability": "view",
      "type": "function"
    },
    {
      "inputs": [],
      "name": "DEFAULT_ADMIN_ROLE",
      "outputs": [
        {
          "internalType": "bytes32",
          "name": "",
          "type": "bytes32"
        }
      ],
      "stateMutability": "view",
      "type": "function"
    },
    {
      "inputs": [],
      "name": "POLICY_ROLE",
      "outputs": [
        {
          "internalType": "bytes32",
          "name": "",
          "type": "bytes32"
        }
      ],
      "stateMutability": "view",
      "type": "function"
    },
    {
      "inputs": [
        {
          "internalType": "address",
          "name": "account",
          "type": "address"
        }
      ],
      "name": "addAdmin",
      "outputs": [],
      "stateMutability": "nonpayable",
      "type": "function"
    },
    {
      "inputs": [
        {
          "internalType": "string",
          "name": "_name",
          "type": "string"
        },
        {
          "internalType": "address",
          "name": "poolAddress",
          "type": "address"
        }
      ],
      "name": "create",
      "outputs": [
        {
          "internalType": "address",
          "name": "",
          "type": "address"
        }
      ],
      "stateMutability": "nonpayable",
      "type": "function"
    },
    {
      "inputs": [
        {
          "internalType": "uint256",
          "name": "",
          "type": "uint256"
        }
      ],
      "name": "createdContracts",
      "outputs": [
        {
          "internalType": "address",
          "name": "contractAddress",
          "type": "address"
        },
        {
          "internalType": "string",
          "name": "name",
          "type": "string"
        }
      ],
      "stateMutability": "view",
      "type": "function"
    },
    {
      "inputs": [],
      "name": "dtos",
      "outputs": [
        {
          "internalType": "address",
          "name": "",
          "type": "address"
        }
      ],
      "stateMutability": "view",
      "type": "function"
    },
    {
      "inputs": [],
      "name": "dtosPolicy",
      "outputs": [
        {
          "internalType": "address",
          "name": "",
          "type": "address"
        }
      ],
      "stateMutability": "view",
      "type": "function"
    },
    {
      "inputs": [
        {
          "internalType": "uint256",
          "name": "_index",
          "type": "uint256"
        }
      ],
      "name": "getContracts",
      "outputs": [
        {
          "internalType": "address",
          "name": "contractAddress",
          "type": "address"
        },
        {
          "internalType": "string",
          "name": "name",
          "type": "string"
        }
      ],
      "stateMutability": "view",
      "type": "function"
    },
    {
      "inputs": [
        {
          "internalType": "bytes32",
          "name": "role",
          "type": "bytes32"
        }
      ],
      "name": "getRoleAdmin",
      "outputs": [
        {
          "internalType": "bytes32",
          "name": "",
          "type": "bytes32"
        }
      ],
      "stateMutability": "view",
      "type": "function"
    },
    {
      "inputs": [
        {
          "internalType": "bytes32",
          "name": "role",
          "type": "bytes32"
        },
        {
          "internalType": "address",
          "name": "account",
          "type": "address"
        }
      ],
      "name": "grantRole",
      "outputs": [],
      "stateMutability": "nonpayable",
      "type": "function"
    },
    {
      "inputs": [
        {
          "internalType": "bytes32",
          "name": "role",
          "type": "bytes32"
        },
        {
          "internalType": "address",
          "name": "account",
          "type": "address"
        }
      ],
      "name": "hasRole",
      "outputs": [
        {
          "internalType": "bool",
          "name": "",
          "type": "bool"
        }
      ],
      "stateMutability": "view",
      "type": "function"
    },
    {
      "inputs": [
        {
          "internalType": "address",
          "name": "account",
          "type": "address"
        }
      ],
      "name": "isAdmin",
      "outputs": [
        {
          "internalType": "bool",
          "name": "",
          "type": "bool"
        }
      ],
      "stateMutability": "view",
      "type": "function"
    },
    {
      "inputs": [],
      "name": "lastestCreated",
      "outputs": [
        {
          "internalType": "address",
          "name": "contractAddress",
          "type": "address"
        },
        {
          "internalType": "string",
          "name": "name",
          "type": "string"
        }
      ],
      "stateMutability": "view",
      "type": "function"
    },
    {
      "inputs": [],
      "name": "nonfungiblePositionManager",
      "outputs": [
        {
          "internalType": "address",
          "name": "",
          "type": "address"
        }
      ],
      "stateMutability": "view",
      "type": "function"
    },
    {
      "inputs": [
        {
          "internalType": "address",
          "name": "account",
          "type": "address"
        }
      ],
      "name": "removeAdmin",
      "outputs": [],
      "stateMutability": "nonpayable",
      "type": "function"
    },
    {
      "inputs": [
        {
          "internalType": "bytes32",
          "name": "role",
          "type": "bytes32"
        },
        {
          "internalType": "address",
          "name": "account",
          "type": "address"
        }
      ],
      "name": "renounceRole",
      "outputs": [],
      "stateMutability": "nonpayable",
      "type": "function"
    },
    {
      "inputs": [
        {
          "internalType": "bytes32",
          "name": "role",
          "type": "bytes32"
        },
        {
          "internalType": "address",
          "name": "account",
          "type": "address"
        }
      ],
      "name": "revokeRole",
      "outputs": [],
      "stateMutability": "nonpayable",
      "type": "function"
    },
    {
      "inputs": [],
      "name": "rewardLPTokenManager",
      "outputs": [
        {
          "internalType": "address",
          "name": "",
          "type": "address"
        }
      ],
      "stateMutability": "view",
      "type": "function"
    },
    {
      "inputs": [
        {
          "internalType": "address",
          "name": "_factory",
          "type": "address"
        },
        {
          "internalType": "address",
          "name": "_npm",
          "type": "address"
        },
        {
          "internalType": "address",
          "name": "_rLPM",
          "type": "address"
        },
        {
          "internalType": "address",
          "name": "_tos",
          "type": "address"
        },
        {
          "internalType": "address",
          "name": "_dtos",
          "type": "address"
        },
        {
          "internalType": "address",
          "name": "_dtosPolicy",
          "type": "address"
        }
      ],
      "name": "setAddresses",
      "outputs": [],
      "stateMutability": "nonpayable",
      "type": "function"
    },
    {
      "inputs": [
        {
          "internalType": "address",
          "name": "_logic",
          "type": "address"
        }
      ],
      "name": "setLogic",
      "outputs": [],
      "stateMutability": "nonpayable",
      "type": "function"
    },
    {
      "inputs": [
        {
          "internalType": "address",
          "name": "addr",
          "type": "address"
        }
      ],
      "name": "setUpgradeAdmin",
      "outputs": [],
      "stateMutability": "nonpayable",
      "type": "function"
    },
    {
      "inputs": [
        {
          "internalType": "bytes4",
          "name": "interfaceId",
          "type": "bytes4"
        }
      ],
      "name": "supportsInterface",
      "outputs": [
        {
          "internalType": "bool",
          "name": "",
          "type": "bool"
        }
      ],
      "stateMutability": "view",
      "type": "function"
    },
    {
      "inputs": [],
      "name": "tosAddress",
      "outputs": [
        {
          "internalType": "address",
          "name": "",
          "type": "address"
        }
      ],
      "stateMutability": "view",
      "type": "function"
    },
    {
      "inputs": [],
      "name": "totalCreatedContracts",
      "outputs": [
        {
          "internalType": "uint256",
          "name": "",
          "type": "uint256"
        }
      ],
      "stateMutability": "view",
      "type": "function"
    },
    {
      "inputs": [
        {
          "internalType": "address",
          "name": "newAdmin",
          "type": "address"
        }
      ],
      "name": "transferAdmin",
      "outputs": [],
      "stateMutability": "nonpayable",
      "type": "function"
    },
    {
      "inputs": [],
      "name": "uniswapV3Factory",
      "outputs": [
        {
          "internalType": "address",
          "name": "",
          "type": "address"
        }
      ],
      "stateMutability": "view",
      "type": "function"
    },
    {
      "inputs": [],
      "name": "upgradeAdmin",
      "outputs": [
        {
          "internalType": "address",
          "name": "",
          "type": "address"
        }
      ],
      "stateMutability": "view",
      "type": "function"
    },
    {
      "inputs": [
        {
          "internalType": "address",
          "name": "_contract",
          "type": "address"
        },
        {
          "internalType": "bytes4[]",
          "name": "_selectors",
          "type": "bytes4[]"
        },
        {
          "internalType": "address",
          "name": "_imp",
          "type": "address"
        }
      ],
      "name": "upgradeContractFunction",
      "outputs": [],
      "stateMutability": "nonpayable",
      "type": "function"
    },
    {
      "inputs": [
        {
          "internalType": "address",
          "name": "_contract",
          "type": "address"
        },
        {
          "internalType": "address",
          "name": "_logic",
          "type": "address"
        },
        {
          "internalType": "uint256",
          "name": "_index",
          "type": "uint256"
        },
        {
          "internalType": "bool",
          "name": "_alive",
          "type": "bool"
        }
      ],
      "name": "upgradeContractLogic",
      "outputs": [],
      "stateMutability": "nonpayable",
      "type": "function"
    },
    {
      "inputs": [],
      "name": "vaultLogic",
      "outputs": [
        {
          "internalType": "address",
          "name": "",
          "type": "address"
        }
      ],
      "stateMutability": "view",
      "type": "function"
    }
  ],
  "bytecode": "0x60806040523480156200001157600080fd5b506000600155620000326000805160206200483c8339815191528062000065565b6200004d6000805160206200483c83398151915233620000b0565b600380546001600160a01b0319163317905562000160565b600082815260208190526040808220600101805490849055905190918391839186917fbd79b86ffe0ab8e8776151514217cd7cacd52c909f66475c3af44e129f0b00ff9190a4505050565b620000bc8282620000c0565b5050565b6000828152602081815260408083206001600160a01b038516845290915290205460ff16620000bc576000828152602081815260408083206001600160a01b03851684529091529020805460ff191660011790556200011c3390565b6001600160a01b0316816001600160a01b0316837f2f8788117e7eff1d82e926ec794901d17c78024a50270940304540a733656f0d60405160405180910390a45050565b6146cc80620001706000396000f3fe60806040523480156200001157600080fd5b50600436106200020d5760003560e01c80636cfb6bf91162000125578063a217fddf11620000af578063c4d5608a116200007a578063c4d5608a14620004c1578063d052618714620004d5578063d547741f14620004df578063f98e422f14620004f657600080fd5b8063a217fddf1462000479578063b078147a1462000482578063b44a27221462000496578063b4d4028014620004aa57600080fd5b806375b238fc11620000f057806375b238fc146200041d57806384b47b0f146200043457806391d14854146200044b5780639342f417146200046257600080fd5b80636cfb6bf914620003c15780637048027514620003d85780637185700014620003ef57806375829def146200040657600080fd5b806324d7806c11620001a7578063439e23fd1162000172578063439e23fd146200036b578063520194a614620003825780635b549182146200039657806367c5f8de14620003aa57600080fd5b806324d7806c146200031c5780632f2ff15d1462000333578063338bad5f146200034a57806336568abe146200035457600080fd5b80631785f53c11620001e85780631785f53c14620002925780632298524614620002ab57806322d739a814620002e2578063248a9ca314620002f657600080fd5b806301ffc9a7146200021257806308811397146200023e5780631042f08d1462000265575b600080fd5b62000229620002233660046200203d565b6200050a565b60405190151581526020015b60405180910390f35b620002556200024f36600462001ff2565b62000542565b60405162000235929190620021d3565b60085462000279906001600160a01b031681565b6040516001600160a01b03909116815260200162000235565b620002a9620002a336600462001e36565b620005f9565b005b620002d37ffb5864e8ff833c3cb2d2d08505e82ff02a43554c74a35d4f5a64e8526127831181565b60405190815260200162000235565b600a5462000279906001600160a01b031681565b620002d36200030736600462001ff2565b60009081526020819052604090206001015490565b620002296200032d36600462001e36565b6200064a565b620002a9620003443660046200200b565b62000667565b6200025562000695565b620002a9620003653660046200200b565b620007ae565b620002556200037c36600462001ff2565b62000830565b60075462000279906001600160a01b031681565b60055462000279906001600160a01b031681565b620002a9620003bb36600462001f02565b62000916565b620002a9620003d236600462001e74565b620009de565b620002a9620003e936600462001e36565b62000b79565b620002a96200040036600462001e36565b62000bbe565b620002a96200041736600462001e36565b62000c95565b620002d36000805160206200467783398151915281565b62000279620004453660046200205a565b62000da1565b620002296200045c3660046200200b565b62001858565b620002a96200047336600462001e36565b62001881565b620002d3600081565b60045462000279906001600160a01b031681565b60065462000279906001600160a01b031681565b620002a9620004bb36600462001f5e565b62001945565b60035462000279906001600160a01b031681565b620002d360015481565b620002a9620004f03660046200200b565b620019cb565b60095462000279906001600160a01b031681565b60006001600160e01b03198216637965db0b60e01b14806200053c57506301ffc9a760e01b6001600160e01b03198316145b92915050565b600260205260009081526040902080546001820180546001600160a01b03909216929162000570906200238e565b80601f01602080910402602001604051908101604052809291908181526020018280546200059e906200238e565b8015620005ef5780601f10620005c357610100808354040283529160200191620005ef565b820191906000526020600020905b815481529060010190602001808311620005d157829003601f168201915b5050505050905082565b62000604336200064a565b6200062c5760405162461bcd60e51b81526004016200062390620022a8565b60405180910390fd5b620006476000805160206200467783398151915282620007ae565b50565b60006200053c600080516020620046778339815191528362001858565b6000828152602081905260409020600101546200068481620019f4565b62000690838362001a00565b505050565b600060606000600154111562000799576002600060018054620006b9919062002327565b81526020810191909152604001600090812054600180546001600160a01b03909216926002929091620006ec9162002327565b81526020019081526020016000206001018080546200070b906200238e565b80601f016020809104026020016040519081016040528092919081815260200182805462000739906200238e565b80156200078a5780601f106200075e576101008083540402835291602001916200078a565b820191906000526020600020905b8154815290600101906020018083116200076c57829003601f168201915b50505050509050915091509091565b50506040805160208101909152600080825291565b6001600160a01b0381163314620008205760405162461bcd60e51b815260206004820152602f60248201527f416363657373436f6e74726f6c3a2063616e206f6e6c792072656e6f756e636560448201526e103937b632b9903337b91039b2b63360891b606482015260840162000623565b6200082c828262001a88565b5050565b60006060600154831015620008fe5760008381526002602052604090208054600190910180546001600160a01b039092169181906200086f906200238e565b80601f01602080910402602001604051908101604052809291908181526020018280546200089d906200238e565b8015620008ee5780601f10620008c257610100808354040283529160200191620008ee565b820191906000526020600020905b815481529060010190602001808311620008d057829003601f168201915b5050505050905091509150915091565b50506040805160208101909152600080825292909150565b62000921336200064a565b620009405760405162461bcd60e51b81526004016200062390620022a8565b836001600160a01b0381166200096a5760405162461bcd60e51b815260040162000623906200227c565b604051637cd5f66360e01b81526001600160a01b038581166004830152602482018590528315156044830152861690637cd5f663906064015b600060405180830381600087803b158015620009be57600080fd5b505af1158015620009d3573d6000803e3d6000fd5b505050505050505050565b620009e9336200064a565b62000a085760405162461bcd60e51b81526004016200062390620022a8565b856001600160a01b03811662000a325760405162461bcd60e51b815260040162000623906200227c565b856001600160a01b03811662000a5c5760405162461bcd60e51b815260040162000623906200227c565b856001600160a01b03811662000a865760405162461bcd60e51b815260040162000623906200227c565b856001600160a01b03811662000ab05760405162461bcd60e51b815260040162000623906200227c565b856001600160a01b03811662000ada5760405162461bcd60e51b815260040162000623906200227c565b856001600160a01b03811662000b045760405162461bcd60e51b815260040162000623906200227c565b5050600580546001600160a01b03199081166001600160a01b039c8d16179091556006805482169a8c169a909a179099555050600780548816968916969096179095555060088054861693871693909317909255600980548516918616919091179055600a8054909316931692909217905550565b62000b84336200064a565b62000ba35760405162461bcd60e51b81526004016200062390620022a8565b62000647600080516020620046778339815191528262000667565b806001600160a01b03811662000be85760405162461bcd60e51b815260040162000623906200227c565b62000bf3336200064a565b62000c125760405162461bcd60e51b81526004016200062390620022a8565b6004546001600160a01b038381169116141562000c725760405162461bcd60e51b815260206004820152601860248201527f616c72656164792073657420746869732076657273696f6e0000000000000000604482015260640162000623565b50600480546001600160a01b0319166001600160a01b0392909216919091179055565b62000ca0336200064a565b62000cbf5760405162461bcd60e51b81526004016200062390620022a8565b6001600160a01b03811662000d175760405162461bcd60e51b815260206004820152601860248201527f41636365737369626c653a207a65726f20616464726573730000000000000000604482015260640162000623565b336001600160a01b038216141562000d6b5760405162461bcd60e51b815260206004820152601660248201527520b1b1b2b9b9b4b136329d1039b0b6b29030b236b4b760511b604482015260640162000623565b62000d86600080516020620046778339815191528262000667565b620006476000805160206200467783398151915233620007ae565b600062000dae336200064a565b62000dcd5760405162461bcd60e51b81526004016200062390620022a8565b6004546001600160a01b03168062000df95760405162461bcd60e51b815260040162000623906200227c565b6003546001600160a01b03168062000e255760405162461bcd60e51b815260040162000623906200227c565b6005546001600160a01b03168062000e515760405162461bcd60e51b815260040162000623906200227c565b6006546001600160a01b03168062000e7d5760405162461bcd60e51b815260040162000623906200227c565b6007546001600160a01b03168062000ea95760405162461bcd60e51b815260040162000623906200227c565b6008546001600160a01b03168062000ed55760405162461bcd60e51b815260040162000623906200227c565b6009546001600160a01b03168062000f015760405162461bcd60e51b815260040162000623906200227c565b600a546001600160a01b03168062000f2d5760405162461bcd60e51b815260040162000623906200227c565b8a62000f6c5760405162461bcd60e51b815260206004820152600d60248201526c6e616d6520697320656d70747960981b604482015260640162000623565b60006001600160a01b03168a6001600160a01b0316630dfe16816040518163ffffffff1660e01b815260040160206040518083038186803b15801562000fb157600080fd5b505afa15801562000fc6573d6000803e3d6000fd5b505050506040513d601f19601f8201168201806040525081019062000fec919062001e55565b6001600160a01b0316141580156200108b575060006001600160a01b03168a6001600160a01b031663d21220a76040518163ffffffff1660e01b815260040160206040518083038186803b1580156200104457600080fd5b505afa15801562001059573d6000803e3d6000fd5b505050506040513d601f19601f820116820180604052508101906200107f919062001e55565b6001600160a01b031614155b620010d05760405162461bcd60e51b8152602060048201526014602482015273706f6f6c277320746f6b656e206973207a65726f60601b604482015260640162000623565b60085460408051630dfe168160e01b815290516001600160a01b03928316928d1691630dfe1681916004808301926020929190829003018186803b1580156200111857600080fd5b505afa1580156200112d573d6000803e3d6000fd5b505050506040513d601f19601f8201168201806040525081019062001153919062001e55565b6001600160a01b03161480620012775750600a60009054906101000a90046001600160a01b03166001600160a01b0316634f0e0ef36040518163ffffffff1660e01b815260040160206040518083038186803b158015620011b357600080fd5b505afa158015620011c8573d6000803e3d6000fd5b505050506040513d601f19601f82011682018060405250810190620011ee919062001e55565b6001600160a01b03168a6001600160a01b0316630dfe16816040518163ffffffff1660e01b815260040160206040518083038186803b1580156200123157600080fd5b505afa15801562001246573d6000803e3d6000fd5b505050506040513d601f19601f820116820180604052508101906200126c919062001e55565b6001600160a01b0316145b806200142557506008546040805163d21220a760e01b815290516001600160a01b03928316928d169163d21220a7916004808301926020929190829003018186803b158015620012c657600080fd5b505afa158015620012db573d6000803e3d6000fd5b505050506040513d601f19601f8201168201806040525081019062001301919062001e55565b6001600160a01b03161480620014255750600a60009054906101000a90046001600160a01b03166001600160a01b0316634f0e0ef36040518163ffffffff1660e01b815260040160206040518083038186803b1580156200136157600080fd5b505afa15801562001376573d6000803e3d6000fd5b505050506040513d601f19601f820116820180604052508101906200139c919062001e55565b6001600160a01b03168a6001600160a01b031663d21220a76040518163ffffffff1660e01b815260040160206040518083038186803b158015620013df57600080fd5b505afa158015620013f4573d6000803e3d6000fd5b505050506040513d601f19601f820116820180604052508101906200141a919062001e55565b6001600160a01b0316145b620014735760405162461bcd60e51b815260206004820152601f60248201527f706f6f6c277320746f6b656e206973206e6f7420746f73206f74207765746800604482015260640162000623565b6000604051620014839062001d64565b604051809103906000f080158015620014a0573d6000803e3d6000fd5b5090506001600160a01b038116620014fb5760405162461bcd60e51b815260206004820152601c60248201527f526577617264506f6f6c536e617073686f7450726f7879207a65726f00000000604482015260640162000623565b600354604051637048027560e01b81526001600160a01b03918216600482015290821690637048027590602401600060405180830381600087803b1580156200154357600080fd5b505af115801562001558573d6000803e3d6000fd5b505060048054604051637cd5f66360e01b81526001600160a01b0391821692810192909252600060248301526001604483015284169250637cd5f6639150606401600060405180830381600087803b158015620015b457600080fd5b505af1158015620015c9573d6000803e3d6000fd5b50505050806001600160a01b031663f6a727448c600560009054906101000a90046001600160a01b0316600660009054906101000a90046001600160a01b0316600760009054906101000a90046001600160a01b0316600860009054906101000a90046001600160a01b0316600960009054906101000a90046001600160a01b0316600a60009054906101000a90046001600160a01b03166040518863ffffffff1660e01b8152600401620016c097969594939291906001600160a01b03978816815295871660208701529386166040860152918516606085015284166080840152831660a083015290911660c082015260e00190565b600060405180830381600087803b158015620016db57600080fd5b505af1158015620016f0573d6000803e3d6000fd5b505050506040518060400160405280826001600160a01b031681526020018e8e8080601f0160208091040260200160405190810160405280939291908181526020018383808284376000920182905250939094525050600180548252600260209081526040909220845181546001600160a01b0319166001600160a01b039091161781558483015180519194506200178e9392850192019062001d72565b50506001805491506000620017a383620023cb565b9091555050600954604051632795e1f960e11b81526001600160a01b03838116600483015290911690634f2bc3f290602401600060405180830381600087803b158015620017f057600080fd5b505af115801562001805573d6000803e3d6000fd5b505050507f177ed69abc1046d2bfb1d361b16cbb2938b6947c8b800c9a50e64b57f66b1eae818e8e8e60405162001840949392919062002186565b60405180910390a19c9b505050505050505050505050565b6000918252602082815260408084206001600160a01b0393909316845291905290205460ff1690565b6200188c336200064a565b620018ab5760405162461bcd60e51b81526004016200062390620022a8565b806001600160a01b038116620018d55760405162461bcd60e51b815260040162000623906200227c565b6003546001600160a01b0383811691161415620019225760405162461bcd60e51b815260206004820152600a60248201526973616d6520616464727360b01b604482015260640162000623565b50600380546001600160a01b0319166001600160a01b0392909216919091179055565b62001950336200064a565b6200196f5760405162461bcd60e51b81526004016200062390620022a8565b836001600160a01b038116620019995760405162461bcd60e51b815260040162000623906200227c565b604051634a5df50f60e01b81526001600160a01b03861690634a5df50f90620009a39087908790879060040162002201565b600082815260208190526040902060010154620019e881620019f4565b62000690838362001a88565b62000647813362001af0565b62001a0c828262001858565b6200082c576000828152602081815260408083206001600160a01b03851684529091529020805460ff1916600117905562001a443390565b6001600160a01b0316816001600160a01b0316837f2f8788117e7eff1d82e926ec794901d17c78024a50270940304540a733656f0d60405160405180910390a45050565b62001a94828262001858565b156200082c576000828152602081815260408083206001600160a01b0385168085529252808320805460ff1916905551339285917ff6391f5c32d9c69d2a47ea670b442974b53935d1edc7fd64eb21e047a839171b9190a45050565b62001afc828262001858565b6200082c5762001b0c8162001b54565b62001b1983602062001b67565b60405160200162001b2c9291906200210d565b60408051601f198184030181529082905262461bcd60e51b8252620006239160040162002267565b60606200053c6001600160a01b03831660145b6060600062001b7883600262002305565b62001b85906002620022ea565b67ffffffffffffffff81111562001bac57634e487b7160e01b600052604160045260246000fd5b6040519080825280601f01601f19166020018201604052801562001bd7576020820181803683370190505b509050600360fc1b8160008151811062001c0157634e487b7160e01b600052603260045260246000fd5b60200101906001600160f81b031916908160001a905350600f60fb1b8160018151811062001c3f57634e487b7160e01b600052603260045260246000fd5b60200101906001600160f81b031916908160001a905350600062001c6584600262002305565b62001c72906001620022ea565b90505b600181111562001d0c576f181899199a1a9b1b9c1cb0b131b232b360811b85600f166010811062001cb657634e487b7160e01b600052603260045260246000fd5b1a60f81b82828151811062001cdb57634e487b7160e01b600052603260045260246000fd5b60200101906001600160f81b031916908160001a90535060049490941c9362001d048162002374565b905062001c75565b50831562001d5d5760405162461bcd60e51b815260206004820181905260248201527f537472696e67733a20686578206c656e67746820696e73756666696369656e74604482015260640162000623565b9392505050565b612261806200241683390190565b82805462001d80906200238e565b90600052602060002090601f01602090048101928262001da4576000855562001def565b82601f1062001dbf57805160ff191683800117855562001def565b8280016001018555821562001def579182015b8281111562001def57825182559160200191906001019062001dd2565b5062001dfd92915062001e01565b5090565b5b8082111562001dfd576000815560010162001e02565b80356001600160e01b03198116811462001e3157600080fd5b919050565b60006020828403121562001e48578081fd5b813562001d5d81620023ff565b60006020828403121562001e67578081fd5b815162001d5d81620023ff565b60008060008060008060c0878903121562001e8d578182fd5b863562001e9a81620023ff565b9550602087013562001eac81620023ff565b9450604087013562001ebe81620023ff565b9350606087013562001ed081620023ff565b9250608087013562001ee281620023ff565b915060a087013562001ef481620023ff565b809150509295509295509295565b6000806000806080858703121562001f18578384fd5b843562001f2581620023ff565b9350602085013562001f3781620023ff565b9250604085013591506060850135801515811462001f53578182fd5b939692955090935050565b6000806000806060858703121562001f74578384fd5b843562001f8181620023ff565b9350602085013567ffffffffffffffff8082111562001f9e578485fd5b818701915087601f83011262001fb2578485fd5b81358181111562001fc1578586fd5b8860208260051b850101111562001fd6578586fd5b602083019550809450505050604085013562001f5381620023ff565b60006020828403121562002004578081fd5b5035919050565b600080604083850312156200201e578182fd5b8235915060208301356200203281620023ff565b809150509250929050565b6000602082840312156200204f578081fd5b62001d5d8262001e18565b6000806000604084860312156200206f578283fd5b833567ffffffffffffffff8082111562002087578485fd5b818601915086601f8301126200209b578485fd5b813581811115620020aa578586fd5b876020828501011115620020bc578586fd5b60209283019550935050840135620020d481620023ff565b809150509250925092565b60008151808452620020f981602086016020860162002341565b601f01601f19169290920160200192915050565b7f416363657373436f6e74726f6c3a206163636f756e74200000000000000000008152600083516200214781601785016020880162002341565b7001034b99036b4b9b9b4b733903937b6329607d1b60179184019182015283516200217a81602884016020880162002341565b01602801949350505050565b6001600160a01b038581168252606060208301819052820184905260009084866080850137828501608090810192909252929092166040820152601f909201601f19169091010192915050565b6001600160a01b0383168152604060208201819052600090620021f990830184620020df565b949350505050565b6040808252810183905260008460608301825b8681101562002247576001600160e01b0319620022318462001e18565b1682526020928301929091019060010162002214565b506001600160a01b03949094166020939093019290925250909392505050565b60208152600062001d5d6020830184620020df565b6020808252601290820152715661756c74466163746f72793a207a65726f60701b604082015260600190565b60208082526022908201527f41636365737369626c653a2043616c6c6572206973206e6f7420616e2061646d60408201526134b760f11b606082015260800190565b60008219821115620023005762002300620023e9565b500190565b6000816000190483118215151615620023225762002322620023e9565b500290565b6000828210156200233c576200233c620023e9565b500390565b60005b838110156200235e57818101518382015260200162002344565b838111156200236e576000848401525b50505050565b600081620023865762002386620023e9565b506000190190565b600181811c90821680620023a357607f821691505b60208210811415620023c557634e487b7160e01b600052602260045260246000fd5b50919050565b6000600019821415620023e257620023e2620023e9565b5060010190565b634e487b7160e01b600052601160045260246000fd5b6001600160a01b03811681146200064757600080fdfe60806040526002805460ff19166012179055670de0b6b3a76400006017553480156200002a57600080fd5b5062000046600080516020620022418339815191528062000074565b620000616000805160206200224183398151915233620000bf565b6200006e600033620000bf565b62000173565b600082815260196020526040808220600101805490849055905190918391839186917fbd79b86ffe0ab8e8776151514217cd7cacd52c909f66475c3af44e129f0b00ff9190a4505050565b620000cb8282620000cf565b5050565b60008281526019602090815260408083206001600160a01b038516845290915290205460ff16620000cb5760008281526019602090815260408083206001600160a01b03851684529091529020805460ff191660011790556200012f3390565b6001600160a01b0316816001600160a01b0316837f2f8788117e7eff1d82e926ec794901d17c78024a50270940304540a733656f0d60405160405180910390a45050565b6120be80620001836000396000f3fe6080604052600436106102815760003560e01c806363a8fd891161014f57806391d14854116100c1578063a803595e1161007a578063a803595e14610831578063b44a272214610851578063b911135f14610871578063d21220a7146108a7578063d547741f146108c7578063f6a72744146108e7576102ca565b806391d14854146107a557806395d89b41146107c5578063970875ce146107da578063a155041f146107f0578063a217fddf14610806578063a3db16a21461081b576102ca565b806375b238fc1161011357806375b238fc146106ed5780637cb00d251461070f5780637cd5f6631461072f5780638b8f4a651461074f5780638bf91dc41461076f5780638d4fdb4014610785576102ca565b806363a8fd891461064c5780636455ac5014610666578063658a75111461069357806370480275146106ad57806375829def146106cd576102ca565b806324d7806c116101f357806350d2a276116101ac57806350d2a27614610552578063520194a614610588578063550d01a3146105a85780635b549182146105d85780635c60da1b146105f85780635cc797d81461062c576102ca565b806324d7806c146104865780632f2ff15d146104a6578063313ce567146104c657806336568abe146104f25780633659cfe6146105125780634a5df50f14610532576102ca565b806316f0115b1161024557806316f0115b146103a75780631785f53c146103cc5780631924063e146103ec578063229852461461040257806322d739a814610436578063248a9ca314610456576102ca565b806301ffc9a7146102d4578063039bf30a1461030957806306fdde031461032d5780630dfe16811461034f5780631042f08d14610387576102ca565b366102ca5760405162461bcd60e51b815260206004820152601460248201527331b0b73737ba103932b1b2b4bb329022ba3432b960611b60448201526064015b60405180910390fd5b6102d2610907565b005b3480156102e057600080fd5b506102f46102ef366004611e15565b6109b0565b60405190151581526020015b60405180910390f35b34801561031557600080fd5b5061031f60145481565b604051908152602001610300565b34801561033957600080fd5b506103426109e7565b6040516103009190611eb2565b34801561035b57600080fd5b5060035461036f906001600160a01b031681565b6040516001600160a01b039091168152602001610300565b34801561039357600080fd5b5060055461036f906001600160a01b031681565b3480156103b357600080fd5b5060025461036f9061010090046001600160a01b031681565b3480156103d857600080fd5b506102d26103e7366004611bf5565b610a75565b3480156103f857600080fd5b5061031f60165481565b34801561040e57600080fd5b5061031f7ffb5864e8ff833c3cb2d2d08505e82ff02a43554c74a35d4f5a64e8526127831181565b34801561044257600080fd5b5060075461036f906001600160a01b031681565b34801561046257600080fd5b5061031f610471366004611dce565b60009081526019602052604090206001015490565b34801561049257600080fd5b506102f46104a1366004611bf5565b610ab5565b3480156104b257600080fd5b506102d26104c1366004611de6565b610acf565b3480156104d257600080fd5b506002546104e09060ff1681565b60405160ff9091168152602001610300565b3480156104fe57600080fd5b506102d261050d366004611de6565b610af4565b34801561051e57600080fd5b506102d261052d366004611bf5565b610b72565b34801561053e57600080fd5b506102d261054d366004611d33565b610c81565b34801561055e57600080fd5b5061036f61056d366004611e15565b601d602052600090815260409020546001600160a01b031681565b34801561059457600080fd5b50600a5461036f906001600160a01b031681565b3480156105b457600080fd5b506102f46105c3366004611bf5565b601c6020526000908152604090205460ff1681565b3480156105e457600080fd5b5060085461036f906001600160a01b031681565b34801561060457600080fd5b5060008052601b602052600080516020612049833981519152546001600160a01b031661036f565b34801561063857600080fd5b506102d2610647366004611cc2565b610f0e565b34801561065857600080fd5b50601a546102f49060ff1681565b34801561067257600080fd5b5061031f610681366004611dce565b60126020526000908152604090205481565b34801561069f57600080fd5b506018546102f49060ff1681565b3480156106b957600080fd5b506102d26106c8366004611bf5565b610f3d565b3480156106d957600080fd5b506102d26106e8366004611bf5565b610f7a565b3480156106f957600080fd5b5061031f60008051602061206983398151915281565b34801561071b57600080fd5b506102d261072a366004611db4565b611077565b34801561073b57600080fd5b506102d261074a366004611cf6565b6110af565b34801561075b57600080fd5b5061036f61076a366004611dce565b6110df565b34801561077b57600080fd5b5061031f60175481565b34801561079157600080fd5b5061036f6107a0366004611e15565b6110fc565b3480156107b157600080fd5b506102f46107c0366004611de6565b6111d4565b3480156107d157600080fd5b506103426111ff565b3480156107e657600080fd5b5061031f600b5481565b3480156107fc57600080fd5b5061031f60135481565b34801561081257600080fd5b5061031f600081565b34801561082757600080fd5b5061031f60155481565b34801561083d57600080fd5b5060065461036f906001600160a01b031681565b34801561085d57600080fd5b5060095461036f906001600160a01b031681565b34801561087d57600080fd5b5061036f61088c366004611dce565b601b602052600090815260409020546001600160a01b031681565b3480156108b357600080fd5b5060045461036f906001600160a01b031681565b3480156108d357600080fd5b506102d26108e2366004611de6565b61120c565b3480156108f357600080fd5b506102d2610902366004611c2d565b611231565b600061091e6000356001600160e01b0319166110fc565b90506001600160a01b0381161580159061093b5750601a5460ff16155b6109875760405162461bcd60e51b815260206004820152601d60248201527f50726f78793a20696d706c204f522070726f78792069732066616c736500000060448201526064016102c1565b3660008037600080366000845af43d6000803e8080156109a6573d6000f35b3d6000fd5b505050565b60006001600160e01b03198216637965db0b60e01b14806109e157506301ffc9a760e01b6001600160e01b03198316145b92915050565b600080546109f490611fc7565b80601f0160208091040260200160405190810160405280929190818152602001828054610a2090611fc7565b8015610a6d5780601f10610a4257610100808354040283529160200191610a6d565b820191906000526020600020905b815481529060010190602001808311610a5057829003601f168201915b505050505081565b610a7e33610ab5565b610a9a5760405162461bcd60e51b81526004016102c190611ee5565b610ab260008051602061206983398151915282610af4565b50565b60006109e1600080516020612069833981519152836111d4565b600082815260196020526040902060010154610aea816117b0565b6109ab83836117ba565b6001600160a01b0381163314610b645760405162461bcd60e51b815260206004820152602f60248201527f416363657373436f6e74726f6c3a2063616e206f6e6c792072656e6f756e636560448201526e103937b632b9903337b91039b2b63360891b60648201526084016102c1565b610b6e8282611840565b5050565b610b7b33610ab5565b610b975760405162461bcd60e51b81526004016102c190611ee5565b6001600160a01b038116610bdd5760405162461bcd60e51b815260206004820152600d60248201526c696e707574206973207a65726f60981b60448201526064016102c1565b60008052601b602052600080516020612049833981519152546001600160a01b0382811691161415610c3d5760405162461bcd60e51b815260206004820152600960248201526839b0b6b29030b2323960b91b60448201526064016102c1565b610c4a81600060016118a7565b6040516001600160a01b038216907fbc7cd75a20ee27fd9adebab32041f755214dbc6bffa90cc0225b39da2e5c2d3b90600090a250565b610c8a33610ab5565b610ca65760405162461bcd60e51b81526004016102c190611ee5565b81610cf35760405162461bcd60e51b815260206004820181905260248201527f50726f78793a205f73656c6563746f727327732073697a65206973207a65726f60448201526064016102c1565b6001600160a01b0381166000908152601c602052604090205460ff16610d5b5760405162461bcd60e51b815260206004820152601860248201527f50726f78793a205f696d70206973206e6f7420616c697665000000000000000060448201526064016102c1565b60005b82811015610f0857816001600160a01b0316601d6000868685818110610d9457634e487b7160e01b600052603260045260246000fd5b9050602002016020810190610da99190611e15565b6001600160e01b03191681526020810191909152604001600020546001600160a01b03161415610e1b5760405162461bcd60e51b815260206004820152601d60248201527f4c69717569646974795661756c7450726f78793a2073616d6520696d7000000060448201526064016102c1565b81601d6000868685818110610e4057634e487b7160e01b600052603260045260246000fd5b9050602002016020810190610e559190611e15565b6001600160e01b0319168152602081019190915260400160002080546001600160a01b0319166001600160a01b039283161790558216848483818110610eab57634e487b7160e01b600052603260045260246000fd5b9050602002016020810190610ec09190611e15565b6001600160e01b0319167f14ebc1c32aa68f4d766e89f3e546cee249f7df25183fc10ab1568d91c2ce9b7b60405160405180910390a380610f0081612002565b915050610d5e565b50505050565b610f1733610ab5565b610f335760405162461bcd60e51b81526004016102c190611ee5565b610b6e8282611932565b610f4633610ab5565b610f625760405162461bcd60e51b81526004016102c190611ee5565b610ab260008051602061206983398151915282610acf565b610f8333610ab5565b610f9f5760405162461bcd60e51b81526004016102c190611ee5565b6001600160a01b038116610ff55760405162461bcd60e51b815260206004820152601860248201527f41636365737369626c653a207a65726f2061646472657373000000000000000060448201526064016102c1565b336001600160a01b03821614156110475760405162461bcd60e51b815260206004820152601660248201527520b1b1b2b9b9b4b136329d1039b0b6b29030b236b4b760511b60448201526064016102c1565b61105f60008051602061206983398151915282610acf565b610ab260008051602061206983398151915233610af4565b61108033610ab5565b61109c5760405162461bcd60e51b81526004016102c190611ee5565b601a805460ff1916911515919091179055565b6110b833610ab5565b6110d45760405162461bcd60e51b81526004016102c190611ee5565b6109ab8383836118a7565b6000818152601b60205260408120546001600160a01b03166109e1565b6001600160e01b031981166000908152601d60205260408120546001600160a01b031661114a57505060008052601b602052600080516020612049833981519152546001600160a01b031690565b6001600160e01b031982166000908152601d60209081526040808320546001600160a01b03168352601c90915290205460ff16156111a857506001600160e01b0319166000908152601d60205260409020546001600160a01b031690565b505060008052601b602052600080516020612049833981519152546001600160a01b031690565b919050565b60009182526019602090815260408084206001600160a01b0393909316845291905290205460ff1690565b600180546109f490611fc7565b600082815260196020526040902060010154611227816117b0565b6109ab8383611840565b856001600160a01b0381166112585760405162461bcd60e51b81526004016102c190611f27565b856001600160a01b03811661127f5760405162461bcd60e51b81526004016102c190611f27565b856001600160a01b0381166112a65760405162461bcd60e51b81526004016102c190611f27565b856001600160a01b0381166112cd5760405162461bcd60e51b81526004016102c190611f27565b856001600160a01b0381166112f45760405162461bcd60e51b81526004016102c190611f27565b856001600160a01b03811661131b5760405162461bcd60e51b81526004016102c190611f27565b61132433610ab5565b6113405760405162461bcd60e51b81526004016102c190611ee5565b60025461010090046001600160a01b03161561139e5760405162461bcd60e51b815260206004820152601860248201527f616c726561647920696e697469616c697a656420706f6f6c000000000000000060448201526064016102c1565b6001600160a01b038d166114065760405162461bcd60e51b815260206004820152602960248201527f526577617264506f6f6c536e617073686f7450726f78793a20706f6f6c41646460448201526872657373207a65726f60b81b60648201526084016102c1565b8c600260016101000a8154816001600160a01b0302191690836001600160a01b03160217905550600260019054906101000a90046001600160a01b03166001600160a01b0316630dfe16816040518163ffffffff1660e01b815260040160206040518083038186803b15801561147b57600080fd5b505afa15801561148f573d6000803e3d6000fd5b505050506040513d601f19601f820116820180604052508101906114b39190611c11565b600380546001600160a01b0319166001600160a01b039283161790556002546040805163d21220a760e01b815290516101009092049092169163d21220a7916004808301926020929190829003018186803b15801561151157600080fd5b505afa158015611525573d6000803e3d6000fd5b505050506040513d601f19601f820116820180604052508101906115499190611c11565b600480546001600160a01b0319166001600160a01b03928316179055600354161580159061158157506004546001600160a01b031615155b6115be5760405162461bcd60e51b815260206004820152600e60248201526d1b9bdb88195e1a5cdd081c1bdbdb60921b60448201526064016102c1565b6003546001600160a01b038a8116911614806116585750866001600160a01b0316634f0e0ef36040518163ffffffff1660e01b815260040160206040518083038186803b15801561160e57600080fd5b505afa158015611622573d6000803e3d6000fd5b505050506040513d601f19601f820116820180604052508101906116469190611c11565b6003546001600160a01b039081169116145b806116f857506004546001600160a01b038a8116911614806116f85750866001600160a01b0316634f0e0ef36040518163ffffffff1660e01b815260040160206040518083038186803b1580156116ae57600080fd5b505afa1580156116c2573d6000803e3d6000fd5b505050506040513d601f19601f820116820180604052508101906116e69190611c11565b6004546001600160a01b039081169116145b61173a5760405162461bcd60e51b81526020600482015260136024820152721b9bdb881d1bdcc81bdc88195d1a081c1bdbdb606a1b60448201526064016102c1565b5050600880546001600160a01b03199081166001600160a01b039c8d16179091556009805482169a8c169a909a179099555050600a805488169689169690961790955550600580548616938716939093179092556006805485169186169190911790556007805490931693169290921790555050565b610ab28133611991565b6117c482826111d4565b610b6e5760008281526019602090815260408083206001600160a01b03851684529091529020805460ff191660011790556117fc3390565b6001600160a01b0316816001600160a01b0316837f2f8788117e7eff1d82e926ec794901d17c78024a50270940304540a733656f0d60405160405180910390a45050565b61184a82826111d4565b15610b6e5760008281526019602090815260408083206001600160a01b0385168085529252808320805460ff1916905551339285917ff6391f5c32d9c69d2a47ea670b442974b53935d1edc7fd64eb21e047a839171b9190a45050565b6001600160a01b0383163b6118fe5760405162461bcd60e51b815260206004820152601b60248201527f50726f78793a206e6f7420636f6e74726163742061646472657373000000000060448201526064016102c1565b801561192c576000828152601b6020526040902080546001600160a01b0319166001600160a01b0385161790555b6109ab83825b6001600160a01b0382166000818152601c6020908152604091829020805460ff191685151590811790915591519182527f72558d9bfba4210f9ef095c782589484151f6d90f7a81bb3cb9b33efc695d324910160405180910390a25050565b61199b82826111d4565b610b6e576119a8816119ea565b6119b38360206119fc565b6040516020016119c4929190611e3d565b60408051601f198184030181529082905262461bcd60e51b82526102c191600401611eb2565b60606109e16001600160a01b03831660145b60606000611a0b836002611f65565b611a16906002611f4d565b67ffffffffffffffff811115611a3c57634e487b7160e01b600052604160045260246000fd5b6040519080825280601f01601f191660200182016040528015611a66576020820181803683370190505b509050600360fc1b81600081518110611a8f57634e487b7160e01b600052603260045260246000fd5b60200101906001600160f81b031916908160001a905350600f60fb1b81600181518110611acc57634e487b7160e01b600052603260045260246000fd5b60200101906001600160f81b031916908160001a9053506000611af0846002611f65565b611afb906001611f4d565b90505b6001811115611b8f576f181899199a1a9b1b9c1cb0b131b232b360811b85600f1660108110611b3d57634e487b7160e01b600052603260045260246000fd5b1a60f81b828281518110611b6157634e487b7160e01b600052603260045260246000fd5b60200101906001600160f81b031916908160001a90535060049490941c93611b8881611fb0565b9050611afe565b508315611bde5760405162461bcd60e51b815260206004820181905260248201527f537472696e67733a20686578206c656e67746820696e73756666696369656e7460448201526064016102c1565b9392505050565b803580151581146111cf57600080fd5b600060208284031215611c06578081fd5b8135611bde81612033565b600060208284031215611c22578081fd5b8151611bde81612033565b600080600080600080600060e0888a031215611c47578283fd5b8735611c5281612033565b96506020880135611c6281612033565b95506040880135611c7281612033565b94506060880135611c8281612033565b93506080880135611c9281612033565b925060a0880135611ca281612033565b915060c0880135611cb281612033565b8091505092959891949750929550565b60008060408385031215611cd4578182fd5b8235611cdf81612033565b9150611ced60208401611be5565b90509250929050565b600080600060608486031215611d0a578283fd5b8335611d1581612033565b925060208401359150611d2a60408501611be5565b90509250925092565b600080600060408486031215611d47578283fd5b833567ffffffffffffffff80821115611d5e578485fd5b818601915086601f830112611d71578485fd5b813581811115611d7f578586fd5b8760208260051b8501011115611d93578586fd5b60209283019550935050840135611da981612033565b809150509250925092565b600060208284031215611dc5578081fd5b611bde82611be5565b600060208284031215611ddf578081fd5b5035919050565b60008060408385031215611df8578182fd5b823591506020830135611e0a81612033565b809150509250929050565b600060208284031215611e26578081fd5b81356001600160e01b031981168114611bde578182fd5b7f416363657373436f6e74726f6c3a206163636f756e7420000000000000000000815260008351611e75816017850160208801611f84565b7001034b99036b4b9b9b4b733903937b6329607d1b6017918401918201528351611ea6816028840160208801611f84565b01602801949350505050565b6020815260008251806020840152611ed1816040850160208701611f84565b601f01601f19169190910160400192915050565b60208082526022908201527f41636365737369626c653a2043616c6c6572206973206e6f7420616e2061646d60408201526134b760f11b606082015260800190565b6020808252600c908201526b7a65726f206164647265737360a01b604082015260600190565b60008219821115611f6057611f6061201d565b500190565b6000816000190483118215151615611f7f57611f7f61201d565b500290565b60005b83811015611f9f578181015183820152602001611f87565b83811115610f085750506000910152565b600081611fbf57611fbf61201d565b506000190190565b600181811c90821680611fdb57607f821691505b60208210811415611ffc57634e487b7160e01b600052602260045260246000fd5b50919050565b60006000198214156120165761201661201d565b5060010190565b634e487b7160e01b600052601160045260246000fd5b6001600160a01b0381168114610ab257600080fdfe584f46c60af19681376031579adb04a2416e54ee5505351c2a8435e3766026eadf8b4c520ffe197c5343c6f5aec59570151ef9a492f2c624fd45ddde6135ec42a2646970667358221220ec2d8d459946cbc8350ee6349d6033ca02060ef89d716690ef564d2946cfc15464736f6c63430008040033df8b4c520ffe197c5343c6f5aec59570151ef9a492f2c624fd45ddde6135ec42df8b4c520ffe197c5343c6f5aec59570151ef9a492f2c624fd45ddde6135ec42a2646970667358221220d60f9191d6f9db29490914b9b3e48497cd52197ecca1e07a89374d8977285c1864736f6c63430008040033df8b4c520ffe197c5343c6f5aec59570151ef9a492f2c624fd45ddde6135ec42",
  "linkReferences": {},
  "deployedLinkReferences": {}
}