{
  "_format": "hh-sol-artifact-1",
  "contractName": "TreasuryStorage",
  "sourceName": "contracts/TreasuryStorage.sol",
  "abi": [
    {
      "inputs": [
        {
          "internalType": "address",
          "name": "",
          "type": "address"
        }
      ],
      "name": "backingIndexPlusOne",
      "outputs": [
        {
          "internalType": "uint256",
          "name": "",
          "type": "uint256"
        }
      ],
      "stateMutability": "view",
      "type": "function"
    },
    {
      "inputs": [
        {
          "internalType": "uint256",
          "name": "",
          "type": "uint256"
        }
      ],
      "name": "backings",
      "outputs": [
        {
          "internalType": "address",
          "name": "",
          "type": "address"
        }
      ],
      "stateMutability": "view",
      "type": "function"
    },
    {
      "inputs": [],
      "name": "calculator",
      "outputs": [
        {
          "internalType": "address",
          "name": "",
          "type": "address"
        }
      ],
      "stateMutability": "view",
      "type": "function"
    },
    {
      "inputs": [],
      "name": "foundationAmount",
      "outputs": [
        {
          "internalType": "uint256",
          "name": "",
          "type": "uint256"
        }
      ],
      "stateMutability": "view",
      "type": "function"
    },
    {
      "inputs": [],
      "name": "foundationTotalPercentage",
      "outputs": [
        {
          "internalType": "uint256",
          "name": "",
          "type": "uint256"
        }
      ],
      "stateMutability": "view",
      "type": "function"
    },
    {
      "inputs": [
        {
          "internalType": "uint256",
          "name": "",
          "type": "uint256"
        }
      ],
      "name": "lpTokens",
      "outputs": [
        {
          "internalType": "uint256",
          "name": "",
          "type": "uint256"
        }
      ],
      "stateMutability": "view",
      "type": "function"
    },
    {
      "inputs": [],
      "name": "mintRate",
      "outputs": [
        {
          "internalType": "uint256",
          "name": "",
          "type": "uint256"
        }
      ],
      "stateMutability": "view",
      "type": "function"
    },
    {
      "inputs": [],
      "name": "mintRateDenominator",
      "outputs": [
        {
          "internalType": "uint256",
          "name": "",
          "type": "uint256"
        }
      ],
      "stateMutability": "view",
      "type": "function"
    },
    {
      "inputs": [
        {
          "internalType": "uint256",
          "name": "",
          "type": "uint256"
        }
      ],
      "name": "mintings",
      "outputs": [
        {
          "internalType": "address",
          "name": "mintAddress",
          "type": "address"
        },
        {
          "internalType": "uint256",
          "name": "mintPercents",
          "type": "uint256"
        }
      ],
      "stateMutability": "view",
      "type": "function"
    },
    {
      "inputs": [
        {
          "internalType": "enum LibTreasury.STATUS",
          "name": "",
          "type": "uint8"
        },
        {
          "internalType": "address",
          "name": "",
          "type": "address"
        }
      ],
      "name": "permissions",
      "outputs": [
        {
          "internalType": "bool",
          "name": "",
          "type": "bool"
        }
      ],
      "stateMutability": "view",
      "type": "function"
    },
    {
      "inputs": [],
      "name": "poolAddressTOSETH",
      "outputs": [
        {
          "internalType": "address",
          "name": "",
          "type": "address"
        }
      ],
      "stateMutability": "view",
      "type": "function"
    },
    {
      "inputs": [
        {
          "internalType": "enum LibTreasury.STATUS",
          "name": "",
          "type": "uint8"
        },
        {
          "internalType": "uint256",
          "name": "",
          "type": "uint256"
        }
      ],
      "name": "registry",
      "outputs": [
        {
          "internalType": "address",
          "name": "",
          "type": "address"
        }
      ],
      "stateMutability": "view",
      "type": "function"
    },
    {
      "inputs": [],
      "name": "stakingV2",
      "outputs": [
        {
          "internalType": "address",
          "name": "",
          "type": "address"
        }
      ],
      "stateMutability": "view",
      "type": "function"
    },
    {
      "inputs": [],
      "name": "tos",
      "outputs": [
        {
          "internalType": "contract IERC20",
          "name": "",
          "type": "address"
        }
      ],
      "stateMutability": "view",
      "type": "function"
    },
    {
      "inputs": [],
      "name": "uniswapV3Factory",
      "outputs": [
        {
          "internalType": "address",
          "name": "",
          "type": "address"
        }
      ],
      "stateMutability": "view",
      "type": "function"
    },
    {
      "inputs": [],
      "name": "wethAddress",
      "outputs": [
        {
          "internalType": "address",
          "name": "",
          "type": "address"
        }
      ],
      "stateMutability": "view",
      "type": "function"
    }
  ],
  "bytecode": "0x60c0604052601660808190527f54726561737572793a206e6f742061636365707465640000000000000000000060a090815261003e9160009190610120565b506040805180820190915260168082527f54726561737572793a206e6f7420617070726f76656400000000000000000000602090920191825261008391600191610120565b506040805180820190915260178082527f54726561737572793a20696e76616c696420746f6b656e00000000000000000060209092019182526100c891600291610120565b5060408051808201909152601f8082527f54726561737572793a20696e73756666696369656e7420726573657276657300602090920191825261010d91600391610120565b5034801561011a57600080fd5b506101f4565b82805461012c906101b9565b90600052602060002090601f01602090048101928261014e5760008555610194565b82601f1061016757805160ff1916838001178555610194565b82800160010185558215610194579182015b82811115610194578251825591602001919060010190610179565b506101a09291506101a4565b5090565b5b808211156101a057600081556001016101a5565b600181811c908216806101cd57607f821691505b602082108114156101ee57634e487b7160e01b600052602260045260246000fd5b50919050565b61043f806102036000396000f3fe608060405234801561001057600080fd5b50600436106101005760003560e01c80638d71bc5b11610097578063ca0dcf1611610066578063ca0dcf1614610257578063ce3e39c014610260578063da9c886414610273578063f908ed371461028657600080fd5b80638d71bc5b14610208578063976b58e91461021b578063a0b9bca914610224578063a44b82871461024457600080fd5b806376f2766c116100d357806376f2766c146101a757806385e36cc2146101d957806388611736146101e257806389f395de146101f557600080fd5b80631bb5e2dc14610105578063330dd3451461012b5780634f0e0ef3146101695780635b54918214610194575b600080fd5b6101186101133660046103f1565b61028f565b6040519081526020015b60405180910390f35b610159610139366004610396565b600f60209081526000928352604080842090915290825290205460ff1681565b6040519015158152602001610122565b60065461017c906001600160a01b031681565b6040516001600160a01b039091168152602001610122565b60075461017c906001600160a01b031681565b6101ba6101b53660046103f1565b6102b0565b604080516001600160a01b039093168352602083019190915201610122565b610118600c5481565b60085461017c906001600160a01b031681565b60045461017c906001600160a01b031681565b60095461017c906001600160a01b031681565b610118600d5481565b610118610232366004610375565b60106020526000908152604090205481565b61017c6102523660046103c8565b6102e8565b610118600a5481565b60055461017c906001600160a01b031681565b61017c6102813660046103f1565b610320565b610118600b5481565b6013818154811061029f57600080fd5b600091825260209091200154905081565b601281815481106102c057600080fd5b6000918252602090912060029091020180546001909101546001600160a01b03909116915082565b600e602052816000526040600020818154811061030457600080fd5b6000918252602090912001546001600160a01b03169150829050565b6011818154811061033057600080fd5b6000918252602090912001546001600160a01b0316905081565b80356001600160a01b038116811461036157600080fd5b919050565b8035600b811061036157600080fd5b600060208284031215610386578081fd5b61038f8261034a565b9392505050565b600080604083850312156103a8578081fd5b6103b183610366565b91506103bf6020840161034a565b90509250929050565b600080604083850312156103da578182fd5b6103e383610366565b946020939093013593505050565b600060208284031215610402578081fd5b503591905056fea2646970667358221220251222912c51200320262c97f33cbd971914a2ec3c4bdf21e27e1e022c40c99864736f6c63430008040033",
  "linkReferences": {},
  "deployedLinkReferences": {}
}