{
  "_format": "hh-sol-artifact-1",
  "contractName": "BaseProxy",
  "sourceName": "contracts/proxy/BaseProxy.sol",
  "abi": [
    {
      "inputs": [],
      "stateMutability": "nonpayable",
      "type": "constructor"
    },
    {
      "anonymous": false,
      "inputs": [
        {
          "indexed": true,
          "internalType": "bytes32",
          "name": "role",
          "type": "bytes32"
        },
        {
          "indexed": true,
          "internalType": "bytes32",
          "name": "previousAdminRole",
          "type": "bytes32"
        },
        {
          "indexed": true,
          "internalType": "bytes32",
          "name": "newAdminRole",
          "type": "bytes32"
        }
      ],
      "name": "RoleAdminChanged",
      "type": "event"
    },
    {
      "anonymous": false,
      "inputs": [
        {
          "indexed": true,
          "internalType": "bytes32",
          "name": "role",
          "type": "bytes32"
        },
        {
          "indexed": true,
          "internalType": "address",
          "name": "account",
          "type": "address"
        },
        {
          "indexed": true,
          "internalType": "address",
          "name": "sender",
          "type": "address"
        }
      ],
      "name": "RoleGranted",
      "type": "event"
    },
    {
      "anonymous": false,
      "inputs": [
        {
          "indexed": true,
          "internalType": "bytes32",
          "name": "role",
          "type": "bytes32"
        },
        {
          "indexed": true,
          "internalType": "address",
          "name": "account",
          "type": "address"
        },
        {
          "indexed": true,
          "internalType": "address",
          "name": "sender",
          "type": "address"
        }
      ],
      "name": "RoleRevoked",
      "type": "event"
    },
    {
      "anonymous": false,
      "inputs": [
        {
          "indexed": true,
          "internalType": "address",
          "name": "impl",
          "type": "address"
        },
        {
          "indexed": false,
          "internalType": "bool",
          "name": "alive",
          "type": "bool"
        }
      ],
      "name": "SetAliveImplementation",
      "type": "event"
    },
    {
      "anonymous": false,
      "inputs": [
        {
          "indexed": true,
          "internalType": "bytes4",
          "name": "selector",
          "type": "bytes4"
        },
        {
          "indexed": true,
          "internalType": "address",
          "name": "impl",
          "type": "address"
        }
      ],
      "name": "SetSelectorImplementation",
      "type": "event"
    },
    {
      "anonymous": false,
      "inputs": [
        {
          "indexed": true,
          "internalType": "address",
          "name": "implementation",
          "type": "address"
        }
      ],
      "name": "Upgraded",
      "type": "event"
    },
    {
      "stateMutability": "payable",
      "type": "fallback"
    },
    {
      "inputs": [],
      "name": "ADMIN_ROLE",
      "outputs": [
        {
          "internalType": "bytes32",
          "name": "",
          "type": "bytes32"
        }
      ],
      "stateMutability": "view",
      "type": "function"
    },
    {
      "inputs": [],
      "name": "DEFAULT_ADMIN_ROLE",
      "outputs": [
        {
          "internalType": "bytes32",
          "name": "",
          "type": "bytes32"
        }
      ],
      "stateMutability": "view",
      "type": "function"
    },
    {
      "inputs": [],
      "name": "POLICY_ROLE",
      "outputs": [
        {
          "internalType": "bytes32",
          "name": "",
          "type": "bytes32"
        }
      ],
      "stateMutability": "view",
      "type": "function"
    },
    {
      "inputs": [
        {
          "internalType": "address",
          "name": "account",
          "type": "address"
        }
      ],
      "name": "addAdmin",
      "outputs": [],
      "stateMutability": "nonpayable",
      "type": "function"
    },
    {
      "inputs": [
        {
          "internalType": "address",
          "name": "",
          "type": "address"
        }
      ],
      "name": "aliveImplementation",
      "outputs": [
        {
          "internalType": "bool",
          "name": "",
          "type": "bool"
        }
      ],
      "stateMutability": "view",
      "type": "function"
    },
    {
      "inputs": [
        {
          "internalType": "bytes32",
          "name": "role",
          "type": "bytes32"
        }
      ],
      "name": "getRoleAdmin",
      "outputs": [
        {
          "internalType": "bytes32",
          "name": "",
          "type": "bytes32"
        }
      ],
      "stateMutability": "view",
      "type": "function"
    },
    {
      "inputs": [
        {
          "internalType": "bytes4",
          "name": "_selector",
          "type": "bytes4"
        }
      ],
      "name": "getSelectorImplementation2",
      "outputs": [
        {
          "internalType": "address",
          "name": "impl",
          "type": "address"
        }
      ],
      "stateMutability": "view",
      "type": "function"
    },
    {
      "inputs": [
        {
          "internalType": "bytes32",
          "name": "role",
          "type": "bytes32"
        },
        {
          "internalType": "address",
          "name": "account",
          "type": "address"
        }
      ],
      "name": "grantRole",
      "outputs": [],
      "stateMutability": "nonpayable",
      "type": "function"
    },
    {
      "inputs": [
        {
          "internalType": "bytes32",
          "name": "role",
          "type": "bytes32"
        },
        {
          "internalType": "address",
          "name": "account",
          "type": "address"
        }
      ],
      "name": "hasRole",
      "outputs": [
        {
          "internalType": "bool",
          "name": "",
          "type": "bool"
        }
      ],
      "stateMutability": "view",
      "type": "function"
    },
    {
      "inputs": [],
      "name": "implementation",
      "outputs": [
        {
          "internalType": "address",
          "name": "",
          "type": "address"
        }
      ],
      "stateMutability": "view",
      "type": "function"
    },
    {
      "inputs": [
        {
          "internalType": "uint256",
          "name": "_index",
          "type": "uint256"
        }
      ],
      "name": "implementation2",
      "outputs": [
        {
          "internalType": "address",
          "name": "",
          "type": "address"
        }
      ],
      "stateMutability": "view",
      "type": "function"
    },
    {
      "inputs": [
        {
          "internalType": "address",
          "name": "account",
          "type": "address"
        }
      ],
      "name": "isAdmin",
      "outputs": [
        {
          "internalType": "bool",
          "name": "",
          "type": "bool"
        }
      ],
      "stateMutability": "view",
      "type": "function"
    },
    {
      "inputs": [],
      "name": "pauseProxy",
      "outputs": [
        {
          "internalType": "bool",
          "name": "",
          "type": "bool"
        }
      ],
      "stateMutability": "view",
      "type": "function"
    },
    {
      "inputs": [
        {
          "internalType": "uint256",
          "name": "",
          "type": "uint256"
        }
      ],
      "name": "proxyImplementation",
      "outputs": [
        {
          "internalType": "address",
          "name": "",
          "type": "address"
        }
      ],
      "stateMutability": "view",
      "type": "function"
    },
    {
      "inputs": [
        {
          "internalType": "address",
          "name": "account",
          "type": "address"
        }
      ],
      "name": "removeAdmin",
      "outputs": [],
      "stateMutability": "nonpayable",
      "type": "function"
    },
    {
      "inputs": [
        {
          "internalType": "bytes32",
          "name": "role",
          "type": "bytes32"
        },
        {
          "internalType": "address",
          "name": "account",
          "type": "address"
        }
      ],
      "name": "renounceRole",
      "outputs": [],
      "stateMutability": "nonpayable",
      "type": "function"
    },
    {
      "inputs": [
        {
          "internalType": "bytes32",
          "name": "role",
          "type": "bytes32"
        },
        {
          "internalType": "address",
          "name": "account",
          "type": "address"
        }
      ],
      "name": "revokeRole",
      "outputs": [],
      "stateMutability": "nonpayable",
      "type": "function"
    },
    {
      "inputs": [
        {
          "internalType": "bytes4",
          "name": "",
          "type": "bytes4"
        }
      ],
      "name": "selectorImplementation",
      "outputs": [
        {
          "internalType": "address",
          "name": "",
          "type": "address"
        }
      ],
      "stateMutability": "view",
      "type": "function"
    },
    {
      "inputs": [
        {
          "internalType": "address",
          "name": "newImplementation",
          "type": "address"
        },
        {
          "internalType": "bool",
          "name": "_alive",
          "type": "bool"
        }
      ],
      "name": "setAliveImplementation2",
      "outputs": [],
      "stateMutability": "nonpayable",
      "type": "function"
    },
    {
      "inputs": [
        {
          "internalType": "address",
          "name": "newImplementation",
          "type": "address"
        },
        {
          "internalType": "uint256",
          "name": "_index",
          "type": "uint256"
        },
        {
          "internalType": "bool",
          "name": "_alive",
          "type": "bool"
        }
      ],
      "name": "setImplementation2",
      "outputs": [],
      "stateMutability": "nonpayable",
      "type": "function"
    },
    {
      "inputs": [
        {
          "internalType": "bool",
          "name": "_pause",
          "type": "bool"
        }
      ],
      "name": "setProxyPause",
      "outputs": [],
      "stateMutability": "nonpayable",
      "type": "function"
    },
    {
      "inputs": [
        {
          "internalType": "bytes4[]",
          "name": "_selectors",
          "type": "bytes4[]"
        },
        {
          "internalType": "address",
          "name": "_imp",
          "type": "address"
        }
      ],
      "name": "setSelectorImplementations2",
      "outputs": [],
      "stateMutability": "nonpayable",
      "type": "function"
    },
    {
      "inputs": [
        {
          "internalType": "bytes4",
          "name": "interfaceId",
          "type": "bytes4"
        }
      ],
      "name": "supportsInterface",
      "outputs": [
        {
          "internalType": "bool",
          "name": "",
          "type": "bool"
        }
      ],
      "stateMutability": "view",
      "type": "function"
    },
    {
      "inputs": [
        {
          "internalType": "address",
          "name": "newAdmin",
          "type": "address"
        }
      ],
      "name": "transferAdmin",
      "outputs": [],
      "stateMutability": "nonpayable",
      "type": "function"
    },
    {
      "inputs": [
        {
          "internalType": "address",
          "name": "impl",
          "type": "address"
        }
      ],
      "name": "upgradeTo",
      "outputs": [],
      "stateMutability": "nonpayable",
      "type": "function"
    },
    {
      "stateMutability": "payable",
      "type": "receive"
    }
  ],
  "bytecode": "0x60806040523480156200001157600080fd5b506200002d6000805160206200174c833981519152806200005b565b620000486000805160206200174c83398151915233620000a6565b62000055600033620000a6565b62000156565b600082815260208190526040808220600101805490849055905190918391839186917fbd79b86ffe0ab8e8776151514217cd7cacd52c909f66475c3af44e129f0b00ff9190a4505050565b620000b28282620000b6565b5050565b6000828152602081815260408083206001600160a01b038516845290915290205460ff16620000b2576000828152602081815260408083206001600160a01b03851684529091529020805460ff19166001179055620001123390565b6001600160a01b0316816001600160a01b0316837f2f8788117e7eff1d82e926ec794901d17c78024a50270940304540a733656f0d60405160405180910390a45050565b6115e680620001666000396000f3fe60806040526004361061016a5760003560e01c80635cc797d8116100d15780637cd5f6631161008a57806391d148541161006457806391d14854146104f2578063a217fddf14610512578063b911135f14610527578063d547741f1461055d576101b3565b80637cd5f663146104925780638b8f4a65146104b25780638d4fdb40146104d2576101b3565b80635cc797d8146103d657806363a8fd89146103f6578063704802751461041057806375829def1461043057806375b238fc146104505780637cb00d2514610472576101b3565b806336568abe1161012357806336568abe146102c45780633659cfe6146102e45780634a5df50f1461030457806350d2a27614610324578063550d01a3146103725780635c60da1b146103a2576101b3565b806301ffc9a7146101bd5780631785f53c146101f25780632298524614610212578063248a9ca31461025457806324d7806c146102845780632f2ff15d146102a4576101b3565b366101b35760405162461bcd60e51b815260206004820152601460248201527331b0b73737ba103932b1b2b4bb329022ba3432b960611b60448201526064015b60405180910390fd5b6101bb61057d565b005b3480156101c957600080fd5b506101dd6101d83660046113b3565b610626565b60405190151581526020015b60405180910390f35b3480156101fe57600080fd5b506101bb61020d366004611262565b61065d565b34801561021e57600080fd5b506102467ffb5864e8ff833c3cb2d2d08505e82ff02a43554c74a35d4f5a64e8526127831181565b6040519081526020016101e9565b34801561026057600080fd5b5061024661026f366004611379565b60009081526020819052604090206001015490565b34801561029057600080fd5b506101dd61029f366004611262565b61069d565b3480156102b057600080fd5b506101bb6102bf366004611391565b6106b7565b3480156102d057600080fd5b506101bb6102df366004611391565b6106dc565b3480156102f057600080fd5b506101bb6102ff366004611262565b61075a565b34801561031057600080fd5b506101bb61031f3660046112e9565b610869565b34801561033057600080fd5b5061035a61033f3660046113b3565b6004602052600090815260409020546001600160a01b031681565b6040516001600160a01b0390911681526020016101e9565b34801561037e57600080fd5b506101dd61038d366004611262565b60036020526000908152604090205460ff1681565b3480156103ae57600080fd5b50600080526002602052600080516020611571833981519152546001600160a01b031661035a565b3480156103e257600080fd5b506101bb6103f136600461127c565b610af6565b34801561040257600080fd5b506001546101dd9060ff1681565b34801561041c57600080fd5b506101bb61042b366004611262565b610b25565b34801561043c57600080fd5b506101bb61044b366004611262565b610b62565b34801561045c57600080fd5b5061024660008051602061159183398151915281565b34801561047e57600080fd5b506101bb61048d36600461135f565b610c5f565b34801561049e57600080fd5b506101bb6104ad3660046112ae565b610c97565b3480156104be57600080fd5b5061035a6104cd366004611379565b610cc7565b3480156104de57600080fd5b5061035a6104ed3660046113b3565b610ce4565b3480156104fe57600080fd5b506101dd61050d366004611391565b610dbc565b34801561051e57600080fd5b50610246600081565b34801561053357600080fd5b5061035a610542366004611379565b6002602052600090815260409020546001600160a01b031681565b34801561056957600080fd5b506101bb610578366004611391565b610de5565b60006105946000356001600160e01b031916610ce4565b90506001600160a01b038116158015906105b1575060015460ff16155b6105fd5760405162461bcd60e51b815260206004820152601d60248201527f50726f78793a20696d706c204f522070726f78792069732066616c736500000060448201526064016101aa565b3660008037600080366000845af43d6000803e80801561061c573d6000f35b3d6000fd5b505050565b60006001600160e01b03198216637965db0b60e01b148061065757506301ffc9a760e01b6001600160e01b03198316145b92915050565b6106663361069d565b6106825760405162461bcd60e51b81526004016101aa90611483565b61069a600080516020611591833981519152826106dc565b50565b600061065760008051602061159183398151915283610dbc565b6000828152602081905260409020600101546106d281610e0a565b6106218383610e14565b6001600160a01b038116331461074c5760405162461bcd60e51b815260206004820152602f60248201527f416363657373436f6e74726f6c3a2063616e206f6e6c792072656e6f756e636560448201526e103937b632b9903337b91039b2b63360891b60648201526084016101aa565b6107568282610e98565b5050565b6107633361069d565b61077f5760405162461bcd60e51b81526004016101aa90611483565b6001600160a01b0381166107c55760405162461bcd60e51b815260206004820152600d60248201526c696e707574206973207a65726f60981b60448201526064016101aa565b600080526002602052600080516020611571833981519152546001600160a01b03828116911614156108255760405162461bcd60e51b815260206004820152600960248201526839b0b6b29030b2323960b91b60448201526064016101aa565b6108328160006001610efd565b6040516001600160a01b038216907fbc7cd75a20ee27fd9adebab32041f755214dbc6bffa90cc0225b39da2e5c2d3b90600090a250565b6108723361069d565b61088e5760405162461bcd60e51b81526004016101aa90611483565b816108db5760405162461bcd60e51b815260206004820181905260248201527f50726f78793a205f73656c6563746f727327732073697a65206973207a65726f60448201526064016101aa565b6001600160a01b03811660009081526003602052604090205460ff166109435760405162461bcd60e51b815260206004820152601860248201527f50726f78793a205f696d70206973206e6f7420616c697665000000000000000060448201526064016101aa565b60005b82811015610af057816001600160a01b03166004600086868581811061097c57634e487b7160e01b600052603260045260246000fd5b905060200201602081019061099191906113b3565b6001600160e01b03191681526020810191909152604001600020546001600160a01b03161415610a035760405162461bcd60e51b815260206004820152601d60248201527f4c69717569646974795661756c7450726f78793a2073616d6520696d7000000060448201526064016101aa565b8160046000868685818110610a2857634e487b7160e01b600052603260045260246000fd5b9050602002016020810190610a3d91906113b3565b6001600160e01b0319168152602081019190915260400160002080546001600160a01b0319166001600160a01b039283161790558216848483818110610a9357634e487b7160e01b600052603260045260246000fd5b9050602002016020810190610aa891906113b3565b6001600160e01b0319167f14ebc1c32aa68f4d766e89f3e546cee249f7df25183fc10ab1568d91c2ce9b7b60405160405180910390a380610ae88161153f565b915050610946565b50505050565b610aff3361069d565b610b1b5760405162461bcd60e51b81526004016101aa90611483565b6107568282610f88565b610b2e3361069d565b610b4a5760405162461bcd60e51b81526004016101aa90611483565b61069a600080516020611591833981519152826106b7565b610b6b3361069d565b610b875760405162461bcd60e51b81526004016101aa90611483565b6001600160a01b038116610bdd5760405162461bcd60e51b815260206004820152601860248201527f41636365737369626c653a207a65726f2061646472657373000000000000000060448201526064016101aa565b336001600160a01b0382161415610c2f5760405162461bcd60e51b815260206004820152601660248201527520b1b1b2b9b9b4b136329d1039b0b6b29030b236b4b760511b60448201526064016101aa565b610c47600080516020611591833981519152826106b7565b61069a600080516020611591833981519152336106dc565b610c683361069d565b610c845760405162461bcd60e51b81526004016101aa90611483565b6001805460ff1916911515919091179055565b610ca03361069d565b610cbc5760405162461bcd60e51b81526004016101aa90611483565b610621838383610efd565b6000818152600260205260408120546001600160a01b0316610657565b6001600160e01b031981166000908152600460205260408120546001600160a01b0316610d32575050600080526002602052600080516020611571833981519152546001600160a01b031690565b6001600160e01b031982166000908152600460209081526040808320546001600160a01b03168352600390915290205460ff1615610d9057506001600160e01b0319166000908152600460205260409020546001600160a01b031690565b5050600080526002602052600080516020611571833981519152546001600160a01b031690565b919050565b6000918252602082815260408084206001600160a01b0393909316845291905290205460ff1690565b600082815260208190526040902060010154610e0081610e0a565b6106218383610e98565b61069a8133610fe7565b610e1e8282610dbc565b610756576000828152602081815260408083206001600160a01b03851684529091529020805460ff19166001179055610e543390565b6001600160a01b0316816001600160a01b0316837f2f8788117e7eff1d82e926ec794901d17c78024a50270940304540a733656f0d60405160405180910390a45050565b610ea28282610dbc565b15610756576000828152602081815260408083206001600160a01b0385168085529252808320805460ff1916905551339285917ff6391f5c32d9c69d2a47ea670b442974b53935d1edc7fd64eb21e047a839171b9190a45050565b6001600160a01b0383163b610f545760405162461bcd60e51b815260206004820152601b60248201527f50726f78793a206e6f7420636f6e74726163742061646472657373000000000060448201526064016101aa565b8015610f8257600082815260026020526040902080546001600160a01b0319166001600160a01b0385161790555b61062183825b6001600160a01b038216600081815260036020908152604091829020805460ff191685151590811790915591519182527f72558d9bfba4210f9ef095c782589484151f6d90f7a81bb3cb9b33efc695d324910160405180910390a25050565b610ff18282610dbc565b61075657610ffe81611040565b611009836020611052565b60405160200161101a9291906113db565b60408051601f198184030181529082905262461bcd60e51b82526101aa91600401611450565b60606106576001600160a01b03831660145b606060006110618360026114dd565b61106c9060026114c5565b67ffffffffffffffff81111561109257634e487b7160e01b600052604160045260246000fd5b6040519080825280601f01601f1916602001820160405280156110bc576020820181803683370190505b509050600360fc1b816000815181106110e557634e487b7160e01b600052603260045260246000fd5b60200101906001600160f81b031916908160001a905350600f60fb1b8160018151811061112257634e487b7160e01b600052603260045260246000fd5b60200101906001600160f81b031916908160001a90535060006111468460026114dd565b6111519060016114c5565b90505b60018111156111e5576f181899199a1a9b1b9c1cb0b131b232b360811b85600f166010811061119357634e487b7160e01b600052603260045260246000fd5b1a60f81b8282815181106111b757634e487b7160e01b600052603260045260246000fd5b60200101906001600160f81b031916908160001a90535060049490941c936111de81611528565b9050611154565b5083156112345760405162461bcd60e51b815260206004820181905260248201527f537472696e67733a20686578206c656e67746820696e73756666696369656e7460448201526064016101aa565b9392505050565b80356001600160a01b0381168114610db757600080fd5b80358015158114610db757600080fd5b600060208284031215611273578081fd5b6112348261123b565b6000806040838503121561128e578081fd5b6112978361123b565b91506112a560208401611252565b90509250929050565b6000806000606084860312156112c2578081fd5b6112cb8461123b565b9250602084013591506112e060408501611252565b90509250925092565b6000806000604084860312156112fd578283fd5b833567ffffffffffffffff80821115611314578485fd5b818601915086601f830112611327578485fd5b813581811115611335578586fd5b8760208260051b8501011115611349578586fd5b6020928301955093506112e0918601905061123b565b600060208284031215611370578081fd5b61123482611252565b60006020828403121561138a578081fd5b5035919050565b600080604083850312156113a3578182fd5b823591506112a56020840161123b565b6000602082840312156113c4578081fd5b81356001600160e01b031981168114611234578182fd5b7f416363657373436f6e74726f6c3a206163636f756e74200000000000000000008152600083516114138160178501602088016114fc565b7001034b99036b4b9b9b4b733903937b6329607d1b60179184019182015283516114448160288401602088016114fc565b01602801949350505050565b602081526000825180602084015261146f8160408501602087016114fc565b601f01601f19169190910160400192915050565b60208082526022908201527f41636365737369626c653a2043616c6c6572206973206e6f7420616e2061646d60408201526134b760f11b606082015260800190565b600082198211156114d8576114d861155a565b500190565b60008160001904831182151516156114f7576114f761155a565b500290565b60005b838110156115175781810151838201526020016114ff565b83811115610af05750506000910152565b6000816115375761153761155a565b506000190190565b60006000198214156115535761155361155a565b5060010190565b634e487b7160e01b600052601160045260246000fdfeac33ff75c19e70fe83507db0d683fd3465c996598dc972688b7ace676c89077bdf8b4c520ffe197c5343c6f5aec59570151ef9a492f2c624fd45ddde6135ec42a2646970667358221220778904c67a88522fba8d567b86fc174b21f491a359eb2f9ed1c8d511762e6c5764736f6c63430008040033df8b4c520ffe197c5343c6f5aec59570151ef9a492f2c624fd45ddde6135ec42",
  "linkReferences": {},
  "deployedLinkReferences": {}
}