{
  "_format": "hh-sol-artifact-1",
  "contractName": "DTOSManager",
  "sourceName": "contracts/token/DTOSManager.sol",
  "abi": [
    {
      "inputs": [],
      "stateMutability": "nonpayable",
      "type": "constructor"
    },
    {
      "anonymous": false,
      "inputs": [
        {
          "indexed": true,
          "internalType": "bytes32",
          "name": "role",
          "type": "bytes32"
        },
        {
          "indexed": true,
          "internalType": "bytes32",
          "name": "previousAdminRole",
          "type": "bytes32"
        },
        {
          "indexed": true,
          "internalType": "bytes32",
          "name": "newAdminRole",
          "type": "bytes32"
        }
      ],
      "name": "RoleAdminChanged",
      "type": "event"
    },
    {
      "anonymous": false,
      "inputs": [
        {
          "indexed": true,
          "internalType": "bytes32",
          "name": "role",
          "type": "bytes32"
        },
        {
          "indexed": true,
          "internalType": "address",
          "name": "account",
          "type": "address"
        },
        {
          "indexed": true,
          "internalType": "address",
          "name": "sender",
          "type": "address"
        }
      ],
      "name": "RoleGranted",
      "type": "event"
    },
    {
      "anonymous": false,
      "inputs": [
        {
          "indexed": true,
          "internalType": "bytes32",
          "name": "role",
          "type": "bytes32"
        },
        {
          "indexed": true,
          "internalType": "address",
          "name": "account",
          "type": "address"
        },
        {
          "indexed": true,
          "internalType": "address",
          "name": "sender",
          "type": "address"
        }
      ],
      "name": "RoleRevoked",
      "type": "event"
    },
    {
      "anonymous": false,
      "inputs": [
        {
          "indexed": false,
          "internalType": "uint256",
          "name": "snapshotId",
          "type": "uint256"
        }
      ],
      "name": "onSnapshot",
      "type": "event"
    },
    {
      "inputs": [],
      "name": "ADMIN_ROLE",
      "outputs": [
        {
          "internalType": "bytes32",
          "name": "",
          "type": "bytes32"
        }
      ],
      "stateMutability": "view",
      "type": "function"
    },
    {
      "inputs": [],
      "name": "DEFAULT_ADMIN_ROLE",
      "outputs": [
        {
          "internalType": "bytes32",
          "name": "",
          "type": "bytes32"
        }
      ],
      "stateMutability": "view",
      "type": "function"
    },
    {
      "inputs": [],
      "name": "POLICY_ROLE",
      "outputs": [
        {
          "internalType": "bytes32",
          "name": "",
          "type": "bytes32"
        }
      ],
      "stateMutability": "view",
      "type": "function"
    },
    {
      "inputs": [
        {
          "internalType": "address",
          "name": "account",
          "type": "address"
        }
      ],
      "name": "addAdmin",
      "outputs": [],
      "stateMutability": "nonpayable",
      "type": "function"
    },
    {
      "inputs": [
        {
          "internalType": "address",
          "name": "_pool",
          "type": "address"
        }
      ],
      "name": "addPool",
      "outputs": [],
      "stateMutability": "nonpayable",
      "type": "function"
    },
    {
      "inputs": [
        {
          "internalType": "address",
          "name": "_pool",
          "type": "address"
        }
      ],
      "name": "addPoolAndInitialize",
      "outputs": [],
      "stateMutability": "nonpayable",
      "type": "function"
    },
    {
      "inputs": [
        {
          "internalType": "address",
          "name": "account",
          "type": "address"
        }
      ],
      "name": "balanceOf",
      "outputs": [
        {
          "internalType": "uint256",
          "name": "amount",
          "type": "uint256"
        }
      ],
      "stateMutability": "view",
      "type": "function"
    },
    {
      "inputs": [
        {
          "internalType": "address",
          "name": "pool",
          "type": "address"
        },
        {
          "internalType": "address",
          "name": "account",
          "type": "address"
        }
      ],
      "name": "balanceOf",
      "outputs": [
        {
          "internalType": "uint256",
          "name": "amount",
          "type": "uint256"
        }
      ],
      "stateMutability": "view",
      "type": "function"
    },
    {
      "inputs": [
        {
          "internalType": "address",
          "name": "account",
          "type": "address"
        },
        {
          "internalType": "uint256",
          "name": "snapshotId",
          "type": "uint256"
        }
      ],
      "name": "balanceOfAt",
      "outputs": [
        {
          "internalType": "uint256",
          "name": "amount",
          "type": "uint256"
        }
      ],
      "stateMutability": "view",
      "type": "function"
    },
    {
      "inputs": [
        {
          "internalType": "uint256",
          "name": "rTokenId",
          "type": "uint256"
        }
      ],
      "name": "burn",
      "outputs": [],
      "stateMutability": "nonpayable",
      "type": "function"
    },
    {
      "inputs": [],
      "name": "decimals",
      "outputs": [
        {
          "internalType": "uint8",
          "name": "",
          "type": "uint8"
        }
      ],
      "stateMutability": "view",
      "type": "function"
    },
    {
      "inputs": [
        {
          "internalType": "address",
          "name": "_pool",
          "type": "address"
        }
      ],
      "name": "deletePool",
      "outputs": [],
      "stateMutability": "nonpayable",
      "type": "function"
    },
    {
      "inputs": [
        {
          "internalType": "address",
          "name": "pool",
          "type": "address"
        }
      ],
      "name": "dtosBaseRate",
      "outputs": [
        {
          "internalType": "uint256",
          "name": "amount",
          "type": "uint256"
        }
      ],
      "stateMutability": "view",
      "type": "function"
    },
    {
      "inputs": [
        {
          "internalType": "bytes32",
          "name": "role",
          "type": "bytes32"
        }
      ],
      "name": "getRoleAdmin",
      "outputs": [
        {
          "internalType": "bytes32",
          "name": "",
          "type": "bytes32"
        }
      ],
      "stateMutability": "view",
      "type": "function"
    },
    {
      "inputs": [
        {
          "internalType": "address",
          "name": "pool",
          "type": "address"
        },
        {
          "internalType": "uint256",
          "name": "id",
          "type": "uint256"
        }
      ],
      "name": "getSnapshotId",
      "outputs": [
        {
          "internalType": "uint256",
          "name": "_poolSnapshotId",
          "type": "uint256"
        }
      ],
      "stateMutability": "view",
      "type": "function"
    },
    {
      "inputs": [
        {
          "internalType": "bytes32",
          "name": "role",
          "type": "bytes32"
        },
        {
          "internalType": "address",
          "name": "account",
          "type": "address"
        }
      ],
      "name": "grantRole",
      "outputs": [],
      "stateMutability": "nonpayable",
      "type": "function"
    },
    {
      "inputs": [
        {
          "internalType": "bytes32",
          "name": "role",
          "type": "bytes32"
        },
        {
          "internalType": "address",
          "name": "account",
          "type": "address"
        }
      ],
      "name": "hasRole",
      "outputs": [
        {
          "internalType": "bool",
          "name": "",
          "type": "bool"
        }
      ],
      "stateMutability": "view",
      "type": "function"
    },
    {
      "inputs": [],
      "name": "initialDtosBaseRate",
      "outputs": [
        {
          "internalType": "uint256",
          "name": "amount",
          "type": "uint256"
        }
      ],
      "stateMutability": "view",
      "type": "function"
    },
    {
      "inputs": [],
      "name": "initialInterestRatePerRebase",
      "outputs": [
        {
          "internalType": "uint256",
          "name": "amount",
          "type": "uint256"
        }
      ],
      "stateMutability": "view",
      "type": "function"
    },
    {
      "inputs": [],
      "name": "initialRebaseIntervalSecond",
      "outputs": [
        {
          "internalType": "uint256",
          "name": "amount",
          "type": "uint256"
        }
      ],
      "stateMutability": "view",
      "type": "function"
    },
    {
      "inputs": [
        {
          "internalType": "address",
          "name": "account",
          "type": "address"
        }
      ],
      "name": "isAdmin",
      "outputs": [
        {
          "internalType": "bool",
          "name": "",
          "type": "bool"
        }
      ],
      "stateMutability": "view",
      "type": "function"
    },
    {
      "inputs": [],
      "name": "maxDtosBaseRate",
      "outputs": [
        {
          "internalType": "uint256",
          "name": "amount",
          "type": "uint256"
        }
      ],
      "stateMutability": "view",
      "type": "function"
    },
    {
      "inputs": [],
      "name": "minDtosBaseRate",
      "outputs": [
        {
          "internalType": "uint256",
          "name": "amount",
          "type": "uint256"
        }
      ],
      "stateMutability": "view",
      "type": "function"
    },
    {
      "inputs": [
        {
          "internalType": "address",
          "name": "staker",
          "type": "address"
        },
        {
          "internalType": "uint256",
          "name": "tokenId",
          "type": "uint256"
        },
        {
          "internalType": "uint256",
          "name": "tosAmount",
          "type": "uint256"
        },
        {
          "internalType": "uint256",
          "name": "factoredAmount",
          "type": "uint256"
        }
      ],
      "name": "mintNFT",
      "outputs": [
        {
          "internalType": "uint256",
          "name": "rewardLP",
          "type": "uint256"
        }
      ],
      "stateMutability": "nonpayable",
      "type": "function"
    },
    {
      "inputs": [],
      "name": "name",
      "outputs": [
        {
          "internalType": "string",
          "name": "",
          "type": "string"
        }
      ],
      "stateMutability": "view",
      "type": "function"
    },
    {
      "inputs": [],
      "name": "policyAddress",
      "outputs": [
        {
          "internalType": "address",
          "name": "",
          "type": "address"
        }
      ],
      "stateMutability": "view",
      "type": "function"
    },
    {
      "inputs": [
        {
          "internalType": "address",
          "name": "",
          "type": "address"
        }
      ],
      "name": "poolIndex",
      "outputs": [
        {
          "internalType": "uint256",
          "name": "",
          "type": "uint256"
        }
      ],
      "stateMutability": "view",
      "type": "function"
    },
    {
      "inputs": [
        {
          "internalType": "uint256",
          "name": "",
          "type": "uint256"
        },
        {
          "internalType": "uint256",
          "name": "",
          "type": "uint256"
        }
      ],
      "name": "poolSnapshots",
      "outputs": [
        {
          "internalType": "address",
          "name": "poolAddress",
          "type": "address"
        },
        {
          "internalType": "uint256",
          "name": "snapshotId",
          "type": "uint256"
        }
      ],
      "stateMutability": "view",
      "type": "function"
    },
    {
      "inputs": [
        {
          "internalType": "uint256",
          "name": "",
          "type": "uint256"
        }
      ],
      "name": "pools",
      "outputs": [
        {
          "internalType": "address",
          "name": "",
          "type": "address"
        }
      ],
      "stateMutability": "view",
      "type": "function"
    },
    {
      "inputs": [
        {
          "internalType": "address",
          "name": "account",
          "type": "address"
        }
      ],
      "name": "removeAdmin",
      "outputs": [],
      "stateMutability": "nonpayable",
      "type": "function"
    },
    {
      "inputs": [
        {
          "internalType": "bytes32",
          "name": "role",
          "type": "bytes32"
        },
        {
          "internalType": "address",
          "name": "account",
          "type": "address"
        }
      ],
      "name": "renounceRole",
      "outputs": [],
      "stateMutability": "nonpayable",
      "type": "function"
    },
    {
      "inputs": [
        {
          "internalType": "bytes32",
          "name": "role",
          "type": "bytes32"
        },
        {
          "internalType": "address",
          "name": "account",
          "type": "address"
        }
      ],
      "name": "revokeRole",
      "outputs": [],
      "stateMutability": "nonpayable",
      "type": "function"
    },
    {
      "inputs": [],
      "name": "rewardLPTokenManager",
      "outputs": [
        {
          "internalType": "address",
          "name": "",
          "type": "address"
        }
      ],
      "stateMutability": "view",
      "type": "function"
    },
    {
      "inputs": [],
      "name": "rewardPoolFactory",
      "outputs": [
        {
          "internalType": "address",
          "name": "",
          "type": "address"
        }
      ],
      "stateMutability": "view",
      "type": "function"
    },
    {
      "inputs": [
        {
          "internalType": "address",
          "name": "_pool",
          "type": "address"
        },
        {
          "internalType": "uint256",
          "name": "_baserate",
          "type": "uint256"
        }
      ],
      "name": "setDtosBaseRate",
      "outputs": [],
      "stateMutability": "nonpayable",
      "type": "function"
    },
    {
      "inputs": [
        {
          "internalType": "address",
          "name": "_pool",
          "type": "address"
        },
        {
          "internalType": "uint256",
          "name": "_period",
          "type": "uint256"
        },
        {
          "internalType": "uint256",
          "name": "_interest",
          "type": "uint256"
        }
      ],
      "name": "setReabseInfo",
      "outputs": [],
      "stateMutability": "nonpayable",
      "type": "function"
    },
    {
      "inputs": [],
      "name": "snapshot",
      "outputs": [],
      "stateMutability": "nonpayable",
      "type": "function"
    },
    {
      "inputs": [
        {
          "internalType": "bytes4",
          "name": "interfaceId",
          "type": "bytes4"
        }
      ],
      "name": "supportsInterface",
      "outputs": [
        {
          "internalType": "bool",
          "name": "",
          "type": "bool"
        }
      ],
      "stateMutability": "view",
      "type": "function"
    },
    {
      "inputs": [],
      "name": "symbol",
      "outputs": [
        {
          "internalType": "string",
          "name": "",
          "type": "string"
        }
      ],
      "stateMutability": "view",
      "type": "function"
    },
    {
      "inputs": [],
      "name": "tosAddress",
      "outputs": [
        {
          "internalType": "address",
          "name": "",
          "type": "address"
        }
      ],
      "stateMutability": "view",
      "type": "function"
    },
    {
      "inputs": [],
      "name": "totalSupply",
      "outputs": [
        {
          "internalType": "uint256",
          "name": "amount",
          "type": "uint256"
        }
      ],
      "stateMutability": "view",
      "type": "function"
    },
    {
      "inputs": [
        {
          "internalType": "address",
          "name": "pool",
          "type": "address"
        }
      ],
      "name": "totalSupply",
      "outputs": [
        {
          "internalType": "uint256",
          "name": "amount",
          "type": "uint256"
        }
      ],
      "stateMutability": "view",
      "type": "function"
    },
    {
      "inputs": [
        {
          "internalType": "uint256",
          "name": "snapshotId",
          "type": "uint256"
        }
      ],
      "name": "totalSupplyAt",
      "outputs": [
        {
          "internalType": "uint256",
          "name": "amount",
          "type": "uint256"
        }
      ],
      "stateMutability": "view",
      "type": "function"
    },
    {
      "inputs": [
        {
          "internalType": "address",
          "name": "newAdmin",
          "type": "address"
        }
      ],
      "name": "transferAdmin",
      "outputs": [],
      "stateMutability": "nonpayable",
      "type": "function"
    }
  ],
  "bytecode": "0x60806040526002805460ff1916601217905534801561001d57600080fd5b506127898061002d6000396000f3fe608060405234801561001057600080fd5b50600436106102745760003560e01c806370a0823111610151578063ac4afa38116100c3578063e084363a11610087578063e084363a1461059b578063e1d7f06e146105b3578063e4dc2aa4146105bb578063eed734e7146105ce578063f6e0fe33146105d6578063f7888aec146105e957600080fd5b8063ac4afa381461052f578063b42754a514610542578063bcee96af14610562578063d547741f14610575578063d914cd4b1461058857600080fd5b806395d89b411161011557806395d89b41146104de5780639711715a146104e657806397b0f205146104ee578063981b24d014610501578063a217fddf14610514578063aba7460c1461051c57600080fd5b806370a082311461048857806375829def1461049b57806375b238fc146104ae57806386d278e3146104c357806391d14854146104cb57600080fd5b806336568abe116101ea578063520194a6116101ae578063520194a61461042c578063563bed8d1461043f5780635c153a391461044757806360046ed71461044f578063637e65bd14610462578063704802751461047557600080fd5b806336568abe146103cd578063388fe34f146103e057806342966c68146103f35780634ee2cd7e146104065780634f2bc3f21461041957600080fd5b8063229852461161023c578063229852461461030c578063248a9ca31461033357806324d7806c1461035657806325afe771146103695780632f2ff15d1461039b578063313ce567146103ae57600080fd5b806301ffc9a71461027957806306fdde03146102a15780631042f08d146102b65780631785f53c146102e157806318160ddd146102f6575b600080fd5b61028c61028736600461245f565b6105fc565b60405190151581526020015b60405180910390f35b6102a9610633565b6040516102989190612535565b6003546102c9906001600160a01b031681565b6040516001600160a01b039091168152602001610298565b6102f46102ef36600461231a565b6106c1565b005b6102fe61070a565b604051908152602001610298565b6102fe7ffb5864e8ff833c3cb2d2d08505e82ff02a43554c74a35d4f5a64e8526127831181565b6102fe610341366004612423565b6000908152600a602052604090206001015490565b61028c61036436600461231a565b610827565b61037c61037736600461249f565b610841565b604080516001600160a01b039093168352602083019190915201610298565b6102f46103a936600461243b565b610887565b6002546103bb9060ff1681565b60405160ff9091168152602001610298565b6102f46103db36600461243b565b6108b1565b6102f46103ee36600461238a565b61092f565b6102f4610401366004612423565b610985565b6102fe61041436600461238a565b610a12565b6102f461042736600461231a565b610bed565b6005546102c9906001600160a01b031681565b6102fe610c47565b6102fe610cd4565b6102fe61045d36600461231a565b610d24565b6004546102c9906001600160a01b031681565b6102f461048336600461231a565b610d97565b6102fe61049636600461231a565b610dd4565b6102f46104a936600461231a565b610ef8565b6102fe60008051602061273483398151915281565b6102fe610ff5565b61028c6104d936600461243b565b611045565b6102a9611070565b6102f461107d565b6102f46104fc36600461231a565b611218565b6102fe61050f366004612423565b61139e565b6102fe600081565b6102f461052a3660046123b5565b611564565b6102c961053d366004612423565b611594565b6102fe61055036600461231a565b60066020526000908152604090205481565b6102fe6105703660046123e9565b6115be565b6102f461058336600461243b565b61168d565b6102f461059636600461231a565b6116b2565b6002546102c99061010090046001600160a01b031681565b6102fe6118e2565b6102fe6105c936600461231a565b611932565b6102fe61196d565b6102fe6105e436600461238a565b6119bd565b6102fe6105f7366004612352565b611af2565b60006001600160e01b03198216637965db0b60e01b148061062d57506301ffc9a760e01b6001600160e01b03198316145b92915050565b60008054610640906126b2565b80601f016020809104026020016040519081016040528092919081815260200182805461066c906126b2565b80156106b95780601f1061068e576101008083540402835291602001916106b9565b820191906000526020600020905b81548152906001019060200180831161069c57829003601f168201915b505050505081565b6106ca33610827565b6106ef5760405162461bcd60e51b81526004016106e690612593565b60405180910390fd5b610707600080516020612734833981519152826108b1565b50565b60075460009060015b818110156108225760006001600160a01b03166007828154811061074757634e487b7160e01b600052603260045260246000fd5b6000918252602090912001546001600160a01b031614610810576007818154811061078257634e487b7160e01b600052603260045260246000fd5b60009182526020918290200154604080516318160ddd60e01b815290516001600160a01b03909216926318160ddd92600480840193829003018186803b1580156107cb57600080fd5b505afa1580156107df573d6000803e3d6000fd5b505050506040513d601f19601f820116820180604052508101906108039190612487565b61080d908461261d565b92505b8061081a816126ed565b915050610713565b505090565b600061062d60008051602061273483398151915283611045565b6009602052816000526040600020818154811061085d57600080fd5b6000918252602090912060029091020180546001909101546001600160a01b039091169250905082565b6000828152600a60205260409020600101546108a281611b76565b6108ac8383611b80565b505050565b6001600160a01b03811633146109215760405162461bcd60e51b815260206004820152602f60248201527f416363657373436f6e74726f6c3a2063616e206f6e6c792072656e6f756e636560448201526e103937b632b9903337b91039b2b63360891b60648201526084016106e6565b61092b8282611c06565b5050565b816001600160a01b0381166109565760405162461bcd60e51b81526004016106e690612568565b61095f33610827565b61097b5760405162461bcd60e51b81526004016106e690612593565b6108ac8383611c6d565b336000908152600660205260409020546109b15760405162461bcd60e51b81526004016106e6906125d5565b600554604051630852cd8d60e31b8152600481018390526001600160a01b03909116906342966c6890602401600060405180830381600087803b1580156109f757600080fd5b505af1158015610a0b573d6000803e3d6000fd5b5050505050565b600081815260096020908152604080832080548251818502810185019093528083528493849084015b82821015610a83576000848152602090819020604080518082019091526002850290910180546001600160a01b03168252600190810154828401529083529092019101610a3b565b5050825192935060009150505b81811015610be45760006001600160a01b0316838281518110610ac357634e487b7160e01b600052603260045260246000fd5b6020026020010151600001516001600160a01b031614610bd257828181518110610afd57634e487b7160e01b600052603260045260246000fd5b6020026020010151600001516001600160a01b0316634ee2cd7e87858481518110610b3857634e487b7160e01b600052603260045260246000fd5b6020026020010151602001516040518363ffffffff1660e01b8152600401610b759291906001600160a01b03929092168252602082015260400190565b60206040518083038186803b158015610b8d57600080fd5b505afa158015610ba1573d6000803e3d6000fd5b505050506040513d601f19601f82011682018060405250810190610bc59190612487565b610bcf908561261d565b93505b80610bdc816126ed565b915050610a90565b50505092915050565b806001600160a01b038116610c145760405162461bcd60e51b81526004016106e690612568565b610c1d826116b2565b610c2e82610c29610cd4565b611c6d565b61092b82610c3a610c47565b610c426118e2565b611f1c565b6000600460009054906101000a90046001600160a01b03166001600160a01b031663563bed8d6040518163ffffffff1660e01b815260040160206040518083038186803b158015610c9757600080fd5b505afa158015610cab573d6000803e3d6000fd5b505050506040513d601f19601f82011682018060405250810190610ccf9190612487565b905090565b6000600460009054906101000a90046001600160a01b03166001600160a01b0316635c153a396040518163ffffffff1660e01b815260040160206040518083038186803b158015610c9757600080fd5b6000816001600160a01b031663a155041f6040518163ffffffff1660e01b815260040160206040518083038186803b158015610d5f57600080fd5b505afa158015610d73573d6000803e3d6000fd5b505050506040513d601f19601f8201168201806040525081019061062d9190612487565b610da033610827565b610dbc5760405162461bcd60e51b81526004016106e690612593565b61070760008051602061273483398151915282610887565b60075460009060015b81811015610ef15760006001600160a01b031660078281548110610e1157634e487b7160e01b600052603260045260246000fd5b6000918252602090912001546001600160a01b031614610edf5760078181548110610e4c57634e487b7160e01b600052603260045260246000fd5b6000918252602090912001546040516370a0823160e01b81526001600160a01b038681166004830152909116906370a082319060240160206040518083038186803b158015610e9a57600080fd5b505afa158015610eae573d6000803e3d6000fd5b505050506040513d601f19601f82011682018060405250810190610ed29190612487565b610edc908461261d565b92505b80610ee9816126ed565b915050610ddd565b5050919050565b610f0133610827565b610f1d5760405162461bcd60e51b81526004016106e690612593565b6001600160a01b038116610f735760405162461bcd60e51b815260206004820152601860248201527f41636365737369626c653a207a65726f2061646472657373000000000000000060448201526064016106e6565b336001600160a01b0382161415610fc55760405162461bcd60e51b815260206004820152601660248201527520b1b1b2b9b9b4b136329d1039b0b6b29030b236b4b760511b60448201526064016106e6565b610fdd60008051602061273483398151915282610887565b610707600080516020612734833981519152336108b1565b6000600460009054906101000a90046001600160a01b03166001600160a01b03166386d278e36040518163ffffffff1660e01b815260040160206040518083038186803b158015610c9757600080fd5b6000918252600a602090815260408084206001600160a01b0393909316845291905290205460ff1690565b60018054610640906126b2565b6008805490600061108d836126ed565b909155505060075460015b818110156111d9576000600782815481106110c357634e487b7160e01b600052603260045260246000fd5b6000918252602090912001546001600160a01b0316905080156111c6576009600060085481526020019081526020016000206040518060400160405280836001600160a01b03168152602001836001600160a01b0316639711715a6040518163ffffffff1660e01b8152600401602060405180830381600087803b15801561114a57600080fd5b505af115801561115e573d6000803e3d6000fd5b505050506040513d601f19601f820116820180604052508101906111829190612487565b90528154600180820184556000938452602093849020835160029093020180546001600160a01b0319166001600160a01b0390931692909217825591909201519101555b50806111d1816126ed565b915050611098565b507f72263eb39dd7979c26a3c99f91635ee357f11c292123bd759ffa047b4c4ec57060085460405161120d91815260200190565b60405180910390a150565b806001600160a01b03811661123f5760405162461bcd60e51b81526004016106e690612568565b61124833610827565b6112645760405162461bcd60e51b81526004016106e690612593565b6001600160a01b038216600090815260066020526040902054801580159061128d575060075481105b156108ac576007546112a190600190612654565b81101561133f57600780546112b890600190612654565b815481106112d657634e487b7160e01b600052603260045260246000fd5b600091825260209091200154600780546001600160a01b03909216918390811061131057634e487b7160e01b600052603260045260246000fd5b9060005260206000200160006101000a8154816001600160a01b0302191690836001600160a01b031602179055505b600780548061135e57634e487b7160e01b600052603160045260246000fd5b60008281526020808220830160001990810180546001600160a01b03191690559092019092556001600160a01b0385168252600690526040812055505050565b600081815260096020908152604080832080548251818502810185019093528083528493849084015b8282101561140f576000848152602090819020604080518082019091526002850290910180546001600160a01b031682526001908101548284015290835290920191016113c7565b5050825192935060009150505b8181101561155c5760006001600160a01b031683828151811061144f57634e487b7160e01b600052603260045260246000fd5b6020026020010151600001516001600160a01b03161461154a5782818151811061148957634e487b7160e01b600052603260045260246000fd5b6020026020010151600001516001600160a01b031663981b24d08483815181106114c357634e487b7160e01b600052603260045260246000fd5b6020026020010151602001516040518263ffffffff1660e01b81526004016114ed91815260200190565b60206040518083038186803b15801561150557600080fd5b505afa158015611519573d6000803e3d6000fd5b505050506040513d601f19601f8201168201806040525081019061153d9190612487565b611547908561261d565b93505b80611554816126ed565b91505061141c565b505050919050565b61156d33610827565b6115895760405162461bcd60e51b81526004016106e690612593565b6108ac838383611f1c565b600781815481106115a457600080fd5b6000918252602090912001546001600160a01b0316905081565b336000908152600660205260408120546115ea5760405162461bcd60e51b81526004016106e6906125d5565b600554604051639ceeaca760e01b81526001600160a01b03878116600483015233602483015260448201879052606482018690526084820185905290911690639ceeaca79060a401602060405180830381600087803b15801561164c57600080fd5b505af1158015611660573d6000803e3d6000fd5b505050506040513d601f19601f820116820180604052508101906116849190612487565b95945050505050565b6000828152600a60205260409020600101546116a881611b76565b6108ac8383611c06565b806001600160a01b0381166116d95760405162461bcd60e51b81526004016106e690612568565b60035460408051631042f08d60e01b815290516001600160a01b0392831692851691631042f08d916004808301926020929190829003018186803b15801561172057600080fd5b505afa158015611734573d6000803e3d6000fd5b505050506040513d601f19601f820116820180604052508101906117589190612336565b6001600160a01b03161461179e5760405162461bcd60e51b815260206004820152600d60248201526c646966666572656e7420746f7360981b60448201526064016106e6565b60025461010090046001600160a01b03163314806117c057506117c033610827565b61181d5760405162461bcd60e51b815260206004820152602860248201527f73656e646572206973206e6f7420526577617264506f6f6c466163746f72792060448201526737b91020b236b4b760c11b60648201526084016106e6565b6001600160a01b03821660009081526006602052604090205461092b5760075461188257600780546001810182556000919091527fa66cc928b5edb82af9bd49922954155ab7b0942694bea4ce44661d9a8736c6880180546001600160a01b03191690555b600780546001600160a01b0384166000818152600660205260408120839055600183018455929092527fa66cc928b5edb82af9bd49922954155ab7b0942694bea4ce44661d9a8736c6880180546001600160a01b03191690911790555050565b6000600460009054906101000a90046001600160a01b03166001600160a01b031663e1d7f06e6040518163ffffffff1660e01b815260040160206040518083038186803b158015610c9757600080fd5b6000816001600160a01b03166318160ddd6040518163ffffffff1660e01b815260040160206040518083038186803b158015610d5f57600080fd5b6000600460009054906101000a90046001600160a01b03166001600160a01b031663eed734e76040518163ffffffff1660e01b815260040160206040518083038186803b158015610c9757600080fd5b60006001600160a01b0383166119d55750600061062d565b600082815260096020908152604080832080548251818502810185019093528083529192909190849084015b82821015611a49576000848152602090819020604080518082019091526002850290910180546001600160a01b03168252600190810154828401529083529092019101611a01565b50505050905060005b8151811015611ae757846001600160a01b0316828281518110611a8557634e487b7160e01b600052603260045260246000fd5b6020026020010151600001516001600160a01b03161415611ad557818181518110611ac057634e487b7160e01b600052603260045260246000fd5b6020026020010151602001519250505061062d565b80611adf816126ed565b915050611a52565b506000949350505050565b6040516370a0823160e01b81526001600160a01b038281166004830152600091908416906370a082319060240160206040518083038186803b158015611b3757600080fd5b505afa158015611b4b573d6000803e3d6000fd5b505050506040513d601f19601f82011682018060405250810190611b6f9190612487565b9392505050565b61070781336120cd565b611b8a8282611045565b61092b576000828152600a602090815260408083206001600160a01b03851684529091529020805460ff19166001179055611bc23390565b6001600160a01b0316816001600160a01b0316837f2f8788117e7eff1d82e926ec794901d17c78024a50270940304540a733656f0d60405160405180910390a45050565b611c108282611045565b1561092b576000828152600a602090815260408083206001600160a01b0385168085529252808320805460ff1916905551339285917ff6391f5c32d9c69d2a47ea670b442974b53935d1edc7fd64eb21e047a839171b9190a45050565b6001600160a01b038216600090815260066020526040902054611cc45760405162461bcd60e51b815260206004820152600f60248201526e0f4cae4de40e0deded840d2dcc8caf608b1b60448201526064016106e6565b80826001600160a01b031663a155041f6040518163ffffffff1660e01b815260040160206040518083038186803b158015611cfe57600080fd5b505afa158015611d12573d6000803e3d6000fd5b505050506040513d601f19601f82011682018060405250810190611d369190612487565b1415611d705760405162461bcd60e51b815260206004820152600960248201526873616d65207261746560b81b60448201526064016106e6565b60048054604080516386d278e360e01b815290516001600160a01b03909216926386d278e3928282019260209290829003018186803b158015611db257600080fd5b505afa158015611dc6573d6000803e3d6000fd5b505050506040513d601f19601f82011682018060405250810190611dea9190612487565b8110158015611e725750600480546040805163eed734e760e01b815290516001600160a01b039092169263eed734e7928282019260209290829003018186803b158015611e3657600080fd5b505afa158015611e4a573d6000803e3d6000fd5b505050506040513d601f19601f82011682018060405250810190611e6e9190612487565b8111155b611ebe5760405162461bcd60e51b815260206004820152601f60248201527f746865206e6f6e2d61636365707461626c652044746f7342617365526174650060448201526064016106e6565b604051630d7bd4d160e11b8152600481018290526001600160a01b03831690631af7a9a290602401600060405180830381600087803b158015611f0057600080fd5b505af1158015611f14573d6000803e3d6000fd5b505050505050565b6001600160a01b038316600090815260066020526040902054611f735760405162461bcd60e51b815260206004820152600f60248201526e0f4cae4de40e0deded840d2dcc8caf608b1b60448201526064016106e6565b81836001600160a01b031663a3db16a26040518163ffffffff1660e01b815260040160206040518083038186803b158015611fad57600080fd5b505afa158015611fc1573d6000803e3d6000fd5b505050506040513d601f19601f82011682018060405250810190611fe59190612487565b141580612062575080836001600160a01b031663039bf30a6040518163ffffffff1660e01b815260040160206040518083038186803b15801561202757600080fd5b505afa15801561203b573d6000803e3d6000fd5b505050506040513d601f19601f8201168201806040525081019061205f9190612487565b14155b156108ac576040516316a2b77760e21b815260048101839052602481018290526001600160a01b03841690635a8adddc90604401600060405180830381600087803b1580156120b057600080fd5b505af11580156120c4573d6000803e3d6000fd5b50505050505050565b6120d78282611045565b61092b576120e481612126565b6120ef836020612138565b6040516020016121009291906124c0565b60408051601f198184030181529082905262461bcd60e51b82526106e691600401612535565b606061062d6001600160a01b03831660145b60606000612147836002612635565b61215290600261261d565b67ffffffffffffffff81111561217857634e487b7160e01b600052604160045260246000fd5b6040519080825280601f01601f1916602001820160405280156121a2576020820181803683370190505b509050600360fc1b816000815181106121cb57634e487b7160e01b600052603260045260246000fd5b60200101906001600160f81b031916908160001a905350600f60fb1b8160018151811061220857634e487b7160e01b600052603260045260246000fd5b60200101906001600160f81b031916908160001a905350600061222c846002612635565b61223790600161261d565b90505b60018111156122cb576f181899199a1a9b1b9c1cb0b131b232b360811b85600f166010811061227957634e487b7160e01b600052603260045260246000fd5b1a60f81b82828151811061229d57634e487b7160e01b600052603260045260246000fd5b60200101906001600160f81b031916908160001a90535060049490941c936122c48161269b565b905061223a565b508315611b6f5760405162461bcd60e51b815260206004820181905260248201527f537472696e67733a20686578206c656e67746820696e73756666696369656e7460448201526064016106e6565b60006020828403121561232b578081fd5b8135611b6f8161271e565b600060208284031215612347578081fd5b8151611b6f8161271e565b60008060408385031215612364578081fd5b823561236f8161271e565b9150602083013561237f8161271e565b809150509250929050565b6000806040838503121561239c578182fd5b82356123a78161271e565b946020939093013593505050565b6000806000606084860312156123c9578081fd5b83356123d48161271e565b95602085013595506040909401359392505050565b600080600080608085870312156123fe578081fd5b84356124098161271e565b966020860135965060408601359560600135945092505050565b600060208284031215612434578081fd5b5035919050565b6000806040838503121561244d578182fd5b82359150602083013561237f8161271e565b600060208284031215612470578081fd5b81356001600160e01b031981168114611b6f578182fd5b600060208284031215612498578081fd5b5051919050565b600080604083850312156124b1578182fd5b50508035926020909101359150565b7f416363657373436f6e74726f6c3a206163636f756e74200000000000000000008152600083516124f881601785016020880161266b565b7001034b99036b4b9b9b4b733903937b6329607d1b601791840191820152835161252981602884016020880161266b565b01602801949350505050565b602081526000825180602084015261255481604085016020870161266b565b601f01601f19169190910160400192915050565b60208082526011908201527044544f533a7a65726f206164647265737360781b604082015260600190565b60208082526022908201527f41636365737369626c653a2043616c6c6572206973206e6f7420616e2061646d60408201526134b760f11b606082015260800190565b60208082526028908201527f44544f533a2073656e646572206973206e6f742061206d616e616765642052656040820152671dd85c99141bdbdb60c21b606082015260800190565b6000821982111561263057612630612708565b500190565b600081600019048311821515161561264f5761264f612708565b500290565b60008282101561266657612666612708565b500390565b60005b8381101561268657818101518382015260200161266e565b83811115612695576000848401525b50505050565b6000816126aa576126aa612708565b506000190190565b600181811c908216806126c657607f821691505b602082108114156126e757634e487b7160e01b600052602260045260246000fd5b50919050565b600060001982141561270157612701612708565b5060010190565b634e487b7160e01b600052601160045260246000fd5b6001600160a01b038116811461070757600080fdfedf8b4c520ffe197c5343c6f5aec59570151ef9a492f2c624fd45ddde6135ec42a2646970667358221220f2b3a2d5145cb74d91ddec4dd1970ec483fbfdc6497745346c926d2268194a8c64736f6c63430008040033",
  "linkReferences": {},
  "deployedLinkReferences": {}
}