{
  "_format": "hh-sol-artifact-1",
  "contractName": "RewardPoolSnapshot",
  "sourceName": "contracts/reward/RewardPoolSnapshot.sol",
  "abi": [
    {
      "inputs": [],
      "stateMutability": "nonpayable",
      "type": "constructor"
    },
    {
      "anonymous": false,
      "inputs": [
        {
          "indexed": false,
          "internalType": "uint256",
          "name": "prevFactor",
          "type": "uint256"
        },
        {
          "indexed": false,
          "internalType": "uint256",
          "name": "newFactor",
          "type": "uint256"
        },
        {
          "indexed": false,
          "internalType": "uint256",
          "name": "lastRebaseTime",
          "type": "uint256"
        },
        {
          "indexed": false,
          "internalType": "uint256",
          "name": "total",
          "type": "uint256"
        },
        {
          "indexed": false,
          "internalType": "uint256",
          "name": "profits",
          "type": "uint256"
        }
      ],
      "name": "Rebased",
      "type": "event"
    },
    {
      "anonymous": false,
      "inputs": [
        {
          "indexed": true,
          "internalType": "bytes32",
          "name": "role",
          "type": "bytes32"
        },
        {
          "indexed": true,
          "internalType": "bytes32",
          "name": "previousAdminRole",
          "type": "bytes32"
        },
        {
          "indexed": true,
          "internalType": "bytes32",
          "name": "newAdminRole",
          "type": "bytes32"
        }
      ],
      "name": "RoleAdminChanged",
      "type": "event"
    },
    {
      "anonymous": false,
      "inputs": [
        {
          "indexed": true,
          "internalType": "bytes32",
          "name": "role",
          "type": "bytes32"
        },
        {
          "indexed": true,
          "internalType": "address",
          "name": "account",
          "type": "address"
        },
        {
          "indexed": true,
          "internalType": "address",
          "name": "sender",
          "type": "address"
        }
      ],
      "name": "RoleGranted",
      "type": "event"
    },
    {
      "anonymous": false,
      "inputs": [
        {
          "indexed": true,
          "internalType": "bytes32",
          "name": "role",
          "type": "bytes32"
        },
        {
          "indexed": true,
          "internalType": "address",
          "name": "account",
          "type": "address"
        },
        {
          "indexed": true,
          "internalType": "address",
          "name": "sender",
          "type": "address"
        }
      ],
      "name": "RoleRevoked",
      "type": "event"
    },
    {
      "anonymous": false,
      "inputs": [
        {
          "indexed": false,
          "internalType": "uint256",
          "name": "factor",
          "type": "uint256"
        },
        {
          "indexed": false,
          "internalType": "uint256",
          "name": "id",
          "type": "uint256"
        }
      ],
      "name": "SetFactor",
      "type": "event"
    },
    {
      "anonymous": false,
      "inputs": [
        {
          "indexed": false,
          "internalType": "uint256",
          "name": "id",
          "type": "uint256"
        }
      ],
      "name": "Snapshot",
      "type": "event"
    },
    {
      "anonymous": false,
      "inputs": [
        {
          "indexed": false,
          "internalType": "address",
          "name": "sender",
          "type": "address"
        },
        {
          "indexed": false,
          "internalType": "uint256",
          "name": "rNFT",
          "type": "uint256"
        },
        {
          "indexed": false,
          "internalType": "uint256",
          "name": "tokenId",
          "type": "uint256"
        },
        {
          "indexed": false,
          "internalType": "uint256",
          "name": "tosAmount",
          "type": "uint256"
        },
        {
          "indexed": false,
          "internalType": "uint256",
          "name": "dtosAmount",
          "type": "uint256"
        },
        {
          "indexed": false,
          "internalType": "uint256",
          "name": "factoredAmount",
          "type": "uint256"
        },
        {
          "indexed": false,
          "internalType": "uint256",
          "name": "liquidity",
          "type": "uint256"
        }
      ],
      "name": "Staked",
      "type": "event"
    },
    {
      "anonymous": false,
      "inputs": [
        {
          "indexed": false,
          "internalType": "address",
          "name": "from",
          "type": "address"
        },
        {
          "indexed": false,
          "internalType": "address",
          "name": "to",
          "type": "address"
        },
        {
          "indexed": false,
          "internalType": "uint256",
          "name": "tokenId",
          "type": "uint256"
        },
        {
          "indexed": false,
          "internalType": "uint256",
          "name": "amount",
          "type": "uint256"
        },
        {
          "indexed": false,
          "internalType": "uint256",
          "name": "factoredAmount",
          "type": "uint256"
        }
      ],
      "name": "TransferFrom",
      "type": "event"
    },
    {
      "anonymous": false,
      "inputs": [
        {
          "indexed": false,
          "internalType": "address",
          "name": "sender",
          "type": "address"
        },
        {
          "indexed": false,
          "internalType": "uint256",
          "name": "tokenId",
          "type": "uint256"
        },
        {
          "indexed": false,
          "internalType": "uint256",
          "name": "tosAmount",
          "type": "uint256"
        },
        {
          "indexed": false,
          "internalType": "uint256",
          "name": "factoredAmount",
          "type": "uint256"
        },
        {
          "indexed": false,
          "internalType": "uint256",
          "name": "rewardTokenId",
          "type": "uint256"
        }
      ],
      "name": "Unstaked",
      "type": "event"
    },
    {
      "anonymous": false,
      "inputs": [
        {
          "indexed": false,
          "internalType": "address",
          "name": "account",
          "type": "address"
        },
        {
          "indexed": false,
          "internalType": "uint256",
          "name": "balances",
          "type": "uint256"
        },
        {
          "indexed": false,
          "internalType": "uint256",
          "name": "factoredAmount",
          "type": "uint256"
        }
      ],
      "name": "UpdatedBalanceSnapshots",
      "type": "event"
    },
    {
      "inputs": [],
      "name": "ADMIN_ROLE",
      "outputs": [
        {
          "internalType": "bytes32",
          "name": "",
          "type": "bytes32"
        }
      ],
      "stateMutability": "view",
      "type": "function"
    },
    {
      "inputs": [],
      "name": "DEFAULT_ADMIN_ROLE",
      "outputs": [
        {
          "internalType": "bytes32",
          "name": "",
          "type": "bytes32"
        }
      ],
      "stateMutability": "view",
      "type": "function"
    },
    {
      "inputs": [],
      "name": "DEFAULT_FACTOR",
      "outputs": [
        {
          "internalType": "uint256",
          "name": "",
          "type": "uint256"
        }
      ],
      "stateMutability": "view",
      "type": "function"
    },
    {
      "inputs": [],
      "name": "POLICY_ROLE",
      "outputs": [
        {
          "internalType": "bytes32",
          "name": "",
          "type": "bytes32"
        }
      ],
      "stateMutability": "view",
      "type": "function"
    },
    {
      "inputs": [
        {
          "internalType": "address",
          "name": "account",
          "type": "address"
        }
      ],
      "name": "addAdmin",
      "outputs": [],
      "stateMutability": "nonpayable",
      "type": "function"
    },
    {
      "inputs": [
        {
          "internalType": "address",
          "name": "account",
          "type": "address"
        }
      ],
      "name": "balanceOf",
      "outputs": [
        {
          "internalType": "uint256",
          "name": "",
          "type": "uint256"
        }
      ],
      "stateMutability": "view",
      "type": "function"
    },
    {
      "inputs": [
        {
          "internalType": "address",
          "name": "account",
          "type": "address"
        },
        {
          "internalType": "uint256",
          "name": "snapshotId",
          "type": "uint256"
        }
      ],
      "name": "balanceOfAt",
      "outputs": [
        {
          "internalType": "uint256",
          "name": "",
          "type": "uint256"
        }
      ],
      "stateMutability": "view",
      "type": "function"
    },
    {
      "inputs": [
        {
          "internalType": "address",
          "name": "factory",
          "type": "address"
        },
        {
          "internalType": "address",
          "name": "npm",
          "type": "address"
        },
        {
          "internalType": "address",
          "name": "rlpm",
          "type": "address"
        },
        {
          "internalType": "address",
          "name": "tos",
          "type": "address"
        },
        {
          "internalType": "address",
          "name": "dtos",
          "type": "address"
        },
        {
          "internalType": "address",
          "name": "policy",
          "type": "address"
        }
      ],
      "name": "changeInitializeAddress",
      "outputs": [],
      "stateMutability": "nonpayable",
      "type": "function"
    },
    {
      "inputs": [
        {
          "internalType": "uint256",
          "name": "principal",
          "type": "uint256"
        },
        {
          "internalType": "uint256",
          "name": "ratio",
          "type": "uint256"
        },
        {
          "internalType": "uint256",
          "name": "n",
          "type": "uint256"
        }
      ],
      "name": "compound",
      "outputs": [
        {
          "internalType": "uint256",
          "name": "",
          "type": "uint256"
        }
      ],
      "stateMutability": "pure",
      "type": "function"
    },
    {
      "inputs": [],
      "name": "currentSnapshotId",
      "outputs": [
        {
          "internalType": "uint256",
          "name": "",
          "type": "uint256"
        }
      ],
      "stateMutability": "view",
      "type": "function"
    },
    {
      "inputs": [],
      "name": "dTosBaseRate",
      "outputs": [
        {
          "internalType": "uint256",
          "name": "",
          "type": "uint256"
        }
      ],
      "stateMutability": "view",
      "type": "function"
    },
    {
      "inputs": [],
      "name": "decimals",
      "outputs": [
        {
          "internalType": "uint8",
          "name": "",
          "type": "uint8"
        }
      ],
      "stateMutability": "view",
      "type": "function"
    },
    {
      "inputs": [
        {
          "internalType": "address",
          "name": "account",
          "type": "address"
        }
      ],
      "name": "depositAmount",
      "outputs": [
        {
          "internalType": "uint256",
          "name": "",
          "type": "uint256"
        }
      ],
      "stateMutability": "view",
      "type": "function"
    },
    {
      "inputs": [
        {
          "internalType": "address",
          "name": "account",
          "type": "address"
        },
        {
          "internalType": "uint256",
          "name": "snapshotId",
          "type": "uint256"
        }
      ],
      "name": "depositAmountOfAt",
      "outputs": [
        {
          "internalType": "uint256",
          "name": "",
          "type": "uint256"
        }
      ],
      "stateMutability": "view",
      "type": "function"
    },
    {
      "inputs": [],
      "name": "dtosManagerAddress",
      "outputs": [
        {
          "internalType": "address",
          "name": "",
          "type": "address"
        }
      ],
      "stateMutability": "view",
      "type": "function"
    },
    {
      "inputs": [],
      "name": "dtosPolicy",
      "outputs": [
        {
          "internalType": "address",
          "name": "",
          "type": "address"
        }
      ],
      "stateMutability": "view",
      "type": "function"
    },
    {
      "inputs": [
        {
          "internalType": "uint256",
          "name": "tokenId",
          "type": "uint256"
        },
        {
          "internalType": "address",
          "name": "token0_",
          "type": "address"
        },
        {
          "internalType": "address",
          "name": "token1_",
          "type": "address"
        },
        {
          "internalType": "uint24",
          "name": "fee",
          "type": "uint24"
        }
      ],
      "name": "evaluateTOS",
      "outputs": [
        {
          "internalType": "uint256",
          "name": "tosAmount",
          "type": "uint256"
        }
      ],
      "stateMutability": "view",
      "type": "function"
    },
    {
      "inputs": [
        {
          "internalType": "bool",
          "name": "flag",
          "type": "bool"
        }
      ],
      "name": "execPause",
      "outputs": [],
      "stateMutability": "nonpayable",
      "type": "function"
    },
    {
      "inputs": [],
      "name": "execPauseFlag",
      "outputs": [
        {
          "internalType": "bool",
          "name": "",
          "type": "bool"
        }
      ],
      "stateMutability": "view",
      "type": "function"
    },
    {
      "inputs": [],
      "name": "getCurrentSnapshotId",
      "outputs": [
        {
          "internalType": "uint256",
          "name": "",
          "type": "uint256"
        }
      ],
      "stateMutability": "view",
      "type": "function"
    },
    {
      "inputs": [],
      "name": "getFactor",
      "outputs": [
        {
          "internalType": "uint256",
          "name": "f",
          "type": "uint256"
        }
      ],
      "stateMutability": "view",
      "type": "function"
    },
    {
      "inputs": [
        {
          "internalType": "uint256",
          "name": "id",
          "type": "uint256"
        }
      ],
      "name": "getFactorAt",
      "outputs": [
        {
          "internalType": "uint256",
          "name": "f",
          "type": "uint256"
        }
      ],
      "stateMutability": "view",
      "type": "function"
    },
    {
      "inputs": [
        {
          "internalType": "bytes32",
          "name": "role",
          "type": "bytes32"
        }
      ],
      "name": "getRoleAdmin",
      "outputs": [
        {
          "internalType": "bytes32",
          "name": "",
          "type": "bytes32"
        }
      ],
      "stateMutability": "view",
      "type": "function"
    },
    {
      "inputs": [],
      "name": "getTOSPricePerWETH",
      "outputs": [
        {
          "internalType": "uint256",
          "name": "",
          "type": "uint256"
        }
      ],
      "stateMutability": "view",
      "type": "function"
    },
    {
      "inputs": [
        {
          "internalType": "bytes32",
          "name": "role",
          "type": "bytes32"
        },
        {
          "internalType": "address",
          "name": "account",
          "type": "address"
        }
      ],
      "name": "grantRole",
      "outputs": [],
      "stateMutability": "nonpayable",
      "type": "function"
    },
    {
      "inputs": [
        {
          "internalType": "bytes32",
          "name": "role",
          "type": "bytes32"
        },
        {
          "internalType": "address",
          "name": "account",
          "type": "address"
        }
      ],
      "name": "hasRole",
      "outputs": [
        {
          "internalType": "bool",
          "name": "",
          "type": "bool"
        }
      ],
      "stateMutability": "view",
      "type": "function"
    },
    {
      "inputs": [],
      "name": "interestRatePerRebase",
      "outputs": [
        {
          "internalType": "uint256",
          "name": "",
          "type": "uint256"
        }
      ],
      "stateMutability": "view",
      "type": "function"
    },
    {
      "inputs": [
        {
          "internalType": "address",
          "name": "account",
          "type": "address"
        }
      ],
      "name": "isAdmin",
      "outputs": [
        {
          "internalType": "bool",
          "name": "",
          "type": "bool"
        }
      ],
      "stateMutability": "view",
      "type": "function"
    },
    {
      "inputs": [],
      "name": "lastRebaseTime",
      "outputs": [
        {
          "internalType": "uint256",
          "name": "",
          "type": "uint256"
        }
      ],
      "stateMutability": "view",
      "type": "function"
    },
    {
      "inputs": [],
      "name": "name",
      "outputs": [
        {
          "internalType": "string",
          "name": "",
          "type": "string"
        }
      ],
      "stateMutability": "view",
      "type": "function"
    },
    {
      "inputs": [],
      "name": "nonfungiblePositionManager",
      "outputs": [
        {
          "internalType": "contract INonfungiblePositionManager",
          "name": "",
          "type": "address"
        }
      ],
      "stateMutability": "view",
      "type": "function"
    },
    {
      "inputs": [
        {
          "internalType": "address",
          "name": "from",
          "type": "address"
        },
        {
          "internalType": "address",
          "name": "sender",
          "type": "address"
        },
        {
          "internalType": "uint256",
          "name": "tokenId",
          "type": "uint256"
        },
        {
          "internalType": "bytes",
          "name": "data",
          "type": "bytes"
        }
      ],
      "name": "onERC721Received",
      "outputs": [
        {
          "internalType": "bytes4",
          "name": "",
          "type": "bytes4"
        }
      ],
      "stateMutability": "nonpayable",
      "type": "function"
    },
    {
      "inputs": [],
      "name": "pool",
      "outputs": [
        {
          "internalType": "contract IUniswapV3Pool",
          "name": "",
          "type": "address"
        }
      ],
      "stateMutability": "view",
      "type": "function"
    },
    {
      "inputs": [
        {
          "internalType": "int128",
          "name": "x",
          "type": "int128"
        },
        {
          "internalType": "uint256",
          "name": "n",
          "type": "uint256"
        }
      ],
      "name": "pow",
      "outputs": [
        {
          "internalType": "int128",
          "name": "r",
          "type": "int128"
        }
      ],
      "stateMutability": "pure",
      "type": "function"
    },
    {
      "inputs": [],
      "name": "rebase",
      "outputs": [],
      "stateMutability": "nonpayable",
      "type": "function"
    },
    {
      "inputs": [],
      "name": "rebaseIntervalSecond",
      "outputs": [
        {
          "internalType": "uint256",
          "name": "",
          "type": "uint256"
        }
      ],
      "stateMutability": "view",
      "type": "function"
    },
    {
      "inputs": [
        {
          "internalType": "address",
          "name": "account",
          "type": "address"
        }
      ],
      "name": "removeAdmin",
      "outputs": [],
      "stateMutability": "nonpayable",
      "type": "function"
    },
    {
      "inputs": [
        {
          "internalType": "bytes32",
          "name": "role",
          "type": "bytes32"
        },
        {
          "internalType": "address",
          "name": "account",
          "type": "address"
        }
      ],
      "name": "renounceRole",
      "outputs": [],
      "stateMutability": "nonpayable",
      "type": "function"
    },
    {
      "inputs": [
        {
          "internalType": "bytes32",
          "name": "role",
          "type": "bytes32"
        },
        {
          "internalType": "address",
          "name": "account",
          "type": "address"
        }
      ],
      "name": "revokeRole",
      "outputs": [],
      "stateMutability": "nonpayable",
      "type": "function"
    },
    {
      "inputs": [],
      "name": "rewardLPTokenManager",
      "outputs": [
        {
          "internalType": "contract IRewardLPTokenManagerAction",
          "name": "",
          "type": "address"
        }
      ],
      "stateMutability": "view",
      "type": "function"
    },
    {
      "inputs": [
        {
          "internalType": "uint256",
          "name": "",
          "type": "uint256"
        }
      ],
      "name": "rewardLPs",
      "outputs": [
        {
          "internalType": "uint256",
          "name": "",
          "type": "uint256"
        }
      ],
      "stateMutability": "view",
      "type": "function"
    },
    {
      "inputs": [
        {
          "internalType": "uint256",
          "name": "_baseRates",
          "type": "uint256"
        }
      ],
      "name": "setDtosBaseRate",
      "outputs": [],
      "stateMutability": "nonpayable",
      "type": "function"
    },
    {
      "inputs": [
        {
          "internalType": "uint256",
          "name": "_period",
          "type": "uint256"
        },
        {
          "internalType": "uint256",
          "name": "_interest",
          "type": "uint256"
        }
      ],
      "name": "setRebaseInfo",
      "outputs": [],
      "stateMutability": "nonpayable",
      "type": "function"
    },
    {
      "inputs": [],
      "name": "snapshot",
      "outputs": [
        {
          "internalType": "uint256",
          "name": "",
          "type": "uint256"
        }
      ],
      "stateMutability": "nonpayable",
      "type": "function"
    },
    {
      "inputs": [
        {
          "internalType": "uint256",
          "name": "tokenId",
          "type": "uint256"
        }
      ],
      "name": "stake",
      "outputs": [],
      "stateMutability": "nonpayable",
      "type": "function"
    },
    {
      "inputs": [
        {
          "internalType": "bytes4",
          "name": "interfaceId",
          "type": "bytes4"
        }
      ],
      "name": "supportsInterface",
      "outputs": [
        {
          "internalType": "bool",
          "name": "",
          "type": "bool"
        }
      ],
      "stateMutability": "view",
      "type": "function"
    },
    {
      "inputs": [],
      "name": "symbol",
      "outputs": [
        {
          "internalType": "string",
          "name": "",
          "type": "string"
        }
      ],
      "stateMutability": "view",
      "type": "function"
    },
    {
      "inputs": [],
      "name": "token0",
      "outputs": [
        {
          "internalType": "address",
          "name": "",
          "type": "address"
        }
      ],
      "stateMutability": "view",
      "type": "function"
    },
    {
      "inputs": [],
      "name": "token1",
      "outputs": [
        {
          "internalType": "address",
          "name": "",
          "type": "address"
        }
      ],
      "stateMutability": "view",
      "type": "function"
    },
    {
      "inputs": [],
      "name": "tosAddress",
      "outputs": [
        {
          "internalType": "address",
          "name": "",
          "type": "address"
        }
      ],
      "stateMutability": "view",
      "type": "function"
    },
    {
      "inputs": [
        {
          "internalType": "uint256",
          "name": "_amount",
          "type": "uint256"
        }
      ],
      "name": "tosToDtosAmount",
      "outputs": [
        {
          "internalType": "uint256",
          "name": "",
          "type": "uint256"
        }
      ],
      "stateMutability": "view",
      "type": "function"
    },
    {
      "inputs": [],
      "name": "totalDepositAmount",
      "outputs": [
        {
          "internalType": "uint256",
          "name": "",
          "type": "uint256"
        }
      ],
      "stateMutability": "view",
      "type": "function"
    },
    {
      "inputs": [
        {
          "internalType": "uint256",
          "name": "snapshotId",
          "type": "uint256"
        }
      ],
      "name": "totalDepositAmountOfAt",
      "outputs": [
        {
          "internalType": "uint256",
          "name": "",
          "type": "uint256"
        }
      ],
      "stateMutability": "view",
      "type": "function"
    },
    {
      "inputs": [],
      "name": "totalSupply",
      "outputs": [
        {
          "internalType": "uint256",
          "name": "",
          "type": "uint256"
        }
      ],
      "stateMutability": "view",
      "type": "function"
    },
    {
      "inputs": [
        {
          "internalType": "uint256",
          "name": "snapshotId",
          "type": "uint256"
        }
      ],
      "name": "totalSupplyAt",
      "outputs": [
        {
          "internalType": "uint256",
          "name": "",
          "type": "uint256"
        }
      ],
      "stateMutability": "view",
      "type": "function"
    },
    {
      "inputs": [
        {
          "internalType": "address",
          "name": "newAdmin",
          "type": "address"
        }
      ],
      "name": "transferAdmin",
      "outputs": [],
      "stateMutability": "nonpayable",
      "type": "function"
    },
    {
      "inputs": [
        {
          "internalType": "address",
          "name": "from",
          "type": "address"
        },
        {
          "internalType": "address",
          "name": "to",
          "type": "address"
        },
        {
          "internalType": "uint256",
          "name": "tokenId",
          "type": "uint256"
        },
        {
          "internalType": "uint256",
          "name": "amount",
          "type": "uint256"
        },
        {
          "internalType": "uint256",
          "name": "factoredAmount",
          "type": "uint256"
        }
      ],
      "name": "transferFrom",
      "outputs": [],
      "stateMutability": "nonpayable",
      "type": "function"
    },
    {
      "inputs": [],
      "name": "uniswapV3Factory",
      "outputs": [
        {
          "internalType": "contract IUniswapV3Factory",
          "name": "",
          "type": "address"
        }
      ],
      "stateMutability": "view",
      "type": "function"
    },
    {
      "inputs": [
        {
          "internalType": "uint256",
          "name": "tokenId",
          "type": "uint256"
        }
      ],
      "name": "unstake",
      "outputs": [],
      "stateMutability": "nonpayable",
      "type": "function"
    }
  ],
  "bytecode": "0x60806040526002805460ff19166012179055670de0b6b3a764000060175534801561002957600080fd5b5061464a806100396000396000f3fe608060405234801561001057600080fd5b50600436106103995760003560e01c80636455ac50116101e9578063a155041f1161010f578063b44a2722116100ad578063d21220a71161007c578063d21220a7146107bd578063d547741f146107d0578063d96f4a8f146107e3578063f3c85eba146107f657600080fd5b8063b44a27221461077c578063c41ce85d1461078f578063c5408d50146107a2578063c7fb0393146107aa57600080fd5b8063a694fc3a116100e9578063a694fc3a14610728578063a803595e1461073b578063ae581bc21461074e578063af14052c1461077457600080fd5b8063a155041f1461070e578063a217fddf14610717578063a3db16a21461071f57600080fd5b80638bf91dc411610187578063970875ce11610156578063970875ce146106e25780639711715a146106eb578063981b24d0146106f35780639bde4ed21461070657600080fd5b80638bf91dc4146106ab5780639067a470146106b457806391d14854146106c757806395d89b41146106da57600080fd5b806370a08231116101c357806370a082311461065d57806375829def1461067057806375b238fc14610683578063842f4cb21461069857600080fd5b80636455ac501461061d578063658a75111461063d578063704802751461064a57600080fd5b8063248a9ca3116102ce5780634aed53c21161026c578063520194a61161023b578063520194a6146105dc5780635439ad86146105ef5780635a8adddc146105f75780635b5491821461060a57600080fd5b80634aed53c21461059b5780634ee2cd7e146105ae57806350f62da7146105c15780635184cc43146105d457600080fd5b80632f2ff15d116102a85780632f2ff15d14610543578063313ce5671461055657806336568abe146105755780633e28a5d21461058857600080fd5b8063248a9ca3146104fa57806324d7806c1461051d5780632e17de781461053057600080fd5b806316f0115b1161033b5780631924063e116103155780631924063e146104a45780631af7a9a2146104ad57806322985246146104c057806322d739a8146104e757600080fd5b806316f0115b1461046f5780631785f53c1461048757806318160ddd1461049c57600080fd5b806306fdde031161037757806306fdde03146103f05780630dfe1681146104055780631042f08d14610430578063150b7a021461044357600080fd5b806301ffc9a71461039e578063039bf30a146103c6578063063f21f5146103dd575b600080fd5b6103b16103ac366004613eaa565b610809565b60405190151581526020015b60405180910390f35b6103cf60145481565b6040519081526020016103bd565b6103cf6103eb366004613e63565b610840565b6103f8610863565b6040516103bd919061427b565b600354610418906001600160a01b031681565b6040516001600160a01b0390911681526020016103bd565b600554610418906001600160a01b031681565b610456610451366004613d32565b6108f1565b6040516001600160e01b031990911681526020016103bd565b6002546104189061010090046001600160a01b031681565b61049a610495366004613c79565b610a02565b005b6103cf610a42565b6103cf60165481565b61049a6104bb366004613e63565b610a55565b6103cf7ffb5864e8ff833c3cb2d2d08505e82ff02a43554c74a35d4f5a64e8526127831181565b600754610418906001600160a01b031681565b6103cf610508366004613e63565b60009081526019602052604090206001015490565b6103b161052b366004613c79565b610aef565b61049a61053e366004613e63565b610b09565b61049a610551366004613e7b565b610ba3565b6002546105639060ff1681565b60405160ff90911681526020016103bd565b61049a610583366004613e7b565b610bcd565b61049a610596366004613e47565b610c4b565b61049a6105a9366004613dcc565b610cfe565b6103cf6105bc366004613e1c565b610dfb565b6103cf6105cf366004613c79565b610ea0565b6103cf610eaf565b600a54610418906001600160a01b031681565b600b546103cf565b61049a61060536600461408c565b610ec4565b600854610418906001600160a01b031681565b6103cf61062b366004613e63565b60126020526000908152604090205481565b6018546103b19060ff1681565b61049a610658366004613c79565b610f84565b6103cf61066b366004613c79565b610fc1565b61049a61067e366004613c79565b610fd0565b6103cf6000805160206145d383398151915281565b61049a6106a6366004613cb1565b6110cd565b6103cf60175481565b6103cf6106c2366004613e63565b61131f565b6103b16106d5366004613e7b565b611350565b6103f861137b565b6103cf600b5481565b6103cf611388565b6103cf610701366004613e63565b611392565b6103cf61140e565b6103cf60135481565b6103cf600081565b6103cf60155481565b61049a610736366004613e63565b61169c565b600654610418906001600160a01b031681565b61076161075c366004613ed2565b6117fd565b604051600f9190910b81526020016103bd565b61049a61185a565b600954610418906001600160a01b031681565b6103cf61079d36600461403a565b611988565b6103cf612257565b6103cf6107b8366004613e63565b612265565b600454610418906001600160a01b031681565b61049a6107de366004613e7b565b612271565b6103cf6107f1366004613e1c565b612296565b6103cf6108043660046140d0565b6122e0565b60006001600160e01b03198216637965db0b60e01b148061083a57506301ffc9a760e01b6001600160e01b03198316145b92915050565b6000670de0b6b3a764000060135483610859919061448f565b61083a9190614390565b6000805461087090614508565b80601f016020809104026020016040519081016040528092919081815260200182805461089c90614508565b80156108e95780601f106108be576101008083540402835291602001916108e9565b820191906000526020600020905b8154815290600101906020018083116108cc57829003601f168201915b505050505081565b60185460009060ff16156109205760405162461bcd60e51b81526004016109179061432e565b60405180910390fd5b6009546001600160a01b0316331461098d5760405162461bcd60e51b815260206004820152602a60248201527f6f70657261746f72206973206e6f74206e6f6e66756e6769626c65506f73697460448201526934b7b726b0b730b3b2b960b11b6064820152608401610917565b6109c2604051806040016040528060138152602001726f6e455243373231526563656976656420257360681b81525085612318565b6109e66040518060600160405280602281526020016145f36022913987873361235d565b6109f086856123ac565b50630a85bd0160e11b95945050505050565b610a0b33610aef565b610a275760405162461bcd60e51b8152600401610917906142ec565b610a3f6000805160206145d383398151915282610bcd565b50565b6000610a50610701600b5490565b905090565b6006546001600160a01b03163314610aab5760405162461bcd60e51b815260206004820152601960248201527831b0b63632b91034b9903737ba10323a37b9a6b0b730b3b2b960391b6044820152606401610917565b806013541415610aea5760405162461bcd60e51b815260206004820152600a60248201526973616d652076616c756560b01b6044820152606401610917565b601355565b600061083a6000805160206145d383398151915283611350565b60185460ff1615610b2c5760405162461bcd60e51b81526004016109179061432e565b610b3633826127c9565b6009546040516323b872dd60e01b8152306004820152336024820152604481018390526001600160a01b03909116906323b872dd90606401600060405180830381600087803b158015610b8857600080fd5b505af1158015610b9c573d6000803e3d6000fd5b5050505050565b600082815260196020526040902060010154610bbe81612a68565b610bc88383612a72565b505050565b6001600160a01b0381163314610c3d5760405162461bcd60e51b815260206004820152602f60248201527f416363657373436f6e74726f6c3a2063616e206f6e6c792072656e6f756e636560448201526e103937b632b9903337b91039b2b63360891b6064820152608401610917565b610c478282612af8565b5050565b6007546001600160a01b03163314610ca55760405162461bcd60e51b815260206004820152601860248201527f63616c6c6572206973206e6f742064746f73506f6c69637900000000000000006044820152606401610917565b60185460ff1615158115151415610ceb5760405162461bcd60e51b815260206004820152600a60248201526973616d652076616c756560b01b6044820152606401610917565b6018805460ff1916911515919091179055565b60185460ff1615610d215760405162461bcd60e51b81526004016109179061432e565b600a546001600160a01b03163314610d875760405162461bcd60e51b815260206004820152602360248201527f73656e646572206973206e6f74207265776172644c50546f6b656e4d616e616760448201526232b91760e91b6064820152608401610917565b610d8f61185a565b610d9b85858484612b5f565b604080516001600160a01b0380881682528616602082015290810184905260608101839052608081018290527f6e5a38057baf9296321472dfcde2be37c0f493bb980fa364d836bc543a4e91419060a00160405180910390a15050505050565b600060135460001415610e105750600061083a565b6001600160a01b0383166000908152600c6020526040812081908190610e37908690612cde565b9250925092508215610e8d578015610e8157600080610e5587612e67565b915091508115610e7557610e698382612ef4565b9550505050505061083a565b610e6983601754612ef4565b6000935050505061083a565b610e9686610fc1565b935050505061083a565b600061083a826107f1600b5490565b600080610ebd600b54612e67565b9392505050565b6006546001600160a01b03163314610f1a5760405162461bcd60e51b815260206004820152601960248201527831b0b63632b91034b9903737ba10323a37b9a6b0b730b3b2b960391b6044820152606401610917565b81601554141580610f2d57508060145414155b610f795760405162461bcd60e51b815260206004820152601a60248201527f73616d652072656261736520706572696f64206f7220726174650000000000006044820152606401610917565b601591909155601455565b610f8d33610aef565b610fa95760405162461bcd60e51b8152600401610917906142ec565b610a3f6000805160206145d383398151915282610ba3565b600061083a826105bc600b5490565b610fd933610aef565b610ff55760405162461bcd60e51b8152600401610917906142ec565b6001600160a01b03811661104b5760405162461bcd60e51b815260206004820152601860248201527f41636365737369626c653a207a65726f206164647265737300000000000000006044820152606401610917565b336001600160a01b038216141561109d5760405162461bcd60e51b815260206004820152601660248201527520b1b1b2b9b9b4b136329d1039b0b6b29030b236b4b760511b6044820152606401610917565b6110b56000805160206145d383398151915282610ba3565b610a3f6000805160206145d383398151915233610bcd565b856001600160a01b0381166110f45760405162461bcd60e51b815260040161091790614352565b856001600160a01b03811661111b5760405162461bcd60e51b815260040161091790614352565b856001600160a01b0381166111425760405162461bcd60e51b815260040161091790614352565b856001600160a01b0381166111695760405162461bcd60e51b815260040161091790614352565b856001600160a01b0381166111905760405162461bcd60e51b815260040161091790614352565b856001600160a01b0381166111b75760405162461bcd60e51b815260040161091790614352565b6111c033610aef565b6111dc5760405162461bcd60e51b8152600401610917906142ec565b6008546001600160a01b038d8116911614158061120757506009546001600160a01b038c8116911614155b806112205750600a546001600160a01b038b8116911614155b8061123957506005546001600160a01b038a8116911614155b8061125257506006546001600160a01b03898116911614155b8061126b57506007546001600160a01b03888116911614155b6112aa5760405162461bcd60e51b815260206004820152601060248201526f73616d6520616c6c206164647265737360801b6044820152606401610917565b5050600880546001600160a01b03199081166001600160a01b039c8d16179091556009805482169a8c169a909a179099555050600a8054881696891696909617909555506005805486169387169390931790925560068054851691861691909117905560078054909316931692909217905550565b600080600061132f84600d612cde565b50915091508161134657611341612257565b611348565b805b949350505050565b60009182526019602090815260408084206001600160a01b0393909316845291905290205460ff1690565b6001805461087090614508565b6000610a50612f13565b6000601354600014156113a757506000919050565b6000806113b584600d612cde565b925050915081156114065780156113fc576000806113d286612e67565b9150915081156113f0576113e68382612ef4565b9695505050505050565b6113e683601754612ef4565b5060009392505050565b611348610a42565b60085460055460075460408051634f0e0ef360e01b8152905160009485946001600160a01b0391821694631698ee829491831693921691634f0e0ef391600480820192602092909190829003018186803b15801561146b57600080fd5b505afa15801561147f573d6000803e3d6000fd5b505050506040513d601f19601f820116820180604052508101906114a39190613c95565b6040516001600160e01b031960e085901b1681526001600160a01b03928316600482015291166024820152610bb8604482015260640160206040518083038186803b1580156114f157600080fd5b505afa158015611505573d6000803e3d6000fd5b505050506040513d601f19601f820116820180604052508101906115299190613c95565b9050600560009054906101000a90046001600160a01b03166001600160a01b0316816001600160a01b0316630dfe16816040518163ffffffff1660e01b815260040160206040518083038186803b15801561158357600080fd5b505afa158015611597573d6000803e3d6000fd5b505050506040513d601f19601f820116820180604052508101906115bb9190613c95565b6001600160a01b0316141561165c576040516324352c3560e11b81526001600160a01b038216600482015273__$a03916ed4f1788ba6e5ab73a2b1aa81c66$__9063486a586a906024015b60206040518083038186803b15801561161e57600080fd5b505af4158015611632573d6000803e3d6000fd5b505050506040513d601f19601f820116820180604052508101906116569190614022565b91505090565b604051630446db5d60e01b81526001600160a01b038216600482015273__$a03916ed4f1788ba6e5ab73a2b1aa81c66$__90630446db5d90602401611606565b60185460ff16156116bf5760405162461bcd60e51b81526004016109179061432e565b6009546040516331a9108f60e11b81526004810183905233916001600160a01b031690636352211e9060240160206040518083038186803b15801561170357600080fd5b505afa158015611717573d6000803e3d6000fd5b505050506040513d601f19601f8201168201806040525081019061173b9190613c95565b6001600160a01b0316146117895760405162461bcd60e51b81526020600482015260156024820152743a37b5b2b724b21034b9903737ba103cb7bab9399760591b6044820152606401610917565b6009546040516323b872dd60e01b8152336004820152306024820152604481018390526001600160a01b03909116906323b872dd90606401600060405180830381600087803b1580156117db57600080fd5b505af11580156117ef573d6000803e3d6000fd5b50505050610a3f33826123ac565b60006118096001612f6e565b90505b811561083a5761181d60028361455e565b600114156118435761182f8184612f8c565b905061183c6001836144ae565b915061180c565b61184d8384612f8c565b925061183c600283614390565b600060155411801561186e57506000601454115b156119865742600061187e610a42565b9050600060165460001480156118945750600082115b8061189d575081155b156118a9575050601655565b601654831180156118ba5750600082115b15610bc8576015546016546118cf90856144ae565b6118d99190614390565b90508015610bc85760006118eb610eaf565b905060006118fc84601454856122e0565b9050600061190b858385612fc3565b905061191681612fd8565b60168690557f1c5f76ee6d4a200763c92ee4aa5b497d5d0d283c449647a59866d47429eb5e1e83611945610eaf565b601654856119538a826144ae565b604080519586526020860194909452928401919091526060830152608082015260a0015b60405180910390a15050505050505b565b600080600760009054906101000a90046001600160a01b03166001600160a01b0316634f0e0ef36040518163ffffffff1660e01b815260040160206040518083038186803b1580156119d957600080fd5b505afa1580156119ed573d6000803e3d6000fd5b505050506040513d601f19601f82011682018060405250810190611a119190613c95565b600854604051630b4c774160e11b81526001600160a01b038881166004830152878116602483015262ffffff8716604483015292935060009290911690631698ee829060640160206040518083038186803b158015611a6f57600080fd5b505afa158015611a83573d6000803e3d6000fd5b505050506040513d601f19601f82011682018060405250810190611aa79190613c95565b90506000816001600160a01b0316630dfe16816040518163ffffffff1660e01b815260040160206040518083038186803b158015611ae457600080fd5b505afa158015611af8573d6000803e3d6000fd5b505050506040513d601f19601f82011682018060405250810190611b1c9190613c95565b90506000826001600160a01b031663d21220a76040518163ffffffff1660e01b815260040160206040518083038186803b158015611b5957600080fd5b505afa158015611b6d573d6000803e3d6000fd5b505050506040513d601f19601f82011682018060405250810190611b919190613c95565b60095460405163d20aecad60e01b81526001600160a01b0391821660048201529085166024820152604481018b9052909150600090819073__$a03916ed4f1788ba6e5ab73a2b1aa81c66$__9063d20aecad90606401604080518083038186803b158015611bfe57600080fd5b505af4158015611c12573d6000803e3d6000fd5b505050506040513d601f19601f82011682018060405250810190611c3691906140ad565b91509150856001600160a01b0316846001600160a01b03161480611c6b5750856001600160a01b0316836001600160a01b0316145b8015611c9e57506005546001600160a01b03858116911614801590611c9e57506005546001600160a01b03848116911614155b15611f99576000866001600160a01b0316856001600160a01b03161415611e0157611cc98382614378565b6040516324352c3560e11b81526001600160a01b038816600482015290915060009073__$a03916ed4f1788ba6e5ab73a2b1aa81c66$__9063486a586a9060240160206040518083038186803b158015611d2257600080fd5b505af4158015611d36573d6000803e3d6000fd5b505050506040513d601f19601f82011682018060405250810190611d5a9190614022565b90508015611dff57846001600160a01b031663313ce5676040518163ffffffff1660e01b815260040160206040518083038186803b158015611d9b57600080fd5b505afa158015611daf573d6000803e3d6000fd5b505050506040513d601f19601f82011682018060405250810190611dd39190614022565b611dde90600a6143e7565b611de8848361448f565b611df29190614390565b611dfc9083614378565b91505b505b866001600160a01b0316846001600160a01b03161415611f5d57611e258282614378565b604051630446db5d60e01b81526001600160a01b038816600482015290915060009073__$a03916ed4f1788ba6e5ab73a2b1aa81c66$__90630446db5d9060240160206040518083038186803b158015611e7e57600080fd5b505af4158015611e92573d6000803e3d6000fd5b505050506040513d601f19601f82011682018060405250810190611eb69190614022565b90508015611f5b57856001600160a01b031663313ce5676040518163ffffffff1660e01b815260040160206040518083038186803b158015611ef757600080fd5b505afa158015611f0b573d6000803e3d6000fd5b505050506040513d601f19601f82011682018060405250810190611f2f9190614022565b611f3a90600a6143e7565b611f44858361448f565b611f4e9190614390565b611f589083614378565b91505b505b6000611f6761140e565b9050670de0b6b3a7640000611f7c828461448f565b611f869190614390565b611f90908a614378565b98505050612249565b6005546001600160a01b03858116911614156120f157611fb98288614378565b6040516324352c3560e11b81526001600160a01b038716600482015290975060009073__$a03916ed4f1788ba6e5ab73a2b1aa81c66$__9063486a586a9060240160206040518083038186803b15801561201257600080fd5b505af4158015612026573d6000803e3d6000fd5b505050506040513d601f19601f8201168201806040525081019061204a9190614022565b905080156120ef57836001600160a01b031663313ce5676040518163ffffffff1660e01b815260040160206040518083038186803b15801561208b57600080fd5b505afa15801561209f573d6000803e3d6000fd5b505050506040513d601f19601f820116820180604052508101906120c39190614022565b6120ce90600a6143e7565b6120d8838361448f565b6120e29190614390565b6120ec9089614378565b97505b505b6005546001600160a01b0384811691161415612249576121118188614378565b604051630446db5d60e01b81526001600160a01b038716600482015290975060009073__$a03916ed4f1788ba6e5ab73a2b1aa81c66$__90630446db5d9060240160206040518083038186803b15801561216a57600080fd5b505af415801561217e573d6000803e3d6000fd5b505050506040513d601f19601f820116820180604052508101906121a29190614022565b9050801561224757846001600160a01b031663313ce5676040518163ffffffff1660e01b815260040160206040518083038186803b1580156121e357600080fd5b505afa1580156121f7573d6000803e3d6000fd5b505050506040513d601f19601f8201168201806040525081019061221b9190614022565b61222690600a6143e7565b612230848361448f565b61223a9190614390565b6122449089614378565b97505b505b505050505050949350505050565b6000610a506106c2600b5490565b60008061134883612e67565b60008281526019602052604090206001015461228c81612a68565b610bc88383612af8565b6001600160a01b0382166000908152600c60205260408120819081906122bd908590612cde565b5091509150816122d5576122d085610ea0565b6122d7565b805b95945050505050565b600061134861231261230c6122f56001612f6e565b61230787670de0b6b3a76400006130e2565b613119565b846117fd565b8561314c565b610c47828260405160240161232e9291906142ca565b60408051601f198184030181529190526020810180516001600160e01b0316632d839cb360e21b1790526131b4565b6123a684848484604051602401612377949392919061428e565b60408051601f198184030181529190526020810180516001600160e01b03166376c7947b60e11b1790526131b4565b50505050565b60095460405163133f757160e31b81526004810183905260009182918291829182916001600160a01b0316906399fbab88906024016101806040518083038186803b1580156123fa57600080fd5b505afa15801561240e573d6000803e3d6000fd5b505050506040513d601f19601f8201168201806040525081019061243291906140fb565b5050505097509750975050965096505050600360009054906101000a90046001600160a01b03166001600160a01b0316856001600160a01b031614801561248657506004546001600160a01b038581169116145b6124cb5760405162461bcd60e51b81526020600482015260166024820152753234b33332b932b73a103837b7b613b9903a37b5b2b760511b6044820152606401610917565b6000816001600160801b0316116125155760405162461bcd60e51b815260206004820152600e60248201526d7a65726f206c697175696469747960901b6044820152606401610917565b6000600260019054906101000a90046001600160a01b03166001600160a01b0316633850c7bd6040518163ffffffff1660e01b815260040160e06040518083038186803b15801561256557600080fd5b505afa158015612579573d6000803e3d6000fd5b505050506040513d601f19601f8201168201806040525081019061259d9190613f8f565b50505050509150508060020b8460020b1280156125bf57508260020b8160020b125b6125fa5760405162461bcd60e51b815260206004820152600c60248201526b6f7574206f662072616e676560a01b6044820152606401610917565b61260261185a565b6000612612888888610bb8611988565b9050600081116126585760405162461bcd60e51b8152602060048201526011602482015270746f73416d6f756e74206973207a65726f60781b6044820152606401610917565b600061266382610840565b9050600080612670610eaf565b905082156126855761268283826131bd565b91505b60065460405163bcee96af60e01b81526001600160a01b038e81166004830152602482018e90526044820187905260648201859052600092169063bcee96af90608401602060405180830381600087803b1580156126e257600080fd5b505af11580156126f6573d6000803e3d6000fd5b505050506040513d601f19601f8201168201806040525081019061271a9190614022565b60008d81526012602052604090208190559050841580159061273c5750600083115b1561274c5761274c8d86856131d2565b604080516001600160a01b038f168152602081018390529081018d9052606081018690526080810185905260a081018490526001600160801b03881660c08201527fc16be9a586414a157dd46b4d023aa9997a025dd1cbbaa67ac0c1b8273a5eaf559060e00160405180910390a150505050505050505050505050565b600081815260126020526040902054806128155760405162461bcd60e51b815260206004820152600d60248201526c1e995c9bc81c951bdad95b9259609a1b6044820152606401610917565b600a5460405163b6b55f2560e01b8152600481018390526000916001600160a01b03169063b6b55f259060240160e06040518083038186803b15801561285a57600080fd5b505afa15801561286e573d6000803e3d6000fd5b505050506040513d601f19601f820116820180604052508101906128929190613ef4565b80519091506001600160a01b031630146128e15760405162461bcd60e51b815260206004820152601060248201526f3737ba103837b7b613b9903a37b5b2b760811b6044820152606401610917565b836001600160a01b031681602001516001600160a01b0316146129325760405162461bcd60e51b81526020600482015260096024820152683737ba1037bbb732b960b91b6044820152606401610917565b828160400151146129765760405162461bcd60e51b815260206004820152600e60248201526d3737ba1039b0b6b2903a37b5b2b760911b6044820152606401610917565b600654604051630852cd8d60e31b8152600481018490526001600160a01b03909116906342966c6890602401600060405180830381600087803b1580156129bc57600080fd5b505af11580156129d0573d6000803e3d6000fd5b505050506129dc61185a565b6129ef8482606001518360c0015161325d565b60008381526012602090815260408083209290925560608381015160c085015184516001600160a01b038a16815293840188905293830152810191909152608081018390527fdcfd2b4017d03f7e541021db793b2f9b31e4acdee005f789e52853c390e3e9629060a0015b60405180910390a150505050565b610a3f813361339d565b612a7c8282611350565b610c475760008281526019602090815260408083206001600160a01b03851684529091529020805460ff19166001179055612ab43390565b6001600160a01b0316816001600160a01b0316837f2f8788117e7eff1d82e926ec794901d17c78024a50270940304540a733656f0d60405160405180910390a45050565b612b028282611350565b15610c475760008281526019602090815260408083206001600160a01b0385168085529252808320805460ff1916905551339285917ff6391f5c32d9c69d2a47ea670b442974b53935d1edc7fd64eb21e047a839171b9190a45050565b6001600160a01b03841615801590612b7f57506001600160a01b03831615155b612bcb5760405162461bcd60e51b815260206004820152601860248201527f526577617264506f6f6c3a207a65726f206164647265737300000000000000006044820152606401610917565b600082118015612bdb5750600081115b612c215760405162461bcd60e51b815260206004820152601760248201527614995dd85c99141bdbdb0e881e995c9bc8185b5bdd5b9d604a1b6044820152606401610917565b600080612c4d612c30600b5490565b6001600160a01b0388166000908152600c60205260409020612cde565b9250925050600080612c7e612c61600b5490565b6001600160a01b0389166000908152600c60205260409020612cde565b909350915086905080851015612c915750835b8580851015612c9d5750835b612cba8a612cab84896144ae565b612cb584896144ae565b6133f6565b612cd289612cc88487614378565b612cb58487614378565b50505050505050505050565b805460009081908190612cfa5750600191506000905080612e60565b84612d7f578354612d145750600191506000905080612e60565b600184600101600081548110612d3a57634e487b7160e01b600052603260045260246000fd5b906000526020600020015485600201600081548110612d6957634e487b7160e01b600052603260045260246000fd5b9060005260206000200154925092509250612e60565b600b54851115612dd15760405162461bcd60e51b815260206004820152601a60248201527f526577617264506f6f6c3a206e6f6e6578697374656e742069640000000000006044820152606401610917565b6000612ddd858761341a565b8554909150811415612dfa57600080600093509350935050612e60565b6001856001018281548110612e1f57634e487b7160e01b600052603260045260246000fd5b9060005260206000200154866002018381548110612e4d57634e487b7160e01b600052603260045260246000fd5b9060005260206000200154935093509350505b9250925092565b60008060108315801590612e7d5750600b548411155b15612ee5576000612e8e828661341a565b8254909150811415612eaa576000601754935093505050915091565b6001826001018281548110612ecf57634e487b7160e01b600052603260045260246000fd5b9060005260206000200154935093505050915091565b60006017549250925050915091565b6000670de0b6b3a7640000612f098484613552565b610ebd9190614390565b600080612f1f600b5490565b600b80549192506000612f3183614543565b90915550506040518181527f8030e83b04d87bef53480e26263266d6ca66863aa8506aca6f2559d18aa1cb679060200160405180910390a1919050565b6000677fffffffffffffff821115612f8557600080fd5b5060401b90565b6000600f83810b9083900b0260401d60016001607f1b03198112801590612fba575060016001607f1b038113155b610ebd57600080fd5b6000611348612fd284846135b9565b856135e9565b600b5460106000612fe88261360c565b905080831161307e576000612ffd838561341a565b8354909150158015906130105750825481105b1561304a578483600101828154811061303957634e487b7160e01b600052603260045260246000fd5b600091825260209091200155613078565b8254600181810185556000858152602080822090930187905581860180549283018155815291909120018590555b506130ac565b8154600181810184556000848152602080822090930186905581850180549283018155815291909120018490555b60408051858152602081018590527f0202b76648efde22c350469ae19824f4f1be22cf85797f2a2db5eb591a3bc1849101612a5a565b6000816130ee57600080fd5b60006130fa84846136a1565b905060016001607f1b036001600160801b0382161115610ebd57600080fd5b6000600f83810b9083900b0160016001607f1b03198112801590612fba575060016001607f1b03811315610ebd57600080fd5b60008161315b5750600061083a565b600083600f0b121561316c57600080fd5b600f83900b6001600160801b038316810260401c90608084901c026001600160c01b0381111561319b57600080fd5b60401b81198111156131ac57600080fd5b019392505050565b610a3f8161383b565b600081612f0984670de0b6b3a7640000613552565b6000806131fe6131e1600b5490565b6001600160a01b0387166000908152600c60205260409020612cde565b9250925050600080613219613212600b5490565b600d612cde565b925092505061323887878661322e9190614378565b612cb58887614378565b6132546132458784614378565b61324f8784614378565b61385c565b50505050505050565b6001600160a01b0383166132bf5760405162461bcd60e51b8152602060048201526024808201527f526577617264506f6f6c3a206275726e20746f20746865207a65726f206164646044820152637265737360e01b6064820152608401610917565b6000821180156132cf5750600081115b6133155760405162461bcd60e51b815260206004820152601760248201527614995dd85c99141bdbdb0e881e995c9bc8185b5bdd5b9d604a1b6044820152606401610917565b6000806133246131e1600b5490565b9250925050600080613338613212600b5490565b90935091508690508085101561334b5750835b808310156133565750815b85808510156133625750835b8083101561336d5750815b61337b89612cab84896144ae565b61339261338883866144ae565b61324f83866144ae565b505050505050505050565b6133a78282611350565b610c47576133b48161386a565b6133bf83602061387c565b6040516020016133d0929190614206565b60408051601f198184030181529082905262461bcd60e51b82526109179160040161427b565b6001600160a01b0383166000908152600c60205260409020610bc890848484613a5e565b815460009061342b5750600061083a565b8254839061343b906001906144ae565b8154811061345957634e487b7160e01b600052603260045260246000fd5b9060005260206000200154821061347f578254613478906001906144ae565b905061083a565b826000815481106134a057634e487b7160e01b600052603260045260246000fd5b90600052602060002001548210156134ba5750600061083a565b825460009081906134cd906001906144ae565b90505b8181111561354a57600060026134e68484614378565b6134f1906001614378565b6134fb9190614390565b90508486828154811061351e57634e487b7160e01b600052603260045260246000fd5b90600052602060002001541161353657809250613544565b6135416001826144ae565b91505b506134d0565b509392505050565b600081158061357657508282613568818361448f565b92506135749083614390565b145b61083a5760405162461bcd60e51b815260206004820152601460248201527364732d6d6174682d6d756c2d6f766572666c6f7760601b6044820152606401610917565b6000670de0b6b3a7640000612f096135d18585613552565b6135e46002670de0b6b3a7640000614390565b613bd3565b600081612f0961360185670de0b6b3a7640000613552565b6135e4600286614390565b60408051808201909152601d81527f5f6c617374536e617073686f744964206964732e6c656e6774682025730000006020820152815460009161364e91612318565b815461365c57506000919050565b8154829061366c906001906144ae565b8154811061368a57634e487b7160e01b600052603260045260246000fd5b90600052602060002001549050919050565b919050565b6000816136ad57600080fd5b60006001600160c01b0384116136e65782604085901b816136de57634e487b7160e01b600052601260045260246000fd5b049050613827565b60c084811c64010000000081106136ff576020918201911c5b620100008110613711576010918201911c5b6101008110613722576008918201911c5b60108110613732576004918201911c5b60048110613742576002918201911c5b60028110613751576001820191505b60bf820360018603901c6001018260ff0387901b8161378057634e487b7160e01b600052601260045260246000fd5b0492506001600160801b0383111561379757600080fd5b608085901c83026001600160801b038616840260c088901c604089901b828110156137c3576001820391505b608084901b929003828110156137da576001820391505b829003608084901c82146137fe57634e487b7160e01b600052600160045260246000fd5b88818161381b57634e487b7160e01b600052601260045260246000fd5b04870196505050505050505b6001600160801b03811115610ebd57600080fd5b60006a636f6e736f6c652e6c6f679050600080835160208501845afa505050565b610c47600d60008484613a5e565b606061083a6001600160a01b03831660145b6060600061388b83600261448f565b613896906002614378565b67ffffffffffffffff8111156138bc57634e487b7160e01b600052604160045260246000fd5b6040519080825280601f01601f1916602001820160405280156138e6576020820181803683370190505b509050600360fc1b8160008151811061390f57634e487b7160e01b600052603260045260246000fd5b60200101906001600160f81b031916908160001a905350600f60fb1b8160018151811061394c57634e487b7160e01b600052603260045260246000fd5b60200101906001600160f81b031916908160001a905350600061397084600261448f565b61397b906001614378565b90505b6001811115613a0f576f181899199a1a9b1b9c1cb0b131b232b360811b85600f16601081106139bd57634e487b7160e01b600052603260045260246000fd5b1a60f81b8282815181106139e157634e487b7160e01b600052603260045260246000fd5b60200101906001600160f81b031916908160001a90535060049490941c93613a08816144f1565b905061397e565b508315610ebd5760405162461bcd60e51b815260206004820181905260248201527f537472696e67733a20686578206c656e67746820696e73756666696369656e746044820152606401610917565b600b546000613a6c8661360c565b9050808211613b49576000613a81878461341a565b875490915015801590613a945750865481105b15613b005784876001018281548110613abd57634e487b7160e01b600052603260045260246000fd5b906000526020600020018190555083876002018281548110613aef57634e487b7160e01b600052603260045260246000fd5b600091825260209091200155613b43565b86546001818101895560008981526020808220909301869055818a01805480840182559082528382200188905560028a0180549283018155815291909120018490555b50613b8c565b8554600181810188556000888152602080822090930185905581890180548084018255908252838220018790556002890180549283018155815291909120018390555b604080516001600160a01b0387168152602081018690529081018490527ff86c9ef367dff1116511f7cc40a71ba6c866b8c31f5644d8bd519b00764cb36890606001611977565b600082613be08382614378565b915081101561083a5760405162461bcd60e51b815260206004820152601460248201527364732d6d6174682d6164642d6f766572666c6f7760601b6044820152606401610917565b805161369c8161459e565b8051600281900b811461369c57600080fd5b80516001600160801b038116811461369c57600080fd5b805161ffff8116811461369c57600080fd5b805161369c816145c1565b600060208284031215613c8a578081fd5b8135610ebd8161459e565b600060208284031215613ca6578081fd5b8151610ebd8161459e565b60008060008060008060c08789031215613cc9578182fd5b8635613cd48161459e565b95506020870135613ce48161459e565b94506040870135613cf48161459e565b93506060870135613d048161459e565b92506080870135613d148161459e565b915060a0870135613d248161459e565b809150509295509295509295565b600080600080600060808688031215613d49578081fd5b8535613d548161459e565b94506020860135613d648161459e565b935060408601359250606086013567ffffffffffffffff80821115613d87578283fd5b818801915088601f830112613d9a578283fd5b813581811115613da8578384fd5b896020828501011115613db9578384fd5b9699959850939650602001949392505050565b600080600080600060a08688031215613de3578081fd5b8535613dee8161459e565b94506020860135613dfe8161459e565b94979496505050506040830135926060810135926080909101359150565b60008060408385031215613e2e578182fd5b8235613e398161459e565b946020939093013593505050565b600060208284031215613e58578081fd5b8135610ebd816145b3565b600060208284031215613e74578081fd5b5035919050565b60008060408385031215613e8d578182fd5b823591506020830135613e9f8161459e565b809150509250929050565b600060208284031215613ebb578081fd5b81356001600160e01b031981168114610ebd578182fd5b60008060408385031215613ee4578182fd5b823580600f0b8114613e39578283fd5b600060e08284031215613f05578081fd5b60405160e0810181811067ffffffffffffffff82111715613f3457634e487b7160e01b83526041600452602483fd5b604052613f4083613c28565b8152613f4e60208401613c28565b602082015260408301516040820152606083015160608201526080830151608082015260a083015160a082015260c083015160c08201528091505092915050565b600080600080600080600060e0888a031215613fa9578485fd5b8751613fb48161459e565b9650613fc260208901613c33565b9550613fd060408901613c5c565b9450613fde60608901613c5c565b9350613fec60808901613c5c565b925060a088015160ff81168114614001578182fd5b60c0890151909250614012816145b3565b8091505092959891949750929550565b600060208284031215614033578081fd5b5051919050565b6000806000806080858703121561404f578182fd5b8435935060208501356140618161459e565b925060408501356140718161459e565b91506060850135614081816145c1565b939692955090935050565b6000806040838503121561409e578182fd5b50508035926020909101359150565b600080604083850312156140bf578182fd5b505080516020909101519092909150565b6000806000606084860312156140e4578081fd5b505081359360208301359350604090920135919050565b6000806000806000806000806000806000806101808d8f03121561411d578586fd5b8c516bffffffffffffffffffffffff81168114614138578687fd5b9b5061414660208e01613c28565b9a5061415460408e01613c28565b995061416260608e01613c28565b985061417060808e01613c6e565b975061417e60a08e01613c33565b965061418c60c08e01613c33565b955061419a60e08e01613c45565b94506101008d015193506101208d015192506141b96101408e01613c45565b91506141c86101608e01613c45565b90509295989b509295989b509295989b565b600081518084526141f28160208601602086016144c5565b601f01601f19169290920160200192915050565b7f416363657373436f6e74726f6c3a206163636f756e742000000000000000000081526000835161423e8160178501602088016144c5565b7001034b99036b4b9b9b4b733903937b6329607d1b601791840191820152835161426f8160288401602088016144c5565b01602801949350505050565b602081526000610ebd60208301846141da565b6080815260006142a160808301876141da565b6001600160a01b0395861660208401529385166040830152509216606090920191909152919050565b6040815260006142dd60408301856141da565b90508260208301529392505050565b60208082526022908201527f41636365737369626c653a2043616c6c6572206973206e6f7420616e2061646d60408201526134b760f11b606082015260800190565b6020808252600a90820152696578656320706175736560b01b604082015260600190565b6020808252600c908201526b7a65726f206164647265737360a01b604082015260600190565b6000821982111561438b5761438b614572565b500190565b60008261439f5761439f614588565b500490565b600181815b808511156143df5781600019048211156143c5576143c5614572565b808516156143d257918102915b93841c93908002906143a9565b509250929050565b6000610ebd83836000826143fd5750600161083a565b8161440a5750600061083a565b8160018114614420576002811461442a57614446565b600191505061083a565b60ff84111561443b5761443b614572565b50506001821b61083a565b5060208310610133831016604e8410600b8410161715614469575081810a61083a565b61447383836143a4565b806000190482111561448757614487614572565b029392505050565b60008160001904831182151516156144a9576144a9614572565b500290565b6000828210156144c0576144c0614572565b500390565b60005b838110156144e05781810151838201526020016144c8565b838111156123a65750506000910152565b60008161450057614500614572565b506000190190565b600181811c9082168061451c57607f821691505b6020821081141561453d57634e487b7160e01b600052602260045260246000fd5b50919050565b600060001982141561455757614557614572565b5060010190565b60008261456d5761456d614588565b500690565b634e487b7160e01b600052601160045260246000fd5b634e487b7160e01b600052601260045260246000fd5b6001600160a01b0381168114610a3f57600080fd5b8015158114610a3f57600080fd5b62ffffff81168114610a3f57600080fdfedf8b4c520ffe197c5343c6f5aec59570151ef9a492f2c624fd45ddde6135ec4266726f6d2025732c2073656e6465722025732c206d73672e73656e64657220257320a26469706673582212207a0bad6adf82dc07aca67ea2f7e48643b862ba7673dd74f3e224a60889fd9bbe64736f6c63430008040033",
  "linkReferences": {
    "contracts/libraries/TOSEvaluator.sol": {
      "TOSEvaluator": [
        {
          "length": 20,
          "start": 5665
        },
        {
          "length": 20,
          "start": 5811
        },
        {
          "length": 20,
          "start": 7171
        },
        {
          "length": 20,
          "start": 7462
        },
        {
          "length": 20,
          "start": 7810
        },
        {
          "length": 20,
          "start": 8214
        },
        {
          "length": 20,
          "start": 8558
        }
      ]
    }
  },
  "deployedLinkReferences": {
    "contracts/libraries/TOSEvaluator.sol": {
      "TOSEvaluator": [
        {
          "length": 20,
          "start": 5608
        },
        {
          "length": 20,
          "start": 5754
        },
        {
          "length": 20,
          "start": 7114
        },
        {
          "length": 20,
          "start": 7405
        },
        {
          "length": 20,
          "start": 7753
        },
        {
          "length": 20,
          "start": 8157
        },
        {
          "length": 20,
          "start": 8501
        }
      ]
    }
  }
}