{
  "_format": "hh-sol-artifact-1",
  "contractName": "LibStaking",
  "sourceName": "contracts/libraries/LibStaking.sol",
  "abi": [
    {
      "inputs": [
        {
          "internalType": "uint256",
          "name": "principal",
          "type": "uint256"
        },
        {
          "internalType": "uint256",
          "name": "ratio",
          "type": "uint256"
        },
        {
          "internalType": "uint256",
          "name": "n",
          "type": "uint256"
        }
      ],
      "name": "compound",
      "outputs": [
        {
          "internalType": "uint256",
          "name": "",
          "type": "uint256"
        }
      ],
      "stateMutability": "pure",
      "type": "function"
    },
    {
      "inputs": [
        {
          "internalType": "int128",
          "name": "x",
          "type": "int128"
        },
        {
          "internalType": "uint256",
          "name": "n",
          "type": "uint256"
        }
      ],
      "name": "pow",
      "outputs": [
        {
          "internalType": "int128",
          "name": "r",
          "type": "int128"
        }
      ],
      "stateMutability": "pure",
      "type": "function"
    }
  ],
  "bytecode": "0x6104ee61003a600b82828239805160001a60731461002d57634e487b7160e01b600052600060045260246000fd5b30600052607381538281f3fe73000000000000000000000000000000000000000030146080604052600436106100405760003560e01c8063ae581bc214610045578063f3c85eba14610070575b600080fd5b6100586100533660046103fc565b610091565b604051600f9190910b81526020015b60405180910390f35b61008361007e36600461042c565b6100f4565b604051908152602001610067565b600061009d6001610134565b90505b81156100ee576100b160028361048e565b600114156100d7576100c38184610152565b90506100d060018361046b565b91506100a0565b6100e18384610152565b92506100d0600283610457565b92915050565b600061012c6101266101206101096001610134565b61011b87670de0b6b3a7640000610190565b6101c7565b84610091565b856101fa565b949350505050565b6000677fffffffffffffff82111561014b57600080fd5b5060401b90565b6000600f83810b9083900b0260401d60016001607f1b03198112801590610180575060016001607f1b038113155b61018957600080fd5b9392505050565b60008161019c57600080fd5b60006101a88484610262565b905060016001607f1b036001600160801b038216111561018957600080fd5b6000600f83810b9083900b0160016001607f1b03198112801590610180575060016001607f1b0381131561018957600080fd5b600081610209575060006100ee565b600083600f0b121561021a57600080fd5b600f83900b6001600160801b038316810260401c90608084901c026001600160c01b0381111561024957600080fd5b60401b811981111561025a57600080fd5b019392505050565b60008161026e57600080fd5b60006001600160c01b0384116102a75782604085901b8161029f57634e487b7160e01b600052601260045260246000fd5b0490506103e8565b60c084811c64010000000081106102c0576020918201911c5b6201000081106102d2576010918201911c5b61010081106102e3576008918201911c5b601081106102f3576004918201911c5b60048110610303576002918201911c5b60028110610312576001820191505b60bf820360018603901c6001018260ff0387901b8161034157634e487b7160e01b600052601260045260246000fd5b0492506001600160801b0383111561035857600080fd5b608085901c83026001600160801b038616840260c088901c604089901b82811015610384576001820391505b608084901b9290038281101561039b576001820391505b829003608084901c82146103bf57634e487b7160e01b600052600160045260246000fd5b8881816103dc57634e487b7160e01b600052601260045260246000fd5b04870196505050505050505b6001600160801b0381111561018957600080fd5b6000806040838503121561040e578182fd5b823580600f0b811461041e578283fd5b946020939093013593505050565b600080600060608486031215610440578081fd5b505081359360208301359350604090920135919050565b600082610466576104666104a2565b500490565b60008282101561048957634e487b7160e01b81526011600452602481fd5b500390565b60008261049d5761049d6104a2565b500690565b634e487b7160e01b600052601260045260246000fdfea2646970667358221220780da30a1108fba3040f9a2c297ba5f7d7603c1d7977144fee034f7a15affca664736f6c63430008040033",
  "linkReferences": {},
  "deployedLinkReferences": {}
}