{
  "_format": "hh-sol-artifact-1",
  "contractName": "StakingV2Proxy",
  "sourceName": "contracts/StakingV2Proxy.sol",
  "abi": [
    {
      "anonymous": false,
      "inputs": [
        {
          "indexed": true,
          "internalType": "bytes32",
          "name": "role",
          "type": "bytes32"
        },
        {
          "indexed": true,
          "internalType": "bytes32",
          "name": "previousAdminRole",
          "type": "bytes32"
        },
        {
          "indexed": true,
          "internalType": "bytes32",
          "name": "newAdminRole",
          "type": "bytes32"
        }
      ],
      "name": "RoleAdminChanged",
      "type": "event"
    },
    {
      "anonymous": false,
      "inputs": [
        {
          "indexed": true,
          "internalType": "bytes32",
          "name": "role",
          "type": "bytes32"
        },
        {
          "indexed": true,
          "internalType": "address",
          "name": "account",
          "type": "address"
        },
        {
          "indexed": true,
          "internalType": "address",
          "name": "sender",
          "type": "address"
        }
      ],
      "name": "RoleGranted",
      "type": "event"
    },
    {
      "anonymous": false,
      "inputs": [
        {
          "indexed": true,
          "internalType": "bytes32",
          "name": "role",
          "type": "bytes32"
        },
        {
          "indexed": true,
          "internalType": "address",
          "name": "account",
          "type": "address"
        },
        {
          "indexed": true,
          "internalType": "address",
          "name": "sender",
          "type": "address"
        }
      ],
      "name": "RoleRevoked",
      "type": "event"
    },
    {
      "anonymous": false,
      "inputs": [
        {
          "indexed": true,
          "internalType": "address",
          "name": "impl",
          "type": "address"
        },
        {
          "indexed": false,
          "internalType": "bool",
          "name": "alive",
          "type": "bool"
        }
      ],
      "name": "SetAliveImplementation",
      "type": "event"
    },
    {
      "anonymous": false,
      "inputs": [
        {
          "indexed": true,
          "internalType": "bytes4",
          "name": "selector",
          "type": "bytes4"
        },
        {
          "indexed": true,
          "internalType": "address",
          "name": "impl",
          "type": "address"
        }
      ],
      "name": "SetSelectorImplementation",
      "type": "event"
    },
    {
      "anonymous": false,
      "inputs": [
        {
          "indexed": true,
          "internalType": "address",
          "name": "implementation",
          "type": "address"
        }
      ],
      "name": "Upgraded",
      "type": "event"
    },
    {
      "stateMutability": "payable",
      "type": "fallback"
    },
    {
      "inputs": [],
      "name": "ADMIN_ROLE",
      "outputs": [
        {
          "internalType": "bytes32",
          "name": "",
          "type": "bytes32"
        }
      ],
      "stateMutability": "view",
      "type": "function"
    },
    {
      "inputs": [],
      "name": "DEFAULT_ADMIN_ROLE",
      "outputs": [
        {
          "internalType": "bytes32",
          "name": "",
          "type": "bytes32"
        }
      ],
      "stateMutability": "view",
      "type": "function"
    },
    {
      "inputs": [],
      "name": "POLICY_ROLE",
      "outputs": [
        {
          "internalType": "bytes32",
          "name": "",
          "type": "bytes32"
        }
      ],
      "stateMutability": "view",
      "type": "function"
    },
    {
      "inputs": [
        {
          "internalType": "address",
          "name": "account",
          "type": "address"
        }
      ],
      "name": "addAdmin",
      "outputs": [],
      "stateMutability": "nonpayable",
      "type": "function"
    },
    {
      "inputs": [
        {
          "internalType": "address",
          "name": "_account",
          "type": "address"
        }
      ],
      "name": "addPolicy",
      "outputs": [],
      "stateMutability": "nonpayable",
      "type": "function"
    },
    {
      "inputs": [
        {
          "internalType": "address",
          "name": "_owner",
          "type": "address"
        }
      ],
      "name": "addProxyAdmin",
      "outputs": [],
      "stateMutability": "nonpayable",
      "type": "function"
    },
    {
      "inputs": [
        {
          "internalType": "address",
          "name": "",
          "type": "address"
        }
      ],
      "name": "aliveImplementation",
      "outputs": [
        {
          "internalType": "bool",
          "name": "",
          "type": "bool"
        }
      ],
      "stateMutability": "view",
      "type": "function"
    },
    {
      "inputs": [
        {
          "internalType": "uint256",
          "name": "",
          "type": "uint256"
        }
      ],
      "name": "allStakings",
      "outputs": [
        {
          "internalType": "address",
          "name": "staker",
          "type": "address"
        },
        {
          "internalType": "uint256",
          "name": "deposit",
          "type": "uint256"
        },
        {
          "internalType": "uint256",
          "name": "ltos",
          "type": "uint256"
        },
        {
          "internalType": "uint256",
          "name": "endTime",
          "type": "uint256"
        },
        {
          "internalType": "uint256",
          "name": "marketId",
          "type": "uint256"
        }
      ],
      "stateMutability": "view",
      "type": "function"
    },
    {
      "inputs": [],
      "name": "basicBondPeriod",
      "outputs": [
        {
          "internalType": "uint256",
          "name": "",
          "type": "uint256"
        }
      ],
      "stateMutability": "view",
      "type": "function"
    },
    {
      "inputs": [
        {
          "internalType": "uint256",
          "name": "",
          "type": "uint256"
        }
      ],
      "name": "connectId",
      "outputs": [
        {
          "internalType": "uint256",
          "name": "",
          "type": "uint256"
        }
      ],
      "stateMutability": "view",
      "type": "function"
    },
    {
      "inputs": [
        {
          "internalType": "address",
          "name": "_account",
          "type": "address"
        }
      ],
      "name": "deletePolicy",
      "outputs": [],
      "stateMutability": "nonpayable",
      "type": "function"
    },
    {
      "inputs": [],
      "name": "epoch",
      "outputs": [
        {
          "internalType": "uint256",
          "name": "length_",
          "type": "uint256"
        },
        {
          "internalType": "uint256",
          "name": "end",
          "type": "uint256"
        }
      ],
      "stateMutability": "view",
      "type": "function"
    },
    {
      "inputs": [
        {
          "internalType": "bytes32",
          "name": "role",
          "type": "bytes32"
        }
      ],
      "name": "getRoleAdmin",
      "outputs": [
        {
          "internalType": "bytes32",
          "name": "",
          "type": "bytes32"
        }
      ],
      "stateMutability": "view",
      "type": "function"
    },
    {
      "inputs": [
        {
          "internalType": "bytes4",
          "name": "_selector",
          "type": "bytes4"
        }
      ],
      "name": "getSelectorImplementation2",
      "outputs": [
        {
          "internalType": "address",
          "name": "impl",
          "type": "address"
        }
      ],
      "stateMutability": "view",
      "type": "function"
    },
    {
      "inputs": [
        {
          "internalType": "bytes32",
          "name": "role",
          "type": "bytes32"
        },
        {
          "internalType": "address",
          "name": "account",
          "type": "address"
        }
      ],
      "name": "grantRole",
      "outputs": [],
      "stateMutability": "nonpayable",
      "type": "function"
    },
    {
      "inputs": [
        {
          "internalType": "bytes32",
          "name": "role",
          "type": "bytes32"
        },
        {
          "internalType": "address",
          "name": "account",
          "type": "address"
        }
      ],
      "name": "hasRole",
      "outputs": [
        {
          "internalType": "bool",
          "name": "",
          "type": "bool"
        }
      ],
      "stateMutability": "view",
      "type": "function"
    },
    {
      "inputs": [],
      "name": "implementation",
      "outputs": [
        {
          "internalType": "address",
          "name": "",
          "type": "address"
        }
      ],
      "stateMutability": "view",
      "type": "function"
    },
    {
      "inputs": [
        {
          "internalType": "uint256",
          "name": "_index",
          "type": "uint256"
        }
      ],
      "name": "implementation2",
      "outputs": [
        {
          "internalType": "address",
          "name": "",
          "type": "address"
        }
      ],
      "stateMutability": "view",
      "type": "function"
    },
    {
      "inputs": [],
      "name": "index_",
      "outputs": [
        {
          "internalType": "uint256",
          "name": "",
          "type": "uint256"
        }
      ],
      "stateMutability": "view",
      "type": "function"
    },
    {
      "inputs": [
        {
          "internalType": "address",
          "name": "_tos",
          "type": "address"
        },
        {
          "internalType": "uint256[2]",
          "name": "_epoch",
          "type": "uint256[2]"
        },
        {
          "internalType": "address",
          "name": "_lockTOS",
          "type": "address"
        },
        {
          "internalType": "address",
          "name": "_treasury",
          "type": "address"
        },
        {
          "internalType": "uint256",
          "name": "_basicBondPeriod",
          "type": "uint256"
        }
      ],
      "name": "initialize",
      "outputs": [],
      "stateMutability": "nonpayable",
      "type": "function"
    },
    {
      "inputs": [
        {
          "internalType": "address",
          "name": "account",
          "type": "address"
        }
      ],
      "name": "isAdmin",
      "outputs": [
        {
          "internalType": "bool",
          "name": "",
          "type": "bool"
        }
      ],
      "stateMutability": "view",
      "type": "function"
    },
    {
      "inputs": [
        {
          "internalType": "address",
          "name": "account",
          "type": "address"
        }
      ],
      "name": "isPolicy",
      "outputs": [
        {
          "internalType": "bool",
          "name": "",
          "type": "bool"
        }
      ],
      "stateMutability": "view",
      "type": "function"
    },
    {
      "inputs": [
        {
          "internalType": "address",
          "name": "account",
          "type": "address"
        }
      ],
      "name": "isProxyAdmin",
      "outputs": [
        {
          "internalType": "bool",
          "name": "",
          "type": "bool"
        }
      ],
      "stateMutability": "view",
      "type": "function"
    },
    {
      "inputs": [],
      "name": "isTreasury",
      "outputs": [
        {
          "internalType": "bool",
          "name": "",
          "type": "bool"
        }
      ],
      "stateMutability": "pure",
      "type": "function"
    },
    {
      "inputs": [],
      "name": "lockTOS",
      "outputs": [
        {
          "internalType": "address",
          "name": "",
          "type": "address"
        }
      ],
      "stateMutability": "view",
      "type": "function"
    },
    {
      "inputs": [],
      "name": "marketIdCounter",
      "outputs": [
        {
          "internalType": "uint256",
          "name": "",
          "type": "uint256"
        }
      ],
      "stateMutability": "view",
      "type": "function"
    },
    {
      "inputs": [],
      "name": "pauseProxy",
      "outputs": [
        {
          "internalType": "bool",
          "name": "",
          "type": "bool"
        }
      ],
      "stateMutability": "view",
      "type": "function"
    },
    {
      "inputs": [
        {
          "internalType": "uint256",
          "name": "",
          "type": "uint256"
        }
      ],
      "name": "proxyImplementation",
      "outputs": [
        {
          "internalType": "address",
          "name": "",
          "type": "address"
        }
      ],
      "stateMutability": "view",
      "type": "function"
    },
    {
      "inputs": [],
      "name": "rebasePerEpoch",
      "outputs": [
        {
          "internalType": "uint256",
          "name": "",
          "type": "uint256"
        }
      ],
      "stateMutability": "view",
      "type": "function"
    },
    {
      "inputs": [],
      "name": "removeAdmin",
      "outputs": [],
      "stateMutability": "nonpayable",
      "type": "function"
    },
    {
      "inputs": [],
      "name": "removePolicy",
      "outputs": [],
      "stateMutability": "nonpayable",
      "type": "function"
    },
    {
      "inputs": [],
      "name": "removeProxyAdmin",
      "outputs": [],
      "stateMutability": "nonpayable",
      "type": "function"
    },
    {
      "inputs": [
        {
          "internalType": "bytes32",
          "name": "role",
          "type": "bytes32"
        },
        {
          "internalType": "address",
          "name": "account",
          "type": "address"
        }
      ],
      "name": "renounceRole",
      "outputs": [],
      "stateMutability": "nonpayable",
      "type": "function"
    },
    {
      "inputs": [
        {
          "internalType": "bytes32",
          "name": "role",
          "type": "bytes32"
        },
        {
          "internalType": "address",
          "name": "account",
          "type": "address"
        }
      ],
      "name": "revokeRole",
      "outputs": [],
      "stateMutability": "nonpayable",
      "type": "function"
    },
    {
      "inputs": [
        {
          "internalType": "bytes4",
          "name": "",
          "type": "bytes4"
        }
      ],
      "name": "selectorImplementation",
      "outputs": [
        {
          "internalType": "address",
          "name": "",
          "type": "address"
        }
      ],
      "stateMutability": "view",
      "type": "function"
    },
    {
      "inputs": [
        {
          "internalType": "address",
          "name": "newImplementation",
          "type": "address"
        },
        {
          "internalType": "bool",
          "name": "_alive",
          "type": "bool"
        }
      ],
      "name": "setAliveImplementation2",
      "outputs": [],
      "stateMutability": "nonpayable",
      "type": "function"
    },
    {
      "inputs": [
        {
          "internalType": "address",
          "name": "newImplementation",
          "type": "address"
        },
        {
          "internalType": "uint256",
          "name": "_index",
          "type": "uint256"
        },
        {
          "internalType": "bool",
          "name": "_alive",
          "type": "bool"
        }
      ],
      "name": "setImplementation2",
      "outputs": [],
      "stateMutability": "nonpayable",
      "type": "function"
    },
    {
      "inputs": [
        {
          "internalType": "bool",
          "name": "_pause",
          "type": "bool"
        }
      ],
      "name": "setProxyPause",
      "outputs": [],
      "stateMutability": "nonpayable",
      "type": "function"
    },
    {
      "inputs": [
        {
          "internalType": "bytes4[]",
          "name": "_selectors",
          "type": "bytes4[]"
        },
        {
          "internalType": "address",
          "name": "_imp",
          "type": "address"
        }
      ],
      "name": "setSelectorImplementations2",
      "outputs": [],
      "stateMutability": "nonpayable",
      "type": "function"
    },
    {
      "inputs": [],
      "name": "stakingIdCounter",
      "outputs": [
        {
          "internalType": "uint256",
          "name": "",
          "type": "uint256"
        }
      ],
      "stateMutability": "view",
      "type": "function"
    },
    {
      "inputs": [],
      "name": "stakingPrincipal",
      "outputs": [
        {
          "internalType": "uint256",
          "name": "",
          "type": "uint256"
        }
      ],
      "stateMutability": "view",
      "type": "function"
    },
    {
      "inputs": [
        {
          "internalType": "bytes4",
          "name": "interfaceId",
          "type": "bytes4"
        }
      ],
      "name": "supportsInterface",
      "outputs": [
        {
          "internalType": "bool",
          "name": "",
          "type": "bool"
        }
      ],
      "stateMutability": "view",
      "type": "function"
    },
    {
      "inputs": [],
      "name": "tos",
      "outputs": [
        {
          "internalType": "contract IERC20",
          "name": "",
          "type": "address"
        }
      ],
      "stateMutability": "view",
      "type": "function"
    },
    {
      "inputs": [],
      "name": "totalLtos",
      "outputs": [
        {
          "internalType": "uint256",
          "name": "",
          "type": "uint256"
        }
      ],
      "stateMutability": "view",
      "type": "function"
    },
    {
      "inputs": [
        {
          "internalType": "address",
          "name": "newAdmin",
          "type": "address"
        }
      ],
      "name": "transferAdmin",
      "outputs": [],
      "stateMutability": "nonpayable",
      "type": "function"
    },
    {
      "inputs": [
        {
          "internalType": "address",
          "name": "newAdmin",
          "type": "address"
        }
      ],
      "name": "transferProxyAdmin",
      "outputs": [],
      "stateMutability": "nonpayable",
      "type": "function"
    },
    {
      "inputs": [],
      "name": "treasury",
      "outputs": [
        {
          "internalType": "address",
          "name": "",
          "type": "address"
        }
      ],
      "stateMutability": "view",
      "type": "function"
    },
    {
      "inputs": [
        {
          "internalType": "address",
          "name": "impl",
          "type": "address"
        }
      ],
      "name": "upgradeTo",
      "outputs": [],
      "stateMutability": "nonpayable",
      "type": "function"
    },
    {
      "inputs": [
        {
          "internalType": "address",
          "name": "",
          "type": "address"
        },
        {
          "internalType": "uint256",
          "name": "",
          "type": "uint256"
        }
      ],
      "name": "userStakingIndex",
      "outputs": [
        {
          "internalType": "uint256",
          "name": "",
          "type": "uint256"
        }
      ],
      "stateMutability": "view",
      "type": "function"
    },
    {
      "inputs": [
        {
          "internalType": "address",
          "name": "",
          "type": "address"
        },
        {
          "internalType": "uint256",
          "name": "",
          "type": "uint256"
        }
      ],
      "name": "userStakings",
      "outputs": [
        {
          "internalType": "uint256",
          "name": "",
          "type": "uint256"
        }
      ],
      "stateMutability": "view",
      "type": "function"
    },
    {
      "stateMutability": "payable",
      "type": "receive"
    }
  ],
  "bytecode": "0x608060405260016006553480156200001657600080fd5b5062000032600080516020620023268339815191528062000060565b6200004d6000805160206200232683398151915233620000ab565b6200005a600033620000ab565b6200015f565b600082815260116020526040808220600101805490849055905190918391839186917fbd79b86ffe0ab8e8776151514217cd7cacd52c909f66475c3af44e129f0b00ff9190a4505050565b620000b78282620000bb565b5050565b60008281526011602090815260408083206001600160a01b038516845290915290205460ff16620000b75760008281526011602090815260408083206001600160a01b03851684529091529020805460ff191660011790556200011b3390565b6001600160a01b0316816001600160a01b0316837f2f8788117e7eff1d82e926ec794901d17c78024a50270940304540a733656f0d60405160405180910390a45050565b6121b7806200016f6000396000f3fe6080604052600436106102cd5760003560e01c806375829def1161017557806396f1557c116100dc578063b84ef08111610095578063d547741f1161006f578063d547741f14610a46578063f47f2f1d14610a66578063f558138214610a86578063fad1c85c14610a9c576103bc565b8063b84ef081146109db578063b911135f146109fb578063be72f2d314610a31576103bc565b806396f1557c146109165780639a202d47146109365780639e9e792f1461094b578063a052e69e14610978578063a217fddf1461098e578063a7110dc3146109a3576103bc565b8063842a3bdd1161012e578063842a3bdd1461085257806389f395de146108665780638b8f4a65146108865780638d4fdb40146108a6578063900cf0cf146108c657806391d14854146108f6576103bc565b806375829def1461079a57806375b238fc146107ba57806378ad1405146107dc5780637cb00d25146107f25780637cd5f663146108125780638356ca4f14610832576103bc565b806350d2a276116102345780635dc3c29a116101ed57806363a8fd89116101c757806363a8fd891461073557806365cb3a831461074f5780636d1c789f14610764578063704802751461077a576103bc565b80635dc3c29a1461066f5780635fabdf7c146106f557806361d027b314610715576103bc565b806350d2a2761461057f578063550d01a3146105b55780635720bf3a146105e55780635746248f146105fb5780635c60da1b1461061b5780635cc797d81461064f576103bc565b80632f2ff15d116102865780632f2ff15d146104b157806336568abe146104d15780633659cfe6146104f1578063385030b4146105115780634a5df50f146105275780634e6c446614610547576103bc565b806301ffc9a7146103c657806308eed550146103fb5780630e1e998f1461041b578063229852461461043f578063248a9ca31461046157806324d7806c14610491576103bc565b366103bc5760408051600481526024810182526020810180516001600160e01b031663842a3bdd60e01b179052905160009182913091839161030f9190611ed5565b60006040518083038185875af1925050503d806000811461034c576040519150601f19603f3d011682016040523d82523d6000602084013e610351565b606091505b509150915060008180602001905181019061036c9190611e4e565b9050806103b75760405162461bcd60e51b815260206004820152601460248201527331b0b73737ba103932b1b2b4bb329022ba3432b960611b60448201526064015b60405180910390fd5b505050005b6103c4610abc565b005b3480156103d257600080fd5b506103e66103e1366004611ead565b610b65565b60405190151581526020015b60405180910390f35b34801561040757600080fd5b506103c4610416366004611c59565b610b9c565b34801561042757600080fd5b50610431600b5481565b6040519081526020016103f2565b34801561044b57600080fd5b5061043160008051602061214283398151915281565b34801561046d57600080fd5b5061043161047c366004611e6a565b60009081526011602052604090206001015490565b34801561049d57600080fd5b506103e66104ac366004611c3f565b610d91565b3480156104bd57600080fd5b506103c46104cc366004611e82565b610dab565b3480156104dd57600080fd5b506103c46104ec366004611e82565b610dd0565b3480156104fd57600080fd5b506103c461050c366004611c3f565b610e4e565b34801561051d57600080fd5b50610431600a5481565b34801561053357600080fd5b506103c4610542366004611db3565b610f5d565b34801561055357600080fd5b50600354610567906001600160a01b031681565b6040516001600160a01b0390911681526020016103f2565b34801561058b57600080fd5b5061056761059a366004611ead565b6015602052600090815260409020546001600160a01b031681565b3480156105c157600080fd5b506103e66105d0366004611c3f565b60146020526000908152604090205460ff1681565b3480156105f157600080fd5b5061043160095481565b34801561060757600080fd5b50610431610616366004611d4b565b6111ea565b34801561062757600080fd5b50600080526013602052600080516020612162833981519152546001600160a01b0316610567565b34801561065b57600080fd5b506103c461066a366004611d15565b61121b565b34801561067b57600080fd5b506106c361068a366004611e6a565b600f60205260009081526040902080546001820154600283015460038401546004909401546001600160a01b0390931693919290919085565b604080516001600160a01b0390961686526020860194909452928401919091526060830152608082015260a0016103f2565b34801561070157600080fd5b506103c4610710366004611c3f565b61124a565b34801561072157600080fd5b50600454610567906001600160a01b031681565b34801561074157600080fd5b506012546103e69060ff1681565b34801561075b57600080fd5b506103c461128a565b34801561077057600080fd5b50610431600c5481565b34801561078657600080fd5b506103c4610795366004611c3f565b61130b565b3480156107a657600080fd5b506103c46107b5366004611c3f565b611348565b3480156107c657600080fd5b5061043160008051602061212283398151915281565b3480156107e857600080fd5b5061043160055481565b3480156107fe57600080fd5b506103c461080d366004611e32565b61144f565b34801561081e57600080fd5b506103c461082d366004611d74565b611487565b34801561083e57600080fd5b506103c461084d366004611c3f565b6114b7565b34801561085e57600080fd5b5060006103e6565b34801561087257600080fd5b50600254610567906001600160a01b031681565b34801561089257600080fd5b506105676108a1366004611e6a565b611595565b3480156108b257600080fd5b506105676108c1366004611ead565b6115b2565b3480156108d257600080fd5b506000546001546108e1919082565b604080519283526020830191909152016103f2565b34801561090257600080fd5b506103e6610911366004611e82565b61168a565b34801561092257600080fd5b506103c4610931366004611c3f565b6116b5565b34801561094257600080fd5b506103c46116e5565b34801561095757600080fd5b50610431610966366004611e6a565b60106020526000908152604090205481565b34801561098457600080fd5b5061043160085481565b34801561099a57600080fd5b50610431600081565b3480156109af57600080fd5b506104316109be366004611d4b565b600e60209081526000928352604080842090915290825290205481565b3480156109e757600080fd5b506103c46109f6366004611c3f565b611731565b348015610a0757600080fd5b50610567610a16366004611e6a565b6013602052600090815260409020546001600160a01b031681565b348015610a3d57600080fd5b506103c461176e565b348015610a5257600080fd5b506103c4610a61366004611e82565b61179e565b348015610a7257600080fd5b506103e6610a81366004611c3f565b6117c3565b348015610a9257600080fd5b5061043160075481565b348015610aa857600080fd5b506103e6610ab7366004611c3f565b6117cf565b6000610ad36000356001600160e01b0319166115b2565b90506001600160a01b03811615801590610af0575060125460ff16155b610b3c5760405162461bcd60e51b815260206004820152601d60248201527f50726f78793a20696d706c204f522070726f78792069732066616c736500000060448201526064016103ae565b3660008037600080366000845af43d6000803e808015610b5b573d6000f35b3d6000fd5b505050565b60006001600160e01b03198216637965db0b60e01b1480610b9657506301ffc9a760e01b6001600160e01b03198316145b92915050565b610ba5336117c3565b610bc15760405162461bcd60e51b81526004016103ae90611fdb565b846001600160a01b038116610be85760405162461bcd60e51b81526004016103ae90612023565b836001600160a01b038116610c0f5760405162461bcd60e51b81526004016103ae90612023565b836001600160a01b038116610c365760405162461bcd60e51b81526004016103ae90612023565b8380610c7b5760405162461bcd60e51b81526020600482015260146024820152735374616b696e673a207a65726f2076616c6c756560601b60448201526064016103ae565b875115801590610c8e5750602088015115155b610ccd5760405162461bcd60e51b815260206004820152601060248201526f7a65726f2065706f63682076616c756560801b60448201526064016103ae565b6002546001600160a01b031615610d1d5760405162461bcd60e51b815260206004820152601460248201527330b63932b0b23c9034b734ba34b0b634bd32b21760611b60448201526064016103ae565b5050600280546001600160a01b03199081166001600160a01b03998a1617909155600380548216968916969096179095555050600480549093169190941617905560408051808201909152815180825260209283015192909101829052600055600155600a55670de0b6b3a7640000600555565b6000610b966000805160206121228339815191528361168a565b600082815260116020526040902060010154610dc6816117e9565b610b6083836117f3565b6001600160a01b0381163314610e405760405162461bcd60e51b815260206004820152602f60248201527f416363657373436f6e74726f6c3a2063616e206f6e6c792072656e6f756e636560448201526e103937b632b9903337b91039b2b63360891b60648201526084016103ae565b610e4a8282611879565b5050565b610e57336117c3565b610e735760405162461bcd60e51b81526004016103ae90611fdb565b6001600160a01b038116610eb95760405162461bcd60e51b815260206004820152600d60248201526c696e707574206973207a65726f60981b60448201526064016103ae565b600080526013602052600080516020612162833981519152546001600160a01b0382811691161415610f195760405162461bcd60e51b815260206004820152600960248201526839b0b6b29030b2323960b91b60448201526064016103ae565b610f2681600060016118e0565b6040516001600160a01b038216907fbc7cd75a20ee27fd9adebab32041f755214dbc6bffa90cc0225b39da2e5c2d3b90600090a250565b610f66336117c3565b610f825760405162461bcd60e51b81526004016103ae90611fdb565b81610fcf5760405162461bcd60e51b815260206004820181905260248201527f50726f78793a205f73656c6563746f727327732073697a65206973207a65726f60448201526064016103ae565b6001600160a01b03811660009081526014602052604090205460ff166110375760405162461bcd60e51b815260206004820152601860248201527f50726f78793a205f696d70206973206e6f7420616c697665000000000000000060448201526064016103ae565b60005b828110156111e457816001600160a01b03166015600086868581811061107057634e487b7160e01b600052603260045260246000fd5b90506020020160208101906110859190611ead565b6001600160e01b03191681526020810191909152604001600020546001600160a01b031614156110f75760405162461bcd60e51b815260206004820152601d60248201527f4c69717569646974795661756c7450726f78793a2073616d6520696d7000000060448201526064016103ae565b816015600086868581811061111c57634e487b7160e01b600052603260045260246000fd5b90506020020160208101906111319190611ead565b6001600160e01b0319168152602081019190915260400160002080546001600160a01b0319166001600160a01b03928316179055821684848381811061118757634e487b7160e01b600052603260045260246000fd5b905060200201602081019061119c9190611ead565b6001600160e01b0319167f14ebc1c32aa68f4d766e89f3e546cee249f7df25183fc10ab1568d91c2ce9b7b60405160405180910390a3806111dc816120cc565b91505061103a565b50505050565b600d602052816000526040600020818154811061120657600080fd5b90600052602060002001600091509150505481565b611224336117c3565b6112405760405162461bcd60e51b81526004016103ae90611fdb565b610e4a828261196b565b611253336117c3565b61126f5760405162461bcd60e51b81526004016103ae90611fdb565b6112876000805160206121428339815191528261179e565b50565b611293336117cf565b6112f15760405162461bcd60e51b815260206004820152602960248201527f41636365737369626c653a2043616c6c6572206973206e6f7420616e20706f6c60448201526834b1bc9030b236b4b760b91b60648201526084016103ae565b61130960008051602061214283398151915233610dd0565b565b611314336117c3565b6113305760405162461bcd60e51b81526004016103ae90611fdb565b61128760008051602061212283398151915282610dab565b61135133610d91565b806113605750611360336117c3565b61137c5760405162461bcd60e51b81526004016103ae90611f99565b6001600160a01b0381166113cd5760405162461bcd60e51b815260206004820152601860248201527741636365737369626c653a207a65726f206164647265737360401b60448201526064016103ae565b336001600160a01b038216141561141f5760405162461bcd60e51b815260206004820152601660248201527520b1b1b2b9b9b4b136329d1039b0b6b29030b236b4b760511b60448201526064016103ae565b61143760008051602061212283398151915282610dab565b61128760008051602061212283398151915233610dd0565b611458336117c3565b6114745760405162461bcd60e51b81526004016103ae90611fdb565b6012805460ff1916911515919091179055565b611490336117c3565b6114ac5760405162461bcd60e51b81526004016103ae90611fdb565b610b608383836118e0565b6114c0336117c3565b6114dc5760405162461bcd60e51b81526004016103ae90611fdb565b6001600160a01b03811661152d5760405162461bcd60e51b815260206004820152601860248201527741636365737369626c653a207a65726f206164647265737360401b60448201526064016103ae565b336001600160a01b038216141561157f5760405162461bcd60e51b815260206004820152601660248201527520b1b1b2b9b9b4b136329d1039b0b6b29030b236b4b760511b60448201526064016103ae565b61158a600082610dab565b611287600033610dd0565b6000818152601360205260408120546001600160a01b0316610b96565b6001600160e01b031981166000908152601560205260408120546001600160a01b0316611600575050600080526013602052600080516020612162833981519152546001600160a01b031690565b6001600160e01b031982166000908152601560209081526040808320546001600160a01b03168352601490915290205460ff161561165e57506001600160e01b0319166000908152601560205260409020546001600160a01b031690565b5050600080526013602052600080516020612162833981519152546001600160a01b031690565b919050565b60009182526011602090815260408084206001600160a01b0393909316845291905290205460ff1690565b6116be336117c3565b6116da5760405162461bcd60e51b81526004016103ae90611fdb565b6112876000826119ca565b6116ee33610d91565b806116fd57506116fd336117c3565b6117195760405162461bcd60e51b81526004016103ae90611f99565b61130960008051602061212283398151915233610dd0565b61173a336117c3565b6117565760405162461bcd60e51b81526004016103ae90611fdb565b61128760008051602061214283398151915282610dab565b611777336117c3565b6117935760405162461bcd60e51b81526004016103ae90611fdb565b611309600033610dd0565b6000828152601160205260409020600101546117b9816117e9565b610b608383611879565b6000610b96818361168a565b6000610b966000805160206121428339815191528361168a565b61128781336119d4565b6117fd828261168a565b610e4a5760008281526011602090815260408083206001600160a01b03851684529091529020805460ff191660011790556118353390565b6001600160a01b0316816001600160a01b0316837f2f8788117e7eff1d82e926ec794901d17c78024a50270940304540a733656f0d60405160405180910390a45050565b611883828261168a565b15610e4a5760008281526011602090815260408083206001600160a01b0385168085529252808320805460ff1916905551339285917ff6391f5c32d9c69d2a47ea670b442974b53935d1edc7fd64eb21e047a839171b9190a45050565b6001600160a01b0383163b6119375760405162461bcd60e51b815260206004820152601b60248201527f50726f78793a206e6f7420636f6e74726163742061646472657373000000000060448201526064016103ae565b801561196557600082815260136020526040902080546001600160a01b0319166001600160a01b0385161790555b610b6083825b6001600160a01b038216600081815260146020908152604091829020805460ff191685151590811790915591519182527f72558d9bfba4210f9ef095c782589484151f6d90f7a81bb3cb9b33efc695d324910160405180910390a25050565b610e4a82826117f3565b6119de828261168a565b610e4a576119eb81611a2d565b6119f6836020611a3f565b604051602001611a07929190611ef1565b60408051601f198184030181529082905262461bcd60e51b82526103ae91600401611f66565b6060610b966001600160a01b03831660145b60606000611a4e83600261206a565b611a59906002612052565b67ffffffffffffffff811115611a7f57634e487b7160e01b600052604160045260246000fd5b6040519080825280601f01601f191660200182016040528015611aa9576020820181803683370190505b509050600360fc1b81600081518110611ad257634e487b7160e01b600052603260045260246000fd5b60200101906001600160f81b031916908160001a905350600f60fb1b81600181518110611b0f57634e487b7160e01b600052603260045260246000fd5b60200101906001600160f81b031916908160001a9053506000611b3384600261206a565b611b3e906001612052565b90505b6001811115611bd2576f181899199a1a9b1b9c1cb0b131b232b360811b85600f1660108110611b8057634e487b7160e01b600052603260045260246000fd5b1a60f81b828281518110611ba457634e487b7160e01b600052603260045260246000fd5b60200101906001600160f81b031916908160001a90535060049490941c93611bcb816120b5565b9050611b41565b508315611c215760405162461bcd60e51b815260206004820181905260248201527f537472696e67733a20686578206c656e67746820696e73756666696369656e7460448201526064016103ae565b9392505050565b80356001600160a01b038116811461168557600080fd5b600060208284031215611c50578081fd5b611c2182611c28565b600080600080600060c08688031215611c70578081fd5b611c7986611c28565b9450602087603f880112611c8b578182fd5b6040516040810181811067ffffffffffffffff82111715611cae57611cae6120fd565b6040528088830160608a018b811115611cc5578586fd5b855b6002811015611ce457823584529285019291850191600101611cc7565b50839850611cf181611c28565b97505050505050611d0460808701611c28565b9497939650919460a0013592915050565b60008060408385031215611d27578182fd5b611d3083611c28565b91506020830135611d4081612113565b809150509250929050565b60008060408385031215611d5d578182fd5b611d6683611c28565b946020939093013593505050565b600080600060608486031215611d88578283fd5b611d9184611c28565b9250602084013591506040840135611da881612113565b809150509250925092565b600080600060408486031215611dc7578283fd5b833567ffffffffffffffff80821115611dde578485fd5b818601915086601f830112611df1578485fd5b813581811115611dff578586fd5b8760208260051b8501011115611e13578586fd5b602092830195509350611e299186019050611c28565b90509250925092565b600060208284031215611e43578081fd5b8135611c2181612113565b600060208284031215611e5f578081fd5b8151611c2181612113565b600060208284031215611e7b578081fd5b5035919050565b60008060408385031215611e94578182fd5b82359150611ea460208401611c28565b90509250929050565b600060208284031215611ebe578081fd5b81356001600160e01b031981168114611c21578182fd5b60008251611ee7818460208701612089565b9190910192915050565b7f416363657373436f6e74726f6c3a206163636f756e7420000000000000000000815260008351611f29816017850160208801612089565b7001034b99036b4b9b9b4b733903937b6329607d1b6017918401918201528351611f5a816028840160208801612089565b01602801949350505050565b6020815260008251806020840152611f85816040850160208701612089565b601f01601f19169190910160400192915050565b60208082526022908201527f41636365737369626c653a2043616c6c6572206973206e6f7420616e2061646d60408201526134b760f11b606082015260800190565b60208082526028908201527f41636365737369626c653a2043616c6c6572206973206e6f7420616e2070726f6040820152673c3c9030b236b4b760c11b606082015260800190565b6020808252601590820152745374616b696e673a207a65726f206164647265737360581b604082015260600190565b60008219821115612065576120656120e7565b500190565b6000816000190483118215151615612084576120846120e7565b500290565b60005b838110156120a457818101518382015260200161208c565b838111156111e45750506000910152565b6000816120c4576120c46120e7565b506000190190565b60006000198214156120e0576120e06120e7565b5060010190565b634e487b7160e01b600052601160045260246000fd5b634e487b7160e01b600052604160045260246000fd5b801515811461128757600080fdfedf8b4c520ffe197c5343c6f5aec59570151ef9a492f2c624fd45ddde6135ec42fb5864e8ff833c3cb2d2d08505e82ff02a43554c74a35d4f5a64e852612783118fa6efc3be94b5b348b21fea823fe8d100408cee9b7f90524494500445d8ff6ca2646970667358221220d5771a95eb7ee51b1a081a5a938c2f4c48d376314fde9a5000b5585f242d666a64736f6c63430008040033df8b4c520ffe197c5343c6f5aec59570151ef9a492f2c624fd45ddde6135ec42",
  "linkReferences": {},
  "deployedLinkReferences": {}
}