{
  "_format": "hh-sol-artifact-1",
  "contractName": "BondDepositoryProxy",
  "sourceName": "contracts/BondDepositoryProxy.sol",
  "abi": [
    {
      "anonymous": false,
      "inputs": [
        {
          "indexed": true,
          "internalType": "bytes32",
          "name": "role",
          "type": "bytes32"
        },
        {
          "indexed": true,
          "internalType": "bytes32",
          "name": "previousAdminRole",
          "type": "bytes32"
        },
        {
          "indexed": true,
          "internalType": "bytes32",
          "name": "newAdminRole",
          "type": "bytes32"
        }
      ],
      "name": "RoleAdminChanged",
      "type": "event"
    },
    {
      "anonymous": false,
      "inputs": [
        {
          "indexed": true,
          "internalType": "bytes32",
          "name": "role",
          "type": "bytes32"
        },
        {
          "indexed": true,
          "internalType": "address",
          "name": "account",
          "type": "address"
        },
        {
          "indexed": true,
          "internalType": "address",
          "name": "sender",
          "type": "address"
        }
      ],
      "name": "RoleGranted",
      "type": "event"
    },
    {
      "anonymous": false,
      "inputs": [
        {
          "indexed": true,
          "internalType": "bytes32",
          "name": "role",
          "type": "bytes32"
        },
        {
          "indexed": true,
          "internalType": "address",
          "name": "account",
          "type": "address"
        },
        {
          "indexed": true,
          "internalType": "address",
          "name": "sender",
          "type": "address"
        }
      ],
      "name": "RoleRevoked",
      "type": "event"
    },
    {
      "anonymous": false,
      "inputs": [
        {
          "indexed": true,
          "internalType": "address",
          "name": "impl",
          "type": "address"
        },
        {
          "indexed": false,
          "internalType": "bool",
          "name": "alive",
          "type": "bool"
        }
      ],
      "name": "SetAliveImplementation",
      "type": "event"
    },
    {
      "anonymous": false,
      "inputs": [
        {
          "indexed": true,
          "internalType": "bytes4",
          "name": "selector",
          "type": "bytes4"
        },
        {
          "indexed": true,
          "internalType": "address",
          "name": "impl",
          "type": "address"
        }
      ],
      "name": "SetSelectorImplementation",
      "type": "event"
    },
    {
      "anonymous": false,
      "inputs": [
        {
          "indexed": true,
          "internalType": "address",
          "name": "implementation",
          "type": "address"
        }
      ],
      "name": "Upgraded",
      "type": "event"
    },
    {
      "stateMutability": "payable",
      "type": "fallback"
    },
    {
      "inputs": [],
      "name": "ADMIN_ROLE",
      "outputs": [
        {
          "internalType": "bytes32",
          "name": "",
          "type": "bytes32"
        }
      ],
      "stateMutability": "view",
      "type": "function"
    },
    {
      "inputs": [],
      "name": "DEFAULT_ADMIN_ROLE",
      "outputs": [
        {
          "internalType": "bytes32",
          "name": "",
          "type": "bytes32"
        }
      ],
      "stateMutability": "view",
      "type": "function"
    },
    {
      "inputs": [],
      "name": "POLICY_ROLE",
      "outputs": [
        {
          "internalType": "bytes32",
          "name": "",
          "type": "bytes32"
        }
      ],
      "stateMutability": "view",
      "type": "function"
    },
    {
      "inputs": [
        {
          "internalType": "address",
          "name": "account",
          "type": "address"
        }
      ],
      "name": "addAdmin",
      "outputs": [],
      "stateMutability": "nonpayable",
      "type": "function"
    },
    {
      "inputs": [
        {
          "internalType": "address",
          "name": "_account",
          "type": "address"
        }
      ],
      "name": "addPolicy",
      "outputs": [],
      "stateMutability": "nonpayable",
      "type": "function"
    },
    {
      "inputs": [
        {
          "internalType": "address",
          "name": "_owner",
          "type": "address"
        }
      ],
      "name": "addProxyAdmin",
      "outputs": [],
      "stateMutability": "nonpayable",
      "type": "function"
    },
    {
      "inputs": [
        {
          "internalType": "address",
          "name": "",
          "type": "address"
        }
      ],
      "name": "aliveImplementation",
      "outputs": [
        {
          "internalType": "bool",
          "name": "",
          "type": "bool"
        }
      ],
      "stateMutability": "view",
      "type": "function"
    },
    {
      "inputs": [],
      "name": "calculator",
      "outputs": [
        {
          "internalType": "address",
          "name": "",
          "type": "address"
        }
      ],
      "stateMutability": "view",
      "type": "function"
    },
    {
      "inputs": [
        {
          "internalType": "address",
          "name": "_account",
          "type": "address"
        }
      ],
      "name": "deletePolicy",
      "outputs": [],
      "stateMutability": "nonpayable",
      "type": "function"
    },
    {
      "inputs": [],
      "name": "dtos",
      "outputs": [
        {
          "internalType": "address",
          "name": "",
          "type": "address"
        }
      ],
      "stateMutability": "view",
      "type": "function"
    },
    {
      "inputs": [
        {
          "internalType": "bytes32",
          "name": "role",
          "type": "bytes32"
        }
      ],
      "name": "getRoleAdmin",
      "outputs": [
        {
          "internalType": "bytes32",
          "name": "",
          "type": "bytes32"
        }
      ],
      "stateMutability": "view",
      "type": "function"
    },
    {
      "inputs": [
        {
          "internalType": "bytes4",
          "name": "_selector",
          "type": "bytes4"
        }
      ],
      "name": "getSelectorImplementation2",
      "outputs": [
        {
          "internalType": "address",
          "name": "impl",
          "type": "address"
        }
      ],
      "stateMutability": "view",
      "type": "function"
    },
    {
      "inputs": [
        {
          "internalType": "bytes32",
          "name": "role",
          "type": "bytes32"
        },
        {
          "internalType": "address",
          "name": "account",
          "type": "address"
        }
      ],
      "name": "grantRole",
      "outputs": [],
      "stateMutability": "nonpayable",
      "type": "function"
    },
    {
      "inputs": [
        {
          "internalType": "bytes32",
          "name": "role",
          "type": "bytes32"
        },
        {
          "internalType": "address",
          "name": "account",
          "type": "address"
        }
      ],
      "name": "hasRole",
      "outputs": [
        {
          "internalType": "bool",
          "name": "",
          "type": "bool"
        }
      ],
      "stateMutability": "view",
      "type": "function"
    },
    {
      "inputs": [],
      "name": "implementation",
      "outputs": [
        {
          "internalType": "address",
          "name": "",
          "type": "address"
        }
      ],
      "stateMutability": "view",
      "type": "function"
    },
    {
      "inputs": [
        {
          "internalType": "uint256",
          "name": "_index",
          "type": "uint256"
        }
      ],
      "name": "implementation2",
      "outputs": [
        {
          "internalType": "address",
          "name": "",
          "type": "address"
        }
      ],
      "stateMutability": "view",
      "type": "function"
    },
    {
      "inputs": [
        {
          "internalType": "address",
          "name": "_tos",
          "type": "address"
        },
        {
          "internalType": "address",
          "name": "_staking",
          "type": "address"
        },
        {
          "internalType": "address",
          "name": "_treasury",
          "type": "address"
        },
        {
          "internalType": "address",
          "name": "_calculator",
          "type": "address"
        },
        {
          "internalType": "address",
          "name": "_uniswapV3Factory",
          "type": "address"
        }
      ],
      "name": "initialize",
      "outputs": [],
      "stateMutability": "nonpayable",
      "type": "function"
    },
    {
      "inputs": [
        {
          "internalType": "address",
          "name": "account",
          "type": "address"
        }
      ],
      "name": "isAdmin",
      "outputs": [
        {
          "internalType": "bool",
          "name": "",
          "type": "bool"
        }
      ],
      "stateMutability": "view",
      "type": "function"
    },
    {
      "inputs": [
        {
          "internalType": "address",
          "name": "account",
          "type": "address"
        }
      ],
      "name": "isPolicy",
      "outputs": [
        {
          "internalType": "bool",
          "name": "",
          "type": "bool"
        }
      ],
      "stateMutability": "view",
      "type": "function"
    },
    {
      "inputs": [
        {
          "internalType": "address",
          "name": "account",
          "type": "address"
        }
      ],
      "name": "isProxyAdmin",
      "outputs": [
        {
          "internalType": "bool",
          "name": "",
          "type": "bool"
        }
      ],
      "stateMutability": "view",
      "type": "function"
    },
    {
      "inputs": [],
      "name": "isTreasury",
      "outputs": [
        {
          "internalType": "bool",
          "name": "",
          "type": "bool"
        }
      ],
      "stateMutability": "pure",
      "type": "function"
    },
    {
      "inputs": [
        {
          "internalType": "uint256",
          "name": "",
          "type": "uint256"
        }
      ],
      "name": "marketList",
      "outputs": [
        {
          "internalType": "uint256",
          "name": "",
          "type": "uint256"
        }
      ],
      "stateMutability": "view",
      "type": "function"
    },
    {
      "inputs": [
        {
          "internalType": "uint256",
          "name": "",
          "type": "uint256"
        }
      ],
      "name": "markets",
      "outputs": [
        {
          "internalType": "address",
          "name": "quoteToken",
          "type": "address"
        },
        {
          "internalType": "uint256",
          "name": "capacity",
          "type": "uint256"
        },
        {
          "internalType": "uint256",
          "name": "endSaleTime",
          "type": "uint256"
        },
        {
          "internalType": "uint256",
          "name": "maxPayout",
          "type": "uint256"
        },
        {
          "internalType": "uint256",
          "name": "tosPrice",
          "type": "uint256"
        }
      ],
      "stateMutability": "view",
      "type": "function"
    },
    {
      "inputs": [],
      "name": "pauseProxy",
      "outputs": [
        {
          "internalType": "bool",
          "name": "",
          "type": "bool"
        }
      ],
      "stateMutability": "view",
      "type": "function"
    },
    {
      "inputs": [
        {
          "internalType": "uint256",
          "name": "",
          "type": "uint256"
        }
      ],
      "name": "proxyImplementation",
      "outputs": [
        {
          "internalType": "address",
          "name": "",
          "type": "address"
        }
      ],
      "stateMutability": "view",
      "type": "function"
    },
    {
      "inputs": [],
      "name": "removeAdmin",
      "outputs": [],
      "stateMutability": "nonpayable",
      "type": "function"
    },
    {
      "inputs": [],
      "name": "removePolicy",
      "outputs": [],
      "stateMutability": "nonpayable",
      "type": "function"
    },
    {
      "inputs": [],
      "name": "removeProxyAdmin",
      "outputs": [],
      "stateMutability": "nonpayable",
      "type": "function"
    },
    {
      "inputs": [
        {
          "internalType": "bytes32",
          "name": "role",
          "type": "bytes32"
        },
        {
          "internalType": "address",
          "name": "account",
          "type": "address"
        }
      ],
      "name": "renounceRole",
      "outputs": [],
      "stateMutability": "nonpayable",
      "type": "function"
    },
    {
      "inputs": [
        {
          "internalType": "bytes32",
          "name": "role",
          "type": "bytes32"
        },
        {
          "internalType": "address",
          "name": "account",
          "type": "address"
        }
      ],
      "name": "revokeRole",
      "outputs": [],
      "stateMutability": "nonpayable",
      "type": "function"
    },
    {
      "inputs": [
        {
          "internalType": "bytes4",
          "name": "",
          "type": "bytes4"
        }
      ],
      "name": "selectorImplementation",
      "outputs": [
        {
          "internalType": "address",
          "name": "",
          "type": "address"
        }
      ],
      "stateMutability": "view",
      "type": "function"
    },
    {
      "inputs": [
        {
          "internalType": "address",
          "name": "newImplementation",
          "type": "address"
        },
        {
          "internalType": "bool",
          "name": "_alive",
          "type": "bool"
        }
      ],
      "name": "setAliveImplementation2",
      "outputs": [],
      "stateMutability": "nonpayable",
      "type": "function"
    },
    {
      "inputs": [
        {
          "internalType": "address",
          "name": "newImplementation",
          "type": "address"
        },
        {
          "internalType": "uint256",
          "name": "_index",
          "type": "uint256"
        },
        {
          "internalType": "bool",
          "name": "_alive",
          "type": "bool"
        }
      ],
      "name": "setImplementation2",
      "outputs": [],
      "stateMutability": "nonpayable",
      "type": "function"
    },
    {
      "inputs": [
        {
          "internalType": "bool",
          "name": "_pause",
          "type": "bool"
        }
      ],
      "name": "setProxyPause",
      "outputs": [],
      "stateMutability": "nonpayable",
      "type": "function"
    },
    {
      "inputs": [
        {
          "internalType": "bytes4[]",
          "name": "_selectors",
          "type": "bytes4[]"
        },
        {
          "internalType": "address",
          "name": "_imp",
          "type": "address"
        }
      ],
      "name": "setSelectorImplementations2",
      "outputs": [],
      "stateMutability": "nonpayable",
      "type": "function"
    },
    {
      "inputs": [],
      "name": "staking",
      "outputs": [
        {
          "internalType": "contract IStaking",
          "name": "",
          "type": "address"
        }
      ],
      "stateMutability": "view",
      "type": "function"
    },
    {
      "inputs": [
        {
          "internalType": "bytes4",
          "name": "interfaceId",
          "type": "bytes4"
        }
      ],
      "name": "supportsInterface",
      "outputs": [
        {
          "internalType": "bool",
          "name": "",
          "type": "bool"
        }
      ],
      "stateMutability": "view",
      "type": "function"
    },
    {
      "inputs": [],
      "name": "tos",
      "outputs": [
        {
          "internalType": "contract IERC20",
          "name": "",
          "type": "address"
        }
      ],
      "stateMutability": "view",
      "type": "function"
    },
    {
      "inputs": [
        {
          "internalType": "address",
          "name": "newAdmin",
          "type": "address"
        }
      ],
      "name": "transferAdmin",
      "outputs": [],
      "stateMutability": "nonpayable",
      "type": "function"
    },
    {
      "inputs": [
        {
          "internalType": "address",
          "name": "newAdmin",
          "type": "address"
        }
      ],
      "name": "transferProxyAdmin",
      "outputs": [],
      "stateMutability": "nonpayable",
      "type": "function"
    },
    {
      "inputs": [],
      "name": "treasury",
      "outputs": [
        {
          "internalType": "address",
          "name": "",
          "type": "address"
        }
      ],
      "stateMutability": "view",
      "type": "function"
    },
    {
      "inputs": [],
      "name": "uniswapV3Factory",
      "outputs": [
        {
          "internalType": "address",
          "name": "",
          "type": "address"
        }
      ],
      "stateMutability": "view",
      "type": "function"
    },
    {
      "inputs": [
        {
          "internalType": "address",
          "name": "impl",
          "type": "address"
        }
      ],
      "name": "upgradeTo",
      "outputs": [],
      "stateMutability": "nonpayable",
      "type": "function"
    },
    {
      "stateMutability": "payable",
      "type": "receive"
    }
  ],
  "bytecode": "0x60806040523480156200001157600080fd5b506200002d600080516020620020ee833981519152806200005b565b62000048600080516020620020ee83398151915233620000a6565b62000055600033620000a6565b6200015a565b600082815260086020526040808220600101805490849055905190918391839186917fbd79b86ffe0ab8e8776151514217cd7cacd52c909f66475c3af44e129f0b00ff9190a4505050565b620000b28282620000b6565b5050565b60008281526008602090815260408083206001600160a01b038516845290915290205460ff16620000b25760008281526008602090815260408083206001600160a01b03851684529091529020805460ff19166001179055620001163390565b6001600160a01b0316816001600160a01b0316837f2f8788117e7eff1d82e926ec794901d17c78024a50270940304540a733656f0d60405160405180910390a45050565b611f84806200016a6000396000f3fe6080604052600436106102605760003560e01c806375829def116101445780639a202d47116100b6578063be72f2d31161007a578063be72f2d3146108cb578063ce3e39c0146108e0578063d547741f14610900578063f47f2f1d14610920578063f98e422f14610940578063fad1c85c146109605761034f565b80639a202d47146107c5578063a217fddf146107da578063b1283e77146107ef578063b84ef08114610875578063b911135f146108955761034f565b8063842a3bdd11610108578063842a3bdd1461071157806389f395de146107255780638b8f4a65146107455780638d4fdb401461076557806391d148541461078557806396f1557c146107a55761034f565b806375829def1461066f57806375b238fc1461068f5780637cb00d25146106b15780637cd5f663146106d15780638356ca4f146106f15761034f565b80634cf088d9116101dd5780635cc797d8116101a15780635cc797d8146105c05780635fabdf7c146105e057806361d027b31461060057806363a8fd891461062057806365cb3a831461063a578063704802751461064f5761034f565b80634cf088d9146104ce57806350d2a27614610506578063550d01a31461053c5780635b5491821461056c5780635c60da1b1461058c5761034f565b806324d7806c1161022457806324d7806c1461042e5780632f2ff15d1461044e57806336568abe1461046e5780633659cfe61461048e5780634a5df50f146104ae5761034f565b806301ffc9a7146103595780631459457a1461038e57806322985246146103ae578063232b956c146103de578063248a9ca3146103fe5761034f565b3661034f5760408051600481526024810182526020810180516001600160e01b031663842a3bdd60e01b17905290516000918291309183916102a29190611cb0565b60006040518083038185875af1925050503d80600081146102df576040519150601f19603f3d011682016040523d82523d6000602084013e6102e4565b606091505b50915091506000818060200190518101906102ff9190611c29565b90508061034a5760405162461bcd60e51b815260206004820152601460248201527331b0b73737ba103932b1b2b4bb329022ba3432b960611b60448201526064015b60405180910390fd5b505050005b610357610980565b005b34801561036557600080fd5b50610379610374366004611c88565b610a29565b60405190151581526020015b60405180910390f35b34801561039a57600080fd5b506103576103a9366004611ab5565b610a60565b3480156103ba57600080fd5b506103d0600080516020611f0f83398151915281565b604051908152602001610385565b3480156103ea57600080fd5b506103d06103f9366004611c45565b610bfd565b34801561040a57600080fd5b506103d0610419366004611c45565b60009081526008602052604090206001015490565b34801561043a57600080fd5b50610379610449366004611a9b565b610c1e565b34801561045a57600080fd5b50610357610469366004611c5d565b610c38565b34801561047a57600080fd5b50610357610489366004611c5d565b610c5d565b34801561049a57600080fd5b506103576104a9366004611a9b565b610cdb565b3480156104ba57600080fd5b506103576104c9366004611b8e565b610dea565b3480156104da57600080fd5b506001546104ee906001600160a01b031681565b6040516001600160a01b039091168152602001610385565b34801561051257600080fd5b506104ee610521366004611c88565b600c602052600090815260409020546001600160a01b031681565b34801561054857600080fd5b50610379610557366004611a9b565b600b6020526000908152604090205460ff1681565b34801561057857600080fd5b506004546104ee906001600160a01b031681565b34801561059857600080fd5b5060008052600a602052600080516020611f2f833981519152546001600160a01b03166104ee565b3480156105cc57600080fd5b506103576105db366004611b19565b611077565b3480156105ec57600080fd5b506103576105fb366004611a9b565b6110a6565b34801561060c57600080fd5b506002546104ee906001600160a01b031681565b34801561062c57600080fd5b506009546103799060ff1681565b34801561064657600080fd5b506103576110e6565b34801561065b57600080fd5b5061035761066a366004611a9b565b611167565b34801561067b57600080fd5b5061035761068a366004611a9b565b6111a4565b34801561069b57600080fd5b506103d0600080516020611eef83398151915281565b3480156106bd57600080fd5b506103576106cc366004611c0d565b6112ab565b3480156106dd57600080fd5b506103576106ec366004611b4f565b6112e3565b3480156106fd57600080fd5b5061035761070c366004611a9b565b611313565b34801561071d57600080fd5b506000610379565b34801561073157600080fd5b506000546104ee906001600160a01b031681565b34801561075157600080fd5b506104ee610760366004611c45565b6113f1565b34801561077157600080fd5b506104ee610780366004611c88565b61140e565b34801561079157600080fd5b506103796107a0366004611c5d565b6114e6565b3480156107b157600080fd5b506103576107c0366004611a9b565b611511565b3480156107d157600080fd5b50610357611541565b3480156107e657600080fd5b506103d0600081565b3480156107fb57600080fd5b5061084361080a366004611c45565b600760205260009081526040902080546001820154600283015460038401546004909401546001600160a01b0390931693919290919085565b604080516001600160a01b0390961686526020860194909452928401919091526060830152608082015260a001610385565b34801561088157600080fd5b50610357610890366004611a9b565b61158d565b3480156108a157600080fd5b506104ee6108b0366004611c45565b600a602052600090815260409020546001600160a01b031681565b3480156108d757600080fd5b506103576115ca565b3480156108ec57600080fd5b506003546104ee906001600160a01b031681565b34801561090c57600080fd5b5061035761091b366004611c5d565b6115fa565b34801561092c57600080fd5b5061037961093b366004611a9b565b61161f565b34801561094c57600080fd5b506005546104ee906001600160a01b031681565b34801561096c57600080fd5b5061037961097b366004611a9b565b61162b565b60006109976000356001600160e01b03191661140e565b90506001600160a01b038116158015906109b4575060095460ff16155b610a005760405162461bcd60e51b815260206004820152601d60248201527f50726f78793a20696d706c204f522070726f78792069732066616c73650000006044820152606401610341565b3660008037600080366000845af43d6000803e808015610a1f573d6000f35b3d6000fd5b505050565b60006001600160e01b03198216637965db0b60e01b1480610a5a57506301ffc9a760e01b6001600160e01b03198316145b92915050565b610a693361161f565b610a855760405162461bcd60e51b815260040161034190611db6565b846001600160a01b038116610aac5760405162461bcd60e51b815260040161034190611dfe565b846001600160a01b038116610ad35760405162461bcd60e51b815260040161034190611dfe565b846001600160a01b038116610afa5760405162461bcd60e51b815260040161034190611dfe565b846001600160a01b038116610b215760405162461bcd60e51b815260040161034190611dfe565b846001600160a01b038116610b485760405162461bcd60e51b815260040161034190611dfe565b6000546001600160a01b031615610b985760405162461bcd60e51b815260206004820152601460248201527330b63932b0b23c9034b734ba34b0b634bd32b21760611b6044820152606401610341565b5050600080546001600160a01b03199081166001600160a01b039a8b1617909155600180548216988a16989098179097555050600280548616948716949094179093556003805485169286169290921790915560048054909316931692909217905550565b60068181548110610c0d57600080fd5b600091825260209091200154905081565b6000610a5a600080516020611eef833981519152836114e6565b600082815260086020526040902060010154610c5381611645565b610a24838361164f565b6001600160a01b0381163314610ccd5760405162461bcd60e51b815260206004820152602f60248201527f416363657373436f6e74726f6c3a2063616e206f6e6c792072656e6f756e636560448201526e103937b632b9903337b91039b2b63360891b6064820152608401610341565b610cd782826116d5565b5050565b610ce43361161f565b610d005760405162461bcd60e51b815260040161034190611db6565b6001600160a01b038116610d465760405162461bcd60e51b815260206004820152600d60248201526c696e707574206973207a65726f60981b6044820152606401610341565b60008052600a602052600080516020611f2f833981519152546001600160a01b0382811691161415610da65760405162461bcd60e51b815260206004820152600960248201526839b0b6b29030b2323960b91b6044820152606401610341565b610db3816000600161173c565b6040516001600160a01b038216907fbc7cd75a20ee27fd9adebab32041f755214dbc6bffa90cc0225b39da2e5c2d3b90600090a250565b610df33361161f565b610e0f5760405162461bcd60e51b815260040161034190611db6565b81610e5c5760405162461bcd60e51b815260206004820181905260248201527f50726f78793a205f73656c6563746f727327732073697a65206973207a65726f6044820152606401610341565b6001600160a01b0381166000908152600b602052604090205460ff16610ec45760405162461bcd60e51b815260206004820152601860248201527f50726f78793a205f696d70206973206e6f7420616c69766500000000000000006044820152606401610341565b60005b8281101561107157816001600160a01b0316600c6000868685818110610efd57634e487b7160e01b600052603260045260246000fd5b9050602002016020810190610f129190611c88565b6001600160e01b03191681526020810191909152604001600020546001600160a01b03161415610f845760405162461bcd60e51b815260206004820152601d60248201527f4c69717569646974795661756c7450726f78793a2073616d6520696d700000006044820152606401610341565b81600c6000868685818110610fa957634e487b7160e01b600052603260045260246000fd5b9050602002016020810190610fbe9190611c88565b6001600160e01b0319168152602081019190915260400160002080546001600160a01b0319166001600160a01b03928316179055821684848381811061101457634e487b7160e01b600052603260045260246000fd5b90506020020160208101906110299190611c88565b6001600160e01b0319167f14ebc1c32aa68f4d766e89f3e546cee249f7df25183fc10ab1568d91c2ce9b7b60405160405180910390a38061106981611eaf565b915050610ec7565b50505050565b6110803361161f565b61109c5760405162461bcd60e51b815260040161034190611db6565b610cd782826117c7565b6110af3361161f565b6110cb5760405162461bcd60e51b815260040161034190611db6565b6110e3600080516020611f0f833981519152826115fa565b50565b6110ef3361162b565b61114d5760405162461bcd60e51b815260206004820152602960248201527f41636365737369626c653a2043616c6c6572206973206e6f7420616e20706f6c60448201526834b1bc9030b236b4b760b91b6064820152608401610341565b611165600080516020611f0f83398151915233610c5d565b565b6111703361161f565b61118c5760405162461bcd60e51b815260040161034190611db6565b6110e3600080516020611eef83398151915282610c38565b6111ad33610c1e565b806111bc57506111bc3361161f565b6111d85760405162461bcd60e51b815260040161034190611d74565b6001600160a01b0381166112295760405162461bcd60e51b815260206004820152601860248201527741636365737369626c653a207a65726f206164647265737360401b6044820152606401610341565b336001600160a01b038216141561127b5760405162461bcd60e51b815260206004820152601660248201527520b1b1b2b9b9b4b136329d1039b0b6b29030b236b4b760511b6044820152606401610341565b611293600080516020611eef83398151915282610c38565b6110e3600080516020611eef83398151915233610c5d565b6112b43361161f565b6112d05760405162461bcd60e51b815260040161034190611db6565b6009805460ff1916911515919091179055565b6112ec3361161f565b6113085760405162461bcd60e51b815260040161034190611db6565b610a2483838361173c565b61131c3361161f565b6113385760405162461bcd60e51b815260040161034190611db6565b6001600160a01b0381166113895760405162461bcd60e51b815260206004820152601860248201527741636365737369626c653a207a65726f206164647265737360401b6044820152606401610341565b336001600160a01b03821614156113db5760405162461bcd60e51b815260206004820152601660248201527520b1b1b2b9b9b4b136329d1039b0b6b29030b236b4b760511b6044820152606401610341565b6113e6600082610c38565b6110e3600033610c5d565b6000818152600a60205260408120546001600160a01b0316610a5a565b6001600160e01b031981166000908152600c60205260408120546001600160a01b031661145c57505060008052600a602052600080516020611f2f833981519152546001600160a01b031690565b6001600160e01b031982166000908152600c60209081526040808320546001600160a01b03168352600b90915290205460ff16156114ba57506001600160e01b0319166000908152600c60205260409020546001600160a01b031690565b505060008052600a602052600080516020611f2f833981519152546001600160a01b031690565b919050565b60009182526008602090815260408084206001600160a01b0393909316845291905290205460ff1690565b61151a3361161f565b6115365760405162461bcd60e51b815260040161034190611db6565b6110e3600082611826565b61154a33610c1e565b8061155957506115593361161f565b6115755760405162461bcd60e51b815260040161034190611d74565b611165600080516020611eef83398151915233610c5d565b6115963361161f565b6115b25760405162461bcd60e51b815260040161034190611db6565b6110e3600080516020611f0f83398151915282610c38565b6115d33361161f565b6115ef5760405162461bcd60e51b815260040161034190611db6565b611165600033610c5d565b60008281526008602052604090206001015461161581611645565b610a2483836116d5565b6000610a5a81836114e6565b6000610a5a600080516020611f0f833981519152836114e6565b6110e38133611830565b61165982826114e6565b610cd75760008281526008602090815260408083206001600160a01b03851684529091529020805460ff191660011790556116913390565b6001600160a01b0316816001600160a01b0316837f2f8788117e7eff1d82e926ec794901d17c78024a50270940304540a733656f0d60405160405180910390a45050565b6116df82826114e6565b15610cd75760008281526008602090815260408083206001600160a01b0385168085529252808320805460ff1916905551339285917ff6391f5c32d9c69d2a47ea670b442974b53935d1edc7fd64eb21e047a839171b9190a45050565b6001600160a01b0383163b6117935760405162461bcd60e51b815260206004820152601b60248201527f50726f78793a206e6f7420636f6e7472616374206164647265737300000000006044820152606401610341565b80156117c1576000828152600a6020526040902080546001600160a01b0319166001600160a01b0385161790555b610a2483825b6001600160a01b0382166000818152600b6020908152604091829020805460ff191685151590811790915591519182527f72558d9bfba4210f9ef095c782589484151f6d90f7a81bb3cb9b33efc695d324910160405180910390a25050565b610cd7828261164f565b61183a82826114e6565b610cd75761184781611889565b61185283602061189b565b604051602001611863929190611ccc565b60408051601f198184030181529082905262461bcd60e51b825261034191600401611d41565b6060610a5a6001600160a01b03831660145b606060006118aa836002611e4d565b6118b5906002611e35565b67ffffffffffffffff8111156118db57634e487b7160e01b600052604160045260246000fd5b6040519080825280601f01601f191660200182016040528015611905576020820181803683370190505b509050600360fc1b8160008151811061192e57634e487b7160e01b600052603260045260246000fd5b60200101906001600160f81b031916908160001a905350600f60fb1b8160018151811061196b57634e487b7160e01b600052603260045260246000fd5b60200101906001600160f81b031916908160001a905350600061198f846002611e4d565b61199a906001611e35565b90505b6001811115611a2e576f181899199a1a9b1b9c1cb0b131b232b360811b85600f16601081106119dc57634e487b7160e01b600052603260045260246000fd5b1a60f81b828281518110611a0057634e487b7160e01b600052603260045260246000fd5b60200101906001600160f81b031916908160001a90535060049490941c93611a2781611e98565b905061199d565b508315611a7d5760405162461bcd60e51b815260206004820181905260248201527f537472696e67733a20686578206c656e67746820696e73756666696369656e746044820152606401610341565b9392505050565b80356001600160a01b03811681146114e157600080fd5b600060208284031215611aac578081fd5b611a7d82611a84565b600080600080600060a08688031215611acc578081fd5b611ad586611a84565b9450611ae360208701611a84565b9350611af160408701611a84565b9250611aff60608701611a84565b9150611b0d60808701611a84565b90509295509295909350565b60008060408385031215611b2b578182fd5b611b3483611a84565b91506020830135611b4481611ee0565b809150509250929050565b600080600060608486031215611b63578283fd5b611b6c84611a84565b9250602084013591506040840135611b8381611ee0565b809150509250925092565b600080600060408486031215611ba2578283fd5b833567ffffffffffffffff80821115611bb9578485fd5b818601915086601f830112611bcc578485fd5b813581811115611bda578586fd5b8760208260051b8501011115611bee578586fd5b602092830195509350611c049186019050611a84565b90509250925092565b600060208284031215611c1e578081fd5b8135611a7d81611ee0565b600060208284031215611c3a578081fd5b8151611a7d81611ee0565b600060208284031215611c56578081fd5b5035919050565b60008060408385031215611c6f578182fd5b82359150611c7f60208401611a84565b90509250929050565b600060208284031215611c99578081fd5b81356001600160e01b031981168114611a7d578182fd5b60008251611cc2818460208701611e6c565b9190910192915050565b7f416363657373436f6e74726f6c3a206163636f756e7420000000000000000000815260008351611d04816017850160208801611e6c565b7001034b99036b4b9b9b4b733903937b6329607d1b6017918401918201528351611d35816028840160208801611e6c565b01602801949350505050565b6020815260008251806020840152611d60816040850160208701611e6c565b601f01601f19169190910160400192915050565b60208082526022908201527f41636365737369626c653a2043616c6c6572206973206e6f7420616e2061646d60408201526134b760f11b606082015260800190565b60208082526028908201527f41636365737369626c653a2043616c6c6572206973206e6f7420616e2070726f6040820152673c3c9030b236b4b760c11b606082015260800190565b6020808252601b908201527f426f6e644465706f7369746f72793a7a65726f20616464726573730000000000604082015260600190565b60008219821115611e4857611e48611eca565b500190565b6000816000190483118215151615611e6757611e67611eca565b500290565b60005b83811015611e87578181015183820152602001611e6f565b838111156110715750506000910152565b600081611ea757611ea7611eca565b506000190190565b6000600019821415611ec357611ec3611eca565b5060010190565b634e487b7160e01b600052601160045260246000fd5b80151581146110e357600080fdfedf8b4c520ffe197c5343c6f5aec59570151ef9a492f2c624fd45ddde6135ec42fb5864e8ff833c3cb2d2d08505e82ff02a43554c74a35d4f5a64e8526127831113da86008ba1c6922daee3e07db95305ef49ebced9f5467a0b8613fcc6b343e3a2646970667358221220e5f3aef253154dca8a467fedd3e214a323d7e495ff186cda0802fc2b1dbdfbed64736f6c63430008040033df8b4c520ffe197c5343c6f5aec59570151ef9a492f2c624fd45ddde6135ec42",
  "linkReferences": {},
  "deployedLinkReferences": {}
}