{
  "_format": "hh-sol-artifact-1",
  "contractName": "LibTreasury",
  "sourceName": "contracts/libraries/LibTreasury.sol",
  "abi": [
    {
      "inputs": [
        {
          "internalType": "uint256",
          "name": "role",
          "type": "uint256"
        }
      ],
      "name": "getStatus",
      "outputs": [
        {
          "internalType": "enum LibTreasury.STATUS",
          "name": "_status",
          "type": "LibTreasury.STATUS"
        }
      ],
      "stateMutability": "pure",
      "type": "function"
    }
  ],
  "bytecode": "0x61018d61003a600b82828239805160001a60731461002d57634e487b7160e01b600052600060045260246000fd5b30600052607381538281f3fe73000000000000000000000000000000000000000030146080604052600436106100355760003560e01c80635c622a0e1461003a575b600080fd5b61004d610048366004610117565b610063565b60405161005a919061012f565b60405180910390f35b6000600182141561007657506001919050565b600282141561008757506002919050565b600382141561009857506003919050565b60048214156100a957506004919050565b60058214156100ba57506005919050565b60068214156100cb57506006919050565b60078214156100dc57506007919050565b60088214156100ed57506008919050565b60098214156100fe57506009919050565b600a82141561010f5750600a919050565b506000919050565b600060208284031215610128578081fd5b5035919050565b60208101600b831061015157634e487b7160e01b600052602160045260246000fd5b9190529056fea2646970667358221220ad3922f6f0d53d629129f83e242d172f72c9e3d304c984ef2b4092c86f2deb5e64736f6c63430008040033",
  "linkReferences": {},
  "deployedLinkReferences": {}
}