{
  "_format": "hh-sol-artifact-1",
  "contractName": "BondDepository",
  "sourceName": "contracts/BondDepository.sol",
  "abi": [
    {
      "inputs": [],
      "stateMutability": "nonpayable",
      "type": "constructor"
    },
    {
      "anonymous": false,
      "inputs": [
        {
          "indexed": false,
          "internalType": "uint256",
          "name": "_marketId",
          "type": "uint256"
        },
        {
          "indexed": false,
          "internalType": "bool",
          "name": "_increaseFlag",
          "type": "bool"
        },
        {
          "indexed": false,
          "internalType": "uint256",
          "name": "_increaseAmount",
          "type": "uint256"
        }
      ],
      "name": "ChangedCapacity",
      "type": "event"
    },
    {
      "anonymous": false,
      "inputs": [
        {
          "indexed": false,
          "internalType": "uint256",
          "name": "_marketId",
          "type": "uint256"
        },
        {
          "indexed": false,
          "internalType": "uint256",
          "name": "closeTime",
          "type": "uint256"
        }
      ],
      "name": "ChangedCloseTime",
      "type": "event"
    },
    {
      "anonymous": false,
      "inputs": [
        {
          "indexed": false,
          "internalType": "uint256",
          "name": "_marketId",
          "type": "uint256"
        },
        {
          "indexed": false,
          "internalType": "uint256",
          "name": "_amount",
          "type": "uint256"
        }
      ],
      "name": "ChangedMaxPayout",
      "type": "event"
    },
    {
      "anonymous": false,
      "inputs": [
        {
          "indexed": false,
          "internalType": "uint256",
          "name": "_marketId",
          "type": "uint256"
        },
        {
          "indexed": false,
          "internalType": "uint256",
          "name": "_tosPrice",
          "type": "uint256"
        }
      ],
      "name": "ChangedPrice",
      "type": "event"
    },
    {
      "anonymous": false,
      "inputs": [
        {
          "indexed": false,
          "internalType": "uint256",
          "name": "marketId",
          "type": "uint256"
        }
      ],
      "name": "ClosedMarket",
      "type": "event"
    },
    {
      "anonymous": false,
      "inputs": [
        {
          "indexed": false,
          "internalType": "uint256",
          "name": "marketId",
          "type": "uint256"
        },
        {
          "indexed": false,
          "internalType": "address",
          "name": "token",
          "type": "address"
        },
        {
          "indexed": false,
          "internalType": "uint256[4]",
          "name": "market",
          "type": "uint256[4]"
        }
      ],
      "name": "CreatedMarket",
      "type": "event"
    },
    {
      "anonymous": false,
      "inputs": [
        {
          "indexed": false,
          "internalType": "address",
          "name": "user",
          "type": "address"
        },
        {
          "indexed": false,
          "internalType": "uint256",
          "name": "marketId",
          "type": "uint256"
        },
        {
          "indexed": false,
          "internalType": "uint256",
          "name": "amount",
          "type": "uint256"
        },
        {
          "indexed": false,
          "internalType": "uint256",
          "name": "payout",
          "type": "uint256"
        },
        {
          "indexed": false,
          "internalType": "bool",
          "name": "isEth",
          "type": "bool"
        },
        {
          "indexed": false,
          "internalType": "uint256",
          "name": "mintAmount",
          "type": "uint256"
        }
      ],
      "name": "Deposited",
      "type": "event"
    },
    {
      "anonymous": false,
      "inputs": [
        {
          "indexed": false,
          "internalType": "address",
          "name": "user",
          "type": "address"
        },
        {
          "indexed": false,
          "internalType": "uint256",
          "name": "marketId",
          "type": "uint256"
        },
        {
          "indexed": false,
          "internalType": "uint256",
          "name": "stakeId",
          "type": "uint256"
        },
        {
          "indexed": false,
          "internalType": "uint256",
          "name": "amount",
          "type": "uint256"
        },
        {
          "indexed": false,
          "internalType": "uint256",
          "name": "tosValuation",
          "type": "uint256"
        }
      ],
      "name": "ETHDeposited",
      "type": "event"
    },
    {
      "anonymous": false,
      "inputs": [
        {
          "indexed": false,
          "internalType": "address",
          "name": "user",
          "type": "address"
        },
        {
          "indexed": false,
          "internalType": "uint256",
          "name": "marketId",
          "type": "uint256"
        },
        {
          "indexed": false,
          "internalType": "uint256",
          "name": "stakeId",
          "type": "uint256"
        },
        {
          "indexed": false,
          "internalType": "uint256",
          "name": "amount",
          "type": "uint256"
        },
        {
          "indexed": false,
          "internalType": "uint256",
          "name": "lockWeeks",
          "type": "uint256"
        },
        {
          "indexed": false,
          "internalType": "uint256",
          "name": "tosValuation",
          "type": "uint256"
        }
      ],
      "name": "ETHDepositedWithSTOS",
      "type": "event"
    },
    {
      "anonymous": false,
      "inputs": [
        {
          "indexed": true,
          "internalType": "bytes32",
          "name": "role",
          "type": "bytes32"
        },
        {
          "indexed": true,
          "internalType": "bytes32",
          "name": "previousAdminRole",
          "type": "bytes32"
        },
        {
          "indexed": true,
          "internalType": "bytes32",
          "name": "newAdminRole",
          "type": "bytes32"
        }
      ],
      "name": "RoleAdminChanged",
      "type": "event"
    },
    {
      "anonymous": false,
      "inputs": [
        {
          "indexed": true,
          "internalType": "bytes32",
          "name": "role",
          "type": "bytes32"
        },
        {
          "indexed": true,
          "internalType": "address",
          "name": "account",
          "type": "address"
        },
        {
          "indexed": true,
          "internalType": "address",
          "name": "sender",
          "type": "address"
        }
      ],
      "name": "RoleGranted",
      "type": "event"
    },
    {
      "anonymous": false,
      "inputs": [
        {
          "indexed": true,
          "internalType": "bytes32",
          "name": "role",
          "type": "bytes32"
        },
        {
          "indexed": true,
          "internalType": "address",
          "name": "account",
          "type": "address"
        },
        {
          "indexed": true,
          "internalType": "address",
          "name": "sender",
          "type": "address"
        }
      ],
      "name": "RoleRevoked",
      "type": "event"
    },
    {
      "anonymous": false,
      "inputs": [
        {
          "indexed": false,
          "internalType": "address",
          "name": "calculatorAddress",
          "type": "address"
        }
      ],
      "name": "SetCalculator",
      "type": "event"
    },
    {
      "inputs": [],
      "name": "ADMIN_ROLE",
      "outputs": [
        {
          "internalType": "bytes32",
          "name": "",
          "type": "bytes32"
        }
      ],
      "stateMutability": "view",
      "type": "function"
    },
    {
      "inputs": [],
      "name": "DEFAULT_ADMIN_ROLE",
      "outputs": [
        {
          "internalType": "bytes32",
          "name": "",
          "type": "bytes32"
        }
      ],
      "stateMutability": "view",
      "type": "function"
    },
    {
      "inputs": [
        {
          "internalType": "uint256",
          "name": "_id",
          "type": "uint256"
        },
        {
          "internalType": "uint256",
          "name": "_amount",
          "type": "uint256"
        }
      ],
      "name": "ETHDeposit",
      "outputs": [
        {
          "internalType": "uint256",
          "name": "payout_",
          "type": "uint256"
        }
      ],
      "stateMutability": "payable",
      "type": "function"
    },
    {
      "inputs": [
        {
          "internalType": "uint256",
          "name": "_id",
          "type": "uint256"
        },
        {
          "internalType": "uint256",
          "name": "_amount",
          "type": "uint256"
        },
        {
          "internalType": "uint256",
          "name": "_lockWeeks",
          "type": "uint256"
        }
      ],
      "name": "ETHDepositWithSTOS",
      "outputs": [
        {
          "internalType": "uint256",
          "name": "payout_",
          "type": "uint256"
        }
      ],
      "stateMutability": "payable",
      "type": "function"
    },
    {
      "inputs": [],
      "name": "POLICY_ROLE",
      "outputs": [
        {
          "internalType": "bytes32",
          "name": "",
          "type": "bytes32"
        }
      ],
      "stateMutability": "view",
      "type": "function"
    },
    {
      "inputs": [
        {
          "internalType": "address",
          "name": "account",
          "type": "address"
        }
      ],
      "name": "addAdmin",
      "outputs": [],
      "stateMutability": "nonpayable",
      "type": "function"
    },
    {
      "inputs": [
        {
          "internalType": "address",
          "name": "_account",
          "type": "address"
        }
      ],
      "name": "addPolicy",
      "outputs": [],
      "stateMutability": "nonpayable",
      "type": "function"
    },
    {
      "inputs": [
        {
          "internalType": "address",
          "name": "_owner",
          "type": "address"
        }
      ],
      "name": "addProxyAdmin",
      "outputs": [],
      "stateMutability": "nonpayable",
      "type": "function"
    },
    {
      "inputs": [
        {
          "internalType": "uint256",
          "name": "_tosPrice",
          "type": "uint256"
        },
        {
          "internalType": "uint256",
          "name": "_amount",
          "type": "uint256"
        }
      ],
      "name": "calculateTosAmountForAsset",
      "outputs": [
        {
          "internalType": "uint256",
          "name": "payout",
          "type": "uint256"
        }
      ],
      "stateMutability": "pure",
      "type": "function"
    },
    {
      "inputs": [],
      "name": "calculator",
      "outputs": [
        {
          "internalType": "address",
          "name": "",
          "type": "address"
        }
      ],
      "stateMutability": "view",
      "type": "function"
    },
    {
      "inputs": [
        {
          "internalType": "uint256",
          "name": "_marketId",
          "type": "uint256"
        },
        {
          "internalType": "bool",
          "name": "_increaseFlag",
          "type": "bool"
        },
        {
          "internalType": "uint256",
          "name": "_increaseAmount",
          "type": "uint256"
        }
      ],
      "name": "changeCapacity",
      "outputs": [],
      "stateMutability": "nonpayable",
      "type": "function"
    },
    {
      "inputs": [
        {
          "internalType": "uint256",
          "name": "_marketId",
          "type": "uint256"
        },
        {
          "internalType": "uint256",
          "name": "closeTime",
          "type": "uint256"
        }
      ],
      "name": "changeCloseTime",
      "outputs": [],
      "stateMutability": "nonpayable",
      "type": "function"
    },
    {
      "inputs": [
        {
          "internalType": "uint256",
          "name": "_marketId",
          "type": "uint256"
        },
        {
          "internalType": "uint256",
          "name": "_amount",
          "type": "uint256"
        }
      ],
      "name": "changeMaxPayout",
      "outputs": [],
      "stateMutability": "nonpayable",
      "type": "function"
    },
    {
      "inputs": [
        {
          "internalType": "uint256",
          "name": "_marketId",
          "type": "uint256"
        },
        {
          "internalType": "uint256",
          "name": "_tosPrice",
          "type": "uint256"
        }
      ],
      "name": "changePrice",
      "outputs": [],
      "stateMutability": "nonpayable",
      "type": "function"
    },
    {
      "inputs": [
        {
          "internalType": "uint256",
          "name": "_id",
          "type": "uint256"
        }
      ],
      "name": "close",
      "outputs": [],
      "stateMutability": "nonpayable",
      "type": "function"
    },
    {
      "inputs": [
        {
          "internalType": "address",
          "name": "_token",
          "type": "address"
        },
        {
          "internalType": "uint256[4]",
          "name": "_market",
          "type": "uint256[4]"
        }
      ],
      "name": "create",
      "outputs": [
        {
          "internalType": "uint256",
          "name": "id_",
          "type": "uint256"
        }
      ],
      "stateMutability": "nonpayable",
      "type": "function"
    },
    {
      "inputs": [
        {
          "internalType": "address",
          "name": "_account",
          "type": "address"
        }
      ],
      "name": "deletePolicy",
      "outputs": [],
      "stateMutability": "nonpayable",
      "type": "function"
    },
    {
      "inputs": [],
      "name": "dtos",
      "outputs": [
        {
          "internalType": "address",
          "name": "",
          "type": "address"
        }
      ],
      "stateMutability": "view",
      "type": "function"
    },
    {
      "inputs": [],
      "name": "getBonds",
      "outputs": [
        {
          "internalType": "uint256[]",
          "name": "",
          "type": "uint256[]"
        },
        {
          "internalType": "address[]",
          "name": "",
          "type": "address[]"
        },
        {
          "internalType": "uint256[]",
          "name": "",
          "type": "uint256[]"
        },
        {
          "internalType": "uint256[]",
          "name": "",
          "type": "uint256[]"
        },
        {
          "internalType": "uint256[]",
          "name": "",
          "type": "uint256[]"
        }
      ],
      "stateMutability": "view",
      "type": "function"
    },
    {
      "inputs": [],
      "name": "getMarketList",
      "outputs": [
        {
          "internalType": "uint256[]",
          "name": "",
          "type": "uint256[]"
        }
      ],
      "stateMutability": "view",
      "type": "function"
    },
    {
      "inputs": [
        {
          "internalType": "bytes32",
          "name": "role",
          "type": "bytes32"
        }
      ],
      "name": "getRoleAdmin",
      "outputs": [
        {
          "internalType": "bytes32",
          "name": "",
          "type": "bytes32"
        }
      ],
      "stateMutability": "view",
      "type": "function"
    },
    {
      "inputs": [
        {
          "internalType": "bytes32",
          "name": "role",
          "type": "bytes32"
        },
        {
          "internalType": "address",
          "name": "account",
          "type": "address"
        }
      ],
      "name": "grantRole",
      "outputs": [],
      "stateMutability": "nonpayable",
      "type": "function"
    },
    {
      "inputs": [
        {
          "internalType": "bytes32",
          "name": "role",
          "type": "bytes32"
        },
        {
          "internalType": "address",
          "name": "account",
          "type": "address"
        }
      ],
      "name": "hasRole",
      "outputs": [
        {
          "internalType": "bool",
          "name": "",
          "type": "bool"
        }
      ],
      "stateMutability": "view",
      "type": "function"
    },
    {
      "inputs": [
        {
          "internalType": "address",
          "name": "account",
          "type": "address"
        }
      ],
      "name": "isAdmin",
      "outputs": [
        {
          "internalType": "bool",
          "name": "",
          "type": "bool"
        }
      ],
      "stateMutability": "view",
      "type": "function"
    },
    {
      "inputs": [
        {
          "internalType": "uint256",
          "name": "_marketId",
          "type": "uint256"
        }
      ],
      "name": "isOpened",
      "outputs": [
        {
          "internalType": "bool",
          "name": "closedBool",
          "type": "bool"
        }
      ],
      "stateMutability": "view",
      "type": "function"
    },
    {
      "inputs": [
        {
          "internalType": "address",
          "name": "account",
          "type": "address"
        }
      ],
      "name": "isPolicy",
      "outputs": [
        {
          "internalType": "bool",
          "name": "",
          "type": "bool"
        }
      ],
      "stateMutability": "view",
      "type": "function"
    },
    {
      "inputs": [
        {
          "internalType": "address",
          "name": "account",
          "type": "address"
        }
      ],
      "name": "isProxyAdmin",
      "outputs": [
        {
          "internalType": "bool",
          "name": "",
          "type": "bool"
        }
      ],
      "stateMutability": "view",
      "type": "function"
    },
    {
      "inputs": [
        {
          "internalType": "uint256",
          "name": "",
          "type": "uint256"
        }
      ],
      "name": "marketList",
      "outputs": [
        {
          "internalType": "uint256",
          "name": "",
          "type": "uint256"
        }
      ],
      "stateMutability": "view",
      "type": "function"
    },
    {
      "inputs": [
        {
          "internalType": "uint256",
          "name": "",
          "type": "uint256"
        }
      ],
      "name": "markets",
      "outputs": [
        {
          "internalType": "address",
          "name": "quoteToken",
          "type": "address"
        },
        {
          "internalType": "uint256",
          "name": "capacity",
          "type": "uint256"
        },
        {
          "internalType": "uint256",
          "name": "endSaleTime",
          "type": "uint256"
        },
        {
          "internalType": "uint256",
          "name": "maxPayout",
          "type": "uint256"
        },
        {
          "internalType": "uint256",
          "name": "tosPrice",
          "type": "uint256"
        }
      ],
      "stateMutability": "view",
      "type": "function"
    },
    {
      "inputs": [
        {
          "internalType": "uint256",
          "name": "_tosPrice",
          "type": "uint256"
        },
        {
          "internalType": "uint256",
          "name": "_maxPayout",
          "type": "uint256"
        }
      ],
      "name": "purchasableAssetAmountAtOneTime",
      "outputs": [
        {
          "internalType": "uint256",
          "name": "maxPayout_",
          "type": "uint256"
        }
      ],
      "stateMutability": "pure",
      "type": "function"
    },
    {
      "inputs": [],
      "name": "removeAdmin",
      "outputs": [],
      "stateMutability": "nonpayable",
      "type": "function"
    },
    {
      "inputs": [],
      "name": "removePolicy",
      "outputs": [],
      "stateMutability": "nonpayable",
      "type": "function"
    },
    {
      "inputs": [],
      "name": "removeProxyAdmin",
      "outputs": [],
      "stateMutability": "nonpayable",
      "type": "function"
    },
    {
      "inputs": [
        {
          "internalType": "bytes32",
          "name": "role",
          "type": "bytes32"
        },
        {
          "internalType": "address",
          "name": "account",
          "type": "address"
        }
      ],
      "name": "renounceRole",
      "outputs": [],
      "stateMutability": "nonpayable",
      "type": "function"
    },
    {
      "inputs": [
        {
          "internalType": "bytes32",
          "name": "role",
          "type": "bytes32"
        },
        {
          "internalType": "address",
          "name": "account",
          "type": "address"
        }
      ],
      "name": "revokeRole",
      "outputs": [],
      "stateMutability": "nonpayable",
      "type": "function"
    },
    {
      "inputs": [
        {
          "internalType": "address",
          "name": "_calculator",
          "type": "address"
        }
      ],
      "name": "setCalculator",
      "outputs": [],
      "stateMutability": "nonpayable",
      "type": "function"
    },
    {
      "inputs": [],
      "name": "staking",
      "outputs": [
        {
          "internalType": "contract IStaking",
          "name": "",
          "type": "address"
        }
      ],
      "stateMutability": "view",
      "type": "function"
    },
    {
      "inputs": [
        {
          "internalType": "bytes4",
          "name": "interfaceId",
          "type": "bytes4"
        }
      ],
      "name": "supportsInterface",
      "outputs": [
        {
          "internalType": "bool",
          "name": "",
          "type": "bool"
        }
      ],
      "stateMutability": "view",
      "type": "function"
    },
    {
      "inputs": [],
      "name": "tos",
      "outputs": [
        {
          "internalType": "contract IERC20",
          "name": "",
          "type": "address"
        }
      ],
      "stateMutability": "view",
      "type": "function"
    },
    {
      "inputs": [],
      "name": "totalMarketCount",
      "outputs": [
        {
          "internalType": "uint256",
          "name": "",
          "type": "uint256"
        }
      ],
      "stateMutability": "view",
      "type": "function"
    },
    {
      "inputs": [
        {
          "internalType": "address",
          "name": "newAdmin",
          "type": "address"
        }
      ],
      "name": "transferAdmin",
      "outputs": [],
      "stateMutability": "nonpayable",
      "type": "function"
    },
    {
      "inputs": [
        {
          "internalType": "address",
          "name": "newAdmin",
          "type": "address"
        }
      ],
      "name": "transferProxyAdmin",
      "outputs": [],
      "stateMutability": "nonpayable",
      "type": "function"
    },
    {
      "inputs": [],
      "name": "treasury",
      "outputs": [
        {
          "internalType": "address",
          "name": "",
          "type": "address"
        }
      ],
      "stateMutability": "view",
      "type": "function"
    },
    {
      "inputs": [],
      "name": "uniswapV3Factory",
      "outputs": [
        {
          "internalType": "address",
          "name": "",
          "type": "address"
        }
      ],
      "stateMutability": "view",
      "type": "function"
    },
    {
      "inputs": [
        {
          "internalType": "uint256",
          "name": "_marketId",
          "type": "uint256"
        }
      ],
      "name": "viewMarket",
      "outputs": [
        {
          "internalType": "address",
          "name": "quoteToken",
          "type": "address"
        },
        {
          "internalType": "uint256",
          "name": "capacity",
          "type": "uint256"
        },
        {
          "internalType": "uint256",
          "name": "endSaleTime",
          "type": "uint256"
        },
        {
          "internalType": "uint256",
          "name": "maxPayout",
          "type": "uint256"
        },
        {
          "internalType": "uint256",
          "name": "tosPrice",
          "type": "uint256"
        }
      ],
      "stateMutability": "view",
      "type": "function"
    }
  ],
  "bytecode": "0x608060405234801561001057600080fd5b50613000806100206000396000f3fe6080604052600436106102725760003560e01c806375829def1161014f578063b1667adf116100c1578063d547741f1161007a578063d547741f146107e5578063d6e0eee414610805578063f29310c114610825578063f47f2f1d14610838578063f98e422f14610858578063fad1c85c1461087857600080fd5b8063b1667adf146106fc578063b3de019c14610750578063b84ef08114610770578063be72f2d314610790578063c53468f0146107a5578063ce3e39c0146107c557600080fd5b806391d148541161011357806391d148541461060d57806396f1557c1461062d5780639a202d471461064d5780639e8332cd14610662578063a217fddf14610682578063b1283e771461069757600080fd5b806375829def1461056557806375b238fc146105855780638356ca4f146105a757806389f395de146105c75780638b140f6b146105e757600080fd5b80634cf088d9116101e85780635faf46bb116101ac5780635faf46bb146104b057806360a66f58146104d057806361d027b3146104f057806365cb3a83146105105780637048027514610525578063708d5c151461054557600080fd5b80634cf088d9146103f65780635b5491821461042e5780635b9907a41461044e5780635fabdf7c146104705780635fabfedc1461049057600080fd5b8063248a9ca31161023a578063248a9ca31461033157806324d7806c146103615780632f2ff15d1461038157806336568abe146103a15780633bb4f50b146103c15780634c8df535146103e157600080fd5b806301ffc9a7146102775780630aebeb4e146102ac57806312fcee80146102ce57806322985246146102ef578063232b956c14610311575b600080fd5b34801561028357600080fd5b50610297610292366004612a38565b610898565b60405190151581526020015b60405180910390f35b3480156102b857600080fd5b506102cc6102c73660046129f5565b6108cf565b005b6102e16102dc366004612ab3565b610a08565b6040519081526020016102a3565b3480156102fb57600080fd5b506102e1600080516020612fab83398151915281565b34801561031d57600080fd5b506102e161032c3660046129f5565b610c55565b34801561033d57600080fd5b506102e161034c3660046129f5565b60009081526008602052604090206001015490565b34801561036d57600080fd5b5061029761037c3660046129a3565b610c76565b34801561038d57600080fd5b506102cc61039c366004612a0d565b610c90565b3480156103ad57600080fd5b506102cc6103bc366004612a0d565b610cba565b3480156103cd57600080fd5b506102e16103dc366004612ab3565b610d38565b3480156103ed57600080fd5b506006546102e1565b34801561040257600080fd5b50600154610416906001600160a01b031681565b6040516001600160a01b0390911681526020016102a3565b34801561043a57600080fd5b50600454610416906001600160a01b031681565b34801561045a57600080fd5b50610463610d5e565b6040516102a39190612bdc565b34801561047c57600080fd5b506102cc61048b3660046129a3565b610db6565b34801561049c57600080fd5b506102cc6104ab366004612ab3565b610df6565b3480156104bc57600080fd5b506102976104cb3660046129f5565b610ef1565b3480156104dc57600080fd5b506102e16104eb366004612ab3565b610f24565b3480156104fc57600080fd5b50600254610416906001600160a01b031681565b34801561051c57600080fd5b506102cc610f39565b34801561053157600080fd5b506102cc6105403660046129a3565b610f78565b34801561055157600080fd5b506102cc610560366004612ab3565b610fb5565b34801561057157600080fd5b506102cc6105803660046129a3565b6110d0565b34801561059157600080fd5b506102e1600080516020612f8b83398151915281565b3480156105b357600080fd5b506102cc6105c23660046129a3565b6111d7565b3480156105d357600080fd5b50600054610416906001600160a01b031681565b3480156105f357600080fd5b506105fc6112b5565b6040516102a3959493929190612bef565b34801561061957600080fd5b50610297610628366004612a0d565b6116c2565b34801561063957600080fd5b506102cc6106483660046129a3565b6116ed565b34801561065957600080fd5b506102cc61171d565b34801561066e57600080fd5b506102cc61067d366004612a78565b611769565b34801561068e57600080fd5b506102e1600081565b3480156106a357600080fd5b506106eb6106b23660046129f5565b600760205260009081526040902080546001820154600283015460038401546004909401546001600160a01b0390931693919290919085565b6040516102a3959493929190612bae565b34801561070857600080fd5b506106eb6107173660046129f5565b600090815260076020526040902080546001820154600283015460038401546004909401546001600160a01b0390931694919390929091565b34801561075c57600080fd5b506102cc61076b366004612ab3565b6118e4565b34801561077c57600080fd5b506102cc61078b3660046129a3565b6119d4565b34801561079c57600080fd5b506102cc611a11565b3480156107b157600080fd5b506102cc6107c03660046129a3565b611a41565b3480156107d157600080fd5b50600354610416906001600160a01b031681565b3480156107f157600080fd5b506102cc610800366004612a0d565b611b58565b34801561081157600080fd5b506102e16108203660046129bd565b611b7d565b6102e1610833366004612ad4565b611f52565b34801561084457600080fd5b506102976108533660046129a3565b61222e565b34801561086457600080fd5b50600554610416906001600160a01b031681565b34801561088457600080fd5b506102976108933660046129a3565b61223a565b60006001600160e01b03198216637965db0b60e01b14806108c957506301ffc9a760e01b6001600160e01b03198316145b92915050565b6108d83361223a565b6108fd5760405162461bcd60e51b81526004016108f490612e31565b60405180910390fd5b60008181526007602052604090206002015461094a5760405162461bcd60e51b815260206004820152600c60248201526b195b5c1d1e481b585c9ad95d60a21b60448201526064016108f4565b6000818152600760205260409020600201544210806109785750600081815260076020526040902060010154155b6109b55760405162461bcd60e51b815260206004820152600e60248201526d185b1c9958591e4818db1bdcd95960921b60448201526064016108f4565b60008181526007602090815260408083204260028201556001810193909355518381527f065f36f0cc9a946e058a78fcf529ed8629c0ad3f6d065007c3c9162fd2c39d6391015b60405180910390a15050565b60008281526007602052604081206002015483904210610a3a5760405162461bcd60e51b81526004016108f490612d48565b600081815260076020526040902060010154610a685760405162461bcd60e51b81526004016108f490612db6565b60008481526007602052604090205484906001600160a01b0316158015610a9f575060008181526007602052604090206002015415155b610aeb5760405162461bcd60e51b815260206004820152601e60248201527f426f6e644465706f7369746f72793a206e6f7420455448206d61726b6574000060448201526064016108f4565b8380610b095760405162461bcd60e51b81526004016108f490612d7f565b843414610b285760405162461bcd60e51b81526004016108f490612ded565b6000610b35338789612254565b60015460405163332b01f360e01b815233600482015260248101849052604481018b9052606481018390529297509092506000916001600160a01b039091169063332b01f390608401602060405180830381600087803b158015610b9857600080fd5b505af1158015610bac573d6000803e3d6000fd5b505050506040513d601f19601f82011682018060405250810190610bd09190612a60565b6002546040519192506001600160a01b0316903480156108fc02916000818181858888f19350505050158015610c0a573d6000803e3d6000fd5b507fe6842e3c66982eec53fbf127ab93e36198f7d048a044b2761abd0e131b3f84a43389838a8a604051610c42959493929190612bae565b60405180910390a1505050505092915050565b60068181548110610c6557600080fd5b600091825260209091200154905081565b60006108c9600080516020612f8b833981519152836116c2565b600082815260086020526040902060010154610cab81612639565b610cb58383612643565b505050565b6001600160a01b0381163314610d2a5760405162461bcd60e51b815260206004820152602f60248201527f416363657373436f6e74726f6c3a2063616e206f6e6c792072656e6f756e636560448201526e103937b632b9903337b91039b2b63360891b60648201526084016108f4565b610d3482826126c9565b5050565b6000670de0b6b3a7640000610d4d8484612edc565b610d579190612ebc565b9392505050565b60606006805480602002602001604051908101604052809291908181526020018280548015610dac57602002820191906000526020600020905b815481526020019060010190808311610d98575b5050505050905090565b610dbf3361222e565b610ddb5760405162461bcd60e51b81526004016108f490612d00565b610df3600080516020612fab83398151915282611b58565b50565b610dff3361223a565b610e1b5760405162461bcd60e51b81526004016108f490612e31565b60008281526007602052604090206002015482904210610e4d5760405162461bcd60e51b81526004016108f490612d48565b600081815260076020526040902060010154610e7b5760405162461bcd60e51b81526004016108f490612db6565b8180610e995760405162461bcd60e51b81526004016108f490612d7f565b600084815260076020908152604091829020600381018690558251878152918201869052917f13067d803552eac6ffd9ed0180e377884374b0ee53d2efa798e1c6d6974db44191015b60405180910390a15050505050565b600081815260076020526040812060020154421080156108c9575050600090815260076020526040902060010154151590565b600082610d4d83670de0b6b3a7640000612edc565b610f423361223a565b610f5e5760405162461bcd60e51b81526004016108f490612e31565b610f76600080516020612fab83398151915233610cba565b565b610f813361222e565b610f9d5760405162461bcd60e51b81526004016108f490612d00565b610df3600080516020612f8b83398151915282610c90565b610fbe3361223a565b610fda5760405162461bcd60e51b81526004016108f490612e31565b600082815260076020526040902060030154829061103a5760405162461bcd60e51b815260206004820181905260248201527f426f6e644465706f7369746f72793a206e6f6e2d6578697374206d61726b657460448201526064016108f4565b42821161107a5760405162461bcd60e51b815260206004820152600e60248201526d7061737420636c6f736554696d6560901b60448201526064016108f4565b600083815260076020908152604091829020600281018590558251868152918201859052917fc3daa84eedfacd6851bbf80d00ce11271bf926ac96c3d361c0307023c939d4b3910160405180910390a150505050565b6110d933610c76565b806110e857506110e83361222e565b6111045760405162461bcd60e51b81526004016108f490612cbe565b6001600160a01b0381166111555760405162461bcd60e51b815260206004820152601860248201527741636365737369626c653a207a65726f206164647265737360401b60448201526064016108f4565b336001600160a01b03821614156111a75760405162461bcd60e51b815260206004820152601660248201527520b1b1b2b9b9b4b136329d1039b0b6b29030b236b4b760511b60448201526064016108f4565b6111bf600080516020612f8b83398151915282610c90565b610df3600080516020612f8b83398151915233610cba565b6111e03361222e565b6111fc5760405162461bcd60e51b81526004016108f490612d00565b6001600160a01b03811661124d5760405162461bcd60e51b815260206004820152601860248201527741636365737369626c653a207a65726f206164647265737360401b60448201526064016108f4565b336001600160a01b038216141561129f5760405162461bcd60e51b815260206004820152601660248201527520b1b1b2b9b9b4b136329d1039b0b6b29030b236b4b760511b60448201526064016108f4565b6112aa600082610c90565b610df3600033610cba565b600654606090819081908190819060008167ffffffffffffffff8111156112ec57634e487b7160e01b600052604160045260246000fd5b604051908082528060200260200182016040528015611315578160200160208202803683370190505b50905060008267ffffffffffffffff81111561134157634e487b7160e01b600052604160045260246000fd5b60405190808252806020026020018201604052801561136a578160200160208202803683370190505b50905060008367ffffffffffffffff81111561139657634e487b7160e01b600052604160045260246000fd5b6040519080825280602002602001820160405280156113bf578160200160208202803683370190505b50905060008467ffffffffffffffff8111156113eb57634e487b7160e01b600052604160045260246000fd5b604051908082528060200260200182016040528015611414578160200160208202803683370190505b50905060008567ffffffffffffffff81111561144057634e487b7160e01b600052604160045260246000fd5b604051908082528060200260200182016040528015611469578160200160208202803683370190505b50905060005b868110156116af576006818154811061149857634e487b7160e01b600052603260045260246000fd5b90600052602060002001548682815181106114c357634e487b7160e01b600052603260045260246000fd5b602002602001018181525050600760008783815181106114f357634e487b7160e01b600052603260045260246000fd5b6020026020010151815260200190815260200160002060000160009054906101000a90046001600160a01b031685828151811061154057634e487b7160e01b600052603260045260246000fd5b60200260200101906001600160a01b031690816001600160a01b0316815250506007600087838151811061158457634e487b7160e01b600052603260045260246000fd5b60200260200101518152602001908152602001600020600101548482815181106115be57634e487b7160e01b600052603260045260246000fd5b602002602001018181525050600760008783815181106115ee57634e487b7160e01b600052603260045260246000fd5b602002602001015181526020019081526020016000206002015483828151811061162857634e487b7160e01b600052603260045260246000fd5b6020026020010181815250506007600087838151811061165857634e487b7160e01b600052603260045260246000fd5b602002602001015181526020019081526020016000206004015482828151811061169257634e487b7160e01b600052603260045260246000fd5b6020908102919091010152806116a781612f59565b91505061146f565b50939a9299509097509550909350915050565b60009182526008602090815260408084206001600160a01b0393909316845291905290205460ff1690565b6116f63361222e565b6117125760405162461bcd60e51b81526004016108f490612d00565b610df3600082612730565b61172633610c76565b8061173557506117353361222e565b6117515760405162461bcd60e51b81526004016108f490612cbe565b610f76600080516020612f8b83398151915233610cba565b6117723361223a565b61178e5760405162461bcd60e51b81526004016108f490612e31565b80806117ac5760405162461bcd60e51b81526004016108f490612d7f565b600084815260076020526040902060030154849061180c5760405162461bcd60e51b815260206004820181905260248201527f426f6e644465706f7369746f72793a206e6f6e2d6578697374206d61726b657460448201526064016108f4565b6000858152600760205260409020841561183f57838160010160008282546118349190612ea4565b9091555061189a9050565b806001015484101561185f57838160010160008282546118349190612efb565b600060018201556040518681527f065f36f0cc9a946e058a78fcf529ed8629c0ad3f6d065007c3c9162fd2c39d639060200160405180910390a15b6040805187815286151560208201529081018590527f5e6b6b7fc7d8fb3137611da2ee2b2529d67d6d9e3ae513c9431123de9aa8b88e9060600160405180910390a1505050505050565b6118ed3361223a565b6119095760405162461bcd60e51b81526004016108f490612e31565b6000828152600760205260409020600201548290421061193b5760405162461bcd60e51b81526004016108f490612d48565b6000818152600760205260409020600101546119695760405162461bcd60e51b81526004016108f490612db6565b81806119875760405162461bcd60e51b81526004016108f490612d7f565b600084815260076020908152604091829020600481018690558251878152918201869052917f8d41eafd4a0911818359bda81daed68115ba0312f42a7098075150da886cd0a49101610ee2565b6119dd3361222e565b6119f95760405162461bcd60e51b81526004016108f490612d00565b610df3600080516020612fab83398151915282610c90565b611a1a3361222e565b611a365760405162461bcd60e51b81526004016108f490612d00565b610f76600033610cba565b806001600160a01b038116611a985760405162461bcd60e51b815260206004820152601b60248201527f426f6e644465706f7369746f72793a7a65726f2061646472657373000000000060448201526064016108f4565b611aa13361222e565b611abd5760405162461bcd60e51b81526004016108f490612d00565b6003546001600160a01b0383811691161415611b0a5760405162461bcd60e51b815260206004820152600c60248201526b73616d65206164647265737360a01b60448201526064016108f4565b600380546001600160a01b0319166001600160a01b0384169081179091556040519081527f7816a90568840c698b302fddaa32068d3ac1ecf5aa9ab4060e2ff9463583c23c906020016109fc565b600082815260086020526040902060010154611b7381612639565b610cb583836126c9565b6000611b883361223a565b611ba45760405162461bcd60e51b81526004016108f490612e31565b813580611bc35760405162461bcd60e51b81526004016108f490612d7f565b604083013580611be55760405162461bcd60e51b81526004016108f490612d7f565b606084013580611c075760405162461bcd60e51b81526004016108f490612d7f565b68056bc75e2d63100000853511611c605760405162461bcd60e51b815260206004820152601e60248201527f6e6565642074686520746f74616c53616c65416d6f756e74203e20313030000060448201526064016108f4565b600160009054906101000a90046001600160a01b03166001600160a01b03166330e06e8b6040518163ffffffff1660e01b8152600401602060405180830381600087803b158015611cb057600080fd5b505af1158015611cc4573d6000803e3d6000fd5b505050506040513d601f19601f82011682018060405250810190611ce89190612a60565b60008181526007602052604090206002015490945015611d4a5760405162461bcd60e51b815260206004820152601960248201527f616c72656164792072656769737465726564206d61726b65740000000000000060448201526064016108f4565b42602086013511611d965760405162461bcd60e51b8152602060048201526016602482015275195b9914d85b19551a5b59481a185cc81c185cdcd95960521b60448201526064016108f4565b6040805160a0810182526001600160a01b0388168152863560208201529081018660016020020135815260200186600360048110611de457634e487b7160e01b600052603260045260246000fd5b6020020135815260200186600260048110611e0f57634e487b7160e01b600052603260045260246000fd5b602090810291909101359091526000868152600782526040808220845181546001600160a01b0319166001600160a01b03918216178255938501516001808301919091559185015160028201556060850151600382015560809094015160049094019390935560068054938401815590527ff652222313e28459528d920b65115c16c04f3efc82aaedc97be59f3f377c0d3f909101859055861615611f0e57600254604051639ea6498560e01b81526001600160a01b03888116600483015290911690639ea6498590602401600060405180830381600087803b158015611ef557600080fd5b505af1158015611f09573d6000803e3d6000fd5b505050505b7f9743ac71f9a2bcf57afd56006eb7c6027c94927d2d01c874438472819d40f5c5848787604051611f4193929190612e7a565b60405180910390a150505092915050565b60008381526007602052604081206002015484904210611f845760405162461bcd60e51b81526004016108f490612d48565b600081815260076020526040902060010154611fb25760405162461bcd60e51b81526004016108f490612db6565b60008581526007602052604090205485906001600160a01b0316158015611fe9575060008181526007602052604090206002015415155b6120355760405162461bcd60e51b815260206004820152601e60248201527f426f6e644465706f7369746f72793a206e6f7420455448206d61726b6574000060448201526064016108f4565b84806120535760405162461bcd60e51b81526004016108f490612d7f565b84806120715760405162461bcd60e51b81526004016108f490612d7f565b8634146120905760405162461bcd60e51b81526004016108f490612ded565b600186116120f05760405162461bcd60e51b815260206004820152602760248201527f5f6c6f636b5765656b73206d7573742062652067726561746572207468616e2060448201526618903bb2b2b59760c91b60648201526084016108f4565b60006120fd33898b612254565b60015460405163980b109760e01b81529298509092506000916001600160a01b039091169063980b10979061213e9033908b908f908e908990600401612bae565b602060405180830381600087803b15801561215857600080fd5b505af115801561216c573d6000803e3d6000fd5b505050506040513d601f19601f820116820180604052508101906121909190612a60565b6002546040519192506001600160a01b0316903480156108fc02916000818181858888f193505050501580156121ca573d6000803e3d6000fd5b5060408051338152602081018c9052908101829052606081018a90526080810189905260a081018890527fd04d64d5a1460d8c5a8c5ffb4d6ddb0f4e5cf774c894a27c5bb73c4fc41698809060c00160405180910390a15050505050509392505050565b60006108c981836116c2565b60006108c9600080516020612fab833981519152836116c2565b600080600560149054906101000a900460ff1615156001151514156122bb5760405162461bcd60e51b815260206004820152601f60248201527f5265656e7472616e637947756172643a207265656e7472616e742063616c6c0060448201526064016108f4565b506005805460ff60a01b1916600160a01b1790556000828152600760205260409020600481015460038201549091906122f5908390610f24565b8511156123445760405162461bcd60e51b815260206004820152601860248201527f4465706f7369746f7279203a206f766572206d6178506179000000000000000060448201526064016108f4565b61234e8286610d38565b9250600083116123965760405162461bcd60e51b81526020600482015260136024820152721e995c9bc81cdd185ada5b99c8185b5bdd5b9d606a1b60448201526064016108f4565b6000670de0b6b3a7640000600260009054906101000a90046001600160a01b03166001600160a01b03166396f0bd616040518163ffffffff1660e01b815260040160206040518083038186803b1580156123ef57600080fd5b505afa158015612403573d6000803e3d6000fd5b505050506040513d601f19601f820116820180604052508101906124279190612a60565b6124319088612edc565b61243b9190612ebc565b9050838110156124a15760405162461bcd60e51b815260206004820152602b60248201527f6d696e7461626c65416d6f756e74206973206c657373207468616e207374616b60448201526a34b7339030b6b7bab73a1760a91b60648201526084016108f4565b81600101548411156124ec5760405162461bcd60e51b815260206004820152601460248201527311195c1bdcda5d1bdc9e4e881cdbdb19081bdd5d60621b60448201526064016108f4565b838260010160008282546125009190612efb565b9091555050600182015468056bc75e2d631000001061255457600060018301556040518581527f065f36f0cc9a946e058a78fcf529ed8629c0ad3f6d065007c3c9162fd2c39d639060200160405180910390a15b60025460405163ef7c6c0f60e01b81526004810183905260248101869052600160448201526001600160a01b039091169063ef7c6c0f90606401600060405180830381600087803b1580156125a857600080fd5b505af11580156125bc573d6000803e3d6000fd5b5050604080516001600160a01b038b16815260208101899052908101899052606081018790526001608082015260a081018490527fef81711614d4ac7faee84826311bec7d949a272a2e7e4f39f3a3b72527767d69925060c001905060405180910390a150506005805460ff60a01b191690559094909350915050565b610df3813361273a565b61264d82826116c2565b610d345760008281526008602090815260408083206001600160a01b03851684529091529020805460ff191660011790556126853390565b6001600160a01b0316816001600160a01b0316837f2f8788117e7eff1d82e926ec794901d17c78024a50270940304540a733656f0d60405160405180910390a45050565b6126d382826116c2565b15610d345760008281526008602090815260408083206001600160a01b0385168085529252808320805460ff1916905551339285917ff6391f5c32d9c69d2a47ea670b442974b53935d1edc7fd64eb21e047a839171b9190a45050565b610d348282612643565b61274482826116c2565b610d345761275181612793565b61275c8360206127a5565b60405160200161276d929190612b39565b60408051601f198184030181529082905262461bcd60e51b82526108f491600401612c8b565b60606108c96001600160a01b03831660145b606060006127b4836002612edc565b6127bf906002612ea4565b67ffffffffffffffff8111156127e557634e487b7160e01b600052604160045260246000fd5b6040519080825280601f01601f19166020018201604052801561280f576020820181803683370190505b509050600360fc1b8160008151811061283857634e487b7160e01b600052603260045260246000fd5b60200101906001600160f81b031916908160001a905350600f60fb1b8160018151811061287557634e487b7160e01b600052603260045260246000fd5b60200101906001600160f81b031916908160001a9053506000612899846002612edc565b6128a4906001612ea4565b90505b6001811115612938576f181899199a1a9b1b9c1cb0b131b232b360811b85600f16601081106128e657634e487b7160e01b600052603260045260246000fd5b1a60f81b82828151811061290a57634e487b7160e01b600052603260045260246000fd5b60200101906001600160f81b031916908160001a90535060049490941c9361293181612f42565b90506128a7565b508315610d575760405162461bcd60e51b815260206004820181905260248201527f537472696e67733a20686578206c656e67746820696e73756666696369656e7460448201526064016108f4565b80356001600160a01b038116811461299e57600080fd5b919050565b6000602082840312156129b4578081fd5b610d5782612987565b60008060a083850312156129cf578081fd5b6129d883612987565b91508360a0840111156129e9578081fd5b50926020919091019150565b600060208284031215612a06578081fd5b5035919050565b60008060408385031215612a1f578182fd5b82359150612a2f60208401612987565b90509250929050565b600060208284031215612a49578081fd5b81356001600160e01b031981168114610d57578182fd5b600060208284031215612a71578081fd5b5051919050565b600080600060608486031215612a8c578081fd5b8335925060208401358015158114612aa2578182fd5b929592945050506040919091013590565b60008060408385031215612ac5578182fd5b50508035926020909101359150565b600080600060608486031215612ae8578283fd5b505081359360208301359350604090920135919050565b6000815180845260208085019450808401835b83811015612b2e57815187529582019590820190600101612b12565b509495945050505050565b7f416363657373436f6e74726f6c3a206163636f756e7420000000000000000000815260008351612b71816017850160208801612f12565b7001034b99036b4b9b9b4b733903937b6329607d1b6017918401918201528351612ba2816028840160208801612f12565b01602801949350505050565b6001600160a01b03959095168552602085019390935260408401919091526060830152608082015260a00190565b602081526000610d576020830184612aff565b60a081526000612c0260a0830188612aff565b828103602084810191909152875180835288820192820190845b81811015612c415784516001600160a01b031683529383019391830191600101612c1c565b50508481036040860152612c558189612aff565b925050508281036060840152612c6b8186612aff565b90508281036080840152612c7f8185612aff565b98975050505050505050565b6020815260008251806020840152612caa816040850160208701612f12565b601f01601f19169190910160400192915050565b60208082526022908201527f41636365737369626c653a2043616c6c6572206973206e6f7420616e2061646d60408201526134b760f11b606082015260800190565b60208082526028908201527f41636365737369626c653a2043616c6c6572206973206e6f7420616e2070726f6040820152673c3c9030b236b4b760c11b606082015260800190565b6020808252601d908201527f426f6e644465706f7369746f72793a20636c6f736564206d61726b6574000000604082015260600190565b60208082526019908201527f426f6e644465706f7369746f72793a207a65726f2075696e7400000000000000604082015260600190565b6020808252601d908201527f426f6e644465706f7369746f72793a207a65726f206361706163697479000000604082015260600190565b60208082526024908201527f4465706f7369746f72793a2045544820616d6f756e747320646f206e6f74206d6040820152630c2e8c6d60e31b606082015260800190565b60208082526029908201527f41636365737369626c653a2043616c6c6572206973206e6f7420616e20706f6c60408201526834b1bc9030b236b4b760b91b606082015260800190565b8381526001600160a01b038316602082015260c08101608083604084013760008152949350505050565b60008219821115612eb757612eb7612f74565b500190565b600082612ed757634e487b7160e01b81526012600452602481fd5b500490565b6000816000190483118215151615612ef657612ef6612f74565b500290565b600082821015612f0d57612f0d612f74565b500390565b60005b83811015612f2d578181015183820152602001612f15565b83811115612f3c576000848401525b50505050565b600081612f5157612f51612f74565b506000190190565b6000600019821415612f6d57612f6d612f74565b5060010190565b634e487b7160e01b600052601160045260246000fdfedf8b4c520ffe197c5343c6f5aec59570151ef9a492f2c624fd45ddde6135ec42fb5864e8ff833c3cb2d2d08505e82ff02a43554c74a35d4f5a64e85261278311a26469706673582212201da6cd5ad4827eb5c4d75facaf7d5576a12b7b32f8df781f94c981486453506b64736f6c63430008040033",
  "linkReferences": {},
  "deployedLinkReferences": {}
}